{
  "transactions": [
    {
      "hash": "0xdd66ad3186e4ba97f7f727d3322660cc074d125ba97e5d7f53827dd6cca29c61",
      "transactionType": "CREATE",
      "contractName": "CVAllocationFacet",
      "contractAddress": "0xb5b5b4df921e33fe99606e2ca3b0b29af3642e8d",
      "function": null,
      "arguments": null,
      "transaction": {
        "from": "0x00bcc26e792e393217ba895f5e85ae628fc994e9",
        "value": "0x0",
        "input": "0x608060405234801561000f575f80fd5b50612ce18061001d5f395ff3fe6080604052600436106101b4575f3560e01c806305caa7f3146101b85780630a6f0ee9146101ed5780630bece79c1461020e5780630c0512e91461022d578063125fd1d9146102505780631374b22d146102655780631b36f56f146102945780632506b870146102b3578063255ffb38146102e55780632dbd6fdd14610310578063339604591461033b578063351d9f961461035057806341bb7605146103765780634ab4ba42146104095780634c3ceb5b1461041d5780634d33f6c91461043157806353ca476c1461045c5780635db64b991461047b5780636003e414146104a657806360b0645a146104c5578063626c47e8146104e457806376e43099146104f857806380fd91cd1461050d578063817b1cd21461052c578063868c57b8146105415780638dc8309414610560578063914bdef01461041d57806394573cbb14610574578063962896f614610589578063a28889e1146105a2578063a47ff7e5146105d9578063aba9ffee146105ef578063b6c61f3114610604578063cf7ae90c14610623578063dfe9ec581461041d578063ee50ee1b1461063c578063ef2920fc14610650578063f5be3f7c14610663575b5f80fd5b3480156101c3575f80fd5b506080546101d7906001600160a01b031681565b6040516101e4919061249c565b60405180910390f35b3480156101f8575f80fd5b5061020c6102073660046125f7565b610678565b005b348015610219575f80fd5b506079546101d7906001600160a01b031681565b348015610238575f80fd5b50610242606e5481565b6040519081526020016101e4565b34801561025b575f80fd5b50610242606f5481565b348015610270575f80fd5b5061028461027f3660046126c1565b610dc1565b60405190151581526020016101e4565b34801561029f575f80fd5b506081546101d7906001600160a01b031681565b3480156102be575f80fd5b506072546073546074546075546102d59392919084565b6040516101e494939291906126d8565b3480156102f0575f80fd5b506102426102ff3660046126c1565b607e6020525f908152604090205481565b34801561031b575f80fd5b5060765461032e90610100900460ff1681565b6040516101e49190612707565b348015610346575f80fd5b50610242606c5481565b34801561035b575f80fd5b506076546103699060ff1681565b6040516101e49190612721565b348015610381575f80fd5b506103d16103903660046126c1565b607f6020525f90815260409020805460018201546002830154600384015460048501546005909501546001600160a01b039485169593909416939192909186565b604080516001600160a01b039788168152969095166020870152938501929092526060840152608083015260a082015260c0016101e4565b348015610414575f80fd5b50610242610dfb565b348015610428575f80fd5b50610242608081565b34801561043c575f80fd5b5061024261044b3660046126c1565b60876020525f908152604090205481565b348015610467575f80fd5b506102426104763660046126c1565b610e09565b348015610486575f80fd5b50610242610495366004612735565b607c6020525f908152604090205481565b3480156104b1575f80fd5b506078546101d7906001600160a01b031681565b3480156104d0575f80fd5b506102426104df3660046126c1565b610e28565b3480156104ef575f80fd5b50610242600381565b348015610503575f80fd5b5061024260845481565b348015610518575f80fd5b506083546101d7906001600160a01b031681565b348015610537575f80fd5b5061024260705481565b34801561054c575f80fd5b5061024261055b366004612750565b610eec565b34801561056b575f80fd5b50610284610f17565b34801561057f575f80fd5b5061024260825481565b348015610594575f80fd5b506085546102849060ff1681565b3480156105ad575f80fd5b50606d546105c1906001600160401b031681565b6040516001600160401b0390911681526020016101e4565b3480156105e4575f80fd5b506077546102429081565b3480156105fa575f80fd5b5061024260715481565b34801561060f575f80fd5b50607a546101d7906001600160a01b031681565b34801561062e575f80fd5b506088546102849060ff1681565b348015610647575f80fd5b50610242604081565b61020c61065e36600461277a565b611013565b34801561066e575f80fd5b50610242611c2081565b6065546001600160a01b031633146106bd57606554604051636ca3252960e01b81526106b49133916001600160a01b03909116906004016127c8565b60405180910390fd5b6068545f036106e55760685460405163243d58fb60e21b81526004016106b491815260200190565b5f82511161070b5781516040516307ab773f60e01b81526004016106b491815260200190565b5f8280602001905181019061072091906127e2565b9050600160765460ff16600281111561073b5761073b6126f3565b1461076057607654604051631759044b60e21b81526106b49160ff1690600401612721565b5f610769610dfb565b90508015801561078857505f828152607b602052604090206001015415155b156107a957604051633d16389f60e21b8152600481018290526024016106b4565b6080546001600160a01b031615610908575f828152607b602052604090819020600181015460069091015491516370a0823160e01b815290916001600160a01b0316906370a082319061080090309060040161249c565b602060405180830381865afa15801561081b573d5f803e3d5ffd5b505050506040513d601f19601f8201168201806040525081019061083f91906127e2565b1015610908576080546040516370a0823160e01b81526001600160a01b03909116906311bcc81e9082906370a082319061087d90309060040161249c565b602060405180830381865afa158015610898573d5f803e3d5ffd5b505050506040513d601f19601f820116820180604052508101906108bc91906127e2565b6040518263ffffffff1660e01b81526004016108da91815260200190565b5f604051808303815f87803b1580156108f1575f80fd5b505af1158015610903573d5f803e3d5ffd5b505050505b5f828152607b6020526040902054821480159061092457508115155b156109455760405163c1d17bef60e01b8152600481018390526024016106b4565b60015f838152607b602052604090206008015460ff16600681111561096c5761096c6126f3565b146109bd575f828152607b6020526040902060080154829060ff166006811115610998576109986126f3565b60405163052d1a7b60e21b8152600481019290925260ff1660248201526044016106b4565b5f828152607b6020526040902060010154811015610a04575f828152607b602052604090819020600101549051632c31d85b60e11b81526106b491849184906004016127f9565b5f828152607b602052604090206001015415801590610a3857505f828152607b6020526040902060010154610a38906117a4565b15610a8e575f629896808260725f0154610a529190612823565b610a5c919061283a565b5f848152607b602052604090819020600101549051633e4bb86360e01b81529192506106b491839085906004016127f9565b5f828152607b602052604090206001015415801590610aad5750607154155b15610ace57604051636c8b498960e11b8152600481018390526024016106b4565b5f610ad8836117cf565b5f848152607b60205260408120600101549192509015610bb2575f848152607b6020526040908190206001015460715460745460735460725460755495516314eff2dd60e11b815260048101959095526024850189905260448501939093526064840191909152608483015260a482015260c48101919091527336eac4ca8389e35d66978e94c811f959e5a158f2906329dfe5ba9060e401602060405180830381865af4158015610b8b573d5f803e3d5ffd5b505050506040513d601f19601f82011682018060405250810190610baf91906127e2565b90505b808211158015610bd157505f848152607b602052604090206001015415155b15610c06575f848152607b602052604090819020600101549051637ac83e3d60e01b81526106b49184918491906004016127f9565b5f848152607b60205260409020600801805460ff19166004179055610c29611818565b610c3284611843565b60655460685460405163068bcd8d60e01b81526004810191909152610cd4916001600160a01b03169063068bcd8d906024015f60405180830381865afa158015610c7e573d5f803e3d5ffd5b505050506040513d5f823e601f3d908101601f19168201604052610ca5919081019061287b565b6040908101515f878152607b6020529190912060048101546001909101546001600160a01b039091169061191d565b6079545f858152607b6020908152604080832060058101546010909101548452607f9092529182902060020154915163099ea56b60e41b81526001600160a01b03938416936399ea56b093610d30938a93921691600401612993565b5f604051808303815f87803b158015610d47575f80fd5b505af1158015610d59573d5f803e3d5ffd5b5050505f858152607b602052604090819020600481015460019091015491517fa7932e9c92f31e1ed56b29d00bbe669a97484dc24de28dd9c8c0429df7f358479350610db09288926001600160a01b031691612993565b60405180910390a150505050505050565b5f818152607b602052604081205415801590610df557505f828152607b60205260409020600501546001600160a01b031615155b92915050565b5f610e046119cc565b905090565b60868181548110610e18575f80fd5b5f91825260209091200154905081565b5f818152607b60205260408120610e3d610f17565b610e4b576003015492915050565b7336eac4ca8389e35d66978e94c811f959e5a158f263010dfe64826007015443610e7591906129b2565b600384015460028501546074546040516001600160e01b031960e087901b168152610ea694939291906004016126d8565b602060405180830381865af4158015610ec1573d5f803e3d5ffd5b505050506040513d601f19601f82011682018060405250810190610ee591906127e2565b9392505050565b607d602052815f5260405f208181548110610f05575f80fd5b905f5260205f20015f91509150505481565b6078545f906001600160a01b0316610f2f5750600190565b6078546040515f9182916001600160a01b0390911690633a871fe160e01b90610f5c90309060240161249c565b60408051601f198184030181529181526020820180516001600160e01b03166001600160e01b0319909416939093179092529051610f9a91906129c5565b5f60405180830381855afa9150503d805f8114610fd2576040519150601f19603f3d011682016040523d82523d5f602084013e610fd7565b606091505b5091509150811580610fea575060208151105b15610ff85760019250505090565b8080602001905181019061100c91906129e0565b9250505090565b6065546001600160a01b0316331461104f57606554604051636ca3252960e01b81526106b49133916001600160a01b03909116906004016127c8565b6068545f036110775760685460405163243d58fb60e21b81526004016106b491815260200190565b60785460405163208a40f360e11b81526001600160a01b039091169063411481e6906110a790309060040161249c565b5f6040518083038186803b1580156110bd575f80fd5b505afa1580156110cf573d5f803e3d5ffd5b505050505f828060200190518101906110e891906129ff565b905060408151111561111257805160408051633d4057c560e11b81526004016106b4929190612aa2565b5f5b81518110156111685761116082828151811061113257611132612ab0565b60200260200101515f015183838151811061114f5761114f612ab0565b602002602001015160200151611bbb565b600101611114565b5061117282611c81565b60785460405163011de97360e61b81526001600160a01b039091169063477a5cc0906111a490859030906004016127c8565b602060405180830381865afa1580156111bf573d5f803e3d5ffd5b505050506040513d601f19601f820116820180604052508101906111e391906129e0565b6112025781604051634f6fcf7360e11b81526004016106b4919061249c565b5f8061120d84611d21565b90505f5b8351811015611297578115801561124457505f84828151811061123657611236612ab0565b602002602001015160200151135b1561126457846040516307772b5360e51b81526004016106b4919061249c565b83818151811061127657611276612ab0565b6020026020010151602001518361128d9190612ac4565b9250600101611211565b506001600160a01b0384165f908152607c60205260408120546112ba9084611f3a565b608354604051637817ee4f60e01b81529192505f916001600160a01b0390911690637817ee4f906112f190899030906004016127c8565b602060405180830381865afa15801561130c573d5f803e3d5ffd5b505050506040513d601f19601f8201168201806040525081019061133091906127e2565b905080821115611357578181604051636b20c17f60e11b81526004016106b4929190612aa2565b506001600160a01b0385165f908152607c60205260408120919091556060925090505b825181101561179d575f83828151811061139657611396612ab0565b60200260200101515f0151905082515f036113ef57604080516001808252818301909252906020808301908036833701905050925080835f815181106113de576113de612ab0565b60200260200101818152505061150b565b5f805b8451811015611444578285828151811061140e5761140e612ab0565b60200260200101510361143c57600191508281604051632b7aec5560e21b81526004016106b4929190612aa2565b6001016113f2565b5080611509575f845160016114599190612aeb565b6001600160401b03811115611470576114706124b0565b604051908082528060200260200182016040528015611499578160200160208202803683370190505b5090505f5b85518110156114e6578581815181106114b9576114b9612ab0565b60200260200101518282815181106114d3576114d3612ab0565b602090810291909101015260010161149e565b5082818651815181106114fb576114fb612ab0565b602090810291909101015293505b505b5f84838151811061151e5761151e612ab0565b6020908102919091018101518101515f848152607b8352604080822060028101546001600160a01b038c16845260098201909552908220549294509291906115668286611f3a565b6001600160a01b038b165f9081526009860160205260408120829055909150805b6001600160a01b038c165f908152607d60205260409020548110156115f05785546001600160a01b038d165f908152607d602052604090208054839081106115d1576115d1612ab0565b905f5260205f200154036115e857600191506115f0565b600101611587565b5080611678576001600160a01b038b165f908152607d60205260409020546080811061164857604051637ebba14d60e11b81526001600160a01b038d16600482015260248101829052608060448201526064016106b4565b506001600160a01b038b165f908152607d6020908152604082208754815460018101835591845291909220909101555b8183116116c65761168983836129b2565b60705f8282546116999190612aeb565b909155506116a9905083836129b2565b856002015f8282546116bb9190612aeb565b909155506117089050565b6116d082846129b2565b60705f8282546116e091906129b2565b909155506116f0905082846129b2565b856002015f82825461170291906129b2565b90915550505b84600701545f0361171e5743600786015561178a565b6117288585611f6f565b60028501546003860154604080516001600160a01b038f168152602081018b9052908101859052606081019290925260808201527f0227f642ddcf2042ceaeafadb9d540f432072c00cd4862881667168dcc14710f9060a00160405180910390a15b50506001909501945061137a9350505050565b5050505050565b5f6117b26298968083612823565b6117ba610dfb565b6072546117c79190612823565b111592915050565b5f818152607b60205260408120805483146118005760405163c1d17bef60e01b8152600481018490526024016106b4565b61180e818260020154611f6f565b6003015492915050565b60855460ff1661182457565b608454156118415760848054905f61183b83612afe565b91905055505b565b5f818152608760205260408120549081900361185d575050565b5f6118696001836129b2565b6086549091505f9061187d906001906129b2565b90505f6086828154811061189357611893612ab0565b905f5260205f20015490508183146118de5780608684815481106118b9576118b9612ab0565b5f918252602090912001556118cf836001612aeb565b5f828152608760205260409020555b60868054806118ef576118ef612b13565b600190038181905f5260205f20015f9055905560875f8681526020019081526020015f205f90555050505050565b73eeeeeeeeeeeeeeeeeeeeeeeeeeeeeeeeeeeeeeed196001600160a01b038416016119bc575f826001600160a01b0316826040515f6040518083038185875af1925050503d805f811461198b576040519150601f19603f3d011682016040523d82523d5f602084013e611990565b606091505b50509050806119b657828260405163296c17bb60e21b81526004016106b4929190612b27565b50505050565b6119c7838383611fa8565b505050565b60655460685460405163068bcd8d60e01b81525f9283926001600160a01b039091169163068bcd8d91611a059160040190815260200190565b5f60405180830381865afa158015611a1f573d5f803e3d5ffd5b505050506040513d5f823e601f3d908101601f19168201604052611a46919081019061287b565b60400151905073eeeeeeeeeeeeeeeeeeeeeeeeeeeeeeeeeeeeeeed196001600160a01b03821601611a78574791505090565b6040516370a0823160e01b81525f906001600160a01b038316906370a0823190611aa690309060040161249c565b602060405180830381865afa158015611ac1573d5f803e3d5ffd5b505050506040513d601f19601f82011682018060405250810190611ae591906127e2565b6080549091506001600160a01b0390811690831603611b045792915050565b6080545f906001600160a01b031615611b8b576080546040516370a0823160e01b81526001600160a01b03909116906370a0823190611b4790309060040161249c565b602060405180830381865afa158015611b62573d5f803e3d5ffd5b505050506040513d601f19601f82011682018060405250810190611b8691906127e2565b611b8d565b5f5b608054909150611ba990829085906001600160a01b0316611ffe565b611bb39083612aeb565b935050505090565b5f828152607b602052604081209082138015611c5657505f600882015460ff166006811115611bec57611bec6126f3565b1480611c1057506003600882015460ff166006811115611c0e57611c0e6126f3565b145b80611c3357506004600882015460ff166006811115611c3157611c316126f3565b145b80611c5657506006600882015460ff166006811115611c5457611c546126f3565b145b156119c75760088101546040516394d57ead60e01b81526106b491859160ff90911690600401612b40565b60835460405163288c314960e21b81526001600160a01b039091169063a230c52490611cb190849060040161249c565b602060405180830381865afa158015611ccc573d5f803e3d5ffd5b505050506040513d601f19601f82011682018060405250810190611cf091906129e0565b611d1e57607854604051636332657560e11b81526106b49183916001600160a01b03909116906004016127c8565b50565b607a545f906001600160a01b031615611da557607a546040516302154c3d60e51b81526001600160a01b03909116906342a987a090611d6690859030906004016127c8565b602060405180830381865afa158015611d81573d5f803e3d5ffd5b505050506040513d601f19601f82011682018060405250810190610df591906129e0565b6004607654610100900460ff166004811115611dc357611dc36126f3565b148015611de157506078546083546001600160a01b03908116911614155b15611e165760835460405163288c314960e21b81526001600160a01b039091169063a230c52490611d6690859060040161249c565b6068546040516810531313d5d31254d560ba1b602082015260298101919091525f9060490160408051601f19818403018152908290528051602090910120607854632474521560e21b83529092506001600160a01b0316906391d1485490611e849084905f90600401612b64565b602060405180830381865afa158015611e9f573d5f803e3d5ffd5b505050506040513d601f19601f82011682018060405250810190611ec391906129e0565b80610ee55750607854604051632474521560e21b81526001600160a01b03909116906391d1485490611efb9084908790600401612b64565b602060405180830381865afa158015611f16573d5f803e3d5ffd5b505050506040513d601f19601f82011682018060405250810190610ee591906129e0565b5f80611f468385612ac4565b90505f811215610ee557838382604051631dde38a160e11b81526004016106b4939291906127f9565b5f80611f7b8484612012565b91509150815f148015611f8c575080155b15611f975750505050565b600784015560039092019190915550565b6119c78363a9059cbb60e01b8484604051602401611fc7929190612b27565b60408051601f198184030181529190526020810180516001600160e01b03166001600160e01b031990931692909217909152612111565b5f61200a8484846121e4565b949350505050565b5f8061201c610f17565b61202d57505060038201544361210a565b439050808460070154111561205d5783600701548160405163102300bd60e01b81526004016106b4929190612aa2565b8084600701540361207257505f90508061210a565b7336eac4ca8389e35d66978e94c811f959e5a158f263010dfe6485600701548361209c91906129b2565b60038701546074546040516001600160e01b031960e086901b1681526120c893929189916004016126d8565b602060405180830381865af41580156120e3573d5f803e3d5ffd5b505050506040513d601f19601f8201168201806040525081019061210791906127e2565b91505b9250929050565b5f612165826040518060400160405280602081526020017f5361666545524332303a206c6f772d6c6576656c2063616c6c206661696c6564815250856001600160a01b031661223c9092919063ffffffff16565b905080515f148061218557508080602001905181019061218591906129e0565b6119c75760405162461bcd60e51b815260206004820152602a60248201527f5361666545524332303a204552433230206f7065726174696f6e20646964206e6044820152691bdd081cdd58d8d9595960b21b60648201526084016106b4565b5f8315806121f957506001600160a01b038216155b806122155750816001600160a01b0316836001600160a01b0316145b15612221575082610ee5565b61200a8461222e8461224a565b6122378661224a565b6122b6565b606061200a84845f85612328565b5f816001600160a01b031663313ce5676040518163ffffffff1660e01b8152600401602060405180830381865afa9250505080156122a5575060408051601f3d908101601f191682019092526122a291810190612b7b565b60015b610df557506012919050565b919050565b5f8315806122c957508160ff168360ff16145b156122d5575082610ee5565b8160ff168360ff161015612309576122ed8383612b9b565b6122f890600a612c94565b6123029085612823565b9050610ee5565b6123138284612b9b565b61231e90600a612c94565b61200a908561283a565b6060824710156123895760405162461bcd60e51b815260206004820152602660248201527f416464726573733a20696e73756666696369656e742062616c616e636520666f6044820152651c8818d85b1b60d21b60648201526084016106b4565b5f80866001600160a01b031685876040516123a491906129c5565b5f6040518083038185875af1925050503d805f81146123de576040519150601f19603f3d011682016040523d82523d5f602084013e6123e3565b606091505b50915091506123f4878383876123ff565b979650505050505050565b6060831561246d5782515f03612466576001600160a01b0385163b6124665760405162461bcd60e51b815260206004820152601d60248201527f416464726573733a2063616c6c20746f206e6f6e2d636f6e747261637400000060448201526064016106b4565b508161200a565b61200a83838151156124825781518083602001fd5b8060405162461bcd60e51b81526004016106b49190612ca2565b6001600160a01b0391909116815260200190565b634e487b7160e01b5f52604160045260245ffd5b60405160c081016001600160401b03811182821017156124e6576124e66124b0565b60405290565b604080519081016001600160401b03811182821017156124e6576124e66124b0565b604051601f8201601f191681016001600160401b0381118282101715612536576125366124b0565b604052919050565b5f6001600160401b03821115612556576125566124b0565b5060051b60200190565b6001600160a01b0381168114611d1e575f80fd5b80356122b181612560565b5f6001600160401b03821115612597576125976124b0565b50601f01601f191660200190565b5f82601f8301126125b4575f80fd5b81356125c76125c28261257f565b61250e565b8181528460208386010111156125db575f80fd5b816020850160208301375f918101602001919091529392505050565b5f805f60608486031215612609575f80fd5b83356001600160401b038082111561261f575f80fd5b818601915086601f830112612632575f80fd5b813560206126426125c28361253e565b82815260059290921b8401810191818101908a841115612660575f80fd5b948201945b8386101561268757853561267881612560565b82529482019490820190612665565b9750508701359250508082111561269c575f80fd5b506126a9868287016125a5565b9250506126b860408501612574565b90509250925092565b5f602082840312156126d1575f80fd5b5035919050565b93845260208401929092526040830152606082015260800190565b634e487b7160e01b5f52602160045260245ffd5b602081016005831061271b5761271b6126f3565b91905290565b602081016003831061271b5761271b6126f3565b5f60208284031215612745575f80fd5b8135610ee581612560565b5f8060408385031215612761575f80fd5b823561276c81612560565b946020939093013593505050565b5f806040838503121561278b575f80fd5b82356001600160401b038111156127a0575f80fd5b6127ac858286016125a5565b92505060208301356127bd81612560565b809150509250929050565b6001600160a01b0392831681529116602082015260400190565b5f602082840312156127f2575f80fd5b5051919050565b9283526020830191909152604082015260600190565b634e487b7160e01b5f52601160045260245ffd5b8082028115828204841417610df557610df561280f565b5f8261285457634e487b7160e01b5f52601260045260245ffd5b500490565b5f5b8381101561287357818101518382015260200161285b565b50505f910152565b5f602080838503121561288c575f80fd5b82516001600160401b03808211156128a2575f80fd5b9084019060c082870312156128b5575f80fd5b6128bd6124c4565b82518152838301516128ce81612560565b8185015260408301516128e081612560565b60408201526060830151828111156128f6575f80fd5b830160408189031215612907575f80fd5b61290f6124ec565b815181528582015184811115612923575f80fd5b82019350601f84018913612935575f80fd5b835191506129456125c28361257f565b8281528987848701011115612958575f80fd5b61296783888301898801612859565b95810195909552506060810193909352506080818101519083015260a090810151908201529392505050565b9283526001600160a01b03919091166020830152604082015260600190565b81810381811115610df557610df561280f565b5f82516129d6818460208701612859565b9190910192915050565b5f602082840312156129f0575f80fd5b81518015158114610ee5575f80fd5b5f6020808385031215612a10575f80fd5b82516001600160401b03811115612a25575f80fd5b8301601f81018513612a35575f80fd5b8051612a436125c28261253e565b81815260069190911b82018301908381019087831115612a61575f80fd5b928401925b828410156123f45760408489031215612a7d575f80fd5b612a856124ec565b845181528585015186820152825260409093019290840190612a66565b918252602082015260400190565b634e487b7160e01b5f52603260045260245ffd5b8082018281125f831280158216821582161715612ae357612ae361280f565b505092915050565b80820180821115610df557610df561280f565b5f81612b0c57612b0c61280f565b505f190190565b634e487b7160e01b5f52603160045260245ffd5b6001600160a01b03929092168252602082015260400190565b8281526040810160078310612b5757612b576126f3565b8260208301529392505050565b9182526001600160a01b0316602082015260400190565b5f60208284031215612b8b575f80fd5b815160ff81168114610ee5575f80fd5b60ff8281168282160390811115610df557610df561280f565b600181815b80851115612bee57815f1904821115612bd457612bd461280f565b80851615612be157918102915b93841c9390800290612bb9565b509250929050565b5f82612c0457506001610df5565b81612c1057505f610df5565b8160018114612c265760028114612c3057612c4c565b6001915050610df5565b60ff841115612c4157612c4161280f565b50506001821b610df5565b5060208310610133831016604e8410600b8410161715612c6f575081810a610df5565b612c798383612bb4565b805f1904821115612c8c57612c8c61280f565b029392505050565b5f610ee560ff841683612bf6565b602081525f8251806020840152612cc0816040850160208701612859565b601f01601f1916919091016040019291505056fea164736f6c6343000817000a",
        "nonce": "0x78",
        "chainId": "0x66eee"
      },
      "additionalContracts": [],
      "isFixedGasLimit": false
    },
    {
      "hash": "0x2a4c06c2b3a49648584c117d3190085b7887809ef0d8c3be173d0a77f6177fc9",
      "transactionType": "CALL",
      "contractName": null,
      "contractAddress": "0xf42f88c13804147b2fdda13c093ce14219aea395",
      "function": "upsertStrategyFacetCut(uint256,address,uint8,bytes4[])",
      "arguments": [
        "2",
        "0xB5b5b4Df921e33fe99606e2Ca3b0B29AF3642e8D",
        "3",
        "[0xef2920fc, 0x0a6f0ee9, 0x4ab4ba42]"
      ],
      "transaction": {
        "from": "0x00bcc26e792e393217ba895f5e85ae628fc994e9",
        "to": "0xf42f88c13804147b2fdda13c093ce14219aea395",
        "value": "0x0",
        "input": "0xff4a14ff0000000000000000000000000000000000000000000000000000000000000002000000000000000000000000b5b5b4df921e33fe99606e2ca3b0b29af3642e8d000000000000000000000000000000000000000000000000000000000000000300000000000000000000000000000000000000000000000000000000000000800000000000000000000000000000000000000000000000000000000000000003ef2920fc000000000000000000000000000000000000000000000000000000000a6f0ee9000000000000000000000000000000000000000000000000000000004ab4ba4200000000000000000000000000000000000000000000000000000000",
        "nonce": "0x79",
        "chainId": "0x66eee"
      },
      "additionalContracts": [],
      "isFixedGasLimit": false
    },
    {
      "hash": "0xd932724fab4f17430ad7d81c56ca01410485462a2c871d508c2df399936b1aa3",
      "transactionType": "CALL",
      "contractName": null,
      "contractAddress": "0x00d33e504517a03fe14e05863bb95983660b0c2c",
      "function": "diamondCut((address,uint8,bytes4[])[],address,bytes)",
      "arguments": [
        "[(0xB5b5b4Df921e33fe99606e2Ca3b0B29AF3642e8D, 1, [0xef2920fc, 0x0a6f0ee9, 0x4ab4ba42])]",
        "0x0000000000000000000000000000000000000000",
        "0x"
      ],
      "transaction": {
        "from": "0x00bcc26e792e393217ba895f5e85ae628fc994e9",
        "to": "0x00d33e504517a03fe14e05863bb95983660b0c2c",
        "value": "0x0",
        "input": "0x1f931c1c00000000000000000000000000000000000000000000000000000000000000600000000000000000000000000000000000000000000000000000000000000000000000000000000000000000000000000000000000000000000000000000018000000000000000000000000000000000000000000000000000000000000000010000000000000000000000000000000000000000000000000000000000000020000000000000000000000000b5b5b4df921e33fe99606e2ca3b0b29af3642e8d000000000000000000000000000000000000000000000000000000000000000100000000000000000000000000000000000000000000000000000000000000600000000000000000000000000000000000000000000000000000000000000003ef2920fc000000000000000000000000000000000000000000000000000000000a6f0ee9000000000000000000000000000000000000000000000000000000004ab4ba42000000000000000000000000000000000000000000000000000000000000000000000000000000000000000000000000000000000000000000000000",
        "nonce": "0x7a",
        "chainId": "0x66eee"
      },
      "additionalContracts": [],
      "isFixedGasLimit": false
    },
    {
      "hash": "0xdab741efc4443545450142decbdccb877e9c0ca1f7ed021430a6817cf07ba6d7",
      "transactionType": "CALL",
      "contractName": null,
      "contractAddress": "0x07563fce80b58a67f5d4a5332ee84747bfb829b9",
      "function": "diamondCut((address,uint8,bytes4[])[],address,bytes)",
      "arguments": [
        "[(0xB5b5b4Df921e33fe99606e2Ca3b0B29AF3642e8D, 1, [0xef2920fc, 0x0a6f0ee9, 0x4ab4ba42])]",
        "0x0000000000000000000000000000000000000000",
        "0x"
      ],
      "transaction": {
        "from": "0x00bcc26e792e393217ba895f5e85ae628fc994e9",
        "to": "0x07563fce80b58a67f5d4a5332ee84747bfb829b9",
        "value": "0x0",
        "input": "0x1f931c1c00000000000000000000000000000000000000000000000000000000000000600000000000000000000000000000000000000000000000000000000000000000000000000000000000000000000000000000000000000000000000000000018000000000000000000000000000000000000000000000000000000000000000010000000000000000000000000000000000000000000000000000000000000020000000000000000000000000b5b5b4df921e33fe99606e2ca3b0b29af3642e8d000000000000000000000000000000000000000000000000000000000000000100000000000000000000000000000000000000000000000000000000000000600000000000000000000000000000000000000000000000000000000000000003ef2920fc000000000000000000000000000000000000000000000000000000000a6f0ee9000000000000000000000000000000000000000000000000000000004ab4ba42000000000000000000000000000000000000000000000000000000000000000000000000000000000000000000000000000000000000000000000000",
        "nonce": "0x7b",
        "chainId": "0x66eee"
      },
      "additionalContracts": [],
      "isFixedGasLimit": false
    },
    {
      "hash": "0xab771405fa17f76e32f69444a580c351b3bfca6bfc6965730895778d40ad3e90",
      "transactionType": "CALL",
      "contractName": null,
      "contractAddress": "0x14507f0e947e1547a86fb187a4959858e5aaadbd",
      "function": "diamondCut((address,uint8,bytes4[])[],address,bytes)",
      "arguments": [
        "[(0xB5b5b4Df921e33fe99606e2Ca3b0B29AF3642e8D, 1, [0xef2920fc, 0x0a6f0ee9, 0x4ab4ba42])]",
        "0x0000000000000000000000000000000000000000",
        "0x"
      ],
      "transaction": {
        "from": "0x00bcc26e792e393217ba895f5e85ae628fc994e9",
        "to": "0x14507f0e947e1547a86fb187a4959858e5aaadbd",
        "value": "0x0",
        "input": "0x1f931c1c00000000000000000000000000000000000000000000000000000000000000600000000000000000000000000000000000000000000000000000000000000000000000000000000000000000000000000000000000000000000000000000018000000000000000000000000000000000000000000000000000000000000000010000000000000000000000000000000000000000000000000000000000000020000000000000000000000000b5b5b4df921e33fe99606e2ca3b0b29af3642e8d000000000000000000000000000000000000000000000000000000000000000100000000000000000000000000000000000000000000000000000000000000600000000000000000000000000000000000000000000000000000000000000003ef2920fc000000000000000000000000000000000000000000000000000000000a6f0ee9000000000000000000000000000000000000000000000000000000004ab4ba42000000000000000000000000000000000000000000000000000000000000000000000000000000000000000000000000000000000000000000000000",
        "nonce": "0x7c",
        "chainId": "0x66eee"
      },
      "additionalContracts": [],
      "isFixedGasLimit": false
    },
    {
      "hash": "0x71478ab94d467f34ed8913261d9a8b67957c96b9e7881eedc3282fffdb48c33c",
      "transactionType": "CALL",
      "contractName": null,
      "contractAddress": "0x15f3e3c557f0a9bed0eba3eadcc5837d964c50fd",
      "function": "diamondCut((address,uint8,bytes4[])[],address,bytes)",
      "arguments": [
        "[(0xB5b5b4Df921e33fe99606e2Ca3b0B29AF3642e8D, 1, [0xef2920fc, 0x0a6f0ee9, 0x4ab4ba42])]",
        "0x0000000000000000000000000000000000000000",
        "0x"
      ],
      "transaction": {
        "from": "0x00bcc26e792e393217ba895f5e85ae628fc994e9",
        "to": "0x15f3e3c557f0a9bed0eba3eadcc5837d964c50fd",
        "value": "0x0",
        "input": "0x1f931c1c00000000000000000000000000000000000000000000000000000000000000600000000000000000000000000000000000000000000000000000000000000000000000000000000000000000000000000000000000000000000000000000018000000000000000000000000000000000000000000000000000000000000000010000000000000000000000000000000000000000000000000000000000000020000000000000000000000000b5b5b4df921e33fe99606e2ca3b0b29af3642e8d000000000000000000000000000000000000000000000000000000000000000100000000000000000000000000000000000000000000000000000000000000600000000000000000000000000000000000000000000000000000000000000003ef2920fc000000000000000000000000000000000000000000000000000000000a6f0ee9000000000000000000000000000000000000000000000000000000004ab4ba42000000000000000000000000000000000000000000000000000000000000000000000000000000000000000000000000000000000000000000000000",
        "nonce": "0x7d",
        "chainId": "0x66eee"
      },
      "additionalContracts": [],
      "isFixedGasLimit": false
    },
    {
      "hash": "0x412d63e28633b46dd5efa790b51bcb8c92b046e31afdccab10bb846ea8f3e06c",
      "transactionType": "CALL",
      "contractName": null,
      "contractAddress": "0x194a593887a27200bf5a2b6713c1072882136b6c",
      "function": "diamondCut((address,uint8,bytes4[])[],address,bytes)",
      "arguments": [
        "[(0xB5b5b4Df921e33fe99606e2Ca3b0B29AF3642e8D, 1, [0xef2920fc, 0x0a6f0ee9, 0x4ab4ba42])]",
        "0x0000000000000000000000000000000000000000",
        "0x"
      ],
      "transaction": {
        "from": "0x00bcc26e792e393217ba895f5e85ae628fc994e9",
        "to": "0x194a593887a27200bf5a2b6713c1072882136b6c",
        "value": "0x0",
        "input": "0x1f931c1c00000000000000000000000000000000000000000000000000000000000000600000000000000000000000000000000000000000000000000000000000000000000000000000000000000000000000000000000000000000000000000000018000000000000000000000000000000000000000000000000000000000000000010000000000000000000000000000000000000000000000000000000000000020000000000000000000000000b5b5b4df921e33fe99606e2ca3b0b29af3642e8d000000000000000000000000000000000000000000000000000000000000000100000000000000000000000000000000000000000000000000000000000000600000000000000000000000000000000000000000000000000000000000000003ef2920fc000000000000000000000000000000000000000000000000000000000a6f0ee9000000000000000000000000000000000000000000000000000000004ab4ba42000000000000000000000000000000000000000000000000000000000000000000000000000000000000000000000000000000000000000000000000",
        "nonce": "0x7e",
        "chainId": "0x66eee"
      },
      "additionalContracts": [],
      "isFixedGasLimit": false
    },
    {
      "hash": "0x91a6d4d2aee92b6ffb5f71025fcb6084e81e3ea7f9189aebb4a8d326b6891eb8",
      "transactionType": "CALL",
      "contractName": null,
      "contractAddress": "0x2155378db737b5382d05bdc204f335b7da88af2b",
      "function": "diamondCut((address,uint8,bytes4[])[],address,bytes)",
      "arguments": [
        "[(0xB5b5b4Df921e33fe99606e2Ca3b0B29AF3642e8D, 1, [0xef2920fc, 0x0a6f0ee9, 0x4ab4ba42])]",
        "0x0000000000000000000000000000000000000000",
        "0x"
      ],
      "transaction": {
        "from": "0x00bcc26e792e393217ba895f5e85ae628fc994e9",
        "to": "0x2155378db737b5382d05bdc204f335b7da88af2b",
        "value": "0x0",
        "input": "0x1f931c1c00000000000000000000000000000000000000000000000000000000000000600000000000000000000000000000000000000000000000000000000000000000000000000000000000000000000000000000000000000000000000000000018000000000000000000000000000000000000000000000000000000000000000010000000000000000000000000000000000000000000000000000000000000020000000000000000000000000b5b5b4df921e33fe99606e2ca3b0b29af3642e8d000000000000000000000000000000000000000000000000000000000000000100000000000000000000000000000000000000000000000000000000000000600000000000000000000000000000000000000000000000000000000000000003ef2920fc000000000000000000000000000000000000000000000000000000000a6f0ee9000000000000000000000000000000000000000000000000000000004ab4ba42000000000000000000000000000000000000000000000000000000000000000000000000000000000000000000000000000000000000000000000000",
        "nonce": "0x7f",
        "chainId": "0x66eee"
      },
      "additionalContracts": [],
      "isFixedGasLimit": false
    },
    {
      "hash": "0xb8f73057491d3248a0645fbd70b2df619f0caf4bdd4b0986d099b584f17e6882",
      "transactionType": "CALL",
      "contractName": null,
      "contractAddress": "0x2b08977d2ceb9520f4faa1556cfe0098e3b6306a",
      "function": "diamondCut((address,uint8,bytes4[])[],address,bytes)",
      "arguments": [
        "[(0xB5b5b4Df921e33fe99606e2Ca3b0B29AF3642e8D, 1, [0xef2920fc, 0x0a6f0ee9, 0x4ab4ba42])]",
        "0x0000000000000000000000000000000000000000",
        "0x"
      ],
      "transaction": {
        "from": "0x00bcc26e792e393217ba895f5e85ae628fc994e9",
        "to": "0x2b08977d2ceb9520f4faa1556cfe0098e3b6306a",
        "value": "0x0",
        "input": "0x1f931c1c00000000000000000000000000000000000000000000000000000000000000600000000000000000000000000000000000000000000000000000000000000000000000000000000000000000000000000000000000000000000000000000018000000000000000000000000000000000000000000000000000000000000000010000000000000000000000000000000000000000000000000000000000000020000000000000000000000000b5b5b4df921e33fe99606e2ca3b0b29af3642e8d000000000000000000000000000000000000000000000000000000000000000100000000000000000000000000000000000000000000000000000000000000600000000000000000000000000000000000000000000000000000000000000003ef2920fc000000000000000000000000000000000000000000000000000000000a6f0ee9000000000000000000000000000000000000000000000000000000004ab4ba42000000000000000000000000000000000000000000000000000000000000000000000000000000000000000000000000000000000000000000000000",
        "nonce": "0x80",
        "chainId": "0x66eee"
      },
      "additionalContracts": [],
      "isFixedGasLimit": false
    },
    {
      "hash": "0x27155cb7b24839c8b04ed2e6a1a7c844b9de7223912f33c4c024cef11d91420c",
      "transactionType": "CALL",
      "contractName": null,
      "contractAddress": "0x2c668e36496b2acd69e46418d5c1de0f43c9c4d2",
      "function": "diamondCut((address,uint8,bytes4[])[],address,bytes)",
      "arguments": [
        "[(0xB5b5b4Df921e33fe99606e2Ca3b0B29AF3642e8D, 1, [0xef2920fc, 0x0a6f0ee9, 0x4ab4ba42])]",
        "0x0000000000000000000000000000000000000000",
        "0x"
      ],
      "transaction": {
        "from": "0x00bcc26e792e393217ba895f5e85ae628fc994e9",
        "to": "0x2c668e36496b2acd69e46418d5c1de0f43c9c4d2",
        "value": "0x0",
        "input": "0x1f931c1c00000000000000000000000000000000000000000000000000000000000000600000000000000000000000000000000000000000000000000000000000000000000000000000000000000000000000000000000000000000000000000000018000000000000000000000000000000000000000000000000000000000000000010000000000000000000000000000000000000000000000000000000000000020000000000000000000000000b5b5b4df921e33fe99606e2ca3b0b29af3642e8d000000000000000000000000000000000000000000000000000000000000000100000000000000000000000000000000000000000000000000000000000000600000000000000000000000000000000000000000000000000000000000000003ef2920fc000000000000000000000000000000000000000000000000000000000a6f0ee9000000000000000000000000000000000000000000000000000000004ab4ba42000000000000000000000000000000000000000000000000000000000000000000000000000000000000000000000000000000000000000000000000",
        "nonce": "0x81",
        "chainId": "0x66eee"
      },
      "additionalContracts": [],
      "isFixedGasLimit": false
    },
    {
      "hash": "0x88f83533848cf56f8472b3c829331d098a692c8c278eefbd506c7488d71b40b7",
      "transactionType": "CALL",
      "contractName": null,
      "contractAddress": "0x2f0af7438699d6b9ee6849a906f85f7c5851b3e6",
      "function": "diamondCut((address,uint8,bytes4[])[],address,bytes)",
      "arguments": [
        "[(0xB5b5b4Df921e33fe99606e2Ca3b0B29AF3642e8D, 1, [0xef2920fc, 0x0a6f0ee9, 0x4ab4ba42])]",
        "0x0000000000000000000000000000000000000000",
        "0x"
      ],
      "transaction": {
        "from": "0x00bcc26e792e393217ba895f5e85ae628fc994e9",
        "to": "0x2f0af7438699d6b9ee6849a906f85f7c5851b3e6",
        "value": "0x0",
        "input": "0x1f931c1c00000000000000000000000000000000000000000000000000000000000000600000000000000000000000000000000000000000000000000000000000000000000000000000000000000000000000000000000000000000000000000000018000000000000000000000000000000000000000000000000000000000000000010000000000000000000000000000000000000000000000000000000000000020000000000000000000000000b5b5b4df921e33fe99606e2ca3b0b29af3642e8d000000000000000000000000000000000000000000000000000000000000000100000000000000000000000000000000000000000000000000000000000000600000000000000000000000000000000000000000000000000000000000000003ef2920fc000000000000000000000000000000000000000000000000000000000a6f0ee9000000000000000000000000000000000000000000000000000000004ab4ba42000000000000000000000000000000000000000000000000000000000000000000000000000000000000000000000000000000000000000000000000",
        "nonce": "0x82",
        "chainId": "0x66eee"
      },
      "additionalContracts": [],
      "isFixedGasLimit": false
    },
    {
      "hash": "0x3303c312d9f1a0d800d719390a345b4d72b6fb5e292e1f5013f06f25453ea5fa",
      "transactionType": "CALL",
      "contractName": null,
      "contractAddress": "0x316e665465960b79aea9bf53e33a9a2bbcde39e6",
      "function": "diamondCut((address,uint8,bytes4[])[],address,bytes)",
      "arguments": [
        "[(0xB5b5b4Df921e33fe99606e2Ca3b0B29AF3642e8D, 1, [0xef2920fc, 0x0a6f0ee9, 0x4ab4ba42])]",
        "0x0000000000000000000000000000000000000000",
        "0x"
      ],
      "transaction": {
        "from": "0x00bcc26e792e393217ba895f5e85ae628fc994e9",
        "to": "0x316e665465960b79aea9bf53e33a9a2bbcde39e6",
        "value": "0x0",
        "input": "0x1f931c1c00000000000000000000000000000000000000000000000000000000000000600000000000000000000000000000000000000000000000000000000000000000000000000000000000000000000000000000000000000000000000000000018000000000000000000000000000000000000000000000000000000000000000010000000000000000000000000000000000000000000000000000000000000020000000000000000000000000b5b5b4df921e33fe99606e2ca3b0b29af3642e8d000000000000000000000000000000000000000000000000000000000000000100000000000000000000000000000000000000000000000000000000000000600000000000000000000000000000000000000000000000000000000000000003ef2920fc000000000000000000000000000000000000000000000000000000000a6f0ee9000000000000000000000000000000000000000000000000000000004ab4ba42000000000000000000000000000000000000000000000000000000000000000000000000000000000000000000000000000000000000000000000000",
        "nonce": "0x83",
        "chainId": "0x66eee"
      },
      "additionalContracts": [],
      "isFixedGasLimit": false
    },
    {
      "hash": "0x775ffdde0b579e3da3f42453513f21b1d79cfb5c4ca6fca5a1170a194d9307f9",
      "transactionType": "CALL",
      "contractName": null,
      "contractAddress": "0x33482037160b54625e7844cbaa90f808b4dcc1ee",
      "function": "diamondCut((address,uint8,bytes4[])[],address,bytes)",
      "arguments": [
        "[(0xB5b5b4Df921e33fe99606e2Ca3b0B29AF3642e8D, 1, [0xef2920fc, 0x0a6f0ee9, 0x4ab4ba42])]",
        "0x0000000000000000000000000000000000000000",
        "0x"
      ],
      "transaction": {
        "from": "0x00bcc26e792e393217ba895f5e85ae628fc994e9",
        "to": "0x33482037160b54625e7844cbaa90f808b4dcc1ee",
        "value": "0x0",
        "input": "0x1f931c1c00000000000000000000000000000000000000000000000000000000000000600000000000000000000000000000000000000000000000000000000000000000000000000000000000000000000000000000000000000000000000000000018000000000000000000000000000000000000000000000000000000000000000010000000000000000000000000000000000000000000000000000000000000020000000000000000000000000b5b5b4df921e33fe99606e2ca3b0b29af3642e8d000000000000000000000000000000000000000000000000000000000000000100000000000000000000000000000000000000000000000000000000000000600000000000000000000000000000000000000000000000000000000000000003ef2920fc000000000000000000000000000000000000000000000000000000000a6f0ee9000000000000000000000000000000000000000000000000000000004ab4ba42000000000000000000000000000000000000000000000000000000000000000000000000000000000000000000000000000000000000000000000000",
        "nonce": "0x84",
        "chainId": "0x66eee"
      },
      "additionalContracts": [],
      "isFixedGasLimit": false
    },
    {
      "hash": "0x6e641ae289f0c88e189de36665ac1277b05c9b6cdd9b6c9224080549613cf176",
      "transactionType": "CALL",
      "contractName": null,
      "contractAddress": "0x39e279272604b7c09ccffb23d4ab5311b5754d7d",
      "function": "diamondCut((address,uint8,bytes4[])[],address,bytes)",
      "arguments": [
        "[(0xB5b5b4Df921e33fe99606e2Ca3b0B29AF3642e8D, 1, [0xef2920fc, 0x0a6f0ee9, 0x4ab4ba42])]",
        "0x0000000000000000000000000000000000000000",
        "0x"
      ],
      "transaction": {
        "from": "0x00bcc26e792e393217ba895f5e85ae628fc994e9",
        "to": "0x39e279272604b7c09ccffb23d4ab5311b5754d7d",
        "value": "0x0",
        "input": "0x1f931c1c00000000000000000000000000000000000000000000000000000000000000600000000000000000000000000000000000000000000000000000000000000000000000000000000000000000000000000000000000000000000000000000018000000000000000000000000000000000000000000000000000000000000000010000000000000000000000000000000000000000000000000000000000000020000000000000000000000000b5b5b4df921e33fe99606e2ca3b0b29af3642e8d000000000000000000000000000000000000000000000000000000000000000100000000000000000000000000000000000000000000000000000000000000600000000000000000000000000000000000000000000000000000000000000003ef2920fc000000000000000000000000000000000000000000000000000000000a6f0ee9000000000000000000000000000000000000000000000000000000004ab4ba42000000000000000000000000000000000000000000000000000000000000000000000000000000000000000000000000000000000000000000000000",
        "nonce": "0x85",
        "chainId": "0x66eee"
      },
      "additionalContracts": [],
      "isFixedGasLimit": false
    },
    {
      "hash": "0x523a137fcf8ba71238ea0c50e77504b506f732185eecb532e9fed5700d2f90c0",
      "transactionType": "CALL",
      "contractName": null,
      "contractAddress": "0x3bd8c9056a448c7ab3f398df2ffea114febd9139",
      "function": "diamondCut((address,uint8,bytes4[])[],address,bytes)",
      "arguments": [
        "[(0xB5b5b4Df921e33fe99606e2Ca3b0B29AF3642e8D, 1, [0xef2920fc, 0x0a6f0ee9, 0x4ab4ba42])]",
        "0x0000000000000000000000000000000000000000",
        "0x"
      ],
      "transaction": {
        "from": "0x00bcc26e792e393217ba895f5e85ae628fc994e9",
        "to": "0x3bd8c9056a448c7ab3f398df2ffea114febd9139",
        "value": "0x0",
        "input": "0x1f931c1c00000000000000000000000000000000000000000000000000000000000000600000000000000000000000000000000000000000000000000000000000000000000000000000000000000000000000000000000000000000000000000000018000000000000000000000000000000000000000000000000000000000000000010000000000000000000000000000000000000000000000000000000000000020000000000000000000000000b5b5b4df921e33fe99606e2ca3b0b29af3642e8d000000000000000000000000000000000000000000000000000000000000000100000000000000000000000000000000000000000000000000000000000000600000000000000000000000000000000000000000000000000000000000000003ef2920fc000000000000000000000000000000000000000000000000000000000a6f0ee9000000000000000000000000000000000000000000000000000000004ab4ba42000000000000000000000000000000000000000000000000000000000000000000000000000000000000000000000000000000000000000000000000",
        "nonce": "0x86",
        "chainId": "0x66eee"
      },
      "additionalContracts": [],
      "isFixedGasLimit": false
    },
    {
      "hash": "0x87565c9a682477b015132cf828361bc9afc03caf25205b6f1d240d59f4e4db53",
      "transactionType": "CALL",
      "contractName": null,
      "contractAddress": "0x4023e514a47c87a507623f08e748db7ae05da1c4",
      "function": "diamondCut((address,uint8,bytes4[])[],address,bytes)",
      "arguments": [
        "[(0xB5b5b4Df921e33fe99606e2Ca3b0B29AF3642e8D, 1, [0xef2920fc, 0x0a6f0ee9, 0x4ab4ba42])]",
        "0x0000000000000000000000000000000000000000",
        "0x"
      ],
      "transaction": {
        "from": "0x00bcc26e792e393217ba895f5e85ae628fc994e9",
        "to": "0x4023e514a47c87a507623f08e748db7ae05da1c4",
        "value": "0x0",
        "input": "0x1f931c1c00000000000000000000000000000000000000000000000000000000000000600000000000000000000000000000000000000000000000000000000000000000000000000000000000000000000000000000000000000000000000000000018000000000000000000000000000000000000000000000000000000000000000010000000000000000000000000000000000000000000000000000000000000020000000000000000000000000b5b5b4df921e33fe99606e2ca3b0b29af3642e8d000000000000000000000000000000000000000000000000000000000000000100000000000000000000000000000000000000000000000000000000000000600000000000000000000000000000000000000000000000000000000000000003ef2920fc000000000000000000000000000000000000000000000000000000000a6f0ee9000000000000000000000000000000000000000000000000000000004ab4ba42000000000000000000000000000000000000000000000000000000000000000000000000000000000000000000000000000000000000000000000000",
        "nonce": "0x87",
        "chainId": "0x66eee"
      },
      "additionalContracts": [],
      "isFixedGasLimit": false
    },
    {
      "hash": "0x57098b3f3927a82e7e1816af3d09ae2dfb154dc4f603d9879349e441aa709631",
      "transactionType": "CALL",
      "contractName": null,
      "contractAddress": "0x4440e05839eaacc4927178756faa48ecc23386f8",
      "function": "diamondCut((address,uint8,bytes4[])[],address,bytes)",
      "arguments": [
        "[(0xB5b5b4Df921e33fe99606e2Ca3b0B29AF3642e8D, 1, [0xef2920fc, 0x0a6f0ee9, 0x4ab4ba42])]",
        "0x0000000000000000000000000000000000000000",
        "0x"
      ],
      "transaction": {
        "from": "0x00bcc26e792e393217ba895f5e85ae628fc994e9",
        "to": "0x4440e05839eaacc4927178756faa48ecc23386f8",
        "value": "0x0",
        "input": "0x1f931c1c00000000000000000000000000000000000000000000000000000000000000600000000000000000000000000000000000000000000000000000000000000000000000000000000000000000000000000000000000000000000000000000018000000000000000000000000000000000000000000000000000000000000000010000000000000000000000000000000000000000000000000000000000000020000000000000000000000000b5b5b4df921e33fe99606e2ca3b0b29af3642e8d000000000000000000000000000000000000000000000000000000000000000100000000000000000000000000000000000000000000000000000000000000600000000000000000000000000000000000000000000000000000000000000003ef2920fc000000000000000000000000000000000000000000000000000000000a6f0ee9000000000000000000000000000000000000000000000000000000004ab4ba42000000000000000000000000000000000000000000000000000000000000000000000000000000000000000000000000000000000000000000000000",
        "nonce": "0x88",
        "chainId": "0x66eee"
      },
      "additionalContracts": [],
      "isFixedGasLimit": false
    },
    {
      "hash": "0x9a7da5ecad492f3bae09e4596e1b661db3b14a080993ba303320e4159cda294a",
      "transactionType": "CALL",
      "contractName": null,
      "contractAddress": "0x464f010f343bb52689e8579c84e76c8e04c7dbdc",
      "function": "diamondCut((address,uint8,bytes4[])[],address,bytes)",
      "arguments": [
        "[(0xB5b5b4Df921e33fe99606e2Ca3b0B29AF3642e8D, 1, [0xef2920fc, 0x0a6f0ee9, 0x4ab4ba42])]",
        "0x0000000000000000000000000000000000000000",
        "0x"
      ],
      "transaction": {
        "from": "0x00bcc26e792e393217ba895f5e85ae628fc994e9",
        "to": "0x464f010f343bb52689e8579c84e76c8e04c7dbdc",
        "value": "0x0",
        "input": "0x1f931c1c00000000000000000000000000000000000000000000000000000000000000600000000000000000000000000000000000000000000000000000000000000000000000000000000000000000000000000000000000000000000000000000018000000000000000000000000000000000000000000000000000000000000000010000000000000000000000000000000000000000000000000000000000000020000000000000000000000000b5b5b4df921e33fe99606e2ca3b0b29af3642e8d000000000000000000000000000000000000000000000000000000000000000100000000000000000000000000000000000000000000000000000000000000600000000000000000000000000000000000000000000000000000000000000003ef2920fc000000000000000000000000000000000000000000000000000000000a6f0ee9000000000000000000000000000000000000000000000000000000004ab4ba42000000000000000000000000000000000000000000000000000000000000000000000000000000000000000000000000000000000000000000000000",
        "nonce": "0x89",
        "chainId": "0x66eee"
      },
      "additionalContracts": [],
      "isFixedGasLimit": false
    },
    {
      "hash": "0x9d0a9358378bd152816ded527829fdd8d4b007ffe0a438ab6fad992762fcde88",
      "transactionType": "CALL",
      "contractName": null,
      "contractAddress": "0x565f8f945d08a7dd3c67a926b2b0b25704718d8a",
      "function": "diamondCut((address,uint8,bytes4[])[],address,bytes)",
      "arguments": [
        "[(0xB5b5b4Df921e33fe99606e2Ca3b0B29AF3642e8D, 1, [0xef2920fc, 0x0a6f0ee9, 0x4ab4ba42])]",
        "0x0000000000000000000000000000000000000000",
        "0x"
      ],
      "transaction": {
        "from": "0x00bcc26e792e393217ba895f5e85ae628fc994e9",
        "to": "0x565f8f945d08a7dd3c67a926b2b0b25704718d8a",
        "value": "0x0",
        "input": "0x1f931c1c00000000000000000000000000000000000000000000000000000000000000600000000000000000000000000000000000000000000000000000000000000000000000000000000000000000000000000000000000000000000000000000018000000000000000000000000000000000000000000000000000000000000000010000000000000000000000000000000000000000000000000000000000000020000000000000000000000000b5b5b4df921e33fe99606e2ca3b0b29af3642e8d000000000000000000000000000000000000000000000000000000000000000100000000000000000000000000000000000000000000000000000000000000600000000000000000000000000000000000000000000000000000000000000003ef2920fc000000000000000000000000000000000000000000000000000000000a6f0ee9000000000000000000000000000000000000000000000000000000004ab4ba42000000000000000000000000000000000000000000000000000000000000000000000000000000000000000000000000000000000000000000000000",
        "nonce": "0x8a",
        "chainId": "0x66eee"
      },
      "additionalContracts": [],
      "isFixedGasLimit": false
    },
    {
      "hash": "0x3903bddec510dd2c732fc6ad1a27fd5a8e3d07c3e5de12e8af5413beb2982e47",
      "transactionType": "CALL",
      "contractName": null,
      "contractAddress": "0x61f0d03b1f00b872c7c9ee03a12224cb70e93ea2",
      "function": "diamondCut((address,uint8,bytes4[])[],address,bytes)",
      "arguments": [
        "[(0xB5b5b4Df921e33fe99606e2Ca3b0B29AF3642e8D, 1, [0xef2920fc, 0x0a6f0ee9, 0x4ab4ba42])]",
        "0x0000000000000000000000000000000000000000",
        "0x"
      ],
      "transaction": {
        "from": "0x00bcc26e792e393217ba895f5e85ae628fc994e9",
        "to": "0x61f0d03b1f00b872c7c9ee03a12224cb70e93ea2",
        "value": "0x0",
        "input": "0x1f931c1c00000000000000000000000000000000000000000000000000000000000000600000000000000000000000000000000000000000000000000000000000000000000000000000000000000000000000000000000000000000000000000000018000000000000000000000000000000000000000000000000000000000000000010000000000000000000000000000000000000000000000000000000000000020000000000000000000000000b5b5b4df921e33fe99606e2ca3b0b29af3642e8d000000000000000000000000000000000000000000000000000000000000000100000000000000000000000000000000000000000000000000000000000000600000000000000000000000000000000000000000000000000000000000000003ef2920fc000000000000000000000000000000000000000000000000000000000a6f0ee9000000000000000000000000000000000000000000000000000000004ab4ba42000000000000000000000000000000000000000000000000000000000000000000000000000000000000000000000000000000000000000000000000",
        "nonce": "0x8b",
        "chainId": "0x66eee"
      },
      "additionalContracts": [],
      "isFixedGasLimit": false
    },
    {
      "hash": "0x905c43a3b6efbf9a85ee9910d274bd79cc5d523587498eeb1943517cdd94a425",
      "transactionType": "CALL",
      "contractName": "ERC1967Proxy",
      "contractAddress": "0x62884d6a9b30cfbe52eddd3e365a996123d28c47",
      "function": null,
      "arguments": null,
      "transaction": {
        "from": "0x00bcc26e792e393217ba895f5e85ae628fc994e9",
        "to": "0x62884d6a9b30cfbe52eddd3e365a996123d28c47",
        "value": "0x0",
        "input": "0x1f931c1c00000000000000000000000000000000000000000000000000000000000000600000000000000000000000000000000000000000000000000000000000000000000000000000000000000000000000000000000000000000000000000000018000000000000000000000000000000000000000000000000000000000000000010000000000000000000000000000000000000000000000000000000000000020000000000000000000000000b5b5b4df921e33fe99606e2ca3b0b29af3642e8d000000000000000000000000000000000000000000000000000000000000000100000000000000000000000000000000000000000000000000000000000000600000000000000000000000000000000000000000000000000000000000000003ef2920fc000000000000000000000000000000000000000000000000000000000a6f0ee9000000000000000000000000000000000000000000000000000000004ab4ba42000000000000000000000000000000000000000000000000000000000000000000000000000000000000000000000000000000000000000000000000",
        "nonce": "0x8c",
        "chainId": "0x66eee"
      },
      "additionalContracts": [],
      "isFixedGasLimit": false
    },
    {
      "hash": "0xca7c128db01413382882bbbb54ac960ee26830c380b66b22953ca27532ace193",
      "transactionType": "CALL",
      "contractName": null,
      "contractAddress": "0x6b999ed850de2c5c923eaafc3c15781bd2ccf9d6",
      "function": "diamondCut((address,uint8,bytes4[])[],address,bytes)",
      "arguments": [
        "[(0xB5b5b4Df921e33fe99606e2Ca3b0B29AF3642e8D, 1, [0xef2920fc, 0x0a6f0ee9, 0x4ab4ba42])]",
        "0x0000000000000000000000000000000000000000",
        "0x"
      ],
      "transaction": {
        "from": "0x00bcc26e792e393217ba895f5e85ae628fc994e9",
        "to": "0x6b999ed850de2c5c923eaafc3c15781bd2ccf9d6",
        "value": "0x0",
        "input": "0x1f931c1c00000000000000000000000000000000000000000000000000000000000000600000000000000000000000000000000000000000000000000000000000000000000000000000000000000000000000000000000000000000000000000000018000000000000000000000000000000000000000000000000000000000000000010000000000000000000000000000000000000000000000000000000000000020000000000000000000000000b5b5b4df921e33fe99606e2ca3b0b29af3642e8d000000000000000000000000000000000000000000000000000000000000000100000000000000000000000000000000000000000000000000000000000000600000000000000000000000000000000000000000000000000000000000000003ef2920fc000000000000000000000000000000000000000000000000000000000a6f0ee9000000000000000000000000000000000000000000000000000000004ab4ba42000000000000000000000000000000000000000000000000000000000000000000000000000000000000000000000000000000000000000000000000",
        "nonce": "0x8d",
        "chainId": "0x66eee"
      },
      "additionalContracts": [],
      "isFixedGasLimit": false
    },
    {
      "hash": "0xe342e1abb1b9a32942dc4ffd7d44647c67de9092073bbf5dd07cc92874132f7d",
      "transactionType": "CALL",
      "contractName": null,
      "contractAddress": "0x8a3004467f9a4c3233f0ca20ab126d322ce14dc5",
      "function": "diamondCut((address,uint8,bytes4[])[],address,bytes)",
      "arguments": [
        "[(0xB5b5b4Df921e33fe99606e2Ca3b0B29AF3642e8D, 1, [0xef2920fc, 0x0a6f0ee9, 0x4ab4ba42])]",
        "0x0000000000000000000000000000000000000000",
        "0x"
      ],
      "transaction": {
        "from": "0x00bcc26e792e393217ba895f5e85ae628fc994e9",
        "to": "0x8a3004467f9a4c3233f0ca20ab126d322ce14dc5",
        "value": "0x0",
        "input": "0x1f931c1c00000000000000000000000000000000000000000000000000000000000000600000000000000000000000000000000000000000000000000000000000000000000000000000000000000000000000000000000000000000000000000000018000000000000000000000000000000000000000000000000000000000000000010000000000000000000000000000000000000000000000000000000000000020000000000000000000000000b5b5b4df921e33fe99606e2ca3b0b29af3642e8d000000000000000000000000000000000000000000000000000000000000000100000000000000000000000000000000000000000000000000000000000000600000000000000000000000000000000000000000000000000000000000000003ef2920fc000000000000000000000000000000000000000000000000000000000a6f0ee9000000000000000000000000000000000000000000000000000000004ab4ba42000000000000000000000000000000000000000000000000000000000000000000000000000000000000000000000000000000000000000000000000",
        "nonce": "0x8e",
        "chainId": "0x66eee"
      },
      "additionalContracts": [],
      "isFixedGasLimit": false
    },
    {
      "hash": "0xa22c759535269164509145b20dadb9146345a946bee238e77f49590882bdf0cf",
      "transactionType": "CALL",
      "contractName": null,
      "contractAddress": "0x8b02e15e5e78a3e0baf99205fabab0b971f30ac3",
      "function": "diamondCut((address,uint8,bytes4[])[],address,bytes)",
      "arguments": [
        "[(0xB5b5b4Df921e33fe99606e2Ca3b0B29AF3642e8D, 1, [0xef2920fc, 0x0a6f0ee9, 0x4ab4ba42])]",
        "0x0000000000000000000000000000000000000000",
        "0x"
      ],
      "transaction": {
        "from": "0x00bcc26e792e393217ba895f5e85ae628fc994e9",
        "to": "0x8b02e15e5e78a3e0baf99205fabab0b971f30ac3",
        "value": "0x0",
        "input": "0x1f931c1c00000000000000000000000000000000000000000000000000000000000000600000000000000000000000000000000000000000000000000000000000000000000000000000000000000000000000000000000000000000000000000000018000000000000000000000000000000000000000000000000000000000000000010000000000000000000000000000000000000000000000000000000000000020000000000000000000000000b5b5b4df921e33fe99606e2ca3b0b29af3642e8d000000000000000000000000000000000000000000000000000000000000000100000000000000000000000000000000000000000000000000000000000000600000000000000000000000000000000000000000000000000000000000000003ef2920fc000000000000000000000000000000000000000000000000000000000a6f0ee9000000000000000000000000000000000000000000000000000000004ab4ba42000000000000000000000000000000000000000000000000000000000000000000000000000000000000000000000000000000000000000000000000",
        "nonce": "0x8f",
        "chainId": "0x66eee"
      },
      "additionalContracts": [],
      "isFixedGasLimit": false
    },
    {
      "hash": "0x8d3350b4415421e562f527955bc6fdac4e89b17e745c915020a4362cb7c5cb22",
      "transactionType": "CALL",
      "contractName": null,
      "contractAddress": "0x9dca528cd12c62cec0d37c17a9d23a4b8777d329",
      "function": "diamondCut((address,uint8,bytes4[])[],address,bytes)",
      "arguments": [
        "[(0xB5b5b4Df921e33fe99606e2Ca3b0B29AF3642e8D, 1, [0xef2920fc, 0x0a6f0ee9, 0x4ab4ba42])]",
        "0x0000000000000000000000000000000000000000",
        "0x"
      ],
      "transaction": {
        "from": "0x00bcc26e792e393217ba895f5e85ae628fc994e9",
        "to": "0x9dca528cd12c62cec0d37c17a9d23a4b8777d329",
        "value": "0x0",
        "input": "0x1f931c1c00000000000000000000000000000000000000000000000000000000000000600000000000000000000000000000000000000000000000000000000000000000000000000000000000000000000000000000000000000000000000000000018000000000000000000000000000000000000000000000000000000000000000010000000000000000000000000000000000000000000000000000000000000020000000000000000000000000b5b5b4df921e33fe99606e2ca3b0b29af3642e8d000000000000000000000000000000000000000000000000000000000000000100000000000000000000000000000000000000000000000000000000000000600000000000000000000000000000000000000000000000000000000000000003ef2920fc000000000000000000000000000000000000000000000000000000000a6f0ee9000000000000000000000000000000000000000000000000000000004ab4ba42000000000000000000000000000000000000000000000000000000000000000000000000000000000000000000000000000000000000000000000000",
        "nonce": "0x90",
        "chainId": "0x66eee"
      },
      "additionalContracts": [],
      "isFixedGasLimit": false
    },
    {
      "hash": "0x6cb48fd6d6e56f0fef35b8996a3bc4026a99554e341ef281fd16ad1e9affc10b",
      "transactionType": "CALL",
      "contractName": null,
      "contractAddress": "0x9e9321526d2f36d521ad4f70786b1adba73023a2",
      "function": "diamondCut((address,uint8,bytes4[])[],address,bytes)",
      "arguments": [
        "[(0xB5b5b4Df921e33fe99606e2Ca3b0B29AF3642e8D, 1, [0xef2920fc, 0x0a6f0ee9, 0x4ab4ba42])]",
        "0x0000000000000000000000000000000000000000",
        "0x"
      ],
      "transaction": {
        "from": "0x00bcc26e792e393217ba895f5e85ae628fc994e9",
        "to": "0x9e9321526d2f36d521ad4f70786b1adba73023a2",
        "value": "0x0",
        "input": "0x1f931c1c00000000000000000000000000000000000000000000000000000000000000600000000000000000000000000000000000000000000000000000000000000000000000000000000000000000000000000000000000000000000000000000018000000000000000000000000000000000000000000000000000000000000000010000000000000000000000000000000000000000000000000000000000000020000000000000000000000000b5b5b4df921e33fe99606e2ca3b0b29af3642e8d000000000000000000000000000000000000000000000000000000000000000100000000000000000000000000000000000000000000000000000000000000600000000000000000000000000000000000000000000000000000000000000003ef2920fc000000000000000000000000000000000000000000000000000000000a6f0ee9000000000000000000000000000000000000000000000000000000004ab4ba42000000000000000000000000000000000000000000000000000000000000000000000000000000000000000000000000000000000000000000000000",
        "nonce": "0x91",
        "chainId": "0x66eee"
      },
      "additionalContracts": [],
      "isFixedGasLimit": false
    },
    {
      "hash": "0x3bcb50b3d4e252d3306258ab635a6a143b3c6428a418e50d09172a5bcd832ac0",
      "transactionType": "CALL",
      "contractName": null,
      "contractAddress": "0xbf1be81e895ddf480333e0aa7f23a17d170ce662",
      "function": "diamondCut((address,uint8,bytes4[])[],address,bytes)",
      "arguments": [
        "[(0xB5b5b4Df921e33fe99606e2Ca3b0B29AF3642e8D, 1, [0xef2920fc, 0x0a6f0ee9, 0x4ab4ba42])]",
        "0x0000000000000000000000000000000000000000",
        "0x"
      ],
      "transaction": {
        "from": "0x00bcc26e792e393217ba895f5e85ae628fc994e9",
        "to": "0xbf1be81e895ddf480333e0aa7f23a17d170ce662",
        "value": "0x0",
        "input": "0x1f931c1c00000000000000000000000000000000000000000000000000000000000000600000000000000000000000000000000000000000000000000000000000000000000000000000000000000000000000000000000000000000000000000000018000000000000000000000000000000000000000000000000000000000000000010000000000000000000000000000000000000000000000000000000000000020000000000000000000000000b5b5b4df921e33fe99606e2ca3b0b29af3642e8d000000000000000000000000000000000000000000000000000000000000000100000000000000000000000000000000000000000000000000000000000000600000000000000000000000000000000000000000000000000000000000000003ef2920fc000000000000000000000000000000000000000000000000000000000a6f0ee9000000000000000000000000000000000000000000000000000000004ab4ba42000000000000000000000000000000000000000000000000000000000000000000000000000000000000000000000000000000000000000000000000",
        "nonce": "0x92",
        "chainId": "0x66eee"
      },
      "additionalContracts": [],
      "isFixedGasLimit": false
    },
    {
      "hash": "0xdf2e7e93bbd51281d1a660ecbdde0c1e4c2aad9e16c92c31188ddd342c2535d1",
      "transactionType": "CALL",
      "contractName": null,
      "contractAddress": "0xc63cec086a031119a2570f9164b268b1bcdc790f",
      "function": "diamondCut((address,uint8,bytes4[])[],address,bytes)",
      "arguments": [
        "[(0xB5b5b4Df921e33fe99606e2Ca3b0B29AF3642e8D, 1, [0xef2920fc, 0x0a6f0ee9, 0x4ab4ba42])]",
        "0x0000000000000000000000000000000000000000",
        "0x"
      ],
      "transaction": {
        "from": "0x00bcc26e792e393217ba895f5e85ae628fc994e9",
        "to": "0xc63cec086a031119a2570f9164b268b1bcdc790f",
        "value": "0x0",
        "input": "0x1f931c1c00000000000000000000000000000000000000000000000000000000000000600000000000000000000000000000000000000000000000000000000000000000000000000000000000000000000000000000000000000000000000000000018000000000000000000000000000000000000000000000000000000000000000010000000000000000000000000000000000000000000000000000000000000020000000000000000000000000b5b5b4df921e33fe99606e2ca3b0b29af3642e8d000000000000000000000000000000000000000000000000000000000000000100000000000000000000000000000000000000000000000000000000000000600000000000000000000000000000000000000000000000000000000000000003ef2920fc000000000000000000000000000000000000000000000000000000000a6f0ee9000000000000000000000000000000000000000000000000000000004ab4ba42000000000000000000000000000000000000000000000000000000000000000000000000000000000000000000000000000000000000000000000000",
        "nonce": "0x93",
        "chainId": "0x66eee"
      },
      "additionalContracts": [],
      "isFixedGasLimit": false
    },
    {
      "hash": "0x6a4f82a75ef23cf15a87600c03b16f7a4a7ad1a425782b81561851596d7046c9",
      "transactionType": "CALL",
      "contractName": null,
      "contractAddress": "0xd37fa4ad1791ac2c27b8dec1fdea5b318b9a444e",
      "function": "diamondCut((address,uint8,bytes4[])[],address,bytes)",
      "arguments": [
        "[(0xB5b5b4Df921e33fe99606e2Ca3b0B29AF3642e8D, 1, [0xef2920fc, 0x0a6f0ee9, 0x4ab4ba42])]",
        "0x0000000000000000000000000000000000000000",
        "0x"
      ],
      "transaction": {
        "from": "0x00bcc26e792e393217ba895f5e85ae628fc994e9",
        "to": "0xd37fa4ad1791ac2c27b8dec1fdea5b318b9a444e",
        "value": "0x0",
        "input": "0x1f931c1c00000000000000000000000000000000000000000000000000000000000000600000000000000000000000000000000000000000000000000000000000000000000000000000000000000000000000000000000000000000000000000000018000000000000000000000000000000000000000000000000000000000000000010000000000000000000000000000000000000000000000000000000000000020000000000000000000000000b5b5b4df921e33fe99606e2ca3b0b29af3642e8d000000000000000000000000000000000000000000000000000000000000000100000000000000000000000000000000000000000000000000000000000000600000000000000000000000000000000000000000000000000000000000000003ef2920fc000000000000000000000000000000000000000000000000000000000a6f0ee9000000000000000000000000000000000000000000000000000000004ab4ba42000000000000000000000000000000000000000000000000000000000000000000000000000000000000000000000000000000000000000000000000",
        "nonce": "0x94",
        "chainId": "0x66eee"
      },
      "additionalContracts": [],
      "isFixedGasLimit": false
    },
    {
      "hash": "0xa55ddb27bfde1034062ef12ed1a11a51cf27a7c73bb428c4a10032bc44f8c9f8",
      "transactionType": "CALL",
      "contractName": null,
      "contractAddress": "0xd682ff9fb3c4c28c35dfa8830280d9a1c5bbfee4",
      "function": "diamondCut((address,uint8,bytes4[])[],address,bytes)",
      "arguments": [
        "[(0xB5b5b4Df921e33fe99606e2Ca3b0B29AF3642e8D, 1, [0xef2920fc, 0x0a6f0ee9, 0x4ab4ba42])]",
        "0x0000000000000000000000000000000000000000",
        "0x"
      ],
      "transaction": {
        "from": "0x00bcc26e792e393217ba895f5e85ae628fc994e9",
        "to": "0xd682ff9fb3c4c28c35dfa8830280d9a1c5bbfee4",
        "value": "0x0",
        "input": "0x1f931c1c00000000000000000000000000000000000000000000000000000000000000600000000000000000000000000000000000000000000000000000000000000000000000000000000000000000000000000000000000000000000000000000018000000000000000000000000000000000000000000000000000000000000000010000000000000000000000000000000000000000000000000000000000000020000000000000000000000000b5b5b4df921e33fe99606e2ca3b0b29af3642e8d000000000000000000000000000000000000000000000000000000000000000100000000000000000000000000000000000000000000000000000000000000600000000000000000000000000000000000000000000000000000000000000003ef2920fc000000000000000000000000000000000000000000000000000000000a6f0ee9000000000000000000000000000000000000000000000000000000004ab4ba42000000000000000000000000000000000000000000000000000000000000000000000000000000000000000000000000000000000000000000000000",
        "nonce": "0x95",
        "chainId": "0x66eee"
      },
      "additionalContracts": [],
      "isFixedGasLimit": false
    },
    {
      "hash": "0xcb2b157ab615e2859a5242f108b09dca45116b03d87751af69dad107bf91915c",
      "transactionType": "CALL",
      "contractName": null,
      "contractAddress": "0xe0280d4e1d62e298cb2f98978087f455ef0086c6",
      "function": "diamondCut((address,uint8,bytes4[])[],address,bytes)",
      "arguments": [
        "[(0xB5b5b4Df921e33fe99606e2Ca3b0B29AF3642e8D, 1, [0xef2920fc, 0x0a6f0ee9, 0x4ab4ba42])]",
        "0x0000000000000000000000000000000000000000",
        "0x"
      ],
      "transaction": {
        "from": "0x00bcc26e792e393217ba895f5e85ae628fc994e9",
        "to": "0xe0280d4e1d62e298cb2f98978087f455ef0086c6",
        "value": "0x0",
        "input": "0x1f931c1c00000000000000000000000000000000000000000000000000000000000000600000000000000000000000000000000000000000000000000000000000000000000000000000000000000000000000000000000000000000000000000000018000000000000000000000000000000000000000000000000000000000000000010000000000000000000000000000000000000000000000000000000000000020000000000000000000000000b5b5b4df921e33fe99606e2ca3b0b29af3642e8d000000000000000000000000000000000000000000000000000000000000000100000000000000000000000000000000000000000000000000000000000000600000000000000000000000000000000000000000000000000000000000000003ef2920fc000000000000000000000000000000000000000000000000000000000a6f0ee9000000000000000000000000000000000000000000000000000000004ab4ba42000000000000000000000000000000000000000000000000000000000000000000000000000000000000000000000000000000000000000000000000",
        "nonce": "0x96",
        "chainId": "0x66eee"
      },
      "additionalContracts": [],
      "isFixedGasLimit": false
    },
    {
      "hash": "0x0d85db3a075e83bf06fcacf64ed5dc9aae6c0344f5b424860291e6845cbfc498",
      "transactionType": "CALL",
      "contractName": null,
      "contractAddress": "0xe6dedd7a954c51ddb283b751db6970a75d067cad",
      "function": "diamondCut((address,uint8,bytes4[])[],address,bytes)",
      "arguments": [
        "[(0xB5b5b4Df921e33fe99606e2Ca3b0B29AF3642e8D, 1, [0xef2920fc, 0x0a6f0ee9, 0x4ab4ba42])]",
        "0x0000000000000000000000000000000000000000",
        "0x"
      ],
      "transaction": {
        "from": "0x00bcc26e792e393217ba895f5e85ae628fc994e9",
        "to": "0xe6dedd7a954c51ddb283b751db6970a75d067cad",
        "value": "0x0",
        "input": "0x1f931c1c00000000000000000000000000000000000000000000000000000000000000600000000000000000000000000000000000000000000000000000000000000000000000000000000000000000000000000000000000000000000000000000018000000000000000000000000000000000000000000000000000000000000000010000000000000000000000000000000000000000000000000000000000000020000000000000000000000000b5b5b4df921e33fe99606e2ca3b0b29af3642e8d000000000000000000000000000000000000000000000000000000000000000100000000000000000000000000000000000000000000000000000000000000600000000000000000000000000000000000000000000000000000000000000003ef2920fc000000000000000000000000000000000000000000000000000000000a6f0ee9000000000000000000000000000000000000000000000000000000004ab4ba42000000000000000000000000000000000000000000000000000000000000000000000000000000000000000000000000000000000000000000000000",
        "nonce": "0x97",
        "chainId": "0x66eee"
      },
      "additionalContracts": [],
      "isFixedGasLimit": false
    }
  ],
  "receipts": [
    {
      "status": "0x1",
      "cumulativeGasUsed": "0x4425c1",
      "logs": [],
      "logsBloom": "0x00000000000000000000000000000000000000000000000000000000000000000000000000000000000000000000000000000000000000000000000000000000000000000000000000000000000000000000000000000000000000000000000000000000000000000000000000000000000000000000000000000000000000000000000000000000000000000000000000000000000000000000000000000000000000000000000000000000000000000000000000000000000000000000000000000000000000000000000000000000000000000000000000000000000000000000000000000000000000000000000000000000000000000000000000000000",
      "type": "0x2",
      "transactionHash": "0xdd66ad3186e4ba97f7f727d3322660cc074d125ba97e5d7f53827dd6cca29c61",
      "transactionIndex": "0x8",
      "blockHash": "0x1be23950b06cb8265341e05faec576e3955baa9b348886d5a3da14498e215b4f",
      "blockNumber": "0x10b21da0",
      "gasUsed": "0x2a6e90",
      "effectiveGasPrice": "0x1312d00",
      "from": "0x00bcc26e792e393217ba895f5e85ae628fc994e9",
      "to": null,
      "contractAddress": "0xb5b5b4df921e33fe99606e2ca3b0b29af3642e8d",
      "gasUsedForL1": "0x3b41a",
      "l1BlockNumber": "0xa9ad87",
      "timeboosted": false
    },
    {
      "status": "0x1",
      "cumulativeGasUsed": "0x5f5d8",
      "logs": [],
      "logsBloom": "0x00000000000000000000000000000000000000000000000000000000000000000000000000000000000000000000000000000000000000000000000000000000000000000000000000000000000000000000000000000000000000000000000000000000000000000000000000000000000000000000000000000000000000000000000000000000000000000000000000000000000000000000000000000000000000000000000000000000000000000000000000000000000000000000000000000000000000000000000000000000000000000000000000000000000000000000000000000000000000000000000000000000000000000000000000000000",
      "type": "0x2",
      "transactionHash": "0x2a4c06c2b3a49648584c117d3190085b7887809ef0d8c3be173d0a77f6177fc9",
      "transactionIndex": "0x5",
      "blockHash": "0x07805620196b9a13a9c5c8b2ee0d20f1fb3382e1caefdc05ae3d4aeb2eaf06a7",
      "blockNumber": "0x10b21da2",
      "gasUsed": "0x10f59",
      "effectiveGasPrice": "0x135f790",
      "from": "0x00bcc26e792e393217ba895f5e85ae628fc994e9",
      "to": "0xf42f88c13804147b2fdda13c093ce14219aea395",
      "contractAddress": null,
      "gasUsedForL1": "0x281f",
      "l1BlockNumber": "0xa9ad87",
      "timeboosted": false
    },
    {
      "status": "0x1",
      "cumulativeGasUsed": "0xa07a5",
      "logs": [
        {
          "address": "0x00d33e504517a03fe14e05863bb95983660b0c2c",
          "topics": [
            "0x8faa70878671ccd212d20771b795c50af8fd3ff6cf27f4bde57e5d4de0aeb673"
          ],
          "data": "0x00000000000000000000000000000000000000000000000000000000000000600000000000000000000000000000000000000000000000000000000000000000000000000000000000000000000000000000000000000000000000000000018000000000000000000000000000000000000000000000000000000000000000010000000000000000000000000000000000000000000000000000000000000020000000000000000000000000b5b5b4df921e33fe99606e2ca3b0b29af3642e8d000000000000000000000000000000000000000000000000000000000000000100000000000000000000000000000000000000000000000000000000000000600000000000000000000000000000000000000000000000000000000000000003ef2920fc000000000000000000000000000000000000000000000000000000000a6f0ee9000000000000000000000000000000000000000000000000000000004ab4ba42000000000000000000000000000000000000000000000000000000000000000000000000000000000000000000000000000000000000000000000000",
          "blockHash": "0xc99056a7411d352e4971833ac14f12f87e7adef9bf32f86dbebe415226985998",
          "blockNumber": "0x10b21da4",
          "blockTimestamp": "0x6a39f337",
          "transactionHash": "0xd932724fab4f17430ad7d81c56ca01410485462a2c871d508c2df399936b1aa3",
          "transactionIndex": "0x4",
          "logIndex": "0x5",
          "removed": false
        }
      ],
      "logsBloom": "0x00000000000000000000000400000000000000000000000000000000000000000000000000000000000000000000000000000000000000000000000000000000000000000000000000000000000000000000000001000000000800000000000000000000000000000000000000004000000000000000000000000000000000000020000000000000000000000000000000000020000000000000000000000000000000000000000000000000000000000000000000000000000000000000000000000000000000000000000000000000000000000000000000000000000000000000000000000000000000000000000000000000000000000000000000000000",
      "type": "0x2",
      "transactionHash": "0xd932724fab4f17430ad7d81c56ca01410485462a2c871d508c2df399936b1aa3",
      "transactionIndex": "0x4",
      "blockHash": "0xc99056a7411d352e4971833ac14f12f87e7adef9bf32f86dbebe415226985998",
      "blockNumber": "0x10b21da4",
      "gasUsed": "0x13a33",
      "effectiveGasPrice": "0x1312d00",
      "from": "0x00bcc26e792e393217ba895f5e85ae628fc994e9",
      "to": "0x00d33e504517a03fe14e05863bb95983660b0c2c",
      "contractAddress": null,
      "gasUsedForL1": "0x28e7",
      "l1BlockNumber": "0xa9ad87",
      "timeboosted": false
    },
    {
      "status": "0x1",
      "cumulativeGasUsed": "0xf0749",
      "logs": [
        {
          "address": "0x07563fce80b58a67f5d4a5332ee84747bfb829b9",
          "topics": [
            "0x8faa70878671ccd212d20771b795c50af8fd3ff6cf27f4bde57e5d4de0aeb673"
          ],
          "data": "0x00000000000000000000000000000000000000000000000000000000000000600000000000000000000000000000000000000000000000000000000000000000000000000000000000000000000000000000000000000000000000000000018000000000000000000000000000000000000000000000000000000000000000010000000000000000000000000000000000000000000000000000000000000020000000000000000000000000b5b5b4df921e33fe99606e2ca3b0b29af3642e8d000000000000000000000000000000000000000000000000000000000000000100000000000000000000000000000000000000000000000000000000000000600000000000000000000000000000000000000000000000000000000000000003ef2920fc000000000000000000000000000000000000000000000000000000000a6f0ee9000000000000000000000000000000000000000000000000000000004ab4ba42000000000000000000000000000000000000000000000000000000000000000000000000000000000000000000000000000000000000000000000000",
          "blockHash": "0x677f4cf0b311809abec8a75230f8eaa6ecdc40eb52ff3cea0301e2102dd631e1",
          "blockNumber": "0x10b21da6",
          "blockTimestamp": "0x6a39f337",
          "transactionHash": "0xdab741efc4443545450142decbdccb877e9c0ca1f7ed021430a6817cf07ba6d7",
          "transactionIndex": "0x9",
          "logIndex": "0xf",
          "removed": false
        }
      ],
      "logsBloom": "0x00000000000000000000000000000000000000000000000000000000000000000000000000000000000000000000000000000000000020000000000000000000000000000000000000800000000000000000000001000000000800000000000000000000000000000000000000000000000000000000000000000000000000000020000000000000000000000000000000000000000000000000000000000000000000000000000000000000000000000000000000000000000000000000000000000000000000000000000000000000000000000000000000000000000000000000080000000000000000000000000000000000000000000000000000000000",
      "type": "0x2",
      "transactionHash": "0xdab741efc4443545450142decbdccb877e9c0ca1f7ed021430a6817cf07ba6d7",
      "transactionIndex": "0x9",
      "blockHash": "0x677f4cf0b311809abec8a75230f8eaa6ecdc40eb52ff3cea0301e2102dd631e1",
      "blockNumber": "0x10b21da6",
      "gasUsed": "0x13adc",
      "effectiveGasPrice": "0x132ea50",
      "from": "0x00bcc26e792e393217ba895f5e85ae628fc994e9",
      "to": "0x07563fce80b58a67f5d4a5332ee84747bfb829b9",
      "contractAddress": null,
      "gasUsedForL1": "0x2990",
      "l1BlockNumber": "0xa9ad87",
      "timeboosted": false
    },
    {
      "status": "0x1",
      "cumulativeGasUsed": "0x21db3",
      "logs": [
        {
          "address": "0x14507f0e947e1547a86fb187a4959858e5aaadbd",
          "topics": [
            "0x8faa70878671ccd212d20771b795c50af8fd3ff6cf27f4bde57e5d4de0aeb673"
          ],
          "data": "0x00000000000000000000000000000000000000000000000000000000000000600000000000000000000000000000000000000000000000000000000000000000000000000000000000000000000000000000000000000000000000000000018000000000000000000000000000000000000000000000000000000000000000010000000000000000000000000000000000000000000000000000000000000020000000000000000000000000b5b5b4df921e33fe99606e2ca3b0b29af3642e8d000000000000000000000000000000000000000000000000000000000000000100000000000000000000000000000000000000000000000000000000000000600000000000000000000000000000000000000000000000000000000000000003ef2920fc000000000000000000000000000000000000000000000000000000000a6f0ee9000000000000000000000000000000000000000000000000000000004ab4ba42000000000000000000000000000000000000000000000000000000000000000000000000000000000000000000000000000000000000000000000000",
          "blockHash": "0x1373c9b99752daba9874cbc2e942d70aa17d745ebaeb9112d17e02b32f2b4191",
          "blockNumber": "0x10b21da8",
          "blockTimestamp": "0x6a39f338",
          "transactionHash": "0xab771405fa17f76e32f69444a580c351b3bfca6bfc6965730895778d40ad3e90",
          "transactionIndex": "0x2",
          "logIndex": "0x1",
          "removed": false
        }
      ],
      "logsBloom": "0x00000000000000000000000000000000000000000000000000000000000000000000000000000000000000000000400000000000000000000000000000000000000400000000000000000000000000000000000001000000000800000000000000000000000000000000000000000000000000000000000000000000000000000020000000000000000000000000000000000000000000000000000000000000000000000000000000000000000000000000000000000000000000000000000000000000000000000000002000000000000000000000000000000000000000000000000000000000000000000000000000000000000000000000000000000000",
      "type": "0x2",
      "transactionHash": "0xab771405fa17f76e32f69444a580c351b3bfca6bfc6965730895778d40ad3e90",
      "transactionIndex": "0x2",
      "blockHash": "0x1373c9b99752daba9874cbc2e942d70aa17d745ebaeb9112d17e02b32f2b4191",
      "blockNumber": "0x10b21da8",
      "gasUsed": "0x13af2",
      "effectiveGasPrice": "0x1312d00",
      "from": "0x00bcc26e792e393217ba895f5e85ae628fc994e9",
      "to": "0x14507f0e947e1547a86fb187a4959858e5aaadbd",
      "contractAddress": null,
      "gasUsedForL1": "0x29a6",
      "l1BlockNumber": "0xa9ad87",
      "timeboosted": false
    },
    {
      "status": "0x1",
      "cumulativeGasUsed": "0x3025f",
      "logs": [
        {
          "address": "0x15f3e3c557f0a9bed0eba3eadcc5837d964c50fd",
          "topics": [
            "0x8faa70878671ccd212d20771b795c50af8fd3ff6cf27f4bde57e5d4de0aeb673"
          ],
          "data": "0x00000000000000000000000000000000000000000000000000000000000000600000000000000000000000000000000000000000000000000000000000000000000000000000000000000000000000000000000000000000000000000000018000000000000000000000000000000000000000000000000000000000000000010000000000000000000000000000000000000000000000000000000000000020000000000000000000000000b5b5b4df921e33fe99606e2ca3b0b29af3642e8d000000000000000000000000000000000000000000000000000000000000000100000000000000000000000000000000000000000000000000000000000000600000000000000000000000000000000000000000000000000000000000000003ef2920fc000000000000000000000000000000000000000000000000000000000a6f0ee9000000000000000000000000000000000000000000000000000000004ab4ba42000000000000000000000000000000000000000000000000000000000000000000000000000000000000000000000000000000000000000000000000",
          "blockHash": "0x351a484a45a2bd393e03e1b2e378688c20ccddb39ee2bca726d0aa65ec821b55",
          "blockNumber": "0x10b21daa",
          "blockTimestamp": "0x6a39f338",
          "transactionHash": "0x71478ab94d467f34ed8913261d9a8b67957c96b9e7881eedc3282fffdb48c33c",
          "transactionIndex": "0x3",
          "logIndex": "0x2",
          "removed": false
        }
      ],
      "logsBloom": "0x00000000000000000000000000000000000000000000000000000000000000000000000000002000000000000000000000000000000000000000000000000000000000000000000000000000000000000000000001000000000800000000000000000000000000000000000000000000000000000000000000000000000000000020000000000000010000000000000000000000000000000000000000000000000000000000000000000000800000000000000000000000000000000000000000000000000000000000000000000000000000000000000000000000000000000000000000000000000000000000000000000000000000000000000000000000",
      "type": "0x2",
      "transactionHash": "0x71478ab94d467f34ed8913261d9a8b67957c96b9e7881eedc3282fffdb48c33c",
      "transactionIndex": "0x3",
      "blockHash": "0x351a484a45a2bd393e03e1b2e378688c20ccddb39ee2bca726d0aa65ec821b55",
      "blockNumber": "0x10b21daa",
      "gasUsed": "0x13a17",
      "effectiveGasPrice": "0x131f820",
      "from": "0x00bcc26e792e393217ba895f5e85ae628fc994e9",
      "to": "0x15f3e3c557f0a9bed0eba3eadcc5837d964c50fd",
      "contractAddress": null,
      "gasUsedForL1": "0x28cb",
      "l1BlockNumber": "0xa9ad87",
      "timeboosted": false
    },
    {
      "status": "0x1",
      "cumulativeGasUsed": "0x21da5",
      "logs": [
        {
          "address": "0x194a593887a27200bf5a2b6713c1072882136b6c",
          "topics": [
            "0x8faa70878671ccd212d20771b795c50af8fd3ff6cf27f4bde57e5d4de0aeb673"
          ],
          "data": "0x00000000000000000000000000000000000000000000000000000000000000600000000000000000000000000000000000000000000000000000000000000000000000000000000000000000000000000000000000000000000000000000018000000000000000000000000000000000000000000000000000000000000000010000000000000000000000000000000000000000000000000000000000000020000000000000000000000000b5b5b4df921e33fe99606e2ca3b0b29af3642e8d000000000000000000000000000000000000000000000000000000000000000100000000000000000000000000000000000000000000000000000000000000600000000000000000000000000000000000000000000000000000000000000003ef2920fc000000000000000000000000000000000000000000000000000000000a6f0ee9000000000000000000000000000000000000000000000000000000004ab4ba42000000000000000000000000000000000000000000000000000000000000000000000000000000000000000000000000000000000000000000000000",
          "blockHash": "0x7d3221f383376faa2994dbc0daee856d5eba700c75442736dd3333b9984d219e",
          "blockNumber": "0x10b21dac",
          "blockTimestamp": "0x6a39f339",
          "transactionHash": "0x412d63e28633b46dd5efa790b51bcb8c92b046e31afdccab10bb846ea8f3e06c",
          "transactionIndex": "0x2",
          "logIndex": "0x1",
          "removed": false
        }
      ],
      "logsBloom": "0x00000000000000000000000000000000000000000000000000000000000800000000000000000000000000000000000000000000000800000000000000000000000000000000000000000000000000000000000001000000000800000000000000000000000000000000000000000000000000000000000000000000000000000020020000000000000000000000000000000000000000000000000000000000000000000000000000000000000000000000000000000000000000000000000000000000000000000000000000000000000000000000000000000000000000000000000000000000000000000000000000000000000000000000000000000000",
      "type": "0x2",
      "transactionHash": "0x412d63e28633b46dd5efa790b51bcb8c92b046e31afdccab10bb846ea8f3e06c",
      "transactionIndex": "0x2",
      "blockHash": "0x7d3221f383376faa2994dbc0daee856d5eba700c75442736dd3333b9984d219e",
      "blockNumber": "0x10b21dac",
      "gasUsed": "0x13acc",
      "effectiveGasPrice": "0x1312d00",
      "from": "0x00bcc26e792e393217ba895f5e85ae628fc994e9",
      "to": "0x194a593887a27200bf5a2b6713c1072882136b6c",
      "contractAddress": null,
      "gasUsedForL1": "0x2980",
      "l1BlockNumber": "0xa9ad87",
      "timeboosted": false
    },
    {
      "status": "0x1",
      "cumulativeGasUsed": "0x21331",
      "logs": [
        {
          "address": "0x2155378db737b5382d05bdc204f335b7da88af2b",
          "topics": [
            "0x8faa70878671ccd212d20771b795c50af8fd3ff6cf27f4bde57e5d4de0aeb673"
          ],
          "data": "0x00000000000000000000000000000000000000000000000000000000000000600000000000000000000000000000000000000000000000000000000000000000000000000000000000000000000000000000000000000000000000000000018000000000000000000000000000000000000000000000000000000000000000010000000000000000000000000000000000000000000000000000000000000020000000000000000000000000b5b5b4df921e33fe99606e2ca3b0b29af3642e8d000000000000000000000000000000000000000000000000000000000000000100000000000000000000000000000000000000000000000000000000000000600000000000000000000000000000000000000000000000000000000000000003ef2920fc000000000000000000000000000000000000000000000000000000000a6f0ee9000000000000000000000000000000000000000000000000000000004ab4ba42000000000000000000000000000000000000000000000000000000000000000000000000000000000000000000000000000000000000000000000000",
          "blockHash": "0x97eae0b613500e318d3073afc38a84e10a69a0b0a147eee00c5b738d81f64bde",
          "blockNumber": "0x10b21dae",
          "blockTimestamp": "0x6a39f339",
          "transactionHash": "0x91a6d4d2aee92b6ffb5f71025fcb6084e81e3ea7f9189aebb4a8d326b6891eb8",
          "transactionIndex": "0x2",
          "logIndex": "0x1",
          "removed": false
        }
      ],
      "logsBloom": "0x00000000000000000000000000000002000000000000000000000000000000000000000000000000200000000000000000000000000000000000000000000000000000000000000000000000000000000000000001000000000800000000000000000000000000000000000000000000000000000000000000000000000000000020000000001000000000000000000000000000000000000000000000000000000000000000000000000000000000000000000000000000000000000000000000000000000000000000000000000000000000000000000000000000000000000000000000000000000000000000000000000000000000000000000000000000",
      "type": "0x2",
      "transactionHash": "0x91a6d4d2aee92b6ffb5f71025fcb6084e81e3ea7f9189aebb4a8d326b6891eb8",
      "transactionIndex": "0x2",
      "blockHash": "0x97eae0b613500e318d3073afc38a84e10a69a0b0a147eee00c5b738d81f64bde",
      "blockNumber": "0x10b21dae",
      "gasUsed": "0x13bbb",
      "effectiveGasPrice": "0x131fff0",
      "from": "0x00bcc26e792e393217ba895f5e85ae628fc994e9",
      "to": "0x2155378db737b5382d05bdc204f335b7da88af2b",
      "contractAddress": null,
      "gasUsedForL1": "0x2a6f",
      "l1BlockNumber": "0xa9ad87",
      "timeboosted": false
    },
    {
      "status": "0x1",
      "cumulativeGasUsed": "0xde99e",
      "logs": [
        {
          "address": "0x2b08977d2ceb9520f4faa1556cfe0098e3b6306a",
          "topics": [
            "0x8faa70878671ccd212d20771b795c50af8fd3ff6cf27f4bde57e5d4de0aeb673"
          ],
          "data": "0x00000000000000000000000000000000000000000000000000000000000000600000000000000000000000000000000000000000000000000000000000000000000000000000000000000000000000000000000000000000000000000000018000000000000000000000000000000000000000000000000000000000000000010000000000000000000000000000000000000000000000000000000000000020000000000000000000000000b5b5b4df921e33fe99606e2ca3b0b29af3642e8d000000000000000000000000000000000000000000000000000000000000000100000000000000000000000000000000000000000000000000000000000000600000000000000000000000000000000000000000000000000000000000000003ef2920fc000000000000000000000000000000000000000000000000000000000a6f0ee9000000000000000000000000000000000000000000000000000000004ab4ba42000000000000000000000000000000000000000000000000000000000000000000000000000000000000000000000000000000000000000000000000",
          "blockHash": "0x5264f76b891df7110789c6d1b9fd23728d261fa868e3759720f1cb186436da1f",
          "blockNumber": "0x10b21db0",
          "blockTimestamp": "0x6a39f33a",
          "transactionHash": "0xb8f73057491d3248a0645fbd70b2df619f0caf4bdd4b0986d099b584f17e6882",
          "transactionIndex": "0x4",
          "logIndex": "0x12",
          "removed": false
        }
      ],
      "logsBloom": "0x80000000000000000000000000000000000000000000000000000000000000000000000000000000000000000000000000000000000000000000000000000000000000000000000000000000000000000000000001000000000800000000000000000000000000000000000000000000000000000000000000000000000000000020000000000000000000000000000000000000000000000000000000000000000000000000000000000000000000000000000000000000000000000000000000000800000000000000000000000000000000000000000000000000000000000000000000000000004000000000000000000000000000000000000000000000",
      "type": "0x2",
      "transactionHash": "0xb8f73057491d3248a0645fbd70b2df619f0caf4bdd4b0986d099b584f17e6882",
      "transactionIndex": "0x4",
      "blockHash": "0x5264f76b891df7110789c6d1b9fd23728d261fa868e3759720f1cb186436da1f",
      "blockNumber": "0x10b21db0",
      "gasUsed": "0x13ae8",
      "effectiveGasPrice": "0x1312d00",
      "from": "0x00bcc26e792e393217ba895f5e85ae628fc994e9",
      "to": "0x2b08977d2ceb9520f4faa1556cfe0098e3b6306a",
      "contractAddress": null,
      "gasUsedForL1": "0x2980",
      "l1BlockNumber": "0xa9ad87",
      "timeboosted": false
    },
    {
      "status": "0x1",
      "cumulativeGasUsed": "0x484e2",
      "logs": [
        {
          "address": "0x2c668e36496b2acd69e46418d5c1de0f43c9c4d2",
          "topics": [
            "0x8faa70878671ccd212d20771b795c50af8fd3ff6cf27f4bde57e5d4de0aeb673"
          ],
          "data": "0x00000000000000000000000000000000000000000000000000000000000000600000000000000000000000000000000000000000000000000000000000000000000000000000000000000000000000000000000000000000000000000000018000000000000000000000000000000000000000000000000000000000000000010000000000000000000000000000000000000000000000000000000000000020000000000000000000000000b5b5b4df921e33fe99606e2ca3b0b29af3642e8d000000000000000000000000000000000000000000000000000000000000000100000000000000000000000000000000000000000000000000000000000000600000000000000000000000000000000000000000000000000000000000000003ef2920fc000000000000000000000000000000000000000000000000000000000a6f0ee9000000000000000000000000000000000000000000000000000000004ab4ba42000000000000000000000000000000000000000000000000000000000000000000000000000000000000000000000000000000000000000000000000",
          "blockHash": "0x69283ddb1dec4bd4f8bfbf4758ce62dd839dd981fb34a3b3a021c0a9d6379058",
          "blockNumber": "0x10b21db2",
          "blockTimestamp": "0x6a39f33a",
          "transactionHash": "0x27155cb7b24839c8b04ed2e6a1a7c844b9de7223912f33c4c024cef11d91420c",
          "transactionIndex": "0x3",
          "logIndex": "0x3",
          "removed": false
        }
      ],
      "logsBloom": "0x00000000000000000000000000000000000000000000000000000000000000000000000000000000000000000004000000000000000000000000000000000000000000000000000000000000000000000000000001000000000800000000000000000000000100000000000000000000000000000000000000000000000000000020000000000000000000000000000000000000000000000000000000000000000000000000000000000000000000000000000000000000000000000000000000000000000000000000000000000000000000040000000000000000000000000000000000000000000000000000000000000000000000000000000000000000",
      "type": "0x2",
      "transactionHash": "0x27155cb7b24839c8b04ed2e6a1a7c844b9de7223912f33c4c024cef11d91420c",
      "transactionIndex": "0x3",
      "blockHash": "0x69283ddb1dec4bd4f8bfbf4758ce62dd839dd981fb34a3b3a021c0a9d6379058",
      "blockNumber": "0x10b21db2",
      "gasUsed": "0x13ae5",
      "effectiveGasPrice": "0x133c510",
      "from": "0x00bcc26e792e393217ba895f5e85ae628fc994e9",
      "to": "0x2c668e36496b2acd69e46418d5c1de0f43c9c4d2",
      "contractAddress": null,
      "gasUsedForL1": "0x2999",
      "l1BlockNumber": "0xa9ad87",
      "timeboosted": false
    },
    {
      "status": "0x1",
      "cumulativeGasUsed": "0x7048b",
      "logs": [
        {
          "address": "0x2f0af7438699d6b9ee6849a906f85f7c5851b3e6",
          "topics": [
            "0x8faa70878671ccd212d20771b795c50af8fd3ff6cf27f4bde57e5d4de0aeb673"
          ],
          "data": "0x00000000000000000000000000000000000000000000000000000000000000600000000000000000000000000000000000000000000000000000000000000000000000000000000000000000000000000000000000000000000000000000018000000000000000000000000000000000000000000000000000000000000000010000000000000000000000000000000000000000000000000000000000000020000000000000000000000000b5b5b4df921e33fe99606e2ca3b0b29af3642e8d000000000000000000000000000000000000000000000000000000000000000100000000000000000000000000000000000000000000000000000000000000600000000000000000000000000000000000000000000000000000000000000003ef2920fc000000000000000000000000000000000000000000000000000000000a6f0ee9000000000000000000000000000000000000000000000000000000004ab4ba42000000000000000000000000000000000000000000000000000000000000000000000000000000000000000000000000000000000000000000000000",
          "blockHash": "0xd21e1c047307976fc9ab939fe54b8fc4a07f4d3438d43d59cbc9055f4a23609f",
          "blockNumber": "0x10b21db4",
          "blockTimestamp": "0x6a39f33b",
          "transactionHash": "0x88f83533848cf56f8472b3c829331d098a692c8c278eefbd506c7488d71b40b7",
          "transactionIndex": "0x4",
          "logIndex": "0x5",
          "removed": false
        }
      ],
      "logsBloom": "0x00000000000000000000000000000000000000000000000000000000000000000000000000000000000000000000000000000000000000000000000000000000000000000000000000000000000000000000000001000000000800000000000000000000000000000000000000000000000000000000000020000000000000000020000000000000000000000000000000000000000000000000000000000000000000000000000000000000000000000100000000000000000000000000000000000000000000000000000000000800000000000000000000000000000000000000000000000000000000000000000000000000000000000000000000000000",
      "type": "0x2",
      "transactionHash": "0x88f83533848cf56f8472b3c829331d098a692c8c278eefbd506c7488d71b40b7",
      "transactionIndex": "0x4",
      "blockHash": "0xd21e1c047307976fc9ab939fe54b8fc4a07f4d3438d43d59cbc9055f4a23609f",
      "blockNumber": "0x10b21db4",
      "gasUsed": "0x13b8c",
      "effectiveGasPrice": "0x1312d00",
      "from": "0x00bcc26e792e393217ba895f5e85ae628fc994e9",
      "to": "0x2f0af7438699d6b9ee6849a906f85f7c5851b3e6",
      "contractAddress": null,
      "gasUsedForL1": "0x2a40",
      "l1BlockNumber": "0xa9ad87",
      "timeboosted": false
    },
    {
      "status": "0x1",
      "cumulativeGasUsed": "0x21fcc",
      "logs": [
        {
          "address": "0x316e665465960b79aea9bf53e33a9a2bbcde39e6",
          "topics": [
            "0x8faa70878671ccd212d20771b795c50af8fd3ff6cf27f4bde57e5d4de0aeb673"
          ],
          "data": "0x00000000000000000000000000000000000000000000000000000000000000600000000000000000000000000000000000000000000000000000000000000000000000000000000000000000000000000000000000000000000000000000018000000000000000000000000000000000000000000000000000000000000000010000000000000000000000000000000000000000000000000000000000000020000000000000000000000000b5b5b4df921e33fe99606e2ca3b0b29af3642e8d000000000000000000000000000000000000000000000000000000000000000100000000000000000000000000000000000000000000000000000000000000600000000000000000000000000000000000000000000000000000000000000003ef2920fc000000000000000000000000000000000000000000000000000000000a6f0ee9000000000000000000000000000000000000000000000000000000004ab4ba42000000000000000000000000000000000000000000000000000000000000000000000000000000000000000000000000000000000000000000000000",
          "blockHash": "0xf2de6b94f2f3ec5a8669edfefd057cf6ba0f64a07f5d48afc906ef300cbe45b6",
          "blockNumber": "0x10b21dba",
          "blockTimestamp": "0x6a39f33c",
          "transactionHash": "0x3303c312d9f1a0d800d719390a345b4d72b6fb5e292e1f5013f06f25453ea5fa",
          "transactionIndex": "0x2",
          "logIndex": "0x1",
          "removed": false
        }
      ],
      "logsBloom": "0x00000000000000000000000000000000000000000000000000000000000000000000000000000000000000004000000000000000000000000000000000000000000000000000000000000000000000000000000001000000000800000000000000000000000000008000000000000000000000000000000000000000000000000020000000000000000000000000000000000000000000000000000000000000000000000000000000000000000000000000000000000000000000000000000000000000000000000000000000000000000000000000000000000000000000000000000000000000000000000000000000000080000000000000000000000000",
      "type": "0x2",
      "transactionHash": "0x3303c312d9f1a0d800d719390a345b4d72b6fb5e292e1f5013f06f25453ea5fa",
      "transactionIndex": "0x2",
      "blockHash": "0xf2de6b94f2f3ec5a8669edfefd057cf6ba0f64a07f5d48afc906ef300cbe45b6",
      "blockNumber": "0x10b21dba",
      "gasUsed": "0x13d24",
      "effectiveGasPrice": "0x1324e10",
      "from": "0x00bcc26e792e393217ba895f5e85ae628fc994e9",
      "to": "0x316e665465960b79aea9bf53e33a9a2bbcde39e6",
      "contractAddress": null,
      "gasUsedForL1": "0x2bbc",
      "l1BlockNumber": "0xa9ad87",
      "timeboosted": false
    },
    {
      "status": "0x1",
      "cumulativeGasUsed": "0x16bbe5",
      "logs": [
        {
          "address": "0x33482037160b54625e7844cbaa90f808b4dcc1ee",
          "topics": [
            "0x8faa70878671ccd212d20771b795c50af8fd3ff6cf27f4bde57e5d4de0aeb673"
          ],
          "data": "0x00000000000000000000000000000000000000000000000000000000000000600000000000000000000000000000000000000000000000000000000000000000000000000000000000000000000000000000000000000000000000000000018000000000000000000000000000000000000000000000000000000000000000010000000000000000000000000000000000000000000000000000000000000020000000000000000000000000b5b5b4df921e33fe99606e2ca3b0b29af3642e8d000000000000000000000000000000000000000000000000000000000000000100000000000000000000000000000000000000000000000000000000000000600000000000000000000000000000000000000000000000000000000000000003ef2920fc000000000000000000000000000000000000000000000000000000000a6f0ee9000000000000000000000000000000000000000000000000000000004ab4ba42000000000000000000000000000000000000000000000000000000000000000000000000000000000000000000000000000000000000000000000000",
          "blockHash": "0xfface6b078ede38d06b2e8a7c96ec99d1d180a0b2e1e7e3dbefca1a2b8e3aaf0",
          "blockNumber": "0x10b21dbc",
          "blockTimestamp": "0x6a39f33d",
          "transactionHash": "0x775ffdde0b579e3da3f42453513f21b1d79cfb5c4ca6fca5a1170a194d9307f9",
          "transactionIndex": "0x2",
          "logIndex": "0xb",
          "removed": false
        }
      ],
      "logsBloom": "0x00000000000000000000000000000000000000000000000000000000008000000000000000000000000000000000000000000000000000000000000000000000000000000000000000000000000000000000000001000000000800000000000000000000000000000000000000000001000000000000000000000000000000000020000000000000000000000000000000000000000000000000000000000000000000000000000000000000000000000000000000000010000000000000000000000000000000000000000000000000000000000000000000000000000000000000000000000000000000000000000000000000000000000000000000000000",
      "type": "0x2",
      "transactionHash": "0x775ffdde0b579e3da3f42453513f21b1d79cfb5c4ca6fca5a1170a194d9307f9",
      "transactionIndex": "0x2",
      "blockHash": "0xfface6b078ede38d06b2e8a7c96ec99d1d180a0b2e1e7e3dbefca1a2b8e3aaf0",
      "blockNumber": "0x10b21dbc",
      "gasUsed": "0x13b65",
      "effectiveGasPrice": "0x1312d00",
      "from": "0x00bcc26e792e393217ba895f5e85ae628fc994e9",
      "to": "0x33482037160b54625e7844cbaa90f808b4dcc1ee",
      "contractAddress": null,
      "gasUsedForL1": "0x2a19",
      "l1BlockNumber": "0xa9ad87",
      "timeboosted": false
    },
    {
      "status": "0x1",
      "cumulativeGasUsed": "0x14da73",
      "logs": [
        {
          "address": "0x39e279272604b7c09ccffb23d4ab5311b5754d7d",
          "topics": [
            "0x8faa70878671ccd212d20771b795c50af8fd3ff6cf27f4bde57e5d4de0aeb673"
          ],
          "data": "0x00000000000000000000000000000000000000000000000000000000000000600000000000000000000000000000000000000000000000000000000000000000000000000000000000000000000000000000000000000000000000000000018000000000000000000000000000000000000000000000000000000000000000010000000000000000000000000000000000000000000000000000000000000020000000000000000000000000b5b5b4df921e33fe99606e2ca3b0b29af3642e8d000000000000000000000000000000000000000000000000000000000000000100000000000000000000000000000000000000000000000000000000000000600000000000000000000000000000000000000000000000000000000000000003ef2920fc000000000000000000000000000000000000000000000000000000000a6f0ee9000000000000000000000000000000000000000000000000000000004ab4ba42000000000000000000000000000000000000000000000000000000000000000000000000000000000000000000000000000000000000000000000000",
          "blockHash": "0xc380f374d0fa659d07d624184a110b397619199670307ba3ad377efc3d16546d",
          "blockNumber": "0x10b21dbe",
          "blockTimestamp": "0x6a39f33d",
          "transactionHash": "0x6e641ae289f0c88e189de36665ac1277b05c9b6cdd9b6c9224080549613cf176",
          "transactionIndex": "0x8",
          "logIndex": "0xc",
          "removed": false
        }
      ],
      "logsBloom": "0x00000000000000000000000000000000000000000000000000000000000000000000000000000000000000000000000000000000000000000000000000000000000000000000000000000000000000000000000001000000000800000000000000000000000000000000000000000000000000000000000000000000000000000020000000000000000000000000000000000000000000000000000000000100000000000000000000000000080000000000000000000000000000000000000000000000000000008000000000000000000000000000000000000000000000000000000000000000000000000000000000000000000000000000000000000000",
      "type": "0x2",
      "transactionHash": "0x6e641ae289f0c88e189de36665ac1277b05c9b6cdd9b6c9224080549613cf176",
      "transactionIndex": "0x8",
      "blockHash": "0xc380f374d0fa659d07d624184a110b397619199670307ba3ad377efc3d16546d",
      "blockNumber": "0x10b21dbe",
      "gasUsed": "0x13a70",
      "effectiveGasPrice": "0x1396290",
      "from": "0x00bcc26e792e393217ba895f5e85ae628fc994e9",
      "to": "0x39e279272604b7c09ccffb23d4ab5311b5754d7d",
      "contractAddress": null,
      "gasUsedForL1": "0x2924",
      "l1BlockNumber": "0xa9ad87",
      "timeboosted": false
    },
    {
      "status": "0x1",
      "cumulativeGasUsed": "0x13c4c",
      "logs": [
        {
          "address": "0x3bd8c9056a448c7ab3f398df2ffea114febd9139",
          "topics": [
            "0x8faa70878671ccd212d20771b795c50af8fd3ff6cf27f4bde57e5d4de0aeb673"
          ],
          "data": "0x00000000000000000000000000000000000000000000000000000000000000600000000000000000000000000000000000000000000000000000000000000000000000000000000000000000000000000000000000000000000000000000018000000000000000000000000000000000000000000000000000000000000000010000000000000000000000000000000000000000000000000000000000000020000000000000000000000000b5b5b4df921e33fe99606e2ca3b0b29af3642e8d000000000000000000000000000000000000000000000000000000000000000100000000000000000000000000000000000000000000000000000000000000600000000000000000000000000000000000000000000000000000000000000003ef2920fc000000000000000000000000000000000000000000000000000000000a6f0ee9000000000000000000000000000000000000000000000000000000004ab4ba42000000000000000000000000000000000000000000000000000000000000000000000000000000000000000000000000000000000000000000000000",
          "blockHash": "0xdeccdaa7d58f76b9c03f4ef70cdeb18a0879466b42d89436e15f2419c3f4eb41",
          "blockNumber": "0x10b21dc0",
          "blockTimestamp": "0x6a39f33e",
          "transactionHash": "0x523a137fcf8ba71238ea0c50e77504b506f732185eecb532e9fed5700d2f90c0",
          "transactionIndex": "0x1",
          "logIndex": "0x0",
          "removed": false
        }
      ],
      "logsBloom": "0x00000000000000000000000000000000000000000000000000000000000000000000000000000000000000000000000000000000000000000000000000000000000000000000000000000000000000000000000001000000000800000000000000000000000000000000000000000000000000000000000000000000000000000020000000004000000000000000000000000000000000000000002000000000000000000000000000000000000000000000000000000000000000000000000000002000000000000000000000000000000000000000000000000000000000000000000000000000000000000000000000000000000000000000000000000000",
      "type": "0x2",
      "transactionHash": "0x523a137fcf8ba71238ea0c50e77504b506f732185eecb532e9fed5700d2f90c0",
      "transactionIndex": "0x1",
      "blockHash": "0xdeccdaa7d58f76b9c03f4ef70cdeb18a0879466b42d89436e15f2419c3f4eb41",
      "blockNumber": "0x10b21dc0",
      "gasUsed": "0x13c4c",
      "effectiveGasPrice": "0x1312d00",
      "from": "0x00bcc26e792e393217ba895f5e85ae628fc994e9",
      "to": "0x3bd8c9056a448c7ab3f398df2ffea114febd9139",
      "contractAddress": null,
      "gasUsedForL1": "0x2b00",
      "l1BlockNumber": "0xa9ad87",
      "timeboosted": false
    },
    {
      "status": "0x1",
      "cumulativeGasUsed": "0x21ca5",
      "logs": [
        {
          "address": "0x4023e514a47c87a507623f08e748db7ae05da1c4",
          "topics": [
            "0x8faa70878671ccd212d20771b795c50af8fd3ff6cf27f4bde57e5d4de0aeb673"
          ],
          "data": "0x00000000000000000000000000000000000000000000000000000000000000600000000000000000000000000000000000000000000000000000000000000000000000000000000000000000000000000000000000000000000000000000018000000000000000000000000000000000000000000000000000000000000000010000000000000000000000000000000000000000000000000000000000000020000000000000000000000000b5b5b4df921e33fe99606e2ca3b0b29af3642e8d000000000000000000000000000000000000000000000000000000000000000100000000000000000000000000000000000000000000000000000000000000600000000000000000000000000000000000000000000000000000000000000003ef2920fc000000000000000000000000000000000000000000000000000000000a6f0ee9000000000000000000000000000000000000000000000000000000004ab4ba42000000000000000000000000000000000000000000000000000000000000000000000000000000000000000000000000000000000000000000000000",
          "blockHash": "0x876e5e90291068d4b9eddc0f951e1b8b50a22a0c8ca414d38c3a0aa35b609963",
          "blockNumber": "0x10b21dc2",
          "blockTimestamp": "0x6a39f33e",
          "transactionHash": "0x87565c9a682477b015132cf828361bc9afc03caf25205b6f1d240d59f4e4db53",
          "transactionIndex": "0x2",
          "logIndex": "0x1",
          "removed": false
        }
      ],
      "logsBloom": "0x00000200000000000000000000000000000000000000000000000000000000000000000000000000000000000000000000000000000000000000000000000000000000000000000000000000000000000000000001000000000800000000000000000000000000000000000000000000000000000000000000000000000000000020000000000000000000000000000000000000000000000000000000000000000000000000000000000000000000000000000000000000000000000000000000000000080000000000000000000000000000000000000000000004000000000000000000000000000000000000000000000000000000000000000000000000",
      "type": "0x2",
      "transactionHash": "0x87565c9a682477b015132cf828361bc9afc03caf25205b6f1d240d59f4e4db53",
      "transactionIndex": "0x2",
      "blockHash": "0x876e5e90291068d4b9eddc0f951e1b8b50a22a0c8ca414d38c3a0aa35b609963",
      "blockNumber": "0x10b21dc2",
      "gasUsed": "0x13a56",
      "effectiveGasPrice": "0x135b910",
      "from": "0x00bcc26e792e393217ba895f5e85ae628fc994e9",
      "to": "0x4023e514a47c87a507623f08e748db7ae05da1c4",
      "contractAddress": null,
      "gasUsedForL1": "0x290a",
      "l1BlockNumber": "0xa9ad87",
      "timeboosted": false
    },
    {
      "status": "0x1",
      "cumulativeGasUsed": "0x13bd9",
      "logs": [
        {
          "address": "0x4440e05839eaacc4927178756faa48ecc23386f8",
          "topics": [
            "0x8faa70878671ccd212d20771b795c50af8fd3ff6cf27f4bde57e5d4de0aeb673"
          ],
          "data": "0x00000000000000000000000000000000000000000000000000000000000000600000000000000000000000000000000000000000000000000000000000000000000000000000000000000000000000000000000000000000000000000000018000000000000000000000000000000000000000000000000000000000000000010000000000000000000000000000000000000000000000000000000000000020000000000000000000000000b5b5b4df921e33fe99606e2ca3b0b29af3642e8d000000000000000000000000000000000000000000000000000000000000000100000000000000000000000000000000000000000000000000000000000000600000000000000000000000000000000000000000000000000000000000000003ef2920fc000000000000000000000000000000000000000000000000000000000a6f0ee9000000000000000000000000000000000000000000000000000000004ab4ba42000000000000000000000000000000000000000000000000000000000000000000000000000000000000000000000000000000000000000000000000",
          "blockHash": "0x74549f4ecb2051ef530e736e7d19bd85c5bd9cb1d3e4e8c6a5660b78e86fbc3e",
          "blockNumber": "0x10b21dc4",
          "blockTimestamp": "0x6a39f33f",
          "transactionHash": "0x57098b3f3927a82e7e1816af3d09ae2dfb154dc4f603d9879349e441aa709631",
          "transactionIndex": "0x1",
          "logIndex": "0x0",
          "removed": false
        }
      ],
      "logsBloom": "0x00000000000000000000000000000000000000000000000000000000000000000000000000000000000000000000000000000000000000000000000000000000000000000000000000000000000000000000000001000000000800000000001000000000000000000000000000000000000000000000000000000000000002000020000000000000000000000000000000000000000000000000000000000000000000000000000000000000000000000000000000000000000000000000000000000000000000000000000000000000000000000000000000008000000000000000000000000000000000000000000000000000000000000000000000000000",
      "type": "0x2",
      "transactionHash": "0x57098b3f3927a82e7e1816af3d09ae2dfb154dc4f603d9879349e441aa709631",
      "transactionIndex": "0x1",
      "blockHash": "0x74549f4ecb2051ef530e736e7d19bd85c5bd9cb1d3e4e8c6a5660b78e86fbc3e",
      "blockNumber": "0x10b21dc4",
      "gasUsed": "0x13bd9",
      "effectiveGasPrice": "0x1312d00",
      "from": "0x00bcc26e792e393217ba895f5e85ae628fc994e9",
      "to": "0x4440e05839eaacc4927178756faa48ecc23386f8",
      "contractAddress": null,
      "gasUsedForL1": "0x2a8d",
      "l1BlockNumber": "0xa9ad87",
      "timeboosted": false
    },
    {
      "status": "0x1",
      "cumulativeGasUsed": "0x21e85",
      "logs": [
        {
          "address": "0x464f010f343bb52689e8579c84e76c8e04c7dbdc",
          "topics": [
            "0x8faa70878671ccd212d20771b795c50af8fd3ff6cf27f4bde57e5d4de0aeb673"
          ],
          "data": "0x00000000000000000000000000000000000000000000000000000000000000600000000000000000000000000000000000000000000000000000000000000000000000000000000000000000000000000000000000000000000000000000018000000000000000000000000000000000000000000000000000000000000000010000000000000000000000000000000000000000000000000000000000000020000000000000000000000000b5b5b4df921e33fe99606e2ca3b0b29af3642e8d000000000000000000000000000000000000000000000000000000000000000100000000000000000000000000000000000000000000000000000000000000600000000000000000000000000000000000000000000000000000000000000003ef2920fc000000000000000000000000000000000000000000000000000000000a6f0ee9000000000000000000000000000000000000000000000000000000004ab4ba42000000000000000000000000000000000000000000000000000000000000000000000000000000000000000000000000000000000000000000000000",
          "blockHash": "0x491d0bb228291c50bf83afd9b63d93922bdf92744ea1810b23b94f2ebf8e58e9",
          "blockNumber": "0x10b21dc6",
          "blockTimestamp": "0x6a39f33f",
          "transactionHash": "0x9a7da5ecad492f3bae09e4596e1b661db3b14a080993ba303320e4159cda294a",
          "transactionIndex": "0x2",
          "logIndex": "0x1",
          "removed": false
        }
      ],
      "logsBloom": "0x00000000000000000000000000000000000000020000000000000000000000000000000000000000000000000100000000002000000000000000000000000000000000000000000000000000000000000000000001000000000800000000000000000000000000000000000000000000000000000000000000000000000000000020000000000000000000000000000000000000000000000000000000000000000000000000000000000000000000000000000000000000000000000000000000000000000000000000000000000000000000000000000000000000000000000000000000000000000000000000000000000000000000000000000000000000",
      "type": "0x2",
      "transactionHash": "0x9a7da5ecad492f3bae09e4596e1b661db3b14a080993ba303320e4159cda294a",
      "transactionIndex": "0x2",
      "blockHash": "0x491d0bb228291c50bf83afd9b63d93922bdf92744ea1810b23b94f2ebf8e58e9",
      "blockNumber": "0x10b21dc6",
      "gasUsed": "0x13bc5",
      "effectiveGasPrice": "0x132cb10",
      "from": "0x00bcc26e792e393217ba895f5e85ae628fc994e9",
      "to": "0x464f010f343bb52689e8579c84e76c8e04c7dbdc",
      "contractAddress": null,
      "gasUsedForL1": "0x2a79",
      "l1BlockNumber": "0xa9ad87",
      "timeboosted": false
    },
    {
      "status": "0x1",
      "cumulativeGasUsed": "0x25169",
      "logs": [
        {
          "address": "0x565f8f945d08a7dd3c67a926b2b0b25704718d8a",
          "topics": [
            "0x8faa70878671ccd212d20771b795c50af8fd3ff6cf27f4bde57e5d4de0aeb673"
          ],
          "data": "0x00000000000000000000000000000000000000000000000000000000000000600000000000000000000000000000000000000000000000000000000000000000000000000000000000000000000000000000000000000000000000000000018000000000000000000000000000000000000000000000000000000000000000010000000000000000000000000000000000000000000000000000000000000020000000000000000000000000b5b5b4df921e33fe99606e2ca3b0b29af3642e8d000000000000000000000000000000000000000000000000000000000000000100000000000000000000000000000000000000000000000000000000000000600000000000000000000000000000000000000000000000000000000000000003ef2920fc000000000000000000000000000000000000000000000000000000000a6f0ee9000000000000000000000000000000000000000000000000000000004ab4ba42000000000000000000000000000000000000000000000000000000000000000000000000000000000000000000000000000000000000000000000000",
          "blockHash": "0xf0d651cf916c0b51580e13f54ba0cd8ba6195f1a1ffe0cb379eeff5c6b3ccb4c",
          "blockNumber": "0x10b21dcc",
          "blockTimestamp": "0x6a39f341",
          "transactionHash": "0x9d0a9358378bd152816ded527829fdd8d4b007ffe0a438ab6fad992762fcde88",
          "transactionIndex": "0x2",
          "logIndex": "0x3",
          "removed": false
        }
      ],
      "logsBloom": "0x00000000000000000000000000000000000000000000000000000000000000000000000000000000000000000000000000000400000000000000000000000000000000000000000000000000000000000000000001000000000800200000000000000000000000000000000000000000000000000000000000000000000000000020000000000000000000000000000000000000000000000000000000000000000000000000000000000000000000000000000000000000000000000000000000000000000000000000000000000000000000000000000000000000000000000000000000000800000000000000000000000000000000000000000000000000",
      "type": "0x2",
      "transactionHash": "0x9d0a9358378bd152816ded527829fdd8d4b007ffe0a438ab6fad992762fcde88",
      "transactionIndex": "0x2",
      "blockHash": "0xf0d651cf916c0b51580e13f54ba0cd8ba6195f1a1ffe0cb379eeff5c6b3ccb4c",
      "blockNumber": "0x10b21dcc",
      "gasUsed": "0x13bd9",
      "effectiveGasPrice": "0x1312d00",
      "from": "0x00bcc26e792e393217ba895f5e85ae628fc994e9",
      "to": "0x565f8f945d08a7dd3c67a926b2b0b25704718d8a",
      "contractAddress": null,
      "gasUsedForL1": "0x2a8d",
      "l1BlockNumber": "0xa9ad87",
      "timeboosted": false
    },
    {
      "status": "0x1",
      "cumulativeGasUsed": "0x21226",
      "logs": [
        {
          "address": "0x61f0d03b1f00b872c7c9ee03a12224cb70e93ea2",
          "topics": [
            "0x8faa70878671ccd212d20771b795c50af8fd3ff6cf27f4bde57e5d4de0aeb673"
          ],
          "data": "0x00000000000000000000000000000000000000000000000000000000000000600000000000000000000000000000000000000000000000000000000000000000000000000000000000000000000000000000000000000000000000000000018000000000000000000000000000000000000000000000000000000000000000010000000000000000000000000000000000000000000000000000000000000020000000000000000000000000b5b5b4df921e33fe99606e2ca3b0b29af3642e8d000000000000000000000000000000000000000000000000000000000000000100000000000000000000000000000000000000000000000000000000000000600000000000000000000000000000000000000000000000000000000000000003ef2920fc000000000000000000000000000000000000000000000000000000000a6f0ee9000000000000000000000000000000000000000000000000000000004ab4ba42000000000000000000000000000000000000000000000000000000000000000000000000000000000000000000000000000000000000000000000000",
          "blockHash": "0xe83a0623dedb40da963faf5333fed1e2186e6a469ce2f296ec774ce4fd8ed7d0",
          "blockNumber": "0x10b21dce",
          "blockTimestamp": "0x6a39f341",
          "transactionHash": "0x3903bddec510dd2c732fc6ad1a27fd5a8e3d07c3e5de12e8af5413beb2982e47",
          "transactionIndex": "0x2",
          "logIndex": "0x1",
          "removed": false
        }
      ],
      "logsBloom": "0x00000000000000000000000000000000000000000000000000000000100000000000000000000000000000000000000000000000000000000000000000000000000000000000000000000000000000000000000001000000000800000000000000000000000000000000000000000000000000000000000000000000000000000020000000000000010000000000200000000000000000000000000000000000000000000000000000000000000000000000000000000000000000000000000000000000000000000000000000000000000000000000000000000000000000000000000000000000000000000000000000000000000000000000000000000000",
      "type": "0x2",
      "transactionHash": "0x3903bddec510dd2c732fc6ad1a27fd5a8e3d07c3e5de12e8af5413beb2982e47",
      "transactionIndex": "0x2",
      "blockHash": "0xe83a0623dedb40da963faf5333fed1e2186e6a469ce2f296ec774ce4fd8ed7d0",
      "blockNumber": "0x10b21dce",
      "gasUsed": "0x13aeb",
      "effectiveGasPrice": "0x1327cf0",
      "from": "0x00bcc26e792e393217ba895f5e85ae628fc994e9",
      "to": "0x61f0d03b1f00b872c7c9ee03a12224cb70e93ea2",
      "contractAddress": null,
      "gasUsedForL1": "0x299f",
      "l1BlockNumber": "0xa9ad88",
      "timeboosted": false
    },
    {
      "status": "0x1",
      "cumulativeGasUsed": "0x13c4c",
      "logs": [
        {
          "address": "0x62884d6a9b30cfbe52eddd3e365a996123d28c47",
          "topics": [
            "0x8faa70878671ccd212d20771b795c50af8fd3ff6cf27f4bde57e5d4de0aeb673"
          ],
          "data": "0x00000000000000000000000000000000000000000000000000000000000000600000000000000000000000000000000000000000000000000000000000000000000000000000000000000000000000000000000000000000000000000000018000000000000000000000000000000000000000000000000000000000000000010000000000000000000000000000000000000000000000000000000000000020000000000000000000000000b5b5b4df921e33fe99606e2ca3b0b29af3642e8d000000000000000000000000000000000000000000000000000000000000000100000000000000000000000000000000000000000000000000000000000000600000000000000000000000000000000000000000000000000000000000000003ef2920fc000000000000000000000000000000000000000000000000000000000a6f0ee9000000000000000000000000000000000000000000000000000000004ab4ba42000000000000000000000000000000000000000000000000000000000000000000000000000000000000000000000000000000000000000000000000",
          "blockHash": "0xef829167c547997a1341d285c487fd64de8372c0dc2f37e6356372098c89100d",
          "blockNumber": "0x10b21dd0",
          "blockTimestamp": "0x6a39f342",
          "transactionHash": "0x905c43a3b6efbf9a85ee9910d274bd79cc5d523587498eeb1943517cdd94a425",
          "transactionIndex": "0x1",
          "logIndex": "0x0",
          "removed": false
        }
      ],
      "logsBloom": "0x00000000000000000000000000000000000000000000080000000000000000000000000000100000000000000000000000000000000000000000000000000000000000000000000000000000000000000000000001000000000800000000000000000000000000000000000000000000000000000000000000000000000000000020000000000000000000000000000000000000000000000000000000000000000000000000000000000000000000000000000000000000000000000000000000000000000000000000000000000000000000000000000000000000000000000000000000000000000000000040000000000000000000000000000000000000",
      "type": "0x2",
      "transactionHash": "0x905c43a3b6efbf9a85ee9910d274bd79cc5d523587498eeb1943517cdd94a425",
      "transactionIndex": "0x1",
      "blockHash": "0xef829167c547997a1341d285c487fd64de8372c0dc2f37e6356372098c89100d",
      "blockNumber": "0x10b21dd0",
      "gasUsed": "0x13c4c",
      "effectiveGasPrice": "0x1312d00",
      "from": "0x00bcc26e792e393217ba895f5e85ae628fc994e9",
      "to": "0x62884d6a9b30cfbe52eddd3e365a996123d28c47",
      "contractAddress": null,
      "gasUsedForL1": "0x2b00",
      "l1BlockNumber": "0xa9ad88",
      "timeboosted": false
    },
    {
      "status": "0x1",
      "cumulativeGasUsed": "0x9111c",
      "logs": [
        {
          "address": "0x6b999ed850de2c5c923eaafc3c15781bd2ccf9d6",
          "topics": [
            "0x8faa70878671ccd212d20771b795c50af8fd3ff6cf27f4bde57e5d4de0aeb673"
          ],
          "data": "0x00000000000000000000000000000000000000000000000000000000000000600000000000000000000000000000000000000000000000000000000000000000000000000000000000000000000000000000000000000000000000000000018000000000000000000000000000000000000000000000000000000000000000010000000000000000000000000000000000000000000000000000000000000020000000000000000000000000b5b5b4df921e33fe99606e2ca3b0b29af3642e8d000000000000000000000000000000000000000000000000000000000000000100000000000000000000000000000000000000000000000000000000000000600000000000000000000000000000000000000000000000000000000000000003ef2920fc000000000000000000000000000000000000000000000000000000000a6f0ee9000000000000000000000000000000000000000000000000000000004ab4ba42000000000000000000000000000000000000000000000000000000000000000000000000000000000000000000000000000000000000000000000000",
          "blockHash": "0xfbab0079055ed72aff290533f2a256d76bdff27a3865f3f87731b0393d905254",
          "blockNumber": "0x10b21dd2",
          "blockTimestamp": "0x6a39f342",
          "transactionHash": "0xca7c128db01413382882bbbb54ac960ee26830c380b66b22953ca27532ace193",
          "transactionIndex": "0x4",
          "logIndex": "0xb",
          "removed": false
        }
      ],
      "logsBloom": "0x00000000000000000000000000000000000000002000000000000000000000000000000000000000000000000000000000000000000000000000000000000000000000000000000000000000000000000000000001000000000800000000000000000000000000000000000000000000000000000000000000000000000000000020000000000000000000000000000000000000000000000000000000000000000000000000200000000000000000000000000000000000000000000000000000000000000000000000000000000000000000000100000000000000000000000000000000000000000000000000000000000000000000000000000000000000",
      "type": "0x2",
      "transactionHash": "0xca7c128db01413382882bbbb54ac960ee26830c380b66b22953ca27532ace193",
      "transactionIndex": "0x4",
      "blockHash": "0xfbab0079055ed72aff290533f2a256d76bdff27a3865f3f87731b0393d905254",
      "blockNumber": "0x10b21dd2",
      "gasUsed": "0x13b29",
      "effectiveGasPrice": "0x131d110",
      "from": "0x00bcc26e792e393217ba895f5e85ae628fc994e9",
      "to": "0x6b999ed850de2c5c923eaafc3c15781bd2ccf9d6",
      "contractAddress": null,
      "gasUsedForL1": "0x29dd",
      "l1BlockNumber": "0xa9ad88",
      "timeboosted": false
    },
    {
      "status": "0x1",
      "cumulativeGasUsed": "0x13aa6",
      "logs": [
        {
          "address": "0x8a3004467f9a4c3233f0ca20ab126d322ce14dc5",
          "topics": [
            "0x8faa70878671ccd212d20771b795c50af8fd3ff6cf27f4bde57e5d4de0aeb673"
          ],
          "data": "0x00000000000000000000000000000000000000000000000000000000000000600000000000000000000000000000000000000000000000000000000000000000000000000000000000000000000000000000000000000000000000000000018000000000000000000000000000000000000000000000000000000000000000010000000000000000000000000000000000000000000000000000000000000020000000000000000000000000b5b5b4df921e33fe99606e2ca3b0b29af3642e8d000000000000000000000000000000000000000000000000000000000000000100000000000000000000000000000000000000000000000000000000000000600000000000000000000000000000000000000000000000000000000000000003ef2920fc000000000000000000000000000000000000000000000000000000000a6f0ee9000000000000000000000000000000000000000000000000000000004ab4ba42000000000000000000000000000000000000000000000000000000000000000000000000000000000000000000000000000000000000000000000000",
          "blockHash": "0xa42bccd09effa41ad7ad9b14fad8538b81f7e8470d07537be2f8a26cb3c0ba7a",
          "blockNumber": "0x10b21dd4",
          "blockTimestamp": "0x6a39f343",
          "transactionHash": "0xe342e1abb1b9a32942dc4ffd7d44647c67de9092073bbf5dd07cc92874132f7d",
          "transactionIndex": "0x1",
          "logIndex": "0x0",
          "removed": false
        }
      ],
      "logsBloom": "0x00000000000000000000000000000000000000000000000000000000000000000000000000000000000000000000000000000000000000000000000000000000000000000000000000000000000000000000000001000000000800000000000000000000000000000000000000000000000000000000000000000000000000000020000000000000000000000000000000000000000000000000000000000000000000000000000000800000000000000000000000000000000000000000000000000000000000000400000000000000000000000000000000000000000000000000000000000000000000000000000004000000000000000000000000000000",
      "type": "0x2",
      "transactionHash": "0xe342e1abb1b9a32942dc4ffd7d44647c67de9092073bbf5dd07cc92874132f7d",
      "transactionIndex": "0x1",
      "blockHash": "0xa42bccd09effa41ad7ad9b14fad8538b81f7e8470d07537be2f8a26cb3c0ba7a",
      "blockNumber": "0x10b21dd4",
      "gasUsed": "0x13aa6",
      "effectiveGasPrice": "0x1312d00",
      "from": "0x00bcc26e792e393217ba895f5e85ae628fc994e9",
      "to": "0x8a3004467f9a4c3233f0ca20ab126d322ce14dc5",
      "contractAddress": null,
      "gasUsedForL1": "0x295a",
      "l1BlockNumber": "0xa9ad88",
      "timeboosted": false
    },
    {
      "status": "0x1",
      "cumulativeGasUsed": "0x13a37",
      "logs": [
        {
          "address": "0x8b02e15e5e78a3e0baf99205fabab0b971f30ac3",
          "topics": [
            "0x8faa70878671ccd212d20771b795c50af8fd3ff6cf27f4bde57e5d4de0aeb673"
          ],
          "data": "0x00000000000000000000000000000000000000000000000000000000000000600000000000000000000000000000000000000000000000000000000000000000000000000000000000000000000000000000000000000000000000000000018000000000000000000000000000000000000000000000000000000000000000010000000000000000000000000000000000000000000000000000000000000020000000000000000000000000b5b5b4df921e33fe99606e2ca3b0b29af3642e8d000000000000000000000000000000000000000000000000000000000000000100000000000000000000000000000000000000000000000000000000000000600000000000000000000000000000000000000000000000000000000000000003ef2920fc000000000000000000000000000000000000000000000000000000000a6f0ee9000000000000000000000000000000000000000000000000000000004ab4ba42000000000000000000000000000000000000000000000000000000000000000000000000000000000000000000000000000000000000000000000000",
          "blockHash": "0x92cf0d78c37ae43c81e29bc96597cb5e20197ce2af883a12328737a5ad6e6bb8",
          "blockNumber": "0x10b21dd6",
          "blockTimestamp": "0x6a39f343",
          "transactionHash": "0xa22c759535269164509145b20dadb9146345a946bee238e77f49590882bdf0cf",
          "transactionIndex": "0x1",
          "logIndex": "0x0",
          "removed": false
        }
      ],
      "logsBloom": "0x00000000000000000000001000000000000000000000000000000000000000000000000000000000000000000000000000000000000000000000000000000000000000000000000000000000000000000000000001000000000800000000000002000000000000000000000000000000000000000000000000000000000000000020000000000000000000000000000000000000000000008000000000000000000000000000000000000000000000000000000000000000000000000000000000000000000000000000000000000000000000000000000000000000000000000000000000000000000000000000000000000000000000000000000000000000",
      "type": "0x2",
      "transactionHash": "0xa22c759535269164509145b20dadb9146345a946bee238e77f49590882bdf0cf",
      "transactionIndex": "0x1",
      "blockHash": "0x92cf0d78c37ae43c81e29bc96597cb5e20197ce2af883a12328737a5ad6e6bb8",
      "blockNumber": "0x10b21dd6",
      "gasUsed": "0x13a37",
      "effectiveGasPrice": "0x1322700",
      "from": "0x00bcc26e792e393217ba895f5e85ae628fc994e9",
      "to": "0x8b02e15e5e78a3e0baf99205fabab0b971f30ac3",
      "contractAddress": null,
      "gasUsedForL1": "0x28eb",
      "l1BlockNumber": "0xa9ad88",
      "timeboosted": false
    },
    {
      "status": "0x1",
      "cumulativeGasUsed": "0x13c25",
      "logs": [
        {
          "address": "0x9dca528cd12c62cec0d37c17a9d23a4b8777d329",
          "topics": [
            "0x8faa70878671ccd212d20771b795c50af8fd3ff6cf27f4bde57e5d4de0aeb673"
          ],
          "data": "0x00000000000000000000000000000000000000000000000000000000000000600000000000000000000000000000000000000000000000000000000000000000000000000000000000000000000000000000000000000000000000000000018000000000000000000000000000000000000000000000000000000000000000010000000000000000000000000000000000000000000000000000000000000020000000000000000000000000b5b5b4df921e33fe99606e2ca3b0b29af3642e8d000000000000000000000000000000000000000000000000000000000000000100000000000000000000000000000000000000000000000000000000000000600000000000000000000000000000000000000000000000000000000000000003ef2920fc000000000000000000000000000000000000000000000000000000000a6f0ee9000000000000000000000000000000000000000000000000000000004ab4ba42000000000000000000000000000000000000000000000000000000000000000000000000000000000000000000000000000000000000000000000000",
          "blockHash": "0x41b0adceb54cb2de6c4f64968aa59ffb20055d9e992dfdbea0fe5a93bb599f6f",
          "blockNumber": "0x10b21dd8",
          "blockTimestamp": "0x6a39f344",
          "transactionHash": "0x8d3350b4415421e562f527955bc6fdac4e89b17e745c915020a4362cb7c5cb22",
          "transactionIndex": "0x1",
          "logIndex": "0x0",
          "removed": false
        }
      ],
      "logsBloom": "0x00000000000000800000000000000000000000000000000000000000000000000000000000000000000001000000000000000000000000000000000000000000000000000000000000000000000000000000000001000000000800000000000000000000000000000000000000000000000000000000000000000000000000000020000000000000000000000000000000000000000000000000000000000000000000000000000000000008000000000000000000000000000000000000000000000000000000000000000000000000000000000000000000000000000000000000000000000000000000000000000000000000000000000000000000000000",
      "type": "0x2",
      "transactionHash": "0x8d3350b4415421e562f527955bc6fdac4e89b17e745c915020a4362cb7c5cb22",
      "transactionIndex": "0x1",
      "blockHash": "0x41b0adceb54cb2de6c4f64968aa59ffb20055d9e992dfdbea0fe5a93bb599f6f",
      "blockNumber": "0x10b21dd8",
      "gasUsed": "0x13c25",
      "effectiveGasPrice": "0x1312d00",
      "from": "0x00bcc26e792e393217ba895f5e85ae628fc994e9",
      "to": "0x9dca528cd12c62cec0d37c17a9d23a4b8777d329",
      "contractAddress": null,
      "gasUsedForL1": "0x2ad9",
      "l1BlockNumber": "0xa9ad88",
      "timeboosted": false
    },
    {
      "status": "0x1",
      "cumulativeGasUsed": "0x2002e",
      "logs": [
        {
          "address": "0x9e9321526d2f36d521ad4f70786b1adba73023a2",
          "topics": [
            "0x8faa70878671ccd212d20771b795c50af8fd3ff6cf27f4bde57e5d4de0aeb673"
          ],
          "data": "0x00000000000000000000000000000000000000000000000000000000000000600000000000000000000000000000000000000000000000000000000000000000000000000000000000000000000000000000000000000000000000000000018000000000000000000000000000000000000000000000000000000000000000010000000000000000000000000000000000000000000000000000000000000020000000000000000000000000b5b5b4df921e33fe99606e2ca3b0b29af3642e8d000000000000000000000000000000000000000000000000000000000000000100000000000000000000000000000000000000000000000000000000000000600000000000000000000000000000000000000000000000000000000000000003ef2920fc000000000000000000000000000000000000000000000000000000000a6f0ee9000000000000000000000000000000000000000000000000000000004ab4ba42000000000000000000000000000000000000000000000000000000000000000000000000000000000000000000000000000000000000000000000000",
          "blockHash": "0x076a3c4e2127a6023860996bac7acb9bf16c68a36875d15a699304001371fe95",
          "blockNumber": "0x10b21dda",
          "blockTimestamp": "0x6a39f344",
          "transactionHash": "0x6cb48fd6d6e56f0fef35b8996a3bc4026a99554e341ef281fd16ad1e9affc10b",
          "transactionIndex": "0x2",
          "logIndex": "0x1",
          "removed": false
        }
      ],
      "logsBloom": "0x00000000000000000000000000000000000000000000002000000000000000000000000000000000000000000000000000000000000000000000000000000000000000000000000000000000000000000000000001000000000800000000000000000000000000000000000000000000000000000000000000000000000000000020000000000000000000000000000000000000000000000400000000000000000000000000000000000000000000000000000000000000000000000000000000000000004000000000000000000000000000000000000000000000000000000000000000000000000000000000000000000000000000000000000000000000",
      "type": "0x2",
      "transactionHash": "0x6cb48fd6d6e56f0fef35b8996a3bc4026a99554e341ef281fd16ad1e9affc10b",
      "transactionIndex": "0x2",
      "blockHash": "0x076a3c4e2127a6023860996bac7acb9bf16c68a36875d15a699304001371fe95",
      "blockNumber": "0x10b21dda",
      "gasUsed": "0x13b4b",
      "effectiveGasPrice": "0x1353440",
      "from": "0x00bcc26e792e393217ba895f5e85ae628fc994e9",
      "to": "0x9e9321526d2f36d521ad4f70786b1adba73023a2",
      "contractAddress": null,
      "gasUsedForL1": "0x29ff",
      "l1BlockNumber": "0xa9ad88",
      "timeboosted": false
    },
    {
      "status": "0x1",
      "cumulativeGasUsed": "0xca721",
      "logs": [
        {
          "address": "0xbf1be81e895ddf480333e0aa7f23a17d170ce662",
          "topics": [
            "0x8faa70878671ccd212d20771b795c50af8fd3ff6cf27f4bde57e5d4de0aeb673"
          ],
          "data": "0x00000000000000000000000000000000000000000000000000000000000000600000000000000000000000000000000000000000000000000000000000000000000000000000000000000000000000000000000000000000000000000000018000000000000000000000000000000000000000000000000000000000000000010000000000000000000000000000000000000000000000000000000000000020000000000000000000000000b5b5b4df921e33fe99606e2ca3b0b29af3642e8d000000000000000000000000000000000000000000000000000000000000000100000000000000000000000000000000000000000000000000000000000000600000000000000000000000000000000000000000000000000000000000000003ef2920fc000000000000000000000000000000000000000000000000000000000a6f0ee9000000000000000000000000000000000000000000000000000000004ab4ba42000000000000000000000000000000000000000000000000000000000000000000000000000000000000000000000000000000000000000000000000",
          "blockHash": "0xe8abb822d0dad7a4dd9a8861188530df879a63552c934a7f392201dfe3e0f89b",
          "blockNumber": "0x10b21ddb",
          "blockTimestamp": "0x6a39f345",
          "transactionHash": "0x3bcb50b3d4e252d3306258ab635a6a143b3c6428a418e50d09172a5bcd832ac0",
          "transactionIndex": "0x6",
          "logIndex": "0xd",
          "removed": false
        }
      ],
      "logsBloom": "0x00000000000000000000000000000000000000000000000000000000010000000020000000000000000000000000000000000000000000000000000000000000000000000000000000000000000000000000000001000000000800000000000000000000000000000000000000000000000000000000000000000000000000000020000000000000080000000000000000000000000000000000000000000000000000000000000000000000000000000000000000000000000000000000000000000000000000000000000000000000000000000000000000000000000000000000000000000000000000000000000000000000000000000000000000000000",
      "type": "0x2",
      "transactionHash": "0x3bcb50b3d4e252d3306258ab635a6a143b3c6428a418e50d09172a5bcd832ac0",
      "transactionIndex": "0x6",
      "blockHash": "0xe8abb822d0dad7a4dd9a8861188530df879a63552c934a7f392201dfe3e0f89b",
      "blockNumber": "0x10b21ddb",
      "gasUsed": "0x13b8d",
      "effectiveGasPrice": "0x1357a90",
      "from": "0x00bcc26e792e393217ba895f5e85ae628fc994e9",
      "to": "0xbf1be81e895ddf480333e0aa7f23a17d170ce662",
      "contractAddress": null,
      "gasUsedForL1": "0x2a41",
      "l1BlockNumber": "0xa9ad88",
      "timeboosted": false
    },
    {
      "status": "0x1",
      "cumulativeGasUsed": "0x91853",
      "logs": [
        {
          "address": "0xc63cec086a031119a2570f9164b268b1bcdc790f",
          "topics": [
            "0x8faa70878671ccd212d20771b795c50af8fd3ff6cf27f4bde57e5d4de0aeb673"
          ],
          "data": "0x00000000000000000000000000000000000000000000000000000000000000600000000000000000000000000000000000000000000000000000000000000000000000000000000000000000000000000000000000000000000000000000018000000000000000000000000000000000000000000000000000000000000000010000000000000000000000000000000000000000000000000000000000000020000000000000000000000000b5b5b4df921e33fe99606e2ca3b0b29af3642e8d000000000000000000000000000000000000000000000000000000000000000100000000000000000000000000000000000000000000000000000000000000600000000000000000000000000000000000000000000000000000000000000003ef2920fc000000000000000000000000000000000000000000000000000000000a6f0ee9000000000000000000000000000000000000000000000000000000004ab4ba42000000000000000000000000000000000000000000000000000000000000000000000000000000000000000000000000000000000000000000000000",
          "blockHash": "0xf95a8d29d987a04878d08327f17101709f1796d34d63f4627b53f953a05ccd9a",
          "blockNumber": "0x10b21ddd",
          "blockTimestamp": "0x6a39f345",
          "transactionHash": "0xdf2e7e93bbd51281d1a660ecbdde0c1e4c2aad9e16c92c31188ddd342c2535d1",
          "transactionIndex": "0x3",
          "logIndex": "0xc",
          "removed": false
        }
      ],
      "logsBloom": "0x00000000000000000000000000000000000000000000000000000000000000000000000000000000000000000000000000000000000000000000000000000000000000000000000000000000000000000000000001000000000800000000000000000000000000000000000000000000000200000000000000000000000000000020000000000000000000000000000000000000000000000000000000000000000008000000000000000000000000000000000000000000000000000000000000000000000000000000000000000000000000000000000000000000000000000000000000000000000000000000000000000000000000000000000000010000",
      "type": "0x2",
      "transactionHash": "0xdf2e7e93bbd51281d1a660ecbdde0c1e4c2aad9e16c92c31188ddd342c2535d1",
      "transactionIndex": "0x3",
      "blockHash": "0xf95a8d29d987a04878d08327f17101709f1796d34d63f4627b53f953a05ccd9a",
      "blockNumber": "0x10b21ddd",
      "gasUsed": "0x13b95",
      "effectiveGasPrice": "0x131b1d0",
      "from": "0x00bcc26e792e393217ba895f5e85ae628fc994e9",
      "to": "0xc63cec086a031119a2570f9164b268b1bcdc790f",
      "contractAddress": null,
      "gasUsedForL1": "0x2a2d",
      "l1BlockNumber": "0xa9ad88",
      "timeboosted": false
    },
    {
      "status": "0x1",
      "cumulativeGasUsed": "0x2123e",
      "logs": [
        {
          "address": "0xd37fa4ad1791ac2c27b8dec1fdea5b318b9a444e",
          "topics": [
            "0x8faa70878671ccd212d20771b795c50af8fd3ff6cf27f4bde57e5d4de0aeb673"
          ],
          "data": "0x00000000000000000000000000000000000000000000000000000000000000600000000000000000000000000000000000000000000000000000000000000000000000000000000000000000000000000000000000000000000000000000018000000000000000000000000000000000000000000000000000000000000000010000000000000000000000000000000000000000000000000000000000000020000000000000000000000000b5b5b4df921e33fe99606e2ca3b0b29af3642e8d000000000000000000000000000000000000000000000000000000000000000100000000000000000000000000000000000000000000000000000000000000600000000000000000000000000000000000000000000000000000000000000003ef2920fc000000000000000000000000000000000000000000000000000000000a6f0ee9000000000000000000000000000000000000000000000000000000004ab4ba42000000000000000000000000000000000000000000000000000000000000000000000000000000000000000000000000000000000000000000000000",
          "blockHash": "0x26898834369e38e4ad51518a82b065af439424fded99a6645edb12fea548a80c",
          "blockNumber": "0x10b21de3",
          "blockTimestamp": "0x6a39f347",
          "transactionHash": "0x6a4f82a75ef23cf15a87600c03b16f7a4a7ad1a425782b81561851596d7046c9",
          "transactionIndex": "0x2",
          "logIndex": "0x1",
          "removed": false
        }
      ],
      "logsBloom": "0x00000000040000000000000000000000000000000000000000000000000000000000000000000000000000000000000000000000000000000000000000000000000000000000000000000000000000000000000001000000000800000000000000000000000000000000000000000000000000000000000000000000000000000020000000000000000000000000000000000000000000000000000000000000000000000000000000000000000000000000000000000000000000000000000080000000000000000000000008000000000000000000000000000000000000000000000000000000000000000000000000000000000000000000000000000000",
      "type": "0x2",
      "transactionHash": "0x6a4f82a75ef23cf15a87600c03b16f7a4a7ad1a425782b81561851596d7046c9",
      "transactionIndex": "0x2",
      "blockHash": "0x26898834369e38e4ad51518a82b065af439424fded99a6645edb12fea548a80c",
      "blockNumber": "0x10b21de3",
      "gasUsed": "0x13a90",
      "effectiveGasPrice": "0x132ea50",
      "from": "0x00bcc26e792e393217ba895f5e85ae628fc994e9",
      "to": "0xd37fa4ad1791ac2c27b8dec1fdea5b318b9a444e",
      "contractAddress": null,
      "gasUsedForL1": "0x2944",
      "l1BlockNumber": "0xa9ad88",
      "timeboosted": false
    },
    {
      "status": "0x1",
      "cumulativeGasUsed": "0x3235c",
      "logs": [
        {
          "address": "0xd682ff9fb3c4c28c35dfa8830280d9a1c5bbfee4",
          "topics": [
            "0x8faa70878671ccd212d20771b795c50af8fd3ff6cf27f4bde57e5d4de0aeb673"
          ],
          "data": "0x00000000000000000000000000000000000000000000000000000000000000600000000000000000000000000000000000000000000000000000000000000000000000000000000000000000000000000000000000000000000000000000018000000000000000000000000000000000000000000000000000000000000000010000000000000000000000000000000000000000000000000000000000000020000000000000000000000000b5b5b4df921e33fe99606e2ca3b0b29af3642e8d000000000000000000000000000000000000000000000000000000000000000100000000000000000000000000000000000000000000000000000000000000600000000000000000000000000000000000000000000000000000000000000003ef2920fc000000000000000000000000000000000000000000000000000000000a6f0ee9000000000000000000000000000000000000000000000000000000004ab4ba42000000000000000000000000000000000000000000000000000000000000000000000000000000000000000000000000000000000000000000000000",
          "blockHash": "0xc1e1f4325c68fc835d866f7b081a1c3f906a4795f5bb52ce4ee4cbc830d754ff",
          "blockNumber": "0x10b21de5",
          "blockTimestamp": "0x6a39f347",
          "transactionHash": "0xa55ddb27bfde1034062ef12ed1a11a51cf27a7c73bb428c4a10032bc44f8c9f8",
          "transactionIndex": "0x2",
          "logIndex": "0x0",
          "removed": false
        }
      ],
      "logsBloom": "0x00000000000000000000000000000000000000000000000000000000000000000000000000000000040000000000000000000000000000000000000000000000000000000000000000000000000000000000000001000000000800000000000000000000000000000000000000000000000000000000000000000000000000000020000000000000000000000000000020000000000000000000000000000000000000000000000000000000000000000000000000000000000000000000000000000000000000000000000000000000000000000000000000000000000000000000000000000000000000000000000000000000000000000020000000000000",
      "type": "0x2",
      "transactionHash": "0xa55ddb27bfde1034062ef12ed1a11a51cf27a7c73bb428c4a10032bc44f8c9f8",
      "transactionIndex": "0x2",
      "blockHash": "0xc1e1f4325c68fc835d866f7b081a1c3f906a4795f5bb52ce4ee4cbc830d754ff",
      "blockNumber": "0x10b21de5",
      "gasUsed": "0x13bab",
      "effectiveGasPrice": "0x13163b0",
      "from": "0x00bcc26e792e393217ba895f5e85ae628fc994e9",
      "to": "0xd682ff9fb3c4c28c35dfa8830280d9a1c5bbfee4",
      "contractAddress": null,
      "gasUsedForL1": "0x2a5f",
      "l1BlockNumber": "0xa9ad88",
      "timeboosted": false
    },
    {
      "status": "0x1",
      "cumulativeGasUsed": "0x15ed2a",
      "logs": [
        {
          "address": "0xe0280d4e1d62e298cb2f98978087f455ef0086c6",
          "topics": [
            "0x8faa70878671ccd212d20771b795c50af8fd3ff6cf27f4bde57e5d4de0aeb673"
          ],
          "data": "0x00000000000000000000000000000000000000000000000000000000000000600000000000000000000000000000000000000000000000000000000000000000000000000000000000000000000000000000000000000000000000000000018000000000000000000000000000000000000000000000000000000000000000010000000000000000000000000000000000000000000000000000000000000020000000000000000000000000b5b5b4df921e33fe99606e2ca3b0b29af3642e8d000000000000000000000000000000000000000000000000000000000000000100000000000000000000000000000000000000000000000000000000000000600000000000000000000000000000000000000000000000000000000000000003ef2920fc000000000000000000000000000000000000000000000000000000000a6f0ee9000000000000000000000000000000000000000000000000000000004ab4ba42000000000000000000000000000000000000000000000000000000000000000000000000000000000000000000000000000000000000000000000000",
          "blockHash": "0xd7fb27be582417ef06906c4fa3914a5e86275ba3487f31c9cd49d0a71db0f359",
          "blockNumber": "0x10b21de7",
          "blockTimestamp": "0x6a39f348",
          "transactionHash": "0xcb2b157ab615e2859a5242f108b09dca45116b03d87751af69dad107bf91915c",
          "transactionIndex": "0x7",
          "logIndex": "0xf",
          "removed": false
        }
      ],
      "logsBloom": "0x00000000000200000000000000000000200000000000000000000000000000000000000000000000000000000000000000000000000000000000000000000000000000000000000000000000000000000000000001000000000800000000000000000000000000000000000000000000000000000000000000000000000000000020000000000000000000000000000000000000000000000000000000000000000000000000000000000000000000000000000200000000000000000000000000000000000000000000000000000000000000000000000000000000000000000000000000000000000000000000000000000000000000000000000000000000",
      "type": "0x2",
      "transactionHash": "0xcb2b157ab615e2859a5242f108b09dca45116b03d87751af69dad107bf91915c",
      "transactionIndex": "0x7",
      "blockHash": "0xd7fb27be582417ef06906c4fa3914a5e86275ba3487f31c9cd49d0a71db0f359",
      "blockNumber": "0x10b21de7",
      "gasUsed": "0x13a43",
      "effectiveGasPrice": "0x132a400",
      "from": "0x00bcc26e792e393217ba895f5e85ae628fc994e9",
      "to": "0xe0280d4e1d62e298cb2f98978087f455ef0086c6",
      "contractAddress": null,
      "gasUsedForL1": "0x28db",
      "l1BlockNumber": "0xa9ad88",
      "timeboosted": false
    },
    {
      "status": "0x1",
      "cumulativeGasUsed": "0x3007e",
      "logs": [
        {
          "address": "0xe6dedd7a954c51ddb283b751db6970a75d067cad",
          "topics": [
            "0x8faa70878671ccd212d20771b795c50af8fd3ff6cf27f4bde57e5d4de0aeb673"
          ],
          "data": "0x00000000000000000000000000000000000000000000000000000000000000600000000000000000000000000000000000000000000000000000000000000000000000000000000000000000000000000000000000000000000000000000018000000000000000000000000000000000000000000000000000000000000000010000000000000000000000000000000000000000000000000000000000000020000000000000000000000000b5b5b4df921e33fe99606e2ca3b0b29af3642e8d000000000000000000000000000000000000000000000000000000000000000100000000000000000000000000000000000000000000000000000000000000600000000000000000000000000000000000000000000000000000000000000003ef2920fc000000000000000000000000000000000000000000000000000000000a6f0ee9000000000000000000000000000000000000000000000000000000004ab4ba42000000000000000000000000000000000000000000000000000000000000000000000000000000000000000000000000000000000000000000000000",
          "blockHash": "0xa32edd66c9f9982a91aa98b974adab69c702ae80a4612d1086b05ddd331676b1",
          "blockNumber": "0x10b21de9",
          "blockTimestamp": "0x6a39f348",
          "transactionHash": "0x0d85db3a075e83bf06fcacf64ed5dc9aae6c0344f5b424860291e6845cbfc498",
          "transactionIndex": "0x3",
          "logIndex": "0x2",
          "removed": false
        }
      ],
      "logsBloom": "0x00000000000000000000000000000000000000000000000400000000000000000000000000000000000000000000000000000000000000000000000000000000000000000000000000000000000000000000000001000000000800000000000000000000000000000000000000000000000000000000000000000000000000000020000002000000000000000000000000000000000000000000000000000000000000000000000000000000000000200000000000000000000000000000000000000000000000000000000000000000000000000000000000000000000000000000000000000000000000000000000000000000000000000000000000000000",
      "type": "0x2",
      "transactionHash": "0x0d85db3a075e83bf06fcacf64ed5dc9aae6c0344f5b424860291e6845cbfc498",
      "transactionIndex": "0x3",
      "blockHash": "0xa32edd66c9f9982a91aa98b974adab69c702ae80a4612d1086b05ddd331676b1",
      "blockNumber": "0x10b21de9",
      "gasUsed": "0x13b58",
      "effectiveGasPrice": "0x133bd40",
      "from": "0x00bcc26e792e393217ba895f5e85ae628fc994e9",
      "to": "0xe6dedd7a954c51ddb283b751db6970a75d067cad",
      "contractAddress": null,
      "gasUsedForL1": "0x2a0c",
      "l1BlockNumber": "0xa9ad88",
      "timeboosted": false
    }
  ],
  "libraries": [
    "pkg/contracts/src/CVStrategy/ConvictionsUtils.sol:ConvictionsUtils:0x36EAc4Ca8389E35D66978e94c811F959e5A158f2"
  ],
  "pending": [],
  "returns": {},
  "timestamp": 1782182728936,
  "chain": 421614,
  "commit": "ec22a8e5e"
}