{
  "transactions": [
    {
      "hash": "0x91d4ac21db64d4cd3a9af7855e27f418547219de5d967ccb31b6491e094369d0",
      "transactionType": "CALL",
      "contractName": "ERC1967Proxy",
      "contractAddress": "0x08f731ddf35411eed2293b5b3638721326246686",
      "function": null,
      "arguments": null,
      "transaction": {
        "from": "0xb05a948b5c1b057b88d381bde3a375efea87ebad",
        "to": "0x08f731ddf35411eed2293b5b3638721326246686",
        "gas": "0x44582",
        "value": "0x0",
        "input": "0x1f931c1c0000000000000000000000000000000000000000000000000000000000000060000000000000000000000000569fc4c1b71c16f1b85e9d7f1de644b3bc42ce5e000000000000000000000000000000000000000000000000000000000000044000000000000000000000000000000000000000000000000000000000000000030000000000000000000000000000000000000000000000000000000000000060000000000000000000000000000000000000000000000000000000000000018000000000000000000000000000000000000000000000000000000000000002a00000000000000000000000002c192e07ce7a1a5105855dfcbdc7ba3c3b323050000000000000000000000000000000000000000000000000000000000000000300000000000000000000000000000000000000000000000000000000000000600000000000000000000000000000000000000000000000000000000000000005d5b7cc5400000000000000000000000000000000000000000000000000000000c6cdc98000000000000000000000000000000000000000000000000000000000924e670400000000000000000000000000000000000000000000000000000000c69271ec00000000000000000000000000000000000000000000000000000000170aba0d00000000000000000000000000000000000000000000000000000000000000000000000000000000cf4e140c5f3ec0ace6ac2a00b33db38a8ebe14df000000000000000000000000000000000000000000000000000000000000000300000000000000000000000000000000000000000000000000000000000000600000000000000000000000000000000000000000000000000000000000000005814516ad00000000000000000000000000000000000000000000000000000000782aadff000000000000000000000000000000000000000000000000000000002ed04b2b000000000000000000000000000000000000000000000000000000001ddf1e23000000000000000000000000000000000000000000000000000000006453d9c40000000000000000000000000000000000000000000000000000000000000000000000000000000014fc6170800fd1135c2a4a71b25e490e3e4fcecc0000000000000000000000000000000000000000000000000000000000000003000000000000000000000000000000000000000000000000000000000000006000000000000000000000000000000000000000000000000000000000000000057d7c2a1c0000000000000000000000000000000000000000000000000000000053a3d62e00000000000000000000000000000000000000000000000000000000736dcb8b00000000000000000000000000000000000000000000000000000000e0ab98b5000000000000000000000000000000000000000000000000000000007d40af98000000000000000000000000000000000000000000000000000000000000000000000000000000000000000000000000000000000000000000000004e1c7392a00000000000000000000000000000000000000000000000000000000",
        "nonce": "0x6f6",
        "chainId": "0xaa37dc"
      },
      "additionalContracts": [],
      "isFixedGasLimit": false
    },
    {
      "hash": "0xfb48eadd9f3b31d4bfd79fa369b543934e42c9c5851b3aa868e1014ae045414d",
      "transactionType": "CALL",
      "contractName": "ERC1967Proxy",
      "contractAddress": "0x093f75d851a874e506f1830cbc99fcd652e9b520",
      "function": null,
      "arguments": null,
      "transaction": {
        "from": "0xb05a948b5c1b057b88d381bde3a375efea87ebad",
        "to": "0x093f75d851a874e506f1830cbc99fcd652e9b520",
        "gas": "0x408a3",
        "value": "0x0",
        "input": "0x1f931c1c0000000000000000000000000000000000000000000000000000000000000060000000000000000000000000569fc4c1b71c16f1b85e9d7f1de644b3bc42ce5e000000000000000000000000000000000000000000000000000000000000044000000000000000000000000000000000000000000000000000000000000000030000000000000000000000000000000000000000000000000000000000000060000000000000000000000000000000000000000000000000000000000000018000000000000000000000000000000000000000000000000000000000000002a00000000000000000000000002c192e07ce7a1a5105855dfcbdc7ba3c3b323050000000000000000000000000000000000000000000000000000000000000000300000000000000000000000000000000000000000000000000000000000000600000000000000000000000000000000000000000000000000000000000000005d5b7cc5400000000000000000000000000000000000000000000000000000000c6cdc98000000000000000000000000000000000000000000000000000000000924e670400000000000000000000000000000000000000000000000000000000c69271ec00000000000000000000000000000000000000000000000000000000170aba0d00000000000000000000000000000000000000000000000000000000000000000000000000000000cf4e140c5f3ec0ace6ac2a00b33db38a8ebe14df000000000000000000000000000000000000000000000000000000000000000300000000000000000000000000000000000000000000000000000000000000600000000000000000000000000000000000000000000000000000000000000005814516ad00000000000000000000000000000000000000000000000000000000782aadff000000000000000000000000000000000000000000000000000000002ed04b2b000000000000000000000000000000000000000000000000000000001ddf1e23000000000000000000000000000000000000000000000000000000006453d9c40000000000000000000000000000000000000000000000000000000000000000000000000000000014fc6170800fd1135c2a4a71b25e490e3e4fcecc0000000000000000000000000000000000000000000000000000000000000003000000000000000000000000000000000000000000000000000000000000006000000000000000000000000000000000000000000000000000000000000000057d7c2a1c0000000000000000000000000000000000000000000000000000000053a3d62e00000000000000000000000000000000000000000000000000000000736dcb8b00000000000000000000000000000000000000000000000000000000e0ab98b5000000000000000000000000000000000000000000000000000000007d40af98000000000000000000000000000000000000000000000000000000000000000000000000000000000000000000000000000000000000000000000004e1c7392a00000000000000000000000000000000000000000000000000000000",
        "nonce": "0x6f7",
        "chainId": "0xaa37dc"
      },
      "additionalContracts": [],
      "isFixedGasLimit": false
    },
    {
      "hash": "0xa1ed5120f01a7fa3178c0644f44c37e5b422e0398c9fecb8a7d0b0e21b499f1c",
      "transactionType": "CALL",
      "contractName": "ERC1967Proxy",
      "contractAddress": "0x280976eaecf349b054e9eef80f1f8306c8b4149c",
      "function": null,
      "arguments": null,
      "transaction": {
        "from": "0xb05a948b5c1b057b88d381bde3a375efea87ebad",
        "to": "0x280976eaecf349b054e9eef80f1f8306c8b4149c",
        "gas": "0x408a3",
        "value": "0x0",
        "input": "0x1f931c1c0000000000000000000000000000000000000000000000000000000000000060000000000000000000000000569fc4c1b71c16f1b85e9d7f1de644b3bc42ce5e000000000000000000000000000000000000000000000000000000000000044000000000000000000000000000000000000000000000000000000000000000030000000000000000000000000000000000000000000000000000000000000060000000000000000000000000000000000000000000000000000000000000018000000000000000000000000000000000000000000000000000000000000002a00000000000000000000000002c192e07ce7a1a5105855dfcbdc7ba3c3b323050000000000000000000000000000000000000000000000000000000000000000300000000000000000000000000000000000000000000000000000000000000600000000000000000000000000000000000000000000000000000000000000005d5b7cc5400000000000000000000000000000000000000000000000000000000c6cdc98000000000000000000000000000000000000000000000000000000000924e670400000000000000000000000000000000000000000000000000000000c69271ec00000000000000000000000000000000000000000000000000000000170aba0d00000000000000000000000000000000000000000000000000000000000000000000000000000000cf4e140c5f3ec0ace6ac2a00b33db38a8ebe14df000000000000000000000000000000000000000000000000000000000000000300000000000000000000000000000000000000000000000000000000000000600000000000000000000000000000000000000000000000000000000000000005814516ad00000000000000000000000000000000000000000000000000000000782aadff000000000000000000000000000000000000000000000000000000002ed04b2b000000000000000000000000000000000000000000000000000000001ddf1e23000000000000000000000000000000000000000000000000000000006453d9c40000000000000000000000000000000000000000000000000000000000000000000000000000000014fc6170800fd1135c2a4a71b25e490e3e4fcecc0000000000000000000000000000000000000000000000000000000000000003000000000000000000000000000000000000000000000000000000000000006000000000000000000000000000000000000000000000000000000000000000057d7c2a1c0000000000000000000000000000000000000000000000000000000053a3d62e00000000000000000000000000000000000000000000000000000000736dcb8b00000000000000000000000000000000000000000000000000000000e0ab98b5000000000000000000000000000000000000000000000000000000007d40af98000000000000000000000000000000000000000000000000000000000000000000000000000000000000000000000000000000000000000000000004e1c7392a00000000000000000000000000000000000000000000000000000000",
        "nonce": "0x6f8",
        "chainId": "0xaa37dc"
      },
      "additionalContracts": [],
      "isFixedGasLimit": false
    },
    {
      "hash": "0x46d683c5de31e55bbd7bfdb83a208e0062fbfd8b8084e8ad70eb8f8e81e3bfef",
      "transactionType": "CALL",
      "contractName": null,
      "contractAddress": "0x7fff1689b505146949485c0df2194dd0baacc319",
      "function": "diamondCut((address,uint8,bytes4[])[],address,bytes)",
      "arguments": [
        "[(0x2c192E07Ce7A1A5105855DfcBDC7bA3c3B323050, 3, [0xd5b7cc54, 0xc6cdc980, 0x924e6704, 0xc69271ec, 0x170aba0d]), (0xcf4E140c5F3ec0ACe6aC2a00B33db38a8eBE14DF, 3, [0x814516ad, 0x782aadff, 0x2ed04b2b, 0x1ddf1e23, 0x6453d9c4]), (0x14fC6170800fd1135c2a4A71B25e490E3E4fCEcc, 3, [0x7d7c2a1c, 0x53a3d62e, 0x736dcb8b, 0xe0ab98b5, 0x7d40af98])]",
        "0x569fC4c1B71C16F1B85E9d7F1de644b3BC42ce5E",
        "0xe1c7392a"
      ],
      "transaction": {
        "from": "0xb05a948b5c1b057b88d381bde3a375efea87ebad",
        "to": "0x7fff1689b505146949485c0df2194dd0baacc319",
        "gas": "0x408a3",
        "value": "0x0",
        "input": "0x1f931c1c0000000000000000000000000000000000000000000000000000000000000060000000000000000000000000569fc4c1b71c16f1b85e9d7f1de644b3bc42ce5e000000000000000000000000000000000000000000000000000000000000044000000000000000000000000000000000000000000000000000000000000000030000000000000000000000000000000000000000000000000000000000000060000000000000000000000000000000000000000000000000000000000000018000000000000000000000000000000000000000000000000000000000000002a00000000000000000000000002c192e07ce7a1a5105855dfcbdc7ba3c3b323050000000000000000000000000000000000000000000000000000000000000000300000000000000000000000000000000000000000000000000000000000000600000000000000000000000000000000000000000000000000000000000000005d5b7cc5400000000000000000000000000000000000000000000000000000000c6cdc98000000000000000000000000000000000000000000000000000000000924e670400000000000000000000000000000000000000000000000000000000c69271ec00000000000000000000000000000000000000000000000000000000170aba0d00000000000000000000000000000000000000000000000000000000000000000000000000000000cf4e140c5f3ec0ace6ac2a00b33db38a8ebe14df000000000000000000000000000000000000000000000000000000000000000300000000000000000000000000000000000000000000000000000000000000600000000000000000000000000000000000000000000000000000000000000005814516ad00000000000000000000000000000000000000000000000000000000782aadff000000000000000000000000000000000000000000000000000000002ed04b2b000000000000000000000000000000000000000000000000000000001ddf1e23000000000000000000000000000000000000000000000000000000006453d9c40000000000000000000000000000000000000000000000000000000000000000000000000000000014fc6170800fd1135c2a4a71b25e490e3e4fcecc0000000000000000000000000000000000000000000000000000000000000003000000000000000000000000000000000000000000000000000000000000006000000000000000000000000000000000000000000000000000000000000000057d7c2a1c0000000000000000000000000000000000000000000000000000000053a3d62e00000000000000000000000000000000000000000000000000000000736dcb8b00000000000000000000000000000000000000000000000000000000e0ab98b5000000000000000000000000000000000000000000000000000000007d40af98000000000000000000000000000000000000000000000000000000000000000000000000000000000000000000000000000000000000000000000004e1c7392a00000000000000000000000000000000000000000000000000000000",
        "nonce": "0x6f9",
        "chainId": "0xaa37dc"
      },
      "additionalContracts": [],
      "isFixedGasLimit": false
    },
    {
      "hash": "0xc8dab47f02ad9b06bdb44004cb7c015c4403d6e580f7edc42a598e558274d92d",
      "transactionType": "CALL",
      "contractName": "ERC1967Proxy",
      "contractAddress": "0xb1f46e01cce016ab1c3c8ae6d4bd77c977fa24a0",
      "function": null,
      "arguments": null,
      "transaction": {
        "from": "0xb05a948b5c1b057b88d381bde3a375efea87ebad",
        "to": "0xb1f46e01cce016ab1c3c8ae6d4bd77c977fa24a0",
        "gas": "0x408a3",
        "value": "0x0",
        "input": "0x1f931c1c0000000000000000000000000000000000000000000000000000000000000060000000000000000000000000569fc4c1b71c16f1b85e9d7f1de644b3bc42ce5e000000000000000000000000000000000000000000000000000000000000044000000000000000000000000000000000000000000000000000000000000000030000000000000000000000000000000000000000000000000000000000000060000000000000000000000000000000000000000000000000000000000000018000000000000000000000000000000000000000000000000000000000000002a00000000000000000000000002c192e07ce7a1a5105855dfcbdc7ba3c3b323050000000000000000000000000000000000000000000000000000000000000000300000000000000000000000000000000000000000000000000000000000000600000000000000000000000000000000000000000000000000000000000000005d5b7cc5400000000000000000000000000000000000000000000000000000000c6cdc98000000000000000000000000000000000000000000000000000000000924e670400000000000000000000000000000000000000000000000000000000c69271ec00000000000000000000000000000000000000000000000000000000170aba0d00000000000000000000000000000000000000000000000000000000000000000000000000000000cf4e140c5f3ec0ace6ac2a00b33db38a8ebe14df000000000000000000000000000000000000000000000000000000000000000300000000000000000000000000000000000000000000000000000000000000600000000000000000000000000000000000000000000000000000000000000005814516ad00000000000000000000000000000000000000000000000000000000782aadff000000000000000000000000000000000000000000000000000000002ed04b2b000000000000000000000000000000000000000000000000000000001ddf1e23000000000000000000000000000000000000000000000000000000006453d9c40000000000000000000000000000000000000000000000000000000000000000000000000000000014fc6170800fd1135c2a4a71b25e490e3e4fcecc0000000000000000000000000000000000000000000000000000000000000003000000000000000000000000000000000000000000000000000000000000006000000000000000000000000000000000000000000000000000000000000000057d7c2a1c0000000000000000000000000000000000000000000000000000000053a3d62e00000000000000000000000000000000000000000000000000000000736dcb8b00000000000000000000000000000000000000000000000000000000e0ab98b5000000000000000000000000000000000000000000000000000000007d40af98000000000000000000000000000000000000000000000000000000000000000000000000000000000000000000000000000000000000000000000004e1c7392a00000000000000000000000000000000000000000000000000000000",
        "nonce": "0x6fa",
        "chainId": "0xaa37dc"
      },
      "additionalContracts": [],
      "isFixedGasLimit": false
    },
    {
      "hash": "0x76fe76e0f606e202d196c99168286334953c77a96bdefeeba873df86cfc9026e",
      "transactionType": "CALL",
      "contractName": null,
      "contractAddress": "0xb9b419d9330008f60c42e8dc40a48a8f00c158dd",
      "function": "diamondCut((address,uint8,bytes4[])[],address,bytes)",
      "arguments": [
        "[(0x2c192E07Ce7A1A5105855DfcBDC7bA3c3B323050, 3, [0xd5b7cc54, 0xc6cdc980, 0x924e6704, 0xc69271ec, 0x170aba0d]), (0xcf4E140c5F3ec0ACe6aC2a00B33db38a8eBE14DF, 3, [0x814516ad, 0x782aadff, 0x2ed04b2b, 0x1ddf1e23, 0x6453d9c4]), (0x14fC6170800fd1135c2a4A71B25e490E3E4fCEcc, 3, [0x7d7c2a1c, 0x53a3d62e, 0x736dcb8b, 0xe0ab98b5, 0x7d40af98])]",
        "0x569fC4c1B71C16F1B85E9d7F1de644b3BC42ce5E",
        "0xe1c7392a"
      ],
      "transaction": {
        "from": "0xb05a948b5c1b057b88d381bde3a375efea87ebad",
        "to": "0xb9b419d9330008f60c42e8dc40a48a8f00c158dd",
        "gas": "0x408a3",
        "value": "0x0",
        "input": "0x1f931c1c0000000000000000000000000000000000000000000000000000000000000060000000000000000000000000569fc4c1b71c16f1b85e9d7f1de644b3bc42ce5e000000000000000000000000000000000000000000000000000000000000044000000000000000000000000000000000000000000000000000000000000000030000000000000000000000000000000000000000000000000000000000000060000000000000000000000000000000000000000000000000000000000000018000000000000000000000000000000000000000000000000000000000000002a00000000000000000000000002c192e07ce7a1a5105855dfcbdc7ba3c3b323050000000000000000000000000000000000000000000000000000000000000000300000000000000000000000000000000000000000000000000000000000000600000000000000000000000000000000000000000000000000000000000000005d5b7cc5400000000000000000000000000000000000000000000000000000000c6cdc98000000000000000000000000000000000000000000000000000000000924e670400000000000000000000000000000000000000000000000000000000c69271ec00000000000000000000000000000000000000000000000000000000170aba0d00000000000000000000000000000000000000000000000000000000000000000000000000000000cf4e140c5f3ec0ace6ac2a00b33db38a8ebe14df000000000000000000000000000000000000000000000000000000000000000300000000000000000000000000000000000000000000000000000000000000600000000000000000000000000000000000000000000000000000000000000005814516ad00000000000000000000000000000000000000000000000000000000782aadff000000000000000000000000000000000000000000000000000000002ed04b2b000000000000000000000000000000000000000000000000000000001ddf1e23000000000000000000000000000000000000000000000000000000006453d9c40000000000000000000000000000000000000000000000000000000000000000000000000000000014fc6170800fd1135c2a4a71b25e490e3e4fcecc0000000000000000000000000000000000000000000000000000000000000003000000000000000000000000000000000000000000000000000000000000006000000000000000000000000000000000000000000000000000000000000000057d7c2a1c0000000000000000000000000000000000000000000000000000000053a3d62e00000000000000000000000000000000000000000000000000000000736dcb8b00000000000000000000000000000000000000000000000000000000e0ab98b5000000000000000000000000000000000000000000000000000000007d40af98000000000000000000000000000000000000000000000000000000000000000000000000000000000000000000000000000000000000000000000004e1c7392a00000000000000000000000000000000000000000000000000000000",
        "nonce": "0x6fb",
        "chainId": "0xaa37dc"
      },
      "additionalContracts": [],
      "isFixedGasLimit": false
    },
    {
      "hash": "0x7963da2691e47a72a3274fbb6fa37dd41c975c9a083e5fbeac1c24aa7d04686f",
      "transactionType": "CALL",
      "contractName": "ERC1967Proxy",
      "contractAddress": "0xc30ab02b25ca2667dd0efa1deb269c0f568c6147",
      "function": null,
      "arguments": null,
      "transaction": {
        "from": "0xb05a948b5c1b057b88d381bde3a375efea87ebad",
        "to": "0xc30ab02b25ca2667dd0efa1deb269c0f568c6147",
        "gas": "0x408a3",
        "value": "0x0",
        "input": "0x1f931c1c0000000000000000000000000000000000000000000000000000000000000060000000000000000000000000569fc4c1b71c16f1b85e9d7f1de644b3bc42ce5e000000000000000000000000000000000000000000000000000000000000044000000000000000000000000000000000000000000000000000000000000000030000000000000000000000000000000000000000000000000000000000000060000000000000000000000000000000000000000000000000000000000000018000000000000000000000000000000000000000000000000000000000000002a00000000000000000000000002c192e07ce7a1a5105855dfcbdc7ba3c3b323050000000000000000000000000000000000000000000000000000000000000000300000000000000000000000000000000000000000000000000000000000000600000000000000000000000000000000000000000000000000000000000000005d5b7cc5400000000000000000000000000000000000000000000000000000000c6cdc98000000000000000000000000000000000000000000000000000000000924e670400000000000000000000000000000000000000000000000000000000c69271ec00000000000000000000000000000000000000000000000000000000170aba0d00000000000000000000000000000000000000000000000000000000000000000000000000000000cf4e140c5f3ec0ace6ac2a00b33db38a8ebe14df000000000000000000000000000000000000000000000000000000000000000300000000000000000000000000000000000000000000000000000000000000600000000000000000000000000000000000000000000000000000000000000005814516ad00000000000000000000000000000000000000000000000000000000782aadff000000000000000000000000000000000000000000000000000000002ed04b2b000000000000000000000000000000000000000000000000000000001ddf1e23000000000000000000000000000000000000000000000000000000006453d9c40000000000000000000000000000000000000000000000000000000000000000000000000000000014fc6170800fd1135c2a4a71b25e490e3e4fcecc0000000000000000000000000000000000000000000000000000000000000003000000000000000000000000000000000000000000000000000000000000006000000000000000000000000000000000000000000000000000000000000000057d7c2a1c0000000000000000000000000000000000000000000000000000000053a3d62e00000000000000000000000000000000000000000000000000000000736dcb8b00000000000000000000000000000000000000000000000000000000e0ab98b5000000000000000000000000000000000000000000000000000000007d40af98000000000000000000000000000000000000000000000000000000000000000000000000000000000000000000000000000000000000000000000004e1c7392a00000000000000000000000000000000000000000000000000000000",
        "nonce": "0x6fc",
        "chainId": "0xaa37dc"
      },
      "additionalContracts": [],
      "isFixedGasLimit": false
    },
    {
      "hash": "0x44ab6657fedfa6fbf57e8d74a239b3910f46dfa8b63b49ad8e8ad3494ed247a7",
      "transactionType": "CALL",
      "contractName": null,
      "contractAddress": "0xd880e7d2af2bab5709c3a48b740fb2ecea563bf0",
      "function": "diamondCut((address,uint8,bytes4[])[],address,bytes)",
      "arguments": [
        "[(0x2c192E07Ce7A1A5105855DfcBDC7bA3c3B323050, 3, [0xd5b7cc54, 0xc6cdc980, 0x924e6704, 0xc69271ec, 0x170aba0d]), (0xcf4E140c5F3ec0ACe6aC2a00B33db38a8eBE14DF, 3, [0x814516ad, 0x782aadff, 0x2ed04b2b, 0x1ddf1e23, 0x6453d9c4]), (0x14fC6170800fd1135c2a4A71B25e490E3E4fCEcc, 3, [0x7d7c2a1c, 0x53a3d62e, 0x736dcb8b, 0xe0ab98b5, 0x7d40af98])]",
        "0x569fC4c1B71C16F1B85E9d7F1de644b3BC42ce5E",
        "0xe1c7392a"
      ],
      "transaction": {
        "from": "0xb05a948b5c1b057b88d381bde3a375efea87ebad",
        "to": "0xd880e7d2af2bab5709c3a48b740fb2ecea563bf0",
        "gas": "0x408a3",
        "value": "0x0",
        "input": "0x1f931c1c0000000000000000000000000000000000000000000000000000000000000060000000000000000000000000569fc4c1b71c16f1b85e9d7f1de644b3bc42ce5e000000000000000000000000000000000000000000000000000000000000044000000000000000000000000000000000000000000000000000000000000000030000000000000000000000000000000000000000000000000000000000000060000000000000000000000000000000000000000000000000000000000000018000000000000000000000000000000000000000000000000000000000000002a00000000000000000000000002c192e07ce7a1a5105855dfcbdc7ba3c3b323050000000000000000000000000000000000000000000000000000000000000000300000000000000000000000000000000000000000000000000000000000000600000000000000000000000000000000000000000000000000000000000000005d5b7cc5400000000000000000000000000000000000000000000000000000000c6cdc98000000000000000000000000000000000000000000000000000000000924e670400000000000000000000000000000000000000000000000000000000c69271ec00000000000000000000000000000000000000000000000000000000170aba0d00000000000000000000000000000000000000000000000000000000000000000000000000000000cf4e140c5f3ec0ace6ac2a00b33db38a8ebe14df000000000000000000000000000000000000000000000000000000000000000300000000000000000000000000000000000000000000000000000000000000600000000000000000000000000000000000000000000000000000000000000005814516ad00000000000000000000000000000000000000000000000000000000782aadff000000000000000000000000000000000000000000000000000000002ed04b2b000000000000000000000000000000000000000000000000000000001ddf1e23000000000000000000000000000000000000000000000000000000006453d9c40000000000000000000000000000000000000000000000000000000000000000000000000000000014fc6170800fd1135c2a4a71b25e490e3e4fcecc0000000000000000000000000000000000000000000000000000000000000003000000000000000000000000000000000000000000000000000000000000006000000000000000000000000000000000000000000000000000000000000000057d7c2a1c0000000000000000000000000000000000000000000000000000000053a3d62e00000000000000000000000000000000000000000000000000000000736dcb8b00000000000000000000000000000000000000000000000000000000e0ab98b5000000000000000000000000000000000000000000000000000000007d40af98000000000000000000000000000000000000000000000000000000000000000000000000000000000000000000000000000000000000000000000004e1c7392a00000000000000000000000000000000000000000000000000000000",
        "nonce": "0x6fd",
        "chainId": "0xaa37dc"
      },
      "additionalContracts": [],
      "isFixedGasLimit": false
    },
    {
      "hash": "0xd936fd6681076c22b8b07d09b0d9538d8adec386ad0e7510f51b9f5217c4d338",
      "transactionType": "CALL",
      "contractName": "ERC1967Proxy",
      "contractAddress": "0xec8824e9a9498520891ec678e98c5bd3e65229c2",
      "function": null,
      "arguments": null,
      "transaction": {
        "from": "0xb05a948b5c1b057b88d381bde3a375efea87ebad",
        "to": "0xec8824e9a9498520891ec678e98c5bd3e65229c2",
        "gas": "0xfd5b",
        "value": "0x0",
        "input": "0x1b71f0e4000000000000000000000000f6cf6c58822a423372db53b0381cce74ddaaf763",
        "nonce": "0x6fe",
        "chainId": "0xaa37dc"
      },
      "additionalContracts": [],
      "isFixedGasLimit": false
    },
    {
      "hash": "0x2b8134b02b9ad1de6101e45471b82e53e5c36f0efa4ae6723187711942e58626",
      "transactionType": "CALL",
      "contractName": "ERC1967Proxy",
      "contractAddress": "0xec8824e9a9498520891ec678e98c5bd3e65229c2",
      "function": null,
      "arguments": null,
      "transaction": {
        "from": "0xb05a948b5c1b057b88d381bde3a375efea87ebad",
        "to": "0xec8824e9a9498520891ec678e98c5bd3e65229c2",
        "gas": "0x503f2",
        "value": "0x0",
        "input": "0xa6a85d880000000000000000000000000000000000000000000000000000000000000060000000000000000000000000569fc4c1b71c16f1b85e9d7f1de644b3bc42ce5e0000000000000000000000000000000000000000000000000000000000000ba00000000000000000000000000000000000000000000000000000000000000009000000000000000000000000000000000000000000000000000000000000012000000000000000000000000000000000000000000000000000000000000002400000000000000000000000000000000000000000000000000000000000000360000000000000000000000000000000000000000000000000000000000000044000000000000000000000000000000000000000000000000000000000000005000000000000000000000000000000000000000000000000000000000000000700000000000000000000000000000000000000000000000000000000000000082000000000000000000000000000000000000000000000000000000000000009000000000000000000000000000000000000000000000000000000000000000a00000000000000000000000000efe2fd44fb9d974e3cddfd00d362f09d60ad91da0000000000000000000000000000000000000000000000000000000000000003000000000000000000000000000000000000000000000000000000000000006000000000000000000000000000000000000000000000000000000000000000057a0ed62700000000000000000000000000000000000000000000000000000000adfca15e0000000000000000000000000000000000000000000000000000000052ef6b2c00000000000000000000000000000000000000000000000000000000cdffacc60000000000000000000000000000000000000000000000000000000001ffc9a7000000000000000000000000000000000000000000000000000000000000000000000000000000002c192e07ce7a1a5105855dfcbdc7ba3c3b323050000000000000000000000000000000000000000000000000000000000000000300000000000000000000000000000000000000000000000000000000000000600000000000000000000000000000000000000000000000000000000000000005d5b7cc5400000000000000000000000000000000000000000000000000000000c6cdc98000000000000000000000000000000000000000000000000000000000924e670400000000000000000000000000000000000000000000000000000000c69271ec00000000000000000000000000000000000000000000000000000000170aba0d0000000000000000000000000000000000000000000000000000000000000000000000000000000049aed03293770b7f4820a423a6d2a1c5f14588f4000000000000000000000000000000000000000000000000000000000000000300000000000000000000000000000000000000000000000000000000000000600000000000000000000000000000000000000000000000000000000000000003ef2920fc000000000000000000000000000000000000000000000000000000000a6f0ee9000000000000000000000000000000000000000000000000000000004ab4ba4200000000000000000000000000000000000000000000000000000000000000000000000000000000aef397243f375f578327c6ebb7f58a29c1217bf7000000000000000000000000000000000000000000000000000000000000000300000000000000000000000000000000000000000000000000000000000000600000000000000000000000000000000000000000000000000000000000000002b41596ec00000000000000000000000000000000000000000000000000000000311a6c56000000000000000000000000000000000000000000000000000000000000000000000000000000004fda6b8e4430a80f8cabcc319511daf59643586f00000000000000000000000000000000000000000000000000000000000000030000000000000000000000000000000000000000000000000000000000000060000000000000000000000000000000000000000000000000000000000000000c1add1a0d00000000000000000000000000000000000000000000000000000000222a3a0400000000000000000000000000000000000000000000000000000000adaf157b0000000000000000000000000000000000000000000000000000000060b4778900000000000000000000000000000000000000000000000000000000136439dd0000000000000000000000000000000000000000000000000000000080c4a65f000000000000000000000000000000000000000000000000000000003f4ba83a00000000000000000000000000000000000000000000000000000000bac1e94b00000000000000000000000000000000000000000000000000000000b187bd260000000000000000000000000000000000000000000000000000000009b65e6600000000000000000000000000000000000000000000000000000000da748b10000000000000000000000000000000000000000000000000000000002d2ebbef00000000000000000000000000000000000000000000000000000000000000000000000000000000cf4e140c5f3ec0ace6ac2a00b33db38a8ebe14df000000000000000000000000000000000000000000000000000000000000000300000000000000000000000000000000000000000000000000000000000000600000000000000000000000000000000000000000000000000000000000000005814516ad00000000000000000000000000000000000000000000000000000000782aadff000000000000000000000000000000000000000000000000000000002ed04b2b000000000000000000000000000000000000000000000000000000001ddf1e23000000000000000000000000000000000000000000000000000000006453d9c400000000000000000000000000000000000000000000000000000000000000000000000000000000aa34a13daa41c88e075aeee91480b8d9be43e4d10000000000000000000000000000000000000000000000000000000000000003000000000000000000000000000000000000000000000000000000000000006000000000000000000000000000000000000000000000000000000000000000032bbe0cae00000000000000000000000000000000000000000000000000000000e0a8f6f500000000000000000000000000000000000000000000000000000000141e3b3800000000000000000000000000000000000000000000000000000000000000000000000000000000b4635b74dc2d7fab3af1f40073d43e636f51bc7a0000000000000000000000000000000000000000000000000000000000000003000000000000000000000000000000000000000000000000000000000000006000000000000000000000000000000000000000000000000000000000000000043eadbd0f0000000000000000000000000000000000000000000000000000000001cf0869000000000000000000000000000000000000000000000000000000009f00879c00000000000000000000000000000000000000000000000000000000c5aab6ed0000000000000000000000000000000000000000000000000000000000000000000000000000000014fc6170800fd1135c2a4a71b25e490e3e4fcecc0000000000000000000000000000000000000000000000000000000000000003000000000000000000000000000000000000000000000000000000000000006000000000000000000000000000000000000000000000000000000000000000057d7c2a1c0000000000000000000000000000000000000000000000000000000053a3d62e00000000000000000000000000000000000000000000000000000000736dcb8b00000000000000000000000000000000000000000000000000000000e0ab98b5000000000000000000000000000000000000000000000000000000007d40af98000000000000000000000000000000000000000000000000000000000000000000000000000000000000000000000000000000000000000000000004e1c7392a00000000000000000000000000000000000000000000000000000000",
        "nonce": "0x6ff",
        "chainId": "0xaa37dc"
      },
      "additionalContracts": [],
      "isFixedGasLimit": false
    }
  ],
  "receipts": [
    {
      "status": "0x1",
      "cumulativeGasUsed": "0x3a031",
      "logs": [
        {
          "address": "0x08f731ddf35411eed2293b5b3638721326246686",
          "topics": [
            "0x8faa70878671ccd212d20771b795c50af8fd3ff6cf27f4bde57e5d4de0aeb673"
          ],
          "data": "0x0000000000000000000000000000000000000000000000000000000000000060000000000000000000000000569fc4c1b71c16f1b85e9d7f1de644b3bc42ce5e000000000000000000000000000000000000000000000000000000000000044000000000000000000000000000000000000000000000000000000000000000030000000000000000000000000000000000000000000000000000000000000060000000000000000000000000000000000000000000000000000000000000018000000000000000000000000000000000000000000000000000000000000002a00000000000000000000000002c192e07ce7a1a5105855dfcbdc7ba3c3b323050000000000000000000000000000000000000000000000000000000000000000300000000000000000000000000000000000000000000000000000000000000600000000000000000000000000000000000000000000000000000000000000005d5b7cc5400000000000000000000000000000000000000000000000000000000c6cdc98000000000000000000000000000000000000000000000000000000000924e670400000000000000000000000000000000000000000000000000000000c69271ec00000000000000000000000000000000000000000000000000000000170aba0d00000000000000000000000000000000000000000000000000000000000000000000000000000000cf4e140c5f3ec0ace6ac2a00b33db38a8ebe14df000000000000000000000000000000000000000000000000000000000000000300000000000000000000000000000000000000000000000000000000000000600000000000000000000000000000000000000000000000000000000000000005814516ad00000000000000000000000000000000000000000000000000000000782aadff000000000000000000000000000000000000000000000000000000002ed04b2b000000000000000000000000000000000000000000000000000000001ddf1e23000000000000000000000000000000000000000000000000000000006453d9c40000000000000000000000000000000000000000000000000000000000000000000000000000000014fc6170800fd1135c2a4a71b25e490e3e4fcecc0000000000000000000000000000000000000000000000000000000000000003000000000000000000000000000000000000000000000000000000000000006000000000000000000000000000000000000000000000000000000000000000057d7c2a1c0000000000000000000000000000000000000000000000000000000053a3d62e00000000000000000000000000000000000000000000000000000000736dcb8b00000000000000000000000000000000000000000000000000000000e0ab98b5000000000000000000000000000000000000000000000000000000007d40af98000000000000000000000000000000000000000000000000000000000000000000000000000000000000000000000000000000000000000000000004e1c7392a00000000000000000000000000000000000000000000000000000000",
          "blockHash": "0xdbed7180bc47d5381f842d8fae98cba25b43b60129726883218ed258ec056969",
          "blockNumber": "0x2a2c34c",
          "blockTimestamp": "0x6a1c6244",
          "transactionHash": "0x91d4ac21db64d4cd3a9af7855e27f418547219de5d967ccb31b6491e094369d0",
          "transactionIndex": "0x1",
          "logIndex": "0x0",
          "removed": false
        }
      ],
      "logsBloom": "0x00000000000000000000000000000000000000000000000000000000000000000400000000000000000000000000000000000000000000000000000000000000000000020000000000000000000000000000000001000000000804000000000000000000000000000000000000000000000000000000000000000000000000000020000000000000000000000000000000000000000000000000000000000000000000000000000000000000000000000000000000000000000000000000000000000000000000000000000000000000000000000000000000000000000000000000000000000000000000000000000000000000000000000000000000000000",
      "type": "0x2",
      "transactionHash": "0x91d4ac21db64d4cd3a9af7855e27f418547219de5d967ccb31b6491e094369d0",
      "transactionIndex": "0x1",
      "blockHash": "0xdbed7180bc47d5381f842d8fae98cba25b43b60129726883218ed258ec056969",
      "blockNumber": "0x2a2c34c",
      "gasUsed": "0x2ebb3",
      "effectiveGasPrice": "0xf433a",
      "blobGasUsed": "0x20850",
      "from": "0xb05a948b5c1b057b88d381bde3a375efea87ebad",
      "to": "0x08f731ddf35411eed2293b5b3638721326246686",
      "contractAddress": null,
      "daFootprintGasScalar": "0x190",
      "l1BaseFeeScalar": "0x1db0",
      "l1BlobBaseFee": "0x5190b53",
      "l1BlobBaseFeeScalar": "0xd2730",
      "l1Fee": "0x134f46538c",
      "l1GasPrice": "0x55a22307",
      "l1GasUsed": "0x14dd"
    },
    {
      "status": "0x1",
      "cumulativeGasUsed": "0x68bce",
      "logs": [
        {
          "address": "0x093f75d851a874e506f1830cbc99fcd652e9b520",
          "topics": [
            "0x8faa70878671ccd212d20771b795c50af8fd3ff6cf27f4bde57e5d4de0aeb673"
          ],
          "data": "0x0000000000000000000000000000000000000000000000000000000000000060000000000000000000000000569fc4c1b71c16f1b85e9d7f1de644b3bc42ce5e000000000000000000000000000000000000000000000000000000000000044000000000000000000000000000000000000000000000000000000000000000030000000000000000000000000000000000000000000000000000000000000060000000000000000000000000000000000000000000000000000000000000018000000000000000000000000000000000000000000000000000000000000002a00000000000000000000000002c192e07ce7a1a5105855dfcbdc7ba3c3b323050000000000000000000000000000000000000000000000000000000000000000300000000000000000000000000000000000000000000000000000000000000600000000000000000000000000000000000000000000000000000000000000005d5b7cc5400000000000000000000000000000000000000000000000000000000c6cdc98000000000000000000000000000000000000000000000000000000000924e670400000000000000000000000000000000000000000000000000000000c69271ec00000000000000000000000000000000000000000000000000000000170aba0d00000000000000000000000000000000000000000000000000000000000000000000000000000000cf4e140c5f3ec0ace6ac2a00b33db38a8ebe14df000000000000000000000000000000000000000000000000000000000000000300000000000000000000000000000000000000000000000000000000000000600000000000000000000000000000000000000000000000000000000000000005814516ad00000000000000000000000000000000000000000000000000000000782aadff000000000000000000000000000000000000000000000000000000002ed04b2b000000000000000000000000000000000000000000000000000000001ddf1e23000000000000000000000000000000000000000000000000000000006453d9c40000000000000000000000000000000000000000000000000000000000000000000000000000000014fc6170800fd1135c2a4a71b25e490e3e4fcecc0000000000000000000000000000000000000000000000000000000000000003000000000000000000000000000000000000000000000000000000000000006000000000000000000000000000000000000000000000000000000000000000057d7c2a1c0000000000000000000000000000000000000000000000000000000053a3d62e00000000000000000000000000000000000000000000000000000000736dcb8b00000000000000000000000000000000000000000000000000000000e0ab98b5000000000000000000000000000000000000000000000000000000007d40af98000000000000000000000000000000000000000000000000000000000000000000000000000000000000000000000000000000000000000000000004e1c7392a00000000000000000000000000000000000000000000000000000000",
          "blockHash": "0xdbed7180bc47d5381f842d8fae98cba25b43b60129726883218ed258ec056969",
          "blockNumber": "0x2a2c34c",
          "blockTimestamp": "0x6a1c6244",
          "transactionHash": "0xa1ed5120f01a7fa3178c0644f44c37e5b422e0398c9fecb8a7d0b0e21b499f1c",
          "transactionIndex": "0x2",
          "logIndex": "0x1",
          "removed": false
        }
      ],
      "logsBloom": "0x00000000000000000000000000000000000000000000000000000000000000000000000000000000000000000000000000000000000000000000000000000200000000000000000000000000000000000000000001000000000800000000000000000000000000000000000000000000000000000000000000000000000000000020000000000000000000000000000000000000000000000000000000000000000000010000000000000000000000000000000000000000000000000000000000000000000000000000000000002000000000000000000000000000000000000000000000000000000000000000000000000000000000000000000000000000",
      "type": "0x2",
      "transactionHash": "0xa1ed5120f01a7fa3178c0644f44c37e5b422e0398c9fecb8a7d0b0e21b499f1c",
      "transactionIndex": "0x2",
      "blockHash": "0xdbed7180bc47d5381f842d8fae98cba25b43b60129726883218ed258ec056969",
      "blockNumber": "0x2a2c34c",
      "gasUsed": "0x2eb9d",
      "effectiveGasPrice": "0xf433a",
      "blobGasUsed": "0x20850",
      "from": "0xb05a948b5c1b057b88d381bde3a375efea87ebad",
      "to": "0x093f75d851a874e506f1830cbc99fcd652e9b520",
      "contractAddress": null,
      "daFootprintGasScalar": "0x190",
      "l1BaseFeeScalar": "0x1db0",
      "l1BlobBaseFee": "0x5190b53",
      "l1BlobBaseFeeScalar": "0xd2730",
      "l1Fee": "0x134f46538c",
      "l1GasPrice": "0x55a22307",
      "l1GasUsed": "0x14dd"
    },
    {
      "status": "0x1",
      "cumulativeGasUsed": "0x9776b",
      "logs": [
        {
          "address": "0x280976eaecf349b054e9eef80f1f8306c8b4149c",
          "topics": [
            "0x8faa70878671ccd212d20771b795c50af8fd3ff6cf27f4bde57e5d4de0aeb673"
          ],
          "data": "0x0000000000000000000000000000000000000000000000000000000000000060000000000000000000000000569fc4c1b71c16f1b85e9d7f1de644b3bc42ce5e000000000000000000000000000000000000000000000000000000000000044000000000000000000000000000000000000000000000000000000000000000030000000000000000000000000000000000000000000000000000000000000060000000000000000000000000000000000000000000000000000000000000018000000000000000000000000000000000000000000000000000000000000002a00000000000000000000000002c192e07ce7a1a5105855dfcbdc7ba3c3b323050000000000000000000000000000000000000000000000000000000000000000300000000000000000000000000000000000000000000000000000000000000600000000000000000000000000000000000000000000000000000000000000005d5b7cc5400000000000000000000000000000000000000000000000000000000c6cdc98000000000000000000000000000000000000000000000000000000000924e670400000000000000000000000000000000000000000000000000000000c69271ec00000000000000000000000000000000000000000000000000000000170aba0d00000000000000000000000000000000000000000000000000000000000000000000000000000000cf4e140c5f3ec0ace6ac2a00b33db38a8ebe14df000000000000000000000000000000000000000000000000000000000000000300000000000000000000000000000000000000000000000000000000000000600000000000000000000000000000000000000000000000000000000000000005814516ad00000000000000000000000000000000000000000000000000000000782aadff000000000000000000000000000000000000000000000000000000002ed04b2b000000000000000000000000000000000000000000000000000000001ddf1e23000000000000000000000000000000000000000000000000000000006453d9c40000000000000000000000000000000000000000000000000000000000000000000000000000000014fc6170800fd1135c2a4a71b25e490e3e4fcecc0000000000000000000000000000000000000000000000000000000000000003000000000000000000000000000000000000000000000000000000000000006000000000000000000000000000000000000000000000000000000000000000057d7c2a1c0000000000000000000000000000000000000000000000000000000053a3d62e00000000000000000000000000000000000000000000000000000000736dcb8b00000000000000000000000000000000000000000000000000000000e0ab98b5000000000000000000000000000000000000000000000000000000007d40af98000000000000000000000000000000000000000000000000000000000000000000000000000000000000000000000000000000000000000000000004e1c7392a00000000000000000000000000000000000000000000000000000000",
          "blockHash": "0xdbed7180bc47d5381f842d8fae98cba25b43b60129726883218ed258ec056969",
          "blockNumber": "0x2a2c34c",
          "blockTimestamp": "0x6a1c6244",
          "transactionHash": "0xc8dab47f02ad9b06bdb44004cb7c015c4403d6e580f7edc42a598e558274d92d",
          "transactionIndex": "0x3",
          "logIndex": "0x2",
          "removed": false
        }
      ],
      "logsBloom": "0x00000000000000000000000100000000000000000000000000000000000000000000000000000000000000000000000000000000000000000000000000000000000000000000000000000000000000000000000001000000000800000000000000000000000000000000000000000000000000000000000000000000000000000020000000000000000000000000000000000200000000000000000000000000000000000000000000000000000000000000000000000000000000000000000000000000000000000000000000000000000000000000008000000000000000000000000000000000000000000000000000000000000000000000000000000000",
      "type": "0x2",
      "transactionHash": "0xc8dab47f02ad9b06bdb44004cb7c015c4403d6e580f7edc42a598e558274d92d",
      "transactionIndex": "0x3",
      "blockHash": "0xdbed7180bc47d5381f842d8fae98cba25b43b60129726883218ed258ec056969",
      "blockNumber": "0x2a2c34c",
      "gasUsed": "0x2eb9d",
      "effectiveGasPrice": "0xf433a",
      "blobGasUsed": "0x20850",
      "from": "0xb05a948b5c1b057b88d381bde3a375efea87ebad",
      "to": "0x280976eaecf349b054e9eef80f1f8306c8b4149c",
      "contractAddress": null,
      "daFootprintGasScalar": "0x190",
      "l1BaseFeeScalar": "0x1db0",
      "l1BlobBaseFee": "0x5190b53",
      "l1BlobBaseFeeScalar": "0xd2730",
      "l1Fee": "0x134f46538c",
      "l1GasPrice": "0x55a22307",
      "l1GasUsed": "0x14dd"
    },
    {
      "status": "0x1",
      "cumulativeGasUsed": "0xc6308",
      "logs": [
        {
          "address": "0x7fff1689b505146949485c0df2194dd0baacc319",
          "topics": [
            "0x8faa70878671ccd212d20771b795c50af8fd3ff6cf27f4bde57e5d4de0aeb673"
          ],
          "data": "0x0000000000000000000000000000000000000000000000000000000000000060000000000000000000000000569fc4c1b71c16f1b85e9d7f1de644b3bc42ce5e000000000000000000000000000000000000000000000000000000000000044000000000000000000000000000000000000000000000000000000000000000030000000000000000000000000000000000000000000000000000000000000060000000000000000000000000000000000000000000000000000000000000018000000000000000000000000000000000000000000000000000000000000002a00000000000000000000000002c192e07ce7a1a5105855dfcbdc7ba3c3b323050000000000000000000000000000000000000000000000000000000000000000300000000000000000000000000000000000000000000000000000000000000600000000000000000000000000000000000000000000000000000000000000005d5b7cc5400000000000000000000000000000000000000000000000000000000c6cdc98000000000000000000000000000000000000000000000000000000000924e670400000000000000000000000000000000000000000000000000000000c69271ec00000000000000000000000000000000000000000000000000000000170aba0d00000000000000000000000000000000000000000000000000000000000000000000000000000000cf4e140c5f3ec0ace6ac2a00b33db38a8ebe14df000000000000000000000000000000000000000000000000000000000000000300000000000000000000000000000000000000000000000000000000000000600000000000000000000000000000000000000000000000000000000000000005814516ad00000000000000000000000000000000000000000000000000000000782aadff000000000000000000000000000000000000000000000000000000002ed04b2b000000000000000000000000000000000000000000000000000000001ddf1e23000000000000000000000000000000000000000000000000000000006453d9c40000000000000000000000000000000000000000000000000000000000000000000000000000000014fc6170800fd1135c2a4a71b25e490e3e4fcecc0000000000000000000000000000000000000000000000000000000000000003000000000000000000000000000000000000000000000000000000000000006000000000000000000000000000000000000000000000000000000000000000057d7c2a1c0000000000000000000000000000000000000000000000000000000053a3d62e00000000000000000000000000000000000000000000000000000000736dcb8b00000000000000000000000000000000000000000000000000000000e0ab98b5000000000000000000000000000000000000000000000000000000007d40af98000000000000000000000000000000000000000000000000000000000000000000000000000000000000000000000000000000000000000000000004e1c7392a00000000000000000000000000000000000000000000000000000000",
          "blockHash": "0xdbed7180bc47d5381f842d8fae98cba25b43b60129726883218ed258ec056969",
          "blockNumber": "0x2a2c34c",
          "blockTimestamp": "0x6a1c6244",
          "transactionHash": "0x46d683c5de31e55bbd7bfdb83a208e0062fbfd8b8084e8ad70eb8f8e81e3bfef",
          "transactionIndex": "0x4",
          "logIndex": "0x3",
          "removed": false
        }
      ],
      "logsBloom": "0x00000000000000000000000000000000000000000000000000000000000000000000000000000000000000000000000000000000000000000000000000000000000000000000000000000000000000000000000001000000000800000000008000000000000000000000000000000000000000000000000000000000000000000020000000000000000000000000000000000000000000000000000400000000000000000000000000000000000000000000000020000000000000000000000000000000000000000000000000000000000000000000000000000000000000000000000000000000000000000000000000000000000000000000000000000000",
      "type": "0x2",
      "transactionHash": "0x46d683c5de31e55bbd7bfdb83a208e0062fbfd8b8084e8ad70eb8f8e81e3bfef",
      "transactionIndex": "0x4",
      "blockHash": "0xdbed7180bc47d5381f842d8fae98cba25b43b60129726883218ed258ec056969",
      "blockNumber": "0x2a2c34c",
      "gasUsed": "0x2eb9d",
      "effectiveGasPrice": "0xf433a",
      "blobGasUsed": "0x20850",
      "from": "0xb05a948b5c1b057b88d381bde3a375efea87ebad",
      "to": "0x7fff1689b505146949485c0df2194dd0baacc319",
      "contractAddress": null,
      "daFootprintGasScalar": "0x190",
      "l1BaseFeeScalar": "0x1db0",
      "l1BlobBaseFee": "0x5190b53",
      "l1BlobBaseFeeScalar": "0xd2730",
      "l1Fee": "0x134f46538c",
      "l1GasPrice": "0x55a22307",
      "l1GasUsed": "0x14dd"
    },
    {
      "status": "0x1",
      "cumulativeGasUsed": "0xf4ea5",
      "logs": [
        {
          "address": "0xb1f46e01cce016ab1c3c8ae6d4bd77c977fa24a0",
          "topics": [
            "0x8faa70878671ccd212d20771b795c50af8fd3ff6cf27f4bde57e5d4de0aeb673"
          ],
          "data": "0x0000000000000000000000000000000000000000000000000000000000000060000000000000000000000000569fc4c1b71c16f1b85e9d7f1de644b3bc42ce5e000000000000000000000000000000000000000000000000000000000000044000000000000000000000000000000000000000000000000000000000000000030000000000000000000000000000000000000000000000000000000000000060000000000000000000000000000000000000000000000000000000000000018000000000000000000000000000000000000000000000000000000000000002a00000000000000000000000002c192e07ce7a1a5105855dfcbdc7ba3c3b323050000000000000000000000000000000000000000000000000000000000000000300000000000000000000000000000000000000000000000000000000000000600000000000000000000000000000000000000000000000000000000000000005d5b7cc5400000000000000000000000000000000000000000000000000000000c6cdc98000000000000000000000000000000000000000000000000000000000924e670400000000000000000000000000000000000000000000000000000000c69271ec00000000000000000000000000000000000000000000000000000000170aba0d00000000000000000000000000000000000000000000000000000000000000000000000000000000cf4e140c5f3ec0ace6ac2a00b33db38a8ebe14df000000000000000000000000000000000000000000000000000000000000000300000000000000000000000000000000000000000000000000000000000000600000000000000000000000000000000000000000000000000000000000000005814516ad00000000000000000000000000000000000000000000000000000000782aadff000000000000000000000000000000000000000000000000000000002ed04b2b000000000000000000000000000000000000000000000000000000001ddf1e23000000000000000000000000000000000000000000000000000000006453d9c40000000000000000000000000000000000000000000000000000000000000000000000000000000014fc6170800fd1135c2a4a71b25e490e3e4fcecc0000000000000000000000000000000000000000000000000000000000000003000000000000000000000000000000000000000000000000000000000000006000000000000000000000000000000000000000000000000000000000000000057d7c2a1c0000000000000000000000000000000000000000000000000000000053a3d62e00000000000000000000000000000000000000000000000000000000736dcb8b00000000000000000000000000000000000000000000000000000000e0ab98b5000000000000000000000000000000000000000000000000000000007d40af98000000000000000000000000000000000000000000000000000000000000000000000000000000000000000000000000000000000000000000000004e1c7392a00000000000000000000000000000000000000000000000000000000",
          "blockHash": "0xdbed7180bc47d5381f842d8fae98cba25b43b60129726883218ed258ec056969",
          "blockNumber": "0x2a2c34c",
          "blockTimestamp": "0x6a1c6244",
          "transactionHash": "0xfb48eadd9f3b31d4bfd79fa369b543934e42c9c5851b3aa868e1014ae045414d",
          "transactionIndex": "0x5",
          "logIndex": "0x4",
          "removed": false
        }
      ],
      "logsBloom": "0x00000000000000000000000000000000000000000000000000000000000000000000010000000000000000000000000000000000000000000000000000000000000000000000000000000000000000000000000001000000000800000000000000000100000000000000000000000000000000000000000000000000000000000020000000000000000000000000000000000000000000000000000000000800000000000000000000000000000000000000000000000000000000000000000000000000000000000000000000000000000000000000000000000000000000000000000000000000000000000000000000000000000000000000000000000000",
      "type": "0x2",
      "transactionHash": "0xfb48eadd9f3b31d4bfd79fa369b543934e42c9c5851b3aa868e1014ae045414d",
      "transactionIndex": "0x5",
      "blockHash": "0xdbed7180bc47d5381f842d8fae98cba25b43b60129726883218ed258ec056969",
      "blockNumber": "0x2a2c34c",
      "gasUsed": "0x2eb9d",
      "effectiveGasPrice": "0xf433a",
      "blobGasUsed": "0x20850",
      "from": "0xb05a948b5c1b057b88d381bde3a375efea87ebad",
      "to": "0xb1f46e01cce016ab1c3c8ae6d4bd77c977fa24a0",
      "contractAddress": null,
      "daFootprintGasScalar": "0x190",
      "l1BaseFeeScalar": "0x1db0",
      "l1BlobBaseFee": "0x5190b53",
      "l1BlobBaseFeeScalar": "0xd2730",
      "l1Fee": "0x134f46538c",
      "l1GasPrice": "0x55a22307",
      "l1GasUsed": "0x14dd"
    },
    {
      "status": "0x1",
      "cumulativeGasUsed": "0x123a42",
      "logs": [
        {
          "address": "0xb9b419d9330008f60c42e8dc40a48a8f00c158dd",
          "topics": [
            "0x8faa70878671ccd212d20771b795c50af8fd3ff6cf27f4bde57e5d4de0aeb673"
          ],
          "data": "0x0000000000000000000000000000000000000000000000000000000000000060000000000000000000000000569fc4c1b71c16f1b85e9d7f1de644b3bc42ce5e000000000000000000000000000000000000000000000000000000000000044000000000000000000000000000000000000000000000000000000000000000030000000000000000000000000000000000000000000000000000000000000060000000000000000000000000000000000000000000000000000000000000018000000000000000000000000000000000000000000000000000000000000002a00000000000000000000000002c192e07ce7a1a5105855dfcbdc7ba3c3b323050000000000000000000000000000000000000000000000000000000000000000300000000000000000000000000000000000000000000000000000000000000600000000000000000000000000000000000000000000000000000000000000005d5b7cc5400000000000000000000000000000000000000000000000000000000c6cdc98000000000000000000000000000000000000000000000000000000000924e670400000000000000000000000000000000000000000000000000000000c69271ec00000000000000000000000000000000000000000000000000000000170aba0d00000000000000000000000000000000000000000000000000000000000000000000000000000000cf4e140c5f3ec0ace6ac2a00b33db38a8ebe14df000000000000000000000000000000000000000000000000000000000000000300000000000000000000000000000000000000000000000000000000000000600000000000000000000000000000000000000000000000000000000000000005814516ad00000000000000000000000000000000000000000000000000000000782aadff000000000000000000000000000000000000000000000000000000002ed04b2b000000000000000000000000000000000000000000000000000000001ddf1e23000000000000000000000000000000000000000000000000000000006453d9c40000000000000000000000000000000000000000000000000000000000000000000000000000000014fc6170800fd1135c2a4a71b25e490e3e4fcecc0000000000000000000000000000000000000000000000000000000000000003000000000000000000000000000000000000000000000000000000000000006000000000000000000000000000000000000000000000000000000000000000057d7c2a1c0000000000000000000000000000000000000000000000000000000053a3d62e00000000000000000000000000000000000000000000000000000000736dcb8b00000000000000000000000000000000000000000000000000000000e0ab98b5000000000000000000000000000000000000000000000000000000007d40af98000000000000000000000000000000000000000000000000000000000000000000000000000000000000000000000000000000000000000000000004e1c7392a00000000000000000000000000000000000000000000000000000000",
          "blockHash": "0xdbed7180bc47d5381f842d8fae98cba25b43b60129726883218ed258ec056969",
          "blockNumber": "0x2a2c34c",
          "blockTimestamp": "0x6a1c6244",
          "transactionHash": "0xd936fd6681076c22b8b07d09b0d9538d8adec386ad0e7510f51b9f5217c4d338",
          "transactionIndex": "0x6",
          "logIndex": "0x5",
          "removed": false
        }
      ],
      "logsBloom": "0x00000000000000000000000000000000000000000000000000000000000000000000000000000000000000000000000000000000000000000000000000000000000000000000000000000000000000000040000001000000000800000000000000000000000000000000000000000000800000000000000400000000000000000020000000000000000000000000000000000000000000000000000000000000000000000000000000000000000000000000000000000000000000000000000000000000000000000000000000000000000000000000000000000000000000000000000000000000000000000000000000000000000000000000000000000000",
      "type": "0x2",
      "transactionHash": "0xd936fd6681076c22b8b07d09b0d9538d8adec386ad0e7510f51b9f5217c4d338",
      "transactionIndex": "0x6",
      "blockHash": "0xdbed7180bc47d5381f842d8fae98cba25b43b60129726883218ed258ec056969",
      "blockNumber": "0x2a2c34c",
      "gasUsed": "0x2eb9d",
      "effectiveGasPrice": "0xf433a",
      "blobGasUsed": "0x20850",
      "from": "0xb05a948b5c1b057b88d381bde3a375efea87ebad",
      "to": "0xb9b419d9330008f60c42e8dc40a48a8f00c158dd",
      "contractAddress": null,
      "daFootprintGasScalar": "0x190",
      "l1BaseFeeScalar": "0x1db0",
      "l1BlobBaseFee": "0x5190b53",
      "l1BlobBaseFeeScalar": "0xd2730",
      "l1Fee": "0x134f46538c",
      "l1GasPrice": "0x55a22307",
      "l1GasUsed": "0x14dd"
    },
    {
      "status": "0x1",
      "cumulativeGasUsed": "0x1525df",
      "logs": [
        {
          "address": "0xc30ab02b25ca2667dd0efa1deb269c0f568c6147",
          "topics": [
            "0x8faa70878671ccd212d20771b795c50af8fd3ff6cf27f4bde57e5d4de0aeb673"
          ],
          "data": "0x0000000000000000000000000000000000000000000000000000000000000060000000000000000000000000569fc4c1b71c16f1b85e9d7f1de644b3bc42ce5e000000000000000000000000000000000000000000000000000000000000044000000000000000000000000000000000000000000000000000000000000000030000000000000000000000000000000000000000000000000000000000000060000000000000000000000000000000000000000000000000000000000000018000000000000000000000000000000000000000000000000000000000000002a00000000000000000000000002c192e07ce7a1a5105855dfcbdc7ba3c3b323050000000000000000000000000000000000000000000000000000000000000000300000000000000000000000000000000000000000000000000000000000000600000000000000000000000000000000000000000000000000000000000000005d5b7cc5400000000000000000000000000000000000000000000000000000000c6cdc98000000000000000000000000000000000000000000000000000000000924e670400000000000000000000000000000000000000000000000000000000c69271ec00000000000000000000000000000000000000000000000000000000170aba0d00000000000000000000000000000000000000000000000000000000000000000000000000000000cf4e140c5f3ec0ace6ac2a00b33db38a8ebe14df000000000000000000000000000000000000000000000000000000000000000300000000000000000000000000000000000000000000000000000000000000600000000000000000000000000000000000000000000000000000000000000005814516ad00000000000000000000000000000000000000000000000000000000782aadff000000000000000000000000000000000000000000000000000000002ed04b2b000000000000000000000000000000000000000000000000000000001ddf1e23000000000000000000000000000000000000000000000000000000006453d9c40000000000000000000000000000000000000000000000000000000000000000000000000000000014fc6170800fd1135c2a4a71b25e490e3e4fcecc0000000000000000000000000000000000000000000000000000000000000003000000000000000000000000000000000000000000000000000000000000006000000000000000000000000000000000000000000000000000000000000000057d7c2a1c0000000000000000000000000000000000000000000000000000000053a3d62e00000000000000000000000000000000000000000000000000000000736dcb8b00000000000000000000000000000000000000000000000000000000e0ab98b5000000000000000000000000000000000000000000000000000000007d40af98000000000000000000000000000000000000000000000000000000000000000000000000000000000000000000000000000000000000000000000004e1c7392a00000000000000000000000000000000000000000000000000000000",
          "blockHash": "0x7853184e9cfd6d52bfce5d2e98ebfd793cb5e799b522d8c4097d0822ccbe8048",
          "blockNumber": "0x2a2c34c",
          "blockTimestamp": "0x6a1c6244",
          "transactionHash": "0x2b8134b02b9ad1de6101e45471b82e53e5c36f0efa4ae6723187711942e58626",
          "transactionIndex": "0x7",
          "logIndex": "0x6",
          "removed": false
        }
      ],
      "logsBloom": "0x00000000000000001000000000000000000000000000000000000000000000000000000000000000000000000000000000000000000000000000000000000000000000000000000000000000000000000000000001000000000800000000000000000000000000000000000000000000000000000000000000000000000000000020000000000000000000000000000000000000000000000000000000000000000000000000000000000000000000000000000000000020000000000000000000000000000000000000000000000000000000000000000000000000000000000000000000000000000000000000000000000000000000000000000000000200",
      "type": "0x2",
      "transactionHash": "0x2b8134b02b9ad1de6101e45471b82e53e5c36f0efa4ae6723187711942e58626",
      "transactionIndex": "0x7",
      "blockHash": "0x7853184e9cfd6d52bfce5d2e98ebfd793cb5e799b522d8c4097d0822ccbe8048",
      "blockNumber": "0x2a2c34c",
      "gasUsed": "0x2eb9d",
      "effectiveGasPrice": "0xf433a",
      "blobGasUsed": "0x20850",
      "from": "0xb05a948b5c1b057b88d381bde3a375efea87ebad",
      "to": "0xc30ab02b25ca2667dd0efa1deb269c0f568c6147",
      "contractAddress": null,
      "daFootprintGasScalar": "0x190",
      "l1BaseFeeScalar": "0x1db0",
      "l1BlobBaseFee": "0x5190b53",
      "l1BlobBaseFeeScalar": "0xd2730",
      "l1Fee": "0x134f46538c",
      "l1GasPrice": "0x55a22307",
      "l1GasUsed": "0x14dd"
    },
    {
      "status": "0x1",
      "cumulativeGasUsed": "0x18117c",
      "logs": [
        {
          "address": "0xd880e7d2af2bab5709c3a48b740fb2ecea563bf0",
          "topics": [
            "0x8faa70878671ccd212d20771b795c50af8fd3ff6cf27f4bde57e5d4de0aeb673"
          ],
          "data": "0x0000000000000000000000000000000000000000000000000000000000000060000000000000000000000000569fc4c1b71c16f1b85e9d7f1de644b3bc42ce5e000000000000000000000000000000000000000000000000000000000000044000000000000000000000000000000000000000000000000000000000000000030000000000000000000000000000000000000000000000000000000000000060000000000000000000000000000000000000000000000000000000000000018000000000000000000000000000000000000000000000000000000000000002a00000000000000000000000002c192e07ce7a1a5105855dfcbdc7ba3c3b323050000000000000000000000000000000000000000000000000000000000000000300000000000000000000000000000000000000000000000000000000000000600000000000000000000000000000000000000000000000000000000000000005d5b7cc5400000000000000000000000000000000000000000000000000000000c6cdc98000000000000000000000000000000000000000000000000000000000924e670400000000000000000000000000000000000000000000000000000000c69271ec00000000000000000000000000000000000000000000000000000000170aba0d00000000000000000000000000000000000000000000000000000000000000000000000000000000cf4e140c5f3ec0ace6ac2a00b33db38a8ebe14df000000000000000000000000000000000000000000000000000000000000000300000000000000000000000000000000000000000000000000000000000000600000000000000000000000000000000000000000000000000000000000000005814516ad00000000000000000000000000000000000000000000000000000000782aadff000000000000000000000000000000000000000000000000000000002ed04b2b000000000000000000000000000000000000000000000000000000001ddf1e23000000000000000000000000000000000000000000000000000000006453d9c40000000000000000000000000000000000000000000000000000000000000000000000000000000014fc6170800fd1135c2a4a71b25e490e3e4fcecc0000000000000000000000000000000000000000000000000000000000000003000000000000000000000000000000000000000000000000000000000000006000000000000000000000000000000000000000000000000000000000000000057d7c2a1c0000000000000000000000000000000000000000000000000000000053a3d62e00000000000000000000000000000000000000000000000000000000736dcb8b00000000000000000000000000000000000000000000000000000000e0ab98b5000000000000000000000000000000000000000000000000000000007d40af98000000000000000000000000000000000000000000000000000000000000000000000000000000000000000000000000000000000000000000000004e1c7392a00000000000000000000000000000000000000000000000000000000",
          "blockHash": "0x7853184e9cfd6d52bfce5d2e98ebfd793cb5e799b522d8c4097d0822ccbe8048",
          "blockNumber": "0x2a2c34c",
          "blockTimestamp": "0x6a1c6244",
          "transactionHash": "0x44ab6657fedfa6fbf57e8d74a239b3910f46dfa8b63b49ad8e8ad3494ed247a7",
          "transactionIndex": "0x8",
          "logIndex": "0x7",
          "removed": false
        }
      ],
      "logsBloom": "0x00000000000000000000000000000000000000000000000000000000000000000000080000000000000000000000000000000000000000000000000000000000000000000000000000000000000000000000000001000000000800000000000000000000000000000000000000000000000000000000000000000000000000000020000000000000000000000000000000000000000000000000000000000000000000000000000000000000000000000000000000000000000000000000000000000000000000000010000000000000000000000000000000000000000000000000000000000000000000000000000000000000000000000000001000000000",
      "type": "0x2",
      "transactionHash": "0x44ab6657fedfa6fbf57e8d74a239b3910f46dfa8b63b49ad8e8ad3494ed247a7",
      "transactionIndex": "0x8",
      "blockHash": "0x7853184e9cfd6d52bfce5d2e98ebfd793cb5e799b522d8c4097d0822ccbe8048",
      "blockNumber": "0x2a2c34c",
      "gasUsed": "0x2eb9d",
      "effectiveGasPrice": "0xf433a",
      "blobGasUsed": "0x20850",
      "from": "0xb05a948b5c1b057b88d381bde3a375efea87ebad",
      "to": "0xd880e7d2af2bab5709c3a48b740fb2ecea563bf0",
      "contractAddress": null,
      "daFootprintGasScalar": "0x190",
      "l1BaseFeeScalar": "0x1db0",
      "l1BlobBaseFee": "0x5190b53",
      "l1BlobBaseFeeScalar": "0xd2730",
      "l1Fee": "0x134f46538c",
      "l1GasPrice": "0x55a22307",
      "l1GasUsed": "0x14dd"
    },
    {
      "status": "0x1",
      "cumulativeGasUsed": "0x18c8ea",
      "logs": [],
      "logsBloom": "0x00000000000000000000000000000000000000000000000000000000000000000000000000000000000000000000000000000000000000000000000000000000000000000000000000000000000000000000000000000000000000000000000000000000000000000000000000000000000000000000000000000000000000000000000000000000000000000000000000000000000000000000000000000000000000000000000000000000000000000000000000000000000000000000000000000000000000000000000000000000000000000000000000000000000000000000000000000000000000000000000000000000000000000000000000000000",
      "type": "0x2",
      "transactionHash": "0x76fe76e0f606e202d196c99168286334953c77a96bdefeeba873df86cfc9026e",
      "transactionIndex": "0x9",
      "blockHash": "0x7853184e9cfd6d52bfce5d2e98ebfd793cb5e799b522d8c4097d0822ccbe8048",
      "blockNumber": "0x2a2c34c",
      "gasUsed": "0xb76e",
      "effectiveGasPrice": "0xf433a",
      "blobGasUsed": "0x9c40",
      "from": "0xb05a948b5c1b057b88d381bde3a375efea87ebad",
      "to": "0xec8824e9a9498520891ec678e98c5bd3e65229c2",
      "contractAddress": null,
      "daFootprintGasScalar": "0x190",
      "l1BaseFeeScalar": "0x1db0",
      "l1BlobBaseFee": "0x5190b53",
      "l1BlobBaseFeeScalar": "0xd2730",
      "l1Fee": "0x5c8bbff33",
      "l1GasPrice": "0x55a22307",
      "l1GasUsed": "0x640"
    },
    {
      "status": "0x1",
      "cumulativeGasUsed": "0x1c36d4",
      "logs": [],
      "logsBloom": "0x00000000000000000000000000000000000000000000000000000000000000000000000000000000000000000000000000000000000000000000000000000000000000000000000000000000000000000000000000000000000000000000000000000000000000000000000000000000000000000000000000000000000000000000000000000000000000000000000000000000000000000000000000000000000000000000000000000000000000000000000000000000000000000000000000000000000000000000000000000000000000000000000000000000000000000000000000000000000000000000000000000000000000000000000000000000",
      "type": "0x2",
      "transactionHash": "0x7963da2691e47a72a3274fbb6fa37dd41c975c9a083e5fbeac1c24aa7d04686f",
      "transactionIndex": "0xa",
      "blockHash": "0x7853184e9cfd6d52bfce5d2e98ebfd793cb5e799b522d8c4097d0822ccbe8048",
      "blockNumber": "0x2a2c34c",
      "gasUsed": "0x36dea",
      "effectiveGasPrice": "0xf433a",
      "blobGasUsed": "0x4b000",
      "from": "0xb05a948b5c1b057b88d381bde3a375efea87ebad",
      "to": "0xec8824e9a9498520891ec678e98c5bd3e65229c2",
      "contractAddress": null,
      "daFootprintGasScalar": "0x190",
      "l1BaseFeeScalar": "0x1db0",
      "l1BlobBaseFee": "0x5190b53",
      "l1BlobBaseFeeScalar": "0xd2730",
      "l1Fee": "0x2c782c4c96",
      "l1GasPrice": "0x55a22307",
      "l1GasUsed": "0x300d"
    }
  ],
  "libraries": [
    "pkg/contracts/src/CVStrategy/ConvictionsUtils.sol:ConvictionsUtils:0x36EAc4Ca8389E35D66978e94c811F959e5A158f2",
    "pkg/contracts/src/CVStrategy/PowerManagementUtils.sol:PowerManagementUtils:0xB07d76F6001Cc62739d39cb0C5E9c58E08230486"
  ],
  "pending": [],
  "returns": {},
  "timestamp": 1780245060355,
  "chain": 11155420,
  "commit": "4bc7b8d39"
}