{
  "transactions": [
    {
      "hash": "0xd76ea5c40c129a80849bc8b81db51c54689bb7e0eefc7f5c2fd66d5fbfc4a6ae",
      "transactionType": "CALL",
      "contractName": "ERC1967Proxy",
      "contractAddress": "0x1f786ad20046a55651ad66fb456ab2ef2596727b",
      "function": null,
      "arguments": null,
      "transaction": {
        "from": "0xb05a948b5c1b057b88d381bde3a375efea87ebad",
        "to": "0x1f786ad20046a55651ad66fb456ab2ef2596727b",
        "gas": "0x298cd",
        "value": "0x0",
        "input": "0x1f931c1c0000000000000000000000000000000000000000000000000000000000000060000000000000000000000000a84b989e52be6c8fc464b3e468ed75c2ebc4f96a0000000000000000000000000000000000000000000000000000000000000200000000000000000000000000000000000000000000000000000000000000000100000000000000000000000000000000000000000000000000000000000000200000000000000000000000007cd9e7227a3223bc8c4bd25d15391a7b995f9b9e0000000000000000000000000000000000000000000000000000000000000003000000000000000000000000000000000000000000000000000000000000006000000000000000000000000000000000000000000000000000000000000000079a1f46e200000000000000000000000000000000000000000000000000000000b99b4370000000000000000000000000000000000000000000000000000000006871eb4d00000000000000000000000000000000000000000000000000000000a230c524000000000000000000000000000000000000000000000000000000000331383c0000000000000000000000000000000000000000000000000000000028c309e90000000000000000000000000000000000000000000000000000000060f8dd7e000000000000000000000000000000000000000000000000000000000000000000000000000000000000000000000000000000000000000000000004e1c7392a00000000000000000000000000000000000000000000000000000000",
        "nonce": "0x6f1",
        "chainId": "0xaa37dc"
      },
      "additionalContracts": [],
      "isFixedGasLimit": false
    },
    {
      "hash": "0xeb38b57d3902cbbd72bea4a2ef8a09b91069da21f3ff1d4125e1a82cc400e9b0",
      "transactionType": "CALL",
      "contractName": "ERC1967Proxy",
      "contractAddress": "0x394542fc04478ab3f8c7d9abb25d192ef60ec675",
      "function": null,
      "arguments": null,
      "transaction": {
        "from": "0xb05a948b5c1b057b88d381bde3a375efea87ebad",
        "to": "0x394542fc04478ab3f8c7d9abb25d192ef60ec675",
        "gas": "0x298cd",
        "value": "0x0",
        "input": "0x1f931c1c0000000000000000000000000000000000000000000000000000000000000060000000000000000000000000a84b989e52be6c8fc464b3e468ed75c2ebc4f96a0000000000000000000000000000000000000000000000000000000000000200000000000000000000000000000000000000000000000000000000000000000100000000000000000000000000000000000000000000000000000000000000200000000000000000000000007cd9e7227a3223bc8c4bd25d15391a7b995f9b9e0000000000000000000000000000000000000000000000000000000000000003000000000000000000000000000000000000000000000000000000000000006000000000000000000000000000000000000000000000000000000000000000079a1f46e200000000000000000000000000000000000000000000000000000000b99b4370000000000000000000000000000000000000000000000000000000006871eb4d00000000000000000000000000000000000000000000000000000000a230c524000000000000000000000000000000000000000000000000000000000331383c0000000000000000000000000000000000000000000000000000000028c309e90000000000000000000000000000000000000000000000000000000060f8dd7e000000000000000000000000000000000000000000000000000000000000000000000000000000000000000000000000000000000000000000000004e1c7392a00000000000000000000000000000000000000000000000000000000",
        "nonce": "0x6f2",
        "chainId": "0xaa37dc"
      },
      "additionalContracts": [],
      "isFixedGasLimit": false
    },
    {
      "hash": "0x4d8f6396e62a1543ab682e249e33ea9be9204905a7437de0601ebb82731e851c",
      "transactionType": "CALL",
      "contractName": "ERC1967Proxy",
      "contractAddress": "0xc46a732ebfc0fbb35b0142077d68de91888dd53c",
      "function": null,
      "arguments": null,
      "transaction": {
        "from": "0xb05a948b5c1b057b88d381bde3a375efea87ebad",
        "to": "0xc46a732ebfc0fbb35b0142077d68de91888dd53c",
        "gas": "0x298cd",
        "value": "0x0",
        "input": "0x1f931c1c0000000000000000000000000000000000000000000000000000000000000060000000000000000000000000a84b989e52be6c8fc464b3e468ed75c2ebc4f96a0000000000000000000000000000000000000000000000000000000000000200000000000000000000000000000000000000000000000000000000000000000100000000000000000000000000000000000000000000000000000000000000200000000000000000000000007cd9e7227a3223bc8c4bd25d15391a7b995f9b9e0000000000000000000000000000000000000000000000000000000000000003000000000000000000000000000000000000000000000000000000000000006000000000000000000000000000000000000000000000000000000000000000079a1f46e200000000000000000000000000000000000000000000000000000000b99b4370000000000000000000000000000000000000000000000000000000006871eb4d00000000000000000000000000000000000000000000000000000000a230c524000000000000000000000000000000000000000000000000000000000331383c0000000000000000000000000000000000000000000000000000000028c309e90000000000000000000000000000000000000000000000000000000060f8dd7e000000000000000000000000000000000000000000000000000000000000000000000000000000000000000000000000000000000000000000000004e1c7392a00000000000000000000000000000000000000000000000000000000",
        "nonce": "0x6f3",
        "chainId": "0xaa37dc"
      },
      "additionalContracts": [],
      "isFixedGasLimit": false
    },
    {
      "hash": "0x189eb8b808ac09c91c04e1028924aab662c6a26c7f877a0921a251aa96808f11",
      "transactionType": "CALL",
      "contractName": "ERC1967Proxy",
      "contractAddress": "0xf0e5c2de79e3ed66ed9322c4545d30551d048fd0",
      "function": null,
      "arguments": null,
      "transaction": {
        "from": "0xb05a948b5c1b057b88d381bde3a375efea87ebad",
        "to": "0xf0e5c2de79e3ed66ed9322c4545d30551d048fd0",
        "gas": "0x273fc",
        "value": "0x0",
        "input": "0x1f931c1c0000000000000000000000000000000000000000000000000000000000000060000000000000000000000000a84b989e52be6c8fc464b3e468ed75c2ebc4f96a0000000000000000000000000000000000000000000000000000000000000200000000000000000000000000000000000000000000000000000000000000000100000000000000000000000000000000000000000000000000000000000000200000000000000000000000007cd9e7227a3223bc8c4bd25d15391a7b995f9b9e0000000000000000000000000000000000000000000000000000000000000003000000000000000000000000000000000000000000000000000000000000006000000000000000000000000000000000000000000000000000000000000000079a1f46e200000000000000000000000000000000000000000000000000000000b99b4370000000000000000000000000000000000000000000000000000000006871eb4d00000000000000000000000000000000000000000000000000000000a230c524000000000000000000000000000000000000000000000000000000000331383c0000000000000000000000000000000000000000000000000000000028c309e90000000000000000000000000000000000000000000000000000000060f8dd7e000000000000000000000000000000000000000000000000000000000000000000000000000000000000000000000000000000000000000000000004e1c7392a00000000000000000000000000000000000000000000000000000000",
        "nonce": "0x6f4",
        "chainId": "0xaa37dc"
      },
      "additionalContracts": [],
      "isFixedGasLimit": false
    },
    {
      "hash": "0x6f1e6c08bd16d269d0e1c623ecd9355981a2c3139fc53b9d0c1891fb006f5b57",
      "transactionType": "CALL",
      "contractName": null,
      "contractAddress": "0xec8824e9a9498520891ec678e98c5bd3e65229c2",
      "function": "setCommunityFacets((address,uint8,bytes4[])[],address,bytes)",
      "arguments": [
        "[(0xeFE2Fd44Fb9D974e3cdDFD00d362f09D60ad91dA, 3, [0x7a0ed627, 0xadfca15e, 0x52ef6b2c, 0xcdffacc6, 0x01ffc9a7]), (0xeC6427Ca24fAe20e097aF583BD1703F0d6864599, 3, [0x1b71f0e4, 0xb0d3713a, 0x0b03bb9a, 0x31f61bca, 0x0d12bbdb, 0x397e2543, 0xb5058c50, 0xf2d774e7, 0xebd7dc52]), (0x7Cd9e7227a3223Bc8c4bD25D15391A7b995f9b9e, 3, [0x9a1f46e2, 0xb99b4370, 0x6871eb4d, 0xa230c524, 0x0331383c, 0x28c309e9, 0x60f8dd7e]), (0x0323BA839112e5F06c305086ED96A3e18346EDa3, 3, [0x1add1a0d, 0x222a3a04, 0xadaf157b, 0x60b47789, 0x136439dd, 0x80c4a65f, 0x3f4ba83a, 0xbac1e94b, 0xb187bd26, 0x09b65e66, 0xda748b10, 0x2d2ebbef]), (0xdC23427417bD2c36b2eDc0c3f36a58a84d9C7d61, 3, [0xce7e2cd3, 0x82b18ef4]), (0x29ABc3f5E4013bCF2198C64695302ab5F5FE9872, 3, [0x0d4a8b49, 0x22bcf999, 0x559de05d, 0x5ecf71c5, 0x7817ee4f, 0x2c611c4a, 0xeb5cbe43, 0x6a6b9a61]), (0x1FD84892872B054fc9cA88A0534B4c38969AA465, 3, [0x82d6a1e7, 0x223e5479, 0x73265c37, 0x175188e8, 0xfb1f6917])]",
        "0xA84B989e52Be6C8Fc464b3E468ED75c2eBC4F96a",
        "0xe1c7392a"
      ],
      "transaction": {
        "from": "0xb05a948b5c1b057b88d381bde3a375efea87ebad",
        "to": "0xec8824e9a9498520891ec678e98c5bd3e65229c2",
        "gas": "0x46a94",
        "value": "0x0",
        "input": "0x90147c6b0000000000000000000000000000000000000000000000000000000000000060000000000000000000000000a84b989e52be6c8fc464b3e468ed75c2ebc4f96a0000000000000000000000000000000000000000000000000000000000000ae0000000000000000000000000000000000000000000000000000000000000000700000000000000000000000000000000000000000000000000000000000000e0000000000000000000000000000000000000000000000000000000000000020000000000000000000000000000000000000000000000000000000000000003a00000000000000000000000000000000000000000000000000000000000000500000000000000000000000000000000000000000000000000000000000000070000000000000000000000000000000000000000000000000000000000000007c00000000000000000000000000000000000000000000000000000000000000940000000000000000000000000efe2fd44fb9d974e3cddfd00d362f09d60ad91da0000000000000000000000000000000000000000000000000000000000000003000000000000000000000000000000000000000000000000000000000000006000000000000000000000000000000000000000000000000000000000000000057a0ed62700000000000000000000000000000000000000000000000000000000adfca15e0000000000000000000000000000000000000000000000000000000052ef6b2c00000000000000000000000000000000000000000000000000000000cdffacc60000000000000000000000000000000000000000000000000000000001ffc9a700000000000000000000000000000000000000000000000000000000000000000000000000000000ec6427ca24fae20e097af583bd1703f0d68645990000000000000000000000000000000000000000000000000000000000000003000000000000000000000000000000000000000000000000000000000000006000000000000000000000000000000000000000000000000000000000000000091b71f0e400000000000000000000000000000000000000000000000000000000b0d3713a000000000000000000000000000000000000000000000000000000000b03bb9a0000000000000000000000000000000000000000000000000000000031f61bca000000000000000000000000000000000000000000000000000000000d12bbdb00000000000000000000000000000000000000000000000000000000397e254300000000000000000000000000000000000000000000000000000000b5058c5000000000000000000000000000000000000000000000000000000000f2d774e700000000000000000000000000000000000000000000000000000000ebd7dc52000000000000000000000000000000000000000000000000000000000000000000000000000000007cd9e7227a3223bc8c4bd25d15391a7b995f9b9e0000000000000000000000000000000000000000000000000000000000000003000000000000000000000000000000000000000000000000000000000000006000000000000000000000000000000000000000000000000000000000000000079a1f46e200000000000000000000000000000000000000000000000000000000b99b4370000000000000000000000000000000000000000000000000000000006871eb4d00000000000000000000000000000000000000000000000000000000a230c524000000000000000000000000000000000000000000000000000000000331383c0000000000000000000000000000000000000000000000000000000028c309e90000000000000000000000000000000000000000000000000000000060f8dd7e000000000000000000000000000000000000000000000000000000000000000000000000000000000323ba839112e5f06c305086ed96a3e18346eda300000000000000000000000000000000000000000000000000000000000000030000000000000000000000000000000000000000000000000000000000000060000000000000000000000000000000000000000000000000000000000000000c1add1a0d00000000000000000000000000000000000000000000000000000000222a3a0400000000000000000000000000000000000000000000000000000000adaf157b0000000000000000000000000000000000000000000000000000000060b4778900000000000000000000000000000000000000000000000000000000136439dd0000000000000000000000000000000000000000000000000000000080c4a65f000000000000000000000000000000000000000000000000000000003f4ba83a00000000000000000000000000000000000000000000000000000000bac1e94b00000000000000000000000000000000000000000000000000000000b187bd260000000000000000000000000000000000000000000000000000000009b65e6600000000000000000000000000000000000000000000000000000000da748b10000000000000000000000000000000000000000000000000000000002d2ebbef00000000000000000000000000000000000000000000000000000000000000000000000000000000dc23427417bd2c36b2edc0c3f36a58a84d9c7d61000000000000000000000000000000000000000000000000000000000000000300000000000000000000000000000000000000000000000000000000000000600000000000000000000000000000000000000000000000000000000000000002ce7e2cd30000000000000000000000000000000000000000000000000000000082b18ef40000000000000000000000000000000000000000000000000000000000000000000000000000000029abc3f5e4013bcf2198c64695302ab5f5fe98720000000000000000000000000000000000000000000000000000000000000003000000000000000000000000000000000000000000000000000000000000006000000000000000000000000000000000000000000000000000000000000000080d4a8b490000000000000000000000000000000000000000000000000000000022bcf99900000000000000000000000000000000000000000000000000000000559de05d000000000000000000000000000000000000000000000000000000005ecf71c5000000000000000000000000000000000000000000000000000000007817ee4f000000000000000000000000000000000000000000000000000000002c611c4a00000000000000000000000000000000000000000000000000000000eb5cbe43000000000000000000000000000000000000000000000000000000006a6b9a61000000000000000000000000000000000000000000000000000000000000000000000000000000001fd84892872b054fc9ca88a0534b4c38969aa46500000000000000000000000000000000000000000000000000000000000000030000000000000000000000000000000000000000000000000000000000000060000000000000000000000000000000000000000000000000000000000000000582d6a1e700000000000000000000000000000000000000000000000000000000223e54790000000000000000000000000000000000000000000000000000000073265c3700000000000000000000000000000000000000000000000000000000175188e800000000000000000000000000000000000000000000000000000000fb1f6917000000000000000000000000000000000000000000000000000000000000000000000000000000000000000000000000000000000000000000000004e1c7392a00000000000000000000000000000000000000000000000000000000",
        "nonce": "0x6f5",
        "chainId": "0xaa37dc"
      },
      "additionalContracts": [],
      "isFixedGasLimit": false
    }
  ],
  "receipts": [
    {
      "status": "0x1",
      "cumulativeGasUsed": "0x27b27",
      "logs": [
        {
          "address": "0x1f786ad20046a55651ad66fb456ab2ef2596727b",
          "topics": [
            "0x8faa70878671ccd212d20771b795c50af8fd3ff6cf27f4bde57e5d4de0aeb673"
          ],
          "data": "0x0000000000000000000000000000000000000000000000000000000000000060000000000000000000000000a84b989e52be6c8fc464b3e468ed75c2ebc4f96a0000000000000000000000000000000000000000000000000000000000000200000000000000000000000000000000000000000000000000000000000000000100000000000000000000000000000000000000000000000000000000000000200000000000000000000000007cd9e7227a3223bc8c4bd25d15391a7b995f9b9e0000000000000000000000000000000000000000000000000000000000000003000000000000000000000000000000000000000000000000000000000000006000000000000000000000000000000000000000000000000000000000000000079a1f46e200000000000000000000000000000000000000000000000000000000b99b4370000000000000000000000000000000000000000000000000000000006871eb4d00000000000000000000000000000000000000000000000000000000a230c524000000000000000000000000000000000000000000000000000000000331383c0000000000000000000000000000000000000000000000000000000028c309e90000000000000000000000000000000000000000000000000000000060f8dd7e000000000000000000000000000000000000000000000000000000000000000000000000000000000000000000000000000000000000000000000004e1c7392a00000000000000000000000000000000000000000000000000000000",
          "blockHash": "0xa4e7b4f24c47a73ec0806df1007d933defc48761c17dfce44b049adb100283dd",
          "blockNumber": "0x2a2c309",
          "blockTimestamp": "0x6a1c61be",
          "transactionHash": "0x4d8f6396e62a1543ab682e249e33ea9be9204905a7437de0601ebb82731e851c",
          "transactionIndex": "0x1",
          "logIndex": "0x0",
          "removed": false
        }
      ],
      "logsBloom": "0x00000000000000000000000000000000000000000000000000000000000000000000000000000000000000000000000000000200000000000000000000000000000000000000000000000000000000000000000001000000000800000000000000000000400000000000000000000000000000000000000000000000000000000020000000000000000000000000000000000000000000000000000000020000000000000000000000000000000000000000000000000000000000000000000000000000000000000000000000000000000000000000000000000000000000000000000000000000000000000000000000000000000000000000000000000000",
      "type": "0x2",
      "transactionHash": "0x4d8f6396e62a1543ab682e249e33ea9be9204905a7437de0601ebb82731e851c",
      "transactionIndex": "0x1",
      "blockHash": "0xa4e7b4f24c47a73ec0806df1007d933defc48761c17dfce44b049adb100283dd",
      "blockNumber": "0x2a2c309",
      "gasUsed": "0x1c691",
      "effectiveGasPrice": "0xfb",
      "blobGasUsed": "0x14cd0",
      "from": "0xb05a948b5c1b057b88d381bde3a375efea87ebad",
      "to": "0x1f786ad20046a55651ad66fb456ab2ef2596727b",
      "contractAddress": null,
      "daFootprintGasScalar": "0x190",
      "l1BaseFeeScalar": "0x1db0",
      "l1BlobBaseFee": "0x554ef66",
      "l1BlobBaseFeeScalar": "0xd2730",
      "l1Fee": "0xcfd6abfb9",
      "l1GasPrice": "0x5a5d242e",
      "l1GasUsed": "0xd56"
    },
    {
      "status": "0x1",
      "cumulativeGasUsed": "0x441b8",
      "logs": [
        {
          "address": "0x394542fc04478ab3f8c7d9abb25d192ef60ec675",
          "topics": [
            "0x8faa70878671ccd212d20771b795c50af8fd3ff6cf27f4bde57e5d4de0aeb673"
          ],
          "data": "0x0000000000000000000000000000000000000000000000000000000000000060000000000000000000000000a84b989e52be6c8fc464b3e468ed75c2ebc4f96a0000000000000000000000000000000000000000000000000000000000000200000000000000000000000000000000000000000000000000000000000000000100000000000000000000000000000000000000000000000000000000000000200000000000000000000000007cd9e7227a3223bc8c4bd25d15391a7b995f9b9e0000000000000000000000000000000000000000000000000000000000000003000000000000000000000000000000000000000000000000000000000000006000000000000000000000000000000000000000000000000000000000000000079a1f46e200000000000000000000000000000000000000000000000000000000b99b4370000000000000000000000000000000000000000000000000000000006871eb4d00000000000000000000000000000000000000000000000000000000a230c524000000000000000000000000000000000000000000000000000000000331383c0000000000000000000000000000000000000000000000000000000028c309e90000000000000000000000000000000000000000000000000000000060f8dd7e000000000000000000000000000000000000000000000000000000000000000000000000000000000000000000000000000000000000000000000004e1c7392a00000000000000000000000000000000000000000000000000000000",
          "blockHash": "0xa4e7b4f24c47a73ec0806df1007d933defc48761c17dfce44b049adb100283dd",
          "blockNumber": "0x2a2c309",
          "blockTimestamp": "0x6a1c61be",
          "transactionHash": "0x6f1e6c08bd16d269d0e1c623ecd9355981a2c3139fc53b9d0c1891fb006f5b57",
          "transactionIndex": "0x2",
          "logIndex": "0x1",
          "removed": false
        }
      ],
      "logsBloom": "0x00000000000000000000000000000000000000000000000000080000000000000000000000000000000000000000000000000000000000000000000000000000000000000000000000000000000000000000000001000000000800000000000000000000000000000000000000000000000000000000001000000000000000000020000000000000000000000000000000000000000000000000000000000000000000000000000000000000000000000000000000000000000000000000000000000000000000000000000000000000000000000000000000000000000000000000000000000000000000000000004000000000000000000000000000000000",
      "type": "0x2",
      "transactionHash": "0x6f1e6c08bd16d269d0e1c623ecd9355981a2c3139fc53b9d0c1891fb006f5b57",
      "transactionIndex": "0x2",
      "blockHash": "0xa4e7b4f24c47a73ec0806df1007d933defc48761c17dfce44b049adb100283dd",
      "blockNumber": "0x2a2c309",
      "gasUsed": "0x1c691",
      "effectiveGasPrice": "0xfb",
      "blobGasUsed": "0x14cd0",
      "from": "0xb05a948b5c1b057b88d381bde3a375efea87ebad",
      "to": "0x394542fc04478ab3f8c7d9abb25d192ef60ec675",
      "contractAddress": null,
      "daFootprintGasScalar": "0x190",
      "l1BaseFeeScalar": "0x1db0",
      "l1BlobBaseFee": "0x554ef66",
      "l1BlobBaseFeeScalar": "0xd2730",
      "l1Fee": "0xcfd6abfb9",
      "l1GasPrice": "0x5a5d242e",
      "l1GasUsed": "0xd56"
    },
    {
      "status": "0x1",
      "cumulativeGasUsed": "0x60849",
      "logs": [
        {
          "address": "0xc46a732ebfc0fbb35b0142077d68de91888dd53c",
          "topics": [
            "0x8faa70878671ccd212d20771b795c50af8fd3ff6cf27f4bde57e5d4de0aeb673"
          ],
          "data": "0x0000000000000000000000000000000000000000000000000000000000000060000000000000000000000000a84b989e52be6c8fc464b3e468ed75c2ebc4f96a0000000000000000000000000000000000000000000000000000000000000200000000000000000000000000000000000000000000000000000000000000000100000000000000000000000000000000000000000000000000000000000000200000000000000000000000007cd9e7227a3223bc8c4bd25d15391a7b995f9b9e0000000000000000000000000000000000000000000000000000000000000003000000000000000000000000000000000000000000000000000000000000006000000000000000000000000000000000000000000000000000000000000000079a1f46e200000000000000000000000000000000000000000000000000000000b99b4370000000000000000000000000000000000000000000000000000000006871eb4d00000000000000000000000000000000000000000000000000000000a230c524000000000000000000000000000000000000000000000000000000000331383c0000000000000000000000000000000000000000000000000000000028c309e90000000000000000000000000000000000000000000000000000000060f8dd7e000000000000000000000000000000000000000000000000000000000000000000000000000000000000000000000000000000000000000000000004e1c7392a00000000000000000000000000000000000000000000000000000000",
          "blockHash": "0xa4e7b4f24c47a73ec0806df1007d933defc48761c17dfce44b049adb100283dd",
          "blockNumber": "0x2a2c309",
          "blockTimestamp": "0x6a1c61be",
          "transactionHash": "0xd76ea5c40c129a80849bc8b81db51c54689bb7e0eefc7f5c2fd66d5fbfc4a6ae",
          "transactionIndex": "0x3",
          "logIndex": "0x2",
          "removed": false
        }
      ],
      "logsBloom": "0x00000000000000000000000000000000000000000000004000000000000000000000000000000000000000000000000000000000000000000000000000000000000000000000000000000000000000040000000001000000000800000000000000000000000000000000000000000000000000000000000000000000000000000020000000000000000000000000000000000000000000000000000000000000000000000000000000000000000000000000004000000000000000000000000000000000000000000000000000000000000000000000000000000000000000000000000000000000000000000000000000000000000000000000000000000000",
      "type": "0x2",
      "transactionHash": "0xd76ea5c40c129a80849bc8b81db51c54689bb7e0eefc7f5c2fd66d5fbfc4a6ae",
      "transactionIndex": "0x3",
      "blockHash": "0xa4e7b4f24c47a73ec0806df1007d933defc48761c17dfce44b049adb100283dd",
      "blockNumber": "0x2a2c309",
      "gasUsed": "0x1c691",
      "effectiveGasPrice": "0xfb",
      "blobGasUsed": "0x14cd0",
      "from": "0xb05a948b5c1b057b88d381bde3a375efea87ebad",
      "to": "0xc46a732ebfc0fbb35b0142077d68de91888dd53c",
      "contractAddress": null,
      "daFootprintGasScalar": "0x190",
      "l1BaseFeeScalar": "0x1db0",
      "l1BlobBaseFee": "0x554ef66",
      "l1BlobBaseFeeScalar": "0xd2730",
      "l1Fee": "0xcfd6abfb9",
      "l1GasPrice": "0x5a5d242e",
      "l1GasUsed": "0xd56"
    },
    {
      "status": "0x1",
      "cumulativeGasUsed": "0x7cef0",
      "logs": [
        {
          "address": "0xf0e5c2de79e3ed66ed9322c4545d30551d048fd0",
          "topics": [
            "0x8faa70878671ccd212d20771b795c50af8fd3ff6cf27f4bde57e5d4de0aeb673"
          ],
          "data": "0x0000000000000000000000000000000000000000000000000000000000000060000000000000000000000000a84b989e52be6c8fc464b3e468ed75c2ebc4f96a0000000000000000000000000000000000000000000000000000000000000200000000000000000000000000000000000000000000000000000000000000000100000000000000000000000000000000000000000000000000000000000000200000000000000000000000007cd9e7227a3223bc8c4bd25d15391a7b995f9b9e0000000000000000000000000000000000000000000000000000000000000003000000000000000000000000000000000000000000000000000000000000006000000000000000000000000000000000000000000000000000000000000000079a1f46e200000000000000000000000000000000000000000000000000000000b99b4370000000000000000000000000000000000000000000000000000000006871eb4d00000000000000000000000000000000000000000000000000000000a230c524000000000000000000000000000000000000000000000000000000000331383c0000000000000000000000000000000000000000000000000000000028c309e90000000000000000000000000000000000000000000000000000000060f8dd7e000000000000000000000000000000000000000000000000000000000000000000000000000000000000000000000000000000000000000000000004e1c7392a00000000000000000000000000000000000000000000000000000000",
          "blockHash": "0xa4e7b4f24c47a73ec0806df1007d933defc48761c17dfce44b049adb100283dd",
          "blockNumber": "0x2a2c309",
          "blockTimestamp": "0x6a1c61be",
          "transactionHash": "0xeb38b57d3902cbbd72bea4a2ef8a09b91069da21f3ff1d4125e1a82cc400e9b0",
          "transactionIndex": "0x4",
          "logIndex": "0x3",
          "removed": false
        }
      ],
      "logsBloom": "0x00000000000000000000000000000000000000000000000000000000000000000000000000000000000000000000000000000000000000000000000000000000000000000000000000000000000000000000000001000000000800000000000000000000000000000000000000000000000000000000000000000000000000000020000000000000000000000000000000000000000000000000000000008000000000000000000000000000000000000000000000000000000000000000000000000000000000000000008000000000000000000000000000000000000000000000000000000000000100000000000000000000000000000000000000000000",
      "type": "0x2",
      "transactionHash": "0xeb38b57d3902cbbd72bea4a2ef8a09b91069da21f3ff1d4125e1a82cc400e9b0",
      "transactionIndex": "0x4",
      "blockHash": "0xa4e7b4f24c47a73ec0806df1007d933defc48761c17dfce44b049adb100283dd",
      "blockNumber": "0x2a2c309",
      "gasUsed": "0x1c6a7",
      "effectiveGasPrice": "0xfb",
      "blobGasUsed": "0x14cd0",
      "from": "0xb05a948b5c1b057b88d381bde3a375efea87ebad",
      "to": "0xf0e5c2de79e3ed66ed9322c4545d30551d048fd0",
      "contractAddress": null,
      "daFootprintGasScalar": "0x190",
      "l1BaseFeeScalar": "0x1db0",
      "l1BlobBaseFee": "0x554ef66",
      "l1BlobBaseFeeScalar": "0xd2730",
      "l1Fee": "0xcfd6abfb9",
      "l1GasPrice": "0x5a5d242e",
      "l1GasUsed": "0xd56"
    },
    {
      "status": "0x1",
      "cumulativeGasUsed": "0xb0175",
      "logs": [],
      "logsBloom": "0x00000000000000000000000000000000000000000000000000000000000000000000000000000000000000000000000000000000000000000000000000000000000000000000000000000000000000000000000000000000000000000000000000000000000000000000000000000000000000000000000000000000000000000000000000000000000000000000000000000000000000000000000000000000000000000000000000000000000000000000000000000000000000000000000000000000000000000000000000000000000000000000000000000000000000000000000000000000000000000000000000000000000000000000000000000000",
      "type": "0x2",
      "transactionHash": "0x189eb8b808ac09c91c04e1028924aab662c6a26c7f877a0921a251aa96808f11",
      "transactionIndex": "0x5",
      "blockHash": "0xa4e7b4f24c47a73ec0806df1007d933defc48761c17dfce44b049adb100283dd",
      "blockNumber": "0x2a2c309",
      "gasUsed": "0x33285",
      "effectiveGasPrice": "0xfb",
      "blobGasUsed": "0x45880",
      "from": "0xb05a948b5c1b057b88d381bde3a375efea87ebad",
      "to": "0xec8824e9a9498520891ec678e98c5bd3e65229c2",
      "contractAddress": null,
      "daFootprintGasScalar": "0x190",
      "l1BaseFeeScalar": "0x1db0",
      "l1BlobBaseFee": "0x554ef66",
      "l1BlobBaseFeeScalar": "0xd2730",
      "l1Fee": "0x2b640926e9",
      "l1GasPrice": "0x5a5d242e",
      "l1GasUsed": "0x2c8c"
    }
  ],
  "libraries": [
    "pkg/contracts/src/CVStrategy/ConvictionsUtils.sol:ConvictionsUtils:0x36EAc4Ca8389E35D66978e94c811F959e5A158f2",
    "pkg/contracts/src/CVStrategy/PowerManagementUtils.sol:PowerManagementUtils:0xB07d76F6001Cc62739d39cb0C5E9c58E08230486"
  ],
  "pending": [],
  "returns": {},
  "timestamp": 1780244927667,
  "chain": 11155420,
  "commit": "4bc7b8d39"
}