{
  "transactions": [
    {
      "hash": "0x25f6422099c3fc2fda208dbf300ecb5dbf75dd5c6ebdb4d9b772088f49c2a60f",
      "transactionType": "CREATE",
      "contractName": "GlobalPauseController",
      "contractAddress": "0xc586ad5b581d0bab9c06c5abba3ceb855f6293f9",
      "function": null,
      "arguments": null,
      "transaction": {
        "from": "0x04e1ec75c9fada2ff30e309e11cb5d2437dc3d4a",
        "gas": "0x18cdd0",
        "value": "0x0",
        "input": "0x60a060405230608052348015610013575f80fd5b5061001c610021565b6100dd565b5f54610100900460ff161561008c5760405162461bcd60e51b815260206004820152602760248201527f496e697469616c697a61626c653a20636f6e747261637420697320696e697469604482015266616c697a696e6760c81b606482015260840160405180910390fd5b5f5460ff908116146100db575f805460ff191660ff9081179091556040519081527f7f26b83ff96e1f2b6a682f133852f6798a09c465da95921460cefb38474024989060200160405180910390a15b565b6080516114f76101115f395f818161033801528181610381015281816104c501528181610505015261058001526114f75ff3fe6080604052600436106100c2575f3560e01c8063025313a2146100c65780631d9ca3ad146100f757806331947ea4146101425780633659cfe614610161578063439d27ae146101825780634f1ef286146101a157806352d1902d146101b45780635686c94b146101c857806357b001f9146101e75780635b14f18314610206578063715018a61461023557806374b896f11461024957806382203684146102685780638da5cb5b14610287578063c4d66de81461029b578063f2fde38b146102ba575b5f80fd5b3480156100d1575f80fd5b506100da6102d9565b6040516001600160a01b0390911681526020015b60405180910390f35b348015610102575f80fd5b506101346101113660046110fe565b6001600160a01b03165f908152606560205260409020546001600160401b031690565b6040519081526020016100ee565b34801561014d575f80fd5b5061013461015c366004611130565b6102f1565b34801561016c575f80fd5b5061018061017b3660046110fe565b61032e565b005b34801561018d575f80fd5b5061018061019c366004611130565b6103fe565b6101806101af366004611177565b6104bb565b3480156101bf575f80fd5b50610134610574565b3480156101d3575f80fd5b506101806101e2366004611234565b610620565b3480156101f2575f80fd5b506101806102013660046110fe565b61070c565b348015610211575f80fd5b506102256102203660046110fe565b6107b2565b60405190151581526020016100ee565b348015610240575f80fd5b506101806107dc565b348015610254575f80fd5b50610225610263366004611130565b6107ef565b348015610273575f80fd5b5061018061028236600461126f565b61086c565b348015610292575f80fd5b506100da61093e565b3480156102a6575f80fd5b506101806102b53660046110fe565b6109d1565b3480156102c5575f80fd5b506101806102d43660046110fe565b610a9d565b5f6102ec6033546001600160a01b031690565b905090565b6001600160a01b0382165f9081526066602090815260408083206001600160e01b0319851684529091529020546001600160401b03165b92915050565b6001600160a01b037f000000000000000000000000000000000000000000000000000000000000000016300361037f5760405162461bcd60e51b815260040161037690611299565b60405180910390fd5b7f00000000000000000000000000000000000000000000000000000000000000006001600160a01b03166103b1610b13565b6001600160a01b0316146103d75760405162461bcd60e51b8152600401610376906112d2565b6103e081610b2e565b604080515f808252602082019092526103fb91839190610b69565b50565b81336001600160a01b03821614801590610431575061041b61093e565b6001600160a01b0316336001600160a01b031614155b1561045357338160405163c55ddc9760e01b815260040161037692919061130b565b6001600160a01b0383165f8181526066602090815260408083206001600160e01b03198716808552925280832080546001600160401b031916905551339391927fcb9a4273234cef036302892c067ab7fde730302d29fee81a12c0e020a57b63df91a4505050565b6001600160a01b037f00000000000000000000000000000000000000000000000000000000000000001630036105035760405162461bcd60e51b815260040161037690611299565b7f00000000000000000000000000000000000000000000000000000000000000006001600160a01b0316610535610b13565b6001600160a01b03161461055b5760405162461bcd60e51b8152600401610376906112d2565b61056482610b2e565b61057082826001610b69565b5050565b5f306001600160a01b037f0000000000000000000000000000000000000000000000000000000000000000161461060e5760405162461bcd60e51b815260206004820152603860248201527f555550535570677261646561626c653a206d757374206e6f742062652063616c6044820152771b1959081d1a1c9bdd59da0819195b1959d85d1958d85b1b60421b6064820152608401610376565b505f805160206114a483398151915290565b82336001600160a01b03821614801590610653575061063d61093e565b6001600160a01b0316336001600160a01b031614155b1561067557338160405163c55ddc9760e01b815260040161037692919061130b565b5f61067f83610cd8565b6001600160a01b0386165f8181526066602090815260408083206001600160e01b03198a1680855292529182902080546001600160401b0319166001600160401b038616179055905192935033929091907f85e468b6520d26c1d45d1699c02efa04cd7787d7960fd2d3dbd69b835b5aff9c906106fd908690611325565b60405180910390a45050505050565b80336001600160a01b0382161480159061073f575061072961093e565b6001600160a01b0316336001600160a01b031614155b1561076157338160405163c55ddc9760e01b815260040161037692919061130b565b6001600160a01b0382165f8181526065602052604080822080546001600160401b0319169055513392917fe75bd2f4e085035cb076a23a04d31eefcbf6484661f9fd2a45662c3cc98bafbb91a35050565b6001600160a01b0381165f90815260656020526040812054610328906001600160401b0316610d44565b6107e4610d69565b6107ed5f610dc8565b565b6001600160a01b0382165f90815260656020526040812054610819906001600160401b0316610d44565b1561082657506001610328565b6001600160a01b0383165f9081526066602090815260408083206001600160e01b031986168452909152902054610865906001600160401b0316610d44565b9392505050565b81336001600160a01b0382161480159061089f575061088961093e565b6001600160a01b0316336001600160a01b031614155b156108c157338160405163c55ddc9760e01b815260040161037692919061130b565b5f6108cb83610cd8565b6001600160a01b0385165f818152606560205260409081902080546001600160401b0319166001600160401b0385161790555191925033917fc67a460952f72218b1026a0b33b66645237e4b9c63bac963fb9fe18c9d1d1bd190610930908590611325565b60405180910390a350505050565b5f6109476102d9565b6001600160a01b03163b5f0361095f576102ec6102d9565b6109676102d9565b6001600160a01b0316638da5cb5b6040518163ffffffff1660e01b8152600401602060405180830381865afa9250505080156109c0575060408051601f3d908101601f191682019092526109bd91810190611339565b60015b6109cc576102ec6102d9565b919050565b5f54610100900460ff16158080156109ef57505f54600160ff909116105b80610a0f57506109fe30610e19565b158015610a0f57505f5460ff166001145b610a2b5760405162461bcd60e51b815260040161037690611354565b5f805460ff191660011790558015610a4c575f805461ff0019166101001790555b610a5582610e28565b8015610570575f805461ff0019169055604051600181527f7f26b83ff96e1f2b6a682f133852f6798a09c465da95921460cefb38474024989060200160405180910390a15050565b610aa5610d69565b6001600160a01b038116610b0a5760405162461bcd60e51b815260206004820152602660248201527f4f776e61626c653a206e6577206f776e657220697320746865207a65726f206160448201526564647265737360d01b6064820152608401610376565b6103fb81610dc8565b5f805160206114a4833981519152546001600160a01b031690565b33610b3761093e565b6001600160a01b0316146103fb5733610b4e61093e565b60405163163678e960e01b815260040161037692919061130b565b7f4910fdfa16fed3260ed0e7147f7cc6da11a60208b5b9406d12a635614ffd91435460ff1615610ba157610b9c83610eac565b505050565b826001600160a01b03166352d1902d6040518163ffffffff1660e01b8152600401602060405180830381865afa925050508015610bfb575060408051601f3d908101601f19168201909252610bf8918101906113a2565b60015b610c5e5760405162461bcd60e51b815260206004820152602e60248201527f45524331393637557067726164653a206e657720696d706c656d656e7461746960448201526d6f6e206973206e6f74205555505360901b6064820152608401610376565b5f805160206114a48339815191528114610ccc5760405162461bcd60e51b815260206004820152602960248201527f45524331393637557067726164653a20756e737570706f727465642070726f786044820152681a58589b195555525160ba1b6064820152608401610376565b50610b9c838383610f45565b5f815f03610cfc576040516313b783af60e21b815260048101839052602401610376565b42610d0e816001600160401b036113cd565b6001600160401b0316831115610d3a576040516313b783af60e21b815260048101849052602401610376565b61086583826113f4565b5f6001600160401b03821615801590610328575050426001600160401b039091161190565b33610d7261093e565b6001600160a01b0316146107ed5760405162461bcd60e51b815260206004820181905260248201527f4f776e61626c653a2063616c6c6572206973206e6f7420746865206f776e65726044820152606401610376565b603380546001600160a01b038381166001600160a01b0319831681179093556040519116919082907f8be0079c531659141344cd1fd0a4f28419497f9722a3daafe3b4186f6b6457e0905f90a35050565b6001600160a01b03163b151590565b5f54610100900460ff1615808015610e4657505f54600160ff909116105b80610e665750610e5530610e19565b158015610e6657505f5460ff166001145b610e825760405162461bcd60e51b815260040161037690611354565b5f805460ff191660011790558015610ea3575f805461ff0019166101001790555b610a5582610dc8565b610eb581610e19565b610f175760405162461bcd60e51b815260206004820152602d60248201527f455243313936373a206e657720696d706c656d656e746174696f6e206973206e60448201526c1bdd08184818dbdb9d1c9858dd609a1b6064820152608401610376565b5f805160206114a483398151915280546001600160a01b0319166001600160a01b0392909216919091179055565b610f4e83610f6f565b5f82511180610f5a5750805b15610b9c57610f698383610fae565b50505050565b610f7881610eac565b6040516001600160a01b038216907fbc7cd75a20ee27fd9adebab32041f755214dbc6bffa90cc0225b39da2e5c2d3b905f90a250565b606061086583836040518060600160405280602781526020016114c46027913960605f80856001600160a01b031685604051610fea9190611436565b5f60405180830381855af49150503d805f8114611022576040519150601f19603f3d011682016040523d82523d5f602084013e611027565b606091505b509150915061103886838387611042565b9695505050505050565b606083156110ae5782515f036110a75761105b85610e19565b6110a75760405162461bcd60e51b815260206004820152601d60248201527f416464726573733a2063616c6c20746f206e6f6e2d636f6e74726163740000006044820152606401610376565b50816110b8565b6110b883836110c0565b949350505050565b8151156110d05781518083602001fd5b8060405162461bcd60e51b81526004016103769190611451565b6001600160a01b03811681146103fb575f80fd5b5f6020828403121561110e575f80fd5b8135610865816110ea565b80356001600160e01b0319811681146109cc575f80fd5b5f8060408385031215611141575f80fd5b823561114c816110ea565b915061115a60208401611119565b90509250929050565b634e487b7160e01b5f52604160045260245ffd5b5f8060408385031215611188575f80fd5b8235611193816110ea565b915060208301356001600160401b03808211156111ae575f80fd5b818501915085601f8301126111c1575f80fd5b8135818111156111d3576111d3611163565b604051601f8201601f19908116603f011681019083821181831017156111fb576111fb611163565b81604052828152886020848701011115611213575f80fd5b826020860160208301375f6020848301015280955050505050509250929050565b5f805f60608486031215611246575f80fd5b8335611251816110ea565b925061125f60208501611119565b9150604084013590509250925092565b5f8060408385031215611280575f80fd5b823561128b816110ea565b946020939093013593505050565b6020808252602c908201525f8051602061148483398151915260408201526b19195b1959d85d1958d85b1b60a21b606082015260800190565b6020808252602c908201525f8051602061148483398151915260408201526b6163746976652070726f787960a01b606082015260800190565b6001600160a01b0392831681529116602082015260400190565b6001600160401b0391909116815260200190565b5f60208284031215611349575f80fd5b8151610865816110ea565b6020808252602e908201527f496e697469616c697a61626c653a20636f6e747261637420697320616c72656160408201526d191e481a5b9a5d1a585b1a5e995960921b606082015260800190565b5f602082840312156113b2575f80fd5b5051919050565b634e487b7160e01b5f52601160045260245ffd5b6001600160401b038281168282160390808211156113ed576113ed6113b9565b5092915050565b6001600160401b038181168382160190808211156113ed576113ed6113b9565b5f5b8381101561142e578181015183820152602001611416565b50505f910152565b5f8251611447818460208701611414565b9190910192915050565b602081525f825180602084015261146f816040850160208701611414565b601f01601f1916919091016040019291505056fe46756e6374696f6e206d7573742062652063616c6c6564207468726f75676820360894a13ba1a3210667c828492db98dca3e2076cc3735a920a3ca505d382bbc416464726573733a206c6f772d6c6576656c2064656c65676174652063616c6c206661696c6564a164736f6c6343000817000a",
        "nonce": "0x17",
        "chainId": "0x66eee"
      },
      "additionalContracts": [],
      "isFixedGasLimit": false
    },
    {
      "hash": "0xa2a44625bdd8cde3b0312051c45bf8d051400e99380598e53d56217f6d195e26",
      "transactionType": "CREATE",
      "contractName": "ERC1967Proxy",
      "contractAddress": "0x52eb55d347d6ee07c4bf6bf1d9ad29460f0a91c3",
      "function": null,
      "arguments": [
        "0xC586aD5B581D0bab9c06c5abBA3CEB855f6293F9",
        "0xc4d66de8000000000000000000000000333837ec0d4f3d9b3df0216996a148b46ce3541b"
      ],
      "transaction": {
        "from": "0x04e1ec75c9fada2ff30e309e11cb5d2437dc3d4a",
        "gas": "0x37cca",
        "value": "0x0",
        "input": "0x60806040526040516104a63803806104a6833981016040819052610022916102dd565b61002d82825f610034565b50506103f2565b61003d8361005f565b5f825111806100495750805b1561005a57610058838361009e565b505b505050565b610068816100ca565b6040516001600160a01b038216907fbc7cd75a20ee27fd9adebab32041f755214dbc6bffa90cc0225b39da2e5c2d3b905f90a250565b60606100c3838360405180606001604052806027815260200161047f6027913961017b565b9392505050565b6100d3816101f0565b61013a5760405162461bcd60e51b815260206004820152602d60248201527f455243313936373a206e657720696d706c656d656e746174696f6e206973206e60448201526c1bdd08184818dbdb9d1c9858dd609a1b60648201526084015b60405180910390fd5b7f360894a13ba1a3210667c828492db98dca3e2076cc3735a920a3ca505d382bbc80546001600160a01b0319166001600160a01b0392909216919091179055565b60605f80856001600160a01b03168560405161019791906103a5565b5f60405180830381855af49150503d805f81146101cf576040519150601f19603f3d011682016040523d82523d5f602084013e6101d4565b606091505b5090925090506101e6868383876101ff565b9695505050505050565b6001600160a01b03163b151590565b6060831561026b5782515f0361026457610218856101f0565b6102645760405162461bcd60e51b815260206004820152601d60248201527f416464726573733a2063616c6c20746f206e6f6e2d636f6e74726163740000006044820152606401610131565b5081610275565b610275838361027d565b949350505050565b81511561028d5781518083602001fd5b8060405162461bcd60e51b815260040161013191906103c0565b634e487b7160e01b5f52604160045260245ffd5b5f5b838110156102d55781810151838201526020016102bd565b50505f910152565b5f80604083850312156102ee575f80fd5b82516001600160a01b0381168114610304575f80fd5b60208401519092506001600160401b0380821115610320575f80fd5b818501915085601f830112610333575f80fd5b815181811115610345576103456102a7565b604051601f8201601f19908116603f0116810190838211818310171561036d5761036d6102a7565b81604052828152886020848701011115610385575f80fd5b6103968360208301602088016102bb565b80955050505050509250929050565b5f82516103b68184602087016102bb565b9190910192915050565b602081525f82518060208401526103de8160408501602087016102bb565b601f01601f19169190910160400192915050565b6081806103fe5f395ff3fe608060405236601057600e6013565b005b600e5b601f601b6021565b6057565b565b5f60527f360894a13ba1a3210667c828492db98dca3e2076cc3735a920a3ca505d382bbc546001600160a01b031690565b905090565b365f80375f80365f845af43d5f803e8080156070573d5ff35b3d5ffdfea164736f6c6343000817000a416464726573733a206c6f772d6c6576656c2064656c65676174652063616c6c206661696c6564000000000000000000000000c586ad5b581d0bab9c06c5abba3ceb855f6293f900000000000000000000000000000000000000000000000000000000000000400000000000000000000000000000000000000000000000000000000000000024c4d66de8000000000000000000000000333837ec0d4f3d9b3df0216996a148b46ce3541b00000000000000000000000000000000000000000000000000000000",
        "nonce": "0x18",
        "chainId": "0x66eee"
      },
      "additionalContracts": [],
      "isFixedGasLimit": false
    },
    {
      "hash": "0xcf3e5d20ae21078e3b23d1dcb96801b83e417001ae664aa98453a8dc15f5041e",
      "transactionType": "CALL",
      "contractName": null,
      "contractAddress": "0x0418f78ec03c974ca5b88463f4a5da3e2333c4ab",
      "function": "setPauseController(address)",
      "arguments": [
        "0x52EB55d347D6EE07c4BF6bF1D9aD29460F0A91C3"
      ],
      "transaction": {
        "from": "0x04e1ec75c9fada2ff30e309e11cb5d2437dc3d4a",
        "to": "0x0418f78ec03c974ca5b88463f4a5da3e2333c4ab",
        "gas": "0x1e699",
        "value": "0x0",
        "input": "0x1add1a0d00000000000000000000000052eb55d347d6ee07c4bf6bf1d9ad29460f0a91c3",
        "nonce": "0x19",
        "chainId": "0x66eee"
      },
      "additionalContracts": [],
      "isFixedGasLimit": false
    },
    {
      "hash": "0xff82851c20a9d9ad7c3f0004cfe3eb8ec918cebd6f89376c0b318841b38ccc62",
      "transactionType": "CALL",
      "contractName": "ERC1967Proxy",
      "contractAddress": "0x0dce74cf0ccef1fff89469f3befc08806f8e4a3b",
      "function": null,
      "arguments": null,
      "transaction": {
        "from": "0x04e1ec75c9fada2ff30e309e11cb5d2437dc3d4a",
        "to": "0x0dce74cf0ccef1fff89469f3befc08806f8e4a3b",
        "gas": "0x1e699",
        "value": "0x0",
        "input": "0x1add1a0d00000000000000000000000052eb55d347d6ee07c4bf6bf1d9ad29460f0a91c3",
        "nonce": "0x1a",
        "chainId": "0x66eee"
      },
      "additionalContracts": [],
      "isFixedGasLimit": false
    },
    {
      "hash": "0x053e533a95e08072fb0986e58f2d11b703346907dce0e8192752fe40d7158c20",
      "transactionType": "CALL",
      "contractName": null,
      "contractAddress": "0x16a8d4fc921b8b1cc8729f4da72745e950499296",
      "function": "setPauseController(address)",
      "arguments": [
        "0x52EB55d347D6EE07c4BF6bF1D9aD29460F0A91C3"
      ],
      "transaction": {
        "from": "0x04e1ec75c9fada2ff30e309e11cb5d2437dc3d4a",
        "to": "0x16a8d4fc921b8b1cc8729f4da72745e950499296",
        "gas": "0x1e6be",
        "value": "0x0",
        "input": "0x1add1a0d00000000000000000000000052eb55d347d6ee07c4bf6bf1d9ad29460f0a91c3",
        "nonce": "0x1b",
        "chainId": "0x66eee"
      },
      "additionalContracts": [],
      "isFixedGasLimit": false
    },
    {
      "hash": "0xaa414453c7941985f18c378dbb6aeb82ca6c3d8ba4eeea222001e8b02e9af4a0",
      "transactionType": "CALL",
      "contractName": null,
      "contractAddress": "0x2f8a9454de2e74bc9a0761703b3f7da0470b1e56",
      "function": "setPauseController(address)",
      "arguments": [
        "0x52EB55d347D6EE07c4BF6bF1D9aD29460F0A91C3"
      ],
      "transaction": {
        "from": "0x04e1ec75c9fada2ff30e309e11cb5d2437dc3d4a",
        "to": "0x2f8a9454de2e74bc9a0761703b3f7da0470b1e56",
        "gas": "0x1e699",
        "value": "0x0",
        "input": "0x1add1a0d00000000000000000000000052eb55d347d6ee07c4bf6bf1d9ad29460f0a91c3",
        "nonce": "0x1c",
        "chainId": "0x66eee"
      },
      "additionalContracts": [],
      "isFixedGasLimit": false
    },
    {
      "hash": "0x67b383b3b380ff320ed0db99caf1e4d63b73b906bab4481fb4a5adeb5102057f",
      "transactionType": "CALL",
      "contractName": null,
      "contractAddress": "0x8036ac3d1685e3603b8a0418e7e1ee033b794485",
      "function": "setPauseController(address)",
      "arguments": [
        "0x52EB55d347D6EE07c4BF6bF1D9aD29460F0A91C3"
      ],
      "transaction": {
        "from": "0x04e1ec75c9fada2ff30e309e11cb5d2437dc3d4a",
        "to": "0x8036ac3d1685e3603b8a0418e7e1ee033b794485",
        "gas": "0x1e6be",
        "value": "0x0",
        "input": "0x1add1a0d00000000000000000000000052eb55d347d6ee07c4bf6bf1d9ad29460f0a91c3",
        "nonce": "0x1d",
        "chainId": "0x66eee"
      },
      "additionalContracts": [],
      "isFixedGasLimit": false
    },
    {
      "hash": "0x31ba49e5f2bd13e2962618c9104a42295425cc74b61cf23328ca5f5aeb6cb254",
      "transactionType": "CALL",
      "contractName": null,
      "contractAddress": "0x88efb94f3c0ac2d31efcede444264caf8d594ab8",
      "function": "setPauseController(address)",
      "arguments": [
        "0x52EB55d347D6EE07c4BF6bF1D9aD29460F0A91C3"
      ],
      "transaction": {
        "from": "0x04e1ec75c9fada2ff30e309e11cb5d2437dc3d4a",
        "to": "0x88efb94f3c0ac2d31efcede444264caf8d594ab8",
        "gas": "0x1e6be",
        "value": "0x0",
        "input": "0x1add1a0d00000000000000000000000052eb55d347d6ee07c4bf6bf1d9ad29460f0a91c3",
        "nonce": "0x1e",
        "chainId": "0x66eee"
      },
      "additionalContracts": [],
      "isFixedGasLimit": false
    },
    {
      "hash": "0xb17c7140c365d3a6f4a23b85cb5f0cd8f7374dc55df799da90e00821234c13f1",
      "transactionType": "CALL",
      "contractName": null,
      "contractAddress": "0x8b8732dac9c30ac89bf660b99fb90000d826ab83",
      "function": "setPauseController(address)",
      "arguments": [
        "0x52EB55d347D6EE07c4BF6bF1D9aD29460F0A91C3"
      ],
      "transaction": {
        "from": "0x04e1ec75c9fada2ff30e309e11cb5d2437dc3d4a",
        "to": "0x8b8732dac9c30ac89bf660b99fb90000d826ab83",
        "gas": "0x1e699",
        "value": "0x0",
        "input": "0x1add1a0d00000000000000000000000052eb55d347d6ee07c4bf6bf1d9ad29460f0a91c3",
        "nonce": "0x1f",
        "chainId": "0x66eee"
      },
      "additionalContracts": [],
      "isFixedGasLimit": false
    },
    {
      "hash": "0xb959342918db83e0c2f2352e1037ba7de9c925da9e4f8faba46334e6beb3523e",
      "transactionType": "CALL",
      "contractName": null,
      "contractAddress": "0xa488ac456c7c5964af7d323b7ce795d02e7c5154",
      "function": "setPauseController(address)",
      "arguments": [
        "0x52EB55d347D6EE07c4BF6bF1D9aD29460F0A91C3"
      ],
      "transaction": {
        "from": "0x04e1ec75c9fada2ff30e309e11cb5d2437dc3d4a",
        "to": "0xa488ac456c7c5964af7d323b7ce795d02e7c5154",
        "gas": "0x1e699",
        "value": "0x0",
        "input": "0x1add1a0d00000000000000000000000052eb55d347d6ee07c4bf6bf1d9ad29460f0a91c3",
        "nonce": "0x20",
        "chainId": "0x66eee"
      },
      "additionalContracts": [],
      "isFixedGasLimit": false
    },
    {
      "hash": "0x075980ad1b65266bf4e2ba58c168e1a4baedfc48b62123dede95c8eb2866fb1d",
      "transactionType": "CALL",
      "contractName": null,
      "contractAddress": "0xa502fffb9082700cad62366bc6ce37b15207680f",
      "function": "setPauseController(address)",
      "arguments": [
        "0x52EB55d347D6EE07c4BF6bF1D9aD29460F0A91C3"
      ],
      "transaction": {
        "from": "0x04e1ec75c9fada2ff30e309e11cb5d2437dc3d4a",
        "to": "0xa502fffb9082700cad62366bc6ce37b15207680f",
        "gas": "0x1e699",
        "value": "0x0",
        "input": "0x1add1a0d00000000000000000000000052eb55d347d6ee07c4bf6bf1d9ad29460f0a91c3",
        "nonce": "0x21",
        "chainId": "0x66eee"
      },
      "additionalContracts": [],
      "isFixedGasLimit": false
    },
    {
      "hash": "0x5c8064299d7eea6774402600bfeb6b0b4a1243b3061e48764843e22901295e14",
      "transactionType": "CALL",
      "contractName": null,
      "contractAddress": "0xb1f9ed8b752e81fcb0b9482e475c7035043f5994",
      "function": "setPauseController(address)",
      "arguments": [
        "0x52EB55d347D6EE07c4BF6bF1D9aD29460F0A91C3"
      ],
      "transaction": {
        "from": "0x04e1ec75c9fada2ff30e309e11cb5d2437dc3d4a",
        "to": "0xb1f9ed8b752e81fcb0b9482e475c7035043f5994",
        "gas": "0x1e699",
        "value": "0x0",
        "input": "0x1add1a0d00000000000000000000000052eb55d347d6ee07c4bf6bf1d9ad29460f0a91c3",
        "nonce": "0x22",
        "chainId": "0x66eee"
      },
      "additionalContracts": [],
      "isFixedGasLimit": false
    },
    {
      "hash": "0xc6b264f6651e507b80201873ed9d115e306ead098892a45dbfdda2c07cc32caa",
      "transactionType": "CALL",
      "contractName": null,
      "contractAddress": "0xbe7b830623707babc4b46ff73279c73e2d1bc177",
      "function": "setPauseController(address)",
      "arguments": [
        "0x52EB55d347D6EE07c4BF6bF1D9aD29460F0A91C3"
      ],
      "transaction": {
        "from": "0x04e1ec75c9fada2ff30e309e11cb5d2437dc3d4a",
        "to": "0xbe7b830623707babc4b46ff73279c73e2d1bc177",
        "gas": "0x1e699",
        "value": "0x0",
        "input": "0x1add1a0d00000000000000000000000052eb55d347d6ee07c4bf6bf1d9ad29460f0a91c3",
        "nonce": "0x23",
        "chainId": "0x66eee"
      },
      "additionalContracts": [],
      "isFixedGasLimit": false
    },
    {
      "hash": "0x7b5718922612dbe4c776c40c2a6348a9ef5ed9837dd964817b899f30e0ee6a75",
      "transactionType": "CALL",
      "contractName": null,
      "contractAddress": "0xc219730ec703c9525748c3b80184d57f1d57699b",
      "function": "setPauseController(address)",
      "arguments": [
        "0x52EB55d347D6EE07c4BF6bF1D9aD29460F0A91C3"
      ],
      "transaction": {
        "from": "0x04e1ec75c9fada2ff30e309e11cb5d2437dc3d4a",
        "to": "0xc219730ec703c9525748c3b80184d57f1d57699b",
        "gas": "0x1e699",
        "value": "0x0",
        "input": "0x1add1a0d00000000000000000000000052eb55d347d6ee07c4bf6bf1d9ad29460f0a91c3",
        "nonce": "0x24",
        "chainId": "0x66eee"
      },
      "additionalContracts": [],
      "isFixedGasLimit": false
    },
    {
      "hash": "0x6fb3d4047563fe0e0d4dbd4496c851617989444aa14df7622d1cbb0aa3c35e71",
      "transactionType": "CALL",
      "contractName": "ERC1967Proxy",
      "contractAddress": "0xf42f88c13804147b2fdda13c093ce14219aea395",
      "function": null,
      "arguments": null,
      "transaction": {
        "from": "0x04e1ec75c9fada2ff30e309e11cb5d2437dc3d4a",
        "to": "0xf42f88c13804147b2fdda13c093ce14219aea395",
        "gas": "0xefb2",
        "value": "0x0",
        "input": "0xcd5a834900000000000000000000000052eb55d347d6ee07c4bf6bf1d9ad29460f0a91c3",
        "nonce": "0x25",
        "chainId": "0x66eee"
      },
      "additionalContracts": [],
      "isFixedGasLimit": false
    }
  ],
  "receipts": [
    {
      "status": "0x1",
      "cumulativeGasUsed": "0x16124f",
      "logs": [
        {
          "address": "0xc586ad5b581d0bab9c06c5abba3ceb855f6293f9",
          "topics": [
            "0x7f26b83ff96e1f2b6a682f133852f6798a09c465da95921460cefb3847402498"
          ],
          "data": "0x00000000000000000000000000000000000000000000000000000000000000ff",
          "blockHash": "0x58b29b5c08533084b868e2f04f8a87add83140dc12a0d853b59320f471e7032d",
          "blockNumber": "0xf2b81f5",
          "blockTimestamp": "0x69c85294",
          "transactionHash": "0x25f6422099c3fc2fda208dbf300ecb5dbf75dd5c6ebdb4d9b772088f49c2a60f",
          "transactionIndex": "0x2",
          "logIndex": "0x1",
          "removed": false
        }
      ],
      "logsBloom": "0x00000000000000000000000000000000000000000000000000000000000000000000000000000000000000000000000000000000000000000000000000000000000000000000000000000000000000000000000000000000100000000000000000000000000000000000000000000000000000000000000000000000000000000000000000000000000000000000000000000000000080000000000000020000000008000000000000000000000400000000000000000000000000000000000000000000000000000000000000040000000000000000000000000000000000000000000000000000000000000000000000000000000000000000000000000000",
      "type": "0x2",
      "transactionHash": "0x25f6422099c3fc2fda208dbf300ecb5dbf75dd5c6ebdb4d9b772088f49c2a60f",
      "transactionIndex": "0x2",
      "blockHash": "0x58b29b5c08533084b868e2f04f8a87add83140dc12a0d853b59320f471e7032d",
      "blockNumber": "0xf2b81f5",
      "gasUsed": "0x12e97d",
      "effectiveGasPrice": "0x1312d00",
      "from": "0x04e1ec75c9fada2ff30e309e11cb5d2437dc3d4a",
      "to": null,
      "contractAddress": "0xc586ad5b581d0bab9c06c5abba3ceb855f6293f9",
      "gasUsedForL1": "0x0",
      "l1BlockNumber": "0xa0dd5c",
      "timeboosted": false
    },
    {
      "status": "0x1",
      "cumulativeGasUsed": "0x58879",
      "logs": [
        {
          "address": "0x52eb55d347d6ee07c4bf6bf1d9ad29460f0a91c3",
          "topics": [
            "0xbc7cd75a20ee27fd9adebab32041f755214dbc6bffa90cc0225b39da2e5c2d3b",
            "0x000000000000000000000000c586ad5b581d0bab9c06c5abba3ceb855f6293f9"
          ],
          "data": "0x",
          "blockHash": "0x3430beea3073da825c2b425e542ffbc25ae43bd385367e1c32ef808aca8e6e85",
          "blockNumber": "0xf2b81f6",
          "blockTimestamp": "0x69c85294",
          "transactionHash": "0xa2a44625bdd8cde3b0312051c45bf8d051400e99380598e53d56217f6d195e26",
          "transactionIndex": "0x3",
          "logIndex": "0x5",
          "removed": false
        },
        {
          "address": "0x52eb55d347d6ee07c4bf6bf1d9ad29460f0a91c3",
          "topics": [
            "0x8be0079c531659141344cd1fd0a4f28419497f9722a3daafe3b4186f6b6457e0",
            "0x0000000000000000000000000000000000000000000000000000000000000000",
            "0x000000000000000000000000333837ec0d4f3d9b3df0216996a148b46ce3541b"
          ],
          "data": "0x",
          "blockHash": "0x3430beea3073da825c2b425e542ffbc25ae43bd385367e1c32ef808aca8e6e85",
          "blockNumber": "0xf2b81f6",
          "blockTimestamp": "0x69c85294",
          "transactionHash": "0xa2a44625bdd8cde3b0312051c45bf8d051400e99380598e53d56217f6d195e26",
          "transactionIndex": "0x3",
          "logIndex": "0x6",
          "removed": false
        },
        {
          "address": "0x52eb55d347d6ee07c4bf6bf1d9ad29460f0a91c3",
          "topics": [
            "0x7f26b83ff96e1f2b6a682f133852f6798a09c465da95921460cefb3847402498"
          ],
          "data": "0x0000000000000000000000000000000000000000000000000000000000000001",
          "blockHash": "0x3430beea3073da825c2b425e542ffbc25ae43bd385367e1c32ef808aca8e6e85",
          "blockNumber": "0xf2b81f6",
          "blockTimestamp": "0x69c85294",
          "transactionHash": "0xa2a44625bdd8cde3b0312051c45bf8d051400e99380598e53d56217f6d195e26",
          "transactionIndex": "0x3",
          "logIndex": "0x7",
          "removed": false
        }
      ],
      "logsBloom": "0x00000040000000000000000100000000400000000000000000800000000000000000000000000000000000000000000000000000000000000000008000000000000000000000000000000000000002000001800000000000000000000000000000000000020000000000000000000800000000100000000000000000000000400000000000000000000000000000000000000000000080000100000000000000000000000000000000000000000400000000000000000000000000000000000000000020800000000000000000040000000000008000000000000000000020000000000000000000000000000000000002000000000000000000000000000000",
      "type": "0x2",
      "transactionHash": "0xa2a44625bdd8cde3b0312051c45bf8d051400e99380598e53d56217f6d195e26",
      "transactionIndex": "0x3",
      "blockHash": "0x3430beea3073da825c2b425e542ffbc25ae43bd385367e1c32ef808aca8e6e85",
      "blockNumber": "0xf2b81f6",
      "gasUsed": "0x2aec3",
      "effectiveGasPrice": "0x1312d00",
      "from": "0x04e1ec75c9fada2ff30e309e11cb5d2437dc3d4a",
      "to": null,
      "contractAddress": "0x52eb55d347d6ee07c4bf6bf1d9ad29460f0a91c3",
      "gasUsedForL1": "0x0",
      "l1BlockNumber": "0xa0dd5c",
      "timeboosted": false
    },
    {
      "status": "0x1",
      "cumulativeGasUsed": "0x305aa",
      "logs": [
        {
          "address": "0x0418f78ec03c974ca5b88463f4a5da3e2333c4ab",
          "topics": [
            "0x753b6c036896e564d6b8cfc7934ffd7ff1f0c8f82aabd101f0549db25b7971b6",
            "0x000000000000000000000000aae5dbc914ac1b794d4439880a0d4aad2d85a567"
          ],
          "data": "0x",
          "blockHash": "0x2d5af5de01b11004af0b26fb17edfcb7ab830addd3e8a9e099a3e703c5a71753",
          "blockNumber": "0xf2b81f7",
          "blockTimestamp": "0x69c85294",
          "transactionHash": "0xcf3e5d20ae21078e3b23d1dcb96801b83e417001ae664aa98453a8dc15f5041e",
          "transactionIndex": "0x2",
          "logIndex": "0x3",
          "removed": false
        },
        {
          "address": "0x0418f78ec03c974ca5b88463f4a5da3e2333c4ab",
          "topics": [
            "0x0146e1c9acb28e36c81f5635cb4ae73b05d0712996d2cc1b3823065e0e849403",
            "0x00000000000000000000000052eb55d347d6ee07c4bf6bf1d9ad29460f0a91c3"
          ],
          "data": "0x",
          "blockHash": "0x2d5af5de01b11004af0b26fb17edfcb7ab830addd3e8a9e099a3e703c5a71753",
          "blockNumber": "0xf2b81f7",
          "blockTimestamp": "0x69c85294",
          "transactionHash": "0xcf3e5d20ae21078e3b23d1dcb96801b83e417001ae664aa98453a8dc15f5041e",
          "transactionIndex": "0x2",
          "logIndex": "0x4",
          "removed": false
        }
      ],
      "logsBloom": "0x00000000000000000000000000000000000000000000000000000000020000000000000000000080000000000000000000000000000000800000000000000000000000000000000000000000000000000000000000000000400000080000000000000100000000000000000000020000000000000000000000800000000000000000000000001000000004000000000000000000001080000000000000000000000000000000000000000000000000000000000000000000000000000000000000000000000000000000020040000000000000000000000000000000000000000000000000000000000000000000000000000000000040000000000000000000",
      "type": "0x2",
      "transactionHash": "0xcf3e5d20ae21078e3b23d1dcb96801b83e417001ae664aa98453a8dc15f5041e",
      "transactionIndex": "0x2",
      "blockHash": "0x2d5af5de01b11004af0b26fb17edfcb7ab830addd3e8a9e099a3e703c5a71753",
      "blockNumber": "0xf2b81f7",
      "gasUsed": "0x16b25",
      "effectiveGasPrice": "0x13236a0",
      "from": "0x04e1ec75c9fada2ff30e309e11cb5d2437dc3d4a",
      "to": "0x0418f78ec03c974ca5b88463f4a5da3e2333c4ab",
      "contractAddress": null,
      "gasUsedForL1": "0x0",
      "l1BlockNumber": "0xa0dd5c",
      "timeboosted": false
    },
    {
      "status": "0x1",
      "cumulativeGasUsed": "0xbb214",
      "logs": [
        {
          "address": "0x0dce74cf0ccef1fff89469f3befc08806f8e4a3b",
          "topics": [
            "0x753b6c036896e564d6b8cfc7934ffd7ff1f0c8f82aabd101f0549db25b7971b6",
            "0x000000000000000000000000aae5dbc914ac1b794d4439880a0d4aad2d85a567"
          ],
          "data": "0x",
          "blockHash": "0x949aa78c6ec4cd6ebc0b073f85a9a791cef72bda46c94ae8d071b5f1630d99d5",
          "blockNumber": "0xf2b81f8",
          "blockTimestamp": "0x69c85295",
          "transactionHash": "0xff82851c20a9d9ad7c3f0004cfe3eb8ec918cebd6f89376c0b318841b38ccc62",
          "transactionIndex": "0x5",
          "logIndex": "0x6",
          "removed": false
        },
        {
          "address": "0x0dce74cf0ccef1fff89469f3befc08806f8e4a3b",
          "topics": [
            "0x0146e1c9acb28e36c81f5635cb4ae73b05d0712996d2cc1b3823065e0e849403",
            "0x00000000000000000000000052eb55d347d6ee07c4bf6bf1d9ad29460f0a91c3"
          ],
          "data": "0x",
          "blockHash": "0x949aa78c6ec4cd6ebc0b073f85a9a791cef72bda46c94ae8d071b5f1630d99d5",
          "blockNumber": "0xf2b81f8",
          "blockTimestamp": "0x69c85295",
          "transactionHash": "0xff82851c20a9d9ad7c3f0004cfe3eb8ec918cebd6f89376c0b318841b38ccc62",
          "transactionIndex": "0x5",
          "logIndex": "0x7",
          "removed": false
        }
      ],
      "logsBloom": "0x00000000000000000000000000000000000000000000000000000000020000000000000000000080000000000000000000000000000000800000000000000000000000000000000000000000000000000000000000000000400000080000000000000100000000000000000000000000000000000000000000800000000000000000000000001000000004000000000000000000001000000000000000000000000000000800000000000100000000000000000000000000000000000000000000000000000000000000020040000000000000000000000000000000000000000000000000000000000000000000080000000000000000000000000000000000",
      "type": "0x2",
      "transactionHash": "0xff82851c20a9d9ad7c3f0004cfe3eb8ec918cebd6f89376c0b318841b38ccc62",
      "transactionIndex": "0x5",
      "blockHash": "0x949aa78c6ec4cd6ebc0b073f85a9a791cef72bda46c94ae8d071b5f1630d99d5",
      "blockNumber": "0xf2b81f8",
      "gasUsed": "0x16b25",
      "effectiveGasPrice": "0x1327cf0",
      "from": "0x04e1ec75c9fada2ff30e309e11cb5d2437dc3d4a",
      "to": "0x0dce74cf0ccef1fff89469f3befc08806f8e4a3b",
      "contractAddress": null,
      "gasUsedForL1": "0x0",
      "l1BlockNumber": "0xa0dd5c",
      "timeboosted": false
    },
    {
      "status": "0x1",
      "cumulativeGasUsed": "0x16b41",
      "logs": [
        {
          "address": "0x16a8d4fc921b8b1cc8729f4da72745e950499296",
          "topics": [
            "0x753b6c036896e564d6b8cfc7934ffd7ff1f0c8f82aabd101f0549db25b7971b6",
            "0x000000000000000000000000aae5dbc914ac1b794d4439880a0d4aad2d85a567"
          ],
          "data": "0x",
          "blockHash": "0xe18989cb0f74e836bb146956cb5d5294293235ab92c4ed370dcc132b71ce93a5",
          "blockNumber": "0xf2b81fa",
          "blockTimestamp": "0x69c85295",
          "transactionHash": "0x053e533a95e08072fb0986e58f2d11b703346907dce0e8192752fe40d7158c20",
          "transactionIndex": "0x1",
          "logIndex": "0x0",
          "removed": false
        },
        {
          "address": "0x16a8d4fc921b8b1cc8729f4da72745e950499296",
          "topics": [
            "0x0146e1c9acb28e36c81f5635cb4ae73b05d0712996d2cc1b3823065e0e849403",
            "0x00000000000000000000000052eb55d347d6ee07c4bf6bf1d9ad29460f0a91c3"
          ],
          "data": "0x",
          "blockHash": "0xe18989cb0f74e836bb146956cb5d5294293235ab92c4ed370dcc132b71ce93a5",
          "blockNumber": "0xf2b81fa",
          "blockTimestamp": "0x69c85295",
          "transactionHash": "0x053e533a95e08072fb0986e58f2d11b703346907dce0e8192752fe40d7158c20",
          "transactionIndex": "0x1",
          "logIndex": "0x1",
          "removed": false
        }
      ],
      "logsBloom": "0x00000000000000000000001000000000000000000000000000000000020000000000000000000080000000000000000000000000000000800000000000000000000000000000000000000000000000000000000000000000400000080000000000000100000000000000000000100000000000000000000000800000000000000000000000001000000004000000000000800000001000000000000000000000000000000000000000000000000000000000000000000000000000000000000000000000000000000000020040000000000000000000000000000000000000000000000000000000000000000000000000000000000000000000000000000000",
      "type": "0x2",
      "transactionHash": "0x053e533a95e08072fb0986e58f2d11b703346907dce0e8192752fe40d7158c20",
      "transactionIndex": "0x1",
      "blockHash": "0xe18989cb0f74e836bb146956cb5d5294293235ab92c4ed370dcc132b71ce93a5",
      "blockNumber": "0xf2b81fa",
      "gasUsed": "0x16b41",
      "effectiveGasPrice": "0x131b1d0",
      "from": "0x04e1ec75c9fada2ff30e309e11cb5d2437dc3d4a",
      "to": "0x16a8d4fc921b8b1cc8729f4da72745e950499296",
      "contractAddress": null,
      "gasUsedForL1": "0x0",
      "l1BlockNumber": "0xa0dd5c",
      "timeboosted": false
    },
    {
      "status": "0x1",
      "cumulativeGasUsed": "0x16b25",
      "logs": [
        {
          "address": "0x2f8a9454de2e74bc9a0761703b3f7da0470b1e56",
          "topics": [
            "0x753b6c036896e564d6b8cfc7934ffd7ff1f0c8f82aabd101f0549db25b7971b6",
            "0x000000000000000000000000aae5dbc914ac1b794d4439880a0d4aad2d85a567"
          ],
          "data": "0x",
          "blockHash": "0x1224ad3a27fb2dd5fed42126c72b4e17a3a214060723daa97c93d31cc6342506",
          "blockNumber": "0xf2b81fb",
          "blockTimestamp": "0x69c85295",
          "transactionHash": "0xaa414453c7941985f18c378dbb6aeb82ca6c3d8ba4eeea222001e8b02e9af4a0",
          "transactionIndex": "0x1",
          "logIndex": "0x0",
          "removed": false
        },
        {
          "address": "0x2f8a9454de2e74bc9a0761703b3f7da0470b1e56",
          "topics": [
            "0x0146e1c9acb28e36c81f5635cb4ae73b05d0712996d2cc1b3823065e0e849403",
            "0x00000000000000000000000052eb55d347d6ee07c4bf6bf1d9ad29460f0a91c3"
          ],
          "data": "0x",
          "blockHash": "0x1224ad3a27fb2dd5fed42126c72b4e17a3a214060723daa97c93d31cc6342506",
          "blockNumber": "0xf2b81fb",
          "blockTimestamp": "0x69c85295",
          "transactionHash": "0xaa414453c7941985f18c378dbb6aeb82ca6c3d8ba4eeea222001e8b02e9af4a0",
          "transactionIndex": "0x1",
          "logIndex": "0x1",
          "removed": false
        }
      ],
      "logsBloom": "0x00000000000000000000000000000000000000000000000000000000020000000000000000000080000000000000000008000000000000800000000000000000000000000000000000000000000000000000000000000000400000080000000000000100000000000000000000000000000000000000000000800000000000000000000000001000000004000000000000000000001000000000000000000000000000000000000000000000100000000000000000000000000000000000000000000000000000000000020040000000000000000000000400000000000000000000000000000000000000000000000000000000000000000000000000000000",
      "type": "0x2",
      "transactionHash": "0xaa414453c7941985f18c378dbb6aeb82ca6c3d8ba4eeea222001e8b02e9af4a0",
      "transactionIndex": "0x1",
      "blockHash": "0x1224ad3a27fb2dd5fed42126c72b4e17a3a214060723daa97c93d31cc6342506",
      "blockNumber": "0xf2b81fb",
      "gasUsed": "0x16b25",
      "effectiveGasPrice": "0x1322700",
      "from": "0x04e1ec75c9fada2ff30e309e11cb5d2437dc3d4a",
      "to": "0x2f8a9454de2e74bc9a0761703b3f7da0470b1e56",
      "contractAddress": null,
      "gasUsedForL1": "0x0",
      "l1BlockNumber": "0xa0dd5c",
      "timeboosted": false
    },
    {
      "status": "0x1",
      "cumulativeGasUsed": "0x16b41",
      "logs": [
        {
          "address": "0x8036ac3d1685e3603b8a0418e7e1ee033b794485",
          "topics": [
            "0x753b6c036896e564d6b8cfc7934ffd7ff1f0c8f82aabd101f0549db25b7971b6",
            "0x000000000000000000000000aae5dbc914ac1b794d4439880a0d4aad2d85a567"
          ],
          "data": "0x",
          "blockHash": "0xb02c0d7680bc9e574265966e1d7da8d31d15c13cd183d72c4e55a807515d1530",
          "blockNumber": "0xf2b81fc",
          "blockTimestamp": "0x69c85296",
          "transactionHash": "0x67b383b3b380ff320ed0db99caf1e4d63b73b906bab4481fb4a5adeb5102057f",
          "transactionIndex": "0x1",
          "logIndex": "0x0",
          "removed": false
        },
        {
          "address": "0x8036ac3d1685e3603b8a0418e7e1ee033b794485",
          "topics": [
            "0x0146e1c9acb28e36c81f5635cb4ae73b05d0712996d2cc1b3823065e0e849403",
            "0x00000000000000000000000052eb55d347d6ee07c4bf6bf1d9ad29460f0a91c3"
          ],
          "data": "0x",
          "blockHash": "0xb02c0d7680bc9e574265966e1d7da8d31d15c13cd183d72c4e55a807515d1530",
          "blockNumber": "0xf2b81fc",
          "blockTimestamp": "0x69c85296",
          "transactionHash": "0x67b383b3b380ff320ed0db99caf1e4d63b73b906bab4481fb4a5adeb5102057f",
          "transactionIndex": "0x1",
          "logIndex": "0x1",
          "removed": false
        }
      ],
      "logsBloom": "0x00000000000000000000000000000000000000002000000000000000020000000000000000000080000000000000000000000000000000800000000000000000000000000000000000000000000000000000000000000000400000080000000000000100000000000000000000000000000000000000000000800000000000000000000000001000000004000000000000000000001000000000000000000000000000000000000000000000000000000000000000000000000000000000000000000000000000000000020040000000000000000000040000000000000000000000000000000000000000000000000000000000000000000000000200000000",
      "type": "0x2",
      "transactionHash": "0x67b383b3b380ff320ed0db99caf1e4d63b73b906bab4481fb4a5adeb5102057f",
      "transactionIndex": "0x1",
      "blockHash": "0xb02c0d7680bc9e574265966e1d7da8d31d15c13cd183d72c4e55a807515d1530",
      "blockNumber": "0xf2b81fc",
      "gasUsed": "0x16b41",
      "effectiveGasPrice": "0x1324e10",
      "from": "0x04e1ec75c9fada2ff30e309e11cb5d2437dc3d4a",
      "to": "0x8036ac3d1685e3603b8a0418e7e1ee033b794485",
      "contractAddress": null,
      "gasUsedForL1": "0x0",
      "l1BlockNumber": "0xa0dd5c",
      "timeboosted": false
    },
    {
      "status": "0x1",
      "cumulativeGasUsed": "0x305ba",
      "logs": [
        {
          "address": "0x88efb94f3c0ac2d31efcede444264caf8d594ab8",
          "topics": [
            "0x753b6c036896e564d6b8cfc7934ffd7ff1f0c8f82aabd101f0549db25b7971b6",
            "0x000000000000000000000000aae5dbc914ac1b794d4439880a0d4aad2d85a567"
          ],
          "data": "0x",
          "blockHash": "0x332fffd5f235ca12ba69f2708be5047e6a3c152fb70e40dfe8273b2f882f8cd1",
          "blockNumber": "0xf2b81fd",
          "blockTimestamp": "0x69c85296",
          "transactionHash": "0x31ba49e5f2bd13e2962618c9104a42295425cc74b61cf23328ca5f5aeb6cb254",
          "transactionIndex": "0x2",
          "logIndex": "0x3",
          "removed": false
        },
        {
          "address": "0x88efb94f3c0ac2d31efcede444264caf8d594ab8",
          "topics": [
            "0x0146e1c9acb28e36c81f5635cb4ae73b05d0712996d2cc1b3823065e0e849403",
            "0x00000000000000000000000052eb55d347d6ee07c4bf6bf1d9ad29460f0a91c3"
          ],
          "data": "0x",
          "blockHash": "0x332fffd5f235ca12ba69f2708be5047e6a3c152fb70e40dfe8273b2f882f8cd1",
          "blockNumber": "0xf2b81fd",
          "blockTimestamp": "0x69c85296",
          "transactionHash": "0x31ba49e5f2bd13e2962618c9104a42295425cc74b61cf23328ca5f5aeb6cb254",
          "transactionIndex": "0x2",
          "logIndex": "0x4",
          "removed": false
        }
      ],
      "logsBloom": "0x00000000000000000000000000000000000000000000000000000000020000000000000000000080000000000000000000000000000000800000000000000000000000000000000000000000000000000000000000000000400000080000000000000100000000000000000000000000000000000000000000800000000000000200000000001000000004000000800000000000001000000000000000000000000000000000000000000000000000000010000000000000000000000000000000000000000000000000020040000000000000000000000000000000000000000000000000000000000000000000000000000000000000000000000000000000",
      "type": "0x2",
      "transactionHash": "0x31ba49e5f2bd13e2962618c9104a42295425cc74b61cf23328ca5f5aeb6cb254",
      "transactionIndex": "0x2",
      "blockHash": "0x332fffd5f235ca12ba69f2708be5047e6a3c152fb70e40dfe8273b2f882f8cd1",
      "blockNumber": "0xf2b81fd",
      "gasUsed": "0x16b41",
      "effectiveGasPrice": "0x1312d00",
      "from": "0x04e1ec75c9fada2ff30e309e11cb5d2437dc3d4a",
      "to": "0x88efb94f3c0ac2d31efcede444264caf8d594ab8",
      "contractAddress": null,
      "gasUsedForL1": "0x0",
      "l1BlockNumber": "0xa0dd5c",
      "timeboosted": false
    },
    {
      "status": "0x1",
      "cumulativeGasUsed": "0x16b25",
      "logs": [
        {
          "address": "0x8b8732dac9c30ac89bf660b99fb90000d826ab83",
          "topics": [
            "0x753b6c036896e564d6b8cfc7934ffd7ff1f0c8f82aabd101f0549db25b7971b6",
            "0x000000000000000000000000aae5dbc914ac1b794d4439880a0d4aad2d85a567"
          ],
          "data": "0x",
          "blockHash": "0x8f8ad18b37abe808f2590b7ae1670dd5bf96bfce78b139f661a351e3201ed811",
          "blockNumber": "0xf2b8200",
          "blockTimestamp": "0x69c85297",
          "transactionHash": "0xb17c7140c365d3a6f4a23b85cb5f0cd8f7374dc55df799da90e00821234c13f1",
          "transactionIndex": "0x1",
          "logIndex": "0x0",
          "removed": false
        },
        {
          "address": "0x8b8732dac9c30ac89bf660b99fb90000d826ab83",
          "topics": [
            "0x0146e1c9acb28e36c81f5635cb4ae73b05d0712996d2cc1b3823065e0e849403",
            "0x00000000000000000000000052eb55d347d6ee07c4bf6bf1d9ad29460f0a91c3"
          ],
          "data": "0x",
          "blockHash": "0x8f8ad18b37abe808f2590b7ae1670dd5bf96bfce78b139f661a351e3201ed811",
          "blockNumber": "0xf2b8200",
          "blockTimestamp": "0x69c85297",
          "transactionHash": "0xb17c7140c365d3a6f4a23b85cb5f0cd8f7374dc55df799da90e00821234c13f1",
          "transactionIndex": "0x1",
          "logIndex": "0x1",
          "removed": false
        }
      ],
      "logsBloom": "0x00000000000000000000000000000000000000000000000000000000020000000000000100000080000000000000000000000000000000800000000000000000000000000000000000000000000000000000000000000000400000080000000000000100000200000000000000000000000000000000000000800000000000000000000000001000000004000000000000000000001000000000000000000000000000000000000000000000000000000000000000000000000000000000000000000000800000000000020040000000000000000000000000000000000000000000000000000000000000000000000000000000000000000000000000000000",
      "type": "0x2",
      "transactionHash": "0xb17c7140c365d3a6f4a23b85cb5f0cd8f7374dc55df799da90e00821234c13f1",
      "transactionIndex": "0x1",
      "blockHash": "0x8f8ad18b37abe808f2590b7ae1670dd5bf96bfce78b139f661a351e3201ed811",
      "blockNumber": "0xf2b8200",
      "gasUsed": "0x16b25",
      "effectiveGasPrice": "0x1312d00",
      "from": "0x04e1ec75c9fada2ff30e309e11cb5d2437dc3d4a",
      "to": "0x8b8732dac9c30ac89bf660b99fb90000d826ab83",
      "contractAddress": null,
      "gasUsedForL1": "0x0",
      "l1BlockNumber": "0xa0dd5c",
      "timeboosted": false
    },
    {
      "status": "0x1",
      "cumulativeGasUsed": "0x16b25",
      "logs": [
        {
          "address": "0xa488ac456c7c5964af7d323b7ce795d02e7c5154",
          "topics": [
            "0x753b6c036896e564d6b8cfc7934ffd7ff1f0c8f82aabd101f0549db25b7971b6",
            "0x000000000000000000000000aae5dbc914ac1b794d4439880a0d4aad2d85a567"
          ],
          "data": "0x",
          "blockHash": "0x2c3c052116e31692691ffea1cda7aba7eb0afe8042c6575059138b0098b3196a",
          "blockNumber": "0xf2b8201",
          "blockTimestamp": "0x69c85297",
          "transactionHash": "0xb959342918db83e0c2f2352e1037ba7de9c925da9e4f8faba46334e6beb3523e",
          "transactionIndex": "0x1",
          "logIndex": "0x0",
          "removed": false
        },
        {
          "address": "0xa488ac456c7c5964af7d323b7ce795d02e7c5154",
          "topics": [
            "0x0146e1c9acb28e36c81f5635cb4ae73b05d0712996d2cc1b3823065e0e849403",
            "0x00000000000000000000000052eb55d347d6ee07c4bf6bf1d9ad29460f0a91c3"
          ],
          "data": "0x",
          "blockHash": "0x2c3c052116e31692691ffea1cda7aba7eb0afe8042c6575059138b0098b3196a",
          "blockNumber": "0xf2b8201",
          "blockTimestamp": "0x69c85297",
          "transactionHash": "0xb959342918db83e0c2f2352e1037ba7de9c925da9e4f8faba46334e6beb3523e",
          "transactionIndex": "0x1",
          "logIndex": "0x1",
          "removed": false
        }
      ],
      "logsBloom": "0x00000000000000000000000000000000001000000000000000000000020000000000000000000080000000000000000000000000000000800000000000000000000000000000000000000000000000000000000000000000400000080000000000000100000000000000000000000000000000000000000000800000000000000000000000001000000004000000000000000000001000000000000000000000000000000000000000000000000000000000000000000000000000000000000000000000000000000000020040000000000000000000000000000000000000000020000000000000000000000000000010000000000000000000000000000000",
      "type": "0x2",
      "transactionHash": "0xb959342918db83e0c2f2352e1037ba7de9c925da9e4f8faba46334e6beb3523e",
      "transactionIndex": "0x1",
      "blockHash": "0x2c3c052116e31692691ffea1cda7aba7eb0afe8042c6575059138b0098b3196a",
      "blockNumber": "0xf2b8201",
      "gasUsed": "0x16b25",
      "effectiveGasPrice": "0x1314470",
      "from": "0x04e1ec75c9fada2ff30e309e11cb5d2437dc3d4a",
      "to": "0xa488ac456c7c5964af7d323b7ce795d02e7c5154",
      "contractAddress": null,
      "gasUsedForL1": "0x0",
      "l1BlockNumber": "0xa0dd5c",
      "timeboosted": false
    },
    {
      "status": "0x1",
      "cumulativeGasUsed": "0x15499c",
      "logs": [
        {
          "address": "0xa502fffb9082700cad62366bc6ce37b15207680f",
          "topics": [
            "0x753b6c036896e564d6b8cfc7934ffd7ff1f0c8f82aabd101f0549db25b7971b6",
            "0x000000000000000000000000aae5dbc914ac1b794d4439880a0d4aad2d85a567"
          ],
          "data": "0x",
          "blockHash": "0x04cc482f475791d254382c20a6cd11adb7c83a251997091b477b8110a997d7cf",
          "blockNumber": "0xf2b8206",
          "blockTimestamp": "0x69c85299",
          "transactionHash": "0x075980ad1b65266bf4e2ba58c168e1a4baedfc48b62123dede95c8eb2866fb1d",
          "transactionIndex": "0x4",
          "logIndex": "0xf",
          "removed": false
        },
        {
          "address": "0xa502fffb9082700cad62366bc6ce37b15207680f",
          "topics": [
            "0x0146e1c9acb28e36c81f5635cb4ae73b05d0712996d2cc1b3823065e0e849403",
            "0x00000000000000000000000052eb55d347d6ee07c4bf6bf1d9ad29460f0a91c3"
          ],
          "data": "0x",
          "blockHash": "0x04cc482f475791d254382c20a6cd11adb7c83a251997091b477b8110a997d7cf",
          "blockNumber": "0xf2b8206",
          "blockTimestamp": "0x69c85299",
          "transactionHash": "0x075980ad1b65266bf4e2ba58c168e1a4baedfc48b62123dede95c8eb2866fb1d",
          "transactionIndex": "0x4",
          "logIndex": "0x10",
          "removed": false
        }
      ],
      "logsBloom": "0x00000000000000000000000000000000000000000000000000000000020000000000000000000080000000000000000000000000000000900000000000000000000000000000000000000000000000000000000000000000400000080000000000000100000000000000000000000000000000000000000000800000000000000000000000001000000004000000000000000000001000000000000000000000000000000000008000000000000000000000000000000000000000000000000000000000000000020000020040000000000000000000000000000000000000000000000000000000000000000000000000000000000000000000000000000000",
      "type": "0x2",
      "transactionHash": "0x075980ad1b65266bf4e2ba58c168e1a4baedfc48b62123dede95c8eb2866fb1d",
      "transactionIndex": "0x4",
      "blockHash": "0x04cc482f475791d254382c20a6cd11adb7c83a251997091b477b8110a997d7cf",
      "blockNumber": "0xf2b8206",
      "gasUsed": "0x16b25",
      "effectiveGasPrice": "0x1312d00",
      "from": "0x04e1ec75c9fada2ff30e309e11cb5d2437dc3d4a",
      "to": "0xa502fffb9082700cad62366bc6ce37b15207680f",
      "contractAddress": null,
      "gasUsedForL1": "0x0",
      "l1BlockNumber": "0xa0dd5c",
      "timeboosted": false
    },
    {
      "status": "0x1",
      "cumulativeGasUsed": "0x16b25",
      "logs": [
        {
          "address": "0xb1f9ed8b752e81fcb0b9482e475c7035043f5994",
          "topics": [
            "0x753b6c036896e564d6b8cfc7934ffd7ff1f0c8f82aabd101f0549db25b7971b6",
            "0x000000000000000000000000aae5dbc914ac1b794d4439880a0d4aad2d85a567"
          ],
          "data": "0x",
          "blockHash": "0x35f8ed273e93a3aca009993e0656df76272d74a07cc7382e7f7c5f2b76844ec5",
          "blockNumber": "0xf2b8208",
          "blockTimestamp": "0x69c85299",
          "transactionHash": "0x5c8064299d7eea6774402600bfeb6b0b4a1243b3061e48764843e22901295e14",
          "transactionIndex": "0x1",
          "logIndex": "0x0",
          "removed": false
        },
        {
          "address": "0xb1f9ed8b752e81fcb0b9482e475c7035043f5994",
          "topics": [
            "0x0146e1c9acb28e36c81f5635cb4ae73b05d0712996d2cc1b3823065e0e849403",
            "0x00000000000000000000000052eb55d347d6ee07c4bf6bf1d9ad29460f0a91c3"
          ],
          "data": "0x",
          "blockHash": "0x35f8ed273e93a3aca009993e0656df76272d74a07cc7382e7f7c5f2b76844ec5",
          "blockNumber": "0xf2b8208",
          "blockTimestamp": "0x69c85299",
          "transactionHash": "0x5c8064299d7eea6774402600bfeb6b0b4a1243b3061e48764843e22901295e14",
          "transactionIndex": "0x1",
          "logIndex": "0x1",
          "removed": false
        }
      ],
      "logsBloom": "0x00000000000000000000000000000000000000000000000000000000020000000000000000000080000000000000000000000000000000800000000000000000002000000000000000000000000000000000000000000000400000080000000000000100080000000000000000000000000000000000000000800000000000000000000000001000000004000000000000000000001000000000000000000000000000000000000000000000000000000000000000000000000000000000000000000000000000000000020040000000000000000000000000000000000000000000000000000000000000000000000000000000000000000001000000000000",
      "type": "0x2",
      "transactionHash": "0x5c8064299d7eea6774402600bfeb6b0b4a1243b3061e48764843e22901295e14",
      "transactionIndex": "0x1",
      "blockHash": "0x35f8ed273e93a3aca009993e0656df76272d74a07cc7382e7f7c5f2b76844ec5",
      "blockNumber": "0xf2b8208",
      "gasUsed": "0x16b25",
      "effectiveGasPrice": "0x132c340",
      "from": "0x04e1ec75c9fada2ff30e309e11cb5d2437dc3d4a",
      "to": "0xb1f9ed8b752e81fcb0b9482e475c7035043f5994",
      "contractAddress": null,
      "gasUsedForL1": "0x0",
      "l1BlockNumber": "0xa0dd5c",
      "timeboosted": false
    },
    {
      "status": "0x1",
      "cumulativeGasUsed": "0x16b25",
      "logs": [
        {
          "address": "0xbe7b830623707babc4b46ff73279c73e2d1bc177",
          "topics": [
            "0x753b6c036896e564d6b8cfc7934ffd7ff1f0c8f82aabd101f0549db25b7971b6",
            "0x000000000000000000000000aae5dbc914ac1b794d4439880a0d4aad2d85a567"
          ],
          "data": "0x",
          "blockHash": "0x79fb2691ec314133af3d148bd414f24e7f946e13a34b9a9b961b6a93ce3cf974",
          "blockNumber": "0xf2b8209",
          "blockTimestamp": "0x69c8529a",
          "transactionHash": "0xc6b264f6651e507b80201873ed9d115e306ead098892a45dbfdda2c07cc32caa",
          "transactionIndex": "0x1",
          "logIndex": "0x0",
          "removed": false
        },
        {
          "address": "0xbe7b830623707babc4b46ff73279c73e2d1bc177",
          "topics": [
            "0x0146e1c9acb28e36c81f5635cb4ae73b05d0712996d2cc1b3823065e0e849403",
            "0x00000000000000000000000052eb55d347d6ee07c4bf6bf1d9ad29460f0a91c3"
          ],
          "data": "0x",
          "blockHash": "0x79fb2691ec314133af3d148bd414f24e7f946e13a34b9a9b961b6a93ce3cf974",
          "blockNumber": "0xf2b8209",
          "blockTimestamp": "0x69c8529a",
          "transactionHash": "0xc6b264f6651e507b80201873ed9d115e306ead098892a45dbfdda2c07cc32caa",
          "transactionIndex": "0x1",
          "logIndex": "0x1",
          "removed": false
        }
      ],
      "logsBloom": "0x00000000000000000000000000000000000000000000000000000000020000000000000000000080000000000000000000000000000000800000000040000000000000000000000000000000000000000000000000000000400000180000000000000100000000200000000000000000000000000000000000800000000000000000000000001000000004000000000000000000001000000000000000000000000000000000000000000000000000000000000000000000000000000000000000000000000000000000020040000000000000000000000000000000000000000000000000000000000000000000000000000000000000000000000000000000",
      "type": "0x2",
      "transactionHash": "0xc6b264f6651e507b80201873ed9d115e306ead098892a45dbfdda2c07cc32caa",
      "transactionIndex": "0x1",
      "blockHash": "0x79fb2691ec314133af3d148bd414f24e7f946e13a34b9a9b961b6a93ce3cf974",
      "blockNumber": "0xf2b8209",
      "gasUsed": "0x16b25",
      "effectiveGasPrice": "0x133b570",
      "from": "0x04e1ec75c9fada2ff30e309e11cb5d2437dc3d4a",
      "to": "0xbe7b830623707babc4b46ff73279c73e2d1bc177",
      "contractAddress": null,
      "gasUsedForL1": "0x0",
      "l1BlockNumber": "0xa0dd5c",
      "timeboosted": false
    },
    {
      "status": "0x1",
      "cumulativeGasUsed": "0x16b25",
      "logs": [
        {
          "address": "0xc219730ec703c9525748c3b80184d57f1d57699b",
          "topics": [
            "0x753b6c036896e564d6b8cfc7934ffd7ff1f0c8f82aabd101f0549db25b7971b6",
            "0x000000000000000000000000aae5dbc914ac1b794d4439880a0d4aad2d85a567"
          ],
          "data": "0x",
          "blockHash": "0xc67ee8e94cb1a358818f20ee35aa56992634f1077fc78f84a0e803b855ea4b87",
          "blockNumber": "0xf2b820a",
          "blockTimestamp": "0x69c8529a",
          "transactionHash": "0x7b5718922612dbe4c776c40c2a6348a9ef5ed9837dd964817b899f30e0ee6a75",
          "transactionIndex": "0x1",
          "logIndex": "0x0",
          "removed": false
        },
        {
          "address": "0xc219730ec703c9525748c3b80184d57f1d57699b",
          "topics": [
            "0x0146e1c9acb28e36c81f5635cb4ae73b05d0712996d2cc1b3823065e0e849403",
            "0x00000000000000000000000052eb55d347d6ee07c4bf6bf1d9ad29460f0a91c3"
          ],
          "data": "0x",
          "blockHash": "0xc67ee8e94cb1a358818f20ee35aa56992634f1077fc78f84a0e803b855ea4b87",
          "blockNumber": "0xf2b820a",
          "blockTimestamp": "0x69c8529a",
          "transactionHash": "0x7b5718922612dbe4c776c40c2a6348a9ef5ed9837dd964817b899f30e0ee6a75",
          "transactionIndex": "0x1",
          "logIndex": "0x1",
          "removed": false
        }
      ],
      "logsBloom": "0x00001000000000000000000000000000000000000000000000000000020000000000000000000080000000000000000000000000000000800000000000000000000000000000000000000000000000000000000000000000400000080000000000000100000000000000000000000000000000020000000000800000000000000000000000001000000004000000000000000000001000000000000000000000000000000000000000000000000000000000000000000000000000000000000000000000000000000000020040000000000000000000000000000000000000000000000000000000000000000000000000000000000000000000000000800000",
      "type": "0x2",
      "transactionHash": "0x7b5718922612dbe4c776c40c2a6348a9ef5ed9837dd964817b899f30e0ee6a75",
      "transactionIndex": "0x1",
      "blockHash": "0xc67ee8e94cb1a358818f20ee35aa56992634f1077fc78f84a0e803b855ea4b87",
      "blockNumber": "0xf2b820a",
      "gasUsed": "0x16b25",
      "effectiveGasPrice": "0x1312d00",
      "from": "0x04e1ec75c9fada2ff30e309e11cb5d2437dc3d4a",
      "to": "0xc219730ec703c9525748c3b80184d57f1d57699b",
      "contractAddress": null,
      "gasUsedForL1": "0x0",
      "l1BlockNumber": "0xa0dd5c",
      "timeboosted": false
    },
    {
      "status": "0x1",
      "cumulativeGasUsed": "0xb6e2",
      "logs": [
        {
          "address": "0xf42f88c13804147b2fdda13c093ce14219aea395",
          "topics": [
            "0x44d385e9acedc4b8af2ab3c01c965787144ffb322dd69598e19031baa923f6bf"
          ],
          "data": "0x00000000000000000000000052eb55d347d6ee07c4bf6bf1d9ad29460f0a91c3",
          "blockHash": "0xf718dd2c4e347543a6844988a873fe2dfaae18c7ec232b0fb592f0e64fedc66b",
          "blockNumber": "0xf2b820c",
          "blockTimestamp": "0x69c8529a",
          "transactionHash": "0x6fb3d4047563fe0e0d4dbd4496c851617989444aa14df7622d1cbb0aa3c35e71",
          "transactionIndex": "0x1",
          "logIndex": "0x0",
          "removed": false
        }
      ],
      "logsBloom": "0x00000000000000000000000000000000000000000000000000000000000000000000000000000000000000000000002000000000000000000000000002000000000000000000000000000000000000000000000000000000000000000000000000000000000000000000000000000000000000000000000000000000000001000000000000000000000000000100000000000000000000000000000000000000000000000000000000000000000000000000000000000000000000000000000000000000000000000000000000000000000000000000100000000000000000000000000000000000000000000200000000000000000000000000000000000000",
      "type": "0x2",
      "transactionHash": "0x6fb3d4047563fe0e0d4dbd4496c851617989444aa14df7622d1cbb0aa3c35e71",
      "transactionIndex": "0x1",
      "blockHash": "0xf718dd2c4e347543a6844988a873fe2dfaae18c7ec232b0fb592f0e64fedc66b",
      "blockNumber": "0xf2b820c",
      "gasUsed": "0xb6e2",
      "effectiveGasPrice": "0x1314470",
      "from": "0x04e1ec75c9fada2ff30e309e11cb5d2437dc3d4a",
      "to": "0xf42f88c13804147b2fdda13c093ce14219aea395",
      "contractAddress": null,
      "gasUsedForL1": "0x0",
      "l1BlockNumber": "0xa0dd5c",
      "timeboosted": false
    }
  ],
  "libraries": [],
  "pending": [],
  "returns": {},
  "timestamp": 1774736058951,
  "chain": 421614,
  "commit": "8e5fd5852"
}