{
  "transactions": [
    {
      "hash": "0x6735b54956183666410103233aaaab28fdc44ec1fc459357f8fea4a247ac7eca",
      "transactionType": "CREATE",
      "contractName": "CVStrategy",
      "contractAddress": "0x63083caf1475c9ca68d01930d6c3b416069f3201",
      "function": null,
      "arguments": null,
      "transaction": {
        "from": "0xb05a948b5c1b057b88d381bde3a375efea87ebad",
        "gas": "0x62551e",
        "value": "0x0",
        "input": "0x60a06040523060805234801562000014575f80fd5b506200001f62000025565b620000e3565b5f54610100900460ff1615620000915760405162461bcd60e51b815260206004820152602760248201527f496e697469616c697a61626c653a20636f6e747261637420697320696e697469604482015266616c697a696e6760c81b606482015260840160405180910390fd5b5f5460ff90811614620000e1575f805460ff191660ff9081179091556040519081527f7f26b83ff96e1f2b6a682f133852f6798a09c465da95921460cefb38474024989060200160405180910390a15b565b608051615762620001185f395f8181611259015281816112990152818161175f0152818161179f015261181601526157625ff3fe6080604052600436106103d3575f3560e01c806301ffc9a714610476578063025313a2146104bb578063059351cd146104dc57806305caa7f31461056757806309b65e66146105865780630a6f0ee9146105a55780630ba95909146105c45780630bece79c146105e25780630c0512e914610601578063125fd1d914610616578063136439dd1461062b578063141e3b381461064a57806315cc481e14610669578063184b9559146106865780631aa91a9e146106a55780631add1a0d146106c45780631b36f56f146106de5780631ddf1e23146106fd5780631f931c1c14610711578063222a3a04146106c45780632506b87014610730578063255ffb38146107625780632bbe0cae1461078d5780632cea13f9146107a05780632d2ebbef146107b45780632dbd6fdd146107ce5780632ed04b2b146107f9578063311a6c56146108135780633396045914610832578063351d9f96146108475780633587c79b1461086d5780633659cfe6146108995780633864d366146108b857806338fff2d0146108d75780633f4ba83a146106fd57806341bb7605146108eb5780634ab4ba42146109465780634f1ef2861461095a57806352d1902d1461096d57806359a5db8b146109815780635db64b99146109a05780636003e414146109cb57806360b0645a146109ea57806360b4778914610a0957806360d5dedc14610a1d578063626c47e814610a3c5780636453d9c4146106c4578063662ea47d14610a50578063715018a614610a71578063782aadff146107f95780637d7c2a1c146106fd57806380c4a65f14610a8557806380fd91cd14610a9f578063814516ad146106fd578063817b1cd214610abe578063868c57b814610ad35780638da5cb5b14610af2578063924e6704146106c457806394573cbb14610b06578063a0cf0aea14610b1b578063a28889e114610b42578063a47ff7e514610b79578063aba9ffee14610b8f578063adaf157b14610a09578063b04b5b2614610ba4578063b0d3713a14610bc3578063b187bd2614610be2578063b3de272d14610bf6578063b41596ec14610c0a578063b5f620ce14610c1d578063b6c61f3114610c3c578063bac1e94b14610c5b578063c329217114610c75578063c4d66de814610c91578063c69271ec146106c4578063c6cdc98014610cb0578063c7f758a814610ccf578063d5b7cc5414610d06578063da748b1014610d25578063dc96ff2d14610d39578063df868ed314610d67578063e0a8f6f51461062b578063e0dd2c3814610d7b578063edd146cc14610d9a578063ef2920fc14610db9578063f2fde38b14610dc7578063f5be3f7c14610de6576103da565b366103da57005b5f80356001600160e01b03191681525f8051602061561b833981519152602081905260409091205481906001600160a01b031680610441575f356001600160e01b03191660405163335ed20560e11b81526004016104389190613fa8565b60405180910390fd5b6104565f356001600160e01b03191682610dfb565b365f80375f80365f845af43d5f803e808015610470573d5ff35b3d5ffd5b005b348015610481575f80fd5b506104a6610490366004613fd4565b6001600160e01b0319166301ffc9a760e01b1490565b60405190151581526020015b60405180910390f35b3480156104c6575f80fd5b506104cf610f8e565b6040516104b29190613ffa565b3480156104e7575f80fd5b5061052f606f545f908152607f60205260409020805460018201546002830154600384015460048501546005909501546001600160a01b039485169694909316949193909290565b604080516001600160a01b039788168152969095166020870152938501929092526060840152608083015260a082015260c0016104b2565b348015610572575f80fd5b506080546104cf906001600160a01b031681565b348015610591575f80fd5b506104a66105a0366004613fd4565b610fa6565b3480156105b0575f80fd5b506104746105bf36600461422c565b610fb4565b3480156105cf575f80fd5b506077545b6040519081526020016104b2565b3480156105ed575f80fd5b506079546104cf906001600160a01b031681565b34801561060c575f80fd5b506105d4606e5481565b348015610621575f80fd5b506105d4606f5481565b348015610636575f80fd5b5061047461064536600461429e565b610fbc565b348015610655575f80fd5b506104746106643660046142b5565b610fc7565b348015610674575f80fd5b506065546001600160a01b03166104cf565b348015610691575f80fd5b506104746106a0366004614349565b610fd5565b3480156106b0575f80fd5b506105d46106bf36600461429e565b6110d8565b3480156106cf575f80fd5b50610474610645366004614386565b3480156106e9575f80fd5b506081546104cf906001600160a01b031681565b348015610708575f80fd5b50610474611121565b34801561071c575f80fd5b5061047461072b3660046143de565b61112b565b34801561073b575f80fd5b506072546073546074546075546107529392919084565b6040516104b29493929190614486565b34801561076d575f80fd5b506105d461077c36600461429e565b607e6020525f908152604090205481565b6104cf61079b3660046144a1565b611183565b3480156107ab575f80fd5b506105d4611192565b3480156107bf575f80fd5b506105d46105a0366004613fd4565b3480156107d9575f80fd5b506076546107ec90610100900460ff1681565b6040516104b29190614517565b348015610804575f80fd5b506105d461079b366004614525565b34801561081e575f80fd5b5061047461082d36600461454f565b6111a1565b34801561083d575f80fd5b506105d4606c5481565b348015610852575f80fd5b506076546108609060ff1681565b6040516104b2919061457f565b348015610878575f80fd5b5061088c61088736600461429e565b6111ad565b6040516104b291906145da565b3480156108a4575f80fd5b506104746108b3366004614386565b61124f565b3480156108c3575f80fd5b506104746108d2366004614525565b611313565b3480156108e2575f80fd5b506068546105d4565b3480156108f6575f80fd5b5061052f61090536600461429e565b607f6020525f90815260409020805460018201546002830154600384015460048501546005909501546001600160a01b039485169593909416939192909186565b348015610951575f80fd5b506105d46114d6565b6104746109683660046145ec565b611755565b348015610978575f80fd5b506105d461180a565b34801561098c575f80fd5b506105d461099b36600461429e565b6118b7565b3480156109ab575f80fd5b506105d46109ba366004614386565b607c6020525f908152604090205481565b3480156109d6575f80fd5b506078546104cf906001600160a01b031681565b3480156109f5575f80fd5b506105d4610a0436600461429e565b61197c565b348015610a14575f80fd5b506104cf611a40565b348015610a28575f80fd5b50610474610a37366004614638565b611a49565b348015610a47575f80fd5b506105d4600381565b348015610a5b575f80fd5b50610a64611b08565b6040516104b291906146bf565b348015610a7c575f80fd5b50610474611ea7565b348015610a90575f80fd5b5061047461082d36600461473c565b348015610aaa575f80fd5b506083546104cf906001600160a01b031681565b348015610ac9575f80fd5b506105d460705481565b348015610ade575f80fd5b506105d4610aed366004614525565b611eb8565b348015610afd575f80fd5b506104cf611ee3565b348015610b11575f80fd5b506105d460825481565b348015610b26575f80fd5b506104cf73eeeeeeeeeeeeeeeeeeeeeeeeeeeeeeeeeeeeeeee81565b348015610b4d575f80fd5b50606d54610b61906001600160401b031681565b6040516001600160401b0390911681526020016104b2565b348015610b84575f80fd5b506077546105d49081565b348015610b9a575f80fd5b506105d460715481565b348015610baf575f80fd5b506104cf610bbe36600461429e565b611f71565b348015610bce575f80fd5b50610474610bdd366004614386565b611f96565b348015610bed575f80fd5b506104a6611a40565b348015610c01575f80fd5b506105d4611fc0565b6105d4610c18366004614756565b611fd2565b348015610c28575f80fd5b50610474610c373660046147b8565b611fe4565b348015610c47575f80fd5b50607a546104cf906001600160a01b031681565b348015610c66575f80fd5b50610474610645366004613fd4565b348015610c80575f80fd5b50607654610100900460ff166107ec565b348015610c9c575f80fd5b50610474610cab366004614386565b611fed565b348015610cbb575f80fd5b50610474610cca36600461487f565b61209f565b348015610cda575f80fd5b50610cee610ce936600461429e565b6120b0565b6040516104b29c9b9a9998979695949392919061492c565b348015610d11575f80fd5b50610474610d203660046149a8565b61227e565b348015610d30575f80fd5b506105d4611a40565b348015610d44575f80fd5b506105d4610d5336600461429e565b5f908152607b602052604090206002015490565b348015610d72575f80fd5b506104a661228e565b348015610d86575f80fd5b506105d4610d95366004614a4a565b61229b565b348015610da5575f80fd5b50610474610db4366004614a6d565b6122c5565b61047461082d3660046144a1565b348015610dd2575f80fd5b50610474610de1366004614386565b61289f565b348015610df1575f80fd5b506105d4611c2081565b610e03612915565b600101546001600160a01b0390811690821603610e1e575050565b610e2782612939565b15610e30575050565b5f610e39612915565b546001600160a01b0316905080610e4f57505050565b604051635b14f18360e01b81526001600160a01b03821690635b14f18390610e7b903090600401613ffa565b602060405180830381865afa158015610e96573d5f803e3d5ffd5b505050506040513d601f19601f82011682018060405250810190610eba9190614a9a565b15610eda578060405163c2897a3760e01b81526004016104389190613ffa565b6040516374b896f160e01b81523060048201526001600160e01b0319841660248201526001600160a01b038216906374b896f190604401602060405180830381865afa158015610f2c573d5f803e3d5ffd5b505050506040513d601f19601f82011682018060405250810190610f509190614a9a565b15610f895760405163a9774bf960e01b81526001600160e01b0319841660048201526001600160a01b0382166024820152604401610438565b505050565b5f610fa16033546001600160a01b031690565b905090565b5f610faf6103da565b919050565b610f896103da565b610fc46103da565b50565b610fcf6103da565b50505050565b5f54610100900460ff1615808015610ff357505f54600160ff909116105b80611013575061100230612a7c565b15801561101357505f5460ff166001145b61102f5760405162461bcd60e51b815260040161043890614ab5565b5f805460ff191660011790558015611050575f805461ff0019166101001790555b61107d846040518060400160405280600a8152602001694356537472617465677960b01b81525084611a49565b61108682612a8b565b606a80546001600160a01b0319166001600160a01b0385161790558015610fcf575f805461ff0019169055604051600181525f805160206156c78339815191529060200160405180910390a150505050565b5f818152607b60205260408120805483146111095760405163c1d17bef60e01b815260048101849052602401610438565b611117818260020154612ad6565b6003015492915050565b6111296103da565b565b611133612b0f565b61117c6111408587614b03565b8484848080601f0160208091040260200160405190810160405280939291908181526020018383808284375f92019190915250612b9492505050565b5050505050565b5f61118c6103da565b92915050565b5f61119b612cfd565b54919050565b6111a96103da565b5050565b5f818152607b60205260409020600b018054606091906111cc90614c23565b80601f01602080910402602001604051908101604052809291908181526020018280546111f890614c23565b80156112435780601f1061121a57610100808354040283529160200191611243565b820191905f5260205f20905b81548152906001019060200180831161122657829003601f168201915b50505050509050919050565b6001600160a01b037f00000000000000000000000000000000000000000000000000000000000000001630036112975760405162461bcd60e51b815260040161043890614c5b565b7f00000000000000000000000000000000000000000000000000000000000000006001600160a01b03166112c9612d21565b6001600160a01b0316146112ef5760405162461bcd60e51b815260040161043890614c94565b6112f881612d3c565b604080515f80825260208201909252610fc491839190612d88565b60785f9054906101000a90046001600160a01b03166001600160a01b0316636c53db9a6040518163ffffffff1660e01b8152600401602060405180830381865afa158015611363573d5f803e3d5ffd5b505050506040513d601f19601f820116820180604052508101906113879190614ccd565b6001600160a01b0316336001600160a01b0316141580156113c157506113ab611ee3565b6001600160a01b0316336001600160a01b031614155b1561146e5760785460408051633629edcd60e11b8152905133926001600160a01b031691636c53db9a9160048083019260209291908290030181865afa15801561140d573d5f803e3d5ffd5b505050506040513d601f19601f820116820180604052508101906114319190614ccd565b611439611ee3565b60405163e1b9c46960e01b81526001600160a01b03938416600482015291831660248301529091166044820152606401610438565b61147782612ef2565b607a80546001600160a01b0319166001600160a01b03841617905561149b81612f1b565b7f2667a0cd99dbc787d1d2596efe938cf43dfe83e8b8ddeb70e28007c09ff33485826040516114ca9190613ffa565b60405180910390a15050565b60655460685460405163068bcd8d60e01b81525f9283926001600160a01b039091169163068bcd8d9161150f9160040190815260200190565b5f60405180830381865afa158015611529573d5f803e3d5ffd5b505050506040513d5f823e601f3d908101601f191682016040526115509190810190614cf3565b60400151905073eeeeeeeeeeeeeeeeeeeeeeeeeeeeeeeeeeeeeeed196001600160a01b03821601611582574791505090565b6040516370a0823160e01b81525f906001600160a01b038316906370a08231906115b0903090600401613ffa565b602060405180830381865afa1580156115cb573d5f803e3d5ffd5b505050506040513d601f19601f820116820180604052508101906115ef9190614e0b565b6080549091505f906001600160a01b031615611679576080546040516370a0823160e01b81526001600160a01b03909116906370a0823190611635903090600401613ffa565b602060405180830381865afa158015611650573d5f803e3d5ffd5b505050506040513d601f19601f820116820180604052508101906116749190614e0b565b61167b565b5f5b90505f836001600160a01b031663313ce5676040518163ffffffff1660e01b8152600401602060405180830381865afa1580156116ba573d5f803e3d5ffd5b505050506040513d601f19601f820116820180604052508101906116de9190614e22565b905060128160ff161015611713576116f7816012614e56565b61170290600a614f4f565b61170c9083614f71565b9150611742565b60128160ff1611156117425761172a601282614e56565b61173590600a614f4f565b61173f9083614f90565b91505b61174c8284614fa7565b94505050505090565b6001600160a01b037f000000000000000000000000000000000000000000000000000000000000000016300361179d5760405162461bcd60e51b815260040161043890614c5b565b7f00000000000000000000000000000000000000000000000000000000000000006001600160a01b03166117cf612d21565b6001600160a01b0316146117f55760405162461bcd60e51b815260040161043890614c94565b6117fe82612d3c565b6111a982826001612d88565b5f306001600160a01b037f000000000000000000000000000000000000000000000000000000000000000016146118a45760405162461bcd60e51b815260206004820152603860248201527f555550535570677261646561626c653a206d757374206e6f742062652063616c6044820152771b1959081d1a1c9bdd59da0819195b1959d85d1958d85b1b60421b6064820152608401610438565b505f805160206156a78339815191525b90565b5f806118c16114d6565b90505f629896808260725f01546118d89190614f90565b6118e29190614f71565b6071546074546073546072546075546040516314eff2dd60e11b81529596507370b24063ea84765b324387e21159b41af48a9440956329dfe5ba95611935958c958b959294919390929190600401614fba565b602060405180830381865af4158015611950573d5f803e3d5ffd5b505050506040513d601f19601f820116820180604052508101906119749190614e0b565b949350505050565b5f818152607b60205260408120611991612ff8565b61199f576003015492915050565b7370b24063ea84765b324387e21159b41af48a944063010dfe648260070154436119c99190614fea565b600384015460028501546074546040516001600160e01b031960e087901b1681526119fa9493929190600401614486565b602060405180830381865af4158015611a15573d5f803e3d5ffd5b505050506040513d601f19601f82011682018060405250810190611a399190614e0b565b9392505050565b5f6118b46103da565b5f54610100900460ff16611ab35760405162461bcd60e51b815260206004820152602b60248201527f496e697469616c697a61626c653a20636f6e7472616374206973206e6f74206960448201526a6e697469616c697a696e6760a81b6064820152608401610438565b611abc81611fed565b606580546001600160a01b0319166001600160a01b038516179055604051611ae89083906020016145da565b60408051601f198184030181529190528051602090910120606655505050565b60605f611b136130f4565b6001810154909150806001600160401b03811115611b3357611b3361400e565b604051908082528060200260200182016040528015611b7857816020015b604080518082019091525f815260606020820152815260200190600190039081611b515790505b5092505f816001600160401b03811115611b9457611b9461400e565b604051908082528060200260200182016040528015611bbd578160200160208202803683370190505b5090505f805b83811015611e42575f856001018281548110611be157611be1614ffd565b5f918252602080832060088304015460079092166004026101000a90910460e01b6001600160e01b0319811683529088905260408220549092506001600160a01b031690805b85811015611d1257826001600160a01b03168a8281518110611c4b57611c4b614ffd565b60200260200101515f01516001600160a01b031603611d0a57838a8281518110611c7757611c77614ffd565b602002602001015160200151888381518110611c9557611c95614ffd565b602002602001015161ffff1681518110611cb157611cb1614ffd565b60200260200101906001600160e01b03191690816001600160e01b03191681525050868181518110611ce557611ce5614ffd565b602002602001018051809190611cfa90615011565b61ffff1690525060019150611d12565b600101611c27565b508015611d225750611e3a915050565b81898681518110611d3557611d35614ffd565b60209081029190910101516001600160a01b039091169052866001600160401b03811115611d6557611d6561400e565b604051908082528060200260200182016040528015611d8e578160200160208202803683370190505b50898681518110611da157611da1614ffd565b60200260200101516020018190525082898681518110611dc357611dc3614ffd565b6020026020010151602001515f81518110611de057611de0614ffd565b60200260200101906001600160e01b03191690816001600160e01b031916815250506001868681518110611e1657611e16614ffd565b61ffff9092166020928302919091019091015284611e3381615031565b9550505050505b600101611bc3565b505f5b81811015611e9c575f868281518110611e6057611e60614ffd565b60200260200101516020015190505f848381518110611e8157611e81614ffd565b602090810291909101015161ffff1690915250600101611e45565b508085525050505090565b611eaf612b0f565b6111295f613105565b607d602052815f5260405f208181548110611ed1575f80fd5b905f5260205f20015f91509150505481565b5f611eec610f8e565b6001600160a01b03163b5f03611f0457610fa1610f8e565b611f0c610f8e565b6001600160a01b0316638da5cb5b6040518163ffffffff1660e01b8152600401602060405180830381865afa925050508015611f65575060408051601f3d908101601f19168201909252611f6291810190614ccd565b60015b610faf57610fa1610f8e565b5f611f7a612cfd565b5f9283526003016020525060409020546001600160a01b031690565b611f9e612b0f565b606a80546001600160a01b0319166001600160a01b0392909216919091179055565b5f611fc9612cfd565b60010154905090565b5f611fdb6103da565b95945050505050565b610fc481613143565b5f54610100900460ff161580801561200b57505f54600160ff909116105b8061202b575061201a30612a7c565b15801561202b57505f5460ff166001145b6120475760405162461bcd60e51b815260040161043890614ab5565b5f805460ff191660011790558015612068575f805461ff0019166101001790555b61207182613105565b80156111a9575f805461ff0019169055604051600181525f805160206156c7833981519152906020016114ca565b6120a76103da565b50505050505050565b5f805f805f805f805f805f805f607b5f8f81526020019081526020015f20905080600101545f036120e3575f94506121b9565b5f6120ec6114d6565b90505f6121018260725f01546298968061318a565b90508015806121135750808360010154115b15612120575f96506121b6565b60018301546071546074546073546072546075546040516314eff2dd60e11b81527370b24063ea84765b324387e21159b41af48a9440966329dfe5ba966121749691958b9591949293909290600401614fba565b602060405180830381865af415801561218f573d5f803e3d5ffd5b505050506040513d601f19601f820116820180604052508101906121b39190614e0b565b96505b50505b806005015f9054906101000a90046001600160a01b0316816004015f9054906101000a90046001600160a01b0316826006015f9054906101000a90046001600160a01b031683600101548460020154856008015f9054906101000a900460ff16866007015487600301548c896009015f336001600160a01b03166001600160a01b031681526020019081526020015f20548a601001548b600a015f01549c509c509c509c509c509c509c509c509c509c509c509c505091939597999b5091939597999b565b6122866103da565b505050505050565b5f610fa160675460ff1690565b5f828152607b602090815260408083206001600160a01b0385168452600901909152812054611a39565b6122cd61326e565b6122d682613299565b606a54606c80546122fe926001600160a01b0316915f6122f583615031565b919050556132fb565b607980546001600160a01b0319166001600160a01b039290921691821790556040805163204a7f0760e21b81529051638129fc1c916004808201925f9290919082900301818387803b158015612352575f80fd5b505af1158015612364573d5f803e3d5ffd5b505050505f8180602001905181019061237d91906151b5565b60a0810151607880546001600160a01b0319166001600160a01b0392831617905560c082015191925016156123b6578060c001516123bc565b8060a001515b608380546001600160a01b0319166001600160a01b039290921691909117905560208101516076805460ff191660018360028111156123fd576123fd6144ef565b021790555060408101516076805461ff001916610100836004811115612425576124256144ef565b021790555060608101515160775560e0810151607a80546001600160a01b039283166001600160a01b031991821617909155610140830151608080549190931691161790556101608101516082556040517ff5eb09d0087c79c1d71dcda48cad7b075c9cf56c9354addb6cab6cde6194bc6f906124a59085908490615337565b60405180910390a16002816020015160028111156124c5576124c56144ef565b03612611576080546001600160a01b031615806124e25750608254155b1561250d576080546040516330d466e760e11b8152610438916001600160a01b031690600401613ffa565b6080546040805180820182525f808252602082018181529251630779d36560e01b81526001600160a01b039094166004850152306024850152905115156044840152905115156064830152908190736da13bde224a05a288748d857b9e7ddeffd1de0890630779d3659060840160408051808303815f875af1158015612595573d5f803e3d5ffd5b505050506040513d601f19601f820116820180604052508101906125b99190615474565b915091508115806125d157506001600160a01b038116155b156125ef5760405163946c56ed60e01b815260040160405180910390fd5b608180546001600160a01b0319166001600160a01b0392909216919091179055505b6080546081546082546040519081526001600160a01b0392831692909116907f40b1b33a11a0c5522c7983a68e1af5f98f6a1cedd1aa8b4235c1ddfd006223549060200160405180910390a36080810151602001516001600160a01b03161580159061268a57506080810151516001600160a01b031615155b156127f6576080810151805160209091015160405163446adb9960e11b81526001600160a01b03909216916388d5b732916126c791600401613ffa565b5f604051808303815f87803b1580156126de575f80fd5b505af11580156126f0573d5f803e3d5ffd5b5050606f8054925090505f61270483615031565b909155505060808181018051606f80545f908152607f6020908152604091829020845181546001600160a01b039182166001600160a01b03199182161783558387015160018401805491841691909216179055838601516002830155606080870151600384015586890151600484015560a096870151600590930192909255935495518051818401518286015183850151848c0151948a015188519b8c52938916968b019690965296168886015291870194909452958501529183015260c082019290925290517fe677e2878aaaaf6a65ecf50f849ad58100c49f6dfd57d055ba4bddd63a175d539181900360e00190a15b80516040015115801561280c5750805160200151155b80156128185750805151155b80156128275750805160600151155b612880578051805160725560208101516073556040808201516074556060820151607555517fec9315d9f4291207475c061feff1e5d7105750ac0ee9534af9444b4ff1dab9bc91612877916154a1565b60405180910390a15b607a546001600160a01b031615610f8957610f89816101000151612f1b565b6128a7612b0f565b6001600160a01b03811661290c5760405162461bcd60e51b815260206004820152602660248201527f4f776e61626c653a206e6577206f776e657220697320746865207a65726f206160448201526564647265737360d01b6064820152608401610438565b610fc481613105565b7f12ec43b97389db0cfbdf8d85f200f1b822123856376a9d75d3a6918f27c903bb90565b5f6001600160e01b03198216631add1a0d60e01b148061296957506001600160e01b0319821663088a8e8160e21b145b8061298457506001600160e01b0319821663136439dd60e01b145b8061299f57506001600160e01b031982166380c4a65f60e01b145b806129ba57506001600160e01b03198216631fa5d41d60e11b145b806129d557506001600160e01b0319821663bac1e94b60e01b145b806129f057506001600160e01b0319821663adaf157b60e01b145b80612a0b57506001600160e01b031982166360b4778960e01b145b80612a2657506001600160e01b031982166358c3de9360e11b145b80612a4157506001600160e01b031982166304db2f3360e11b145b80612a5c57506001600160e01b03198216630da748b160e41b145b8061118c57506001600160e01b03198216632d2ebbef60e01b1492915050565b6001600160a01b03163b151590565b5f612a946130f4565b6003810180546001600160a01b038581166001600160a01b031983168117909355604051939450169182905f805160206156e7833981519152905f90a3505050565b5f80612ae28484613341565b91509150815f148015612af3575080155b15612afe5750505050565b600784015560039092019190915550565b5f612b18610f8e565b90505f612b23611ee3565b9050336001600160a01b03831614801590612b475750336001600160a01b03821614155b156111a95760405162461bcd60e51b815260206004820181905260248201527f4f776e61626c653a2063616c6c6572206973206e6f7420746865206f776e65726044820152606401610438565b5f5b8351811015612cb7575f848281518110612bb257612bb2614ffd565b60200260200101516040015190505f858381518110612bd357612bd3614ffd565b60200260200101515f0151905081515f03612c03578060405163e767f91f60e01b81526004016104389190613ffa565b5f868481518110612c1657612c16614ffd565b60200260200101516020015190505f6003811115612c3657612c366144ef565b816003811115612c4857612c486144ef565b03612c5c57612c578284613427565b612cac565b6001816003811115612c7057612c706144ef565b03612c7f57612c5782846135b1565b6002816003811115612c9357612c936144ef565b03612ca257612c57828461370e565b612cac8284613958565b505050600101612b96565b507f8faa70878671ccd212d20771b795c50af8fd3ff6cf27f4bde57e5d4de0aeb673838383604051612ceb939291906154af565b60405180910390a1610f898282613b5a565b7fd5d05b1f29dcb0c0e1698b0261850eb784d1243215a6aa22ea2b8128b2e9497c90565b5f805160206156a7833981519152546001600160a01b031690565b33612d45611ee3565b6001600160a01b031614610fc45733612d5c611ee3565b60405163163678e960e01b81526001600160a01b03928316600482015291166024820152604401610438565b7f4910fdfa16fed3260ed0e7147f7cc6da11a60208b5b9406d12a635614ffd91435460ff1615612dbb57610f8983613c1c565b826001600160a01b03166352d1902d6040518163ffffffff1660e01b8152600401602060405180830381865afa925050508015612e15575060408051601f3d908101601f19168201909252612e1291810190614e0b565b60015b612e785760405162461bcd60e51b815260206004820152602e60248201527f45524331393637557067726164653a206e657720696d706c656d656e7461746960448201526d6f6e206973206e6f74205555505360901b6064820152608401610438565b5f805160206156a78339815191528114612ee65760405162461bcd60e51b815260206004820152602960248201527f45524331393637557067726164653a20756e737570706f727465642070726f786044820152681a58589b195555525160ba1b6064820152608401610438565b50610f89838383613cb5565b6001600160a01b038116610fc4578060405163084c41ef60e01b81526004016104389190613ffa565b607a5460785460408051633629edcd60e11b815290516001600160a01b039384169363fc2ebdd193309387939190921691636c53db9a9160048083019260209291908290030181865afa158015612f74573d5f803e3d5ffd5b505050506040513d601f19601f82011682018060405250810190612f989190614ccd565b60405160e085901b6001600160e01b03191681526001600160a01b039384166004820152602481019290925290911660448201526064015f604051808303815f87803b158015612fe6575f80fd5b505af115801561117c573d5f803e3d5ffd5b6078545f906001600160a01b03166130105750600190565b6078546040515f9182916001600160a01b0390911690633a871fe160e01b9061303d903090602401613ffa565b60408051601f198184030181529181526020820180516001600160e01b03166001600160e01b031990941693909317909252905161307b9190615568565b5f60405180830381855afa9150503d805f81146130b3576040519150601f19603f3d011682016040523d82523d5f602084013e6130b8565b606091505b50915091508115806130cb575060208151105b156130d95760019250505090565b808060200190518101906130ed9190614a9a565b9250505090565b5f8051602061561b83398151915290565b603380546001600160a01b038381166001600160a01b0319831681179093556040519116919082905f805160206156e7833981519152905f90a35050565b6067805460ff19168215159081179091556040519081527fd94c9bc4d43c51d8dc345a016d8e3d994432fac68e72832e4cf3a616bd8efae09060200160405180910390a150565b5f80805f19858709858702925082811083820303915050805f036131c1578382816131b7576131b7614f5d565b0492505050611a39565b8084116132085760405162461bcd60e51b81526020600482015260156024820152744d6174683a206d756c446976206f766572666c6f7760581b6044820152606401610438565b5f84868809600260036001881981018916988990049182028318808302840302808302840302808302840302808302840302808302840302918202909203025f889003889004909101858311909403939093029303949094049190911702949350505050565b6065546001600160a01b031633146111295760405163075fd2b160e01b815260040160405180910390fd5b5f356001600160e01b0319166132ad575f80fd5b6132b561326e565b606854156132d65760405163439a74c960e01b815260040160405180910390fd5b805f036132f657604051637fcce2a960e01b815260040160405180910390fd5b606855565b6040516001600160601b03193360601b166020820152603481018290525f9081906054016040516020818303038152906040528051906020012090506119748482613cd9565b5f8061334b612ff8565b61335c575050600382015443613420565b439050808460070154111561337357613373615583565b8084600701540361338857505f905080613420565b7370b24063ea84765b324387e21159b41af48a944063010dfe648560070154836133b29190614fea565b60038701546074546040516001600160e01b031960e086901b1681526133de9392918991600401614486565b602060405180830381865af41580156133f9573d5f803e3d5ffd5b505050506040513d601f19601f8201168201806040525081019061341d9190614e0b565b91505b9250929050565b6001600160a01b03821661345057806040516302b8da0760e21b81526004016104389190615597565b5f6134596130f4565b90505f816001018054905090506134888460405180606001604052806024815260200161563b60249139613d6d565b5f5b835181101561117c575f8482815181106134a6576134a6614ffd565b6020908102919091018101516001600160e01b031981165f908152918690526040909120549091506001600160a01b031680156134f8578160405163ebbf5d0760e01b81526004016104389190613fa8565b6040805180820182526001600160a01b03808a16825261ffff80881660208085019182526001600160e01b031988165f9081528b8252958620945185549251909316600160a01b026001600160b01b0319909216929093169190911717909155600180880180549182018155835291206008820401805460e085901c60046007909416939093026101000a92830263ffffffff9093021916919091179055836135a081615011565b9450506001909201915061348a9050565b5f6135ba6130f4565b90506001600160a01b0383166135e5578160405163cd98a96f60e01b81526004016104389190615597565b6136078360405180606001604052806028815260200161572e60289139613d6d565b5f5b8251811015610fcf575f83828151811061362557613625614ffd565b6020908102919091018101516001600160e01b031981165f908152918590526040909120549091506001600160a01b03163081036136785781604051632901806d60e11b81526004016104389190613fa8565b856001600160a01b0316816001600160a01b0316036136ac5781604051631ac6ce8d60e11b81526004016104389190613fa8565b6001600160a01b0381166136d55781604051637479f93960e01b81526004016104389190613fa8565b506001600160e01b0319165f90815260208390526040902080546001600160a01b0319166001600160a01b038616179055600101613609565b5f6137176130f4565b60018101549091506001600160a01b03841615613749578360405163d091bc8160e01b81526004016104389190613ffa565b5f5b835181101561117c575f84828151811061376757613767614ffd565b6020908102919091018101516001600160e01b031981165f9081528683526040908190208151808301909252546001600160a01b038116808352600160a01b90910461ffff1693820193909352909250906137d75781604051637a08a22d60e01b81526004016104389190613fa8565b8051306001600160a01b03909116036138055781604051630df5fd6160e31b81526004016104389190613fa8565b8361380f816155a9565b94505083816020015161ffff16146138e9575f85600101858154811061383757613837614ffd565b905f5260205f2090600891828204019190066004029054906101000a900460e01b90508086600101836020015161ffff168154811061387857613878614ffd565b5f91825260208083206008830401805463ffffffff60079094166004026101000a938402191660e09590951c92909202939093179055838201516001600160e01b03199390931681529087905260409020805461ffff60a01b1916600160a01b61ffff909316929092029190911790555b846001018054806138fc576138fc6155be565b5f828152602080822060085f1990940193840401805463ffffffff600460078716026101000a0219169055919092556001600160e01b0319909316815291859052506040902080546001600160b01b031916905560010161374b565b6001600160a01b03821661398157806040516302b8da0760e21b81526004016104389190615597565b5f61398a6130f4565b90506139ae836040518060600160405280602581526020016155f660259139613d6d565b5f82516001600160401b038111156139c8576139c861400e565b6040519080825280602002602001820160405280156139f1578160200160208202803683370190505b5090505f8084516001600160401b03811115613a0f57613a0f61400e565b604051908082528060200260200182016040528015613a38578160200160208202803683370190505b5090505f805b8651811015613b27575f878281518110613a5a57613a5a614ffd565b6020908102919091018101516001600160e01b031981165f908152918990526040909120549091506001600160a01b031680613acc57818787613a9c81615031565b985081518110613aae57613aae614ffd565b6001600160e01b031990921660209283029190910190910152613b1d565b896001600160a01b0316816001600160a01b031614613b1d57818585613af181615031565b965081518110613b0357613b03614ffd565b6001600160e01b0319909216602092830291909101909101525b5050600101613a3e565b508215613b4157613b4187613b3c8686613d94565b613427565b80156120a7576120a787613b558484613d94565b6135b1565b6001600160a01b038216613b6c575050565b613b8e8260405180606001604052806028815260200161565f60289139613d6d565b5f80836001600160a01b031683604051613ba89190615568565b5f60405180830381855af49150503d805f8114613be0576040519150601f19603f3d011682016040523d82523d5f602084013e613be5565b606091505b509150915081610fcf57805115613bff5780518082602001fd5b838360405163192105d760e01b81526004016104389291906155d2565b613c2581612a7c565b613c875760405162461bcd60e51b815260206004820152602d60248201527f455243313936373a206e657720696d706c656d656e746174696f6e206973206e60448201526c1bdd08184818dbdb9d1c9858dd609a1b6064820152608401610438565b5f805160206156a783398151915280546001600160a01b0319166001600160a01b0392909216919091179055565b613cbe83613e3a565b5f82511180613cca5750805b15610f8957610fcf8383613e79565b5f763d602d80600a3d3981f3363d3d373d3d3d363d730000008360601b60e81c175f526e5af43d82803e903d91602b57fd5bf38360781b1760205281603760095ff590506001600160a01b03811661118c5760405162461bcd60e51b8152602060048201526017602482015276115490cc4c4d8dce8818dc99585d194c8819985a5b1959604a1b6044820152606401610438565b813b5f819003610f8957828260405163919834b960e01b81526004016104389291906155d2565b60605f826001600160401b03811115613daf57613daf61400e565b604051908082528060200260200182016040528015613dd8578160200160208202803683370190505b5090505f5b83811015613e3257848181518110613df757613df7614ffd565b6020026020010151828281518110613e1157613e11614ffd565b6001600160e01b031990921660209283029190910190910152600101613ddd565b509392505050565b613e4381613c1c565b6040516001600160a01b038216907fbc7cd75a20ee27fd9adebab32041f755214dbc6bffa90cc0225b39da2e5c2d3b905f90a250565b6060611a3983836040518060600160405280602781526020016157076027913960605f80856001600160a01b031685604051613eb59190615568565b5f60405180830381855af49150503d805f8114613eed576040519150601f19603f3d011682016040523d82523d5f602084013e613ef2565b606091505b5091509150613f0386838387613f0d565b9695505050505050565b60608315613f795782515f03613f7257613f2685612a7c565b613f725760405162461bcd60e51b815260206004820152601d60248201527f416464726573733a2063616c6c20746f206e6f6e2d636f6e74726163740000006044820152606401610438565b5081611974565b6119748383815115613f8e5781518083602001fd5b8060405162461bcd60e51b815260040161043891906145da565b6001600160e01b031991909116815260200190565b80356001600160e01b031981168114610faf575f80fd5b5f60208284031215613fe4575f80fd5b611a3982613fbd565b6001600160a01b03169052565b6001600160a01b0391909116815260200190565b634e487b7160e01b5f52604160045260245ffd5b604080519081016001600160401b03811182821017156140445761404461400e565b60405290565b60405160c081016001600160401b03811182821017156140445761404461400e565b604051608081016001600160401b03811182821017156140445761404461400e565b604051606081016001600160401b03811182821017156140445761404461400e565b60405161018081016001600160401b03811182821017156140445761404461400e565b604051601f8201601f191681016001600160401b03811182821017156140fb576140fb61400e565b604052919050565b5f6001600160401b0382111561411b5761411b61400e565b5060051b60200190565b6001600160a01b0381168114610fc4575f80fd5b8035610faf81614125565b5f82601f830112614153575f80fd5b8135602061416861416383614103565b6140d3565b8083825260208201915060208460051b870101935086841115614189575f80fd5b602086015b848110156141ae5780356141a181614125565b835291830191830161418e565b509695505050505050565b5f6001600160401b038211156141d1576141d161400e565b50601f01601f191660200190565b5f82601f8301126141ee575f80fd5b81356141fc614163826141b9565b818152846020838601011115614210575f80fd5b816020850160208301375f918101602001919091529392505050565b5f805f6060848603121561423e575f80fd5b83356001600160401b0380821115614254575f80fd5b61426087838801614144565b94506020860135915080821115614275575f80fd5b50614282868287016141df565b925050604084013561429381614125565b809150509250925092565b5f602082840312156142ae575f80fd5b5035919050565b5f805f80608085870312156142c8575f80fd5b8435935060208501356001600160401b03808211156142e5575f80fd5b90860190604082890312156142f8575f80fd5b614300614022565b82358152602083013582811115614315575f80fd5b6143218a8286016141df565b60208301525094505050604085013561433981614125565b9396929550929360600135925050565b5f805f6060848603121561435b575f80fd5b833561436681614125565b9250602084013561437681614125565b9150604084013561429381614125565b5f60208284031215614396575f80fd5b8135611a3981614125565b5f8083601f8401126143b1575f80fd5b5081356001600160401b038111156143c7575f80fd5b602083019150836020828501011115613420575f80fd5b5f805f805f606086880312156143f2575f80fd5b85356001600160401b0380821115614408575f80fd5b818801915088601f83011261441b575f80fd5b813581811115614429575f80fd5b8960208260051b850101111561443d575f80fd5b6020830197508096505061445360208901614139565b94506040880135915080821115614468575f80fd5b50614475888289016143a1565b969995985093965092949392505050565b93845260208401929092526040830152606082015260800190565b5f80604083850312156144b2575f80fd5b82356001600160401b038111156144c7575f80fd5b6144d3858286016141df565b92505060208301356144e481614125565b809150509250929050565b634e487b7160e01b5f52602160045260245ffd5b60058110614513576145136144ef565b9052565b6020810161118c8284614503565b5f8060408385031215614536575f80fd5b823561454181614125565b946020939093013593505050565b5f8060408385031215614560575f80fd5b50508035926020909101359150565b60038110614513576145136144ef565b6020810161118c828461456f565b5f5b838110156145a757818101518382015260200161458f565b50505f910152565b5f81518084526145c681602086016020860161458d565b601f01601f19169290920160200192915050565b602081525f611a3960208301846145af565b5f80604083850312156145fd575f80fd5b823561460881614125565b915060208301356001600160401b03811115614622575f80fd5b61462e858286016141df565b9150509250929050565b5f805f6060848603121561464a575f80fd5b833561465581614125565b925060208401356001600160401b0381111561466f575f80fd5b614282868287016141df565b5f815180845260208085019450602084015f5b838110156146b45781516001600160e01b0319168752958201959082019060010161468e565b509495945050505050565b5f60208083018184528085518083526040925060408601915060408160051b8701018488015f5b8381101561472e57888303603f19018552815180516001600160a01b0316845287015187840187905261471b8785018261467b565b95880195935050908601906001016146e6565b509098975050505050505050565b5f806040838503121561474d575f80fd5b61454183613fbd565b5f805f805f6060868803121561476a575f80fd5b8535945060208601356001600160401b0380821115614787575f80fd5b61479389838a016143a1565b90965094506040880135915080821115614468575f80fd5b8015158114610fc4575f80fd5b5f602082840312156147c8575f80fd5b8135611a39816147ab565b5f60c082840312156147e3575f80fd5b6147eb61404a565b905081356147f881614125565b8152602082013561480881614125565b8060208301525060408201356040820152606082013560608201526080820135608082015260a082013560a082015292915050565b5f6080828403121561484d575f80fd5b61485561406c565b90508135815260208201356020820152604082013560408201526060820135606082015292915050565b5f805f805f805f6101e0888a031215614896575f80fd5b6148a089896147d3565b96506148af8960c08a0161483d565b955061014088013594506101608801356001600160401b03808211156148d3575f80fd5b6148df8b838c01614144565b95506101808a01359150808211156148f5575f80fd5b506149028a828b01614144565b9350506101a088013561491481614125565b809250506101c0880135905092959891949750929550565b6001600160a01b038d811682528c811660208301528b166040820152606081018a90526080810189905261018081016007891061496b5761496b6144ef565b60a082019890985260c081019690965260e08601949094526101008501929092526101208401526101408301526101609091015295945050505050565b5f805f805f806101c087890312156149be575f80fd5b6149c888886147d3565b95506149d78860c0890161483d565b945061014087013593506101608701356001600160401b03808211156149fb575f80fd5b614a078a838b01614144565b9450610180890135915080821115614a1d575f80fd5b50614a2a89828a01614144565b9250506101a0870135614a3c81614125565b809150509295509295509295565b5f8060408385031215614a5b575f80fd5b8235915060208301356144e481614125565b5f8060408385031215614a7e575f80fd5b8235915060208301356001600160401b03811115614622575f80fd5b5f60208284031215614aaa575f80fd5b8151611a39816147ab565b6020808252602e908201527f496e697469616c697a61626c653a20636f6e747261637420697320616c72656160408201526d191e481a5b9a5d1a585b1a5e995960921b606082015260800190565b5f614b1061416384614103565b83815260208082019190600586811b860136811115614b2d575f80fd5b865b81811015614c165780356001600160401b0380821115614b4d575f80fd5b818a01915060608236031215614b61575f80fd5b614b6961408e565b8235614b7481614125565b81528287013560048110614b86575f80fd5b8188015260408381013583811115614b9c575f80fd5b939093019236601f850112614baf575f80fd5b83359250614bbf61416384614103565b83815292871b84018801928881019036851115614bda575f80fd5b948901945b84861015614bff57614bf086613fbd565b82529489019490890190614bdf565b918301919091525088525050948301948301614b2f565b5092979650505050505050565b600181811c90821680614c3757607f821691505b602082108103614c5557634e487b7160e01b5f52602260045260245ffd5b50919050565b6020808252602c908201525f8051602061568783398151915260408201526b19195b1959d85d1958d85b1b60a21b606082015260800190565b6020808252602c908201525f8051602061568783398151915260408201526b6163746976652070726f787960a01b606082015260800190565b5f60208284031215614cdd575f80fd5b8151611a3981614125565b8051610faf81614125565b5f6020808385031215614d04575f80fd5b82516001600160401b0380821115614d1a575f80fd5b9084019060c08287031215614d2d575f80fd5b614d3561404a565b8251815283830151614d4681614125565b818501526040830151614d5881614125565b6040820152606083015182811115614d6e575f80fd5b830160408189031215614d7f575f80fd5b614d87614022565b815181528582015184811115614d9b575f80fd5b82019350601f84018913614dad575f80fd5b83519150614dbd614163836141b9565b8281528987848701011115614dd0575f80fd5b614ddf8388830189880161458d565b95810195909552506060810193909352506080818101519083015260a090810151908201529392505050565b5f60208284031215614e1b575f80fd5b5051919050565b5f60208284031215614e32575f80fd5b815160ff81168114611a39575f80fd5b634e487b7160e01b5f52601160045260245ffd5b60ff828116828216039081111561118c5761118c614e42565b600181815b80851115614ea957815f1904821115614e8f57614e8f614e42565b80851615614e9c57918102915b93841c9390800290614e74565b509250929050565b5f82614ebf5750600161118c565b81614ecb57505f61118c565b8160018114614ee15760028114614eeb57614f07565b600191505061118c565b60ff841115614efc57614efc614e42565b50506001821b61118c565b5060208310610133831016604e8410600b8410161715614f2a575081810a61118c565b614f348383614e6f565b805f1904821115614f4757614f47614e42565b029392505050565b5f611a3960ff841683614eb1565b634e487b7160e01b5f52601260045260245ffd5b5f82614f8b57634e487b7160e01b5f52601260045260245ffd5b500490565b808202811582820484141761118c5761118c614e42565b8082018082111561118c5761118c614e42565b968752602087019590955260408601939093526060850191909152608084015260a083015260c082015260e00190565b8181038181111561118c5761118c614e42565b634e487b7160e01b5f52603260045260245ffd5b5f61ffff80831681810361502757615027614e42565b6001019392505050565b5f6001820161504257615042614e42565b5060010190565b5f60808284031215615059575f80fd5b61506161406c565b90508151815260208201516020820152604082015160408201526060820151606082015292915050565b805160038110610faf575f80fd5b805160058110610faf575f80fd5b5f602082840312156150b7575f80fd5b604051602081016001600160401b03811182821017156150d9576150d961400e565b6040529151825250919050565b5f60c082840312156150f6575f80fd5b6150fe61404a565b9050815161510b81614125565b8152602082015161511b81614125565b8060208301525060408201516040820152606082015160608201526080820151608082015260a082015160a082015292915050565b5f82601f83011261515f575f80fd5b8151602061516f61416383614103565b8083825260208201915060208460051b870101935086841115615190575f80fd5b602086015b848110156141ae5780516151a881614125565b8352918301918301615195565b5f602082840312156151c5575f80fd5b81516001600160401b03808211156151db575f80fd5b9083019061028082860312156151ef575f80fd5b6151f76140b0565b6152018684615049565b815261520f6080840161508b565b602082015261522060a08401615099565b60408201526152328660c085016150a7565b60608201526152448660e085016150e6565b60808201526152566101a08401614ce8565b60a08201526152686101c08401614ce8565b60c082015261527a6101e08401614ce8565b60e08201526102008301516101008201526102208301518281111561529d575f80fd5b6152a987828601615150565b610120830152506152bd6102408401614ce8565b6101408201526102609290920151610160830152509392505050565b805182526020810151602083015260408101516040830152606081015160608301525050565b5f815180845260208085019450602084015f5b838110156146b45781516001600160a01b031687529582019590820190600101615312565b8281526040602082015261534f6040820183516152d9565b5f602083015161536260c084018261456f565b50604083015161537560e0840182614503565b50606083015161010061538a81850183519052565b60808581015180516001600160a01b0390811661012088810191909152602083015190911661014088015260408201516101608801526060820151610180880152918101516101a087015260a0908101516101c087015286015192506153f46101e0860184613fed565b60c08601519250615409610200860184613fed565b60e0860151925061541e610220860184613fed565b9085015161024085015284015161028061026085018190529091506154476102c08501836152ff565b915061014085015161545b82860182613fed565b50506101608401516102a0840152809150509392505050565b5f8060408385031215615485575f80fd5b8251615490816147ab565b60208401519092506144e481614125565b6080810161118c82846152d9565b5f60608083016060845280875180835260808601915060808160051b87010192506020808a015f5b8381101561553a57888603607f19018552815180516001600160a01b03168752838101516004811061550b5761550b6144ef565b878501526040908101519087018890526155278888018261467b565b96505093820193908201906001016154d7565b50506155488188018a613fed565b505050838103604085015261555d81866145af565b979650505050505050565b5f825161557981846020870161458d565b9190910192915050565b634e487b7160e01b5f52600160045260245ffd5b602081525f611a39602083018461467b565b5f816155b7576155b7614e42565b505f190190565b634e487b7160e01b5f52603160045260245ffd5b6001600160a01b03831681526040602082018190525f90611974908301846145af56fe4c69624469616d6f6e644375743a204175746f20666163657420686173206e6f20636f6465c8fcad8db84d3cc18b4c41d551ea0ee66dd599cde068d998e57d5e09332c131c4c69624469616d6f6e644375743a2041646420666163657420686173206e6f20636f64654c69624469616d6f6e644375743a205f696e6974206164647265737320686173206e6f20636f646546756e6374696f6e206d7573742062652063616c6c6564207468726f75676820360894a13ba1a3210667c828492db98dca3e2076cc3735a920a3ca505d382bbc7f26b83ff96e1f2b6a682f133852f6798a09c465da95921460cefb38474024988be0079c531659141344cd1fd0a4f28419497f9722a3daafe3b4186f6b6457e0416464726573733a206c6f772d6c6576656c2064656c65676174652063616c6c206661696c65644c69624469616d6f6e644375743a205265706c61636520666163657420686173206e6f20636f6465a164736f6c6343000817000a",
        "nonce": "0x1411",
        "chainId": "0x66eee"
      },
      "additionalContracts": [],
      "isFixedGasLimit": false
    },
    {
      "hash": "0x2a70365d5e083fac190174b429ecfbf66c74d552dd071625fa9e67fe99d01649",
      "transactionType": "CALL",
      "contractName": "ERC1967Proxy",
      "contractAddress": "0x00d33e504517a03fe14e05863bb95983660b0c2c",
      "function": null,
      "arguments": null,
      "transaction": {
        "from": "0xb05a948b5c1b057b88d381bde3a375efea87ebad",
        "to": "0x00d33e504517a03fe14e05863bb95983660b0c2c",
        "gas": "0x12346",
        "value": "0x0",
        "input": "0x3659cfe600000000000000000000000063083caf1475c9ca68d01930d6c3b416069f3201",
        "nonce": "0x1412",
        "chainId": "0x66eee"
      },
      "additionalContracts": [],
      "isFixedGasLimit": false
    },
    {
      "hash": "0x8b68e7038bfb29494eb12a3f5c8b923471c489b42776657a1ce605672f4c3c2d",
      "transactionType": "CALL",
      "contractName": null,
      "contractAddress": "0x07563fce80b58a67f5d4a5332ee84747bfb829b9",
      "function": "upgradeTo(address)",
      "arguments": [
        "0x63083CAf1475C9cA68d01930D6C3b416069f3201"
      ],
      "transaction": {
        "from": "0xb05a948b5c1b057b88d381bde3a375efea87ebad",
        "to": "0x07563fce80b58a67f5d4a5332ee84747bfb829b9",
        "gas": "0x12346",
        "value": "0x0",
        "input": "0x3659cfe600000000000000000000000063083caf1475c9ca68d01930d6c3b416069f3201",
        "nonce": "0x1413",
        "chainId": "0x66eee"
      },
      "additionalContracts": [],
      "isFixedGasLimit": false
    },
    {
      "hash": "0x9c5240d7e11ee1b26b2a083f4bcd0cbef0f04e8936d9815e758b27f97629bbc2",
      "transactionType": "CALL",
      "contractName": null,
      "contractAddress": "0x14507f0e947e1547a86fb187a4959858e5aaadbd",
      "function": "upgradeTo(address)",
      "arguments": [
        "0x63083CAf1475C9cA68d01930D6C3b416069f3201"
      ],
      "transaction": {
        "from": "0xb05a948b5c1b057b88d381bde3a375efea87ebad",
        "to": "0x14507f0e947e1547a86fb187a4959858e5aaadbd",
        "gas": "0x12346",
        "value": "0x0",
        "input": "0x3659cfe600000000000000000000000063083caf1475c9ca68d01930d6c3b416069f3201",
        "nonce": "0x1414",
        "chainId": "0x66eee"
      },
      "additionalContracts": [],
      "isFixedGasLimit": false
    },
    {
      "hash": "0xb817bec975bffe38ac7608b9bf7684fb3406353df31f48bfd0d73716f352f248",
      "transactionType": "CALL",
      "contractName": null,
      "contractAddress": "0x15f3e3c557f0a9bed0eba3eadcc5837d964c50fd",
      "function": "upgradeTo(address)",
      "arguments": [
        "0x63083CAf1475C9cA68d01930D6C3b416069f3201"
      ],
      "transaction": {
        "from": "0xb05a948b5c1b057b88d381bde3a375efea87ebad",
        "to": "0x15f3e3c557f0a9bed0eba3eadcc5837d964c50fd",
        "gas": "0x12346",
        "value": "0x0",
        "input": "0x3659cfe600000000000000000000000063083caf1475c9ca68d01930d6c3b416069f3201",
        "nonce": "0x1415",
        "chainId": "0x66eee"
      },
      "additionalContracts": [],
      "isFixedGasLimit": false
    },
    {
      "hash": "0x4e6fa0ec7b8d7682b4276a15030b90d996e817b733739d7d99064583c325ac6a",
      "transactionType": "CALL",
      "contractName": null,
      "contractAddress": "0x194a593887a27200bf5a2b6713c1072882136b6c",
      "function": "upgradeTo(address)",
      "arguments": [
        "0x63083CAf1475C9cA68d01930D6C3b416069f3201"
      ],
      "transaction": {
        "from": "0xb05a948b5c1b057b88d381bde3a375efea87ebad",
        "to": "0x194a593887a27200bf5a2b6713c1072882136b6c",
        "gas": "0x12346",
        "value": "0x0",
        "input": "0x3659cfe600000000000000000000000063083caf1475c9ca68d01930d6c3b416069f3201",
        "nonce": "0x1416",
        "chainId": "0x66eee"
      },
      "additionalContracts": [],
      "isFixedGasLimit": false
    },
    {
      "hash": "0x755da12a41a52e0d69e51b95e81378704f6efa4c71089bfff940ee7c52b4a5c6",
      "transactionType": "CALL",
      "contractName": null,
      "contractAddress": "0x2155378db737b5382d05bdc204f335b7da88af2b",
      "function": "upgradeTo(address)",
      "arguments": [
        "0x63083CAf1475C9cA68d01930D6C3b416069f3201"
      ],
      "transaction": {
        "from": "0xb05a948b5c1b057b88d381bde3a375efea87ebad",
        "to": "0x2155378db737b5382d05bdc204f335b7da88af2b",
        "gas": "0x12346",
        "value": "0x0",
        "input": "0x3659cfe600000000000000000000000063083caf1475c9ca68d01930d6c3b416069f3201",
        "nonce": "0x1417",
        "chainId": "0x66eee"
      },
      "additionalContracts": [],
      "isFixedGasLimit": false
    },
    {
      "hash": "0xd2fc341f4d5cf5750526154bf74534fe418601e2b57ff7381fe57c19a41123f5",
      "transactionType": "CALL",
      "contractName": null,
      "contractAddress": "0x2b08977d2ceb9520f4faa1556cfe0098e3b6306a",
      "function": "upgradeTo(address)",
      "arguments": [
        "0x63083CAf1475C9cA68d01930D6C3b416069f3201"
      ],
      "transaction": {
        "from": "0xb05a948b5c1b057b88d381bde3a375efea87ebad",
        "to": "0x2b08977d2ceb9520f4faa1556cfe0098e3b6306a",
        "gas": "0x1133e",
        "value": "0x0",
        "input": "0x3659cfe600000000000000000000000063083caf1475c9ca68d01930d6c3b416069f3201",
        "nonce": "0x1418",
        "chainId": "0x66eee"
      },
      "additionalContracts": [],
      "isFixedGasLimit": false
    },
    {
      "hash": "0xbdaa84d7bbb0747e4aac99b306cc00175b12fcdac112e8e7fb19a13da507d501",
      "transactionType": "CALL",
      "contractName": null,
      "contractAddress": "0x2c668e36496b2acd69e46418d5c1de0f43c9c4d2",
      "function": "upgradeTo(address)",
      "arguments": [
        "0x63083CAf1475C9cA68d01930D6C3b416069f3201"
      ],
      "transaction": {
        "from": "0xb05a948b5c1b057b88d381bde3a375efea87ebad",
        "to": "0x2c668e36496b2acd69e46418d5c1de0f43c9c4d2",
        "gas": "0x12346",
        "value": "0x0",
        "input": "0x3659cfe600000000000000000000000063083caf1475c9ca68d01930d6c3b416069f3201",
        "nonce": "0x1419",
        "chainId": "0x66eee"
      },
      "additionalContracts": [],
      "isFixedGasLimit": false
    },
    {
      "hash": "0xf3624767d5bc49a8caba6d453149dd81ff8c43085e20cc0c310ab8078f6f5ae0",
      "transactionType": "CALL",
      "contractName": null,
      "contractAddress": "0x2f0af7438699d6b9ee6849a906f85f7c5851b3e6",
      "function": "upgradeTo(address)",
      "arguments": [
        "0x63083CAf1475C9cA68d01930D6C3b416069f3201"
      ],
      "transaction": {
        "from": "0xb05a948b5c1b057b88d381bde3a375efea87ebad",
        "to": "0x2f0af7438699d6b9ee6849a906f85f7c5851b3e6",
        "gas": "0x12346",
        "value": "0x0",
        "input": "0x3659cfe600000000000000000000000063083caf1475c9ca68d01930d6c3b416069f3201",
        "nonce": "0x141a",
        "chainId": "0x66eee"
      },
      "additionalContracts": [],
      "isFixedGasLimit": false
    },
    {
      "hash": "0x1fd0429736dbbffdcfadd721e9c27e6692e17920f7527c09da5514fd11ad988d",
      "transactionType": "CALL",
      "contractName": null,
      "contractAddress": "0x316e665465960b79aea9bf53e33a9a2bbcde39e6",
      "function": "upgradeTo(address)",
      "arguments": [
        "0x63083CAf1475C9cA68d01930D6C3b416069f3201"
      ],
      "transaction": {
        "from": "0xb05a948b5c1b057b88d381bde3a375efea87ebad",
        "to": "0x316e665465960b79aea9bf53e33a9a2bbcde39e6",
        "gas": "0x1133e",
        "value": "0x0",
        "input": "0x3659cfe600000000000000000000000063083caf1475c9ca68d01930d6c3b416069f3201",
        "nonce": "0x141b",
        "chainId": "0x66eee"
      },
      "additionalContracts": [],
      "isFixedGasLimit": false
    },
    {
      "hash": "0xe838998d6c20e3d319a072c2b2d02024404c8d28a9a836d93110a2f38dc09924",
      "transactionType": "CALL",
      "contractName": null,
      "contractAddress": "0x33482037160b54625e7844cbaa90f808b4dcc1ee",
      "function": "upgradeTo(address)",
      "arguments": [
        "0x63083CAf1475C9cA68d01930D6C3b416069f3201"
      ],
      "transaction": {
        "from": "0xb05a948b5c1b057b88d381bde3a375efea87ebad",
        "to": "0x33482037160b54625e7844cbaa90f808b4dcc1ee",
        "gas": "0x12346",
        "value": "0x0",
        "input": "0x3659cfe600000000000000000000000063083caf1475c9ca68d01930d6c3b416069f3201",
        "nonce": "0x141c",
        "chainId": "0x66eee"
      },
      "additionalContracts": [],
      "isFixedGasLimit": false
    },
    {
      "hash": "0xb2fcbb6c5aaf0bb5a1cb25ce0d58aa0bcc785b39740b62065f7dac9b35fb7bad",
      "transactionType": "CALL",
      "contractName": null,
      "contractAddress": "0x39e279272604b7c09ccffb23d4ab5311b5754d7d",
      "function": "upgradeTo(address)",
      "arguments": [
        "0x63083CAf1475C9cA68d01930D6C3b416069f3201"
      ],
      "transaction": {
        "from": "0xb05a948b5c1b057b88d381bde3a375efea87ebad",
        "to": "0x39e279272604b7c09ccffb23d4ab5311b5754d7d",
        "gas": "0x12346",
        "value": "0x0",
        "input": "0x3659cfe600000000000000000000000063083caf1475c9ca68d01930d6c3b416069f3201",
        "nonce": "0x141d",
        "chainId": "0x66eee"
      },
      "additionalContracts": [],
      "isFixedGasLimit": false
    },
    {
      "hash": "0x74c57f04231207abe7330087cf5fcc1ad7b007a7aafe1cd5f1f482f281936c94",
      "transactionType": "CALL",
      "contractName": null,
      "contractAddress": "0x3bd8c9056a448c7ab3f398df2ffea114febd9139",
      "function": "upgradeTo(address)",
      "arguments": [
        "0x63083CAf1475C9cA68d01930D6C3b416069f3201"
      ],
      "transaction": {
        "from": "0xb05a948b5c1b057b88d381bde3a375efea87ebad",
        "to": "0x3bd8c9056a448c7ab3f398df2ffea114febd9139",
        "gas": "0x12346",
        "value": "0x0",
        "input": "0x3659cfe600000000000000000000000063083caf1475c9ca68d01930d6c3b416069f3201",
        "nonce": "0x141e",
        "chainId": "0x66eee"
      },
      "additionalContracts": [],
      "isFixedGasLimit": false
    },
    {
      "hash": "0x67f6468e5a77d8cc606212cd53ce9a960fe99bd49e60424c90f12e2a7d2378e6",
      "transactionType": "CALL",
      "contractName": null,
      "contractAddress": "0x4023e514a47c87a507623f08e748db7ae05da1c4",
      "function": "upgradeTo(address)",
      "arguments": [
        "0x63083CAf1475C9cA68d01930D6C3b416069f3201"
      ],
      "transaction": {
        "from": "0xb05a948b5c1b057b88d381bde3a375efea87ebad",
        "to": "0x4023e514a47c87a507623f08e748db7ae05da1c4",
        "gas": "0x12346",
        "value": "0x0",
        "input": "0x3659cfe600000000000000000000000063083caf1475c9ca68d01930d6c3b416069f3201",
        "nonce": "0x141f",
        "chainId": "0x66eee"
      },
      "additionalContracts": [],
      "isFixedGasLimit": false
    },
    {
      "hash": "0x2c48867f2fa48bc149a6673f83425a59f79b90891213e1d7731f9975597d6772",
      "transactionType": "CALL",
      "contractName": null,
      "contractAddress": "0x4440e05839eaacc4927178756faa48ecc23386f8",
      "function": "upgradeTo(address)",
      "arguments": [
        "0x63083CAf1475C9cA68d01930D6C3b416069f3201"
      ],
      "transaction": {
        "from": "0xb05a948b5c1b057b88d381bde3a375efea87ebad",
        "to": "0x4440e05839eaacc4927178756faa48ecc23386f8",
        "gas": "0x12346",
        "value": "0x0",
        "input": "0x3659cfe600000000000000000000000063083caf1475c9ca68d01930d6c3b416069f3201",
        "nonce": "0x1420",
        "chainId": "0x66eee"
      },
      "additionalContracts": [],
      "isFixedGasLimit": false
    },
    {
      "hash": "0x979f9f66603384b5dcbf921f72d8889cdf88ea005b1cd9cdaa68dbcb1020cfdf",
      "transactionType": "CALL",
      "contractName": null,
      "contractAddress": "0x464f010f343bb52689e8579c84e76c8e04c7dbdc",
      "function": "upgradeTo(address)",
      "arguments": [
        "0x63083CAf1475C9cA68d01930D6C3b416069f3201"
      ],
      "transaction": {
        "from": "0xb05a948b5c1b057b88d381bde3a375efea87ebad",
        "to": "0x464f010f343bb52689e8579c84e76c8e04c7dbdc",
        "gas": "0x12346",
        "value": "0x0",
        "input": "0x3659cfe600000000000000000000000063083caf1475c9ca68d01930d6c3b416069f3201",
        "nonce": "0x1421",
        "chainId": "0x66eee"
      },
      "additionalContracts": [],
      "isFixedGasLimit": false
    },
    {
      "hash": "0xaffab8a2307bb0fe96c6a45b021fd89a3e7acc327df20981a8336acdcb91f7fb",
      "transactionType": "CALL",
      "contractName": null,
      "contractAddress": "0x565f8f945d08a7dd3c67a926b2b0b25704718d8a",
      "function": "upgradeTo(address)",
      "arguments": [
        "0x63083CAf1475C9cA68d01930D6C3b416069f3201"
      ],
      "transaction": {
        "from": "0xb05a948b5c1b057b88d381bde3a375efea87ebad",
        "to": "0x565f8f945d08a7dd3c67a926b2b0b25704718d8a",
        "gas": "0x12346",
        "value": "0x0",
        "input": "0x3659cfe600000000000000000000000063083caf1475c9ca68d01930d6c3b416069f3201",
        "nonce": "0x1422",
        "chainId": "0x66eee"
      },
      "additionalContracts": [],
      "isFixedGasLimit": false
    },
    {
      "hash": "0x4776b1b94a459a2a49f5c9308cf43350df2c26c3e77cb240f8b4e8d82c2b15e2",
      "transactionType": "CALL",
      "contractName": null,
      "contractAddress": "0x61f0d03b1f00b872c7c9ee03a12224cb70e93ea2",
      "function": "upgradeTo(address)",
      "arguments": [
        "0x63083CAf1475C9cA68d01930D6C3b416069f3201"
      ],
      "transaction": {
        "from": "0xb05a948b5c1b057b88d381bde3a375efea87ebad",
        "to": "0x61f0d03b1f00b872c7c9ee03a12224cb70e93ea2",
        "gas": "0x12346",
        "value": "0x0",
        "input": "0x3659cfe600000000000000000000000063083caf1475c9ca68d01930d6c3b416069f3201",
        "nonce": "0x1423",
        "chainId": "0x66eee"
      },
      "additionalContracts": [],
      "isFixedGasLimit": false
    },
    {
      "hash": "0x7444b4e375df0d35ca13b1b0b44023253ba5624d1a17a656881a8881fd8f5346",
      "transactionType": "CALL",
      "contractName": null,
      "contractAddress": "0x62884d6a9b30cfbe52eddd3e365a996123d28c47",
      "function": "upgradeTo(address)",
      "arguments": [
        "0x63083CAf1475C9cA68d01930D6C3b416069f3201"
      ],
      "transaction": {
        "from": "0xb05a948b5c1b057b88d381bde3a375efea87ebad",
        "to": "0x62884d6a9b30cfbe52eddd3e365a996123d28c47",
        "gas": "0x12346",
        "value": "0x0",
        "input": "0x3659cfe600000000000000000000000063083caf1475c9ca68d01930d6c3b416069f3201",
        "nonce": "0x1424",
        "chainId": "0x66eee"
      },
      "additionalContracts": [],
      "isFixedGasLimit": false
    },
    {
      "hash": "0x1b3bc068db362c466c0745eec07e7977ede0957e0e70ebcd2290c6bd4bc28ea2",
      "transactionType": "CALL",
      "contractName": null,
      "contractAddress": "0x6b999ed850de2c5c923eaafc3c15781bd2ccf9d6",
      "function": "upgradeTo(address)",
      "arguments": [
        "0x63083CAf1475C9cA68d01930D6C3b416069f3201"
      ],
      "transaction": {
        "from": "0xb05a948b5c1b057b88d381bde3a375efea87ebad",
        "to": "0x6b999ed850de2c5c923eaafc3c15781bd2ccf9d6",
        "gas": "0x12346",
        "value": "0x0",
        "input": "0x3659cfe600000000000000000000000063083caf1475c9ca68d01930d6c3b416069f3201",
        "nonce": "0x1425",
        "chainId": "0x66eee"
      },
      "additionalContracts": [],
      "isFixedGasLimit": false
    },
    {
      "hash": "0x4440b282431c866e05454db5ff9af2df59251f47ceadca869a412abd3a9bfe8c",
      "transactionType": "CALL",
      "contractName": null,
      "contractAddress": "0x8a3004467f9a4c3233f0ca20ab126d322ce14dc5",
      "function": "upgradeTo(address)",
      "arguments": [
        "0x63083CAf1475C9cA68d01930D6C3b416069f3201"
      ],
      "transaction": {
        "from": "0xb05a948b5c1b057b88d381bde3a375efea87ebad",
        "to": "0x8a3004467f9a4c3233f0ca20ab126d322ce14dc5",
        "gas": "0x12346",
        "value": "0x0",
        "input": "0x3659cfe600000000000000000000000063083caf1475c9ca68d01930d6c3b416069f3201",
        "nonce": "0x1426",
        "chainId": "0x66eee"
      },
      "additionalContracts": [],
      "isFixedGasLimit": false
    },
    {
      "hash": "0xa9c021a980d040dc7a284a1a3e892aa273e8d301b8b0d1d8a140451555c7f5d4",
      "transactionType": "CALL",
      "contractName": null,
      "contractAddress": "0x8b02e15e5e78a3e0baf99205fabab0b971f30ac3",
      "function": "upgradeTo(address)",
      "arguments": [
        "0x63083CAf1475C9cA68d01930D6C3b416069f3201"
      ],
      "transaction": {
        "from": "0xb05a948b5c1b057b88d381bde3a375efea87ebad",
        "to": "0x8b02e15e5e78a3e0baf99205fabab0b971f30ac3",
        "gas": "0x12346",
        "value": "0x0",
        "input": "0x3659cfe600000000000000000000000063083caf1475c9ca68d01930d6c3b416069f3201",
        "nonce": "0x1427",
        "chainId": "0x66eee"
      },
      "additionalContracts": [],
      "isFixedGasLimit": false
    },
    {
      "hash": "0xe79b5ae0ba6820ced2861a0e2269ab01746eba4b877c01eec467d8b2863bf991",
      "transactionType": "CALL",
      "contractName": null,
      "contractAddress": "0x9dca528cd12c62cec0d37c17a9d23a4b8777d329",
      "function": "upgradeTo(address)",
      "arguments": [
        "0x63083CAf1475C9cA68d01930D6C3b416069f3201"
      ],
      "transaction": {
        "from": "0xb05a948b5c1b057b88d381bde3a375efea87ebad",
        "to": "0x9dca528cd12c62cec0d37c17a9d23a4b8777d329",
        "gas": "0x12346",
        "value": "0x0",
        "input": "0x3659cfe600000000000000000000000063083caf1475c9ca68d01930d6c3b416069f3201",
        "nonce": "0x1428",
        "chainId": "0x66eee"
      },
      "additionalContracts": [],
      "isFixedGasLimit": false
    },
    {
      "hash": "0x4d6a0405bf3e2b2017308e8cf2e46a3ee3cb65d464578f3accf1ba92bd899104",
      "transactionType": "CALL",
      "contractName": null,
      "contractAddress": "0x9e9321526d2f36d521ad4f70786b1adba73023a2",
      "function": "upgradeTo(address)",
      "arguments": [
        "0x63083CAf1475C9cA68d01930D6C3b416069f3201"
      ],
      "transaction": {
        "from": "0xb05a948b5c1b057b88d381bde3a375efea87ebad",
        "to": "0x9e9321526d2f36d521ad4f70786b1adba73023a2",
        "gas": "0x12346",
        "value": "0x0",
        "input": "0x3659cfe600000000000000000000000063083caf1475c9ca68d01930d6c3b416069f3201",
        "nonce": "0x1429",
        "chainId": "0x66eee"
      },
      "additionalContracts": [],
      "isFixedGasLimit": false
    },
    {
      "hash": "0xbf06a6fb19d31c697030057af84677484456d410422152e700e5343edefec358",
      "transactionType": "CALL",
      "contractName": null,
      "contractAddress": "0xbf1be81e895ddf480333e0aa7f23a17d170ce662",
      "function": "upgradeTo(address)",
      "arguments": [
        "0x63083CAf1475C9cA68d01930D6C3b416069f3201"
      ],
      "transaction": {
        "from": "0xb05a948b5c1b057b88d381bde3a375efea87ebad",
        "to": "0xbf1be81e895ddf480333e0aa7f23a17d170ce662",
        "gas": "0x12346",
        "value": "0x0",
        "input": "0x3659cfe600000000000000000000000063083caf1475c9ca68d01930d6c3b416069f3201",
        "nonce": "0x142a",
        "chainId": "0x66eee"
      },
      "additionalContracts": [],
      "isFixedGasLimit": false
    },
    {
      "hash": "0x0981eb0ab566d5346d3b0d88625d517f79f586ea539ebef415506d476405c9e8",
      "transactionType": "CALL",
      "contractName": null,
      "contractAddress": "0xc63cec086a031119a2570f9164b268b1bcdc790f",
      "function": "upgradeTo(address)",
      "arguments": [
        "0x63083CAf1475C9cA68d01930D6C3b416069f3201"
      ],
      "transaction": {
        "from": "0xb05a948b5c1b057b88d381bde3a375efea87ebad",
        "to": "0xc63cec086a031119a2570f9164b268b1bcdc790f",
        "gas": "0x1133e",
        "value": "0x0",
        "input": "0x3659cfe600000000000000000000000063083caf1475c9ca68d01930d6c3b416069f3201",
        "nonce": "0x142b",
        "chainId": "0x66eee"
      },
      "additionalContracts": [],
      "isFixedGasLimit": false
    },
    {
      "hash": "0x918f7158bfb84c8068b5f6003a04b8aee0ced025fd3d7ef81cc281da4f4faf46",
      "transactionType": "CALL",
      "contractName": null,
      "contractAddress": "0xd37fa4ad1791ac2c27b8dec1fdea5b318b9a444e",
      "function": "upgradeTo(address)",
      "arguments": [
        "0x63083CAf1475C9cA68d01930D6C3b416069f3201"
      ],
      "transaction": {
        "from": "0xb05a948b5c1b057b88d381bde3a375efea87ebad",
        "to": "0xd37fa4ad1791ac2c27b8dec1fdea5b318b9a444e",
        "gas": "0x12346",
        "value": "0x0",
        "input": "0x3659cfe600000000000000000000000063083caf1475c9ca68d01930d6c3b416069f3201",
        "nonce": "0x142c",
        "chainId": "0x66eee"
      },
      "additionalContracts": [],
      "isFixedGasLimit": false
    },
    {
      "hash": "0xdda0bc3d2ae2487131de2f6690ef1ea5cbd4514ceb67360f6e96a5139cd30ce7",
      "transactionType": "CALL",
      "contractName": "ERC1967Proxy",
      "contractAddress": "0xd682ff9fb3c4c28c35dfa8830280d9a1c5bbfee4",
      "function": null,
      "arguments": null,
      "transaction": {
        "from": "0xb05a948b5c1b057b88d381bde3a375efea87ebad",
        "to": "0xd682ff9fb3c4c28c35dfa8830280d9a1c5bbfee4",
        "gas": "0x12346",
        "value": "0x0",
        "input": "0x3659cfe600000000000000000000000063083caf1475c9ca68d01930d6c3b416069f3201",
        "nonce": "0x142d",
        "chainId": "0x66eee"
      },
      "additionalContracts": [],
      "isFixedGasLimit": false
    },
    {
      "hash": "0x8f7271bd161b92289934777aed84996b994c4ca62d102df96cd9493b8df5f2e6",
      "transactionType": "CALL",
      "contractName": null,
      "contractAddress": "0xe6dedd7a954c51ddb283b751db6970a75d067cad",
      "function": "upgradeTo(address)",
      "arguments": [
        "0x63083CAf1475C9cA68d01930D6C3b416069f3201"
      ],
      "transaction": {
        "from": "0xb05a948b5c1b057b88d381bde3a375efea87ebad",
        "to": "0xe6dedd7a954c51ddb283b751db6970a75d067cad",
        "gas": "0x12346",
        "value": "0x0",
        "input": "0x3659cfe600000000000000000000000063083caf1475c9ca68d01930d6c3b416069f3201",
        "nonce": "0x142e",
        "chainId": "0x66eee"
      },
      "additionalContracts": [],
      "isFixedGasLimit": false
    }
  ],
  "receipts": [
    {
      "status": "0x1",
      "cumulativeGasUsed": "0x520a5a",
      "logs": [
        {
          "address": "0x63083caf1475c9ca68d01930d6c3b416069f3201",
          "topics": [
            "0x7f26b83ff96e1f2b6a682f133852f6798a09c465da95921460cefb3847402498"
          ],
          "data": "0x00000000000000000000000000000000000000000000000000000000000000ff",
          "blockHash": "0x6c9bc2f739fb80c9aab0b4ccf703304ef6633df7cc64d7e63bfe2bcc044c8162",
          "blockNumber": "0xedb7135",
          "blockTimestamp": "0x69b21e4b",
          "transactionHash": "0x6735b54956183666410103233aaaab28fdc44ec1fc459357f8fea4a247ac7eca",
          "transactionIndex": "0x2",
          "logIndex": "0x5",
          "removed": false
        }
      ],
      "logsBloom": "0x00000000000000000000000000000000000000000000000000000000000000000000400000000000000000000000000000000000000000000000000000000000000000000000000000000000000000000000000000000000000000000000000000000000000000000000000000080000000000000000000000000000000000000000000000000000000000000000000000000000000080000000000000000000000800000000000000000000000400000000000000000000000000000000000000000000000000000000000000040000000000000000000000000000000000000000000000000000000000000000000000000000000000000000000000000000",
      "type": "0x2",
      "transactionHash": "0x6735b54956183666410103233aaaab28fdc44ec1fc459357f8fea4a247ac7eca",
      "transactionIndex": "0x2",
      "blockHash": "0x6c9bc2f739fb80c9aab0b4ccf703304ef6633df7cc64d7e63bfe2bcc044c8162",
      "blockNumber": "0xedb7135",
      "gasUsed": "0x4b06f1",
      "effectiveGasPrice": "0x1312d00",
      "from": "0xb05a948b5c1b057b88d381bde3a375efea87ebad",
      "to": null,
      "contractAddress": "0x63083caf1475c9ca68d01930d6c3b416069f3201",
      "gasUsedForL1": "0x0",
      "l1BlockNumber": "0x9f26c9",
      "timeboosted": false
    },
    {
      "status": "0x1",
      "cumulativeGasUsed": "0xc72a",
      "logs": [
        {
          "address": "0x00d33e504517a03fe14e05863bb95983660b0c2c",
          "topics": [
            "0xbc7cd75a20ee27fd9adebab32041f755214dbc6bffa90cc0225b39da2e5c2d3b",
            "0x00000000000000000000000063083caf1475c9ca68d01930d6c3b416069f3201"
          ],
          "data": "0x",
          "blockHash": "0x291869deb98a4ec0fa29054494d87346cf7904adf7d2ad6dac08ccfb7cbc1213",
          "blockNumber": "0xedb7137",
          "blockTimestamp": "0x69b21e4b",
          "transactionHash": "0x2a70365d5e083fac190174b429ecfbf66c74d552dd071625fa9e67fe99d01649",
          "transactionIndex": "0x1",
          "logIndex": "0x0",
          "removed": false
        }
      ],
      "logsBloom": "0x00000000000000000000000400000000400000000000000000000000000000000000040000000000000001000000000000000000000000000000000000000000000000000000000000000000000002000000000000000000000000000000000000000000000000000000000000004000000000000000000000000000000000000000000000000000000000000000000000000020000000000000000000000000000000000000000000000000000000000000000000000000000000000002000000000020000000000000000000000000000000000000000000000000000000000000000000000000000000000000000000000000000000000000000000000000",
      "type": "0x2",
      "transactionHash": "0x2a70365d5e083fac190174b429ecfbf66c74d552dd071625fa9e67fe99d01649",
      "transactionIndex": "0x1",
      "blockHash": "0x291869deb98a4ec0fa29054494d87346cf7904adf7d2ad6dac08ccfb7cbc1213",
      "blockNumber": "0xedb7137",
      "gasUsed": "0xc72a",
      "effectiveGasPrice": "0x136f960",
      "from": "0xb05a948b5c1b057b88d381bde3a375efea87ebad",
      "to": "0x00d33e504517a03fe14e05863bb95983660b0c2c",
      "contractAddress": null,
      "gasUsedForL1": "0x0",
      "l1BlockNumber": "0x9f26c9",
      "timeboosted": false
    },
    {
      "status": "0x1",
      "cumulativeGasUsed": "0x22036",
      "logs": [
        {
          "address": "0x07563fce80b58a67f5d4a5332ee84747bfb829b9",
          "topics": [
            "0xbc7cd75a20ee27fd9adebab32041f755214dbc6bffa90cc0225b39da2e5c2d3b",
            "0x00000000000000000000000063083caf1475c9ca68d01930d6c3b416069f3201"
          ],
          "data": "0x",
          "blockHash": "0x21be39832982c8943f24048cec3bf6160994d59c690ebce07579d7e4a69668a2",
          "blockNumber": "0xedb7139",
          "blockTimestamp": "0x69b21e4c",
          "transactionHash": "0x8b68e7038bfb29494eb12a3f5c8b923471c489b42776657a1ce605672f4c3c2d",
          "transactionIndex": "0x3",
          "logIndex": "0x2",
          "removed": false
        }
      ],
      "logsBloom": "0x00000000000000000000000000000000400000000000000000000000000000000000040000000000000001000000000000000000000020000000000000000000000000000000000000800000000002000000000000000000000000000000000000000000000000000000000000000000000000000000000000000000000000000000000000000000000000000000000000000000000000000000000000000000000000000000000000000000000000000000000000000000000000000002000000000020000000000000000000000000000000000000000000000000000000000000080000000000000000000000000000000000000000000000000000000000",
      "type": "0x2",
      "transactionHash": "0x8b68e7038bfb29494eb12a3f5c8b923471c489b42776657a1ce605672f4c3c2d",
      "transactionIndex": "0x3",
      "blockHash": "0x21be39832982c8943f24048cec3bf6160994d59c690ebce07579d7e4a69668a2",
      "blockNumber": "0xedb7139",
      "gasUsed": "0xc72a",
      "effectiveGasPrice": "0x1312d00",
      "from": "0xb05a948b5c1b057b88d381bde3a375efea87ebad",
      "to": "0x07563fce80b58a67f5d4a5332ee84747bfb829b9",
      "contractAddress": null,
      "gasUsedForL1": "0x0",
      "l1BlockNumber": "0x9f26c9",
      "timeboosted": false
    },
    {
      "status": "0x1",
      "cumulativeGasUsed": "0x261af",
      "logs": [
        {
          "address": "0x14507f0e947e1547a86fb187a4959858e5aaadbd",
          "topics": [
            "0xbc7cd75a20ee27fd9adebab32041f755214dbc6bffa90cc0225b39da2e5c2d3b",
            "0x00000000000000000000000063083caf1475c9ca68d01930d6c3b416069f3201"
          ],
          "data": "0x",
          "blockHash": "0xd03c2ee07675b8cfca64db006d412edb3ee7b05e1947ae12d245806137b08356",
          "blockNumber": "0xedb713b",
          "blockTimestamp": "0x69b21e4c",
          "transactionHash": "0x9c5240d7e11ee1b26b2a083f4bcd0cbef0f04e8936d9815e758b27f97629bbc2",
          "transactionIndex": "0x2",
          "logIndex": "0x3",
          "removed": false
        }
      ],
      "logsBloom": "0x00000000000000000000000000000000400000000000000000000000000000000000040000000000000001000000400000000000000000000000000000000000000400000000000000000000000002000000000000000000000000000000000000000000000000000000000000000000000000000000000000000000000000000000000000000000000000000000000000000000000000000000000000000000000000000000000000000000000000000000000000000000000000000002000000000020000000000000002000000000000000000000000000000000000000000000000000000000000000000000000000000000000000000000000000000000",
      "type": "0x2",
      "transactionHash": "0x9c5240d7e11ee1b26b2a083f4bcd0cbef0f04e8936d9815e758b27f97629bbc2",
      "transactionIndex": "0x2",
      "blockHash": "0xd03c2ee07675b8cfca64db006d412edb3ee7b05e1947ae12d245806137b08356",
      "blockNumber": "0xedb713b",
      "gasUsed": "0xc72a",
      "effectiveGasPrice": "0x13163b0",
      "from": "0xb05a948b5c1b057b88d381bde3a375efea87ebad",
      "to": "0x14507f0e947e1547a86fb187a4959858e5aaadbd",
      "contractAddress": null,
      "gasUsedForL1": "0x0",
      "l1BlockNumber": "0x9f26c9",
      "timeboosted": false
    },
    {
      "status": "0x1",
      "cumulativeGasUsed": "0xc72a",
      "logs": [
        {
          "address": "0x15f3e3c557f0a9bed0eba3eadcc5837d964c50fd",
          "topics": [
            "0xbc7cd75a20ee27fd9adebab32041f755214dbc6bffa90cc0225b39da2e5c2d3b",
            "0x00000000000000000000000063083caf1475c9ca68d01930d6c3b416069f3201"
          ],
          "data": "0x",
          "blockHash": "0x223a213cbe89addcecb114734b6037ce49b1fae1cd814d9be3326e2fb6d12c15",
          "blockNumber": "0xedb713e",
          "blockTimestamp": "0x69b21e4d",
          "transactionHash": "0xb817bec975bffe38ac7608b9bf7684fb3406353df31f48bfd0d73716f352f248",
          "transactionIndex": "0x1",
          "logIndex": "0x0",
          "removed": false
        }
      ],
      "logsBloom": "0x00000000000000000000000000000000400000000000000000000000000000000000040000002000000001000000000000000000000000000000000000000000000000000000000000000000000002000000000000000000000000000000000000000000000000000000000000000000000000000000000000000000000000000000000000000000010000000000000000000000000000000000000000000000000000000000000000000000800000000000000000000000000000000002000000000020000000000000000000000000000000000000000000000000000000000000000000000000000000000000000000000000000000000000000000000000",
      "type": "0x2",
      "transactionHash": "0xb817bec975bffe38ac7608b9bf7684fb3406353df31f48bfd0d73716f352f248",
      "transactionIndex": "0x1",
      "blockHash": "0x223a213cbe89addcecb114734b6037ce49b1fae1cd814d9be3326e2fb6d12c15",
      "blockNumber": "0xedb713e",
      "gasUsed": "0xc72a",
      "effectiveGasPrice": "0x1315410",
      "from": "0xb05a948b5c1b057b88d381bde3a375efea87ebad",
      "to": "0x15f3e3c557f0a9bed0eba3eadcc5837d964c50fd",
      "contractAddress": null,
      "gasUsedForL1": "0x0",
      "l1BlockNumber": "0x9f26c9",
      "timeboosted": false
    },
    {
      "status": "0x1",
      "cumulativeGasUsed": "0x261a3",
      "logs": [
        {
          "address": "0x194a593887a27200bf5a2b6713c1072882136b6c",
          "topics": [
            "0xbc7cd75a20ee27fd9adebab32041f755214dbc6bffa90cc0225b39da2e5c2d3b",
            "0x00000000000000000000000063083caf1475c9ca68d01930d6c3b416069f3201"
          ],
          "data": "0x",
          "blockHash": "0x82f8afa9d05c31357c630999e7a7b519659b2cf93b3b3d1eff566a51591278d8",
          "blockNumber": "0xedb7140",
          "blockTimestamp": "0x69b21e4e",
          "transactionHash": "0x4e6fa0ec7b8d7682b4276a15030b90d996e817b733739d7d99064583c325ac6a",
          "transactionIndex": "0x2",
          "logIndex": "0x3",
          "removed": false
        }
      ],
      "logsBloom": "0x00000000000000000000000000000000400000000000000000000000000800000000040000000000000001000000000000000000000800000000000000000000000000000000000000000000000002000000000000000000000000000000000000000000000000000000000000000000000000000000000000000000000000000000020000000000000000000000000000000000000000000000000000000000000000000000000000000000000000000000000000000000000000000002000000000020000000000000000000000000000000000000000000000000000000000000000000000000000000000000000000000000000000000000000000000000",
      "type": "0x2",
      "transactionHash": "0x4e6fa0ec7b8d7682b4276a15030b90d996e817b733739d7d99064583c325ac6a",
      "transactionIndex": "0x2",
      "blockHash": "0x82f8afa9d05c31357c630999e7a7b519659b2cf93b3b3d1eff566a51591278d8",
      "blockNumber": "0xedb7140",
      "gasUsed": "0xc72a",
      "effectiveGasPrice": "0x1318ac0",
      "from": "0xb05a948b5c1b057b88d381bde3a375efea87ebad",
      "to": "0x194a593887a27200bf5a2b6713c1072882136b6c",
      "contractAddress": null,
      "gasUsedForL1": "0x0",
      "l1BlockNumber": "0x9f26c9",
      "timeboosted": false
    },
    {
      "status": "0x1",
      "cumulativeGasUsed": "0x5c688",
      "logs": [
        {
          "address": "0x2155378db737b5382d05bdc204f335b7da88af2b",
          "topics": [
            "0xbc7cd75a20ee27fd9adebab32041f755214dbc6bffa90cc0225b39da2e5c2d3b",
            "0x00000000000000000000000063083caf1475c9ca68d01930d6c3b416069f3201"
          ],
          "data": "0x",
          "blockHash": "0xca97534cca9201f91382c0ba896a0f35c707f3d6bd6a589debe45af3def15ccc",
          "blockNumber": "0xedb7142",
          "blockTimestamp": "0x69b21e4e",
          "transactionHash": "0x755da12a41a52e0d69e51b95e81378704f6efa4c71089bfff940ee7c52b4a5c6",
          "transactionIndex": "0x4",
          "logIndex": "0x8",
          "removed": false
        }
      ],
      "logsBloom": "0x00000000000000000000000000000002400000000000000000000000000000000000040000000000200001000000000000000000000000000000000000000000000000000000000000000000000002000000000000000000000000000000000000000000000000000000000000000000000000000000000000000000000000000000000000001000000000000000000000000000000000000000000000000000000000000000000000000000000000000000000000000000000000000002000000000020000000000000000000000000000000000000000000000000000000000000000000000000000000000000000000000000000000000000000000000000",
      "type": "0x2",
      "transactionHash": "0x755da12a41a52e0d69e51b95e81378704f6efa4c71089bfff940ee7c52b4a5c6",
      "transactionIndex": "0x4",
      "blockHash": "0xca97534cca9201f91382c0ba896a0f35c707f3d6bd6a589debe45af3def15ccc",
      "blockNumber": "0xedb7142",
      "gasUsed": "0xc72a",
      "effectiveGasPrice": "0x1313ca0",
      "from": "0xb05a948b5c1b057b88d381bde3a375efea87ebad",
      "to": "0x2155378db737b5382d05bdc204f335b7da88af2b",
      "contractAddress": null,
      "gasUsedForL1": "0x0",
      "l1BlockNumber": "0x9f26c9",
      "timeboosted": false
    },
    {
      "status": "0x1",
      "cumulativeGasUsed": "0xc746",
      "logs": [
        {
          "address": "0x2b08977d2ceb9520f4faa1556cfe0098e3b6306a",
          "topics": [
            "0xbc7cd75a20ee27fd9adebab32041f755214dbc6bffa90cc0225b39da2e5c2d3b",
            "0x00000000000000000000000063083caf1475c9ca68d01930d6c3b416069f3201"
          ],
          "data": "0x",
          "blockHash": "0x5147e635550dbeeaf36ef0394b11450db0da7f30392e67dd27add991c9666ae0",
          "blockNumber": "0xedb7144",
          "blockTimestamp": "0x69b21e4f",
          "transactionHash": "0xd2fc341f4d5cf5750526154bf74534fe418601e2b57ff7381fe57c19a41123f5",
          "transactionIndex": "0x1",
          "logIndex": "0x0",
          "removed": false
        }
      ],
      "logsBloom": "0x80000000000000000000000000000000400000000000000000000000000000000000040000000000000001000000000000000000000000000000000000000000000000000000000000000000000002000000000000000000000000000000000000000000000000000000000000000000000000000000000000000000000000000000000000000000000000000000000000000000000000000000000000000000000000000000000000000000000000000000000000000000000000000002000000000820000000000000000000000000000000000000000000000000000000000000000000000000004000000000000000000000000000000000000000000000",
      "type": "0x2",
      "transactionHash": "0xd2fc341f4d5cf5750526154bf74534fe418601e2b57ff7381fe57c19a41123f5",
      "transactionIndex": "0x1",
      "blockHash": "0x5147e635550dbeeaf36ef0394b11450db0da7f30392e67dd27add991c9666ae0",
      "blockNumber": "0xedb7144",
      "gasUsed": "0xc746",
      "effectiveGasPrice": "0x1319290",
      "from": "0xb05a948b5c1b057b88d381bde3a375efea87ebad",
      "to": "0x2b08977d2ceb9520f4faa1556cfe0098e3b6306a",
      "contractAddress": null,
      "gasUsedForL1": "0x0",
      "l1BlockNumber": "0x9f26c9",
      "timeboosted": false
    },
    {
      "status": "0x1",
      "cumulativeGasUsed": "0x272f3",
      "logs": [
        {
          "address": "0x2c668e36496b2acd69e46418d5c1de0f43c9c4d2",
          "topics": [
            "0xbc7cd75a20ee27fd9adebab32041f755214dbc6bffa90cc0225b39da2e5c2d3b",
            "0x00000000000000000000000063083caf1475c9ca68d01930d6c3b416069f3201"
          ],
          "data": "0x",
          "blockHash": "0x88606ed746b18c8b660dd9a856aabe665b057e9b0c4bb7484278fb5c0060a2a6",
          "blockNumber": "0xedb7146",
          "blockTimestamp": "0x69b21e4f",
          "transactionHash": "0xbdaa84d7bbb0747e4aac99b306cc00175b12fcdac112e8e7fb19a13da507d501",
          "transactionIndex": "0x3",
          "logIndex": "0x2",
          "removed": false
        }
      ],
      "logsBloom": "0x00000000000000000000000000000000400000000000000000000000000000000000040000000000000001000004000000000000000000000000000000000000000000000000000000000000000002000000000000000000000000000000000000000000000100000000000000000000000000000000000000000000000000000000000000000000000000000000000000000000000000000000000000000000000000000000000000000000000000000000000000000000000000000002000000000020000000000000000000000000000000040000000000000000000000000000000000000000000000000000000000000000000000000000000000000000",
      "type": "0x2",
      "transactionHash": "0xbdaa84d7bbb0747e4aac99b306cc00175b12fcdac112e8e7fb19a13da507d501",
      "transactionIndex": "0x3",
      "blockHash": "0x88606ed746b18c8b660dd9a856aabe665b057e9b0c4bb7484278fb5c0060a2a6",
      "blockNumber": "0xedb7146",
      "gasUsed": "0xc72a",
      "effectiveGasPrice": "0x1316b80",
      "from": "0xb05a948b5c1b057b88d381bde3a375efea87ebad",
      "to": "0x2c668e36496b2acd69e46418d5c1de0f43c9c4d2",
      "contractAddress": null,
      "gasUsedForL1": "0x0",
      "l1BlockNumber": "0x9f26c9",
      "timeboosted": false
    },
    {
      "status": "0x1",
      "cumulativeGasUsed": "0x1871b",
      "logs": [
        {
          "address": "0x2f0af7438699d6b9ee6849a906f85f7c5851b3e6",
          "topics": [
            "0xbc7cd75a20ee27fd9adebab32041f755214dbc6bffa90cc0225b39da2e5c2d3b",
            "0x00000000000000000000000063083caf1475c9ca68d01930d6c3b416069f3201"
          ],
          "data": "0x",
          "blockHash": "0xc9fee8883ff2937e89a86b37c2dc0a12388563570093a3a7143153f32fc1340a",
          "blockNumber": "0xedb7149",
          "blockTimestamp": "0x69b21e50",
          "transactionHash": "0xf3624767d5bc49a8caba6d453149dd81ff8c43085e20cc0c310ab8078f6f5ae0",
          "transactionIndex": "0x2",
          "logIndex": "0x1",
          "removed": false
        }
      ],
      "logsBloom": "0x00000000000000000000000000000000400000000000000000000000000000000000040000000000000001000000000000000000000000000000000000000000000000000000000000000000000002000000000000000000000000000000000000000000000000000000000000000000000000000000000020000000000000000000000000000000000000000000000000000000000000000000000000000000000000000000000000000000000000000100000000000000000000000002000000000020000000000000000000000800000000000000000000000000000000000000000000000000000000000000000000000000000000000000000000000000",
      "type": "0x2",
      "transactionHash": "0xf3624767d5bc49a8caba6d453149dd81ff8c43085e20cc0c310ab8078f6f5ae0",
      "transactionIndex": "0x2",
      "blockHash": "0xc9fee8883ff2937e89a86b37c2dc0a12388563570093a3a7143153f32fc1340a",
      "blockNumber": "0xedb7149",
      "gasUsed": "0xc72a",
      "effectiveGasPrice": "0x1312d00",
      "from": "0xb05a948b5c1b057b88d381bde3a375efea87ebad",
      "to": "0x2f0af7438699d6b9ee6849a906f85f7c5851b3e6",
      "contractAddress": null,
      "gasUsedForL1": "0x0",
      "l1BlockNumber": "0x9f26c9",
      "timeboosted": false
    },
    {
      "status": "0x1",
      "cumulativeGasUsed": "0x261cb",
      "logs": [
        {
          "address": "0x316e665465960b79aea9bf53e33a9a2bbcde39e6",
          "topics": [
            "0xbc7cd75a20ee27fd9adebab32041f755214dbc6bffa90cc0225b39da2e5c2d3b",
            "0x00000000000000000000000063083caf1475c9ca68d01930d6c3b416069f3201"
          ],
          "data": "0x",
          "blockHash": "0xeb5bcb004f584b1901134b15dffe49ae033b00b203694a763c874998697758fa",
          "blockNumber": "0xedb714b",
          "blockTimestamp": "0x69b21e50",
          "transactionHash": "0x1fd0429736dbbffdcfadd721e9c27e6692e17920f7527c09da5514fd11ad988d",
          "transactionIndex": "0x2",
          "logIndex": "0x3",
          "removed": false
        }
      ],
      "logsBloom": "0x00000000000000000000000000000000400000000000000000000000000000000000040000000000000001004000000000000000000000000000000000000000000000000000000000000000000002000000000000000000000000000000000000000000000000008000000000000000000000000000000000000000000000000000000000000000000000000000000000000000000000000000000000000000000000000000000000000000000000000000000000000000000000000002000000000020000000000000000000000000000000000000000000000000000000000000000000000000000000000000000000000080000000000000000000000000",
      "type": "0x2",
      "transactionHash": "0x1fd0429736dbbffdcfadd721e9c27e6692e17920f7527c09da5514fd11ad988d",
      "transactionIndex": "0x2",
      "blockHash": "0xeb5bcb004f584b1901134b15dffe49ae033b00b203694a763c874998697758fa",
      "blockNumber": "0xedb714b",
      "gasUsed": "0xc746",
      "effectiveGasPrice": "0x1313ca0",
      "from": "0xb05a948b5c1b057b88d381bde3a375efea87ebad",
      "to": "0x316e665465960b79aea9bf53e33a9a2bbcde39e6",
      "contractAddress": null,
      "gasUsedForL1": "0x0",
      "l1BlockNumber": "0x9f26c9",
      "timeboosted": false
    },
    {
      "status": "0x1",
      "cumulativeGasUsed": "0x42c1b",
      "logs": [
        {
          "address": "0x33482037160b54625e7844cbaa90f808b4dcc1ee",
          "topics": [
            "0xbc7cd75a20ee27fd9adebab32041f755214dbc6bffa90cc0225b39da2e5c2d3b",
            "0x00000000000000000000000063083caf1475c9ca68d01930d6c3b416069f3201"
          ],
          "data": "0x",
          "blockHash": "0x0225680bccf4cae5a9e9b592f2fee1225c19b44a7a48b0d5b7bc2faceca53ecc",
          "blockNumber": "0xedb714d",
          "blockTimestamp": "0x69b21e51",
          "transactionHash": "0xe838998d6c20e3d319a072c2b2d02024404c8d28a9a836d93110a2f38dc09924",
          "transactionIndex": "0x3",
          "logIndex": "0x5",
          "removed": false
        }
      ],
      "logsBloom": "0x00000000000000000000000000000000400000000000000000000000008000000000040000000000000001000000000000000000000000000000000000000000000000000000000000000000000002000000000000000000000000000000000000000000000000000000000000000001000000000000000000000000000000000000000000000000000000000000000000000000000000000000000000000000000000000000000000000000000000000000000000000010000000000002000000000020000000000000000000000000000000000000000000000000000000000000000000000000000000000000000000000000000000000000000000000000",
      "type": "0x2",
      "transactionHash": "0xe838998d6c20e3d319a072c2b2d02024404c8d28a9a836d93110a2f38dc09924",
      "transactionIndex": "0x3",
      "blockHash": "0x0225680bccf4cae5a9e9b592f2fee1225c19b44a7a48b0d5b7bc2faceca53ecc",
      "blockNumber": "0xedb714d",
      "gasUsed": "0xc72a",
      "effectiveGasPrice": "0x1312d00",
      "from": "0xb05a948b5c1b057b88d381bde3a375efea87ebad",
      "to": "0x33482037160b54625e7844cbaa90f808b4dcc1ee",
      "contractAddress": null,
      "gasUsedForL1": "0x0",
      "l1BlockNumber": "0x9f26c9",
      "timeboosted": false
    },
    {
      "status": "0x1",
      "cumulativeGasUsed": "0x9951d",
      "logs": [
        {
          "address": "0x39e279272604b7c09ccffb23d4ab5311b5754d7d",
          "topics": [
            "0xbc7cd75a20ee27fd9adebab32041f755214dbc6bffa90cc0225b39da2e5c2d3b",
            "0x00000000000000000000000063083caf1475c9ca68d01930d6c3b416069f3201"
          ],
          "data": "0x",
          "blockHash": "0x740352dd5ca87c2b8f266ab99522792b721b78cbda7ebf0e329b067b593b75f0",
          "blockNumber": "0xedb7150",
          "blockTimestamp": "0x69b21e52",
          "transactionHash": "0xb2fcbb6c5aaf0bb5a1cb25ce0d58aa0bcc785b39740b62065f7dac9b35fb7bad",
          "transactionIndex": "0x3",
          "logIndex": "0x10",
          "removed": false
        }
      ],
      "logsBloom": "0x00000000000000000000000000000000400000000000000000000000000000000000040000000000000001000000000000000000000000000000000000000000000000000000000000000000000002000000000000000000000000000000000000000000000000000000000000000000000000000000000000000000000000000000000000000000000000000000000000000000000000000000000000000100000000000000000000000000080000000000000000000000000000000002000000000020000000008000000000000000000000000000000000000000000000000000000000000000000000000000000000000000000000000000000000000000",
      "type": "0x2",
      "transactionHash": "0xb2fcbb6c5aaf0bb5a1cb25ce0d58aa0bcc785b39740b62065f7dac9b35fb7bad",
      "transactionIndex": "0x3",
      "blockHash": "0x740352dd5ca87c2b8f266ab99522792b721b78cbda7ebf0e329b067b593b75f0",
      "blockNumber": "0xedb7150",
      "gasUsed": "0xc72a",
      "effectiveGasPrice": "0x131c940",
      "from": "0xb05a948b5c1b057b88d381bde3a375efea87ebad",
      "to": "0x39e279272604b7c09ccffb23d4ab5311b5754d7d",
      "contractAddress": null,
      "gasUsedForL1": "0x0",
      "l1BlockNumber": "0x9f26c9",
      "timeboosted": false
    },
    {
      "status": "0x1",
      "cumulativeGasUsed": "0xc72a",
      "logs": [
        {
          "address": "0x3bd8c9056a448c7ab3f398df2ffea114febd9139",
          "topics": [
            "0xbc7cd75a20ee27fd9adebab32041f755214dbc6bffa90cc0225b39da2e5c2d3b",
            "0x00000000000000000000000063083caf1475c9ca68d01930d6c3b416069f3201"
          ],
          "data": "0x",
          "blockHash": "0x121d1fb26c7229e9067f89d35f41991adbbf31a6404e220776e62864d2a42b25",
          "blockNumber": "0xedb7157",
          "blockTimestamp": "0x69b21e53",
          "transactionHash": "0x74c57f04231207abe7330087cf5fcc1ad7b007a7aafe1cd5f1f482f281936c94",
          "transactionIndex": "0x1",
          "logIndex": "0x0",
          "removed": false
        }
      ],
      "logsBloom": "0x00000000000000000000000000000000400000000000000000000000000000000000040000000000000001000000000000000000000000000000000000000000000000000000000000000000000002000000000000000000000000000000000000000000000000000000000000000000000000000000000000000000000000000000000000004000000000000000000000000000000000000000002000000000000000000000000000000000000000000000000000000000000000000002000000002020000000000000000000000000000000000000000000000000000000000000000000000000000000000000000000000000000000000000000000000000",
      "type": "0x2",
      "transactionHash": "0x74c57f04231207abe7330087cf5fcc1ad7b007a7aafe1cd5f1f482f281936c94",
      "transactionIndex": "0x1",
      "blockHash": "0x121d1fb26c7229e9067f89d35f41991adbbf31a6404e220776e62864d2a42b25",
      "blockNumber": "0xedb7157",
      "gasUsed": "0xc72a",
      "effectiveGasPrice": "0x13236a0",
      "from": "0xb05a948b5c1b057b88d381bde3a375efea87ebad",
      "to": "0x3bd8c9056a448c7ab3f398df2ffea114febd9139",
      "contractAddress": null,
      "gasUsedForL1": "0x0",
      "l1BlockNumber": "0x9f26c9",
      "timeboosted": false
    },
    {
      "status": "0x1",
      "cumulativeGasUsed": "0x36c56",
      "logs": [
        {
          "address": "0x4023e514a47c87a507623f08e748db7ae05da1c4",
          "topics": [
            "0xbc7cd75a20ee27fd9adebab32041f755214dbc6bffa90cc0225b39da2e5c2d3b",
            "0x00000000000000000000000063083caf1475c9ca68d01930d6c3b416069f3201"
          ],
          "data": "0x",
          "blockHash": "0x64644a89d976a9f5343f788b4d1385db6a66c4009bbf1a80814e71589cb86d41",
          "blockNumber": "0xedb7159",
          "blockTimestamp": "0x69b21e54",
          "transactionHash": "0x67f6468e5a77d8cc606212cd53ce9a960fe99bd49e60424c90f12e2a7d2378e6",
          "transactionIndex": "0x2",
          "logIndex": "0x4",
          "removed": false
        }
      ],
      "logsBloom": "0x00000200000000000000000000000000400000000000000000000000000000000000040000000000000001000000000000000000000000000000000000000000000000000000000000000000000002000000000000000000000000000000000000000000000000000000000000000000000000000000000000000000000000000000000000000000000000000000000000000000000000000000000000000000000000000000000000000000000000000000000000000000000000000002000000000020080000000000000000000000000000000000000000000004000000000000000000000000000000000000000000000000000000000000000000000000",
      "type": "0x2",
      "transactionHash": "0x67f6468e5a77d8cc606212cd53ce9a960fe99bd49e60424c90f12e2a7d2378e6",
      "transactionIndex": "0x2",
      "blockHash": "0x64644a89d976a9f5343f788b4d1385db6a66c4009bbf1a80814e71589cb86d41",
      "blockNumber": "0xedb7159",
      "gasUsed": "0xc72a",
      "effectiveGasPrice": "0x1312d00",
      "from": "0xb05a948b5c1b057b88d381bde3a375efea87ebad",
      "to": "0x4023e514a47c87a507623f08e748db7ae05da1c4",
      "contractAddress": null,
      "gasUsedForL1": "0x0",
      "l1BlockNumber": "0x9f26c9",
      "timeboosted": false
    },
    {
      "status": "0x1",
      "cumulativeGasUsed": "0xc72a",
      "logs": [
        {
          "address": "0x4440e05839eaacc4927178756faa48ecc23386f8",
          "topics": [
            "0xbc7cd75a20ee27fd9adebab32041f755214dbc6bffa90cc0225b39da2e5c2d3b",
            "0x00000000000000000000000063083caf1475c9ca68d01930d6c3b416069f3201"
          ],
          "data": "0x",
          "blockHash": "0x856dcd0d96022be43966293866860db4cf4fd60a60586ee4f3125219fda415b4",
          "blockNumber": "0xedb715c",
          "blockTimestamp": "0x69b21e55",
          "transactionHash": "0x2c48867f2fa48bc149a6673f83425a59f79b90891213e1d7731f9975597d6772",
          "transactionIndex": "0x1",
          "logIndex": "0x0",
          "removed": false
        }
      ],
      "logsBloom": "0x00000000000000000000000000000000400000000000000000000000000000000000040000000000000001000000000000000000000000000000000000000000000000000000000000000000000002000000000000000000000000000000001000000000000000000000000000000000000000000000000000000000000002000000000000000000000000000000000000000000000000000000000000000000000000000000000000000000000000000000000000000000000000000002000000000020000000000000000000000000000000000000000000008000000000000000000000000000000000000000000000000000000000000000000000000000",
      "type": "0x2",
      "transactionHash": "0x2c48867f2fa48bc149a6673f83425a59f79b90891213e1d7731f9975597d6772",
      "transactionIndex": "0x1",
      "blockHash": "0x856dcd0d96022be43966293866860db4cf4fd60a60586ee4f3125219fda415b4",
      "blockNumber": "0xedb715c",
      "gasUsed": "0xc72a",
      "effectiveGasPrice": "0x1318ac0",
      "from": "0xb05a948b5c1b057b88d381bde3a375efea87ebad",
      "to": "0x4440e05839eaacc4927178756faa48ecc23386f8",
      "contractAddress": null,
      "gasUsedForL1": "0x0",
      "l1BlockNumber": "0x9f26c9",
      "timeboosted": false
    },
    {
      "status": "0x1",
      "cumulativeGasUsed": "0xc72a",
      "logs": [
        {
          "address": "0x464f010f343bb52689e8579c84e76c8e04c7dbdc",
          "topics": [
            "0xbc7cd75a20ee27fd9adebab32041f755214dbc6bffa90cc0225b39da2e5c2d3b",
            "0x00000000000000000000000063083caf1475c9ca68d01930d6c3b416069f3201"
          ],
          "data": "0x",
          "blockHash": "0x4d6e4e1bafe7d8bba9fabab665b2c16b68701a636bcf6c3826ffe9151384c296",
          "blockNumber": "0xedb715f",
          "blockTimestamp": "0x69b21e55",
          "transactionHash": "0x979f9f66603384b5dcbf921f72d8889cdf88ea005b1cd9cdaa68dbcb1020cfdf",
          "transactionIndex": "0x1",
          "logIndex": "0x0",
          "removed": false
        }
      ],
      "logsBloom": "0x00000000000000000000000000000000400000020000000000000000000000000000040000000000000001000100000000002000000000000000000000000000000000000000000000000000000002000000000000000000000000000000000000000000000000000000000000000000000000000000000000000000000000000000000000000000000000000000000000000000000000000000000000000000000000000000000000000000000000000000000000000000000000000002000000000020000000000000000000000000000000000000000000000000000000000000000000000000000000000000000000000000000000000000000000000000",
      "type": "0x2",
      "transactionHash": "0x979f9f66603384b5dcbf921f72d8889cdf88ea005b1cd9cdaa68dbcb1020cfdf",
      "transactionIndex": "0x1",
      "blockHash": "0x4d6e4e1bafe7d8bba9fabab665b2c16b68701a636bcf6c3826ffe9151384c296",
      "blockNumber": "0xedb715f",
      "gasUsed": "0xc72a",
      "effectiveGasPrice": "0x1313ca0",
      "from": "0xb05a948b5c1b057b88d381bde3a375efea87ebad",
      "to": "0x464f010f343bb52689e8579c84e76c8e04c7dbdc",
      "contractAddress": null,
      "gasUsedForL1": "0x0",
      "l1BlockNumber": "0x9f26c9",
      "timeboosted": false
    },
    {
      "status": "0x1",
      "cumulativeGasUsed": "0xc72a",
      "logs": [
        {
          "address": "0x565f8f945d08a7dd3c67a926b2b0b25704718d8a",
          "topics": [
            "0xbc7cd75a20ee27fd9adebab32041f755214dbc6bffa90cc0225b39da2e5c2d3b",
            "0x00000000000000000000000063083caf1475c9ca68d01930d6c3b416069f3201"
          ],
          "data": "0x",
          "blockHash": "0xc41a3c43e41c4b54ae0513931b4a1a79f0c8dc1d1fb531dc94156565136e5eee",
          "blockNumber": "0xedb7162",
          "blockTimestamp": "0x69b21e56",
          "transactionHash": "0xaffab8a2307bb0fe96c6a45b021fd89a3e7acc327df20981a8336acdcb91f7fb",
          "transactionIndex": "0x1",
          "logIndex": "0x0",
          "removed": false
        }
      ],
      "logsBloom": "0x00000000000000000000000000000000400000000000000000000000000000000000040000000000000001000000000000000400000000000000000000000000000000000000000000000000000002000000000000000000000000200000000000000000000000000000000000000000000000000000000000000000000000000000000000000000000000000000000000000000000000000000000000000000000000000000000000000000000000000000000000000000000000000002000000000020000000000000000000000000000000000000000000000000000000000000000000000800000000000000000000000000000000000000000000000000",
      "type": "0x2",
      "transactionHash": "0xaffab8a2307bb0fe96c6a45b021fd89a3e7acc327df20981a8336acdcb91f7fb",
      "transactionIndex": "0x1",
      "blockHash": "0xc41a3c43e41c4b54ae0513931b4a1a79f0c8dc1d1fb531dc94156565136e5eee",
      "blockNumber": "0xedb7162",
      "gasUsed": "0xc72a",
      "effectiveGasPrice": "0x1312d00",
      "from": "0xb05a948b5c1b057b88d381bde3a375efea87ebad",
      "to": "0x565f8f945d08a7dd3c67a926b2b0b25704718d8a",
      "contractAddress": null,
      "gasUsedForL1": "0x0",
      "l1BlockNumber": "0x9f26c9",
      "timeboosted": false
    },
    {
      "status": "0x1",
      "cumulativeGasUsed": "0xc72a",
      "logs": [
        {
          "address": "0x61f0d03b1f00b872c7c9ee03a12224cb70e93ea2",
          "topics": [
            "0xbc7cd75a20ee27fd9adebab32041f755214dbc6bffa90cc0225b39da2e5c2d3b",
            "0x00000000000000000000000063083caf1475c9ca68d01930d6c3b416069f3201"
          ],
          "data": "0x",
          "blockHash": "0x3defa3505db8f9034a6744d4edd2c1564efc09b76bf103c055cc420dabe1504b",
          "blockNumber": "0xedb7164",
          "blockTimestamp": "0x69b21e57",
          "transactionHash": "0x4776b1b94a459a2a49f5c9308cf43350df2c26c3e77cb240f8b4e8d82c2b15e2",
          "transactionIndex": "0x1",
          "logIndex": "0x0",
          "removed": false
        }
      ],
      "logsBloom": "0x00000000000000000000000000000000400000000000000000000000100000000000040000000000000001000000000000000000000000000000000000000000000000000000000000000000000002000000000000000000000000000000000000000000000000000000000000000000000000000000000000000000000000000000000000000000010000000000200000000000000000000000000000000000000000000000000000000000000000000000000000000000000000000002000000000020000000000000000000000000000000000000000000000000000000000000000000000000000000000000000000000000000000000000000000000000",
      "type": "0x2",
      "transactionHash": "0x4776b1b94a459a2a49f5c9308cf43350df2c26c3e77cb240f8b4e8d82c2b15e2",
      "transactionIndex": "0x1",
      "blockHash": "0x3defa3505db8f9034a6744d4edd2c1564efc09b76bf103c055cc420dabe1504b",
      "blockNumber": "0xedb7164",
      "gasUsed": "0xc72a",
      "effectiveGasPrice": "0x1312d00",
      "from": "0xb05a948b5c1b057b88d381bde3a375efea87ebad",
      "to": "0x61f0d03b1f00b872c7c9ee03a12224cb70e93ea2",
      "contractAddress": null,
      "gasUsedForL1": "0x0",
      "l1BlockNumber": "0x9f26c9",
      "timeboosted": false
    },
    {
      "status": "0x1",
      "cumulativeGasUsed": "0xc72a",
      "logs": [
        {
          "address": "0x62884d6a9b30cfbe52eddd3e365a996123d28c47",
          "topics": [
            "0xbc7cd75a20ee27fd9adebab32041f755214dbc6bffa90cc0225b39da2e5c2d3b",
            "0x00000000000000000000000063083caf1475c9ca68d01930d6c3b416069f3201"
          ],
          "data": "0x",
          "blockHash": "0x4f52e9ed91e2550dda55a56e913cc86f299231399b65d8083fae9d8e4a9afec8",
          "blockNumber": "0xedb7166",
          "blockTimestamp": "0x69b21e58",
          "transactionHash": "0x7444b4e375df0d35ca13b1b0b44023253ba5624d1a17a656881a8881fd8f5346",
          "transactionIndex": "0x1",
          "logIndex": "0x0",
          "removed": false
        }
      ],
      "logsBloom": "0x00000000000000000000000000000000400000000000080000000000000000000000040000100000000001000000000000000000000000000000000000000000000000000000000000000000000002000000000000000000000000000000000000000000000000000000000000000000000000000000000000000000000000000000000000000000000000000000000000000000000000000000000000000000000000000000000000000000000000000000000000000000000000000002000000000020000000000000000000000000000000000000000000000000000000000000000000000000000000000040000000000000000000000000000000000000",
      "type": "0x2",
      "transactionHash": "0x7444b4e375df0d35ca13b1b0b44023253ba5624d1a17a656881a8881fd8f5346",
      "transactionIndex": "0x1",
      "blockHash": "0x4f52e9ed91e2550dda55a56e913cc86f299231399b65d8083fae9d8e4a9afec8",
      "blockNumber": "0xedb7166",
      "gasUsed": "0xc72a",
      "effectiveGasPrice": "0x1315be0",
      "from": "0xb05a948b5c1b057b88d381bde3a375efea87ebad",
      "to": "0x62884d6a9b30cfbe52eddd3e365a996123d28c47",
      "contractAddress": null,
      "gasUsedForL1": "0x0",
      "l1BlockNumber": "0x9f26c9",
      "timeboosted": false
    },
    {
      "status": "0x1",
      "cumulativeGasUsed": "0xc72a",
      "logs": [
        {
          "address": "0x6b999ed850de2c5c923eaafc3c15781bd2ccf9d6",
          "topics": [
            "0xbc7cd75a20ee27fd9adebab32041f755214dbc6bffa90cc0225b39da2e5c2d3b",
            "0x00000000000000000000000063083caf1475c9ca68d01930d6c3b416069f3201"
          ],
          "data": "0x",
          "blockHash": "0xa9bfaff6d67e290959288c0581b5b56082bc49eb27f03c6988135d11e69ec0be",
          "blockNumber": "0xedb7169",
          "blockTimestamp": "0x69b21e58",
          "transactionHash": "0x1b3bc068db362c466c0745eec07e7977ede0957e0e70ebcd2290c6bd4bc28ea2",
          "transactionIndex": "0x1",
          "logIndex": "0x0",
          "removed": false
        }
      ],
      "logsBloom": "0x00000000000000000000000000000000400000002000000000000000000000000000040000000000000001000000000000000000000000000000000000000000000000000000000000000000000002000000000000000000000000000000000000000000000000000000000000000000000000000000000000000000000000000000000000000000000000000000000000000000000000000000000000000000000000000000200000000000000000000000000000000000000000000002000000000020000000000000000000000000000000000100000000000000000000000000000000000000000000000000000000000000000000000000000000000000",
      "type": "0x2",
      "transactionHash": "0x1b3bc068db362c466c0745eec07e7977ede0957e0e70ebcd2290c6bd4bc28ea2",
      "transactionIndex": "0x1",
      "blockHash": "0xa9bfaff6d67e290959288c0581b5b56082bc49eb27f03c6988135d11e69ec0be",
      "blockNumber": "0xedb7169",
      "gasUsed": "0xc72a",
      "effectiveGasPrice": "0x131a230",
      "from": "0xb05a948b5c1b057b88d381bde3a375efea87ebad",
      "to": "0x6b999ed850de2c5c923eaafc3c15781bd2ccf9d6",
      "contractAddress": null,
      "gasUsedForL1": "0x0",
      "l1BlockNumber": "0x9f26c9",
      "timeboosted": false
    },
    {
      "status": "0x1",
      "cumulativeGasUsed": "0x506c3",
      "logs": [
        {
          "address": "0x8a3004467f9a4c3233f0ca20ab126d322ce14dc5",
          "topics": [
            "0xbc7cd75a20ee27fd9adebab32041f755214dbc6bffa90cc0225b39da2e5c2d3b",
            "0x00000000000000000000000063083caf1475c9ca68d01930d6c3b416069f3201"
          ],
          "data": "0x",
          "blockHash": "0x841af390644c870c8636347c285c28578cb8561295c1cf8dc2f9f5fd497dc1a9",
          "blockNumber": "0xedb716b",
          "blockTimestamp": "0x69b21e59",
          "transactionHash": "0x4440b282431c866e05454db5ff9af2df59251f47ceadca869a412abd3a9bfe8c",
          "transactionIndex": "0x3",
          "logIndex": "0x7",
          "removed": false
        }
      ],
      "logsBloom": "0x00000000000000000000000000000000400000000000000000000000000000000000040000000000000001000000000000000000000000000000000000000000000000000000000000000000000002000000000000000000000000000000000000000000000000000000000000000000000000000000000000000000000000000000000000000000000000000000000000000000000000000000000000000000000000000000000000800000000000000000000000000000000000000002000000000020000000000400000000000000000000000000000000000000000000000000000000000000000000000000000004000000000000000000000000000000",
      "type": "0x2",
      "transactionHash": "0x4440b282431c866e05454db5ff9af2df59251f47ceadca869a412abd3a9bfe8c",
      "transactionIndex": "0x3",
      "blockHash": "0x841af390644c870c8636347c285c28578cb8561295c1cf8dc2f9f5fd497dc1a9",
      "blockNumber": "0xedb716b",
      "gasUsed": "0xc72a",
      "effectiveGasPrice": "0x1312d00",
      "from": "0xb05a948b5c1b057b88d381bde3a375efea87ebad",
      "to": "0x8a3004467f9a4c3233f0ca20ab126d322ce14dc5",
      "contractAddress": null,
      "gasUsedForL1": "0x0",
      "l1BlockNumber": "0x9f26c9",
      "timeboosted": false
    },
    {
      "status": "0x1",
      "cumulativeGasUsed": "0x261af",
      "logs": [
        {
          "address": "0x8b02e15e5e78a3e0baf99205fabab0b971f30ac3",
          "topics": [
            "0xbc7cd75a20ee27fd9adebab32041f755214dbc6bffa90cc0225b39da2e5c2d3b",
            "0x00000000000000000000000063083caf1475c9ca68d01930d6c3b416069f3201"
          ],
          "data": "0x",
          "blockHash": "0x8bfe6d8ce0f4b67823881f730e21df6366412f177ef73f008302c3fad78b57e9",
          "blockNumber": "0xedb716d",
          "blockTimestamp": "0x69b21e59",
          "transactionHash": "0xa9c021a980d040dc7a284a1a3e892aa273e8d301b8b0d1d8a140451555c7f5d4",
          "transactionIndex": "0x2",
          "logIndex": "0x3",
          "removed": false
        }
      ],
      "logsBloom": "0x00000000000000000000001000000000400000000000000000000000000000000000040000000000000001000000000000000000000000000000000000000000000000000000000000000000000002000000000000000000000000000000000002000000000000000000000000000000000000000000000000000000000000000000000000000000000000000000000000000000000000008000000000000000000000000000000000000000000000000000000000000000000000000002000000000020000000000000000000000000000000000000000000000000000000000000000000000000000000000000000000000000000000000000000000000000",
      "type": "0x2",
      "transactionHash": "0xa9c021a980d040dc7a284a1a3e892aa273e8d301b8b0d1d8a140451555c7f5d4",
      "transactionIndex": "0x2",
      "blockHash": "0x8bfe6d8ce0f4b67823881f730e21df6366412f177ef73f008302c3fad78b57e9",
      "blockNumber": "0xedb716d",
      "gasUsed": "0xc72a",
      "effectiveGasPrice": "0x1319a60",
      "from": "0xb05a948b5c1b057b88d381bde3a375efea87ebad",
      "to": "0x8b02e15e5e78a3e0baf99205fabab0b971f30ac3",
      "contractAddress": null,
      "gasUsedForL1": "0x0",
      "l1BlockNumber": "0x9f26ca",
      "timeboosted": false
    },
    {
      "status": "0x1",
      "cumulativeGasUsed": "0xc72a",
      "logs": [
        {
          "address": "0x9dca528cd12c62cec0d37c17a9d23a4b8777d329",
          "topics": [
            "0xbc7cd75a20ee27fd9adebab32041f755214dbc6bffa90cc0225b39da2e5c2d3b",
            "0x00000000000000000000000063083caf1475c9ca68d01930d6c3b416069f3201"
          ],
          "data": "0x",
          "blockHash": "0x1532ccd763cafc1653fd780ea6439c7d947129b3baaa9ec45fcb6e6ad6e20396",
          "blockNumber": "0xedb7170",
          "blockTimestamp": "0x69b21e5a",
          "transactionHash": "0xe79b5ae0ba6820ced2861a0e2269ab01746eba4b877c01eec467d8b2863bf991",
          "transactionIndex": "0x1",
          "logIndex": "0x0",
          "removed": false
        }
      ],
      "logsBloom": "0x00000000000000800000000000000000400000000000000000000000000000000000040000000000000001000000000000000000000000000000000000000000000000000000000000000000000002000000000000000000000000000000000000000000000000000000000000000000000000000000000000000000000000000000000000000000000000000000000000000000000000000000000000000000000000000000000000000008000000000000000000000000000000000002000000000020000000000000000000000000000000000000000000000000000000000000000000000000000000000000000000000000000000000000000000000000",
      "type": "0x2",
      "transactionHash": "0xe79b5ae0ba6820ced2861a0e2269ab01746eba4b877c01eec467d8b2863bf991",
      "transactionIndex": "0x1",
      "blockHash": "0x1532ccd763cafc1653fd780ea6439c7d947129b3baaa9ec45fcb6e6ad6e20396",
      "blockNumber": "0xedb7170",
      "gasUsed": "0xc72a",
      "effectiveGasPrice": "0x1317b20",
      "from": "0xb05a948b5c1b057b88d381bde3a375efea87ebad",
      "to": "0x9dca528cd12c62cec0d37c17a9d23a4b8777d329",
      "contractAddress": null,
      "gasUsedForL1": "0x0",
      "l1BlockNumber": "0x9f26ca",
      "timeboosted": false
    },
    {
      "status": "0x1",
      "cumulativeGasUsed": "0xc72a",
      "logs": [
        {
          "address": "0x9e9321526d2f36d521ad4f70786b1adba73023a2",
          "topics": [
            "0xbc7cd75a20ee27fd9adebab32041f755214dbc6bffa90cc0225b39da2e5c2d3b",
            "0x00000000000000000000000063083caf1475c9ca68d01930d6c3b416069f3201"
          ],
          "data": "0x",
          "blockHash": "0xb49eacdbfa2d05f2cb35a3de20660ba813237b4c95f9cbe4a2a8728000b24ff3",
          "blockNumber": "0xedb7173",
          "blockTimestamp": "0x69b21e5b",
          "transactionHash": "0x4d6a0405bf3e2b2017308e8cf2e46a3ee3cb65d464578f3accf1ba92bd899104",
          "transactionIndex": "0x1",
          "logIndex": "0x0",
          "removed": false
        }
      ],
      "logsBloom": "0x00000000000000000000000000000000400000000000002000000000000000000000040000000000000001000000000000000000000000000000000000000000000000000000000000000000000002000000000000000000000000000000000000000000000000000000000000000000000000000000000000000000000000000000000000000000000000000000000000000000000000000400000000000000000000000000000000000000000000000000000000000000000000000002000000000020004000000000000000000000000000000000000000000000000000000000000000000000000000000000000000000000000000000000000000000000",
      "type": "0x2",
      "transactionHash": "0x4d6a0405bf3e2b2017308e8cf2e46a3ee3cb65d464578f3accf1ba92bd899104",
      "transactionIndex": "0x1",
      "blockHash": "0xb49eacdbfa2d05f2cb35a3de20660ba813237b4c95f9cbe4a2a8728000b24ff3",
      "blockNumber": "0xedb7173",
      "gasUsed": "0xc72a",
      "effectiveGasPrice": "0x1312d00",
      "from": "0xb05a948b5c1b057b88d381bde3a375efea87ebad",
      "to": "0x9e9321526d2f36d521ad4f70786b1adba73023a2",
      "contractAddress": null,
      "gasUsedForL1": "0x0",
      "l1BlockNumber": "0x9f26ca",
      "timeboosted": false
    },
    {
      "status": "0x1",
      "cumulativeGasUsed": "0x7c859",
      "logs": [
        {
          "address": "0xbf1be81e895ddf480333e0aa7f23a17d170ce662",
          "topics": [
            "0xbc7cd75a20ee27fd9adebab32041f755214dbc6bffa90cc0225b39da2e5c2d3b",
            "0x00000000000000000000000063083caf1475c9ca68d01930d6c3b416069f3201"
          ],
          "data": "0x",
          "blockHash": "0x4fc774ed0b4e225aa10ec59b2904ba9d63490bcfd6557065fcff43661c2a8e25",
          "blockNumber": "0xedb7176",
          "blockTimestamp": "0x69b21e5c",
          "transactionHash": "0xbf06a6fb19d31c697030057af84677484456d410422152e700e5343edefec358",
          "transactionIndex": "0x2",
          "logIndex": "0x5",
          "removed": false
        }
      ],
      "logsBloom": "0x00000000000000000000000000000000400000000000000000000000010000000020040000000000000001000000000000000000000000000000000000000000000000000000000000000000000002000000000000000000000000000000000000000000000000000000000000000000000000000000000000000000000000000000000000000000080000000000000000000000000000000000000000000000000000000000000000000000000000000000000000000000000000000002000000000020000000000000000000000000000000000000000000000000000000000000000000000000000000000000000000000000000000000000000000000000",
      "type": "0x2",
      "transactionHash": "0xbf06a6fb19d31c697030057af84677484456d410422152e700e5343edefec358",
      "transactionIndex": "0x2",
      "blockHash": "0x4fc774ed0b4e225aa10ec59b2904ba9d63490bcfd6557065fcff43661c2a8e25",
      "blockNumber": "0xedb7176",
      "gasUsed": "0xc72a",
      "effectiveGasPrice": "0x1353440",
      "from": "0xb05a948b5c1b057b88d381bde3a375efea87ebad",
      "to": "0xbf1be81e895ddf480333e0aa7f23a17d170ce662",
      "contractAddress": null,
      "gasUsedForL1": "0x0",
      "l1BlockNumber": "0x9f26ca",
      "timeboosted": false
    },
    {
      "status": "0x1",
      "cumulativeGasUsed": "0xc746",
      "logs": [
        {
          "address": "0xc63cec086a031119a2570f9164b268b1bcdc790f",
          "topics": [
            "0xbc7cd75a20ee27fd9adebab32041f755214dbc6bffa90cc0225b39da2e5c2d3b",
            "0x00000000000000000000000063083caf1475c9ca68d01930d6c3b416069f3201"
          ],
          "data": "0x",
          "blockHash": "0x1ea7b8347bd610c4c21ff2fb5dcff0dae7f0d7a40e42990af6ddeeb1508a647f",
          "blockNumber": "0xedb7178",
          "blockTimestamp": "0x69b21e5c",
          "transactionHash": "0x0981eb0ab566d5346d3b0d88625d517f79f586ea539ebef415506d476405c9e8",
          "transactionIndex": "0x1",
          "logIndex": "0x0",
          "removed": false
        }
      ],
      "logsBloom": "0x00000000000000000000000000000000400000000000000000000000000000000000040000000000000001000000000000000000000000000000000000000000000000000000000000000000000002000000000000000000000000000000000000000000000000000000000000000000000200000000000000000000000000000000000000000000000000000000000000000000000000000000000000000000000008000000000000000000000000000000000000000000000000000002000000000020000000000000000000000000000000000000000000000000000000000000000000000000000000000000000000000000000000000000000000010000",
      "type": "0x2",
      "transactionHash": "0x0981eb0ab566d5346d3b0d88625d517f79f586ea539ebef415506d476405c9e8",
      "transactionIndex": "0x1",
      "blockHash": "0x1ea7b8347bd610c4c21ff2fb5dcff0dae7f0d7a40e42990af6ddeeb1508a647f",
      "blockNumber": "0xedb7178",
      "gasUsed": "0xc746",
      "effectiveGasPrice": "0x13182f0",
      "from": "0xb05a948b5c1b057b88d381bde3a375efea87ebad",
      "to": "0xc63cec086a031119a2570f9164b268b1bcdc790f",
      "contractAddress": null,
      "gasUsedForL1": "0x0",
      "l1BlockNumber": "0x9f26ca",
      "timeboosted": false
    },
    {
      "status": "0x1",
      "cumulativeGasUsed": "0xc72a",
      "logs": [
        {
          "address": "0xd37fa4ad1791ac2c27b8dec1fdea5b318b9a444e",
          "topics": [
            "0xbc7cd75a20ee27fd9adebab32041f755214dbc6bffa90cc0225b39da2e5c2d3b",
            "0x00000000000000000000000063083caf1475c9ca68d01930d6c3b416069f3201"
          ],
          "data": "0x",
          "blockHash": "0xb64a60f95901ab3244a066eaeb1f829cdad62ba2716c50dacf094e6bddefa02a",
          "blockNumber": "0xedb717b",
          "blockTimestamp": "0x69b21e5d",
          "transactionHash": "0x918f7158bfb84c8068b5f6003a04b8aee0ced025fd3d7ef81cc281da4f4faf46",
          "transactionIndex": "0x1",
          "logIndex": "0x0",
          "removed": false
        }
      ],
      "logsBloom": "0x00000000040000000000000000000000400000000000000000000000000000000000040000000000000001000000000000000000000000000000000000000000000000000000000000000000000002000000000000000000000000000000000000000000000000000000000000000000000000000000000000000000000000000000000000000000000000000000000000000000000000000000000000000000000000000000000000000000000000000000000000000000000000000002000080000020000000000000000008000000000000000000000000000000000000000000000000000000000000000000000000000000000000000000000000000000",
      "type": "0x2",
      "transactionHash": "0x918f7158bfb84c8068b5f6003a04b8aee0ced025fd3d7ef81cc281da4f4faf46",
      "transactionIndex": "0x1",
      "blockHash": "0xb64a60f95901ab3244a066eaeb1f829cdad62ba2716c50dacf094e6bddefa02a",
      "blockNumber": "0xedb717b",
      "gasUsed": "0xc72a",
      "effectiveGasPrice": "0x1312d00",
      "from": "0xb05a948b5c1b057b88d381bde3a375efea87ebad",
      "to": "0xd37fa4ad1791ac2c27b8dec1fdea5b318b9a444e",
      "contractAddress": null,
      "gasUsedForL1": "0x0",
      "l1BlockNumber": "0x9f26ca",
      "timeboosted": false
    },
    {
      "status": "0x1",
      "cumulativeGasUsed": "0xc72a",
      "logs": [
        {
          "address": "0xd682ff9fb3c4c28c35dfa8830280d9a1c5bbfee4",
          "topics": [
            "0xbc7cd75a20ee27fd9adebab32041f755214dbc6bffa90cc0225b39da2e5c2d3b",
            "0x00000000000000000000000063083caf1475c9ca68d01930d6c3b416069f3201"
          ],
          "data": "0x",
          "blockHash": "0x67e7c843a411f6d5f8c3f95df6eecf7bc2fdb60b48f9964b7b89edd69e7e7e48",
          "blockNumber": "0xedb717e",
          "blockTimestamp": "0x69b21e5e",
          "transactionHash": "0xdda0bc3d2ae2487131de2f6690ef1ea5cbd4514ceb67360f6e96a5139cd30ce7",
          "transactionIndex": "0x1",
          "logIndex": "0x0",
          "removed": false
        }
      ],
      "logsBloom": "0x00000000000000000000000000000000400000000000000000000000000000000000040000000000040001000000000000000000000000000000000000000000000000000000000000000000000002000000000000000000000000000000000000000000000000000000000000000000000000000000000000000000000000000000000000000000000000000000000020000000000000000000000000000000000000000000000000000000000000000000000000000000000000000002000000000020000000000000000000000000000000000000000000000000000000000000000000000000000000000000000000000000000000000020000000000000",
      "type": "0x2",
      "transactionHash": "0xdda0bc3d2ae2487131de2f6690ef1ea5cbd4514ceb67360f6e96a5139cd30ce7",
      "transactionIndex": "0x1",
      "blockHash": "0x67e7c843a411f6d5f8c3f95df6eecf7bc2fdb60b48f9964b7b89edd69e7e7e48",
      "blockNumber": "0xedb717e",
      "gasUsed": "0xc72a",
      "effectiveGasPrice": "0x13163b0",
      "from": "0xb05a948b5c1b057b88d381bde3a375efea87ebad",
      "to": "0xd682ff9fb3c4c28c35dfa8830280d9a1c5bbfee4",
      "contractAddress": null,
      "gasUsedForL1": "0x0",
      "l1BlockNumber": "0x9f26ca",
      "timeboosted": false
    },
    {
      "status": "0x1",
      "cumulativeGasUsed": "0xc72a",
      "logs": [
        {
          "address": "0xe6dedd7a954c51ddb283b751db6970a75d067cad",
          "topics": [
            "0xbc7cd75a20ee27fd9adebab32041f755214dbc6bffa90cc0225b39da2e5c2d3b",
            "0x00000000000000000000000063083caf1475c9ca68d01930d6c3b416069f3201"
          ],
          "data": "0x",
          "blockHash": "0xfc75e23f90eb228fb7e8dbe63766927be4b135827ebf32f4079754704dc150b1",
          "blockNumber": "0xedb7180",
          "blockTimestamp": "0x69b21e5e",
          "transactionHash": "0x8f7271bd161b92289934777aed84996b994c4ca62d102df96cd9493b8df5f2e6",
          "transactionIndex": "0x1",
          "logIndex": "0x0",
          "removed": false
        }
      ],
      "logsBloom": "0x00000000000000000000000000000000400000000000000400000000000000000000040000000000000001000000000000000000000000000000000000000000000000000000000000000000000002000000000000000000000000000000000000000000000000000000000000000000000000000000000000000000000000000000000002000000000000000000000000000000000000000000000000000000000000000000000000000000000000200000000000000000000000000002000000000020000000000000000000000000000000000000000000000000000000000000000000000000000000000000000000000000000000000000000000000000",
      "type": "0x2",
      "transactionHash": "0x8f7271bd161b92289934777aed84996b994c4ca62d102df96cd9493b8df5f2e6",
      "transactionIndex": "0x1",
      "blockHash": "0xfc75e23f90eb228fb7e8dbe63766927be4b135827ebf32f4079754704dc150b1",
      "blockNumber": "0xedb7180",
      "gasUsed": "0xc72a",
      "effectiveGasPrice": "0x1312d00",
      "from": "0xb05a948b5c1b057b88d381bde3a375efea87ebad",
      "to": "0xe6dedd7a954c51ddb283b751db6970a75d067cad",
      "contractAddress": null,
      "gasUsedForL1": "0x0",
      "l1BlockNumber": "0x9f26ca",
      "timeboosted": false
    }
  ],
  "libraries": [
    "pkg/contracts/src/CVStrategy/ConvictionsUtils.sol:ConvictionsUtils:0x70b24063ea84765B324387e21159B41aF48A9440",
    "pkg/contracts/src/CVStrategy/PowerManagementUtils.sol:PowerManagementUtils:0xB07d76F6001Cc62739d39cb0C5E9c58E08230486"
  ],
  "pending": [],
  "returns": {},
  "timestamp": 1773280862877,
  "chain": 421614,
  "commit": "eea6f93a2"
}