{
  "transactions": [
    {
      "hash": "0xccf3851c63021daef16579b0a8dc4a011474786bbb5dcc1e3d298bcfac191b7b",
      "transactionType": "CREATE",
      "contractName": "ProxyOwner",
      "contractAddress": "0xe9dc5ea1394bdf348fbdad32dbd83ee141ac9d42",
      "function": null,
      "arguments": null,
      "transaction": {
        "from": "0xb05a948b5c1b057b88d381bde3a375efea87ebad",
        "gas": "0x1c4513",
        "value": "0x0",
        "input": "0x60a080604052346100315730608052610c75908161003782396080518181816103270152818161044801526106c00152f35b600080fdfe60406080815260048036101561001457600080fd5b600091823560e01c9182633659cfe6146106995782634f1ef286146103cf57826352d1902d14610313578263715018a6146102be57826379ba5097146102745782638da5cb5b1461024b578263c4d66de81461012357508163e30c3978146100f6575063f2fde38b1461008657600080fd5b346100f35760203660031901126100f35761009f610859565b6100a76108e3565b606580546001600160a01b0319166001600160a01b039283169081179091556033549091167f38d16b8cac22d99fc7c124b9cd0de2d3fa1faef420bfe791d8c362d765e227008380a380f35b80fd5b90503461011f578160031936011261011f5760655490516001600160a01b039091168152602090f35b5080fd5b909150346102475760203660031901126102475761013f610859565b835460ff8160081c16159283809461023a575b8015610223575b156101c9575060ff198116600117855561017a9190836101b8575b50610b3d565b610182575080f35b60207f7f26b83ff96e1f2b6a682f133852f6798a09c465da95921460cefb38474024989161ff001984541684555160018152a180f35b61ffff191661010117855538610174565b608490602086519162461bcd60e51b8352820152602e60248201527f496e697469616c697a61626c653a20636f6e747261637420697320616c72656160448201526d191e481a5b9a5d1a585b1a5e995960921b6064820152fd5b50303b1580156101595750600160ff831614610159565b50600160ff831610610152565b8280fd5b83823461011f578160031936011261011f5760335490516001600160a01b039091168152602090f35b915034610247578260031936011261024757606554336001600160a01b03909116036102a757826102a433610b3d565b80f35b60249250519063118cdaa760e01b82523390820152fd5b83346100f357806003193601126100f3576102d76108e3565b606580546001600160a01b031990811690915560338054918216905581906001600160a01b0316600080516020610be08339815191528280a380f35b83346100f357806003193601126100f357507f00000000000000000000000000000000000000000000000000000000000000006001600160a01b0316300361036c5760208251600080516020610bc08339815191528152f35b6020608492519162461bcd60e51b8352820152603860248201527f555550535570677261646561626c653a206d757374206e6f742062652063616c6044820152771b1959081d1a1c9bdd59da0819195b1959d85d1958d85b1b60421b6064820152fd5b915080600319360112610247576103e4610859565b90602435906001600160401b0382116106955736602383011215610695578184013561040f816108c8565b61041b835191826108a5565b81815286602094858301933660248284010111610247578060248893018637830101526001600160a01b037f00000000000000000000000000000000000000000000000000000000000000008116906104763083141561093b565b610493600080516020610bc083398151915292828454161461098a565b61049b6108e3565b600080516020610b808339815191525460ff16156104c3575050505050506102a491506109d9565b869293949596169085516352d1902d60e01b815287818a81865afa8a9181610662575b5061053357865162461bcd60e51b8152808a01899052602e6024820152600080516020610c2083398151915260448201526d6f6e206973206e6f74205555505360901b6064820152608490fd5b97919293969594970361060d575061054a826109d9565b600080516020610c008339815191528780a285845115801590610605575b610576575b50505050505080f35b806105ef9684519661058788610874565b602788527f416464726573733a206c6f772d6c6576656c2064656c65676174652063616c6c87890152660819985a5b195960ca1b868901525190845af4913d156105fb573d6105e16105d8826108c8565b925192836108a5565b81528681943d92013e610a69565b5038808080808561056d565b5060609250610a69565b506001610568565b835162461bcd60e51b8152908101859052602960248201527f45524331393637557067726164653a20756e737570706f727465642070726f786044820152681a58589b195555525160ba1b6064820152608490fd5b9091508881813d831161068e575b61067a81836108a5565b8101031261068a575190386104e6565b8a80fd5b503d610670565b8480fd5b91503461024757602080600319360112610855576106b5610859565b916001600160a01b037f000000000000000000000000000000000000000000000000000000000000000081166106ed3082141561093b565b61070a600080516020610bc083398151915291838354161461098a565b6107126108e3565b8251848101929091906001600160401b0384118385101761084257838552888352600080516020610b808339815191525460ff161561075b575050505050506102a491506109d9565b869293949596169085516352d1902d60e01b815287818a81865afa8a9181610813575b506107cb57865162461bcd60e51b8152808a01899052602e6024820152600080516020610c2083398151915260448201526d6f6e206973206e6f74205555505360901b6064820152608490fd5b97919293969594970361060d57506107e2826109d9565b600080516020610c008339815191528780a28584511580159061080c576105765750505050505080f35b5080610568565b9091508881813d831161083b575b61082b81836108a5565b8101031261068a5751903861077e565b503d610821565b634e487b7160e01b895260418852602489fd5b8380fd5b600435906001600160a01b038216820361086f57565b600080fd5b606081019081106001600160401b0382111761088f57604052565b634e487b7160e01b600052604160045260246000fd5b601f909101601f19168101906001600160401b0382119082101761088f57604052565b6001600160401b03811161088f57601f01601f191660200190565b6033546001600160a01b031633036108f757565b606460405162461bcd60e51b815260206004820152602060248201527f4f776e61626c653a2063616c6c6572206973206e6f7420746865206f776e65726044820152fd5b1561094257565b60405162461bcd60e51b815260206004820152602c6024820152600080516020610ba083398151915260448201526b19195b1959d85d1958d85b1b60a21b6064820152608490fd5b1561099157565b60405162461bcd60e51b815260206004820152602c6024820152600080516020610ba083398151915260448201526b6163746976652070726f787960a01b6064820152608490fd5b803b15610a0e57600080516020610bc083398151915280546001600160a01b0319166001600160a01b03909216919091179055565b60405162461bcd60e51b815260206004820152602d60248201527f455243313936373a206e657720696d706c656d656e746174696f6e206973206e60448201526c1bdd08184818dbdb9d1c9858dd609a1b6064820152608490fd5b91929015610acb5750815115610a7d575090565b3b15610a865790565b60405162461bcd60e51b815260206004820152601d60248201527f416464726573733a2063616c6c20746f206e6f6e2d636f6e74726163740000006044820152606490fd5b825190915015610ade5750805190602001fd5b6040519062461bcd60e51b82528160208060048301528251908160248401526000935b828510610b24575050604492506000838284010152601f80199101168101030190fd5b8481018201518686016044015293810193859350610b01565b606580546001600160a01b0319908116909155603380549182166001600160a01b039384169081179091559116600080516020610be0833981519152600080a356fe4910fdfa16fed3260ed0e7147f7cc6da11a60208b5b9406d12a635614ffd914346756e6374696f6e206d7573742062652063616c6c6564207468726f75676820360894a13ba1a3210667c828492db98dca3e2076cc3735a920a3ca505d382bbc8be0079c531659141344cd1fd0a4f28419497f9722a3daafe3b4186f6b6457e0bc7cd75a20ee27fd9adebab32041f755214dbc6bffa90cc0225b39da2e5c2d3b45524331393637557067726164653a206e657720696d706c656d656e74617469a264697066735822122095dd4d2a5c194bfb1dbff104f39ee7131051171aea85fa95e6fba516911de91b64736f6c63430008130033",
        "nonce": "0xcb",
        "chainId": "0xa4b1"
      },
      "additionalContracts": [],
      "isFixedGasLimit": false
    },
    {
      "hash": "0x0f4dc3d86f40b3982c6c555af96da05435b479dd23196144f295a1b8a72a2939",
      "transactionType": "CREATE",
      "contractName": "ERC1967Proxy",
      "contractAddress": "0x5bbeb8eba98ddb8fd0d91965748d23ca5c8bbad6",
      "function": null,
      "arguments": [
        "0xE9DC5Ea1394BdF348FbdaD32dbD83ee141ac9D42",
        "0xc4d66de8000000000000000000000000b05a948b5c1b057b88d381bde3a375efea87ebad"
      ],
      "transaction": {
        "from": "0xb05a948b5c1b057b88d381bde3a375efea87ebad",
        "gas": "0x3bd34",
        "value": "0x0",
        "input": "0x604060808152610410908138038061001681610218565b93843982019181818403126102135780516001600160a01b038116808203610213576020838101516001600160401b0394919391858211610213570186601f820112156102135780519061007161006c83610253565b610218565b918083528583019886828401011161021357888661008f930161026e565b813b156101b9577f360894a13ba1a3210667c828492db98dca3e2076cc3735a920a3ca505d382bbc80546001600160a01b031916841790556000927fbc7cd75a20ee27fd9adebab32041f755214dbc6bffa90cc0225b39da2e5c2d3b8480a28051158015906101b2575b61010b575b855160cb90816103458239f35b855194606086019081118682101761019e578697849283926101889952602788527f416464726573733a206c6f772d6c6576656c2064656c65676174652063616c6c87890152660819985a5b195960ca1b8a8901525190845af4913d15610194573d9061017a61006c83610253565b91825281943d92013e610291565b508038808080806100fe565b5060609250610291565b634e487b7160e01b84526041600452602484fd5b50826100f9565b855162461bcd60e51b815260048101859052602d60248201527f455243313936373a206e657720696d706c656d656e746174696f6e206973206e60448201526c1bdd08184818dbdb9d1c9858dd609a1b6064820152608490fd5b600080fd5b6040519190601f01601f191682016001600160401b0381118382101761023d57604052565b634e487b7160e01b600052604160045260246000fd5b6001600160401b03811161023d57601f01601f191660200190565b60005b8381106102815750506000910152565b8181015183820152602001610271565b919290156102f357508151156102a5575090565b3b156102ae5790565b60405162461bcd60e51b815260206004820152601d60248201527f416464726573733a2063616c6c20746f206e6f6e2d636f6e74726163740000006044820152606490fd5b8251909150156103065750805190602001fd5b6044604051809262461bcd60e51b825260206004830152610336815180928160248601526020868601910161026e565b601f01601f19168101030190fdfe60806040523615604157600080516020607683398151915254600090819081906001600160a01b0316368280378136915af43d82803e15603d573d90f35b3d90fd5b600080516020607683398151915254600090819081906001600160a01b0316368280378136915af43d82803e15603d573d90f3fe360894a13ba1a3210667c828492db98dca3e2076cc3735a920a3ca505d382bbca2646970667358221220b9c533c5cbdc91d32688faca813a72cb34b28bff1b053c4cc32424f62e37a71f64736f6c63430008130033000000000000000000000000e9dc5ea1394bdf348fbdad32dbd83ee141ac9d4200000000000000000000000000000000000000000000000000000000000000400000000000000000000000000000000000000000000000000000000000000024c4d66de8000000000000000000000000b05a948b5c1b057b88d381bde3a375efea87ebad00000000000000000000000000000000000000000000000000000000",
        "nonce": "0xcc",
        "chainId": "0xa4b1"
      },
      "additionalContracts": [],
      "isFixedGasLimit": false
    },
    {
      "hash": "0xee492fd1b7bc4e8f5d6cacc7aef0d58ff46f89e6b87c33d0e4364b872f633bde",
      "transactionType": "CREATE",
      "contractName": "ProxyOwner",
      "contractAddress": "0x1e73e534fdea657562271f108b8bb98390862f35",
      "function": null,
      "arguments": null,
      "transaction": {
        "from": "0xb05a948b5c1b057b88d381bde3a375efea87ebad",
        "gas": "0x1c250c",
        "value": "0x0",
        "input": "0x60a080604052346100315730608052610c75908161003782396080518181816103270152818161044801526106c00152f35b600080fdfe60406080815260048036101561001457600080fd5b600091823560e01c9182633659cfe6146106995782634f1ef286146103cf57826352d1902d14610313578263715018a6146102be57826379ba5097146102745782638da5cb5b1461024b578263c4d66de81461012357508163e30c3978146100f6575063f2fde38b1461008657600080fd5b346100f35760203660031901126100f35761009f610859565b6100a76108e3565b606580546001600160a01b0319166001600160a01b039283169081179091556033549091167f38d16b8cac22d99fc7c124b9cd0de2d3fa1faef420bfe791d8c362d765e227008380a380f35b80fd5b90503461011f578160031936011261011f5760655490516001600160a01b039091168152602090f35b5080fd5b909150346102475760203660031901126102475761013f610859565b835460ff8160081c16159283809461023a575b8015610223575b156101c9575060ff198116600117855561017a9190836101b8575b50610b3d565b610182575080f35b60207f7f26b83ff96e1f2b6a682f133852f6798a09c465da95921460cefb38474024989161ff001984541684555160018152a180f35b61ffff191661010117855538610174565b608490602086519162461bcd60e51b8352820152602e60248201527f496e697469616c697a61626c653a20636f6e747261637420697320616c72656160448201526d191e481a5b9a5d1a585b1a5e995960921b6064820152fd5b50303b1580156101595750600160ff831614610159565b50600160ff831610610152565b8280fd5b83823461011f578160031936011261011f5760335490516001600160a01b039091168152602090f35b915034610247578260031936011261024757606554336001600160a01b03909116036102a757826102a433610b3d565b80f35b60249250519063118cdaa760e01b82523390820152fd5b83346100f357806003193601126100f3576102d76108e3565b606580546001600160a01b031990811690915560338054918216905581906001600160a01b0316600080516020610be08339815191528280a380f35b83346100f357806003193601126100f357507f00000000000000000000000000000000000000000000000000000000000000006001600160a01b0316300361036c5760208251600080516020610bc08339815191528152f35b6020608492519162461bcd60e51b8352820152603860248201527f555550535570677261646561626c653a206d757374206e6f742062652063616c6044820152771b1959081d1a1c9bdd59da0819195b1959d85d1958d85b1b60421b6064820152fd5b915080600319360112610247576103e4610859565b90602435906001600160401b0382116106955736602383011215610695578184013561040f816108c8565b61041b835191826108a5565b81815286602094858301933660248284010111610247578060248893018637830101526001600160a01b037f00000000000000000000000000000000000000000000000000000000000000008116906104763083141561093b565b610493600080516020610bc083398151915292828454161461098a565b61049b6108e3565b600080516020610b808339815191525460ff16156104c3575050505050506102a491506109d9565b869293949596169085516352d1902d60e01b815287818a81865afa8a9181610662575b5061053357865162461bcd60e51b8152808a01899052602e6024820152600080516020610c2083398151915260448201526d6f6e206973206e6f74205555505360901b6064820152608490fd5b97919293969594970361060d575061054a826109d9565b600080516020610c008339815191528780a285845115801590610605575b610576575b50505050505080f35b806105ef9684519661058788610874565b602788527f416464726573733a206c6f772d6c6576656c2064656c65676174652063616c6c87890152660819985a5b195960ca1b868901525190845af4913d156105fb573d6105e16105d8826108c8565b925192836108a5565b81528681943d92013e610a69565b5038808080808561056d565b5060609250610a69565b506001610568565b835162461bcd60e51b8152908101859052602960248201527f45524331393637557067726164653a20756e737570706f727465642070726f786044820152681a58589b195555525160ba1b6064820152608490fd5b9091508881813d831161068e575b61067a81836108a5565b8101031261068a575190386104e6565b8a80fd5b503d610670565b8480fd5b91503461024757602080600319360112610855576106b5610859565b916001600160a01b037f000000000000000000000000000000000000000000000000000000000000000081166106ed3082141561093b565b61070a600080516020610bc083398151915291838354161461098a565b6107126108e3565b8251848101929091906001600160401b0384118385101761084257838552888352600080516020610b808339815191525460ff161561075b575050505050506102a491506109d9565b869293949596169085516352d1902d60e01b815287818a81865afa8a9181610813575b506107cb57865162461bcd60e51b8152808a01899052602e6024820152600080516020610c2083398151915260448201526d6f6e206973206e6f74205555505360901b6064820152608490fd5b97919293969594970361060d57506107e2826109d9565b600080516020610c008339815191528780a28584511580159061080c576105765750505050505080f35b5080610568565b9091508881813d831161083b575b61082b81836108a5565b8101031261068a5751903861077e565b503d610821565b634e487b7160e01b895260418852602489fd5b8380fd5b600435906001600160a01b038216820361086f57565b600080fd5b606081019081106001600160401b0382111761088f57604052565b634e487b7160e01b600052604160045260246000fd5b601f909101601f19168101906001600160401b0382119082101761088f57604052565b6001600160401b03811161088f57601f01601f191660200190565b6033546001600160a01b031633036108f757565b606460405162461bcd60e51b815260206004820152602060248201527f4f776e61626c653a2063616c6c6572206973206e6f7420746865206f776e65726044820152fd5b1561094257565b60405162461bcd60e51b815260206004820152602c6024820152600080516020610ba083398151915260448201526b19195b1959d85d1958d85b1b60a21b6064820152608490fd5b1561099157565b60405162461bcd60e51b815260206004820152602c6024820152600080516020610ba083398151915260448201526b6163746976652070726f787960a01b6064820152608490fd5b803b15610a0e57600080516020610bc083398151915280546001600160a01b0319166001600160a01b03909216919091179055565b60405162461bcd60e51b815260206004820152602d60248201527f455243313936373a206e657720696d706c656d656e746174696f6e206973206e60448201526c1bdd08184818dbdb9d1c9858dd609a1b6064820152608490fd5b91929015610acb5750815115610a7d575090565b3b15610a865790565b60405162461bcd60e51b815260206004820152601d60248201527f416464726573733a2063616c6c20746f206e6f6e2d636f6e74726163740000006044820152606490fd5b825190915015610ade5750805190602001fd5b6040519062461bcd60e51b82528160208060048301528251908160248401526000935b828510610b24575050604492506000838284010152601f80199101168101030190fd5b8481018201518686016044015293810193859350610b01565b606580546001600160a01b0319908116909155603380549182166001600160a01b039384169081179091559116600080516020610be0833981519152600080a356fe4910fdfa16fed3260ed0e7147f7cc6da11a60208b5b9406d12a635614ffd914346756e6374696f6e206d7573742062652063616c6c6564207468726f75676820360894a13ba1a3210667c828492db98dca3e2076cc3735a920a3ca505d382bbc8be0079c531659141344cd1fd0a4f28419497f9722a3daafe3b4186f6b6457e0bc7cd75a20ee27fd9adebab32041f755214dbc6bffa90cc0225b39da2e5c2d3b45524331393637557067726164653a206e657720696d706c656d656e74617469a264697066735822122095dd4d2a5c194bfb1dbff104f39ee7131051171aea85fa95e6fba516911de91b64736f6c63430008130033",
        "nonce": "0xcd",
        "chainId": "0xa4b1"
      },
      "additionalContracts": [],
      "isFixedGasLimit": false
    },
    {
      "hash": "0x1a9b25ddcc661bf6f8e851822c08cb15e610912a8ec1a824da7aa1e0ba1b51e3",
      "transactionType": "CALL",
      "contractName": "ERC1967Proxy",
      "contractAddress": "0x5bbeb8eba98ddb8fd0d91965748d23ca5c8bbad6",
      "function": null,
      "arguments": null,
      "transaction": {
        "from": "0xb05a948b5c1b057b88d381bde3a375efea87ebad",
        "to": "0x5bbeb8eba98ddb8fd0d91965748d23ca5c8bbad6",
        "gas": "0x17a1a",
        "value": "0x0",
        "input": "0x3659cfe60000000000000000000000001e73e534fdea657562271f108b8bb98390862f35",
        "nonce": "0xce",
        "chainId": "0xa4b1"
      },
      "additionalContracts": [],
      "isFixedGasLimit": false
    },
    {
      "hash": "0x9de6c05e431e652b9c7fbf6f94137419528ff3637f05e57566dde03756aa8e37",
      "transactionType": "CALL",
      "contractName": null,
      "contractAddress": "0xd58ff588177f02cc535a0e235a4c002a17e27202",
      "function": "transferOwnership(address)",
      "arguments": [
        "0x5Bbeb8eBa98dDB8fD0D91965748D23Ca5C8bbad6"
      ],
      "transaction": {
        "from": "0xb05a948b5c1b057b88d381bde3a375efea87ebad",
        "to": "0xd58ff588177f02cc535a0e235a4c002a17e27202",
        "gas": "0x1b84d",
        "value": "0x0",
        "input": "0xf2fde38b0000000000000000000000005bbeb8eba98ddb8fd0d91965748d23ca5c8bbad6",
        "nonce": "0xcf",
        "chainId": "0xa4b1"
      },
      "additionalContracts": [],
      "isFixedGasLimit": false
    },
    {
      "hash": "0x5d8f6f4a0acb1a387a5f07a4d18c2b960810e91f711b4e0689623614369b6dbb",
      "transactionType": "CALL",
      "contractName": null,
      "contractAddress": "0xa2d5900d53a548637dd61312d02b90f3ff1d6a5e",
      "function": "transferOwnership(address)",
      "arguments": [
        "0x5Bbeb8eBa98dDB8fD0D91965748D23Ca5C8bbad6"
      ],
      "transaction": {
        "from": "0xb05a948b5c1b057b88d381bde3a375efea87ebad",
        "to": "0xa2d5900d53a548637dd61312d02b90f3ff1d6a5e",
        "gas": "0x1b717",
        "value": "0x0",
        "input": "0xf2fde38b0000000000000000000000005bbeb8eba98ddb8fd0d91965748d23ca5c8bbad6",
        "nonce": "0xd0",
        "chainId": "0xa4b1"
      },
      "additionalContracts": [],
      "isFixedGasLimit": false
    },
    {
      "hash": "0x4378bbc63f9032a5855393b22c1e253de4c3a3fafd274eaeaa28e67b39e6ac66",
      "transactionType": "CALL",
      "contractName": null,
      "contractAddress": "0xc1c2e092b7dbc8413e1ac02e92c161b0bda783f6",
      "function": "transferOwnership(address)",
      "arguments": [
        "0x5Bbeb8eBa98dDB8fD0D91965748D23Ca5C8bbad6"
      ],
      "transaction": {
        "from": "0xb05a948b5c1b057b88d381bde3a375efea87ebad",
        "to": "0xc1c2e092b7dbc8413e1ac02e92c161b0bda783f6",
        "gas": "0x1ec0b",
        "value": "0x0",
        "input": "0xf2fde38b0000000000000000000000005bbeb8eba98ddb8fd0d91965748d23ca5c8bbad6",
        "nonce": "0xd1",
        "chainId": "0xa4b1"
      },
      "additionalContracts": [],
      "isFixedGasLimit": false
    },
    {
      "hash": "0xaac0b1ddd804d35fd0c95ae8c8ea27eddc6c3560011aa65b00239e02304dafe8",
      "transactionType": "CALL",
      "contractName": null,
      "contractAddress": "0x01a2c3c4e7c38885bf3d01e38847184ff2368fea",
      "function": "transferOwnership(address)",
      "arguments": [
        "0x5Bbeb8eBa98dDB8fD0D91965748D23Ca5C8bbad6"
      ],
      "transaction": {
        "from": "0xb05a948b5c1b057b88d381bde3a375efea87ebad",
        "to": "0x01a2c3c4e7c38885bf3d01e38847184ff2368fea",
        "gas": "0x1bbb8",
        "value": "0x0",
        "input": "0xf2fde38b0000000000000000000000005bbeb8eba98ddb8fd0d91965748d23ca5c8bbad6",
        "nonce": "0xd2",
        "chainId": "0xa4b1"
      },
      "additionalContracts": [],
      "isFixedGasLimit": false
    },
    {
      "hash": "0xc129798b56686de00be90141385755c28996a9f6cd70b78d49f150c509206d6e",
      "transactionType": "CALL",
      "contractName": null,
      "contractAddress": "0x0f143af46eef341b3f0dbf98c3ecb47f57067fef",
      "function": "transferOwnership(address)",
      "arguments": [
        "0x5Bbeb8eBa98dDB8fD0D91965748D23Ca5C8bbad6"
      ],
      "transaction": {
        "from": "0xb05a948b5c1b057b88d381bde3a375efea87ebad",
        "to": "0x0f143af46eef341b3f0dbf98c3ecb47f57067fef",
        "gas": "0x1bbb8",
        "value": "0x0",
        "input": "0xf2fde38b0000000000000000000000005bbeb8eba98ddb8fd0d91965748d23ca5c8bbad6",
        "nonce": "0xd3",
        "chainId": "0xa4b1"
      },
      "additionalContracts": [],
      "isFixedGasLimit": false
    },
    {
      "hash": "0x88581c9f380904d209951c2b80f2bcf84860caad9f37a2129199ae56e0cfebc2",
      "transactionType": "CALL",
      "contractName": null,
      "contractAddress": "0x110f4a8153c04eace288e712eb4b975b46376b8c",
      "function": "transferOwnership(address)",
      "arguments": [
        "0x5Bbeb8eBa98dDB8fD0D91965748D23Ca5C8bbad6"
      ],
      "transaction": {
        "from": "0xb05a948b5c1b057b88d381bde3a375efea87ebad",
        "to": "0x110f4a8153c04eace288e712eb4b975b46376b8c",
        "gas": "0x1bbb8",
        "value": "0x0",
        "input": "0xf2fde38b0000000000000000000000005bbeb8eba98ddb8fd0d91965748d23ca5c8bbad6",
        "nonce": "0xd4",
        "chainId": "0xa4b1"
      },
      "additionalContracts": [],
      "isFixedGasLimit": false
    },
    {
      "hash": "0x88eceda84a286fc5d920e219f581766346a333ec87c5594942d5d85101f4c900",
      "transactionType": "CALL",
      "contractName": null,
      "contractAddress": "0x400b3316447a4362abe36206c145550080046831",
      "function": "transferOwnership(address)",
      "arguments": [
        "0x5Bbeb8eBa98dDB8fD0D91965748D23Ca5C8bbad6"
      ],
      "transaction": {
        "from": "0xb05a948b5c1b057b88d381bde3a375efea87ebad",
        "to": "0x400b3316447a4362abe36206c145550080046831",
        "gas": "0x1bbb8",
        "value": "0x0",
        "input": "0xf2fde38b0000000000000000000000005bbeb8eba98ddb8fd0d91965748d23ca5c8bbad6",
        "nonce": "0xd5",
        "chainId": "0xa4b1"
      },
      "additionalContracts": [],
      "isFixedGasLimit": false
    },
    {
      "hash": "0x4d11bf6b50472fcdf84eb63a50d6dc1ffa693323de8942db0c4844dcd6a124fa",
      "transactionType": "CALL",
      "contractName": null,
      "contractAddress": "0x5a48adf540cb5c79edb027bef3ebf551ce63661f",
      "function": "transferOwnership(address)",
      "arguments": [
        "0x5Bbeb8eBa98dDB8fD0D91965748D23Ca5C8bbad6"
      ],
      "transaction": {
        "from": "0xb05a948b5c1b057b88d381bde3a375efea87ebad",
        "to": "0x5a48adf540cb5c79edb027bef3ebf551ce63661f",
        "gas": "0x1b8be",
        "value": "0x0",
        "input": "0xf2fde38b0000000000000000000000005bbeb8eba98ddb8fd0d91965748d23ca5c8bbad6",
        "nonce": "0xd6",
        "chainId": "0xa4b1"
      },
      "additionalContracts": [],
      "isFixedGasLimit": false
    },
    {
      "hash": "0x8779ff6c8fa7033d1f85727945580a497e41f2e3d13b6285b7885c276af0e693",
      "transactionType": "CALL",
      "contractName": null,
      "contractAddress": "0x625cb91ad17cf9b4a2b6b20b2b494ddf123c290c",
      "function": "transferOwnership(address)",
      "arguments": [
        "0x5Bbeb8eBa98dDB8fD0D91965748D23Ca5C8bbad6"
      ],
      "transaction": {
        "from": "0xb05a948b5c1b057b88d381bde3a375efea87ebad",
        "to": "0x625cb91ad17cf9b4a2b6b20b2b494ddf123c290c",
        "gas": "0x1b8be",
        "value": "0x0",
        "input": "0xf2fde38b0000000000000000000000005bbeb8eba98ddb8fd0d91965748d23ca5c8bbad6",
        "nonce": "0xd7",
        "chainId": "0xa4b1"
      },
      "additionalContracts": [],
      "isFixedGasLimit": false
    },
    {
      "hash": "0x95b1d81417bae94635288c912e88c8445fb6e0c0e18b58164f4bc4bcfab95f02",
      "transactionType": "CALL",
      "contractName": null,
      "contractAddress": "0x6dd6b0a9a9b94aa169e5ce31cff34a46c7bea9cd",
      "function": "transferOwnership(address)",
      "arguments": [
        "0x5Bbeb8eBa98dDB8fD0D91965748D23Ca5C8bbad6"
      ],
      "transaction": {
        "from": "0xb05a948b5c1b057b88d381bde3a375efea87ebad",
        "to": "0x6dd6b0a9a9b94aa169e5ce31cff34a46c7bea9cd",
        "gas": "0x1b485",
        "value": "0x0",
        "input": "0xf2fde38b0000000000000000000000005bbeb8eba98ddb8fd0d91965748d23ca5c8bbad6",
        "nonce": "0xd8",
        "chainId": "0xa4b1"
      },
      "additionalContracts": [],
      "isFixedGasLimit": false
    },
    {
      "hash": "0xe530f7c13928e45d7e8a95b303be7ee174e3c25091949532e19faae727aadfe4",
      "transactionType": "CALL",
      "contractName": null,
      "contractAddress": "0x7508c3bcc2ce964ef858762cfbfa8bbbcf406ec9",
      "function": "transferOwnership(address)",
      "arguments": [
        "0x5Bbeb8eBa98dDB8fD0D91965748D23Ca5C8bbad6"
      ],
      "transaction": {
        "from": "0xb05a948b5c1b057b88d381bde3a375efea87ebad",
        "to": "0x7508c3bcc2ce964ef858762cfbfa8bbbcf406ec9",
        "gas": "0x1b485",
        "value": "0x0",
        "input": "0xf2fde38b0000000000000000000000005bbeb8eba98ddb8fd0d91965748d23ca5c8bbad6",
        "nonce": "0xd9",
        "chainId": "0xa4b1"
      },
      "additionalContracts": [],
      "isFixedGasLimit": false
    },
    {
      "hash": "0x457bf24020fa8f2e0ebc3ffa9dc0e1c678a41c4b900f8f9014378871d83ec5d7",
      "transactionType": "CALL",
      "contractName": null,
      "contractAddress": "0x8281fd9c5f709a681813c49843a253a05d9b837c",
      "function": "transferOwnership(address)",
      "arguments": [
        "0x5Bbeb8eBa98dDB8fD0D91965748D23Ca5C8bbad6"
      ],
      "transaction": {
        "from": "0xb05a948b5c1b057b88d381bde3a375efea87ebad",
        "to": "0x8281fd9c5f709a681813c49843a253a05d9b837c",
        "gas": "0x1b485",
        "value": "0x0",
        "input": "0xf2fde38b0000000000000000000000005bbeb8eba98ddb8fd0d91965748d23ca5c8bbad6",
        "nonce": "0xda",
        "chainId": "0xa4b1"
      },
      "additionalContracts": [],
      "isFixedGasLimit": false
    },
    {
      "hash": "0x4189e12051e4ec4ff074ec44397eb7048bbea27a91ce9babd63b24b6566e7fe9",
      "transactionType": "CALL",
      "contractName": null,
      "contractAddress": "0x8c3e27f075bb82e8730660828a1159c9438f3e58",
      "function": "transferOwnership(address)",
      "arguments": [
        "0x5Bbeb8eBa98dDB8fD0D91965748D23Ca5C8bbad6"
      ],
      "transaction": {
        "from": "0xb05a948b5c1b057b88d381bde3a375efea87ebad",
        "to": "0x8c3e27f075bb82e8730660828a1159c9438f3e58",
        "gas": "0x1b1f6",
        "value": "0x0",
        "input": "0xf2fde38b0000000000000000000000005bbeb8eba98ddb8fd0d91965748d23ca5c8bbad6",
        "nonce": "0xdb",
        "chainId": "0xa4b1"
      },
      "additionalContracts": [],
      "isFixedGasLimit": false
    },
    {
      "hash": "0xe313e9126df494406e5bf592ffb2a35434b5b07d08bda95a9ea672a7c9e1da45",
      "transactionType": "CALL",
      "contractName": null,
      "contractAddress": "0xa50d2ce829ea7b731c3b0a244032b639ff94cb92",
      "function": "transferOwnership(address)",
      "arguments": [
        "0x5Bbeb8eBa98dDB8fD0D91965748D23Ca5C8bbad6"
      ],
      "transaction": {
        "from": "0xb05a948b5c1b057b88d381bde3a375efea87ebad",
        "to": "0xa50d2ce829ea7b731c3b0a244032b639ff94cb92",
        "gas": "0x1b1f6",
        "value": "0x0",
        "input": "0xf2fde38b0000000000000000000000005bbeb8eba98ddb8fd0d91965748d23ca5c8bbad6",
        "nonce": "0xdc",
        "chainId": "0xa4b1"
      },
      "additionalContracts": [],
      "isFixedGasLimit": false
    },
    {
      "hash": "0x94ca509add4e526efa47e97fc8c4982e147d8470735ada7faa5f0abdf30c8bd9",
      "transactionType": "CALL",
      "contractName": null,
      "contractAddress": "0xbb8b8ddc3775d825b6cf33bfa9ddcd771b88c6ee",
      "function": "transferOwnership(address)",
      "arguments": [
        "0x5Bbeb8eBa98dDB8fD0D91965748D23Ca5C8bbad6"
      ],
      "transaction": {
        "from": "0xb05a948b5c1b057b88d381bde3a375efea87ebad",
        "to": "0xbb8b8ddc3775d825b6cf33bfa9ddcd771b88c6ee",
        "gas": "0x1af47",
        "value": "0x0",
        "input": "0xf2fde38b0000000000000000000000005bbeb8eba98ddb8fd0d91965748d23ca5c8bbad6",
        "nonce": "0xdd",
        "chainId": "0xa4b1"
      },
      "additionalContracts": [],
      "isFixedGasLimit": false
    },
    {
      "hash": "0xba70bef388a7d70e2b4d568ab08c125e51075327c73d9f34d55947450a0ab1b7",
      "transactionType": "CALL",
      "contractName": null,
      "contractAddress": "0xc3ba42da1d9f6b09d4d1315ac04f873a5ba64d3c",
      "function": "transferOwnership(address)",
      "arguments": [
        "0x5Bbeb8eBa98dDB8fD0D91965748D23Ca5C8bbad6"
      ],
      "transaction": {
        "from": "0xb05a948b5c1b057b88d381bde3a375efea87ebad",
        "to": "0xc3ba42da1d9f6b09d4d1315ac04f873a5ba64d3c",
        "gas": "0x1af47",
        "value": "0x0",
        "input": "0xf2fde38b0000000000000000000000005bbeb8eba98ddb8fd0d91965748d23ca5c8bbad6",
        "nonce": "0xde",
        "chainId": "0xa4b1"
      },
      "additionalContracts": [],
      "isFixedGasLimit": false
    },
    {
      "hash": "0xc62c1c9b43e981ffd911f17ebe6b94b69b26100b4f374432685b565542b29483",
      "transactionType": "CALL",
      "contractName": null,
      "contractAddress": "0xe0902356a984540ca097021dbd9e0650974c7f7d",
      "function": "transferOwnership(address)",
      "arguments": [
        "0x5Bbeb8eBa98dDB8fD0D91965748D23Ca5C8bbad6"
      ],
      "transaction": {
        "from": "0xb05a948b5c1b057b88d381bde3a375efea87ebad",
        "to": "0xe0902356a984540ca097021dbd9e0650974c7f7d",
        "gas": "0x1af47",
        "value": "0x0",
        "input": "0xf2fde38b0000000000000000000000005bbeb8eba98ddb8fd0d91965748d23ca5c8bbad6",
        "nonce": "0xdf",
        "chainId": "0xa4b1"
      },
      "additionalContracts": [],
      "isFixedGasLimit": false
    },
    {
      "hash": "0x87b3dccbf96f77b55d21cf42b8e665530ba2380d978655db1e04db7b667ef7c5",
      "transactionType": "CALL",
      "contractName": null,
      "contractAddress": "0xf62a2e4ecf3bf73313b3bbbfb1563cb4433c8933",
      "function": "transferOwnership(address)",
      "arguments": [
        "0x5Bbeb8eBa98dDB8fD0D91965748D23Ca5C8bbad6"
      ],
      "transaction": {
        "from": "0xb05a948b5c1b057b88d381bde3a375efea87ebad",
        "to": "0xf62a2e4ecf3bf73313b3bbbfb1563cb4433c8933",
        "gas": "0x1ace0",
        "value": "0x0",
        "input": "0xf2fde38b0000000000000000000000005bbeb8eba98ddb8fd0d91965748d23ca5c8bbad6",
        "nonce": "0xe0",
        "chainId": "0xa4b1"
      },
      "additionalContracts": [],
      "isFixedGasLimit": false
    },
    {
      "hash": "0xc37fe636c6e6b5a8bb11fca1f85533087d3d633d61bfbb9356215e353d05d2fe",
      "transactionType": "CALL",
      "contractName": null,
      "contractAddress": "0xfa1d8bdb95e0288779df13f40ff32567647e7ffa",
      "function": "transferOwnership(address)",
      "arguments": [
        "0x5Bbeb8eBa98dDB8fD0D91965748D23Ca5C8bbad6"
      ],
      "transaction": {
        "from": "0xb05a948b5c1b057b88d381bde3a375efea87ebad",
        "to": "0xfa1d8bdb95e0288779df13f40ff32567647e7ffa",
        "gas": "0x1ace0",
        "value": "0x0",
        "input": "0xf2fde38b0000000000000000000000005bbeb8eba98ddb8fd0d91965748d23ca5c8bbad6",
        "nonce": "0xe1",
        "chainId": "0xa4b1"
      },
      "additionalContracts": [],
      "isFixedGasLimit": false
    },
    {
      "hash": "0x764c805b33988edc0edacca4ff174636b9850fb8ce68394f52925ac718867201",
      "transactionType": "CALL",
      "contractName": null,
      "contractAddress": "0x19a0f3d7734dca40f1847c44ef717ef3ef5c50a5",
      "function": "transferOwnership(address)",
      "arguments": [
        "0x5Bbeb8eBa98dDB8fD0D91965748D23Ca5C8bbad6"
      ],
      "transaction": {
        "from": "0xb05a948b5c1b057b88d381bde3a375efea87ebad",
        "to": "0x19a0f3d7734dca40f1847c44ef717ef3ef5c50a5",
        "gas": "0x1a1f3",
        "value": "0x0",
        "input": "0xf2fde38b0000000000000000000000005bbeb8eba98ddb8fd0d91965748d23ca5c8bbad6",
        "nonce": "0xe2",
        "chainId": "0xa4b1"
      },
      "additionalContracts": [],
      "isFixedGasLimit": false
    },
    {
      "hash": "0xacc37ac64c2733e79f22bcd4659b6c3dc9a40267197c22691ed333282f17d638",
      "transactionType": "CALL",
      "contractName": null,
      "contractAddress": "0x2e00fd8fff4417c9d76ac44e35f039861b7e8f86",
      "function": "transferOwnership(address)",
      "arguments": [
        "0x5Bbeb8eBa98dDB8fD0D91965748D23Ca5C8bbad6"
      ],
      "transaction": {
        "from": "0xb05a948b5c1b057b88d381bde3a375efea87ebad",
        "to": "0x2e00fd8fff4417c9d76ac44e35f039861b7e8f86",
        "gas": "0x1a1f3",
        "value": "0x0",
        "input": "0xf2fde38b0000000000000000000000005bbeb8eba98ddb8fd0d91965748d23ca5c8bbad6",
        "nonce": "0xe3",
        "chainId": "0xa4b1"
      },
      "additionalContracts": [],
      "isFixedGasLimit": false
    },
    {
      "hash": "0xac113fa1b2bbd022ebb006de8640623cf8cd0c3bf8b235dd1511782c2ea02fbc",
      "transactionType": "CALL",
      "contractName": null,
      "contractAddress": "0x46408b210e77408c17c183470c4693f458f5aed8",
      "function": "transferOwnership(address)",
      "arguments": [
        "0x5Bbeb8eBa98dDB8fD0D91965748D23Ca5C8bbad6"
      ],
      "transaction": {
        "from": "0xb05a948b5c1b057b88d381bde3a375efea87ebad",
        "to": "0x46408b210e77408c17c183470c4693f458f5aed8",
        "gas": "0x1a062",
        "value": "0x0",
        "input": "0xf2fde38b0000000000000000000000005bbeb8eba98ddb8fd0d91965748d23ca5c8bbad6",
        "nonce": "0xe4",
        "chainId": "0xa4b1"
      },
      "additionalContracts": [],
      "isFixedGasLimit": false
    },
    {
      "hash": "0x5d76c8ba7de31df5053a5809954f6fbdd9fad19ba0b9937d5cb983fdc1827e66",
      "transactionType": "CALL",
      "contractName": null,
      "contractAddress": "0x5b7d4523862981219c74b9e081221011e4f45182",
      "function": "transferOwnership(address)",
      "arguments": [
        "0x5Bbeb8eBa98dDB8fD0D91965748D23Ca5C8bbad6"
      ],
      "transaction": {
        "from": "0xb05a948b5c1b057b88d381bde3a375efea87ebad",
        "to": "0x5b7d4523862981219c74b9e081221011e4f45182",
        "gas": "0x1a062",
        "value": "0x0",
        "input": "0xf2fde38b0000000000000000000000005bbeb8eba98ddb8fd0d91965748d23ca5c8bbad6",
        "nonce": "0xe5",
        "chainId": "0xa4b1"
      },
      "additionalContracts": [],
      "isFixedGasLimit": false
    },
    {
      "hash": "0xe046024c3c2d12d8454871dc79766601f2101e482eb0a433c8805bf465a9868f",
      "transactionType": "CALL",
      "contractName": null,
      "contractAddress": "0x7749aee50faeca5d7eed53bcbcf07db5aaf72e51",
      "function": "transferOwnership(address)",
      "arguments": [
        "0x5Bbeb8eBa98dDB8fD0D91965748D23Ca5C8bbad6"
      ],
      "transaction": {
        "from": "0xb05a948b5c1b057b88d381bde3a375efea87ebad",
        "to": "0x7749aee50faeca5d7eed53bcbcf07db5aaf72e51",
        "gas": "0x19d18",
        "value": "0x0",
        "input": "0xf2fde38b0000000000000000000000005bbeb8eba98ddb8fd0d91965748d23ca5c8bbad6",
        "nonce": "0xe6",
        "chainId": "0xa4b1"
      },
      "additionalContracts": [],
      "isFixedGasLimit": false
    },
    {
      "hash": "0x0b2a826db07f9b3347a7fd792cc25300648333a2b29edbdd2fb4346637f983b8",
      "transactionType": "CALL",
      "contractName": null,
      "contractAddress": "0xad3d78ed1b03f26238845612eeb3c5b2677fa359",
      "function": "transferOwnership(address)",
      "arguments": [
        "0x5Bbeb8eBa98dDB8fD0D91965748D23Ca5C8bbad6"
      ],
      "transaction": {
        "from": "0xb05a948b5c1b057b88d381bde3a375efea87ebad",
        "to": "0xad3d78ed1b03f26238845612eeb3c5b2677fa359",
        "gas": "0x19d18",
        "value": "0x0",
        "input": "0xf2fde38b0000000000000000000000005bbeb8eba98ddb8fd0d91965748d23ca5c8bbad6",
        "nonce": "0xe7",
        "chainId": "0xa4b1"
      },
      "additionalContracts": [],
      "isFixedGasLimit": false
    },
    {
      "hash": "0x58a483844ef427a79bbad8954c6038c3c92dcb96f5be20b62a3b72499f72b5f2",
      "transactionType": "CALL",
      "contractName": null,
      "contractAddress": "0xaf893ffeb244ada520e842eea4a6f3864113f1f5",
      "function": "transferOwnership(address)",
      "arguments": [
        "0x5Bbeb8eBa98dDB8fD0D91965748D23Ca5C8bbad6"
      ],
      "transaction": {
        "from": "0xb05a948b5c1b057b88d381bde3a375efea87ebad",
        "to": "0xaf893ffeb244ada520e842eea4a6f3864113f1f5",
        "gas": "0x19d18",
        "value": "0x0",
        "input": "0xf2fde38b0000000000000000000000005bbeb8eba98ddb8fd0d91965748d23ca5c8bbad6",
        "nonce": "0xe8",
        "chainId": "0xa4b1"
      },
      "additionalContracts": [],
      "isFixedGasLimit": false
    },
    {
      "hash": "0x1e926cfb7624fb93a9852c9ed37a9fefe80958f900009dd777e3fe342cfdaf7c",
      "transactionType": "CALL",
      "contractName": null,
      "contractAddress": "0xb9739585e54374268c231f042d384bfa57e41c95",
      "function": "transferOwnership(address)",
      "arguments": [
        "0x5Bbeb8eBa98dDB8fD0D91965748D23Ca5C8bbad6"
      ],
      "transaction": {
        "from": "0xb05a948b5c1b057b88d381bde3a375efea87ebad",
        "to": "0xb9739585e54374268c231f042d384bfa57e41c95",
        "gas": "0x19a5b",
        "value": "0x0",
        "input": "0xf2fde38b0000000000000000000000005bbeb8eba98ddb8fd0d91965748d23ca5c8bbad6",
        "nonce": "0xe9",
        "chainId": "0xa4b1"
      },
      "additionalContracts": [],
      "isFixedGasLimit": false
    },
    {
      "hash": "0x6bb36a5d56a543b70392a0bc496438afedd4decd66ff69840f6e2b741d21021d",
      "transactionType": "CALL",
      "contractName": null,
      "contractAddress": "0xbd0c6aa5a670ebe77bd0225f345abe0058ece703",
      "function": "transferOwnership(address)",
      "arguments": [
        "0x5Bbeb8eBa98dDB8fD0D91965748D23Ca5C8bbad6"
      ],
      "transaction": {
        "from": "0xb05a948b5c1b057b88d381bde3a375efea87ebad",
        "to": "0xbd0c6aa5a670ebe77bd0225f345abe0058ece703",
        "gas": "0x19a5b",
        "value": "0x0",
        "input": "0xf2fde38b0000000000000000000000005bbeb8eba98ddb8fd0d91965748d23ca5c8bbad6",
        "nonce": "0xea",
        "chainId": "0xa4b1"
      },
      "additionalContracts": [],
      "isFixedGasLimit": false
    },
    {
      "hash": "0x247d8ed00cdb60962e887a8a1db94c3de99c4dfe7cad24b8f523a752bad8bbdc",
      "transactionType": "CALL",
      "contractName": null,
      "contractAddress": "0xea03978db787d89572cb7a07b60ac65b98111143",
      "function": "transferOwnership(address)",
      "arguments": [
        "0x5Bbeb8eBa98dDB8fD0D91965748D23Ca5C8bbad6"
      ],
      "transaction": {
        "from": "0xb05a948b5c1b057b88d381bde3a375efea87ebad",
        "to": "0xea03978db787d89572cb7a07b60ac65b98111143",
        "gas": "0x19896",
        "value": "0x0",
        "input": "0xf2fde38b0000000000000000000000005bbeb8eba98ddb8fd0d91965748d23ca5c8bbad6",
        "nonce": "0xeb",
        "chainId": "0xa4b1"
      },
      "additionalContracts": [],
      "isFixedGasLimit": false
    },
    {
      "hash": "0x5f46a4ee9ad6054285fc2ca18084d58a2ae0c16f11b74c6c2154f3da85c41838",
      "transactionType": "CALL",
      "contractName": null,
      "contractAddress": "0xeefd5923d88bdcc74afa56943dcc163f1de2be4d",
      "function": "transferOwnership(address)",
      "arguments": [
        "0x5Bbeb8eBa98dDB8fD0D91965748D23Ca5C8bbad6"
      ],
      "transaction": {
        "from": "0xb05a948b5c1b057b88d381bde3a375efea87ebad",
        "to": "0xeefd5923d88bdcc74afa56943dcc163f1de2be4d",
        "gas": "0x19896",
        "value": "0x0",
        "input": "0xf2fde38b0000000000000000000000005bbeb8eba98ddb8fd0d91965748d23ca5c8bbad6",
        "nonce": "0xec",
        "chainId": "0xa4b1"
      },
      "additionalContracts": [],
      "isFixedGasLimit": false
    },
    {
      "hash": "0x1d8c145aaa2c5baa31ef001591f93b8ed53cc65696831528b3637da73d29108c",
      "transactionType": "CALL",
      "contractName": null,
      "contractAddress": "0xf659101919e1de3dca2fd7aa47840189506055ff",
      "function": "transferOwnership(address)",
      "arguments": [
        "0x5Bbeb8eBa98dDB8fD0D91965748D23Ca5C8bbad6"
      ],
      "transaction": {
        "from": "0xb05a948b5c1b057b88d381bde3a375efea87ebad",
        "to": "0xf659101919e1de3dca2fd7aa47840189506055ff",
        "gas": "0x19896",
        "value": "0x0",
        "input": "0xf2fde38b0000000000000000000000005bbeb8eba98ddb8fd0d91965748d23ca5c8bbad6",
        "nonce": "0xed",
        "chainId": "0xa4b1"
      },
      "additionalContracts": [],
      "isFixedGasLimit": false
    }
  ],
  "receipts": [
    {
      "status": "0x1",
      "cumulativeGasUsed": "0x3724a2",
      "logs": [],
      "logsBloom": "0x00000000000000000000000000000000000000000000000000000000000000000000000000000000000000000000000000000000000000000000000000000000000000000000000000000000000000000000000000000000000000000000000000000000000000000000000000000000000000000000000000000000000000000000000000000000000000000000000000000000000000000000000000000000000000000000000000000000000000000000000000000000000000000000000000000000000000000000000000000000000000000000000000000000000000000000000000000000000000000000000000000000000000000000000000000000",
      "type": "0x2",
      "transactionHash": "0xccf3851c63021daef16579b0a8dc4a011474786bbb5dcc1e3d298bcfac191b7b",
      "transactionIndex": "0xb",
      "blockHash": "0xb2eb70fe3b1a8a048e0c93622c2484538f42ee0dde4c8474228a79c722896aa1",
      "blockNumber": "0x10875962",
      "gasUsed": "0x11f9e9",
      "effectiveGasPrice": "0x13f0fb0",
      "from": "0xb05a948b5c1b057b88d381bde3a375efea87ebad",
      "to": null,
      "contractAddress": "0xe9dc5ea1394bdf348fbdad32dbd83ee141ac9d42",
      "gasUsedForL1": "0x6a7b4",
      "l1BlockNumber": "0x14433e9"
    },
    {
      "status": "0x1",
      "cumulativeGasUsed": "0xadff3",
      "logs": [
        {
          "address": "0x5bbeb8eba98ddb8fd0d91965748d23ca5c8bbad6",
          "topics": [
            "0xbc7cd75a20ee27fd9adebab32041f755214dbc6bffa90cc0225b39da2e5c2d3b",
            "0x000000000000000000000000e9dc5ea1394bdf348fbdad32dbd83ee141ac9d42"
          ],
          "data": "0x",
          "blockHash": "0x4d6a77ab0a8f2295fa72eaabd61aa03b840ccf1dc91ff4ef732e7456a75d3d19",
          "blockNumber": "0x10875966",
          "transactionHash": "0x0f4dc3d86f40b3982c6c555af96da05435b479dd23196144f295a1b8a72a2939",
          "transactionIndex": "0x3",
          "logIndex": "0x5",
          "removed": false
        },
        {
          "address": "0x5bbeb8eba98ddb8fd0d91965748d23ca5c8bbad6",
          "topics": [
            "0x8be0079c531659141344cd1fd0a4f28419497f9722a3daafe3b4186f6b6457e0",
            "0x0000000000000000000000000000000000000000000000000000000000000000",
            "0x000000000000000000000000b05a948b5c1b057b88d381bde3a375efea87ebad"
          ],
          "data": "0x",
          "blockHash": "0x4d6a77ab0a8f2295fa72eaabd61aa03b840ccf1dc91ff4ef732e7456a75d3d19",
          "blockNumber": "0x10875966",
          "transactionHash": "0x0f4dc3d86f40b3982c6c555af96da05435b479dd23196144f295a1b8a72a2939",
          "transactionIndex": "0x3",
          "logIndex": "0x6",
          "removed": false
        },
        {
          "address": "0x5bbeb8eba98ddb8fd0d91965748d23ca5c8bbad6",
          "topics": [
            "0x7f26b83ff96e1f2b6a682f133852f6798a09c465da95921460cefb3847402498"
          ],
          "data": "0x0000000000000000000000000000000000000000000000000000000000000001",
          "blockHash": "0x4d6a77ab0a8f2295fa72eaabd61aa03b840ccf1dc91ff4ef732e7456a75d3d19",
          "blockNumber": "0x10875966",
          "transactionHash": "0x0f4dc3d86f40b3982c6c555af96da05435b479dd23196144f295a1b8a72a2939",
          "transactionIndex": "0x3",
          "logIndex": "0x7",
          "removed": false
        }
      ],
      "logsBloom": "0x000000000000000000000000000000004000000000000000008000000000000000000000000000000000000000000000000000000000000000000000000800000010000000000000000000000002020000010000000000000000000000000000000000000200000000000000000008000000000000000000000000000000004000020000000000000000000000000000000000000000800000000400000000000000200000020000000000000004000000000000000000000000000000000000000000200000000000000000000400000000000000000000000000000000a0400000000000000000000000000000000000000000000000000000000000000000",
      "type": "0x2",
      "transactionHash": "0x0f4dc3d86f40b3982c6c555af96da05435b479dd23196144f295a1b8a72a2939",
      "transactionIndex": "0x3",
      "blockHash": "0x4d6a77ab0a8f2295fa72eaabd61aa03b840ccf1dc91ff4ef732e7456a75d3d19",
      "blockNumber": "0x10875966",
      "gasUsed": "0x60772",
      "effectiveGasPrice": "0x13e7758",
      "from": "0xb05a948b5c1b057b88d381bde3a375efea87ebad",
      "to": null,
      "contractAddress": "0x5bbeb8eba98ddb8fd0d91965748d23ca5c8bbad6",
      "gasUsedForL1": "0x326d6",
      "l1BlockNumber": "0x14433e9"
    },
    {
      "status": "0x1",
      "cumulativeGasUsed": "0x22c2c4",
      "logs": [],
      "logsBloom": "0x00000000000000000000000000000000000000000000000000000000000000000000000000000000000000000000000000000000000000000000000000000000000000000000000000000000000000000000000000000000000000000000000000000000000000000000000000000000000000000000000000000000000000000000000000000000000000000000000000000000000000000000000000000000000000000000000000000000000000000000000000000000000000000000000000000000000000000000000000000000000000000000000000000000000000000000000000000000000000000000000000000000000000000000000000000000",
      "type": "0x2",
      "transactionHash": "0xee492fd1b7bc4e8f5d6cacc7aef0d58ff46f89e6b87c33d0e4364b872f633bde",
      "transactionIndex": "0x4",
      "blockHash": "0x2e78eabe2413f438037d61afec61756f1ee5078398e35b0dc3e7bf87c90a579c",
      "blockNumber": "0x1087596a",
      "gasUsed": "0x120687",
      "effectiveGasPrice": "0x13c92f8",
      "from": "0xb05a948b5c1b057b88d381bde3a375efea87ebad",
      "to": null,
      "contractAddress": "0x1e73e534fdea657562271f108b8bb98390862f35",
      "gasUsedForL1": "0x6b452",
      "l1BlockNumber": "0x14433e9"
    },
    {
      "status": "0x1",
      "cumulativeGasUsed": "0x10ab2",
      "logs": [
        {
          "address": "0x5bbeb8eba98ddb8fd0d91965748d23ca5c8bbad6",
          "topics": [
            "0xbc7cd75a20ee27fd9adebab32041f755214dbc6bffa90cc0225b39da2e5c2d3b",
            "0x0000000000000000000000001e73e534fdea657562271f108b8bb98390862f35"
          ],
          "data": "0x",
          "blockHash": "0x2347d2e69cdbfaa936b87f2548e5b049ccef77b253d4f095f1e1d095e54a03d5",
          "blockNumber": "0x1087596e",
          "transactionHash": "0x1a9b25ddcc661bf6f8e851822c08cb15e610912a8ec1a824da7aa1e0ba1b51e3",
          "transactionIndex": "0x1",
          "logIndex": "0x0",
          "removed": false
        }
      ],
      "logsBloom": "0x00000000000000000000000000000000400000000000000000000000000000000000000000000000080000000000000000000000000000000000000000000000001000000000000000000000000202000000000000000000000000000000000000000000000000000000000000000000000000000000000000000000000000000000000000000000000000000000000000000000000000000000000000000000000020000000000000000000000000000000000200000000000000000000000000000020000000000000000000000000000000000000000000000000000000000000000000000000000000000000000000000000000000000000010000000000",
      "type": "0x2",
      "transactionHash": "0x1a9b25ddcc661bf6f8e851822c08cb15e610912a8ec1a824da7aa1e0ba1b51e3",
      "transactionIndex": "0x1",
      "blockHash": "0x2347d2e69cdbfaa936b87f2548e5b049ccef77b253d4f095f1e1d095e54a03d5",
      "blockNumber": "0x1087596e",
      "gasUsed": "0x10ab2",
      "effectiveGasPrice": "0x13c3920",
      "from": "0xb05a948b5c1b057b88d381bde3a375efea87ebad",
      "to": "0x5bbeb8eba98ddb8fd0d91965748d23ca5c8bbad6",
      "contractAddress": null,
      "gasUsedForL1": "0x72a6",
      "l1BlockNumber": "0x14433e9"
    },
    {
      "status": "0x1",
      "cumulativeGasUsed": "0x6f007",
      "logs": [
        {
          "address": "0xd58ff588177f02cc535a0e235a4c002a17e27202",
          "topics": [
            "0x8be0079c531659141344cd1fd0a4f28419497f9722a3daafe3b4186f6b6457e0",
            "0x000000000000000000000000b05a948b5c1b057b88d381bde3a375efea87ebad",
            "0x0000000000000000000000005bbeb8eba98ddb8fd0d91965748d23ca5c8bbad6"
          ],
          "data": "0x",
          "blockHash": "0x1c14d47bb1951d0241265ae3ab3cdd19ca6b0863faa97dbcaa596aca1ec4b70f",
          "blockNumber": "0x10875972",
          "transactionHash": "0x9de6c05e431e652b9c7fbf6f94137419528ff3637f05e57566dde03756aa8e37",
          "transactionIndex": "0x3",
          "logIndex": "0x2",
          "removed": false
        }
      ],
      "logsBloom": "0x00000000000000000000000000000000000000000000000000800000000000000000000000000000000000000000000000000000000000000000000000000000000000000000000000000000000000000001000000000000000080000000000000000000000000000000000000000010000000000000000400000000000000400002000000000000000000000000000000000000000000000000040000000000000000000000000000000000000000000000000000000000000000000000000000000000000002001000000000000000000000000000000000000000000080000000000000000000000000000000000000000000000000080000000000000000",
      "type": "0x2",
      "transactionHash": "0x9de6c05e431e652b9c7fbf6f94137419528ff3637f05e57566dde03756aa8e37",
      "transactionIndex": "0x3",
      "blockHash": "0x1c14d47bb1951d0241265ae3ab3cdd19ca6b0863faa97dbcaa596aca1ec4b70f",
      "blockNumber": "0x10875972",
      "gasUsed": "0xf6dd",
      "effectiveGasPrice": "0x139ef30",
      "from": "0xb05a948b5c1b057b88d381bde3a375efea87ebad",
      "to": "0xd58ff588177f02cc535a0e235a4c002a17e27202",
      "contractAddress": null,
      "gasUsedForL1": "0x737c",
      "l1BlockNumber": "0x14433e9"
    },
    {
      "status": "0x1",
      "cumulativeGasUsed": "0x1ff5d2",
      "logs": [
        {
          "address": "0xa2d5900d53a548637dd61312d02b90f3ff1d6a5e",
          "topics": [
            "0x8be0079c531659141344cd1fd0a4f28419497f9722a3daafe3b4186f6b6457e0",
            "0x000000000000000000000000b05a948b5c1b057b88d381bde3a375efea87ebad",
            "0x0000000000000000000000005bbeb8eba98ddb8fd0d91965748d23ca5c8bbad6"
          ],
          "data": "0x",
          "blockHash": "0xabc70291d80c9ae6063c0a1bfe4a90778bc67f7ba76670c3cac04b91e7fe146b",
          "blockNumber": "0x10875975",
          "transactionHash": "0x5d8f6f4a0acb1a387a5f07a4d18c2b960810e91f711b4e0689623614369b6dbb",
          "transactionIndex": "0xc",
          "logIndex": "0x15",
          "removed": false
        }
      ],
      "logsBloom": "0x00000000000000000000000000000000000080000000000000800000000000000000000000000000000000000000400000000000000000000000000000000000000000000000000000000000000000000001000000000000000000000000000000000000000000000000000000000010000000000000000000000000000000400002000000000000000000000000000000000000000000000000040000000000000000000000000000000000000000000000000000000000000000000000000000000000000002000000000000000000000000000000000000100000000080000000000000000000000000000000000000000000000000080000000000000000",
      "type": "0x2",
      "transactionHash": "0x5d8f6f4a0acb1a387a5f07a4d18c2b960810e91f711b4e0689623614369b6dbb",
      "transactionIndex": "0xc",
      "blockHash": "0xabc70291d80c9ae6063c0a1bfe4a90778bc67f7ba76670c3cac04b91e7fe146b",
      "blockNumber": "0x10875975",
      "gasUsed": "0xf690",
      "effectiveGasPrice": "0x13b79b8",
      "from": "0xb05a948b5c1b057b88d381bde3a375efea87ebad",
      "to": "0xa2d5900d53a548637dd61312d02b90f3ff1d6a5e",
      "contractAddress": null,
      "gasUsedForL1": "0x72ec",
      "l1BlockNumber": "0x14433e9"
    },
    {
      "status": "0x1",
      "cumulativeGasUsed": "0x127518",
      "logs": [
        {
          "address": "0xc1c2e092b7dbc8413e1ac02e92c161b0bda783f6",
          "topics": [
            "0x8be0079c531659141344cd1fd0a4f28419497f9722a3daafe3b4186f6b6457e0",
            "0x000000000000000000000000ff3b7296ab8a14b403591e2ba43836614184c88b",
            "0x0000000000000000000000005bbeb8eba98ddb8fd0d91965748d23ca5c8bbad6"
          ],
          "data": "0x",
          "blockHash": "0xfeafe58bad0a8c867139e13feaf1c4f08b7dec8caafbfb65a7afdd0928321a45",
          "blockNumber": "0x10875995",
          "transactionHash": "0x4378bbc63f9032a5855393b22c1e253de4c3a3fafd274eaeaa28e67b39e6ac66",
          "transactionIndex": "0x4",
          "logIndex": "0x1d",
          "removed": false
        }
      ],
      "logsBloom": "0x00000000000000000000000000000000000001000000000000800000000000000000000000000000000000000000000000000000000000000000000000000000000000000000000000000000000000000001000000000000000000000000000000000000000000000000000000000810000000000000000000000000000000400000000000000200000000000000000000000000000000000000000000000000000000000000000000000000000000000000000000100000000000000000000000000000000002000000000000000000000000000000000000000000000000000000000000000000000002000000000000000000000000080000000000000000",
      "type": "0x2",
      "transactionHash": "0x4378bbc63f9032a5855393b22c1e253de4c3a3fafd274eaeaa28e67b39e6ac66",
      "transactionIndex": "0x4",
      "blockHash": "0xfeafe58bad0a8c867139e13feaf1c4f08b7dec8caafbfb65a7afdd0928321a45",
      "blockNumber": "0x10875995",
      "gasUsed": "0x12228",
      "effectiveGasPrice": "0x1336368",
      "from": "0xb05a948b5c1b057b88d381bde3a375efea87ebad",
      "to": "0xc1c2e092b7dbc8413e1ac02e92c161b0bda783f6",
      "contractAddress": null,
      "gasUsedForL1": "0x75f2",
      "l1BlockNumber": "0x14433eb"
    },
    {
      "status": "0x1",
      "cumulativeGasUsed": "0x1fe9dd",
      "logs": [
        {
          "address": "0x01a2c3c4e7c38885bf3d01e38847184ff2368fea",
          "topics": [
            "0x8be0079c531659141344cd1fd0a4f28419497f9722a3daafe3b4186f6b6457e0",
            "0x000000000000000000000000b05a948b5c1b057b88d381bde3a375efea87ebad",
            "0x0000000000000000000000005bbeb8eba98ddb8fd0d91965748d23ca5c8bbad6"
          ],
          "data": "0x",
          "blockHash": "0x68931ca4b901dce8e4809a53420cbd0f3f8746f95acad517975886f1d12d1701",
          "blockNumber": "0x10875999",
          "transactionHash": "0xaac0b1ddd804d35fd0c95ae8c8ea27eddc6c3560011aa65b00239e02304dafe8",
          "transactionIndex": "0x3",
          "logIndex": "0xf",
          "removed": false
        }
      ],
      "logsBloom": "0x00000000000000000000000000000000000000000000000000800000000000000000000000000000000000000000000000000000000000000000000000000000000000000000000000000000000000000001000000000000000000000000000000000000000000000000000000000010000000000000000000000000000000400002000000000000000000000000000001000000000800000000040000000000000000000000000000000000000000000000000000000000000000000000000000000000000002000000000000000000000000000000000000000000000080000000000000000000000000000000000000008000000000080000000000000000",
      "type": "0x2",
      "transactionHash": "0xaac0b1ddd804d35fd0c95ae8c8ea27eddc6c3560011aa65b00239e02304dafe8",
      "transactionIndex": "0x3",
      "blockHash": "0x68931ca4b901dce8e4809a53420cbd0f3f8746f95acad517975886f1d12d1701",
      "blockNumber": "0x10875999",
      "gasUsed": "0xfcd8",
      "effectiveGasPrice": "0x1372c28",
      "from": "0xb05a948b5c1b057b88d381bde3a375efea87ebad",
      "to": "0x01a2c3c4e7c38885bf3d01e38847184ff2368fea",
      "contractAddress": null,
      "gasUsedForL1": "0x7483",
      "l1BlockNumber": "0x14433eb"
    },
    {
      "status": "0x1",
      "cumulativeGasUsed": "0xfd6b",
      "logs": [
        {
          "address": "0x0f143af46eef341b3f0dbf98c3ecb47f57067fef",
          "topics": [
            "0x8be0079c531659141344cd1fd0a4f28419497f9722a3daafe3b4186f6b6457e0",
            "0x000000000000000000000000b05a948b5c1b057b88d381bde3a375efea87ebad",
            "0x0000000000000000000000005bbeb8eba98ddb8fd0d91965748d23ca5c8bbad6"
          ],
          "data": "0x",
          "blockHash": "0x6a400aba83a9bf889ade76f570eb30e8a6007001a723761eacf70b2b1b661d10",
          "blockNumber": "0x1087599d",
          "transactionHash": "0xc129798b56686de00be90141385755c28996a9f6cd70b78d49f150c509206d6e",
          "transactionIndex": "0x1",
          "logIndex": "0x0",
          "removed": false
        }
      ],
      "logsBloom": "0x00000000000000000000000000004000000000000000000000800000000000000000000000000000000000000000000000000000000000000000000000000000000000000000000000000000000000000001000000000000000000000000000000000000000000000000000000000010000000000000000000000000000000400002000000000000000000000000000000000000000000000000040000800000000000000000000000000000000000000000000000000000000000000000000000000000000002000000000000000000000000000000000000000000000080000000000000000000000000000000000000000000020000080000000000000000",
      "type": "0x2",
      "transactionHash": "0xc129798b56686de00be90141385755c28996a9f6cd70b78d49f150c509206d6e",
      "transactionIndex": "0x1",
      "blockHash": "0x6a400aba83a9bf889ade76f570eb30e8a6007001a723761eacf70b2b1b661d10",
      "blockNumber": "0x1087599d",
      "gasUsed": "0xfd6b",
      "effectiveGasPrice": "0x135a588",
      "from": "0xb05a948b5c1b057b88d381bde3a375efea87ebad",
      "to": "0x0f143af46eef341b3f0dbf98c3ecb47f57067fef",
      "contractAddress": null,
      "gasUsedForL1": "0x7516",
      "l1BlockNumber": "0x14433eb"
    },
    {
      "status": "0x1",
      "cumulativeGasUsed": "0x8e40a",
      "logs": [
        {
          "address": "0x110f4a8153c04eace288e712eb4b975b46376b8c",
          "topics": [
            "0x8be0079c531659141344cd1fd0a4f28419497f9722a3daafe3b4186f6b6457e0",
            "0x000000000000000000000000b05a948b5c1b057b88d381bde3a375efea87ebad",
            "0x0000000000000000000000005bbeb8eba98ddb8fd0d91965748d23ca5c8bbad6"
          ],
          "data": "0x",
          "blockHash": "0xd2980b79204a069cac859586707331c802bc35f25f80b664b8c589a295e9d9f5",
          "blockNumber": "0x108759a1",
          "transactionHash": "0x88581c9f380904d209951c2b80f2bcf84860caad9f37a2129199ae56e0cfebc2",
          "transactionIndex": "0x4",
          "logIndex": "0x9",
          "removed": false
        }
      ],
      "logsBloom": "0x80000000000000000000000000000000000000000000000000800000000000000000000000000000000000000000000000000010000000000000000000000000000000000000000000000000000000000001000000000000000100000000000000000000000000000000000000000010000000000000000000000000000000400002000000000000000000000000000000000000000000000000040000000000000000000000000000000000000000000000000000000000000000000000000000000000000002000000000000000000000000000000000000000000000080000000000000000000000000000000000000000000000000080000000000000000",
      "type": "0x2",
      "transactionHash": "0x88581c9f380904d209951c2b80f2bcf84860caad9f37a2129199ae56e0cfebc2",
      "transactionIndex": "0x4",
      "blockHash": "0xd2980b79204a069cac859586707331c802bc35f25f80b664b8c589a295e9d9f5",
      "blockNumber": "0x108759a1",
      "gasUsed": "0xfc62",
      "effectiveGasPrice": "0x1386890",
      "from": "0xb05a948b5c1b057b88d381bde3a375efea87ebad",
      "to": "0x110f4a8153c04eace288e712eb4b975b46376b8c",
      "contractAddress": null,
      "gasUsedForL1": "0x740d",
      "l1BlockNumber": "0x14433eb"
    },
    {
      "status": "0x1",
      "cumulativeGasUsed": "0x356628",
      "logs": [
        {
          "address": "0x400b3316447a4362abe36206c145550080046831",
          "topics": [
            "0x8be0079c531659141344cd1fd0a4f28419497f9722a3daafe3b4186f6b6457e0",
            "0x000000000000000000000000b05a948b5c1b057b88d381bde3a375efea87ebad",
            "0x0000000000000000000000005bbeb8eba98ddb8fd0d91965748d23ca5c8bbad6"
          ],
          "data": "0x",
          "blockHash": "0xb3f0b3d8832a86d58ef158c41a61dfaff399ae4e768aff2cfbc123829ed18bf5",
          "blockNumber": "0x108759a5",
          "transactionHash": "0x88eceda84a286fc5d920e219f581766346a333ec87c5594942d5d85101f4c900",
          "transactionIndex": "0x15",
          "logIndex": "0x3c",
          "removed": false
        }
      ],
      "logsBloom": "0x00000040000000000000000000000000000000000000000000800000000000000000000000000000000000000000080000000000000000000000000000000000000000000000000000000000000000000001000000000000000000000000000000000000000000000000000000000010000400000000000000000000000000400002000000000000000000000000000000000000000000000000040000000000000000000000000000000000000000000000000000000000000000000000000000000000000002000000000000000000000000000000000000000000000080000000000000000000000000000000000000000000000000080000000000000000",
      "type": "0x2",
      "transactionHash": "0x88eceda84a286fc5d920e219f581766346a333ec87c5594942d5d85101f4c900",
      "transactionIndex": "0x15",
      "blockHash": "0xb3f0b3d8832a86d58ef158c41a61dfaff399ae4e768aff2cfbc123829ed18bf5",
      "blockNumber": "0x108759a5",
      "gasUsed": "0xfc4f",
      "effectiveGasPrice": "0x1389b58",
      "from": "0xb05a948b5c1b057b88d381bde3a375efea87ebad",
      "to": "0x400b3316447a4362abe36206c145550080046831",
      "contractAddress": null,
      "gasUsedForL1": "0x73fa",
      "l1BlockNumber": "0x14433eb"
    },
    {
      "status": "0x1",
      "cumulativeGasUsed": "0x121243",
      "logs": [
        {
          "address": "0x5a48adf540cb5c79edb027bef3ebf551ce63661f",
          "topics": [
            "0x8be0079c531659141344cd1fd0a4f28419497f9722a3daafe3b4186f6b6457e0",
            "0x000000000000000000000000b05a948b5c1b057b88d381bde3a375efea87ebad",
            "0x0000000000000000000000005bbeb8eba98ddb8fd0d91965748d23ca5c8bbad6"
          ],
          "data": "0x",
          "blockHash": "0xb315d40092208ab0632f0c5013a2149691a953edcf46452ca7b9a51ac9c114e9",
          "blockNumber": "0x108759a8",
          "transactionHash": "0x4d11bf6b50472fcdf84eb63a50d6dc1ffa693323de8942db0c4844dcd6a124fa",
          "transactionIndex": "0x4",
          "logIndex": "0x11",
          "removed": false
        }
      ],
      "logsBloom": "0x00400000000000000000000002000000000000000000000000800000000000000000000000000000000000000000000000000000000000000000000000000000000000000000000000000010000000000001000000000000000000000000000000000000000000000000000000000010000000000000000000000000000000400002000000000000000000000000000000000000000000000000040000000000000000000000000000000000000000000000000000000000000000000000000000000000000002000000000000000000000000000000000000000000000080000000000000000000000000000000000000000000000000080000000000000000",
      "type": "0x2",
      "transactionHash": "0x4d11bf6b50472fcdf84eb63a50d6dc1ffa693323de8942db0c4844dcd6a124fa",
      "transactionIndex": "0x4",
      "blockHash": "0xb315d40092208ab0632f0c5013a2149691a953edcf46452ca7b9a51ac9c114e9",
      "blockNumber": "0x108759a8",
      "gasUsed": "0xfc70",
      "effectiveGasPrice": "0x1384180",
      "from": "0xb05a948b5c1b057b88d381bde3a375efea87ebad",
      "to": "0x5a48adf540cb5c79edb027bef3ebf551ce63661f",
      "contractAddress": null,
      "gasUsedForL1": "0x741b",
      "l1BlockNumber": "0x14433eb"
    },
    {
      "status": "0x1",
      "cumulativeGasUsed": "0x279b2",
      "logs": [
        {
          "address": "0x625cb91ad17cf9b4a2b6b20b2b494ddf123c290c",
          "topics": [
            "0x8be0079c531659141344cd1fd0a4f28419497f9722a3daafe3b4186f6b6457e0",
            "0x000000000000000000000000b05a948b5c1b057b88d381bde3a375efea87ebad",
            "0x0000000000000000000000005bbeb8eba98ddb8fd0d91965748d23ca5c8bbad6"
          ],
          "data": "0x",
          "blockHash": "0xfeff9437f8f8f895143aa08bd24ab296239ba9ea9238673b76d515502d31067a",
          "blockNumber": "0x108759ab",
          "transactionHash": "0x8779ff6c8fa7033d1f85727945580a497e41f2e3d13b6285b7885c276af0e693",
          "transactionIndex": "0x2",
          "logIndex": "0x1",
          "removed": false
        }
      ],
      "logsBloom": "0x00000000000000000000000000000004000000000000000000800000000000000000000000000000000000000000000000000000000000000000000000000000000000000000000000000000000000000001000000000000000000000000000000000000000000000000000000000010000000000000000000000000000000400002000000000000000000000000000000000000000000000000040000000000000000000000000000000000000000000000000000010000000000000000000000000000000002040000000000000000000000000000000000000000000080000000000000000000000000000000000000000000000000080000000000000000",
      "type": "0x2",
      "transactionHash": "0x8779ff6c8fa7033d1f85727945580a497e41f2e3d13b6285b7885c276af0e693",
      "transactionIndex": "0x2",
      "blockHash": "0xfeff9437f8f8f895143aa08bd24ab296239ba9ea9238673b76d515502d31067a",
      "blockNumber": "0x108759ab",
      "gasUsed": "0xfd3d",
      "effectiveGasPrice": "0x1361ea0",
      "from": "0xb05a948b5c1b057b88d381bde3a375efea87ebad",
      "to": "0x625cb91ad17cf9b4a2b6b20b2b494ddf123c290c",
      "contractAddress": null,
      "gasUsedForL1": "0x74e8",
      "l1BlockNumber": "0x14433eb"
    },
    {
      "status": "0x1",
      "cumulativeGasUsed": "0x522d2",
      "logs": [
        {
          "address": "0x6dd6b0a9a9b94aa169e5ce31cff34a46c7bea9cd",
          "topics": [
            "0x8be0079c531659141344cd1fd0a4f28419497f9722a3daafe3b4186f6b6457e0",
            "0x000000000000000000000000b05a948b5c1b057b88d381bde3a375efea87ebad",
            "0x0000000000000000000000005bbeb8eba98ddb8fd0d91965748d23ca5c8bbad6"
          ],
          "data": "0x",
          "blockHash": "0x176ab9de41562faed0a315563e6532d832812aaff8aebd3e55fb765b73664356",
          "blockNumber": "0x108759af",
          "transactionHash": "0x95b1d81417bae94635288c912e88c8445fb6e0c0e18b58164f4bc4bcfab95f02",
          "transactionIndex": "0x2",
          "logIndex": "0x0",
          "removed": false
        }
      ],
      "logsBloom": "0x00000000000000000000000000000000000000000000000000800000000000000000000000000000000000000000000000000000000000000000000000000000000000000000000000000000000000000001000000000000000000000000000000000000000000000000000000000010000000000000000000000000000000400002000000000000000000000000000000000000000000200000040000000000000000000000000000000000000000000000000000000000000000000000000000000000000002000000010000000000000000000000000000000000000080000000000000000000000000000000000001000000000000080000000000000000",
      "type": "0x2",
      "transactionHash": "0x95b1d81417bae94635288c912e88c8445fb6e0c0e18b58164f4bc4bcfab95f02",
      "transactionIndex": "0x2",
      "blockHash": "0x176ab9de41562faed0a315563e6532d832812aaff8aebd3e55fb765b73664356",
      "blockNumber": "0x108759af",
      "gasUsed": "0xfdcc",
      "effectiveGasPrice": "0x134a3b8",
      "from": "0xb05a948b5c1b057b88d381bde3a375efea87ebad",
      "to": "0x6dd6b0a9a9b94aa169e5ce31cff34a46c7bea9cd",
      "contractAddress": null,
      "gasUsedForL1": "0x7577",
      "l1BlockNumber": "0x14433eb"
    },
    {
      "status": "0x1",
      "cumulativeGasUsed": "0xfe68",
      "logs": [
        {
          "address": "0x7508c3bcc2ce964ef858762cfbfa8bbbcf406ec9",
          "topics": [
            "0x8be0079c531659141344cd1fd0a4f28419497f9722a3daafe3b4186f6b6457e0",
            "0x000000000000000000000000b05a948b5c1b057b88d381bde3a375efea87ebad",
            "0x0000000000000000000000005bbeb8eba98ddb8fd0d91965748d23ca5c8bbad6"
          ],
          "data": "0x",
          "blockHash": "0x133a34f4d07791fceaa785887a1fc4a287df7d23ef3091191852708b17e0762b",
          "blockNumber": "0x108759b3",
          "transactionHash": "0xe530f7c13928e45d7e8a95b303be7ee174e3c25091949532e19faae727aadfe4",
          "transactionIndex": "0x1",
          "logIndex": "0x0",
          "removed": false
        }
      ],
      "logsBloom": "0x00000000000000000000000000000000000000000000000100800000000000000000000000000000000000000000000000000000000000000000000000000000000000000000000000000000000000000001000000000000000000000000000000000000000000000000000000000010000000000000000000000010000000400002000000000000000000000000000000000000000000000000040000000000000000000000000000000000000000000000000000000000000000000000000000010000000002000000000000000000000000000000000000000000000080000000000000000000000000000000000000000000000000080000000000000000",
      "type": "0x2",
      "transactionHash": "0xe530f7c13928e45d7e8a95b303be7ee174e3c25091949532e19faae727aadfe4",
      "transactionIndex": "0x1",
      "blockHash": "0x133a34f4d07791fceaa785887a1fc4a287df7d23ef3091191852708b17e0762b",
      "blockNumber": "0x108759b3",
      "gasUsed": "0xfe68",
      "effectiveGasPrice": "0x1330d78",
      "from": "0xb05a948b5c1b057b88d381bde3a375efea87ebad",
      "to": "0x7508c3bcc2ce964ef858762cfbfa8bbbcf406ec9",
      "contractAddress": null,
      "gasUsedForL1": "0x7613",
      "l1BlockNumber": "0x14433eb"
    },
    {
      "status": "0x1",
      "cumulativeGasUsed": "0xa4201",
      "logs": [
        {
          "address": "0x8281fd9c5f709a681813c49843a253a05d9b837c",
          "topics": [
            "0x8be0079c531659141344cd1fd0a4f28419497f9722a3daafe3b4186f6b6457e0",
            "0x000000000000000000000000b05a948b5c1b057b88d381bde3a375efea87ebad",
            "0x0000000000000000000000005bbeb8eba98ddb8fd0d91965748d23ca5c8bbad6"
          ],
          "data": "0x",
          "blockHash": "0xb19f99355e28ce5d27662f6be0b98eb3a162c4c6cfde05c171fce4a0ff0120e5",
          "blockNumber": "0x108759b6",
          "transactionHash": "0x457bf24020fa8f2e0ebc3ffa9dc0e1c678a41c4b900f8f9014378871d83ec5d7",
          "transactionIndex": "0x4",
          "logIndex": "0x5",
          "removed": false
        }
      ],
      "logsBloom": "0x00000000000000000000000000000000000000000000000000800000000000000000000000000000000000000000000000000000000000000000000000400000000000000000000000000000000000000001000000000000000000000000000000000000000000000000000000000010000000000000000000000000000000400002000000000000000000000000000000000000000000000000040000000000000000000000000000000000000000000000000000000000000000000000000000000000000002000000000000000000000400000000000000000000000080000000000000000000200000000000000000000000000000080000000000000000",
      "type": "0x2",
      "transactionHash": "0x457bf24020fa8f2e0ebc3ffa9dc0e1c678a41c4b900f8f9014378871d83ec5d7",
      "transactionIndex": "0x4",
      "blockHash": "0xb19f99355e28ce5d27662f6be0b98eb3a162c4c6cfde05c171fce4a0ff0120e5",
      "blockNumber": "0x108759b6",
      "gasUsed": "0xfe57",
      "effectiveGasPrice": "0x1333870",
      "from": "0xb05a948b5c1b057b88d381bde3a375efea87ebad",
      "to": "0x8281fd9c5f709a681813c49843a253a05d9b837c",
      "contractAddress": null,
      "gasUsedForL1": "0x7602",
      "l1BlockNumber": "0x14433eb"
    },
    {
      "status": "0x1",
      "cumulativeGasUsed": "0xfeb9",
      "logs": [
        {
          "address": "0x8c3e27f075bb82e8730660828a1159c9438f3e58",
          "topics": [
            "0x8be0079c531659141344cd1fd0a4f28419497f9722a3daafe3b4186f6b6457e0",
            "0x000000000000000000000000b05a948b5c1b057b88d381bde3a375efea87ebad",
            "0x0000000000000000000000005bbeb8eba98ddb8fd0d91965748d23ca5c8bbad6"
          ],
          "data": "0x",
          "blockHash": "0x7d11148b9e814f7e60a3bcc9a64d8b098cee7ba93e1d3976794779ff8bea70c0",
          "blockNumber": "0x108759ba",
          "transactionHash": "0x4189e12051e4ec4ff074ec44397eb7048bbea27a91ce9babd63b24b6566e7fe9",
          "transactionIndex": "0x1",
          "logIndex": "0x0",
          "removed": false
        }
      ],
      "logsBloom": "0x00000000000000000000000000000000000000000000000000800000000000000000000000000000000000000000000000000000000000000000000000000004000000000000000000000000000000000001000000000000000000000000000000000000000000000000000000000010000000000000000000000000000000400002000000000000000000000000000000000000000000000000040000000000000000000000000000000000000000000000000000000000000000000000000000000000000002000000000000100000000000000000000000000000000080000000000000000000000000000000000000000000000000080000001000000000",
      "type": "0x2",
      "transactionHash": "0x4189e12051e4ec4ff074ec44397eb7048bbea27a91ce9babd63b24b6566e7fe9",
      "transactionIndex": "0x1",
      "blockHash": "0x7d11148b9e814f7e60a3bcc9a64d8b098cee7ba93e1d3976794779ff8bea70c0",
      "blockNumber": "0x108759ba",
      "gasUsed": "0xfeb9",
      "effectiveGasPrice": "0x1323a88",
      "from": "0xb05a948b5c1b057b88d381bde3a375efea87ebad",
      "to": "0x8c3e27f075bb82e8730660828a1159c9438f3e58",
      "contractAddress": null,
      "gasUsedForL1": "0x7664",
      "l1BlockNumber": "0x14433eb"
    },
    {
      "status": "0x1",
      "cumulativeGasUsed": "0xff8c",
      "logs": [
        {
          "address": "0xa50d2ce829ea7b731c3b0a244032b639ff94cb92",
          "topics": [
            "0x8be0079c531659141344cd1fd0a4f28419497f9722a3daafe3b4186f6b6457e0",
            "0x000000000000000000000000b05a948b5c1b057b88d381bde3a375efea87ebad",
            "0x0000000000000000000000005bbeb8eba98ddb8fd0d91965748d23ca5c8bbad6"
          ],
          "data": "0x",
          "blockHash": "0xae4f4d5225041b93c6e5125847e66ed0b94f6c7482ce05aeb2c6112f76198600",
          "blockNumber": "0x108759be",
          "transactionHash": "0xe313e9126df494406e5bf592ffb2a35434b5b07d08bda95a9ea672a7c9e1da45",
          "transactionIndex": "0x1",
          "logIndex": "0x0",
          "removed": false
        }
      ],
      "logsBloom": "0x00000000000000000000000000000000000800000000000000800000000000000000000000000000000000000000000000000000000000000000000000000000000000000000000000000000000000000001000000000000400000000000000000000000000000000000000000000010000000000000000000000000000000400002000000000000000000000000000000000000000000000000040000000000000000000000000000000000000000000000000000000000000000000000000000000000000002000000000000000000000000000000000000000000000080000000000000000000000000000000000000000001000000080000000000000000",
      "type": "0x2",
      "transactionHash": "0xe313e9126df494406e5bf592ffb2a35434b5b07d08bda95a9ea672a7c9e1da45",
      "transactionIndex": "0x1",
      "blockHash": "0xae4f4d5225041b93c6e5125847e66ed0b94f6c7482ce05aeb2c6112f76198600",
      "blockNumber": "0x108759be",
      "gasUsed": "0xff8c",
      "effectiveGasPrice": "0x1301b90",
      "from": "0xb05a948b5c1b057b88d381bde3a375efea87ebad",
      "to": "0xa50d2ce829ea7b731c3b0a244032b639ff94cb92",
      "contractAddress": null,
      "gasUsedForL1": "0x7737",
      "l1BlockNumber": "0x14433eb"
    },
    {
      "status": "0x1",
      "cumulativeGasUsed": "0x5d7d17",
      "logs": [
        {
          "address": "0xbb8b8ddc3775d825b6cf33bfa9ddcd771b88c6ee",
          "topics": [
            "0x8be0079c531659141344cd1fd0a4f28419497f9722a3daafe3b4186f6b6457e0",
            "0x000000000000000000000000b05a948b5c1b057b88d381bde3a375efea87ebad",
            "0x0000000000000000000000005bbeb8eba98ddb8fd0d91965748d23ca5c8bbad6"
          ],
          "data": "0x",
          "blockHash": "0xb7aa1b4cc09a0e11f6d8260ab3308b79d62a615bf003692ae76124db5fceb047",
          "blockNumber": "0x108759c1",
          "transactionHash": "0x94ca509add4e526efa47e97fc8c4982e147d8470735ada7faa5f0abdf30c8bd9",
          "transactionIndex": "0x1d",
          "logIndex": "0x69",
          "removed": false
        }
      ],
      "logsBloom": "0x00000000100000000000000000000000000000000000000000800000000000000000000000000000000000000000000000000000000000000000000000000000000000000000000000000000000000000001000000000000000000000000000000000000000000000000000000000010000000000000000000000000000000400002000000000000000000000000000000000000000000000000040000000000000000000000000000000000000000000000000000000000000000000000000000020000000002000000000000000000000000000000000000000000000080000000000000000000000000000000000000000000800000080000000000000000",
      "type": "0x2",
      "transactionHash": "0x94ca509add4e526efa47e97fc8c4982e147d8470735ada7faa5f0abdf30c8bd9",
      "transactionIndex": "0x1d",
      "blockHash": "0xb7aa1b4cc09a0e11f6d8260ab3308b79d62a615bf003692ae76124db5fceb047",
      "blockNumber": "0x108759c1",
      "gasUsed": "0x10059",
      "effectiveGasPrice": "0x12e1408",
      "from": "0xb05a948b5c1b057b88d381bde3a375efea87ebad",
      "to": "0xbb8b8ddc3775d825b6cf33bfa9ddcd771b88c6ee",
      "contractAddress": null,
      "gasUsedForL1": "0x7804",
      "l1BlockNumber": "0x14433eb"
    },
    {
      "status": "0x1",
      "cumulativeGasUsed": "0xfd8a",
      "logs": [
        {
          "address": "0xc3ba42da1d9f6b09d4d1315ac04f873a5ba64d3c",
          "topics": [
            "0x8be0079c531659141344cd1fd0a4f28419497f9722a3daafe3b4186f6b6457e0",
            "0x000000000000000000000000b05a948b5c1b057b88d381bde3a375efea87ebad",
            "0x0000000000000000000000005bbeb8eba98ddb8fd0d91965748d23ca5c8bbad6"
          ],
          "data": "0x",
          "blockHash": "0xe815260d097ad0064890d221ad0c71695431329474a7c827da166c9b7a938ac4",
          "blockNumber": "0x108759c5",
          "transactionHash": "0xba70bef388a7d70e2b4d568ab08c125e51075327c73d9f34d55947450a0ab1b7",
          "transactionIndex": "0x1",
          "logIndex": "0x0",
          "removed": false
        }
      ],
      "logsBloom": "0x00000000001000000000000000000000000000000000000000800000000000000000000000000000000000000000000000000000000000000000000000000000000000000200000000000000000000000001000000000000000000000000000000000000000000000000000000000010000000000000000000000000000000400002000000000000000000000000000000000000000000000000040000000000000000000000000000000000000000000000000000080000000000000000000000000000000002000000000000000000000000000000000000000000000080000000000000000000000000000000000000000000000000080000000000000000",
      "type": "0x2",
      "transactionHash": "0xba70bef388a7d70e2b4d568ab08c125e51075327c73d9f34d55947450a0ab1b7",
      "transactionIndex": "0x1",
      "blockHash": "0xe815260d097ad0064890d221ad0c71695431329474a7c827da166c9b7a938ac4",
      "blockNumber": "0x108759c5",
      "gasUsed": "0xfd8a",
      "effectiveGasPrice": "0x1355380",
      "from": "0xb05a948b5c1b057b88d381bde3a375efea87ebad",
      "to": "0xc3ba42da1d9f6b09d4d1315ac04f873a5ba64d3c",
      "contractAddress": null,
      "gasUsedForL1": "0x7535",
      "l1BlockNumber": "0x14433eb"
    },
    {
      "status": "0x1",
      "cumulativeGasUsed": "0x59268",
      "logs": [
        {
          "address": "0xe0902356a984540ca097021dbd9e0650974c7f7d",
          "topics": [
            "0x8be0079c531659141344cd1fd0a4f28419497f9722a3daafe3b4186f6b6457e0",
            "0x000000000000000000000000b05a948b5c1b057b88d381bde3a375efea87ebad",
            "0x0000000000000000000000005bbeb8eba98ddb8fd0d91965748d23ca5c8bbad6"
          ],
          "data": "0x",
          "blockHash": "0xb9a4ba63527696e45784ec352a68725d719447c3a80c0b79ddaffc2c650951a7",
          "blockNumber": "0x108759e5",
          "transactionHash": "0xc62c1c9b43e981ffd911f17ebe6b94b69b26100b4f374432685b565542b29483",
          "transactionIndex": "0x3",
          "logIndex": "0x3",
          "removed": false
        }
      ],
      "logsBloom": "0x00000000000000000000000000000000000000080000000000800000100000000000000000000000000000000000000000000000000000000000000000000000000000000000000000000000000000000001000000000000000000000000000000000000000000000000000000000010000000000000000000000000000000400002000000000000000000000000000000000000000000000000040000000000000000000000000000000000000000000000000000000000000000000000000000000000000002000000000000000000000000000000000000000000000080000000000000000000000000000400000000000000000000080000000000000000",
      "type": "0x2",
      "transactionHash": "0xc62c1c9b43e981ffd911f17ebe6b94b69b26100b4f374432685b565542b29483",
      "transactionIndex": "0x3",
      "blockHash": "0xb9a4ba63527696e45784ec352a68725d719447c3a80c0b79ddaffc2c650951a7",
      "blockNumber": "0x108759e5",
      "gasUsed": "0x1008d",
      "effectiveGasPrice": "0x12d9320",
      "from": "0xb05a948b5c1b057b88d381bde3a375efea87ebad",
      "to": "0xe0902356a984540ca097021dbd9e0650974c7f7d",
      "contractAddress": null,
      "gasUsedForL1": "0x7838",
      "l1BlockNumber": "0x14433ec"
    },
    {
      "status": "0x1",
      "cumulativeGasUsed": "0x45f6a7",
      "logs": [
        {
          "address": "0xf62a2e4ecf3bf73313b3bbbfb1563cb4433c8933",
          "topics": [
            "0x8be0079c531659141344cd1fd0a4f28419497f9722a3daafe3b4186f6b6457e0",
            "0x000000000000000000000000b05a948b5c1b057b88d381bde3a375efea87ebad",
            "0x0000000000000000000000005bbeb8eba98ddb8fd0d91965748d23ca5c8bbad6"
          ],
          "data": "0x",
          "blockHash": "0xedabee13e2e6ff958ef5210d50daeb78b6959e644b15f831b9248743284a4cd4",
          "blockNumber": "0x108759e9",
          "transactionHash": "0x87b3dccbf96f77b55d21cf42b8e665530ba2380d978655db1e04db7b667ef7c5",
          "transactionIndex": "0x13",
          "logIndex": "0x47",
          "removed": false
        }
      ],
      "logsBloom": "0x00000000000000000000000000000000000000000000000000800000000000000000000080000000000000000000000000000000000000000000000000000000000000000000000000000040000000000001000000000000000400000000000000000000000000000000000000000010000000000000000000000000000000400002000000000000000000000000000000000000000000000000040000000000000000000000000000000000000000000000000000000000000000000000000000000000000002000000000000000000000000000000000000000000000080000000000000000000000000000000000000000000000000080000000000000000",
      "type": "0x2",
      "transactionHash": "0x87b3dccbf96f77b55d21cf42b8e665530ba2380d978655db1e04db7b667ef7c5",
      "transactionIndex": "0x13",
      "blockHash": "0xedabee13e2e6ff958ef5210d50daeb78b6959e644b15f831b9248743284a4cd4",
      "blockNumber": "0x108759e9",
      "gasUsed": "0x100b2",
      "effectiveGasPrice": "0x12d3560",
      "from": "0xb05a948b5c1b057b88d381bde3a375efea87ebad",
      "to": "0xf62a2e4ecf3bf73313b3bbbfb1563cb4433c8933",
      "contractAddress": null,
      "gasUsedForL1": "0x785d",
      "l1BlockNumber": "0x14433ec"
    },
    {
      "status": "0x1",
      "cumulativeGasUsed": "0xffb7",
      "logs": [
        {
          "address": "0xfa1d8bdb95e0288779df13f40ff32567647e7ffa",
          "topics": [
            "0x8be0079c531659141344cd1fd0a4f28419497f9722a3daafe3b4186f6b6457e0",
            "0x000000000000000000000000b05a948b5c1b057b88d381bde3a375efea87ebad",
            "0x0000000000000000000000005bbeb8eba98ddb8fd0d91965748d23ca5c8bbad6"
          ],
          "data": "0x",
          "blockHash": "0x6c23d8496948365834f2a110c4f9dc6ff37034663769f4a39b351f2098201497",
          "blockNumber": "0x108759ef",
          "transactionHash": "0xc37fe636c6e6b5a8bb11fca1f85533087d3d633d61bfbb9356215e353d05d2fe",
          "transactionIndex": "0x1",
          "logIndex": "0x0",
          "removed": false
        }
      ],
      "logsBloom": "0x00000000000000000000000000000000000000000000000000800000000000000000000000000000000000000000000000000000000000000000000000000000000000000000000000000000000000000001000000000000000000000000000000000020000000000000000000000010000000000002000000000000000000400002000000000000000000000000000000000000000000000000040000000000000000040000000000000000000000000000000000000000000000000000000000000000000002000000000000000000000000000000000000000000000080000000000000000000000000000000000000000000000000080000000000000000",
      "type": "0x2",
      "transactionHash": "0xc37fe636c6e6b5a8bb11fca1f85533087d3d633d61bfbb9356215e353d05d2fe",
      "transactionIndex": "0x1",
      "blockHash": "0x6c23d8496948365834f2a110c4f9dc6ff37034663769f4a39b351f2098201497",
      "blockNumber": "0x108759ef",
      "gasUsed": "0xffb7",
      "effectiveGasPrice": "0x12fae30",
      "from": "0xb05a948b5c1b057b88d381bde3a375efea87ebad",
      "to": "0xfa1d8bdb95e0288779df13f40ff32567647e7ffa",
      "contractAddress": null,
      "gasUsedForL1": "0x7762",
      "l1BlockNumber": "0x14433ec"
    },
    {
      "status": "0x1",
      "cumulativeGasUsed": "0x1011b",
      "logs": [
        {
          "address": "0x19a0f3d7734dca40f1847c44ef717ef3ef5c50a5",
          "topics": [
            "0x8be0079c531659141344cd1fd0a4f28419497f9722a3daafe3b4186f6b6457e0",
            "0x000000000000000000000000b05a948b5c1b057b88d381bde3a375efea87ebad",
            "0x0000000000000000000000005bbeb8eba98ddb8fd0d91965748d23ca5c8bbad6"
          ],
          "data": "0x",
          "blockHash": "0xb157690c519ffbfab41b81d1f0649faad4f7f6ae79235ca16f18e76cccf4c6c7",
          "blockNumber": "0x108759f3",
          "transactionHash": "0x764c805b33988edc0edacca4ff174636b9850fb8ce68394f52925ac718867201",
          "transactionIndex": "0x1",
          "logIndex": "0x0",
          "removed": false
        }
      ],
      "logsBloom": "0x00000000000000000000000000000000200000000000000000800000000000000000000000000000000000000000000000000000000000000000000000000000040000000000000000000000000000000001000000000000000000000000000000000000000000000002000000000010000000000000000000000000000000400002000000000000000000000000000000000000000000000000040000000000000000000000000000000000000000000000000000000000000000000000000000000000000002000000000000000000000000000000000000000000000080000000000000000000000000000000000000000000000000080000000000000000",
      "type": "0x2",
      "transactionHash": "0x764c805b33988edc0edacca4ff174636b9850fb8ce68394f52925ac718867201",
      "transactionIndex": "0x1",
      "blockHash": "0xb157690c519ffbfab41b81d1f0649faad4f7f6ae79235ca16f18e76cccf4c6c7",
      "blockNumber": "0x108759f3",
      "gasUsed": "0x1011b",
      "effectiveGasPrice": "0x12e1bd8",
      "from": "0xb05a948b5c1b057b88d381bde3a375efea87ebad",
      "to": "0x19a0f3d7734dca40f1847c44ef717ef3ef5c50a5",
      "contractAddress": null,
      "gasUsedForL1": "0x7801",
      "l1BlockNumber": "0x14433ec"
    },
    {
      "status": "0x1",
      "cumulativeGasUsed": "0x5de13",
      "logs": [
        {
          "address": "0x2e00fd8fff4417c9d76ac44e35f039861b7e8f86",
          "topics": [
            "0x8be0079c531659141344cd1fd0a4f28419497f9722a3daafe3b4186f6b6457e0",
            "0x000000000000000000000000b05a948b5c1b057b88d381bde3a375efea87ebad",
            "0x0000000000000000000000005bbeb8eba98ddb8fd0d91965748d23ca5c8bbad6"
          ],
          "data": "0x",
          "blockHash": "0x76b42486e651c36e57bb2dc52386661a7097be5c1d7e018d123bf764cb4f9915",
          "blockNumber": "0x108759f6",
          "transactionHash": "0xacc37ac64c2733e79f22bcd4659b6c3dc9a40267197c22691ed333282f17d638",
          "transactionIndex": "0x2",
          "logIndex": "0x0",
          "removed": false
        }
      ],
      "logsBloom": "0x00000000080000000000000000000000000000000000000000800000000000000000000000000000000000000000000000000000100000000000000000000000000000000000000000000000000000000001000000000000000000000000000000000000000000000000000000000010000000000000000400000000000000400002000000000000000000000000000000000000000000000000040000000000000000000000000000000000000000000000000000000000000000000000000000000000000002000000000000000000000000000000000000000000000080000000000000000000000000000000000000000000000000080000000000000000",
      "type": "0x2",
      "transactionHash": "0xacc37ac64c2733e79f22bcd4659b6c3dc9a40267197c22691ed333282f17d638",
      "transactionIndex": "0x2",
      "blockHash": "0x76b42486e651c36e57bb2dc52386661a7097be5c1d7e018d123bf764cb4f9915",
      "blockNumber": "0x108759f6",
      "gasUsed": "0x10034",
      "effectiveGasPrice": "0x13065c8",
      "from": "0xb05a948b5c1b057b88d381bde3a375efea87ebad",
      "to": "0x2e00fd8fff4417c9d76ac44e35f039861b7e8f86",
      "contractAddress": null,
      "gasUsedForL1": "0x771a",
      "l1BlockNumber": "0x14433ec"
    },
    {
      "status": "0x1",
      "cumulativeGasUsed": "0x2ca206",
      "logs": [
        {
          "address": "0x46408b210e77408c17c183470c4693f458f5aed8",
          "topics": [
            "0x8be0079c531659141344cd1fd0a4f28419497f9722a3daafe3b4186f6b6457e0",
            "0x000000000000000000000000b05a948b5c1b057b88d381bde3a375efea87ebad",
            "0x0000000000000000000000005bbeb8eba98ddb8fd0d91965748d23ca5c8bbad6"
          ],
          "data": "0x",
          "blockHash": "0xd55fde172a6b68acf4f5df77da6017f657179420882d23c0800419063e0c401d",
          "blockNumber": "0x108759f9",
          "transactionHash": "0xac113fa1b2bbd022ebb006de8640623cf8cd0c3bf8b235dd1511782c2ea02fbc",
          "transactionIndex": "0x14",
          "logIndex": "0x2a",
          "removed": false
        }
      ],
      "logsBloom": "0x00000000000000000000000000000000000000000000000000800000000000000000000000000000000000000000000000000000000000000000002000000000000000000000000000000000000000000001000000000000200000000000000000000000000000000000000000000010000000000000000000000000000000400002000000000000000000040000000000000000000000000000040000000000000000000000000000000000000000000000000000000000000000000000000000000000000002000000000000000000000000000000000000000000000080000000000000000000000000000000000000000000000000080000000000000000",
      "type": "0x2",
      "transactionHash": "0xac113fa1b2bbd022ebb006de8640623cf8cd0c3bf8b235dd1511782c2ea02fbc",
      "transactionIndex": "0x14",
      "blockHash": "0xd55fde172a6b68acf4f5df77da6017f657179420882d23c0800419063e0c401d",
      "blockNumber": "0x108759f9",
      "gasUsed": "0x1012b",
      "effectiveGasPrice": "0x12df4c8",
      "from": "0xb05a948b5c1b057b88d381bde3a375efea87ebad",
      "to": "0x46408b210e77408c17c183470c4693f458f5aed8",
      "contractAddress": null,
      "gasUsedForL1": "0x7811",
      "l1BlockNumber": "0x14433ec"
    },
    {
      "status": "0x1",
      "cumulativeGasUsed": "0xfeb08",
      "logs": [
        {
          "address": "0x5b7d4523862981219c74b9e081221011e4f45182",
          "topics": [
            "0x8be0079c531659141344cd1fd0a4f28419497f9722a3daafe3b4186f6b6457e0",
            "0x000000000000000000000000b05a948b5c1b057b88d381bde3a375efea87ebad",
            "0x0000000000000000000000005bbeb8eba98ddb8fd0d91965748d23ca5c8bbad6"
          ],
          "data": "0x",
          "blockHash": "0xc435a427511708dba0c8549f8ebd44d5e35edeb4c905684e30463195e096ce00",
          "blockNumber": "0x108759fd",
          "transactionHash": "0x5d76c8ba7de31df5053a5809954f6fbdd9fad19ba0b9937d5cb983fdc1827e66",
          "transactionIndex": "0x7",
          "logIndex": "0xb",
          "removed": false
        }
      ],
      "logsBloom": "0x00000000000400000000000000000000000000000000000000800000000000000000000000000008000000000000000000000000000000000000000000000000000000000000000000000000000000000001000000000000000000000000000000000000000000000000000000000010000000000000000000000000000000400002000000000040000000000000000000000000000000000000040000000000000000000000000000000000000000000000000000000000000000000000000000000000000002000000000000000000000000000000000000000000000080000000000000000000000000000000000000000000000000080000000000000000",
      "type": "0x2",
      "transactionHash": "0x5d76c8ba7de31df5053a5809954f6fbdd9fad19ba0b9937d5cb983fdc1827e66",
      "transactionIndex": "0x7",
      "blockHash": "0xc435a427511708dba0c8549f8ebd44d5e35edeb4c905684e30463195e096ce00",
      "blockNumber": "0x108759fd",
      "gasUsed": "0x1013e",
      "effectiveGasPrice": "0x12dc5e8",
      "from": "0xb05a948b5c1b057b88d381bde3a375efea87ebad",
      "to": "0x5b7d4523862981219c74b9e081221011e4f45182",
      "contractAddress": null,
      "gasUsedForL1": "0x7824",
      "l1BlockNumber": "0x14433ec"
    },
    {
      "status": "0x1",
      "cumulativeGasUsed": "0x10201",
      "logs": [
        {
          "address": "0x7749aee50faeca5d7eed53bcbcf07db5aaf72e51",
          "topics": [
            "0x8be0079c531659141344cd1fd0a4f28419497f9722a3daafe3b4186f6b6457e0",
            "0x000000000000000000000000b05a948b5c1b057b88d381bde3a375efea87ebad",
            "0x0000000000000000000000005bbeb8eba98ddb8fd0d91965748d23ca5c8bbad6"
          ],
          "data": "0x",
          "blockHash": "0xb1cbd42aec53700deb76db7554a05e808ea670263ab5f531e401dad16519b431",
          "blockNumber": "0x10875a01",
          "transactionHash": "0xe046024c3c2d12d8454871dc79766601f2101e482eb0a433c8805bf465a9868f",
          "transactionIndex": "0x1",
          "logIndex": "0x0",
          "removed": false
        }
      ],
      "logsBloom": "0x00000000000000000000000000000000000000000000000000800000000000000000000000000000000000000000000000000000000000000000000000000000040000000000000000000000000000000001000000000000000000000000000000000000000000000000000000000010000000000000000000000000000000400002000000000000000000000000000000000000000000000000040000000000000000000000000000020000000000000000000000000000000000000000000000000000000002000000000000000000000000000000000000000000000080000000000000000000000000000000000000000000000000080000000000000002",
      "type": "0x2",
      "transactionHash": "0xe046024c3c2d12d8454871dc79766601f2101e482eb0a433c8805bf465a9868f",
      "transactionIndex": "0x1",
      "blockHash": "0xb1cbd42aec53700deb76db7554a05e808ea670263ab5f531e401dad16519b431",
      "blockNumber": "0x10875a01",
      "gasUsed": "0x10201",
      "effectiveGasPrice": "0x12bdda0",
      "from": "0xb05a948b5c1b057b88d381bde3a375efea87ebad",
      "to": "0x7749aee50faeca5d7eed53bcbcf07db5aaf72e51",
      "contractAddress": null,
      "gasUsedForL1": "0x78e7",
      "l1BlockNumber": "0x14433ec"
    },
    {
      "status": "0x1",
      "cumulativeGasUsed": "0x1b934",
      "logs": [
        {
          "address": "0xad3d78ed1b03f26238845612eeb3c5b2677fa359",
          "topics": [
            "0x8be0079c531659141344cd1fd0a4f28419497f9722a3daafe3b4186f6b6457e0",
            "0x000000000000000000000000b05a948b5c1b057b88d381bde3a375efea87ebad",
            "0x0000000000000000000000005bbeb8eba98ddb8fd0d91965748d23ca5c8bbad6"
          ],
          "data": "0x",
          "blockHash": "0xac35c479a3570a84d46bd7252db2976b06c6e474622a69207d9326e55703f85e",
          "blockNumber": "0x10875a04",
          "transactionHash": "0x0b2a826db07f9b3347a7fd792cc25300648333a2b29edbdd2fb4346637f983b8",
          "transactionIndex": "0x2",
          "logIndex": "0x0",
          "removed": false
        }
      ],
      "logsBloom": "0x00000000000000000000000000000000000000000000000000800000000000000000000000000000000000000010000000000000000000000000000000000000000000000000000000000000000000000001000000000000000000000000000000000000000000000000000000000010000000000000000000000000000000400002000000000000000000000000000000000000000000000000040000000000000000000000000000000000000040000000000000000000000000000000000000000000000002000000000000000000000000000000000000020000000080000000000000000000000000000000000000000000000000080000000000000000",
      "type": "0x2",
      "transactionHash": "0x0b2a826db07f9b3347a7fd792cc25300648333a2b29edbdd2fb4346637f983b8",
      "transactionIndex": "0x2",
      "blockHash": "0xac35c479a3570a84d46bd7252db2976b06c6e474622a69207d9326e55703f85e",
      "blockNumber": "0x10875a04",
      "gasUsed": "0x1016c",
      "effectiveGasPrice": "0x12d50b8",
      "from": "0xb05a948b5c1b057b88d381bde3a375efea87ebad",
      "to": "0xad3d78ed1b03f26238845612eeb3c5b2677fa359",
      "contractAddress": null,
      "gasUsedForL1": "0x7852",
      "l1BlockNumber": "0x14433ed"
    },
    {
      "status": "0x1",
      "cumulativeGasUsed": "0x1026b",
      "logs": [
        {
          "address": "0xaf893ffeb244ada520e842eea4a6f3864113f1f5",
          "topics": [
            "0x8be0079c531659141344cd1fd0a4f28419497f9722a3daafe3b4186f6b6457e0",
            "0x000000000000000000000000b05a948b5c1b057b88d381bde3a375efea87ebad",
            "0x0000000000000000000000005bbeb8eba98ddb8fd0d91965748d23ca5c8bbad6"
          ],
          "data": "0x",
          "blockHash": "0x91b8df12f5c9c148ac7a7286dfa28b2f95e49ee531b936f4e147ec195e6e69ed",
          "blockNumber": "0x10875a07",
          "transactionHash": "0x58a483844ef427a79bbad8954c6038c3c92dcb96f5be20b62a3b72499f72b5f2",
          "transactionIndex": "0x1",
          "logIndex": "0x0",
          "removed": false
        }
      ],
      "logsBloom": "0x00000000000000000000000000000000000000000000000000800000000000000000000000000000000000000000000000000008000000000000000000000000000000000000000000000000000000000001000000000000000000000000000000000100000000000000000000000010000000000000000000000000000000400002000000000000000000000000000000000000000000000000040000000000000000000000000000000000000000000000000000000000000000000000000000000000001002000000000000000000000000000000000000000000000080000000000000000000000000000000000000000000000000080000000000000000",
      "type": "0x2",
      "transactionHash": "0x58a483844ef427a79bbad8954c6038c3c92dcb96f5be20b62a3b72499f72b5f2",
      "transactionIndex": "0x1",
      "blockHash": "0x91b8df12f5c9c148ac7a7286dfa28b2f95e49ee531b936f4e147ec195e6e69ed",
      "blockNumber": "0x10875a07",
      "gasUsed": "0x1026b",
      "effectiveGasPrice": "0x12ad7e8",
      "from": "0xb05a948b5c1b057b88d381bde3a375efea87ebad",
      "to": "0xaf893ffeb244ada520e842eea4a6f3864113f1f5",
      "contractAddress": null,
      "gasUsedForL1": "0x7951",
      "l1BlockNumber": "0x14433ed"
    },
    {
      "status": "0x1",
      "cumulativeGasUsed": "0x10333",
      "logs": [
        {
          "address": "0xb9739585e54374268c231f042d384bfa57e41c95",
          "topics": [
            "0x8be0079c531659141344cd1fd0a4f28419497f9722a3daafe3b4186f6b6457e0",
            "0x000000000000000000000000b05a948b5c1b057b88d381bde3a375efea87ebad",
            "0x0000000000000000000000005bbeb8eba98ddb8fd0d91965748d23ca5c8bbad6"
          ],
          "data": "0x",
          "blockHash": "0xf193404a3c5a5e792c099ae738bee1783113ab2d4cc3d5dac9f42f8391b1a0a2",
          "blockNumber": "0x10875a0b",
          "transactionHash": "0x1e926cfb7624fb93a9852c9ed37a9fefe80958f900009dd777e3fe342cfdaf7c",
          "transactionIndex": "0x1",
          "logIndex": "0x0",
          "removed": false
        }
      ],
      "logsBloom": "0x00000000000000000000000000000000000000000000000000800000000000000000000000000000000000000000000000000000000000000000000000000000000000000000000000000000000000000001000000000000000000000000000000000000000000000000000000000010000000000000000000000000000000400002000000000000000000000000000000000000000000000000040000000000000000000000000000000000000000000000000000000000000000000000000000200000000002000000040000000000000000000000000000000000000080000000000000000000000000080000000000000000000000080000000000000000",
      "type": "0x2",
      "transactionHash": "0x1e926cfb7624fb93a9852c9ed37a9fefe80958f900009dd777e3fe342cfdaf7c",
      "transactionIndex": "0x1",
      "blockHash": "0xf193404a3c5a5e792c099ae738bee1783113ab2d4cc3d5dac9f42f8391b1a0a2",
      "blockNumber": "0x10875a0b",
      "gasUsed": "0x10333",
      "effectiveGasPrice": "0x128efa0",
      "from": "0xb05a948b5c1b057b88d381bde3a375efea87ebad",
      "to": "0xb9739585e54374268c231f042d384bfa57e41c95",
      "contractAddress": null,
      "gasUsedForL1": "0x7a19",
      "l1BlockNumber": "0x14433ed"
    },
    {
      "status": "0x1",
      "cumulativeGasUsed": "0x696e0",
      "logs": [
        {
          "address": "0xbd0c6aa5a670ebe77bd0225f345abe0058ece703",
          "topics": [
            "0x8be0079c531659141344cd1fd0a4f28419497f9722a3daafe3b4186f6b6457e0",
            "0x000000000000000000000000b05a948b5c1b057b88d381bde3a375efea87ebad",
            "0x0000000000000000000000005bbeb8eba98ddb8fd0d91965748d23ca5c8bbad6"
          ],
          "data": "0x",
          "blockHash": "0xb7b034f90224562acc575baffa17cb26fe27b03bfc9c8e3f6b46121d724ca29a",
          "blockNumber": "0x10875a0f",
          "transactionHash": "0x6bb36a5d56a543b70392a0bc496438afedd4decd66ff69840f6e2b741d21021d",
          "transactionIndex": "0x3",
          "logIndex": "0x5",
          "removed": false
        }
      ],
      "logsBloom": "0x00000000000000000000000000000000000000000000000000800000000000000000000000000000000000000000000000000000000000000000000000000000000000000400000000000000000000000001000000000000000000000000000000000000000000000000000000000010000000000000000000000000000000400002000000000000000000000000000000000000000000000000040000000000000000000000000000000000800000000000000000000000000000000000000000000000000002000000010000000000000000000000000000000000000080000000000000000000000000000000000000000000000000080000000000000000",
      "type": "0x2",
      "transactionHash": "0x6bb36a5d56a543b70392a0bc496438afedd4decd66ff69840f6e2b741d21021d",
      "transactionIndex": "0x3",
      "blockHash": "0xb7b034f90224562acc575baffa17cb26fe27b03bfc9c8e3f6b46121d724ca29a",
      "blockNumber": "0x10875a0f",
      "gasUsed": "0x102a0",
      "effectiveGasPrice": "0x12a5700",
      "from": "0xb05a948b5c1b057b88d381bde3a375efea87ebad",
      "to": "0xbd0c6aa5a670ebe77bd0225f345abe0058ece703",
      "contractAddress": null,
      "gasUsedForL1": "0x7986",
      "l1BlockNumber": "0x14433ed"
    },
    {
      "status": "0x1",
      "cumulativeGasUsed": "0x43ab1a",
      "logs": [
        {
          "address": "0xea03978db787d89572cb7a07b60ac65b98111143",
          "topics": [
            "0x8be0079c531659141344cd1fd0a4f28419497f9722a3daafe3b4186f6b6457e0",
            "0x000000000000000000000000b05a948b5c1b057b88d381bde3a375efea87ebad",
            "0x0000000000000000000000005bbeb8eba98ddb8fd0d91965748d23ca5c8bbad6"
          ],
          "data": "0x",
          "blockHash": "0xb4eab4b88faf95d369d29a206ad75091ee7583c4c24f5be8ecfe7ae76f637d99",
          "blockNumber": "0x10875a12",
          "transactionHash": "0x247d8ed00cdb60962e887a8a1db94c3de99c4dfe7cad24b8f523a752bad8bbdc",
          "transactionIndex": "0x5",
          "logIndex": "0x2c",
          "removed": false
        }
      ],
      "logsBloom": "0x00000000000000000000000000000000000000000000000000800000000000000000000000000000000000000000000000000000000000000000000000000000000000000000000000000000000000000001000000010000000000000000080000000000000000000000000000000010000000000000000000000000000000400002000000000000000000000000000000000000000000000000040000000000000000000000000000000000000000000000000000000000000000000000000000000000000002000000000000000000000040000000000000000000000080000000000000000000000000000000000000000000000000080000000000000000",
      "type": "0x2",
      "transactionHash": "0x247d8ed00cdb60962e887a8a1db94c3de99c4dfe7cad24b8f523a752bad8bbdc",
      "transactionIndex": "0x5",
      "blockHash": "0xb4eab4b88faf95d369d29a206ad75091ee7583c4c24f5be8ecfe7ae76f637d99",
      "blockNumber": "0x10875a12",
      "gasUsed": "0x1037d",
      "effectiveGasPrice": "0x1283bf0",
      "from": "0xb05a948b5c1b057b88d381bde3a375efea87ebad",
      "to": "0xea03978db787d89572cb7a07b60ac65b98111143",
      "contractAddress": null,
      "gasUsedForL1": "0x7a63",
      "l1BlockNumber": "0x14433ed"
    },
    {
      "status": "0x1",
      "cumulativeGasUsed": "0x1033b",
      "logs": [
        {
          "address": "0xeefd5923d88bdcc74afa56943dcc163f1de2be4d",
          "topics": [
            "0x8be0079c531659141344cd1fd0a4f28419497f9722a3daafe3b4186f6b6457e0",
            "0x000000000000000000000000b05a948b5c1b057b88d381bde3a375efea87ebad",
            "0x0000000000000000000000005bbeb8eba98ddb8fd0d91965748d23ca5c8bbad6"
          ],
          "data": "0x",
          "blockHash": "0xd1759f35e6717523293c7574d3e281841eee8d4d6ee90c3d1a67c91590665b50",
          "blockNumber": "0x10875a16",
          "transactionHash": "0x5f46a4ee9ad6054285fc2ca18084d58a2ae0c16f11b74c6c2154f3da85c41838",
          "transactionIndex": "0x1",
          "logIndex": "0x0",
          "removed": false
        }
      ],
      "logsBloom": "0x00000000000000000000000000000000000002000000000000800000000000000000000000000000000000000000000000000000080000000000000000000000000000000000000000000000000000000001000000000000000000000000000000000000000000000000000000000010000000000000000000000000000000400002000000000000000000000000000000000000000000000000040000000000000000000000000000000000000000000000000000000000000000000000000000000000000002000000000000000000000000000000000000000000000080000000000000000000000000400000000000000000000000080000000000000000",
      "type": "0x2",
      "transactionHash": "0x5f46a4ee9ad6054285fc2ca18084d58a2ae0c16f11b74c6c2154f3da85c41838",
      "transactionIndex": "0x1",
      "blockHash": "0xd1759f35e6717523293c7574d3e281841eee8d4d6ee90c3d1a67c91590665b50",
      "blockNumber": "0x10875a16",
      "gasUsed": "0x1033b",
      "effectiveGasPrice": "0x128dc18",
      "from": "0xb05a948b5c1b057b88d381bde3a375efea87ebad",
      "to": "0xeefd5923d88bdcc74afa56943dcc163f1de2be4d",
      "contractAddress": null,
      "gasUsedForL1": "0x7a21",
      "l1BlockNumber": "0x14433ed"
    },
    {
      "status": "0x1",
      "cumulativeGasUsed": "0x71511",
      "logs": [
        {
          "address": "0xf659101919e1de3dca2fd7aa47840189506055ff",
          "topics": [
            "0x8be0079c531659141344cd1fd0a4f28419497f9722a3daafe3b4186f6b6457e0",
            "0x000000000000000000000000b05a948b5c1b057b88d381bde3a375efea87ebad",
            "0x0000000000000000000000005bbeb8eba98ddb8fd0d91965748d23ca5c8bbad6"
          ],
          "data": "0x",
          "blockHash": "0xf3c8d64cc2cdcceaf6b78759a2cde454e263c19d9fd584dc1b8fdf7e9f47b66e",
          "blockNumber": "0x10875a1a",
          "transactionHash": "0x1d8c145aaa2c5baa31ef001591f93b8ed53cc65696831528b3637da73d29108c",
          "transactionIndex": "0x3",
          "logIndex": "0x4",
          "removed": false
        }
      ],
      "logsBloom": "0x00000000000000000000000000000000000000000000000000800000000000000000000000000000040000000000800000000000000000000000000000000000000000000000000000000000000000000001000000000000000000000000000000000000000000000000000000000010000000000000000000000000000000400002000000000000000000000000000000000000000000000000040000000000000000000000000000000000000000000000000000000000000000000080000000000000000002000000000000000000000000000000000000000000000080000000000000000000000000000000000000000000000000080000000000000000",
      "type": "0x2",
      "transactionHash": "0x1d8c145aaa2c5baa31ef001591f93b8ed53cc65696831528b3637da73d29108c",
      "transactionIndex": "0x3",
      "blockHash": "0xf3c8d64cc2cdcceaf6b78759a2cde454e263c19d9fd584dc1b8fdf7e9f47b66e",
      "blockNumber": "0x10875a1a",
      "gasUsed": "0x103f6",
      "effectiveGasPrice": "0x12716f8",
      "from": "0xb05a948b5c1b057b88d381bde3a375efea87ebad",
      "to": "0xf659101919e1de3dca2fd7aa47840189506055ff",
      "contractAddress": null,
      "gasUsedForL1": "0x7adc",
      "l1BlockNumber": "0x14433ed"
    }
  ],
  "libraries": [],
  "pending": [],
  "returns": {},
  "timestamp": 1732323027,
  "chain": 42161,
  "commit": "cfec7a91"
}