{
  "transactions": [
    {
      "hash": "0x9915cea33ba52e80871fed0e501918cce89a001499cf70abd8a40dc1162abccf",
      "transactionType": "CREATE",
      "contractName": "CollateralVault",
      "contractAddress": "0x1c751f1da47af02f1c3df40fa8d7f276e5d2a7c1",
      "function": null,
      "arguments": null,
      "transaction": {
        "from": "0xb05a948b5c1b057b88d381bde3a375efea87ebad",
        "gas": "0x73df5",
        "value": "0x0",
        "input": "0x6080806040523461001b57600160005561053c90816100218239f35b600080fdfe60806040908082526004918236101561001757600080fd5b600091823560e01c908163481fef8a1461031f575080638129fc1c146102db5780638630da1d146102955780638969ab53146101a25780638da5cb5b1461017a576399ea56b01461006757600080fd5b346101765760603660031901126101765782356100826103d4565b6002546001600160a01b03939192916044359185163303610167577fc512525fc7952c6edf42100f0853e94fb1c1f6daf93780cac22b690a36e03724949596506100ca6103ef565b8682948482526001602052828220978116978883526020528282205480839511610158575b508180808089610130958a61014e9a99985260016020528d88842090845260205287832061011e838254610445565b90555af161012a610468565b506104c8565b51938493849081526020810191909152901515604082015260600190565b0390a26001815580f35b955060019350889150816100ef565b5163ea8e4eb560e01b81528690fd5b5080fd5b503461017657816003193601126101765760025490516001600160a01b039091168152602090f35b5034610176576080366003190112610176578235926101bf6103d4565b604435946001600160a01b0380871694929390928588036102915760643591846002541633036102835750867f86b742620d95ff25811b118a7f2dbca2f5f4c869adf0b0d94660965f51c8d769959697986102186103ef565b839585835260016020528383209816978883526020528282205480839511610274575b508180808089610130958a61026a9a99985260016020528d88842090845260205287832061011e838254610445565b0390a36001815580f35b9550600193508991508161023b565b905163ea8e4eb560e01b8152fd5b8680fd5b5082346102d757816003193601126102d75760209282916102b46103d4565b90358252600185528282206001600160a01b039091168252845220549051908152f35b8280fd5b5082346102d757826003193601126102d757600254916001600160a01b0383166103135750506001600160a01b031916331760025580f35b5162dc149f60e41b8152fd5b918091506003193601126102d75783356103376103d4565b60025490936001600160a01b0391821633036103c657506103566103ef565b81855260016020528285209316928385526020528184208054903482018092116103b3577feec2f3feb835e2f2fd44281034b04700a1ddda63dd402949d470a25a7c40b36c94959650558151908152346020820152a26001815580f35b634e487b7160e01b865260118752602486fd5b63ea8e4eb560e01b81528690fd5b602435906001600160a01b03821682036103ea57565b600080fd5b600260005414610400576002600055565b60405162461bcd60e51b815260206004820152601f60248201527f5265656e7472616e637947756172643a207265656e7472616e742063616c6c006044820152606490fd5b9190820391821161045257565b634e487b7160e01b600052601160045260246000fd5b3d156104c3576001600160401b03903d8281116104ad5760405192601f8201601f19908116603f01168401908111848210176104ad5760405282523d6000602084013e565b634e487b7160e01b600052604160045260246000fd5b606090565b156104cf57565b60405162461bcd60e51b815260206004820152600f60248201526e151c985b9cd9995c8819985a5b1959608a1b6044820152606490fdfea2646970667358221220e1fd22beafc52b9f32fec6358911e88b54c9d8372f89236bd2ac8fa3fd7fadbd64736f6c63430008130033",
        "nonce": "0x49",
        "chainId": "0x89"
      },
      "additionalContracts": [],
      "isFixedGasLimit": false
    },
    {
      "hash": "0xe03f1dbfc1644a8f509c8da6bd71026be5a8718a3aa08f67ad5aff8fa1a1400d",
      "transactionType": "CALL",
      "contractName": null,
      "contractAddress": "0x57a9835b204dbcc101dbf981625a3625e8043b9c",
      "function": "setCollateralVaultTemplate(address)",
      "arguments": [
        "0x1c751F1dA47aF02f1C3dF40Fa8D7f276E5D2a7c1"
      ],
      "transaction": {
        "from": "0xb05a948b5c1b057b88d381bde3a375efea87ebad",
        "to": "0x57a9835b204dbcc101dbf981625a3625e8043b9c",
        "gas": "0xef5c",
        "value": "0x0",
        "input": "0xb0d3713a0000000000000000000000001c751f1da47af02f1c3df40fa8d7f276e5d2a7c1",
        "nonce": "0x4a",
        "chainId": "0x89"
      },
      "additionalContracts": [],
      "isFixedGasLimit": false
    },
    {
      "hash": "0x942ba88ce9fd8665c2cd1f2ef375341026f3d81b93be0ca111083cb0c0f3d683",
      "transactionType": "CALL",
      "contractName": null,
      "contractAddress": "0x9eee52873350c26d6c7fa23d048d22c4ab82db09",
      "function": "setCollateralVaultTemplate(address)",
      "arguments": [
        "0x1c751F1dA47aF02f1C3dF40Fa8D7f276E5D2a7c1"
      ],
      "transaction": {
        "from": "0xb05a948b5c1b057b88d381bde3a375efea87ebad",
        "to": "0x9eee52873350c26d6c7fa23d048d22c4ab82db09",
        "gas": "0xc7d3",
        "value": "0x0",
        "input": "0xb0d3713a0000000000000000000000001c751f1da47af02f1c3df40fa8d7f276e5d2a7c1",
        "nonce": "0x4b",
        "chainId": "0x89"
      },
      "additionalContracts": [],
      "isFixedGasLimit": false
    }
  ],
  "receipts": [
    {
      "status": "0x1",
      "cumulativeGasUsed": "0x3dd7f0",
      "logs": [
        {
          "address": "0x0000000000000000000000000000000000001010",
          "topics": [
            "0x4dfe1bbbcf077ddc3e01291eea2d5c70c2b422b415d95645b9adcfd678cb1d63",
            "0x0000000000000000000000000000000000000000000000000000000000001010",
            "0x000000000000000000000000b05a948b5c1b057b88d381bde3a375efea87ebad",
            "0x000000000000000000000000b95d435df3f8b2a8d8b9c2b7c8766c9ae6ed8cc9"
          ],
          "data": "0x0000000000000000000000000000000000000000000000000026ebaff097c21d000000000000000000000000000000000000000000000002d7ed23b151a6e41e00000000000000000000000000000000000000000000000ce5a871fc40ad74b3000000000000000000000000000000000000000000000002d7c63801610f220100000000000000000000000000000000000000000000000ce5cf5dac314536d0",
          "blockHash": "0x6296da4df961a0d77b7c0351dc05d5ba4819f9972d9eb226dd7724e1d6b056f8",
          "blockNumber": "0x3b6b7ac",
          "transactionHash": "0x9915cea33ba52e80871fed0e501918cce89a001499cf70abd8a40dc1162abccf",
          "transactionIndex": "0x20",
          "logIndex": "0x7b",
          "removed": false
        }
      ],
      "logsBloom": "0x00000000000000000000000000000000000000000000000000000000000000000000000000000000000000000000000000008000000000000000000000000000800000000000000000000000000000800000000000000000000100000000000100000000000000000000000000000000000000000000000080000000000000000002000000000000000000000000000000000000000000000000040000000000200000000000000000000000000000000000000000000000000000000000004000000000000000040001000000000000000000000000000000100000000080000000000000000000000000000000000000000000000000000000000000100000",
      "type": "0x0",
      "transactionHash": "0x9915cea33ba52e80871fed0e501918cce89a001499cf70abd8a40dc1162abccf",
      "transactionIndex": "0x20",
      "blockHash": "0x6296da4df961a0d77b7c0351dc05d5ba4819f9972d9eb226dd7724e1d6b056f8",
      "blockNumber": "0x3b6b7ac",
      "gasUsed": "0x59275",
      "effectiveGasPrice": "0x6fc23ac92",
      "from": "0xb05a948b5c1b057b88d381bde3a375efea87ebad",
      "to": null,
      "contractAddress": "0x1c751f1da47af02f1c3df40fa8d7f276e5d2a7c1"
    },
    {
      "status": "0x1",
      "cumulativeGasUsed": "0x3e853c",
      "logs": [
        {
          "address": "0x0000000000000000000000000000000000001010",
          "topics": [
            "0x4dfe1bbbcf077ddc3e01291eea2d5c70c2b422b415d95645b9adcfd678cb1d63",
            "0x0000000000000000000000000000000000000000000000000000000000001010",
            "0x000000000000000000000000b05a948b5c1b057b88d381bde3a375efea87ebad",
            "0x000000000000000000000000b95d435df3f8b2a8d8b9c2b7c8766c9ae6ed8cc9"
          ],
          "data": "0x0000000000000000000000000000000000000000000000000004ba76f5d927ac000000000000000000000000000000000000000000000002d7c638015e13c16400000000000000000000000000000000000000000000000ce5cf5dac314536d0000000000000000000000000000000000000000000000002d7c17d8a683a99b800000000000000000000000000000000000000000000000ce5d41823271e5e7c",
          "blockHash": "0x6296da4df961a0d77b7c0351dc05d5ba4819f9972d9eb226dd7724e1d6b056f8",
          "blockNumber": "0x3b6b7ac",
          "transactionHash": "0xe03f1dbfc1644a8f509c8da6bd71026be5a8718a3aa08f67ad5aff8fa1a1400d",
          "transactionIndex": "0x21",
          "logIndex": "0x7c",
          "removed": false
        }
      ],
      "logsBloom": "0x00000000000000000000000000000000000000000000000000000000000000000000000000000000000000000000000000008000000000000000000000000000800000000000000000000000000000800000000000000000000100000000000100000000000000000000000000000000000000000000000080000000000000000002000000000000000000000000000000000000000000000000040000000000200000000000000000000000000000000000000000000000000000000000004000000000000000040001000000000000000000000000000000100000000080000000000000000000000000000000000000000000000000000000000000100000",
      "type": "0x0",
      "transactionHash": "0xe03f1dbfc1644a8f509c8da6bd71026be5a8718a3aa08f67ad5aff8fa1a1400d",
      "transactionIndex": "0x21",
      "blockHash": "0x6296da4df961a0d77b7c0351dc05d5ba4819f9972d9eb226dd7724e1d6b056f8",
      "blockNumber": "0x3b6b7ac",
      "gasUsed": "0xad4c",
      "effectiveGasPrice": "0x6fc23ac92",
      "from": "0xb05a948b5c1b057b88d381bde3a375efea87ebad",
      "to": "0x57a9835b204dbcc101dbf981625a3625e8043b9c",
      "contractAddress": null
    },
    {
      "status": "0x1",
      "cumulativeGasUsed": "0x3f0dde",
      "logs": [
        {
          "address": "0x0000000000000000000000000000000000001010",
          "topics": [
            "0x4dfe1bbbcf077ddc3e01291eea2d5c70c2b422b415d95645b9adcfd678cb1d63",
            "0x0000000000000000000000000000000000000000000000000000000000001010",
            "0x000000000000000000000000b05a948b5c1b057b88d381bde3a375efea87ebad",
            "0x000000000000000000000000b95d435df3f8b2a8d8b9c2b7c8766c9ae6ed8cc9"
          ],
          "data": "0x0000000000000000000000000000000000000000000000000003ba5e81f7a5b2000000000000000000000000000000000000000000000002d7c17d8a67dddc0c00000000000000000000000000000000000000000000000ce5d41823271e5e7c000000000000000000000000000000000000000000000002d7bdc32be5e6365a00000000000000000000000000000000000000000000000ce5d7d281a916042e",
          "blockHash": "0x6296da4df961a0d77b7c0351dc05d5ba4819f9972d9eb226dd7724e1d6b056f8",
          "blockNumber": "0x3b6b7ac",
          "transactionHash": "0x942ba88ce9fd8665c2cd1f2ef375341026f3d81b93be0ca111083cb0c0f3d683",
          "transactionIndex": "0x22",
          "logIndex": "0x7d",
          "removed": false
        }
      ],
      "logsBloom": "0x00000000000000000000000000000000000000000000000000000000000000000000000000000000000000000000000000008000000000000000000000000000800000000000000000000000000000800000000000000000000100000000000100000000000000000000000000000000000000000000000080000000000000000002000000000000000000000000000000000000000000000000040000000000200000000000000000000000000000000000000000000000000000000000004000000000000000040001000000000000000000000000000000100000000080000000000000000000000000000000000000000000000000000000000000100000",
      "type": "0x0",
      "transactionHash": "0x942ba88ce9fd8665c2cd1f2ef375341026f3d81b93be0ca111083cb0c0f3d683",
      "transactionIndex": "0x22",
      "blockHash": "0x6296da4df961a0d77b7c0351dc05d5ba4819f9972d9eb226dd7724e1d6b056f8",
      "blockNumber": "0x3b6b7ac",
      "gasUsed": "0x88a2",
      "effectiveGasPrice": "0x6fc23ac92",
      "from": "0xb05a948b5c1b057b88d381bde3a375efea87ebad",
      "to": "0x9eee52873350c26d6c7fa23d048d22c4ab82db09",
      "contractAddress": null
    }
  ],
  "libraries": [],
  "pending": [],
  "returns": {},
  "timestamp": 1727370385,
  "chain": 137,
  "commit": "072b1a30"
}