{
  "transactions": [
    {
      "hash": "0x375add2fa2cffe64cb782f2cd2c78e61f5721344d88b9bf79e5c047768f693b7",
      "transactionType": "CALL",
      "contractName": "ERC1967Proxy",
      "contractAddress": "0xe01464829b1b888bf92a8d1cec3114bb9787984d",
      "function": null,
      "arguments": null,
      "transaction": {
        "from": "0xbe7bd60a6619cb436e1a3b8d6d5d6f4b37eabd4e",
        "to": "0xe01464829b1b888bf92a8d1cec3114bb9787984d",
        "gas": "0x49abe",
        "value": "0x0",
        "input": "0xa6a85d880000000000000000000000000000000000000000000000000000000000000060000000000000000000000000f0d3f695dd6dea9211ac4e8f43014ed92a7d54c10000000000000000000000000000000000000000000000000000000000000ba00000000000000000000000000000000000000000000000000000000000000009000000000000000000000000000000000000000000000000000000000000012000000000000000000000000000000000000000000000000000000000000002400000000000000000000000000000000000000000000000000000000000000360000000000000000000000000000000000000000000000000000000000000044000000000000000000000000000000000000000000000000000000000000005000000000000000000000000000000000000000000000000000000000000000700000000000000000000000000000000000000000000000000000000000000082000000000000000000000000000000000000000000000000000000000000009000000000000000000000000000000000000000000000000000000000000000a0000000000000000000000000044c41a4f4f6086f9d3b53ba219e50664da5b43670000000000000000000000000000000000000000000000000000000000000003000000000000000000000000000000000000000000000000000000000000006000000000000000000000000000000000000000000000000000000000000000057a0ed62700000000000000000000000000000000000000000000000000000000adfca15e0000000000000000000000000000000000000000000000000000000052ef6b2c00000000000000000000000000000000000000000000000000000000cdffacc60000000000000000000000000000000000000000000000000000000001ffc9a700000000000000000000000000000000000000000000000000000000000000000000000000000000f78b6216c95eb4f9386f7b2d99d5e0ac616d2799000000000000000000000000000000000000000000000000000000000000000300000000000000000000000000000000000000000000000000000000000000600000000000000000000000000000000000000000000000000000000000000005d5b7cc5400000000000000000000000000000000000000000000000000000000c6cdc98000000000000000000000000000000000000000000000000000000000924e670400000000000000000000000000000000000000000000000000000000c69271ec00000000000000000000000000000000000000000000000000000000170aba0d00000000000000000000000000000000000000000000000000000000000000000000000000000000edda6ab95615840cced947d6c786452384f8767f000000000000000000000000000000000000000000000000000000000000000300000000000000000000000000000000000000000000000000000000000000600000000000000000000000000000000000000000000000000000000000000003ef2920fc000000000000000000000000000000000000000000000000000000000a6f0ee9000000000000000000000000000000000000000000000000000000004ab4ba42000000000000000000000000000000000000000000000000000000000000000000000000000000007120fdf43e0ee382a258c6db58d9b3133732406d000000000000000000000000000000000000000000000000000000000000000300000000000000000000000000000000000000000000000000000000000000600000000000000000000000000000000000000000000000000000000000000002b41596ec00000000000000000000000000000000000000000000000000000000311a6c560000000000000000000000000000000000000000000000000000000000000000000000000000000022e140e3d7b5f0287424de78ef9fdb040b0f573700000000000000000000000000000000000000000000000000000000000000030000000000000000000000000000000000000000000000000000000000000060000000000000000000000000000000000000000000000000000000000000000c1add1a0d00000000000000000000000000000000000000000000000000000000222a3a0400000000000000000000000000000000000000000000000000000000adaf157b0000000000000000000000000000000000000000000000000000000060b4778900000000000000000000000000000000000000000000000000000000136439dd0000000000000000000000000000000000000000000000000000000080c4a65f000000000000000000000000000000000000000000000000000000003f4ba83a00000000000000000000000000000000000000000000000000000000bac1e94b00000000000000000000000000000000000000000000000000000000b187bd260000000000000000000000000000000000000000000000000000000009b65e6600000000000000000000000000000000000000000000000000000000da748b10000000000000000000000000000000000000000000000000000000002d2ebbef000000000000000000000000000000000000000000000000000000000000000000000000000000006dce89576ea0791135b06fbe6cc077be25b0100e000000000000000000000000000000000000000000000000000000000000000300000000000000000000000000000000000000000000000000000000000000600000000000000000000000000000000000000000000000000000000000000005814516ad00000000000000000000000000000000000000000000000000000000782aadff000000000000000000000000000000000000000000000000000000002ed04b2b000000000000000000000000000000000000000000000000000000001ddf1e23000000000000000000000000000000000000000000000000000000006453d9c400000000000000000000000000000000000000000000000000000000000000000000000000000000bf4263f1c5ecef58c52077222d81eb548c2f101a0000000000000000000000000000000000000000000000000000000000000003000000000000000000000000000000000000000000000000000000000000006000000000000000000000000000000000000000000000000000000000000000032bbe0cae00000000000000000000000000000000000000000000000000000000e0a8f6f500000000000000000000000000000000000000000000000000000000141e3b3800000000000000000000000000000000000000000000000000000000000000000000000000000000dea26f20de687d127fd19f188603c4c6571a98cb0000000000000000000000000000000000000000000000000000000000000003000000000000000000000000000000000000000000000000000000000000006000000000000000000000000000000000000000000000000000000000000000043eadbd0f0000000000000000000000000000000000000000000000000000000001cf0869000000000000000000000000000000000000000000000000000000009f00879c00000000000000000000000000000000000000000000000000000000c5aab6ed0000000000000000000000000000000000000000000000000000000000000000000000000000000007d7f070aa750b6fcec42a2746de783be3e61fcd0000000000000000000000000000000000000000000000000000000000000003000000000000000000000000000000000000000000000000000000000000006000000000000000000000000000000000000000000000000000000000000000057d7c2a1c0000000000000000000000000000000000000000000000000000000053a3d62e00000000000000000000000000000000000000000000000000000000736dcb8b00000000000000000000000000000000000000000000000000000000e0ab98b5000000000000000000000000000000000000000000000000000000007d40af98000000000000000000000000000000000000000000000000000000000000000000000000000000000000000000000000000000000000000000000004e1c7392a00000000000000000000000000000000000000000000000000000000",
        "nonce": "0xcf",
        "chainId": "0xaa36a7"
      },
      "additionalContracts": [],
      "isFixedGasLimit": false
    },
    {
      "hash": "0x4907b81da9ce4eb62e61415a6c19c1e6ff16080133333ee7d485e78e789145cd",
      "transactionType": "CALL",
      "contractName": "ERC1967Proxy",
      "contractAddress": "0x116eaa654e867d15e9def43560d9145ec12f4838",
      "function": null,
      "arguments": null,
      "transaction": {
        "from": "0xbe7bd60a6619cb436e1a3b8d6d5d6f4b37eabd4e",
        "to": "0x116eaa654e867d15e9def43560d9145ec12f4838",
        "gas": "0x14f04",
        "value": "0x0",
        "input": "0x1b71f0e4000000000000000000000000152bd471a943c182665af4d6605930b66bbe3457",
        "nonce": "0xd0",
        "chainId": "0xaa36a7"
      },
      "additionalContracts": [],
      "isFixedGasLimit": false
    },
    {
      "hash": "0xf559f808f3f5d2be89740f004fdc54db40166572dfe5a12bcce77ee048ca02d7",
      "transactionType": "CALL",
      "contractName": null,
      "contractAddress": "0x1d5027d7fd0ee051072550c373e20903cdc2d092",
      "function": "diamondCut((address,uint8,bytes4[])[],address,bytes)",
      "arguments": [
        "[(0x07D7F070Aa750b6fCEc42A2746De783bE3e61fCd, 3, [0x7d7c2a1c, 0x53a3d62e, 0x736dcb8b, 0xe0ab98b5, 0x7d40af98])]",
        "0xf0D3f695dD6dea9211AC4e8f43014ed92A7D54c1",
        "0xe1c7392a"
      ],
      "transaction": {
        "from": "0xbe7bd60a6619cb436e1a3b8d6d5d6f4b37eabd4e",
        "to": "0x1d5027d7fd0ee051072550c373e20903cdc2d092",
        "gas": "0x24b6e",
        "value": "0x0",
        "input": "0x1f931c1c0000000000000000000000000000000000000000000000000000000000000060000000000000000000000000f0d3f695dd6dea9211ac4e8f43014ed92a7d54c100000000000000000000000000000000000000000000000000000000000001c00000000000000000000000000000000000000000000000000000000000000001000000000000000000000000000000000000000000000000000000000000002000000000000000000000000007d7f070aa750b6fcec42a2746de783be3e61fcd0000000000000000000000000000000000000000000000000000000000000003000000000000000000000000000000000000000000000000000000000000006000000000000000000000000000000000000000000000000000000000000000057d7c2a1c0000000000000000000000000000000000000000000000000000000053a3d62e00000000000000000000000000000000000000000000000000000000736dcb8b00000000000000000000000000000000000000000000000000000000e0ab98b5000000000000000000000000000000000000000000000000000000007d40af98000000000000000000000000000000000000000000000000000000000000000000000000000000000000000000000000000000000000000000000004e1c7392a00000000000000000000000000000000000000000000000000000000",
        "nonce": "0xd1",
        "chainId": "0xaa36a7"
      },
      "additionalContracts": [],
      "isFixedGasLimit": false
    },
    {
      "hash": "0x81b1fdc8bd1ae2c0775cc952c0be9697bdba6de39ccf4a3828f9e09f5be3181b",
      "transactionType": "CALL",
      "contractName": "ERC1967Proxy",
      "contractAddress": "0xc018a1a2703bfae909e2b44718e77ba9cf57aabb",
      "function": null,
      "arguments": null,
      "transaction": {
        "from": "0xbe7bd60a6619cb436e1a3b8d6d5d6f4b37eabd4e",
        "to": "0xc018a1a2703bfae909e2b44718e77ba9cf57aabb",
        "gas": "0x24b6e",
        "value": "0x0",
        "input": "0x1f931c1c0000000000000000000000000000000000000000000000000000000000000060000000000000000000000000f0d3f695dd6dea9211ac4e8f43014ed92a7d54c100000000000000000000000000000000000000000000000000000000000001c00000000000000000000000000000000000000000000000000000000000000001000000000000000000000000000000000000000000000000000000000000002000000000000000000000000007d7f070aa750b6fcec42a2746de783be3e61fcd0000000000000000000000000000000000000000000000000000000000000003000000000000000000000000000000000000000000000000000000000000006000000000000000000000000000000000000000000000000000000000000000057d7c2a1c0000000000000000000000000000000000000000000000000000000053a3d62e00000000000000000000000000000000000000000000000000000000736dcb8b00000000000000000000000000000000000000000000000000000000e0ab98b5000000000000000000000000000000000000000000000000000000007d40af98000000000000000000000000000000000000000000000000000000000000000000000000000000000000000000000000000000000000000000000004e1c7392a00000000000000000000000000000000000000000000000000000000",
        "nonce": "0xd2",
        "chainId": "0xaa36a7"
      },
      "additionalContracts": [],
      "isFixedGasLimit": false
    },
    {
      "hash": "0xc2aed01b740d4f31405dddcb35f992a6ec36da169a91615f746784031a28d0cc",
      "transactionType": "CALL",
      "contractName": "ERC1967Proxy",
      "contractAddress": "0xcc6f0dd68d6ad6562426a589ec5cdb96c37f7b23",
      "function": null,
      "arguments": null,
      "transaction": {
        "from": "0xbe7bd60a6619cb436e1a3b8d6d5d6f4b37eabd4e",
        "to": "0xcc6f0dd68d6ad6562426a589ec5cdb96c37f7b23",
        "gas": "0x24b6e",
        "value": "0x0",
        "input": "0x1f931c1c0000000000000000000000000000000000000000000000000000000000000060000000000000000000000000f0d3f695dd6dea9211ac4e8f43014ed92a7d54c100000000000000000000000000000000000000000000000000000000000001c00000000000000000000000000000000000000000000000000000000000000001000000000000000000000000000000000000000000000000000000000000002000000000000000000000000007d7f070aa750b6fcec42a2746de783be3e61fcd0000000000000000000000000000000000000000000000000000000000000003000000000000000000000000000000000000000000000000000000000000006000000000000000000000000000000000000000000000000000000000000000057d7c2a1c0000000000000000000000000000000000000000000000000000000053a3d62e00000000000000000000000000000000000000000000000000000000736dcb8b00000000000000000000000000000000000000000000000000000000e0ab98b5000000000000000000000000000000000000000000000000000000007d40af98000000000000000000000000000000000000000000000000000000000000000000000000000000000000000000000000000000000000000000000004e1c7392a00000000000000000000000000000000000000000000000000000000",
        "nonce": "0xd3",
        "chainId": "0xaa36a7"
      },
      "additionalContracts": [],
      "isFixedGasLimit": false
    }
  ],
  "receipts": [
    {
      "status": "0x1",
      "cumulativeGasUsed": "0xa9d673",
      "logs": [],
      "logsBloom": "0x00000000000000000000000000000000000000000000000000000000000000000000000000000000000000000000000000000000000000000000000000000000000000000000000000000000000000000000000000000000000000000000000000000000000000000000000000000000000000000000000000000000000000000000000000000000000000000000000000000000000000000000000000000000000000000000000000000000000000000000000000000000000000000000000000000000000000000000000000000000000000000000000000000000000000000000000000000000000000000000000000000000000000000000000000000000",
      "type": "0x2",
      "transactionHash": "0x4907b81da9ce4eb62e61415a6c19c1e6ff16080133333ee7d485e78e789145cd",
      "transactionIndex": "0x41",
      "blockHash": "0xc071857afc09961d7af11151d0d23535210f00c9a4fcbffb0265bf67493aa060",
      "blockNumber": "0xa0a8be",
      "gasUsed": "0x35564",
      "effectiveGasPrice": "0x124f8f",
      "from": "0xbe7bd60a6619cb436e1a3b8d6d5d6f4b37eabd4e",
      "to": "0xe01464829b1b888bf92a8d1cec3114bb9787984d",
      "contractAddress": null
    },
    {
      "status": "0x1",
      "cumulativeGasUsed": "0xaac900",
      "logs": [],
      "logsBloom": "0x00000000000000000000000000000000000000000000000000000000000000000000000000000000000000000000000000000000000000000000000000000000000000000000000000000000000000000000000000000000000000000000000000000000000000000000000000000000000000000000000000000000000000000000000000000000000000000000000000000000000000000000000000000000000000000000000000000000000000000000000000000000000000000000000000000000000000000000000000000000000000000000000000000000000000000000000000000000000000000000000000000000000000000000000000000000",
      "type": "0x2",
      "transactionHash": "0x375add2fa2cffe64cb782f2cd2c78e61f5721344d88b9bf79e5c047768f693b7",
      "transactionIndex": "0x42",
      "blockHash": "0xc071857afc09961d7af11151d0d23535210f00c9a4fcbffb0265bf67493aa060",
      "blockNumber": "0xa0a8be",
      "gasUsed": "0xf28d",
      "effectiveGasPrice": "0x124f8f",
      "from": "0xbe7bd60a6619cb436e1a3b8d6d5d6f4b37eabd4e",
      "to": "0x116eaa654e867d15e9def43560d9145ec12f4838",
      "contractAddress": null
    },
    {
      "status": "0x1",
      "cumulativeGasUsed": "0xac5aaa",
      "logs": [
        {
          "address": "0x1d5027d7fd0ee051072550c373e20903cdc2d092",
          "topics": [
            "0x8faa70878671ccd212d20771b795c50af8fd3ff6cf27f4bde57e5d4de0aeb673"
          ],
          "data": "0x0000000000000000000000000000000000000000000000000000000000000060000000000000000000000000f0d3f695dd6dea9211ac4e8f43014ed92a7d54c100000000000000000000000000000000000000000000000000000000000001c00000000000000000000000000000000000000000000000000000000000000001000000000000000000000000000000000000000000000000000000000000002000000000000000000000000007d7f070aa750b6fcec42a2746de783be3e61fcd0000000000000000000000000000000000000000000000000000000000000003000000000000000000000000000000000000000000000000000000000000006000000000000000000000000000000000000000000000000000000000000000057d7c2a1c0000000000000000000000000000000000000000000000000000000053a3d62e00000000000000000000000000000000000000000000000000000000736dcb8b00000000000000000000000000000000000000000000000000000000e0ab98b5000000000000000000000000000000000000000000000000000000007d40af98000000000000000000000000000000000000000000000000000000000000000000000000000000000000000000000000000000000000000000000004e1c7392a00000000000000000000000000000000000000000000000000000000",
          "blockHash": "0xc071857afc09961d7af11151d0d23535210f00c9a4fcbffb0265bf67493aa060",
          "blockNumber": "0xa0a8be",
          "blockTimestamp": "0x69c5c61c",
          "transactionHash": "0xc2aed01b740d4f31405dddcb35f992a6ec36da169a91615f746784031a28d0cc",
          "transactionIndex": "0x43",
          "logIndex": "0x251",
          "removed": false
        }
      ],
      "logsBloom": "0x00000000000000000040000000000000000000000000000000000000000000000000000000000000000000000000000000000008000000000000000000000000000000000000000000000000000000000000000001000000000800000000000000000000000000000000000100000000000000000000000000000000000000000020000000000000000000000000000000000000000000000000000000000000000000000000000000000000000000000000000000000000000000000000000000000000000000000000000000000000000000000000000000000000000000000000000000000000000000000000000000000000000000000000000000000000",
      "type": "0x2",
      "transactionHash": "0xc2aed01b740d4f31405dddcb35f992a6ec36da169a91615f746784031a28d0cc",
      "transactionIndex": "0x43",
      "blockHash": "0xc071857afc09961d7af11151d0d23535210f00c9a4fcbffb0265bf67493aa060",
      "blockNumber": "0xa0a8be",
      "gasUsed": "0x191aa",
      "effectiveGasPrice": "0x124f8f",
      "from": "0xbe7bd60a6619cb436e1a3b8d6d5d6f4b37eabd4e",
      "to": "0x1d5027d7fd0ee051072550c373e20903cdc2d092",
      "contractAddress": null
    },
    {
      "status": "0x1",
      "cumulativeGasUsed": "0xadec54",
      "logs": [
        {
          "address": "0xc018a1a2703bfae909e2b44718e77ba9cf57aabb",
          "topics": [
            "0x8faa70878671ccd212d20771b795c50af8fd3ff6cf27f4bde57e5d4de0aeb673"
          ],
          "data": "0x0000000000000000000000000000000000000000000000000000000000000060000000000000000000000000f0d3f695dd6dea9211ac4e8f43014ed92a7d54c100000000000000000000000000000000000000000000000000000000000001c00000000000000000000000000000000000000000000000000000000000000001000000000000000000000000000000000000000000000000000000000000002000000000000000000000000007d7f070aa750b6fcec42a2746de783be3e61fcd0000000000000000000000000000000000000000000000000000000000000003000000000000000000000000000000000000000000000000000000000000006000000000000000000000000000000000000000000000000000000000000000057d7c2a1c0000000000000000000000000000000000000000000000000000000053a3d62e00000000000000000000000000000000000000000000000000000000736dcb8b00000000000000000000000000000000000000000000000000000000e0ab98b5000000000000000000000000000000000000000000000000000000007d40af98000000000000000000000000000000000000000000000000000000000000000000000000000000000000000000000000000000000000000000000004e1c7392a00000000000000000000000000000000000000000000000000000000",
          "blockHash": "0xc071857afc09961d7af11151d0d23535210f00c9a4fcbffb0265bf67493aa060",
          "blockNumber": "0xa0a8be",
          "blockTimestamp": "0x69c5c61c",
          "transactionHash": "0x81b1fdc8bd1ae2c0775cc952c0be9697bdba6de39ccf4a3828f9e09f5be3181b",
          "transactionIndex": "0x44",
          "logIndex": "0x252",
          "removed": false
        }
      ],
      "logsBloom": "0x00000000000000000000000000000000000000000000200000000000000000000000000000000000000000000000000000000000000000000000000000000000000000000000000000000000000000000000000001000000000800000000000000000000000000000000000000000000000000000000000000000000000000000020000000000000000000000000000000000000000000000000000000004000000000000000000000000000000000000000000000000000000000000000000000000200000000000000000000000000000000000000000000000000000000000000000000000000000000000000000000000000000000000000000000000000",
      "type": "0x2",
      "transactionHash": "0x81b1fdc8bd1ae2c0775cc952c0be9697bdba6de39ccf4a3828f9e09f5be3181b",
      "transactionIndex": "0x44",
      "blockHash": "0xc071857afc09961d7af11151d0d23535210f00c9a4fcbffb0265bf67493aa060",
      "blockNumber": "0xa0a8be",
      "gasUsed": "0x191aa",
      "effectiveGasPrice": "0x124f8f",
      "from": "0xbe7bd60a6619cb436e1a3b8d6d5d6f4b37eabd4e",
      "to": "0xc018a1a2703bfae909e2b44718e77ba9cf57aabb",
      "contractAddress": null
    },
    {
      "status": "0x1",
      "cumulativeGasUsed": "0xaf7dfe",
      "logs": [
        {
          "address": "0xcc6f0dd68d6ad6562426a589ec5cdb96c37f7b23",
          "topics": [
            "0x8faa70878671ccd212d20771b795c50af8fd3ff6cf27f4bde57e5d4de0aeb673"
          ],
          "data": "0x0000000000000000000000000000000000000000000000000000000000000060000000000000000000000000f0d3f695dd6dea9211ac4e8f43014ed92a7d54c100000000000000000000000000000000000000000000000000000000000001c00000000000000000000000000000000000000000000000000000000000000001000000000000000000000000000000000000000000000000000000000000002000000000000000000000000007d7f070aa750b6fcec42a2746de783be3e61fcd0000000000000000000000000000000000000000000000000000000000000003000000000000000000000000000000000000000000000000000000000000006000000000000000000000000000000000000000000000000000000000000000057d7c2a1c0000000000000000000000000000000000000000000000000000000053a3d62e00000000000000000000000000000000000000000000000000000000736dcb8b00000000000000000000000000000000000000000000000000000000e0ab98b5000000000000000000000000000000000000000000000000000000007d40af98000000000000000000000000000000000000000000000000000000000000000000000000000000000000000000000000000000000000000000000004e1c7392a00000000000000000000000000000000000000000000000000000000",
          "blockHash": "0xc071857afc09961d7af11151d0d23535210f00c9a4fcbffb0265bf67493aa060",
          "blockNumber": "0xa0a8be",
          "blockTimestamp": "0x69c5c61c",
          "transactionHash": "0xf559f808f3f5d2be89740f004fdc54db40166572dfe5a12bcce77ee048ca02d7",
          "transactionIndex": "0x45",
          "logIndex": "0x253",
          "removed": false
        }
      ],
      "logsBloom": "0x00000000000000000000000000000000000000000000000000000000000000000000000000000000040000000000000000000000000000000000000000000000000000000000000000000000000000000000000001000000000800000000040000000000000000000000000000000000000000000000000000000000000000000020000000000000000000000000000000000000000000000000000000000000000000000000000000000000000000000000000000000000000000000000000000000000000000000000004000000000000000000000000000000000000000000000000000000000000000000000000000000000000000000000000000000000",
      "type": "0x2",
      "transactionHash": "0xf559f808f3f5d2be89740f004fdc54db40166572dfe5a12bcce77ee048ca02d7",
      "transactionIndex": "0x45",
      "blockHash": "0xc071857afc09961d7af11151d0d23535210f00c9a4fcbffb0265bf67493aa060",
      "blockNumber": "0xa0a8be",
      "gasUsed": "0x191aa",
      "effectiveGasPrice": "0x124f8f",
      "from": "0xbe7bd60a6619cb436e1a3b8d6d5d6f4b37eabd4e",
      "to": "0xcc6f0dd68d6ad6562426a589ec5cdb96c37f7b23",
      "contractAddress": null
    }
  ],
  "libraries": [
    "pkg/contracts/src/CVStrategy/ConvictionsUtils.sol:ConvictionsUtils:0x70b24063ea84765B324387e21159B41aF48A9440",
    "pkg/contracts/src/CVStrategy/PowerManagementUtils.sol:PowerManagementUtils:0xB07d76F6001Cc62739d39cb0C5E9c58E08230486"
  ],
  "pending": [],
  "returns": {},
  "timestamp": 1774568989798,
  "chain": 11155111,
  "commit": "79e0d9c09"
}