{
  "transactions": [
    {
      "hash": "0xc173ce47c496df3a852a1547bd6fb62c3e613e32dec8b9a39b2e58b5984120a5",
      "transactionType": "CALL",
      "contractName": null,
      "contractAddress": "0x1d5027d7fd0ee051072550c373e20903cdc2d092",
      "function": "diamondCut((address,uint8,bytes4[])[],address,bytes)",
      "arguments": [
        "[(0x694576368c752d2Db51530Ef1b69D7583A141887, 3, [0xd5b7cc54, 0xc6cdc980, 0x924e6704, 0xc69271ec, 0x170aba0d]), (0x80bEa2Aa0BB47D93186Fbcf01dceC83752C81D67, 3, [0x814516ad, 0x782aadff, 0x2ed04b2b, 0x1ddf1e23, 0x6453d9c4]), (0x9BA6F88Dd9182Cc5f45A9Ceb0191e5d89123a3E9, 3, [0x7d7c2a1c, 0x53a3d62e, 0x736dcb8b, 0xe0ab98b5, 0x7d40af98])]",
        "0xf0D3f695dD6dea9211AC4e8f43014ed92A7D54c1",
        "0xe1c7392a"
      ],
      "transaction": {
        "from": "0xb05a948b5c1b057b88d381bde3a375efea87ebad",
        "to": "0x1d5027d7fd0ee051072550c373e20903cdc2d092",
        "gas": "0x408f1",
        "value": "0x0",
        "input": "0x1f931c1c0000000000000000000000000000000000000000000000000000000000000060000000000000000000000000f0d3f695dd6dea9211ac4e8f43014ed92a7d54c1000000000000000000000000000000000000000000000000000000000000044000000000000000000000000000000000000000000000000000000000000000030000000000000000000000000000000000000000000000000000000000000060000000000000000000000000000000000000000000000000000000000000018000000000000000000000000000000000000000000000000000000000000002a0000000000000000000000000694576368c752d2db51530ef1b69d7583a141887000000000000000000000000000000000000000000000000000000000000000300000000000000000000000000000000000000000000000000000000000000600000000000000000000000000000000000000000000000000000000000000005d5b7cc5400000000000000000000000000000000000000000000000000000000c6cdc98000000000000000000000000000000000000000000000000000000000924e670400000000000000000000000000000000000000000000000000000000c69271ec00000000000000000000000000000000000000000000000000000000170aba0d0000000000000000000000000000000000000000000000000000000000000000000000000000000080bea2aa0bb47d93186fbcf01dcec83752c81d67000000000000000000000000000000000000000000000000000000000000000300000000000000000000000000000000000000000000000000000000000000600000000000000000000000000000000000000000000000000000000000000005814516ad00000000000000000000000000000000000000000000000000000000782aadff000000000000000000000000000000000000000000000000000000002ed04b2b000000000000000000000000000000000000000000000000000000001ddf1e23000000000000000000000000000000000000000000000000000000006453d9c4000000000000000000000000000000000000000000000000000000000000000000000000000000009ba6f88dd9182cc5f45a9ceb0191e5d89123a3e90000000000000000000000000000000000000000000000000000000000000003000000000000000000000000000000000000000000000000000000000000006000000000000000000000000000000000000000000000000000000000000000057d7c2a1c0000000000000000000000000000000000000000000000000000000053a3d62e00000000000000000000000000000000000000000000000000000000736dcb8b00000000000000000000000000000000000000000000000000000000e0ab98b5000000000000000000000000000000000000000000000000000000007d40af98000000000000000000000000000000000000000000000000000000000000000000000000000000000000000000000000000000000000000000000004e1c7392a00000000000000000000000000000000000000000000000000000000",
        "nonce": "0x533",
        "chainId": "0xaa36a7"
      },
      "additionalContracts": [],
      "isFixedGasLimit": false
    },
    {
      "hash": "0x55c9372e28d750dcc560c276a5de6ac7e19de62608a7d09f105c58c7fcefaa69",
      "transactionType": "CALL",
      "contractName": "ERC1967Proxy",
      "contractAddress": "0xc018a1a2703bfae909e2b44718e77ba9cf57aabb",
      "function": null,
      "arguments": null,
      "transaction": {
        "from": "0xb05a948b5c1b057b88d381bde3a375efea87ebad",
        "to": "0xc018a1a2703bfae909e2b44718e77ba9cf57aabb",
        "gas": "0x408f1",
        "value": "0x0",
        "input": "0x1f931c1c0000000000000000000000000000000000000000000000000000000000000060000000000000000000000000f0d3f695dd6dea9211ac4e8f43014ed92a7d54c1000000000000000000000000000000000000000000000000000000000000044000000000000000000000000000000000000000000000000000000000000000030000000000000000000000000000000000000000000000000000000000000060000000000000000000000000000000000000000000000000000000000000018000000000000000000000000000000000000000000000000000000000000002a0000000000000000000000000694576368c752d2db51530ef1b69d7583a141887000000000000000000000000000000000000000000000000000000000000000300000000000000000000000000000000000000000000000000000000000000600000000000000000000000000000000000000000000000000000000000000005d5b7cc5400000000000000000000000000000000000000000000000000000000c6cdc98000000000000000000000000000000000000000000000000000000000924e670400000000000000000000000000000000000000000000000000000000c69271ec00000000000000000000000000000000000000000000000000000000170aba0d0000000000000000000000000000000000000000000000000000000000000000000000000000000080bea2aa0bb47d93186fbcf01dcec83752c81d67000000000000000000000000000000000000000000000000000000000000000300000000000000000000000000000000000000000000000000000000000000600000000000000000000000000000000000000000000000000000000000000005814516ad00000000000000000000000000000000000000000000000000000000782aadff000000000000000000000000000000000000000000000000000000002ed04b2b000000000000000000000000000000000000000000000000000000001ddf1e23000000000000000000000000000000000000000000000000000000006453d9c4000000000000000000000000000000000000000000000000000000000000000000000000000000009ba6f88dd9182cc5f45a9ceb0191e5d89123a3e90000000000000000000000000000000000000000000000000000000000000003000000000000000000000000000000000000000000000000000000000000006000000000000000000000000000000000000000000000000000000000000000057d7c2a1c0000000000000000000000000000000000000000000000000000000053a3d62e00000000000000000000000000000000000000000000000000000000736dcb8b00000000000000000000000000000000000000000000000000000000e0ab98b5000000000000000000000000000000000000000000000000000000007d40af98000000000000000000000000000000000000000000000000000000000000000000000000000000000000000000000000000000000000000000000004e1c7392a00000000000000000000000000000000000000000000000000000000",
        "nonce": "0x534",
        "chainId": "0xaa36a7"
      },
      "additionalContracts": [],
      "isFixedGasLimit": false
    },
    {
      "hash": "0x6e4b503f6d76b2e3a4e5f9002c79c15892d523c8d3f31195e5c2eff76220b460",
      "transactionType": "CALL",
      "contractName": "ERC1967Proxy",
      "contractAddress": "0xcc6f0dd68d6ad6562426a589ec5cdb96c37f7b23",
      "function": null,
      "arguments": null,
      "transaction": {
        "from": "0xb05a948b5c1b057b88d381bde3a375efea87ebad",
        "to": "0xcc6f0dd68d6ad6562426a589ec5cdb96c37f7b23",
        "gas": "0x408f1",
        "value": "0x0",
        "input": "0x1f931c1c0000000000000000000000000000000000000000000000000000000000000060000000000000000000000000f0d3f695dd6dea9211ac4e8f43014ed92a7d54c1000000000000000000000000000000000000000000000000000000000000044000000000000000000000000000000000000000000000000000000000000000030000000000000000000000000000000000000000000000000000000000000060000000000000000000000000000000000000000000000000000000000000018000000000000000000000000000000000000000000000000000000000000002a0000000000000000000000000694576368c752d2db51530ef1b69d7583a141887000000000000000000000000000000000000000000000000000000000000000300000000000000000000000000000000000000000000000000000000000000600000000000000000000000000000000000000000000000000000000000000005d5b7cc5400000000000000000000000000000000000000000000000000000000c6cdc98000000000000000000000000000000000000000000000000000000000924e670400000000000000000000000000000000000000000000000000000000c69271ec00000000000000000000000000000000000000000000000000000000170aba0d0000000000000000000000000000000000000000000000000000000000000000000000000000000080bea2aa0bb47d93186fbcf01dcec83752c81d67000000000000000000000000000000000000000000000000000000000000000300000000000000000000000000000000000000000000000000000000000000600000000000000000000000000000000000000000000000000000000000000005814516ad00000000000000000000000000000000000000000000000000000000782aadff000000000000000000000000000000000000000000000000000000002ed04b2b000000000000000000000000000000000000000000000000000000001ddf1e23000000000000000000000000000000000000000000000000000000006453d9c4000000000000000000000000000000000000000000000000000000000000000000000000000000009ba6f88dd9182cc5f45a9ceb0191e5d89123a3e90000000000000000000000000000000000000000000000000000000000000003000000000000000000000000000000000000000000000000000000000000006000000000000000000000000000000000000000000000000000000000000000057d7c2a1c0000000000000000000000000000000000000000000000000000000053a3d62e00000000000000000000000000000000000000000000000000000000736dcb8b00000000000000000000000000000000000000000000000000000000e0ab98b5000000000000000000000000000000000000000000000000000000007d40af98000000000000000000000000000000000000000000000000000000000000000000000000000000000000000000000000000000000000000000000004e1c7392a00000000000000000000000000000000000000000000000000000000",
        "nonce": "0x535",
        "chainId": "0xaa36a7"
      },
      "additionalContracts": [],
      "isFixedGasLimit": false
    },
    {
      "hash": "0xcbadc203e70d2a89cac3045b02f775eef3ba1494debf2bce7460a9316553b086",
      "transactionType": "CALL",
      "contractName": "ERC1967Proxy",
      "contractAddress": "0xe01464829b1b888bf92a8d1cec3114bb9787984d",
      "function": null,
      "arguments": null,
      "transaction": {
        "from": "0xb05a948b5c1b057b88d381bde3a375efea87ebad",
        "to": "0xe01464829b1b888bf92a8d1cec3114bb9787984d",
        "gas": "0x10c84",
        "value": "0x0",
        "input": "0x1b71f0e4000000000000000000000000937845385226217aefbecd6a4da35b2162f91c37",
        "nonce": "0x536",
        "chainId": "0xaa36a7"
      },
      "additionalContracts": [],
      "isFixedGasLimit": false
    },
    {
      "hash": "0x8fec9daef95b037851923915a0db5d486c4abe3bdd21453bcad32fd14554c07e",
      "transactionType": "CALL",
      "contractName": "ERC1967Proxy",
      "contractAddress": "0xe01464829b1b888bf92a8d1cec3114bb9787984d",
      "function": null,
      "arguments": null,
      "transaction": {
        "from": "0xb05a948b5c1b057b88d381bde3a375efea87ebad",
        "to": "0xe01464829b1b888bf92a8d1cec3114bb9787984d",
        "gas": "0x4bcfb",
        "value": "0x0",
        "input": "0xa6a85d880000000000000000000000000000000000000000000000000000000000000060000000000000000000000000f0d3f695dd6dea9211ac4e8f43014ed92a7d54c10000000000000000000000000000000000000000000000000000000000000ba00000000000000000000000000000000000000000000000000000000000000009000000000000000000000000000000000000000000000000000000000000012000000000000000000000000000000000000000000000000000000000000002400000000000000000000000000000000000000000000000000000000000000360000000000000000000000000000000000000000000000000000000000000044000000000000000000000000000000000000000000000000000000000000005000000000000000000000000000000000000000000000000000000000000000700000000000000000000000000000000000000000000000000000000000000082000000000000000000000000000000000000000000000000000000000000009000000000000000000000000000000000000000000000000000000000000000a0000000000000000000000000044c41a4f4f6086f9d3b53ba219e50664da5b43670000000000000000000000000000000000000000000000000000000000000003000000000000000000000000000000000000000000000000000000000000006000000000000000000000000000000000000000000000000000000000000000057a0ed62700000000000000000000000000000000000000000000000000000000adfca15e0000000000000000000000000000000000000000000000000000000052ef6b2c00000000000000000000000000000000000000000000000000000000cdffacc60000000000000000000000000000000000000000000000000000000001ffc9a700000000000000000000000000000000000000000000000000000000000000000000000000000000694576368c752d2db51530ef1b69d7583a141887000000000000000000000000000000000000000000000000000000000000000300000000000000000000000000000000000000000000000000000000000000600000000000000000000000000000000000000000000000000000000000000005d5b7cc5400000000000000000000000000000000000000000000000000000000c6cdc98000000000000000000000000000000000000000000000000000000000924e670400000000000000000000000000000000000000000000000000000000c69271ec00000000000000000000000000000000000000000000000000000000170aba0d0000000000000000000000000000000000000000000000000000000000000000000000000000000049aed03293770b7f4820a423a6d2a1c5f14588f4000000000000000000000000000000000000000000000000000000000000000300000000000000000000000000000000000000000000000000000000000000600000000000000000000000000000000000000000000000000000000000000003ef2920fc000000000000000000000000000000000000000000000000000000000a6f0ee9000000000000000000000000000000000000000000000000000000004ab4ba4200000000000000000000000000000000000000000000000000000000000000000000000000000000aef397243f375f578327c6ebb7f58a29c1217bf7000000000000000000000000000000000000000000000000000000000000000300000000000000000000000000000000000000000000000000000000000000600000000000000000000000000000000000000000000000000000000000000002b41596ec00000000000000000000000000000000000000000000000000000000311a6c56000000000000000000000000000000000000000000000000000000000000000000000000000000004fda6b8e4430a80f8cabcc319511daf59643586f00000000000000000000000000000000000000000000000000000000000000030000000000000000000000000000000000000000000000000000000000000060000000000000000000000000000000000000000000000000000000000000000c1add1a0d00000000000000000000000000000000000000000000000000000000222a3a0400000000000000000000000000000000000000000000000000000000adaf157b0000000000000000000000000000000000000000000000000000000060b4778900000000000000000000000000000000000000000000000000000000136439dd0000000000000000000000000000000000000000000000000000000080c4a65f000000000000000000000000000000000000000000000000000000003f4ba83a00000000000000000000000000000000000000000000000000000000bac1e94b00000000000000000000000000000000000000000000000000000000b187bd260000000000000000000000000000000000000000000000000000000009b65e6600000000000000000000000000000000000000000000000000000000da748b10000000000000000000000000000000000000000000000000000000002d2ebbef0000000000000000000000000000000000000000000000000000000000000000000000000000000080bea2aa0bb47d93186fbcf01dcec83752c81d67000000000000000000000000000000000000000000000000000000000000000300000000000000000000000000000000000000000000000000000000000000600000000000000000000000000000000000000000000000000000000000000005814516ad00000000000000000000000000000000000000000000000000000000782aadff000000000000000000000000000000000000000000000000000000002ed04b2b000000000000000000000000000000000000000000000000000000001ddf1e23000000000000000000000000000000000000000000000000000000006453d9c400000000000000000000000000000000000000000000000000000000000000000000000000000000aa34a13daa41c88e075aeee91480b8d9be43e4d10000000000000000000000000000000000000000000000000000000000000003000000000000000000000000000000000000000000000000000000000000006000000000000000000000000000000000000000000000000000000000000000032bbe0cae00000000000000000000000000000000000000000000000000000000e0a8f6f500000000000000000000000000000000000000000000000000000000141e3b3800000000000000000000000000000000000000000000000000000000000000000000000000000000b4635b74dc2d7fab3af1f40073d43e636f51bc7a0000000000000000000000000000000000000000000000000000000000000003000000000000000000000000000000000000000000000000000000000000006000000000000000000000000000000000000000000000000000000000000000043eadbd0f0000000000000000000000000000000000000000000000000000000001cf0869000000000000000000000000000000000000000000000000000000009f00879c00000000000000000000000000000000000000000000000000000000c5aab6ed000000000000000000000000000000000000000000000000000000000000000000000000000000009ba6f88dd9182cc5f45a9ceb0191e5d89123a3e90000000000000000000000000000000000000000000000000000000000000003000000000000000000000000000000000000000000000000000000000000006000000000000000000000000000000000000000000000000000000000000000057d7c2a1c0000000000000000000000000000000000000000000000000000000053a3d62e00000000000000000000000000000000000000000000000000000000736dcb8b00000000000000000000000000000000000000000000000000000000e0ab98b5000000000000000000000000000000000000000000000000000000007d40af98000000000000000000000000000000000000000000000000000000000000000000000000000000000000000000000000000000000000000000000004e1c7392a00000000000000000000000000000000000000000000000000000000",
        "nonce": "0x537",
        "chainId": "0xaa36a7"
      },
      "additionalContracts": [],
      "isFixedGasLimit": false
    }
  ],
  "receipts": [
    {
      "status": "0x1",
      "cumulativeGasUsed": "0x19826f3",
      "logs": [
        {
          "address": "0x1d5027d7fd0ee051072550c373e20903cdc2d092",
          "topics": [
            "0x8faa70878671ccd212d20771b795c50af8fd3ff6cf27f4bde57e5d4de0aeb673"
          ],
          "data": "0x0000000000000000000000000000000000000000000000000000000000000060000000000000000000000000f0d3f695dd6dea9211ac4e8f43014ed92a7d54c1000000000000000000000000000000000000000000000000000000000000044000000000000000000000000000000000000000000000000000000000000000030000000000000000000000000000000000000000000000000000000000000060000000000000000000000000000000000000000000000000000000000000018000000000000000000000000000000000000000000000000000000000000002a0000000000000000000000000694576368c752d2db51530ef1b69d7583a141887000000000000000000000000000000000000000000000000000000000000000300000000000000000000000000000000000000000000000000000000000000600000000000000000000000000000000000000000000000000000000000000005d5b7cc5400000000000000000000000000000000000000000000000000000000c6cdc98000000000000000000000000000000000000000000000000000000000924e670400000000000000000000000000000000000000000000000000000000c69271ec00000000000000000000000000000000000000000000000000000000170aba0d0000000000000000000000000000000000000000000000000000000000000000000000000000000080bea2aa0bb47d93186fbcf01dcec83752c81d67000000000000000000000000000000000000000000000000000000000000000300000000000000000000000000000000000000000000000000000000000000600000000000000000000000000000000000000000000000000000000000000005814516ad00000000000000000000000000000000000000000000000000000000782aadff000000000000000000000000000000000000000000000000000000002ed04b2b000000000000000000000000000000000000000000000000000000001ddf1e23000000000000000000000000000000000000000000000000000000006453d9c4000000000000000000000000000000000000000000000000000000000000000000000000000000009ba6f88dd9182cc5f45a9ceb0191e5d89123a3e90000000000000000000000000000000000000000000000000000000000000003000000000000000000000000000000000000000000000000000000000000006000000000000000000000000000000000000000000000000000000000000000057d7c2a1c0000000000000000000000000000000000000000000000000000000053a3d62e00000000000000000000000000000000000000000000000000000000736dcb8b00000000000000000000000000000000000000000000000000000000e0ab98b5000000000000000000000000000000000000000000000000000000007d40af98000000000000000000000000000000000000000000000000000000000000000000000000000000000000000000000000000000000000000000000004e1c7392a00000000000000000000000000000000000000000000000000000000",
          "blockHash": "0xa3020ad55a41a8fa973692f5e2bd8d4044741b7dac8f943b423563adfa6be003",
          "blockNumber": "0xa74544",
          "blockTimestamp": "0x6a1c6154",
          "transactionHash": "0xc173ce47c496df3a852a1547bd6fb62c3e613e32dec8b9a39b2e58b5984120a5",
          "transactionIndex": "0xe4",
          "logIndex": "0x2d8",
          "removed": false
        }
      ],
      "logsBloom": "0x00000000000000000040000000000000000000000000000000000000000000000000000000000000000000000000000000000008000000000000000000000000000000000000000000000000000000000000000001000000000800000000000000000000000000000000000100000000000000000000000000000000000000000020000000000000000000000000000000000000000000000000000000000000000000000000000000000000000000000000000000000000000000000000000000000000000000000000000000000000000000000000000000000000000000000000000000000000000000000000000000000000000000000000000000000000",
      "type": "0x2",
      "transactionHash": "0xc173ce47c496df3a852a1547bd6fb62c3e613e32dec8b9a39b2e58b5984120a5",
      "transactionIndex": "0xe4",
      "blockHash": "0xa3020ad55a41a8fa973692f5e2bd8d4044741b7dac8f943b423563adfa6be003",
      "blockNumber": "0xa74544",
      "gasUsed": "0x2ebd5",
      "effectiveGasPrice": "0x594f54d9",
      "from": "0xb05a948b5c1b057b88d381bde3a375efea87ebad",
      "to": "0x1d5027d7fd0ee051072550c373e20903cdc2d092",
      "contractAddress": null
    },
    {
      "status": "0x1",
      "cumulativeGasUsed": "0x19b12c8",
      "logs": [
        {
          "address": "0xc018a1a2703bfae909e2b44718e77ba9cf57aabb",
          "topics": [
            "0x8faa70878671ccd212d20771b795c50af8fd3ff6cf27f4bde57e5d4de0aeb673"
          ],
          "data": "0x0000000000000000000000000000000000000000000000000000000000000060000000000000000000000000f0d3f695dd6dea9211ac4e8f43014ed92a7d54c1000000000000000000000000000000000000000000000000000000000000044000000000000000000000000000000000000000000000000000000000000000030000000000000000000000000000000000000000000000000000000000000060000000000000000000000000000000000000000000000000000000000000018000000000000000000000000000000000000000000000000000000000000002a0000000000000000000000000694576368c752d2db51530ef1b69d7583a141887000000000000000000000000000000000000000000000000000000000000000300000000000000000000000000000000000000000000000000000000000000600000000000000000000000000000000000000000000000000000000000000005d5b7cc5400000000000000000000000000000000000000000000000000000000c6cdc98000000000000000000000000000000000000000000000000000000000924e670400000000000000000000000000000000000000000000000000000000c69271ec00000000000000000000000000000000000000000000000000000000170aba0d0000000000000000000000000000000000000000000000000000000000000000000000000000000080bea2aa0bb47d93186fbcf01dcec83752c81d67000000000000000000000000000000000000000000000000000000000000000300000000000000000000000000000000000000000000000000000000000000600000000000000000000000000000000000000000000000000000000000000005814516ad00000000000000000000000000000000000000000000000000000000782aadff000000000000000000000000000000000000000000000000000000002ed04b2b000000000000000000000000000000000000000000000000000000001ddf1e23000000000000000000000000000000000000000000000000000000006453d9c4000000000000000000000000000000000000000000000000000000000000000000000000000000009ba6f88dd9182cc5f45a9ceb0191e5d89123a3e90000000000000000000000000000000000000000000000000000000000000003000000000000000000000000000000000000000000000000000000000000006000000000000000000000000000000000000000000000000000000000000000057d7c2a1c0000000000000000000000000000000000000000000000000000000053a3d62e00000000000000000000000000000000000000000000000000000000736dcb8b00000000000000000000000000000000000000000000000000000000e0ab98b5000000000000000000000000000000000000000000000000000000007d40af98000000000000000000000000000000000000000000000000000000000000000000000000000000000000000000000000000000000000000000000004e1c7392a00000000000000000000000000000000000000000000000000000000",
          "blockHash": "0xa3020ad55a41a8fa973692f5e2bd8d4044741b7dac8f943b423563adfa6be003",
          "blockNumber": "0xa74544",
          "blockTimestamp": "0x6a1c6154",
          "transactionHash": "0x55c9372e28d750dcc560c276a5de6ac7e19de62608a7d09f105c58c7fcefaa69",
          "transactionIndex": "0xe5",
          "logIndex": "0x2d9",
          "removed": false
        }
      ],
      "logsBloom": "0x00000000000000000000000000000000000000000000200000000000000000000000000000000000000000000000000000000000000000000000000000000000000000000000000000000000000000000000000001000000000800000000000000000000000000000000000000000000000000000000000000000000000000000020000000000000000000000000000000000000000000000000000000004000000000000000000000000000000000000000000000000000000000000000000000000200000000000000000000000000000000000000000000000000000000000000000000000000000000000000000000000000000000000000000000000000",
      "type": "0x2",
      "transactionHash": "0x55c9372e28d750dcc560c276a5de6ac7e19de62608a7d09f105c58c7fcefaa69",
      "transactionIndex": "0xe5",
      "blockHash": "0xa3020ad55a41a8fa973692f5e2bd8d4044741b7dac8f943b423563adfa6be003",
      "blockNumber": "0xa74544",
      "gasUsed": "0x2ebd5",
      "effectiveGasPrice": "0x594f54d9",
      "from": "0xb05a948b5c1b057b88d381bde3a375efea87ebad",
      "to": "0xc018a1a2703bfae909e2b44718e77ba9cf57aabb",
      "contractAddress": null
    },
    {
      "status": "0x1",
      "cumulativeGasUsed": "0x19dfe9d",
      "logs": [
        {
          "address": "0xcc6f0dd68d6ad6562426a589ec5cdb96c37f7b23",
          "topics": [
            "0x8faa70878671ccd212d20771b795c50af8fd3ff6cf27f4bde57e5d4de0aeb673"
          ],
          "data": "0x0000000000000000000000000000000000000000000000000000000000000060000000000000000000000000f0d3f695dd6dea9211ac4e8f43014ed92a7d54c1000000000000000000000000000000000000000000000000000000000000044000000000000000000000000000000000000000000000000000000000000000030000000000000000000000000000000000000000000000000000000000000060000000000000000000000000000000000000000000000000000000000000018000000000000000000000000000000000000000000000000000000000000002a0000000000000000000000000694576368c752d2db51530ef1b69d7583a141887000000000000000000000000000000000000000000000000000000000000000300000000000000000000000000000000000000000000000000000000000000600000000000000000000000000000000000000000000000000000000000000005d5b7cc5400000000000000000000000000000000000000000000000000000000c6cdc98000000000000000000000000000000000000000000000000000000000924e670400000000000000000000000000000000000000000000000000000000c69271ec00000000000000000000000000000000000000000000000000000000170aba0d0000000000000000000000000000000000000000000000000000000000000000000000000000000080bea2aa0bb47d93186fbcf01dcec83752c81d67000000000000000000000000000000000000000000000000000000000000000300000000000000000000000000000000000000000000000000000000000000600000000000000000000000000000000000000000000000000000000000000005814516ad00000000000000000000000000000000000000000000000000000000782aadff000000000000000000000000000000000000000000000000000000002ed04b2b000000000000000000000000000000000000000000000000000000001ddf1e23000000000000000000000000000000000000000000000000000000006453d9c4000000000000000000000000000000000000000000000000000000000000000000000000000000009ba6f88dd9182cc5f45a9ceb0191e5d89123a3e90000000000000000000000000000000000000000000000000000000000000003000000000000000000000000000000000000000000000000000000000000006000000000000000000000000000000000000000000000000000000000000000057d7c2a1c0000000000000000000000000000000000000000000000000000000053a3d62e00000000000000000000000000000000000000000000000000000000736dcb8b00000000000000000000000000000000000000000000000000000000e0ab98b5000000000000000000000000000000000000000000000000000000007d40af98000000000000000000000000000000000000000000000000000000000000000000000000000000000000000000000000000000000000000000000004e1c7392a00000000000000000000000000000000000000000000000000000000",
          "blockHash": "0xa3020ad55a41a8fa973692f5e2bd8d4044741b7dac8f943b423563adfa6be003",
          "blockNumber": "0xa74544",
          "blockTimestamp": "0x6a1c6154",
          "transactionHash": "0x6e4b503f6d76b2e3a4e5f9002c79c15892d523c8d3f31195e5c2eff76220b460",
          "transactionIndex": "0xe6",
          "logIndex": "0x2da",
          "removed": false
        }
      ],
      "logsBloom": "0x00000000000000000000000000000000000000000000000000000000000000000000000000000000040000000000000000000000000000000000000000000000000000000000000000000000000000000000000001000000000800000000040000000000000000000000000000000000000000000000000000000000000000000020000000000000000000000000000000000000000000000000000000000000000000000000000000000000000000000000000000000000000000000000000000000000000000000000004000000000000000000000000000000000000000000000000000000000000000000000000000000000000000000000000000000000",
      "type": "0x2",
      "transactionHash": "0x6e4b503f6d76b2e3a4e5f9002c79c15892d523c8d3f31195e5c2eff76220b460",
      "transactionIndex": "0xe6",
      "blockHash": "0xa3020ad55a41a8fa973692f5e2bd8d4044741b7dac8f943b423563adfa6be003",
      "blockNumber": "0xa74544",
      "gasUsed": "0x2ebd5",
      "effectiveGasPrice": "0x594f54d9",
      "from": "0xb05a948b5c1b057b88d381bde3a375efea87ebad",
      "to": "0xcc6f0dd68d6ad6562426a589ec5cdb96c37f7b23",
      "contractAddress": null
    },
    {
      "status": "0x1",
      "cumulativeGasUsed": "0x19eb637",
      "logs": [],
      "logsBloom": "0x00000000000000000000000000000000000000000000000000000000000000000000000000000000000000000000000000000000000000000000000000000000000000000000000000000000000000000000000000000000000000000000000000000000000000000000000000000000000000000000000000000000000000000000000000000000000000000000000000000000000000000000000000000000000000000000000000000000000000000000000000000000000000000000000000000000000000000000000000000000000000000000000000000000000000000000000000000000000000000000000000000000000000000000000000000000",
      "type": "0x2",
      "transactionHash": "0xcbadc203e70d2a89cac3045b02f775eef3ba1494debf2bce7460a9316553b086",
      "transactionIndex": "0xe7",
      "blockHash": "0xa3020ad55a41a8fa973692f5e2bd8d4044741b7dac8f943b423563adfa6be003",
      "blockNumber": "0xa74544",
      "gasUsed": "0xb79a",
      "effectiveGasPrice": "0x594f54d9",
      "from": "0xb05a948b5c1b057b88d381bde3a375efea87ebad",
      "to": "0xe01464829b1b888bf92a8d1cec3114bb9787984d",
      "contractAddress": null
    },
    {
      "status": "0x1",
      "cumulativeGasUsed": "0x1a22465",
      "logs": [],
      "logsBloom": "0x00000000000000000000000000000000000000000000000000000000000000000000000000000000000000000000000000000000000000000000000000000000000000000000000000000000000000000000000000000000000000000000000000000000000000000000000000000000000000000000000000000000000000000000000000000000000000000000000000000000000000000000000000000000000000000000000000000000000000000000000000000000000000000000000000000000000000000000000000000000000000000000000000000000000000000000000000000000000000000000000000000000000000000000000000000000",
      "type": "0x2",
      "transactionHash": "0x8fec9daef95b037851923915a0db5d486c4abe3bdd21453bcad32fd14554c07e",
      "transactionIndex": "0xe8",
      "blockHash": "0xa3020ad55a41a8fa973692f5e2bd8d4044741b7dac8f943b423563adfa6be003",
      "blockNumber": "0xa74544",
      "gasUsed": "0x36e2e",
      "effectiveGasPrice": "0x594f54d9",
      "from": "0xb05a948b5c1b057b88d381bde3a375efea87ebad",
      "to": "0xe01464829b1b888bf92a8d1cec3114bb9787984d",
      "contractAddress": null
    }
  ],
  "libraries": [
    "pkg/contracts/src/CVStrategy/ConvictionsUtils.sol:ConvictionsUtils:0x36EAc4Ca8389E35D66978e94c811F959e5A158f2",
    "pkg/contracts/src/CVStrategy/PowerManagementUtils.sol:PowerManagementUtils:0xB07d76F6001Cc62739d39cb0C5E9c58E08230486"
  ],
  "pending": [],
  "returns": {},
  "timestamp": 1780244821517,
  "chain": 11155111,
  "commit": "4bc7b8d39"
}