{
  "transactions": [
    {
      "hash": "0xa149e07d5b42db23188e75a263f78e6a7582235ac113951d7e0b64149acba1d4",
      "transactionType": "CREATE",
      "contractName": "RegistryCommunity",
      "contractAddress": "0x1d2c00208dd9cb6cc788aacb6b07a9071b5772a8",
      "function": null,
      "arguments": null,
      "transaction": {
        "from": "0xcfb802de1046d47405b3197c3ccd340ed91ca80d",
        "gas": "0x4cf937",
        "value": "0x0",
        "input": "0x60a06040523060805234801562000014575f80fd5b506200001f62000025565b620000e3565b5f54610100900460ff1615620000915760405162461bcd60e51b815260206004820152602760248201527f496e697469616c697a61626c653a20636f6e747261637420697320696e697469604482015266616c697a696e6760c81b606482015260840160405180910390fd5b5f5460ff90811614620000e1575f805460ff191660ff9081179091556040519081527f7f26b83ff96e1f2b6a682f133852f6798a09c465da95921460cefb38474024989060200160405180910390a15b565b6080516144aa620001185f395f818161144f0152818161148f0152818161154c0152818161158c015261160301526144aa5ff3fe608060405260043610610340575f3560e01c806301ffc9a7146103e8578063025313a21461041c5780630331383c1461043d57806308386eba1461045f5780630b03bb9a146104745780630d12bbdb146104935780630d4a8b49146104ad578063175188e8146104cc5780631add1a0d146104cc5780631b71f0e4146104e65780631f787d28146105055780631f931c1c1461051d578063223e5479146104cc57806322bcf999146104ad578063248a9ca31461053c57806328c309e91461043d5780632b38c69c1461055b5780632c611c4a1461057a5780632f2ff15d1461059957806331f61bca1461049357806333960459146105b857806334196355146105cd57806336568abe146105ec5780633659cfe61461060b578063397e2543146104cc5780633a871fe11461062a578063411481e614610659578063477a5cc0146106785780634f1ef286146106b257806352d1902d146106c5578063559de05d146104935780635c94e4d2146106d95780635ecf71c51461049357806365e3864c146106f95780636871eb4d146104ad57806368decabb146107305780636c53db9a14610750578063715018a61461077057806373265c3714610493578063733a2d1f1461078457806376e92559146107a457806377122d56146107ba5780637817ee4f146107da57806378a0b8a9146107f95780637b1039991461080e57806382b18ef41461082e57806382d6a1e71461049357806388cfe6841461086a5780638961be6b146108d95780638da5cb5b146108ee57806391d14854146109025780639a1f46e214610921578063a0cf0aea1461093b578063a217fddf14610962578063a230c52414610975578063b0d3713a1461098f578063b3f00674146109ae578063b5058c50146109d2578063b64e39af146109e6578063b99b4370146109d2578063bc063e1a14610a07578063c4d66de814610a1b578063c6d572ae14610a3a578063ce7e2cd314610a4e578063d547741f14610a6d578063d6d8428d14610a8c578063d7050f0714610aac578063db61d65c14610ac1578063ebd7dc5214610975578063f2d774e714610ae1578063f2fde38b14610afb578063f86c5f8914610b1a578063fb1f6917146104cc578063ffa1ad7414610b3a575b34801561034b575f80fd5b505f80356001600160e01b03191681525f80516020614363833981519152602081905260409091205481906001600160a01b0316806103b3575f356001600160e01b031916604051634715d1b560e11b81526004016103aa9190612eca565b60405180910390fd5b6103c85f356001600160e01b03191682610b68565b365f80375f80365f845af43d5f803e8080156103e2573d5ff35b3d5ffd5b005b3480156103f3575f80fd5b50610407610402366004612ef4565b610d11565b60405190151581526020015b60405180910390f35b348015610427575f80fd5b50610430610d47565b6040516104139190612f0f565b348015610448575f80fd5b50610451610d5f565b604051908152602001610413565b34801561046a575f80fd5b5061045160fe5481565b34801561047f575f80fd5b506103e661048e366004612f3b565b610d6b565b34801561049e575f80fd5b506103e661048e366004612f56565b3480156104b8575f80fd5b506103e66104c7366004612f8c565b610d76565b3480156104d7575f80fd5b506103e661048e366004612fc3565b3480156104f1575f80fd5b506103e6610500366004612fc3565b610d82565b348015610510575f80fd5b5060ff8054610407911681565b348015610528575f80fd5b506103e6610537366004613022565b610dad565b348015610547575f80fd5b50610451610556366004612f56565b610e05565b348015610566575f80fd5b506104306105753660046130ca565b610e19565b348015610585575f80fd5b50610451610594366004612fc3565b610e4e565b3480156105a4575f80fd5b506103e66105b33660046130f4565b610e5c565b3480156105c3575f80fd5b5061045160fd5481565b3480156105d8575f80fd5b506103e66105e73660046132b2565b610e78565b3480156105f7575f80fd5b506103e66106063660046130f4565b6113cb565b348015610616575f80fd5b506103e6610625366004612fc3565b611445565b348015610635575f80fd5b50610407610644366004612fc3565b61010a6020525f908152604090205460ff1681565b348015610664575f80fd5b506103e6610673366004612fc3565b611509565b348015610683575f80fd5b50610407610692366004612f8c565b61010e60209081525f928352604080842090915290825290205460ff1681565b6103e66106c036600461341d565b611542565b3480156106d0575f80fd5b506104516115f7565b3480156106e4575f80fd5b5061010254610430906001600160a01b031681565b348015610704575f80fd5b50610451610713366004612f8c565b61010b60209081525f928352604080842090915290825290205481565b34801561073b575f80fd5b5061010354610430906001600160a01b031681565b34801561075b575f80fd5b5061010654610430906001600160a01b031681565b34801561077b575f80fd5b506103e66116a3565b34801561078f575f80fd5b506104515f8051602061431e83398151915281565b3480156107af575f80fd5b506104516101105481565b3480156107c5575f80fd5b5061010154610430906001600160a01b031681565b3480156107e5575f80fd5b506104516107f4366004612f8c565b6116b6565b348015610804575f80fd5b5061045160fb5481565b348015610819575f80fd5b5061010454610430906001600160a01b031681565b348015610839575f80fd5b5061084d610848366004613755565b6116bf565b604080519283526001600160a01b03909116602083015201610413565b348015610875575f80fd5b506108b2610884366004612fc3565b61010c6020525f90815260409020805460018201546002909201546001600160a01b03909116919060ff1683565b604080516001600160a01b0390941684526020840192909252151590820152606001610413565b3480156108e4575f80fd5b5061045160fc5481565b3480156108f9575f80fd5b506104306116d2565b34801561090d575f80fd5b5061040761091c3660046130f4565b611760565b34801561092c575f80fd5b506103e661048e3660046137d8565b348015610946575f80fd5b5061043073eeeeeeeeeeeeeeeeeeeeeeeeeeeeeeeeeeeeeeee81565b34801561096d575f80fd5b506104515f81565b348015610980575f80fd5b50610407610594366004612fc3565b34801561099a575f80fd5b506103e66109a9366004612fc3565b61178a565b3480156109b9575f80fd5b5060ff546104309061010090046001600160a01b031681565b3480156109dd575f80fd5b506103e66117b5565b3480156109f1575f80fd5b506109fa6117bd565b6040516104139190613856565b348015610a12575f80fd5b5061045161184a565b348015610a26575f80fd5b506103e6610a35366004612fc3565b61185a565b348015610a45575f80fd5b506109fa611913565b348015610a59575f80fd5b5061084d610a68366004613868565b611921565b348015610a78575f80fd5b506103e6610a873660046130f4565b611933565b348015610a97575f80fd5b5061010754610430906001600160a01b031681565b348015610ab7575f80fd5b5061045161271081565b348015610acc575f80fd5b5061010554610430906001600160a01b031681565b348015610aec575f80fd5b506103e661048e3660046138d8565b348015610b06575f80fd5b506103e6610b15366004612fc3565b61194f565b348015610b25575f80fd5b5061010054610430906001600160a01b031681565b348015610b45575f80fd5b506109fa604051806040016040528060038152602001620302e360ec1b81525081565b610b706119c5565b600101546001600160a01b0390811690821603610b8b575050565b610b94826119e9565b15610b9d575050565b5f610ba66119c5565b546001600160a01b0316905080610bbc57505050565b806001600160a01b03163b5f03610bd257505050565b604051635b14f18360e01b81526001600160a01b03821690635b14f18390610bfe903090600401612f0f565b602060405180830381865afa158015610c19573d5f803e3d5ffd5b505050506040513d601f19601f82011682018060405250810190610c3d91906139a9565b15610c5d5780604051633b330e0160e11b81526004016103aa9190612f0f565b6040516374b896f160e01b81523060048201526001600160e01b0319841660248201526001600160a01b038216906374b896f190604401602060405180830381865afa158015610caf573d5f803e3d5ffd5b505050506040513d601f19601f82011682018060405250810190610cd391906139a9565b15610d0c57604051630b0eb9ef60e41b81526001600160e01b0319841660048201526001600160a01b03821660248201526044016103aa565b505050565b5f6001600160e01b03198216637965db0b60e01b1480610d4157506301ffc9a760e01b6001600160e01b03198316145b92915050565b5f610d5a6033546001600160a01b031690565b905090565b5f610d68611b2c565b90565b610d73611b2c565b50565b610d7e611b2c565b5050565b610d8a611b8a565b61010280546001600160a01b0319166001600160a01b0392909216919091179055565b610db5611b8a565b610dfe610dc285876139d0565b8484848080601f0160208091040260200160405190810160405280939291908181526020018383808284375f92019190915250611be992505050565b5050505050565b5f90815260c9602052604090206001015490565b61010d602052815f5260405f208181548110610e33575f80fd5b5f918252602090912001546001600160a01b03169150829050565b5f610e57611b2c565b919050565b610e6582610e05565b610e6e81611d52565b610d0c8383611d5c565b5f54610100900460ff1615808015610e9657505f54600160ff909116105b80610eb65750610ea530611de1565b158015610eb657505f5460ff166001145b610ed25760405162461bcd60e51b81526004016103aa90613aef565b5f805460ff191660011790558015610ef3575f805461ff0019166101001790555b610f008560a00151611df0565b5f805f8760a001516001600160a01b0316631f3854b46040518163ffffffff1660e01b81526004015f60405180830381865afa158015610f42573d5f803e3d5ffd5b505050506040513d5f823e601f3d908101601f19168201604052610f699190810190613b8a565b9250925092505f835111610fbb5760405162461bcd60e51b815260206004820152601960248201527810dbdb5b5d5b9a5d1e48199858d95d1cc81c995c5d5a5c9959603a1b60448201526064016103aa565b610fc48561185a565b610fcd85611e17565b610fd8838383611be9565b610fe0611e62565b610fe8611e90565b610fff5f8051602061431e8339815191525f611eb6565b61100c8860200151611df0565b61101a886101000151611df0565b875161102590611df0565b60608801511561103c5761103c8860c00151611df0565b875161010780546001600160a01b039283166001600160a01b03199182161790915560208a0151610105805491909316911617905560408801515f03611095576040516363868c5560e11b815260040160405180910390fd5b604088015160fb55606088015160fc5561014088015160ff805460ff1916911515919091179055610120880151610108906110d09082613d96565b50610160880151610109906110e59082613d96565b5060a088015161010080546001600160a01b0319166001600160a01b0390921691821790553b1561119b578760a001516001600160a01b0316638c68f2a96040518163ffffffff1660e01b8152600401602060405180830381865afa158015611150573d5f803e3d5ffd5b505050506040513d601f19601f820116820180604052508101906111749190613e55565b61117c6119c5565b80546001600160a01b0319166001600160a01b03929092169190911790555b60c088015160ff8054610100600160a81b0319166101006001600160a01b0393841681029190911790915589015161010680546001600160a01b031916928216929092179091555f610110556111ff905f8051602061431e83398151915290611d5c565b6101075f9054906101000a90046001600160a01b03166001600160a01b0316635ab1bd536040518163ffffffff1660e01b8152600401602060405180830381865afa158015611250573d5f803e3d5ffd5b505050506040513d601f19601f820116820180604052508101906112749190613e55565b61010480546001600160a01b0319166001600160a01b03929092169182179055608089015160e08a0151604080515f81526020810191829052633a92f65f60e01b90915260609392633a92f65f926112d6926101089190309060248101613f07565b6020604051808303815f875af11580156112f2573d5f803e3d5ffd5b505050506040513d601f19601f820116820180604052508101906113169190613f8f565b60fe81905561010280546001600160a01b03808c166001600160a01b0319928316179092556101018054928b169290911691909117905560e08a01516040517f2f2ffcb06f8a1d35e2716f6b43ef2c19bfa76467d8f66964ae12c2583ed03205926113879290916101089190613fa6565b60405180910390a1505050508015610dfe575f805461ff0019169055604051600181525f8051602061440f8339815191529060200160405180910390a15050505050565b6001600160a01b038116331461143b5760405162461bcd60e51b815260206004820152602f60248201527f416363657373436f6e74726f6c3a2063616e206f6e6c792072656e6f756e636560448201526e103937b632b9903337b91039b2b63360891b60648201526084016103aa565b610d7e8282611f07565b6001600160a01b037f000000000000000000000000000000000000000000000000000000000000000016300361148d5760405162461bcd60e51b81526004016103aa90613fd0565b7f00000000000000000000000000000000000000000000000000000000000000006001600160a01b03166114bf611f6d565b6001600160a01b0316146114e55760405162461bcd60e51b81526004016103aa90614009565b6114ee81611f88565b604080515f80825260208201909252610d7391839190611fd4565b6001600160a01b0381165f90815261010a602052604090205460ff16610d73576040516346c26e4b60e01b815260040160405180910390fd5b6001600160a01b037f000000000000000000000000000000000000000000000000000000000000000016300361158a5760405162461bcd60e51b81526004016103aa90613fd0565b7f00000000000000000000000000000000000000000000000000000000000000006001600160a01b03166115bc611f6d565b6001600160a01b0316146115e25760405162461bcd60e51b81526004016103aa90614009565b6115eb82611f88565b610d7e82826001611fd4565b5f306001600160a01b037f000000000000000000000000000000000000000000000000000000000000000016146116915760405162461bcd60e51b815260206004820152603860248201527f555550535570677261646561626c653a206d757374206e6f742062652063616c6044820152771b1959081d1a1c9bdd59da0819195b1959d85d1958d85b1b60421b60648201526084016103aa565b505f805160206143ef83398151915290565b6116ab611b8a565b6116b45f61213e565b565b5f610d41611b2c565b5f806116c9611b2c565b94509492505050565b5f6116db610d47565b6001600160a01b03163b5f036116f357610d5a610d47565b6116fb610d47565b6001600160a01b0316638da5cb5b6040518163ffffffff1660e01b8152600401602060405180830381865afa925050508015611754575060408051601f3d908101601f1916820190925261175191810190613e55565b60015b610e5757610d5a610d47565b5f91825260c9602090815260408084206001600160a01b0393909316845291905290205460ff1690565b611792611b8a565b61010180546001600160a01b0319166001600160a01b0392909216919091179055565b6116b4611b2c565b61010980546117cb90613d1a565b80601f01602080910402602001604051908101604052809291908181526020018280546117f790613d1a565b80156118425780601f1061181957610100808354040283529160200191611842565b820191905f5260205f20905b81548152906001019060200180831161182557829003601f168201915b505050505081565b611857612710600a614056565b81565b5f54610100900460ff161580801561187857505f54600160ff909116105b80611898575061188730611de1565b15801561189857505f5460ff166001145b6118b45760405162461bcd60e51b81526004016103aa90613aef565b5f805460ff1916600117905580156118d5575f805461ff0019166101001790555b6118de8261213e565b8015610d7e575f805461ff0019169055604051600181525f8051602061440f8339815191529060200160405180910390a15050565b61010880546117cb90613d1a565b5f8061192b611b2c565b935093915050565b61193c82610e05565b61194581611d52565b610d0c8383611f07565b611957611b8a565b6001600160a01b0381166119bc5760405162461bcd60e51b815260206004820152602660248201527f4f776e61626c653a206e6577206f776e657220697320746865207a65726f206160448201526564647265737360d01b60648201526084016103aa565b610d738161213e565b7f12ec43b97389db0cfbdf8d85f200f1b822123856376a9d75d3a6918f27c903bb90565b5f6001600160e01b03198216631add1a0d60e01b1480611a1957506001600160e01b0319821663088a8e8160e21b145b80611a3457506001600160e01b0319821663136439dd60e01b145b80611a4f57506001600160e01b031982166380c4a65f60e01b145b80611a6a57506001600160e01b03198216631fa5d41d60e11b145b80611a8557506001600160e01b0319821663bac1e94b60e01b145b80611aa057506001600160e01b0319821663adaf157b60e01b145b80611abb57506001600160e01b031982166360b4778960e01b145b80611ad657506001600160e01b031982166358c3de9360e11b145b80611af157506001600160e01b031982166304db2f3360e11b145b80611b0c57506001600160e01b03198216630da748b160e41b145b80610d4157506001600160e01b03198216632d2ebbef60e01b1492915050565b5f80356001600160e01b03191681525f80516020614363833981519152602081905260409091205481906001600160a01b0316806103b3575f356001600160e01b031916604051634715d1b560e11b81526004016103aa9190612eca565b33611b936116d2565b6001600160a01b0316146116b45760405162461bcd60e51b815260206004820181905260248201527f4f776e61626c653a2063616c6c6572206973206e6f7420746865206f776e657260448201526064016103aa565b5f5b8351811015611d0c575f848281518110611c0757611c0761406d565b60200260200101516040015190505f858381518110611c2857611c2861406d565b60200260200101515f0151905081515f03611c58578060405163e767f91f60e01b81526004016103aa9190612f0f565b5f868481518110611c6b57611c6b61406d565b60200260200101516020015190505f6003811115611c8b57611c8b614081565b816003811115611c9d57611c9d614081565b03611cb157611cac828461217c565b611d01565b6001816003811115611cc557611cc5614081565b03611cd457611cac8284612306565b6002816003811115611ce857611ce8614081565b03611cf757611cac8284612469565b611d0182846126b3565b505050600101611beb565b507f8faa70878671ccd212d20771b795c50af8fd3ff6cf27f4bde57e5d4de0aeb673838383604051611d40939291906140d9565b60405180910390a1610d0c82826128be565b610d738133612980565b611d668282611760565b610d7e575f82815260c9602090815260408083206001600160a01b03851684529091529020805460ff19166001179055611d9d3390565b6001600160a01b0316816001600160a01b0316837f2f8788117e7eff1d82e926ec794901d17c78024a50270940304540a733656f0d60405160405180910390a45050565b6001600160a01b03163b151590565b6001600160a01b038116610d73576040516363868c5560e11b815260040160405180910390fd5b5f611e206129d9565b6003810180546001600160a01b038581166001600160a01b031983168117909355604051939450169182905f8051602061442f833981519152905f90a3505050565b5f54610100900460ff16611e885760405162461bcd60e51b81526004016103aa906141a0565b6116b46129ea565b5f54610100900460ff166116b45760405162461bcd60e51b81526004016103aa906141a0565b5f611ec083610e05565b5f84815260c96020526040808220600101859055519192508391839186917fbd79b86ffe0ab8e8776151514217cd7cacd52c909f66475c3af44e129f0b00ff9190a4505050565b611f118282611760565b15610d7e575f82815260c9602090815260408083206001600160a01b0385168085529252808320805460ff1916905551339285917ff6391f5c32d9c69d2a47ea670b442974b53935d1edc7fd64eb21e047a839171b9190a45050565b5f805160206143ef833981519152546001600160a01b031690565b33611f916116d2565b6001600160a01b031614610d735733611fa86116d2565b60405163163678e960e01b81526001600160a01b039283166004820152911660248201526044016103aa565b7f4910fdfa16fed3260ed0e7147f7cc6da11a60208b5b9406d12a635614ffd91435460ff161561200757610d0c83612a17565b826001600160a01b03166352d1902d6040518163ffffffff1660e01b8152600401602060405180830381865afa925050508015612061575060408051601f3d908101601f1916820190925261205e91810190613f8f565b60015b6120c45760405162461bcd60e51b815260206004820152602e60248201527f45524331393637557067726164653a206e657720696d706c656d656e7461746960448201526d6f6e206973206e6f74205555505360901b60648201526084016103aa565b5f805160206143ef83398151915281146121325760405162461bcd60e51b815260206004820152602960248201527f45524331393637557067726164653a20756e737570706f727465642070726f786044820152681a58589b195555525160ba1b60648201526084016103aa565b50610d0c838383612ab0565b603380546001600160a01b038381166001600160a01b0319831681179093556040519116919082905f8051602061442f833981519152905f90a35050565b6001600160a01b0382166121a557806040516302b8da0760e21b81526004016103aa91906141eb565b5f6121ae6129d9565b90505f816001018054905090506121dd8460405180606001604052806024815260200161438360249139612ad4565b5f5b8351811015610dfe575f8482815181106121fb576121fb61406d565b6020908102919091018101516001600160e01b031981165f908152918690526040909120549091506001600160a01b0316801561224d578160405163ebbf5d0760e01b81526004016103aa9190612eca565b6040805180820182526001600160a01b03808a16825261ffff80881660208085019182526001600160e01b031988165f9081528b8252958620945185549251909316600160a01b026001600160b01b0319909216929093169190911717909155600180880180549182018155835291206008820401805460e085901c60046007909416939093026101000a92830263ffffffff9093021916919091179055836122f5816141fd565b945050600190920191506121df9050565b5f61230f6129d9565b90506001600160a01b03831661233a578160405163cd98a96f60e01b81526004016103aa91906141eb565b61235c8360405180606001604052806028815260200161447660289139612ad4565b5f5b8251811015612463575f83828151811061237a5761237a61406d565b6020908102919091018101516001600160e01b031981165f908152918590526040909120549091506001600160a01b03163081036123cd5781604051632901806d60e11b81526004016103aa9190612eca565b856001600160a01b0316816001600160a01b0316036124015781604051631ac6ce8d60e11b81526004016103aa9190612eca565b6001600160a01b03811661242a5781604051637479f93960e01b81526004016103aa9190612eca565b506001600160e01b0319165f90815260208390526040902080546001600160a01b0319166001600160a01b03861617905560010161235e565b50505050565b5f6124726129d9565b60018101549091506001600160a01b038416156124a4578360405163d091bc8160e01b81526004016103aa9190612f0f565b5f5b8351811015610dfe575f8482815181106124c2576124c261406d565b6020908102919091018101516001600160e01b031981165f9081528683526040908190208151808301909252546001600160a01b038116808352600160a01b90910461ffff1693820193909352909250906125325781604051637a08a22d60e01b81526004016103aa9190612eca565b8051306001600160a01b03909116036125605781604051630df5fd6160e31b81526004016103aa9190612eca565b8361256a8161421d565b94505083816020015161ffff1614612644575f8560010185815481106125925761259261406d565b905f5260205f2090600891828204019190066004029054906101000a900460e01b90508086600101836020015161ffff16815481106125d3576125d361406d565b5f91825260208083206008830401805463ffffffff60079094166004026101000a938402191660e09590951c92909202939093179055838201516001600160e01b03199390931681529087905260409020805461ffff60a01b1916600160a01b61ffff909316929092029190911790555b8460010180548061265757612657614232565b5f828152602080822060085f1990940193840401805463ffffffff600460078716026101000a0219169055919092556001600160e01b0319909316815291859052506040902080546001600160b01b03191690556001016124a6565b6001600160a01b0382166126dc57806040516302b8da0760e21b81526004016103aa91906141eb565b5f6126e56129d9565b90506127098360405180606001604052806025815260200161433e60259139612ad4565b5f82516001600160401b0381111561272357612723613117565b60405190808252806020026020018201604052801561274c578160200160208202803683370190505b5090505f8084516001600160401b0381111561276a5761276a613117565b604051908082528060200260200182016040528015612793578160200160208202803683370190505b5090505f805b8651811015612882575f8782815181106127b5576127b561406d565b6020908102919091018101516001600160e01b031981165f908152918990526040909120549091506001600160a01b031680612827578187876127f781614246565b9850815181106128095761280961406d565b6001600160e01b031990921660209283029190910190910152612878565b896001600160a01b0316816001600160a01b0316146128785781858561284c81614246565b96508151811061285e5761285e61406d565b6001600160e01b0319909216602092830291909101909101525b5050600101612799565b50821561289c5761289c876128978686612afb565b61217c565b80156128b5576128b5876128b08484612afb565b612306565b50505050505050565b6001600160a01b0382166128d0575050565b6128f2826040518060600160405280602881526020016143a760289139612ad4565b5f80836001600160a01b03168360405161290c919061425e565b5f60405180830381855af49150503d805f8114612944576040519150601f19603f3d011682016040523d82523d5f602084013e612949565b606091505b509150915081612463578051156129635780518082602001fd5b838360405163192105d760e01b81526004016103aa929190614279565b61298a8282611760565b610d7e5761299781612ba1565b6129a2836020612bb3565b6040516020016129b392919061429c565b60408051601f198184030181529082905262461bcd60e51b82526103aa91600401613856565b5f8051602061436383398151915290565b5f54610100900460ff16612a105760405162461bcd60e51b81526004016103aa906141a0565b6001606555565b612a2081611de1565b612a825760405162461bcd60e51b815260206004820152602d60248201527f455243313936373a206e657720696d706c656d656e746174696f6e206973206e60448201526c1bdd08184818dbdb9d1c9858dd609a1b60648201526084016103aa565b5f805160206143ef83398151915280546001600160a01b0319166001600160a01b0392909216919091179055565b612ab983612d4f565b5f82511180612ac55750805b15610d0c576124638383612d8e565b813b5f819003610d0c57828260405163919834b960e01b81526004016103aa929190614279565b60605f826001600160401b03811115612b1657612b16613117565b604051908082528060200260200182016040528015612b3f578160200160208202803683370190505b5090505f5b83811015612b9957848181518110612b5e57612b5e61406d565b6020026020010151828281518110612b7857612b7861406d565b6001600160e01b031990921660209283029190910190910152600101612b44565b509392505050565b6060610d416001600160a01b03831660145b60605f612bc1836002614056565b612bcc90600261430a565b6001600160401b03811115612be357612be3613117565b6040519080825280601f01601f191660200182016040528015612c0d576020820181803683370190505b509050600360fc1b815f81518110612c2757612c2761406d565b60200101906001600160f81b03191690815f1a905350600f60fb1b81600181518110612c5557612c5561406d565b60200101906001600160f81b03191690815f1a9053505f612c77846002614056565b612c8290600161430a565b90505b6001811115612cf9576f181899199a1a9b1b9c1cb0b131b232b360811b85600f1660108110612cb657612cb661406d565b1a60f81b828281518110612ccc57612ccc61406d565b60200101906001600160f81b03191690815f1a90535060049490941c93612cf28161421d565b9050612c85565b508315612d485760405162461bcd60e51b815260206004820181905260248201527f537472696e67733a20686578206c656e67746820696e73756666696369656e7460448201526064016103aa565b9392505050565b612d5881612a17565b6040516001600160a01b038216907fbc7cd75a20ee27fd9adebab32041f755214dbc6bffa90cc0225b39da2e5c2d3b905f90a250565b6060612d48838360405180606001604052806027815260200161444f6027913960605f80856001600160a01b031685604051612dca919061425e565b5f60405180830381855af49150503d805f8114612e02576040519150601f19603f3d011682016040523d82523d5f602084013e612e07565b606091505b5091509150612e1886838387612e22565b9695505050505050565b60608315612e8e5782515f03612e8757612e3b85611de1565b612e875760405162461bcd60e51b815260206004820152601d60248201527f416464726573733a2063616c6c20746f206e6f6e2d636f6e747261637400000060448201526064016103aa565b5081612e98565b612e988383612ea0565b949350505050565b815115612eb05781518083602001fd5b8060405162461bcd60e51b81526004016103aa9190613856565b6001600160e01b031991909116815260200190565b6001600160e01b031981168114610d73575f80fd5b5f60208284031215612f04575f80fd5b8135612d4881612edf565b6001600160a01b0391909116815260200190565b8015158114610d73575f80fd5b8035610e5781612f23565b5f60208284031215612f4b575f80fd5b8135612d4881612f23565b5f60208284031215612f66575f80fd5b5035919050565b6001600160a01b0381168114610d73575f80fd5b8035610e5781612f6d565b5f8060408385031215612f9d575f80fd5b8235612fa881612f6d565b91506020830135612fb881612f6d565b809150509250929050565b5f60208284031215612fd3575f80fd5b8135612d4881612f6d565b5f8083601f840112612fee575f80fd5b5081356001600160401b03811115613004575f80fd5b60208301915083602082850101111561301b575f80fd5b9250929050565b5f805f805f60608688031215613036575f80fd5b85356001600160401b038082111561304c575f80fd5b818801915088601f83011261305f575f80fd5b81358181111561306d575f80fd5b8960208260051b8501011115613081575f80fd5b6020830197508096505061309760208901612f81565b945060408801359150808211156130ac575f80fd5b506130b988828901612fde565b969995985093965092949392505050565b5f80604083850312156130db575f80fd5b82356130e681612f6d565b946020939093013593505050565b5f8060408385031215613105575f80fd5b823591506020830135612fb881612f6d565b634e487b7160e01b5f52604160045260245ffd5b60405161018081016001600160401b038111828210171561314e5761314e613117565b60405290565b60405160e081016001600160401b038111828210171561314e5761314e613117565b604051606081016001600160401b038111828210171561314e5761314e613117565b604051601f8201601f191681016001600160401b03811182821017156131c0576131c0613117565b604052919050565b5f6001600160401b038211156131e0576131e0613117565b50601f01601f191660200190565b5f6132006131fb846131c8565b613198565b9050828152838383011115613213575f80fd5b828260208301375f602084830101529392505050565b5f82601f830112613238575f80fd5b612d48838335602085016131ee565b5f60408284031215613257575f80fd5b604080519081016001600160401b03808211838310171561327a5761327a613117565b81604052829350843583526020850135915080821115613298575f80fd5b506132a585828601613229565b6020830152505092915050565b5f805f80608085870312156132c5575f80fd5b84356001600160401b03808211156132db575f80fd5b9086019061018082890312156132ef575f80fd5b6132f761312b565b61330083612f81565b815261330e60208401612f81565b602082015260408301356040820152606083013560608201526080830135608082015261333d60a08401612f81565b60a082015261334e60c08401612f81565b60c082015260e083013582811115613364575f80fd5b6133708a828601613247565b60e083015250610100613384818501612f81565b90820152610120838101358381111561339b575f80fd5b6133a78b828701613229565b8284015250506101406133bb818501612f30565b9082015261016083810135838111156133d2575f80fd5b6133de8b828701613229565b8284015250508096505050506133f660208601612f81565b925061340460408601612f81565b915061341260608601612f81565b905092959194509250565b5f806040838503121561342e575f80fd5b823561343981612f6d565b915060208301356001600160401b03811115613453575f80fd5b8301601f81018513613463575f80fd5b613472858235602084016131ee565b9150509250929050565b5f6080828403121561348c575f80fd5b604051608081016001600160401b03811182821017156134ae576134ae613117565b8060405250809150823581526020830135602082015260408301356040820152606083013560608201525092915050565b803560038110610e57575f80fd5b803560058110610e57575f80fd5b5f6020828403121561350b575f80fd5b604051602081016001600160401b038111828210171561352d5761352d613117565b6040529135825250919050565b5f60c0828403121561354a575f80fd5b60405160c081016001600160401b038111828210171561356c5761356c613117565b604052905080823561357d81612f6d565b8152602083013561358d81612f6d565b8060208301525060408301356040820152606083013560608201526080830135608082015260a083013560a08201525092915050565b5f6001600160401b038211156135db576135db613117565b5060051b60200190565b5f82601f8301126135f4575f80fd5b813560206136046131fb836135c3565b8083825260208201915060208460051b870101935086841115613625575f80fd5b602086015b8481101561364a57803561363d81612f6d565b835291830191830161362a565b509695505050505050565b5f6102808284031215613666575f80fd5b61366e61312b565b905061367a838361347c565b8152613688608083016134df565b602082015261369960a083016134ed565b60408201526136ab8360c084016134fb565b60608201526136bd8360e0840161353a565b60808201526136cf6101a08301612f81565b60a08201526136e16101c08301612f81565b60c08201526136f36101e08301612f81565b60e08201526102008201356101008201526102208201356001600160401b0381111561371d575f80fd5b613729848285016135e5565b6101208301525061373d6102408301612f81565b61014082015261026082013561016082015292915050565b5f805f8060808587031215613768575f80fd5b843561377381612f6d565b9350602085013561378381612f6d565b925060408501356001600160401b038082111561379e575f80fd5b6137aa88838901613655565b935060608701359150808211156137bf575f80fd5b506137cc87828801613247565b91505092959194509250565b5f602082840312156137e8575f80fd5b81356001600160401b038111156137fd575f80fd5b612e9884828501613229565b5f5b8381101561382357818101518382015260200161380b565b50505f910152565b5f8151808452613842816020860160208601613809565b601f01601f19169290920160200192915050565b602081525f612d48602083018461382b565b5f805f6060848603121561387a575f80fd5b833561388581612f6d565b925060208401356001600160401b03808211156138a0575f80fd5b6138ac87838801613655565b935060408601359150808211156138c1575f80fd5b506138ce86828701613247565b9150509250925092565b5f602082840312156138e8575f80fd5b81356001600160401b03808211156138fe575f80fd5b9083019060e08286031215613911575f80fd5b613919613154565b61392283612f81565b815261393060208401612f81565b602082015260408301356040820152606083013582811115613950575f80fd5b61395c87828601613229565b6060830152506080830135608082015261397860a08401612f30565b60a082015260c08301358281111561398e575f80fd5b61399a87828601613229565b60c08301525095945050505050565b5f602082840312156139b9575f80fd5b8151612d4881612f23565b60048110610d73575f80fd5b5f6139dd6131fb846135c3565b83815260208082019190600586811b8601368111156139fa575f80fd5b865b81811015613ae25780356001600160401b0380821115613a1a575f80fd5b818a01915060608236031215613a2e575f80fd5b613a36613176565b8235613a4181612f6d565b815282870135613a50816139c4565b8188015260408381013583811115613a66575f80fd5b939093019236601f850112613a79575f80fd5b83359250613a896131fb846135c3565b83815292871b84018801928881019036851115613aa4575f80fd5b948901945b84861015613acb578535613abc81612edf565b82529489019490890190613aa9565b9183019190915250885250509483019483016139fc565b5092979650505050505050565b6020808252602e908201527f496e697469616c697a61626c653a20636f6e747261637420697320616c72656160408201526d191e481a5b9a5d1a585b1a5e995960921b606082015260800190565b8051610e5781612f6d565b5f82601f830112613b57575f80fd5b8151613b656131fb826131c8565b818152846020838601011115613b79575f80fd5b612e98826020830160208701613809565b5f805f60608486031215613b9c575f80fd5b83516001600160401b0380821115613bb2575f80fd5b818601915086601f830112613bc5575f80fd5b8151613bd36131fb826135c3565b8082825260208201915060208360051b860101925089831115613bf4575f80fd5b602085015b83811015613ce657805185811115613c0f575f80fd5b86016060818d03601f19011215613c24575f80fd5b613c2c613176565b6020820151613c3a81612f6d565b81526040820151613c4a816139c4565b6020820152606082015187811115613c60575f80fd5b8083019250508c603f830112613c74575f80fd5b6020820151613c856131fb826135c3565b81815260059190911b83016040019060208101908f831115613ca5575f80fd5b6040850194505b82851015613cd0578451613cbf81612edf565b825260209485019490910190613cac565b6040840152505084525060209283019201613bf9565b509650613cf891505060208701613b3d565b93506040860151915080821115613d0d575f80fd5b506138ce86828701613b48565b600181811c90821680613d2e57607f821691505b602082108103613d4c57634e487b7160e01b5f52602260045260245ffd5b50919050565b601f821115610d0c57805f5260205f20601f840160051c81016020851015613d775750805b601f840160051c820191505b81811015610dfe575f8155600101613d83565b81516001600160401b03811115613daf57613daf613117565b613dc381613dbd8454613d1a565b84613d52565b602080601f831160018114613df6575f8415613ddf5750858301515b5f19600386901b1c1916600185901b178555613e4d565b5f85815260208120601f198616915b82811015613e2457888601518255948401946001909101908401613e05565b5085821015613e4157878501515f19600388901b60f8161c191681555b505060018460011b0185555b505050505050565b5f60208284031215613e65575f80fd5b8151612d4881612f6d565b5f8154613e7c81613d1a565b808552602060018381168015613e995760018114613eb357613ede565b60ff1985168884015283151560051b880183019550613ede565b865f52825f205f5b85811015613ed65781548a8201860152908301908401613ebb565b890184019650505b505050505092915050565b805182525f602082015160406020850152612e98604085018261382b565b8581525f602060a06020840152613f2160a0840188613e70565b8381036040850152613f338188613ee9565b6001600160a01b0387811660608701528582036080870152865180835260208089019450919291909101905f5b81811015613f7e578451841683529385019391850191600101613f60565b50909b9a5050505050505050505050565b5f60208284031215613f9f575f80fd5b5051919050565b838152606060208201525f613fbe6060830185613e70565b8281036040840152612e188185613ee9565b6020808252602c908201525f805160206143cf83398151915260408201526b19195b1959d85d1958d85b1b60a21b606082015260800190565b6020808252602c908201525f805160206143cf83398151915260408201526b6163746976652070726f787960a01b606082015260800190565b634e487b7160e01b5f52601160045260245ffd5b8082028115828204841417610d4157610d41614042565b634e487b7160e01b5f52603260045260245ffd5b634e487b7160e01b5f52602160045260245ffd5b5f815180845260208085019450602084015f5b838110156140ce5781516001600160e01b031916875295820195908201906001016140a8565b509495945050505050565b5f60608083016060845280875180835260808601915060808160051b87010192506020808a015f5b8381101561417157888603607f19018552815180516001600160a01b0316875283810151600480821061414157634e487b7160e01b5f526021815260245ffd5b508785015260409081015190870188905261415e88880182614095565b9650509382019390820190600101614101565b50506001600160a01b0389169087015250508381036040850152614195818661382b565b979650505050505050565b6020808252602b908201527f496e697469616c697a61626c653a20636f6e7472616374206973206e6f74206960408201526a6e697469616c697a696e6760a81b606082015260800190565b602081525f612d486020830184614095565b5f61ffff80831681810361421357614213614042565b6001019392505050565b5f8161422b5761422b614042565b505f190190565b634e487b7160e01b5f52603160045260245ffd5b5f6001820161425757614257614042565b5060010190565b5f825161426f818460208701613809565b9190910192915050565b6001600160a01b03831681526040602082018190525f90612e989083018461382b565b76020b1b1b2b9b9a1b7b73a3937b61d1030b1b1b7bab73a1604d1b81525f83516142cd816017850160208801613809565b7001034b99036b4b9b9b4b733903937b6329607d1b60179184019182015283516142fe816028840160208801613809565b01602801949350505050565b80820180821115610d4157610d4161404256fe03be538b6391ddcd7f2649585cc95b120c9e2a613f70714fbb55345057d809fa4c69624469616d6f6e644375743a204175746f20666163657420686173206e6f20636f6465c8fcad8db84d3cc18b4c41d551ea0ee66dd599cde068d998e57d5e09332c131c4c69624469616d6f6e644375743a2041646420666163657420686173206e6f20636f64654c69624469616d6f6e644375743a205f696e6974206164647265737320686173206e6f20636f646546756e6374696f6e206d7573742062652063616c6c6564207468726f75676820360894a13ba1a3210667c828492db98dca3e2076cc3735a920a3ca505d382bbc7f26b83ff96e1f2b6a682f133852f6798a09c465da95921460cefb38474024988be0079c531659141344cd1fd0a4f28419497f9722a3daafe3b4186f6b6457e0416464726573733a206c6f772d6c6576656c2064656c65676174652063616c6c206661696c65644c69624469616d6f6e644375743a205265706c61636520666163657420686173206e6f20636f6465a164736f6c6343000817000a",
        "nonce": "0x1c2",
        "chainId": "0xa"
      },
      "additionalContracts": [],
      "isFixedGasLimit": false
    },
    {
      "hash": "0x81b25f6eaeb81dcb0daabbe392488dfb697ffbbf772c2cb6bfabe814ec1c7f3f",
      "transactionType": "CALL",
      "contractName": "ERC1967Proxy",
      "contractAddress": "0x0497390bb09a642500f77534167e6742c403cfe9",
      "function": null,
      "arguments": null,
      "transaction": {
        "from": "0xcfb802de1046d47405b3197c3ccd340ed91ca80d",
        "to": "0x0497390bb09a642500f77534167e6742c403cfe9",
        "gas": "0x123bd",
        "value": "0x0",
        "input": "0x3659cfe60000000000000000000000001d2c00208dd9cb6cc788aacb6b07a9071b5772a8",
        "nonce": "0x1c3",
        "chainId": "0xa"
      },
      "additionalContracts": [],
      "isFixedGasLimit": false
    },
    {
      "hash": "0x771b5520eefe99b2f907adf84192ea1402414b64d449d273aa3ee20e36d6d2df",
      "transactionType": "CALL",
      "contractName": "ERC1967Proxy",
      "contractAddress": "0x0d3e216236e9f7271dabf652ca43d9c9eb489734",
      "function": null,
      "arguments": null,
      "transaction": {
        "from": "0xcfb802de1046d47405b3197c3ccd340ed91ca80d",
        "to": "0x0d3e216236e9f7271dabf652ca43d9c9eb489734",
        "gas": "0x123bd",
        "value": "0x0",
        "input": "0x3659cfe60000000000000000000000001d2c00208dd9cb6cc788aacb6b07a9071b5772a8",
        "nonce": "0x1c4",
        "chainId": "0xa"
      },
      "additionalContracts": [],
      "isFixedGasLimit": false
    },
    {
      "hash": "0x6fe2bed6ae6ee102f7e9941bbe0cb564a9d51a2051d1a076c6ddb7df6c916f95",
      "transactionType": "CALL",
      "contractName": "ERC1967Proxy",
      "contractAddress": "0x10bbcd5e4cf147e67abab8a24ee31599cb022993",
      "function": null,
      "arguments": null,
      "transaction": {
        "from": "0xcfb802de1046d47405b3197c3ccd340ed91ca80d",
        "to": "0x10bbcd5e4cf147e67abab8a24ee31599cb022993",
        "gas": "0x123bd",
        "value": "0x0",
        "input": "0x3659cfe60000000000000000000000001d2c00208dd9cb6cc788aacb6b07a9071b5772a8",
        "nonce": "0x1c5",
        "chainId": "0xa"
      },
      "additionalContracts": [],
      "isFixedGasLimit": false
    },
    {
      "hash": "0xaab5fde14a4360248342604781f58fd0aff0c62b91295494152818ab4285ed48",
      "transactionType": "CALL",
      "contractName": "ERC1967Proxy",
      "contractAddress": "0x14dd526025140d9fccda1358a50cbbdde122cdb1",
      "function": null,
      "arguments": null,
      "transaction": {
        "from": "0xcfb802de1046d47405b3197c3ccd340ed91ca80d",
        "to": "0x14dd526025140d9fccda1358a50cbbdde122cdb1",
        "gas": "0x123bd",
        "value": "0x0",
        "input": "0x3659cfe60000000000000000000000001d2c00208dd9cb6cc788aacb6b07a9071b5772a8",
        "nonce": "0x1c6",
        "chainId": "0xa"
      },
      "additionalContracts": [],
      "isFixedGasLimit": false
    },
    {
      "hash": "0xf6b675ad82d45d7fae3a3353bf8b541f5df5310f0d7c7c10e33b7b29b4a47d54",
      "transactionType": "CALL",
      "contractName": "ERC1967Proxy",
      "contractAddress": "0x1ef94b88720b6aa0649e43a96f3be16588e3e5f4",
      "function": null,
      "arguments": null,
      "transaction": {
        "from": "0xcfb802de1046d47405b3197c3ccd340ed91ca80d",
        "to": "0x1ef94b88720b6aa0649e43a96f3be16588e3e5f4",
        "gas": "0x123bd",
        "value": "0x0",
        "input": "0x3659cfe60000000000000000000000001d2c00208dd9cb6cc788aacb6b07a9071b5772a8",
        "nonce": "0x1c7",
        "chainId": "0xa"
      },
      "additionalContracts": [],
      "isFixedGasLimit": false
    },
    {
      "hash": "0x44970b81638a4388aee26cd10fe3784f3483f810ed228b1eda07e7b610de4b24",
      "transactionType": "CALL",
      "contractName": "ERC1967Proxy",
      "contractAddress": "0x2088bbe7e70acfaf643e834c96aa4c277be6653e",
      "function": null,
      "arguments": null,
      "transaction": {
        "from": "0xcfb802de1046d47405b3197c3ccd340ed91ca80d",
        "to": "0x2088bbe7e70acfaf643e834c96aa4c277be6653e",
        "gas": "0x123bd",
        "value": "0x0",
        "input": "0x3659cfe60000000000000000000000001d2c00208dd9cb6cc788aacb6b07a9071b5772a8",
        "nonce": "0x1c8",
        "chainId": "0xa"
      },
      "additionalContracts": [],
      "isFixedGasLimit": false
    },
    {
      "hash": "0x914e269f8fcfad0f32ee6337861dfa4cd10d96a0ee0b47095b2611f4db2324c9",
      "transactionType": "CALL",
      "contractName": "ERC1967Proxy",
      "contractAddress": "0x2171ec78778dda68a993704b607f23e6e4f17783",
      "function": null,
      "arguments": null,
      "transaction": {
        "from": "0xcfb802de1046d47405b3197c3ccd340ed91ca80d",
        "to": "0x2171ec78778dda68a993704b607f23e6e4f17783",
        "gas": "0x123bd",
        "value": "0x0",
        "input": "0x3659cfe60000000000000000000000001d2c00208dd9cb6cc788aacb6b07a9071b5772a8",
        "nonce": "0x1c9",
        "chainId": "0xa"
      },
      "additionalContracts": [],
      "isFixedGasLimit": false
    },
    {
      "hash": "0x10a9e54b0ac49cda97ede6bb6f1efad4dd7246d5451924d2f491cd255d78b87a",
      "transactionType": "CALL",
      "contractName": "ERC1967Proxy",
      "contractAddress": "0x3da181b922a890ec30c41ebe764c49f28f890e77",
      "function": null,
      "arguments": null,
      "transaction": {
        "from": "0xcfb802de1046d47405b3197c3ccd340ed91ca80d",
        "to": "0x3da181b922a890ec30c41ebe764c49f28f890e77",
        "gas": "0x123bd",
        "value": "0x0",
        "input": "0x3659cfe60000000000000000000000001d2c00208dd9cb6cc788aacb6b07a9071b5772a8",
        "nonce": "0x1ca",
        "chainId": "0xa"
      },
      "additionalContracts": [],
      "isFixedGasLimit": false
    },
    {
      "hash": "0xc10b79533311d511140288cf8a9655370bb96ae6a41a919ab01b745dc3011ea7",
      "transactionType": "CALL",
      "contractName": null,
      "contractAddress": "0x48db6422155a037bbb347eb97aaba88e651f4003",
      "function": "upgradeTo(address)",
      "arguments": [
        "0x1d2C00208DD9Cb6cc788AAcB6b07a9071b5772A8"
      ],
      "transaction": {
        "from": "0xcfb802de1046d47405b3197c3ccd340ed91ca80d",
        "to": "0x48db6422155a037bbb347eb97aaba88e651f4003",
        "gas": "0x123bd",
        "value": "0x0",
        "input": "0x3659cfe60000000000000000000000001d2c00208dd9cb6cc788aacb6b07a9071b5772a8",
        "nonce": "0x1cb",
        "chainId": "0xa"
      },
      "additionalContracts": [],
      "isFixedGasLimit": false
    },
    {
      "hash": "0x721c6324da3ca4232b7fa8c6cc3d828a034621efa93410a599fa91a51350d6fb",
      "transactionType": "CALL",
      "contractName": "ERC1967Proxy",
      "contractAddress": "0x4e8b0da13f858b0c101a28b7a92e42ae28ace5a4",
      "function": null,
      "arguments": null,
      "transaction": {
        "from": "0xcfb802de1046d47405b3197c3ccd340ed91ca80d",
        "to": "0x4e8b0da13f858b0c101a28b7a92e42ae28ace5a4",
        "gas": "0x123bd",
        "value": "0x0",
        "input": "0x3659cfe60000000000000000000000001d2c00208dd9cb6cc788aacb6b07a9071b5772a8",
        "nonce": "0x1cc",
        "chainId": "0xa"
      },
      "additionalContracts": [],
      "isFixedGasLimit": false
    },
    {
      "hash": "0xa3100aeba3f0dc43143ee187bf694f77f5134dd4624b885228f903c44ec45300",
      "transactionType": "CALL",
      "contractName": "ERC1967Proxy",
      "contractAddress": "0x5326f5264f547db8d3d6f39543f3767884dad3e5",
      "function": null,
      "arguments": null,
      "transaction": {
        "from": "0xcfb802de1046d47405b3197c3ccd340ed91ca80d",
        "to": "0x5326f5264f547db8d3d6f39543f3767884dad3e5",
        "gas": "0x123bd",
        "value": "0x0",
        "input": "0x3659cfe60000000000000000000000001d2c00208dd9cb6cc788aacb6b07a9071b5772a8",
        "nonce": "0x1cd",
        "chainId": "0xa"
      },
      "additionalContracts": [],
      "isFixedGasLimit": false
    },
    {
      "hash": "0x950336cd30a8b1b9e91e2b6ab4cfd968be9f9f6c7f5abbbb7a44dabc53a0d4da",
      "transactionType": "CALL",
      "contractName": "ERC1967Proxy",
      "contractAddress": "0x576cb81030cc47ccb7aef97e9e88d2648edb45db",
      "function": null,
      "arguments": null,
      "transaction": {
        "from": "0xcfb802de1046d47405b3197c3ccd340ed91ca80d",
        "to": "0x576cb81030cc47ccb7aef97e9e88d2648edb45db",
        "gas": "0x123bd",
        "value": "0x0",
        "input": "0x3659cfe60000000000000000000000001d2c00208dd9cb6cc788aacb6b07a9071b5772a8",
        "nonce": "0x1ce",
        "chainId": "0xa"
      },
      "additionalContracts": [],
      "isFixedGasLimit": false
    },
    {
      "hash": "0x444c2dd7a0abe1938c45888808591251e86d62ab6a6e22938bb79b02c7f1a83f",
      "transactionType": "CALL",
      "contractName": null,
      "contractAddress": "0x59c47c30da2a0ca7359590f023da0284fef83e73",
      "function": "upgradeTo(address)",
      "arguments": [
        "0x1d2C00208DD9Cb6cc788AAcB6b07a9071b5772A8"
      ],
      "transaction": {
        "from": "0xcfb802de1046d47405b3197c3ccd340ed91ca80d",
        "to": "0x59c47c30da2a0ca7359590f023da0284fef83e73",
        "gas": "0x123bd",
        "value": "0x0",
        "input": "0x3659cfe60000000000000000000000001d2c00208dd9cb6cc788aacb6b07a9071b5772a8",
        "nonce": "0x1cf",
        "chainId": "0xa"
      },
      "additionalContracts": [],
      "isFixedGasLimit": false
    },
    {
      "hash": "0x3936192975ad6c5eef154823fdf1ff9a75b1624bd29fe49ddc8669837c74493e",
      "transactionType": "CALL",
      "contractName": "ERC1967Proxy",
      "contractAddress": "0x5b1a1dcbf48c0f317102d05d10caa258b9c9d1c5",
      "function": null,
      "arguments": null,
      "transaction": {
        "from": "0xcfb802de1046d47405b3197c3ccd340ed91ca80d",
        "to": "0x5b1a1dcbf48c0f317102d05d10caa258b9c9d1c5",
        "gas": "0x123bd",
        "value": "0x0",
        "input": "0x3659cfe60000000000000000000000001d2c00208dd9cb6cc788aacb6b07a9071b5772a8",
        "nonce": "0x1d0",
        "chainId": "0xa"
      },
      "additionalContracts": [],
      "isFixedGasLimit": false
    },
    {
      "hash": "0xd8c8d4afb31626f174888d07f08eff564d37ef784d12b27b443a3a2ca3d239e2",
      "transactionType": "CALL",
      "contractName": "ERC1967Proxy",
      "contractAddress": "0x6185357e28d2feb72a7606a3b66811f88279dd3d",
      "function": null,
      "arguments": null,
      "transaction": {
        "from": "0xcfb802de1046d47405b3197c3ccd340ed91ca80d",
        "to": "0x6185357e28d2feb72a7606a3b66811f88279dd3d",
        "gas": "0x123bd",
        "value": "0x0",
        "input": "0x3659cfe60000000000000000000000001d2c00208dd9cb6cc788aacb6b07a9071b5772a8",
        "nonce": "0x1d1",
        "chainId": "0xa"
      },
      "additionalContracts": [],
      "isFixedGasLimit": false
    },
    {
      "hash": "0x9749ae87ac9eea7193f419f43f123092d8ec916b2495e237b749edd873b9a0be",
      "transactionType": "CALL",
      "contractName": "ERC1967Proxy",
      "contractAddress": "0x6cc78ed3a4d8aa94410a60f702235c85d584730f",
      "function": null,
      "arguments": null,
      "transaction": {
        "from": "0xcfb802de1046d47405b3197c3ccd340ed91ca80d",
        "to": "0x6cc78ed3a4d8aa94410a60f702235c85d584730f",
        "gas": "0x123bd",
        "value": "0x0",
        "input": "0x3659cfe60000000000000000000000001d2c00208dd9cb6cc788aacb6b07a9071b5772a8",
        "nonce": "0x1d2",
        "chainId": "0xa"
      },
      "additionalContracts": [],
      "isFixedGasLimit": false
    },
    {
      "hash": "0xfde8fffc6f583e86ccb3722ccf2f1907ff386eed8000642c70f002b2aef4772f",
      "transactionType": "CALL",
      "contractName": "ERC1967Proxy",
      "contractAddress": "0x71566372033aafbd1a62430171ad698768d98dcc",
      "function": null,
      "arguments": null,
      "transaction": {
        "from": "0xcfb802de1046d47405b3197c3ccd340ed91ca80d",
        "to": "0x71566372033aafbd1a62430171ad698768d98dcc",
        "gas": "0x123bd",
        "value": "0x0",
        "input": "0x3659cfe60000000000000000000000001d2c00208dd9cb6cc788aacb6b07a9071b5772a8",
        "nonce": "0x1d3",
        "chainId": "0xa"
      },
      "additionalContracts": [],
      "isFixedGasLimit": false
    },
    {
      "hash": "0x44ea5668bfa4298d9e566548fde6a6f9f795897c7613d3cbe14971d57c81b4d5",
      "transactionType": "CALL",
      "contractName": "ERC1967Proxy",
      "contractAddress": "0x87665484460f587a145eca5ce1e769da9ab8abf9",
      "function": null,
      "arguments": null,
      "transaction": {
        "from": "0xcfb802de1046d47405b3197c3ccd340ed91ca80d",
        "to": "0x87665484460f587a145eca5ce1e769da9ab8abf9",
        "gas": "0x123bd",
        "value": "0x0",
        "input": "0x3659cfe60000000000000000000000001d2c00208dd9cb6cc788aacb6b07a9071b5772a8",
        "nonce": "0x1d4",
        "chainId": "0xa"
      },
      "additionalContracts": [],
      "isFixedGasLimit": false
    },
    {
      "hash": "0x9fa0f42178bef9089c91055fe63536daa31a8c38cdc53cfc63d2c8872d1f41de",
      "transactionType": "CALL",
      "contractName": "ERC1967Proxy",
      "contractAddress": "0x888e2fbc7e7afe3a8f9b54030d0cb0eed896f955",
      "function": null,
      "arguments": null,
      "transaction": {
        "from": "0xcfb802de1046d47405b3197c3ccd340ed91ca80d",
        "to": "0x888e2fbc7e7afe3a8f9b54030d0cb0eed896f955",
        "gas": "0x123bd",
        "value": "0x0",
        "input": "0x3659cfe60000000000000000000000001d2c00208dd9cb6cc788aacb6b07a9071b5772a8",
        "nonce": "0x1d5",
        "chainId": "0xa"
      },
      "additionalContracts": [],
      "isFixedGasLimit": false
    },
    {
      "hash": "0x7eb47501bbcbabfb5eae6914bd02f0f3af9302ce3874949d57bee90d5982ca24",
      "transactionType": "CALL",
      "contractName": "ERC1967Proxy",
      "contractAddress": "0x9175dc03307d8f91bc757334959906731f2b60ef",
      "function": null,
      "arguments": null,
      "transaction": {
        "from": "0xcfb802de1046d47405b3197c3ccd340ed91ca80d",
        "to": "0x9175dc03307d8f91bc757334959906731f2b60ef",
        "gas": "0x123bd",
        "value": "0x0",
        "input": "0x3659cfe60000000000000000000000001d2c00208dd9cb6cc788aacb6b07a9071b5772a8",
        "nonce": "0x1d6",
        "chainId": "0xa"
      },
      "additionalContracts": [],
      "isFixedGasLimit": false
    },
    {
      "hash": "0xba07d1b8b2b8f1f03c9ddf5ce0a727e0e4fb78da146be31de533a5f662e5adcd",
      "transactionType": "CALL",
      "contractName": "ERC1967Proxy",
      "contractAddress": "0x9b0d2fbc6a0efacb69d716bfd15db8734c550a7c",
      "function": null,
      "arguments": null,
      "transaction": {
        "from": "0xcfb802de1046d47405b3197c3ccd340ed91ca80d",
        "to": "0x9b0d2fbc6a0efacb69d716bfd15db8734c550a7c",
        "gas": "0x123bd",
        "value": "0x0",
        "input": "0x3659cfe60000000000000000000000001d2c00208dd9cb6cc788aacb6b07a9071b5772a8",
        "nonce": "0x1d7",
        "chainId": "0xa"
      },
      "additionalContracts": [],
      "isFixedGasLimit": false
    },
    {
      "hash": "0x2773ecb5ca7d73f727be88cfd48b20facaf0794776dde8e1be6b7ab5a44ccad9",
      "transactionType": "CALL",
      "contractName": "ERC1967Proxy",
      "contractAddress": "0x9ee73d7afd1d75d9d3468ab7845150180936dec4",
      "function": null,
      "arguments": null,
      "transaction": {
        "from": "0xcfb802de1046d47405b3197c3ccd340ed91ca80d",
        "to": "0x9ee73d7afd1d75d9d3468ab7845150180936dec4",
        "gas": "0x123bd",
        "value": "0x0",
        "input": "0x3659cfe60000000000000000000000001d2c00208dd9cb6cc788aacb6b07a9071b5772a8",
        "nonce": "0x1d8",
        "chainId": "0xa"
      },
      "additionalContracts": [],
      "isFixedGasLimit": false
    },
    {
      "hash": "0x34445106dc327dbcf8017bfbf1c105dad2b8a33bdfd186b55c61cadeab0ca4c2",
      "transactionType": "CALL",
      "contractName": "ERC1967Proxy",
      "contractAddress": "0xa00fabc7023321afd3842ff6def9a99ae8cdc51c",
      "function": null,
      "arguments": null,
      "transaction": {
        "from": "0xcfb802de1046d47405b3197c3ccd340ed91ca80d",
        "to": "0xa00fabc7023321afd3842ff6def9a99ae8cdc51c",
        "gas": "0x123bd",
        "value": "0x0",
        "input": "0x3659cfe60000000000000000000000001d2c00208dd9cb6cc788aacb6b07a9071b5772a8",
        "nonce": "0x1d9",
        "chainId": "0xa"
      },
      "additionalContracts": [],
      "isFixedGasLimit": false
    },
    {
      "hash": "0x515cad3f3f1b918cf5a47ff5f070b273a6368ed08c9fabf59a3a3139466ff907",
      "transactionType": "CALL",
      "contractName": null,
      "contractAddress": "0xa8cb166fd9e10103a6dbabefcf942d7b8026f735",
      "function": "upgradeTo(address)",
      "arguments": [
        "0x1d2C00208DD9Cb6cc788AAcB6b07a9071b5772A8"
      ],
      "transaction": {
        "from": "0xcfb802de1046d47405b3197c3ccd340ed91ca80d",
        "to": "0xa8cb166fd9e10103a6dbabefcf942d7b8026f735",
        "gas": "0x123bd",
        "value": "0x0",
        "input": "0x3659cfe60000000000000000000000001d2c00208dd9cb6cc788aacb6b07a9071b5772a8",
        "nonce": "0x1da",
        "chainId": "0xa"
      },
      "additionalContracts": [],
      "isFixedGasLimit": false
    },
    {
      "hash": "0x13d1a133cba178928d16d3d60ac47b01a5f25d06c7885b04e78b5e581a606960",
      "transactionType": "CALL",
      "contractName": "ERC1967Proxy",
      "contractAddress": "0xaecc747c84205e21832fc924fe61ca12b313a8e6",
      "function": null,
      "arguments": null,
      "transaction": {
        "from": "0xcfb802de1046d47405b3197c3ccd340ed91ca80d",
        "to": "0xaecc747c84205e21832fc924fe61ca12b313a8e6",
        "gas": "0x123bd",
        "value": "0x0",
        "input": "0x3659cfe60000000000000000000000001d2c00208dd9cb6cc788aacb6b07a9071b5772a8",
        "nonce": "0x1db",
        "chainId": "0xa"
      },
      "additionalContracts": [],
      "isFixedGasLimit": false
    },
    {
      "hash": "0x8341b85450e4cbf76b68368ee06e8e88e0d9db2dda0ea64093813e44a54c2467",
      "transactionType": "CALL",
      "contractName": "ERC1967Proxy",
      "contractAddress": "0xb1f32397d6db17db39f625f14286e6e620c3cdc0",
      "function": null,
      "arguments": null,
      "transaction": {
        "from": "0xcfb802de1046d47405b3197c3ccd340ed91ca80d",
        "to": "0xb1f32397d6db17db39f625f14286e6e620c3cdc0",
        "gas": "0x123bd",
        "value": "0x0",
        "input": "0x3659cfe60000000000000000000000001d2c00208dd9cb6cc788aacb6b07a9071b5772a8",
        "nonce": "0x1dc",
        "chainId": "0xa"
      },
      "additionalContracts": [],
      "isFixedGasLimit": false
    },
    {
      "hash": "0x6973cbf3837f153a70b809ef964cc88cb3add13aefded32a734fdca8c6ec831e",
      "transactionType": "CALL",
      "contractName": "ERC1967Proxy",
      "contractAddress": "0xbbb2313aeb8b1ff309790e20e61280aecd548db4",
      "function": null,
      "arguments": null,
      "transaction": {
        "from": "0xcfb802de1046d47405b3197c3ccd340ed91ca80d",
        "to": "0xbbb2313aeb8b1ff309790e20e61280aecd548db4",
        "gas": "0x123bd",
        "value": "0x0",
        "input": "0x3659cfe60000000000000000000000001d2c00208dd9cb6cc788aacb6b07a9071b5772a8",
        "nonce": "0x1dd",
        "chainId": "0xa"
      },
      "additionalContracts": [],
      "isFixedGasLimit": false
    },
    {
      "hash": "0x053969a9d51283a17d45da35e94ce431ec2eaba8c2040b13975e71ff74e0162d",
      "transactionType": "CALL",
      "contractName": "ERC1967Proxy",
      "contractAddress": "0xbc5a25bf2eeb5941dd3531a0ab8857c9f0c3b6a5",
      "function": null,
      "arguments": null,
      "transaction": {
        "from": "0xcfb802de1046d47405b3197c3ccd340ed91ca80d",
        "to": "0xbc5a25bf2eeb5941dd3531a0ab8857c9f0c3b6a5",
        "gas": "0x123bd",
        "value": "0x0",
        "input": "0x3659cfe60000000000000000000000001d2c00208dd9cb6cc788aacb6b07a9071b5772a8",
        "nonce": "0x1de",
        "chainId": "0xa"
      },
      "additionalContracts": [],
      "isFixedGasLimit": false
    },
    {
      "hash": "0xb9e00f491a3d4d53b2a496fa54b7e68b0d495b969c98624b30ef8f4557aab397",
      "transactionType": "CALL",
      "contractName": "ERC1967Proxy",
      "contractAddress": "0xbec85d99c6f4ec34af0a9222cdd280127e06ab44",
      "function": null,
      "arguments": null,
      "transaction": {
        "from": "0xcfb802de1046d47405b3197c3ccd340ed91ca80d",
        "to": "0xbec85d99c6f4ec34af0a9222cdd280127e06ab44",
        "gas": "0x123bd",
        "value": "0x0",
        "input": "0x3659cfe60000000000000000000000001d2c00208dd9cb6cc788aacb6b07a9071b5772a8",
        "nonce": "0x1df",
        "chainId": "0xa"
      },
      "additionalContracts": [],
      "isFixedGasLimit": false
    },
    {
      "hash": "0x6422a72285bf1a2e2271c4e51a938ada43c878758843c21b8c183212b6b60266",
      "transactionType": "CALL",
      "contractName": "ERC1967Proxy",
      "contractAddress": "0xcee4e641af10b05c17a657d038c2a0071e1ec051",
      "function": null,
      "arguments": null,
      "transaction": {
        "from": "0xcfb802de1046d47405b3197c3ccd340ed91ca80d",
        "to": "0xcee4e641af10b05c17a657d038c2a0071e1ec051",
        "gas": "0x123bd",
        "value": "0x0",
        "input": "0x3659cfe60000000000000000000000001d2c00208dd9cb6cc788aacb6b07a9071b5772a8",
        "nonce": "0x1e0",
        "chainId": "0xa"
      },
      "additionalContracts": [],
      "isFixedGasLimit": false
    },
    {
      "hash": "0x853273ce7624f91b3cb32be8ed18476b167920414af756358e30b689ecc5f83a",
      "transactionType": "CALL",
      "contractName": "ERC1967Proxy",
      "contractAddress": "0xd3345828914b740fddd1b8ae4f4d2ce03d1e0960",
      "function": null,
      "arguments": null,
      "transaction": {
        "from": "0xcfb802de1046d47405b3197c3ccd340ed91ca80d",
        "to": "0xd3345828914b740fddd1b8ae4f4d2ce03d1e0960",
        "gas": "0x123bd",
        "value": "0x0",
        "input": "0x3659cfe60000000000000000000000001d2c00208dd9cb6cc788aacb6b07a9071b5772a8",
        "nonce": "0x1e1",
        "chainId": "0xa"
      },
      "additionalContracts": [],
      "isFixedGasLimit": false
    },
    {
      "hash": "0x3c15d6c65a4c2e3b2511234c10ab56d014dc9e3301a6bb2c0da2e62638ac64ed",
      "transactionType": "CALL",
      "contractName": "ERC1967Proxy",
      "contractAddress": "0xd58c8122831c2f4705e59a33da1723690b310239",
      "function": null,
      "arguments": null,
      "transaction": {
        "from": "0xcfb802de1046d47405b3197c3ccd340ed91ca80d",
        "to": "0xd58c8122831c2f4705e59a33da1723690b310239",
        "gas": "0x123bd",
        "value": "0x0",
        "input": "0x3659cfe60000000000000000000000001d2c00208dd9cb6cc788aacb6b07a9071b5772a8",
        "nonce": "0x1e2",
        "chainId": "0xa"
      },
      "additionalContracts": [],
      "isFixedGasLimit": false
    },
    {
      "hash": "0x77a9c93c3fc22e0be205fbdfda4abb13e7c9fa0e786728bc68ea1f57ec2328af",
      "transactionType": "CALL",
      "contractName": "ERC1967Proxy",
      "contractAddress": "0xd95bf6da95c77466674bd1210e77a23492f6eef9",
      "function": null,
      "arguments": null,
      "transaction": {
        "from": "0xcfb802de1046d47405b3197c3ccd340ed91ca80d",
        "to": "0xd95bf6da95c77466674bd1210e77a23492f6eef9",
        "gas": "0x123bd",
        "value": "0x0",
        "input": "0x3659cfe60000000000000000000000001d2c00208dd9cb6cc788aacb6b07a9071b5772a8",
        "nonce": "0x1e3",
        "chainId": "0xa"
      },
      "additionalContracts": [],
      "isFixedGasLimit": false
    },
    {
      "hash": "0x7cbf54a84bc58ffca1cda703868592cd8623e90bc8ad8c4d4f8ed3e52454fa0f",
      "transactionType": "CALL",
      "contractName": null,
      "contractAddress": "0xe5b10de982897a60cfae8481bac5848816c0f705",
      "function": "upgradeTo(address)",
      "arguments": [
        "0x1d2C00208DD9Cb6cc788AAcB6b07a9071b5772A8"
      ],
      "transaction": {
        "from": "0xcfb802de1046d47405b3197c3ccd340ed91ca80d",
        "to": "0xe5b10de982897a60cfae8481bac5848816c0f705",
        "gas": "0x123bd",
        "value": "0x0",
        "input": "0x3659cfe60000000000000000000000001d2c00208dd9cb6cc788aacb6b07a9071b5772a8",
        "nonce": "0x1e4",
        "chainId": "0xa"
      },
      "additionalContracts": [],
      "isFixedGasLimit": false
    },
    {
      "hash": "0xca552ea5825dfe776de84b58958412452c67d1677a53be1dde708f2e1c0226ff",
      "transactionType": "CALL",
      "contractName": "ERC1967Proxy",
      "contractAddress": "0xe6b60735f5bffd8c255195f2db5cc35b78021872",
      "function": null,
      "arguments": null,
      "transaction": {
        "from": "0xcfb802de1046d47405b3197c3ccd340ed91ca80d",
        "to": "0xe6b60735f5bffd8c255195f2db5cc35b78021872",
        "gas": "0x123bd",
        "value": "0x0",
        "input": "0x3659cfe60000000000000000000000001d2c00208dd9cb6cc788aacb6b07a9071b5772a8",
        "nonce": "0x1e5",
        "chainId": "0xa"
      },
      "additionalContracts": [],
      "isFixedGasLimit": false
    },
    {
      "hash": "0x7f8e0bae6873430c017918be9111159141602b029cf5f6d2f50f07bee891f3b9",
      "transactionType": "CALL",
      "contractName": "ERC1967Proxy",
      "contractAddress": "0xee1a9cf8625c2f1f25201ac1a9a9e81f53d5e846",
      "function": null,
      "arguments": null,
      "transaction": {
        "from": "0xcfb802de1046d47405b3197c3ccd340ed91ca80d",
        "to": "0xee1a9cf8625c2f1f25201ac1a9a9e81f53d5e846",
        "gas": "0x123bd",
        "value": "0x0",
        "input": "0x3659cfe60000000000000000000000001d2c00208dd9cb6cc788aacb6b07a9071b5772a8",
        "nonce": "0x1e6",
        "chainId": "0xa"
      },
      "additionalContracts": [],
      "isFixedGasLimit": false
    },
    {
      "hash": "0x4569642782020644ae21ebb4f2b2317c9df3c4f76098300f6be04b85fb349efe",
      "transactionType": "CALL",
      "contractName": null,
      "contractAddress": "0xf3630ea5ed1d9695acab2a3db408b56e3a6c600c",
      "function": "upgradeTo(address)",
      "arguments": [
        "0x1d2C00208DD9Cb6cc788AAcB6b07a9071b5772A8"
      ],
      "transaction": {
        "from": "0xcfb802de1046d47405b3197c3ccd340ed91ca80d",
        "to": "0xf3630ea5ed1d9695acab2a3db408b56e3a6c600c",
        "gas": "0x113ae",
        "value": "0x0",
        "input": "0x3659cfe60000000000000000000000001d2c00208dd9cb6cc788aacb6b07a9071b5772a8",
        "nonce": "0x1e7",
        "chainId": "0xa"
      },
      "additionalContracts": [],
      "isFixedGasLimit": false
    },
    {
      "hash": "0x050abe97ee2bfae2743bd22f791a98ea09030be974848376d3a26c5ef535eb5b",
      "transactionType": "CALL",
      "contractName": "ERC1967Proxy",
      "contractAddress": "0xf515b83f7e0ab851f822e56b0fe63dfa973e74f0",
      "function": null,
      "arguments": null,
      "transaction": {
        "from": "0xcfb802de1046d47405b3197c3ccd340ed91ca80d",
        "to": "0xf515b83f7e0ab851f822e56b0fe63dfa973e74f0",
        "gas": "0x123bd",
        "value": "0x0",
        "input": "0x3659cfe60000000000000000000000001d2c00208dd9cb6cc788aacb6b07a9071b5772a8",
        "nonce": "0x1e8",
        "chainId": "0xa"
      },
      "additionalContracts": [],
      "isFixedGasLimit": false
    },
    {
      "hash": "0xed4ef5c5025aa6dc6ddce6dc0ca3283efb7e98bf0148f3068448a720b0dee7d8",
      "transactionType": "CALL",
      "contractName": "ERC1967Proxy",
      "contractAddress": "0x1fac47cf25f1ca9f20ba366099d26b28401f5715",
      "function": null,
      "arguments": null,
      "transaction": {
        "from": "0xcfb802de1046d47405b3197c3ccd340ed91ca80d",
        "to": "0x1fac47cf25f1ca9f20ba366099d26b28401f5715",
        "gas": "0xf41d",
        "value": "0x0",
        "input": "0x5decae020000000000000000000000001d2c00208dd9cb6cc788aacb6b07a9071b5772a8",
        "nonce": "0x1e9",
        "chainId": "0xa"
      },
      "additionalContracts": [],
      "isFixedGasLimit": false
    }
  ],
  "receipts": [
    {
      "status": "0x1",
      "cumulativeGasUsed": "0x66f49c",
      "logs": [
        {
          "address": "0x1d2c00208dd9cb6cc788aacb6b07a9071b5772a8",
          "topics": [
            "0x7f26b83ff96e1f2b6a682f133852f6798a09c465da95921460cefb3847402498"
          ],
          "data": "0x00000000000000000000000000000000000000000000000000000000000000ff",
          "blockHash": "0xc1901c00c41890dbaf0114dc55e4e8b5cda1d48df2707d283b94516a62e9ecc6",
          "blockNumber": "0x8fde78f",
          "blockTimestamp": "0x69efa8d7",
          "transactionHash": "0xa149e07d5b42db23188e75a263f78e6a7582235ac113951d7e0b64149acba1d4",
          "transactionIndex": "0x6",
          "logIndex": "0x46",
          "removed": false
        }
      ],
      "logsBloom": "0x00000000000000000000000000000000000000040000000000000000000000000000000000000000000000000000000000000000000000000000000000000000000000000000000000000000000000000000000000000000000000000000000000000000000000000000000000000000000000000000000000000000000000000000000000000000000000000000000000000000000080000000000000000000000000000100000000000000000400000000000000000000000000000000000000000000001000000000000000040000000000000000000000000000000000000000000000000000000000000000000000000000000000000000000000000000",
      "type": "0x0",
      "transactionHash": "0xa149e07d5b42db23188e75a263f78e6a7582235ac113951d7e0b64149acba1d4",
      "transactionIndex": "0x6",
      "blockHash": "0xc1901c00c41890dbaf0114dc55e4e8b5cda1d48df2707d283b94516a62e9ecc6",
      "blockNumber": "0x8fde78f",
      "gasUsed": "0x3b35dc",
      "effectiveGasPrice": "0xf437f",
      "blobGasUsed": "0x3b9200",
      "from": "0xcfb802de1046d47405b3197c3ccd340ed91ca80d",
      "to": null,
      "contractAddress": "0x1d2c00208dd9cb6cc788aacb6b07a9071b5772a8",
      "daFootprintGasScalar": "0x190",
      "l1BaseFeeScalar": "0x146b",
      "l1BlobBaseFee": "0x58a2f67",
      "l1BlobBaseFeeScalar": "0xf79c5",
      "l1Fee": "0x21dc893f584",
      "l1GasPrice": "0x66bb5b50",
      "l1GasUsed": "0x26205"
    },
    {
      "status": "0x1",
      "cumulativeGasUsed": "0x9871a",
      "logs": [
        {
          "address": "0x0497390bb09a642500f77534167e6742c403cfe9",
          "topics": [
            "0xbc7cd75a20ee27fd9adebab32041f755214dbc6bffa90cc0225b39da2e5c2d3b",
            "0x0000000000000000000000001d2c00208dd9cb6cc788aacb6b07a9071b5772a8"
          ],
          "data": "0x",
          "blockHash": "0x61205237aa0c22ffe72fed538a2f95e028a20482060cd676e076617c9723eaba",
          "blockNumber": "0x8fde791",
          "blockTimestamp": "0x69efa8db",
          "transactionHash": "0x81b25f6eaeb81dcb0daabbe392488dfb697ffbbf772c2cb6bfabe814ec1c7f3f",
          "transactionIndex": "0x2",
          "logIndex": "0x13",
          "removed": false
        }
      ],
      "logsBloom": "0x00000000000000000000000000000000400000000000000000000000000000000000008000000000000000000000000000000000000000000000000080000000000000000000000000000000000002000000000000000000000000000000000000000000000000000000000000000000000000000000000000000000400000000001000000000000000000000000001000000000000000000000000000000000000000000000000000000000000000000000000000000000000000000000000000000020000000400000000000000000000000000000000000000000000000000000000000000000000000000000000000000000000000000000000000000000",
      "type": "0x0",
      "transactionHash": "0x81b25f6eaeb81dcb0daabbe392488dfb697ffbbf772c2cb6bfabe814ec1c7f3f",
      "transactionIndex": "0x2",
      "blockHash": "0x61205237aa0c22ffe72fed538a2f95e028a20482060cd676e076617c9723eaba",
      "blockNumber": "0x8fde791",
      "gasUsed": "0xc77b",
      "effectiveGasPrice": "0xf437f",
      "blobGasUsed": "0x9c40",
      "from": "0xcfb802de1046d47405b3197c3ccd340ed91ca80d",
      "to": "0x0497390bb09a642500f77534167e6742c403cfe9",
      "contractAddress": null,
      "daFootprintGasScalar": "0x190",
      "l1BaseFeeScalar": "0x146b",
      "l1BlobBaseFee": "0x58a2f67",
      "l1BlobBaseFeeScalar": "0xf79c5",
      "l1Fee": "0x58d04f685",
      "l1GasPrice": "0x66bb5b50",
      "l1GasUsed": "0x640"
    },
    {
      "status": "0x1",
      "cumulativeGasUsed": "0x93ada",
      "logs": [
        {
          "address": "0x0d3e216236e9f7271dabf652ca43d9c9eb489734",
          "topics": [
            "0xbc7cd75a20ee27fd9adebab32041f755214dbc6bffa90cc0225b39da2e5c2d3b",
            "0x0000000000000000000000001d2c00208dd9cb6cc788aacb6b07a9071b5772a8"
          ],
          "data": "0x",
          "blockHash": "0x36c509d6f7232fff2f3dae2185603154032d7854516c0ac36f49fb7a22e38bf8",
          "blockNumber": "0x8fde793",
          "blockTimestamp": "0x69efa8df",
          "transactionHash": "0x771b5520eefe99b2f907adf84192ea1402414b64d449d273aa3ee20e36d6d2df",
          "transactionIndex": "0x2",
          "logIndex": "0x13",
          "removed": false
        }
      ],
      "logsBloom": "0x00000000000000000000000000000000400000000000000000000000000000000000000000000000000000000000000000000000000000000000000000000000000000000010000000000000000002000000000000000000000000000000000000000000000000000000000000000000000000000000000000000000400000000001000000008000000000000000000000000000000000000000000000000000000000000000000000000000000000000000000000000000000000000000000000000020000000400000000000000000000000000000000000000000000000000000000000000000000000000000000000000000000000400000000000000000",
      "type": "0x0",
      "transactionHash": "0x771b5520eefe99b2f907adf84192ea1402414b64d449d273aa3ee20e36d6d2df",
      "transactionIndex": "0x2",
      "blockHash": "0x36c509d6f7232fff2f3dae2185603154032d7854516c0ac36f49fb7a22e38bf8",
      "blockNumber": "0x8fde793",
      "gasUsed": "0xc77b",
      "effectiveGasPrice": "0xf437f",
      "blobGasUsed": "0x9c40",
      "from": "0xcfb802de1046d47405b3197c3ccd340ed91ca80d",
      "to": "0x0d3e216236e9f7271dabf652ca43d9c9eb489734",
      "contractAddress": null,
      "daFootprintGasScalar": "0x190",
      "l1BaseFeeScalar": "0x146b",
      "l1BlobBaseFee": "0x58f7f70",
      "l1BlobBaseFeeScalar": "0xf79c5",
      "l1Fee": "0x57aba45b5",
      "l1GasPrice": "0x644b0382",
      "l1GasUsed": "0x640"
    },
    {
      "status": "0x1",
      "cumulativeGasUsed": "0x21759f",
      "logs": [
        {
          "address": "0x10bbcd5e4cf147e67abab8a24ee31599cb022993",
          "topics": [
            "0xbc7cd75a20ee27fd9adebab32041f755214dbc6bffa90cc0225b39da2e5c2d3b",
            "0x0000000000000000000000001d2c00208dd9cb6cc788aacb6b07a9071b5772a8"
          ],
          "data": "0x",
          "blockHash": "0x175cf548e7b3dab723ada91827a9b3ee259da496ec4550f0b2aa8bd7388d8de8",
          "blockNumber": "0x8fde794",
          "blockTimestamp": "0x69efa8e1",
          "transactionHash": "0x6fe2bed6ae6ee102f7e9941bbe0cb564a9d51a2051d1a076c6ddb7df6c916f95",
          "transactionIndex": "0x12",
          "logIndex": "0x13",
          "removed": false
        }
      ],
      "logsBloom": "0x00000000000000000000000000000001400000000000000000000000000000000000000000000000000000000000000000000000000000000000000000000000000000000000004000000000000002000000000000000000000000000000000000000000000000000000000000000000000000000000000000000000400000000001000000040000000000000000000000000000000000000000000000000000000000000000000000000000000000000000000000000000000000000000000000000020000000400000000000000000000000000000000000000000000000000000000000000000000000000000000000000000000000000000000000000000",
      "type": "0x0",
      "transactionHash": "0x6fe2bed6ae6ee102f7e9941bbe0cb564a9d51a2051d1a076c6ddb7df6c916f95",
      "transactionIndex": "0x12",
      "blockHash": "0x175cf548e7b3dab723ada91827a9b3ee259da496ec4550f0b2aa8bd7388d8de8",
      "blockNumber": "0x8fde794",
      "gasUsed": "0xc77b",
      "effectiveGasPrice": "0xf437f",
      "blobGasUsed": "0x9c40",
      "from": "0xcfb802de1046d47405b3197c3ccd340ed91ca80d",
      "to": "0x10bbcd5e4cf147e67abab8a24ee31599cb022993",
      "contractAddress": null,
      "daFootprintGasScalar": "0x190",
      "l1BaseFeeScalar": "0x146b",
      "l1BlobBaseFee": "0x58f7f70",
      "l1BlobBaseFeeScalar": "0xf79c5",
      "l1Fee": "0x57aba45b5",
      "l1GasPrice": "0x644b0382",
      "l1GasUsed": "0x640"
    },
    {
      "status": "0x1",
      "cumulativeGasUsed": "0x4c0709",
      "logs": [
        {
          "address": "0x14dd526025140d9fccda1358a50cbbdde122cdb1",
          "topics": [
            "0xbc7cd75a20ee27fd9adebab32041f755214dbc6bffa90cc0225b39da2e5c2d3b",
            "0x0000000000000000000000001d2c00208dd9cb6cc788aacb6b07a9071b5772a8"
          ],
          "data": "0x",
          "blockHash": "0xfcb2fae94250b72ffcfb80d52bf9fd5b3fbc8f6498ac87298a9f3c5f30e26fc2",
          "blockNumber": "0x8fde795",
          "blockTimestamp": "0x69efa8e3",
          "transactionHash": "0xaab5fde14a4360248342604781f58fd0aff0c62b91295494152818ab4285ed48",
          "transactionIndex": "0xe",
          "logIndex": "0x4c",
          "removed": false
        }
      ],
      "logsBloom": "0x00000000000000000000000000000000400000000000000000000000000000000000000000000000000000000000000000000000000000000000000000000000000000000000000000000000000002000000000000000000000000000000000000000000000000000000000000000000000000000000000000000000400000000001000000000000000000000000000000000000000000000000000000000000000000000000000000000000000000000000000000000000000000000000020000000020000000400000000000100000000000000000000000000000000000000000000000000000000000000000000000000000000000020000000000000000",
      "type": "0x0",
      "transactionHash": "0xaab5fde14a4360248342604781f58fd0aff0c62b91295494152818ab4285ed48",
      "transactionIndex": "0xe",
      "blockHash": "0xfcb2fae94250b72ffcfb80d52bf9fd5b3fbc8f6498ac87298a9f3c5f30e26fc2",
      "blockNumber": "0x8fde795",
      "gasUsed": "0xc77b",
      "effectiveGasPrice": "0xf437f",
      "blobGasUsed": "0x9c40",
      "from": "0xcfb802de1046d47405b3197c3ccd340ed91ca80d",
      "to": "0x14dd526025140d9fccda1358a50cbbdde122cdb1",
      "contractAddress": null,
      "daFootprintGasScalar": "0x190",
      "l1BaseFeeScalar": "0x146b",
      "l1BlobBaseFee": "0x58f7f70",
      "l1BlobBaseFeeScalar": "0xf79c5",
      "l1Fee": "0x57aba45b5",
      "l1GasPrice": "0x644b0382",
      "l1GasUsed": "0x640"
    },
    {
      "status": "0x1",
      "cumulativeGasUsed": "0x345f9b",
      "logs": [
        {
          "address": "0x1ef94b88720b6aa0649e43a96f3be16588e3e5f4",
          "topics": [
            "0xbc7cd75a20ee27fd9adebab32041f755214dbc6bffa90cc0225b39da2e5c2d3b",
            "0x0000000000000000000000001d2c00208dd9cb6cc788aacb6b07a9071b5772a8"
          ],
          "data": "0x",
          "blockHash": "0xbf5bd49b14656f8960c12ac47279b73588d706c928cda008cc69cf21500fcba5",
          "blockNumber": "0x8fde796",
          "blockTimestamp": "0x69efa8e5",
          "transactionHash": "0xf6b675ad82d45d7fae3a3353bf8b541f5df5310f0d7c7c10e33b7b29b4a47d54",
          "transactionIndex": "0xa",
          "logIndex": "0x2a",
          "removed": false
        }
      ],
      "logsBloom": "0x00000000000000000000000000000000420000000000000000000000000000000000000000000000000000000000000000000000000400000000000000000000000000000000000000000000000002000000000000000000000000000000000000000000000000000000000000000000000000000000000000000000400000000001000000000000000000000000000000000000000000000000000000000000000000000000000000000000000200000000000000000000000000000000000000000020000000400000000000000000000000000000000000000000000000000000000000000000000000000000000000000000000000000000000000000000",
      "type": "0x0",
      "transactionHash": "0xf6b675ad82d45d7fae3a3353bf8b541f5df5310f0d7c7c10e33b7b29b4a47d54",
      "transactionIndex": "0xa",
      "blockHash": "0xbf5bd49b14656f8960c12ac47279b73588d706c928cda008cc69cf21500fcba5",
      "blockNumber": "0x8fde796",
      "gasUsed": "0xc77b",
      "effectiveGasPrice": "0xf437f",
      "blobGasUsed": "0x9c40",
      "from": "0xcfb802de1046d47405b3197c3ccd340ed91ca80d",
      "to": "0x1ef94b88720b6aa0649e43a96f3be16588e3e5f4",
      "contractAddress": null,
      "daFootprintGasScalar": "0x190",
      "l1BaseFeeScalar": "0x146b",
      "l1BlobBaseFee": "0x58f7f70",
      "l1BlobBaseFeeScalar": "0xf79c5",
      "l1Fee": "0x57aba45b5",
      "l1GasPrice": "0x644b0382",
      "l1GasUsed": "0x640"
    },
    {
      "status": "0x1",
      "cumulativeGasUsed": "0x44ee60",
      "logs": [
        {
          "address": "0x2088bbe7e70acfaf643e834c96aa4c277be6653e",
          "topics": [
            "0xbc7cd75a20ee27fd9adebab32041f755214dbc6bffa90cc0225b39da2e5c2d3b",
            "0x0000000000000000000000001d2c00208dd9cb6cc788aacb6b07a9071b5772a8"
          ],
          "data": "0x",
          "blockHash": "0xcfd6c508347b01d3f51fec4624e9328caf1153551dbe59fdc04148b266d6ad83",
          "blockNumber": "0x8fde797",
          "blockTimestamp": "0x69efa8e7",
          "transactionHash": "0x44970b81638a4388aee26cd10fe3784f3483f810ed228b1eda07e7b610de4b24",
          "transactionIndex": "0xc",
          "logIndex": "0x5d",
          "removed": false
        }
      ],
      "logsBloom": "0x00000000000000000000000800000000400000000000000000000000000000000000000000000000000000000000000000000000000000000000000000000000000000000000000000000000000002000000000000000000000000000000000000000000000000000000000000000020000000000000000000000000400000000001000000000000000000000000000000000000000000000000000000000000000000000000000000000000000000000000000000000000000000000000000000000020000000400000000000000000000000000000000000000000000000000002000000000000000000000000000000000000000000000000000000000000",
      "type": "0x0",
      "transactionHash": "0x44970b81638a4388aee26cd10fe3784f3483f810ed228b1eda07e7b610de4b24",
      "transactionIndex": "0xc",
      "blockHash": "0xcfd6c508347b01d3f51fec4624e9328caf1153551dbe59fdc04148b266d6ad83",
      "blockNumber": "0x8fde797",
      "gasUsed": "0xc77b",
      "effectiveGasPrice": "0xf437f",
      "blobGasUsed": "0x9c40",
      "from": "0xcfb802de1046d47405b3197c3ccd340ed91ca80d",
      "to": "0x2088bbe7e70acfaf643e834c96aa4c277be6653e",
      "contractAddress": null,
      "daFootprintGasScalar": "0x190",
      "l1BaseFeeScalar": "0x146b",
      "l1BlobBaseFee": "0x58f7f70",
      "l1BlobBaseFeeScalar": "0xf79c5",
      "l1Fee": "0x57aba45b5",
      "l1GasPrice": "0x644b0382",
      "l1GasUsed": "0x640"
    },
    {
      "status": "0x1",
      "cumulativeGasUsed": "0x25f322",
      "logs": [
        {
          "address": "0x2171ec78778dda68a993704b607f23e6e4f17783",
          "topics": [
            "0xbc7cd75a20ee27fd9adebab32041f755214dbc6bffa90cc0225b39da2e5c2d3b",
            "0x0000000000000000000000001d2c00208dd9cb6cc788aacb6b07a9071b5772a8"
          ],
          "data": "0x",
          "blockHash": "0xf8c37248f420942811d45689183c2ec3ba12a9e314a69b6e3f73881fa1fdfd9b",
          "blockNumber": "0x8fde798",
          "blockTimestamp": "0x69efa8e9",
          "transactionHash": "0x914e269f8fcfad0f32ee6337861dfa4cd10d96a0ee0b47095b2611f4db2324c9",
          "transactionIndex": "0xb",
          "logIndex": "0x34",
          "removed": false
        }
      ],
      "logsBloom": "0x00000000000000000000000000000000400000000000000000000000000000000000000000000000000000000000400000000000000000000000000000000010000000040000000000000000000002000000000000000000000000000000000000000000000000000000000000000000000000000000000000000000400000000001000000000000000000000000000000000000000000000000000000000000000000000000000000000000000000000000000000000000000000000000000000000020000000400000000000000000000000000000000000000000000000000000000000000000000000000000000000000000000000000000000000000000",
      "type": "0x0",
      "transactionHash": "0x914e269f8fcfad0f32ee6337861dfa4cd10d96a0ee0b47095b2611f4db2324c9",
      "transactionIndex": "0xb",
      "blockHash": "0xf8c37248f420942811d45689183c2ec3ba12a9e314a69b6e3f73881fa1fdfd9b",
      "blockNumber": "0x8fde798",
      "gasUsed": "0xc77b",
      "effectiveGasPrice": "0xf437f",
      "blobGasUsed": "0x9c40",
      "from": "0xcfb802de1046d47405b3197c3ccd340ed91ca80d",
      "to": "0x2171ec78778dda68a993704b607f23e6e4f17783",
      "contractAddress": null,
      "daFootprintGasScalar": "0x190",
      "l1BaseFeeScalar": "0x146b",
      "l1BlobBaseFee": "0x5b53f8e",
      "l1BlobBaseFeeScalar": "0xf79c5",
      "l1Fee": "0x589119706",
      "l1GasPrice": "0x643831f9",
      "l1GasUsed": "0x640"
    },
    {
      "status": "0x1",
      "cumulativeGasUsed": "0x3a8872",
      "logs": [
        {
          "address": "0x3da181b922a890ec30c41ebe764c49f28f890e77",
          "topics": [
            "0xbc7cd75a20ee27fd9adebab32041f755214dbc6bffa90cc0225b39da2e5c2d3b",
            "0x0000000000000000000000001d2c00208dd9cb6cc788aacb6b07a9071b5772a8"
          ],
          "data": "0x",
          "blockHash": "0xd2218a4b840213f885015008c8d47eda07c4eb43425b9f3bae22f87a1155cfef",
          "blockNumber": "0x8fde799",
          "blockTimestamp": "0x69efa8eb",
          "transactionHash": "0x10a9e54b0ac49cda97ede6bb6f1efad4dd7246d5451924d2f491cd255d78b87a",
          "transactionIndex": "0xd",
          "logIndex": "0x65",
          "removed": false
        }
      ],
      "logsBloom": "0x00000000000000000000000000000000400000000000000000000000000000000000000000000000000000000000000000000000000000000000000000000000000000000000000000000000000002000000000000000010000000000000000000000000000000000000000000004000000000000000000000000000400000000001000000000000000000000000000000000000000000000000000000000000000000000000000000000000000000000000000000000000000000000000000000000020000000400000000000000000000000000000000000000000000000004000000000000000000000000000000000000000000000000000000000000000",
      "type": "0x0",
      "transactionHash": "0x10a9e54b0ac49cda97ede6bb6f1efad4dd7246d5451924d2f491cd255d78b87a",
      "transactionIndex": "0xd",
      "blockHash": "0xd2218a4b840213f885015008c8d47eda07c4eb43425b9f3bae22f87a1155cfef",
      "blockNumber": "0x8fde799",
      "gasUsed": "0xc77b",
      "effectiveGasPrice": "0xf437f",
      "blobGasUsed": "0x9c40",
      "from": "0xcfb802de1046d47405b3197c3ccd340ed91ca80d",
      "to": "0x3da181b922a890ec30c41ebe764c49f28f890e77",
      "contractAddress": null,
      "daFootprintGasScalar": "0x190",
      "l1BaseFeeScalar": "0x146b",
      "l1BlobBaseFee": "0x5b53f8e",
      "l1BlobBaseFeeScalar": "0xf79c5",
      "l1Fee": "0x589119706",
      "l1GasPrice": "0x643831f9",
      "l1GasUsed": "0x640"
    },
    {
      "status": "0x1",
      "cumulativeGasUsed": "0x42d78f",
      "logs": [
        {
          "address": "0x48db6422155a037bbb347eb97aaba88e651f4003",
          "topics": [
            "0xbc7cd75a20ee27fd9adebab32041f755214dbc6bffa90cc0225b39da2e5c2d3b",
            "0x0000000000000000000000001d2c00208dd9cb6cc788aacb6b07a9071b5772a8"
          ],
          "data": "0x",
          "blockHash": "0xca9b0929ee76821bdd8c118655141957836fc4bd5a02a32342c396bae56dc8ba",
          "blockNumber": "0x8fde79a",
          "blockTimestamp": "0x69efa8ed",
          "transactionHash": "0xc10b79533311d511140288cf8a9655370bb96ae6a41a919ab01b745dc3011ea7",
          "transactionIndex": "0xe",
          "logIndex": "0x70",
          "removed": false
        }
      ],
      "logsBloom": "0x00000000000000000000000000000000400000000000000000000000000000000000000000000000000000000000000000000000000000000000000000000000000000000000000000000000000002000000000000000000000000000000000000000000000000000000000000000000000000000000000000000000400000000001000000000000000000000000000000000000000000000000000000000000000000000000000000000000000000000000000040000000000000000000000000000020000000400000000000000000000000000000000000000000800000000000000000000000000000000000000000000004000000000000000000000000",
      "type": "0x0",
      "transactionHash": "0xc10b79533311d511140288cf8a9655370bb96ae6a41a919ab01b745dc3011ea7",
      "transactionIndex": "0xe",
      "blockHash": "0xca9b0929ee76821bdd8c118655141957836fc4bd5a02a32342c396bae56dc8ba",
      "blockNumber": "0x8fde79a",
      "gasUsed": "0xc77b",
      "effectiveGasPrice": "0xf437f",
      "blobGasUsed": "0x9c40",
      "from": "0xcfb802de1046d47405b3197c3ccd340ed91ca80d",
      "to": "0x48db6422155a037bbb347eb97aaba88e651f4003",
      "contractAddress": null,
      "daFootprintGasScalar": "0x190",
      "l1BaseFeeScalar": "0x146b",
      "l1BlobBaseFee": "0x5b53f8e",
      "l1BlobBaseFeeScalar": "0xf79c5",
      "l1Fee": "0x589119706",
      "l1GasPrice": "0x643831f9",
      "l1GasUsed": "0x640"
    },
    {
      "status": "0x1",
      "cumulativeGasUsed": "0x39a815",
      "logs": [
        {
          "address": "0x4e8b0da13f858b0c101a28b7a92e42ae28ace5a4",
          "topics": [
            "0xbc7cd75a20ee27fd9adebab32041f755214dbc6bffa90cc0225b39da2e5c2d3b",
            "0x0000000000000000000000001d2c00208dd9cb6cc788aacb6b07a9071b5772a8"
          ],
          "data": "0x",
          "blockHash": "0x41b69aae3d9b5421a05c9b84d02f633e9e2896e1069e3beb88b3af04a0902896",
          "blockNumber": "0x8fde79b",
          "blockTimestamp": "0x69efa8ef",
          "transactionHash": "0x721c6324da3ca4232b7fa8c6cc3d828a034621efa93410a599fa91a51350d6fb",
          "transactionIndex": "0xc",
          "logIndex": "0x68",
          "removed": false
        }
      ],
      "logsBloom": "0x00000000000000000000000000000000400000000000000000000000000000000000000000000000000000000000000000004000000000000000000000000000000000000000000000000000000002000000000000000000000000000000000000000000000000000000000000000000000000000000000000000000400000000011000000000000000000000000000000000000000000000000000000010000000000000000000000000000000000000000000000000000000000000000000000000020000000400000000000000000000000000000000000000000000000000000000000000000000000000000000000000000000000000000000000000000",
      "type": "0x0",
      "transactionHash": "0x721c6324da3ca4232b7fa8c6cc3d828a034621efa93410a599fa91a51350d6fb",
      "transactionIndex": "0xc",
      "blockHash": "0x41b69aae3d9b5421a05c9b84d02f633e9e2896e1069e3beb88b3af04a0902896",
      "blockNumber": "0x8fde79b",
      "gasUsed": "0xc77b",
      "effectiveGasPrice": "0xf437f",
      "blobGasUsed": "0x9c40",
      "from": "0xcfb802de1046d47405b3197c3ccd340ed91ca80d",
      "to": "0x4e8b0da13f858b0c101a28b7a92e42ae28ace5a4",
      "contractAddress": null,
      "daFootprintGasScalar": "0x190",
      "l1BaseFeeScalar": "0x146b",
      "l1BlobBaseFee": "0x5b53f8e",
      "l1BlobBaseFeeScalar": "0xf79c5",
      "l1Fee": "0x589119706",
      "l1GasPrice": "0x643831f9",
      "l1GasUsed": "0x640"
    },
    {
      "status": "0x1",
      "cumulativeGasUsed": "0x2f7059",
      "logs": [
        {
          "address": "0x5326f5264f547db8d3d6f39543f3767884dad3e5",
          "topics": [
            "0xbc7cd75a20ee27fd9adebab32041f755214dbc6bffa90cc0225b39da2e5c2d3b",
            "0x0000000000000000000000001d2c00208dd9cb6cc788aacb6b07a9071b5772a8"
          ],
          "data": "0x",
          "blockHash": "0xd4826f1ab73fa37a923db66536f6dd0c8d96effa157393e82ff48daeadbddf22",
          "blockNumber": "0x8fde79c",
          "blockTimestamp": "0x69efa8f1",
          "transactionHash": "0xa3100aeba3f0dc43143ee187bf694f77f5134dd4624b885228f903c44ec45300",
          "transactionIndex": "0xd",
          "logIndex": "0x43",
          "removed": false
        }
      ],
      "logsBloom": "0x00000000000000000000000000000000400000000000000000000000000000000000000000000000000001000000000000000000000000000000000000000000000000000000000000001000000002000000000000000000000000000000000000000000000000000000000000000000000000000000000000000000400000000001000000000000000000000000000000000000000000000000000000000000000000000000000000000000000000000000000000000000000000000000000000000020000000400000000000000000000000000000000000000000004000000000000000000000000000000000000000000000000000000000000000000000",
      "type": "0x0",
      "transactionHash": "0xa3100aeba3f0dc43143ee187bf694f77f5134dd4624b885228f903c44ec45300",
      "transactionIndex": "0xd",
      "blockHash": "0xd4826f1ab73fa37a923db66536f6dd0c8d96effa157393e82ff48daeadbddf22",
      "blockNumber": "0x8fde79c",
      "gasUsed": "0xc77b",
      "effectiveGasPrice": "0xf437f",
      "blobGasUsed": "0x9c40",
      "from": "0xcfb802de1046d47405b3197c3ccd340ed91ca80d",
      "to": "0x5326f5264f547db8d3d6f39543f3767884dad3e5",
      "contractAddress": null,
      "daFootprintGasScalar": "0x190",
      "l1BaseFeeScalar": "0x146b",
      "l1BlobBaseFee": "0x5b53f8e",
      "l1BlobBaseFeeScalar": "0xf79c5",
      "l1Fee": "0x589119706",
      "l1GasPrice": "0x643831f9",
      "l1GasUsed": "0x640"
    },
    {
      "status": "0x1",
      "cumulativeGasUsed": "0x33bc5d",
      "logs": [
        {
          "address": "0x576cb81030cc47ccb7aef97e9e88d2648edb45db",
          "topics": [
            "0xbc7cd75a20ee27fd9adebab32041f755214dbc6bffa90cc0225b39da2e5c2d3b",
            "0x0000000000000000000000001d2c00208dd9cb6cc788aacb6b07a9071b5772a8"
          ],
          "data": "0x",
          "blockHash": "0x62a4f815cbf24d0df222035a54651a877fe03dfb9f4c5e2f8fdd8ebf2d02c410",
          "blockNumber": "0x8fde79d",
          "blockTimestamp": "0x69efa8f3",
          "transactionHash": "0x950336cd30a8b1b9e91e2b6ab4cfd968be9f9f6c7f5abbbb7a44dabc53a0d4da",
          "transactionIndex": "0xb",
          "logIndex": "0xb",
          "removed": false
        }
      ],
      "logsBloom": "0x00000000000000000000000000000000400000000000000000000000000000000000000000000000000000000000000000000000000000000000000000000000000000000000000000000000000002000000000000000000000000000000000000000000000000000000000000000000000000000000000000000000400000000001000000000000000000000000000000040000000000000000000000000000000000000000000000000000000000000000000000000000000000000000000000000020000000400000000000000010000000000000000000000000000000080000000000000000000000000000000000000000000000000000000000000000",
      "type": "0x0",
      "transactionHash": "0x950336cd30a8b1b9e91e2b6ab4cfd968be9f9f6c7f5abbbb7a44dabc53a0d4da",
      "transactionIndex": "0xb",
      "blockHash": "0x62a4f815cbf24d0df222035a54651a877fe03dfb9f4c5e2f8fdd8ebf2d02c410",
      "blockNumber": "0x8fde79d",
      "gasUsed": "0xc77b",
      "effectiveGasPrice": "0xf437f",
      "blobGasUsed": "0x9c40",
      "from": "0xcfb802de1046d47405b3197c3ccd340ed91ca80d",
      "to": "0x576cb81030cc47ccb7aef97e9e88d2648edb45db",
      "contractAddress": null,
      "daFootprintGasScalar": "0x190",
      "l1BaseFeeScalar": "0x146b",
      "l1BlobBaseFee": "0x5b53f8e",
      "l1BlobBaseFeeScalar": "0xf79c5",
      "l1Fee": "0x589119706",
      "l1GasPrice": "0x643831f9",
      "l1GasUsed": "0x640"
    },
    {
      "status": "0x1",
      "cumulativeGasUsed": "0x4663cd",
      "logs": [
        {
          "address": "0x59c47c30da2a0ca7359590f023da0284fef83e73",
          "topics": [
            "0xbc7cd75a20ee27fd9adebab32041f755214dbc6bffa90cc0225b39da2e5c2d3b",
            "0x0000000000000000000000001d2c00208dd9cb6cc788aacb6b07a9071b5772a8"
          ],
          "data": "0x",
          "blockHash": "0x3280c6c59d926983f97c911cc15a1db7fba7379851496220da8cf2c8b761912d",
          "blockNumber": "0x8fde79e",
          "blockTimestamp": "0x69efa8f5",
          "transactionHash": "0x444c2dd7a0abe1938c45888808591251e86d62ab6a6e22938bb79b02c7f1a83f",
          "transactionIndex": "0xc",
          "logIndex": "0x45",
          "removed": false
        }
      ],
      "logsBloom": "0x00000020000000000000000000000000400000000000000000000000000000000000000000000000000000000000000000002000000000000000000000000000000000000000000000000000000002000000000000000000000000000000000000000800000000000000000000000000000000000000000000000000400000000001000000000000000000000000000000000000000000000000000000000000000000000000000000000000000000000000000000000000000000000000000000000020000000400000000000000000000000000000000000000000000000000000000000000000000000000000000000000000000000000000000000000000",
      "type": "0x0",
      "transactionHash": "0x444c2dd7a0abe1938c45888808591251e86d62ab6a6e22938bb79b02c7f1a83f",
      "transactionIndex": "0xc",
      "blockHash": "0x3280c6c59d926983f97c911cc15a1db7fba7379851496220da8cf2c8b761912d",
      "blockNumber": "0x8fde79e",
      "gasUsed": "0xc77b",
      "effectiveGasPrice": "0xf437f",
      "blobGasUsed": "0x9c40",
      "from": "0xcfb802de1046d47405b3197c3ccd340ed91ca80d",
      "to": "0x59c47c30da2a0ca7359590f023da0284fef83e73",
      "contractAddress": null,
      "daFootprintGasScalar": "0x190",
      "l1BaseFeeScalar": "0x146b",
      "l1BlobBaseFee": "0x5d0d304",
      "l1BlobBaseFeeScalar": "0xf79c5",
      "l1Fee": "0x585bea341",
      "l1GasPrice": "0x62840757",
      "l1GasUsed": "0x640"
    },
    {
      "status": "0x1",
      "cumulativeGasUsed": "0x294085",
      "logs": [
        {
          "address": "0x5b1a1dcbf48c0f317102d05d10caa258b9c9d1c5",
          "topics": [
            "0xbc7cd75a20ee27fd9adebab32041f755214dbc6bffa90cc0225b39da2e5c2d3b",
            "0x0000000000000000000000001d2c00208dd9cb6cc788aacb6b07a9071b5772a8"
          ],
          "data": "0x",
          "blockHash": "0xbd230e53217dd205b01ed8cf1cd18ab952af88e9bc17669d388cdfb4acad03d7",
          "blockNumber": "0x8fde79f",
          "blockTimestamp": "0x69efa8f7",
          "transactionHash": "0x3936192975ad6c5eef154823fdf1ff9a75b1624bd29fe49ddc8669837c74493e",
          "transactionIndex": "0xa",
          "logIndex": "0x2d",
          "removed": false
        }
      ],
      "logsBloom": "0x00000000000000000000000000000000400000000000000000000000000000000000000000000000000000000000000000000000000000000400000000000000000000000000000000000000000002000000000000000000000000000000000000000000000000000000000000000000000000000000000000000000400000000001000000000000000000000000000000000000000000000000000000000000000000200000000000000000000000000000000000000000000000000000000000000020000000400000000000000000000000000000000000000000000000000000000000000000000000000000000000000000020000000000000000000000",
      "type": "0x0",
      "transactionHash": "0x3936192975ad6c5eef154823fdf1ff9a75b1624bd29fe49ddc8669837c74493e",
      "transactionIndex": "0xa",
      "blockHash": "0xbd230e53217dd205b01ed8cf1cd18ab952af88e9bc17669d388cdfb4acad03d7",
      "blockNumber": "0x8fde79f",
      "gasUsed": "0xc77b",
      "effectiveGasPrice": "0xf437f",
      "blobGasUsed": "0x9c40",
      "from": "0xcfb802de1046d47405b3197c3ccd340ed91ca80d",
      "to": "0x5b1a1dcbf48c0f317102d05d10caa258b9c9d1c5",
      "contractAddress": null,
      "daFootprintGasScalar": "0x190",
      "l1BaseFeeScalar": "0x146b",
      "l1BlobBaseFee": "0x5d0d304",
      "l1BlobBaseFeeScalar": "0xf79c5",
      "l1Fee": "0x585bea341",
      "l1GasPrice": "0x62840757",
      "l1GasUsed": "0x640"
    },
    {
      "status": "0x1",
      "cumulativeGasUsed": "0x3b4df9",
      "logs": [
        {
          "address": "0x6185357e28d2feb72a7606a3b66811f88279dd3d",
          "topics": [
            "0xbc7cd75a20ee27fd9adebab32041f755214dbc6bffa90cc0225b39da2e5c2d3b",
            "0x0000000000000000000000001d2c00208dd9cb6cc788aacb6b07a9071b5772a8"
          ],
          "data": "0x",
          "blockHash": "0x4e3d07e31453bbfb56545c7fd20bd952a00432634366a9b64e84f51f5452ad5b",
          "blockNumber": "0x8fde7a0",
          "blockTimestamp": "0x69efa8f9",
          "transactionHash": "0xd8c8d4afb31626f174888d07f08eff564d37ef784d12b27b443a3a2ca3d239e2",
          "transactionIndex": "0xf",
          "logIndex": "0x5a",
          "removed": false
        }
      ],
      "logsBloom": "0x00000000000000000000000000000000400000000000000000000000000000000000000000000000000000000000000000000000000000000000000000000000000000000000000000000000000002000000000000000000000000000000000000000000000000000000000000000000000000000000000000000000400000000001000008000000000000000000000000000000000000000000000000000000000000000000000000000000000000000004000000000000000200000000000000000020000000400000000000000000000000000000000000000000000000000000000000000000000000000000000000000000000000000000000000000000",
      "type": "0x0",
      "transactionHash": "0xd8c8d4afb31626f174888d07f08eff564d37ef784d12b27b443a3a2ca3d239e2",
      "transactionIndex": "0xf",
      "blockHash": "0x4e3d07e31453bbfb56545c7fd20bd952a00432634366a9b64e84f51f5452ad5b",
      "blockNumber": "0x8fde7a0",
      "gasUsed": "0xc77b",
      "effectiveGasPrice": "0xf437f",
      "blobGasUsed": "0x9c40",
      "from": "0xcfb802de1046d47405b3197c3ccd340ed91ca80d",
      "to": "0x6185357e28d2feb72a7606a3b66811f88279dd3d",
      "contractAddress": null,
      "daFootprintGasScalar": "0x190",
      "l1BaseFeeScalar": "0x146b",
      "l1BlobBaseFee": "0x5d0d304",
      "l1BlobBaseFeeScalar": "0xf79c5",
      "l1Fee": "0x585bea341",
      "l1GasPrice": "0x62840757",
      "l1GasUsed": "0x640"
    },
    {
      "status": "0x1",
      "cumulativeGasUsed": "0x498ba9",
      "logs": [
        {
          "address": "0x6cc78ed3a4d8aa94410a60f702235c85d584730f",
          "topics": [
            "0xbc7cd75a20ee27fd9adebab32041f755214dbc6bffa90cc0225b39da2e5c2d3b",
            "0x0000000000000000000000001d2c00208dd9cb6cc788aacb6b07a9071b5772a8"
          ],
          "data": "0x",
          "blockHash": "0x4013364d97b5cd9cb5e491772ab44d685e8f4cb743bf5b8bc662c956209942d8",
          "blockNumber": "0x8fde7a1",
          "blockTimestamp": "0x69efa8fb",
          "transactionHash": "0x9749ae87ac9eea7193f419f43f123092d8ec916b2495e237b749edd873b9a0be",
          "transactionIndex": "0x10",
          "logIndex": "0x5f",
          "removed": false
        }
      ],
      "logsBloom": "0x00000000000000000000000000000000400000000000000000000000000000000000000000000000000000000000000000000400000000000000000000000000000000000000000000000000000002000000000000000000000000000000000000000000000000000000000000000000000000000000000000400000400000000001000000000000000000000000000000000000000000000000000000000000000000000000000000000000000000000000000000000000000000000000000000000020000000400000000000000000000000000000000000000000000000000000000000000000000000000000000000000000000000000000800000000000",
      "type": "0x0",
      "transactionHash": "0x9749ae87ac9eea7193f419f43f123092d8ec916b2495e237b749edd873b9a0be",
      "transactionIndex": "0x10",
      "blockHash": "0x4013364d97b5cd9cb5e491772ab44d685e8f4cb743bf5b8bc662c956209942d8",
      "blockNumber": "0x8fde7a1",
      "gasUsed": "0xc77b",
      "effectiveGasPrice": "0xf437f",
      "blobGasUsed": "0x9c40",
      "from": "0xcfb802de1046d47405b3197c3ccd340ed91ca80d",
      "to": "0x6cc78ed3a4d8aa94410a60f702235c85d584730f",
      "contractAddress": null,
      "daFootprintGasScalar": "0x190",
      "l1BaseFeeScalar": "0x146b",
      "l1BlobBaseFee": "0x5d0d304",
      "l1BlobBaseFeeScalar": "0xf79c5",
      "l1Fee": "0x585bea341",
      "l1GasPrice": "0x62840757",
      "l1GasUsed": "0x640"
    },
    {
      "status": "0x1",
      "cumulativeGasUsed": "0x4c9d70",
      "logs": [
        {
          "address": "0x71566372033aafbd1a62430171ad698768d98dcc",
          "topics": [
            "0xbc7cd75a20ee27fd9adebab32041f755214dbc6bffa90cc0225b39da2e5c2d3b",
            "0x0000000000000000000000001d2c00208dd9cb6cc788aacb6b07a9071b5772a8"
          ],
          "data": "0x",
          "blockHash": "0x43dbcfe4211234f020a624b3f87932bcbebb04a824a50dc8ce894242dff2b5a4",
          "blockNumber": "0x8fde7a2",
          "blockTimestamp": "0x69efa8fd",
          "transactionHash": "0xfde8fffc6f583e86ccb3722ccf2f1907ff386eed8000642c70f002b2aef4772f",
          "transactionIndex": "0xd",
          "logIndex": "0x72",
          "removed": false
        }
      ],
      "logsBloom": "0x00000000000000000000000000000000400000000000000000000000000000000000000000000000000000000000000000000000000000000000000000000000000000000000000000000000000002000000000000000000000000000000000000000000000000000000000000000000000000000000000000000100400000000001000000000000080000000000000000000000000000000000000000000000000000000000000000000000000000000000000000000000000000000000000000000020080000400000000000000000000000000000000000000000000000000000000000000000000000000000000000000000000000000000000000000000",
      "type": "0x0",
      "transactionHash": "0xfde8fffc6f583e86ccb3722ccf2f1907ff386eed8000642c70f002b2aef4772f",
      "transactionIndex": "0xd",
      "blockHash": "0x43dbcfe4211234f020a624b3f87932bcbebb04a824a50dc8ce894242dff2b5a4",
      "blockNumber": "0x8fde7a2",
      "gasUsed": "0xc77b",
      "effectiveGasPrice": "0xf437f",
      "blobGasUsed": "0x9c40",
      "from": "0xcfb802de1046d47405b3197c3ccd340ed91ca80d",
      "to": "0x71566372033aafbd1a62430171ad698768d98dcc",
      "contractAddress": null,
      "daFootprintGasScalar": "0x190",
      "l1BaseFeeScalar": "0x146b",
      "l1BlobBaseFee": "0x5d0d304",
      "l1BlobBaseFeeScalar": "0xf79c5",
      "l1Fee": "0x585bea341",
      "l1GasPrice": "0x62840757",
      "l1GasUsed": "0x640"
    },
    {
      "status": "0x1",
      "cumulativeGasUsed": "0x34e241",
      "logs": [
        {
          "address": "0x87665484460f587a145eca5ce1e769da9ab8abf9",
          "topics": [
            "0xbc7cd75a20ee27fd9adebab32041f755214dbc6bffa90cc0225b39da2e5c2d3b",
            "0x0000000000000000000000001d2c00208dd9cb6cc788aacb6b07a9071b5772a8"
          ],
          "data": "0x",
          "blockHash": "0x4e9b94f3c629236a38eab5105205ecf2adad20e5ad826ef412a729e659ecd645",
          "blockNumber": "0x8fde7a3",
          "blockTimestamp": "0x69efa8ff",
          "transactionHash": "0x44ea5668bfa4298d9e566548fde6a6f9f795897c7613d3cbe14971d57c81b4d5",
          "transactionIndex": "0xa",
          "logIndex": "0x30",
          "removed": false
        }
      ],
      "logsBloom": "0x00000020000000000000000010000000400000000000000000000000000000000000000000000000000000000000000000000000000000000000000000000000000000000000000000000000000002000000000000000000000000000000000000000000000000000000000004000000000000000000000000000000400000000001000000000000000000000000000000000000000000000000000000000000000000000000000000000000000000000000000000000000000000000000000000000020000000400000000000000000000000000000000000000000000000000000000000000000000000000000000000000000000000000000000000000000",
      "type": "0x0",
      "transactionHash": "0x44ea5668bfa4298d9e566548fde6a6f9f795897c7613d3cbe14971d57c81b4d5",
      "transactionIndex": "0xa",
      "blockHash": "0x4e9b94f3c629236a38eab5105205ecf2adad20e5ad826ef412a729e659ecd645",
      "blockNumber": "0x8fde7a3",
      "gasUsed": "0xc77b",
      "effectiveGasPrice": "0xf437f",
      "blobGasUsed": "0x9c40",
      "from": "0xcfb802de1046d47405b3197c3ccd340ed91ca80d",
      "to": "0x87665484460f587a145eca5ce1e769da9ab8abf9",
      "contractAddress": null,
      "daFootprintGasScalar": "0x190",
      "l1BaseFeeScalar": "0x146b",
      "l1BlobBaseFee": "0x5d0d304",
      "l1BlobBaseFeeScalar": "0xf79c5",
      "l1Fee": "0x585bea341",
      "l1GasPrice": "0x62840757",
      "l1GasUsed": "0x640"
    },
    {
      "status": "0x1",
      "cumulativeGasUsed": "0x344b47",
      "logs": [
        {
          "address": "0x888e2fbc7e7afe3a8f9b54030d0cb0eed896f955",
          "topics": [
            "0xbc7cd75a20ee27fd9adebab32041f755214dbc6bffa90cc0225b39da2e5c2d3b",
            "0x0000000000000000000000001d2c00208dd9cb6cc788aacb6b07a9071b5772a8"
          ],
          "data": "0x",
          "blockHash": "0x954034b542ae18c1dcb35336ab95c3d053aaa7ae5b755260bf5d856bfc4e405a",
          "blockNumber": "0x8fde7a4",
          "blockTimestamp": "0x69efa901",
          "transactionHash": "0x9fa0f42178bef9089c91055fe63536daa31a8c38cdc53cfc63d2c8872d1f41de",
          "transactionIndex": "0xb",
          "logIndex": "0x56",
          "removed": false
        }
      ],
      "logsBloom": "0x00000000000000000000000000000000400000000000000000000000000000100000000000000000000000000000000000000000000000000000000000000000000000000000000000000000000002000000000000000000000000000000000000000000000000000000000000000000000000000000000000000000400000000001000000000000000000000000000000000000000000000000000000000000000000000000080000000000000000000000000000000000000000000000000000000020000000400000000000000000000000000000000000000000000000000000000000080000000000000000000000000000000000000000000000000000",
      "type": "0x0",
      "transactionHash": "0x9fa0f42178bef9089c91055fe63536daa31a8c38cdc53cfc63d2c8872d1f41de",
      "transactionIndex": "0xb",
      "blockHash": "0x954034b542ae18c1dcb35336ab95c3d053aaa7ae5b755260bf5d856bfc4e405a",
      "blockNumber": "0x8fde7a4",
      "gasUsed": "0xc77b",
      "effectiveGasPrice": "0xf437f",
      "blobGasUsed": "0x9c40",
      "from": "0xcfb802de1046d47405b3197c3ccd340ed91ca80d",
      "to": "0x888e2fbc7e7afe3a8f9b54030d0cb0eed896f955",
      "contractAddress": null,
      "daFootprintGasScalar": "0x190",
      "l1BaseFeeScalar": "0x146b",
      "l1BlobBaseFee": "0x5d0d304",
      "l1BlobBaseFeeScalar": "0xf79c5",
      "l1Fee": "0x590b0d9ff",
      "l1GasPrice": "0x63d317ed",
      "l1GasUsed": "0x640"
    },
    {
      "status": "0x1",
      "cumulativeGasUsed": "0x3f5b5e",
      "logs": [
        {
          "address": "0x9175dc03307d8f91bc757334959906731f2b60ef",
          "topics": [
            "0xbc7cd75a20ee27fd9adebab32041f755214dbc6bffa90cc0225b39da2e5c2d3b",
            "0x0000000000000000000000001d2c00208dd9cb6cc788aacb6b07a9071b5772a8"
          ],
          "data": "0x",
          "blockHash": "0x22c0d81676fbdcca6a80b7e6e396a2d6754b5552953ae8b028fc8f75b40c9d23",
          "blockNumber": "0x8fde7a5",
          "blockTimestamp": "0x69efa903",
          "transactionHash": "0x7eb47501bbcbabfb5eae6914bd02f0f3af9302ce3874949d57bee90d5982ca24",
          "transactionIndex": "0xa",
          "logIndex": "0x5d",
          "removed": false
        }
      ],
      "logsBloom": "0x00000000000000000000000000000000400000000000000000000000000000000000000000000000000000000000000000000000000000000000000000000000000000000000000000000000000002001000000000000000000000000000000000000000000000000000000000000000000000000000000000000000400000000001000000000000000000000000000000000000000000000000000000000000000000000000000000000000000000000800000000000000000000000000000000000020000000400000000000000000000000000000000000000000000000000000000000000000000000000000000200000000000000000000000000000000",
      "type": "0x0",
      "transactionHash": "0x7eb47501bbcbabfb5eae6914bd02f0f3af9302ce3874949d57bee90d5982ca24",
      "transactionIndex": "0xa",
      "blockHash": "0x22c0d81676fbdcca6a80b7e6e396a2d6754b5552953ae8b028fc8f75b40c9d23",
      "blockNumber": "0x8fde7a5",
      "gasUsed": "0xc77b",
      "effectiveGasPrice": "0xf437f",
      "blobGasUsed": "0x9c40",
      "from": "0xcfb802de1046d47405b3197c3ccd340ed91ca80d",
      "to": "0x9175dc03307d8f91bc757334959906731f2b60ef",
      "contractAddress": null,
      "daFootprintGasScalar": "0x190",
      "l1BaseFeeScalar": "0x146b",
      "l1BlobBaseFee": "0x5d0d304",
      "l1BlobBaseFeeScalar": "0xf79c5",
      "l1Fee": "0x590b0d9ff",
      "l1GasPrice": "0x63d317ed",
      "l1GasUsed": "0x640"
    },
    {
      "status": "0x1",
      "cumulativeGasUsed": "0x32afa3",
      "logs": [
        {
          "address": "0x9b0d2fbc6a0efacb69d716bfd15db8734c550a7c",
          "topics": [
            "0xbc7cd75a20ee27fd9adebab32041f755214dbc6bffa90cc0225b39da2e5c2d3b",
            "0x0000000000000000000000001d2c00208dd9cb6cc788aacb6b07a9071b5772a8"
          ],
          "data": "0x",
          "blockHash": "0x4256f072e8eaa7b7202c6933eec6a65d30ae20a0a3f3e57fa20ae95263d49db6",
          "blockNumber": "0x8fde7a6",
          "blockTimestamp": "0x69efa905",
          "transactionHash": "0xba07d1b8b2b8f1f03c9ddf5ce0a727e0e4fb78da146be31de533a5f662e5adcd",
          "transactionIndex": "0xb",
          "logIndex": "0x58",
          "removed": false
        }
      ],
      "logsBloom": "0x00000000000000000000000000000000400000000000000000000000000000000000000000000000000000000000000000000000000000000000000000000000000000000000000000000000000082000000000000000000000000000000000000000000000000000000000000001000000000000000000000000000400000000001000000000000000000000000000000000000000000000000000000000000000000000000000000000000000000000000000000000000000000000000000000000020000000400000000000000000000000000000000000000000000000000080000000000000000000000000000000000000000000000000000000000000",
      "type": "0x0",
      "transactionHash": "0xba07d1b8b2b8f1f03c9ddf5ce0a727e0e4fb78da146be31de533a5f662e5adcd",
      "transactionIndex": "0xb",
      "blockHash": "0x4256f072e8eaa7b7202c6933eec6a65d30ae20a0a3f3e57fa20ae95263d49db6",
      "blockNumber": "0x8fde7a6",
      "gasUsed": "0xc77b",
      "effectiveGasPrice": "0xf437f",
      "blobGasUsed": "0x9c40",
      "from": "0xcfb802de1046d47405b3197c3ccd340ed91ca80d",
      "to": "0x9b0d2fbc6a0efacb69d716bfd15db8734c550a7c",
      "contractAddress": null,
      "daFootprintGasScalar": "0x190",
      "l1BaseFeeScalar": "0x146b",
      "l1BlobBaseFee": "0x5d0d304",
      "l1BlobBaseFeeScalar": "0xf79c5",
      "l1Fee": "0x590b0d9ff",
      "l1GasPrice": "0x63d317ed",
      "l1GasUsed": "0x640"
    },
    {
      "status": "0x1",
      "cumulativeGasUsed": "0x40dbaa",
      "logs": [
        {
          "address": "0x9ee73d7afd1d75d9d3468ab7845150180936dec4",
          "topics": [
            "0xbc7cd75a20ee27fd9adebab32041f755214dbc6bffa90cc0225b39da2e5c2d3b",
            "0x0000000000000000000000001d2c00208dd9cb6cc788aacb6b07a9071b5772a8"
          ],
          "data": "0x",
          "blockHash": "0x82d35c61555c9e300cf3148e0641f7590602bed4c00a773bc848759a46ca0436",
          "blockNumber": "0x8fde7a7",
          "blockTimestamp": "0x69efa907",
          "transactionHash": "0x2773ecb5ca7d73f727be88cfd48b20facaf0794776dde8e1be6b7ab5a44ccad9",
          "transactionIndex": "0xe",
          "logIndex": "0x72",
          "removed": false
        }
      ],
      "logsBloom": "0x00000000000000000000000000000000400000000000000000000000000000000000000000000000000000000000000000000000000000000000000000000000000000000000000000000000000002080000000000000000000000000000000000000000000000000000000000000000000000000000000000000000400000000001000000000000000000000200000000000000000000000000000000000000000000000000000000000000000000000000000000000000000000000000000000000020000400400000000000000000000000000000000000000000000000000000000000000000000000000000000000000000000000000000000000000000",
      "type": "0x0",
      "transactionHash": "0x2773ecb5ca7d73f727be88cfd48b20facaf0794776dde8e1be6b7ab5a44ccad9",
      "transactionIndex": "0xe",
      "blockHash": "0x82d35c61555c9e300cf3148e0641f7590602bed4c00a773bc848759a46ca0436",
      "blockNumber": "0x8fde7a7",
      "gasUsed": "0xc77b",
      "effectiveGasPrice": "0xf437f",
      "blobGasUsed": "0x9c40",
      "from": "0xcfb802de1046d47405b3197c3ccd340ed91ca80d",
      "to": "0x9ee73d7afd1d75d9d3468ab7845150180936dec4",
      "contractAddress": null,
      "daFootprintGasScalar": "0x190",
      "l1BaseFeeScalar": "0x146b",
      "l1BlobBaseFee": "0x5d0d304",
      "l1BlobBaseFeeScalar": "0xf79c5",
      "l1Fee": "0x590b0d9ff",
      "l1GasPrice": "0x63d317ed",
      "l1GasUsed": "0x640"
    },
    {
      "status": "0x1",
      "cumulativeGasUsed": "0x45cd5e",
      "logs": [
        {
          "address": "0xa00fabc7023321afd3842ff6def9a99ae8cdc51c",
          "topics": [
            "0xbc7cd75a20ee27fd9adebab32041f755214dbc6bffa90cc0225b39da2e5c2d3b",
            "0x0000000000000000000000001d2c00208dd9cb6cc788aacb6b07a9071b5772a8"
          ],
          "data": "0x",
          "blockHash": "0xad80367c65163d785b001afda12c2b91e1b37c00c7c9d8e6dfe0310a98081e9c",
          "blockNumber": "0x8fde7a8",
          "blockTimestamp": "0x69efa909",
          "transactionHash": "0x34445106dc327dbcf8017bfbf1c105dad2b8a33bdfd186b55c61cadeab0ca4c2",
          "transactionIndex": "0xc",
          "logIndex": "0x35",
          "removed": false
        }
      ],
      "logsBloom": "0x00000000000000000000000000000000400000000000000000000000000400000000000000000000000000000000000000000000000000000000000000000000000000000000000000000000000002000000000000000000000000000000000000000000000000000000000000000000000000000000000000000000400000000011000000000000000000000000000000000000000000000000000000000000000000000000000000000000000000000000000000000000000000000000000000000020000000400000010000000000000000000000000000000000000000000000000000000000000000000000000000000000000000000000000000000000",
      "type": "0x0",
      "transactionHash": "0x34445106dc327dbcf8017bfbf1c105dad2b8a33bdfd186b55c61cadeab0ca4c2",
      "transactionIndex": "0xc",
      "blockHash": "0xad80367c65163d785b001afda12c2b91e1b37c00c7c9d8e6dfe0310a98081e9c",
      "blockNumber": "0x8fde7a8",
      "gasUsed": "0xc77b",
      "effectiveGasPrice": "0xf437f",
      "blobGasUsed": "0x9c40",
      "from": "0xcfb802de1046d47405b3197c3ccd340ed91ca80d",
      "to": "0xa00fabc7023321afd3842ff6def9a99ae8cdc51c",
      "contractAddress": null,
      "daFootprintGasScalar": "0x190",
      "l1BaseFeeScalar": "0x146b",
      "l1BlobBaseFee": "0x5d0d304",
      "l1BlobBaseFeeScalar": "0xf79c5",
      "l1Fee": "0x590b0d9ff",
      "l1GasPrice": "0x63d317ed",
      "l1GasUsed": "0x640"
    },
    {
      "status": "0x1",
      "cumulativeGasUsed": "0x3d6137",
      "logs": [
        {
          "address": "0xa8cb166fd9e10103a6dbabefcf942d7b8026f735",
          "topics": [
            "0xbc7cd75a20ee27fd9adebab32041f755214dbc6bffa90cc0225b39da2e5c2d3b",
            "0x0000000000000000000000001d2c00208dd9cb6cc788aacb6b07a9071b5772a8"
          ],
          "data": "0x",
          "blockHash": "0x0a4bd02b20c21de239c7f6c3780a6ae72e16b985510b0f0fb2eadfd73ed9bd98",
          "blockNumber": "0x8fde7a9",
          "blockTimestamp": "0x69efa90b",
          "transactionHash": "0x515cad3f3f1b918cf5a47ff5f070b273a6368ed08c9fabf59a3a3139466ff907",
          "transactionIndex": "0xb",
          "logIndex": "0x4c",
          "removed": false
        }
      ],
      "logsBloom": "0x00000000000000000000000000000000400000000000000000000000000000000000000000000000000000000000000000008000000000000000000000000800000000000000000000000000000002000000000000000000000000000000000000000000000000000000000000000000000000000000000000000000400000800001000000000000000000000000000000000000000000000000000000000000000000000000000000000000000000000000000000000000000000000000000000000020000000400000000000000000000000000000000000000000000000000000000000000000000000000000000000000000000000000000000000000000",
      "type": "0x0",
      "transactionHash": "0x515cad3f3f1b918cf5a47ff5f070b273a6368ed08c9fabf59a3a3139466ff907",
      "transactionIndex": "0xb",
      "blockHash": "0x0a4bd02b20c21de239c7f6c3780a6ae72e16b985510b0f0fb2eadfd73ed9bd98",
      "blockNumber": "0x8fde7a9",
      "gasUsed": "0xc77b",
      "effectiveGasPrice": "0xf437f",
      "blobGasUsed": "0x9c40",
      "from": "0xcfb802de1046d47405b3197c3ccd340ed91ca80d",
      "to": "0xa8cb166fd9e10103a6dbabefcf942d7b8026f735",
      "contractAddress": null,
      "daFootprintGasScalar": "0x190",
      "l1BaseFeeScalar": "0x146b",
      "l1BlobBaseFee": "0x5d0d304",
      "l1BlobBaseFeeScalar": "0xf79c5",
      "l1Fee": "0x590b0d9ff",
      "l1GasPrice": "0x63d317ed",
      "l1GasUsed": "0x640"
    },
    {
      "status": "0x1",
      "cumulativeGasUsed": "0x41cc14",
      "logs": [
        {
          "address": "0xaecc747c84205e21832fc924fe61ca12b313a8e6",
          "topics": [
            "0xbc7cd75a20ee27fd9adebab32041f755214dbc6bffa90cc0225b39da2e5c2d3b",
            "0x0000000000000000000000001d2c00208dd9cb6cc788aacb6b07a9071b5772a8"
          ],
          "data": "0x",
          "blockHash": "0x57cba8982d77059f9e5f6919bba0bb18e32748cf09af83e89b317f447a856996",
          "blockNumber": "0x8fde7aa",
          "blockTimestamp": "0x69efa90d",
          "transactionHash": "0x13d1a133cba178928d16d3d60ac47b01a5f25d06c7885b04e78b5e581a606960",
          "transactionIndex": "0xe",
          "logIndex": "0x72",
          "removed": false
        }
      ],
      "logsBloom": "0x00000000000000000000000000000000400000000000000000000000000000000000000000000000000000000000000000000000000000000000000000000000000000000000000000100000000002000000000000000000000000000000000000000000000000000000000000000000000000000000000000000000400000000001001000000000000000000000000000000000000000000000000000000000000000000000000000000000000000000000000000000000000000000000000000000020000000400000000000000000000000000000000000000000000000000000000000000000000000040000000000000000000000000000000000000000",
      "type": "0x0",
      "transactionHash": "0x13d1a133cba178928d16d3d60ac47b01a5f25d06c7885b04e78b5e581a606960",
      "transactionIndex": "0xe",
      "blockHash": "0x57cba8982d77059f9e5f6919bba0bb18e32748cf09af83e89b317f447a856996",
      "blockNumber": "0x8fde7aa",
      "gasUsed": "0xc77b",
      "effectiveGasPrice": "0xf437f",
      "blobGasUsed": "0x9c40",
      "from": "0xcfb802de1046d47405b3197c3ccd340ed91ca80d",
      "to": "0xaecc747c84205e21832fc924fe61ca12b313a8e6",
      "contractAddress": null,
      "daFootprintGasScalar": "0x190",
      "l1BaseFeeScalar": "0x146b",
      "l1BlobBaseFee": "0x5f84ea1",
      "l1BlobBaseFeeScalar": "0xf79c5",
      "l1Fee": "0x571d1a273",
      "l1GasPrice": "0x5e43482e",
      "l1GasUsed": "0x640"
    },
    {
      "status": "0x1",
      "cumulativeGasUsed": "0x4f7854",
      "logs": [
        {
          "address": "0xb1f32397d6db17db39f625f14286e6e620c3cdc0",
          "topics": [
            "0xbc7cd75a20ee27fd9adebab32041f755214dbc6bffa90cc0225b39da2e5c2d3b",
            "0x0000000000000000000000001d2c00208dd9cb6cc788aacb6b07a9071b5772a8"
          ],
          "data": "0x",
          "blockHash": "0x15ea5fa993a8d61dc3302eb06d43da7c077c41e12c5b23385fe5d1ab7b63d7fb",
          "blockNumber": "0x8fde7ab",
          "blockTimestamp": "0x69efa90f",
          "transactionHash": "0x8341b85450e4cbf76b68368ee06e8e88e0d9db2dda0ea64093813e44a54c2467",
          "transactionIndex": "0x12",
          "logIndex": "0x64",
          "removed": false
        }
      ],
      "logsBloom": "0x00000000000000000000400000000000400000000000000000000000000000000000000000000000000000000000000000000000000000000000000000000000000000000000000000000000000002000000000000000000000000000000000000000000000000000000000000000000000000000000000000000000400000000001000000000000000000000000000000000000000000000000000000000000000000000000000000000000000000000000000000000000200000000000000000000020000000400000000000000000000000000000000000001000000000000000000000000000000000000000000000000000000000000000000000000000",
      "type": "0x0",
      "transactionHash": "0x8341b85450e4cbf76b68368ee06e8e88e0d9db2dda0ea64093813e44a54c2467",
      "transactionIndex": "0x12",
      "blockHash": "0x15ea5fa993a8d61dc3302eb06d43da7c077c41e12c5b23385fe5d1ab7b63d7fb",
      "blockNumber": "0x8fde7ab",
      "gasUsed": "0xc77b",
      "effectiveGasPrice": "0xf437f",
      "blobGasUsed": "0x9c40",
      "from": "0xcfb802de1046d47405b3197c3ccd340ed91ca80d",
      "to": "0xb1f32397d6db17db39f625f14286e6e620c3cdc0",
      "contractAddress": null,
      "daFootprintGasScalar": "0x190",
      "l1BaseFeeScalar": "0x146b",
      "l1BlobBaseFee": "0x5f84ea1",
      "l1BlobBaseFeeScalar": "0xf79c5",
      "l1Fee": "0x571d1a273",
      "l1GasPrice": "0x5e43482e",
      "l1GasUsed": "0x640"
    },
    {
      "status": "0x1",
      "cumulativeGasUsed": "0x57c99d",
      "logs": [
        {
          "address": "0xbbb2313aeb8b1ff309790e20e61280aecd548db4",
          "topics": [
            "0xbc7cd75a20ee27fd9adebab32041f755214dbc6bffa90cc0225b39da2e5c2d3b",
            "0x0000000000000000000000001d2c00208dd9cb6cc788aacb6b07a9071b5772a8"
          ],
          "data": "0x",
          "blockHash": "0xc03a447e0739deb341daab31b4a96b92349272a585dec4ba4856db4ae73f249c",
          "blockNumber": "0x8fde7ac",
          "blockTimestamp": "0x69efa911",
          "transactionHash": "0x6973cbf3837f153a70b809ef964cc88cb3add13aefded32a734fdca8c6ec831e",
          "transactionIndex": "0x11",
          "logIndex": "0x85",
          "removed": false
        }
      ],
      "logsBloom": "0x00000000000000000000000000000000400000000000000000000000000000000000000000000000000000000000000000000000000000000000000000000000000000000000000000002000000002000000000000000000000000000000000000000000000000000000000000000000000000000000000000000000400000000001000000000000000000000000000000000000000000000000000000000000000000000000000000000000000000000000000000000000000000000000000020000020000000400000000008000000000000000000000000000000000000000000000000000000000000000000000000000000000000000000000000000000",
      "type": "0x0",
      "transactionHash": "0x6973cbf3837f153a70b809ef964cc88cb3add13aefded32a734fdca8c6ec831e",
      "transactionIndex": "0x11",
      "blockHash": "0xc03a447e0739deb341daab31b4a96b92349272a585dec4ba4856db4ae73f249c",
      "blockNumber": "0x8fde7ac",
      "gasUsed": "0xc77b",
      "effectiveGasPrice": "0xf437f",
      "blobGasUsed": "0x9c40",
      "from": "0xcfb802de1046d47405b3197c3ccd340ed91ca80d",
      "to": "0xbbb2313aeb8b1ff309790e20e61280aecd548db4",
      "contractAddress": null,
      "daFootprintGasScalar": "0x190",
      "l1BaseFeeScalar": "0x146b",
      "l1BlobBaseFee": "0x5f84ea1",
      "l1BlobBaseFeeScalar": "0xf79c5",
      "l1Fee": "0x571d1a273",
      "l1GasPrice": "0x5e43482e",
      "l1GasUsed": "0x640"
    },
    {
      "status": "0x1",
      "cumulativeGasUsed": "0x44bf52",
      "logs": [
        {
          "address": "0xbc5a25bf2eeb5941dd3531a0ab8857c9f0c3b6a5",
          "topics": [
            "0xbc7cd75a20ee27fd9adebab32041f755214dbc6bffa90cc0225b39da2e5c2d3b",
            "0x0000000000000000000000001d2c00208dd9cb6cc788aacb6b07a9071b5772a8"
          ],
          "data": "0x",
          "blockHash": "0xe42ad380a3ac4690ab72ace307e596098dee14e7e295a2366e93938533f144b5",
          "blockNumber": "0x8fde7ad",
          "blockTimestamp": "0x69efa913",
          "transactionHash": "0x053969a9d51283a17d45da35e94ce431ec2eaba8c2040b13975e71ff74e0162d",
          "transactionIndex": "0xd",
          "logIndex": "0x5e",
          "removed": false
        }
      ],
      "logsBloom": "0x00000000000000000000000000000000400000000000000000000000000000000000000000000000000000000000000000000000000000000000000000000000000010000000000000000000000002000000000000000000000000000000000000000000001000000000000000000000000000000000000000000000400000000001000000000000000000000000000000000000000000000000000000000000000000000000000000000000000000000000000000000000000000000000000000000060000000400000000000000000000000000000000000000000000000000000000000000000000000000000000000000000000000000000000000000000",
      "type": "0x0",
      "transactionHash": "0x053969a9d51283a17d45da35e94ce431ec2eaba8c2040b13975e71ff74e0162d",
      "transactionIndex": "0xd",
      "blockHash": "0xe42ad380a3ac4690ab72ace307e596098dee14e7e295a2366e93938533f144b5",
      "blockNumber": "0x8fde7ad",
      "gasUsed": "0xc77b",
      "effectiveGasPrice": "0xf437f",
      "blobGasUsed": "0x9c40",
      "from": "0xcfb802de1046d47405b3197c3ccd340ed91ca80d",
      "to": "0xbc5a25bf2eeb5941dd3531a0ab8857c9f0c3b6a5",
      "contractAddress": null,
      "daFootprintGasScalar": "0x190",
      "l1BaseFeeScalar": "0x146b",
      "l1BlobBaseFee": "0x5f84ea1",
      "l1BlobBaseFeeScalar": "0xf79c5",
      "l1Fee": "0x571d1a273",
      "l1GasPrice": "0x5e43482e",
      "l1GasUsed": "0x640"
    },
    {
      "status": "0x1",
      "cumulativeGasUsed": "0x42a9d4",
      "logs": [
        {
          "address": "0xbec85d99c6f4ec34af0a9222cdd280127e06ab44",
          "topics": [
            "0xbc7cd75a20ee27fd9adebab32041f755214dbc6bffa90cc0225b39da2e5c2d3b",
            "0x0000000000000000000000001d2c00208dd9cb6cc788aacb6b07a9071b5772a8"
          ],
          "data": "0x",
          "blockHash": "0xeac059057eff80f22ed005b4770bd24113c52af67ce94473ab7f16f898b20877",
          "blockNumber": "0x8fde7ae",
          "blockTimestamp": "0x69efa915",
          "transactionHash": "0xb9e00f491a3d4d53b2a496fa54b7e68b0d495b969c98624b30ef8f4557aab397",
          "transactionIndex": "0xf",
          "logIndex": "0x62",
          "removed": false
        }
      ],
      "logsBloom": "0x00000000000000000000000000000000400000000400000000000000000000000000000000000000000000000000000000000000000000000000000000000000000000000000200000000000000002000000000000000000000000000000000000000000000000000000000000000000000000000000000000000000400000000001000000000000000000000000000000000000000000000000000000000000000000000000000000000000000000000000000000000000000000000000000000000020000000400000000000000000000000000000000000000000000000000000000000000000000000000000000000000000000000020000000000000000",
      "type": "0x0",
      "transactionHash": "0xb9e00f491a3d4d53b2a496fa54b7e68b0d495b969c98624b30ef8f4557aab397",
      "transactionIndex": "0xf",
      "blockHash": "0xeac059057eff80f22ed005b4770bd24113c52af67ce94473ab7f16f898b20877",
      "blockNumber": "0x8fde7ae",
      "gasUsed": "0xc77b",
      "effectiveGasPrice": "0xf437f",
      "blobGasUsed": "0x9c40",
      "from": "0xcfb802de1046d47405b3197c3ccd340ed91ca80d",
      "to": "0xbec85d99c6f4ec34af0a9222cdd280127e06ab44",
      "contractAddress": null,
      "daFootprintGasScalar": "0x190",
      "l1BaseFeeScalar": "0x146b",
      "l1BlobBaseFee": "0x5f84ea1",
      "l1BlobBaseFeeScalar": "0xf79c5",
      "l1Fee": "0x571d1a273",
      "l1GasPrice": "0x5e43482e",
      "l1GasUsed": "0x640"
    },
    {
      "status": "0x1",
      "cumulativeGasUsed": "0x3bcb82",
      "logs": [
        {
          "address": "0xcee4e641af10b05c17a657d038c2a0071e1ec051",
          "topics": [
            "0xbc7cd75a20ee27fd9adebab32041f755214dbc6bffa90cc0225b39da2e5c2d3b",
            "0x0000000000000000000000001d2c00208dd9cb6cc788aacb6b07a9071b5772a8"
          ],
          "data": "0x",
          "blockHash": "0x53402ac6b8406dc90484994a74833f144f151e7e77a679120552f32a91b3aaa5",
          "blockNumber": "0x8fde7af",
          "blockTimestamp": "0x69efa917",
          "transactionHash": "0x6422a72285bf1a2e2271c4e51a938ada43c878758843c21b8c183212b6b60266",
          "transactionIndex": "0x13",
          "logIndex": "0x45",
          "removed": false
        }
      ],
      "logsBloom": "0x00000000000000000000000000000000400000000001000000000000000000000000000000000000000000000000000000000000000000000000000000000000000000000000000000000000000002000000000000000000000000000000000000000200000000000000000000000000000000000000000000000000400000000001000000000000000000000000000000000000040000000000000000000000000000000000000000000000000000000000000000000000000000000000000000000020000000400000000000000000000000000000000000000000000000000000000000000000000000000000000000000000000000000000000000000000",
      "type": "0x0",
      "transactionHash": "0x6422a72285bf1a2e2271c4e51a938ada43c878758843c21b8c183212b6b60266",
      "transactionIndex": "0x13",
      "blockHash": "0x53402ac6b8406dc90484994a74833f144f151e7e77a679120552f32a91b3aaa5",
      "blockNumber": "0x8fde7af",
      "gasUsed": "0xc77b",
      "effectiveGasPrice": "0xf437f",
      "blobGasUsed": "0x9c40",
      "from": "0xcfb802de1046d47405b3197c3ccd340ed91ca80d",
      "to": "0xcee4e641af10b05c17a657d038c2a0071e1ec051",
      "contractAddress": null,
      "daFootprintGasScalar": "0x190",
      "l1BaseFeeScalar": "0x146b",
      "l1BlobBaseFee": "0x5f84ea1",
      "l1BlobBaseFeeScalar": "0xf79c5",
      "l1Fee": "0x571d1a273",
      "l1GasPrice": "0x5e43482e",
      "l1GasUsed": "0x640"
    },
    {
      "status": "0x1",
      "cumulativeGasUsed": "0x1e06de",
      "logs": [
        {
          "address": "0xd3345828914b740fddd1b8ae4f4d2ce03d1e0960",
          "topics": [
            "0xbc7cd75a20ee27fd9adebab32041f755214dbc6bffa90cc0225b39da2e5c2d3b",
            "0x0000000000000000000000001d2c00208dd9cb6cc788aacb6b07a9071b5772a8"
          ],
          "data": "0x",
          "blockHash": "0xa2f3acdfda5d1416da7ab2310cfb16e2f74ca232ff0228521504f3bc4033e681",
          "blockNumber": "0x8fde7b0",
          "blockTimestamp": "0x69efa919",
          "transactionHash": "0x853273ce7624f91b3cb32be8ed18476b167920414af756358e30b689ecc5f83a",
          "transactionIndex": "0x7",
          "logIndex": "0x2a",
          "removed": false
        }
      ],
      "logsBloom": "0x00000000000000000000000000000000400000000000000000000000000000000000000000000000000000000000000000000000000000000000000000000000000000000000020000000000000002000000000000000000000000000000000000000000000000000000000000000000000000000000000000000000400000000001000000000000000000000000000000000000000000000000000000000000000000000000000000000000000000000000000000000000000000000000000000000020000000410000000000000000000000000000000000000000000000000000000000000000000000000000000000000000000000000000100000000000",
      "type": "0x0",
      "transactionHash": "0x853273ce7624f91b3cb32be8ed18476b167920414af756358e30b689ecc5f83a",
      "transactionIndex": "0x7",
      "blockHash": "0xa2f3acdfda5d1416da7ab2310cfb16e2f74ca232ff0228521504f3bc4033e681",
      "blockNumber": "0x8fde7b0",
      "gasUsed": "0xc77b",
      "effectiveGasPrice": "0xf437f",
      "blobGasUsed": "0x9c40",
      "from": "0xcfb802de1046d47405b3197c3ccd340ed91ca80d",
      "to": "0xd3345828914b740fddd1b8ae4f4d2ce03d1e0960",
      "contractAddress": null,
      "daFootprintGasScalar": "0x190",
      "l1BaseFeeScalar": "0x146b",
      "l1BlobBaseFee": "0x51a315a",
      "l1BlobBaseFeeScalar": "0xf79c5",
      "l1Fee": "0x54c4a28f2",
      "l1GasPrice": "0x644c1a8a",
      "l1GasUsed": "0x640"
    },
    {
      "status": "0x1",
      "cumulativeGasUsed": "0x4aaf64",
      "logs": [
        {
          "address": "0xd58c8122831c2f4705e59a33da1723690b310239",
          "topics": [
            "0xbc7cd75a20ee27fd9adebab32041f755214dbc6bffa90cc0225b39da2e5c2d3b",
            "0x0000000000000000000000001d2c00208dd9cb6cc788aacb6b07a9071b5772a8"
          ],
          "data": "0x",
          "blockHash": "0xe1693a1eac78d2bbd134e29f1ed63bac33f0f20e4900fa3f6f28944725046c51",
          "blockNumber": "0x8fde7b1",
          "blockTimestamp": "0x69efa91b",
          "transactionHash": "0x3c15d6c65a4c2e3b2511234c10ab56d014dc9e3301a6bb2c0da2e62638ac64ed",
          "transactionIndex": "0xd",
          "logIndex": "0x72",
          "removed": false
        }
      ],
      "logsBloom": "0x00000000000000000000000000000000400000000000000000000000000000000000000000000000000000000000000000000000000000000000000000000000008000000000000000000000000002000000000000000000000000000000000000000000000000000000000000000000000000000000000000000000400000000001000000000000000000000000000000100000000000000000000000000000000000000000000000000000000000000000000000000000000000000000000000000020000000400000000000000000000000000000000000000000000000000000000000000000000000000000000000000000080000000000000000000000",
      "type": "0x0",
      "transactionHash": "0x3c15d6c65a4c2e3b2511234c10ab56d014dc9e3301a6bb2c0da2e62638ac64ed",
      "transactionIndex": "0xd",
      "blockHash": "0xe1693a1eac78d2bbd134e29f1ed63bac33f0f20e4900fa3f6f28944725046c51",
      "blockNumber": "0x8fde7b1",
      "gasUsed": "0xc77b",
      "effectiveGasPrice": "0xf437f",
      "blobGasUsed": "0x9c40",
      "from": "0xcfb802de1046d47405b3197c3ccd340ed91ca80d",
      "to": "0xd58c8122831c2f4705e59a33da1723690b310239",
      "contractAddress": null,
      "daFootprintGasScalar": "0x190",
      "l1BaseFeeScalar": "0x146b",
      "l1BlobBaseFee": "0x51a315a",
      "l1BlobBaseFeeScalar": "0xf79c5",
      "l1Fee": "0x54c4a28f2",
      "l1GasPrice": "0x644c1a8a",
      "l1GasUsed": "0x640"
    },
    {
      "status": "0x1",
      "cumulativeGasUsed": "0x5c5983",
      "logs": [
        {
          "address": "0xd95bf6da95c77466674bd1210e77a23492f6eef9",
          "topics": [
            "0xbc7cd75a20ee27fd9adebab32041f755214dbc6bffa90cc0225b39da2e5c2d3b",
            "0x0000000000000000000000001d2c00208dd9cb6cc788aacb6b07a9071b5772a8"
          ],
          "data": "0x",
          "blockHash": "0x0982b54a7d000d51d737fb33312efee0cef71376da99b91a77acaf4779c076b8",
          "blockNumber": "0x8fde7b2",
          "blockTimestamp": "0x69efa91d",
          "transactionHash": "0x77a9c93c3fc22e0be205fbdfda4abb13e7c9fa0e786728bc68ea1f57ec2328af",
          "transactionIndex": "0x1d",
          "logIndex": "0x65",
          "removed": false
        }
      ],
      "logsBloom": "0x00000000000000000000000000000000400000000000000000000000000000000000000000000000000000000000000000000000000000000000000000000000000000000000000000000000000002000000010000000000000000000000000000000000000000000000000000000000400000000000000000000000400000000001000000000000000000000000000000000000000000000000000000000000000000000000000000000000000000000000000000000000000000000000000000000020000000400000000000000010000000000000000000000000000000000000000000000000000000000000000000000000000000000000000000000000",
      "type": "0x0",
      "transactionHash": "0x77a9c93c3fc22e0be205fbdfda4abb13e7c9fa0e786728bc68ea1f57ec2328af",
      "transactionIndex": "0x1d",
      "blockHash": "0x0982b54a7d000d51d737fb33312efee0cef71376da99b91a77acaf4779c076b8",
      "blockNumber": "0x8fde7b2",
      "gasUsed": "0xc77b",
      "effectiveGasPrice": "0xf437f",
      "blobGasUsed": "0x9c40",
      "from": "0xcfb802de1046d47405b3197c3ccd340ed91ca80d",
      "to": "0xd95bf6da95c77466674bd1210e77a23492f6eef9",
      "contractAddress": null,
      "daFootprintGasScalar": "0x190",
      "l1BaseFeeScalar": "0x146b",
      "l1BlobBaseFee": "0x51a315a",
      "l1BlobBaseFeeScalar": "0xf79c5",
      "l1Fee": "0x54c4a28f2",
      "l1GasPrice": "0x644c1a8a",
      "l1GasUsed": "0x640"
    },
    {
      "status": "0x1",
      "cumulativeGasUsed": "0x1da3e8",
      "logs": [
        {
          "address": "0xe5b10de982897a60cfae8481bac5848816c0f705",
          "topics": [
            "0xbc7cd75a20ee27fd9adebab32041f755214dbc6bffa90cc0225b39da2e5c2d3b",
            "0x0000000000000000000000001d2c00208dd9cb6cc788aacb6b07a9071b5772a8"
          ],
          "data": "0x",
          "blockHash": "0x08b2d57613e93d2220c5eec14ae4e2c7bfdc575b5264f02adf5e0edf64d2fd60",
          "blockNumber": "0x8fde7b3",
          "blockTimestamp": "0x69efa91f",
          "transactionHash": "0x7cbf54a84bc58ffca1cda703868592cd8623e90bc8ad8c4d4f8ed3e52454fa0f",
          "transactionIndex": "0xb",
          "logIndex": "0x1a",
          "removed": false
        }
      ],
      "logsBloom": "0x00000000000000000000000000000000400000000000000000000000000000000000000000000000000010000000000000000000000000000000000000000000000002000000000000000000000002000000000000000000000000000000000000000000000000000000000000000000000000000000000000000000400000000001000000000000000000000000000000000001000000000000000000000000000000000000000000000000000000000000000000000000000000000000000000000020000000400000000000000000000000000000000000000000000000000000000000000000000000000000000000000000000000000000000000000000",
      "type": "0x0",
      "transactionHash": "0x7cbf54a84bc58ffca1cda703868592cd8623e90bc8ad8c4d4f8ed3e52454fa0f",
      "transactionIndex": "0xb",
      "blockHash": "0x08b2d57613e93d2220c5eec14ae4e2c7bfdc575b5264f02adf5e0edf64d2fd60",
      "blockNumber": "0x8fde7b3",
      "gasUsed": "0xc77b",
      "effectiveGasPrice": "0xf437f",
      "blobGasUsed": "0x9c40",
      "from": "0xcfb802de1046d47405b3197c3ccd340ed91ca80d",
      "to": "0xe5b10de982897a60cfae8481bac5848816c0f705",
      "contractAddress": null,
      "daFootprintGasScalar": "0x190",
      "l1BaseFeeScalar": "0x146b",
      "l1BlobBaseFee": "0x51a315a",
      "l1BlobBaseFeeScalar": "0xf79c5",
      "l1Fee": "0x54c4a28f2",
      "l1GasPrice": "0x644c1a8a",
      "l1GasUsed": "0x640"
    },
    {
      "status": "0x1",
      "cumulativeGasUsed": "0x2ec8bb",
      "logs": [
        {
          "address": "0xe6b60735f5bffd8c255195f2db5cc35b78021872",
          "topics": [
            "0xbc7cd75a20ee27fd9adebab32041f755214dbc6bffa90cc0225b39da2e5c2d3b",
            "0x0000000000000000000000001d2c00208dd9cb6cc788aacb6b07a9071b5772a8"
          ],
          "data": "0x",
          "blockHash": "0x605fbbac69a71c147cbdf2f9ad4ec9b782ff1288e3d1a2e08cf0a3e0c43d8a92",
          "blockNumber": "0x8fde7b4",
          "blockTimestamp": "0x69efa921",
          "transactionHash": "0xca552ea5825dfe776de84b58958412452c67d1677a53be1dde708f2e1c0226ff",
          "transactionIndex": "0xa",
          "logIndex": "0x45",
          "removed": false
        }
      ],
      "logsBloom": "0x00000000000000000000000000000000400000000000000000000000000000000000000000000000000000000000000000000000000000000000000000000000000000000000000000000000000002000000000000000000000000000000000000000000000000000000000000000000000000000000000000000000400000000001000000000000000000000000000000000000000000000000000000000000000000000080000000000000000000000000000000000000000000000000000000000060000000400000000000004000000000000000000000000000000000000000000000000000000000000000000000000000000000000000000000000000",
      "type": "0x0",
      "transactionHash": "0xca552ea5825dfe776de84b58958412452c67d1677a53be1dde708f2e1c0226ff",
      "transactionIndex": "0xa",
      "blockHash": "0x605fbbac69a71c147cbdf2f9ad4ec9b782ff1288e3d1a2e08cf0a3e0c43d8a92",
      "blockNumber": "0x8fde7b4",
      "gasUsed": "0xc77b",
      "effectiveGasPrice": "0xf437f",
      "blobGasUsed": "0x9c40",
      "from": "0xcfb802de1046d47405b3197c3ccd340ed91ca80d",
      "to": "0xe6b60735f5bffd8c255195f2db5cc35b78021872",
      "contractAddress": null,
      "daFootprintGasScalar": "0x190",
      "l1BaseFeeScalar": "0x146b",
      "l1BlobBaseFee": "0x51a315a",
      "l1BlobBaseFeeScalar": "0xf79c5",
      "l1Fee": "0x54c4a28f2",
      "l1GasPrice": "0x644c1a8a",
      "l1GasUsed": "0x640"
    },
    {
      "status": "0x1",
      "cumulativeGasUsed": "0x4fbb51",
      "logs": [
        {
          "address": "0xee1a9cf8625c2f1f25201ac1a9a9e81f53d5e846",
          "topics": [
            "0xbc7cd75a20ee27fd9adebab32041f755214dbc6bffa90cc0225b39da2e5c2d3b",
            "0x0000000000000000000000001d2c00208dd9cb6cc788aacb6b07a9071b5772a8"
          ],
          "data": "0x",
          "blockHash": "0x0d555ef1f13c3b6a784403611dc2de18c951f0b468b75eff98b6c46d1741f24b",
          "blockNumber": "0x8fde7b5",
          "blockTimestamp": "0x69efa923",
          "transactionHash": "0x7f8e0bae6873430c017918be9111159141602b029cf5f6d2f50f07bee891f3b9",
          "transactionIndex": "0x18",
          "logIndex": "0x3c",
          "removed": false
        }
      ],
      "logsBloom": "0x00000000000000000400000000000000400000000000000000000000000000000000000000000000000000000000000000000000000000000000000000000000000000000000000000000000000002000000000000000000000000000000000000000000000000000000000000000000000000000000000000000000400000000001000000000000000000000000000000000000000000000000000000000000000000000000000000000000800000000000000000000000000000000001000000000020000000400000000000000000000000000000000000000000000000000000000000000000000000000000000000000000000000000000000000000000",
      "type": "0x0",
      "transactionHash": "0x7f8e0bae6873430c017918be9111159141602b029cf5f6d2f50f07bee891f3b9",
      "transactionIndex": "0x18",
      "blockHash": "0x0d555ef1f13c3b6a784403611dc2de18c951f0b468b75eff98b6c46d1741f24b",
      "blockNumber": "0x8fde7b5",
      "gasUsed": "0xc77b",
      "effectiveGasPrice": "0xf437f",
      "blobGasUsed": "0x9c40",
      "from": "0xcfb802de1046d47405b3197c3ccd340ed91ca80d",
      "to": "0xee1a9cf8625c2f1f25201ac1a9a9e81f53d5e846",
      "contractAddress": null,
      "daFootprintGasScalar": "0x190",
      "l1BaseFeeScalar": "0x146b",
      "l1BlobBaseFee": "0x51a315a",
      "l1BlobBaseFeeScalar": "0xf79c5",
      "l1Fee": "0x54c4a28f2",
      "l1GasPrice": "0x644c1a8a",
      "l1GasUsed": "0x640"
    },
    {
      "status": "0x1",
      "cumulativeGasUsed": "0x438235",
      "logs": [
        {
          "address": "0xf3630ea5ed1d9695acab2a3db408b56e3a6c600c",
          "topics": [
            "0xbc7cd75a20ee27fd9adebab32041f755214dbc6bffa90cc0225b39da2e5c2d3b",
            "0x0000000000000000000000001d2c00208dd9cb6cc788aacb6b07a9071b5772a8"
          ],
          "data": "0x",
          "blockHash": "0x9f2e99f4565678566182f72be2d0acd4ebafcc1ddcf58447a2541688f6efca0c",
          "blockNumber": "0x8fde7b6",
          "blockTimestamp": "0x69efa925",
          "transactionHash": "0x4569642782020644ae21ebb4f2b2317c9df3c4f76098300f6be04b85fb349efe",
          "transactionIndex": "0x10",
          "logIndex": "0x1f",
          "removed": false
        }
      ],
      "logsBloom": "0x00000000000000000000000000000000400004000000000000000000000000000000000000000000000000000000000000000000000000000000000000000000000000000000000000000000000002000000000000000000000000000000000000000000000000000000000000000000000000000000000000000000400000000001000000000000000000000000000000000000000000000000000000000000000000000000000000000000000000000000000000000000000000000000000000000020000000400000000000000000000000000020000000000000000000000000000000000000000000000800000000000000000000000000000000000000",
      "type": "0x0",
      "transactionHash": "0x4569642782020644ae21ebb4f2b2317c9df3c4f76098300f6be04b85fb349efe",
      "transactionIndex": "0x10",
      "blockHash": "0x9f2e99f4565678566182f72be2d0acd4ebafcc1ddcf58447a2541688f6efca0c",
      "blockNumber": "0x8fde7b6",
      "gasUsed": "0xc797",
      "effectiveGasPrice": "0xf437f",
      "blobGasUsed": "0x9c40",
      "from": "0xcfb802de1046d47405b3197c3ccd340ed91ca80d",
      "to": "0xf3630ea5ed1d9695acab2a3db408b56e3a6c600c",
      "contractAddress": null,
      "daFootprintGasScalar": "0x190",
      "l1BaseFeeScalar": "0x146b",
      "l1BlobBaseFee": "0x51a315a",
      "l1BlobBaseFeeScalar": "0xf79c5",
      "l1Fee": "0x56e8c6fcb",
      "l1GasPrice": "0x6864c747",
      "l1GasUsed": "0x640"
    },
    {
      "status": "0x1",
      "cumulativeGasUsed": "0x852e3b",
      "logs": [
        {
          "address": "0xf515b83f7e0ab851f822e56b0fe63dfa973e74f0",
          "topics": [
            "0xbc7cd75a20ee27fd9adebab32041f755214dbc6bffa90cc0225b39da2e5c2d3b",
            "0x0000000000000000000000001d2c00208dd9cb6cc788aacb6b07a9071b5772a8"
          ],
          "data": "0x",
          "blockHash": "0x53d30c2f1bdeb02f604c44b25830d410d7ebd77571681361cc7f78a2678c3dfd",
          "blockNumber": "0x8fde7b7",
          "blockTimestamp": "0x69efa927",
          "transactionHash": "0x050abe97ee2bfae2743bd22f791a98ea09030be974848376d3a26c5ef535eb5b",
          "transactionIndex": "0x28",
          "logIndex": "0xa0",
          "removed": false
        }
      ],
      "logsBloom": "0x00000000000000000000000000000000400000000000000000000000000000000000000000000000000000000000000800000000000000000000000000000000000000000000000000000000000002000000000000000000000000000000000000000000000000000000000000000000000000000000000000000000400000000001000000000000000000000000000000000000000000000000000000000000000000000000000000000000000000000000000000000000000000000000000080000020080000400000000000000000000000000000000000000000000000000000000000000000000000000000000000000000000000000000000000000000",
      "type": "0x0",
      "transactionHash": "0x050abe97ee2bfae2743bd22f791a98ea09030be974848376d3a26c5ef535eb5b",
      "transactionIndex": "0x28",
      "blockHash": "0x53d30c2f1bdeb02f604c44b25830d410d7ebd77571681361cc7f78a2678c3dfd",
      "blockNumber": "0x8fde7b7",
      "gasUsed": "0xc77b",
      "effectiveGasPrice": "0xf437f",
      "blobGasUsed": "0x9c40",
      "from": "0xcfb802de1046d47405b3197c3ccd340ed91ca80d",
      "to": "0xf515b83f7e0ab851f822e56b0fe63dfa973e74f0",
      "contractAddress": null,
      "daFootprintGasScalar": "0x190",
      "l1BaseFeeScalar": "0x146b",
      "l1BlobBaseFee": "0x51a315a",
      "l1BlobBaseFeeScalar": "0xf79c5",
      "l1Fee": "0x56e8c6fcb",
      "l1GasPrice": "0x6864c747",
      "l1GasUsed": "0x640"
    },
    {
      "status": "0x1",
      "cumulativeGasUsed": "0x7a875b",
      "logs": [],
      "logsBloom": "0x00000000000000000000000000000000000000000000000000000000000000000000000000000000000000000000000000000000000000000000000000000000000000000000000000000000000000000000000000000000000000000000000000000000000000000000000000000000000000000000000000000000000000000000000000000000000000000000000000000000000000000000000000000000000000000000000000000000000000000000000000000000000000000000000000000000000000000000000000000000000000000000000000000000000000000000000000000000000000000000000000000000000000000000000000000000",
      "type": "0x0",
      "transactionHash": "0xed4ef5c5025aa6dc6ddce6dc0ca3283efb7e98bf0148f3068448a720b0dee7d8",
      "transactionIndex": "0x1d",
      "blockHash": "0x6d918c55dbf37cdc4ca56e1892f3b091f64fd792f15f61140e9717ad3876623d",
      "blockNumber": "0x8fde7b8",
      "gasUsed": "0xb0bd",
      "effectiveGasPrice": "0xf437f",
      "blobGasUsed": "0x9c40",
      "from": "0xcfb802de1046d47405b3197c3ccd340ed91ca80d",
      "to": "0x1fac47cf25f1ca9f20ba366099d26b28401f5715",
      "contractAddress": null,
      "daFootprintGasScalar": "0x190",
      "l1BaseFeeScalar": "0x146b",
      "l1BlobBaseFee": "0x51a315a",
      "l1BlobBaseFeeScalar": "0xf79c5",
      "l1Fee": "0x56e8c6fcb",
      "l1GasPrice": "0x6864c747",
      "l1GasUsed": "0x640"
    }
  ],
  "libraries": [
    "pkg/contracts/src/CVStrategy/ConvictionsUtils.sol:ConvictionsUtils:0xC1c31983FBe77815c8C4F9DBeE11Dd17123339c1",
    "pkg/contracts/src/CVStrategy/PowerManagementUtils.sol:PowerManagementUtils:0xB07d76F6001Cc62739d39cb0C5E9c58E08230486"
  ],
  "pending": [],
  "returns": {},
  "timestamp": 1777314090001,
  "chain": 10,
  "commit": "d376cda94"
}