{
  "transactions": [
    {
      "hash": "0x5a5a058fb979fb266bddba658dd63c12285c93c8af0fb4739c3b5e5344c23d2b",
      "transactionType": "CREATE",
      "contractName": "ProxyOwner",
      "contractAddress": "0x1e975ded7696fb4a520d74554e489b2b1ee71196",
      "function": null,
      "arguments": null,
      "transaction": {
        "from": "0xb05a948b5c1b057b88d381bde3a375efea87ebad",
        "gas": "0xeb6a2",
        "value": "0x0",
        "input": "0x60a080604052346100315730608052610c75908161003782396080518181816103270152818161044801526106c00152f35b600080fdfe60406080815260048036101561001457600080fd5b600091823560e01c9182633659cfe6146106995782634f1ef286146103cf57826352d1902d14610313578263715018a6146102be57826379ba5097146102745782638da5cb5b1461024b578263c4d66de81461012357508163e30c3978146100f6575063f2fde38b1461008657600080fd5b346100f35760203660031901126100f35761009f610859565b6100a76108e3565b606580546001600160a01b0319166001600160a01b039283169081179091556033549091167f38d16b8cac22d99fc7c124b9cd0de2d3fa1faef420bfe791d8c362d765e227008380a380f35b80fd5b90503461011f578160031936011261011f5760655490516001600160a01b039091168152602090f35b5080fd5b909150346102475760203660031901126102475761013f610859565b835460ff8160081c16159283809461023a575b8015610223575b156101c9575060ff198116600117855561017a9190836101b8575b50610b3d565b610182575080f35b60207f7f26b83ff96e1f2b6a682f133852f6798a09c465da95921460cefb38474024989161ff001984541684555160018152a180f35b61ffff191661010117855538610174565b608490602086519162461bcd60e51b8352820152602e60248201527f496e697469616c697a61626c653a20636f6e747261637420697320616c72656160448201526d191e481a5b9a5d1a585b1a5e995960921b6064820152fd5b50303b1580156101595750600160ff831614610159565b50600160ff831610610152565b8280fd5b83823461011f578160031936011261011f5760335490516001600160a01b039091168152602090f35b915034610247578260031936011261024757606554336001600160a01b03909116036102a757826102a433610b3d565b80f35b60249250519063118cdaa760e01b82523390820152fd5b83346100f357806003193601126100f3576102d76108e3565b606580546001600160a01b031990811690915560338054918216905581906001600160a01b0316600080516020610be08339815191528280a380f35b83346100f357806003193601126100f357507f00000000000000000000000000000000000000000000000000000000000000006001600160a01b0316300361036c5760208251600080516020610bc08339815191528152f35b6020608492519162461bcd60e51b8352820152603860248201527f555550535570677261646561626c653a206d757374206e6f742062652063616c6044820152771b1959081d1a1c9bdd59da0819195b1959d85d1958d85b1b60421b6064820152fd5b915080600319360112610247576103e4610859565b90602435906001600160401b0382116106955736602383011215610695578184013561040f816108c8565b61041b835191826108a5565b81815286602094858301933660248284010111610247578060248893018637830101526001600160a01b037f00000000000000000000000000000000000000000000000000000000000000008116906104763083141561093b565b610493600080516020610bc083398151915292828454161461098a565b61049b6108e3565b600080516020610b808339815191525460ff16156104c3575050505050506102a491506109d9565b869293949596169085516352d1902d60e01b815287818a81865afa8a9181610662575b5061053357865162461bcd60e51b8152808a01899052602e6024820152600080516020610c2083398151915260448201526d6f6e206973206e6f74205555505360901b6064820152608490fd5b97919293969594970361060d575061054a826109d9565b600080516020610c008339815191528780a285845115801590610605575b610576575b50505050505080f35b806105ef9684519661058788610874565b602788527f416464726573733a206c6f772d6c6576656c2064656c65676174652063616c6c87890152660819985a5b195960ca1b868901525190845af4913d156105fb573d6105e16105d8826108c8565b925192836108a5565b81528681943d92013e610a69565b5038808080808561056d565b5060609250610a69565b506001610568565b835162461bcd60e51b8152908101859052602960248201527f45524331393637557067726164653a20756e737570706f727465642070726f786044820152681a58589b195555525160ba1b6064820152608490fd5b9091508881813d831161068e575b61067a81836108a5565b8101031261068a575190386104e6565b8a80fd5b503d610670565b8480fd5b91503461024757602080600319360112610855576106b5610859565b916001600160a01b037f000000000000000000000000000000000000000000000000000000000000000081166106ed3082141561093b565b61070a600080516020610bc083398151915291838354161461098a565b6107126108e3565b8251848101929091906001600160401b0384118385101761084257838552888352600080516020610b808339815191525460ff161561075b575050505050506102a491506109d9565b869293949596169085516352d1902d60e01b815287818a81865afa8a9181610813575b506107cb57865162461bcd60e51b8152808a01899052602e6024820152600080516020610c2083398151915260448201526d6f6e206973206e6f74205555505360901b6064820152608490fd5b97919293969594970361060d57506107e2826109d9565b600080516020610c008339815191528780a28584511580159061080c576105765750505050505080f35b5080610568565b9091508881813d831161083b575b61082b81836108a5565b8101031261068a5751903861077e565b503d610821565b634e487b7160e01b895260418852602489fd5b8380fd5b600435906001600160a01b038216820361086f57565b600080fd5b606081019081106001600160401b0382111761088f57604052565b634e487b7160e01b600052604160045260246000fd5b601f909101601f19168101906001600160401b0382119082101761088f57604052565b6001600160401b03811161088f57601f01601f191660200190565b6033546001600160a01b031633036108f757565b606460405162461bcd60e51b815260206004820152602060248201527f4f776e61626c653a2063616c6c6572206973206e6f7420746865206f776e65726044820152fd5b1561094257565b60405162461bcd60e51b815260206004820152602c6024820152600080516020610ba083398151915260448201526b19195b1959d85d1958d85b1b60a21b6064820152608490fd5b1561099157565b60405162461bcd60e51b815260206004820152602c6024820152600080516020610ba083398151915260448201526b6163746976652070726f787960a01b6064820152608490fd5b803b15610a0e57600080516020610bc083398151915280546001600160a01b0319166001600160a01b03909216919091179055565b60405162461bcd60e51b815260206004820152602d60248201527f455243313936373a206e657720696d706c656d656e746174696f6e206973206e60448201526c1bdd08184818dbdb9d1c9858dd609a1b6064820152608490fd5b91929015610acb5750815115610a7d575090565b3b15610a865790565b60405162461bcd60e51b815260206004820152601d60248201527f416464726573733a2063616c6c20746f206e6f6e2d636f6e74726163740000006044820152606490fd5b825190915015610ade5750805190602001fd5b6040519062461bcd60e51b82528160208060048301528251908160248401526000935b828510610b24575050604492506000838284010152601f80199101168101030190fd5b8481018201518686016044015293810193859350610b01565b606580546001600160a01b0319908116909155603380549182166001600160a01b039384169081179091559116600080516020610be0833981519152600080a356fe4910fdfa16fed3260ed0e7147f7cc6da11a60208b5b9406d12a635614ffd914346756e6374696f6e206d7573742062652063616c6c6564207468726f75676820360894a13ba1a3210667c828492db98dca3e2076cc3735a920a3ca505d382bbc8be0079c531659141344cd1fd0a4f28419497f9722a3daafe3b4186f6b6457e0bc7cd75a20ee27fd9adebab32041f755214dbc6bffa90cc0225b39da2e5c2d3b45524331393637557067726164653a206e657720696d706c656d656e74617469a264697066735822122095dd4d2a5c194bfb1dbff104f39ee7131051171aea85fa95e6fba516911de91b64736f6c63430008130033",
        "nonce": "0x92",
        "chainId": "0xa"
      },
      "additionalContracts": [],
      "isFixedGasLimit": false
    },
    {
      "hash": "0xf6dd0d5a00b313a70fecb180d4cb867b4beb11e6ef99bbf2db193523c71ee427",
      "transactionType": "CREATE",
      "contractName": "ERC1967Proxy",
      "contractAddress": "0x129f253f78e33a0312ef8e59fae7699ef6e8dbef",
      "function": null,
      "arguments": [
        "0x1e975DeD7696fb4a520d74554e489B2b1Ee71196",
        "0xc4d66de8000000000000000000000000b05a948b5c1b057b88d381bde3a375efea87ebad"
      ],
      "transaction": {
        "from": "0xb05a948b5c1b057b88d381bde3a375efea87ebad",
        "gas": "0x3bd34",
        "value": "0x0",
        "input": "0x604060808152610410908138038061001681610218565b93843982019181818403126102135780516001600160a01b038116808203610213576020838101516001600160401b0394919391858211610213570186601f820112156102135780519061007161006c83610253565b610218565b918083528583019886828401011161021357888661008f930161026e565b813b156101b9577f360894a13ba1a3210667c828492db98dca3e2076cc3735a920a3ca505d382bbc80546001600160a01b031916841790556000927fbc7cd75a20ee27fd9adebab32041f755214dbc6bffa90cc0225b39da2e5c2d3b8480a28051158015906101b2575b61010b575b855160cb90816103458239f35b855194606086019081118682101761019e578697849283926101889952602788527f416464726573733a206c6f772d6c6576656c2064656c65676174652063616c6c87890152660819985a5b195960ca1b8a8901525190845af4913d15610194573d9061017a61006c83610253565b91825281943d92013e610291565b508038808080806100fe565b5060609250610291565b634e487b7160e01b84526041600452602484fd5b50826100f9565b855162461bcd60e51b815260048101859052602d60248201527f455243313936373a206e657720696d706c656d656e746174696f6e206973206e60448201526c1bdd08184818dbdb9d1c9858dd609a1b6064820152608490fd5b600080fd5b6040519190601f01601f191682016001600160401b0381118382101761023d57604052565b634e487b7160e01b600052604160045260246000fd5b6001600160401b03811161023d57601f01601f191660200190565b60005b8381106102815750506000910152565b8181015183820152602001610271565b919290156102f357508151156102a5575090565b3b156102ae5790565b60405162461bcd60e51b815260206004820152601d60248201527f416464726573733a2063616c6c20746f206e6f6e2d636f6e74726163740000006044820152606490fd5b8251909150156103065750805190602001fd5b6044604051809262461bcd60e51b825260206004830152610336815180928160248601526020868601910161026e565b601f01601f19168101030190fdfe60806040523615604157600080516020607683398151915254600090819081906001600160a01b0316368280378136915af43d82803e15603d573d90f35b3d90fd5b600080516020607683398151915254600090819081906001600160a01b0316368280378136915af43d82803e15603d573d90f3fe360894a13ba1a3210667c828492db98dca3e2076cc3735a920a3ca505d382bbca2646970667358221220b9c533c5cbdc91d32688faca813a72cb34b28bff1b053c4cc32424f62e37a71f64736f6c634300081300330000000000000000000000001e975ded7696fb4a520d74554e489b2b1ee7119600000000000000000000000000000000000000000000000000000000000000400000000000000000000000000000000000000000000000000000000000000024c4d66de8000000000000000000000000b05a948b5c1b057b88d381bde3a375efea87ebad00000000000000000000000000000000000000000000000000000000",
        "nonce": "0x93",
        "chainId": "0xa"
      },
      "additionalContracts": [],
      "isFixedGasLimit": false
    },
    {
      "hash": "0xffb576898d8e30cb8ece680fdc019d69bdc8d9a3086bd778a7e1d7e76653b34c",
      "transactionType": "CREATE",
      "contractName": "ProxyOwner",
      "contractAddress": "0x7bf1e4d6745522a6c393d490b72be2d6e5e6260d",
      "function": null,
      "arguments": null,
      "transaction": {
        "from": "0xb05a948b5c1b057b88d381bde3a375efea87ebad",
        "gas": "0xeb6a2",
        "value": "0x0",
        "input": "0x60a080604052346100315730608052610c75908161003782396080518181816103270152818161044801526106c00152f35b600080fdfe60406080815260048036101561001457600080fd5b600091823560e01c9182633659cfe6146106995782634f1ef286146103cf57826352d1902d14610313578263715018a6146102be57826379ba5097146102745782638da5cb5b1461024b578263c4d66de81461012357508163e30c3978146100f6575063f2fde38b1461008657600080fd5b346100f35760203660031901126100f35761009f610859565b6100a76108e3565b606580546001600160a01b0319166001600160a01b039283169081179091556033549091167f38d16b8cac22d99fc7c124b9cd0de2d3fa1faef420bfe791d8c362d765e227008380a380f35b80fd5b90503461011f578160031936011261011f5760655490516001600160a01b039091168152602090f35b5080fd5b909150346102475760203660031901126102475761013f610859565b835460ff8160081c16159283809461023a575b8015610223575b156101c9575060ff198116600117855561017a9190836101b8575b50610b3d565b610182575080f35b60207f7f26b83ff96e1f2b6a682f133852f6798a09c465da95921460cefb38474024989161ff001984541684555160018152a180f35b61ffff191661010117855538610174565b608490602086519162461bcd60e51b8352820152602e60248201527f496e697469616c697a61626c653a20636f6e747261637420697320616c72656160448201526d191e481a5b9a5d1a585b1a5e995960921b6064820152fd5b50303b1580156101595750600160ff831614610159565b50600160ff831610610152565b8280fd5b83823461011f578160031936011261011f5760335490516001600160a01b039091168152602090f35b915034610247578260031936011261024757606554336001600160a01b03909116036102a757826102a433610b3d565b80f35b60249250519063118cdaa760e01b82523390820152fd5b83346100f357806003193601126100f3576102d76108e3565b606580546001600160a01b031990811690915560338054918216905581906001600160a01b0316600080516020610be08339815191528280a380f35b83346100f357806003193601126100f357507f00000000000000000000000000000000000000000000000000000000000000006001600160a01b0316300361036c5760208251600080516020610bc08339815191528152f35b6020608492519162461bcd60e51b8352820152603860248201527f555550535570677261646561626c653a206d757374206e6f742062652063616c6044820152771b1959081d1a1c9bdd59da0819195b1959d85d1958d85b1b60421b6064820152fd5b915080600319360112610247576103e4610859565b90602435906001600160401b0382116106955736602383011215610695578184013561040f816108c8565b61041b835191826108a5565b81815286602094858301933660248284010111610247578060248893018637830101526001600160a01b037f00000000000000000000000000000000000000000000000000000000000000008116906104763083141561093b565b610493600080516020610bc083398151915292828454161461098a565b61049b6108e3565b600080516020610b808339815191525460ff16156104c3575050505050506102a491506109d9565b869293949596169085516352d1902d60e01b815287818a81865afa8a9181610662575b5061053357865162461bcd60e51b8152808a01899052602e6024820152600080516020610c2083398151915260448201526d6f6e206973206e6f74205555505360901b6064820152608490fd5b97919293969594970361060d575061054a826109d9565b600080516020610c008339815191528780a285845115801590610605575b610576575b50505050505080f35b806105ef9684519661058788610874565b602788527f416464726573733a206c6f772d6c6576656c2064656c65676174652063616c6c87890152660819985a5b195960ca1b868901525190845af4913d156105fb573d6105e16105d8826108c8565b925192836108a5565b81528681943d92013e610a69565b5038808080808561056d565b5060609250610a69565b506001610568565b835162461bcd60e51b8152908101859052602960248201527f45524331393637557067726164653a20756e737570706f727465642070726f786044820152681a58589b195555525160ba1b6064820152608490fd5b9091508881813d831161068e575b61067a81836108a5565b8101031261068a575190386104e6565b8a80fd5b503d610670565b8480fd5b91503461024757602080600319360112610855576106b5610859565b916001600160a01b037f000000000000000000000000000000000000000000000000000000000000000081166106ed3082141561093b565b61070a600080516020610bc083398151915291838354161461098a565b6107126108e3565b8251848101929091906001600160401b0384118385101761084257838552888352600080516020610b808339815191525460ff161561075b575050505050506102a491506109d9565b869293949596169085516352d1902d60e01b815287818a81865afa8a9181610813575b506107cb57865162461bcd60e51b8152808a01899052602e6024820152600080516020610c2083398151915260448201526d6f6e206973206e6f74205555505360901b6064820152608490fd5b97919293969594970361060d57506107e2826109d9565b600080516020610c008339815191528780a28584511580159061080c576105765750505050505080f35b5080610568565b9091508881813d831161083b575b61082b81836108a5565b8101031261068a5751903861077e565b503d610821565b634e487b7160e01b895260418852602489fd5b8380fd5b600435906001600160a01b038216820361086f57565b600080fd5b606081019081106001600160401b0382111761088f57604052565b634e487b7160e01b600052604160045260246000fd5b601f909101601f19168101906001600160401b0382119082101761088f57604052565b6001600160401b03811161088f57601f01601f191660200190565b6033546001600160a01b031633036108f757565b606460405162461bcd60e51b815260206004820152602060248201527f4f776e61626c653a2063616c6c6572206973206e6f7420746865206f776e65726044820152fd5b1561094257565b60405162461bcd60e51b815260206004820152602c6024820152600080516020610ba083398151915260448201526b19195b1959d85d1958d85b1b60a21b6064820152608490fd5b1561099157565b60405162461bcd60e51b815260206004820152602c6024820152600080516020610ba083398151915260448201526b6163746976652070726f787960a01b6064820152608490fd5b803b15610a0e57600080516020610bc083398151915280546001600160a01b0319166001600160a01b03909216919091179055565b60405162461bcd60e51b815260206004820152602d60248201527f455243313936373a206e657720696d706c656d656e746174696f6e206973206e60448201526c1bdd08184818dbdb9d1c9858dd609a1b6064820152608490fd5b91929015610acb5750815115610a7d575090565b3b15610a865790565b60405162461bcd60e51b815260206004820152601d60248201527f416464726573733a2063616c6c20746f206e6f6e2d636f6e74726163740000006044820152606490fd5b825190915015610ade5750805190602001fd5b6040519062461bcd60e51b82528160208060048301528251908160248401526000935b828510610b24575050604492506000838284010152601f80199101168101030190fd5b8481018201518686016044015293810193859350610b01565b606580546001600160a01b0319908116909155603380549182166001600160a01b039384169081179091559116600080516020610be0833981519152600080a356fe4910fdfa16fed3260ed0e7147f7cc6da11a60208b5b9406d12a635614ffd914346756e6374696f6e206d7573742062652063616c6c6564207468726f75676820360894a13ba1a3210667c828492db98dca3e2076cc3735a920a3ca505d382bbc8be0079c531659141344cd1fd0a4f28419497f9722a3daafe3b4186f6b6457e0bc7cd75a20ee27fd9adebab32041f755214dbc6bffa90cc0225b39da2e5c2d3b45524331393637557067726164653a206e657720696d706c656d656e74617469a264697066735822122095dd4d2a5c194bfb1dbff104f39ee7131051171aea85fa95e6fba516911de91b64736f6c63430008130033",
        "nonce": "0x94",
        "chainId": "0xa"
      },
      "additionalContracts": [],
      "isFixedGasLimit": false
    },
    {
      "hash": "0x9a7510fe28b02ec035a498d55a6cf45589633379fe2d4e7c8df89cbbcbf7d274",
      "transactionType": "CALL",
      "contractName": "ERC1967Proxy",
      "contractAddress": "0x129f253f78e33a0312ef8e59fae7699ef6e8dbef",
      "function": null,
      "arguments": null,
      "transaction": {
        "from": "0xb05a948b5c1b057b88d381bde3a375efea87ebad",
        "to": "0x129f253f78e33a0312ef8e59fae7699ef6e8dbef",
        "gas": "0xd202",
        "value": "0x0",
        "input": "0x3659cfe60000000000000000000000007bf1e4d6745522a6c393d490b72be2d6e5e6260d",
        "nonce": "0x95",
        "chainId": "0xa"
      },
      "additionalContracts": [],
      "isFixedGasLimit": false
    },
    {
      "hash": "0x0364de9b92de1982f6ca020398e65e21b78f3495b7dd6174f85af73e83d82553",
      "transactionType": "CALL",
      "contractName": null,
      "contractAddress": "0xb39dfa15f96055664179e8ecaa890f3fa26c21e9",
      "function": "transferOwnership(address)",
      "arguments": [
        "0x129f253F78E33A0312EF8E59fae7699Ef6e8Dbef"
      ],
      "transaction": {
        "from": "0xb05a948b5c1b057b88d381bde3a375efea87ebad",
        "to": "0xb39dfa15f96055664179e8ecaa890f3fa26c21e9",
        "gas": "0xc024",
        "value": "0x0",
        "input": "0xf2fde38b000000000000000000000000129f253f78e33a0312ef8e59fae7699ef6e8dbef",
        "nonce": "0x96",
        "chainId": "0xa"
      },
      "additionalContracts": [],
      "isFixedGasLimit": false
    },
    {
      "hash": "0x8083c131ea6932e8acb22c7e3e1193923402287397c403fc0f12ad7965c202a1",
      "transactionType": "CALL",
      "contractName": null,
      "contractAddress": "0xc93830dd463516ed5f28f6cd4f837173b87ff389",
      "function": "transferOwnership(address)",
      "arguments": [
        "0x129f253F78E33A0312EF8E59fae7699Ef6e8Dbef"
      ],
      "transaction": {
        "from": "0xb05a948b5c1b057b88d381bde3a375efea87ebad",
        "to": "0xc93830dd463516ed5f28f6cd4f837173b87ff389",
        "gas": "0xb5d3",
        "value": "0x0",
        "input": "0xf2fde38b000000000000000000000000129f253f78e33a0312ef8e59fae7699ef6e8dbef",
        "nonce": "0x97",
        "chainId": "0xa"
      },
      "additionalContracts": [],
      "isFixedGasLimit": false
    },
    {
      "hash": "0xd659a74329d46dfad6ae4bd20cc691c2b3985b6e7123611b8f417d44e5d2803d",
      "transactionType": "CALL",
      "contractName": null,
      "contractAddress": "0x1fac47cf25f1ca9f20ba366099d26b28401f5715",
      "function": "transferOwnership(address)",
      "arguments": [
        "0x129f253F78E33A0312EF8E59fae7699Ef6e8Dbef"
      ],
      "transaction": {
        "from": "0xb05a948b5c1b057b88d381bde3a375efea87ebad",
        "to": "0x1fac47cf25f1ca9f20ba366099d26b28401f5715",
        "gas": "0xeddd",
        "value": "0x0",
        "input": "0xf2fde38b000000000000000000000000129f253f78e33a0312ef8e59fae7699ef6e8dbef",
        "nonce": "0x98",
        "chainId": "0xa"
      },
      "additionalContracts": [],
      "isFixedGasLimit": false
    },
    {
      "hash": "0xa8a148a4f94abcb171546897ea0bb60b02f5c41ec56809b54968986a3d82513c",
      "transactionType": "CALL",
      "contractName": null,
      "contractAddress": "0x0497390bb09a642500f77534167e6742c403cfe9",
      "function": "transferOwnership(address)",
      "arguments": [
        "0x129f253F78E33A0312EF8E59fae7699Ef6e8Dbef"
      ],
      "transaction": {
        "from": "0xb05a948b5c1b057b88d381bde3a375efea87ebad",
        "to": "0x0497390bb09a642500f77534167e6742c403cfe9",
        "gas": "0xbc4e",
        "value": "0x0",
        "input": "0xf2fde38b000000000000000000000000129f253f78e33a0312ef8e59fae7699ef6e8dbef",
        "nonce": "0x99",
        "chainId": "0xa"
      },
      "additionalContracts": [],
      "isFixedGasLimit": false
    },
    {
      "hash": "0x1a555ce1b321a0b221dc6392ef7e5d9570c867a6d44e10aa7c02b4d204406061",
      "transactionType": "CALL",
      "contractName": null,
      "contractAddress": "0x0d3e216236e9f7271dabf652ca43d9c9eb489734",
      "function": "transferOwnership(address)",
      "arguments": [
        "0x129f253F78E33A0312EF8E59fae7699Ef6e8Dbef"
      ],
      "transaction": {
        "from": "0xb05a948b5c1b057b88d381bde3a375efea87ebad",
        "to": "0x0d3e216236e9f7271dabf652ca43d9c9eb489734",
        "gas": "0xbc4e",
        "value": "0x0",
        "input": "0xf2fde38b000000000000000000000000129f253f78e33a0312ef8e59fae7699ef6e8dbef",
        "nonce": "0x9a",
        "chainId": "0xa"
      },
      "additionalContracts": [],
      "isFixedGasLimit": false
    },
    {
      "hash": "0x4755fb43db1d414eec329d06979f261d2e8f4294848d6876255a3a6cb28e87db",
      "transactionType": "CALL",
      "contractName": null,
      "contractAddress": "0x10bbcd5e4cf147e67abab8a24ee31599cb022993",
      "function": "transferOwnership(address)",
      "arguments": [
        "0x129f253F78E33A0312EF8E59fae7699Ef6e8Dbef"
      ],
      "transaction": {
        "from": "0xb05a948b5c1b057b88d381bde3a375efea87ebad",
        "to": "0x10bbcd5e4cf147e67abab8a24ee31599cb022993",
        "gas": "0xbc4e",
        "value": "0x0",
        "input": "0xf2fde38b000000000000000000000000129f253f78e33a0312ef8e59fae7699ef6e8dbef",
        "nonce": "0x9b",
        "chainId": "0xa"
      },
      "additionalContracts": [],
      "isFixedGasLimit": false
    },
    {
      "hash": "0x11ed41a04040311d9c349b7dc010e0a525781aa92059e72bab2ceb7c0eb6856e",
      "transactionType": "CALL",
      "contractName": null,
      "contractAddress": "0x1ef94b88720b6aa0649e43a96f3be16588e3e5f4",
      "function": "transferOwnership(address)",
      "arguments": [
        "0x129f253F78E33A0312EF8E59fae7699Ef6e8Dbef"
      ],
      "transaction": {
        "from": "0xb05a948b5c1b057b88d381bde3a375efea87ebad",
        "to": "0x1ef94b88720b6aa0649e43a96f3be16588e3e5f4",
        "gas": "0xbc4e",
        "value": "0x0",
        "input": "0xf2fde38b000000000000000000000000129f253f78e33a0312ef8e59fae7699ef6e8dbef",
        "nonce": "0x9c",
        "chainId": "0xa"
      },
      "additionalContracts": [],
      "isFixedGasLimit": false
    },
    {
      "hash": "0xf57096505a59b6f6b82874202b0360546f2a4e4c00a92c008b0858918d9774ca",
      "transactionType": "CALL",
      "contractName": null,
      "contractAddress": "0x2088bbe7e70acfaf643e834c96aa4c277be6653e",
      "function": "transferOwnership(address)",
      "arguments": [
        "0x129f253F78E33A0312EF8E59fae7699Ef6e8Dbef"
      ],
      "transaction": {
        "from": "0xb05a948b5c1b057b88d381bde3a375efea87ebad",
        "to": "0x2088bbe7e70acfaf643e834c96aa4c277be6653e",
        "gas": "0xbc4e",
        "value": "0x0",
        "input": "0xf2fde38b000000000000000000000000129f253f78e33a0312ef8e59fae7699ef6e8dbef",
        "nonce": "0x9d",
        "chainId": "0xa"
      },
      "additionalContracts": [],
      "isFixedGasLimit": false
    },
    {
      "hash": "0xc816746d16d321c217409c5f88da8fcb246b6a58ba70ab16fdfa2beae9dbd7e9",
      "transactionType": "CALL",
      "contractName": null,
      "contractAddress": "0x2171ec78778dda68a993704b607f23e6e4f17783",
      "function": "transferOwnership(address)",
      "arguments": [
        "0x129f253F78E33A0312EF8E59fae7699Ef6e8Dbef"
      ],
      "transaction": {
        "from": "0xb05a948b5c1b057b88d381bde3a375efea87ebad",
        "to": "0x2171ec78778dda68a993704b607f23e6e4f17783",
        "gas": "0xbc4e",
        "value": "0x0",
        "input": "0xf2fde38b000000000000000000000000129f253f78e33a0312ef8e59fae7699ef6e8dbef",
        "nonce": "0x9e",
        "chainId": "0xa"
      },
      "additionalContracts": [],
      "isFixedGasLimit": false
    },
    {
      "hash": "0xc6ad4e9595e7fb69fb65956f3e29e97340814e2081b89705b061d0d96d20b012",
      "transactionType": "CALL",
      "contractName": null,
      "contractAddress": "0x3da181b922a890ec30c41ebe764c49f28f890e77",
      "function": "transferOwnership(address)",
      "arguments": [
        "0x129f253F78E33A0312EF8E59fae7699Ef6e8Dbef"
      ],
      "transaction": {
        "from": "0xb05a948b5c1b057b88d381bde3a375efea87ebad",
        "to": "0x3da181b922a890ec30c41ebe764c49f28f890e77",
        "gas": "0xbc4e",
        "value": "0x0",
        "input": "0xf2fde38b000000000000000000000000129f253f78e33a0312ef8e59fae7699ef6e8dbef",
        "nonce": "0x9f",
        "chainId": "0xa"
      },
      "additionalContracts": [],
      "isFixedGasLimit": false
    },
    {
      "hash": "0xd68d4bb090bd02c8b89ca6e3e93a6bc54cb6e5135232ca80e3966c75516edea4",
      "transactionType": "CALL",
      "contractName": null,
      "contractAddress": "0x4e8b0da13f858b0c101a28b7a92e42ae28ace5a4",
      "function": "transferOwnership(address)",
      "arguments": [
        "0x129f253F78E33A0312EF8E59fae7699Ef6e8Dbef"
      ],
      "transaction": {
        "from": "0xb05a948b5c1b057b88d381bde3a375efea87ebad",
        "to": "0x4e8b0da13f858b0c101a28b7a92e42ae28ace5a4",
        "gas": "0xbc4e",
        "value": "0x0",
        "input": "0xf2fde38b000000000000000000000000129f253f78e33a0312ef8e59fae7699ef6e8dbef",
        "nonce": "0xa0",
        "chainId": "0xa"
      },
      "additionalContracts": [],
      "isFixedGasLimit": false
    },
    {
      "hash": "0x56cd402980d8d5c98598b1e824c4b7113dcd2c702358d38290398974efc67aec",
      "transactionType": "CALL",
      "contractName": null,
      "contractAddress": "0x5326f5264f547db8d3d6f39543f3767884dad3e5",
      "function": "transferOwnership(address)",
      "arguments": [
        "0x129f253F78E33A0312EF8E59fae7699Ef6e8Dbef"
      ],
      "transaction": {
        "from": "0xb05a948b5c1b057b88d381bde3a375efea87ebad",
        "to": "0x5326f5264f547db8d3d6f39543f3767884dad3e5",
        "gas": "0xbc4e",
        "value": "0x0",
        "input": "0xf2fde38b000000000000000000000000129f253f78e33a0312ef8e59fae7699ef6e8dbef",
        "nonce": "0xa1",
        "chainId": "0xa"
      },
      "additionalContracts": [],
      "isFixedGasLimit": false
    },
    {
      "hash": "0x25ef2909fc66b65b59d988720b90cbe415f578c9852b6efbf13121c6af77beb7",
      "transactionType": "CALL",
      "contractName": null,
      "contractAddress": "0x576cb81030cc47ccb7aef97e9e88d2648edb45db",
      "function": "transferOwnership(address)",
      "arguments": [
        "0x129f253F78E33A0312EF8E59fae7699Ef6e8Dbef"
      ],
      "transaction": {
        "from": "0xb05a948b5c1b057b88d381bde3a375efea87ebad",
        "to": "0x576cb81030cc47ccb7aef97e9e88d2648edb45db",
        "gas": "0xbc4e",
        "value": "0x0",
        "input": "0xf2fde38b000000000000000000000000129f253f78e33a0312ef8e59fae7699ef6e8dbef",
        "nonce": "0xa2",
        "chainId": "0xa"
      },
      "additionalContracts": [],
      "isFixedGasLimit": false
    },
    {
      "hash": "0xf6f5757ffd5cd8782a53b6a53a6a81e0858da320330af4d96cb175798d98e7fe",
      "transactionType": "CALL",
      "contractName": null,
      "contractAddress": "0x6185357e28d2feb72a7606a3b66811f88279dd3d",
      "function": "transferOwnership(address)",
      "arguments": [
        "0x129f253F78E33A0312EF8E59fae7699Ef6e8Dbef"
      ],
      "transaction": {
        "from": "0xb05a948b5c1b057b88d381bde3a375efea87ebad",
        "to": "0x6185357e28d2feb72a7606a3b66811f88279dd3d",
        "gas": "0xbc4e",
        "value": "0x0",
        "input": "0xf2fde38b000000000000000000000000129f253f78e33a0312ef8e59fae7699ef6e8dbef",
        "nonce": "0xa3",
        "chainId": "0xa"
      },
      "additionalContracts": [],
      "isFixedGasLimit": false
    },
    {
      "hash": "0x29b1a03f2ed1f202bc9f864a8c01bcffe57341193df001713c80e969f705c91b",
      "transactionType": "CALL",
      "contractName": null,
      "contractAddress": "0x6cc78ed3a4d8aa94410a60f702235c85d584730f",
      "function": "transferOwnership(address)",
      "arguments": [
        "0x129f253F78E33A0312EF8E59fae7699Ef6e8Dbef"
      ],
      "transaction": {
        "from": "0xb05a948b5c1b057b88d381bde3a375efea87ebad",
        "to": "0x6cc78ed3a4d8aa94410a60f702235c85d584730f",
        "gas": "0xbc4e",
        "value": "0x0",
        "input": "0xf2fde38b000000000000000000000000129f253f78e33a0312ef8e59fae7699ef6e8dbef",
        "nonce": "0xa4",
        "chainId": "0xa"
      },
      "additionalContracts": [],
      "isFixedGasLimit": false
    },
    {
      "hash": "0x8339664702d15506ccfb68e43d1ade7c984d7b9c7d3bb5670fa41581b2c04feb",
      "transactionType": "CALL",
      "contractName": null,
      "contractAddress": "0x71566372033aafbd1a62430171ad698768d98dcc",
      "function": "transferOwnership(address)",
      "arguments": [
        "0x129f253F78E33A0312EF8E59fae7699Ef6e8Dbef"
      ],
      "transaction": {
        "from": "0xb05a948b5c1b057b88d381bde3a375efea87ebad",
        "to": "0x71566372033aafbd1a62430171ad698768d98dcc",
        "gas": "0xbc4e",
        "value": "0x0",
        "input": "0xf2fde38b000000000000000000000000129f253f78e33a0312ef8e59fae7699ef6e8dbef",
        "nonce": "0xa5",
        "chainId": "0xa"
      },
      "additionalContracts": [],
      "isFixedGasLimit": false
    },
    {
      "hash": "0xf759a2acd6e5a5875007278da014b20b07320d4a65542da6961f7cea45079b78",
      "transactionType": "CALL",
      "contractName": null,
      "contractAddress": "0x87665484460f587a145eca5ce1e769da9ab8abf9",
      "function": "transferOwnership(address)",
      "arguments": [
        "0x129f253F78E33A0312EF8E59fae7699Ef6e8Dbef"
      ],
      "transaction": {
        "from": "0xb05a948b5c1b057b88d381bde3a375efea87ebad",
        "to": "0x87665484460f587a145eca5ce1e769da9ab8abf9",
        "gas": "0xbc4e",
        "value": "0x0",
        "input": "0xf2fde38b000000000000000000000000129f253f78e33a0312ef8e59fae7699ef6e8dbef",
        "nonce": "0xa6",
        "chainId": "0xa"
      },
      "additionalContracts": [],
      "isFixedGasLimit": false
    },
    {
      "hash": "0x059c0c438a1a09ad5e9b55b3ea7815bc1451df681dd6f5397502c3261b20459b",
      "transactionType": "CALL",
      "contractName": null,
      "contractAddress": "0x888e2fbc7e7afe3a8f9b54030d0cb0eed896f955",
      "function": "transferOwnership(address)",
      "arguments": [
        "0x129f253F78E33A0312EF8E59fae7699Ef6e8Dbef"
      ],
      "transaction": {
        "from": "0xb05a948b5c1b057b88d381bde3a375efea87ebad",
        "to": "0x888e2fbc7e7afe3a8f9b54030d0cb0eed896f955",
        "gas": "0xbc4e",
        "value": "0x0",
        "input": "0xf2fde38b000000000000000000000000129f253f78e33a0312ef8e59fae7699ef6e8dbef",
        "nonce": "0xa7",
        "chainId": "0xa"
      },
      "additionalContracts": [],
      "isFixedGasLimit": false
    },
    {
      "hash": "0xaf9d9f25da206c7a2cf0fd880f9b24e4546c72874101b948e5a15edbe45741fc",
      "transactionType": "CALL",
      "contractName": null,
      "contractAddress": "0x9175dc03307d8f91bc757334959906731f2b60ef",
      "function": "transferOwnership(address)",
      "arguments": [
        "0x129f253F78E33A0312EF8E59fae7699Ef6e8Dbef"
      ],
      "transaction": {
        "from": "0xb05a948b5c1b057b88d381bde3a375efea87ebad",
        "to": "0x9175dc03307d8f91bc757334959906731f2b60ef",
        "gas": "0xbc4e",
        "value": "0x0",
        "input": "0xf2fde38b000000000000000000000000129f253f78e33a0312ef8e59fae7699ef6e8dbef",
        "nonce": "0xa8",
        "chainId": "0xa"
      },
      "additionalContracts": [],
      "isFixedGasLimit": false
    },
    {
      "hash": "0x10b3738bad599331a53f8f7460cd2d26ade930e92f3f4361101aed1f28c83468",
      "transactionType": "CALL",
      "contractName": null,
      "contractAddress": "0xa8cb166fd9e10103a6dbabefcf942d7b8026f735",
      "function": "transferOwnership(address)",
      "arguments": [
        "0x129f253F78E33A0312EF8E59fae7699Ef6e8Dbef"
      ],
      "transaction": {
        "from": "0xb05a948b5c1b057b88d381bde3a375efea87ebad",
        "to": "0xa8cb166fd9e10103a6dbabefcf942d7b8026f735",
        "gas": "0xbc4e",
        "value": "0x0",
        "input": "0xf2fde38b000000000000000000000000129f253f78e33a0312ef8e59fae7699ef6e8dbef",
        "nonce": "0xa9",
        "chainId": "0xa"
      },
      "additionalContracts": [],
      "isFixedGasLimit": false
    },
    {
      "hash": "0x558e1b6bec4897e23c067d49463e9b916019776c07410ce9da4845e0dbfa3b30",
      "transactionType": "CALL",
      "contractName": null,
      "contractAddress": "0xaecc747c84205e21832fc924fe61ca12b313a8e6",
      "function": "transferOwnership(address)",
      "arguments": [
        "0x129f253F78E33A0312EF8E59fae7699Ef6e8Dbef"
      ],
      "transaction": {
        "from": "0xb05a948b5c1b057b88d381bde3a375efea87ebad",
        "to": "0xaecc747c84205e21832fc924fe61ca12b313a8e6",
        "gas": "0xbc4e",
        "value": "0x0",
        "input": "0xf2fde38b000000000000000000000000129f253f78e33a0312ef8e59fae7699ef6e8dbef",
        "nonce": "0xaa",
        "chainId": "0xa"
      },
      "additionalContracts": [],
      "isFixedGasLimit": false
    },
    {
      "hash": "0x5d884d3dab7d261c447abb46016f5dfff8d7c6902167de5cc1aa495327acd0b9",
      "transactionType": "CALL",
      "contractName": null,
      "contractAddress": "0xbbb2313aeb8b1ff309790e20e61280aecd548db4",
      "function": "transferOwnership(address)",
      "arguments": [
        "0x129f253F78E33A0312EF8E59fae7699Ef6e8Dbef"
      ],
      "transaction": {
        "from": "0xb05a948b5c1b057b88d381bde3a375efea87ebad",
        "to": "0xbbb2313aeb8b1ff309790e20e61280aecd548db4",
        "gas": "0xbc4e",
        "value": "0x0",
        "input": "0xf2fde38b000000000000000000000000129f253f78e33a0312ef8e59fae7699ef6e8dbef",
        "nonce": "0xab",
        "chainId": "0xa"
      },
      "additionalContracts": [],
      "isFixedGasLimit": false
    },
    {
      "hash": "0x975621d240f6c04e8aab86e3f957290f8a2b8e79aa135da6f6771bb3f2b5a32b",
      "transactionType": "CALL",
      "contractName": null,
      "contractAddress": "0xbc5a25bf2eeb5941dd3531a0ab8857c9f0c3b6a5",
      "function": "transferOwnership(address)",
      "arguments": [
        "0x129f253F78E33A0312EF8E59fae7699Ef6e8Dbef"
      ],
      "transaction": {
        "from": "0xb05a948b5c1b057b88d381bde3a375efea87ebad",
        "to": "0xbc5a25bf2eeb5941dd3531a0ab8857c9f0c3b6a5",
        "gas": "0xbc4e",
        "value": "0x0",
        "input": "0xf2fde38b000000000000000000000000129f253f78e33a0312ef8e59fae7699ef6e8dbef",
        "nonce": "0xac",
        "chainId": "0xa"
      },
      "additionalContracts": [],
      "isFixedGasLimit": false
    },
    {
      "hash": "0xea045590364e200c8b44794d6c38e181c9ec655734705f760cc219e482d75a47",
      "transactionType": "CALL",
      "contractName": null,
      "contractAddress": "0xcee4e641af10b05c17a657d038c2a0071e1ec051",
      "function": "transferOwnership(address)",
      "arguments": [
        "0x129f253F78E33A0312EF8E59fae7699Ef6e8Dbef"
      ],
      "transaction": {
        "from": "0xb05a948b5c1b057b88d381bde3a375efea87ebad",
        "to": "0xcee4e641af10b05c17a657d038c2a0071e1ec051",
        "gas": "0xbc4e",
        "value": "0x0",
        "input": "0xf2fde38b000000000000000000000000129f253f78e33a0312ef8e59fae7699ef6e8dbef",
        "nonce": "0xad",
        "chainId": "0xa"
      },
      "additionalContracts": [],
      "isFixedGasLimit": false
    },
    {
      "hash": "0x087ae9cb1f32dba445638b63702559644ace6b2b637b1a05bf78c99ee274381b",
      "transactionType": "CALL",
      "contractName": null,
      "contractAddress": "0xe5b10de982897a60cfae8481bac5848816c0f705",
      "function": "transferOwnership(address)",
      "arguments": [
        "0x129f253F78E33A0312EF8E59fae7699Ef6e8Dbef"
      ],
      "transaction": {
        "from": "0xb05a948b5c1b057b88d381bde3a375efea87ebad",
        "to": "0xe5b10de982897a60cfae8481bac5848816c0f705",
        "gas": "0xbc4e",
        "value": "0x0",
        "input": "0xf2fde38b000000000000000000000000129f253f78e33a0312ef8e59fae7699ef6e8dbef",
        "nonce": "0xae",
        "chainId": "0xa"
      },
      "additionalContracts": [],
      "isFixedGasLimit": false
    },
    {
      "hash": "0x618454c4626becb0d658383f6053a847eb7da1a4a9a1183229ed54923fe5b751",
      "transactionType": "CALL",
      "contractName": null,
      "contractAddress": "0xee1a9cf8625c2f1f25201ac1a9a9e81f53d5e846",
      "function": "transferOwnership(address)",
      "arguments": [
        "0x129f253F78E33A0312EF8E59fae7699Ef6e8Dbef"
      ],
      "transaction": {
        "from": "0xb05a948b5c1b057b88d381bde3a375efea87ebad",
        "to": "0xee1a9cf8625c2f1f25201ac1a9a9e81f53d5e846",
        "gas": "0xbc4e",
        "value": "0x0",
        "input": "0xf2fde38b000000000000000000000000129f253f78e33a0312ef8e59fae7699ef6e8dbef",
        "nonce": "0xaf",
        "chainId": "0xa"
      },
      "additionalContracts": [],
      "isFixedGasLimit": false
    },
    {
      "hash": "0x5768fb9b4ae0d267aa54bdf3ae21ee4356cf7656c76f72ced162e0ffa03807bc",
      "transactionType": "CALL",
      "contractName": null,
      "contractAddress": "0xf515b83f7e0ab851f822e56b0fe63dfa973e74f0",
      "function": "transferOwnership(address)",
      "arguments": [
        "0x129f253F78E33A0312EF8E59fae7699Ef6e8Dbef"
      ],
      "transaction": {
        "from": "0xb05a948b5c1b057b88d381bde3a375efea87ebad",
        "to": "0xf515b83f7e0ab851f822e56b0fe63dfa973e74f0",
        "gas": "0xbc4e",
        "value": "0x0",
        "input": "0xf2fde38b000000000000000000000000129f253f78e33a0312ef8e59fae7699ef6e8dbef",
        "nonce": "0xb0",
        "chainId": "0xa"
      },
      "additionalContracts": [],
      "isFixedGasLimit": false
    },
    {
      "hash": "0xe7d0eca7f64a0792bafc42b8d31cd170cc4c78f45f7ce2c02165eecbb8b4c371",
      "transactionType": "CALL",
      "contractName": null,
      "contractAddress": "0x1c720bfa4a2535fb6675b859a717b4cba56fd97b",
      "function": "transferOwnership(address)",
      "arguments": [
        "0x129f253F78E33A0312EF8E59fae7699Ef6e8Dbef"
      ],
      "transaction": {
        "from": "0xb05a948b5c1b057b88d381bde3a375efea87ebad",
        "to": "0x1c720bfa4a2535fb6675b859a717b4cba56fd97b",
        "gas": "0xc882",
        "value": "0x0",
        "input": "0xf2fde38b000000000000000000000000129f253f78e33a0312ef8e59fae7699ef6e8dbef",
        "nonce": "0xb1",
        "chainId": "0xa"
      },
      "additionalContracts": [],
      "isFixedGasLimit": false
    },
    {
      "hash": "0x0bc5fc7a0b0b95a2dbcd4ebd5024b64fa34d74ac92ad53e8e773b8c2e0bc649f",
      "transactionType": "CALL",
      "contractName": null,
      "contractAddress": "0x63e2b63072e131c0e5ad72205e03cbe6ca1484fa",
      "function": "transferOwnership(address)",
      "arguments": [
        "0x129f253F78E33A0312EF8E59fae7699Ef6e8Dbef"
      ],
      "transaction": {
        "from": "0xb05a948b5c1b057b88d381bde3a375efea87ebad",
        "to": "0x63e2b63072e131c0e5ad72205e03cbe6ca1484fa",
        "gas": "0xc882",
        "value": "0x0",
        "input": "0xf2fde38b000000000000000000000000129f253f78e33a0312ef8e59fae7699ef6e8dbef",
        "nonce": "0xb2",
        "chainId": "0xa"
      },
      "additionalContracts": [],
      "isFixedGasLimit": false
    },
    {
      "hash": "0x1492aae9b87abd989edcced8b07b1d2f3289abaf0615d6810fe4ac9d41b2c834",
      "transactionType": "CALL",
      "contractName": null,
      "contractAddress": "0x8f80c90ef85254bd1c401804058bb68f2eb7cfab",
      "function": "transferOwnership(address)",
      "arguments": [
        "0x129f253F78E33A0312EF8E59fae7699Ef6e8Dbef"
      ],
      "transaction": {
        "from": "0xb05a948b5c1b057b88d381bde3a375efea87ebad",
        "to": "0x8f80c90ef85254bd1c401804058bb68f2eb7cfab",
        "gas": "0xc882",
        "value": "0x0",
        "input": "0xf2fde38b000000000000000000000000129f253f78e33a0312ef8e59fae7699ef6e8dbef",
        "nonce": "0xb3",
        "chainId": "0xa"
      },
      "additionalContracts": [],
      "isFixedGasLimit": false
    },
    {
      "hash": "0x7ac8ee4add6841b70bffc5e5372c9f0a91d71a9489aa47128b3f5f8b889d6472",
      "transactionType": "CALL",
      "contractName": null,
      "contractAddress": "0x94daa3f0e1380139e178f8cc523eea39395bcf78",
      "function": "transferOwnership(address)",
      "arguments": [
        "0x129f253F78E33A0312EF8E59fae7699Ef6e8Dbef"
      ],
      "transaction": {
        "from": "0xb05a948b5c1b057b88d381bde3a375efea87ebad",
        "to": "0x94daa3f0e1380139e178f8cc523eea39395bcf78",
        "gas": "0xc882",
        "value": "0x0",
        "input": "0xf2fde38b000000000000000000000000129f253f78e33a0312ef8e59fae7699ef6e8dbef",
        "nonce": "0xb4",
        "chainId": "0xa"
      },
      "additionalContracts": [],
      "isFixedGasLimit": false
    },
    {
      "hash": "0x7f7e0d079d2443d686ac0d56fcab1f2fd6917744374c4655bc94be2224b36ad1",
      "transactionType": "CALL",
      "contractName": null,
      "contractAddress": "0x964251300e577801ce3e21897c6a335505fedee5",
      "function": "transferOwnership(address)",
      "arguments": [
        "0x129f253F78E33A0312EF8E59fae7699Ef6e8Dbef"
      ],
      "transaction": {
        "from": "0xb05a948b5c1b057b88d381bde3a375efea87ebad",
        "to": "0x964251300e577801ce3e21897c6a335505fedee5",
        "gas": "0xc882",
        "value": "0x0",
        "input": "0xf2fde38b000000000000000000000000129f253f78e33a0312ef8e59fae7699ef6e8dbef",
        "nonce": "0xb5",
        "chainId": "0xa"
      },
      "additionalContracts": [],
      "isFixedGasLimit": false
    },
    {
      "hash": "0x4abc51e671a685b468d92da28c558c7242aec1b1977a40f1f2cc70cc839842fb",
      "transactionType": "CALL",
      "contractName": null,
      "contractAddress": "0xaeecbc91e44541204d0c784e4ac3e8eca6a47cc8",
      "function": "transferOwnership(address)",
      "arguments": [
        "0x129f253F78E33A0312EF8E59fae7699Ef6e8Dbef"
      ],
      "transaction": {
        "from": "0xb05a948b5c1b057b88d381bde3a375efea87ebad",
        "to": "0xaeecbc91e44541204d0c784e4ac3e8eca6a47cc8",
        "gas": "0xc882",
        "value": "0x0",
        "input": "0xf2fde38b000000000000000000000000129f253f78e33a0312ef8e59fae7699ef6e8dbef",
        "nonce": "0xb6",
        "chainId": "0xa"
      },
      "additionalContracts": [],
      "isFixedGasLimit": false
    },
    {
      "hash": "0xa1bc09fb271f449f6e8a6f875fa81a31abb56e287d25836326955996158f4a32",
      "transactionType": "CALL",
      "contractName": null,
      "contractAddress": "0xb3551608e7833f517d77419f4035e1a6b14391b7",
      "function": "transferOwnership(address)",
      "arguments": [
        "0x129f253F78E33A0312EF8E59fae7699Ef6e8Dbef"
      ],
      "transaction": {
        "from": "0xb05a948b5c1b057b88d381bde3a375efea87ebad",
        "to": "0xb3551608e7833f517d77419f4035e1a6b14391b7",
        "gas": "0xc882",
        "value": "0x0",
        "input": "0xf2fde38b000000000000000000000000129f253f78e33a0312ef8e59fae7699ef6e8dbef",
        "nonce": "0xb7",
        "chainId": "0xa"
      },
      "additionalContracts": [],
      "isFixedGasLimit": false
    },
    {
      "hash": "0x7a671af112ddb8891da5eb16baaaba0301b1ecb3fb4edd832646763db74427c1",
      "transactionType": "CALL",
      "contractName": null,
      "contractAddress": "0xd9cf1f7d077166236e260819257a567b1ca22c8c",
      "function": "transferOwnership(address)",
      "arguments": [
        "0x129f253F78E33A0312EF8E59fae7699Ef6e8Dbef"
      ],
      "transaction": {
        "from": "0xb05a948b5c1b057b88d381bde3a375efea87ebad",
        "to": "0xd9cf1f7d077166236e260819257a567b1ca22c8c",
        "gas": "0xc882",
        "value": "0x0",
        "input": "0xf2fde38b000000000000000000000000129f253f78e33a0312ef8e59fae7699ef6e8dbef",
        "nonce": "0xb8",
        "chainId": "0xa"
      },
      "additionalContracts": [],
      "isFixedGasLimit": false
    },
    {
      "hash": "0x01e79b4c9dcd881f43c113a9e7c9fb6a81b2893262c18b33373bb3b022249328",
      "transactionType": "CALL",
      "contractName": null,
      "contractAddress": "0xfeca5fc72deb98b41198a5dce90e00bbafbe5888",
      "function": "transferOwnership(address)",
      "arguments": [
        "0x129f253F78E33A0312EF8E59fae7699Ef6e8Dbef"
      ],
      "transaction": {
        "from": "0xb05a948b5c1b057b88d381bde3a375efea87ebad",
        "to": "0xfeca5fc72deb98b41198a5dce90e00bbafbe5888",
        "gas": "0xc882",
        "value": "0x0",
        "input": "0xf2fde38b000000000000000000000000129f253f78e33a0312ef8e59fae7699ef6e8dbef",
        "nonce": "0xb9",
        "chainId": "0xa"
      },
      "additionalContracts": [],
      "isFixedGasLimit": false
    }
  ],
  "receipts": [
    {
      "status": "0x1",
      "cumulativeGasUsed": "0x66357c",
      "logs": [],
      "logsBloom": "0x00000000000000000000000000000000000000000000000000000000000000000000000000000000000000000000000000000000000000000000000000000000000000000000000000000000000000000000000000000000000000000000000000000000000000000000000000000000000000000000000000000000000000000000000000000000000000000000000000000000000000000000000000000000000000000000000000000000000000000000000000000000000000000000000000000000000000000000000000000000000000000000000000000000000000000000000000000000000000000000000000000000000000000000000000000000",
      "type": "0x2",
      "transactionHash": "0x5a5a058fb979fb266bddba658dd63c12285c93c8af0fb4739c3b5e5344c23d2b",
      "transactionIndex": "0x12",
      "blockHash": "0xe2efbcff966bfaa7018a84367b552d482cb71a8d3d0bcfb357371b3b0bb26eb2",
      "blockNumber": "0x7a6850e",
      "gasUsed": "0xb5235",
      "effectiveGasPrice": "0x18832",
      "from": "0xb05a948b5c1b057b88d381bde3a375efea87ebad",
      "to": null,
      "contractAddress": "0x1e975ded7696fb4a520d74554e489b2b1ee71196",
      "l1BaseFeeScalar": "0x146b",
      "l1BlobBaseFee": "0xf6942037",
      "l1BlobBaseFeeScalar": "0xf79c5",
      "l1Fee": "0x9109f8e51c9",
      "l1GasPrice": "0x294725d55",
      "l1GasUsed": "0x799c"
    },
    {
      "status": "0x1",
      "cumulativeGasUsed": "0x691618",
      "logs": [
        {
          "address": "0x129f253f78e33a0312ef8e59fae7699ef6e8dbef",
          "topics": [
            "0xbc7cd75a20ee27fd9adebab32041f755214dbc6bffa90cc0225b39da2e5c2d3b",
            "0x0000000000000000000000001e975ded7696fb4a520d74554e489b2b1ee71196"
          ],
          "data": "0x",
          "blockHash": "0xe2efbcff966bfaa7018a84367b552d482cb71a8d3d0bcfb357371b3b0bb26eb2",
          "blockNumber": "0x7a6850e",
          "transactionHash": "0xf6dd0d5a00b313a70fecb180d4cb867b4beb11e6ef99bbf2db193523c71ee427",
          "transactionIndex": "0x13",
          "logIndex": "0x88",
          "removed": false
        },
        {
          "address": "0x129f253f78e33a0312ef8e59fae7699ef6e8dbef",
          "topics": [
            "0x8be0079c531659141344cd1fd0a4f28419497f9722a3daafe3b4186f6b6457e0",
            "0x0000000000000000000000000000000000000000000000000000000000000000",
            "0x000000000000000000000000b05a948b5c1b057b88d381bde3a375efea87ebad"
          ],
          "data": "0x",
          "blockHash": "0xe2efbcff966bfaa7018a84367b552d482cb71a8d3d0bcfb357371b3b0bb26eb2",
          "blockNumber": "0x7a6850e",
          "transactionHash": "0xf6dd0d5a00b313a70fecb180d4cb867b4beb11e6ef99bbf2db193523c71ee427",
          "transactionIndex": "0x13",
          "logIndex": "0x89",
          "removed": false
        },
        {
          "address": "0x129f253f78e33a0312ef8e59fae7699ef6e8dbef",
          "topics": [
            "0x7f26b83ff96e1f2b6a682f133852f6798a09c465da95921460cefb3847402498"
          ],
          "data": "0x0000000000000000000000000000000000000000000000000000000000000001",
          "blockHash": "0xe2efbcff966bfaa7018a84367b552d482cb71a8d3d0bcfb357371b3b0bb26eb2",
          "blockNumber": "0x7a6850e",
          "transactionHash": "0xf6dd0d5a00b313a70fecb180d4cb867b4beb11e6ef99bbf2db193523c71ee427",
          "transactionIndex": "0x13",
          "logIndex": "0x8a",
          "removed": false
        }
      ],
      "logsBloom": "0x000000000000000000100000000000004000080000000000008000000000000000000000000000000000000000000000000000000002000000000000000000000000000000000000000000000000020000010000000000000000100000000000000000000200000000000000000008000000000000000000000000000000004000020000000000000000000000000000000000000000800000000400000000000000000000000000000000800004000000000000000000000000000000000000000000200000000000000000000400000000000000000000000000002000a0000000000000000000000000000000000000000000000000000000000000000000",
      "type": "0x2",
      "transactionHash": "0xf6dd0d5a00b313a70fecb180d4cb867b4beb11e6ef99bbf2db193523c71ee427",
      "transactionIndex": "0x13",
      "blockHash": "0xe2efbcff966bfaa7018a84367b552d482cb71a8d3d0bcfb357371b3b0bb26eb2",
      "blockNumber": "0x7a6850e",
      "gasUsed": "0x2e09c",
      "effectiveGasPrice": "0x18832",
      "from": "0xb05a948b5c1b057b88d381bde3a375efea87ebad",
      "to": null,
      "contractAddress": "0x129f253f78e33a0312ef8e59fae7699ef6e8dbef",
      "l1BaseFeeScalar": "0x146b",
      "l1BlobBaseFee": "0xf6942037",
      "l1BlobBaseFeeScalar": "0xf79c5",
      "l1Fee": "0x3e9bb0a1711",
      "l1GasPrice": "0x294725d55",
      "l1GasUsed": "0x347e"
    },
    {
      "status": "0x1",
      "cumulativeGasUsed": "0x74684d",
      "logs": [],
      "logsBloom": "0x00000000000000000000000000000000000000000000000000000000000000000000000000000000000000000000000000000000000000000000000000000000000000000000000000000000000000000000000000000000000000000000000000000000000000000000000000000000000000000000000000000000000000000000000000000000000000000000000000000000000000000000000000000000000000000000000000000000000000000000000000000000000000000000000000000000000000000000000000000000000000000000000000000000000000000000000000000000000000000000000000000000000000000000000000000000",
      "type": "0x2",
      "transactionHash": "0xffb576898d8e30cb8ece680fdc019d69bdc8d9a3086bd778a7e1d7e76653b34c",
      "transactionIndex": "0x14",
      "blockHash": "0xe2efbcff966bfaa7018a84367b552d482cb71a8d3d0bcfb357371b3b0bb26eb2",
      "blockNumber": "0x7a6850e",
      "gasUsed": "0xb5235",
      "effectiveGasPrice": "0x18832",
      "from": "0xb05a948b5c1b057b88d381bde3a375efea87ebad",
      "to": null,
      "contractAddress": "0x7bf1e4d6745522a6c393d490b72be2d6e5e6260d",
      "l1BaseFeeScalar": "0x146b",
      "l1BlobBaseFee": "0xf6942037",
      "l1BlobBaseFeeScalar": "0xf79c5",
      "l1Fee": "0x9109f8e51c9",
      "l1GasPrice": "0x294725d55",
      "l1GasUsed": "0x799c"
    },
    {
      "status": "0x1",
      "cumulativeGasUsed": "0x750059",
      "logs": [
        {
          "address": "0x129f253f78e33a0312ef8e59fae7699ef6e8dbef",
          "topics": [
            "0xbc7cd75a20ee27fd9adebab32041f755214dbc6bffa90cc0225b39da2e5c2d3b",
            "0x0000000000000000000000007bf1e4d6745522a6c393d490b72be2d6e5e6260d"
          ],
          "data": "0x",
          "blockHash": "0xe2efbcff966bfaa7018a84367b552d482cb71a8d3d0bcfb357371b3b0bb26eb2",
          "blockNumber": "0x7a6850e",
          "transactionHash": "0x9a7510fe28b02ec035a498d55a6cf45589633379fe2d4e7c8df89cbbcbf7d274",
          "transactionIndex": "0x15",
          "logIndex": "0x8b",
          "removed": false
        }
      ],
      "logsBloom": "0x00000000000000000010000000000000400000000000000000000000000000000000000000000000000000000000000000000000000000000000000000000000000000000000000000000000000002000000000000000000000010000000000000000000000000000000000000000040000000000000000000000000000000000000000000000000000000000000000000000000000000000000000000000000000000000000000000000000000000000000000000000000000000000000008000000020000000000000000000000000000000000000000000000000200000001000000000000000000000000000000000000000000000000000000000000000",
      "type": "0x2",
      "transactionHash": "0x9a7510fe28b02ec035a498d55a6cf45589633379fe2d4e7c8df89cbbcbf7d274",
      "transactionIndex": "0x15",
      "blockHash": "0xe2efbcff966bfaa7018a84367b552d482cb71a8d3d0bcfb357371b3b0bb26eb2",
      "blockNumber": "0x7a6850e",
      "gasUsed": "0x980c",
      "effectiveGasPrice": "0x18832",
      "from": "0xb05a948b5c1b057b88d381bde3a375efea87ebad",
      "to": "0x129f253f78e33a0312ef8e59fae7699ef6e8dbef",
      "contractAddress": null,
      "l1BaseFeeScalar": "0x146b",
      "l1BlobBaseFee": "0xf6942037",
      "l1BlobBaseFeeScalar": "0xf79c5",
      "l1Fee": "0x7743c5a13b",
      "l1GasPrice": "0x294725d55",
      "l1GasUsed": "0x640"
    },
    {
      "status": "0x1",
      "cumulativeGasUsed": "0x7583ba",
      "logs": [
        {
          "address": "0xb39dfa15f96055664179e8ecaa890f3fa26c21e9",
          "topics": [
            "0x8be0079c531659141344cd1fd0a4f28419497f9722a3daafe3b4186f6b6457e0",
            "0x000000000000000000000000b05a948b5c1b057b88d381bde3a375efea87ebad",
            "0x000000000000000000000000129f253f78e33a0312ef8e59fae7699ef6e8dbef"
          ],
          "data": "0x",
          "blockHash": "0xe2efbcff966bfaa7018a84367b552d482cb71a8d3d0bcfb357371b3b0bb26eb2",
          "blockNumber": "0x7a6850e",
          "transactionHash": "0x0364de9b92de1982f6ca020398e65e21b78f3495b7dd6174f85af73e83d82553",
          "transactionIndex": "0x16",
          "logIndex": "0x8c",
          "removed": false
        }
      ],
      "logsBloom": "0x00000000000000000000000000000000000000000000000000800000000000000000000000000000000000000000000000000800000000000000000100000000000000000000000000000000000000000001000000000000000000000000000000000000000000000000000000000000000000000000000000000000000000400002000000000000000000000000000000000000000000000000040000000000000000000000000000000000000000000000000000000000000000000000000000000000000000000000000000000000004000004000000000000000000080000000000000000000000000000000000000000000000000000408000000000000",
      "type": "0x2",
      "transactionHash": "0x0364de9b92de1982f6ca020398e65e21b78f3495b7dd6174f85af73e83d82553",
      "transactionIndex": "0x16",
      "blockHash": "0xe2efbcff966bfaa7018a84367b552d482cb71a8d3d0bcfb357371b3b0bb26eb2",
      "blockNumber": "0x7a6850e",
      "gasUsed": "0x8361",
      "effectiveGasPrice": "0x18832",
      "from": "0xb05a948b5c1b057b88d381bde3a375efea87ebad",
      "to": "0xb39dfa15f96055664179e8ecaa890f3fa26c21e9",
      "contractAddress": null,
      "l1BaseFeeScalar": "0x146b",
      "l1BlobBaseFee": "0xf6942037",
      "l1BlobBaseFeeScalar": "0xf79c5",
      "l1Fee": "0x7743c5a13b",
      "l1GasPrice": "0x294725d55",
      "l1GasUsed": "0x640"
    },
    {
      "status": "0x1",
      "cumulativeGasUsed": "0x76075e",
      "logs": [
        {
          "address": "0xc93830dd463516ed5f28f6cd4f837173b87ff389",
          "topics": [
            "0x8be0079c531659141344cd1fd0a4f28419497f9722a3daafe3b4186f6b6457e0",
            "0x000000000000000000000000b05a948b5c1b057b88d381bde3a375efea87ebad",
            "0x000000000000000000000000129f253f78e33a0312ef8e59fae7699ef6e8dbef"
          ],
          "data": "0x",
          "blockHash": "0xe2efbcff966bfaa7018a84367b552d482cb71a8d3d0bcfb357371b3b0bb26eb2",
          "blockNumber": "0x7a6850e",
          "transactionHash": "0x8083c131ea6932e8acb22c7e3e1193923402287397c403fc0f12ad7965c202a1",
          "transactionIndex": "0x17",
          "logIndex": "0x8d",
          "removed": false
        }
      ],
      "logsBloom": "0x00000000000000000000000000000000000000000000000000800000000000000000000000000000000000000000000000000800000000000000000100000000000000000000000000000000000000000001000000000000000000000000000000000000000000000000000002000000000000000000000000000000000000400002000000000000000000000000000000000000000000000000040000008000000000000000000000000000000000000000000000000000000000000000000000000000000004000000000000000000000000004000000000000000000080000000000000000000000000000000000000000000000000000000000000000000",
      "type": "0x2",
      "transactionHash": "0x8083c131ea6932e8acb22c7e3e1193923402287397c403fc0f12ad7965c202a1",
      "transactionIndex": "0x17",
      "blockHash": "0xe2efbcff966bfaa7018a84367b552d482cb71a8d3d0bcfb357371b3b0bb26eb2",
      "blockNumber": "0x7a6850e",
      "gasUsed": "0x83a4",
      "effectiveGasPrice": "0x18832",
      "from": "0xb05a948b5c1b057b88d381bde3a375efea87ebad",
      "to": "0xc93830dd463516ed5f28f6cd4f837173b87ff389",
      "contractAddress": null,
      "l1BaseFeeScalar": "0x146b",
      "l1BlobBaseFee": "0xf6942037",
      "l1BlobBaseFeeScalar": "0xf79c5",
      "l1Fee": "0x7743c5a13b",
      "l1GasPrice": "0x294725d55",
      "l1GasUsed": "0x640"
    },
    {
      "status": "0x1",
      "cumulativeGasUsed": "0x76b394",
      "logs": [
        {
          "address": "0x1fac47cf25f1ca9f20ba366099d26b28401f5715",
          "topics": [
            "0x8be0079c531659141344cd1fd0a4f28419497f9722a3daafe3b4186f6b6457e0",
            "0x000000000000000000000000ec8824e9a9498520891ec678e98c5bd3e65229c2",
            "0x000000000000000000000000129f253f78e33a0312ef8e59fae7699ef6e8dbef"
          ],
          "data": "0x",
          "blockHash": "0xe2efbcff966bfaa7018a84367b552d482cb71a8d3d0bcfb357371b3b0bb26eb2",
          "blockNumber": "0x7a6850e",
          "transactionHash": "0xd659a74329d46dfad6ae4bd20cc691c2b3985b6e7123611b8f417d44e5d2803d",
          "transactionIndex": "0x18",
          "logIndex": "0x8e",
          "removed": false
        }
      ],
      "logsBloom": "0x01002000000000000000000000000000000000000000000000800100000000000000000000000010000000000000000000000800000000000000000100000000000000000000000000000000000000000001000000000000000020000000000000000000000000000000000000000000000000000000000000000000000000400000000000000000000000000000000000000000000000000000000000000000000000000000000000000000000000000000000000000000000000000000000000000000000000000000000000000000000000004000000000000000000000000000000000000000000000000000000000000000000000000000000000000080",
      "type": "0x2",
      "transactionHash": "0xd659a74329d46dfad6ae4bd20cc691c2b3985b6e7123611b8f417d44e5d2803d",
      "transactionIndex": "0x18",
      "blockHash": "0xe2efbcff966bfaa7018a84367b552d482cb71a8d3d0bcfb357371b3b0bb26eb2",
      "blockNumber": "0x7a6850e",
      "gasUsed": "0xac36",
      "effectiveGasPrice": "0x18832",
      "from": "0xb05a948b5c1b057b88d381bde3a375efea87ebad",
      "to": "0x1fac47cf25f1ca9f20ba366099d26b28401f5715",
      "contractAddress": null,
      "l1BaseFeeScalar": "0x146b",
      "l1BlobBaseFee": "0xf6942037",
      "l1BlobBaseFeeScalar": "0xf79c5",
      "l1Fee": "0x7743c5a13b",
      "l1GasPrice": "0x294725d55",
      "l1GasUsed": "0x640"
    },
    {
      "status": "0x1",
      "cumulativeGasUsed": "0x773be9",
      "logs": [
        {
          "address": "0x0497390bb09a642500f77534167e6742c403cfe9",
          "topics": [
            "0x8be0079c531659141344cd1fd0a4f28419497f9722a3daafe3b4186f6b6457e0",
            "0x000000000000000000000000b05a948b5c1b057b88d381bde3a375efea87ebad",
            "0x000000000000000000000000129f253f78e33a0312ef8e59fae7699ef6e8dbef"
          ],
          "data": "0x",
          "blockHash": "0xe2efbcff966bfaa7018a84367b552d482cb71a8d3d0bcfb357371b3b0bb26eb2",
          "blockNumber": "0x7a6850e",
          "transactionHash": "0xa8a148a4f94abcb171546897ea0bb60b02f5c41ec56809b54968986a3d82513c",
          "transactionIndex": "0x19",
          "logIndex": "0x8f",
          "removed": false
        }
      ],
      "logsBloom": "0x00000000000000000000000000000000000000000000000000800000000000000000008000000000000000000000000000000800000000000000000180000000000000000000000000000000000000000001000000000000000000000000000000000000000000000000000000000000000000000000000000000000000000400002000000000000000000000000001000000000000000000000040000000000000000000000000000000000000000000000000000000000000000000000000000000000000000000000000000000000000000004000000000000000000080000000000000000000000000000000000000000000000000000000000000000000",
      "type": "0x2",
      "transactionHash": "0xa8a148a4f94abcb171546897ea0bb60b02f5c41ec56809b54968986a3d82513c",
      "transactionIndex": "0x19",
      "blockHash": "0xe2efbcff966bfaa7018a84367b552d482cb71a8d3d0bcfb357371b3b0bb26eb2",
      "blockNumber": "0x7a6850e",
      "gasUsed": "0x8855",
      "effectiveGasPrice": "0x18832",
      "from": "0xb05a948b5c1b057b88d381bde3a375efea87ebad",
      "to": "0x0497390bb09a642500f77534167e6742c403cfe9",
      "contractAddress": null,
      "l1BaseFeeScalar": "0x146b",
      "l1BlobBaseFee": "0xf6942037",
      "l1BlobBaseFeeScalar": "0xf79c5",
      "l1Fee": "0x7743c5a13b",
      "l1GasPrice": "0x294725d55",
      "l1GasUsed": "0x640"
    },
    {
      "status": "0x1",
      "cumulativeGasUsed": "0x77c43e",
      "logs": [
        {
          "address": "0x0d3e216236e9f7271dabf652ca43d9c9eb489734",
          "topics": [
            "0x8be0079c531659141344cd1fd0a4f28419497f9722a3daafe3b4186f6b6457e0",
            "0x000000000000000000000000b05a948b5c1b057b88d381bde3a375efea87ebad",
            "0x000000000000000000000000129f253f78e33a0312ef8e59fae7699ef6e8dbef"
          ],
          "data": "0x",
          "blockHash": "0xe2efbcff966bfaa7018a84367b552d482cb71a8d3d0bcfb357371b3b0bb26eb2",
          "blockNumber": "0x7a6850e",
          "transactionHash": "0x1a555ce1b321a0b221dc6392ef7e5d9570c867a6d44e10aa7c02b4d204406061",
          "transactionIndex": "0x1a",
          "logIndex": "0x90",
          "removed": false
        }
      ],
      "logsBloom": "0x00000000000000000000000000000000000000000000000000800000000000000000000000000000000000000000000000000800000000000000000100000000000000000010000000000000000000000001000000000000000000000000000000000000000000000000000000000000000000000000000000000000000000400002000000008000000000000000000000000000000000000000040000000000000000000000000000000000000000000000000000000000000000000000000000000000000000000000000000000000000000004000000000000000000080000000000000000000000000000000000000000000000000400000000000000000",
      "type": "0x2",
      "transactionHash": "0x1a555ce1b321a0b221dc6392ef7e5d9570c867a6d44e10aa7c02b4d204406061",
      "transactionIndex": "0x1a",
      "blockHash": "0xe2efbcff966bfaa7018a84367b552d482cb71a8d3d0bcfb357371b3b0bb26eb2",
      "blockNumber": "0x7a6850e",
      "gasUsed": "0x8855",
      "effectiveGasPrice": "0x18832",
      "from": "0xb05a948b5c1b057b88d381bde3a375efea87ebad",
      "to": "0x0d3e216236e9f7271dabf652ca43d9c9eb489734",
      "contractAddress": null,
      "l1BaseFeeScalar": "0x146b",
      "l1BlobBaseFee": "0xf6942037",
      "l1BlobBaseFeeScalar": "0xf79c5",
      "l1Fee": "0x7743c5a13b",
      "l1GasPrice": "0x294725d55",
      "l1GasUsed": "0x640"
    },
    {
      "status": "0x1",
      "cumulativeGasUsed": "0x784c93",
      "logs": [
        {
          "address": "0x10bbcd5e4cf147e67abab8a24ee31599cb022993",
          "topics": [
            "0x8be0079c531659141344cd1fd0a4f28419497f9722a3daafe3b4186f6b6457e0",
            "0x000000000000000000000000b05a948b5c1b057b88d381bde3a375efea87ebad",
            "0x000000000000000000000000129f253f78e33a0312ef8e59fae7699ef6e8dbef"
          ],
          "data": "0x",
          "blockHash": "0xe2efbcff966bfaa7018a84367b552d482cb71a8d3d0bcfb357371b3b0bb26eb2",
          "blockNumber": "0x7a6850e",
          "transactionHash": "0x4755fb43db1d414eec329d06979f261d2e8f4294848d6876255a3a6cb28e87db",
          "transactionIndex": "0x1b",
          "logIndex": "0x91",
          "removed": false
        }
      ],
      "logsBloom": "0x00000000000000000000000000000001000000000000000000800000000000000000000000000000000000000000000000000800000000000000000100000000000000000000004000000000000000000001000000000000000000000000000000000000000000000000000000000000000000000000000000000000000000400002000000040000000000000000000000000000000000000000040000000000000000000000000000000000000000000000000000000000000000000000000000000000000000000000000000000000000000004000000000000000000080000000000000000000000000000000000000000000000000000000000000000000",
      "type": "0x2",
      "transactionHash": "0x4755fb43db1d414eec329d06979f261d2e8f4294848d6876255a3a6cb28e87db",
      "transactionIndex": "0x1b",
      "blockHash": "0xe2efbcff966bfaa7018a84367b552d482cb71a8d3d0bcfb357371b3b0bb26eb2",
      "blockNumber": "0x7a6850e",
      "gasUsed": "0x8855",
      "effectiveGasPrice": "0x18832",
      "from": "0xb05a948b5c1b057b88d381bde3a375efea87ebad",
      "to": "0x10bbcd5e4cf147e67abab8a24ee31599cb022993",
      "contractAddress": null,
      "l1BaseFeeScalar": "0x146b",
      "l1BlobBaseFee": "0xf6942037",
      "l1BlobBaseFeeScalar": "0xf79c5",
      "l1Fee": "0x7743c5a13b",
      "l1GasPrice": "0x294725d55",
      "l1GasUsed": "0x640"
    },
    {
      "status": "0x1",
      "cumulativeGasUsed": "0x78d4e8",
      "logs": [
        {
          "address": "0x1ef94b88720b6aa0649e43a96f3be16588e3e5f4",
          "topics": [
            "0x8be0079c531659141344cd1fd0a4f28419497f9722a3daafe3b4186f6b6457e0",
            "0x000000000000000000000000b05a948b5c1b057b88d381bde3a375efea87ebad",
            "0x000000000000000000000000129f253f78e33a0312ef8e59fae7699ef6e8dbef"
          ],
          "data": "0x",
          "blockHash": "0xe2efbcff966bfaa7018a84367b552d482cb71a8d3d0bcfb357371b3b0bb26eb2",
          "blockNumber": "0x7a6850e",
          "transactionHash": "0x11ed41a04040311d9c349b7dc010e0a525781aa92059e72bab2ceb7c0eb6856e",
          "transactionIndex": "0x1c",
          "logIndex": "0x92",
          "removed": false
        }
      ],
      "logsBloom": "0x00000000000000000000000000000000020000000000000000800000000000000000000000000000000000000000000000000800000400000000000100000000000000000000000000000000000000000001000000000000000000000000000000000000000000000000000000000000000000000000000000000000000000400002000000000000000000000000000000000000000000000000040000000000000000000000000000000000000200000000000000000000000000000000000000000000000000000000000000000000000000004000000000000000000080000000000000000000000000000000000000000000000000000000000000000000",
      "type": "0x2",
      "transactionHash": "0x11ed41a04040311d9c349b7dc010e0a525781aa92059e72bab2ceb7c0eb6856e",
      "transactionIndex": "0x1c",
      "blockHash": "0xe2efbcff966bfaa7018a84367b552d482cb71a8d3d0bcfb357371b3b0bb26eb2",
      "blockNumber": "0x7a6850e",
      "gasUsed": "0x8855",
      "effectiveGasPrice": "0x18832",
      "from": "0xb05a948b5c1b057b88d381bde3a375efea87ebad",
      "to": "0x1ef94b88720b6aa0649e43a96f3be16588e3e5f4",
      "contractAddress": null,
      "l1BaseFeeScalar": "0x146b",
      "l1BlobBaseFee": "0xf6942037",
      "l1BlobBaseFeeScalar": "0xf79c5",
      "l1Fee": "0x7743c5a13b",
      "l1GasPrice": "0x294725d55",
      "l1GasUsed": "0x640"
    },
    {
      "status": "0x1",
      "cumulativeGasUsed": "0x795d3d",
      "logs": [
        {
          "address": "0x2088bbe7e70acfaf643e834c96aa4c277be6653e",
          "topics": [
            "0x8be0079c531659141344cd1fd0a4f28419497f9722a3daafe3b4186f6b6457e0",
            "0x000000000000000000000000b05a948b5c1b057b88d381bde3a375efea87ebad",
            "0x000000000000000000000000129f253f78e33a0312ef8e59fae7699ef6e8dbef"
          ],
          "data": "0x",
          "blockHash": "0xe2efbcff966bfaa7018a84367b552d482cb71a8d3d0bcfb357371b3b0bb26eb2",
          "blockNumber": "0x7a6850e",
          "transactionHash": "0xf57096505a59b6f6b82874202b0360546f2a4e4c00a92c008b0858918d9774ca",
          "transactionIndex": "0x1d",
          "logIndex": "0x93",
          "removed": false
        }
      ],
      "logsBloom": "0x00000000000000000000000800000000000000000000000000800000000000000000000000000000000000000000000000000800000000000000000100000000000000000000000000000000000000000001000000000000000000000000000000000000000000000000000000000020000000000000000000000000000000400002000000000000000000000000000000000000000000000000040000000000000000000000000000000000000000000000000000000000000000000000000000000000000000000000000000000000000000004000000000000000000080000002000000000000000000000000000000000000000000000000000000000000",
      "type": "0x2",
      "transactionHash": "0xf57096505a59b6f6b82874202b0360546f2a4e4c00a92c008b0858918d9774ca",
      "transactionIndex": "0x1d",
      "blockHash": "0xe2efbcff966bfaa7018a84367b552d482cb71a8d3d0bcfb357371b3b0bb26eb2",
      "blockNumber": "0x7a6850e",
      "gasUsed": "0x8855",
      "effectiveGasPrice": "0x18832",
      "from": "0xb05a948b5c1b057b88d381bde3a375efea87ebad",
      "to": "0x2088bbe7e70acfaf643e834c96aa4c277be6653e",
      "contractAddress": null,
      "l1BaseFeeScalar": "0x146b",
      "l1BlobBaseFee": "0xf6942037",
      "l1BlobBaseFeeScalar": "0xf79c5",
      "l1Fee": "0x7743c5a13b",
      "l1GasPrice": "0x294725d55",
      "l1GasUsed": "0x640"
    },
    {
      "status": "0x1",
      "cumulativeGasUsed": "0x79e592",
      "logs": [
        {
          "address": "0x2171ec78778dda68a993704b607f23e6e4f17783",
          "topics": [
            "0x8be0079c531659141344cd1fd0a4f28419497f9722a3daafe3b4186f6b6457e0",
            "0x000000000000000000000000b05a948b5c1b057b88d381bde3a375efea87ebad",
            "0x000000000000000000000000129f253f78e33a0312ef8e59fae7699ef6e8dbef"
          ],
          "data": "0x",
          "blockHash": "0xe2efbcff966bfaa7018a84367b552d482cb71a8d3d0bcfb357371b3b0bb26eb2",
          "blockNumber": "0x7a6850e",
          "transactionHash": "0xc816746d16d321c217409c5f88da8fcb246b6a58ba70ab16fdfa2beae9dbd7e9",
          "transactionIndex": "0x1e",
          "logIndex": "0x94",
          "removed": false
        }
      ],
      "logsBloom": "0x00000000000000000000000000000000000000000000000000800000000000000000000000000000000000000000400000000800000000000000000100000010000000040000000000000000000000000001000000000000000000000000000000000000000000000000000000000000000000000000000000000000000000400002000000000000000000000000000000000000000000000000040000000000000000000000000000000000000000000000000000000000000000000000000000000000000000000000000000000000000000004000000000000000000080000000000000000000000000000000000000000000000000000000000000000000",
      "type": "0x2",
      "transactionHash": "0xc816746d16d321c217409c5f88da8fcb246b6a58ba70ab16fdfa2beae9dbd7e9",
      "transactionIndex": "0x1e",
      "blockHash": "0xe2efbcff966bfaa7018a84367b552d482cb71a8d3d0bcfb357371b3b0bb26eb2",
      "blockNumber": "0x7a6850e",
      "gasUsed": "0x8855",
      "effectiveGasPrice": "0x18832",
      "from": "0xb05a948b5c1b057b88d381bde3a375efea87ebad",
      "to": "0x2171ec78778dda68a993704b607f23e6e4f17783",
      "contractAddress": null,
      "l1BaseFeeScalar": "0x146b",
      "l1BlobBaseFee": "0xf6942037",
      "l1BlobBaseFeeScalar": "0xf79c5",
      "l1Fee": "0x7743c5a13b",
      "l1GasPrice": "0x294725d55",
      "l1GasUsed": "0x640"
    },
    {
      "status": "0x1",
      "cumulativeGasUsed": "0x7a6de7",
      "logs": [
        {
          "address": "0x3da181b922a890ec30c41ebe764c49f28f890e77",
          "topics": [
            "0x8be0079c531659141344cd1fd0a4f28419497f9722a3daafe3b4186f6b6457e0",
            "0x000000000000000000000000b05a948b5c1b057b88d381bde3a375efea87ebad",
            "0x000000000000000000000000129f253f78e33a0312ef8e59fae7699ef6e8dbef"
          ],
          "data": "0x",
          "blockHash": "0xe2efbcff966bfaa7018a84367b552d482cb71a8d3d0bcfb357371b3b0bb26eb2",
          "blockNumber": "0x7a6850e",
          "transactionHash": "0xc6ad4e9595e7fb69fb65956f3e29e97340814e2081b89705b061d0d96d20b012",
          "transactionIndex": "0x1f",
          "logIndex": "0x95",
          "removed": false
        }
      ],
      "logsBloom": "0x00000000000000000000000000000000000000000000000000800000000000000000000000000000000000000000000000000800000000000000000100000000000000000000000000000000000000000001000000000010000000000000000000000000000000000000000000004000000000000000000000000000000000400002000000000000000000000000000000000000000000000000040000000000000000000000000000000000000000000000000000000000000000000000000000000000000000000000000000000000000000004000000000000000000080004000000000000000000000000000000000000000000000000000000000000000",
      "type": "0x2",
      "transactionHash": "0xc6ad4e9595e7fb69fb65956f3e29e97340814e2081b89705b061d0d96d20b012",
      "transactionIndex": "0x1f",
      "blockHash": "0xe2efbcff966bfaa7018a84367b552d482cb71a8d3d0bcfb357371b3b0bb26eb2",
      "blockNumber": "0x7a6850e",
      "gasUsed": "0x8855",
      "effectiveGasPrice": "0x18832",
      "from": "0xb05a948b5c1b057b88d381bde3a375efea87ebad",
      "to": "0x3da181b922a890ec30c41ebe764c49f28f890e77",
      "contractAddress": null,
      "l1BaseFeeScalar": "0x146b",
      "l1BlobBaseFee": "0xf6942037",
      "l1BlobBaseFeeScalar": "0xf79c5",
      "l1Fee": "0x7743c5a13b",
      "l1GasPrice": "0x294725d55",
      "l1GasUsed": "0x640"
    },
    {
      "status": "0x1",
      "cumulativeGasUsed": "0x7af63c",
      "logs": [
        {
          "address": "0x4e8b0da13f858b0c101a28b7a92e42ae28ace5a4",
          "topics": [
            "0x8be0079c531659141344cd1fd0a4f28419497f9722a3daafe3b4186f6b6457e0",
            "0x000000000000000000000000b05a948b5c1b057b88d381bde3a375efea87ebad",
            "0x000000000000000000000000129f253f78e33a0312ef8e59fae7699ef6e8dbef"
          ],
          "data": "0x",
          "blockHash": "0xe2efbcff966bfaa7018a84367b552d482cb71a8d3d0bcfb357371b3b0bb26eb2",
          "blockNumber": "0x7a6850e",
          "transactionHash": "0xd68d4bb090bd02c8b89ca6e3e93a6bc54cb6e5135232ca80e3966c75516edea4",
          "transactionIndex": "0x20",
          "logIndex": "0x96",
          "removed": false
        }
      ],
      "logsBloom": "0x00000000000000000000000000000000000000000000000000800000000000000000000000000000000000000000000000004800000000000000000100000000000000000000000000000000000000000001000000000000000000000000000000000000000000000000000000000000000000000000000000000000000000400012000000000000000000000000000000000000000000000000040000010000000000000000000000000000000000000000000000000000000000000000000000000000000000000000000000000000000000004000000000000000000080000000000000000000000000000000000000000000000000000000000000000000",
      "type": "0x2",
      "transactionHash": "0xd68d4bb090bd02c8b89ca6e3e93a6bc54cb6e5135232ca80e3966c75516edea4",
      "transactionIndex": "0x20",
      "blockHash": "0xe2efbcff966bfaa7018a84367b552d482cb71a8d3d0bcfb357371b3b0bb26eb2",
      "blockNumber": "0x7a6850e",
      "gasUsed": "0x8855",
      "effectiveGasPrice": "0x18832",
      "from": "0xb05a948b5c1b057b88d381bde3a375efea87ebad",
      "to": "0x4e8b0da13f858b0c101a28b7a92e42ae28ace5a4",
      "contractAddress": null,
      "l1BaseFeeScalar": "0x146b",
      "l1BlobBaseFee": "0xf6942037",
      "l1BlobBaseFeeScalar": "0xf79c5",
      "l1Fee": "0x7743c5a13b",
      "l1GasPrice": "0x294725d55",
      "l1GasUsed": "0x640"
    },
    {
      "status": "0x1",
      "cumulativeGasUsed": "0x7b7e91",
      "logs": [
        {
          "address": "0x5326f5264f547db8d3d6f39543f3767884dad3e5",
          "topics": [
            "0x8be0079c531659141344cd1fd0a4f28419497f9722a3daafe3b4186f6b6457e0",
            "0x000000000000000000000000b05a948b5c1b057b88d381bde3a375efea87ebad",
            "0x000000000000000000000000129f253f78e33a0312ef8e59fae7699ef6e8dbef"
          ],
          "data": "0x",
          "blockHash": "0xe2efbcff966bfaa7018a84367b552d482cb71a8d3d0bcfb357371b3b0bb26eb2",
          "blockNumber": "0x7a6850e",
          "transactionHash": "0x56cd402980d8d5c98598b1e824c4b7113dcd2c702358d38290398974efc67aec",
          "transactionIndex": "0x21",
          "logIndex": "0x97",
          "removed": false
        }
      ],
      "logsBloom": "0x00000000000000000000000000000000000000000000000000800000000000000000000000000000000001000000000000000800000000000000000100000000000000000000000000001000000000000001000000000000000000000000000000000000000000000000000000000000000000000000000000000000000000400002000000000000000000000000000000000000000000000000040000000000000000000000000000000000000000000000000000000000000000000000000000000000000000000000000000000000000000004000000000000000004080000000000000000000000000000000000000000000000000000000000000000000",
      "type": "0x2",
      "transactionHash": "0x56cd402980d8d5c98598b1e824c4b7113dcd2c702358d38290398974efc67aec",
      "transactionIndex": "0x21",
      "blockHash": "0xe2efbcff966bfaa7018a84367b552d482cb71a8d3d0bcfb357371b3b0bb26eb2",
      "blockNumber": "0x7a6850e",
      "gasUsed": "0x8855",
      "effectiveGasPrice": "0x18832",
      "from": "0xb05a948b5c1b057b88d381bde3a375efea87ebad",
      "to": "0x5326f5264f547db8d3d6f39543f3767884dad3e5",
      "contractAddress": null,
      "l1BaseFeeScalar": "0x146b",
      "l1BlobBaseFee": "0xf6942037",
      "l1BlobBaseFeeScalar": "0xf79c5",
      "l1Fee": "0x7743c5a13b",
      "l1GasPrice": "0x294725d55",
      "l1GasUsed": "0x640"
    },
    {
      "status": "0x1",
      "cumulativeGasUsed": "0x7c06e6",
      "logs": [
        {
          "address": "0x576cb81030cc47ccb7aef97e9e88d2648edb45db",
          "topics": [
            "0x8be0079c531659141344cd1fd0a4f28419497f9722a3daafe3b4186f6b6457e0",
            "0x000000000000000000000000b05a948b5c1b057b88d381bde3a375efea87ebad",
            "0x000000000000000000000000129f253f78e33a0312ef8e59fae7699ef6e8dbef"
          ],
          "data": "0x",
          "blockHash": "0xe2efbcff966bfaa7018a84367b552d482cb71a8d3d0bcfb357371b3b0bb26eb2",
          "blockNumber": "0x7a6850e",
          "transactionHash": "0x25ef2909fc66b65b59d988720b90cbe415f578c9852b6efbf13121c6af77beb7",
          "transactionIndex": "0x22",
          "logIndex": "0x98",
          "removed": false
        }
      ],
      "logsBloom": "0x00000000000000000000000000000000000000000000000000800000000000000000000000000000000000000000000000000800000000000000000100000000000000000000000000000000000000000001000000000000000000000000000000000000000000000000000000000000000000000000000000000000000000400002000000000000000000000000000000040000000000000000040000000000000000000000000000000000000000000000000000000000000000000000000000000000000000000000000000000010000000004000000000000000000080080000000000000000000000000000000000000000000000000000000000000000",
      "type": "0x2",
      "transactionHash": "0x25ef2909fc66b65b59d988720b90cbe415f578c9852b6efbf13121c6af77beb7",
      "transactionIndex": "0x22",
      "blockHash": "0xe2efbcff966bfaa7018a84367b552d482cb71a8d3d0bcfb357371b3b0bb26eb2",
      "blockNumber": "0x7a6850e",
      "gasUsed": "0x8855",
      "effectiveGasPrice": "0x18832",
      "from": "0xb05a948b5c1b057b88d381bde3a375efea87ebad",
      "to": "0x576cb81030cc47ccb7aef97e9e88d2648edb45db",
      "contractAddress": null,
      "l1BaseFeeScalar": "0x146b",
      "l1BlobBaseFee": "0xf6942037",
      "l1BlobBaseFeeScalar": "0xf79c5",
      "l1Fee": "0x7743c5a13b",
      "l1GasPrice": "0x294725d55",
      "l1GasUsed": "0x640"
    },
    {
      "status": "0x1",
      "cumulativeGasUsed": "0x7c8f3b",
      "logs": [
        {
          "address": "0x6185357e28d2feb72a7606a3b66811f88279dd3d",
          "topics": [
            "0x8be0079c531659141344cd1fd0a4f28419497f9722a3daafe3b4186f6b6457e0",
            "0x000000000000000000000000b05a948b5c1b057b88d381bde3a375efea87ebad",
            "0x000000000000000000000000129f253f78e33a0312ef8e59fae7699ef6e8dbef"
          ],
          "data": "0x",
          "blockHash": "0xe2efbcff966bfaa7018a84367b552d482cb71a8d3d0bcfb357371b3b0bb26eb2",
          "blockNumber": "0x7a6850e",
          "transactionHash": "0xf6f5757ffd5cd8782a53b6a53a6a81e0858da320330af4d96cb175798d98e7fe",
          "transactionIndex": "0x23",
          "logIndex": "0x99",
          "removed": false
        }
      ],
      "logsBloom": "0x00000000000000000000000000000000000000000000000000800000000000000000000000000000000000000000000000000800000000000000000100000000000000000000000000000000000000000001000000000000000000000000000000000000000000000000000000000000000000000000000000000000000000400002000008000000000000000000000000000000000000000000040000000000000000000000000000000000000000000004000000000000000200000000000000000000000000000000000000000000000000004000000000000000000080000000000000000000000000000000000000000000000000000000000000000000",
      "type": "0x2",
      "transactionHash": "0xf6f5757ffd5cd8782a53b6a53a6a81e0858da320330af4d96cb175798d98e7fe",
      "transactionIndex": "0x23",
      "blockHash": "0xe2efbcff966bfaa7018a84367b552d482cb71a8d3d0bcfb357371b3b0bb26eb2",
      "blockNumber": "0x7a6850e",
      "gasUsed": "0x8855",
      "effectiveGasPrice": "0x18832",
      "from": "0xb05a948b5c1b057b88d381bde3a375efea87ebad",
      "to": "0x6185357e28d2feb72a7606a3b66811f88279dd3d",
      "contractAddress": null,
      "l1BaseFeeScalar": "0x146b",
      "l1BlobBaseFee": "0xf6942037",
      "l1BlobBaseFeeScalar": "0xf79c5",
      "l1Fee": "0x7743c5a13b",
      "l1GasPrice": "0x294725d55",
      "l1GasUsed": "0x640"
    },
    {
      "status": "0x1",
      "cumulativeGasUsed": "0x7d1790",
      "logs": [
        {
          "address": "0x6cc78ed3a4d8aa94410a60f702235c85d584730f",
          "topics": [
            "0x8be0079c531659141344cd1fd0a4f28419497f9722a3daafe3b4186f6b6457e0",
            "0x000000000000000000000000b05a948b5c1b057b88d381bde3a375efea87ebad",
            "0x000000000000000000000000129f253f78e33a0312ef8e59fae7699ef6e8dbef"
          ],
          "data": "0x",
          "blockHash": "0xe2efbcff966bfaa7018a84367b552d482cb71a8d3d0bcfb357371b3b0bb26eb2",
          "blockNumber": "0x7a6850e",
          "transactionHash": "0x29b1a03f2ed1f202bc9f864a8c01bcffe57341193df001713c80e969f705c91b",
          "transactionIndex": "0x24",
          "logIndex": "0x9a",
          "removed": false
        }
      ],
      "logsBloom": "0x00000000000000000000000000000000000000000000000000800000000000000000000000000000000000000000000000000c00000000000000000100000000000000000000000000000000000000000001000000000000000000000000000000000000000000000000000000000000000000000000000000400000000000400002000000000000000000000000000000000000000000000000040000000000000000000000000000000000000000000000000000000000000000000000000000000000000000000000000000000000000000004000000000000000000080000000000000000000000000000000000000000000000000000000800000000000",
      "type": "0x2",
      "transactionHash": "0x29b1a03f2ed1f202bc9f864a8c01bcffe57341193df001713c80e969f705c91b",
      "transactionIndex": "0x24",
      "blockHash": "0xe2efbcff966bfaa7018a84367b552d482cb71a8d3d0bcfb357371b3b0bb26eb2",
      "blockNumber": "0x7a6850e",
      "gasUsed": "0x8855",
      "effectiveGasPrice": "0x18832",
      "from": "0xb05a948b5c1b057b88d381bde3a375efea87ebad",
      "to": "0x6cc78ed3a4d8aa94410a60f702235c85d584730f",
      "contractAddress": null,
      "l1BaseFeeScalar": "0x146b",
      "l1BlobBaseFee": "0xf6942037",
      "l1BlobBaseFeeScalar": "0xf79c5",
      "l1Fee": "0x7743c5a13b",
      "l1GasPrice": "0x294725d55",
      "l1GasUsed": "0x640"
    },
    {
      "status": "0x1",
      "cumulativeGasUsed": "0x7d9fe5",
      "logs": [
        {
          "address": "0x71566372033aafbd1a62430171ad698768d98dcc",
          "topics": [
            "0x8be0079c531659141344cd1fd0a4f28419497f9722a3daafe3b4186f6b6457e0",
            "0x000000000000000000000000b05a948b5c1b057b88d381bde3a375efea87ebad",
            "0x000000000000000000000000129f253f78e33a0312ef8e59fae7699ef6e8dbef"
          ],
          "data": "0x",
          "blockHash": "0xe2efbcff966bfaa7018a84367b552d482cb71a8d3d0bcfb357371b3b0bb26eb2",
          "blockNumber": "0x7a6850e",
          "transactionHash": "0x8339664702d15506ccfb68e43d1ade7c984d7b9c7d3bb5670fa41581b2c04feb",
          "transactionIndex": "0x25",
          "logIndex": "0x9b",
          "removed": false
        }
      ],
      "logsBloom": "0x00000000000000000000000000000000000000000000000000800000000000000000000000000000000000000000000000000800000000000000000100000000000000000000000000000000000000000001000000000000000000000000000000000000000000000000000000000000000000000000000000000100000000400002000000000000080000000000000000000000000000000000040000000000000000000000000000000000000000000000000000000000000000000000000000000000080000000000000000000000000000004000000000000000000080000000000000000000000000000000000000000000000000000000000000000000",
      "type": "0x2",
      "transactionHash": "0x8339664702d15506ccfb68e43d1ade7c984d7b9c7d3bb5670fa41581b2c04feb",
      "transactionIndex": "0x25",
      "blockHash": "0xe2efbcff966bfaa7018a84367b552d482cb71a8d3d0bcfb357371b3b0bb26eb2",
      "blockNumber": "0x7a6850e",
      "gasUsed": "0x8855",
      "effectiveGasPrice": "0x18832",
      "from": "0xb05a948b5c1b057b88d381bde3a375efea87ebad",
      "to": "0x71566372033aafbd1a62430171ad698768d98dcc",
      "contractAddress": null,
      "l1BaseFeeScalar": "0x146b",
      "l1BlobBaseFee": "0xf6942037",
      "l1BlobBaseFeeScalar": "0xf79c5",
      "l1Fee": "0x7743c5a13b",
      "l1GasPrice": "0x294725d55",
      "l1GasUsed": "0x640"
    },
    {
      "status": "0x1",
      "cumulativeGasUsed": "0x7e283a",
      "logs": [
        {
          "address": "0x87665484460f587a145eca5ce1e769da9ab8abf9",
          "topics": [
            "0x8be0079c531659141344cd1fd0a4f28419497f9722a3daafe3b4186f6b6457e0",
            "0x000000000000000000000000b05a948b5c1b057b88d381bde3a375efea87ebad",
            "0x000000000000000000000000129f253f78e33a0312ef8e59fae7699ef6e8dbef"
          ],
          "data": "0x",
          "blockHash": "0xe2efbcff966bfaa7018a84367b552d482cb71a8d3d0bcfb357371b3b0bb26eb2",
          "blockNumber": "0x7a6850e",
          "transactionHash": "0xf759a2acd6e5a5875007278da014b20b07320d4a65542da6961f7cea45079b78",
          "transactionIndex": "0x26",
          "logIndex": "0x9c",
          "removed": false
        }
      ],
      "logsBloom": "0x00000020000000000000000010000000000000000000000000800000000000000000000000000000000000000000000000000800000000000000000100000000000000000000000000000000000000000001000000000000000000000000000000000000000000000000000004000000000000000000000000000000000000400002000000000000000000000000000000000000000000000000040000000000000000000000000000000000000000000000000000000000000000000000000000000000000000000000000000000000000000004000000000000000000080000000000000000000000000000000000000000000000000000000000000000000",
      "type": "0x2",
      "transactionHash": "0xf759a2acd6e5a5875007278da014b20b07320d4a65542da6961f7cea45079b78",
      "transactionIndex": "0x26",
      "blockHash": "0xe2efbcff966bfaa7018a84367b552d482cb71a8d3d0bcfb357371b3b0bb26eb2",
      "blockNumber": "0x7a6850e",
      "gasUsed": "0x8855",
      "effectiveGasPrice": "0x18832",
      "from": "0xb05a948b5c1b057b88d381bde3a375efea87ebad",
      "to": "0x87665484460f587a145eca5ce1e769da9ab8abf9",
      "contractAddress": null,
      "l1BaseFeeScalar": "0x146b",
      "l1BlobBaseFee": "0xf6942037",
      "l1BlobBaseFeeScalar": "0xf79c5",
      "l1Fee": "0x7743c5a13b",
      "l1GasPrice": "0x294725d55",
      "l1GasUsed": "0x640"
    },
    {
      "status": "0x1",
      "cumulativeGasUsed": "0x7eb08f",
      "logs": [
        {
          "address": "0x888e2fbc7e7afe3a8f9b54030d0cb0eed896f955",
          "topics": [
            "0x8be0079c531659141344cd1fd0a4f28419497f9722a3daafe3b4186f6b6457e0",
            "0x000000000000000000000000b05a948b5c1b057b88d381bde3a375efea87ebad",
            "0x000000000000000000000000129f253f78e33a0312ef8e59fae7699ef6e8dbef"
          ],
          "data": "0x",
          "blockHash": "0xe2efbcff966bfaa7018a84367b552d482cb71a8d3d0bcfb357371b3b0bb26eb2",
          "blockNumber": "0x7a6850e",
          "transactionHash": "0x059c0c438a1a09ad5e9b55b3ea7815bc1451df681dd6f5397502c3261b20459b",
          "transactionIndex": "0x27",
          "logIndex": "0x9d",
          "removed": false
        }
      ],
      "logsBloom": "0x00000000000000000000000000000000000000000000000000800000000000100000000000000000000000000000000000000800000000000000000100000000000000000000000000000000000000000001000000000000000000000000000000000000000000000000000000000000000000000000000000000000000000400002000000000000000000000000000000000000000000000000040000000000000000000000080000000000000000000000000000000000000000000000000000000000000000000000000000000000000000004000000000000000000080000000000000080000000000000000000000000000000000000000000000000000",
      "type": "0x2",
      "transactionHash": "0x059c0c438a1a09ad5e9b55b3ea7815bc1451df681dd6f5397502c3261b20459b",
      "transactionIndex": "0x27",
      "blockHash": "0xe2efbcff966bfaa7018a84367b552d482cb71a8d3d0bcfb357371b3b0bb26eb2",
      "blockNumber": "0x7a6850e",
      "gasUsed": "0x8855",
      "effectiveGasPrice": "0x18832",
      "from": "0xb05a948b5c1b057b88d381bde3a375efea87ebad",
      "to": "0x888e2fbc7e7afe3a8f9b54030d0cb0eed896f955",
      "contractAddress": null,
      "l1BaseFeeScalar": "0x146b",
      "l1BlobBaseFee": "0xf6942037",
      "l1BlobBaseFeeScalar": "0xf79c5",
      "l1Fee": "0x7743c5a13b",
      "l1GasPrice": "0x294725d55",
      "l1GasUsed": "0x640"
    },
    {
      "status": "0x1",
      "cumulativeGasUsed": "0x405817",
      "logs": [
        {
          "address": "0x9175dc03307d8f91bc757334959906731f2b60ef",
          "topics": [
            "0x8be0079c531659141344cd1fd0a4f28419497f9722a3daafe3b4186f6b6457e0",
            "0x000000000000000000000000b05a948b5c1b057b88d381bde3a375efea87ebad",
            "0x000000000000000000000000129f253f78e33a0312ef8e59fae7699ef6e8dbef"
          ],
          "data": "0x",
          "blockHash": "0x6b894e06fe89cb062ae6a3ff3ca0875376e9c62d49cc58a0860c20ba03091d76",
          "blockNumber": "0x7a6850f",
          "transactionHash": "0xaf9d9f25da206c7a2cf0fd880f9b24e4546c72874101b948e5a15edbe45741fc",
          "transactionIndex": "0x14",
          "logIndex": "0x3d",
          "removed": false
        }
      ],
      "logsBloom": "0x00000000000000000000000000000000000000000000000000800000000000000000000000000000000000000000000000000800000000000000000100000000000000000000000000000000000000001001000000000000000000000000000000000000000000000000000000000000000000000000000000000000000000400002000000000000000000000000000000000000000000000000040000000000000000000000000000000000000000000800000000000000000000000000000000000000000000000000000000000000000000004000000000000000000080000000000000000000000000000000000200000000000000000000000000000000",
      "type": "0x2",
      "transactionHash": "0xaf9d9f25da206c7a2cf0fd880f9b24e4546c72874101b948e5a15edbe45741fc",
      "transactionIndex": "0x14",
      "blockHash": "0x6b894e06fe89cb062ae6a3ff3ca0875376e9c62d49cc58a0860c20ba03091d76",
      "blockNumber": "0x7a6850f",
      "gasUsed": "0x8855",
      "effectiveGasPrice": "0x18833",
      "from": "0xb05a948b5c1b057b88d381bde3a375efea87ebad",
      "to": "0x9175dc03307d8f91bc757334959906731f2b60ef",
      "contractAddress": null,
      "l1BaseFeeScalar": "0x146b",
      "l1BlobBaseFee": "0xf6942037",
      "l1BlobBaseFeeScalar": "0xf79c5",
      "l1Fee": "0x7743c5a13b",
      "l1GasPrice": "0x294725d55",
      "l1GasUsed": "0x640"
    },
    {
      "status": "0x1",
      "cumulativeGasUsed": "0x40e06c",
      "logs": [
        {
          "address": "0xa8cb166fd9e10103a6dbabefcf942d7b8026f735",
          "topics": [
            "0x8be0079c531659141344cd1fd0a4f28419497f9722a3daafe3b4186f6b6457e0",
            "0x000000000000000000000000b05a948b5c1b057b88d381bde3a375efea87ebad",
            "0x000000000000000000000000129f253f78e33a0312ef8e59fae7699ef6e8dbef"
          ],
          "data": "0x",
          "blockHash": "0x6b894e06fe89cb062ae6a3ff3ca0875376e9c62d49cc58a0860c20ba03091d76",
          "blockNumber": "0x7a6850f",
          "transactionHash": "0x10b3738bad599331a53f8f7460cd2d26ade930e92f3f4361101aed1f28c83468",
          "transactionIndex": "0x15",
          "logIndex": "0x3e",
          "removed": false
        }
      ],
      "logsBloom": "0x00000000000000000000000000000000000000000000000000800000000000000000000000000000000000000000000000008800000000000000000100000800000000000000000000000000000000000001000000000000000000000000000000000000000000000000000000000000000000000000000000000000000000c00002000000000000000000000000000000000000000000000000040000000000000000000000000000000000000000000000000000000000000000000000000000000000000000000000000000000000000000004000000000000000000080000000000000000000000000000000000000000000000000000000000000000000",
      "type": "0x2",
      "transactionHash": "0x10b3738bad599331a53f8f7460cd2d26ade930e92f3f4361101aed1f28c83468",
      "transactionIndex": "0x15",
      "blockHash": "0x6b894e06fe89cb062ae6a3ff3ca0875376e9c62d49cc58a0860c20ba03091d76",
      "blockNumber": "0x7a6850f",
      "gasUsed": "0x8855",
      "effectiveGasPrice": "0x18833",
      "from": "0xb05a948b5c1b057b88d381bde3a375efea87ebad",
      "to": "0xa8cb166fd9e10103a6dbabefcf942d7b8026f735",
      "contractAddress": null,
      "l1BaseFeeScalar": "0x146b",
      "l1BlobBaseFee": "0xf6942037",
      "l1BlobBaseFeeScalar": "0xf79c5",
      "l1Fee": "0x7743c5a13b",
      "l1GasPrice": "0x294725d55",
      "l1GasUsed": "0x640"
    },
    {
      "status": "0x1",
      "cumulativeGasUsed": "0x4168c1",
      "logs": [
        {
          "address": "0xaecc747c84205e21832fc924fe61ca12b313a8e6",
          "topics": [
            "0x8be0079c531659141344cd1fd0a4f28419497f9722a3daafe3b4186f6b6457e0",
            "0x000000000000000000000000b05a948b5c1b057b88d381bde3a375efea87ebad",
            "0x000000000000000000000000129f253f78e33a0312ef8e59fae7699ef6e8dbef"
          ],
          "data": "0x",
          "blockHash": "0x6b894e06fe89cb062ae6a3ff3ca0875376e9c62d49cc58a0860c20ba03091d76",
          "blockNumber": "0x7a6850f",
          "transactionHash": "0x558e1b6bec4897e23c067d49463e9b916019776c07410ce9da4845e0dbfa3b30",
          "transactionIndex": "0x16",
          "logIndex": "0x3f",
          "removed": false
        }
      ],
      "logsBloom": "0x00000000000000000000000000000000000000000000000000800000000000000000000000000000000000000000000000000800000000000000000100000000000000000000000000100000000000000001000000000000000000000000000000000000000000000000000000000000000000000000000000000000000000400002001000000000000000000000000000000000000000000000040000000000000000000000000000000000000000000000000000000000000000000000000000000000000000000000000000000000000000004000000000000000000080000000000000000000000000040000000000000000000000000000000000000000",
      "type": "0x2",
      "transactionHash": "0x558e1b6bec4897e23c067d49463e9b916019776c07410ce9da4845e0dbfa3b30",
      "transactionIndex": "0x16",
      "blockHash": "0x6b894e06fe89cb062ae6a3ff3ca0875376e9c62d49cc58a0860c20ba03091d76",
      "blockNumber": "0x7a6850f",
      "gasUsed": "0x8855",
      "effectiveGasPrice": "0x18833",
      "from": "0xb05a948b5c1b057b88d381bde3a375efea87ebad",
      "to": "0xaecc747c84205e21832fc924fe61ca12b313a8e6",
      "contractAddress": null,
      "l1BaseFeeScalar": "0x146b",
      "l1BlobBaseFee": "0xf6942037",
      "l1BlobBaseFeeScalar": "0xf79c5",
      "l1Fee": "0x7743c5a13b",
      "l1GasPrice": "0x294725d55",
      "l1GasUsed": "0x640"
    },
    {
      "status": "0x1",
      "cumulativeGasUsed": "0x41f116",
      "logs": [
        {
          "address": "0xbbb2313aeb8b1ff309790e20e61280aecd548db4",
          "topics": [
            "0x8be0079c531659141344cd1fd0a4f28419497f9722a3daafe3b4186f6b6457e0",
            "0x000000000000000000000000b05a948b5c1b057b88d381bde3a375efea87ebad",
            "0x000000000000000000000000129f253f78e33a0312ef8e59fae7699ef6e8dbef"
          ],
          "data": "0x",
          "blockHash": "0x6b894e06fe89cb062ae6a3ff3ca0875376e9c62d49cc58a0860c20ba03091d76",
          "blockNumber": "0x7a6850f",
          "transactionHash": "0x5d884d3dab7d261c447abb46016f5dfff8d7c6902167de5cc1aa495327acd0b9",
          "transactionIndex": "0x17",
          "logIndex": "0x40",
          "removed": false
        }
      ],
      "logsBloom": "0x00000000000000000000000000000000000000000000000000800000000000000000000000000000000000000000000000000800000000000000000100000000000000000000000000002000000000000001000000000000000000000000000000000000000000000000000000000000000000000000000000000000000000400002000000000000000000000000000000000000000000000000040000000000000000000000000000000000000000000000000000000000000000000000000020000000000000000000000008000000000000004000000000000000000080000000000000000000000000000000000000000000000000000000000000000000",
      "type": "0x2",
      "transactionHash": "0x5d884d3dab7d261c447abb46016f5dfff8d7c6902167de5cc1aa495327acd0b9",
      "transactionIndex": "0x17",
      "blockHash": "0x6b894e06fe89cb062ae6a3ff3ca0875376e9c62d49cc58a0860c20ba03091d76",
      "blockNumber": "0x7a6850f",
      "gasUsed": "0x8855",
      "effectiveGasPrice": "0x18833",
      "from": "0xb05a948b5c1b057b88d381bde3a375efea87ebad",
      "to": "0xbbb2313aeb8b1ff309790e20e61280aecd548db4",
      "contractAddress": null,
      "l1BaseFeeScalar": "0x146b",
      "l1BlobBaseFee": "0xf6942037",
      "l1BlobBaseFeeScalar": "0xf79c5",
      "l1Fee": "0x7743c5a13b",
      "l1GasPrice": "0x294725d55",
      "l1GasUsed": "0x640"
    },
    {
      "status": "0x1",
      "cumulativeGasUsed": "0x42796b",
      "logs": [
        {
          "address": "0xbc5a25bf2eeb5941dd3531a0ab8857c9f0c3b6a5",
          "topics": [
            "0x8be0079c531659141344cd1fd0a4f28419497f9722a3daafe3b4186f6b6457e0",
            "0x000000000000000000000000b05a948b5c1b057b88d381bde3a375efea87ebad",
            "0x000000000000000000000000129f253f78e33a0312ef8e59fae7699ef6e8dbef"
          ],
          "data": "0x",
          "blockHash": "0x6b894e06fe89cb062ae6a3ff3ca0875376e9c62d49cc58a0860c20ba03091d76",
          "blockNumber": "0x7a6850f",
          "transactionHash": "0x975621d240f6c04e8aab86e3f957290f8a2b8e79aa135da6f6771bb3f2b5a32b",
          "transactionIndex": "0x18",
          "logIndex": "0x41",
          "removed": false
        }
      ],
      "logsBloom": "0x00000000000000000000000000000000000000000000000000800000000000000000000000000000000000000000000000000800000000000000000100000000000010000000000000000000000000000001000000000000000000000000000000000000001000000000000000000000000000000000000000000000000000400002000000000000000000000000000000000000000000000000040000000000000000000000000000000000000000000000000000000000000000000000000000000040000000000000000000000000000000004000000000000000000080000000000000000000000000000000000000000000000000000000000000000000",
      "type": "0x2",
      "transactionHash": "0x975621d240f6c04e8aab86e3f957290f8a2b8e79aa135da6f6771bb3f2b5a32b",
      "transactionIndex": "0x18",
      "blockHash": "0x6b894e06fe89cb062ae6a3ff3ca0875376e9c62d49cc58a0860c20ba03091d76",
      "blockNumber": "0x7a6850f",
      "gasUsed": "0x8855",
      "effectiveGasPrice": "0x18833",
      "from": "0xb05a948b5c1b057b88d381bde3a375efea87ebad",
      "to": "0xbc5a25bf2eeb5941dd3531a0ab8857c9f0c3b6a5",
      "contractAddress": null,
      "l1BaseFeeScalar": "0x146b",
      "l1BlobBaseFee": "0xf6942037",
      "l1BlobBaseFeeScalar": "0xf79c5",
      "l1Fee": "0x7743c5a13b",
      "l1GasPrice": "0x294725d55",
      "l1GasUsed": "0x640"
    },
    {
      "status": "0x1",
      "cumulativeGasUsed": "0x4301c0",
      "logs": [
        {
          "address": "0xcee4e641af10b05c17a657d038c2a0071e1ec051",
          "topics": [
            "0x8be0079c531659141344cd1fd0a4f28419497f9722a3daafe3b4186f6b6457e0",
            "0x000000000000000000000000b05a948b5c1b057b88d381bde3a375efea87ebad",
            "0x000000000000000000000000129f253f78e33a0312ef8e59fae7699ef6e8dbef"
          ],
          "data": "0x",
          "blockHash": "0x6b894e06fe89cb062ae6a3ff3ca0875376e9c62d49cc58a0860c20ba03091d76",
          "blockNumber": "0x7a6850f",
          "transactionHash": "0xea045590364e200c8b44794d6c38e181c9ec655734705f760cc219e482d75a47",
          "transactionIndex": "0x19",
          "logIndex": "0x42",
          "removed": false
        }
      ],
      "logsBloom": "0x00000000000000000000000000000000000000000001000000800000000000000000000000000000000000000000000000000800000000000000000100000000000000000000000000000000000000000001000000000000000000000000000000000200000000000000000000000000000000000000000000000000000000400002000000000000000000000000000000000000040000000000040000000000000000000000000000000000000000000000000000000000000000000000000000000000000000000000000000000000000000004000000000000000000080000000000000000000000000000000000000000000000000000000000000000000",
      "type": "0x2",
      "transactionHash": "0xea045590364e200c8b44794d6c38e181c9ec655734705f760cc219e482d75a47",
      "transactionIndex": "0x19",
      "blockHash": "0x6b894e06fe89cb062ae6a3ff3ca0875376e9c62d49cc58a0860c20ba03091d76",
      "blockNumber": "0x7a6850f",
      "gasUsed": "0x8855",
      "effectiveGasPrice": "0x18833",
      "from": "0xb05a948b5c1b057b88d381bde3a375efea87ebad",
      "to": "0xcee4e641af10b05c17a657d038c2a0071e1ec051",
      "contractAddress": null,
      "l1BaseFeeScalar": "0x146b",
      "l1BlobBaseFee": "0xf6942037",
      "l1BlobBaseFeeScalar": "0xf79c5",
      "l1Fee": "0x7743c5a13b",
      "l1GasPrice": "0x294725d55",
      "l1GasUsed": "0x640"
    },
    {
      "status": "0x1",
      "cumulativeGasUsed": "0x438a15",
      "logs": [
        {
          "address": "0xe5b10de982897a60cfae8481bac5848816c0f705",
          "topics": [
            "0x8be0079c531659141344cd1fd0a4f28419497f9722a3daafe3b4186f6b6457e0",
            "0x000000000000000000000000b05a948b5c1b057b88d381bde3a375efea87ebad",
            "0x000000000000000000000000129f253f78e33a0312ef8e59fae7699ef6e8dbef"
          ],
          "data": "0x",
          "blockHash": "0x6b894e06fe89cb062ae6a3ff3ca0875376e9c62d49cc58a0860c20ba03091d76",
          "blockNumber": "0x7a6850f",
          "transactionHash": "0x087ae9cb1f32dba445638b63702559644ace6b2b637b1a05bf78c99ee274381b",
          "transactionIndex": "0x1a",
          "logIndex": "0x43",
          "removed": false
        }
      ],
      "logsBloom": "0x00000000000000000000000000000000000000000000000000800000000000000000000000000000000010000000000000000800000000000000000100000000000002000000000000000000000000000001000000000000000000000000000000000000000000000000000000000000000000000000000000000000000000400002000000000000000000000000000000000001000000000000040000000000000000000000000000000000000000000000000000000000000000000000000000000000000000000000000000000000000000004000000000000000000080000000000000000000000000000000000000000000000000000000000000000000",
      "type": "0x2",
      "transactionHash": "0x087ae9cb1f32dba445638b63702559644ace6b2b637b1a05bf78c99ee274381b",
      "transactionIndex": "0x1a",
      "blockHash": "0x6b894e06fe89cb062ae6a3ff3ca0875376e9c62d49cc58a0860c20ba03091d76",
      "blockNumber": "0x7a6850f",
      "gasUsed": "0x8855",
      "effectiveGasPrice": "0x18833",
      "from": "0xb05a948b5c1b057b88d381bde3a375efea87ebad",
      "to": "0xe5b10de982897a60cfae8481bac5848816c0f705",
      "contractAddress": null,
      "l1BaseFeeScalar": "0x146b",
      "l1BlobBaseFee": "0xf6942037",
      "l1BlobBaseFeeScalar": "0xf79c5",
      "l1Fee": "0x7743c5a13b",
      "l1GasPrice": "0x294725d55",
      "l1GasUsed": "0x640"
    },
    {
      "status": "0x1",
      "cumulativeGasUsed": "0x488c34",
      "logs": [
        {
          "address": "0xee1a9cf8625c2f1f25201ac1a9a9e81f53d5e846",
          "topics": [
            "0x8be0079c531659141344cd1fd0a4f28419497f9722a3daafe3b4186f6b6457e0",
            "0x000000000000000000000000b05a948b5c1b057b88d381bde3a375efea87ebad",
            "0x000000000000000000000000129f253f78e33a0312ef8e59fae7699ef6e8dbef"
          ],
          "data": "0x",
          "blockHash": "0x6b894e06fe89cb062ae6a3ff3ca0875376e9c62d49cc58a0860c20ba03091d76",
          "blockNumber": "0x7a6850f",
          "transactionHash": "0x618454c4626becb0d658383f6053a847eb7da1a4a9a1183229ed54923fe5b751",
          "transactionIndex": "0x1c",
          "logIndex": "0x44",
          "removed": false
        }
      ],
      "logsBloom": "0x00000000000000000400000000000000000000000000000000800000000000000000000000000000000000000000000000000800000000000000000100000000000000000000000000000000000000000001000000000000000000000000000000000000000000000000000000000000000000000000000000000000000000400002000000000000000000000000000000000000000000000000040000000000000000000000000000000000800000000000000000000000000000000001000000000000000000000000000000000000000000004000000000000000000080000000000000000000000000000000000000000000000000000000000000000000",
      "type": "0x2",
      "transactionHash": "0x618454c4626becb0d658383f6053a847eb7da1a4a9a1183229ed54923fe5b751",
      "transactionIndex": "0x1c",
      "blockHash": "0x6b894e06fe89cb062ae6a3ff3ca0875376e9c62d49cc58a0860c20ba03091d76",
      "blockNumber": "0x7a6850f",
      "gasUsed": "0x8855",
      "effectiveGasPrice": "0x18833",
      "from": "0xb05a948b5c1b057b88d381bde3a375efea87ebad",
      "to": "0xee1a9cf8625c2f1f25201ac1a9a9e81f53d5e846",
      "contractAddress": null,
      "l1BaseFeeScalar": "0x146b",
      "l1BlobBaseFee": "0xf6942037",
      "l1BlobBaseFeeScalar": "0xf79c5",
      "l1Fee": "0x7743c5a13b",
      "l1GasPrice": "0x294725d55",
      "l1GasUsed": "0x640"
    },
    {
      "status": "0x1",
      "cumulativeGasUsed": "0x491489",
      "logs": [
        {
          "address": "0xf515b83f7e0ab851f822e56b0fe63dfa973e74f0",
          "topics": [
            "0x8be0079c531659141344cd1fd0a4f28419497f9722a3daafe3b4186f6b6457e0",
            "0x000000000000000000000000b05a948b5c1b057b88d381bde3a375efea87ebad",
            "0x000000000000000000000000129f253f78e33a0312ef8e59fae7699ef6e8dbef"
          ],
          "data": "0x",
          "blockHash": "0x6b894e06fe89cb062ae6a3ff3ca0875376e9c62d49cc58a0860c20ba03091d76",
          "blockNumber": "0x7a6850f",
          "transactionHash": "0x5768fb9b4ae0d267aa54bdf3ae21ee4356cf7656c76f72ced162e0ffa03807bc",
          "transactionIndex": "0x1d",
          "logIndex": "0x45",
          "removed": false
        }
      ],
      "logsBloom": "0x00000000000000000000000000000000000000000000000000800000000000000000000000000000000000000000000800000800000000000000000100000000000000000000000000000000000000000001000000000000000000000000000000000000000000000000000000000000000000000000000000000000000000400002000000000000000000000000000000000000000000000000040000000000000000000000000000000000000000000000000000000000000000000000000080000000080000000000000000000000000000004000000000000000000080000000000000000000000000000000000000000000000000000000000000000000",
      "type": "0x2",
      "transactionHash": "0x5768fb9b4ae0d267aa54bdf3ae21ee4356cf7656c76f72ced162e0ffa03807bc",
      "transactionIndex": "0x1d",
      "blockHash": "0x6b894e06fe89cb062ae6a3ff3ca0875376e9c62d49cc58a0860c20ba03091d76",
      "blockNumber": "0x7a6850f",
      "gasUsed": "0x8855",
      "effectiveGasPrice": "0x18833",
      "from": "0xb05a948b5c1b057b88d381bde3a375efea87ebad",
      "to": "0xf515b83f7e0ab851f822e56b0fe63dfa973e74f0",
      "contractAddress": null,
      "l1BaseFeeScalar": "0x146b",
      "l1BlobBaseFee": "0xf6942037",
      "l1BlobBaseFeeScalar": "0xf79c5",
      "l1Fee": "0x7743c5a13b",
      "l1GasPrice": "0x294725d55",
      "l1GasUsed": "0x640"
    },
    {
      "status": "0x1",
      "cumulativeGasUsed": "0x499da3",
      "logs": [
        {
          "address": "0x1c720bfa4a2535fb6675b859a717b4cba56fd97b",
          "topics": [
            "0x8be0079c531659141344cd1fd0a4f28419497f9722a3daafe3b4186f6b6457e0",
            "0x000000000000000000000000b05a948b5c1b057b88d381bde3a375efea87ebad",
            "0x000000000000000000000000129f253f78e33a0312ef8e59fae7699ef6e8dbef"
          ],
          "data": "0x",
          "blockHash": "0x6b894e06fe89cb062ae6a3ff3ca0875376e9c62d49cc58a0860c20ba03091d76",
          "blockNumber": "0x7a6850f",
          "transactionHash": "0xe7d0eca7f64a0792bafc42b8d31cd170cc4c78f45f7ce2c02165eecbb8b4c371",
          "transactionIndex": "0x1e",
          "logIndex": "0x46",
          "removed": false
        }
      ],
      "logsBloom": "0x00000000000000000000000000000000000000000000000000800000000000000000000000000000000000000000000000000800000000000000000100000000000000000000000000000000000000000001000000000000000000000000000000000000000000000000000000000000000000000000000000000000000000400002000000000000000010000000000000000000000000000000040000004000000000000000000000002000000000000000000000000000000000000000000000000000000000000000000000000000000000004000000000000000000080000000000000000000000000000000000000000000000000000000000000000000",
      "type": "0x2",
      "transactionHash": "0xe7d0eca7f64a0792bafc42b8d31cd170cc4c78f45f7ce2c02165eecbb8b4c371",
      "transactionIndex": "0x1e",
      "blockHash": "0x6b894e06fe89cb062ae6a3ff3ca0875376e9c62d49cc58a0860c20ba03091d76",
      "blockNumber": "0x7a6850f",
      "gasUsed": "0x891a",
      "effectiveGasPrice": "0x18833",
      "from": "0xb05a948b5c1b057b88d381bde3a375efea87ebad",
      "to": "0x1c720bfa4a2535fb6675b859a717b4cba56fd97b",
      "contractAddress": null,
      "l1BaseFeeScalar": "0x146b",
      "l1BlobBaseFee": "0xf6942037",
      "l1BlobBaseFeeScalar": "0xf79c5",
      "l1Fee": "0x7743c5a13b",
      "l1GasPrice": "0x294725d55",
      "l1GasUsed": "0x640"
    },
    {
      "status": "0x1",
      "cumulativeGasUsed": "0x4a26bd",
      "logs": [
        {
          "address": "0x63e2b63072e131c0e5ad72205e03cbe6ca1484fa",
          "topics": [
            "0x8be0079c531659141344cd1fd0a4f28419497f9722a3daafe3b4186f6b6457e0",
            "0x000000000000000000000000b05a948b5c1b057b88d381bde3a375efea87ebad",
            "0x000000000000000000000000129f253f78e33a0312ef8e59fae7699ef6e8dbef"
          ],
          "data": "0x",
          "blockHash": "0x6b894e06fe89cb062ae6a3ff3ca0875376e9c62d49cc58a0860c20ba03091d76",
          "blockNumber": "0x7a6850f",
          "transactionHash": "0x0bc5fc7a0b0b95a2dbcd4ebd5024b64fa34d74ac92ad53e8e773b8c2e0bc649f",
          "transactionIndex": "0x1f",
          "logIndex": "0x47",
          "removed": false
        }
      ],
      "logsBloom": "0x00000000000000000000000000000000000000000000000000800000000000000000000000000000000000000000000000000800000000000000000100000000000000400000000000000000000000000001000000000000000000000000000000000000000000000000000000000000000080000000000000000000000000400002000000000000000000000000000000000000000000000000040000000000000000000000000000000000000000000000000000000000000000000000000040000000000000000000000000000000000000004000000000000000000080000000000000000000000000000000000000000000000000000000000000000000",
      "type": "0x2",
      "transactionHash": "0x0bc5fc7a0b0b95a2dbcd4ebd5024b64fa34d74ac92ad53e8e773b8c2e0bc649f",
      "transactionIndex": "0x1f",
      "blockHash": "0x6b894e06fe89cb062ae6a3ff3ca0875376e9c62d49cc58a0860c20ba03091d76",
      "blockNumber": "0x7a6850f",
      "gasUsed": "0x891a",
      "effectiveGasPrice": "0x18833",
      "from": "0xb05a948b5c1b057b88d381bde3a375efea87ebad",
      "to": "0x63e2b63072e131c0e5ad72205e03cbe6ca1484fa",
      "contractAddress": null,
      "l1BaseFeeScalar": "0x146b",
      "l1BlobBaseFee": "0xf6942037",
      "l1BlobBaseFeeScalar": "0xf79c5",
      "l1Fee": "0x7743c5a13b",
      "l1GasPrice": "0x294725d55",
      "l1GasUsed": "0x640"
    },
    {
      "status": "0x1",
      "cumulativeGasUsed": "0x4aafd7",
      "logs": [
        {
          "address": "0x8f80c90ef85254bd1c401804058bb68f2eb7cfab",
          "topics": [
            "0x8be0079c531659141344cd1fd0a4f28419497f9722a3daafe3b4186f6b6457e0",
            "0x000000000000000000000000b05a948b5c1b057b88d381bde3a375efea87ebad",
            "0x000000000000000000000000129f253f78e33a0312ef8e59fae7699ef6e8dbef"
          ],
          "data": "0x",
          "blockHash": "0x6b894e06fe89cb062ae6a3ff3ca0875376e9c62d49cc58a0860c20ba03091d76",
          "blockNumber": "0x7a6850f",
          "transactionHash": "0x1492aae9b87abd989edcced8b07b1d2f3289abaf0615d6810fe4ac9d41b2c834",
          "transactionIndex": "0x20",
          "logIndex": "0x48",
          "removed": false
        }
      ],
      "logsBloom": "0x00000000000000000000000000000000000000000000000000800001000000000000000000000000000000000000000000000800000000000000000100008000000000000000000000000000000000000001000000000000000000000000000000000000000000000000000000000000000000000000000000000000000000400002000000000000000000000000000000000000000000000000040000000000000000000000000000000000000000000000000000000000000000000000000000000000000000000000000000000000000000004000000000000000000080000000000000000000000000000000000000000000000000000000000080000000",
      "type": "0x2",
      "transactionHash": "0x1492aae9b87abd989edcced8b07b1d2f3289abaf0615d6810fe4ac9d41b2c834",
      "transactionIndex": "0x20",
      "blockHash": "0x6b894e06fe89cb062ae6a3ff3ca0875376e9c62d49cc58a0860c20ba03091d76",
      "blockNumber": "0x7a6850f",
      "gasUsed": "0x891a",
      "effectiveGasPrice": "0x18833",
      "from": "0xb05a948b5c1b057b88d381bde3a375efea87ebad",
      "to": "0x8f80c90ef85254bd1c401804058bb68f2eb7cfab",
      "contractAddress": null,
      "l1BaseFeeScalar": "0x146b",
      "l1BlobBaseFee": "0xf6942037",
      "l1BlobBaseFeeScalar": "0xf79c5",
      "l1Fee": "0x7743c5a13b",
      "l1GasPrice": "0x294725d55",
      "l1GasUsed": "0x640"
    },
    {
      "status": "0x1",
      "cumulativeGasUsed": "0x4b38f1",
      "logs": [
        {
          "address": "0x94daa3f0e1380139e178f8cc523eea39395bcf78",
          "topics": [
            "0x8be0079c531659141344cd1fd0a4f28419497f9722a3daafe3b4186f6b6457e0",
            "0x000000000000000000000000b05a948b5c1b057b88d381bde3a375efea87ebad",
            "0x000000000000000000000000129f253f78e33a0312ef8e59fae7699ef6e8dbef"
          ],
          "data": "0x",
          "blockHash": "0x6b894e06fe89cb062ae6a3ff3ca0875376e9c62d49cc58a0860c20ba03091d76",
          "blockNumber": "0x7a6850f",
          "transactionHash": "0x7ac8ee4add6841b70bffc5e5372c9f0a91d71a9489aa47128b3f5f8b889d6472",
          "transactionIndex": "0x21",
          "logIndex": "0x49",
          "removed": false
        }
      ],
      "logsBloom": "0x00000000000000000000000000000000000000000000000000800000000000000000000000000000000000000000800000000800000000000000000100000000000000000000000000000000000000000001000000000000000000000000000000000000001000000000000000000000000000000000000000000000000000400002100000000000000000000000000000000000000000000000040000000000000000000000000000000000000000000000000000000000000000000000000000000000000000000000000000000000000000004000000000000000000080000000000000000000000000000000000000000000000000000000000000000000",
      "type": "0x2",
      "transactionHash": "0x7ac8ee4add6841b70bffc5e5372c9f0a91d71a9489aa47128b3f5f8b889d6472",
      "transactionIndex": "0x21",
      "blockHash": "0x6b894e06fe89cb062ae6a3ff3ca0875376e9c62d49cc58a0860c20ba03091d76",
      "blockNumber": "0x7a6850f",
      "gasUsed": "0x891a",
      "effectiveGasPrice": "0x18833",
      "from": "0xb05a948b5c1b057b88d381bde3a375efea87ebad",
      "to": "0x94daa3f0e1380139e178f8cc523eea39395bcf78",
      "contractAddress": null,
      "l1BaseFeeScalar": "0x146b",
      "l1BlobBaseFee": "0xf6942037",
      "l1BlobBaseFeeScalar": "0xf79c5",
      "l1Fee": "0x7743c5a13b",
      "l1GasPrice": "0x294725d55",
      "l1GasUsed": "0x640"
    },
    {
      "status": "0x1",
      "cumulativeGasUsed": "0x4bc20b",
      "logs": [
        {
          "address": "0x964251300e577801ce3e21897c6a335505fedee5",
          "topics": [
            "0x8be0079c531659141344cd1fd0a4f28419497f9722a3daafe3b4186f6b6457e0",
            "0x000000000000000000000000b05a948b5c1b057b88d381bde3a375efea87ebad",
            "0x000000000000000000000000129f253f78e33a0312ef8e59fae7699ef6e8dbef"
          ],
          "data": "0x",
          "blockHash": "0x6b894e06fe89cb062ae6a3ff3ca0875376e9c62d49cc58a0860c20ba03091d76",
          "blockNumber": "0x7a6850f",
          "transactionHash": "0x7f7e0d079d2443d686ac0d56fcab1f2fd6917744374c4655bc94be2224b36ad1",
          "transactionIndex": "0x22",
          "logIndex": "0x4a",
          "removed": false
        }
      ],
      "logsBloom": "0x00000000000000000000000000000000000000000000000000800000000000000000000000000000000000000000000000000800000000000000000100000000000000000000000000000000000000000001000000000000000000000000000000000000000000000000000000000000000000000000000000000000002000400002000000002000000000000000000000000000000000000000040000000000000000000800000000000000000000000000000000000000000000000000000000000000000000000000000000000000000000004000000000000000000080000000000000000000000000000000000000000000000000000000000000000000",
      "type": "0x2",
      "transactionHash": "0x7f7e0d079d2443d686ac0d56fcab1f2fd6917744374c4655bc94be2224b36ad1",
      "transactionIndex": "0x22",
      "blockHash": "0x6b894e06fe89cb062ae6a3ff3ca0875376e9c62d49cc58a0860c20ba03091d76",
      "blockNumber": "0x7a6850f",
      "gasUsed": "0x891a",
      "effectiveGasPrice": "0x18833",
      "from": "0xb05a948b5c1b057b88d381bde3a375efea87ebad",
      "to": "0x964251300e577801ce3e21897c6a335505fedee5",
      "contractAddress": null,
      "l1BaseFeeScalar": "0x146b",
      "l1BlobBaseFee": "0xf6942037",
      "l1BlobBaseFeeScalar": "0xf79c5",
      "l1Fee": "0x7743c5a13b",
      "l1GasPrice": "0x294725d55",
      "l1GasUsed": "0x640"
    },
    {
      "status": "0x1",
      "cumulativeGasUsed": "0x4c4b25",
      "logs": [
        {
          "address": "0xaeecbc91e44541204d0c784e4ac3e8eca6a47cc8",
          "topics": [
            "0x8be0079c531659141344cd1fd0a4f28419497f9722a3daafe3b4186f6b6457e0",
            "0x000000000000000000000000b05a948b5c1b057b88d381bde3a375efea87ebad",
            "0x000000000000000000000000129f253f78e33a0312ef8e59fae7699ef6e8dbef"
          ],
          "data": "0x",
          "blockHash": "0x6b894e06fe89cb062ae6a3ff3ca0875376e9c62d49cc58a0860c20ba03091d76",
          "blockNumber": "0x7a6850f",
          "transactionHash": "0x4abc51e671a685b468d92da28c558c7242aec1b1977a40f1f2cc70cc839842fb",
          "transactionIndex": "0x23",
          "logIndex": "0x4b",
          "removed": false
        }
      ],
      "logsBloom": "0x00000000000000000000000000000000000000000000000000800000000000000001000000000000000000000000000000000800000000000000000100000000000000000000000000000000000000000001000000000000000000000000000000000000000000000000000000000000000000000000000080000000010000400002000000000000000000000000000000000000000000000000040000000000000000000000000000000000000000000000000000000000000000000000000000000000000000000000000000000000000000004000000000000000000080000000000000000000000000000000000000000000000000000000000000000000",
      "type": "0x2",
      "transactionHash": "0x4abc51e671a685b468d92da28c558c7242aec1b1977a40f1f2cc70cc839842fb",
      "transactionIndex": "0x23",
      "blockHash": "0x6b894e06fe89cb062ae6a3ff3ca0875376e9c62d49cc58a0860c20ba03091d76",
      "blockNumber": "0x7a6850f",
      "gasUsed": "0x891a",
      "effectiveGasPrice": "0x18833",
      "from": "0xb05a948b5c1b057b88d381bde3a375efea87ebad",
      "to": "0xaeecbc91e44541204d0c784e4ac3e8eca6a47cc8",
      "contractAddress": null,
      "l1BaseFeeScalar": "0x146b",
      "l1BlobBaseFee": "0xf6942037",
      "l1BlobBaseFeeScalar": "0xf79c5",
      "l1Fee": "0x7743c5a13b",
      "l1GasPrice": "0x294725d55",
      "l1GasUsed": "0x640"
    },
    {
      "status": "0x1",
      "cumulativeGasUsed": "0x4cd43f",
      "logs": [
        {
          "address": "0xb3551608e7833f517d77419f4035e1a6b14391b7",
          "topics": [
            "0x8be0079c531659141344cd1fd0a4f28419497f9722a3daafe3b4186f6b6457e0",
            "0x000000000000000000000000b05a948b5c1b057b88d381bde3a375efea87ebad",
            "0x000000000000000000000000129f253f78e33a0312ef8e59fae7699ef6e8dbef"
          ],
          "data": "0x",
          "blockHash": "0x6b894e06fe89cb062ae6a3ff3ca0875376e9c62d49cc58a0860c20ba03091d76",
          "blockNumber": "0x7a6850f",
          "transactionHash": "0xa1bc09fb271f449f6e8a6f875fa81a31abb56e287d25836326955996158f4a32",
          "transactionIndex": "0x24",
          "logIndex": "0x4c",
          "removed": false
        }
      ],
      "logsBloom": "0x00000000000000000000000000000000000000000000000800800000000000000000000000000000000000000000000000000800000000000000000100000000000000000000000000000000000000000001000002000000000000000000000000000000000000000000000000000000000000000000000000000000000000400002000000000000000000000000000000000000000000000000040000000000000000000000000000000000000000000000000000000000000000000000008000000000000000000000000000000000000000004000000000000000000080000000000000000000000000000000000000000000000000000000000000000000",
      "type": "0x2",
      "transactionHash": "0xa1bc09fb271f449f6e8a6f875fa81a31abb56e287d25836326955996158f4a32",
      "transactionIndex": "0x24",
      "blockHash": "0x6b894e06fe89cb062ae6a3ff3ca0875376e9c62d49cc58a0860c20ba03091d76",
      "blockNumber": "0x7a6850f",
      "gasUsed": "0x891a",
      "effectiveGasPrice": "0x18833",
      "from": "0xb05a948b5c1b057b88d381bde3a375efea87ebad",
      "to": "0xb3551608e7833f517d77419f4035e1a6b14391b7",
      "contractAddress": null,
      "l1BaseFeeScalar": "0x146b",
      "l1BlobBaseFee": "0xf6942037",
      "l1BlobBaseFeeScalar": "0xf79c5",
      "l1Fee": "0x7743c5a13b",
      "l1GasPrice": "0x294725d55",
      "l1GasUsed": "0x640"
    },
    {
      "status": "0x1",
      "cumulativeGasUsed": "0x4d5d59",
      "logs": [
        {
          "address": "0xd9cf1f7d077166236e260819257a567b1ca22c8c",
          "topics": [
            "0x8be0079c531659141344cd1fd0a4f28419497f9722a3daafe3b4186f6b6457e0",
            "0x000000000000000000000000b05a948b5c1b057b88d381bde3a375efea87ebad",
            "0x000000000000000000000000129f253f78e33a0312ef8e59fae7699ef6e8dbef"
          ],
          "data": "0x",
          "blockHash": "0x6b894e06fe89cb062ae6a3ff3ca0875376e9c62d49cc58a0860c20ba03091d76",
          "blockNumber": "0x7a6850f",
          "transactionHash": "0x7a671af112ddb8891da5eb16baaaba0301b1ecb3fb4edd832646763db74427c1",
          "transactionIndex": "0x25",
          "logIndex": "0x4d",
          "removed": false
        }
      ],
      "logsBloom": "0x00000000000000000000000000000000000000000000000000800000000000000000000000000000080000000000000000000800000000000000000100000000000000000000000000000000000000000009000000000000000000000000000000000000000000400000000000000000000000000000000000000000000000400002000000000000000000000000000000000000000000000000040000000000000000000000000000000000000000000000000000000000000000000000000000000000000000000000000000000000000000004000000000000000000080000000000000000000000000000000000000000000000000000000000000000000",
      "type": "0x2",
      "transactionHash": "0x7a671af112ddb8891da5eb16baaaba0301b1ecb3fb4edd832646763db74427c1",
      "transactionIndex": "0x25",
      "blockHash": "0x6b894e06fe89cb062ae6a3ff3ca0875376e9c62d49cc58a0860c20ba03091d76",
      "blockNumber": "0x7a6850f",
      "gasUsed": "0x891a",
      "effectiveGasPrice": "0x18833",
      "from": "0xb05a948b5c1b057b88d381bde3a375efea87ebad",
      "to": "0xd9cf1f7d077166236e260819257a567b1ca22c8c",
      "contractAddress": null,
      "l1BaseFeeScalar": "0x146b",
      "l1BlobBaseFee": "0xf6942037",
      "l1BlobBaseFeeScalar": "0xf79c5",
      "l1Fee": "0x7743c5a13b",
      "l1GasPrice": "0x294725d55",
      "l1GasUsed": "0x640"
    },
    {
      "status": "0x1",
      "cumulativeGasUsed": "0x4de673",
      "logs": [
        {
          "address": "0xfeca5fc72deb98b41198a5dce90e00bbafbe5888",
          "topics": [
            "0x8be0079c531659141344cd1fd0a4f28419497f9722a3daafe3b4186f6b6457e0",
            "0x000000000000000000000000b05a948b5c1b057b88d381bde3a375efea87ebad",
            "0x000000000000000000000000129f253f78e33a0312ef8e59fae7699ef6e8dbef"
          ],
          "data": "0x",
          "blockHash": "0x6b894e06fe89cb062ae6a3ff3ca0875376e9c62d49cc58a0860c20ba03091d76",
          "blockNumber": "0x7a6850f",
          "transactionHash": "0x01e79b4c9dcd881f43c113a9e7c9fb6a81b2893262c18b33373bb3b022249328",
          "transactionIndex": "0x26",
          "logIndex": "0x4e",
          "removed": false
        }
      ],
      "logsBloom": "0x00000000000000000000000000000000000000020000000000800000000000000000000000000000000000000000000000000800000000000000000100000000000000000000000000000000000000000001000000000000000000000000000000000000000000800000000000000000000000000000000000000000000000400002000000000000000000000000000000000000000000000000040000000000000000000000000000000000000000000000000002000000000000000000000000000000000000000000000000000000000000004000000000000000000080000000000000000000000000000000000000000000000000000000000000000000",
      "type": "0x2",
      "transactionHash": "0x01e79b4c9dcd881f43c113a9e7c9fb6a81b2893262c18b33373bb3b022249328",
      "transactionIndex": "0x26",
      "blockHash": "0x6b894e06fe89cb062ae6a3ff3ca0875376e9c62d49cc58a0860c20ba03091d76",
      "blockNumber": "0x7a6850f",
      "gasUsed": "0x891a",
      "effectiveGasPrice": "0x18833",
      "from": "0xb05a948b5c1b057b88d381bde3a375efea87ebad",
      "to": "0xfeca5fc72deb98b41198a5dce90e00bbafbe5888",
      "contractAddress": null,
      "l1BaseFeeScalar": "0x146b",
      "l1BlobBaseFee": "0xf6942037",
      "l1BlobBaseFeeScalar": "0xf79c5",
      "l1Fee": "0x7743c5a13b",
      "l1GasPrice": "0x294725d55",
      "l1GasUsed": "0x640"
    }
  ],
  "libraries": [],
  "pending": [],
  "returns": {},
  "timestamp": 1732305934,
  "chain": 10,
  "commit": "3f1d7091"
}