{
  "transactions": [
    {
      "hash": "0x7394a1f3125e6c48f9197a045a55e7f42078523eec4827fe37d942ec63e5c46c",
      "transactionType": "CREATE",
      "contractName": "CollateralVault",
      "contractAddress": "0x7eb250820e2320c39325c8d1b505e8061a4b76a9",
      "function": null,
      "arguments": null,
      "transaction": {
        "from": "0xb05a948b5c1b057b88d381bde3a375efea87ebad",
        "gas": "0x73df5",
        "value": "0x0",
        "input": "0x6080806040523461001b57600160005561053c90816100218239f35b600080fdfe60806040908082526004918236101561001757600080fd5b600091823560e01c908163481fef8a1461031f575080638129fc1c146102db5780638630da1d146102955780638969ab53146101a25780638da5cb5b1461017a576399ea56b01461006757600080fd5b346101765760603660031901126101765782356100826103d4565b6002546001600160a01b03939192916044359185163303610167577fc512525fc7952c6edf42100f0853e94fb1c1f6daf93780cac22b690a36e03724949596506100ca6103ef565b8682948482526001602052828220978116978883526020528282205480839511610158575b508180808089610130958a61014e9a99985260016020528d88842090845260205287832061011e838254610445565b90555af161012a610468565b506104c8565b51938493849081526020810191909152901515604082015260600190565b0390a26001815580f35b955060019350889150816100ef565b5163ea8e4eb560e01b81528690fd5b5080fd5b503461017657816003193601126101765760025490516001600160a01b039091168152602090f35b5034610176576080366003190112610176578235926101bf6103d4565b604435946001600160a01b0380871694929390928588036102915760643591846002541633036102835750867f86b742620d95ff25811b118a7f2dbca2f5f4c869adf0b0d94660965f51c8d769959697986102186103ef565b839585835260016020528383209816978883526020528282205480839511610274575b508180808089610130958a61026a9a99985260016020528d88842090845260205287832061011e838254610445565b0390a36001815580f35b9550600193508991508161023b565b905163ea8e4eb560e01b8152fd5b8680fd5b5082346102d757816003193601126102d75760209282916102b46103d4565b90358252600185528282206001600160a01b039091168252845220549051908152f35b8280fd5b5082346102d757826003193601126102d757600254916001600160a01b0383166103135750506001600160a01b031916331760025580f35b5162dc149f60e41b8152fd5b918091506003193601126102d75783356103376103d4565b60025490936001600160a01b0391821633036103c657506103566103ef565b81855260016020528285209316928385526020528184208054903482018092116103b3577feec2f3feb835e2f2fd44281034b04700a1ddda63dd402949d470a25a7c40b36c94959650558151908152346020820152a26001815580f35b634e487b7160e01b865260118752602486fd5b63ea8e4eb560e01b81528690fd5b602435906001600160a01b03821682036103ea57565b600080fd5b600260005414610400576002600055565b60405162461bcd60e51b815260206004820152601f60248201527f5265656e7472616e637947756172643a207265656e7472616e742063616c6c006044820152606490fd5b9190820391821161045257565b634e487b7160e01b600052601160045260246000fd5b3d156104c3576001600160401b03903d8281116104ad5760405192601f8201601f19908116603f01168401908111848210176104ad5760405282523d6000602084013e565b634e487b7160e01b600052604160045260246000fd5b606090565b156104cf57565b60405162461bcd60e51b815260206004820152600f60248201526e151c985b9cd9995c8819985a5b1959608a1b6044820152606490fdfea2646970667358221220e1fd22beafc52b9f32fec6358911e88b54c9d8372f89236bd2ac8fa3fd7fadbd64736f6c63430008130033",
        "nonce": "0x31",
        "chainId": "0xa"
      },
      "additionalContracts": [],
      "isFixedGasLimit": false
    },
    {
      "hash": "0xc5e33d9e11f34f4be875cb0ac81e1868411e24c1bfa3721739c4a11c23313cf0",
      "transactionType": "CALL",
      "contractName": null,
      "contractAddress": "0x1fac47cf25f1ca9f20ba366099d26b28401f5715",
      "function": "setCollateralVaultTemplate(address)",
      "arguments": [
        "0x7EB250820E2320C39325C8D1B505e8061a4B76a9"
      ],
      "transaction": {
        "from": "0xb05a948b5c1b057b88d381bde3a375efea87ebad",
        "to": "0x1fac47cf25f1ca9f20ba366099d26b28401f5715",
        "gas": "0xef5c",
        "value": "0x0",
        "input": "0xb0d3713a0000000000000000000000007eb250820e2320c39325c8d1b505e8061a4b76a9",
        "nonce": "0x32",
        "chainId": "0xa"
      },
      "additionalContracts": [],
      "isFixedGasLimit": false
    },
    {
      "hash": "0x4b59b06aa81ca1af6cbfb620368e357d815f3df782d30e477f96ea7295bd1860",
      "transactionType": "CALL",
      "contractName": null,
      "contractAddress": "0x2088bbe7e70acfaf643e834c96aa4c277be6653e",
      "function": "setCollateralVaultTemplate(address)",
      "arguments": [
        "0x7EB250820E2320C39325C8D1B505e8061a4B76a9"
      ],
      "transaction": {
        "from": "0xb05a948b5c1b057b88d381bde3a375efea87ebad",
        "to": "0x2088bbe7e70acfaf643e834c96aa4c277be6653e",
        "gas": "0xc7d3",
        "value": "0x0",
        "input": "0xb0d3713a0000000000000000000000007eb250820e2320c39325c8d1b505e8061a4b76a9",
        "nonce": "0x33",
        "chainId": "0xa"
      },
      "additionalContracts": [],
      "isFixedGasLimit": false
    },
    {
      "hash": "0x0e7296f4164545252c672a6299f6f800b999908ce49bb8d57928e1e4ff328329",
      "transactionType": "CALL",
      "contractName": null,
      "contractAddress": "0x3da181b922a890ec30c41ebe764c49f28f890e77",
      "function": "setCollateralVaultTemplate(address)",
      "arguments": [
        "0x7EB250820E2320C39325C8D1B505e8061a4B76a9"
      ],
      "transaction": {
        "from": "0xb05a948b5c1b057b88d381bde3a375efea87ebad",
        "to": "0x3da181b922a890ec30c41ebe764c49f28f890e77",
        "gas": "0xc7d3",
        "value": "0x0",
        "input": "0xb0d3713a0000000000000000000000007eb250820e2320c39325c8d1b505e8061a4b76a9",
        "nonce": "0x34",
        "chainId": "0xa"
      },
      "additionalContracts": [],
      "isFixedGasLimit": false
    },
    {
      "hash": "0x71a72ea51a76020e08e10b88a399fd47693974eb10c8e8e54f975a3358c96ad4",
      "transactionType": "CALL",
      "contractName": null,
      "contractAddress": "0x888e2fbc7e7afe3a8f9b54030d0cb0eed896f955",
      "function": "setCollateralVaultTemplate(address)",
      "arguments": [
        "0x7EB250820E2320C39325C8D1B505e8061a4B76a9"
      ],
      "transaction": {
        "from": "0xb05a948b5c1b057b88d381bde3a375efea87ebad",
        "to": "0x888e2fbc7e7afe3a8f9b54030d0cb0eed896f955",
        "gas": "0xc7d3",
        "value": "0x0",
        "input": "0xb0d3713a0000000000000000000000007eb250820e2320c39325c8d1b505e8061a4b76a9",
        "nonce": "0x35",
        "chainId": "0xa"
      },
      "additionalContracts": [],
      "isFixedGasLimit": false
    }
  ],
  "receipts": [
    {
      "status": "0x1",
      "cumulativeGasUsed": "0x47bbd0",
      "logs": [],
      "logsBloom": "0x00000000000000000000000000000000000000000000000000000000000000000000000000000000000000000000000000000000000000000000000000000000000000000000000000000000000000000000000000000000000000000000000000000000000000000000000000000000000000000000000000000000000000000000000000000000000000000000000000000000000000000000000000000000000000000000000000000000000000000000000000000000000000000000000000000000000000000000000000000000000000000000000000000000000000000000000000000000000000000000000000000000000000000000000000000000",
      "type": "0x0",
      "transactionHash": "0x7394a1f3125e6c48f9197a045a55e7f42078523eec4827fe37d942ec63e5c46c",
      "transactionIndex": "0x9",
      "blockHash": "0x39b09f044ed686b2174d61eeb577da8b7603c96c4b88183875ad4fb3a1a05156",
      "blockNumber": "0x780dd56",
      "gasUsed": "0x59275",
      "effectiveGasPrice": "0x1d19f80",
      "from": "0xb05a948b5c1b057b88d381bde3a375efea87ebad",
      "to": null,
      "contractAddress": "0x7eb250820e2320c39325c8d1b505e8061a4b76a9",
      "l1BaseFeeScalar": "0x146b",
      "l1BlobBaseFee": "0x1",
      "l1BlobBaseFeeScalar": "0xf79c5",
      "l1Fee": "0x33c8068de35",
      "l1GasPrice": "0xa16384ce7",
      "l1GasUsed": "0x3d62"
    },
    {
      "status": "0x1",
      "cumulativeGasUsed": "0x48691c",
      "logs": [],
      "logsBloom": "0x00000000000000000000000000000000000000000000000000000000000000000000000000000000000000000000000000000000000000000000000000000000000000000000000000000000000000000000000000000000000000000000000000000000000000000000000000000000000000000000000000000000000000000000000000000000000000000000000000000000000000000000000000000000000000000000000000000000000000000000000000000000000000000000000000000000000000000000000000000000000000000000000000000000000000000000000000000000000000000000000000000000000000000000000000000000",
      "type": "0x0",
      "transactionHash": "0xc5e33d9e11f34f4be875cb0ac81e1868411e24c1bfa3721739c4a11c23313cf0",
      "transactionIndex": "0xa",
      "blockHash": "0x39b09f044ed686b2174d61eeb577da8b7603c96c4b88183875ad4fb3a1a05156",
      "blockNumber": "0x780dd56",
      "gasUsed": "0xad4c",
      "effectiveGasPrice": "0x1d19f80",
      "from": "0xb05a948b5c1b057b88d381bde3a375efea87ebad",
      "to": "0x1fac47cf25f1ca9f20ba366099d26b28401f5715",
      "contractAddress": null,
      "l1BaseFeeScalar": "0x146b",
      "l1BlobBaseFee": "0x1",
      "l1BlobBaseFeeScalar": "0xf79c5",
      "l1Fee": "0x545b9f25bf",
      "l1GasPrice": "0xa16384ce7",
      "l1GasUsed": "0x640"
    },
    {
      "status": "0x1",
      "cumulativeGasUsed": "0x48f1be",
      "logs": [],
      "logsBloom": "0x00000000000000000000000000000000000000000000000000000000000000000000000000000000000000000000000000000000000000000000000000000000000000000000000000000000000000000000000000000000000000000000000000000000000000000000000000000000000000000000000000000000000000000000000000000000000000000000000000000000000000000000000000000000000000000000000000000000000000000000000000000000000000000000000000000000000000000000000000000000000000000000000000000000000000000000000000000000000000000000000000000000000000000000000000000000",
      "type": "0x0",
      "transactionHash": "0x4b59b06aa81ca1af6cbfb620368e357d815f3df782d30e477f96ea7295bd1860",
      "transactionIndex": "0xb",
      "blockHash": "0x39b09f044ed686b2174d61eeb577da8b7603c96c4b88183875ad4fb3a1a05156",
      "blockNumber": "0x780dd56",
      "gasUsed": "0x88a2",
      "effectiveGasPrice": "0x1d19f80",
      "from": "0xb05a948b5c1b057b88d381bde3a375efea87ebad",
      "to": "0x2088bbe7e70acfaf643e834c96aa4c277be6653e",
      "contractAddress": null,
      "l1BaseFeeScalar": "0x146b",
      "l1BlobBaseFee": "0x1",
      "l1BlobBaseFeeScalar": "0xf79c5",
      "l1Fee": "0x545b9f25bf",
      "l1GasPrice": "0xa16384ce7",
      "l1GasUsed": "0x640"
    },
    {
      "status": "0x1",
      "cumulativeGasUsed": "0x497a60",
      "logs": [],
      "logsBloom": "0x00000000000000000000000000000000000000000000000000000000000000000000000000000000000000000000000000000000000000000000000000000000000000000000000000000000000000000000000000000000000000000000000000000000000000000000000000000000000000000000000000000000000000000000000000000000000000000000000000000000000000000000000000000000000000000000000000000000000000000000000000000000000000000000000000000000000000000000000000000000000000000000000000000000000000000000000000000000000000000000000000000000000000000000000000000000",
      "type": "0x0",
      "transactionHash": "0x0e7296f4164545252c672a6299f6f800b999908ce49bb8d57928e1e4ff328329",
      "transactionIndex": "0xc",
      "blockHash": "0x39b09f044ed686b2174d61eeb577da8b7603c96c4b88183875ad4fb3a1a05156",
      "blockNumber": "0x780dd56",
      "gasUsed": "0x88a2",
      "effectiveGasPrice": "0x1d19f80",
      "from": "0xb05a948b5c1b057b88d381bde3a375efea87ebad",
      "to": "0x3da181b922a890ec30c41ebe764c49f28f890e77",
      "contractAddress": null,
      "l1BaseFeeScalar": "0x146b",
      "l1BlobBaseFee": "0x1",
      "l1BlobBaseFeeScalar": "0xf79c5",
      "l1Fee": "0x545b9f25bf",
      "l1GasPrice": "0xa16384ce7",
      "l1GasUsed": "0x640"
    },
    {
      "status": "0x1",
      "cumulativeGasUsed": "0x4a0302",
      "logs": [],
      "logsBloom": "0x00000000000000000000000000000000000000000000000000000000000000000000000000000000000000000000000000000000000000000000000000000000000000000000000000000000000000000000000000000000000000000000000000000000000000000000000000000000000000000000000000000000000000000000000000000000000000000000000000000000000000000000000000000000000000000000000000000000000000000000000000000000000000000000000000000000000000000000000000000000000000000000000000000000000000000000000000000000000000000000000000000000000000000000000000000000",
      "type": "0x0",
      "transactionHash": "0x71a72ea51a76020e08e10b88a399fd47693974eb10c8e8e54f975a3358c96ad4",
      "transactionIndex": "0xd",
      "blockHash": "0x39b09f044ed686b2174d61eeb577da8b7603c96c4b88183875ad4fb3a1a05156",
      "blockNumber": "0x780dd56",
      "gasUsed": "0x88a2",
      "effectiveGasPrice": "0x1d19f80",
      "from": "0xb05a948b5c1b057b88d381bde3a375efea87ebad",
      "to": "0x888e2fbc7e7afe3a8f9b54030d0cb0eed896f955",
      "contractAddress": null,
      "l1BaseFeeScalar": "0x146b",
      "l1BlobBaseFee": "0x1",
      "l1BlobBaseFeeScalar": "0xf79c5",
      "l1Fee": "0x545b9f25bf",
      "l1GasPrice": "0xa16384ce7",
      "l1GasUsed": "0x640"
    }
  ],
  "libraries": [],
  "pending": [],
  "returns": {},
  "timestamp": 1727370365,
  "chain": 10,
  "commit": "072b1a30"
}