{
  "transactions": [
    {
      "hash": "0xba9a590197a6fd4602458904d7ab6fa74612ee5c1575a4b97f483bbd49fb69e3",
      "transactionType": "CALL",
      "contractName": "ERC1967Proxy",
      "contractAddress": "0x0418f78ec03c974ca5b88463f4a5da3e2333c4ab",
      "function": null,
      "arguments": null,
      "transaction": {
        "from": "0xb05a948b5c1b057b88d381bde3a375efea87ebad",
        "to": "0x0418f78ec03c974ca5b88463f4a5da3e2333c4ab",
        "gas": "0x2abe9",
        "value": "0x0",
        "input": "0x1f931c1c000000000000000000000000000000000000000000000000000000000000006000000000000000000000000037cfaf9b4e8f60fe47d0a5651213624af708f974000000000000000000000000000000000000000000000000000000000000020000000000000000000000000000000000000000000000000000000000000000010000000000000000000000000000000000000000000000000000000000000020000000000000000000000000c0bb97a881762d1c38aa250ef8f00714bb3a3a510000000000000000000000000000000000000000000000000000000000000003000000000000000000000000000000000000000000000000000000000000006000000000000000000000000000000000000000000000000000000000000000079a1f46e200000000000000000000000000000000000000000000000000000000b99b4370000000000000000000000000000000000000000000000000000000006871eb4d00000000000000000000000000000000000000000000000000000000a230c524000000000000000000000000000000000000000000000000000000000331383c0000000000000000000000000000000000000000000000000000000028c309e90000000000000000000000000000000000000000000000000000000060f8dd7e000000000000000000000000000000000000000000000000000000000000000000000000000000000000000000000000000000000000000000000004e1c7392a00000000000000000000000000000000000000000000000000000000",
        "nonce": "0x1445",
        "chainId": "0x66eee"
      },
      "additionalContracts": [],
      "isFixedGasLimit": false
    },
    {
      "hash": "0x316dd177b3d92f8b0c1ebbca44fadde817315c335d383b36b08e1fa68b23ce75",
      "transactionType": "CALL",
      "contractName": null,
      "contractAddress": "0x0dce74cf0ccef1fff89469f3befc08806f8e4a3b",
      "function": "diamondCut((address,uint8,bytes4[])[],address,bytes)",
      "arguments": [
        "[(0xC0BB97A881762d1c38Aa250Ef8F00714bB3a3a51, 3, [0x9a1f46e2, 0xb99b4370, 0x6871eb4d, 0xa230c524, 0x0331383c, 0x28c309e9, 0x60f8dd7e])]",
        "0x37CFaF9b4e8f60fE47d0A5651213624af708f974",
        "0xe1c7392a"
      ],
      "transaction": {
        "from": "0xb05a948b5c1b057b88d381bde3a375efea87ebad",
        "to": "0x0dce74cf0ccef1fff89469f3befc08806f8e4a3b",
        "gas": "0x2ab57",
        "value": "0x0",
        "input": "0x1f931c1c000000000000000000000000000000000000000000000000000000000000006000000000000000000000000037cfaf9b4e8f60fe47d0a5651213624af708f974000000000000000000000000000000000000000000000000000000000000020000000000000000000000000000000000000000000000000000000000000000010000000000000000000000000000000000000000000000000000000000000020000000000000000000000000c0bb97a881762d1c38aa250ef8f00714bb3a3a510000000000000000000000000000000000000000000000000000000000000003000000000000000000000000000000000000000000000000000000000000006000000000000000000000000000000000000000000000000000000000000000079a1f46e200000000000000000000000000000000000000000000000000000000b99b4370000000000000000000000000000000000000000000000000000000006871eb4d00000000000000000000000000000000000000000000000000000000a230c524000000000000000000000000000000000000000000000000000000000331383c0000000000000000000000000000000000000000000000000000000028c309e90000000000000000000000000000000000000000000000000000000060f8dd7e000000000000000000000000000000000000000000000000000000000000000000000000000000000000000000000000000000000000000000000004e1c7392a00000000000000000000000000000000000000000000000000000000",
        "nonce": "0x1446",
        "chainId": "0x66eee"
      },
      "additionalContracts": [],
      "isFixedGasLimit": false
    },
    {
      "hash": "0x8c8393cf4aed18aa7fc4aa14994ff523a43bbc5eb8ccc24ab465a86ba32b71bc",
      "transactionType": "CALL",
      "contractName": null,
      "contractAddress": "0x16a8d4fc921b8b1cc8729f4da72745e950499296",
      "function": "diamondCut((address,uint8,bytes4[])[],address,bytes)",
      "arguments": [
        "[(0xC0BB97A881762d1c38Aa250Ef8F00714bB3a3a51, 3, [0x9a1f46e2, 0xb99b4370, 0x6871eb4d, 0xa230c524, 0x0331383c, 0x28c309e9, 0x60f8dd7e])]",
        "0x37CFaF9b4e8f60fE47d0A5651213624af708f974",
        "0xe1c7392a"
      ],
      "transaction": {
        "from": "0xb05a948b5c1b057b88d381bde3a375efea87ebad",
        "to": "0x16a8d4fc921b8b1cc8729f4da72745e950499296",
        "gas": "0x2abae",
        "value": "0x0",
        "input": "0x1f931c1c000000000000000000000000000000000000000000000000000000000000006000000000000000000000000037cfaf9b4e8f60fe47d0a5651213624af708f974000000000000000000000000000000000000000000000000000000000000020000000000000000000000000000000000000000000000000000000000000000010000000000000000000000000000000000000000000000000000000000000020000000000000000000000000c0bb97a881762d1c38aa250ef8f00714bb3a3a510000000000000000000000000000000000000000000000000000000000000003000000000000000000000000000000000000000000000000000000000000006000000000000000000000000000000000000000000000000000000000000000079a1f46e200000000000000000000000000000000000000000000000000000000b99b4370000000000000000000000000000000000000000000000000000000006871eb4d00000000000000000000000000000000000000000000000000000000a230c524000000000000000000000000000000000000000000000000000000000331383c0000000000000000000000000000000000000000000000000000000028c309e90000000000000000000000000000000000000000000000000000000060f8dd7e000000000000000000000000000000000000000000000000000000000000000000000000000000000000000000000000000000000000000000000004e1c7392a00000000000000000000000000000000000000000000000000000000",
        "nonce": "0x1447",
        "chainId": "0x66eee"
      },
      "additionalContracts": [],
      "isFixedGasLimit": false
    },
    {
      "hash": "0x59cf8b0ec159e38dbc2101319a8f39c9c7b0eb44b7a6ef7f7fdbd091e41e6bed",
      "transactionType": "CALL",
      "contractName": "ERC1967Proxy",
      "contractAddress": "0x2f8a9454de2e74bc9a0761703b3f7da0470b1e56",
      "function": null,
      "arguments": null,
      "transaction": {
        "from": "0xb05a948b5c1b057b88d381bde3a375efea87ebad",
        "to": "0x2f8a9454de2e74bc9a0761703b3f7da0470b1e56",
        "gas": "0x2ab29",
        "value": "0x0",
        "input": "0x1f931c1c000000000000000000000000000000000000000000000000000000000000006000000000000000000000000037cfaf9b4e8f60fe47d0a5651213624af708f974000000000000000000000000000000000000000000000000000000000000020000000000000000000000000000000000000000000000000000000000000000010000000000000000000000000000000000000000000000000000000000000020000000000000000000000000c0bb97a881762d1c38aa250ef8f00714bb3a3a510000000000000000000000000000000000000000000000000000000000000003000000000000000000000000000000000000000000000000000000000000006000000000000000000000000000000000000000000000000000000000000000079a1f46e200000000000000000000000000000000000000000000000000000000b99b4370000000000000000000000000000000000000000000000000000000006871eb4d00000000000000000000000000000000000000000000000000000000a230c524000000000000000000000000000000000000000000000000000000000331383c0000000000000000000000000000000000000000000000000000000028c309e90000000000000000000000000000000000000000000000000000000060f8dd7e000000000000000000000000000000000000000000000000000000000000000000000000000000000000000000000000000000000000000000000004e1c7392a00000000000000000000000000000000000000000000000000000000",
        "nonce": "0x1448",
        "chainId": "0x66eee"
      },
      "additionalContracts": [],
      "isFixedGasLimit": false
    },
    {
      "hash": "0xf3b1f3b9b7c000f723bef301dd8137dd666cfff268afbdb7ea6d9808f493ea0e",
      "transactionType": "CALL",
      "contractName": null,
      "contractAddress": "0x8036ac3d1685e3603b8a0418e7e1ee033b794485",
      "function": "diamondCut((address,uint8,bytes4[])[],address,bytes)",
      "arguments": [
        "[(0xC0BB97A881762d1c38Aa250Ef8F00714bB3a3a51, 3, [0x9a1f46e2, 0xb99b4370, 0x6871eb4d, 0xa230c524, 0x0331383c, 0x28c309e9, 0x60f8dd7e])]",
        "0x37CFaF9b4e8f60fE47d0A5651213624af708f974",
        "0xe1c7392a"
      ],
      "transaction": {
        "from": "0xb05a948b5c1b057b88d381bde3a375efea87ebad",
        "to": "0x8036ac3d1685e3603b8a0418e7e1ee033b794485",
        "gas": "0x2ab7d",
        "value": "0x0",
        "input": "0x1f931c1c000000000000000000000000000000000000000000000000000000000000006000000000000000000000000037cfaf9b4e8f60fe47d0a5651213624af708f974000000000000000000000000000000000000000000000000000000000000020000000000000000000000000000000000000000000000000000000000000000010000000000000000000000000000000000000000000000000000000000000020000000000000000000000000c0bb97a881762d1c38aa250ef8f00714bb3a3a510000000000000000000000000000000000000000000000000000000000000003000000000000000000000000000000000000000000000000000000000000006000000000000000000000000000000000000000000000000000000000000000079a1f46e200000000000000000000000000000000000000000000000000000000b99b4370000000000000000000000000000000000000000000000000000000006871eb4d00000000000000000000000000000000000000000000000000000000a230c524000000000000000000000000000000000000000000000000000000000331383c0000000000000000000000000000000000000000000000000000000028c309e90000000000000000000000000000000000000000000000000000000060f8dd7e000000000000000000000000000000000000000000000000000000000000000000000000000000000000000000000000000000000000000000000004e1c7392a00000000000000000000000000000000000000000000000000000000",
        "nonce": "0x1449",
        "chainId": "0x66eee"
      },
      "additionalContracts": [],
      "isFixedGasLimit": false
    },
    {
      "hash": "0x6efacc2a8522e386bc22cbd01915354504e3a5c031ef06e3feff7653ca428795",
      "transactionType": "CALL",
      "contractName": null,
      "contractAddress": "0x88efb94f3c0ac2d31efcede444264caf8d594ab8",
      "function": "diamondCut((address,uint8,bytes4[])[],address,bytes)",
      "arguments": [
        "[(0xC0BB97A881762d1c38Aa250Ef8F00714bB3a3a51, 3, [0x9a1f46e2, 0xb99b4370, 0x6871eb4d, 0xa230c524, 0x0331383c, 0x28c309e9, 0x60f8dd7e])]",
        "0x37CFaF9b4e8f60fE47d0A5651213624af708f974",
        "0xe1c7392a"
      ],
      "transaction": {
        "from": "0xb05a948b5c1b057b88d381bde3a375efea87ebad",
        "to": "0x88efb94f3c0ac2d31efcede444264caf8d594ab8",
        "gas": "0x2ab7d",
        "value": "0x0",
        "input": "0x1f931c1c000000000000000000000000000000000000000000000000000000000000006000000000000000000000000037cfaf9b4e8f60fe47d0a5651213624af708f974000000000000000000000000000000000000000000000000000000000000020000000000000000000000000000000000000000000000000000000000000000010000000000000000000000000000000000000000000000000000000000000020000000000000000000000000c0bb97a881762d1c38aa250ef8f00714bb3a3a510000000000000000000000000000000000000000000000000000000000000003000000000000000000000000000000000000000000000000000000000000006000000000000000000000000000000000000000000000000000000000000000079a1f46e200000000000000000000000000000000000000000000000000000000b99b4370000000000000000000000000000000000000000000000000000000006871eb4d00000000000000000000000000000000000000000000000000000000a230c524000000000000000000000000000000000000000000000000000000000331383c0000000000000000000000000000000000000000000000000000000028c309e90000000000000000000000000000000000000000000000000000000060f8dd7e000000000000000000000000000000000000000000000000000000000000000000000000000000000000000000000000000000000000000000000004e1c7392a00000000000000000000000000000000000000000000000000000000",
        "nonce": "0x144a",
        "chainId": "0x66eee"
      },
      "additionalContracts": [],
      "isFixedGasLimit": false
    },
    {
      "hash": "0x86ea2edf38b4578d9eee6a1397ad47d7d94258b09b2a13f2099a3744eed769ed",
      "transactionType": "CALL",
      "contractName": "ERC1967Proxy",
      "contractAddress": "0x8b8732dac9c30ac89bf660b99fb90000d826ab83",
      "function": null,
      "arguments": null,
      "transaction": {
        "from": "0xb05a948b5c1b057b88d381bde3a375efea87ebad",
        "to": "0x8b8732dac9c30ac89bf660b99fb90000d826ab83",
        "gas": "0x2ab57",
        "value": "0x0",
        "input": "0x1f931c1c000000000000000000000000000000000000000000000000000000000000006000000000000000000000000037cfaf9b4e8f60fe47d0a5651213624af708f974000000000000000000000000000000000000000000000000000000000000020000000000000000000000000000000000000000000000000000000000000000010000000000000000000000000000000000000000000000000000000000000020000000000000000000000000c0bb97a881762d1c38aa250ef8f00714bb3a3a510000000000000000000000000000000000000000000000000000000000000003000000000000000000000000000000000000000000000000000000000000006000000000000000000000000000000000000000000000000000000000000000079a1f46e200000000000000000000000000000000000000000000000000000000b99b4370000000000000000000000000000000000000000000000000000000006871eb4d00000000000000000000000000000000000000000000000000000000a230c524000000000000000000000000000000000000000000000000000000000331383c0000000000000000000000000000000000000000000000000000000028c309e90000000000000000000000000000000000000000000000000000000060f8dd7e000000000000000000000000000000000000000000000000000000000000000000000000000000000000000000000000000000000000000000000004e1c7392a00000000000000000000000000000000000000000000000000000000",
        "nonce": "0x144b",
        "chainId": "0x66eee"
      },
      "additionalContracts": [],
      "isFixedGasLimit": false
    },
    {
      "hash": "0x525003841f9176b6d8ecb6a641ebf1a2da7b408e9ce6f9a3f1bb96ca6f1b771a",
      "transactionType": "CALL",
      "contractName": "ERC1967Proxy",
      "contractAddress": "0xa488ac456c7c5964af7d323b7ce795d02e7c5154",
      "function": null,
      "arguments": null,
      "transaction": {
        "from": "0xb05a948b5c1b057b88d381bde3a375efea87ebad",
        "to": "0xa488ac456c7c5964af7d323b7ce795d02e7c5154",
        "gas": "0x2ac47",
        "value": "0x0",
        "input": "0x1f931c1c000000000000000000000000000000000000000000000000000000000000006000000000000000000000000037cfaf9b4e8f60fe47d0a5651213624af708f974000000000000000000000000000000000000000000000000000000000000020000000000000000000000000000000000000000000000000000000000000000010000000000000000000000000000000000000000000000000000000000000020000000000000000000000000c0bb97a881762d1c38aa250ef8f00714bb3a3a510000000000000000000000000000000000000000000000000000000000000003000000000000000000000000000000000000000000000000000000000000006000000000000000000000000000000000000000000000000000000000000000079a1f46e200000000000000000000000000000000000000000000000000000000b99b4370000000000000000000000000000000000000000000000000000000006871eb4d00000000000000000000000000000000000000000000000000000000a230c524000000000000000000000000000000000000000000000000000000000331383c0000000000000000000000000000000000000000000000000000000028c309e90000000000000000000000000000000000000000000000000000000060f8dd7e000000000000000000000000000000000000000000000000000000000000000000000000000000000000000000000000000000000000000000000004e1c7392a00000000000000000000000000000000000000000000000000000000",
        "nonce": "0x144c",
        "chainId": "0x66eee"
      },
      "additionalContracts": [],
      "isFixedGasLimit": false
    },
    {
      "hash": "0xc28637899a07ad030d8bdcb9ba54f6de9d8ad9ad5ef78f132416c504eb818521",
      "transactionType": "CALL",
      "contractName": "ERC1967Proxy",
      "contractAddress": "0xa502fffb9082700cad62366bc6ce37b15207680f",
      "function": null,
      "arguments": null,
      "transaction": {
        "from": "0xb05a948b5c1b057b88d381bde3a375efea87ebad",
        "to": "0xa502fffb9082700cad62366bc6ce37b15207680f",
        "gas": "0x2aaf8",
        "value": "0x0",
        "input": "0x1f931c1c000000000000000000000000000000000000000000000000000000000000006000000000000000000000000037cfaf9b4e8f60fe47d0a5651213624af708f974000000000000000000000000000000000000000000000000000000000000020000000000000000000000000000000000000000000000000000000000000000010000000000000000000000000000000000000000000000000000000000000020000000000000000000000000c0bb97a881762d1c38aa250ef8f00714bb3a3a510000000000000000000000000000000000000000000000000000000000000003000000000000000000000000000000000000000000000000000000000000006000000000000000000000000000000000000000000000000000000000000000079a1f46e200000000000000000000000000000000000000000000000000000000b99b4370000000000000000000000000000000000000000000000000000000006871eb4d00000000000000000000000000000000000000000000000000000000a230c524000000000000000000000000000000000000000000000000000000000331383c0000000000000000000000000000000000000000000000000000000028c309e90000000000000000000000000000000000000000000000000000000060f8dd7e000000000000000000000000000000000000000000000000000000000000000000000000000000000000000000000000000000000000000000000004e1c7392a00000000000000000000000000000000000000000000000000000000",
        "nonce": "0x144d",
        "chainId": "0x66eee"
      },
      "additionalContracts": [],
      "isFixedGasLimit": false
    },
    {
      "hash": "0xffa96424aaced2d5de627a1ac22f5d83cf8ecdbc2d5fe61078366fdbcbdc6df5",
      "transactionType": "CALL",
      "contractName": "ERC1967Proxy",
      "contractAddress": "0xb1f9ed8b752e81fcb0b9482e475c7035043f5994",
      "function": null,
      "arguments": null,
      "transaction": {
        "from": "0xb05a948b5c1b057b88d381bde3a375efea87ebad",
        "to": "0xb1f9ed8b752e81fcb0b9482e475c7035043f5994",
        "gas": "0x2aaf8",
        "value": "0x0",
        "input": "0x1f931c1c000000000000000000000000000000000000000000000000000000000000006000000000000000000000000037cfaf9b4e8f60fe47d0a5651213624af708f974000000000000000000000000000000000000000000000000000000000000020000000000000000000000000000000000000000000000000000000000000000010000000000000000000000000000000000000000000000000000000000000020000000000000000000000000c0bb97a881762d1c38aa250ef8f00714bb3a3a510000000000000000000000000000000000000000000000000000000000000003000000000000000000000000000000000000000000000000000000000000006000000000000000000000000000000000000000000000000000000000000000079a1f46e200000000000000000000000000000000000000000000000000000000b99b4370000000000000000000000000000000000000000000000000000000006871eb4d00000000000000000000000000000000000000000000000000000000a230c524000000000000000000000000000000000000000000000000000000000331383c0000000000000000000000000000000000000000000000000000000028c309e90000000000000000000000000000000000000000000000000000000060f8dd7e000000000000000000000000000000000000000000000000000000000000000000000000000000000000000000000000000000000000000000000004e1c7392a00000000000000000000000000000000000000000000000000000000",
        "nonce": "0x144e",
        "chainId": "0x66eee"
      },
      "additionalContracts": [],
      "isFixedGasLimit": false
    },
    {
      "hash": "0x3478a1998f038c4cd7880e59b5bcda9632aba8fa36d3220053680be698785a76",
      "transactionType": "CALL",
      "contractName": "ERC1967Proxy",
      "contractAddress": "0xbe7b830623707babc4b46ff73279c73e2d1bc177",
      "function": null,
      "arguments": null,
      "transaction": {
        "from": "0xb05a948b5c1b057b88d381bde3a375efea87ebad",
        "to": "0xbe7b830623707babc4b46ff73279c73e2d1bc177",
        "gas": "0x2ac47",
        "value": "0x0",
        "input": "0x1f931c1c000000000000000000000000000000000000000000000000000000000000006000000000000000000000000037cfaf9b4e8f60fe47d0a5651213624af708f974000000000000000000000000000000000000000000000000000000000000020000000000000000000000000000000000000000000000000000000000000000010000000000000000000000000000000000000000000000000000000000000020000000000000000000000000c0bb97a881762d1c38aa250ef8f00714bb3a3a510000000000000000000000000000000000000000000000000000000000000003000000000000000000000000000000000000000000000000000000000000006000000000000000000000000000000000000000000000000000000000000000079a1f46e200000000000000000000000000000000000000000000000000000000b99b4370000000000000000000000000000000000000000000000000000000006871eb4d00000000000000000000000000000000000000000000000000000000a230c524000000000000000000000000000000000000000000000000000000000331383c0000000000000000000000000000000000000000000000000000000028c309e90000000000000000000000000000000000000000000000000000000060f8dd7e000000000000000000000000000000000000000000000000000000000000000000000000000000000000000000000000000000000000000000000004e1c7392a00000000000000000000000000000000000000000000000000000000",
        "nonce": "0x144f",
        "chainId": "0x66eee"
      },
      "additionalContracts": [],
      "isFixedGasLimit": false
    },
    {
      "hash": "0x1bf5d4d1e433d0ee01461638be394350308f92de2562013d7efbba54c774bf5c",
      "transactionType": "CALL",
      "contractName": "ERC1967Proxy",
      "contractAddress": "0xc219730ec703c9525748c3b80184d57f1d57699b",
      "function": null,
      "arguments": null,
      "transaction": {
        "from": "0xb05a948b5c1b057b88d381bde3a375efea87ebad",
        "to": "0xc219730ec703c9525748c3b80184d57f1d57699b",
        "gas": "0x2aa69",
        "value": "0x0",
        "input": "0x1f931c1c000000000000000000000000000000000000000000000000000000000000006000000000000000000000000037cfaf9b4e8f60fe47d0a5651213624af708f974000000000000000000000000000000000000000000000000000000000000020000000000000000000000000000000000000000000000000000000000000000010000000000000000000000000000000000000000000000000000000000000020000000000000000000000000c0bb97a881762d1c38aa250ef8f00714bb3a3a510000000000000000000000000000000000000000000000000000000000000003000000000000000000000000000000000000000000000000000000000000006000000000000000000000000000000000000000000000000000000000000000079a1f46e200000000000000000000000000000000000000000000000000000000b99b4370000000000000000000000000000000000000000000000000000000006871eb4d00000000000000000000000000000000000000000000000000000000a230c524000000000000000000000000000000000000000000000000000000000331383c0000000000000000000000000000000000000000000000000000000028c309e90000000000000000000000000000000000000000000000000000000060f8dd7e000000000000000000000000000000000000000000000000000000000000000000000000000000000000000000000000000000000000000000000004e1c7392a00000000000000000000000000000000000000000000000000000000",
        "nonce": "0x1450",
        "chainId": "0x66eee"
      },
      "additionalContracts": [],
      "isFixedGasLimit": false
    },
    {
      "hash": "0x81dc6304161527a0f7359825979453a21a8caf19ec4c72d2dab0091c01e8908d",
      "transactionType": "CALL",
      "contractName": "ERC1967Proxy",
      "contractAddress": "0xf42f88c13804147b2fdda13c093ce14219aea395",
      "function": null,
      "arguments": null,
      "transaction": {
        "from": "0xb05a948b5c1b057b88d381bde3a375efea87ebad",
        "to": "0xf42f88c13804147b2fdda13c093ce14219aea395",
        "gas": "0x5d51f",
        "value": "0x0",
        "input": "0x90147c6b000000000000000000000000000000000000000000000000000000000000006000000000000000000000000037cfaf9b4e8f60fe47d0a5651213624af708f9740000000000000000000000000000000000000000000000000000000000000ae0000000000000000000000000000000000000000000000000000000000000000700000000000000000000000000000000000000000000000000000000000000e0000000000000000000000000000000000000000000000000000000000000020000000000000000000000000000000000000000000000000000000000000003a00000000000000000000000000000000000000000000000000000000000000500000000000000000000000000000000000000000000000000000000000000070000000000000000000000000000000000000000000000000000000000000007c0000000000000000000000000000000000000000000000000000000000000094000000000000000000000000033ec02c8584baa4276572e8473921ad0e70fa3390000000000000000000000000000000000000000000000000000000000000003000000000000000000000000000000000000000000000000000000000000006000000000000000000000000000000000000000000000000000000000000000057a0ed62700000000000000000000000000000000000000000000000000000000adfca15e0000000000000000000000000000000000000000000000000000000052ef6b2c00000000000000000000000000000000000000000000000000000000cdffacc60000000000000000000000000000000000000000000000000000000001ffc9a700000000000000000000000000000000000000000000000000000000000000000000000000000000ad575f813a5de14678778e077f2c13d4766662740000000000000000000000000000000000000000000000000000000000000003000000000000000000000000000000000000000000000000000000000000006000000000000000000000000000000000000000000000000000000000000000091b71f0e400000000000000000000000000000000000000000000000000000000b0d3713a000000000000000000000000000000000000000000000000000000000b03bb9a0000000000000000000000000000000000000000000000000000000031f61bca000000000000000000000000000000000000000000000000000000000d12bbdb00000000000000000000000000000000000000000000000000000000397e254300000000000000000000000000000000000000000000000000000000b5058c5000000000000000000000000000000000000000000000000000000000f2d774e700000000000000000000000000000000000000000000000000000000ebd7dc5200000000000000000000000000000000000000000000000000000000000000000000000000000000c0bb97a881762d1c38aa250ef8f00714bb3a3a510000000000000000000000000000000000000000000000000000000000000003000000000000000000000000000000000000000000000000000000000000006000000000000000000000000000000000000000000000000000000000000000079a1f46e200000000000000000000000000000000000000000000000000000000b99b4370000000000000000000000000000000000000000000000000000000006871eb4d00000000000000000000000000000000000000000000000000000000a230c524000000000000000000000000000000000000000000000000000000000331383c0000000000000000000000000000000000000000000000000000000028c309e90000000000000000000000000000000000000000000000000000000060f8dd7e000000000000000000000000000000000000000000000000000000000000000000000000000000001bba165f714467c17d5d333fa8e26553f422065200000000000000000000000000000000000000000000000000000000000000030000000000000000000000000000000000000000000000000000000000000060000000000000000000000000000000000000000000000000000000000000000c1add1a0d00000000000000000000000000000000000000000000000000000000222a3a0400000000000000000000000000000000000000000000000000000000adaf157b0000000000000000000000000000000000000000000000000000000060b4778900000000000000000000000000000000000000000000000000000000136439dd0000000000000000000000000000000000000000000000000000000080c4a65f000000000000000000000000000000000000000000000000000000003f4ba83a00000000000000000000000000000000000000000000000000000000bac1e94b00000000000000000000000000000000000000000000000000000000b187bd260000000000000000000000000000000000000000000000000000000009b65e6600000000000000000000000000000000000000000000000000000000da748b10000000000000000000000000000000000000000000000000000000002d2ebbef0000000000000000000000000000000000000000000000000000000000000000000000000000000044a054ea835d763b0b1e7dc1d9933cf4af8d39cd000000000000000000000000000000000000000000000000000000000000000300000000000000000000000000000000000000000000000000000000000000600000000000000000000000000000000000000000000000000000000000000002ce7e2cd30000000000000000000000000000000000000000000000000000000082b18ef400000000000000000000000000000000000000000000000000000000000000000000000000000000d6614418776b8861621b616abaf18bb2cf54d0430000000000000000000000000000000000000000000000000000000000000003000000000000000000000000000000000000000000000000000000000000006000000000000000000000000000000000000000000000000000000000000000080d4a8b490000000000000000000000000000000000000000000000000000000022bcf99900000000000000000000000000000000000000000000000000000000559de05d000000000000000000000000000000000000000000000000000000005ecf71c5000000000000000000000000000000000000000000000000000000007817ee4f000000000000000000000000000000000000000000000000000000002c611c4a00000000000000000000000000000000000000000000000000000000eb5cbe43000000000000000000000000000000000000000000000000000000006a6b9a6100000000000000000000000000000000000000000000000000000000000000000000000000000000ef6486e18a1fd18e6419e8a45937efaa7266ce7e00000000000000000000000000000000000000000000000000000000000000030000000000000000000000000000000000000000000000000000000000000060000000000000000000000000000000000000000000000000000000000000000582d6a1e700000000000000000000000000000000000000000000000000000000223e54790000000000000000000000000000000000000000000000000000000073265c3700000000000000000000000000000000000000000000000000000000175188e800000000000000000000000000000000000000000000000000000000fb1f6917000000000000000000000000000000000000000000000000000000000000000000000000000000000000000000000000000000000000000000000004e1c7392a00000000000000000000000000000000000000000000000000000000",
        "nonce": "0x1451",
        "chainId": "0x66eee"
      },
      "additionalContracts": [],
      "isFixedGasLimit": false
    }
  ],
  "receipts": [
    {
      "status": "0x1",
      "cumulativeGasUsed": "0x1f3e7",
      "logs": [
        {
          "address": "0x0418f78ec03c974ca5b88463f4a5da3e2333c4ab",
          "topics": [
            "0x8faa70878671ccd212d20771b795c50af8fd3ff6cf27f4bde57e5d4de0aeb673"
          ],
          "data": "0x000000000000000000000000000000000000000000000000000000000000006000000000000000000000000037cfaf9b4e8f60fe47d0a5651213624af708f974000000000000000000000000000000000000000000000000000000000000020000000000000000000000000000000000000000000000000000000000000000010000000000000000000000000000000000000000000000000000000000000020000000000000000000000000c0bb97a881762d1c38aa250ef8f00714bb3a3a510000000000000000000000000000000000000000000000000000000000000003000000000000000000000000000000000000000000000000000000000000006000000000000000000000000000000000000000000000000000000000000000079a1f46e200000000000000000000000000000000000000000000000000000000b99b4370000000000000000000000000000000000000000000000000000000006871eb4d00000000000000000000000000000000000000000000000000000000a230c524000000000000000000000000000000000000000000000000000000000331383c0000000000000000000000000000000000000000000000000000000028c309e90000000000000000000000000000000000000000000000000000000060f8dd7e000000000000000000000000000000000000000000000000000000000000000000000000000000000000000000000000000000000000000000000004e1c7392a00000000000000000000000000000000000000000000000000000000",
          "blockHash": "0xe40a531d892e6ee1e759b7ddb200b031427dda027cbd9795c8644632b3ff1db9",
          "blockNumber": "0x103e3dc3",
          "blockTimestamp": "0x6a1c6413",
          "transactionHash": "0xba9a590197a6fd4602458904d7ab6fa74612ee5c1575a4b97f483bbd49fb69e3",
          "transactionIndex": "0x1",
          "logIndex": "0x0",
          "removed": false
        }
      ],
      "logsBloom": "0x00000000000000000000000000000000000000000000000000000000000000000000000000000000000000000000000000000000000000000000000000000000000000000000000000000000000000000000000001000000000800000000000000000000000000000000000000020000000000000000000000000000000000000020000000000000000000000000000000000000000080000000000000000000000000000000000000000000000000000000000000000000000000000000000000000000000000000000000000000000000000000000000000000000000000000000000000000000000000000000000000000000000040000000000000000000",
      "type": "0x2",
      "transactionHash": "0xba9a590197a6fd4602458904d7ab6fa74612ee5c1575a4b97f483bbd49fb69e3",
      "transactionIndex": "0x1",
      "blockHash": "0xe40a531d892e6ee1e759b7ddb200b031427dda027cbd9795c8644632b3ff1db9",
      "blockNumber": "0x103e3dc3",
      "gasUsed": "0x1f3e7",
      "effectiveGasPrice": "0x132d2e0",
      "from": "0xb05a948b5c1b057b88d381bde3a375efea87ebad",
      "to": "0x0418f78ec03c974ca5b88463f4a5da3e2333c4ab",
      "contractAddress": null,
      "gasUsedForL1": "0x2d56",
      "l1BlockNumber": "0xa7457d",
      "timeboosted": false
    },
    {
      "status": "0x1",
      "cumulativeGasUsed": "0x1f244",
      "logs": [
        {
          "address": "0x0dce74cf0ccef1fff89469f3befc08806f8e4a3b",
          "topics": [
            "0x8faa70878671ccd212d20771b795c50af8fd3ff6cf27f4bde57e5d4de0aeb673"
          ],
          "data": "0x000000000000000000000000000000000000000000000000000000000000006000000000000000000000000037cfaf9b4e8f60fe47d0a5651213624af708f974000000000000000000000000000000000000000000000000000000000000020000000000000000000000000000000000000000000000000000000000000000010000000000000000000000000000000000000000000000000000000000000020000000000000000000000000c0bb97a881762d1c38aa250ef8f00714bb3a3a510000000000000000000000000000000000000000000000000000000000000003000000000000000000000000000000000000000000000000000000000000006000000000000000000000000000000000000000000000000000000000000000079a1f46e200000000000000000000000000000000000000000000000000000000b99b4370000000000000000000000000000000000000000000000000000000006871eb4d00000000000000000000000000000000000000000000000000000000a230c524000000000000000000000000000000000000000000000000000000000331383c0000000000000000000000000000000000000000000000000000000028c309e90000000000000000000000000000000000000000000000000000000060f8dd7e000000000000000000000000000000000000000000000000000000000000000000000000000000000000000000000000000000000000000000000004e1c7392a00000000000000000000000000000000000000000000000000000000",
          "blockHash": "0x844b487aff0f77e18196cc2d27210d74cdccd8e954d29f6e372614d909f35370",
          "blockNumber": "0x103e3dc5",
          "blockTimestamp": "0x6a1c6413",
          "transactionHash": "0x316dd177b3d92f8b0c1ebbca44fadde817315c335d383b36b08e1fa68b23ce75",
          "transactionIndex": "0x1",
          "logIndex": "0x0",
          "removed": false
        }
      ],
      "logsBloom": "0x00000000000000000000000000000000000000000000000000000000000000000000000000000000000000000000000000000000000000000000000000000000000000000000000000000000000000000000000001000000000800000000000000000000000000000000000000000000000000000000000000000000000000000020000000000000000000000000000000000000000000000000000000000000000000000800000000000100000000000000000000000000000000000000000000000000000000000000000000000000000000000000000000000000000000000000000000000000000000000000080000000000000000000000000000000000",
      "type": "0x2",
      "transactionHash": "0x316dd177b3d92f8b0c1ebbca44fadde817315c335d383b36b08e1fa68b23ce75",
      "transactionIndex": "0x1",
      "blockHash": "0x844b487aff0f77e18196cc2d27210d74cdccd8e954d29f6e372614d909f35370",
      "blockNumber": "0x103e3dc5",
      "gasUsed": "0x1f244",
      "effectiveGasPrice": "0x142c100",
      "from": "0xb05a948b5c1b057b88d381bde3a375efea87ebad",
      "to": "0x0dce74cf0ccef1fff89469f3befc08806f8e4a3b",
      "contractAddress": null,
      "gasUsedForL1": "0x2bb3",
      "l1BlockNumber": "0xa7457d",
      "timeboosted": false
    },
    {
      "status": "0x1",
      "cumulativeGasUsed": "0x55ef8d",
      "logs": [
        {
          "address": "0x16a8d4fc921b8b1cc8729f4da72745e950499296",
          "topics": [
            "0x8faa70878671ccd212d20771b795c50af8fd3ff6cf27f4bde57e5d4de0aeb673"
          ],
          "data": "0x000000000000000000000000000000000000000000000000000000000000006000000000000000000000000037cfaf9b4e8f60fe47d0a5651213624af708f974000000000000000000000000000000000000000000000000000000000000020000000000000000000000000000000000000000000000000000000000000000010000000000000000000000000000000000000000000000000000000000000020000000000000000000000000c0bb97a881762d1c38aa250ef8f00714bb3a3a510000000000000000000000000000000000000000000000000000000000000003000000000000000000000000000000000000000000000000000000000000006000000000000000000000000000000000000000000000000000000000000000079a1f46e200000000000000000000000000000000000000000000000000000000b99b4370000000000000000000000000000000000000000000000000000000006871eb4d00000000000000000000000000000000000000000000000000000000a230c524000000000000000000000000000000000000000000000000000000000331383c0000000000000000000000000000000000000000000000000000000028c309e90000000000000000000000000000000000000000000000000000000060f8dd7e000000000000000000000000000000000000000000000000000000000000000000000000000000000000000000000000000000000000000000000004e1c7392a00000000000000000000000000000000000000000000000000000000",
          "blockHash": "0x411b215d4a7929467471db88aee137336433c80318cc295ed7c5b6bdd61887f1",
          "blockNumber": "0x103e3dc7",
          "blockTimestamp": "0x6a1c6414",
          "transactionHash": "0x8c8393cf4aed18aa7fc4aa14994ff523a43bbc5eb8ccc24ab465a86ba32b71bc",
          "transactionIndex": "0x2",
          "logIndex": "0x3e",
          "removed": false
        }
      ],
      "logsBloom": "0x00000000000000000000001000000000000000000000000000000000000000000000000000000000000000000000000000000000000000000000000000000000000000000000000000000000000000000000000001000000000800000000000000000000000000000000000000100000000000000000000000000000000000000020000000000000000000000000000000800000000000000000000000000000000000000000000000000000000000000000000000000000000000000000000000000000000000000000000000000000000000000000000000000000000000000000000000000000000000000000000000000000000000000000000000000000",
      "type": "0x2",
      "transactionHash": "0x8c8393cf4aed18aa7fc4aa14994ff523a43bbc5eb8ccc24ab465a86ba32b71bc",
      "transactionIndex": "0x2",
      "blockHash": "0x411b215d4a7929467471db88aee137336433c80318cc295ed7c5b6bdd61887f1",
      "blockNumber": "0x103e3dc7",
      "gasUsed": "0x1f49f",
      "effectiveGasPrice": "0x132f9f0",
      "from": "0xb05a948b5c1b057b88d381bde3a375efea87ebad",
      "to": "0x16a8d4fc921b8b1cc8729f4da72745e950499296",
      "contractAddress": null,
      "gasUsedForL1": "0x2df2",
      "l1BlockNumber": "0xa7457d",
      "timeboosted": false
    },
    {
      "status": "0x1",
      "cumulativeGasUsed": "0x1f2f5",
      "logs": [
        {
          "address": "0x2f8a9454de2e74bc9a0761703b3f7da0470b1e56",
          "topics": [
            "0x8faa70878671ccd212d20771b795c50af8fd3ff6cf27f4bde57e5d4de0aeb673"
          ],
          "data": "0x000000000000000000000000000000000000000000000000000000000000006000000000000000000000000037cfaf9b4e8f60fe47d0a5651213624af708f974000000000000000000000000000000000000000000000000000000000000020000000000000000000000000000000000000000000000000000000000000000010000000000000000000000000000000000000000000000000000000000000020000000000000000000000000c0bb97a881762d1c38aa250ef8f00714bb3a3a510000000000000000000000000000000000000000000000000000000000000003000000000000000000000000000000000000000000000000000000000000006000000000000000000000000000000000000000000000000000000000000000079a1f46e200000000000000000000000000000000000000000000000000000000b99b4370000000000000000000000000000000000000000000000000000000006871eb4d00000000000000000000000000000000000000000000000000000000a230c524000000000000000000000000000000000000000000000000000000000331383c0000000000000000000000000000000000000000000000000000000028c309e90000000000000000000000000000000000000000000000000000000060f8dd7e000000000000000000000000000000000000000000000000000000000000000000000000000000000000000000000000000000000000000000000004e1c7392a00000000000000000000000000000000000000000000000000000000",
          "blockHash": "0xb204513562ae5191b4c71e0b5ff607ac453357acfdb3de35d9522b4c6f99b0df",
          "blockNumber": "0x103e3dc9",
          "blockTimestamp": "0x6a1c6414",
          "transactionHash": "0x59cf8b0ec159e38dbc2101319a8f39c9c7b0eb44b7a6ef7f7fdbd091e41e6bed",
          "transactionIndex": "0x1",
          "logIndex": "0x0",
          "removed": false
        }
      ],
      "logsBloom": "0x00000000000000000000000000000000000000000000000000000000000000000000000000000000000000000000000008000000000000000000000000000000000000000000000000000000000000000000000001000000000800000000000000000000000000000000000000000000000000000000000000000000000000000020000000000000000000000000000000000000000000000000000000000000000000000000000000000000100000000000000000000000000000000000000000000000000000000000000000000000000000000000000400000000000000000000000000000000000000000000000000000000000000000000000000000000",
      "type": "0x2",
      "transactionHash": "0x59cf8b0ec159e38dbc2101319a8f39c9c7b0eb44b7a6ef7f7fdbd091e41e6bed",
      "transactionIndex": "0x1",
      "blockHash": "0xb204513562ae5191b4c71e0b5ff607ac453357acfdb3de35d9522b4c6f99b0df",
      "blockNumber": "0x103e3dc9",
      "gasUsed": "0x1f2f5",
      "effectiveGasPrice": "0x1387830",
      "from": "0xb05a948b5c1b057b88d381bde3a375efea87ebad",
      "to": "0x2f8a9454de2e74bc9a0761703b3f7da0470b1e56",
      "contractAddress": null,
      "gasUsedForL1": "0x2c64",
      "l1BlockNumber": "0xa7457d",
      "timeboosted": false
    },
    {
      "status": "0x1",
      "cumulativeGasUsed": "0x23793f",
      "logs": [
        {
          "address": "0x8036ac3d1685e3603b8a0418e7e1ee033b794485",
          "topics": [
            "0x8faa70878671ccd212d20771b795c50af8fd3ff6cf27f4bde57e5d4de0aeb673"
          ],
          "data": "0x000000000000000000000000000000000000000000000000000000000000006000000000000000000000000037cfaf9b4e8f60fe47d0a5651213624af708f974000000000000000000000000000000000000000000000000000000000000020000000000000000000000000000000000000000000000000000000000000000010000000000000000000000000000000000000000000000000000000000000020000000000000000000000000c0bb97a881762d1c38aa250ef8f00714bb3a3a510000000000000000000000000000000000000000000000000000000000000003000000000000000000000000000000000000000000000000000000000000006000000000000000000000000000000000000000000000000000000000000000079a1f46e200000000000000000000000000000000000000000000000000000000b99b4370000000000000000000000000000000000000000000000000000000006871eb4d00000000000000000000000000000000000000000000000000000000a230c524000000000000000000000000000000000000000000000000000000000331383c0000000000000000000000000000000000000000000000000000000028c309e90000000000000000000000000000000000000000000000000000000060f8dd7e000000000000000000000000000000000000000000000000000000000000000000000000000000000000000000000000000000000000000000000004e1c7392a00000000000000000000000000000000000000000000000000000000",
          "blockHash": "0x3513ec26093162af79b87ec8c4ea9dd9330a9602ba053683f0e980264f6c87af",
          "blockNumber": "0x103e3dcb",
          "blockTimestamp": "0x6a1c6415",
          "transactionHash": "0xf3b1f3b9b7c000f723bef301dd8137dd666cfff268afbdb7ea6d9808f493ea0e",
          "transactionIndex": "0x2",
          "logIndex": "0x3e",
          "removed": false
        }
      ],
      "logsBloom": "0x00000000000000000000000000000000000000002000000000000000000000000000000000000000000000000000000000000000000000000000000000000000000000000000000000000000000000000000000001000000000800000000000000000000000000000000000000000000000000000000000000000000000000000020000000000000000000000000000000000000000000000000000000000000000000000000000000000000000000000000000000000000000000000000000000000000000000000000000000000000000000000000040000000000000000000000000000000000000000000000000000000000000000000000000200000000",
      "type": "0x2",
      "transactionHash": "0xf3b1f3b9b7c000f723bef301dd8137dd666cfff268afbdb7ea6d9808f493ea0e",
      "transactionIndex": "0x2",
      "blockHash": "0x3513ec26093162af79b87ec8c4ea9dd9330a9602ba053683f0e980264f6c87af",
      "blockNumber": "0x103e3dcb",
      "gasUsed": "0x1f50d",
      "effectiveGasPrice": "0x132a400",
      "from": "0xb05a948b5c1b057b88d381bde3a375efea87ebad",
      "to": "0x8036ac3d1685e3603b8a0418e7e1ee033b794485",
      "contractAddress": null,
      "gasUsedForL1": "0x2e60",
      "l1BlockNumber": "0xa7457d",
      "timeboosted": false
    },
    {
      "status": "0x1",
      "cumulativeGasUsed": "0x1f3c8",
      "logs": [
        {
          "address": "0x88efb94f3c0ac2d31efcede444264caf8d594ab8",
          "topics": [
            "0x8faa70878671ccd212d20771b795c50af8fd3ff6cf27f4bde57e5d4de0aeb673"
          ],
          "data": "0x000000000000000000000000000000000000000000000000000000000000006000000000000000000000000037cfaf9b4e8f60fe47d0a5651213624af708f974000000000000000000000000000000000000000000000000000000000000020000000000000000000000000000000000000000000000000000000000000000010000000000000000000000000000000000000000000000000000000000000020000000000000000000000000c0bb97a881762d1c38aa250ef8f00714bb3a3a510000000000000000000000000000000000000000000000000000000000000003000000000000000000000000000000000000000000000000000000000000006000000000000000000000000000000000000000000000000000000000000000079a1f46e200000000000000000000000000000000000000000000000000000000b99b4370000000000000000000000000000000000000000000000000000000006871eb4d00000000000000000000000000000000000000000000000000000000a230c524000000000000000000000000000000000000000000000000000000000331383c0000000000000000000000000000000000000000000000000000000028c309e90000000000000000000000000000000000000000000000000000000060f8dd7e000000000000000000000000000000000000000000000000000000000000000000000000000000000000000000000000000000000000000000000004e1c7392a00000000000000000000000000000000000000000000000000000000",
          "blockHash": "0xb367fb0900ce4b15eb9c52d97354a0af326465bd5731673056ec5ba5113274c4",
          "blockNumber": "0x103e3dcd",
          "blockTimestamp": "0x6a1c6415",
          "transactionHash": "0x6efacc2a8522e386bc22cbd01915354504e3a5c031ef06e3feff7653ca428795",
          "transactionIndex": "0x1",
          "logIndex": "0x0",
          "removed": false
        }
      ],
      "logsBloom": "0x00000000000000000000000000000000000000000000000000000000000000000000000000000000000000000000000000000000000000000000000000000000000000000000000000000000000000000000000001000000000800000000000000000000000000000000000000000000000000000000000000000000000000000220000000000000000000000000800000000000000000000000000000000000000000000000000000000000000000000010000000000000000000000000000000000000000000000000000000000000000000000000000000000000000000000000000000000000000000000000000000000000000000000000000000000000",
      "type": "0x2",
      "transactionHash": "0x6efacc2a8522e386bc22cbd01915354504e3a5c031ef06e3feff7653ca428795",
      "transactionIndex": "0x1",
      "blockHash": "0xb367fb0900ce4b15eb9c52d97354a0af326465bd5731673056ec5ba5113274c4",
      "blockNumber": "0x103e3dcd",
      "gasUsed": "0x1f3c8",
      "effectiveGasPrice": "0x1361ea0",
      "from": "0xb05a948b5c1b057b88d381bde3a375efea87ebad",
      "to": "0x88efb94f3c0ac2d31efcede444264caf8d594ab8",
      "contractAddress": null,
      "gasUsedForL1": "0x2d1b",
      "l1BlockNumber": "0xa7457d",
      "timeboosted": false
    },
    {
      "status": "0x1",
      "cumulativeGasUsed": "0x4646f5",
      "logs": [
        {
          "address": "0x8b8732dac9c30ac89bf660b99fb90000d826ab83",
          "topics": [
            "0x8faa70878671ccd212d20771b795c50af8fd3ff6cf27f4bde57e5d4de0aeb673"
          ],
          "data": "0x000000000000000000000000000000000000000000000000000000000000006000000000000000000000000037cfaf9b4e8f60fe47d0a5651213624af708f974000000000000000000000000000000000000000000000000000000000000020000000000000000000000000000000000000000000000000000000000000000010000000000000000000000000000000000000000000000000000000000000020000000000000000000000000c0bb97a881762d1c38aa250ef8f00714bb3a3a510000000000000000000000000000000000000000000000000000000000000003000000000000000000000000000000000000000000000000000000000000006000000000000000000000000000000000000000000000000000000000000000079a1f46e200000000000000000000000000000000000000000000000000000000b99b4370000000000000000000000000000000000000000000000000000000006871eb4d00000000000000000000000000000000000000000000000000000000a230c524000000000000000000000000000000000000000000000000000000000331383c0000000000000000000000000000000000000000000000000000000028c309e90000000000000000000000000000000000000000000000000000000060f8dd7e000000000000000000000000000000000000000000000000000000000000000000000000000000000000000000000000000000000000000000000004e1c7392a00000000000000000000000000000000000000000000000000000000",
          "blockHash": "0x2dfb5bf72dc797ad7be003c6859fdb9c74092f0157e9689302e39a5d4e52d42b",
          "blockNumber": "0x103e3dce",
          "blockTimestamp": "0x6a1c6416",
          "transactionHash": "0x86ea2edf38b4578d9eee6a1397ad47d7d94258b09b2a13f2099a3744eed769ed",
          "transactionIndex": "0x6",
          "logIndex": "0x43",
          "removed": false
        }
      ],
      "logsBloom": "0x00000000000000000000000000000000000000000000000000000000000000000000000100000000000000000000000000000000000000000000000000000000000000000000000000000000000000000000000001000000000800000000000000000000000200000000000000000000000000000000000000000000000000000020000000000000000000000000000000000000000000000000000000000000000000000000000000000000000000000000000000000000000000000000000000000000800000000000000000000000000000000000000000000000000000000000000000000000000000000000000000000000000000000000000000000000",
      "type": "0x2",
      "transactionHash": "0x86ea2edf38b4578d9eee6a1397ad47d7d94258b09b2a13f2099a3744eed769ed",
      "transactionIndex": "0x6",
      "blockHash": "0x2dfb5bf72dc797ad7be003c6859fdb9c74092f0157e9689302e39a5d4e52d42b",
      "blockNumber": "0x103e3dce",
      "gasUsed": "0x1f43d",
      "effectiveGasPrice": "0x1368430",
      "from": "0xb05a948b5c1b057b88d381bde3a375efea87ebad",
      "to": "0x8b8732dac9c30ac89bf660b99fb90000d826ab83",
      "contractAddress": null,
      "gasUsedForL1": "0x2dac",
      "l1BlockNumber": "0xa7457d",
      "timeboosted": false
    },
    {
      "status": "0x1",
      "cumulativeGasUsed": "0x1f3d3",
      "logs": [
        {
          "address": "0xa488ac456c7c5964af7d323b7ce795d02e7c5154",
          "topics": [
            "0x8faa70878671ccd212d20771b795c50af8fd3ff6cf27f4bde57e5d4de0aeb673"
          ],
          "data": "0x000000000000000000000000000000000000000000000000000000000000006000000000000000000000000037cfaf9b4e8f60fe47d0a5651213624af708f974000000000000000000000000000000000000000000000000000000000000020000000000000000000000000000000000000000000000000000000000000000010000000000000000000000000000000000000000000000000000000000000020000000000000000000000000c0bb97a881762d1c38aa250ef8f00714bb3a3a510000000000000000000000000000000000000000000000000000000000000003000000000000000000000000000000000000000000000000000000000000006000000000000000000000000000000000000000000000000000000000000000079a1f46e200000000000000000000000000000000000000000000000000000000b99b4370000000000000000000000000000000000000000000000000000000006871eb4d00000000000000000000000000000000000000000000000000000000a230c524000000000000000000000000000000000000000000000000000000000331383c0000000000000000000000000000000000000000000000000000000028c309e90000000000000000000000000000000000000000000000000000000060f8dd7e000000000000000000000000000000000000000000000000000000000000000000000000000000000000000000000000000000000000000000000004e1c7392a00000000000000000000000000000000000000000000000000000000",
          "blockHash": "0x37f3439b0232867043bfc7ad97c8742dbb2145943bf2eff646f02f9d589fc5a8",
          "blockNumber": "0x103e3dd0",
          "blockTimestamp": "0x6a1c6416",
          "transactionHash": "0x525003841f9176b6d8ecb6a641ebf1a2da7b408e9ce6f9a3f1bb96ca6f1b771a",
          "transactionIndex": "0x1",
          "logIndex": "0x0",
          "removed": false
        }
      ],
      "logsBloom": "0x00000000000000000000000000000000001000000000000000000000000000000000000000000000000000000000000000000000000000000000000000000000000000000000000000000000000000000000000001000000000800000000000000000000000000000000000000000000000000000000000000000000000000000020000000000000000000000000000000000000000000000000000000000000000000000000000000000000000000000000000000000000000000000000000000000000000000000000000000000000000000000000000000000000000000000020000000000000000000000000000010000000000000000000000000000000",
      "type": "0x2",
      "transactionHash": "0x525003841f9176b6d8ecb6a641ebf1a2da7b408e9ce6f9a3f1bb96ca6f1b771a",
      "transactionIndex": "0x1",
      "blockHash": "0x37f3439b0232867043bfc7ad97c8742dbb2145943bf2eff646f02f9d589fc5a8",
      "blockNumber": "0x103e3dd0",
      "gasUsed": "0x1f3d3",
      "effectiveGasPrice": "0x1351500",
      "from": "0xb05a948b5c1b057b88d381bde3a375efea87ebad",
      "to": "0xa488ac456c7c5964af7d323b7ce795d02e7c5154",
      "contractAddress": null,
      "gasUsedForL1": "0x2d42",
      "l1BlockNumber": "0xa7457d",
      "timeboosted": false
    },
    {
      "status": "0x1",
      "cumulativeGasUsed": "0x1f3e9",
      "logs": [
        {
          "address": "0xa502fffb9082700cad62366bc6ce37b15207680f",
          "topics": [
            "0x8faa70878671ccd212d20771b795c50af8fd3ff6cf27f4bde57e5d4de0aeb673"
          ],
          "data": "0x000000000000000000000000000000000000000000000000000000000000006000000000000000000000000037cfaf9b4e8f60fe47d0a5651213624af708f974000000000000000000000000000000000000000000000000000000000000020000000000000000000000000000000000000000000000000000000000000000010000000000000000000000000000000000000000000000000000000000000020000000000000000000000000c0bb97a881762d1c38aa250ef8f00714bb3a3a510000000000000000000000000000000000000000000000000000000000000003000000000000000000000000000000000000000000000000000000000000006000000000000000000000000000000000000000000000000000000000000000079a1f46e200000000000000000000000000000000000000000000000000000000b99b4370000000000000000000000000000000000000000000000000000000006871eb4d00000000000000000000000000000000000000000000000000000000a230c524000000000000000000000000000000000000000000000000000000000331383c0000000000000000000000000000000000000000000000000000000028c309e90000000000000000000000000000000000000000000000000000000060f8dd7e000000000000000000000000000000000000000000000000000000000000000000000000000000000000000000000000000000000000000000000004e1c7392a00000000000000000000000000000000000000000000000000000000",
          "blockHash": "0x89d427c9b178995b3494e5b2dca62750113a331f4173ad0ba9735bcda0c13e83",
          "blockNumber": "0x103e3dd2",
          "blockTimestamp": "0x6a1c6417",
          "transactionHash": "0xc28637899a07ad030d8bdcb9ba54f6de9d8ad9ad5ef78f132416c504eb818521",
          "transactionIndex": "0x1",
          "logIndex": "0x0",
          "removed": false
        }
      ],
      "logsBloom": "0x00000000000000000000000000000000000000000000000000000000000000000000000000000000000000000000000000000000000000100000000000000000000000000000000000000000000000000000000001000000000800000000000000000000000000000000000000000000000000000000000000000000000000000020000000000000000000000000000000000000000000000000000000000000000000000000008000000000000000000000000000000000000000000000000000000000000000020000000000000000000000000000000000000000000000000000000000000000000000000000000000000000000000000000000000000000",
      "type": "0x2",
      "transactionHash": "0xc28637899a07ad030d8bdcb9ba54f6de9d8ad9ad5ef78f132416c504eb818521",
      "transactionIndex": "0x1",
      "blockHash": "0x89d427c9b178995b3494e5b2dca62750113a331f4173ad0ba9735bcda0c13e83",
      "blockNumber": "0x103e3dd2",
      "gasUsed": "0x1f3e9",
      "effectiveGasPrice": "0x1363610",
      "from": "0xb05a948b5c1b057b88d381bde3a375efea87ebad",
      "to": "0xa502fffb9082700cad62366bc6ce37b15207680f",
      "contractAddress": null,
      "gasUsedForL1": "0x2d58",
      "l1BlockNumber": "0xa7457d",
      "timeboosted": false
    },
    {
      "status": "0x1",
      "cumulativeGasUsed": "0x1f3c3",
      "logs": [
        {
          "address": "0xb1f9ed8b752e81fcb0b9482e475c7035043f5994",
          "topics": [
            "0x8faa70878671ccd212d20771b795c50af8fd3ff6cf27f4bde57e5d4de0aeb673"
          ],
          "data": "0x000000000000000000000000000000000000000000000000000000000000006000000000000000000000000037cfaf9b4e8f60fe47d0a5651213624af708f974000000000000000000000000000000000000000000000000000000000000020000000000000000000000000000000000000000000000000000000000000000010000000000000000000000000000000000000000000000000000000000000020000000000000000000000000c0bb97a881762d1c38aa250ef8f00714bb3a3a510000000000000000000000000000000000000000000000000000000000000003000000000000000000000000000000000000000000000000000000000000006000000000000000000000000000000000000000000000000000000000000000079a1f46e200000000000000000000000000000000000000000000000000000000b99b4370000000000000000000000000000000000000000000000000000000006871eb4d00000000000000000000000000000000000000000000000000000000a230c524000000000000000000000000000000000000000000000000000000000331383c0000000000000000000000000000000000000000000000000000000028c309e90000000000000000000000000000000000000000000000000000000060f8dd7e000000000000000000000000000000000000000000000000000000000000000000000000000000000000000000000000000000000000000000000004e1c7392a00000000000000000000000000000000000000000000000000000000",
          "blockHash": "0x52d02f18e7b9ccbee21d6bb9f0188cab8711f54697356db9377c54938ae2b59d",
          "blockNumber": "0x103e3dd4",
          "blockTimestamp": "0x6a1c6417",
          "transactionHash": "0xffa96424aaced2d5de627a1ac22f5d83cf8ecdbc2d5fe61078366fdbcbdc6df5",
          "transactionIndex": "0x1",
          "logIndex": "0x0",
          "removed": false
        }
      ],
      "logsBloom": "0x00000000000000000000000000000000000000000000000000000000000000000000000000000000000000000000000000000000000000000000000000000000002000000000000000000000000000000000000001000000000800000000000000000000080000000000000000000000000000000000000000000000000000000020000000000000000000000000000000000000000000000000000000000000000000000000000000000000000000000000000000000000000000000000000000000000000000000000000000000000000000000000000000000000000000000000000000000000000000000000000000000000000000000001000000000000",
      "type": "0x2",
      "transactionHash": "0xffa96424aaced2d5de627a1ac22f5d83cf8ecdbc2d5fe61078366fdbcbdc6df5",
      "transactionIndex": "0x1",
      "blockHash": "0x52d02f18e7b9ccbee21d6bb9f0188cab8711f54697356db9377c54938ae2b59d",
      "blockNumber": "0x103e3dd4",
      "gasUsed": "0x1f3c3",
      "effectiveGasPrice": "0x132ea50",
      "from": "0xb05a948b5c1b057b88d381bde3a375efea87ebad",
      "to": "0xb1f9ed8b752e81fcb0b9482e475c7035043f5994",
      "contractAddress": null,
      "gasUsedForL1": "0x2d32",
      "l1BlockNumber": "0xa7457d",
      "timeboosted": false
    },
    {
      "status": "0x1",
      "cumulativeGasUsed": "0x34fffd",
      "logs": [
        {
          "address": "0xbe7b830623707babc4b46ff73279c73e2d1bc177",
          "topics": [
            "0x8faa70878671ccd212d20771b795c50af8fd3ff6cf27f4bde57e5d4de0aeb673"
          ],
          "data": "0x000000000000000000000000000000000000000000000000000000000000006000000000000000000000000037cfaf9b4e8f60fe47d0a5651213624af708f974000000000000000000000000000000000000000000000000000000000000020000000000000000000000000000000000000000000000000000000000000000010000000000000000000000000000000000000000000000000000000000000020000000000000000000000000c0bb97a881762d1c38aa250ef8f00714bb3a3a510000000000000000000000000000000000000000000000000000000000000003000000000000000000000000000000000000000000000000000000000000006000000000000000000000000000000000000000000000000000000000000000079a1f46e200000000000000000000000000000000000000000000000000000000b99b4370000000000000000000000000000000000000000000000000000000006871eb4d00000000000000000000000000000000000000000000000000000000a230c524000000000000000000000000000000000000000000000000000000000331383c0000000000000000000000000000000000000000000000000000000028c309e90000000000000000000000000000000000000000000000000000000060f8dd7e000000000000000000000000000000000000000000000000000000000000000000000000000000000000000000000000000000000000000000000004e1c7392a00000000000000000000000000000000000000000000000000000000",
          "blockHash": "0x59b4edc522ad54ab71a46c4598b1f7a3a262da6f4ec17f10f171e5a509745e31",
          "blockNumber": "0x103e3dd6",
          "blockTimestamp": "0x6a1c6418",
          "transactionHash": "0x3478a1998f038c4cd7880e59b5bcda9632aba8fa36d3220053680be698785a76",
          "transactionIndex": "0x3",
          "logIndex": "0x2",
          "removed": false
        }
      ],
      "logsBloom": "0x00000000000000000000000000000000000000000000000000000000000000000000000000000000000000000000000000000000000000000000000040000000000000000000000000000000000000000000000001000000000800100000000000000000000000200000000000000000000000000000000000000000000000000020000000000000000000000000000000000000000000000000000000000000000000000000000000000000000000000000000000000000000000000000000000000000000000000000000000000000000000000000000000000000000000000000000000000000000000000000000000000000000000000000000000000000",
      "type": "0x2",
      "transactionHash": "0x3478a1998f038c4cd7880e59b5bcda9632aba8fa36d3220053680be698785a76",
      "transactionIndex": "0x3",
      "blockHash": "0x59b4edc522ad54ab71a46c4598b1f7a3a262da6f4ec17f10f171e5a509745e31",
      "blockNumber": "0x103e3dd6",
      "gasUsed": "0x1f3fc",
      "effectiveGasPrice": "0x133fbc0",
      "from": "0xb05a948b5c1b057b88d381bde3a375efea87ebad",
      "to": "0xbe7b830623707babc4b46ff73279c73e2d1bc177",
      "contractAddress": null,
      "gasUsedForL1": "0x2d6b",
      "l1BlockNumber": "0xa7457d",
      "timeboosted": false
    },
    {
      "status": "0x1",
      "cumulativeGasUsed": "0x1f423",
      "logs": [
        {
          "address": "0xc219730ec703c9525748c3b80184d57f1d57699b",
          "topics": [
            "0x8faa70878671ccd212d20771b795c50af8fd3ff6cf27f4bde57e5d4de0aeb673"
          ],
          "data": "0x000000000000000000000000000000000000000000000000000000000000006000000000000000000000000037cfaf9b4e8f60fe47d0a5651213624af708f974000000000000000000000000000000000000000000000000000000000000020000000000000000000000000000000000000000000000000000000000000000010000000000000000000000000000000000000000000000000000000000000020000000000000000000000000c0bb97a881762d1c38aa250ef8f00714bb3a3a510000000000000000000000000000000000000000000000000000000000000003000000000000000000000000000000000000000000000000000000000000006000000000000000000000000000000000000000000000000000000000000000079a1f46e200000000000000000000000000000000000000000000000000000000b99b4370000000000000000000000000000000000000000000000000000000006871eb4d00000000000000000000000000000000000000000000000000000000a230c524000000000000000000000000000000000000000000000000000000000331383c0000000000000000000000000000000000000000000000000000000028c309e90000000000000000000000000000000000000000000000000000000060f8dd7e000000000000000000000000000000000000000000000000000000000000000000000000000000000000000000000000000000000000000000000004e1c7392a00000000000000000000000000000000000000000000000000000000",
          "blockHash": "0x3e63e146ed9573d3b8cbe2202c9ec756e647499df857109fac009095adf568b5",
          "blockNumber": "0x103e3dd8",
          "blockTimestamp": "0x6a1c6418",
          "transactionHash": "0x1bf5d4d1e433d0ee01461638be394350308f92de2562013d7efbba54c774bf5c",
          "transactionIndex": "0x1",
          "logIndex": "0x0",
          "removed": false
        }
      ],
      "logsBloom": "0x00001000000000000000000000000000000000000000000000000000000000000000000000000000000000000000000000000000000000000000000000000000000000000000000000000000000000000000000001000000000800000000000000000000000000000000000000000000000000020000000000000000000000000020000000000000000000000000000000000000000000000000000000000000000000000000000000000000000000000000000000000000000000000000000000000000000000000000000000000000000000000000000000000000000000000000000000000000000000000000000000000000000000000000000000800000",
      "type": "0x2",
      "transactionHash": "0x1bf5d4d1e433d0ee01461638be394350308f92de2562013d7efbba54c774bf5c",
      "transactionIndex": "0x1",
      "blockHash": "0x3e63e146ed9573d3b8cbe2202c9ec756e647499df857109fac009095adf568b5",
      "blockNumber": "0x103e3dd8",
      "gasUsed": "0x1f423",
      "effectiveGasPrice": "0x134a7a0",
      "from": "0xb05a948b5c1b057b88d381bde3a375efea87ebad",
      "to": "0xc219730ec703c9525748c3b80184d57f1d57699b",
      "contractAddress": null,
      "gasUsedForL1": "0x2d92",
      "l1BlockNumber": "0xa7457d",
      "timeboosted": false
    },
    {
      "status": "0x1",
      "cumulativeGasUsed": "0x3fa24",
      "logs": [],
      "logsBloom": "0x00000000000000000000000000000000000000000000000000000000000000000000000000000000000000000000000000000000000000000000000000000000000000000000000000000000000000000000000000000000000000000000000000000000000000000000000000000000000000000000000000000000000000000000000000000000000000000000000000000000000000000000000000000000000000000000000000000000000000000000000000000000000000000000000000000000000000000000000000000000000000000000000000000000000000000000000000000000000000000000000000000000000000000000000000000000",
      "type": "0x2",
      "transactionHash": "0x81dc6304161527a0f7359825979453a21a8caf19ec4c72d2dab0091c01e8908d",
      "transactionIndex": "0x2",
      "blockHash": "0xbb8afa8b3d6ad717362ccb9e2d2ac8e87377ad8c6c7ad356a8420c074615e7d2",
      "blockNumber": "0x103e3dde",
      "gasUsed": "0x398de",
      "effectiveGasPrice": "0x1346920",
      "from": "0xb05a948b5c1b057b88d381bde3a375efea87ebad",
      "to": "0xf42f88c13804147b2fdda13c093ce14219aea395",
      "contractAddress": null,
      "gasUsedForL1": "0x664d",
      "l1BlockNumber": "0xa7457d",
      "timeboosted": false
    }
  ],
  "libraries": [
    "pkg/contracts/src/CVStrategy/ConvictionsUtils.sol:ConvictionsUtils:0x36EAc4Ca8389E35D66978e94c811F959e5A158f2",
    "pkg/contracts/src/CVStrategy/PowerManagementUtils.sol:PowerManagementUtils:0xB07d76F6001Cc62739d39cb0C5E9c58E08230486"
  ],
  "pending": [],
  "returns": {},
  "timestamp": 1780245530440,
  "chain": 421614,
  "commit": "4bc7b8d39"
}