{
  "transactions": [
    {
      "hash": null,
      "transactionType": "CALL",
      "contractName": "ERC1967Proxy",
      "contractAddress": "0x0418f78ec03c974ca5b88463f4a5da3e2333c4ab",
      "function": null,
      "arguments": null,
      "transaction": {
        "from": "0xb05a948b5c1b057b88d381bde3a375efea87ebad",
        "to": "0x0418f78ec03c974ca5b88463f4a5da3e2333c4ab",
        "gas": "0x2abe9",
        "value": "0x0",
        "input": "0x1f931c1c000000000000000000000000000000000000000000000000000000000000006000000000000000000000000037cfaf9b4e8f60fe47d0a5651213624af708f974000000000000000000000000000000000000000000000000000000000000020000000000000000000000000000000000000000000000000000000000000000010000000000000000000000000000000000000000000000000000000000000020000000000000000000000000c0bb97a881762d1c38aa250ef8f00714bb3a3a510000000000000000000000000000000000000000000000000000000000000003000000000000000000000000000000000000000000000000000000000000006000000000000000000000000000000000000000000000000000000000000000079a1f46e200000000000000000000000000000000000000000000000000000000b99b4370000000000000000000000000000000000000000000000000000000006871eb4d00000000000000000000000000000000000000000000000000000000a230c524000000000000000000000000000000000000000000000000000000000331383c0000000000000000000000000000000000000000000000000000000028c309e90000000000000000000000000000000000000000000000000000000060f8dd7e000000000000000000000000000000000000000000000000000000000000000000000000000000000000000000000000000000000000000000000004e1c7392a00000000000000000000000000000000000000000000000000000000",
        "nonce": "0x1445",
        "chainId": "0x66eee"
      },
      "additionalContracts": [],
      "isFixedGasLimit": false
    },
    {
      "hash": null,
      "transactionType": "CALL",
      "contractName": null,
      "contractAddress": "0x0dce74cf0ccef1fff89469f3befc08806f8e4a3b",
      "function": "diamondCut((address,uint8,bytes4[])[],address,bytes)",
      "arguments": [
        "[(0xC0BB97A881762d1c38Aa250Ef8F00714bB3a3a51, 3, [0x9a1f46e2, 0xb99b4370, 0x6871eb4d, 0xa230c524, 0x0331383c, 0x28c309e9, 0x60f8dd7e])]",
        "0x37CFaF9b4e8f60fE47d0A5651213624af708f974",
        "0xe1c7392a"
      ],
      "transaction": {
        "from": "0xb05a948b5c1b057b88d381bde3a375efea87ebad",
        "to": "0x0dce74cf0ccef1fff89469f3befc08806f8e4a3b",
        "gas": "0x2ab57",
        "value": "0x0",
        "input": "0x1f931c1c000000000000000000000000000000000000000000000000000000000000006000000000000000000000000037cfaf9b4e8f60fe47d0a5651213624af708f974000000000000000000000000000000000000000000000000000000000000020000000000000000000000000000000000000000000000000000000000000000010000000000000000000000000000000000000000000000000000000000000020000000000000000000000000c0bb97a881762d1c38aa250ef8f00714bb3a3a510000000000000000000000000000000000000000000000000000000000000003000000000000000000000000000000000000000000000000000000000000006000000000000000000000000000000000000000000000000000000000000000079a1f46e200000000000000000000000000000000000000000000000000000000b99b4370000000000000000000000000000000000000000000000000000000006871eb4d00000000000000000000000000000000000000000000000000000000a230c524000000000000000000000000000000000000000000000000000000000331383c0000000000000000000000000000000000000000000000000000000028c309e90000000000000000000000000000000000000000000000000000000060f8dd7e000000000000000000000000000000000000000000000000000000000000000000000000000000000000000000000000000000000000000000000004e1c7392a00000000000000000000000000000000000000000000000000000000",
        "nonce": "0x1446",
        "chainId": "0x66eee"
      },
      "additionalContracts": [],
      "isFixedGasLimit": false
    },
    {
      "hash": null,
      "transactionType": "CALL",
      "contractName": null,
      "contractAddress": "0x16a8d4fc921b8b1cc8729f4da72745e950499296",
      "function": "diamondCut((address,uint8,bytes4[])[],address,bytes)",
      "arguments": [
        "[(0xC0BB97A881762d1c38Aa250Ef8F00714bB3a3a51, 3, [0x9a1f46e2, 0xb99b4370, 0x6871eb4d, 0xa230c524, 0x0331383c, 0x28c309e9, 0x60f8dd7e])]",
        "0x37CFaF9b4e8f60fE47d0A5651213624af708f974",
        "0xe1c7392a"
      ],
      "transaction": {
        "from": "0xb05a948b5c1b057b88d381bde3a375efea87ebad",
        "to": "0x16a8d4fc921b8b1cc8729f4da72745e950499296",
        "gas": "0x2abae",
        "value": "0x0",
        "input": "0x1f931c1c000000000000000000000000000000000000000000000000000000000000006000000000000000000000000037cfaf9b4e8f60fe47d0a5651213624af708f974000000000000000000000000000000000000000000000000000000000000020000000000000000000000000000000000000000000000000000000000000000010000000000000000000000000000000000000000000000000000000000000020000000000000000000000000c0bb97a881762d1c38aa250ef8f00714bb3a3a510000000000000000000000000000000000000000000000000000000000000003000000000000000000000000000000000000000000000000000000000000006000000000000000000000000000000000000000000000000000000000000000079a1f46e200000000000000000000000000000000000000000000000000000000b99b4370000000000000000000000000000000000000000000000000000000006871eb4d00000000000000000000000000000000000000000000000000000000a230c524000000000000000000000000000000000000000000000000000000000331383c0000000000000000000000000000000000000000000000000000000028c309e90000000000000000000000000000000000000000000000000000000060f8dd7e000000000000000000000000000000000000000000000000000000000000000000000000000000000000000000000000000000000000000000000004e1c7392a00000000000000000000000000000000000000000000000000000000",
        "nonce": "0x1447",
        "chainId": "0x66eee"
      },
      "additionalContracts": [],
      "isFixedGasLimit": false
    },
    {
      "hash": null,
      "transactionType": "CALL",
      "contractName": null,
      "contractAddress": "0x2f8a9454de2e74bc9a0761703b3f7da0470b1e56",
      "function": "diamondCut((address,uint8,bytes4[])[],address,bytes)",
      "arguments": [
        "[(0xC0BB97A881762d1c38Aa250Ef8F00714bB3a3a51, 3, [0x9a1f46e2, 0xb99b4370, 0x6871eb4d, 0xa230c524, 0x0331383c, 0x28c309e9, 0x60f8dd7e])]",
        "0x37CFaF9b4e8f60fE47d0A5651213624af708f974",
        "0xe1c7392a"
      ],
      "transaction": {
        "from": "0xb05a948b5c1b057b88d381bde3a375efea87ebad",
        "to": "0x2f8a9454de2e74bc9a0761703b3f7da0470b1e56",
        "gas": "0x2ab29",
        "value": "0x0",
        "input": "0x1f931c1c000000000000000000000000000000000000000000000000000000000000006000000000000000000000000037cfaf9b4e8f60fe47d0a5651213624af708f974000000000000000000000000000000000000000000000000000000000000020000000000000000000000000000000000000000000000000000000000000000010000000000000000000000000000000000000000000000000000000000000020000000000000000000000000c0bb97a881762d1c38aa250ef8f00714bb3a3a510000000000000000000000000000000000000000000000000000000000000003000000000000000000000000000000000000000000000000000000000000006000000000000000000000000000000000000000000000000000000000000000079a1f46e200000000000000000000000000000000000000000000000000000000b99b4370000000000000000000000000000000000000000000000000000000006871eb4d00000000000000000000000000000000000000000000000000000000a230c524000000000000000000000000000000000000000000000000000000000331383c0000000000000000000000000000000000000000000000000000000028c309e90000000000000000000000000000000000000000000000000000000060f8dd7e000000000000000000000000000000000000000000000000000000000000000000000000000000000000000000000000000000000000000000000004e1c7392a00000000000000000000000000000000000000000000000000000000",
        "nonce": "0x1448",
        "chainId": "0x66eee"
      },
      "additionalContracts": [],
      "isFixedGasLimit": false
    },
    {
      "hash": null,
      "transactionType": "CALL",
      "contractName": null,
      "contractAddress": "0x8036ac3d1685e3603b8a0418e7e1ee033b794485",
      "function": "diamondCut((address,uint8,bytes4[])[],address,bytes)",
      "arguments": [
        "[(0xC0BB97A881762d1c38Aa250Ef8F00714bB3a3a51, 3, [0x9a1f46e2, 0xb99b4370, 0x6871eb4d, 0xa230c524, 0x0331383c, 0x28c309e9, 0x60f8dd7e])]",
        "0x37CFaF9b4e8f60fE47d0A5651213624af708f974",
        "0xe1c7392a"
      ],
      "transaction": {
        "from": "0xb05a948b5c1b057b88d381bde3a375efea87ebad",
        "to": "0x8036ac3d1685e3603b8a0418e7e1ee033b794485",
        "gas": "0x2ab7d",
        "value": "0x0",
        "input": "0x1f931c1c000000000000000000000000000000000000000000000000000000000000006000000000000000000000000037cfaf9b4e8f60fe47d0a5651213624af708f974000000000000000000000000000000000000000000000000000000000000020000000000000000000000000000000000000000000000000000000000000000010000000000000000000000000000000000000000000000000000000000000020000000000000000000000000c0bb97a881762d1c38aa250ef8f00714bb3a3a510000000000000000000000000000000000000000000000000000000000000003000000000000000000000000000000000000000000000000000000000000006000000000000000000000000000000000000000000000000000000000000000079a1f46e200000000000000000000000000000000000000000000000000000000b99b4370000000000000000000000000000000000000000000000000000000006871eb4d00000000000000000000000000000000000000000000000000000000a230c524000000000000000000000000000000000000000000000000000000000331383c0000000000000000000000000000000000000000000000000000000028c309e90000000000000000000000000000000000000000000000000000000060f8dd7e000000000000000000000000000000000000000000000000000000000000000000000000000000000000000000000000000000000000000000000004e1c7392a00000000000000000000000000000000000000000000000000000000",
        "nonce": "0x1449",
        "chainId": "0x66eee"
      },
      "additionalContracts": [],
      "isFixedGasLimit": false
    },
    {
      "hash": null,
      "transactionType": "CALL",
      "contractName": null,
      "contractAddress": "0x88efb94f3c0ac2d31efcede444264caf8d594ab8",
      "function": "diamondCut((address,uint8,bytes4[])[],address,bytes)",
      "arguments": [
        "[(0xC0BB97A881762d1c38Aa250Ef8F00714bB3a3a51, 3, [0x9a1f46e2, 0xb99b4370, 0x6871eb4d, 0xa230c524, 0x0331383c, 0x28c309e9, 0x60f8dd7e])]",
        "0x37CFaF9b4e8f60fE47d0A5651213624af708f974",
        "0xe1c7392a"
      ],
      "transaction": {
        "from": "0xb05a948b5c1b057b88d381bde3a375efea87ebad",
        "to": "0x88efb94f3c0ac2d31efcede444264caf8d594ab8",
        "gas": "0x2ab7d",
        "value": "0x0",
        "input": "0x1f931c1c000000000000000000000000000000000000000000000000000000000000006000000000000000000000000037cfaf9b4e8f60fe47d0a5651213624af708f974000000000000000000000000000000000000000000000000000000000000020000000000000000000000000000000000000000000000000000000000000000010000000000000000000000000000000000000000000000000000000000000020000000000000000000000000c0bb97a881762d1c38aa250ef8f00714bb3a3a510000000000000000000000000000000000000000000000000000000000000003000000000000000000000000000000000000000000000000000000000000006000000000000000000000000000000000000000000000000000000000000000079a1f46e200000000000000000000000000000000000000000000000000000000b99b4370000000000000000000000000000000000000000000000000000000006871eb4d00000000000000000000000000000000000000000000000000000000a230c524000000000000000000000000000000000000000000000000000000000331383c0000000000000000000000000000000000000000000000000000000028c309e90000000000000000000000000000000000000000000000000000000060f8dd7e000000000000000000000000000000000000000000000000000000000000000000000000000000000000000000000000000000000000000000000004e1c7392a00000000000000000000000000000000000000000000000000000000",
        "nonce": "0x144a",
        "chainId": "0x66eee"
      },
      "additionalContracts": [],
      "isFixedGasLimit": false
    },
    {
      "hash": null,
      "transactionType": "CALL",
      "contractName": "ERC1967Proxy",
      "contractAddress": "0x8b8732dac9c30ac89bf660b99fb90000d826ab83",
      "function": null,
      "arguments": null,
      "transaction": {
        "from": "0xb05a948b5c1b057b88d381bde3a375efea87ebad",
        "to": "0x8b8732dac9c30ac89bf660b99fb90000d826ab83",
        "gas": "0x2ab57",
        "value": "0x0",
        "input": "0x1f931c1c000000000000000000000000000000000000000000000000000000000000006000000000000000000000000037cfaf9b4e8f60fe47d0a5651213624af708f974000000000000000000000000000000000000000000000000000000000000020000000000000000000000000000000000000000000000000000000000000000010000000000000000000000000000000000000000000000000000000000000020000000000000000000000000c0bb97a881762d1c38aa250ef8f00714bb3a3a510000000000000000000000000000000000000000000000000000000000000003000000000000000000000000000000000000000000000000000000000000006000000000000000000000000000000000000000000000000000000000000000079a1f46e200000000000000000000000000000000000000000000000000000000b99b4370000000000000000000000000000000000000000000000000000000006871eb4d00000000000000000000000000000000000000000000000000000000a230c524000000000000000000000000000000000000000000000000000000000331383c0000000000000000000000000000000000000000000000000000000028c309e90000000000000000000000000000000000000000000000000000000060f8dd7e000000000000000000000000000000000000000000000000000000000000000000000000000000000000000000000000000000000000000000000004e1c7392a00000000000000000000000000000000000000000000000000000000",
        "nonce": "0x144b",
        "chainId": "0x66eee"
      },
      "additionalContracts": [],
      "isFixedGasLimit": false
    },
    {
      "hash": null,
      "transactionType": "CALL",
      "contractName": "ERC1967Proxy",
      "contractAddress": "0xa488ac456c7c5964af7d323b7ce795d02e7c5154",
      "function": null,
      "arguments": null,
      "transaction": {
        "from": "0xb05a948b5c1b057b88d381bde3a375efea87ebad",
        "to": "0xa488ac456c7c5964af7d323b7ce795d02e7c5154",
        "gas": "0x2ac47",
        "value": "0x0",
        "input": "0x1f931c1c000000000000000000000000000000000000000000000000000000000000006000000000000000000000000037cfaf9b4e8f60fe47d0a5651213624af708f974000000000000000000000000000000000000000000000000000000000000020000000000000000000000000000000000000000000000000000000000000000010000000000000000000000000000000000000000000000000000000000000020000000000000000000000000c0bb97a881762d1c38aa250ef8f00714bb3a3a510000000000000000000000000000000000000000000000000000000000000003000000000000000000000000000000000000000000000000000000000000006000000000000000000000000000000000000000000000000000000000000000079a1f46e200000000000000000000000000000000000000000000000000000000b99b4370000000000000000000000000000000000000000000000000000000006871eb4d00000000000000000000000000000000000000000000000000000000a230c524000000000000000000000000000000000000000000000000000000000331383c0000000000000000000000000000000000000000000000000000000028c309e90000000000000000000000000000000000000000000000000000000060f8dd7e000000000000000000000000000000000000000000000000000000000000000000000000000000000000000000000000000000000000000000000004e1c7392a00000000000000000000000000000000000000000000000000000000",
        "nonce": "0x144c",
        "chainId": "0x66eee"
      },
      "additionalContracts": [],
      "isFixedGasLimit": false
    },
    {
      "hash": null,
      "transactionType": "CALL",
      "contractName": null,
      "contractAddress": "0xa502fffb9082700cad62366bc6ce37b15207680f",
      "function": "diamondCut((address,uint8,bytes4[])[],address,bytes)",
      "arguments": [
        "[(0xC0BB97A881762d1c38Aa250Ef8F00714bB3a3a51, 3, [0x9a1f46e2, 0xb99b4370, 0x6871eb4d, 0xa230c524, 0x0331383c, 0x28c309e9, 0x60f8dd7e])]",
        "0x37CFaF9b4e8f60fE47d0A5651213624af708f974",
        "0xe1c7392a"
      ],
      "transaction": {
        "from": "0xb05a948b5c1b057b88d381bde3a375efea87ebad",
        "to": "0xa502fffb9082700cad62366bc6ce37b15207680f",
        "gas": "0x2aaf8",
        "value": "0x0",
        "input": "0x1f931c1c000000000000000000000000000000000000000000000000000000000000006000000000000000000000000037cfaf9b4e8f60fe47d0a5651213624af708f974000000000000000000000000000000000000000000000000000000000000020000000000000000000000000000000000000000000000000000000000000000010000000000000000000000000000000000000000000000000000000000000020000000000000000000000000c0bb97a881762d1c38aa250ef8f00714bb3a3a510000000000000000000000000000000000000000000000000000000000000003000000000000000000000000000000000000000000000000000000000000006000000000000000000000000000000000000000000000000000000000000000079a1f46e200000000000000000000000000000000000000000000000000000000b99b4370000000000000000000000000000000000000000000000000000000006871eb4d00000000000000000000000000000000000000000000000000000000a230c524000000000000000000000000000000000000000000000000000000000331383c0000000000000000000000000000000000000000000000000000000028c309e90000000000000000000000000000000000000000000000000000000060f8dd7e000000000000000000000000000000000000000000000000000000000000000000000000000000000000000000000000000000000000000000000004e1c7392a00000000000000000000000000000000000000000000000000000000",
        "nonce": "0x144d",
        "chainId": "0x66eee"
      },
      "additionalContracts": [],
      "isFixedGasLimit": false
    },
    {
      "hash": null,
      "transactionType": "CALL",
      "contractName": "ERC1967Proxy",
      "contractAddress": "0xb1f9ed8b752e81fcb0b9482e475c7035043f5994",
      "function": null,
      "arguments": null,
      "transaction": {
        "from": "0xb05a948b5c1b057b88d381bde3a375efea87ebad",
        "to": "0xb1f9ed8b752e81fcb0b9482e475c7035043f5994",
        "gas": "0x2aaf8",
        "value": "0x0",
        "input": "0x1f931c1c000000000000000000000000000000000000000000000000000000000000006000000000000000000000000037cfaf9b4e8f60fe47d0a5651213624af708f974000000000000000000000000000000000000000000000000000000000000020000000000000000000000000000000000000000000000000000000000000000010000000000000000000000000000000000000000000000000000000000000020000000000000000000000000c0bb97a881762d1c38aa250ef8f00714bb3a3a510000000000000000000000000000000000000000000000000000000000000003000000000000000000000000000000000000000000000000000000000000006000000000000000000000000000000000000000000000000000000000000000079a1f46e200000000000000000000000000000000000000000000000000000000b99b4370000000000000000000000000000000000000000000000000000000006871eb4d00000000000000000000000000000000000000000000000000000000a230c524000000000000000000000000000000000000000000000000000000000331383c0000000000000000000000000000000000000000000000000000000028c309e90000000000000000000000000000000000000000000000000000000060f8dd7e000000000000000000000000000000000000000000000000000000000000000000000000000000000000000000000000000000000000000000000004e1c7392a00000000000000000000000000000000000000000000000000000000",
        "nonce": "0x144e",
        "chainId": "0x66eee"
      },
      "additionalContracts": [],
      "isFixedGasLimit": false
    },
    {
      "hash": null,
      "transactionType": "CALL",
      "contractName": null,
      "contractAddress": "0xbe7b830623707babc4b46ff73279c73e2d1bc177",
      "function": "diamondCut((address,uint8,bytes4[])[],address,bytes)",
      "arguments": [
        "[(0xC0BB97A881762d1c38Aa250Ef8F00714bB3a3a51, 3, [0x9a1f46e2, 0xb99b4370, 0x6871eb4d, 0xa230c524, 0x0331383c, 0x28c309e9, 0x60f8dd7e])]",
        "0x37CFaF9b4e8f60fE47d0A5651213624af708f974",
        "0xe1c7392a"
      ],
      "transaction": {
        "from": "0xb05a948b5c1b057b88d381bde3a375efea87ebad",
        "to": "0xbe7b830623707babc4b46ff73279c73e2d1bc177",
        "gas": "0x2ac47",
        "value": "0x0",
        "input": "0x1f931c1c000000000000000000000000000000000000000000000000000000000000006000000000000000000000000037cfaf9b4e8f60fe47d0a5651213624af708f974000000000000000000000000000000000000000000000000000000000000020000000000000000000000000000000000000000000000000000000000000000010000000000000000000000000000000000000000000000000000000000000020000000000000000000000000c0bb97a881762d1c38aa250ef8f00714bb3a3a510000000000000000000000000000000000000000000000000000000000000003000000000000000000000000000000000000000000000000000000000000006000000000000000000000000000000000000000000000000000000000000000079a1f46e200000000000000000000000000000000000000000000000000000000b99b4370000000000000000000000000000000000000000000000000000000006871eb4d00000000000000000000000000000000000000000000000000000000a230c524000000000000000000000000000000000000000000000000000000000331383c0000000000000000000000000000000000000000000000000000000028c309e90000000000000000000000000000000000000000000000000000000060f8dd7e000000000000000000000000000000000000000000000000000000000000000000000000000000000000000000000000000000000000000000000004e1c7392a00000000000000000000000000000000000000000000000000000000",
        "nonce": "0x144f",
        "chainId": "0x66eee"
      },
      "additionalContracts": [],
      "isFixedGasLimit": false
    },
    {
      "hash": null,
      "transactionType": "CALL",
      "contractName": "ERC1967Proxy",
      "contractAddress": "0xc219730ec703c9525748c3b80184d57f1d57699b",
      "function": null,
      "arguments": null,
      "transaction": {
        "from": "0xb05a948b5c1b057b88d381bde3a375efea87ebad",
        "to": "0xc219730ec703c9525748c3b80184d57f1d57699b",
        "gas": "0x2aa69",
        "value": "0x0",
        "input": "0x1f931c1c000000000000000000000000000000000000000000000000000000000000006000000000000000000000000037cfaf9b4e8f60fe47d0a5651213624af708f974000000000000000000000000000000000000000000000000000000000000020000000000000000000000000000000000000000000000000000000000000000010000000000000000000000000000000000000000000000000000000000000020000000000000000000000000c0bb97a881762d1c38aa250ef8f00714bb3a3a510000000000000000000000000000000000000000000000000000000000000003000000000000000000000000000000000000000000000000000000000000006000000000000000000000000000000000000000000000000000000000000000079a1f46e200000000000000000000000000000000000000000000000000000000b99b4370000000000000000000000000000000000000000000000000000000006871eb4d00000000000000000000000000000000000000000000000000000000a230c524000000000000000000000000000000000000000000000000000000000331383c0000000000000000000000000000000000000000000000000000000028c309e90000000000000000000000000000000000000000000000000000000060f8dd7e000000000000000000000000000000000000000000000000000000000000000000000000000000000000000000000000000000000000000000000004e1c7392a00000000000000000000000000000000000000000000000000000000",
        "nonce": "0x1450",
        "chainId": "0x66eee"
      },
      "additionalContracts": [],
      "isFixedGasLimit": false
    },
    {
      "hash": null,
      "transactionType": "CALL",
      "contractName": null,
      "contractAddress": "0xf42f88c13804147b2fdda13c093ce14219aea395",
      "function": "setCommunityFacets((address,uint8,bytes4[])[],address,bytes)",
      "arguments": [
        "[(0x33eC02c8584baA4276572e8473921ad0E70fA339, 3, [0x7a0ed627, 0xadfca15e, 0x52ef6b2c, 0xcdffacc6, 0x01ffc9a7]), (0xAd575F813A5de14678778e077F2c13D476666274, 3, [0x1b71f0e4, 0xb0d3713a, 0x0b03bb9a, 0x31f61bca, 0x0d12bbdb, 0x397e2543, 0xb5058c50, 0xf2d774e7, 0xebd7dc52]), (0xC0BB97A881762d1c38Aa250Ef8F00714bB3a3a51, 3, [0x9a1f46e2, 0xb99b4370, 0x6871eb4d, 0xa230c524, 0x0331383c, 0x28c309e9, 0x60f8dd7e]), (0x1bbA165f714467C17d5d333FA8e26553F4220652, 3, [0x1add1a0d, 0x222a3a04, 0xadaf157b, 0x60b47789, 0x136439dd, 0x80c4a65f, 0x3f4ba83a, 0xbac1e94b, 0xb187bd26, 0x09b65e66, 0xda748b10, 0x2d2ebbef]), (0x44A054Ea835d763B0b1E7DC1D9933CF4aF8D39cD, 3, [0xce7e2cd3, 0x82b18ef4]), (0xD6614418776b8861621b616aBAF18bB2CF54d043, 3, [0x0d4a8b49, 0x22bcf999, 0x559de05d, 0x5ecf71c5, 0x7817ee4f, 0x2c611c4a, 0xeb5cbe43, 0x6a6b9a61]), (0xEF6486E18A1FD18E6419e8A45937eFaa7266Ce7e, 3, [0x82d6a1e7, 0x223e5479, 0x73265c37, 0x175188e8, 0xfb1f6917])]",
        "0x37CFaF9b4e8f60fE47d0A5651213624af708f974",
        "0xe1c7392a"
      ],
      "transaction": {
        "from": "0xb05a948b5c1b057b88d381bde3a375efea87ebad",
        "to": "0xf42f88c13804147b2fdda13c093ce14219aea395",
        "gas": "0x5d51f",
        "value": "0x0",
        "input": "0x90147c6b000000000000000000000000000000000000000000000000000000000000006000000000000000000000000037cfaf9b4e8f60fe47d0a5651213624af708f9740000000000000000000000000000000000000000000000000000000000000ae0000000000000000000000000000000000000000000000000000000000000000700000000000000000000000000000000000000000000000000000000000000e0000000000000000000000000000000000000000000000000000000000000020000000000000000000000000000000000000000000000000000000000000003a00000000000000000000000000000000000000000000000000000000000000500000000000000000000000000000000000000000000000000000000000000070000000000000000000000000000000000000000000000000000000000000007c0000000000000000000000000000000000000000000000000000000000000094000000000000000000000000033ec02c8584baa4276572e8473921ad0e70fa3390000000000000000000000000000000000000000000000000000000000000003000000000000000000000000000000000000000000000000000000000000006000000000000000000000000000000000000000000000000000000000000000057a0ed62700000000000000000000000000000000000000000000000000000000adfca15e0000000000000000000000000000000000000000000000000000000052ef6b2c00000000000000000000000000000000000000000000000000000000cdffacc60000000000000000000000000000000000000000000000000000000001ffc9a700000000000000000000000000000000000000000000000000000000000000000000000000000000ad575f813a5de14678778e077f2c13d4766662740000000000000000000000000000000000000000000000000000000000000003000000000000000000000000000000000000000000000000000000000000006000000000000000000000000000000000000000000000000000000000000000091b71f0e400000000000000000000000000000000000000000000000000000000b0d3713a000000000000000000000000000000000000000000000000000000000b03bb9a0000000000000000000000000000000000000000000000000000000031f61bca000000000000000000000000000000000000000000000000000000000d12bbdb00000000000000000000000000000000000000000000000000000000397e254300000000000000000000000000000000000000000000000000000000b5058c5000000000000000000000000000000000000000000000000000000000f2d774e700000000000000000000000000000000000000000000000000000000ebd7dc5200000000000000000000000000000000000000000000000000000000000000000000000000000000c0bb97a881762d1c38aa250ef8f00714bb3a3a510000000000000000000000000000000000000000000000000000000000000003000000000000000000000000000000000000000000000000000000000000006000000000000000000000000000000000000000000000000000000000000000079a1f46e200000000000000000000000000000000000000000000000000000000b99b4370000000000000000000000000000000000000000000000000000000006871eb4d00000000000000000000000000000000000000000000000000000000a230c524000000000000000000000000000000000000000000000000000000000331383c0000000000000000000000000000000000000000000000000000000028c309e90000000000000000000000000000000000000000000000000000000060f8dd7e000000000000000000000000000000000000000000000000000000000000000000000000000000001bba165f714467c17d5d333fa8e26553f422065200000000000000000000000000000000000000000000000000000000000000030000000000000000000000000000000000000000000000000000000000000060000000000000000000000000000000000000000000000000000000000000000c1add1a0d00000000000000000000000000000000000000000000000000000000222a3a0400000000000000000000000000000000000000000000000000000000adaf157b0000000000000000000000000000000000000000000000000000000060b4778900000000000000000000000000000000000000000000000000000000136439dd0000000000000000000000000000000000000000000000000000000080c4a65f000000000000000000000000000000000000000000000000000000003f4ba83a00000000000000000000000000000000000000000000000000000000bac1e94b00000000000000000000000000000000000000000000000000000000b187bd260000000000000000000000000000000000000000000000000000000009b65e6600000000000000000000000000000000000000000000000000000000da748b10000000000000000000000000000000000000000000000000000000002d2ebbef0000000000000000000000000000000000000000000000000000000000000000000000000000000044a054ea835d763b0b1e7dc1d9933cf4af8d39cd000000000000000000000000000000000000000000000000000000000000000300000000000000000000000000000000000000000000000000000000000000600000000000000000000000000000000000000000000000000000000000000002ce7e2cd30000000000000000000000000000000000000000000000000000000082b18ef400000000000000000000000000000000000000000000000000000000000000000000000000000000d6614418776b8861621b616abaf18bb2cf54d0430000000000000000000000000000000000000000000000000000000000000003000000000000000000000000000000000000000000000000000000000000006000000000000000000000000000000000000000000000000000000000000000080d4a8b490000000000000000000000000000000000000000000000000000000022bcf99900000000000000000000000000000000000000000000000000000000559de05d000000000000000000000000000000000000000000000000000000005ecf71c5000000000000000000000000000000000000000000000000000000007817ee4f000000000000000000000000000000000000000000000000000000002c611c4a00000000000000000000000000000000000000000000000000000000eb5cbe43000000000000000000000000000000000000000000000000000000006a6b9a6100000000000000000000000000000000000000000000000000000000000000000000000000000000ef6486e18a1fd18e6419e8a45937efaa7266ce7e00000000000000000000000000000000000000000000000000000000000000030000000000000000000000000000000000000000000000000000000000000060000000000000000000000000000000000000000000000000000000000000000582d6a1e700000000000000000000000000000000000000000000000000000000223e54790000000000000000000000000000000000000000000000000000000073265c3700000000000000000000000000000000000000000000000000000000175188e800000000000000000000000000000000000000000000000000000000fb1f6917000000000000000000000000000000000000000000000000000000000000000000000000000000000000000000000000000000000000000000000004e1c7392a00000000000000000000000000000000000000000000000000000000",
        "nonce": "0x1451",
        "chainId": "0x66eee"
      },
      "additionalContracts": [],
      "isFixedGasLimit": false
    }
  ],
  "receipts": [],
  "libraries": [
    "pkg/contracts/src/CVStrategy/ConvictionsUtils.sol:ConvictionsUtils:0x36EAc4Ca8389E35D66978e94c811F959e5A158f2",
    "pkg/contracts/src/CVStrategy/PowerManagementUtils.sol:PowerManagementUtils:0xB07d76F6001Cc62739d39cb0C5E9c58E08230486"
  ],
  "pending": [],
  "returns": {},
  "timestamp": 1780245304512,
  "chain": 421614,
  "commit": "4bc7b8d39"
}