{
  "transactions": [
    {
      "hash": "0x4aaa6de4db510ea80754fd32a4ec782366b5ee560e0ca110c74d969a270aa0f8",
      "transactionType": "CALL",
      "contractName": null,
      "contractAddress": "0xc6eaf449f79b081300f5317122b2dff3f039ad0b",
      "function": "execTransaction(address,uint256,bytes,uint8,uint256,uint256,uint256,address,address,bytes)",
      "arguments": [
        "0x374C3fA4c3f5C4881a75754c4096c535A2865f1A",
        "0",
        "0x223e547900000000000000000000000015b07d1a51f7ef5752b3120a4575741040e3444a",
        "0",
        "0",
        "0",
        "0",
        "0x0000000000000000000000000000000000000000",
        "0x0000000000000000000000000000000000000000",
        "0x21f5a8e116c4db14e2976dccf3869e34f3d995b1590ab2df2bb1416cb0327dce5a342e65e68fae7846b202dddc2eb691816c9d006f53522dfab72a4fe82bf3291b"
      ],
      "transaction": {
        "from": "0x2f9e113434aebdd70bb99cb6505e1f726c578d6d",
        "to": "0xc6eaf449f79b081300f5317122b2dff3f039ad0b",
        "gas": "0x1d39e",
        "value": "0x0",
        "input": "0x6a761202000000000000000000000000374c3fa4c3f5c4881a75754c4096c535a2865f1a0000000000000000000000000000000000000000000000000000000000000000000000000000000000000000000000000000000000000000000000000000014000000000000000000000000000000000000000000000000000000000000000000000000000000000000000000000000000000000000000000000000000000000000000000000000000000000000000000000000000000000000000000000000000000000000000000000000000000000000000000000000000000000000000000000000000000000000000000000000000000000000000000000000000000000000000000000000000000000000000000000000000000000000000000000000000000000000000000000000000000000000000000000000000000000000001a00000000000000000000000000000000000000000000000000000000000000024223e547900000000000000000000000015b07d1a51f7ef5752b3120a4575741040e3444a00000000000000000000000000000000000000000000000000000000000000000000000000000000000000000000000000000000000000000000004121f5a8e116c4db14e2976dccf3869e34f3d995b1590ab2df2bb1416cb0327dce5a342e65e68fae7846b202dddc2eb691816c9d006f53522dfab72a4fe82bf3291b00000000000000000000000000000000000000000000000000000000000000",
        "nonce": "0x67",
        "chainId": "0xaa36a7"
      },
      "additionalContracts": [],
      "isFixedGasLimit": false
    }
  ],
  "receipts": [
    {
      "status": "0x1",
      "cumulativeGasUsed": "0xb50b98",
      "logs": [
        {
          "address": "0xc6eaf449f79b081300f5317122b2dff3f039ad0b",
          "topics": [
            "0x66753cd2356569ee081232e3be8909b950e0a76c1f8460c3a5e3c2be32b11bed"
          ],
          "data": "0x000000000000000000000000374c3fa4c3f5c4881a75754c4096c535a2865f1a0000000000000000000000000000000000000000000000000000000000000000000000000000000000000000000000000000000000000000000000000000016000000000000000000000000000000000000000000000000000000000000000000000000000000000000000000000000000000000000000000000000000000000000000000000000000000000000000000000000000000000000000000000000000000000000000000000000000000000000000000000000000000000000000000000000000000000000000000000000000000000000000000000000000000000000000000000000000000000000000000000000000000000000000000000000000000000000000000000000000000000000000000000000000000000000001c000000000000000000000000000000000000000000000000000000000000002400000000000000000000000000000000000000000000000000000000000000024223e547900000000000000000000000015b07d1a51f7ef5752b3120a4575741040e3444a00000000000000000000000000000000000000000000000000000000000000000000000000000000000000000000000000000000000000000000004121f5a8e116c4db14e2976dccf3869e34f3d995b1590ab2df2bb1416cb0327dce5a342e65e68fae7846b202dddc2eb691816c9d006f53522dfab72a4fe82bf3291b000000000000000000000000000000000000000000000000000000000000000000000000000000000000000000000000000000000000000000000000000060000000000000000000000000000000000000000000000000000000000000000a0000000000000000000000002f9e113434aebdd70bb99cb6505e1f726c578d6d0000000000000000000000000000000000000000000000000000000000000001",
          "blockHash": "0xdf4ee214f0efd5848b972387f23c2210413037d0de00dc7547d8793ed6bff5f6",
          "blockNumber": "0x5b0981",
          "transactionHash": "0x4aaa6de4db510ea80754fd32a4ec782366b5ee560e0ca110c74d969a270aa0f8",
          "transactionIndex": "0x2b",
          "logIndex": "0x8c",
          "removed": false
        },
        {
          "address": "0x374c3fa4c3f5c4881a75754c4096c535a2865f1a",
          "topics": [
            "0x3f008fd510eae7a9e7bee13513d7b83bef8003d488b5a3d0b0da4de71d6846f1"
          ],
          "data": "0x00000000000000000000000015b07d1a51f7ef5752b3120a4575741040e3444a",
          "blockHash": "0xdf4ee214f0efd5848b972387f23c2210413037d0de00dc7547d8793ed6bff5f6",
          "blockNumber": "0x5b0981",
          "transactionHash": "0x4aaa6de4db510ea80754fd32a4ec782366b5ee560e0ca110c74d969a270aa0f8",
          "transactionIndex": "0x2b",
          "logIndex": "0x8d",
          "removed": false
        },
        {
          "address": "0xc6eaf449f79b081300f5317122b2dff3f039ad0b",
          "topics": [
            "0x442e715f626346e8c54381002da614f62bee8d27386535b2521ec8540898556e"
          ],
          "data": "0xe07ea84448d9a3d203f378e7fba5b73d8dad5caf6708d06d97690e100decc3f80000000000000000000000000000000000000000000000000000000000000000",
          "blockHash": "0xdf4ee214f0efd5848b972387f23c2210413037d0de00dc7547d8793ed6bff5f6",
          "blockNumber": "0x5b0981",
          "transactionHash": "0x4aaa6de4db510ea80754fd32a4ec782366b5ee560e0ca110c74d969a270aa0f8",
          "transactionIndex": "0x2b",
          "logIndex": "0x8e",
          "removed": false
        }
      ],
      "logsBloom": "0x00000000400000000000000000000000000000000000000000000000040000000000000000000000000000000000000000000000000000000000000000000000000000000000000000000000000000000000040008000000000000000000000000000000000020000000000000000000000000000000000000000000000000000000004080000000000002000000000000000010000000000000000000000000000000000400000010000000000004000000000000000000000000000000000000000000000000000000000000020000000000800000000000000010000000000000000000000000000000000000000000000000000000000000000000000000",
      "type": "0x0",
      "transactionHash": "0x4aaa6de4db510ea80754fd32a4ec782366b5ee560e0ca110c74d969a270aa0f8",
      "transactionIndex": "0x2b",
      "blockHash": "0xdf4ee214f0efd5848b972387f23c2210413037d0de00dc7547d8793ed6bff5f6",
      "blockNumber": "0x5b0981",
      "gasUsed": "0x1528d",
      "effectiveGasPrice": "0x3bace799",
      "from": "0x2f9e113434aebdd70bb99cb6505e1f726c578d6d",
      "to": "0xc6eaf449f79b081300f5317122b2dff3f039ad0b",
      "contractAddress": null
    }
  ],
  "libraries": [],
  "pending": [],
  "returns": {},
  "timestamp": 1716528519,
  "chain": 11155111,
  "commit": "e48a856"
}