{
  "transactions": [
    {
      "hash": null,
      "transactionType": "CALL",
      "contractName": null,
      "contractAddress": "0xc6eaf449f79b081300f5317122b2dff3f039ad0b",
      "function": "execTransaction(address,uint256,bytes,uint8,uint256,uint256,uint256,address,address,bytes)",
      "arguments": [
        "0x374C3fA4c3f5C4881a75754c4096c535A2865f1A",
        "0",
        "0x223e5479000000000000000000000000eecb088b27e841ec02c1f6eff4d6cdab5e39bd97",
        "0",
        "0",
        "0",
        "0",
        "0x0000000000000000000000000000000000000000",
        "0x0000000000000000000000000000000000000000",
        "0x626310552a31c6970f22274ce90b8c4dd8f05c23f44d82182587492e2d74db301f454162cf5a4e0ab37e3d53ede0860b706a3ba84077dd1e4de032e6194a3d801b"
      ],
      "transaction": {
        "from": "0x2f9e113434aebdd70bb99cb6505e1f726c578d6d",
        "to": "0xc6eaf449f79b081300f5317122b2dff3f039ad0b",
        "gas": "0x1ef32",
        "value": "0x0",
        "input": "0x6a761202000000000000000000000000374c3fa4c3f5c4881a75754c4096c535a2865f1a0000000000000000000000000000000000000000000000000000000000000000000000000000000000000000000000000000000000000000000000000000014000000000000000000000000000000000000000000000000000000000000000000000000000000000000000000000000000000000000000000000000000000000000000000000000000000000000000000000000000000000000000000000000000000000000000000000000000000000000000000000000000000000000000000000000000000000000000000000000000000000000000000000000000000000000000000000000000000000000000000000000000000000000000000000000000000000000000000000000000000000000000000000000000000000000001a00000000000000000000000000000000000000000000000000000000000000024223e5479000000000000000000000000eecb088b27e841ec02c1f6eff4d6cdab5e39bd97000000000000000000000000000000000000000000000000000000000000000000000000000000000000000000000000000000000000000000000041626310552a31c6970f22274ce90b8c4dd8f05c23f44d82182587492e2d74db301f454162cf5a4e0ab37e3d53ede0860b706a3ba84077dd1e4de032e6194a3d801b00000000000000000000000000000000000000000000000000000000000000",
        "nonce": "0x66",
        "chainId": "0xaa36a7"
      },
      "additionalContracts": [],
      "isFixedGasLimit": false
    }
  ],
  "receipts": [],
  "libraries": [],
  "pending": [],
  "returns": {},
  "timestamp": 1716528384,
  "chain": 11155111,
  "commit": "e48a856"
}