{
  "transactions": [
    {
      "hash": null,
      "transactionType": "CALL",
      "contractName": null,
      "contractAddress": "0xc6eaf449f79b081300f5317122b2dff3f039ad0b",
      "function": "execTransaction(address,uint256,bytes,uint8,uint256,uint256,uint256,address,address,bytes)",
      "arguments": [
        "0x0c52293C91a10B378c062fc26d09967e0B34F74C",
        "0",
        "0x223e5479000000000000000000000000eecb088b27e841ec02c1f6eff4d6cdab5e39bd97",
        "0",
        "0",
        "0",
        "0",
        "0x0000000000000000000000000000000000000000",
        "0x0000000000000000000000000000000000000000",
        "0xe337aacfb0d7956e6988a8d249338171ac70c209b06c692f3f580d04fc12bc314e0f8777cf04ddd0a7e6eb4f3807054eeabfc03ceb239a46e99009e80523c1721b"
      ],
      "transaction": {
        "from": "0x2f9e113434aebdd70bb99cb6505e1f726c578d6d",
        "to": "0xc6eaf449f79b081300f5317122b2dff3f039ad0b",
        "gas": "0x1ef32",
        "value": "0x0",
        "input": "0x6a7612020000000000000000000000000c52293c91a10b378c062fc26d09967e0b34f74c0000000000000000000000000000000000000000000000000000000000000000000000000000000000000000000000000000000000000000000000000000014000000000000000000000000000000000000000000000000000000000000000000000000000000000000000000000000000000000000000000000000000000000000000000000000000000000000000000000000000000000000000000000000000000000000000000000000000000000000000000000000000000000000000000000000000000000000000000000000000000000000000000000000000000000000000000000000000000000000000000000000000000000000000000000000000000000000000000000000000000000000000000000000000000000000001a00000000000000000000000000000000000000000000000000000000000000024223e5479000000000000000000000000eecb088b27e841ec02c1f6eff4d6cdab5e39bd97000000000000000000000000000000000000000000000000000000000000000000000000000000000000000000000000000000000000000000000041e337aacfb0d7956e6988a8d249338171ac70c209b06c692f3f580d04fc12bc314e0f8777cf04ddd0a7e6eb4f3807054eeabfc03ceb239a46e99009e80523c1721b00000000000000000000000000000000000000000000000000000000000000",
        "nonce": "0x65",
        "chainId": "0xaa36a7"
      },
      "additionalContracts": [],
      "isFixedGasLimit": false
    }
  ],
  "receipts": [],
  "libraries": [],
  "pending": [],
  "returns": {},
  "timestamp": 1716525495,
  "chain": 11155111,
  "commit": "e48a856"
}