{
  "transactions": [
    {
      "hash": "0x6944337f2c6c00ecea8919022632b13ed0081aa6eda44a49c1b2bb9f0ddaa97b",
      "transactionType": "CALL",
      "contractName": null,
      "contractAddress": "0xc6eaf449f79b081300f5317122b2dff3f039ad0b",
      "function": "execTransaction(address,uint256,bytes,uint8,uint256,uint256,uint256,address,address,bytes)",
      "arguments": [
        "0x0c52293C91a10B378c062fc26d09967e0B34F74C",
        "0",
        "0x223e5479000000000000000000000000eecb088b27e841ec02c1f6eff4d6cdab5e39bd97",
        "0",
        "0",
        "0",
        "0",
        "0x0000000000000000000000000000000000000000",
        "0x0000000000000000000000000000000000000000",
        "0xe337aacfb0d7956e6988a8d249338171ac70c209b06c692f3f580d04fc12bc314e0f8777cf04ddd0a7e6eb4f3807054eeabfc03ceb239a46e99009e80523c1721b"
      ],
      "transaction": {
        "from": "0x2f9e113434aebdd70bb99cb6505e1f726c578d6d",
        "to": "0xc6eaf449f79b081300f5317122b2dff3f039ad0b",
        "gas": "0x1ef32",
        "value": "0x0",
        "input": "0x6a7612020000000000000000000000000c52293c91a10b378c062fc26d09967e0b34f74c0000000000000000000000000000000000000000000000000000000000000000000000000000000000000000000000000000000000000000000000000000014000000000000000000000000000000000000000000000000000000000000000000000000000000000000000000000000000000000000000000000000000000000000000000000000000000000000000000000000000000000000000000000000000000000000000000000000000000000000000000000000000000000000000000000000000000000000000000000000000000000000000000000000000000000000000000000000000000000000000000000000000000000000000000000000000000000000000000000000000000000000000000000000000000000000001a00000000000000000000000000000000000000000000000000000000000000024223e5479000000000000000000000000eecb088b27e841ec02c1f6eff4d6cdab5e39bd97000000000000000000000000000000000000000000000000000000000000000000000000000000000000000000000000000000000000000000000041e337aacfb0d7956e6988a8d249338171ac70c209b06c692f3f580d04fc12bc314e0f8777cf04ddd0a7e6eb4f3807054eeabfc03ceb239a46e99009e80523c1721b00000000000000000000000000000000000000000000000000000000000000",
        "nonce": "0x65",
        "chainId": "0xaa36a7"
      },
      "additionalContracts": [],
      "isFixedGasLimit": false
    }
  ],
  "receipts": [
    {
      "status": "0x1",
      "cumulativeGasUsed": "0x848659",
      "logs": [
        {
          "address": "0xc6eaf449f79b081300f5317122b2dff3f039ad0b",
          "topics": [
            "0x66753cd2356569ee081232e3be8909b950e0a76c1f8460c3a5e3c2be32b11bed"
          ],
          "data": "0x0000000000000000000000000c52293c91a10b378c062fc26d09967e0b34f74c0000000000000000000000000000000000000000000000000000000000000000000000000000000000000000000000000000000000000000000000000000016000000000000000000000000000000000000000000000000000000000000000000000000000000000000000000000000000000000000000000000000000000000000000000000000000000000000000000000000000000000000000000000000000000000000000000000000000000000000000000000000000000000000000000000000000000000000000000000000000000000000000000000000000000000000000000000000000000000000000000000000000000000000000000000000000000000000000000000000000000000000000000000000000000000000001c000000000000000000000000000000000000000000000000000000000000002400000000000000000000000000000000000000000000000000000000000000024223e5479000000000000000000000000eecb088b27e841ec02c1f6eff4d6cdab5e39bd97000000000000000000000000000000000000000000000000000000000000000000000000000000000000000000000000000000000000000000000041e337aacfb0d7956e6988a8d249338171ac70c209b06c692f3f580d04fc12bc314e0f8777cf04ddd0a7e6eb4f3807054eeabfc03ceb239a46e99009e80523c1721b00000000000000000000000000000000000000000000000000000000000000000000000000000000000000000000000000000000000000000000000000006000000000000000000000000000000000000000000000000000000000000000080000000000000000000000002f9e113434aebdd70bb99cb6505e1f726c578d6d0000000000000000000000000000000000000000000000000000000000000001",
          "blockHash": "0x9bb2eb45bcf4b061990493cadd525c75b7a4f4213a800458dacd0c336a919aef",
          "blockNumber": "0x5b089c",
          "transactionHash": "0x6944337f2c6c00ecea8919022632b13ed0081aa6eda44a49c1b2bb9f0ddaa97b",
          "transactionIndex": "0x4a",
          "logIndex": "0x51",
          "removed": false
        },
        {
          "address": "0x0c52293c91a10b378c062fc26d09967e0b34f74c",
          "topics": [
            "0x3f008fd510eae7a9e7bee13513d7b83bef8003d488b5a3d0b0da4de71d6846f1"
          ],
          "data": "0x000000000000000000000000eecb088b27e841ec02c1f6eff4d6cdab5e39bd97",
          "blockHash": "0x9bb2eb45bcf4b061990493cadd525c75b7a4f4213a800458dacd0c336a919aef",
          "blockNumber": "0x5b089c",
          "transactionHash": "0x6944337f2c6c00ecea8919022632b13ed0081aa6eda44a49c1b2bb9f0ddaa97b",
          "transactionIndex": "0x4a",
          "logIndex": "0x52",
          "removed": false
        },
        {
          "address": "0xc6eaf449f79b081300f5317122b2dff3f039ad0b",
          "topics": [
            "0x442e715f626346e8c54381002da614f62bee8d27386535b2521ec8540898556e"
          ],
          "data": "0x93f29fed5e0c2c06418ba411dccd3331939bba31b5cd8946eff06cfc070ffbef0000000000000000000000000000000000000000000000000000000000000000",
          "blockHash": "0x9bb2eb45bcf4b061990493cadd525c75b7a4f4213a800458dacd0c336a919aef",
          "blockNumber": "0x5b089c",
          "transactionHash": "0x6944337f2c6c00ecea8919022632b13ed0081aa6eda44a49c1b2bb9f0ddaa97b",
          "transactionIndex": "0x4a",
          "logIndex": "0x53",
          "removed": false
        }
      ],
      "logsBloom": "0x00000000400000000000000000000000000000000000000000800000040000000000000000000000000000000000000000000000000000000000000000000000000000000000000000000000000000000000040000000000000000000020000000000000000020000000000000000000000000000000000000000000000000000000004000000000000002000000000000000010000000000000000000000000000000000400000010000000000004000000000000000000000000000000000000000000000000000000000000020000000000000000000000000010000000000000000000000000000000000000000000000000000000000000000000000001",
      "type": "0x0",
      "transactionHash": "0x6944337f2c6c00ecea8919022632b13ed0081aa6eda44a49c1b2bb9f0ddaa97b",
      "transactionIndex": "0x4a",
      "blockHash": "0x9bb2eb45bcf4b061990493cadd525c75b7a4f4213a800458dacd0c336a919aef",
      "blockNumber": "0x5b089c",
      "gasUsed": "0x15299",
      "effectiveGasPrice": "0x3ba5143a",
      "from": "0x2f9e113434aebdd70bb99cb6505e1f726c578d6d",
      "to": "0xc6eaf449f79b081300f5317122b2dff3f039ad0b",
      "contractAddress": null
    }
  ],
  "libraries": [],
  "pending": [],
  "returns": {},
  "timestamp": 1716525565,
  "chain": 11155111,
  "commit": "e48a856"
}