{
  "transactions": [
    {
      "hash": "0x65194cfcc72f9577ec4a7c35ba4d8b9dbcf0593585b2ddee505be4bb9fa354ce",
      "transactionType": "CALL",
      "contractName": null,
      "contractAddress": "0xc6eaf449f79b081300f5317122b2dff3f039ad0b",
      "function": "execTransaction(address,uint256,bytes,uint8,uint256,uint256,uint256,address,address,bytes)",
      "arguments": [
        "0x374C3fA4c3f5C4881a75754c4096c535A2865f1A",
        "0",
        "0x223e5479000000000000000000000000eecb088b27e841ec02c1f6eff4d6cdab5e39bd97",
        "0",
        "0",
        "0",
        "0",
        "0x0000000000000000000000000000000000000000",
        "0x0000000000000000000000000000000000000000",
        "0x626310552a31c6970f22274ce90b8c4dd8f05c23f44d82182587492e2d74db301f454162cf5a4e0ab37e3d53ede0860b706a3ba84077dd1e4de032e6194a3d801b"
      ],
      "transaction": {
        "from": "0x2f9e113434aebdd70bb99cb6505e1f726c578d6d",
        "to": "0xc6eaf449f79b081300f5317122b2dff3f039ad0b",
        "gas": "0x1ef32",
        "value": "0x0",
        "input": "0x6a761202000000000000000000000000374c3fa4c3f5c4881a75754c4096c535a2865f1a0000000000000000000000000000000000000000000000000000000000000000000000000000000000000000000000000000000000000000000000000000014000000000000000000000000000000000000000000000000000000000000000000000000000000000000000000000000000000000000000000000000000000000000000000000000000000000000000000000000000000000000000000000000000000000000000000000000000000000000000000000000000000000000000000000000000000000000000000000000000000000000000000000000000000000000000000000000000000000000000000000000000000000000000000000000000000000000000000000000000000000000000000000000000000000000001a00000000000000000000000000000000000000000000000000000000000000024223e5479000000000000000000000000eecb088b27e841ec02c1f6eff4d6cdab5e39bd97000000000000000000000000000000000000000000000000000000000000000000000000000000000000000000000000000000000000000000000041626310552a31c6970f22274ce90b8c4dd8f05c23f44d82182587492e2d74db301f454162cf5a4e0ab37e3d53ede0860b706a3ba84077dd1e4de032e6194a3d801b00000000000000000000000000000000000000000000000000000000000000",
        "nonce": "0x66",
        "chainId": "0xaa36a7"
      },
      "additionalContracts": [],
      "isFixedGasLimit": false
    }
  ],
  "receipts": [
    {
      "status": "0x1",
      "cumulativeGasUsed": "0x9654d9",
      "logs": [
        {
          "address": "0xc6eaf449f79b081300f5317122b2dff3f039ad0b",
          "topics": [
            "0x66753cd2356569ee081232e3be8909b950e0a76c1f8460c3a5e3c2be32b11bed"
          ],
          "data": "0x000000000000000000000000374c3fa4c3f5c4881a75754c4096c535a2865f1a0000000000000000000000000000000000000000000000000000000000000000000000000000000000000000000000000000000000000000000000000000016000000000000000000000000000000000000000000000000000000000000000000000000000000000000000000000000000000000000000000000000000000000000000000000000000000000000000000000000000000000000000000000000000000000000000000000000000000000000000000000000000000000000000000000000000000000000000000000000000000000000000000000000000000000000000000000000000000000000000000000000000000000000000000000000000000000000000000000000000000000000000000000000000000000000001c000000000000000000000000000000000000000000000000000000000000002400000000000000000000000000000000000000000000000000000000000000024223e5479000000000000000000000000eecb088b27e841ec02c1f6eff4d6cdab5e39bd97000000000000000000000000000000000000000000000000000000000000000000000000000000000000000000000000000000000000000000000041626310552a31c6970f22274ce90b8c4dd8f05c23f44d82182587492e2d74db301f454162cf5a4e0ab37e3d53ede0860b706a3ba84077dd1e4de032e6194a3d801b00000000000000000000000000000000000000000000000000000000000000000000000000000000000000000000000000000000000000000000000000006000000000000000000000000000000000000000000000000000000000000000090000000000000000000000002f9e113434aebdd70bb99cb6505e1f726c578d6d0000000000000000000000000000000000000000000000000000000000000001",
          "blockHash": "0x4cf8ad4a10c01e47b4641a92321e5ffa93abedc3fb41bb34941eff23b0892ecf",
          "blockNumber": "0x5b0978",
          "transactionHash": "0x65194cfcc72f9577ec4a7c35ba4d8b9dbcf0593585b2ddee505be4bb9fa354ce",
          "transactionIndex": "0x38",
          "logIndex": "0x93",
          "removed": false
        },
        {
          "address": "0x374c3fa4c3f5c4881a75754c4096c535a2865f1a",
          "topics": [
            "0x3f008fd510eae7a9e7bee13513d7b83bef8003d488b5a3d0b0da4de71d6846f1"
          ],
          "data": "0x000000000000000000000000eecb088b27e841ec02c1f6eff4d6cdab5e39bd97",
          "blockHash": "0x4cf8ad4a10c01e47b4641a92321e5ffa93abedc3fb41bb34941eff23b0892ecf",
          "blockNumber": "0x5b0978",
          "transactionHash": "0x65194cfcc72f9577ec4a7c35ba4d8b9dbcf0593585b2ddee505be4bb9fa354ce",
          "transactionIndex": "0x38",
          "logIndex": "0x94",
          "removed": false
        },
        {
          "address": "0xc6eaf449f79b081300f5317122b2dff3f039ad0b",
          "topics": [
            "0x442e715f626346e8c54381002da614f62bee8d27386535b2521ec8540898556e"
          ],
          "data": "0x95e31e46927fc4ddad53305445301e650f9e6a6dfd4448b7cc2cd70e39e69dd20000000000000000000000000000000000000000000000000000000000000000",
          "blockHash": "0x4cf8ad4a10c01e47b4641a92321e5ffa93abedc3fb41bb34941eff23b0892ecf",
          "blockNumber": "0x5b0978",
          "transactionHash": "0x65194cfcc72f9577ec4a7c35ba4d8b9dbcf0593585b2ddee505be4bb9fa354ce",
          "transactionIndex": "0x38",
          "logIndex": "0x95",
          "removed": false
        }
      ],
      "logsBloom": "0x00000000400000000000000000000000000000000000000000000000040000000000000000000000000000000000000000000000000000000000000000000000000000000000000000000000000000000000040008000000000000000000000000000000000020000000000000000000000000000000000000000000000000000000004080000000000002000000000000000010000000000000000000000000000000000400000010000000000004000000000000000000000000000000000000000000000000000000000000020000000000800000000000000010000000000000000000000000000000000000000000000000000000000000000000000000",
      "type": "0x0",
      "transactionHash": "0x65194cfcc72f9577ec4a7c35ba4d8b9dbcf0593585b2ddee505be4bb9fa354ce",
      "transactionIndex": "0x38",
      "blockHash": "0x4cf8ad4a10c01e47b4641a92321e5ffa93abedc3fb41bb34941eff23b0892ecf",
      "blockNumber": "0x5b0978",
      "gasUsed": "0x15299",
      "effectiveGasPrice": "0x3ba9e891",
      "from": "0x2f9e113434aebdd70bb99cb6505e1f726c578d6d",
      "to": "0xc6eaf449f79b081300f5317122b2dff3f039ad0b",
      "contractAddress": null
    }
  ],
  "libraries": [],
  "pending": [],
  "returns": {},
  "timestamp": 1716528413,
  "chain": 11155111,
  "commit": "e48a856"
}