{
  "transactions": [
    {
      "hash": "0x572f3c5700b393f4fb9a6429a4dba4cdad8fb5eababa8ce8d5aab210cc1049a5",
      "transactionType": "CREATE",
      "contractName": "PassportScorer",
      "contractAddress": "0x6adb9b508f450840d36b9ec0f1503552c0fbffd6",
      "function": null,
      "arguments": null,
      "transaction": {
        "from": "0xb05a948b5c1b057b88d381bde3a375efea87ebad",
        "gas": "0x1c2aba",
        "value": "0x0",
        "input": "0x60a0806040523461003157306080526117ff9081610037823960805181818161087b0152818161099c0152610ed80152f35b600080fdfe6080604081815260048036101561001557600080fd5b600092833560e01c908163025313a21461123c575080631413d4c014611204578063175188e8146110e45780633659cfe614610eb157806339ebf82314610e5b5780633d47683014610de757806342a987a014610db0578063485cc95514610c0c5780634f1ef2861461092357806352d1902d14610866578063642ce76b14610729578063715018a6146106db5780638da5cb5b146106ad5780638df8b2fe1461068057806398575188146105e9578063c4d66de814610572578063d80ea5a014610430578063f2fde38b1461039f578063fc2ebdd1146101a25763feec7145146100ff57600080fd5b3461019e578160031936011261019e57610117611261565b602435916001600160a01b0391908261012e611641565b1633148015610191575b156101835750916020918361016d7f8b9ed475f52a60fa276f21d6848c06cbb59ebfcd26e8b8de2753c3e12a493ea795611599565b169384865260668352818187205551908152a280f35b8451637d7b71b560e01b8152fd5b5082606554163314610138565b8280fd5b50903461019e57606036600319011261019e576101bd611261565b60443592602435926001600160a01b038086169391929084870361039b578351631800f90560e21b8152838216976020949091858186818d5afa908115610391578b91610364575b508380610210611641565b16331491821561035a575b821561034d575b50508015610340575b8015610325575b15610315579061024461024992611599565b611599565b868852606783528388209081541591821592610302575b50506102f457509181866060947f9b1a157188de9a0bd2e7995d72aaba244d9bd012ddf3ae3d4f492135175070cb96945161029a81611292565b858152818101908382526001858201918783528b8652606785528686209051815501915115159060ff835491610100600160a81b03905160081b1692169060018060a81b031916171790558251948552840152820152a280f35b825163c45546f760e01b8152fd5b6001015460081c16151590503880610260565b855163e3b6914b60e01b81528490fd5b50888a5260678552826001878c20015460081c163314610232565b508260655416331461022b565b9091501633148338610222565b338c14925061021b565b6103849150863d881161038a575b61037c81836112c3565b8101906115bb565b38610205565b503d610372565b87513d8d823e3d90fd5b8780fd5b503461019e57602036600319011261019e576103b9611261565b916103c2611301565b6001600160a01b038316156103de57836103db84611360565b80f35b906020608492519162461bcd60e51b8352820152602660248201527f4f776e61626c653a206e6577206f776e657220697320746865207a65726f206160448201526564647265737360d01b6064820152fd5b50903461019e5760208060031936011261056e5761044c611261565b8251631800f90560e21b81526001600160a01b03828116959190848284818a5afa918215610564578892610545575b5080610485611641565b16331491821561053b575b821561052e575b50811561051f575b8115610503575b50156104f55750600192916104bc606792611599565b84865252832001805460ff191660011790557f652f053fc39779b70b29678135ade972fcb79966fc68fcb77c996b1aa4fd9afb8280a280f35b835163e3b6914b60e01b8152fd5b9050858752606784526001858820015460081c163314386104a6565b8091506065541633149061049f565b8192501633149038610497565b3388149250610490565b61055d919250853d871161038a5761037c81836112c3565b903861047b565b86513d8a823e3d90fd5b8380fd5b503461019e57602036600319011261019e5761058c611261565b9160ff845460081c16156105a457836103db84611360565b906020608492519162461bcd60e51b8352820152602b602482015260008051602061172a83398151915260448201526a6e697469616c697a696e6760a81b6064820152fd5b503461019e57602036600319011261019e57610603611261565b6001600160a01b039182610615611641565b1633148015610673575b15610665575090816106318593611599565b169182825260666020528120557fe9dce8c992623ce791725b21e857e33248d1f190a25b5168313420eebdaae99d8280a280f35b8351637d7b71b560e01b8152fd5b508260655416331461061f565b5050346106a957816003193601126106a95760655490516001600160a01b039091168152602090f35b5080fd5b5050346106a957816003193601126106a9576020906106ca611641565b90516001600160a01b039091168152f35b83346107265780600319360112610726576106f4611301565b603380546001600160a01b0319811690915581906001600160a01b031660008051602061174a8339815191528280a380f35b80fd5b508290346106a957826003193601126106a957610744611261565b8351631800f90560e21b815290936001600160a01b03808616936020936024359392858284818a5afa91821561085c57889261083d575b5080610785611641565b163314918215610833575b8215610826575b508115610817575b81156107fb575b50156107ed57506107d97f40ba4d5d9facd2fda74e22251d1638576e05a30482470363c7c87a7b5b298c09949596611599565b84865260678352818187205551908152a280f35b905163e3b6914b60e01b8152fd5b9050858752606785526001838820015460081c163314886107a6565b8091506065541633149061079f565b8192501633149089610797565b3388149250610790565b610855919250863d881161038a5761037c81836112c3565b908961077b565b84513d8a823e3d90fd5b508234610726578060031936011261072657507f00000000000000000000000000000000000000000000000000000000000000006001600160a01b031630036108c0576020825160008051602061170a8339815191528152f35b6020608492519162461bcd60e51b8352820152603860248201527f555550535570677261646561626c653a206d757374206e6f742062652063616c6044820152771b1959081d1a1c9bdd59da0819195b1959d85d1958d85b1b60421b6064820152fd5b50908060031936011261019e57610938611261565b906024908135906001600160401b038211610c085736602383011215610c085781850135610965816112e6565b610971835191826112c3565b81815287602094858301933688828401011161019e5780888893018637830101526001600160a01b037f00000000000000000000000000000000000000000000000000000000000000008116906109ca30831415611397565b6109e760008051602061170a8339815191529282845416146113e6565b6109ef611641565b8133911603610be1576000805160206116ca8339815191525460ff1615610a2157505050505050506103db9150611435565b87929394959697169085516352d1902d60e01b815287818b81865afa8b9181610bae575b50610a9157865162461bcd60e51b8152808b01899052602e818b01526000805160206117aa83398151915260448201526d6f6e206973206e6f74205555505360901b6064820152608490fd5b989294989791939703610b6c575050610aa982611435565b60008051602061176a8339815191528780a285845115801590610b64575b610ad5575b50505050505080f35b80610b4e96845196610ae688611292565b602788527f416464726573733a206c6f772d6c6576656c2064656c65676174652063616c6c87890152660819985a5b195960ca1b868901525190845af4913d15610b5a573d610b40610b37826112e6565b925192836112c3565b81528681943d92013e6114c5565b50388080808085610acc565b50606092506114c5565b506001610ac7565b845162461bcd60e51b815291820186905260299082015260008051602061178a8339815191526044820152681a58589b195555525160ba1b6064820152608490fd5b9091508881813d8311610bda575b610bc681836112c3565b81010312610bd657519038610a45565b8b80fd5b503d610bbc565b888760449287610bef611641565b90519363163678e960e01b855233908501521690820152fd5b8580fd5b503461019e578160031936011261019e57610c25611261565b610c2d61127c565b84549260ff8460081c161593848095610da3575b8015610d8c575b15610d325760ff198116600117875584610d21575b5060ff865460081c1615610cdc5750610c7590611360565b610c7e81611599565b606580546001600160a01b0319166001600160a01b0392909216919091179055610ca6575080f35b60207f7f26b83ff96e1f2b6a682f133852f6798a09c465da95921460cefb38474024989161ff001984541684555160018152a180f35b608490602086519162461bcd60e51b8352820152602b602482015260008051602061172a83398151915260448201526a6e697469616c697a696e6760a81b6064820152fd5b61ffff191661010117865538610c5d565b855162461bcd60e51b8152602081840152602e60248201527f496e697469616c697a61626c653a20636f6e747261637420697320616c72656160448201526d191e481a5b9a5d1a585b1a5e995960921b6064820152608490fd5b50303b158015610c485750600160ff821614610c48565b50600160ff821610610c41565b5050346106a957806003193601126106a957602090610dde610dd0611261565b610dd861127c565b906115da565b90519015158152f35b833461072657602036600319011261072657610e01611261565b610e09611301565b610e1281611599565b606580546001600160a01b039283166001600160a01b0319821681179092559091167f5117c6c457d7b27a4cb68df40b118f157ac1f1ba81f8a571d189f829d74fbc868380a380f35b5050346106a95760203660031901126106a9576060916001600160a01b039190819083610e86611261565b1681526067602052209160018354930154825193845260ff81161515602085015260081c1690820152f35b50903461019e5760208060031936011261056e57610ecd611261565b916001600160a01b037f00000000000000000000000000000000000000000000000000000000000000008116610f0530821415611397565b610f2260008051602061170a8339815191529183835416146113e6565b610f2a611641565b82339116036110bd578251848101929091906001600160401b038411838510176110aa578385528883526000805160206116ca8339815191525460ff1615610f7c575050505050506103db9150611435565b869293949596169085516352d1902d60e01b815287818a81865afa8a9181611077575b50610fec57865162461bcd60e51b8152808a01899052602e60248201526000805160206117aa83398151915260448201526d6f6e206973206e6f74205555505360901b6064820152608490fd5b979192939695949703611034575061100382611435565b60008051602061176a8339815191528780a28584511580159061102d57610ad55750505050505080f35b5080610ac7565b835162461bcd60e51b81529081018590526029602482015260008051602061178a8339815191526044820152681a58589b195555525160ba1b6064820152608490fd5b9091508881813d83116110a3575b61108f81836112c3565b8101031261109f57519038610f9f565b8a80fd5b503d611085565b634e487b7160e01b895260418852602489fd5b60448683856110ca611641565b90519263163678e960e01b84523390840152166024820152fd5b50903461019e5760208060031936011261056e57611100611261565b8251631800f90560e21b81526001600160a01b03828116959190848284818a5afa9182156105645788926111e5575b5080611139611641565b1633149182156111db575b82156111ce575b5081156111bf575b81156111a3575b50156104f557509160676001926111718795611599565b85855252822082815501557f09a1db4b80c32706328728508c941a6b954f31eb5affd32f236c1fd405f8fea48280a280f35b9050858752606784526001858820015460081c1633143861115a565b80915060655416331490611153565b819250163314903861114b565b3388149250611144565b6111fd919250853d871161038a5761037c81836112c3565b903861112f565b5050346106a95760203660031901126106a95760209181906001600160a01b0361122c611261565b1681526066845220549051908152f35b8490346106a957816003193601126106a9576033546001600160a01b03168152602090f35b600435906001600160a01b038216820361127757565b600080fd5b602435906001600160a01b038216820361127757565b606081019081106001600160401b038211176112ad57604052565b634e487b7160e01b600052604160045260246000fd5b601f909101601f19168101906001600160401b038211908210176112ad57604052565b6001600160401b0381116112ad57601f01601f191660200190565b611309611641565b336001600160a01b039091160361131c57565b606460405162461bcd60e51b815260206004820152602060248201527f4f776e61626c653a2063616c6c6572206973206e6f7420746865206f776e65726044820152fd5b603380546001600160a01b039283166001600160a01b03198216811790925590911660008051602061174a833981519152600080a3565b1561139e57565b60405162461bcd60e51b815260206004820152602c60248201526000805160206116ea83398151915260448201526b19195b1959d85d1958d85b1b60a21b6064820152608490fd5b156113ed57565b60405162461bcd60e51b815260206004820152602c60248201526000805160206116ea83398151915260448201526b6163746976652070726f787960a01b6064820152608490fd5b803b1561146a5760008051602061170a83398151915280546001600160a01b0319166001600160a01b03909216919091179055565b60405162461bcd60e51b815260206004820152602d60248201527f455243313936373a206e657720696d706c656d656e746174696f6e206973206e60448201526c1bdd08184818dbdb9d1c9858dd609a1b6064820152608490fd5b9192901561152757508151156114d9575090565b3b156114e25790565b60405162461bcd60e51b815260206004820152601d60248201527f416464726573733a2063616c6c20746f206e6f6e2d636f6e74726163740000006044820152606490fd5b82519091501561153a5750805190602001fd5b6040519062461bcd60e51b82528160208060048301528251908160248401526000935b828510611580575050604492506000838284010152601f80199101168101030190fd5b848101820151868601604401529381019385935061155d565b6001600160a01b0316156115a957565b60405163d92e233d60e01b8152600490fd5b9081602091031261127757516001600160a01b03811681036112775790565b9060018060a01b038092166000526066602052816040600020549116600052606760205260406000209160405161161081611292565b6040600185549586845201549260ff841615938415602085015260081c1691015261163a57101590565b5050600190565b6033546001600160a01b0390811690813b61165a575090565b604051638da5cb5b60e01b8152602081600481865afa91829160009361168a575b5050611685575090565b905090565b602093919293813d82116116c1575b816116a6602093836112c3565b810103126106a957519182168203610726575090388061167b565b3d915061169956fe4910fdfa16fed3260ed0e7147f7cc6da11a60208b5b9406d12a635614ffd914346756e6374696f6e206d7573742062652063616c6c6564207468726f75676820360894a13ba1a3210667c828492db98dca3e2076cc3735a920a3ca505d382bbc496e697469616c697a61626c653a20636f6e7472616374206973206e6f7420698be0079c531659141344cd1fd0a4f28419497f9722a3daafe3b4186f6b6457e0bc7cd75a20ee27fd9adebab32041f755214dbc6bffa90cc0225b39da2e5c2d3b45524331393637557067726164653a20756e737570706f727465642070726f7845524331393637557067726164653a206e657720696d706c656d656e74617469a26469706673582212206920b3ca54f44c88be912b79f550db4584a8dbb82915afaf2abf04778a16912864736f6c63430008130033",
        "nonce": "0xacb",
        "chainId": "0x66eee"
      },
      "additionalContracts": [],
      "isFixedGasLimit": false
    },
    {
      "hash": "0x296284069551f7e8660a61c38dcee366a004179802919e3c56a2af48676eda17",
      "transactionType": "CREATE",
      "contractName": "ERC1967Proxy",
      "contractAddress": "0x32fe66622a4d4607241ac723e23fef487acdabb5",
      "function": null,
      "arguments": [
        "0x6aDB9B508f450840d36B9eC0f1503552c0fBFfd6",
        "0x485cc955000000000000000000000000a718aca8eb8f01ecfe929bf16c19e562b57b053b000000000000000000000000d28473fbd87183864cac0482dbee1c54ee3d8cd1"
      ],
      "transaction": {
        "from": "0xb05a948b5c1b057b88d381bde3a375efea87ebad",
        "gas": "0x42631",
        "value": "0x0",
        "input": "0x604060808152610410908138038061001681610218565b93843982019181818403126102135780516001600160a01b038116808203610213576020838101516001600160401b0394919391858211610213570186601f820112156102135780519061007161006c83610253565b610218565b918083528583019886828401011161021357888661008f930161026e565b813b156101b9577f360894a13ba1a3210667c828492db98dca3e2076cc3735a920a3ca505d382bbc80546001600160a01b031916841790556000927fbc7cd75a20ee27fd9adebab32041f755214dbc6bffa90cc0225b39da2e5c2d3b8480a28051158015906101b2575b61010b575b855160cb90816103458239f35b855194606086019081118682101761019e578697849283926101889952602788527f416464726573733a206c6f772d6c6576656c2064656c65676174652063616c6c87890152660819985a5b195960ca1b8a8901525190845af4913d15610194573d9061017a61006c83610253565b91825281943d92013e610291565b508038808080806100fe565b5060609250610291565b634e487b7160e01b84526041600452602484fd5b50826100f9565b855162461bcd60e51b815260048101859052602d60248201527f455243313936373a206e657720696d706c656d656e746174696f6e206973206e60448201526c1bdd08184818dbdb9d1c9858dd609a1b6064820152608490fd5b600080fd5b6040519190601f01601f191682016001600160401b0381118382101761023d57604052565b634e487b7160e01b600052604160045260246000fd5b6001600160401b03811161023d57601f01601f191660200190565b60005b8381106102815750506000910152565b8181015183820152602001610271565b919290156102f357508151156102a5575090565b3b156102ae5790565b60405162461bcd60e51b815260206004820152601d60248201527f416464726573733a2063616c6c20746f206e6f6e2d636f6e74726163740000006044820152606490fd5b8251909150156103065750805190602001fd5b6044604051809262461bcd60e51b825260206004830152610336815180928160248601526020868601910161026e565b601f01601f19168101030190fdfe60806040523615604157600080516020607683398151915254600090819081906001600160a01b0316368280378136915af43d82803e15603d573d90f35b3d90fd5b600080516020607683398151915254600090819081906001600160a01b0316368280378136915af43d82803e15603d573d90f3fe360894a13ba1a3210667c828492db98dca3e2076cc3735a920a3ca505d382bbca2646970667358221220b9c533c5cbdc91d32688faca813a72cb34b28bff1b053c4cc32424f62e37a71f64736f6c634300081300330000000000000000000000006adb9b508f450840d36b9ec0f1503552c0fbffd600000000000000000000000000000000000000000000000000000000000000400000000000000000000000000000000000000000000000000000000000000044485cc955000000000000000000000000a718aca8eb8f01ecfe929bf16c19e562b57b053b000000000000000000000000d28473fbd87183864cac0482dbee1c54ee3d8cd100000000000000000000000000000000000000000000000000000000",
        "nonce": "0xacc",
        "chainId": "0x66eee"
      },
      "additionalContracts": [],
      "isFixedGasLimit": false
    },
    {
      "hash": "0xa252ebf1a3485628fb4a8cd4de5eeb5a4668f011d4780de095aa990ea61f928b",
      "transactionType": "CALL",
      "contractName": "ERC1967Proxy",
      "contractAddress": "0x17769fb86708abf03d7083ea7dc6b01976a91c47",
      "function": null,
      "arguments": null,
      "transaction": {
        "from": "0xb05a948b5c1b057b88d381bde3a375efea87ebad",
        "to": "0x17769fb86708abf03d7083ea7dc6b01976a91c47",
        "gas": "0x2122b",
        "value": "0x0",
        "input": "0x3864d36600000000000000000000000032fe66622a4d4607241ac723e23fef487acdabb50000000000000000000000000000000000000000000000000000000000000000",
        "nonce": "0xacd",
        "chainId": "0x66eee"
      },
      "additionalContracts": [],
      "isFixedGasLimit": false
    },
    {
      "hash": "0x51f4ec4dbaa75d257461c39d5e177dbabd6f69c49231e9e3f50311e75e3b1401",
      "transactionType": "CALL",
      "contractName": "ERC1967Proxy",
      "contractAddress": "0x233105f07593424866adeaa27a4045dcb6301844",
      "function": null,
      "arguments": null,
      "transaction": {
        "from": "0xb05a948b5c1b057b88d381bde3a375efea87ebad",
        "to": "0x233105f07593424866adeaa27a4045dcb6301844",
        "gas": "0x2122b",
        "value": "0x0",
        "input": "0x3864d36600000000000000000000000032fe66622a4d4607241ac723e23fef487acdabb50000000000000000000000000000000000000000000000000000000000000000",
        "nonce": "0xace",
        "chainId": "0x66eee"
      },
      "additionalContracts": [],
      "isFixedGasLimit": false
    },
    {
      "hash": "0x1fc74a4593b891a731766965a39182211fd3d0229d7107a42a1313d85bd681f7",
      "transactionType": "CALL",
      "contractName": "ERC1967Proxy",
      "contractAddress": "0x271c5834f61901623c00ca274dc0911131e3865d",
      "function": null,
      "arguments": null,
      "transaction": {
        "from": "0xb05a948b5c1b057b88d381bde3a375efea87ebad",
        "to": "0x271c5834f61901623c00ca274dc0911131e3865d",
        "gas": "0x2122b",
        "value": "0x0",
        "input": "0x3864d36600000000000000000000000032fe66622a4d4607241ac723e23fef487acdabb50000000000000000000000000000000000000000000000000000000000000000",
        "nonce": "0xacf",
        "chainId": "0x66eee"
      },
      "additionalContracts": [],
      "isFixedGasLimit": false
    },
    {
      "hash": "0x6477cad1ce1d6a28d01abf49c493bfe0c5bbd64be3abf1c3a2c428ea77bf3a98",
      "transactionType": "CALL",
      "contractName": "ERC1967Proxy",
      "contractAddress": "0x2a309fc9b3d3031826fae08254c3eb3fb3e136a9",
      "function": null,
      "arguments": null,
      "transaction": {
        "from": "0xb05a948b5c1b057b88d381bde3a375efea87ebad",
        "to": "0x2a309fc9b3d3031826fae08254c3eb3fb3e136a9",
        "gas": "0x2122b",
        "value": "0x0",
        "input": "0x3864d36600000000000000000000000032fe66622a4d4607241ac723e23fef487acdabb50000000000000000000000000000000000000000000000000000000000000000",
        "nonce": "0xad0",
        "chainId": "0x66eee"
      },
      "additionalContracts": [],
      "isFixedGasLimit": false
    },
    {
      "hash": "0x7b64aaeee90ac772f80d3d42319c0398b5037845ff3679a0cb77e2e8555bc3ef",
      "transactionType": "CALL",
      "contractName": "ERC1967Proxy",
      "contractAddress": "0x2b7e64cf97cb0ad9f074e941f29e99899cad6f00",
      "function": null,
      "arguments": null,
      "transaction": {
        "from": "0xb05a948b5c1b057b88d381bde3a375efea87ebad",
        "to": "0x2b7e64cf97cb0ad9f074e941f29e99899cad6f00",
        "gas": "0x2122b",
        "value": "0x0",
        "input": "0x3864d36600000000000000000000000032fe66622a4d4607241ac723e23fef487acdabb50000000000000000000000000000000000000000000000000000000000000000",
        "nonce": "0xad1",
        "chainId": "0x66eee"
      },
      "additionalContracts": [],
      "isFixedGasLimit": false
    },
    {
      "hash": "0xd226da63f18d6e144163c4679a3f6cabce7b690567e83c68cd1f7b89e7ab953a",
      "transactionType": "CALL",
      "contractName": "ERC1967Proxy",
      "contractAddress": "0x39db23696c0ad7a4afc5db891154a426193d3046",
      "function": null,
      "arguments": null,
      "transaction": {
        "from": "0xb05a948b5c1b057b88d381bde3a375efea87ebad",
        "to": "0x39db23696c0ad7a4afc5db891154a426193d3046",
        "gas": "0x2122b",
        "value": "0x0",
        "input": "0x3864d36600000000000000000000000032fe66622a4d4607241ac723e23fef487acdabb50000000000000000000000000000000000000000000000000000000000000000",
        "nonce": "0xad2",
        "chainId": "0x66eee"
      },
      "additionalContracts": [],
      "isFixedGasLimit": false
    },
    {
      "hash": "0xa615f1188cd00851db0e300a2e70dd00da7aa5654796ebc7b67da938e5b2c755",
      "transactionType": "CALL",
      "contractName": null,
      "contractAddress": "0x45cbefe5f9f0df5f76c8bdd07003724ec100497f",
      "function": "setSybilScorer(address,uint256)",
      "arguments": [
        "0x32Fe66622a4D4607241AC723e23Fef487ACDABb5",
        "0"
      ],
      "transaction": {
        "from": "0xb05a948b5c1b057b88d381bde3a375efea87ebad",
        "to": "0x45cbefe5f9f0df5f76c8bdd07003724ec100497f",
        "gas": "0x2122b",
        "value": "0x0",
        "input": "0x3864d36600000000000000000000000032fe66622a4d4607241ac723e23fef487acdabb50000000000000000000000000000000000000000000000000000000000000000",
        "nonce": "0xad3",
        "chainId": "0x66eee"
      },
      "additionalContracts": [],
      "isFixedGasLimit": false
    },
    {
      "hash": "0x85cdfd4e4d356b15ff6cc5683545b9ecd12a3577eacd46b470c2d51e38e91bd7",
      "transactionType": "CALL",
      "contractName": "ERC1967Proxy",
      "contractAddress": "0x5d63ec43e1ac82d0bb4434f2d2202eec7bb05d69",
      "function": null,
      "arguments": null,
      "transaction": {
        "from": "0xb05a948b5c1b057b88d381bde3a375efea87ebad",
        "to": "0x5d63ec43e1ac82d0bb4434f2d2202eec7bb05d69",
        "gas": "0x2122b",
        "value": "0x0",
        "input": "0x3864d36600000000000000000000000032fe66622a4d4607241ac723e23fef487acdabb50000000000000000000000000000000000000000000000000000000000000000",
        "nonce": "0xad4",
        "chainId": "0x66eee"
      },
      "additionalContracts": [],
      "isFixedGasLimit": false
    },
    {
      "hash": "0x15aacfac095c7c5c91b4d8e98f19365568a34d16b51059bb5c2be13289ee811f",
      "transactionType": "CALL",
      "contractName": "ERC1967Proxy",
      "contractAddress": "0x6500599270e13fbed12c1de58904e0358937a66c",
      "function": null,
      "arguments": null,
      "transaction": {
        "from": "0xb05a948b5c1b057b88d381bde3a375efea87ebad",
        "to": "0x6500599270e13fbed12c1de58904e0358937a66c",
        "gas": "0x2122b",
        "value": "0x0",
        "input": "0x3864d36600000000000000000000000032fe66622a4d4607241ac723e23fef487acdabb50000000000000000000000000000000000000000000000000000000000000000",
        "nonce": "0xad5",
        "chainId": "0x66eee"
      },
      "additionalContracts": [],
      "isFixedGasLimit": false
    },
    {
      "hash": "0xc5f67e170c3f41331eaf18d5d59fa1a46527d443e1089c1a0f6e061b042a59f6",
      "transactionType": "CALL",
      "contractName": "ERC1967Proxy",
      "contractAddress": "0x768a7ce48322a6360db94a4c3eae3e50babb032c",
      "function": null,
      "arguments": null,
      "transaction": {
        "from": "0xb05a948b5c1b057b88d381bde3a375efea87ebad",
        "to": "0x768a7ce48322a6360db94a4c3eae3e50babb032c",
        "gas": "0x2122b",
        "value": "0x0",
        "input": "0x3864d36600000000000000000000000032fe66622a4d4607241ac723e23fef487acdabb50000000000000000000000000000000000000000000000000000000000000000",
        "nonce": "0xad6",
        "chainId": "0x66eee"
      },
      "additionalContracts": [],
      "isFixedGasLimit": false
    },
    {
      "hash": "0x7f37ec01453506b2f9371bf6a58f9783b094d873e9886594a9443ce7a352f4ba",
      "transactionType": "CALL",
      "contractName": "ERC1967Proxy",
      "contractAddress": "0x769e1039322c9516581849485f9780390c2fac9c",
      "function": null,
      "arguments": null,
      "transaction": {
        "from": "0xb05a948b5c1b057b88d381bde3a375efea87ebad",
        "to": "0x769e1039322c9516581849485f9780390c2fac9c",
        "gas": "0x2122b",
        "value": "0x0",
        "input": "0x3864d36600000000000000000000000032fe66622a4d4607241ac723e23fef487acdabb50000000000000000000000000000000000000000000000000000000000000000",
        "nonce": "0xad7",
        "chainId": "0x66eee"
      },
      "additionalContracts": [],
      "isFixedGasLimit": false
    },
    {
      "hash": "0x746ef1bf8516d35fd1ab79e7ab5151f0b32ccea602e991944110d6719a85e207",
      "transactionType": "CALL",
      "contractName": "ERC1967Proxy",
      "contractAddress": "0x7932c33f0a0dd335aecbe83a3d88b2435543a0fb",
      "function": null,
      "arguments": null,
      "transaction": {
        "from": "0xb05a948b5c1b057b88d381bde3a375efea87ebad",
        "to": "0x7932c33f0a0dd335aecbe83a3d88b2435543a0fb",
        "gas": "0x2a32e",
        "value": "0x0",
        "input": "0x3864d36600000000000000000000000032fe66622a4d4607241ac723e23fef487acdabb50000000000000000000000000000000000000000000000000000000000002710",
        "nonce": "0xad8",
        "chainId": "0x66eee"
      },
      "additionalContracts": [],
      "isFixedGasLimit": false
    },
    {
      "hash": "0x118331594fd7f291b39bcc1cbd8c894dd3e7ba219a3de358bdd297e683724120",
      "transactionType": "CALL",
      "contractName": "ERC1967Proxy",
      "contractAddress": "0x7cebd57140c10e81fb283fb3dee28f98a6a1f3e7",
      "function": null,
      "arguments": null,
      "transaction": {
        "from": "0xb05a948b5c1b057b88d381bde3a375efea87ebad",
        "to": "0x7cebd57140c10e81fb283fb3dee28f98a6a1f3e7",
        "gas": "0x2122b",
        "value": "0x0",
        "input": "0x3864d36600000000000000000000000032fe66622a4d4607241ac723e23fef487acdabb50000000000000000000000000000000000000000000000000000000000000000",
        "nonce": "0xad9",
        "chainId": "0x66eee"
      },
      "additionalContracts": [],
      "isFixedGasLimit": false
    },
    {
      "hash": "0x88d5e7f5528859e3080d4dc3fc9af56f2418a7d5b6283f945f1ec7f289f4666f",
      "transactionType": "CALL",
      "contractName": "ERC1967Proxy",
      "contractAddress": "0x84b9c9d4f40e3c05278b6f688c5c78c89c7c95a8",
      "function": null,
      "arguments": null,
      "transaction": {
        "from": "0xb05a948b5c1b057b88d381bde3a375efea87ebad",
        "to": "0x84b9c9d4f40e3c05278b6f688c5c78c89c7c95a8",
        "gas": "0x2122b",
        "value": "0x0",
        "input": "0x3864d36600000000000000000000000032fe66622a4d4607241ac723e23fef487acdabb50000000000000000000000000000000000000000000000000000000000000000",
        "nonce": "0xada",
        "chainId": "0x66eee"
      },
      "additionalContracts": [],
      "isFixedGasLimit": false
    },
    {
      "hash": "0xa8c76e43e4b30f85607a8005a9607ae608ba929627cc3ad79a426d6de75eaf83",
      "transactionType": "CALL",
      "contractName": "ERC1967Proxy",
      "contractAddress": "0x876e104878b6dfdda13d717b5c9aec91439bc45b",
      "function": null,
      "arguments": null,
      "transaction": {
        "from": "0xb05a948b5c1b057b88d381bde3a375efea87ebad",
        "to": "0x876e104878b6dfdda13d717b5c9aec91439bc45b",
        "gas": "0x2122b",
        "value": "0x0",
        "input": "0x3864d36600000000000000000000000032fe66622a4d4607241ac723e23fef487acdabb50000000000000000000000000000000000000000000000000000000000000000",
        "nonce": "0xadb",
        "chainId": "0x66eee"
      },
      "additionalContracts": [],
      "isFixedGasLimit": false
    },
    {
      "hash": "0xf12c5cd0d43da5f29c2e01243b62a9c0db6979c64e5a7e072e2b5d573fe56d18",
      "transactionType": "CALL",
      "contractName": "ERC1967Proxy",
      "contractAddress": "0xa999227ef53b685cd0a91ca2301e550e6373d03c",
      "function": null,
      "arguments": null,
      "transaction": {
        "from": "0xb05a948b5c1b057b88d381bde3a375efea87ebad",
        "to": "0xa999227ef53b685cd0a91ca2301e550e6373d03c",
        "gas": "0x2122b",
        "value": "0x0",
        "input": "0x3864d36600000000000000000000000032fe66622a4d4607241ac723e23fef487acdabb50000000000000000000000000000000000000000000000000000000000000000",
        "nonce": "0xadc",
        "chainId": "0x66eee"
      },
      "additionalContracts": [],
      "isFixedGasLimit": false
    },
    {
      "hash": "0x571469335d13dd86024a0e95d03f511c196d0bdd666e07968a9ebfe90263a702",
      "transactionType": "CALL",
      "contractName": "ERC1967Proxy",
      "contractAddress": "0xaf83df434a976e7e4620e44b474c40f6fa7dbe18",
      "function": null,
      "arguments": null,
      "transaction": {
        "from": "0xb05a948b5c1b057b88d381bde3a375efea87ebad",
        "to": "0xaf83df434a976e7e4620e44b474c40f6fa7dbe18",
        "gas": "0x2122b",
        "value": "0x0",
        "input": "0x3864d36600000000000000000000000032fe66622a4d4607241ac723e23fef487acdabb50000000000000000000000000000000000000000000000000000000000000000",
        "nonce": "0xadd",
        "chainId": "0x66eee"
      },
      "additionalContracts": [],
      "isFixedGasLimit": false
    },
    {
      "hash": "0x9d0a8cb82ad91f5964e9847473b9585a109f56f4fb24babc2e9f0930c3faa600",
      "transactionType": "CALL",
      "contractName": null,
      "contractAddress": "0xb4a340406311a6baf6d0ca84059ca69bb3b02a07",
      "function": "setSybilScorer(address,uint256)",
      "arguments": [
        "0x32Fe66622a4D4607241AC723e23Fef487ACDABb5",
        "0"
      ],
      "transaction": {
        "from": "0xb05a948b5c1b057b88d381bde3a375efea87ebad",
        "to": "0xb4a340406311a6baf6d0ca84059ca69bb3b02a07",
        "gas": "0x2122b",
        "value": "0x0",
        "input": "0x3864d36600000000000000000000000032fe66622a4d4607241ac723e23fef487acdabb50000000000000000000000000000000000000000000000000000000000000000",
        "nonce": "0xade",
        "chainId": "0x66eee"
      },
      "additionalContracts": [],
      "isFixedGasLimit": false
    },
    {
      "hash": "0x28f435ee7c4c89d90a5c419968eb4bf28a58ece30d70e4afd75851b3a72c0deb",
      "transactionType": "CALL",
      "contractName": null,
      "contractAddress": "0xb9540d3e9dff4de30ae19a96c604d261d3919a21",
      "function": "setSybilScorer(address,uint256)",
      "arguments": [
        "0x32Fe66622a4D4607241AC723e23Fef487ACDABb5",
        "0"
      ],
      "transaction": {
        "from": "0xb05a948b5c1b057b88d381bde3a375efea87ebad",
        "to": "0xb9540d3e9dff4de30ae19a96c604d261d3919a21",
        "gas": "0x2122b",
        "value": "0x0",
        "input": "0x3864d36600000000000000000000000032fe66622a4d4607241ac723e23fef487acdabb50000000000000000000000000000000000000000000000000000000000000000",
        "nonce": "0xadf",
        "chainId": "0x66eee"
      },
      "additionalContracts": [],
      "isFixedGasLimit": false
    },
    {
      "hash": "0x866d0db91b7bb7b74f37e06fc7e4b745613176445b04136ab3e7ef0b76ff6920",
      "transactionType": "CALL",
      "contractName": "ERC1967Proxy",
      "contractAddress": "0xbd7474ca99a439d2926526a0168e3e948d2987c6",
      "function": null,
      "arguments": null,
      "transaction": {
        "from": "0xb05a948b5c1b057b88d381bde3a375efea87ebad",
        "to": "0xbd7474ca99a439d2926526a0168e3e948d2987c6",
        "gas": "0x2122b",
        "value": "0x0",
        "input": "0x3864d36600000000000000000000000032fe66622a4d4607241ac723e23fef487acdabb50000000000000000000000000000000000000000000000000000000000000000",
        "nonce": "0xae0",
        "chainId": "0x66eee"
      },
      "additionalContracts": [],
      "isFixedGasLimit": false
    },
    {
      "hash": "0xd83339a390a8131483f17d3d7f0e96bc3e52b5395bfdabe582ec87b7b195e8bf",
      "transactionType": "CALL",
      "contractName": null,
      "contractAddress": "0xc0410861dbae69dbe94ab2db56ef988625dcd322",
      "function": "setSybilScorer(address,uint256)",
      "arguments": [
        "0x32Fe66622a4D4607241AC723e23Fef487ACDABb5",
        "0"
      ],
      "transaction": {
        "from": "0xb05a948b5c1b057b88d381bde3a375efea87ebad",
        "to": "0xc0410861dbae69dbe94ab2db56ef988625dcd322",
        "gas": "0x2122b",
        "value": "0x0",
        "input": "0x3864d36600000000000000000000000032fe66622a4d4607241ac723e23fef487acdabb50000000000000000000000000000000000000000000000000000000000000000",
        "nonce": "0xae1",
        "chainId": "0x66eee"
      },
      "additionalContracts": [],
      "isFixedGasLimit": false
    },
    {
      "hash": "0xbd5d3b2129d871244fb69a8c55ba12a3cedfa09ad586428b714cc0da1649dc94",
      "transactionType": "CALL",
      "contractName": "ERC1967Proxy",
      "contractAddress": "0xc5ae99a250617a875abc9bbb485dfde746cf3ba9",
      "function": null,
      "arguments": null,
      "transaction": {
        "from": "0xb05a948b5c1b057b88d381bde3a375efea87ebad",
        "to": "0xc5ae99a250617a875abc9bbb485dfde746cf3ba9",
        "gas": "0x2122b",
        "value": "0x0",
        "input": "0x3864d36600000000000000000000000032fe66622a4d4607241ac723e23fef487acdabb50000000000000000000000000000000000000000000000000000000000000000",
        "nonce": "0xae2",
        "chainId": "0x66eee"
      },
      "additionalContracts": [],
      "isFixedGasLimit": false
    },
    {
      "hash": "0x6c0d79d7b98a7adc3b606e68acef544cb8ded9699a97649332efb9c7a5a67a08",
      "transactionType": "CALL",
      "contractName": "ERC1967Proxy",
      "contractAddress": "0xd76cd68881ad9c95000ad0a8d2f332374e91d23b",
      "function": null,
      "arguments": null,
      "transaction": {
        "from": "0xb05a948b5c1b057b88d381bde3a375efea87ebad",
        "to": "0xd76cd68881ad9c95000ad0a8d2f332374e91d23b",
        "gas": "0x2122b",
        "value": "0x0",
        "input": "0x3864d36600000000000000000000000032fe66622a4d4607241ac723e23fef487acdabb50000000000000000000000000000000000000000000000000000000000000000",
        "nonce": "0xae3",
        "chainId": "0x66eee"
      },
      "additionalContracts": [],
      "isFixedGasLimit": false
    },
    {
      "hash": "0xec07aaedee800ad0121b5887a4192ad1d3c3963d07dccc137572a47ea8e99a09",
      "transactionType": "CALL",
      "contractName": "ERC1967Proxy",
      "contractAddress": "0xd8e2fc7ddc06e67b039cfaf2e1255de55e0789a0",
      "function": null,
      "arguments": null,
      "transaction": {
        "from": "0xb05a948b5c1b057b88d381bde3a375efea87ebad",
        "to": "0xd8e2fc7ddc06e67b039cfaf2e1255de55e0789a0",
        "gas": "0x2122b",
        "value": "0x0",
        "input": "0x3864d36600000000000000000000000032fe66622a4d4607241ac723e23fef487acdabb50000000000000000000000000000000000000000000000000000000000000000",
        "nonce": "0xae4",
        "chainId": "0x66eee"
      },
      "additionalContracts": [],
      "isFixedGasLimit": false
    },
    {
      "hash": "0x7a1001d3fc9267f20d1dff2bc1006d2864f958aa89716ca6b9b3b5cfc5ec73c6",
      "transactionType": "CALL",
      "contractName": "ERC1967Proxy",
      "contractAddress": "0xdc3a597e60297bf51627918019ba7252b844970c",
      "function": null,
      "arguments": null,
      "transaction": {
        "from": "0xb05a948b5c1b057b88d381bde3a375efea87ebad",
        "to": "0xdc3a597e60297bf51627918019ba7252b844970c",
        "gas": "0x2122b",
        "value": "0x0",
        "input": "0x3864d36600000000000000000000000032fe66622a4d4607241ac723e23fef487acdabb50000000000000000000000000000000000000000000000000000000000000000",
        "nonce": "0xae5",
        "chainId": "0x66eee"
      },
      "additionalContracts": [],
      "isFixedGasLimit": false
    },
    {
      "hash": "0xf00de68b854775d12c84b2f003ca3c1f876bea33cc8dd82f1e421cdd01d698ef",
      "transactionType": "CALL",
      "contractName": null,
      "contractAddress": "0xdd02fe21984aef0d8d3fa46d545b2dece39749b4",
      "function": "setSybilScorer(address,uint256)",
      "arguments": [
        "0x32Fe66622a4D4607241AC723e23Fef487ACDABb5",
        "0"
      ],
      "transaction": {
        "from": "0xb05a948b5c1b057b88d381bde3a375efea87ebad",
        "to": "0xdd02fe21984aef0d8d3fa46d545b2dece39749b4",
        "gas": "0x2122b",
        "value": "0x0",
        "input": "0x3864d36600000000000000000000000032fe66622a4d4607241ac723e23fef487acdabb50000000000000000000000000000000000000000000000000000000000000000",
        "nonce": "0xae6",
        "chainId": "0x66eee"
      },
      "additionalContracts": [],
      "isFixedGasLimit": false
    },
    {
      "hash": "0x73ab7ca2ed3b983e1f1ee70ac54456533b72c007d4f10f6827b6495b544a6a14",
      "transactionType": "CALL",
      "contractName": null,
      "contractAddress": "0xe0eb96a8c31d95ccca8f7fa52ee38d0d42b4167b",
      "function": "setSybilScorer(address,uint256)",
      "arguments": [
        "0x32Fe66622a4D4607241AC723e23Fef487ACDABb5",
        "0"
      ],
      "transaction": {
        "from": "0xb05a948b5c1b057b88d381bde3a375efea87ebad",
        "to": "0xe0eb96a8c31d95ccca8f7fa52ee38d0d42b4167b",
        "gas": "0x2122b",
        "value": "0x0",
        "input": "0x3864d36600000000000000000000000032fe66622a4d4607241ac723e23fef487acdabb50000000000000000000000000000000000000000000000000000000000000000",
        "nonce": "0xae7",
        "chainId": "0x66eee"
      },
      "additionalContracts": [],
      "isFixedGasLimit": false
    },
    {
      "hash": "0x66d3d3a7fc6a36ec7b7bbbee0445d11f77ac80032c533ac063379a831303ba37",
      "transactionType": "CALL",
      "contractName": "ERC1967Proxy",
      "contractAddress": "0xe57e7f0707bdb9c826a7c6da352dfb2be1275c21",
      "function": null,
      "arguments": null,
      "transaction": {
        "from": "0xb05a948b5c1b057b88d381bde3a375efea87ebad",
        "to": "0xe57e7f0707bdb9c826a7c6da352dfb2be1275c21",
        "gas": "0x2122b",
        "value": "0x0",
        "input": "0x3864d36600000000000000000000000032fe66622a4d4607241ac723e23fef487acdabb50000000000000000000000000000000000000000000000000000000000000000",
        "nonce": "0xae8",
        "chainId": "0x66eee"
      },
      "additionalContracts": [],
      "isFixedGasLimit": false
    },
    {
      "hash": "0x4d1522b8c0cf6a53b769d7e08c3e538189eb78a93a04b1f13b131b408e1c65c4",
      "transactionType": "CALL",
      "contractName": "ERC1967Proxy",
      "contractAddress": "0xee81fb9c0a60dfc69a7922bc3472418dd46f7dd3",
      "function": null,
      "arguments": null,
      "transaction": {
        "from": "0xb05a948b5c1b057b88d381bde3a375efea87ebad",
        "to": "0xee81fb9c0a60dfc69a7922bc3472418dd46f7dd3",
        "gas": "0x27dbc",
        "value": "0x0",
        "input": "0x3864d36600000000000000000000000032fe66622a4d4607241ac723e23fef487acdabb500000000000000000000000000000000000000000000000000000000000186a0",
        "nonce": "0xae9",
        "chainId": "0x66eee"
      },
      "additionalContracts": [],
      "isFixedGasLimit": false
    },
    {
      "hash": "0xa25b9b4e13b9e4f7268fd52fd18325dcdd4eaac3057ec06c72cc2deef55a761c",
      "transactionType": "CALL",
      "contractName": "ERC1967Proxy",
      "contractAddress": "0xfbaecc060d6a9051eb13c824b9eaff825976d44f",
      "function": null,
      "arguments": null,
      "transaction": {
        "from": "0xb05a948b5c1b057b88d381bde3a375efea87ebad",
        "to": "0xfbaecc060d6a9051eb13c824b9eaff825976d44f",
        "gas": "0x2a32e",
        "value": "0x0",
        "input": "0x3864d36600000000000000000000000032fe66622a4d4607241ac723e23fef487acdabb50000000000000000000000000000000000000000000000000000000000002710",
        "nonce": "0xaea",
        "chainId": "0x66eee"
      },
      "additionalContracts": [],
      "isFixedGasLimit": false
    },
    {
      "hash": "0x6eb0164ccfc135125055c1915833f77cfa45d73c75194b7107f1284e9bb1e341",
      "transactionType": "CALL",
      "contractName": "ERC1967Proxy",
      "contractAddress": "0xfd71d94f892670d3085cfaf1d93d0e4eb0b8963b",
      "function": null,
      "arguments": null,
      "transaction": {
        "from": "0xb05a948b5c1b057b88d381bde3a375efea87ebad",
        "to": "0xfd71d94f892670d3085cfaf1d93d0e4eb0b8963b",
        "gas": "0x2122b",
        "value": "0x0",
        "input": "0x3864d36600000000000000000000000032fe66622a4d4607241ac723e23fef487acdabb50000000000000000000000000000000000000000000000000000000000000000",
        "nonce": "0xaeb",
        "chainId": "0x66eee"
      },
      "additionalContracts": [],
      "isFixedGasLimit": false
    }
  ],
  "receipts": [
    {
      "status": "0x1",
      "cumulativeGasUsed": "0x17051b",
      "logs": [],
      "logsBloom": "0x00000000000000000000000000000000000000000000000000000000000000000000000000000000000000000000000000000000000000000000000000000000000000000000000000000000000000000000000000000000000000000000000000000000000000000000000000000000000000000000000000000000000000000000000000000000000000000000000000000000000000000000000000000000000000000000000000000000000000000000000000000000000000000000000000000000000000000000000000000000000000000000000000000000000000000000000000000000000000000000000000000000000000000000000000000000",
      "type": "0x2",
      "transactionHash": "0x572f3c5700b393f4fb9a6429a4dba4cdad8fb5eababa8ce8d5aab210cc1049a5",
      "transactionIndex": "0x2",
      "blockHash": "0x2e3900d36b53bd2fb9a3e011b7b0622b39596dad7fb8248731caae7f13da1924",
      "blockNumber": "0x5b47f54",
      "gasUsed": "0x156ec9",
      "effectiveGasPrice": "0x5f5e100",
      "from": "0xb05a948b5c1b057b88d381bde3a375efea87ebad",
      "to": null,
      "contractAddress": "0x6adb9b508f450840d36b9ec0f1503552c0fbffd6",
      "gasUsedForL1": "0x5d32",
      "l1BlockNumber": "0x6b6d8d"
    },
    {
      "status": "0x1",
      "cumulativeGasUsed": "0x34b15",
      "logs": [
        {
          "address": "0x32fe66622a4d4607241ac723e23fef487acdabb5",
          "topics": [
            "0xbc7cd75a20ee27fd9adebab32041f755214dbc6bffa90cc0225b39da2e5c2d3b",
            "0x0000000000000000000000006adb9b508f450840d36b9ec0f1503552c0fbffd6"
          ],
          "data": "0x",
          "blockHash": "0x17d5e8b7b1baffa0faa477e25a6659edb92bd07a4d1b16b445a3964827d57125",
          "blockNumber": "0x5b47f57",
          "transactionHash": "0x296284069551f7e8660a61c38dcee366a004179802919e3c56a2af48676eda17",
          "transactionIndex": "0x1",
          "logIndex": "0x0",
          "removed": false
        },
        {
          "address": "0x32fe66622a4d4607241ac723e23fef487acdabb5",
          "topics": [
            "0x8be0079c531659141344cd1fd0a4f28419497f9722a3daafe3b4186f6b6457e0",
            "0x0000000000000000000000000000000000000000000000000000000000000000",
            "0x000000000000000000000000d28473fbd87183864cac0482dbee1c54ee3d8cd1"
          ],
          "data": "0x",
          "blockHash": "0x17d5e8b7b1baffa0faa477e25a6659edb92bd07a4d1b16b445a3964827d57125",
          "blockNumber": "0x5b47f57",
          "transactionHash": "0x296284069551f7e8660a61c38dcee366a004179802919e3c56a2af48676eda17",
          "transactionIndex": "0x1",
          "logIndex": "0x1",
          "removed": false
        },
        {
          "address": "0x32fe66622a4d4607241ac723e23fef487acdabb5",
          "topics": [
            "0x7f26b83ff96e1f2b6a682f133852f6798a09c465da95921460cefb3847402498"
          ],
          "data": "0x0000000000000000000000000000000000000000000000000000000000000001",
          "blockHash": "0x17d5e8b7b1baffa0faa477e25a6659edb92bd07a4d1b16b445a3964827d57125",
          "blockNumber": "0x5b47f57",
          "transactionHash": "0x296284069551f7e8660a61c38dcee366a004179802919e3c56a2af48676eda17",
          "transactionIndex": "0x1",
          "logIndex": "0x2",
          "removed": false
        }
      ],
      "logsBloom": "0x00000000000000000000000000010000400000000000000000800000000000000000000000004000000000000000000000000000000000000000000000000000000000000000000000000000000002000001000000000000000000000000000000000000020000000000000000000800000000000000000000000000000000400000000000000000000000000000000000000000000080000000000000000000000001000000000000000000000400000000000000000000000000000000000000000020000000000000000000050000000000001000000000000010000020000000000000000000000000000000000000020000000000020000000000000020",
      "type": "0x2",
      "transactionHash": "0x296284069551f7e8660a61c38dcee366a004179802919e3c56a2af48676eda17",
      "transactionIndex": "0x1",
      "blockHash": "0x17d5e8b7b1baffa0faa477e25a6659edb92bd07a4d1b16b445a3964827d57125",
      "blockNumber": "0x5b47f57",
      "gasUsed": "0x34b15",
      "effectiveGasPrice": "0x5f5e100",
      "from": "0xb05a948b5c1b057b88d381bde3a375efea87ebad",
      "to": null,
      "contractAddress": "0x32fe66622a4d4607241ac723e23fef487acdabb5",
      "gasUsedForL1": "0x19b5",
      "l1BlockNumber": "0x6b6d8d"
    },
    {
      "status": "0x1",
      "cumulativeGasUsed": "0x18428",
      "logs": [
        {
          "address": "0x32fe66622a4d4607241ac723e23fef487acdabb5",
          "topics": [
            "0x9b1a157188de9a0bd2e7995d72aaba244d9bd012ddf3ae3d4f492135175070cb",
            "0x00000000000000000000000017769fb86708abf03d7083ea7dc6b01976a91c47"
          ],
          "data": "0x00000000000000000000000000000000000000000000000000000000000000000000000000000000000000000000000000000000000000000000000000000000000000000000000000000000b05a948b5c1b057b88d381bde3a375efea87ebad",
          "blockHash": "0x40d68d8bbb95c8951cc852c672a1670b2ed67ca74205f7423c98535fe2845ed4",
          "blockNumber": "0x5b47f5a",
          "transactionHash": "0xa252ebf1a3485628fb4a8cd4de5eeb5a4668f011d4780de095aa990ea61f928b",
          "transactionIndex": "0x1",
          "logIndex": "0x0",
          "removed": false
        },
        {
          "address": "0x17769fb86708abf03d7083ea7dc6b01976a91c47",
          "topics": [
            "0x2667a0cd99dbc787d1d2596efe938cf43dfe83e8b8ddeb70e28007c09ff33485"
          ],
          "data": "0x00000000000000000000000032fe66622a4d4607241ac723e23fef487acdabb5",
          "blockHash": "0x40d68d8bbb95c8951cc852c672a1670b2ed67ca74205f7423c98535fe2845ed4",
          "blockNumber": "0x5b47f5a",
          "transactionHash": "0xa252ebf1a3485628fb4a8cd4de5eeb5a4668f011d4780de095aa990ea61f928b",
          "transactionIndex": "0x1",
          "logIndex": "0x1",
          "removed": false
        }
      ],
      "logsBloom": "0x00000000000000000000000000000000000000040000000000000000000000000000000110004000000000000000000000000000000000000000000000000000000000000000000000000000000000000004000200000000000000000000000000000000000000000000000000000000000000000000000000000000000010000000000000000200400000000000000000000000000000000000000000000000000000000000000000000000000000000000000000400000000000010000000000000001000000000000000000000000000000001000000000000000000000000000000000001000000000000000000000020000000000000000000000000000",
      "type": "0x2",
      "transactionHash": "0xa252ebf1a3485628fb4a8cd4de5eeb5a4668f011d4780de095aa990ea61f928b",
      "transactionIndex": "0x1",
      "blockHash": "0x40d68d8bbb95c8951cc852c672a1670b2ed67ca74205f7423c98535fe2845ed4",
      "blockNumber": "0x5b47f5a",
      "gasUsed": "0x18428",
      "effectiveGasPrice": "0x5f5e100",
      "from": "0xb05a948b5c1b057b88d381bde3a375efea87ebad",
      "to": "0x17769fb86708abf03d7083ea7dc6b01976a91c47",
      "contractAddress": null,
      "gasUsedForL1": "0x452",
      "l1BlockNumber": "0x6b6d8d"
    },
    {
      "status": "0x1",
      "cumulativeGasUsed": "0x18428",
      "logs": [
        {
          "address": "0x32fe66622a4d4607241ac723e23fef487acdabb5",
          "topics": [
            "0x9b1a157188de9a0bd2e7995d72aaba244d9bd012ddf3ae3d4f492135175070cb",
            "0x000000000000000000000000233105f07593424866adeaa27a4045dcb6301844"
          ],
          "data": "0x00000000000000000000000000000000000000000000000000000000000000000000000000000000000000000000000000000000000000000000000000000000000000000000000000000000b05a948b5c1b057b88d381bde3a375efea87ebad",
          "blockHash": "0xee1517a7776fc41af34cd8cce795d2f2974d661f7950a0441335fc6bc4e555a2",
          "blockNumber": "0x5b47f5c",
          "transactionHash": "0x51f4ec4dbaa75d257461c39d5e177dbabd6f69c49231e9e3f50311e75e3b1401",
          "transactionIndex": "0x1",
          "logIndex": "0x0",
          "removed": false
        },
        {
          "address": "0x233105f07593424866adeaa27a4045dcb6301844",
          "topics": [
            "0x2667a0cd99dbc787d1d2596efe938cf43dfe83e8b8ddeb70e28007c09ff33485"
          ],
          "data": "0x00000000000000000000000032fe66622a4d4607241ac723e23fef487acdabb5",
          "blockHash": "0xee1517a7776fc41af34cd8cce795d2f2974d661f7950a0441335fc6bc4e555a2",
          "blockNumber": "0x5b47f5c",
          "transactionHash": "0x51f4ec4dbaa75d257461c39d5e177dbabd6f69c49231e9e3f50311e75e3b1401",
          "transactionIndex": "0x1",
          "logIndex": "0x1",
          "removed": false
        }
      ],
      "logsBloom": "0x00000000000000000000000000000000000000040000000000000000000000000000000110004000000000000000000000080000000800000040000000000000000000000000000000100000000000000004000000000000000000000000000000000000000000000000000000000000000000000000000000000000000000000000000000000200000000000000000000000000000000000040000000000000000000000000000000000000000000000000000000000000000000010000000000000000000000000000000000000000000000001000000000000000000000000000000000000000000000000100000000020000000000000000000000000000",
      "type": "0x2",
      "transactionHash": "0x51f4ec4dbaa75d257461c39d5e177dbabd6f69c49231e9e3f50311e75e3b1401",
      "transactionIndex": "0x1",
      "blockHash": "0xee1517a7776fc41af34cd8cce795d2f2974d661f7950a0441335fc6bc4e555a2",
      "blockNumber": "0x5b47f5c",
      "gasUsed": "0x18428",
      "effectiveGasPrice": "0x5f5e100",
      "from": "0xb05a948b5c1b057b88d381bde3a375efea87ebad",
      "to": "0x233105f07593424866adeaa27a4045dcb6301844",
      "contractAddress": null,
      "gasUsedForL1": "0x452",
      "l1BlockNumber": "0x6b6d8d"
    },
    {
      "status": "0x1",
      "cumulativeGasUsed": "0x888d2",
      "logs": [
        {
          "address": "0x32fe66622a4d4607241ac723e23fef487acdabb5",
          "topics": [
            "0x9b1a157188de9a0bd2e7995d72aaba244d9bd012ddf3ae3d4f492135175070cb",
            "0x000000000000000000000000271c5834f61901623c00ca274dc0911131e3865d"
          ],
          "data": "0x00000000000000000000000000000000000000000000000000000000000000000000000000000000000000000000000000000000000000000000000000000000000000000000000000000000b05a948b5c1b057b88d381bde3a375efea87ebad",
          "blockHash": "0x1ef3a248838c27ddf4b1c8f39658ac43e868a8dbd5bc4e5ad8ba209259788bec",
          "blockNumber": "0x5b47f5e",
          "transactionHash": "0x1fc74a4593b891a731766965a39182211fd3d0229d7107a42a1313d85bd681f7",
          "transactionIndex": "0x3",
          "logIndex": "0x9",
          "removed": false
        },
        {
          "address": "0x271c5834f61901623c00ca274dc0911131e3865d",
          "topics": [
            "0x2667a0cd99dbc787d1d2596efe938cf43dfe83e8b8ddeb70e28007c09ff33485"
          ],
          "data": "0x00000000000000000000000032fe66622a4d4607241ac723e23fef487acdabb5",
          "blockHash": "0x1ef3a248838c27ddf4b1c8f39658ac43e868a8dbd5bc4e5ad8ba209259788bec",
          "blockNumber": "0x5b47f5e",
          "transactionHash": "0x1fc74a4593b891a731766965a39182211fd3d0229d7107a42a1313d85bd681f7",
          "transactionIndex": "0x3",
          "logIndex": "0xa",
          "removed": false
        }
      ],
      "logsBloom": "0x00000000000000000000000000000000000000040000000000080000000000000000000110004000000000000000000000000000000000000000000000000000000000000000000000000000000000000004000000000000000000000000000000000000000000000000000000000000000800000000000000000000000000000000000000000200000000000020000000000000000000000000000000000000000000000000000000000000200000000000000000000000000000010000000000000000000400000000000000000000000000081000000000000000000000000000000000000000000000000000000000020000000000000000000000000000",
      "type": "0x2",
      "transactionHash": "0x1fc74a4593b891a731766965a39182211fd3d0229d7107a42a1313d85bd681f7",
      "transactionIndex": "0x3",
      "blockHash": "0x1ef3a248838c27ddf4b1c8f39658ac43e868a8dbd5bc4e5ad8ba209259788bec",
      "blockNumber": "0x5b47f5e",
      "gasUsed": "0x18428",
      "effectiveGasPrice": "0x5f5e100",
      "from": "0xb05a948b5c1b057b88d381bde3a375efea87ebad",
      "to": "0x271c5834f61901623c00ca274dc0911131e3865d",
      "contractAddress": null,
      "gasUsedForL1": "0x452",
      "l1BlockNumber": "0x6b6d8d"
    },
    {
      "status": "0x1",
      "cumulativeGasUsed": "0x18428",
      "logs": [
        {
          "address": "0x32fe66622a4d4607241ac723e23fef487acdabb5",
          "topics": [
            "0x9b1a157188de9a0bd2e7995d72aaba244d9bd012ddf3ae3d4f492135175070cb",
            "0x0000000000000000000000002a309fc9b3d3031826fae08254c3eb3fb3e136a9"
          ],
          "data": "0x00000000000000000000000000000000000000000000000000000000000000000000000000000000000000000000000000000000000000000000000000000000000000000000000000000000b05a948b5c1b057b88d381bde3a375efea87ebad",
          "blockHash": "0xc2581042f70d20b0a2b902b2674337274d597179a6d4a1c712a40f5f9f08da70",
          "blockNumber": "0x5b47f62",
          "transactionHash": "0x6477cad1ce1d6a28d01abf49c493bfe0c5bbd64be3abf1c3a2c428ea77bf3a98",
          "transactionIndex": "0x1",
          "logIndex": "0x0",
          "removed": false
        },
        {
          "address": "0x2a309fc9b3d3031826fae08254c3eb3fb3e136a9",
          "topics": [
            "0x2667a0cd99dbc787d1d2596efe938cf43dfe83e8b8ddeb70e28007c09ff33485"
          ],
          "data": "0x00000000000000000000000032fe66622a4d4607241ac723e23fef487acdabb5",
          "blockHash": "0xc2581042f70d20b0a2b902b2674337274d597179a6d4a1c712a40f5f9f08da70",
          "blockNumber": "0x5b47f62",
          "transactionHash": "0x6477cad1ce1d6a28d01abf49c493bfe0c5bbd64be3abf1c3a2c428ea77bf3a98",
          "transactionIndex": "0x1",
          "logIndex": "0x1",
          "removed": false
        }
      ],
      "logsBloom": "0x00000000000000000000000000000000000000040000000000000000000000000000000110004000000000004000000000000000000000000000000000000000000000000000000000000000000000000004010000000000000000000000000000000000000000000000000000000000000000200000000000000000000000000000000000000200000400000000000000000000000000000000000000000000000000000200000000000000000000000000000000000000000000010000000000000000000000000000000000000000000000001000000000000000000000000000000000000000002000000000000000020000000000000000000000000000",
      "type": "0x2",
      "transactionHash": "0x6477cad1ce1d6a28d01abf49c493bfe0c5bbd64be3abf1c3a2c428ea77bf3a98",
      "transactionIndex": "0x1",
      "blockHash": "0xc2581042f70d20b0a2b902b2674337274d597179a6d4a1c712a40f5f9f08da70",
      "blockNumber": "0x5b47f62",
      "gasUsed": "0x18428",
      "effectiveGasPrice": "0x5f5e100",
      "from": "0xb05a948b5c1b057b88d381bde3a375efea87ebad",
      "to": "0x2a309fc9b3d3031826fae08254c3eb3fb3e136a9",
      "contractAddress": null,
      "gasUsedForL1": "0x452",
      "l1BlockNumber": "0x6b6d8d"
    },
    {
      "status": "0x1",
      "cumulativeGasUsed": "0x18428",
      "logs": [
        {
          "address": "0x32fe66622a4d4607241ac723e23fef487acdabb5",
          "topics": [
            "0x9b1a157188de9a0bd2e7995d72aaba244d9bd012ddf3ae3d4f492135175070cb",
            "0x0000000000000000000000002b7e64cf97cb0ad9f074e941f29e99899cad6f00"
          ],
          "data": "0x00000000000000000000000000000000000000000000000000000000000000000000000000000000000000000000000000000000000000000000000000000000000000000000000000000000b05a948b5c1b057b88d381bde3a375efea87ebad",
          "blockHash": "0x9a08e2dd3e28068b1131cde4602791ea3cc3ee0269868ed9ea704d20bf3b1237",
          "blockNumber": "0x5b47f65",
          "transactionHash": "0x7b64aaeee90ac772f80d3d42319c0398b5037845ff3679a0cb77e2e8555bc3ef",
          "transactionIndex": "0x1",
          "logIndex": "0x0",
          "removed": false
        },
        {
          "address": "0x2b7e64cf97cb0ad9f074e941f29e99899cad6f00",
          "topics": [
            "0x2667a0cd99dbc787d1d2596efe938cf43dfe83e8b8ddeb70e28007c09ff33485"
          ],
          "data": "0x00000000000000000000000032fe66622a4d4607241ac723e23fef487acdabb5",
          "blockHash": "0x9a08e2dd3e28068b1131cde4602791ea3cc3ee0269868ed9ea704d20bf3b1237",
          "blockNumber": "0x5b47f65",
          "transactionHash": "0x7b64aaeee90ac772f80d3d42319c0398b5037845ff3679a0cb77e2e8555bc3ef",
          "transactionIndex": "0x1",
          "logIndex": "0x1",
          "removed": false
        }
      ],
      "logsBloom": "0x00000000000000000000000000000000000000040000000000000000000000000000000110004000000000000000000000000000000000000000000000000000000000000000000040000000000000000004000000000000000000000000000000000000000000000000000000000000000000000000000000000000000000000000000000000200000000000000000000000000000000000000100000000000080000000000000000000000000000000000000000000000000000010000000000000000000000000000000000000000000000001000000000000000000000000000000000000000000000000000000000020400000000000000100000000000",
      "type": "0x2",
      "transactionHash": "0x7b64aaeee90ac772f80d3d42319c0398b5037845ff3679a0cb77e2e8555bc3ef",
      "transactionIndex": "0x1",
      "blockHash": "0x9a08e2dd3e28068b1131cde4602791ea3cc3ee0269868ed9ea704d20bf3b1237",
      "blockNumber": "0x5b47f65",
      "gasUsed": "0x18428",
      "effectiveGasPrice": "0x5f5e100",
      "from": "0xb05a948b5c1b057b88d381bde3a375efea87ebad",
      "to": "0x2b7e64cf97cb0ad9f074e941f29e99899cad6f00",
      "contractAddress": null,
      "gasUsedForL1": "0x452",
      "l1BlockNumber": "0x6b6d8d"
    },
    {
      "status": "0x1",
      "cumulativeGasUsed": "0x472f0",
      "logs": [
        {
          "address": "0x32fe66622a4d4607241ac723e23fef487acdabb5",
          "topics": [
            "0x9b1a157188de9a0bd2e7995d72aaba244d9bd012ddf3ae3d4f492135175070cb",
            "0x00000000000000000000000039db23696c0ad7a4afc5db891154a426193d3046"
          ],
          "data": "0x00000000000000000000000000000000000000000000000000000000000000000000000000000000000000000000000000000000000000000000000000000000000000000000000000000000b05a948b5c1b057b88d381bde3a375efea87ebad",
          "blockHash": "0x10eb6bfc5f19c4dad3fd260bd190ef7ba544ba904973df6b6c648ca3cb9014ca",
          "blockNumber": "0x5b47f67",
          "transactionHash": "0xd226da63f18d6e144163c4679a3f6cabce7b690567e83c68cd1f7b89e7ab953a",
          "transactionIndex": "0x2",
          "logIndex": "0x8",
          "removed": false
        },
        {
          "address": "0x39db23696c0ad7a4afc5db891154a426193d3046",
          "topics": [
            "0x2667a0cd99dbc787d1d2596efe938cf43dfe83e8b8ddeb70e28007c09ff33485"
          ],
          "data": "0x00000000000000000000000032fe66622a4d4607241ac723e23fef487acdabb5",
          "blockHash": "0x10eb6bfc5f19c4dad3fd260bd190ef7ba544ba904973df6b6c648ca3cb9014ca",
          "blockNumber": "0x5b47f67",
          "transactionHash": "0xd226da63f18d6e144163c4679a3f6cabce7b690567e83c68cd1f7b89e7ab953a",
          "transactionIndex": "0x2",
          "logIndex": "0x9",
          "removed": false
        }
      ],
      "logsBloom": "0x00010000000000000000000000000000000000040000000000000000000000000000000110004000000000000000000000000000000000000000000000000000000000000000000000000000000000000004000000000000000000000000000000000000000000000000000000000000000000000000000000000000200000000000000000000200000000000000000000000000000000000000000000000000000000000000000400000000000000000000000000000000000000010000000000000000080000000000000000000000000000001000000000000000000000000000000000000400000000000000000010020000000000000000000000000000",
      "type": "0x2",
      "transactionHash": "0xd226da63f18d6e144163c4679a3f6cabce7b690567e83c68cd1f7b89e7ab953a",
      "transactionIndex": "0x2",
      "blockHash": "0x10eb6bfc5f19c4dad3fd260bd190ef7ba544ba904973df6b6c648ca3cb9014ca",
      "blockNumber": "0x5b47f67",
      "gasUsed": "0x18428",
      "effectiveGasPrice": "0x5f5e100",
      "from": "0xb05a948b5c1b057b88d381bde3a375efea87ebad",
      "to": "0x39db23696c0ad7a4afc5db891154a426193d3046",
      "contractAddress": null,
      "gasUsedForL1": "0x452",
      "l1BlockNumber": "0x6b6d8d"
    },
    {
      "status": "0x1",
      "cumulativeGasUsed": "0x18428",
      "logs": [
        {
          "address": "0x32fe66622a4d4607241ac723e23fef487acdabb5",
          "topics": [
            "0x9b1a157188de9a0bd2e7995d72aaba244d9bd012ddf3ae3d4f492135175070cb",
            "0x00000000000000000000000045cbefe5f9f0df5f76c8bdd07003724ec100497f"
          ],
          "data": "0x00000000000000000000000000000000000000000000000000000000000000000000000000000000000000000000000000000000000000000000000000000000000000000000000000000000b05a948b5c1b057b88d381bde3a375efea87ebad",
          "blockHash": "0x8f33776613e47a867d4adb936be85d5112d047b5f1a8c665df7cbf80b4c3104a",
          "blockNumber": "0x5b47f69",
          "transactionHash": "0xa615f1188cd00851db0e300a2e70dd00da7aa5654796ebc7b67da938e5b2c755",
          "transactionIndex": "0x1",
          "logIndex": "0x0",
          "removed": false
        },
        {
          "address": "0x45cbefe5f9f0df5f76c8bdd07003724ec100497f",
          "topics": [
            "0x2667a0cd99dbc787d1d2596efe938cf43dfe83e8b8ddeb70e28007c09ff33485"
          ],
          "data": "0x00000000000000000000000032fe66622a4d4607241ac723e23fef487acdabb5",
          "blockHash": "0x8f33776613e47a867d4adb936be85d5112d047b5f1a8c665df7cbf80b4c3104a",
          "blockNumber": "0x5b47f69",
          "transactionHash": "0xa615f1188cd00851db0e300a2e70dd00da7aa5654796ebc7b67da938e5b2c755",
          "transactionIndex": "0x1",
          "logIndex": "0x1",
          "removed": false
        }
      ],
      "logsBloom": "0x00000000000000000000100000000000000000040000000000000000000000000000000110004000000000000000000000000000000000000000000000000000000000000000000000000000000000040004000000000000000000000000000000000000000200000000000000000000000000000400000000000000000000000000000000000200000000100000000000000000000000000000000000000000000000000000000000000000000000000000000000000000000000010008000000000000000000000000000000000000000000001000000000000000000000000000000000000000000000000000000000020000000000000000000000000000",
      "type": "0x2",
      "transactionHash": "0xa615f1188cd00851db0e300a2e70dd00da7aa5654796ebc7b67da938e5b2c755",
      "transactionIndex": "0x1",
      "blockHash": "0x8f33776613e47a867d4adb936be85d5112d047b5f1a8c665df7cbf80b4c3104a",
      "blockNumber": "0x5b47f69",
      "gasUsed": "0x18428",
      "effectiveGasPrice": "0x5f5e100",
      "from": "0xb05a948b5c1b057b88d381bde3a375efea87ebad",
      "to": "0x45cbefe5f9f0df5f76c8bdd07003724ec100497f",
      "contractAddress": null,
      "gasUsedForL1": "0x452",
      "l1BlockNumber": "0x6b6d8d"
    },
    {
      "status": "0x1",
      "cumulativeGasUsed": "0x18428",
      "logs": [
        {
          "address": "0x32fe66622a4d4607241ac723e23fef487acdabb5",
          "topics": [
            "0x9b1a157188de9a0bd2e7995d72aaba244d9bd012ddf3ae3d4f492135175070cb",
            "0x0000000000000000000000005d63ec43e1ac82d0bb4434f2d2202eec7bb05d69"
          ],
          "data": "0x00000000000000000000000000000000000000000000000000000000000000000000000000000000000000000000000000000000000000000000000000000000000000000000000000000000b05a948b5c1b057b88d381bde3a375efea87ebad",
          "blockHash": "0xbbe331b9eeae7cc67cf6ea8ca132bdf33e458be05f1263430df2aa90c48f460e",
          "blockNumber": "0x5b47f6c",
          "transactionHash": "0x85cdfd4e4d356b15ff6cc5683545b9ecd12a3577eacd46b470c2d51e38e91bd7",
          "transactionIndex": "0x1",
          "logIndex": "0x0",
          "removed": false
        },
        {
          "address": "0x5d63ec43e1ac82d0bb4434f2d2202eec7bb05d69",
          "topics": [
            "0x2667a0cd99dbc787d1d2596efe938cf43dfe83e8b8ddeb70e28007c09ff33485"
          ],
          "data": "0x00000000000000000000000032fe66622a4d4607241ac723e23fef487acdabb5",
          "blockHash": "0xbbe331b9eeae7cc67cf6ea8ca132bdf33e458be05f1263430df2aa90c48f460e",
          "blockNumber": "0x5b47f6c",
          "transactionHash": "0x85cdfd4e4d356b15ff6cc5683545b9ecd12a3577eacd46b470c2d51e38e91bd7",
          "transactionIndex": "0x1",
          "logIndex": "0x1",
          "removed": false
        }
      ],
      "logsBloom": "0x00000000000000000000000000000000000000040000000000000000000000000000000110004000000000080000004000000000000000000000000000000000000000000000000000000000000000000004000000000000000000000000000000000000000000000000000000000000000000000000000000000000000000000002000000000200000000000000000000000000000000000000000000000000000000000000000000000000000000000000000000000000000000110000000000000000000000000000000000000000000000001000000000000000000000000000000000000000000000000000000000020002000000040000000000000000",
      "type": "0x2",
      "transactionHash": "0x85cdfd4e4d356b15ff6cc5683545b9ecd12a3577eacd46b470c2d51e38e91bd7",
      "transactionIndex": "0x1",
      "blockHash": "0xbbe331b9eeae7cc67cf6ea8ca132bdf33e458be05f1263430df2aa90c48f460e",
      "blockNumber": "0x5b47f6c",
      "gasUsed": "0x18428",
      "effectiveGasPrice": "0x5f5e100",
      "from": "0xb05a948b5c1b057b88d381bde3a375efea87ebad",
      "to": "0x5d63ec43e1ac82d0bb4434f2d2202eec7bb05d69",
      "contractAddress": null,
      "gasUsedForL1": "0x452",
      "l1BlockNumber": "0x6b6d8d"
    },
    {
      "status": "0x1",
      "cumulativeGasUsed": "0x18428",
      "logs": [
        {
          "address": "0x32fe66622a4d4607241ac723e23fef487acdabb5",
          "topics": [
            "0x9b1a157188de9a0bd2e7995d72aaba244d9bd012ddf3ae3d4f492135175070cb",
            "0x0000000000000000000000006500599270e13fbed12c1de58904e0358937a66c"
          ],
          "data": "0x00000000000000000000000000000000000000000000000000000000000000000000000000000000000000000000000000000000000000000000000000000000000000000000000000000000b05a948b5c1b057b88d381bde3a375efea87ebad",
          "blockHash": "0x9689237dae2d535d71dcf3eef3244055618f4269ce0f73ccdf330e5773ec5594",
          "blockNumber": "0x5b47f6e",
          "transactionHash": "0x15aacfac095c7c5c91b4d8e98f19365568a34d16b51059bb5c2be13289ee811f",
          "transactionIndex": "0x1",
          "logIndex": "0x0",
          "removed": false
        },
        {
          "address": "0x6500599270e13fbed12c1de58904e0358937a66c",
          "topics": [
            "0x2667a0cd99dbc787d1d2596efe938cf43dfe83e8b8ddeb70e28007c09ff33485"
          ],
          "data": "0x00000000000000000000000032fe66622a4d4607241ac723e23fef487acdabb5",
          "blockHash": "0x9689237dae2d535d71dcf3eef3244055618f4269ce0f73ccdf330e5773ec5594",
          "blockNumber": "0x5b47f6e",
          "transactionHash": "0x15aacfac095c7c5c91b4d8e98f19365568a34d16b51059bb5c2be13289ee811f",
          "transactionIndex": "0x1",
          "logIndex": "0x1",
          "removed": false
        }
      ],
      "logsBloom": "0x00000000000000000000000000000000000000040000000000000000000000000000000110004000000000000000000000000000000000000000000000000000000000000000000000000000000000000004000001000000000000000000000000000000000000000000000000000000000000000000000000000000000000000000200000010200000000000000000000000000000000000000000000000000000000000000000000000000000000000000000000000002000000010000000000000000000000000000000000100000000000001000000000080000000000000000000000000000000000000000000000020000000000000000000000000000",
      "type": "0x2",
      "transactionHash": "0x15aacfac095c7c5c91b4d8e98f19365568a34d16b51059bb5c2be13289ee811f",
      "transactionIndex": "0x1",
      "blockHash": "0x9689237dae2d535d71dcf3eef3244055618f4269ce0f73ccdf330e5773ec5594",
      "blockNumber": "0x5b47f6e",
      "gasUsed": "0x18428",
      "effectiveGasPrice": "0x5f5e100",
      "from": "0xb05a948b5c1b057b88d381bde3a375efea87ebad",
      "to": "0x6500599270e13fbed12c1de58904e0358937a66c",
      "contractAddress": null,
      "gasUsedForL1": "0x452",
      "l1BlockNumber": "0x6b6d8e"
    },
    {
      "status": "0x1",
      "cumulativeGasUsed": "0x18428",
      "logs": [
        {
          "address": "0x32fe66622a4d4607241ac723e23fef487acdabb5",
          "topics": [
            "0x9b1a157188de9a0bd2e7995d72aaba244d9bd012ddf3ae3d4f492135175070cb",
            "0x000000000000000000000000768a7ce48322a6360db94a4c3eae3e50babb032c"
          ],
          "data": "0x00000000000000000000000000000000000000000000000000000000000000000000000000000000000000000000000000000000000000000000000000000000000000000000000000000000b05a948b5c1b057b88d381bde3a375efea87ebad",
          "blockHash": "0xd1fd987d0ff68155b7a0232b0eeec08d175e7bc36923623094327078ce5fdbdf",
          "blockNumber": "0x5b47f71",
          "transactionHash": "0xc5f67e170c3f41331eaf18d5d59fa1a46527d443e1089c1a0f6e061b042a59f6",
          "transactionIndex": "0x1",
          "logIndex": "0x0",
          "removed": false
        },
        {
          "address": "0x768a7ce48322a6360db94a4c3eae3e50babb032c",
          "topics": [
            "0x2667a0cd99dbc787d1d2596efe938cf43dfe83e8b8ddeb70e28007c09ff33485"
          ],
          "data": "0x00000000000000000000000032fe66622a4d4607241ac723e23fef487acdabb5",
          "blockHash": "0xd1fd987d0ff68155b7a0232b0eeec08d175e7bc36923623094327078ce5fdbdf",
          "blockNumber": "0x5b47f71",
          "transactionHash": "0xc5f67e170c3f41331eaf18d5d59fa1a46527d443e1089c1a0f6e061b042a59f6",
          "transactionIndex": "0x1",
          "logIndex": "0x1",
          "removed": false
        }
      ],
      "logsBloom": "0x00000000000000000000000000000000000000040000000000000000400000000000000110004000000000000000000000000000000000000000000000000400000000000000000000000000000000000004000000000000000000001000000040000000000000000000000000000000000000000000000000000000000000000000000010000200000000000000000000000000000000000000000000000000000000000000000000000000000000000000000000000000000000010000000000000000000000000000000000000000000000001000000000000100000000000000000000000000000000000000000000020000000000000000000000000000",
      "type": "0x2",
      "transactionHash": "0xc5f67e170c3f41331eaf18d5d59fa1a46527d443e1089c1a0f6e061b042a59f6",
      "transactionIndex": "0x1",
      "blockHash": "0xd1fd987d0ff68155b7a0232b0eeec08d175e7bc36923623094327078ce5fdbdf",
      "blockNumber": "0x5b47f71",
      "gasUsed": "0x18428",
      "effectiveGasPrice": "0x5f5e100",
      "from": "0xb05a948b5c1b057b88d381bde3a375efea87ebad",
      "to": "0x768a7ce48322a6360db94a4c3eae3e50babb032c",
      "contractAddress": null,
      "gasUsedForL1": "0x452",
      "l1BlockNumber": "0x6b6d8e"
    },
    {
      "status": "0x1",
      "cumulativeGasUsed": "0x18428",
      "logs": [
        {
          "address": "0x32fe66622a4d4607241ac723e23fef487acdabb5",
          "topics": [
            "0x9b1a157188de9a0bd2e7995d72aaba244d9bd012ddf3ae3d4f492135175070cb",
            "0x000000000000000000000000769e1039322c9516581849485f9780390c2fac9c"
          ],
          "data": "0x00000000000000000000000000000000000000000000000000000000000000000000000000000000000000000000000000000000000000000000000000000000000000000000000000000000b05a948b5c1b057b88d381bde3a375efea87ebad",
          "blockHash": "0x9dfcdf41bae7094fcb8ad9e778763de93252c52555439b1fee2fdca06258fa32",
          "blockNumber": "0x5b47f72",
          "transactionHash": "0x7f37ec01453506b2f9371bf6a58f9783b094d873e9886594a9443ce7a352f4ba",
          "transactionIndex": "0x1",
          "logIndex": "0x0",
          "removed": false
        },
        {
          "address": "0x769e1039322c9516581849485f9780390c2fac9c",
          "topics": [
            "0x2667a0cd99dbc787d1d2596efe938cf43dfe83e8b8ddeb70e28007c09ff33485"
          ],
          "data": "0x00000000000000000000000032fe66622a4d4607241ac723e23fef487acdabb5",
          "blockHash": "0x9dfcdf41bae7094fcb8ad9e778763de93252c52555439b1fee2fdca06258fa32",
          "blockNumber": "0x5b47f72",
          "transactionHash": "0x7f37ec01453506b2f9371bf6a58f9783b094d873e9886594a9443ce7a352f4ba",
          "transactionIndex": "0x1",
          "logIndex": "0x1",
          "removed": false
        }
      ],
      "logsBloom": "0x00000000000000000000400000000000000000040000000000000000000000000000000110004000000000000000000000000000000040000000000000000000000000000000000000000000000000000004000000000000000000000000000000000000000000000000000000000000000000000000000000000000000000000000000000000200000000000000000000000080000000000000000000000000400000000000000000000000000000000000000000000200000000010000000000000000000000000000000000000000000000001000000000000000000000080000000000000000000000000000000000020000000000000000000000000000",
      "type": "0x2",
      "transactionHash": "0x7f37ec01453506b2f9371bf6a58f9783b094d873e9886594a9443ce7a352f4ba",
      "transactionIndex": "0x1",
      "blockHash": "0x9dfcdf41bae7094fcb8ad9e778763de93252c52555439b1fee2fdca06258fa32",
      "blockNumber": "0x5b47f72",
      "gasUsed": "0x18428",
      "effectiveGasPrice": "0x5f5e100",
      "from": "0xb05a948b5c1b057b88d381bde3a375efea87ebad",
      "to": "0x769e1039322c9516581849485f9780390c2fac9c",
      "contractAddress": null,
      "gasUsedForL1": "0x452",
      "l1BlockNumber": "0x6b6d8e"
    },
    {
      "status": "0x1",
      "cumulativeGasUsed": "0x67e3a",
      "logs": [
        {
          "address": "0x32fe66622a4d4607241ac723e23fef487acdabb5",
          "topics": [
            "0x9b1a157188de9a0bd2e7995d72aaba244d9bd012ddf3ae3d4f492135175070cb",
            "0x0000000000000000000000007932c33f0a0dd335aecbe83a3d88b2435543a0fb"
          ],
          "data": "0x00000000000000000000000000000000000000000000000000000000000027100000000000000000000000000000000000000000000000000000000000000000000000000000000000000000b05a948b5c1b057b88d381bde3a375efea87ebad",
          "blockHash": "0x20edc697fe40ae7327c520fdc70d4a8997057e363e17dba5ecacfd1404a82188",
          "blockNumber": "0x5b47f75",
          "transactionHash": "0x746ef1bf8516d35fd1ab79e7ab5151f0b32ccea602e991944110d6719a85e207",
          "transactionIndex": "0x3",
          "logIndex": "0x4",
          "removed": false
        },
        {
          "address": "0x7932c33f0a0dd335aecbe83a3d88b2435543a0fb",
          "topics": [
            "0x2667a0cd99dbc787d1d2596efe938cf43dfe83e8b8ddeb70e28007c09ff33485"
          ],
          "data": "0x00000000000000000000000032fe66622a4d4607241ac723e23fef487acdabb5",
          "blockHash": "0x20edc697fe40ae7327c520fdc70d4a8997057e363e17dba5ecacfd1404a82188",
          "blockNumber": "0x5b47f75",
          "transactionHash": "0x746ef1bf8516d35fd1ab79e7ab5151f0b32ccea602e991944110d6719a85e207",
          "transactionIndex": "0x3",
          "logIndex": "0x5",
          "removed": false
        }
      ],
      "logsBloom": "0x00000000000000000000000000000000000000040000000400000000000000000000000110004000000000000000000000000000800000000000000000000000000000000000000000000000000000000004000000000000000000000000000000000000000000000000000000000000000000000000000000000000000000000000000000000200000000000000000000000000000000000000000000000000000000000000100000000000000000000100000000000002000000010000000000000000000000000000080000000000000000001000000000000000000000000000000000000000000000000000000000020000000000000000000000000000",
      "type": "0x2",
      "transactionHash": "0x746ef1bf8516d35fd1ab79e7ab5151f0b32ccea602e991944110d6719a85e207",
      "transactionIndex": "0x3",
      "blockHash": "0x20edc697fe40ae7327c520fdc70d4a8997057e363e17dba5ecacfd1404a82188",
      "blockNumber": "0x5b47f75",
      "gasUsed": "0x1d1fc",
      "effectiveGasPrice": "0x5f5e100",
      "from": "0xb05a948b5c1b057b88d381bde3a375efea87ebad",
      "to": "0x7932c33f0a0dd335aecbe83a3d88b2435543a0fb",
      "contractAddress": null,
      "gasUsedForL1": "0x452",
      "l1BlockNumber": "0x6b6d8e"
    },
    {
      "status": "0x1",
      "cumulativeGasUsed": "0x20445",
      "logs": [
        {
          "address": "0x32fe66622a4d4607241ac723e23fef487acdabb5",
          "topics": [
            "0x9b1a157188de9a0bd2e7995d72aaba244d9bd012ddf3ae3d4f492135175070cb",
            "0x0000000000000000000000007cebd57140c10e81fb283fb3dee28f98a6a1f3e7"
          ],
          "data": "0x00000000000000000000000000000000000000000000000000000000000000000000000000000000000000000000000000000000000000000000000000000000000000000000000000000000b05a948b5c1b057b88d381bde3a375efea87ebad",
          "blockHash": "0x579fbafcf17f35d96a6c90c4b1ece6f3a5213755da23278c9fb03dfa75f844fc",
          "blockNumber": "0x5b47f78",
          "transactionHash": "0x118331594fd7f291b39bcc1cbd8c894dd3e7ba219a3de358bdd297e683724120",
          "transactionIndex": "0x2",
          "logIndex": "0x0",
          "removed": false
        },
        {
          "address": "0x7cebd57140c10e81fb283fb3dee28f98a6a1f3e7",
          "topics": [
            "0x2667a0cd99dbc787d1d2596efe938cf43dfe83e8b8ddeb70e28007c09ff33485"
          ],
          "data": "0x00000000000000000000000032fe66622a4d4607241ac723e23fef487acdabb5",
          "blockHash": "0x579fbafcf17f35d96a6c90c4b1ece6f3a5213755da23278c9fb03dfa75f844fc",
          "blockNumber": "0x5b47f78",
          "transactionHash": "0x118331594fd7f291b39bcc1cbd8c894dd3e7ba219a3de358bdd297e683724120",
          "transactionIndex": "0x2",
          "logIndex": "0x1",
          "removed": false
        }
      ],
      "logsBloom": "0x00000000000000000000000000000000004000040000000000000000000000000000000110004000000000000000000000000000000000000000000000000000000000000000000000000000010000000004000000000000000000000000000000000000000000000000000000000000000000000000000000000000000000000000000000000200000000000000000000000000000000000000000000000000000000000000000000000020000000000000000020000000000000010000000000000000000200000000000000000000000000001000020000000000000000000000000000000000000000000000000000020000000000000000000000000000",
      "type": "0x2",
      "transactionHash": "0x118331594fd7f291b39bcc1cbd8c894dd3e7ba219a3de358bdd297e683724120",
      "transactionIndex": "0x2",
      "blockHash": "0x579fbafcf17f35d96a6c90c4b1ece6f3a5213755da23278c9fb03dfa75f844fc",
      "blockNumber": "0x5b47f78",
      "gasUsed": "0x18428",
      "effectiveGasPrice": "0x5f5e100",
      "from": "0xb05a948b5c1b057b88d381bde3a375efea87ebad",
      "to": "0x7cebd57140c10e81fb283fb3dee28f98a6a1f3e7",
      "contractAddress": null,
      "gasUsedForL1": "0x452",
      "l1BlockNumber": "0x6b6d8e"
    },
    {
      "status": "0x1",
      "cumulativeGasUsed": "0x18428",
      "logs": [
        {
          "address": "0x32fe66622a4d4607241ac723e23fef487acdabb5",
          "topics": [
            "0x9b1a157188de9a0bd2e7995d72aaba244d9bd012ddf3ae3d4f492135175070cb",
            "0x00000000000000000000000084b9c9d4f40e3c05278b6f688c5c78c89c7c95a8"
          ],
          "data": "0x00000000000000000000000000000000000000000000000000000000000000000000000000000000000000000000000000000000000000000000000000000000000000000000000000000000b05a948b5c1b057b88d381bde3a375efea87ebad",
          "blockHash": "0xc5d2828be065a1237673ee983923e1ccacb0f85971c76e3dc7a5b731ae4425c1",
          "blockNumber": "0x5b47f7a",
          "transactionHash": "0x88d5e7f5528859e3080d4dc3fc9af56f2418a7d5b6283f945f1ec7f289f4666f",
          "transactionIndex": "0x1",
          "logIndex": "0x0",
          "removed": false
        },
        {
          "address": "0x84b9c9d4f40e3c05278b6f688c5c78c89c7c95a8",
          "topics": [
            "0x2667a0cd99dbc787d1d2596efe938cf43dfe83e8b8ddeb70e28007c09ff33485"
          ],
          "data": "0x00000000000000000000000032fe66622a4d4607241ac723e23fef487acdabb5",
          "blockHash": "0xc5d2828be065a1237673ee983923e1ccacb0f85971c76e3dc7a5b731ae4425c1",
          "blockNumber": "0x5b47f7a",
          "transactionHash": "0x88d5e7f5528859e3080d4dc3fc9af56f2418a7d5b6283f945f1ec7f289f4666f",
          "transactionIndex": "0x1",
          "logIndex": "0x1",
          "removed": false
        }
      ],
      "logsBloom": "0x00000000000000000000000000000000000000040000000000000000000000000000000110004000000000000000000000000000000000000000000000000000000000000000000000000000000000000004000000000000008000000000000000000000000000000000000000000000000000000000000000000000000000000000000000000208002000000000000000000000000000000000000000000000000000000000400000000000000000000400000000000000000000010000000000000000000000000000000000000000000000001000000000000000000000000000000000000000000000000000080000020000000000000000000000000000",
      "type": "0x2",
      "transactionHash": "0x88d5e7f5528859e3080d4dc3fc9af56f2418a7d5b6283f945f1ec7f289f4666f",
      "transactionIndex": "0x1",
      "blockHash": "0xc5d2828be065a1237673ee983923e1ccacb0f85971c76e3dc7a5b731ae4425c1",
      "blockNumber": "0x5b47f7a",
      "gasUsed": "0x18428",
      "effectiveGasPrice": "0x5f5e100",
      "from": "0xb05a948b5c1b057b88d381bde3a375efea87ebad",
      "to": "0x84b9c9d4f40e3c05278b6f688c5c78c89c7c95a8",
      "contractAddress": null,
      "gasUsedForL1": "0x452",
      "l1BlockNumber": "0x6b6d8e"
    },
    {
      "status": "0x1",
      "cumulativeGasUsed": "0x18428",
      "logs": [
        {
          "address": "0x32fe66622a4d4607241ac723e23fef487acdabb5",
          "topics": [
            "0x9b1a157188de9a0bd2e7995d72aaba244d9bd012ddf3ae3d4f492135175070cb",
            "0x000000000000000000000000876e104878b6dfdda13d717b5c9aec91439bc45b"
          ],
          "data": "0x00000000000000000000000000000000000000000000000000000000000000000000000000000000000000000000000000000000000000000000000000000000000000000000000000000000b05a948b5c1b057b88d381bde3a375efea87ebad",
          "blockHash": "0x61706c59ed3afc4e1dd09298c01d2db1300bf9688d9a4985bddd7d998f72d36f",
          "blockNumber": "0x5b47f7c",
          "transactionHash": "0xa8c76e43e4b30f85607a8005a9607ae608ba929627cc3ad79a426d6de75eaf83",
          "transactionIndex": "0x1",
          "logIndex": "0x0",
          "removed": false
        },
        {
          "address": "0x876e104878b6dfdda13d717b5c9aec91439bc45b",
          "topics": [
            "0x2667a0cd99dbc787d1d2596efe938cf43dfe83e8b8ddeb70e28007c09ff33485"
          ],
          "data": "0x00000000000000000000000032fe66622a4d4607241ac723e23fef487acdabb5",
          "blockHash": "0x61706c59ed3afc4e1dd09298c01d2db1300bf9688d9a4985bddd7d998f72d36f",
          "blockNumber": "0x5b47f7c",
          "transactionHash": "0xa8c76e43e4b30f85607a8005a9607ae608ba929627cc3ad79a426d6de75eaf83",
          "transactionIndex": "0x1",
          "logIndex": "0x1",
          "removed": false
        }
      ],
      "logsBloom": "0x00000000000000800000000000000000000000040000000000000000000000000000000110004000000000000000000000000000000000000000000000000000000000000000000000000000000000000004000000000000000000000000000000000000000000000000000000000000000000000000000000000000000000000000000000000200000000000000000000008000000000000000000000000000000000000000000000000000000000000000000000000000000000010000000000000000000000000000000000000008000000001000000000000020000000000000000000000000000000000080000000028000000000000000000000000000",
      "type": "0x2",
      "transactionHash": "0xa8c76e43e4b30f85607a8005a9607ae608ba929627cc3ad79a426d6de75eaf83",
      "transactionIndex": "0x1",
      "blockHash": "0x61706c59ed3afc4e1dd09298c01d2db1300bf9688d9a4985bddd7d998f72d36f",
      "blockNumber": "0x5b47f7c",
      "gasUsed": "0x18428",
      "effectiveGasPrice": "0x5f5e100",
      "from": "0xb05a948b5c1b057b88d381bde3a375efea87ebad",
      "to": "0x876e104878b6dfdda13d717b5c9aec91439bc45b",
      "contractAddress": null,
      "gasUsedForL1": "0x452",
      "l1BlockNumber": "0x6b6d8e"
    },
    {
      "status": "0x1",
      "cumulativeGasUsed": "0x18428",
      "logs": [
        {
          "address": "0x32fe66622a4d4607241ac723e23fef487acdabb5",
          "topics": [
            "0x9b1a157188de9a0bd2e7995d72aaba244d9bd012ddf3ae3d4f492135175070cb",
            "0x000000000000000000000000a999227ef53b685cd0a91ca2301e550e6373d03c"
          ],
          "data": "0x00000000000000000000000000000000000000000000000000000000000000000000000000000000000000000000000000000000000000000000000000000000000000000000000000000000b05a948b5c1b057b88d381bde3a375efea87ebad",
          "blockHash": "0xcdc7beafa1570347cf3d71e43828d101f1cda4a60d7a9d0520f716419d06444e",
          "blockNumber": "0x5b47f82",
          "transactionHash": "0xf12c5cd0d43da5f29c2e01243b62a9c0db6979c64e5a7e072e2b5d573fe56d18",
          "transactionIndex": "0x1",
          "logIndex": "0x0",
          "removed": false
        },
        {
          "address": "0xa999227ef53b685cd0a91ca2301e550e6373d03c",
          "topics": [
            "0x2667a0cd99dbc787d1d2596efe938cf43dfe83e8b8ddeb70e28007c09ff33485"
          ],
          "data": "0x00000000000000000000000032fe66622a4d4607241ac723e23fef487acdabb5",
          "blockHash": "0xcdc7beafa1570347cf3d71e43828d101f1cda4a60d7a9d0520f716419d06444e",
          "blockNumber": "0x5b47f82",
          "transactionHash": "0xf12c5cd0d43da5f29c2e01243b62a9c0db6979c64e5a7e072e2b5d573fe56d18",
          "transactionIndex": "0x1",
          "logIndex": "0x1",
          "removed": false
        }
      ],
      "logsBloom": "0x00000000000080000000000000000000000000040000000000000000000000000000000110004000000000000000000000000000000000000000000000000000000000040000000000000000000000080004000000000000000200000000000000000000000000000000000000000000000000000000000000000000000000000000000000000200000000000000000000000000000000001000000000000000000000000000000000004000000000000000000000000000000000010000000000000000000000000000000000000000000000001000000000000000000000000000000000000000000000000000000000020000000000000000000000000000",
      "type": "0x2",
      "transactionHash": "0xf12c5cd0d43da5f29c2e01243b62a9c0db6979c64e5a7e072e2b5d573fe56d18",
      "transactionIndex": "0x1",
      "blockHash": "0xcdc7beafa1570347cf3d71e43828d101f1cda4a60d7a9d0520f716419d06444e",
      "blockNumber": "0x5b47f82",
      "gasUsed": "0x18428",
      "effectiveGasPrice": "0x5f5e100",
      "from": "0xb05a948b5c1b057b88d381bde3a375efea87ebad",
      "to": "0xa999227ef53b685cd0a91ca2301e550e6373d03c",
      "contractAddress": null,
      "gasUsedForL1": "0x452",
      "l1BlockNumber": "0x6b6d8e"
    },
    {
      "status": "0x1",
      "cumulativeGasUsed": "0x18428",
      "logs": [
        {
          "address": "0x32fe66622a4d4607241ac723e23fef487acdabb5",
          "topics": [
            "0x9b1a157188de9a0bd2e7995d72aaba244d9bd012ddf3ae3d4f492135175070cb",
            "0x000000000000000000000000af83df434a976e7e4620e44b474c40f6fa7dbe18"
          ],
          "data": "0x00000000000000000000000000000000000000000000000000000000000000000000000000000000000000000000000000000000000000000000000000000000000000000000000000000000b05a948b5c1b057b88d381bde3a375efea87ebad",
          "blockHash": "0x2594041ddd60a044ac2ac45ffe3a6b95ef6888e569bf672f102c3f7ccd84d933",
          "blockNumber": "0x5b47f85",
          "transactionHash": "0x571469335d13dd86024a0e95d03f511c196d0bdd666e07968a9ebfe90263a702",
          "transactionIndex": "0x1",
          "logIndex": "0x0",
          "removed": false
        },
        {
          "address": "0xaf83df434a976e7e4620e44b474c40f6fa7dbe18",
          "topics": [
            "0x2667a0cd99dbc787d1d2596efe938cf43dfe83e8b8ddeb70e28007c09ff33485"
          ],
          "data": "0x00000000000000000000000032fe66622a4d4607241ac723e23fef487acdabb5",
          "blockHash": "0x2594041ddd60a044ac2ac45ffe3a6b95ef6888e569bf672f102c3f7ccd84d933",
          "blockNumber": "0x5b47f85",
          "transactionHash": "0x571469335d13dd86024a0e95d03f511c196d0bdd666e07968a9ebfe90263a702",
          "transactionIndex": "0x1",
          "logIndex": "0x1",
          "removed": false
        }
      ],
      "logsBloom": "0x00000000000000000000000000000000000000040000000000000000000000000000000110004020000000000000000000000000000000000000000000000000000000000000000200000000000000000004000000000000100000000000000000000000000000000000002000000000000000000000000000000000000000000000000000000200000000000000000000000000000000000000000000000000000000000000000000000000000000000000000001000000000000010000000000000000000000000000000000000000000000001000000000000000000000000040000000000000000000000000000000020000000000000000000000000000",
      "type": "0x2",
      "transactionHash": "0x571469335d13dd86024a0e95d03f511c196d0bdd666e07968a9ebfe90263a702",
      "transactionIndex": "0x1",
      "blockHash": "0x2594041ddd60a044ac2ac45ffe3a6b95ef6888e569bf672f102c3f7ccd84d933",
      "blockNumber": "0x5b47f85",
      "gasUsed": "0x18428",
      "effectiveGasPrice": "0x5f5e100",
      "from": "0xb05a948b5c1b057b88d381bde3a375efea87ebad",
      "to": "0xaf83df434a976e7e4620e44b474c40f6fa7dbe18",
      "contractAddress": null,
      "gasUsedForL1": "0x452",
      "l1BlockNumber": "0x6b6d8e"
    },
    {
      "status": "0x1",
      "cumulativeGasUsed": "0x2a13e",
      "logs": [
        {
          "address": "0x32fe66622a4d4607241ac723e23fef487acdabb5",
          "topics": [
            "0x9b1a157188de9a0bd2e7995d72aaba244d9bd012ddf3ae3d4f492135175070cb",
            "0x000000000000000000000000b4a340406311a6baf6d0ca84059ca69bb3b02a07"
          ],
          "data": "0x00000000000000000000000000000000000000000000000000000000000000000000000000000000000000000000000000000000000000000000000000000000000000000000000000000000b05a948b5c1b057b88d381bde3a375efea87ebad",
          "blockHash": "0x5ba626c226f7a068e5010b737355d018a53e2aa53284019fa1fc20a5de92d6cf",
          "blockNumber": "0x5b47f88",
          "transactionHash": "0x9d0a8cb82ad91f5964e9847473b9585a109f56f4fb24babc2e9f0930c3faa600",
          "transactionIndex": "0x2",
          "logIndex": "0x3",
          "removed": false
        },
        {
          "address": "0xb4a340406311a6baf6d0ca84059ca69bb3b02a07",
          "topics": [
            "0x2667a0cd99dbc787d1d2596efe938cf43dfe83e8b8ddeb70e28007c09ff33485"
          ],
          "data": "0x00000000000000000000000032fe66622a4d4607241ac723e23fef487acdabb5",
          "blockHash": "0x5ba626c226f7a068e5010b737355d018a53e2aa53284019fa1fc20a5de92d6cf",
          "blockNumber": "0x5b47f88",
          "transactionHash": "0x9d0a8cb82ad91f5964e9847473b9585a109f56f4fb24babc2e9f0930c3faa600",
          "transactionIndex": "0x2",
          "logIndex": "0x4",
          "removed": false
        }
      ],
      "logsBloom": "0x00000000000000000000000000000000000000040000000000000000000000000000000110004000000000000000000000000000000000000000000000000000000000000000000000000000000000000004000000000000000000000000000000020000000004000000000000000000000000000000000000000000000000000000000000000200000000000000000000000000000000000000000000000000000000000000000000000000000000000000000000000000000080090000000000000000000000000000000000000000000000001008000020000000000000000000000000000000000000000000000000020000000000000000000000000000",
      "type": "0x2",
      "transactionHash": "0x9d0a8cb82ad91f5964e9847473b9585a109f56f4fb24babc2e9f0930c3faa600",
      "transactionIndex": "0x2",
      "blockHash": "0x5ba626c226f7a068e5010b737355d018a53e2aa53284019fa1fc20a5de92d6cf",
      "blockNumber": "0x5b47f88",
      "gasUsed": "0x18428",
      "effectiveGasPrice": "0x5f5e100",
      "from": "0xb05a948b5c1b057b88d381bde3a375efea87ebad",
      "to": "0xb4a340406311a6baf6d0ca84059ca69bb3b02a07",
      "contractAddress": null,
      "gasUsedForL1": "0x452",
      "l1BlockNumber": "0x6b6d8e"
    },
    {
      "status": "0x1",
      "cumulativeGasUsed": "0xd21d7",
      "logs": [
        {
          "address": "0x32fe66622a4d4607241ac723e23fef487acdabb5",
          "topics": [
            "0x9b1a157188de9a0bd2e7995d72aaba244d9bd012ddf3ae3d4f492135175070cb",
            "0x000000000000000000000000b9540d3e9dff4de30ae19a96c604d261d3919a21"
          ],
          "data": "0x00000000000000000000000000000000000000000000000000000000000000000000000000000000000000000000000000000000000000000000000000000000000000000000000000000000b05a948b5c1b057b88d381bde3a375efea87ebad",
          "blockHash": "0xeb75eb58ee7383e61799b48ecff9a15077fdf25eed81dfb72f71fdcb58966a8f",
          "blockNumber": "0x5b47f8a",
          "transactionHash": "0x28f435ee7c4c89d90a5c419968eb4bf28a58ece30d70e4afd75851b3a72c0deb",
          "transactionIndex": "0x4",
          "logIndex": "0x5",
          "removed": false
        },
        {
          "address": "0xb9540d3e9dff4de30ae19a96c604d261d3919a21",
          "topics": [
            "0x2667a0cd99dbc787d1d2596efe938cf43dfe83e8b8ddeb70e28007c09ff33485"
          ],
          "data": "0x00000000000000000000000032fe66622a4d4607241ac723e23fef487acdabb5",
          "blockHash": "0xeb75eb58ee7383e61799b48ecff9a15077fdf25eed81dfb72f71fdcb58966a8f",
          "blockNumber": "0x5b47f8a",
          "transactionHash": "0x28f435ee7c4c89d90a5c419968eb4bf28a58ece30d70e4afd75851b3a72c0deb",
          "transactionIndex": "0x4",
          "logIndex": "0x6",
          "removed": false
        }
      ],
      "logsBloom": "0x00000000000000000000000000000000000000040000000000000000000000000000000110004000000000000000000000000002000000000000000000000000000000000000000000000000000000000004000000100000000002000000080000000000000000000000000000000000000000000000000000000000000000000000000000400200000000000000000000000000000000000000000000000000000000000000000000000000000000000000000000000000000000010000000000000000000000000000000000010000000000001000000000000000000000000000000000000000000000000000000000020000000000000000000000000000",
      "type": "0x2",
      "transactionHash": "0x28f435ee7c4c89d90a5c419968eb4bf28a58ece30d70e4afd75851b3a72c0deb",
      "transactionIndex": "0x4",
      "blockHash": "0xeb75eb58ee7383e61799b48ecff9a15077fdf25eed81dfb72f71fdcb58966a8f",
      "blockNumber": "0x5b47f8a",
      "gasUsed": "0x18428",
      "effectiveGasPrice": "0x5f5e100",
      "from": "0xb05a948b5c1b057b88d381bde3a375efea87ebad",
      "to": "0xb9540d3e9dff4de30ae19a96c604d261d3919a21",
      "contractAddress": null,
      "gasUsedForL1": "0x452",
      "l1BlockNumber": "0x6b6d8e"
    },
    {
      "status": "0x1",
      "cumulativeGasUsed": "0x18428",
      "logs": [
        {
          "address": "0x32fe66622a4d4607241ac723e23fef487acdabb5",
          "topics": [
            "0x9b1a157188de9a0bd2e7995d72aaba244d9bd012ddf3ae3d4f492135175070cb",
            "0x000000000000000000000000bd7474ca99a439d2926526a0168e3e948d2987c6"
          ],
          "data": "0x00000000000000000000000000000000000000000000000000000000000000000000000000000000000000000000000000000000000000000000000000000000000000000000000000000000b05a948b5c1b057b88d381bde3a375efea87ebad",
          "blockHash": "0xaadb481e23f4f82d29e1db4f610517e52361175871fc2c8f6ae6fa5d7ac0b780",
          "blockNumber": "0x5b47f8c",
          "transactionHash": "0x866d0db91b7bb7b74f37e06fc7e4b745613176445b04136ab3e7ef0b76ff6920",
          "transactionIndex": "0x1",
          "logIndex": "0x0",
          "removed": false
        },
        {
          "address": "0xbd7474ca99a439d2926526a0168e3e948d2987c6",
          "topics": [
            "0x2667a0cd99dbc787d1d2596efe938cf43dfe83e8b8ddeb70e28007c09ff33485"
          ],
          "data": "0x00000000000000000000000032fe66622a4d4607241ac723e23fef487acdabb5",
          "blockHash": "0xaadb481e23f4f82d29e1db4f610517e52361175871fc2c8f6ae6fa5d7ac0b780",
          "blockNumber": "0x5b47f8c",
          "transactionHash": "0x866d0db91b7bb7b74f37e06fc7e4b745613176445b04136ab3e7ef0b76ff6920",
          "transactionIndex": "0x1",
          "logIndex": "0x1",
          "removed": false
        }
      ],
      "logsBloom": "0x00000000000000000000000000000000000000040000000000000000000000000000000110804010000000000000000000000000000800000000000000000000000100000000000000000000000000000004000000000000000000000000000000000000000000000000000000000000040000000000000000000000000000000800000000000200000000000000000000000000000000000000000000000000000000000000000000000000000000000000000000000000000000010000000000000000000000000000000000000000000000001000000000000000000000000000000000000000000000000000000000020000000000000000000000000000",
      "type": "0x2",
      "transactionHash": "0x866d0db91b7bb7b74f37e06fc7e4b745613176445b04136ab3e7ef0b76ff6920",
      "transactionIndex": "0x1",
      "blockHash": "0xaadb481e23f4f82d29e1db4f610517e52361175871fc2c8f6ae6fa5d7ac0b780",
      "blockNumber": "0x5b47f8c",
      "gasUsed": "0x18428",
      "effectiveGasPrice": "0x5f5e100",
      "from": "0xb05a948b5c1b057b88d381bde3a375efea87ebad",
      "to": "0xbd7474ca99a439d2926526a0168e3e948d2987c6",
      "contractAddress": null,
      "gasUsedForL1": "0x452",
      "l1BlockNumber": "0x6b6d8e"
    },
    {
      "status": "0x1",
      "cumulativeGasUsed": "0x18428",
      "logs": [
        {
          "address": "0x32fe66622a4d4607241ac723e23fef487acdabb5",
          "topics": [
            "0x9b1a157188de9a0bd2e7995d72aaba244d9bd012ddf3ae3d4f492135175070cb",
            "0x000000000000000000000000c0410861dbae69dbe94ab2db56ef988625dcd322"
          ],
          "data": "0x00000000000000000000000000000000000000000000000000000000000000000000000000000000000000000000000000000000000000000000000000000000000000000000000000000000b05a948b5c1b057b88d381bde3a375efea87ebad",
          "blockHash": "0x37ecbfccf55d44a7ab63f812238e301dc6528d28c42e4b09bfd489140a259b03",
          "blockNumber": "0x5b47f8e",
          "transactionHash": "0xd83339a390a8131483f17d3d7f0e96bc3e52b5395bfdabe582ec87b7b195e8bf",
          "transactionIndex": "0x1",
          "logIndex": "0x0",
          "removed": false
        },
        {
          "address": "0xc0410861dbae69dbe94ab2db56ef988625dcd322",
          "topics": [
            "0x2667a0cd99dbc787d1d2596efe938cf43dfe83e8b8ddeb70e28007c09ff33485"
          ],
          "data": "0x00000000000000000000000032fe66622a4d4607241ac723e23fef487acdabb5",
          "blockHash": "0x37ecbfccf55d44a7ab63f812238e301dc6528d28c42e4b09bfd489140a259b03",
          "blockNumber": "0x5b47f8e",
          "transactionHash": "0xd83339a390a8131483f17d3d7f0e96bc3e52b5395bfdabe582ec87b7b195e8bf",
          "transactionIndex": "0x1",
          "logIndex": "0x1",
          "removed": false
        }
      ],
      "logsBloom": "0x00000000000000000000000000000000040000040000000000000000000000000000000110004000000000000000008000000000000000000000000000000000000000000000400000000000000000000004000000000000000000000000000000000000000000000000000000000000000000000000000000000200000000000000000000000200000000000000000000000000000000000000000000000000000000000000000000000000000000000000000000000000000000010000000000000000000000080000000000000000000000001000000000000000000000000000000000000000000000000000000000020400000000000000000000000000",
      "type": "0x2",
      "transactionHash": "0xd83339a390a8131483f17d3d7f0e96bc3e52b5395bfdabe582ec87b7b195e8bf",
      "transactionIndex": "0x1",
      "blockHash": "0x37ecbfccf55d44a7ab63f812238e301dc6528d28c42e4b09bfd489140a259b03",
      "blockNumber": "0x5b47f8e",
      "gasUsed": "0x18428",
      "effectiveGasPrice": "0x5f5e100",
      "from": "0xb05a948b5c1b057b88d381bde3a375efea87ebad",
      "to": "0xc0410861dbae69dbe94ab2db56ef988625dcd322",
      "contractAddress": null,
      "gasUsedForL1": "0x452",
      "l1BlockNumber": "0x6b6d8e"
    },
    {
      "status": "0x1",
      "cumulativeGasUsed": "0x18428",
      "logs": [
        {
          "address": "0x32fe66622a4d4607241ac723e23fef487acdabb5",
          "topics": [
            "0x9b1a157188de9a0bd2e7995d72aaba244d9bd012ddf3ae3d4f492135175070cb",
            "0x000000000000000000000000c5ae99a250617a875abc9bbb485dfde746cf3ba9"
          ],
          "data": "0x00000000000000000000000000000000000000000000000000000000000000000000000000000000000000000000000000000000000000000000000000000000000000000000000000000000b05a948b5c1b057b88d381bde3a375efea87ebad",
          "blockHash": "0xe8c0d300645c7cdc05efda917a6a98ca4b17d9320956910468fc1f1a6f6b6969",
          "blockNumber": "0x5b47f8f",
          "transactionHash": "0xbd5d3b2129d871244fb69a8c55ba12a3cedfa09ad586428b714cc0da1649dc94",
          "transactionIndex": "0x1",
          "logIndex": "0x0",
          "removed": false
        },
        {
          "address": "0xc5ae99a250617a875abc9bbb485dfde746cf3ba9",
          "topics": [
            "0x2667a0cd99dbc787d1d2596efe938cf43dfe83e8b8ddeb70e28007c09ff33485"
          ],
          "data": "0x00000000000000000000000032fe66622a4d4607241ac723e23fef487acdabb5",
          "blockHash": "0xe8c0d300645c7cdc05efda917a6a98ca4b17d9320956910468fc1f1a6f6b6969",
          "blockNumber": "0x5b47f8f",
          "transactionHash": "0xbd5d3b2129d871244fb69a8c55ba12a3cedfa09ad586428b714cc0da1649dc94",
          "transactionIndex": "0x1",
          "logIndex": "0x1",
          "removed": false
        }
      ],
      "logsBloom": "0x00000000001000000000000000000000000000040000000000000000000000000000000110004000000100000000000000000000000000000000200000000000000000000000000000000000000000000004000000000000000000000000000000000200000000000000000000000000000000000000000000000000000000000000000000000200000000000000000000000000000000000000000000000000000000000000000000000000000000000000000000000000000000010000000000000000000000000000000000000000000000001000000000000000000000000020000000000000000000000000000000020000000020000000000000000000",
      "type": "0x2",
      "transactionHash": "0xbd5d3b2129d871244fb69a8c55ba12a3cedfa09ad586428b714cc0da1649dc94",
      "transactionIndex": "0x1",
      "blockHash": "0xe8c0d300645c7cdc05efda917a6a98ca4b17d9320956910468fc1f1a6f6b6969",
      "blockNumber": "0x5b47f8f",
      "gasUsed": "0x18428",
      "effectiveGasPrice": "0x5f5e100",
      "from": "0xb05a948b5c1b057b88d381bde3a375efea87ebad",
      "to": "0xc5ae99a250617a875abc9bbb485dfde746cf3ba9",
      "contractAddress": null,
      "gasUsedForL1": "0x452",
      "l1BlockNumber": "0x6b6d8e"
    },
    {
      "status": "0x1",
      "cumulativeGasUsed": "0x18428",
      "logs": [
        {
          "address": "0x32fe66622a4d4607241ac723e23fef487acdabb5",
          "topics": [
            "0x9b1a157188de9a0bd2e7995d72aaba244d9bd012ddf3ae3d4f492135175070cb",
            "0x000000000000000000000000d76cd68881ad9c95000ad0a8d2f332374e91d23b"
          ],
          "data": "0x00000000000000000000000000000000000000000000000000000000000000000000000000000000000000000000000000000000000000000000000000000000000000000000000000000000b05a948b5c1b057b88d381bde3a375efea87ebad",
          "blockHash": "0x95827f0f2084161de708184f2fbc9cedfd011ff5ae4b9769a96b04c1fdccce71",
          "blockNumber": "0x5b47f95",
          "transactionHash": "0x6c0d79d7b98a7adc3b606e68acef544cb8ded9699a97649332efb9c7a5a67a08",
          "transactionIndex": "0x1",
          "logIndex": "0x0",
          "removed": false
        },
        {
          "address": "0xd76cd68881ad9c95000ad0a8d2f332374e91d23b",
          "topics": [
            "0x2667a0cd99dbc787d1d2596efe938cf43dfe83e8b8ddeb70e28007c09ff33485"
          ],
          "data": "0x00000000000000000000000032fe66622a4d4607241ac723e23fef487acdabb5",
          "blockHash": "0x95827f0f2084161de708184f2fbc9cedfd011ff5ae4b9769a96b04c1fdccce71",
          "blockNumber": "0x5b47f95",
          "transactionHash": "0x6c0d79d7b98a7adc3b606e68acef544cb8ded9699a97649332efb9c7a5a67a08",
          "transactionIndex": "0x1",
          "logIndex": "0x1",
          "removed": false
        }
      ],
      "logsBloom": "0x00000000000040000000000000000000000000040000000000000000000000000000000110004000000000000000000000000000000000000000000040000000000000000000000000000000000000000004000000000000000000000000000000000000200000000000000000000000000000000000000000000000000000000000000000100200000000000000000000000000000000000000000100000000000000000000000000000000000000000000000000000000000000010000000000000000000000000000000000000000000000001000000100000000000000000000000000000000000000000000000000020000000000000000000000000000",
      "type": "0x2",
      "transactionHash": "0x6c0d79d7b98a7adc3b606e68acef544cb8ded9699a97649332efb9c7a5a67a08",
      "transactionIndex": "0x1",
      "blockHash": "0x95827f0f2084161de708184f2fbc9cedfd011ff5ae4b9769a96b04c1fdccce71",
      "blockNumber": "0x5b47f95",
      "gasUsed": "0x18428",
      "effectiveGasPrice": "0x5f5e100",
      "from": "0xb05a948b5c1b057b88d381bde3a375efea87ebad",
      "to": "0xd76cd68881ad9c95000ad0a8d2f332374e91d23b",
      "contractAddress": null,
      "gasUsedForL1": "0x452",
      "l1BlockNumber": "0x6b6d8e"
    },
    {
      "status": "0x1",
      "cumulativeGasUsed": "0x2afca",
      "logs": [
        {
          "address": "0x32fe66622a4d4607241ac723e23fef487acdabb5",
          "topics": [
            "0x9b1a157188de9a0bd2e7995d72aaba244d9bd012ddf3ae3d4f492135175070cb",
            "0x000000000000000000000000d8e2fc7ddc06e67b039cfaf2e1255de55e0789a0"
          ],
          "data": "0x00000000000000000000000000000000000000000000000000000000000000000000000000000000000000000000000000000000000000000000000000000000000000000000000000000000b05a948b5c1b057b88d381bde3a375efea87ebad",
          "blockHash": "0xe2b18f28650d2c47df26b88c12ba423542d25d2f2b7e14da60749c46055c0df3",
          "blockNumber": "0x5b47f98",
          "transactionHash": "0xec07aaedee800ad0121b5887a4192ad1d3c3963d07dccc137572a47ea8e99a09",
          "transactionIndex": "0x2",
          "logIndex": "0x1",
          "removed": false
        },
        {
          "address": "0xd8e2fc7ddc06e67b039cfaf2e1255de55e0789a0",
          "topics": [
            "0x2667a0cd99dbc787d1d2596efe938cf43dfe83e8b8ddeb70e28007c09ff33485"
          ],
          "data": "0x00000000000000000000000032fe66622a4d4607241ac723e23fef487acdabb5",
          "blockHash": "0xe2b18f28650d2c47df26b88c12ba423542d25d2f2b7e14da60749c46055c0df3",
          "blockNumber": "0x5b47f98",
          "transactionHash": "0xec07aaedee800ad0121b5887a4192ad1d3c3963d07dccc137572a47ea8e99a09",
          "transactionIndex": "0x2",
          "logIndex": "0x2",
          "removed": false
        }
      ],
      "logsBloom": "0x00000000000000000000000000000000000000040000000000000000000000000000000110004000000000000000000000000080000000000000000000000080000000000000000000000000000000008004000000000002000000000000000000000000000000000000000000000000000000000000000000000000000000000000000000000200000000040000000000000000000000000000000000000000000000000000000000000000000000000000000000000000000000010000000000000000000000000000000000000000000000001000000000020000000000000000000000000000000000000000000000020000000000000000000000000000",
      "type": "0x2",
      "transactionHash": "0xec07aaedee800ad0121b5887a4192ad1d3c3963d07dccc137572a47ea8e99a09",
      "transactionIndex": "0x2",
      "blockHash": "0xe2b18f28650d2c47df26b88c12ba423542d25d2f2b7e14da60749c46055c0df3",
      "blockNumber": "0x5b47f98",
      "gasUsed": "0x18428",
      "effectiveGasPrice": "0x5f5e100",
      "from": "0xb05a948b5c1b057b88d381bde3a375efea87ebad",
      "to": "0xd8e2fc7ddc06e67b039cfaf2e1255de55e0789a0",
      "contractAddress": null,
      "gasUsedForL1": "0x452",
      "l1BlockNumber": "0x6b6d8e"
    },
    {
      "status": "0x1",
      "cumulativeGasUsed": "0x3cb2d",
      "logs": [
        {
          "address": "0x32fe66622a4d4607241ac723e23fef487acdabb5",
          "topics": [
            "0x9b1a157188de9a0bd2e7995d72aaba244d9bd012ddf3ae3d4f492135175070cb",
            "0x000000000000000000000000dc3a597e60297bf51627918019ba7252b844970c"
          ],
          "data": "0x00000000000000000000000000000000000000000000000000000000000000000000000000000000000000000000000000000000000000000000000000000000000000000000000000000000b05a948b5c1b057b88d381bde3a375efea87ebad",
          "blockHash": "0xb56a678b11b879e77a13c6d585c982551c9f55caceca590bdbf4d1b5b47fafd6",
          "blockNumber": "0x5b47f9a",
          "transactionHash": "0x7a1001d3fc9267f20d1dff2bc1006d2864f958aa89716ca6b9b3b5cfc5ec73c6",
          "transactionIndex": "0x3",
          "logIndex": "0x2",
          "removed": false
        },
        {
          "address": "0xdc3a597e60297bf51627918019ba7252b844970c",
          "topics": [
            "0x2667a0cd99dbc787d1d2596efe938cf43dfe83e8b8ddeb70e28007c09ff33485"
          ],
          "data": "0x00000000000000000000000032fe66622a4d4607241ac723e23fef487acdabb5",
          "blockHash": "0xb56a678b11b879e77a13c6d585c982551c9f55caceca590bdbf4d1b5b47fafd6",
          "blockNumber": "0x5b47f9a",
          "transactionHash": "0x7a1001d3fc9267f20d1dff2bc1006d2864f958aa89716ca6b9b3b5cfc5ec73c6",
          "transactionIndex": "0x3",
          "logIndex": "0x3",
          "removed": false
        }
      ],
      "logsBloom": "0x00000000000000000000000000000000000000040000000000000000000000000000000310004000000000000000000000000000000000000000000000000000000000000000000000000000000000000004000000000000008000000000000000000000000000000000000000000000000000000100000000000000000000000000000000000200000080000000000000000000000000000000000000000000000000000000000000000000000000000000000000000080000000010000000000000000000000000000000000000000000000001000000000000000002000000000000000000000000000000000000000020000000000000000000000000000",
      "type": "0x2",
      "transactionHash": "0x7a1001d3fc9267f20d1dff2bc1006d2864f958aa89716ca6b9b3b5cfc5ec73c6",
      "transactionIndex": "0x3",
      "blockHash": "0xb56a678b11b879e77a13c6d585c982551c9f55caceca590bdbf4d1b5b47fafd6",
      "blockNumber": "0x5b47f9a",
      "gasUsed": "0x18428",
      "effectiveGasPrice": "0x5f5e100",
      "from": "0xb05a948b5c1b057b88d381bde3a375efea87ebad",
      "to": "0xdc3a597e60297bf51627918019ba7252b844970c",
      "contractAddress": null,
      "gasUsedForL1": "0x452",
      "l1BlockNumber": "0x6b6d8e"
    },
    {
      "status": "0x1",
      "cumulativeGasUsed": "0x347d6",
      "logs": [
        {
          "address": "0x32fe66622a4d4607241ac723e23fef487acdabb5",
          "topics": [
            "0x9b1a157188de9a0bd2e7995d72aaba244d9bd012ddf3ae3d4f492135175070cb",
            "0x000000000000000000000000dd02fe21984aef0d8d3fa46d545b2dece39749b4"
          ],
          "data": "0x00000000000000000000000000000000000000000000000000000000000000000000000000000000000000000000000000000000000000000000000000000000000000000000000000000000b05a948b5c1b057b88d381bde3a375efea87ebad",
          "blockHash": "0x803cf2352377e122ef10ef818a9951278f9cb835f1afc65ccf401c2536d3327c",
          "blockNumber": "0x5b47f9d",
          "transactionHash": "0xf00de68b854775d12c84b2f003ca3c1f876bea33cc8dd82f1e421cdd01d698ef",
          "transactionIndex": "0x3",
          "logIndex": "0x2",
          "removed": false
        },
        {
          "address": "0xdd02fe21984aef0d8d3fa46d545b2dece39749b4",
          "topics": [
            "0x2667a0cd99dbc787d1d2596efe938cf43dfe83e8b8ddeb70e28007c09ff33485"
          ],
          "data": "0x00000000000000000000000032fe66622a4d4607241ac723e23fef487acdabb5",
          "blockHash": "0x803cf2352377e122ef10ef818a9951278f9cb835f1afc65ccf401c2536d3327c",
          "blockNumber": "0x5b47f9d",
          "transactionHash": "0xf00de68b854775d12c84b2f003ca3c1f876bea33cc8dd82f1e421cdd01d698ef",
          "transactionIndex": "0x3",
          "logIndex": "0x3",
          "removed": false
        }
      ],
      "logsBloom": "0x00000000000000000400000000000000000000040000000000000000000000000000000110004000000000000000000000000000000000000000000000000000800000000000000000000000000000000004000000000000004080000000000000000000000000000000000000000000000000000000000000000000000000000000000000000200000000000000000000000000000000000000000000000000000000200000000000000000000000000000000000000000000000010000000000000000000000000000000000000000000000001000000000000000000000000000000000000000000000000000000000024000000000000000000000000000",
      "type": "0x2",
      "transactionHash": "0xf00de68b854775d12c84b2f003ca3c1f876bea33cc8dd82f1e421cdd01d698ef",
      "transactionIndex": "0x3",
      "blockHash": "0x803cf2352377e122ef10ef818a9951278f9cb835f1afc65ccf401c2536d3327c",
      "blockNumber": "0x5b47f9d",
      "gasUsed": "0x18428",
      "effectiveGasPrice": "0x5f5e100",
      "from": "0xb05a948b5c1b057b88d381bde3a375efea87ebad",
      "to": "0xdd02fe21984aef0d8d3fa46d545b2dece39749b4",
      "contractAddress": null,
      "gasUsedForL1": "0x452",
      "l1BlockNumber": "0x6b6d8e"
    },
    {
      "status": "0x1",
      "cumulativeGasUsed": "0x18428",
      "logs": [
        {
          "address": "0x32fe66622a4d4607241ac723e23fef487acdabb5",
          "topics": [
            "0x9b1a157188de9a0bd2e7995d72aaba244d9bd012ddf3ae3d4f492135175070cb",
            "0x000000000000000000000000e0eb96a8c31d95ccca8f7fa52ee38d0d42b4167b"
          ],
          "data": "0x00000000000000000000000000000000000000000000000000000000000000000000000000000000000000000000000000000000000000000000000000000000000000000000000000000000b05a948b5c1b057b88d381bde3a375efea87ebad",
          "blockHash": "0x27ee2eb7218091be2fd90162a5cc463ec512fb8fcbd369af11f9c55f8ffdecec",
          "blockNumber": "0x5b47f9f",
          "transactionHash": "0x73ab7ca2ed3b983e1f1ee70ac54456533b72c007d4f10f6827b6495b544a6a14",
          "transactionIndex": "0x1",
          "logIndex": "0x0",
          "removed": false
        },
        {
          "address": "0xe0eb96a8c31d95ccca8f7fa52ee38d0d42b4167b",
          "topics": [
            "0x2667a0cd99dbc787d1d2596efe938cf43dfe83e8b8ddeb70e28007c09ff33485"
          ],
          "data": "0x00000000000000000000000032fe66622a4d4607241ac723e23fef487acdabb5",
          "blockHash": "0x27ee2eb7218091be2fd90162a5cc463ec512fb8fcbd369af11f9c55f8ffdecec",
          "blockNumber": "0x5b47f9f",
          "transactionHash": "0x73ab7ca2ed3b983e1f1ee70ac54456533b72c007d4f10f6827b6495b544a6a14",
          "transactionIndex": "0x1",
          "logIndex": "0x1",
          "removed": false
        }
      ],
      "logsBloom": "0x00000000000000000000000000000000000000040000000000000000000000000000000110004000000000000000000000000000000000000000000000000000010000000000000000000000000000000004800000000000000000000000000000000000000000000000000000000000100000000000000000000000000000000000000000000200000000000000000000000000000000000000000000000000000000000000000000000000000000200000000000000000000000010000000000000000000000000000000000000000000000001000000000000000000000000000000000000000000000000100000000020000000000100000000000000000",
      "type": "0x2",
      "transactionHash": "0x73ab7ca2ed3b983e1f1ee70ac54456533b72c007d4f10f6827b6495b544a6a14",
      "transactionIndex": "0x1",
      "blockHash": "0x27ee2eb7218091be2fd90162a5cc463ec512fb8fcbd369af11f9c55f8ffdecec",
      "blockNumber": "0x5b47f9f",
      "gasUsed": "0x18428",
      "effectiveGasPrice": "0x5f5e100",
      "from": "0xb05a948b5c1b057b88d381bde3a375efea87ebad",
      "to": "0xe0eb96a8c31d95ccca8f7fa52ee38d0d42b4167b",
      "contractAddress": null,
      "gasUsedForL1": "0x452",
      "l1BlockNumber": "0x6b6d8e"
    },
    {
      "status": "0x1",
      "cumulativeGasUsed": "0x18428",
      "logs": [
        {
          "address": "0x32fe66622a4d4607241ac723e23fef487acdabb5",
          "topics": [
            "0x9b1a157188de9a0bd2e7995d72aaba244d9bd012ddf3ae3d4f492135175070cb",
            "0x000000000000000000000000e57e7f0707bdb9c826a7c6da352dfb2be1275c21"
          ],
          "data": "0x00000000000000000000000000000000000000000000000000000000000000000000000000000000000000000000000000000000000000000000000000000000000000000000000000000000b05a948b5c1b057b88d381bde3a375efea87ebad",
          "blockHash": "0x5fcbb8851e3ab0dcdc1d75ffe99a936430c00f04f15003f7e538bc2ea360bf53",
          "blockNumber": "0x5b47fa1",
          "transactionHash": "0x66d3d3a7fc6a36ec7b7bbbee0445d11f77ac80032c533ac063379a831303ba37",
          "transactionIndex": "0x1",
          "logIndex": "0x0",
          "removed": false
        },
        {
          "address": "0xe57e7f0707bdb9c826a7c6da352dfb2be1275c21",
          "topics": [
            "0x2667a0cd99dbc787d1d2596efe938cf43dfe83e8b8ddeb70e28007c09ff33485"
          ],
          "data": "0x00000000000000000000000032fe66622a4d4607241ac723e23fef487acdabb5",
          "blockHash": "0x5fcbb8851e3ab0dcdc1d75ffe99a936430c00f04f15003f7e538bc2ea360bf53",
          "blockNumber": "0x5b47fa1",
          "transactionHash": "0x66d3d3a7fc6a36ec7b7bbbee0445d11f77ac80032c533ac063379a831303ba37",
          "transactionIndex": "0x1",
          "logIndex": "0x1",
          "removed": false
        }
      ],
      "logsBloom": "0x00000000000000000000000000000000000000040000000000000200000000000000000110004000000000000000000000000000000000000000000000000000000000200000000000000000000000000004001000000000000000000000000000000000000000000000000000000000000000000000000000000000000000000000000000000200000000000000000000000000000000000000000000000000000000000000000000000000000000000000000000000000000000010000000000000000000000000000000080000400000000001000000200000000000000000000000000000000000000000000000000020000000000000000000000000000",
      "type": "0x2",
      "transactionHash": "0x66d3d3a7fc6a36ec7b7bbbee0445d11f77ac80032c533ac063379a831303ba37",
      "transactionIndex": "0x1",
      "blockHash": "0x5fcbb8851e3ab0dcdc1d75ffe99a936430c00f04f15003f7e538bc2ea360bf53",
      "blockNumber": "0x5b47fa1",
      "gasUsed": "0x18428",
      "effectiveGasPrice": "0x5f5e100",
      "from": "0xb05a948b5c1b057b88d381bde3a375efea87ebad",
      "to": "0xe57e7f0707bdb9c826a7c6da352dfb2be1275c21",
      "contractAddress": null,
      "gasUsedForL1": "0x452",
      "l1BlockNumber": "0x6b6d8e"
    },
    {
      "status": "0x1",
      "cumulativeGasUsed": "0x19be9e",
      "logs": [
        {
          "address": "0x32fe66622a4d4607241ac723e23fef487acdabb5",
          "topics": [
            "0x9b1a157188de9a0bd2e7995d72aaba244d9bd012ddf3ae3d4f492135175070cb",
            "0x000000000000000000000000ee81fb9c0a60dfc69a7922bc3472418dd46f7dd3"
          ],
          "data": "0x00000000000000000000000000000000000000000000000000000000000186a00000000000000000000000000000000000000000000000000000000000000000000000000000000000000000b05a948b5c1b057b88d381bde3a375efea87ebad",
          "blockHash": "0x8050f1bf9d1825b16f1b148b213f0bc72a0fb89718dba77d9b7c5ab3a96b632e",
          "blockNumber": "0x5b47fa4",
          "transactionHash": "0x4d1522b8c0cf6a53b769d7e08c3e538189eb78a93a04b1f13b131b408e1c65c4",
          "transactionIndex": "0x9",
          "logIndex": "0x8",
          "removed": false
        },
        {
          "address": "0xee81fb9c0a60dfc69a7922bc3472418dd46f7dd3",
          "topics": [
            "0x2667a0cd99dbc787d1d2596efe938cf43dfe83e8b8ddeb70e28007c09ff33485"
          ],
          "data": "0x00000000000000000000000032fe66622a4d4607241ac723e23fef487acdabb5",
          "blockHash": "0x8050f1bf9d1825b16f1b148b213f0bc72a0fb89718dba77d9b7c5ab3a96b632e",
          "blockNumber": "0x5b47fa4",
          "transactionHash": "0x4d1522b8c0cf6a53b769d7e08c3e538189eb78a93a04b1f13b131b408e1c65c4",
          "transactionIndex": "0x9",
          "logIndex": "0x9",
          "removed": false
        }
      ],
      "logsBloom": "0x00080000000000000000000000000000000000040000000000000000000000000000000110004000000000000000000000000000000000000000000000000000000000000000000000000000000000000004000000000000000000000000000000000000000000000000000010000000000000000000000000000000000000000000000001000200000000000000000000000000000000000000000000000000000400000000000000000000000000000000000000000000000000010000000000000000000400000000000000000000000000001000000000000000000000004000000000000000000000000000000000020000000000000000000000000000",
      "type": "0x2",
      "transactionHash": "0x4d1522b8c0cf6a53b769d7e08c3e538189eb78a93a04b1f13b131b408e1c65c4",
      "transactionIndex": "0x9",
      "blockHash": "0x8050f1bf9d1825b16f1b148b213f0bc72a0fb89718dba77d9b7c5ab3a96b632e",
      "blockNumber": "0x5b47fa4",
      "gasUsed": "0x1d202",
      "effectiveGasPrice": "0x5f5e100",
      "from": "0xb05a948b5c1b057b88d381bde3a375efea87ebad",
      "to": "0xee81fb9c0a60dfc69a7922bc3472418dd46f7dd3",
      "contractAddress": null,
      "gasUsedForL1": "0x44c",
      "l1BlockNumber": "0x6b6d8e"
    },
    {
      "status": "0x1",
      "cumulativeGasUsed": "0x8d1e8",
      "logs": [
        {
          "address": "0x32fe66622a4d4607241ac723e23fef487acdabb5",
          "topics": [
            "0x9b1a157188de9a0bd2e7995d72aaba244d9bd012ddf3ae3d4f492135175070cb",
            "0x000000000000000000000000fbaecc060d6a9051eb13c824b9eaff825976d44f"
          ],
          "data": "0x00000000000000000000000000000000000000000000000000000000000027100000000000000000000000000000000000000000000000000000000000000000000000000000000000000000b05a948b5c1b057b88d381bde3a375efea87ebad",
          "blockHash": "0xc39c86512bf6a35603db059ac521f135f519156178b8802b446429172e350d1c",
          "blockNumber": "0x5b47fa6",
          "transactionHash": "0xa25b9b4e13b9e4f7268fd52fd18325dcdd4eaac3057ec06c72cc2deef55a761c",
          "transactionIndex": "0x3",
          "logIndex": "0x9",
          "removed": false
        },
        {
          "address": "0xfbaecc060d6a9051eb13c824b9eaff825976d44f",
          "topics": [
            "0x2667a0cd99dbc787d1d2596efe938cf43dfe83e8b8ddeb70e28007c09ff33485"
          ],
          "data": "0x00000000000000000000000032fe66622a4d4607241ac723e23fef487acdabb5",
          "blockHash": "0xc39c86512bf6a35603db059ac521f135f519156178b8802b446429172e350d1c",
          "blockNumber": "0x5b47fa6",
          "transactionHash": "0xa25b9b4e13b9e4f7268fd52fd18325dcdd4eaac3057ec06c72cc2deef55a761c",
          "transactionIndex": "0x3",
          "logIndex": "0xa",
          "removed": false
        }
      ],
      "logsBloom": "0x00000000000000000000000000000000000000040000800000000000000000000000000110004000000000000000000000000000000000000000000000000000000000000000000000000000000000000004000000000000000000000000000000000000000000000000000000000000000000000000000000000000000000000000000000000200000000000000000000000000000000000000000000000000000000000000000000400000000000000000000000000000000000010000000000000000200000000000000000000000000008001000000000000000000000000000000000000000000000000000000000020000000000000100000000000010",
      "type": "0x2",
      "transactionHash": "0xa25b9b4e13b9e4f7268fd52fd18325dcdd4eaac3057ec06c72cc2deef55a761c",
      "transactionIndex": "0x3",
      "blockHash": "0xc39c86512bf6a35603db059ac521f135f519156178b8802b446429172e350d1c",
      "blockNumber": "0x5b47fa6",
      "gasUsed": "0x1d1fc",
      "effectiveGasPrice": "0x5f5e100",
      "from": "0xb05a948b5c1b057b88d381bde3a375efea87ebad",
      "to": "0xfbaecc060d6a9051eb13c824b9eaff825976d44f",
      "contractAddress": null,
      "gasUsedForL1": "0x452",
      "l1BlockNumber": "0x6b6d8e"
    },
    {
      "status": "0x1",
      "cumulativeGasUsed": "0x18428",
      "logs": [
        {
          "address": "0x32fe66622a4d4607241ac723e23fef487acdabb5",
          "topics": [
            "0x9b1a157188de9a0bd2e7995d72aaba244d9bd012ddf3ae3d4f492135175070cb",
            "0x000000000000000000000000fd71d94f892670d3085cfaf1d93d0e4eb0b8963b"
          ],
          "data": "0x00000000000000000000000000000000000000000000000000000000000000000000000000000000000000000000000000000000000000000000000000000000000000000000000000000000b05a948b5c1b057b88d381bde3a375efea87ebad",
          "blockHash": "0x4cba234e7461c8182ae798026ccf94cc3f1be50e97caf241ebee45f2183e8959",
          "blockNumber": "0x5b47fac",
          "transactionHash": "0x6eb0164ccfc135125055c1915833f77cfa45d73c75194b7107f1284e9bb1e341",
          "transactionIndex": "0x1",
          "logIndex": "0x0",
          "removed": false
        },
        {
          "address": "0xfd71d94f892670d3085cfaf1d93d0e4eb0b8963b",
          "topics": [
            "0x2667a0cd99dbc787d1d2596efe938cf43dfe83e8b8ddeb70e28007c09ff33485"
          ],
          "data": "0x00000000000000000000000032fe66622a4d4607241ac723e23fef487acdabb5",
          "blockHash": "0x4cba234e7461c8182ae798026ccf94cc3f1be50e97caf241ebee45f2183e8959",
          "blockNumber": "0x5b47fac",
          "transactionHash": "0x6eb0164ccfc135125055c1915833f77cfa45d73c75194b7107f1284e9bb1e341",
          "transactionIndex": "0x1",
          "logIndex": "0x1",
          "removed": false
        }
      ],
      "logsBloom": "0x01000000000000000000000000000000040000040000000000000000000000000000000110004000000000000200000000000000000000000000000000000000000000000000000000000000000000000004000000000000000000000000000000000000000000000000000000000002000000000000000000000000000000000000000000000200000000000000000000000000000000000000000000000000000000000000001000000000000000000000000000000000000000010000000000000000000000000000000000000000000000001000000000000000001000000000000000000000000000000000000000020000000000000000000000000000",
      "type": "0x2",
      "transactionHash": "0x6eb0164ccfc135125055c1915833f77cfa45d73c75194b7107f1284e9bb1e341",
      "transactionIndex": "0x1",
      "blockHash": "0x4cba234e7461c8182ae798026ccf94cc3f1be50e97caf241ebee45f2183e8959",
      "blockNumber": "0x5b47fac",
      "gasUsed": "0x18428",
      "effectiveGasPrice": "0x5f5e100",
      "from": "0xb05a948b5c1b057b88d381bde3a375efea87ebad",
      "to": "0xfd71d94f892670d3085cfaf1d93d0e4eb0b8963b",
      "contractAddress": null,
      "gasUsedForL1": "0x452",
      "l1BlockNumber": "0x6b6d8f"
    }
  ],
  "libraries": [],
  "pending": [],
  "returns": {},
  "timestamp": 1731127498,
  "chain": 421614,
  "commit": "d591413e"
}