{
  "transactions": [
    {
      "hash": "0x0f6cf7b2565f14b6a265a7963894985a3ab760cf7665a20dc1b56e476f97433d",
      "transactionType": "CREATE",
      "contractName": "ProxyOwner",
      "contractAddress": "0xb79260abb7fb7754abac26d8067120cd42bb6b81",
      "function": null,
      "arguments": null,
      "transaction": {
        "from": "0xb05a948b5c1b057b88d381bde3a375efea87ebad",
        "gas": "0xeb6a2",
        "value": "0x0",
        "input": "0x60a080604052346100315730608052610c75908161003782396080518181816103270152818161044801526106c00152f35b600080fdfe60406080815260048036101561001457600080fd5b600091823560e01c9182633659cfe6146106995782634f1ef286146103cf57826352d1902d14610313578263715018a6146102be57826379ba5097146102745782638da5cb5b1461024b578263c4d66de81461012357508163e30c3978146100f6575063f2fde38b1461008657600080fd5b346100f35760203660031901126100f35761009f610859565b6100a76108e3565b606580546001600160a01b0319166001600160a01b039283169081179091556033549091167f38d16b8cac22d99fc7c124b9cd0de2d3fa1faef420bfe791d8c362d765e227008380a380f35b80fd5b90503461011f578160031936011261011f5760655490516001600160a01b039091168152602090f35b5080fd5b909150346102475760203660031901126102475761013f610859565b835460ff8160081c16159283809461023a575b8015610223575b156101c9575060ff198116600117855561017a9190836101b8575b50610b3d565b610182575080f35b60207f7f26b83ff96e1f2b6a682f133852f6798a09c465da95921460cefb38474024989161ff001984541684555160018152a180f35b61ffff191661010117855538610174565b608490602086519162461bcd60e51b8352820152602e60248201527f496e697469616c697a61626c653a20636f6e747261637420697320616c72656160448201526d191e481a5b9a5d1a585b1a5e995960921b6064820152fd5b50303b1580156101595750600160ff831614610159565b50600160ff831610610152565b8280fd5b83823461011f578160031936011261011f5760335490516001600160a01b039091168152602090f35b915034610247578260031936011261024757606554336001600160a01b03909116036102a757826102a433610b3d565b80f35b60249250519063118cdaa760e01b82523390820152fd5b83346100f357806003193601126100f3576102d76108e3565b606580546001600160a01b031990811690915560338054918216905581906001600160a01b0316600080516020610be08339815191528280a380f35b83346100f357806003193601126100f357507f00000000000000000000000000000000000000000000000000000000000000006001600160a01b0316300361036c5760208251600080516020610bc08339815191528152f35b6020608492519162461bcd60e51b8352820152603860248201527f555550535570677261646561626c653a206d757374206e6f742062652063616c6044820152771b1959081d1a1c9bdd59da0819195b1959d85d1958d85b1b60421b6064820152fd5b915080600319360112610247576103e4610859565b90602435906001600160401b0382116106955736602383011215610695578184013561040f816108c8565b61041b835191826108a5565b81815286602094858301933660248284010111610247578060248893018637830101526001600160a01b037f00000000000000000000000000000000000000000000000000000000000000008116906104763083141561093b565b610493600080516020610bc083398151915292828454161461098a565b61049b6108e3565b600080516020610b808339815191525460ff16156104c3575050505050506102a491506109d9565b869293949596169085516352d1902d60e01b815287818a81865afa8a9181610662575b5061053357865162461bcd60e51b8152808a01899052602e6024820152600080516020610c2083398151915260448201526d6f6e206973206e6f74205555505360901b6064820152608490fd5b97919293969594970361060d575061054a826109d9565b600080516020610c008339815191528780a285845115801590610605575b610576575b50505050505080f35b806105ef9684519661058788610874565b602788527f416464726573733a206c6f772d6c6576656c2064656c65676174652063616c6c87890152660819985a5b195960ca1b868901525190845af4913d156105fb573d6105e16105d8826108c8565b925192836108a5565b81528681943d92013e610a69565b5038808080808561056d565b5060609250610a69565b506001610568565b835162461bcd60e51b8152908101859052602960248201527f45524331393637557067726164653a20756e737570706f727465642070726f786044820152681a58589b195555525160ba1b6064820152608490fd5b9091508881813d831161068e575b61067a81836108a5565b8101031261068a575190386104e6565b8a80fd5b503d610670565b8480fd5b91503461024757602080600319360112610855576106b5610859565b916001600160a01b037f000000000000000000000000000000000000000000000000000000000000000081166106ed3082141561093b565b61070a600080516020610bc083398151915291838354161461098a565b6107126108e3565b8251848101929091906001600160401b0384118385101761084257838552888352600080516020610b808339815191525460ff161561075b575050505050506102a491506109d9565b869293949596169085516352d1902d60e01b815287818a81865afa8a9181610813575b506107cb57865162461bcd60e51b8152808a01899052602e6024820152600080516020610c2083398151915260448201526d6f6e206973206e6f74205555505360901b6064820152608490fd5b97919293969594970361060d57506107e2826109d9565b600080516020610c008339815191528780a28584511580159061080c576105765750505050505080f35b5080610568565b9091508881813d831161083b575b61082b81836108a5565b8101031261068a5751903861077e565b503d610821565b634e487b7160e01b895260418852602489fd5b8380fd5b600435906001600160a01b038216820361086f57565b600080fd5b606081019081106001600160401b0382111761088f57604052565b634e487b7160e01b600052604160045260246000fd5b601f909101601f19168101906001600160401b0382119082101761088f57604052565b6001600160401b03811161088f57601f01601f191660200190565b6033546001600160a01b031633036108f757565b606460405162461bcd60e51b815260206004820152602060248201527f4f776e61626c653a2063616c6c6572206973206e6f7420746865206f776e65726044820152fd5b1561094257565b60405162461bcd60e51b815260206004820152602c6024820152600080516020610ba083398151915260448201526b19195b1959d85d1958d85b1b60a21b6064820152608490fd5b1561099157565b60405162461bcd60e51b815260206004820152602c6024820152600080516020610ba083398151915260448201526b6163746976652070726f787960a01b6064820152608490fd5b803b15610a0e57600080516020610bc083398151915280546001600160a01b0319166001600160a01b03909216919091179055565b60405162461bcd60e51b815260206004820152602d60248201527f455243313936373a206e657720696d706c656d656e746174696f6e206973206e60448201526c1bdd08184818dbdb9d1c9858dd609a1b6064820152608490fd5b91929015610acb5750815115610a7d575090565b3b15610a865790565b60405162461bcd60e51b815260206004820152601d60248201527f416464726573733a2063616c6c20746f206e6f6e2d636f6e74726163740000006044820152606490fd5b825190915015610ade5750805190602001fd5b6040519062461bcd60e51b82528160208060048301528251908160248401526000935b828510610b24575050604492506000838284010152601f80199101168101030190fd5b8481018201518686016044015293810193859350610b01565b606580546001600160a01b0319908116909155603380549182166001600160a01b039384169081179091559116600080516020610be0833981519152600080a356fe4910fdfa16fed3260ed0e7147f7cc6da11a60208b5b9406d12a635614ffd914346756e6374696f6e206d7573742062652063616c6c6564207468726f75676820360894a13ba1a3210667c828492db98dca3e2076cc3735a920a3ca505d382bbc8be0079c531659141344cd1fd0a4f28419497f9722a3daafe3b4186f6b6457e0bc7cd75a20ee27fd9adebab32041f755214dbc6bffa90cc0225b39da2e5c2d3b45524331393637557067726164653a206e657720696d706c656d656e74617469a264697066735822122095dd4d2a5c194bfb1dbff104f39ee7131051171aea85fa95e6fba516911de91b64736f6c63430008130033",
        "nonce": "0x76",
        "chainId": "0x89"
      },
      "additionalContracts": [],
      "isFixedGasLimit": false
    },
    {
      "hash": "0x65d948137d6eeb2ea5912fa0be2695043625f1bd5335da151f30403afccd124a",
      "transactionType": "CREATE",
      "contractName": "ERC1967Proxy",
      "contractAddress": "0x7d0e4223f987fbede709842bfd273f7cea393f24",
      "function": null,
      "arguments": [
        "0xB79260aBb7Fb7754ABAc26d8067120cd42bB6B81",
        "0xc4d66de8000000000000000000000000b05a948b5c1b057b88d381bde3a375efea87ebad"
      ],
      "transaction": {
        "from": "0xb05a948b5c1b057b88d381bde3a375efea87ebad",
        "gas": "0x3bd34",
        "value": "0x0",
        "input": "0x604060808152610410908138038061001681610218565b93843982019181818403126102135780516001600160a01b038116808203610213576020838101516001600160401b0394919391858211610213570186601f820112156102135780519061007161006c83610253565b610218565b918083528583019886828401011161021357888661008f930161026e565b813b156101b9577f360894a13ba1a3210667c828492db98dca3e2076cc3735a920a3ca505d382bbc80546001600160a01b031916841790556000927fbc7cd75a20ee27fd9adebab32041f755214dbc6bffa90cc0225b39da2e5c2d3b8480a28051158015906101b2575b61010b575b855160cb90816103458239f35b855194606086019081118682101761019e578697849283926101889952602788527f416464726573733a206c6f772d6c6576656c2064656c65676174652063616c6c87890152660819985a5b195960ca1b8a8901525190845af4913d15610194573d9061017a61006c83610253565b91825281943d92013e610291565b508038808080806100fe565b5060609250610291565b634e487b7160e01b84526041600452602484fd5b50826100f9565b855162461bcd60e51b815260048101859052602d60248201527f455243313936373a206e657720696d706c656d656e746174696f6e206973206e60448201526c1bdd08184818dbdb9d1c9858dd609a1b6064820152608490fd5b600080fd5b6040519190601f01601f191682016001600160401b0381118382101761023d57604052565b634e487b7160e01b600052604160045260246000fd5b6001600160401b03811161023d57601f01601f191660200190565b60005b8381106102815750506000910152565b8181015183820152602001610271565b919290156102f357508151156102a5575090565b3b156102ae5790565b60405162461bcd60e51b815260206004820152601d60248201527f416464726573733a2063616c6c20746f206e6f6e2d636f6e74726163740000006044820152606490fd5b8251909150156103065750805190602001fd5b6044604051809262461bcd60e51b825260206004830152610336815180928160248601526020868601910161026e565b601f01601f19168101030190fdfe60806040523615604157600080516020607683398151915254600090819081906001600160a01b0316368280378136915af43d82803e15603d573d90f35b3d90fd5b600080516020607683398151915254600090819081906001600160a01b0316368280378136915af43d82803e15603d573d90f3fe360894a13ba1a3210667c828492db98dca3e2076cc3735a920a3ca505d382bbca2646970667358221220b9c533c5cbdc91d32688faca813a72cb34b28bff1b053c4cc32424f62e37a71f64736f6c63430008130033000000000000000000000000b79260abb7fb7754abac26d8067120cd42bb6b8100000000000000000000000000000000000000000000000000000000000000400000000000000000000000000000000000000000000000000000000000000024c4d66de8000000000000000000000000b05a948b5c1b057b88d381bde3a375efea87ebad00000000000000000000000000000000000000000000000000000000",
        "nonce": "0x77",
        "chainId": "0x89"
      },
      "additionalContracts": [],
      "isFixedGasLimit": false
    },
    {
      "hash": "0xa5a1ca200da07447e002271053278d64d9335eb3307dbc5fb3af490aab6e38ec",
      "transactionType": "CREATE",
      "contractName": "ProxyOwner",
      "contractAddress": "0x7a0cae1ee3dd4a6d12e5babd52c3fc59a4ad0c4a",
      "function": null,
      "arguments": null,
      "transaction": {
        "from": "0xb05a948b5c1b057b88d381bde3a375efea87ebad",
        "gas": "0xeb6a2",
        "value": "0x0",
        "input": "0x60a080604052346100315730608052610c75908161003782396080518181816103270152818161044801526106c00152f35b600080fdfe60406080815260048036101561001457600080fd5b600091823560e01c9182633659cfe6146106995782634f1ef286146103cf57826352d1902d14610313578263715018a6146102be57826379ba5097146102745782638da5cb5b1461024b578263c4d66de81461012357508163e30c3978146100f6575063f2fde38b1461008657600080fd5b346100f35760203660031901126100f35761009f610859565b6100a76108e3565b606580546001600160a01b0319166001600160a01b039283169081179091556033549091167f38d16b8cac22d99fc7c124b9cd0de2d3fa1faef420bfe791d8c362d765e227008380a380f35b80fd5b90503461011f578160031936011261011f5760655490516001600160a01b039091168152602090f35b5080fd5b909150346102475760203660031901126102475761013f610859565b835460ff8160081c16159283809461023a575b8015610223575b156101c9575060ff198116600117855561017a9190836101b8575b50610b3d565b610182575080f35b60207f7f26b83ff96e1f2b6a682f133852f6798a09c465da95921460cefb38474024989161ff001984541684555160018152a180f35b61ffff191661010117855538610174565b608490602086519162461bcd60e51b8352820152602e60248201527f496e697469616c697a61626c653a20636f6e747261637420697320616c72656160448201526d191e481a5b9a5d1a585b1a5e995960921b6064820152fd5b50303b1580156101595750600160ff831614610159565b50600160ff831610610152565b8280fd5b83823461011f578160031936011261011f5760335490516001600160a01b039091168152602090f35b915034610247578260031936011261024757606554336001600160a01b03909116036102a757826102a433610b3d565b80f35b60249250519063118cdaa760e01b82523390820152fd5b83346100f357806003193601126100f3576102d76108e3565b606580546001600160a01b031990811690915560338054918216905581906001600160a01b0316600080516020610be08339815191528280a380f35b83346100f357806003193601126100f357507f00000000000000000000000000000000000000000000000000000000000000006001600160a01b0316300361036c5760208251600080516020610bc08339815191528152f35b6020608492519162461bcd60e51b8352820152603860248201527f555550535570677261646561626c653a206d757374206e6f742062652063616c6044820152771b1959081d1a1c9bdd59da0819195b1959d85d1958d85b1b60421b6064820152fd5b915080600319360112610247576103e4610859565b90602435906001600160401b0382116106955736602383011215610695578184013561040f816108c8565b61041b835191826108a5565b81815286602094858301933660248284010111610247578060248893018637830101526001600160a01b037f00000000000000000000000000000000000000000000000000000000000000008116906104763083141561093b565b610493600080516020610bc083398151915292828454161461098a565b61049b6108e3565b600080516020610b808339815191525460ff16156104c3575050505050506102a491506109d9565b869293949596169085516352d1902d60e01b815287818a81865afa8a9181610662575b5061053357865162461bcd60e51b8152808a01899052602e6024820152600080516020610c2083398151915260448201526d6f6e206973206e6f74205555505360901b6064820152608490fd5b97919293969594970361060d575061054a826109d9565b600080516020610c008339815191528780a285845115801590610605575b610576575b50505050505080f35b806105ef9684519661058788610874565b602788527f416464726573733a206c6f772d6c6576656c2064656c65676174652063616c6c87890152660819985a5b195960ca1b868901525190845af4913d156105fb573d6105e16105d8826108c8565b925192836108a5565b81528681943d92013e610a69565b5038808080808561056d565b5060609250610a69565b506001610568565b835162461bcd60e51b8152908101859052602960248201527f45524331393637557067726164653a20756e737570706f727465642070726f786044820152681a58589b195555525160ba1b6064820152608490fd5b9091508881813d831161068e575b61067a81836108a5565b8101031261068a575190386104e6565b8a80fd5b503d610670565b8480fd5b91503461024757602080600319360112610855576106b5610859565b916001600160a01b037f000000000000000000000000000000000000000000000000000000000000000081166106ed3082141561093b565b61070a600080516020610bc083398151915291838354161461098a565b6107126108e3565b8251848101929091906001600160401b0384118385101761084257838552888352600080516020610b808339815191525460ff161561075b575050505050506102a491506109d9565b869293949596169085516352d1902d60e01b815287818a81865afa8a9181610813575b506107cb57865162461bcd60e51b8152808a01899052602e6024820152600080516020610c2083398151915260448201526d6f6e206973206e6f74205555505360901b6064820152608490fd5b97919293969594970361060d57506107e2826109d9565b600080516020610c008339815191528780a28584511580159061080c576105765750505050505080f35b5080610568565b9091508881813d831161083b575b61082b81836108a5565b8101031261068a5751903861077e565b503d610821565b634e487b7160e01b895260418852602489fd5b8380fd5b600435906001600160a01b038216820361086f57565b600080fd5b606081019081106001600160401b0382111761088f57604052565b634e487b7160e01b600052604160045260246000fd5b601f909101601f19168101906001600160401b0382119082101761088f57604052565b6001600160401b03811161088f57601f01601f191660200190565b6033546001600160a01b031633036108f757565b606460405162461bcd60e51b815260206004820152602060248201527f4f776e61626c653a2063616c6c6572206973206e6f7420746865206f776e65726044820152fd5b1561094257565b60405162461bcd60e51b815260206004820152602c6024820152600080516020610ba083398151915260448201526b19195b1959d85d1958d85b1b60a21b6064820152608490fd5b1561099157565b60405162461bcd60e51b815260206004820152602c6024820152600080516020610ba083398151915260448201526b6163746976652070726f787960a01b6064820152608490fd5b803b15610a0e57600080516020610bc083398151915280546001600160a01b0319166001600160a01b03909216919091179055565b60405162461bcd60e51b815260206004820152602d60248201527f455243313936373a206e657720696d706c656d656e746174696f6e206973206e60448201526c1bdd08184818dbdb9d1c9858dd609a1b6064820152608490fd5b91929015610acb5750815115610a7d575090565b3b15610a865790565b60405162461bcd60e51b815260206004820152601d60248201527f416464726573733a2063616c6c20746f206e6f6e2d636f6e74726163740000006044820152606490fd5b825190915015610ade5750805190602001fd5b6040519062461bcd60e51b82528160208060048301528251908160248401526000935b828510610b24575050604492506000838284010152601f80199101168101030190fd5b8481018201518686016044015293810193859350610b01565b606580546001600160a01b0319908116909155603380549182166001600160a01b039384169081179091559116600080516020610be0833981519152600080a356fe4910fdfa16fed3260ed0e7147f7cc6da11a60208b5b9406d12a635614ffd914346756e6374696f6e206d7573742062652063616c6c6564207468726f75676820360894a13ba1a3210667c828492db98dca3e2076cc3735a920a3ca505d382bbc8be0079c531659141344cd1fd0a4f28419497f9722a3daafe3b4186f6b6457e0bc7cd75a20ee27fd9adebab32041f755214dbc6bffa90cc0225b39da2e5c2d3b45524331393637557067726164653a206e657720696d706c656d656e74617469a264697066735822122095dd4d2a5c194bfb1dbff104f39ee7131051171aea85fa95e6fba516911de91b64736f6c63430008130033",
        "nonce": "0x78",
        "chainId": "0x89"
      },
      "additionalContracts": [],
      "isFixedGasLimit": false
    },
    {
      "hash": "0x38afa5bc470b914d1565a34ad8e86fbe4659e0a503e2a66228c1f1cb68834878",
      "transactionType": "CALL",
      "contractName": "ERC1967Proxy",
      "contractAddress": "0x7d0e4223f987fbede709842bfd273f7cea393f24",
      "function": null,
      "arguments": null,
      "transaction": {
        "from": "0xb05a948b5c1b057b88d381bde3a375efea87ebad",
        "to": "0x7d0e4223f987fbede709842bfd273f7cea393f24",
        "gas": "0xd202",
        "value": "0x0",
        "input": "0x3659cfe60000000000000000000000007a0cae1ee3dd4a6d12e5babd52c3fc59a4ad0c4a",
        "nonce": "0x79",
        "chainId": "0x89"
      },
      "additionalContracts": [],
      "isFixedGasLimit": false
    },
    {
      "hash": "0x756f75f67ae9a9a1346a2c5d2b7d188c92060106f0ab815ddcefa5bee9cf3f16",
      "transactionType": "CALL",
      "contractName": null,
      "contractAddress": "0x7842e2d0dda2e64727c251382e9b1ee70fa33b94",
      "function": "transferOwnership(address)",
      "arguments": [
        "0x7d0E4223f987FbedE709842BfD273f7cea393f24"
      ],
      "transaction": {
        "from": "0xb05a948b5c1b057b88d381bde3a375efea87ebad",
        "to": "0x7842e2d0dda2e64727c251382e9b1ee70fa33b94",
        "gas": "0xc024",
        "value": "0x0",
        "input": "0xf2fde38b0000000000000000000000007d0e4223f987fbede709842bfd273f7cea393f24",
        "nonce": "0x7a",
        "chainId": "0x89"
      },
      "additionalContracts": [],
      "isFixedGasLimit": false
    },
    {
      "hash": "0x470d113549d23e05692c90de3c851dc8fbf32b989434a1871e76c1ba4378c6e0",
      "transactionType": "CALL",
      "contractName": null,
      "contractAddress": "0x1fac47cf25f1ca9f20ba366099d26b28401f5715",
      "function": "transferOwnership(address)",
      "arguments": [
        "0x7d0E4223f987FbedE709842BfD273f7cea393f24"
      ],
      "transaction": {
        "from": "0xb05a948b5c1b057b88d381bde3a375efea87ebad",
        "to": "0x1fac47cf25f1ca9f20ba366099d26b28401f5715",
        "gas": "0xb5d3",
        "value": "0x0",
        "input": "0xf2fde38b0000000000000000000000007d0e4223f987fbede709842bfd273f7cea393f24",
        "nonce": "0x7b",
        "chainId": "0x89"
      },
      "additionalContracts": [],
      "isFixedGasLimit": false
    },
    {
      "hash": "0x26eeb70627e0c126d094bf2cb95d624d81b039147eb5f57e9376806914ee2d06",
      "transactionType": "CALL",
      "contractName": null,
      "contractAddress": "0x57a9835b204dbcc101dbf981625a3625e8043b9c",
      "function": "transferOwnership(address)",
      "arguments": [
        "0x7d0E4223f987FbedE709842BfD273f7cea393f24"
      ],
      "transaction": {
        "from": "0xb05a948b5c1b057b88d381bde3a375efea87ebad",
        "to": "0x57a9835b204dbcc101dbf981625a3625e8043b9c",
        "gas": "0xeddd",
        "value": "0x0",
        "input": "0xf2fde38b0000000000000000000000007d0e4223f987fbede709842bfd273f7cea393f24",
        "nonce": "0x7c",
        "chainId": "0x89"
      },
      "additionalContracts": [],
      "isFixedGasLimit": false
    },
    {
      "hash": "0x3414314fa265c0ec531a09068aa78827397e13c1afb096e3b137c1c9ec44b182",
      "transactionType": "CALL",
      "contractName": null,
      "contractAddress": "0x4aa4677ea4ab3e52aad99741b90c76c677739d24",
      "function": "transferOwnership(address)",
      "arguments": [
        "0x7d0E4223f987FbedE709842BfD273f7cea393f24"
      ],
      "transaction": {
        "from": "0xb05a948b5c1b057b88d381bde3a375efea87ebad",
        "to": "0x4aa4677ea4ab3e52aad99741b90c76c677739d24",
        "gas": "0xbc4e",
        "value": "0x0",
        "input": "0xf2fde38b0000000000000000000000007d0e4223f987fbede709842bfd273f7cea393f24",
        "nonce": "0x7d",
        "chainId": "0x89"
      },
      "additionalContracts": [],
      "isFixedGasLimit": false
    },
    {
      "hash": "0x2dece9a03396da9f4dab9b6b3e67101b9408b1fab48c237e49a17f54fa9a20d9",
      "transactionType": "CALL",
      "contractName": null,
      "contractAddress": "0x65bf57a410ed5fa69669f307c2da65eae06279f4",
      "function": "transferOwnership(address)",
      "arguments": [
        "0x7d0E4223f987FbedE709842BfD273f7cea393f24"
      ],
      "transaction": {
        "from": "0xb05a948b5c1b057b88d381bde3a375efea87ebad",
        "to": "0x65bf57a410ed5fa69669f307c2da65eae06279f4",
        "gas": "0xbc4e",
        "value": "0x0",
        "input": "0xf2fde38b0000000000000000000000007d0e4223f987fbede709842bfd273f7cea393f24",
        "nonce": "0x7e",
        "chainId": "0x89"
      },
      "additionalContracts": [],
      "isFixedGasLimit": false
    },
    {
      "hash": "0xfc7d2a710bfc5046f67a4ad1f2100525564a6ba377c0900de24503230de3885c",
      "transactionType": "CALL",
      "contractName": null,
      "contractAddress": "0x9eee52873350c26d6c7fa23d048d22c4ab82db09",
      "function": "transferOwnership(address)",
      "arguments": [
        "0x7d0E4223f987FbedE709842BfD273f7cea393f24"
      ],
      "transaction": {
        "from": "0xb05a948b5c1b057b88d381bde3a375efea87ebad",
        "to": "0x9eee52873350c26d6c7fa23d048d22c4ab82db09",
        "gas": "0xbc4e",
        "value": "0x0",
        "input": "0xf2fde38b0000000000000000000000007d0e4223f987fbede709842bfd273f7cea393f24",
        "nonce": "0x7f",
        "chainId": "0x89"
      },
      "additionalContracts": [],
      "isFixedGasLimit": false
    },
    {
      "hash": "0xfb3134c12551d4a5932aff323a1cc1ce89d8b69fb1ee92810c27370668e11be5",
      "transactionType": "CALL",
      "contractName": null,
      "contractAddress": "0x0eab3bf7f6c651fc645c70543f34c117a1615adc",
      "function": "transferOwnership(address)",
      "arguments": [
        "0x7d0E4223f987FbedE709842BfD273f7cea393f24"
      ],
      "transaction": {
        "from": "0xb05a948b5c1b057b88d381bde3a375efea87ebad",
        "to": "0x0eab3bf7f6c651fc645c70543f34c117a1615adc",
        "gas": "0xc882",
        "value": "0x0",
        "input": "0xf2fde38b0000000000000000000000007d0e4223f987fbede709842bfd273f7cea393f24",
        "nonce": "0x80",
        "chainId": "0x89"
      },
      "additionalContracts": [],
      "isFixedGasLimit": false
    },
    {
      "hash": "0xa1158b7b350fb5c26d01b6f9168d226ad8cf61e9de605645784e883b1c30ce7d",
      "transactionType": "CALL",
      "contractName": null,
      "contractAddress": "0x22a9bc80cf832393dc88fc564cfe97e3daa116db",
      "function": "transferOwnership(address)",
      "arguments": [
        "0x7d0E4223f987FbedE709842BfD273f7cea393f24"
      ],
      "transaction": {
        "from": "0xb05a948b5c1b057b88d381bde3a375efea87ebad",
        "to": "0x22a9bc80cf832393dc88fc564cfe97e3daa116db",
        "gas": "0xc882",
        "value": "0x0",
        "input": "0xf2fde38b0000000000000000000000007d0e4223f987fbede709842bfd273f7cea393f24",
        "nonce": "0x81",
        "chainId": "0x89"
      },
      "additionalContracts": [],
      "isFixedGasLimit": false
    },
    {
      "hash": "0xf973ab49b66a737cf577f48053c4387f884051d39b648f9dadd2920fa7248331",
      "transactionType": "CALL",
      "contractName": null,
      "contractAddress": "0x6138338450c5bfbd646e49cf9f8c68a9152cad17",
      "function": "transferOwnership(address)",
      "arguments": [
        "0x7d0E4223f987FbedE709842BfD273f7cea393f24"
      ],
      "transaction": {
        "from": "0xb05a948b5c1b057b88d381bde3a375efea87ebad",
        "to": "0x6138338450c5bfbd646e49cf9f8c68a9152cad17",
        "gas": "0xc882",
        "value": "0x0",
        "input": "0xf2fde38b0000000000000000000000007d0e4223f987fbede709842bfd273f7cea393f24",
        "nonce": "0x82",
        "chainId": "0x89"
      },
      "additionalContracts": [],
      "isFixedGasLimit": false
    },
    {
      "hash": "0xb25e34e83c21561d41ee64f32e084a4338ec3564be7712a3461afcdc853a4a44",
      "transactionType": "CALL",
      "contractName": null,
      "contractAddress": "0xd6f30d1f35069299e709bcac58fe7cda6bc9595f",
      "function": "transferOwnership(address)",
      "arguments": [
        "0x7d0E4223f987FbedE709842BfD273f7cea393f24"
      ],
      "transaction": {
        "from": "0xb05a948b5c1b057b88d381bde3a375efea87ebad",
        "to": "0xd6f30d1f35069299e709bcac58fe7cda6bc9595f",
        "gas": "0xc882",
        "value": "0x0",
        "input": "0xf2fde38b0000000000000000000000007d0e4223f987fbede709842bfd273f7cea393f24",
        "nonce": "0x83",
        "chainId": "0x89"
      },
      "additionalContracts": [],
      "isFixedGasLimit": false
    }
  ],
  "receipts": [
    {
      "status": "0x1",
      "cumulativeGasUsed": "0x11ad008",
      "logs": [
        {
          "address": "0x0000000000000000000000000000000000001010",
          "topics": [
            "0x4dfe1bbbcf077ddc3e01291eea2d5c70c2b422b415d95645b9adcfd678cb1d63",
            "0x0000000000000000000000000000000000000000000000000000000000001010",
            "0x000000000000000000000000b05a948b5c1b057b88d381bde3a375efea87ebad",
            "0x0000000000000000000000009ead03f7136fc6b4bdb0780b00a1c14ae5a8b6d0"
          ],
          "data": "0x00000000000000000000000000000000000000000000000000519706cc2c1d4500000000000000000000000000000000000000000000000108d72bdbe1b7ef6400000000000000000000000000000000000000000000054ea0afbb8eb1ef61c5000000000000000000000000000000000000000000000001088594d5158bd21f00000000000000000000000000000000000000000000054ea10152957e1b7f0a",
          "blockHash": "0xf0733bcef7fcbdf8c822ddc9e65351b9728d3c8c456583922d30b5c26e7b9e12",
          "blockNumber": "0x3d9d502",
          "transactionHash": "0x0f6cf7b2565f14b6a265a7963894985a3ab760cf7665a20dc1b56e476f97433d",
          "transactionIndex": "0x74",
          "logIndex": "0x42d",
          "removed": false
        }
      ],
      "logsBloom": "0x00000000000000000000000000000000000000000000000000000000000000000000000000000000000000000000000000008000000000000000000000000000000000000000000000000000000000800000000000000000000100000000000000000000000000000000000000000000000000000000000080000000000000000042000000040000000000000000000000000000000000000000040000000000200000000000000000000000000000000000000000000000000000000000004000000000000000000001000000000000000000000000000000120000000080000000000000000000000000000000000000000000000000000000000000100000",
      "type": "0x2",
      "transactionHash": "0x0f6cf7b2565f14b6a265a7963894985a3ab760cf7665a20dc1b56e476f97433d",
      "transactionIndex": "0x74",
      "blockHash": "0xf0733bcef7fcbdf8c822ddc9e65351b9728d3c8c456583922d30b5c26e7b9e12",
      "blockNumber": "0x3d9d502",
      "gasUsed": "0xb5235",
      "effectiveGasPrice": "0xb8e8c8c9f",
      "from": "0xb05a948b5c1b057b88d381bde3a375efea87ebad",
      "to": null,
      "contractAddress": "0xb79260abb7fb7754abac26d8067120cd42bb6b81"
    },
    {
      "status": "0x1",
      "cumulativeGasUsed": "0x11db0a4",
      "logs": [
        {
          "address": "0x7d0e4223f987fbede709842bfd273f7cea393f24",
          "topics": [
            "0xbc7cd75a20ee27fd9adebab32041f755214dbc6bffa90cc0225b39da2e5c2d3b",
            "0x000000000000000000000000b79260abb7fb7754abac26d8067120cd42bb6b81"
          ],
          "data": "0x",
          "blockHash": "0xf0733bcef7fcbdf8c822ddc9e65351b9728d3c8c456583922d30b5c26e7b9e12",
          "blockNumber": "0x3d9d502",
          "transactionHash": "0x65d948137d6eeb2ea5912fa0be2695043625f1bd5335da151f30403afccd124a",
          "transactionIndex": "0x75",
          "logIndex": "0x42e",
          "removed": false
        },
        {
          "address": "0x7d0e4223f987fbede709842bfd273f7cea393f24",
          "topics": [
            "0x8be0079c531659141344cd1fd0a4f28419497f9722a3daafe3b4186f6b6457e0",
            "0x0000000000000000000000000000000000000000000000000000000000000000",
            "0x000000000000000000000000b05a948b5c1b057b88d381bde3a375efea87ebad"
          ],
          "data": "0x",
          "blockHash": "0xf0733bcef7fcbdf8c822ddc9e65351b9728d3c8c456583922d30b5c26e7b9e12",
          "blockNumber": "0x3d9d502",
          "transactionHash": "0x65d948137d6eeb2ea5912fa0be2695043625f1bd5335da151f30403afccd124a",
          "transactionIndex": "0x75",
          "logIndex": "0x42f",
          "removed": false
        },
        {
          "address": "0x7d0e4223f987fbede709842bfd273f7cea393f24",
          "topics": [
            "0x7f26b83ff96e1f2b6a682f133852f6798a09c465da95921460cefb3847402498"
          ],
          "data": "0x0000000000000000000000000000000000000000000000000000000000000001",
          "blockHash": "0xf0733bcef7fcbdf8c822ddc9e65351b9728d3c8c456583922d30b5c26e7b9e12",
          "blockNumber": "0x3d9d502",
          "transactionHash": "0x65d948137d6eeb2ea5912fa0be2695043625f1bd5335da151f30403afccd124a",
          "transactionIndex": "0x75",
          "logIndex": "0x430",
          "removed": false
        },
        {
          "address": "0x0000000000000000000000000000000000001010",
          "topics": [
            "0x4dfe1bbbcf077ddc3e01291eea2d5c70c2b422b415d95645b9adcfd678cb1d63",
            "0x0000000000000000000000000000000000000000000000000000000000001010",
            "0x000000000000000000000000b05a948b5c1b057b88d381bde3a375efea87ebad",
            "0x0000000000000000000000009ead03f7136fc6b4bdb0780b00a1c14ae5a8b6d0"
          ],
          "data": "0x0000000000000000000000000000000000000000000000000014bca788415f5c000000000000000000000000000000000000000000000001085455c44ebee47900000000000000000000000000000000000000000000054ea10152957e1b7f0a000000000000000000000000000000000000000000000001083f991cc67d851d00000000000000000000000000000000000000000000054ea1160f3d065cde66",
          "blockHash": "0xf0733bcef7fcbdf8c822ddc9e65351b9728d3c8c456583922d30b5c26e7b9e12",
          "blockNumber": "0x3d9d502",
          "transactionHash": "0x65d948137d6eeb2ea5912fa0be2695043625f1bd5335da151f30403afccd124a",
          "transactionIndex": "0x75",
          "logIndex": "0x431",
          "removed": false
        }
      ],
      "logsBloom": "0x000000000000000000000000000000004000000000000000008000000000000000000000000000000000000000000000000080000000000000000000000000000000000000000000000000000000028000010000000000000001000000000000000000000200000002000000000008000000000000000000800000000000004000420000000400000000000000000000000000000000800000000400000000002000000000000000000000000004200000000000008000020000000000000040000000200000000000010000000400000000000000000000001200000000a0000000000000000000000000000000000000001000000000000004000000100000",
      "type": "0x2",
      "transactionHash": "0x65d948137d6eeb2ea5912fa0be2695043625f1bd5335da151f30403afccd124a",
      "transactionIndex": "0x75",
      "blockHash": "0xf0733bcef7fcbdf8c822ddc9e65351b9728d3c8c456583922d30b5c26e7b9e12",
      "blockNumber": "0x3d9d502",
      "gasUsed": "0x2e09c",
      "effectiveGasPrice": "0xb8e8c8c9f",
      "from": "0xb05a948b5c1b057b88d381bde3a375efea87ebad",
      "to": null,
      "contractAddress": "0x7d0e4223f987fbede709842bfd273f7cea393f24"
    },
    {
      "status": "0x1",
      "cumulativeGasUsed": "0x12902d9",
      "logs": [
        {
          "address": "0x0000000000000000000000000000000000001010",
          "topics": [
            "0x4dfe1bbbcf077ddc3e01291eea2d5c70c2b422b415d95645b9adcfd678cb1d63",
            "0x0000000000000000000000000000000000000000000000000000000000001010",
            "0x000000000000000000000000b05a948b5c1b057b88d381bde3a375efea87ebad",
            "0x0000000000000000000000009ead03f7136fc6b4bdb0780b00a1c14ae5a8b6d0"
          ],
          "data": "0x00000000000000000000000000000000000000000000000000519706cc2c1d45000000000000000000000000000000000000000000000001083314e55cd0139500000000000000000000000000000000000000000000054ea1160f3d065cde6600000000000000000000000000000000000000000000000107e17dde90a3f65000000000000000000000000000000000000000000000054ea167a643d288fbab",
          "blockHash": "0xf0733bcef7fcbdf8c822ddc9e65351b9728d3c8c456583922d30b5c26e7b9e12",
          "blockNumber": "0x3d9d502",
          "transactionHash": "0xa5a1ca200da07447e002271053278d64d9335eb3307dbc5fb3af490aab6e38ec",
          "transactionIndex": "0x76",
          "logIndex": "0x432",
          "removed": false
        }
      ],
      "logsBloom": "0x00000000000000000000000000000000000000000000000000000000000000000000000000000000000000000000000000008000000000000000000000000000000000000000000000000000000000800000000000000000000100000000000000000000000000000000000000000000000000000000000080000000000000000042000000040000000000000000000000000000000000000000040000000000200000000000000000000000000000000000000000000000000000000000004000000000000000000001000000000000000000000000000000120000000080000000000000000000000000000000000000000000000000000000000000100000",
      "type": "0x2",
      "transactionHash": "0xa5a1ca200da07447e002271053278d64d9335eb3307dbc5fb3af490aab6e38ec",
      "transactionIndex": "0x76",
      "blockHash": "0xf0733bcef7fcbdf8c822ddc9e65351b9728d3c8c456583922d30b5c26e7b9e12",
      "blockNumber": "0x3d9d502",
      "gasUsed": "0xb5235",
      "effectiveGasPrice": "0xb8e8c8c9f",
      "from": "0xb05a948b5c1b057b88d381bde3a375efea87ebad",
      "to": null,
      "contractAddress": "0x7a0cae1ee3dd4a6d12e5babd52c3fc59a4ad0c4a"
    },
    {
      "status": "0x1",
      "cumulativeGasUsed": "0x1299ae5",
      "logs": [
        {
          "address": "0x7d0e4223f987fbede709842bfd273f7cea393f24",
          "topics": [
            "0xbc7cd75a20ee27fd9adebab32041f755214dbc6bffa90cc0225b39da2e5c2d3b",
            "0x0000000000000000000000007a0cae1ee3dd4a6d12e5babd52c3fc59a4ad0c4a"
          ],
          "data": "0x",
          "blockHash": "0xf0733bcef7fcbdf8c822ddc9e65351b9728d3c8c456583922d30b5c26e7b9e12",
          "blockNumber": "0x3d9d502",
          "transactionHash": "0x38afa5bc470b914d1565a34ad8e86fbe4659e0a503e2a66228c1f1cb68834878",
          "transactionIndex": "0x77",
          "logIndex": "0x433",
          "removed": false
        },
        {
          "address": "0x0000000000000000000000000000000000001010",
          "topics": [
            "0x4dfe1bbbcf077ddc3e01291eea2d5c70c2b422b415d95645b9adcfd678cb1d63",
            "0x0000000000000000000000000000000000000000000000000000000000001010",
            "0x000000000000000000000000b05a948b5c1b057b88d381bde3a375efea87ebad",
            "0x0000000000000000000000009ead03f7136fc6b4bdb0780b00a1c14ae5a8b6d0"
          ],
          "data": "0x000000000000000000000000000000000000000000000000000447c88c0421cc00000000000000000000000000000000000000000000000107b03ecdc9d708aa00000000000000000000000000000000000000000000054ea167a643d288fbab00000000000000000000000000000000000000000000000107abf7053dd2e6de00000000000000000000000000000000000000000000054ea16bee0c5e8d1d77",
          "blockHash": "0xf0733bcef7fcbdf8c822ddc9e65351b9728d3c8c456583922d30b5c26e7b9e12",
          "blockNumber": "0x3d9d502",
          "transactionHash": "0x38afa5bc470b914d1565a34ad8e86fbe4659e0a503e2a66228c1f1cb68834878",
          "transactionIndex": "0x77",
          "logIndex": "0x434",
          "removed": false
        }
      ],
      "logsBloom": "0x00000000000000000000000000000000400000000000000000000000000000000000000000000000000000000000000000008080000000000000000000000000000000000000000000000000000002800000000000000000000100000000000000000000001000000000000000000000000000000000000080000000000000000042000000040000000000000000000000000000000000000000044000000000200000000000000000000000000000000000000000800000000000000000004000000020000000000001000000000000000000000000000000120000000080000000000000000000000000000000000000001000000000000004000000100000",
      "type": "0x2",
      "transactionHash": "0x38afa5bc470b914d1565a34ad8e86fbe4659e0a503e2a66228c1f1cb68834878",
      "transactionIndex": "0x77",
      "blockHash": "0xf0733bcef7fcbdf8c822ddc9e65351b9728d3c8c456583922d30b5c26e7b9e12",
      "blockNumber": "0x3d9d502",
      "gasUsed": "0x980c",
      "effectiveGasPrice": "0xb8e8c8c9f",
      "from": "0xb05a948b5c1b057b88d381bde3a375efea87ebad",
      "to": "0x7d0e4223f987fbede709842bfd273f7cea393f24",
      "contractAddress": null
    },
    {
      "status": "0x1",
      "cumulativeGasUsed": "0x12a1e46",
      "logs": [
        {
          "address": "0x7842e2d0dda2e64727c251382e9b1ee70fa33b94",
          "topics": [
            "0x8be0079c531659141344cd1fd0a4f28419497f9722a3daafe3b4186f6b6457e0",
            "0x000000000000000000000000b05a948b5c1b057b88d381bde3a375efea87ebad",
            "0x0000000000000000000000007d0e4223f987fbede709842bfd273f7cea393f24"
          ],
          "data": "0x",
          "blockHash": "0xf0733bcef7fcbdf8c822ddc9e65351b9728d3c8c456583922d30b5c26e7b9e12",
          "blockNumber": "0x3d9d502",
          "transactionHash": "0x756f75f67ae9a9a1346a2c5d2b7d188c92060106f0ab815ddcefa5bee9cf3f16",
          "transactionIndex": "0x78",
          "logIndex": "0x435",
          "removed": false
        },
        {
          "address": "0x0000000000000000000000000000000000001010",
          "topics": [
            "0x4dfe1bbbcf077ddc3e01291eea2d5c70c2b422b415d95645b9adcfd678cb1d63",
            "0x0000000000000000000000000000000000000000000000000000000000001010",
            "0x000000000000000000000000b05a948b5c1b057b88d381bde3a375efea87ebad",
            "0x0000000000000000000000009ead03f7136fc6b4bdb0780b00a1c14ae5a8b6d0"
          ],
          "data": "0x0000000000000000000000000000000000000000000000000003b2d4f3a1423100000000000000000000000000000000000000000000000107a9619fa7c2093600000000000000000000000000000000000000000000054ea16bee0c5e8d1d7700000000000000000000000000000000000000000000000107a5aecab420c70500000000000000000000000000000000000000000000054ea16fa0e1522e5fa8",
          "blockHash": "0xf0733bcef7fcbdf8c822ddc9e65351b9728d3c8c456583922d30b5c26e7b9e12",
          "blockNumber": "0x3d9d502",
          "transactionHash": "0x756f75f67ae9a9a1346a2c5d2b7d188c92060106f0ab815ddcefa5bee9cf3f16",
          "transactionIndex": "0x78",
          "logIndex": "0x436",
          "removed": false
        }
      ],
      "logsBloom": "0x00000000000000000000000000000000000000000000000000800000000000000000000000000000000000000000000000008000000000000000000000000000000000000000000000000001000000800001000000000000200100000000000000000000000000000000000000000000000000000000000080000001000000400042000000040000000000000000000000000800000000000000040000000000200000000000000000000000000000000000000000000000000000000000004000000000000000000001000000000000000000000000000000120000000080000000000000000000000000000000000000000000000000000000000802100000",
      "type": "0x2",
      "transactionHash": "0x756f75f67ae9a9a1346a2c5d2b7d188c92060106f0ab815ddcefa5bee9cf3f16",
      "transactionIndex": "0x78",
      "blockHash": "0xf0733bcef7fcbdf8c822ddc9e65351b9728d3c8c456583922d30b5c26e7b9e12",
      "blockNumber": "0x3d9d502",
      "gasUsed": "0x8361",
      "effectiveGasPrice": "0xb8e8c8c9f",
      "from": "0xb05a948b5c1b057b88d381bde3a375efea87ebad",
      "to": "0x7842e2d0dda2e64727c251382e9b1ee70fa33b94",
      "contractAddress": null
    },
    {
      "status": "0x1",
      "cumulativeGasUsed": "0x12aa1ea",
      "logs": [
        {
          "address": "0x1fac47cf25f1ca9f20ba366099d26b28401f5715",
          "topics": [
            "0x8be0079c531659141344cd1fd0a4f28419497f9722a3daafe3b4186f6b6457e0",
            "0x000000000000000000000000b05a948b5c1b057b88d381bde3a375efea87ebad",
            "0x0000000000000000000000007d0e4223f987fbede709842bfd273f7cea393f24"
          ],
          "data": "0x",
          "blockHash": "0xf0733bcef7fcbdf8c822ddc9e65351b9728d3c8c456583922d30b5c26e7b9e12",
          "blockNumber": "0x3d9d502",
          "transactionHash": "0x470d113549d23e05692c90de3c851dc8fbf32b989434a1871e76c1ba4378c6e0",
          "transactionIndex": "0x79",
          "logIndex": "0x437",
          "removed": false
        },
        {
          "address": "0x0000000000000000000000000000000000001010",
          "topics": [
            "0x4dfe1bbbcf077ddc3e01291eea2d5c70c2b422b415d95645b9adcfd678cb1d63",
            "0x0000000000000000000000000000000000000000000000000000000000001010",
            "0x000000000000000000000000b05a948b5c1b057b88d381bde3a375efea87ebad",
            "0x0000000000000000000000009ead03f7136fc6b4bdb0780b00a1c14ae5a8b6d0"
          ],
          "data": "0x0000000000000000000000000000000000000000000000000003b4b7d00378e400000000000000000000000000000000000000000000000107a3734cb88b63f700000000000000000000000000000000000000000000054ea16fa0e1522e5fa8000000000000000000000000000000000000000000000001079fbe94e887eb1300000000000000000000000000000000000000000000054ea17355992231d88c",
          "blockHash": "0xf0733bcef7fcbdf8c822ddc9e65351b9728d3c8c456583922d30b5c26e7b9e12",
          "blockNumber": "0x3d9d502",
          "transactionHash": "0x470d113549d23e05692c90de3c851dc8fbf32b989434a1871e76c1ba4378c6e0",
          "transactionIndex": "0x79",
          "logIndex": "0x438",
          "removed": false
        }
      ],
      "logsBloom": "0x01000000000000000000000000000000000000000000000000800000000000000000000000000010000000000000000000008000000000000000000000000000000000000000000000000001000000800001000000000000000100000000000000000000000000000000000000000000000000000000000080000000000000400042000000040000000000000000000000000800000000000000040000000000200000000000000000000000000000000000000000000000000000000000004000000000000000000001000000000000000000000000000000120000000080000000000000000000000000000000000000000000000000000000000002100080",
      "type": "0x2",
      "transactionHash": "0x470d113549d23e05692c90de3c851dc8fbf32b989434a1871e76c1ba4378c6e0",
      "transactionIndex": "0x79",
      "blockHash": "0xf0733bcef7fcbdf8c822ddc9e65351b9728d3c8c456583922d30b5c26e7b9e12",
      "blockNumber": "0x3d9d502",
      "gasUsed": "0x83a4",
      "effectiveGasPrice": "0xb8e8c8c9f",
      "from": "0xb05a948b5c1b057b88d381bde3a375efea87ebad",
      "to": "0x1fac47cf25f1ca9f20ba366099d26b28401f5715",
      "contractAddress": null
    },
    {
      "status": "0x1",
      "cumulativeGasUsed": "0x12b4e20",
      "logs": [
        {
          "address": "0x57a9835b204dbcc101dbf981625a3625e8043b9c",
          "topics": [
            "0x8be0079c531659141344cd1fd0a4f28419497f9722a3daafe3b4186f6b6457e0",
            "0x000000000000000000000000fe763f4f5a17cc917fea07c33833b6374df1a9ec",
            "0x0000000000000000000000007d0e4223f987fbede709842bfd273f7cea393f24"
          ],
          "data": "0x",
          "blockHash": "0xf0733bcef7fcbdf8c822ddc9e65351b9728d3c8c456583922d30b5c26e7b9e12",
          "blockNumber": "0x3d9d502",
          "transactionHash": "0x26eeb70627e0c126d094bf2cb95d624d81b039147eb5f57e9376806914ee2d06",
          "transactionIndex": "0x7a",
          "logIndex": "0x439",
          "removed": false
        },
        {
          "address": "0x0000000000000000000000000000000000001010",
          "topics": [
            "0x4dfe1bbbcf077ddc3e01291eea2d5c70c2b422b415d95645b9adcfd678cb1d63",
            "0x0000000000000000000000000000000000000000000000000000000000001010",
            "0x000000000000000000000000b05a948b5c1b057b88d381bde3a375efea87ebad",
            "0x0000000000000000000000009ead03f7136fc6b4bdb0780b00a1c14ae5a8b6d0"
          ],
          "data": "0x0000000000000000000000000000000000000000000000000004d91a74709816000000000000000000000000000000000000000000000001079d81f37a8bf11b00000000000000000000000000000000000000000000054ea17355992231d88c0000000000000000000000000000000000000000000000010798a8d9061b590500000000000000000000000000000000000000000000054ea1782eb396a270a2",
          "blockHash": "0xf0733bcef7fcbdf8c822ddc9e65351b9728d3c8c456583922d30b5c26e7b9e12",
          "blockNumber": "0x3d9d502",
          "transactionHash": "0x26eeb70627e0c126d094bf2cb95d624d81b039147eb5f57e9376806914ee2d06",
          "transactionIndex": "0x7a",
          "logIndex": "0x43a",
          "removed": false
        }
      ],
      "logsBloom": "0x00000000000000000000000000000000000000001000000000800000000000000000000000000000000000000000000000008000000000000000000000000000000000000000000000000001400000800001000000000000000100000000000000000000000000000000000000000000000000000000000080000000000000400042000000040000000000000000000004000800000000000000040000004000200000000000000000000000000000000000000000000000000000000000004000000000000000000001000000000000001000000000000000120000000080000000000000000000000000000000000000000000000000000000000002100001",
      "type": "0x2",
      "transactionHash": "0x26eeb70627e0c126d094bf2cb95d624d81b039147eb5f57e9376806914ee2d06",
      "transactionIndex": "0x7a",
      "blockHash": "0xf0733bcef7fcbdf8c822ddc9e65351b9728d3c8c456583922d30b5c26e7b9e12",
      "blockNumber": "0x3d9d502",
      "gasUsed": "0xac36",
      "effectiveGasPrice": "0xb8e8c8c9f",
      "from": "0xb05a948b5c1b057b88d381bde3a375efea87ebad",
      "to": "0x57a9835b204dbcc101dbf981625a3625e8043b9c",
      "contractAddress": null
    },
    {
      "status": "0x1",
      "cumulativeGasUsed": "0x5e21ce",
      "logs": [
        {
          "address": "0x4aa4677ea4ab3e52aad99741b90c76c677739d24",
          "topics": [
            "0x8be0079c531659141344cd1fd0a4f28419497f9722a3daafe3b4186f6b6457e0",
            "0x000000000000000000000000b05a948b5c1b057b88d381bde3a375efea87ebad",
            "0x0000000000000000000000007d0e4223f987fbede709842bfd273f7cea393f24"
          ],
          "data": "0x",
          "blockHash": "0xc960fbeb405fa5f67f2b10d29fd143f8435a00a10f9d793ea6617ad48c99cc61",
          "blockNumber": "0x3d9d503",
          "transactionHash": "0x3414314fa265c0ec531a09068aa78827397e13c1afb096e3b137c1c9ec44b182",
          "transactionIndex": "0x22",
          "logIndex": "0xee",
          "removed": false
        },
        {
          "address": "0x0000000000000000000000000000000000001010",
          "topics": [
            "0x4dfe1bbbcf077ddc3e01291eea2d5c70c2b422b415d95645b9adcfd678cb1d63",
            "0x0000000000000000000000000000000000000000000000000000000000001010",
            "0x000000000000000000000000b05a948b5c1b057b88d381bde3a375efea87ebad",
            "0x0000000000000000000000009ead03f7136fc6b4bdb0780b00a1c14ae5a8b6d0"
          ],
          "data": "0x0000000000000000000000000000000000000000000000000003d687461d4d650000000000000000000000000000000000000000000000010795bbbcfa6b739100000000000000000000000000000000000000000000054eacabbdcda247490f0000000000000000000000000000000000000000000000010791e535b44e262c00000000000000000000000000000000000000000000054eacaf9454e8649674",
          "blockHash": "0xc960fbeb405fa5f67f2b10d29fd143f8435a00a10f9d793ea6617ad48c99cc61",
          "blockNumber": "0x3d9d503",
          "transactionHash": "0x3414314fa265c0ec531a09068aa78827397e13c1afb096e3b137c1c9ec44b182",
          "transactionIndex": "0x22",
          "logIndex": "0xef",
          "removed": false
        }
      ],
      "logsBloom": "0x00000000000000000000000000000000000000000000000000800000000000000000000000000000000000000000000000008000000000000000000000000000000000000000000000000001000000800001000000000000000100000000000000000000000000000000000000000000000000000000004084000000000000400042000000040000200000000000000000000800000000000000040000000000200000000000000000000000000000000000000000000000000000000000004000000000000000000001000000000000000000000000000000120000000080000000000000000000000000000000000000000000000000000000000002100000",
      "type": "0x2",
      "transactionHash": "0x3414314fa265c0ec531a09068aa78827397e13c1afb096e3b137c1c9ec44b182",
      "transactionIndex": "0x22",
      "blockHash": "0xc960fbeb405fa5f67f2b10d29fd143f8435a00a10f9d793ea6617ad48c99cc61",
      "blockNumber": "0x3d9d503",
      "gasUsed": "0x8855",
      "effectiveGasPrice": "0xbd418a13c",
      "from": "0xb05a948b5c1b057b88d381bde3a375efea87ebad",
      "to": "0x4aa4677ea4ab3e52aad99741b90c76c677739d24",
      "contractAddress": null
    },
    {
      "status": "0x1",
      "cumulativeGasUsed": "0x5eaa23",
      "logs": [
        {
          "address": "0x65bf57a410ed5fa69669f307c2da65eae06279f4",
          "topics": [
            "0x8be0079c531659141344cd1fd0a4f28419497f9722a3daafe3b4186f6b6457e0",
            "0x000000000000000000000000b05a948b5c1b057b88d381bde3a375efea87ebad",
            "0x0000000000000000000000007d0e4223f987fbede709842bfd273f7cea393f24"
          ],
          "data": "0x",
          "blockHash": "0xc960fbeb405fa5f67f2b10d29fd143f8435a00a10f9d793ea6617ad48c99cc61",
          "blockNumber": "0x3d9d503",
          "transactionHash": "0x2dece9a03396da9f4dab9b6b3e67101b9408b1fab48c237e49a17f54fa9a20d9",
          "transactionIndex": "0x23",
          "logIndex": "0xf0",
          "removed": false
        },
        {
          "address": "0x0000000000000000000000000000000000001010",
          "topics": [
            "0x4dfe1bbbcf077ddc3e01291eea2d5c70c2b422b415d95645b9adcfd678cb1d63",
            "0x0000000000000000000000000000000000000000000000000000000000001010",
            "0x000000000000000000000000b05a948b5c1b057b88d381bde3a375efea87ebad",
            "0x0000000000000000000000009ead03f7136fc6b4bdb0780b00a1c14ae5a8b6d0"
          ],
          "data": "0x0000000000000000000000000000000000000000000000000003d687461d4d65000000000000000000000000000000000000000000000001078f6f2278960aa500000000000000000000000000000000000000000000054eacaf9454e8649674000000000000000000000000000000000000000000000001078b989b3278bd4000000000000000000000000000000000000000000000054eacb36adc2e81e3d9",
          "blockHash": "0xc960fbeb405fa5f67f2b10d29fd143f8435a00a10f9d793ea6617ad48c99cc61",
          "blockNumber": "0x3d9d503",
          "transactionHash": "0x2dece9a03396da9f4dab9b6b3e67101b9408b1fab48c237e49a17f54fa9a20d9",
          "transactionIndex": "0x23",
          "logIndex": "0xf1",
          "removed": false
        }
      ],
      "logsBloom": "0x00000000000000000000000000000000000000000000000000800000000000000200000000000000000000000000000000008000000000000100000000000000000000000000000000000001000000800001000000000000000100000000000000000000000000000000000000000000000000000000000080000000000000400042000000040000000000000000000000000800000000000000040000000000200000000080000000000000000000000000000000000000000000000000004000000000000000000001000000000000000000000000000000120000000080000000000000000000000000000000000000000000000000000000000002100000",
      "type": "0x2",
      "transactionHash": "0x2dece9a03396da9f4dab9b6b3e67101b9408b1fab48c237e49a17f54fa9a20d9",
      "transactionIndex": "0x23",
      "blockHash": "0xc960fbeb405fa5f67f2b10d29fd143f8435a00a10f9d793ea6617ad48c99cc61",
      "blockNumber": "0x3d9d503",
      "gasUsed": "0x8855",
      "effectiveGasPrice": "0xbd418a13c",
      "from": "0xb05a948b5c1b057b88d381bde3a375efea87ebad",
      "to": "0x65bf57a410ed5fa69669f307c2da65eae06279f4",
      "contractAddress": null
    },
    {
      "status": "0x1",
      "cumulativeGasUsed": "0xbc4f43",
      "logs": [
        {
          "address": "0x9eee52873350c26d6c7fa23d048d22c4ab82db09",
          "topics": [
            "0x8be0079c531659141344cd1fd0a4f28419497f9722a3daafe3b4186f6b6457e0",
            "0x000000000000000000000000b05a948b5c1b057b88d381bde3a375efea87ebad",
            "0x0000000000000000000000007d0e4223f987fbede709842bfd273f7cea393f24"
          ],
          "data": "0x",
          "blockHash": "0x03d8578fc15c2147b2a15a3b81ad88a7b707c0fc07e1f293905763b4cbb4edfa",
          "blockNumber": "0x3d9d504",
          "transactionHash": "0xfc7d2a710bfc5046f67a4ad1f2100525564a6ba377c0900de24503230de3885c",
          "transactionIndex": "0x42",
          "logIndex": "0x359",
          "removed": false
        },
        {
          "address": "0x0000000000000000000000000000000000001010",
          "topics": [
            "0x4dfe1bbbcf077ddc3e01291eea2d5c70c2b422b415d95645b9adcfd678cb1d63",
            "0x0000000000000000000000000000000000000000000000000000000000001010",
            "0x000000000000000000000000b05a948b5c1b057b88d381bde3a375efea87ebad",
            "0x0000000000000000000000009ead03f7136fc6b4bdb0780b00a1c14ae5a8b6d0"
          ],
          "data": "0x0000000000000000000000000000000000000000000000000003d687461d4d6500000000000000000000000000000000000000000000000107892287f6c0a1b900000000000000000000000000000000000000000000054ebfd9de587f9a831500000000000000000000000000000000000000000000000107854c00b0a3545400000000000000000000000000000000000000000000054ebfddb4dfc5b7d07a",
          "blockHash": "0x03d8578fc15c2147b2a15a3b81ad88a7b707c0fc07e1f293905763b4cbb4edfa",
          "blockNumber": "0x3d9d504",
          "transactionHash": "0xfc7d2a710bfc5046f67a4ad1f2100525564a6ba377c0900de24503230de3885c",
          "transactionIndex": "0x42",
          "logIndex": "0x35a",
          "removed": false
        }
      ],
      "logsBloom": "0x00000000000000000000000000400000000000000000000000800000000000000000000000000000000000000000000000008000000000000000000000000000000000000000000000000001000000800001000000000000000100000000000000200000000000000000000000000000000000000000000080000000000000400042000000040000000000000000000000000800000000000000040000000000200000000000000000000000000000000000000000000000000000000000004000000000000000000001000000000000000000000000000000120000000080000000000000000000000000002000000000000000000000000000000002100000",
      "type": "0x2",
      "transactionHash": "0xfc7d2a710bfc5046f67a4ad1f2100525564a6ba377c0900de24503230de3885c",
      "transactionIndex": "0x42",
      "blockHash": "0x03d8578fc15c2147b2a15a3b81ad88a7b707c0fc07e1f293905763b4cbb4edfa",
      "blockNumber": "0x3d9d504",
      "gasUsed": "0x8855",
      "effectiveGasPrice": "0xc0f1d9e83",
      "from": "0xb05a948b5c1b057b88d381bde3a375efea87ebad",
      "to": "0x9eee52873350c26d6c7fa23d048d22c4ab82db09",
      "contractAddress": null
    },
    {
      "status": "0x1",
      "cumulativeGasUsed": "0xbcd85d",
      "logs": [
        {
          "address": "0x0eab3bf7f6c651fc645c70543f34c117a1615adc",
          "topics": [
            "0x8be0079c531659141344cd1fd0a4f28419497f9722a3daafe3b4186f6b6457e0",
            "0x000000000000000000000000b05a948b5c1b057b88d381bde3a375efea87ebad",
            "0x0000000000000000000000007d0e4223f987fbede709842bfd273f7cea393f24"
          ],
          "data": "0x",
          "blockHash": "0x03d8578fc15c2147b2a15a3b81ad88a7b707c0fc07e1f293905763b4cbb4edfa",
          "blockNumber": "0x3d9d504",
          "transactionHash": "0xfb3134c12551d4a5932aff323a1cc1ce89d8b69fb1ee92810c27370668e11be5",
          "transactionIndex": "0x43",
          "logIndex": "0x35b",
          "removed": false
        },
        {
          "address": "0x0000000000000000000000000000000000001010",
          "topics": [
            "0x4dfe1bbbcf077ddc3e01291eea2d5c70c2b422b415d95645b9adcfd678cb1d63",
            "0x0000000000000000000000000000000000000000000000000000000000001010",
            "0x000000000000000000000000b05a948b5c1b057b88d381bde3a375efea87ebad",
            "0x0000000000000000000000009ead03f7136fc6b4bdb0780b00a1c14ae5a8b6d0"
          ],
          "data": "0x0000000000000000000000000000000000000000000000000003dc13076bee3a0000000000000000000000000000000000000000000000010782b67f35b5683a00000000000000000000000000000000000000000000054ebfddb4dfc5b7d07a000000000000000000000000000000000000000000000001077eda6c2e497a0000000000000000000000000000000000000000000000054ebfe190f2cd23beb4",
          "blockHash": "0x03d8578fc15c2147b2a15a3b81ad88a7b707c0fc07e1f293905763b4cbb4edfa",
          "blockNumber": "0x3d9d504",
          "transactionHash": "0xfb3134c12551d4a5932aff323a1cc1ce89d8b69fb1ee92810c27370668e11be5",
          "transactionIndex": "0x43",
          "logIndex": "0x35c",
          "removed": false
        }
      ],
      "logsBloom": "0x00000000000000000000000000000000000000000000000000800000000000000000000000000000000000000000000000008000000000000000000000000000000000000000000000000001000000800009000000000000000100000000000000000000000000000000000000000000000000000000000080000000000000400042000000040000000000000000000000000800000000000000040000000000200000000000000000000000000000000000000000000000000000000000005000000000000000000001000000000000000000000000000000120000000080000000000004000000000000000000000000000000000000000000000002100000",
      "type": "0x2",
      "transactionHash": "0xfb3134c12551d4a5932aff323a1cc1ce89d8b69fb1ee92810c27370668e11be5",
      "transactionIndex": "0x43",
      "blockHash": "0x03d8578fc15c2147b2a15a3b81ad88a7b707c0fc07e1f293905763b4cbb4edfa",
      "blockNumber": "0x3d9d504",
      "gasUsed": "0x891a",
      "effectiveGasPrice": "0xc0f1d9e83",
      "from": "0xb05a948b5c1b057b88d381bde3a375efea87ebad",
      "to": "0x0eab3bf7f6c651fc645c70543f34c117a1615adc",
      "contractAddress": null
    },
    {
      "status": "0x1",
      "cumulativeGasUsed": "0xbd6177",
      "logs": [
        {
          "address": "0x22a9bc80cf832393dc88fc564cfe97e3daa116db",
          "topics": [
            "0x8be0079c531659141344cd1fd0a4f28419497f9722a3daafe3b4186f6b6457e0",
            "0x000000000000000000000000b05a948b5c1b057b88d381bde3a375efea87ebad",
            "0x0000000000000000000000007d0e4223f987fbede709842bfd273f7cea393f24"
          ],
          "data": "0x",
          "blockHash": "0x03d8578fc15c2147b2a15a3b81ad88a7b707c0fc07e1f293905763b4cbb4edfa",
          "blockNumber": "0x3d9d504",
          "transactionHash": "0xa1158b7b350fb5c26d01b6f9168d226ad8cf61e9de605645784e883b1c30ce7d",
          "transactionIndex": "0x44",
          "logIndex": "0x35d",
          "removed": false
        },
        {
          "address": "0x0000000000000000000000000000000000001010",
          "topics": [
            "0x4dfe1bbbcf077ddc3e01291eea2d5c70c2b422b415d95645b9adcfd678cb1d63",
            "0x0000000000000000000000000000000000000000000000000000000000001010",
            "0x000000000000000000000000b05a948b5c1b057b88d381bde3a375efea87ebad",
            "0x0000000000000000000000009ead03f7136fc6b4bdb0780b00a1c14ae5a8b6d0"
          ],
          "data": "0x0000000000000000000000000000000000000000000000000003dc13076bee3a000000000000000000000000000000000000000000000001077c412ed2df33ec00000000000000000000000000000000000000000000054ebfe190f2cd23beb40000000000000000000000000000000000000000000000010778651bcb7345b200000000000000000000000000000000000000000000054ebfe56d05d48facee",
          "blockHash": "0x03d8578fc15c2147b2a15a3b81ad88a7b707c0fc07e1f293905763b4cbb4edfa",
          "blockNumber": "0x3d9d504",
          "transactionHash": "0xa1158b7b350fb5c26d01b6f9168d226ad8cf61e9de605645784e883b1c30ce7d",
          "transactionIndex": "0x44",
          "logIndex": "0x35e",
          "removed": false
        }
      ],
      "logsBloom": "0x00000000000000000000000000000000000000000000200000800000000000000000000000000000000000000002000000008000000000000000000000000000000000000000000000000001000000800001000000000000000100000000000000000000000000000000000000000000000000000000000080000000000000400042000000040000000000000000000000000800000000000000040000000000200000000000000000000000000000000000000000000000000000000000004000000000000000000001000000000000000000000040000000120000000080000000000000000000000000000000000000000000000000000000000002100000",
      "type": "0x2",
      "transactionHash": "0xa1158b7b350fb5c26d01b6f9168d226ad8cf61e9de605645784e883b1c30ce7d",
      "transactionIndex": "0x44",
      "blockHash": "0x03d8578fc15c2147b2a15a3b81ad88a7b707c0fc07e1f293905763b4cbb4edfa",
      "blockNumber": "0x3d9d504",
      "gasUsed": "0x891a",
      "effectiveGasPrice": "0xc0f1d9e83",
      "from": "0xb05a948b5c1b057b88d381bde3a375efea87ebad",
      "to": "0x22a9bc80cf832393dc88fc564cfe97e3daa116db",
      "contractAddress": null
    },
    {
      "status": "0x1",
      "cumulativeGasUsed": "0xbdea91",
      "logs": [
        {
          "address": "0x6138338450c5bfbd646e49cf9f8c68a9152cad17",
          "topics": [
            "0x8be0079c531659141344cd1fd0a4f28419497f9722a3daafe3b4186f6b6457e0",
            "0x000000000000000000000000b05a948b5c1b057b88d381bde3a375efea87ebad",
            "0x0000000000000000000000007d0e4223f987fbede709842bfd273f7cea393f24"
          ],
          "data": "0x",
          "blockHash": "0x03d8578fc15c2147b2a15a3b81ad88a7b707c0fc07e1f293905763b4cbb4edfa",
          "blockNumber": "0x3d9d504",
          "transactionHash": "0xf973ab49b66a737cf577f48053c4387f884051d39b648f9dadd2920fa7248331",
          "transactionIndex": "0x45",
          "logIndex": "0x35f",
          "removed": false
        },
        {
          "address": "0x0000000000000000000000000000000000001010",
          "topics": [
            "0x4dfe1bbbcf077ddc3e01291eea2d5c70c2b422b415d95645b9adcfd678cb1d63",
            "0x0000000000000000000000000000000000000000000000000000000000001010",
            "0x000000000000000000000000b05a948b5c1b057b88d381bde3a375efea87ebad",
            "0x0000000000000000000000009ead03f7136fc6b4bdb0780b00a1c14ae5a8b6d0"
          ],
          "data": "0x0000000000000000000000000000000000000000000000000003dc13076bee3a0000000000000000000000000000000000000000000000010775cbde7008ff9e00000000000000000000000000000000000000000000054ebfe56d05d48facee0000000000000000000000000000000000000000000000010771efcb689d116400000000000000000000000000000000000000000000054ebfe94918dbfb9b28",
          "blockHash": "0x03d8578fc15c2147b2a15a3b81ad88a7b707c0fc07e1f293905763b4cbb4edfa",
          "blockNumber": "0x3d9d504",
          "transactionHash": "0xf973ab49b66a737cf577f48053c4387f884051d39b648f9dadd2920fa7248331",
          "transactionIndex": "0x45",
          "logIndex": "0x360",
          "removed": false
        }
      ],
      "logsBloom": "0x00000000000000000000000000000000010000000000000000800000000000000000000000000000008000000000000000008000000000000000000000000000000000000000000000000001000000800001000000000000000100000000000000000000000000000000000000000000000000000000000080000000000000400042000000040000000000000000000000000800000000000000040000000000200000000000000000000000000000000000000000000000000000000000004000000000000000000001000000000000000000000000000000120000000080000000000000000000000000000000000000000000000000000000000002100000",
      "type": "0x2",
      "transactionHash": "0xf973ab49b66a737cf577f48053c4387f884051d39b648f9dadd2920fa7248331",
      "transactionIndex": "0x45",
      "blockHash": "0x03d8578fc15c2147b2a15a3b81ad88a7b707c0fc07e1f293905763b4cbb4edfa",
      "blockNumber": "0x3d9d504",
      "gasUsed": "0x891a",
      "effectiveGasPrice": "0xc0f1d9e83",
      "from": "0xb05a948b5c1b057b88d381bde3a375efea87ebad",
      "to": "0x6138338450c5bfbd646e49cf9f8c68a9152cad17",
      "contractAddress": null
    },
    {
      "status": "0x1",
      "cumulativeGasUsed": "0xbe73ab",
      "logs": [
        {
          "address": "0xd6f30d1f35069299e709bcac58fe7cda6bc9595f",
          "topics": [
            "0x8be0079c531659141344cd1fd0a4f28419497f9722a3daafe3b4186f6b6457e0",
            "0x000000000000000000000000b05a948b5c1b057b88d381bde3a375efea87ebad",
            "0x0000000000000000000000007d0e4223f987fbede709842bfd273f7cea393f24"
          ],
          "data": "0x",
          "blockHash": "0x03d8578fc15c2147b2a15a3b81ad88a7b707c0fc07e1f293905763b4cbb4edfa",
          "blockNumber": "0x3d9d504",
          "transactionHash": "0xb25e34e83c21561d41ee64f32e084a4338ec3564be7712a3461afcdc853a4a44",
          "transactionIndex": "0x46",
          "logIndex": "0x361",
          "removed": false
        },
        {
          "address": "0x0000000000000000000000000000000000001010",
          "topics": [
            "0x4dfe1bbbcf077ddc3e01291eea2d5c70c2b422b415d95645b9adcfd678cb1d63",
            "0x0000000000000000000000000000000000000000000000000000000000001010",
            "0x000000000000000000000000b05a948b5c1b057b88d381bde3a375efea87ebad",
            "0x0000000000000000000000009ead03f7136fc6b4bdb0780b00a1c14ae5a8b6d0"
          ],
          "data": "0x0000000000000000000000000000000000000000000000000003dc13076bee3a000000000000000000000000000000000000000000000001076f568e0d32cb5000000000000000000000000000000000000000000000054ebfe94918dbfb9b28000000000000000000000000000000000000000000000001076b7a7b05c6dd1600000000000000000000000000000000000000000000054ebfed252be3678962",
          "blockHash": "0x03d8578fc15c2147b2a15a3b81ad88a7b707c0fc07e1f293905763b4cbb4edfa",
          "blockNumber": "0x3d9d504",
          "transactionHash": "0xb25e34e83c21561d41ee64f32e084a4338ec3564be7712a3461afcdc853a4a44",
          "transactionIndex": "0x46",
          "logIndex": "0x362",
          "removed": false
        }
      ],
      "logsBloom": "0x00000000000000000000000000000000000000000000000000800000000000000000000000000000000000000000000000008000000000000000000000000000000000000000000000000201000000800201000000000000000100000000000000000000000000000000000000000000000000000000000080000000000000400042000000040000000000000000000000000800000000000000040000000000200000000000000000000000000000000000000000000000000000000000004000000000000000000001000000000000000000000000000000120000000080000000000000000000000000000000000000000000000000000000800002100000",
      "type": "0x2",
      "transactionHash": "0xb25e34e83c21561d41ee64f32e084a4338ec3564be7712a3461afcdc853a4a44",
      "transactionIndex": "0x46",
      "blockHash": "0x03d8578fc15c2147b2a15a3b81ad88a7b707c0fc07e1f293905763b4cbb4edfa",
      "blockNumber": "0x3d9d504",
      "gasUsed": "0x891a",
      "effectiveGasPrice": "0xc0f1d9e83",
      "from": "0xb05a948b5c1b057b88d381bde3a375efea87ebad",
      "to": "0xd6f30d1f35069299e709bcac58fe7cda6bc9595f",
      "contractAddress": null
    }
  ],
  "libraries": [],
  "pending": [],
  "returns": {},
  "timestamp": 1732305951,
  "chain": 137,
  "commit": "3f1d7091"
}