{
  "transactions": [
    {
      "hash": "0xda56d817b91a0fbedea0901d36be8739b88e2188ad089e8bb556991f290e1385",
      "transactionType": "CREATE",
      "contractName": "CollateralVault",
      "contractAddress": "0xba1c9da92a4494966ff1d60cb1d2668bfd15c8fb",
      "function": null,
      "arguments": null,
      "transaction": {
        "from": "0xb05a948b5c1b057b88d381bde3a375efea87ebad",
        "gas": "0x73df5",
        "value": "0x0",
        "input": "0x6080806040523461001b57600160005561053c90816100218239f35b600080fdfe60806040908082526004918236101561001757600080fd5b600091823560e01c908163481fef8a1461031f575080638129fc1c146102db5780638630da1d146102955780638969ab53146101a25780638da5cb5b1461017a576399ea56b01461006757600080fd5b346101765760603660031901126101765782356100826103d4565b6002546001600160a01b03939192916044359185163303610167577fc512525fc7952c6edf42100f0853e94fb1c1f6daf93780cac22b690a36e03724949596506100ca6103ef565b8682948482526001602052828220978116978883526020528282205480839511610158575b508180808089610130958a61014e9a99985260016020528d88842090845260205287832061011e838254610445565b90555af161012a610468565b506104c8565b51938493849081526020810191909152901515604082015260600190565b0390a26001815580f35b955060019350889150816100ef565b5163ea8e4eb560e01b81528690fd5b5080fd5b503461017657816003193601126101765760025490516001600160a01b039091168152602090f35b5034610176576080366003190112610176578235926101bf6103d4565b604435946001600160a01b0380871694929390928588036102915760643591846002541633036102835750867f86b742620d95ff25811b118a7f2dbca2f5f4c869adf0b0d94660965f51c8d769959697986102186103ef565b839585835260016020528383209816978883526020528282205480839511610274575b508180808089610130958a61026a9a99985260016020528d88842090845260205287832061011e838254610445565b0390a36001815580f35b9550600193508991508161023b565b905163ea8e4eb560e01b8152fd5b8680fd5b5082346102d757816003193601126102d75760209282916102b46103d4565b90358252600185528282206001600160a01b039091168252845220549051908152f35b8280fd5b5082346102d757826003193601126102d757600254916001600160a01b0383166103135750506001600160a01b031916331760025580f35b5162dc149f60e41b8152fd5b918091506003193601126102d75783356103376103d4565b60025490936001600160a01b0391821633036103c657506103566103ef565b81855260016020528285209316928385526020528184208054903482018092116103b3577feec2f3feb835e2f2fd44281034b04700a1ddda63dd402949d470a25a7c40b36c94959650558151908152346020820152a26001815580f35b634e487b7160e01b865260118752602486fd5b63ea8e4eb560e01b81528690fd5b602435906001600160a01b03821682036103ea57565b600080fd5b600260005414610400576002600055565b60405162461bcd60e51b815260206004820152601f60248201527f5265656e7472616e637947756172643a207265656e7472616e742063616c6c006044820152606490fd5b9190820391821161045257565b634e487b7160e01b600052601160045260246000fd5b3d156104c3576001600160401b03903d8281116104ad5760405192601f8201601f19908116603f01168401908111848210176104ad5760405282523d6000602084013e565b634e487b7160e01b600052604160045260246000fd5b606090565b156104cf57565b60405162461bcd60e51b815260206004820152600f60248201526e151c985b9cd9995c8819985a5b1959608a1b6044820152606490fdfea2646970667358221220e1fd22beafc52b9f32fec6358911e88b54c9d8372f89236bd2ac8fa3fd7fadbd64736f6c63430008130033",
        "nonce": "0xf",
        "chainId": "0x64"
      },
      "additionalContracts": [],
      "isFixedGasLimit": false
    },
    {
      "hash": "0xb50cfa10dc0080bd53fd84f9c82fbb349844761bf096e8b79dfe3de5d8821a5a",
      "transactionType": "CALL",
      "contractName": null,
      "contractAddress": "0x08df82f74d1f56f650e98da2dd4240f1a31711bc",
      "function": "setCollateralVaultTemplate(address)",
      "arguments": [
        "0xba1c9Da92a4494966fF1d60cB1D2668BfD15C8Fb"
      ],
      "transaction": {
        "from": "0xb05a948b5c1b057b88d381bde3a375efea87ebad",
        "to": "0x08df82f74d1f56f650e98da2dd4240f1a31711bc",
        "gas": "0xef5c",
        "value": "0x0",
        "input": "0xb0d3713a000000000000000000000000ba1c9da92a4494966ff1d60cb1d2668bfd15c8fb",
        "nonce": "0x10",
        "chainId": "0x64"
      },
      "additionalContracts": [],
      "isFixedGasLimit": false
    }
  ],
  "receipts": [
    {
      "status": "0x1",
      "cumulativeGasUsed": "0x26fe51",
      "logs": [],
      "logsBloom": "0x00000000000000000000000000000000000000000000000000000000000000000000000000000000000000000000000000000000000000000000000000000000000000000000000000000000000000000000000000000000000000000000000000000000000000000000000000000000000000000000000000000000000000000000000000000000000000000000000000000000000000000000000000000000000000000000000000000000000000000000000000000000000000000000000000000000000000000000000000000000000000000000000000000000000000000000000000000000000000000000000000000000000000000000000000000000",
      "type": "0x0",
      "transactionHash": "0xda56d817b91a0fbedea0901d36be8739b88e2188ad089e8bb556991f290e1385",
      "transactionIndex": "0x7",
      "blockHash": "0x80225187d53f122969b2839fef5746a2ef3ce96e6b38d2163c45224e637b808d",
      "blockNumber": "0x2286530",
      "gasUsed": "0x59275",
      "effectiveGasPrice": "0x59682f07",
      "from": "0xb05a948b5c1b057b88d381bde3a375efea87ebad",
      "to": null,
      "contractAddress": "0xba1c9da92a4494966ff1d60cb1d2668bfd15c8fb"
    },
    {
      "status": "0x1",
      "cumulativeGasUsed": "0x27ab9d",
      "logs": [],
      "logsBloom": "0x00000000000000000000000000000000000000000000000000000000000000000000000000000000000000000000000000000000000000000000000000000000000000000000000000000000000000000000000000000000000000000000000000000000000000000000000000000000000000000000000000000000000000000000000000000000000000000000000000000000000000000000000000000000000000000000000000000000000000000000000000000000000000000000000000000000000000000000000000000000000000000000000000000000000000000000000000000000000000000000000000000000000000000000000000000000",
      "type": "0x0",
      "transactionHash": "0xb50cfa10dc0080bd53fd84f9c82fbb349844761bf096e8b79dfe3de5d8821a5a",
      "transactionIndex": "0x8",
      "blockHash": "0x80225187d53f122969b2839fef5746a2ef3ce96e6b38d2163c45224e637b808d",
      "blockNumber": "0x2286530",
      "gasUsed": "0xad4c",
      "effectiveGasPrice": "0x59682f07",
      "from": "0xb05a948b5c1b057b88d381bde3a375efea87ebad",
      "to": "0x08df82f74d1f56f650e98da2dd4240f1a31711bc",
      "contractAddress": null
    }
  ],
  "libraries": [],
  "pending": [],
  "returns": {},
  "timestamp": 1727369595,
  "chain": 100,
  "commit": "072b1a30"
}