{
  "transactions": [
    {
      "hash": "0x4862ff96aa7ce94c90a3c5faab50ed02dc3204e22e84c2b15377a5e3db878c3c",
      "transactionType": "CREATE",
      "contractName": "ProxyOwner",
      "contractAddress": "0x554388fa3a43df0fb7b235800dae3fcda306bc77",
      "function": null,
      "arguments": null,
      "transaction": {
        "from": "0xb05a948b5c1b057b88d381bde3a375efea87ebad",
        "gas": "0xeb6a2",
        "value": "0x0",
        "input": "0x60a080604052346100315730608052610c75908161003782396080518181816103270152818161044801526106c00152f35b600080fdfe60406080815260048036101561001457600080fd5b600091823560e01c9182633659cfe6146106995782634f1ef286146103cf57826352d1902d14610313578263715018a6146102be57826379ba5097146102745782638da5cb5b1461024b578263c4d66de81461012357508163e30c3978146100f6575063f2fde38b1461008657600080fd5b346100f35760203660031901126100f35761009f610859565b6100a76108e3565b606580546001600160a01b0319166001600160a01b039283169081179091556033549091167f38d16b8cac22d99fc7c124b9cd0de2d3fa1faef420bfe791d8c362d765e227008380a380f35b80fd5b90503461011f578160031936011261011f5760655490516001600160a01b039091168152602090f35b5080fd5b909150346102475760203660031901126102475761013f610859565b835460ff8160081c16159283809461023a575b8015610223575b156101c9575060ff198116600117855561017a9190836101b8575b50610b3d565b610182575080f35b60207f7f26b83ff96e1f2b6a682f133852f6798a09c465da95921460cefb38474024989161ff001984541684555160018152a180f35b61ffff191661010117855538610174565b608490602086519162461bcd60e51b8352820152602e60248201527f496e697469616c697a61626c653a20636f6e747261637420697320616c72656160448201526d191e481a5b9a5d1a585b1a5e995960921b6064820152fd5b50303b1580156101595750600160ff831614610159565b50600160ff831610610152565b8280fd5b83823461011f578160031936011261011f5760335490516001600160a01b039091168152602090f35b915034610247578260031936011261024757606554336001600160a01b03909116036102a757826102a433610b3d565b80f35b60249250519063118cdaa760e01b82523390820152fd5b83346100f357806003193601126100f3576102d76108e3565b606580546001600160a01b031990811690915560338054918216905581906001600160a01b0316600080516020610be08339815191528280a380f35b83346100f357806003193601126100f357507f00000000000000000000000000000000000000000000000000000000000000006001600160a01b0316300361036c5760208251600080516020610bc08339815191528152f35b6020608492519162461bcd60e51b8352820152603860248201527f555550535570677261646561626c653a206d757374206e6f742062652063616c6044820152771b1959081d1a1c9bdd59da0819195b1959d85d1958d85b1b60421b6064820152fd5b915080600319360112610247576103e4610859565b90602435906001600160401b0382116106955736602383011215610695578184013561040f816108c8565b61041b835191826108a5565b81815286602094858301933660248284010111610247578060248893018637830101526001600160a01b037f00000000000000000000000000000000000000000000000000000000000000008116906104763083141561093b565b610493600080516020610bc083398151915292828454161461098a565b61049b6108e3565b600080516020610b808339815191525460ff16156104c3575050505050506102a491506109d9565b869293949596169085516352d1902d60e01b815287818a81865afa8a9181610662575b5061053357865162461bcd60e51b8152808a01899052602e6024820152600080516020610c2083398151915260448201526d6f6e206973206e6f74205555505360901b6064820152608490fd5b97919293969594970361060d575061054a826109d9565b600080516020610c008339815191528780a285845115801590610605575b610576575b50505050505080f35b806105ef9684519661058788610874565b602788527f416464726573733a206c6f772d6c6576656c2064656c65676174652063616c6c87890152660819985a5b195960ca1b868901525190845af4913d156105fb573d6105e16105d8826108c8565b925192836108a5565b81528681943d92013e610a69565b5038808080808561056d565b5060609250610a69565b506001610568565b835162461bcd60e51b8152908101859052602960248201527f45524331393637557067726164653a20756e737570706f727465642070726f786044820152681a58589b195555525160ba1b6064820152608490fd5b9091508881813d831161068e575b61067a81836108a5565b8101031261068a575190386104e6565b8a80fd5b503d610670565b8480fd5b91503461024757602080600319360112610855576106b5610859565b916001600160a01b037f000000000000000000000000000000000000000000000000000000000000000081166106ed3082141561093b565b61070a600080516020610bc083398151915291838354161461098a565b6107126108e3565b8251848101929091906001600160401b0384118385101761084257838552888352600080516020610b808339815191525460ff161561075b575050505050506102a491506109d9565b869293949596169085516352d1902d60e01b815287818a81865afa8a9181610813575b506107cb57865162461bcd60e51b8152808a01899052602e6024820152600080516020610c2083398151915260448201526d6f6e206973206e6f74205555505360901b6064820152608490fd5b97919293969594970361060d57506107e2826109d9565b600080516020610c008339815191528780a28584511580159061080c576105765750505050505080f35b5080610568565b9091508881813d831161083b575b61082b81836108a5565b8101031261068a5751903861077e565b503d610821565b634e487b7160e01b895260418852602489fd5b8380fd5b600435906001600160a01b038216820361086f57565b600080fd5b606081019081106001600160401b0382111761088f57604052565b634e487b7160e01b600052604160045260246000fd5b601f909101601f19168101906001600160401b0382119082101761088f57604052565b6001600160401b03811161088f57601f01601f191660200190565b6033546001600160a01b031633036108f757565b606460405162461bcd60e51b815260206004820152602060248201527f4f776e61626c653a2063616c6c6572206973206e6f7420746865206f776e65726044820152fd5b1561094257565b60405162461bcd60e51b815260206004820152602c6024820152600080516020610ba083398151915260448201526b19195b1959d85d1958d85b1b60a21b6064820152608490fd5b1561099157565b60405162461bcd60e51b815260206004820152602c6024820152600080516020610ba083398151915260448201526b6163746976652070726f787960a01b6064820152608490fd5b803b15610a0e57600080516020610bc083398151915280546001600160a01b0319166001600160a01b03909216919091179055565b60405162461bcd60e51b815260206004820152602d60248201527f455243313936373a206e657720696d706c656d656e746174696f6e206973206e60448201526c1bdd08184818dbdb9d1c9858dd609a1b6064820152608490fd5b91929015610acb5750815115610a7d575090565b3b15610a865790565b60405162461bcd60e51b815260206004820152601d60248201527f416464726573733a2063616c6c20746f206e6f6e2d636f6e74726163740000006044820152606490fd5b825190915015610ade5750805190602001fd5b6040519062461bcd60e51b82528160208060048301528251908160248401526000935b828510610b24575050604492506000838284010152601f80199101168101030190fd5b8481018201518686016044015293810193859350610b01565b606580546001600160a01b0319908116909155603380549182166001600160a01b039384169081179091559116600080516020610be0833981519152600080a356fe4910fdfa16fed3260ed0e7147f7cc6da11a60208b5b9406d12a635614ffd914346756e6374696f6e206d7573742062652063616c6c6564207468726f75676820360894a13ba1a3210667c828492db98dca3e2076cc3735a920a3ca505d382bbc8be0079c531659141344cd1fd0a4f28419497f9722a3daafe3b4186f6b6457e0bc7cd75a20ee27fd9adebab32041f755214dbc6bffa90cc0225b39da2e5c2d3b45524331393637557067726164653a206e657720696d706c656d656e74617469a264697066735822122095dd4d2a5c194bfb1dbff104f39ee7131051171aea85fa95e6fba516911de91b64736f6c63430008130033",
        "nonce": "0x38",
        "chainId": "0x64"
      },
      "additionalContracts": [],
      "isFixedGasLimit": false
    },
    {
      "hash": "0xdf11edf3e79d9820a7c4f10bf81537ad0acde7445be58587dd7ecf8b1f4b4378",
      "transactionType": "CREATE",
      "contractName": "ERC1967Proxy",
      "contractAddress": "0x91ab7a20cc3aee799df908fa1b2571fe8e07394a",
      "function": null,
      "arguments": [
        "0x554388FA3a43dF0Fb7B235800daE3fCDa306BC77",
        "0xc4d66de8000000000000000000000000b05a948b5c1b057b88d381bde3a375efea87ebad"
      ],
      "transaction": {
        "from": "0xb05a948b5c1b057b88d381bde3a375efea87ebad",
        "gas": "0x3bd34",
        "value": "0x0",
        "input": "0x604060808152610410908138038061001681610218565b93843982019181818403126102135780516001600160a01b038116808203610213576020838101516001600160401b0394919391858211610213570186601f820112156102135780519061007161006c83610253565b610218565b918083528583019886828401011161021357888661008f930161026e565b813b156101b9577f360894a13ba1a3210667c828492db98dca3e2076cc3735a920a3ca505d382bbc80546001600160a01b031916841790556000927fbc7cd75a20ee27fd9adebab32041f755214dbc6bffa90cc0225b39da2e5c2d3b8480a28051158015906101b2575b61010b575b855160cb90816103458239f35b855194606086019081118682101761019e578697849283926101889952602788527f416464726573733a206c6f772d6c6576656c2064656c65676174652063616c6c87890152660819985a5b195960ca1b8a8901525190845af4913d15610194573d9061017a61006c83610253565b91825281943d92013e610291565b508038808080806100fe565b5060609250610291565b634e487b7160e01b84526041600452602484fd5b50826100f9565b855162461bcd60e51b815260048101859052602d60248201527f455243313936373a206e657720696d706c656d656e746174696f6e206973206e60448201526c1bdd08184818dbdb9d1c9858dd609a1b6064820152608490fd5b600080fd5b6040519190601f01601f191682016001600160401b0381118382101761023d57604052565b634e487b7160e01b600052604160045260246000fd5b6001600160401b03811161023d57601f01601f191660200190565b60005b8381106102815750506000910152565b8181015183820152602001610271565b919290156102f357508151156102a5575090565b3b156102ae5790565b60405162461bcd60e51b815260206004820152601d60248201527f416464726573733a2063616c6c20746f206e6f6e2d636f6e74726163740000006044820152606490fd5b8251909150156103065750805190602001fd5b6044604051809262461bcd60e51b825260206004830152610336815180928160248601526020868601910161026e565b601f01601f19168101030190fdfe60806040523615604157600080516020607683398151915254600090819081906001600160a01b0316368280378136915af43d82803e15603d573d90f35b3d90fd5b600080516020607683398151915254600090819081906001600160a01b0316368280378136915af43d82803e15603d573d90f3fe360894a13ba1a3210667c828492db98dca3e2076cc3735a920a3ca505d382bbca2646970667358221220b9c533c5cbdc91d32688faca813a72cb34b28bff1b053c4cc32424f62e37a71f64736f6c63430008130033000000000000000000000000554388fa3a43df0fb7b235800dae3fcda306bc7700000000000000000000000000000000000000000000000000000000000000400000000000000000000000000000000000000000000000000000000000000024c4d66de8000000000000000000000000b05a948b5c1b057b88d381bde3a375efea87ebad00000000000000000000000000000000000000000000000000000000",
        "nonce": "0x39",
        "chainId": "0x64"
      },
      "additionalContracts": [],
      "isFixedGasLimit": false
    },
    {
      "hash": "0xea4bf47a988672a093b6ea6f71071c9d56f02e1773a388911aeb694d23287bed",
      "transactionType": "CREATE",
      "contractName": "ProxyOwner",
      "contractAddress": "0x18486cd05d06d25e13637fb2515b86a19a978202",
      "function": null,
      "arguments": null,
      "transaction": {
        "from": "0xb05a948b5c1b057b88d381bde3a375efea87ebad",
        "gas": "0xeb6a2",
        "value": "0x0",
        "input": "0x60a080604052346100315730608052610c75908161003782396080518181816103270152818161044801526106c00152f35b600080fdfe60406080815260048036101561001457600080fd5b600091823560e01c9182633659cfe6146106995782634f1ef286146103cf57826352d1902d14610313578263715018a6146102be57826379ba5097146102745782638da5cb5b1461024b578263c4d66de81461012357508163e30c3978146100f6575063f2fde38b1461008657600080fd5b346100f35760203660031901126100f35761009f610859565b6100a76108e3565b606580546001600160a01b0319166001600160a01b039283169081179091556033549091167f38d16b8cac22d99fc7c124b9cd0de2d3fa1faef420bfe791d8c362d765e227008380a380f35b80fd5b90503461011f578160031936011261011f5760655490516001600160a01b039091168152602090f35b5080fd5b909150346102475760203660031901126102475761013f610859565b835460ff8160081c16159283809461023a575b8015610223575b156101c9575060ff198116600117855561017a9190836101b8575b50610b3d565b610182575080f35b60207f7f26b83ff96e1f2b6a682f133852f6798a09c465da95921460cefb38474024989161ff001984541684555160018152a180f35b61ffff191661010117855538610174565b608490602086519162461bcd60e51b8352820152602e60248201527f496e697469616c697a61626c653a20636f6e747261637420697320616c72656160448201526d191e481a5b9a5d1a585b1a5e995960921b6064820152fd5b50303b1580156101595750600160ff831614610159565b50600160ff831610610152565b8280fd5b83823461011f578160031936011261011f5760335490516001600160a01b039091168152602090f35b915034610247578260031936011261024757606554336001600160a01b03909116036102a757826102a433610b3d565b80f35b60249250519063118cdaa760e01b82523390820152fd5b83346100f357806003193601126100f3576102d76108e3565b606580546001600160a01b031990811690915560338054918216905581906001600160a01b0316600080516020610be08339815191528280a380f35b83346100f357806003193601126100f357507f00000000000000000000000000000000000000000000000000000000000000006001600160a01b0316300361036c5760208251600080516020610bc08339815191528152f35b6020608492519162461bcd60e51b8352820152603860248201527f555550535570677261646561626c653a206d757374206e6f742062652063616c6044820152771b1959081d1a1c9bdd59da0819195b1959d85d1958d85b1b60421b6064820152fd5b915080600319360112610247576103e4610859565b90602435906001600160401b0382116106955736602383011215610695578184013561040f816108c8565b61041b835191826108a5565b81815286602094858301933660248284010111610247578060248893018637830101526001600160a01b037f00000000000000000000000000000000000000000000000000000000000000008116906104763083141561093b565b610493600080516020610bc083398151915292828454161461098a565b61049b6108e3565b600080516020610b808339815191525460ff16156104c3575050505050506102a491506109d9565b869293949596169085516352d1902d60e01b815287818a81865afa8a9181610662575b5061053357865162461bcd60e51b8152808a01899052602e6024820152600080516020610c2083398151915260448201526d6f6e206973206e6f74205555505360901b6064820152608490fd5b97919293969594970361060d575061054a826109d9565b600080516020610c008339815191528780a285845115801590610605575b610576575b50505050505080f35b806105ef9684519661058788610874565b602788527f416464726573733a206c6f772d6c6576656c2064656c65676174652063616c6c87890152660819985a5b195960ca1b868901525190845af4913d156105fb573d6105e16105d8826108c8565b925192836108a5565b81528681943d92013e610a69565b5038808080808561056d565b5060609250610a69565b506001610568565b835162461bcd60e51b8152908101859052602960248201527f45524331393637557067726164653a20756e737570706f727465642070726f786044820152681a58589b195555525160ba1b6064820152608490fd5b9091508881813d831161068e575b61067a81836108a5565b8101031261068a575190386104e6565b8a80fd5b503d610670565b8480fd5b91503461024757602080600319360112610855576106b5610859565b916001600160a01b037f000000000000000000000000000000000000000000000000000000000000000081166106ed3082141561093b565b61070a600080516020610bc083398151915291838354161461098a565b6107126108e3565b8251848101929091906001600160401b0384118385101761084257838552888352600080516020610b808339815191525460ff161561075b575050505050506102a491506109d9565b869293949596169085516352d1902d60e01b815287818a81865afa8a9181610813575b506107cb57865162461bcd60e51b8152808a01899052602e6024820152600080516020610c2083398151915260448201526d6f6e206973206e6f74205555505360901b6064820152608490fd5b97919293969594970361060d57506107e2826109d9565b600080516020610c008339815191528780a28584511580159061080c576105765750505050505080f35b5080610568565b9091508881813d831161083b575b61082b81836108a5565b8101031261068a5751903861077e565b503d610821565b634e487b7160e01b895260418852602489fd5b8380fd5b600435906001600160a01b038216820361086f57565b600080fd5b606081019081106001600160401b0382111761088f57604052565b634e487b7160e01b600052604160045260246000fd5b601f909101601f19168101906001600160401b0382119082101761088f57604052565b6001600160401b03811161088f57601f01601f191660200190565b6033546001600160a01b031633036108f757565b606460405162461bcd60e51b815260206004820152602060248201527f4f776e61626c653a2063616c6c6572206973206e6f7420746865206f776e65726044820152fd5b1561094257565b60405162461bcd60e51b815260206004820152602c6024820152600080516020610ba083398151915260448201526b19195b1959d85d1958d85b1b60a21b6064820152608490fd5b1561099157565b60405162461bcd60e51b815260206004820152602c6024820152600080516020610ba083398151915260448201526b6163746976652070726f787960a01b6064820152608490fd5b803b15610a0e57600080516020610bc083398151915280546001600160a01b0319166001600160a01b03909216919091179055565b60405162461bcd60e51b815260206004820152602d60248201527f455243313936373a206e657720696d706c656d656e746174696f6e206973206e60448201526c1bdd08184818dbdb9d1c9858dd609a1b6064820152608490fd5b91929015610acb5750815115610a7d575090565b3b15610a865790565b60405162461bcd60e51b815260206004820152601d60248201527f416464726573733a2063616c6c20746f206e6f6e2d636f6e74726163740000006044820152606490fd5b825190915015610ade5750805190602001fd5b6040519062461bcd60e51b82528160208060048301528251908160248401526000935b828510610b24575050604492506000838284010152601f80199101168101030190fd5b8481018201518686016044015293810193859350610b01565b606580546001600160a01b0319908116909155603380549182166001600160a01b039384169081179091559116600080516020610be0833981519152600080a356fe4910fdfa16fed3260ed0e7147f7cc6da11a60208b5b9406d12a635614ffd914346756e6374696f6e206d7573742062652063616c6c6564207468726f75676820360894a13ba1a3210667c828492db98dca3e2076cc3735a920a3ca505d382bbc8be0079c531659141344cd1fd0a4f28419497f9722a3daafe3b4186f6b6457e0bc7cd75a20ee27fd9adebab32041f755214dbc6bffa90cc0225b39da2e5c2d3b45524331393637557067726164653a206e657720696d706c656d656e74617469a264697066735822122095dd4d2a5c194bfb1dbff104f39ee7131051171aea85fa95e6fba516911de91b64736f6c63430008130033",
        "nonce": "0x3a",
        "chainId": "0x64"
      },
      "additionalContracts": [],
      "isFixedGasLimit": false
    },
    {
      "hash": "0x89511f19bbf0f86bd7a36a0889bcf12335de4f97efb9bced16814fa455a0a473",
      "transactionType": "CALL",
      "contractName": "ERC1967Proxy",
      "contractAddress": "0x91ab7a20cc3aee799df908fa1b2571fe8e07394a",
      "function": null,
      "arguments": null,
      "transaction": {
        "from": "0xb05a948b5c1b057b88d381bde3a375efea87ebad",
        "to": "0x91ab7a20cc3aee799df908fa1b2571fe8e07394a",
        "gas": "0xd202",
        "value": "0x0",
        "input": "0x3659cfe600000000000000000000000018486cd05d06d25e13637fb2515b86a19a978202",
        "nonce": "0x3b",
        "chainId": "0x64"
      },
      "additionalContracts": [],
      "isFixedGasLimit": false
    },
    {
      "hash": "0x96172794448c97b05661c71db0aa44b3ac7115b631525f424de7be9b88ca9cc2",
      "transactionType": "CALL",
      "contractName": "ERC1967Proxy",
      "contractAddress": "0x450967c1497ab95df8530a9a8eaae5e951171dee",
      "function": null,
      "arguments": null,
      "transaction": {
        "from": "0xb05a948b5c1b057b88d381bde3a375efea87ebad",
        "to": "0x450967c1497ab95df8530a9a8eaae5e951171dee",
        "gas": "0xc024",
        "value": "0x0",
        "input": "0xf2fde38b00000000000000000000000091ab7a20cc3aee799df908fa1b2571fe8e07394a",
        "nonce": "0x3c",
        "chainId": "0x64"
      },
      "additionalContracts": [],
      "isFixedGasLimit": false
    },
    {
      "hash": "0x53458d613067cb61c0da589e7a8e108ffd54dc387192d254de8ee9bb6c353b07",
      "transactionType": "CALL",
      "contractName": "ERC1967Proxy",
      "contractAddress": "0xd7b72fcb6a4e2857685175f609d1498ff5392e46",
      "function": null,
      "arguments": null,
      "transaction": {
        "from": "0xb05a948b5c1b057b88d381bde3a375efea87ebad",
        "to": "0xd7b72fcb6a4e2857685175f609d1498ff5392e46",
        "gas": "0xb5d3",
        "value": "0x0",
        "input": "0xf2fde38b00000000000000000000000091ab7a20cc3aee799df908fa1b2571fe8e07394a",
        "nonce": "0x3d",
        "chainId": "0x64"
      },
      "additionalContracts": [],
      "isFixedGasLimit": false
    },
    {
      "hash": "0x7c3409fe564a0c99f5baaa13c2910cd9d0edc45be68546f43066e7618c2c83d4",
      "transactionType": "CALL",
      "contractName": "ERC1967Proxy",
      "contractAddress": "0x08df82f74d1f56f650e98da2dd4240f1a31711bc",
      "function": null,
      "arguments": null,
      "transaction": {
        "from": "0xb05a948b5c1b057b88d381bde3a375efea87ebad",
        "to": "0x08df82f74d1f56f650e98da2dd4240f1a31711bc",
        "gas": "0xeddd",
        "value": "0x0",
        "input": "0xf2fde38b00000000000000000000000091ab7a20cc3aee799df908fa1b2571fe8e07394a",
        "nonce": "0x3e",
        "chainId": "0x64"
      },
      "additionalContracts": [],
      "isFixedGasLimit": false
    },
    {
      "hash": "0x3b342db326359fdea31300ad13b2687b7808551520866cbb448856d24c31467c",
      "transactionType": "CALL",
      "contractName": null,
      "contractAddress": "0x2038f3b00ce19261fa558b2bd06404c912da3e85",
      "function": "transferOwnership(address)",
      "arguments": [
        "0x91ab7A20cC3AeE799dF908fa1B2571fE8e07394A"
      ],
      "transaction": {
        "from": "0xb05a948b5c1b057b88d381bde3a375efea87ebad",
        "to": "0x2038f3b00ce19261fa558b2bd06404c912da3e85",
        "gas": "0xbc4e",
        "value": "0x0",
        "input": "0xf2fde38b00000000000000000000000091ab7a20cc3aee799df908fa1b2571fe8e07394a",
        "nonce": "0x3f",
        "chainId": "0x64"
      },
      "additionalContracts": [],
      "isFixedGasLimit": false
    },
    {
      "hash": "0x84287b787e26386d20b0dc1b2467c32f8cfd77aca9fa8e006913c5f23ed000fc",
      "transactionType": "CALL",
      "contractName": null,
      "contractAddress": "0x6221d5e286cce0d22fc6e0b2597d5d3ca98dacb1",
      "function": "transferOwnership(address)",
      "arguments": [
        "0x91ab7A20cC3AeE799dF908fa1B2571fE8e07394A"
      ],
      "transaction": {
        "from": "0xb05a948b5c1b057b88d381bde3a375efea87ebad",
        "to": "0x6221d5e286cce0d22fc6e0b2597d5d3ca98dacb1",
        "gas": "0xbc4e",
        "value": "0x0",
        "input": "0xf2fde38b00000000000000000000000091ab7a20cc3aee799df908fa1b2571fe8e07394a",
        "nonce": "0x40",
        "chainId": "0x64"
      },
      "additionalContracts": [],
      "isFixedGasLimit": false
    },
    {
      "hash": "0x31bc7233726dd0bbfad44d5e88b1dfdffdfd118ea9777a36d324f1fbc9a9ecc8",
      "transactionType": "CALL",
      "contractName": null,
      "contractAddress": "0x8f3112bcee3fb967a06dcb245f78f25e638ad56a",
      "function": "transferOwnership(address)",
      "arguments": [
        "0x91ab7A20cC3AeE799dF908fa1B2571fE8e07394A"
      ],
      "transaction": {
        "from": "0xb05a948b5c1b057b88d381bde3a375efea87ebad",
        "to": "0x8f3112bcee3fb967a06dcb245f78f25e638ad56a",
        "gas": "0xbc4e",
        "value": "0x0",
        "input": "0xf2fde38b00000000000000000000000091ab7a20cc3aee799df908fa1b2571fe8e07394a",
        "nonce": "0x41",
        "chainId": "0x64"
      },
      "additionalContracts": [],
      "isFixedGasLimit": false
    },
    {
      "hash": "0xb537d55effbbf2be197b4c315fb1820a68b640f1d9d6d3bfe92f6d8963d6d9d2",
      "transactionType": "CALL",
      "contractName": null,
      "contractAddress": "0x99a454785c9859e5b61647d77a05be1fa53f4d04",
      "function": "transferOwnership(address)",
      "arguments": [
        "0x91ab7A20cC3AeE799dF908fa1B2571fE8e07394A"
      ],
      "transaction": {
        "from": "0xb05a948b5c1b057b88d381bde3a375efea87ebad",
        "to": "0x99a454785c9859e5b61647d77a05be1fa53f4d04",
        "gas": "0xbc4e",
        "value": "0x0",
        "input": "0xf2fde38b00000000000000000000000091ab7a20cc3aee799df908fa1b2571fe8e07394a",
        "nonce": "0x42",
        "chainId": "0x64"
      },
      "additionalContracts": [],
      "isFixedGasLimit": false
    },
    {
      "hash": "0x70fe502aa4a38847772b017d18ff7bac5d6adfe608df3a250a9b4be8579b1040",
      "transactionType": "CALL",
      "contractName": null,
      "contractAddress": "0xa8935addabca48a9fc63a009f9313fc59417b20c",
      "function": "transferOwnership(address)",
      "arguments": [
        "0x91ab7A20cC3AeE799dF908fa1B2571fE8e07394A"
      ],
      "transaction": {
        "from": "0xb05a948b5c1b057b88d381bde3a375efea87ebad",
        "to": "0xa8935addabca48a9fc63a009f9313fc59417b20c",
        "gas": "0xbc4e",
        "value": "0x0",
        "input": "0xf2fde38b00000000000000000000000091ab7a20cc3aee799df908fa1b2571fe8e07394a",
        "nonce": "0x43",
        "chainId": "0x64"
      },
      "additionalContracts": [],
      "isFixedGasLimit": false
    },
    {
      "hash": "0xd677ddb9a651a1e4a167f36acc0b8d35ddd6e562ae67bcfd2b2d006a69a14bc0",
      "transactionType": "CALL",
      "contractName": null,
      "contractAddress": "0xb8ad4b6ba0fde413fdee6f84fc989858c2894092",
      "function": "transferOwnership(address)",
      "arguments": [
        "0x91ab7A20cC3AeE799dF908fa1B2571fE8e07394A"
      ],
      "transaction": {
        "from": "0xb05a948b5c1b057b88d381bde3a375efea87ebad",
        "to": "0xb8ad4b6ba0fde413fdee6f84fc989858c2894092",
        "gas": "0xbc4e",
        "value": "0x0",
        "input": "0xf2fde38b00000000000000000000000091ab7a20cc3aee799df908fa1b2571fe8e07394a",
        "nonce": "0x44",
        "chainId": "0x64"
      },
      "additionalContracts": [],
      "isFixedGasLimit": false
    },
    {
      "hash": "0x5524eeb884e63208bb806d32078d183c2a990faae6439422d6bb129f966e6509",
      "transactionType": "CALL",
      "contractName": null,
      "contractAddress": "0xda9bcf61d7cb66475c34784c328232d2e7e2f6cf",
      "function": "transferOwnership(address)",
      "arguments": [
        "0x91ab7A20cC3AeE799dF908fa1B2571fE8e07394A"
      ],
      "transaction": {
        "from": "0xb05a948b5c1b057b88d381bde3a375efea87ebad",
        "to": "0xda9bcf61d7cb66475c34784c328232d2e7e2f6cf",
        "gas": "0xbc4e",
        "value": "0x0",
        "input": "0xf2fde38b00000000000000000000000091ab7a20cc3aee799df908fa1b2571fe8e07394a",
        "nonce": "0x45",
        "chainId": "0x64"
      },
      "additionalContracts": [],
      "isFixedGasLimit": false
    },
    {
      "hash": "0xf61a50fbec3a233b851e9cb550dd57395366cd8a210505f775a8f73298be1a6c",
      "transactionType": "CALL",
      "contractName": null,
      "contractAddress": "0xe2396fe2169ca026962971d3b2e373ba925b6257",
      "function": "transferOwnership(address)",
      "arguments": [
        "0x91ab7A20cC3AeE799dF908fa1B2571fE8e07394A"
      ],
      "transaction": {
        "from": "0xb05a948b5c1b057b88d381bde3a375efea87ebad",
        "to": "0xe2396fe2169ca026962971d3b2e373ba925b6257",
        "gas": "0xbc4e",
        "value": "0x0",
        "input": "0xf2fde38b00000000000000000000000091ab7a20cc3aee799df908fa1b2571fe8e07394a",
        "nonce": "0x46",
        "chainId": "0x64"
      },
      "additionalContracts": [],
      "isFixedGasLimit": false
    },
    {
      "hash": "0xf2dc8006b8820f3970a085bf38fa7de8d9dcc05b038cdee4d00cfd8ce7dc1d32",
      "transactionType": "CALL",
      "contractName": null,
      "contractAddress": "0x1f6fd908db173f591aa6ea4a037d157ea4e31f68",
      "function": "transferOwnership(address)",
      "arguments": [
        "0x91ab7A20cC3AeE799dF908fa1B2571fE8e07394A"
      ],
      "transaction": {
        "from": "0xb05a948b5c1b057b88d381bde3a375efea87ebad",
        "to": "0x1f6fd908db173f591aa6ea4a037d157ea4e31f68",
        "gas": "0xc882",
        "value": "0x0",
        "input": "0xf2fde38b00000000000000000000000091ab7a20cc3aee799df908fa1b2571fe8e07394a",
        "nonce": "0x47",
        "chainId": "0x64"
      },
      "additionalContracts": [],
      "isFixedGasLimit": false
    },
    {
      "hash": "0x44e6b2bdace0d3969934809fda5b62a247d96567735a902377b776d716c91b80",
      "transactionType": "CALL",
      "contractName": null,
      "contractAddress": "0xaa0195986ffe8f3371444fa77ee3ed04ac787eea",
      "function": "transferOwnership(address)",
      "arguments": [
        "0x91ab7A20cC3AeE799dF908fa1B2571fE8e07394A"
      ],
      "transaction": {
        "from": "0xb05a948b5c1b057b88d381bde3a375efea87ebad",
        "to": "0xaa0195986ffe8f3371444fa77ee3ed04ac787eea",
        "gas": "0xc882",
        "value": "0x0",
        "input": "0xf2fde38b00000000000000000000000091ab7a20cc3aee799df908fa1b2571fe8e07394a",
        "nonce": "0x48",
        "chainId": "0x64"
      },
      "additionalContracts": [],
      "isFixedGasLimit": false
    },
    {
      "hash": "0x7ac2b8b4dc16498f4402198706c166e170c9896687ab3e26c7e1d80d6668825d",
      "transactionType": "CALL",
      "contractName": null,
      "contractAddress": "0xac948bca716b080df41afc70f37b7a9f6f3d9c9a",
      "function": "transferOwnership(address)",
      "arguments": [
        "0x91ab7A20cC3AeE799dF908fa1B2571fE8e07394A"
      ],
      "transaction": {
        "from": "0xb05a948b5c1b057b88d381bde3a375efea87ebad",
        "to": "0xac948bca716b080df41afc70f37b7a9f6f3d9c9a",
        "gas": "0xc882",
        "value": "0x0",
        "input": "0xf2fde38b00000000000000000000000091ab7a20cc3aee799df908fa1b2571fe8e07394a",
        "nonce": "0x49",
        "chainId": "0x64"
      },
      "additionalContracts": [],
      "isFixedGasLimit": false
    },
    {
      "hash": "0x210ede672fe056c37504e6c079c2d16be9a4a5d276c2dfd781115f16498f2f26",
      "transactionType": "CALL",
      "contractName": null,
      "contractAddress": "0xb1a275419c817273f470ee1a102cad7507a25b6f",
      "function": "transferOwnership(address)",
      "arguments": [
        "0x91ab7A20cC3AeE799dF908fa1B2571fE8e07394A"
      ],
      "transaction": {
        "from": "0xb05a948b5c1b057b88d381bde3a375efea87ebad",
        "to": "0xb1a275419c817273f470ee1a102cad7507a25b6f",
        "gas": "0xc882",
        "value": "0x0",
        "input": "0xf2fde38b00000000000000000000000091ab7a20cc3aee799df908fa1b2571fe8e07394a",
        "nonce": "0x4a",
        "chainId": "0x64"
      },
      "additionalContracts": [],
      "isFixedGasLimit": false
    },
    {
      "hash": "0x3043a0ab84d0256ea8ed85b8d5dc3db7a0e0519347f9e5c2f5f2da2d4929fa02",
      "transactionType": "CALL",
      "contractName": null,
      "contractAddress": "0xbf1d2e31fa3d927673d2e95bfb2d940f5cc8890e",
      "function": "transferOwnership(address)",
      "arguments": [
        "0x91ab7A20cC3AeE799dF908fa1B2571fE8e07394A"
      ],
      "transaction": {
        "from": "0xb05a948b5c1b057b88d381bde3a375efea87ebad",
        "to": "0xbf1d2e31fa3d927673d2e95bfb2d940f5cc8890e",
        "gas": "0xc882",
        "value": "0x0",
        "input": "0xf2fde38b00000000000000000000000091ab7a20cc3aee799df908fa1b2571fe8e07394a",
        "nonce": "0x4b",
        "chainId": "0x64"
      },
      "additionalContracts": [],
      "isFixedGasLimit": false
    },
    {
      "hash": "0x29b67401cb69428fe461adca274cc9cee6e191ec9e87fadea6b56e42276c0201",
      "transactionType": "CALL",
      "contractName": null,
      "contractAddress": "0xd12f4faab3a770175f5d7e19bd32b1a7aadc0a31",
      "function": "transferOwnership(address)",
      "arguments": [
        "0x91ab7A20cC3AeE799dF908fa1B2571fE8e07394A"
      ],
      "transaction": {
        "from": "0xb05a948b5c1b057b88d381bde3a375efea87ebad",
        "to": "0xd12f4faab3a770175f5d7e19bd32b1a7aadc0a31",
        "gas": "0xc882",
        "value": "0x0",
        "input": "0xf2fde38b00000000000000000000000091ab7a20cc3aee799df908fa1b2571fe8e07394a",
        "nonce": "0x4c",
        "chainId": "0x64"
      },
      "additionalContracts": [],
      "isFixedGasLimit": false
    },
    {
      "hash": "0xe4231936f9782d7a069bb2277afcff7ae9c3facb1e1d79887eedd9e5935f58c9",
      "transactionType": "CALL",
      "contractName": null,
      "contractAddress": "0xe652081deb52afa56fb2958994427c662356007b",
      "function": "transferOwnership(address)",
      "arguments": [
        "0x91ab7A20cC3AeE799dF908fa1B2571fE8e07394A"
      ],
      "transaction": {
        "from": "0xb05a948b5c1b057b88d381bde3a375efea87ebad",
        "to": "0xe652081deb52afa56fb2958994427c662356007b",
        "gas": "0xc882",
        "value": "0x0",
        "input": "0xf2fde38b00000000000000000000000091ab7a20cc3aee799df908fa1b2571fe8e07394a",
        "nonce": "0x4d",
        "chainId": "0x64"
      },
      "additionalContracts": [],
      "isFixedGasLimit": false
    }
  ],
  "receipts": [
    {
      "status": "0x1",
      "cumulativeGasUsed": "0x1edf0b",
      "logs": [],
      "logsBloom": "0x00000000000000000000000000000000000000000000000000000000000000000000000000000000000000000000000000000000000000000000000000000000000000000000000000000000000000000000000000000000000000000000000000000000000000000000000000000000000000000000000000000000000000000000000000000000000000000000000000000000000000000000000000000000000000000000000000000000000000000000000000000000000000000000000000000000000000000000000000000000000000000000000000000000000000000000000000000000000000000000000000000000000000000000000000000000",
      "type": "0x2",
      "transactionHash": "0x4862ff96aa7ce94c90a3c5faab50ed02dc3204e22e84c2b15377a5e3db878c3c",
      "transactionIndex": "0xd",
      "blockHash": "0x411cf7e5f4647494d3e9ef92d91c4ac87635c54f18c07f168108c471b16f1b05",
      "blockNumber": "0x23708ce",
      "gasUsed": "0xb5235",
      "effectiveGasPrice": "0x4a817c84",
      "from": "0xb05a948b5c1b057b88d381bde3a375efea87ebad",
      "to": null,
      "contractAddress": "0x554388fa3a43df0fb7b235800dae3fcda306bc77"
    },
    {
      "status": "0x1",
      "cumulativeGasUsed": "0x21bfa7",
      "logs": [
        {
          "address": "0x91ab7a20cc3aee799df908fa1b2571fe8e07394a",
          "topics": [
            "0xbc7cd75a20ee27fd9adebab32041f755214dbc6bffa90cc0225b39da2e5c2d3b",
            "0x000000000000000000000000554388fa3a43df0fb7b235800dae3fcda306bc77"
          ],
          "data": "0x",
          "blockHash": "0x411cf7e5f4647494d3e9ef92d91c4ac87635c54f18c07f168108c471b16f1b05",
          "blockNumber": "0x23708ce",
          "transactionHash": "0xdf11edf3e79d9820a7c4f10bf81537ad0acde7445be58587dd7ecf8b1f4b4378",
          "transactionIndex": "0xe",
          "logIndex": "0x2a",
          "removed": false
        },
        {
          "address": "0x91ab7a20cc3aee799df908fa1b2571fe8e07394a",
          "topics": [
            "0x8be0079c531659141344cd1fd0a4f28419497f9722a3daafe3b4186f6b6457e0",
            "0x0000000000000000000000000000000000000000000000000000000000000000",
            "0x000000000000000000000000b05a948b5c1b057b88d381bde3a375efea87ebad"
          ],
          "data": "0x",
          "blockHash": "0x411cf7e5f4647494d3e9ef92d91c4ac87635c54f18c07f168108c471b16f1b05",
          "blockNumber": "0x23708ce",
          "transactionHash": "0xdf11edf3e79d9820a7c4f10bf81537ad0acde7445be58587dd7ecf8b1f4b4378",
          "transactionIndex": "0xe",
          "logIndex": "0x2b",
          "removed": false
        },
        {
          "address": "0x91ab7a20cc3aee799df908fa1b2571fe8e07394a",
          "topics": [
            "0x7f26b83ff96e1f2b6a682f133852f6798a09c465da95921460cefb3847402498"
          ],
          "data": "0x0000000000000000000000000000000000000000000000000000000000000001",
          "blockHash": "0x411cf7e5f4647494d3e9ef92d91c4ac87635c54f18c07f168108c471b16f1b05",
          "blockNumber": "0x23708ce",
          "transactionHash": "0xdf11edf3e79d9820a7c4f10bf81537ad0acde7445be58587dd7ecf8b1f4b4378",
          "transactionIndex": "0xe",
          "logIndex": "0x2c",
          "removed": false
        }
      ],
      "logsBloom": "0x000000000000000080000000000000004000000000000000008000000000000000000000000000000000000000000000000000000000000000008000000000000000000000000000000000000000020000010000000000000000000040000000000000000200000000000000000008000000000000000000000000020000004000020000000000000000000000000000000000000000800000000400000000000000000000000000000000000004000000000000000000000000000000000000000000200000000000000000000400000000000000000000000000000000a0000000000000200000000000000000000000000000000004000000000000000000",
      "type": "0x2",
      "transactionHash": "0xdf11edf3e79d9820a7c4f10bf81537ad0acde7445be58587dd7ecf8b1f4b4378",
      "transactionIndex": "0xe",
      "blockHash": "0x411cf7e5f4647494d3e9ef92d91c4ac87635c54f18c07f168108c471b16f1b05",
      "blockNumber": "0x23708ce",
      "gasUsed": "0x2e09c",
      "effectiveGasPrice": "0x4a817c84",
      "from": "0xb05a948b5c1b057b88d381bde3a375efea87ebad",
      "to": null,
      "contractAddress": "0x91ab7a20cc3aee799df908fa1b2571fe8e07394a"
    },
    {
      "status": "0x1",
      "cumulativeGasUsed": "0x2d11dc",
      "logs": [],
      "logsBloom": "0x00000000000000000000000000000000000000000000000000000000000000000000000000000000000000000000000000000000000000000000000000000000000000000000000000000000000000000000000000000000000000000000000000000000000000000000000000000000000000000000000000000000000000000000000000000000000000000000000000000000000000000000000000000000000000000000000000000000000000000000000000000000000000000000000000000000000000000000000000000000000000000000000000000000000000000000000000000000000000000000000000000000000000000000000000000000",
      "type": "0x2",
      "transactionHash": "0xea4bf47a988672a093b6ea6f71071c9d56f02e1773a388911aeb694d23287bed",
      "transactionIndex": "0xf",
      "blockHash": "0x411cf7e5f4647494d3e9ef92d91c4ac87635c54f18c07f168108c471b16f1b05",
      "blockNumber": "0x23708ce",
      "gasUsed": "0xb5235",
      "effectiveGasPrice": "0x4a817c84",
      "from": "0xb05a948b5c1b057b88d381bde3a375efea87ebad",
      "to": null,
      "contractAddress": "0x18486cd05d06d25e13637fb2515b86a19a978202"
    },
    {
      "status": "0x1",
      "cumulativeGasUsed": "0x2da9e8",
      "logs": [
        {
          "address": "0x91ab7a20cc3aee799df908fa1b2571fe8e07394a",
          "topics": [
            "0xbc7cd75a20ee27fd9adebab32041f755214dbc6bffa90cc0225b39da2e5c2d3b",
            "0x00000000000000000000000018486cd05d06d25e13637fb2515b86a19a978202"
          ],
          "data": "0x",
          "blockHash": "0x411cf7e5f4647494d3e9ef92d91c4ac87635c54f18c07f168108c471b16f1b05",
          "blockNumber": "0x23708ce",
          "transactionHash": "0x89511f19bbf0f86bd7a36a0889bcf12335de4f97efb9bced16814fa455a0a473",
          "transactionIndex": "0x10",
          "logIndex": "0x2d",
          "removed": false
        }
      ],
      "logsBloom": "0x00000000000000008000000000000000400000000000000000000000000000000000000000000000000000000000000000000000001000000000800000000000000000000000000000000000000002000000000000000000000000000000000000000000000000000000000000000000000000000000000000000000000000000000000000000000000000000000000000000000000000000000000000000000000000000000000000000000000000000000000000020000000000000000000000000020000000000000000000000000000000000000000000000000000000000000000000000000000000000080000000000000000004000000000000000000",
      "type": "0x2",
      "transactionHash": "0x89511f19bbf0f86bd7a36a0889bcf12335de4f97efb9bced16814fa455a0a473",
      "transactionIndex": "0x10",
      "blockHash": "0x411cf7e5f4647494d3e9ef92d91c4ac87635c54f18c07f168108c471b16f1b05",
      "blockNumber": "0x23708ce",
      "gasUsed": "0x980c",
      "effectiveGasPrice": "0x4a817c84",
      "from": "0xb05a948b5c1b057b88d381bde3a375efea87ebad",
      "to": "0x91ab7a20cc3aee799df908fa1b2571fe8e07394a",
      "contractAddress": null
    },
    {
      "status": "0x1",
      "cumulativeGasUsed": "0x2e2d49",
      "logs": [
        {
          "address": "0x450967c1497ab95df8530a9a8eaae5e951171dee",
          "topics": [
            "0x8be0079c531659141344cd1fd0a4f28419497f9722a3daafe3b4186f6b6457e0",
            "0x000000000000000000000000b05a948b5c1b057b88d381bde3a375efea87ebad",
            "0x00000000000000000000000091ab7a20cc3aee799df908fa1b2571fe8e07394a"
          ],
          "data": "0x",
          "blockHash": "0x411cf7e5f4647494d3e9ef92d91c4ac87635c54f18c07f168108c471b16f1b05",
          "blockNumber": "0x23708ce",
          "transactionHash": "0x96172794448c97b05661c71db0aa44b3ac7115b631525f424de7be9b88ca9cc2",
          "transactionIndex": "0x11",
          "logIndex": "0x2e",
          "removed": false
        }
      ],
      "logsBloom": "0x00000000000000000000000000000000000000080000000800800000000000000000000000000000000000000000000000000000000000000000000000000000000000000000000000000000000000000001000000000000000000000400000000000000000000200000000000000000000000000000000000000000000000400002000200000000000000000000000000000000000000000000050000000000000000000000000000000000000000000000000000000000000000000000000000000000000000000000000000000000000000000000000000000000000080000000000000000000000000000000000000000000000000000000000000000000",
      "type": "0x2",
      "transactionHash": "0x96172794448c97b05661c71db0aa44b3ac7115b631525f424de7be9b88ca9cc2",
      "transactionIndex": "0x11",
      "blockHash": "0x411cf7e5f4647494d3e9ef92d91c4ac87635c54f18c07f168108c471b16f1b05",
      "blockNumber": "0x23708ce",
      "gasUsed": "0x8361",
      "effectiveGasPrice": "0x4a817c84",
      "from": "0xb05a948b5c1b057b88d381bde3a375efea87ebad",
      "to": "0x450967c1497ab95df8530a9a8eaae5e951171dee",
      "contractAddress": null
    },
    {
      "status": "0x1",
      "cumulativeGasUsed": "0x2eb0ed",
      "logs": [
        {
          "address": "0xd7b72fcb6a4e2857685175f609d1498ff5392e46",
          "topics": [
            "0x8be0079c531659141344cd1fd0a4f28419497f9722a3daafe3b4186f6b6457e0",
            "0x000000000000000000000000b05a948b5c1b057b88d381bde3a375efea87ebad",
            "0x00000000000000000000000091ab7a20cc3aee799df908fa1b2571fe8e07394a"
          ],
          "data": "0x",
          "blockHash": "0x411cf7e5f4647494d3e9ef92d91c4ac87635c54f18c07f168108c471b16f1b05",
          "blockNumber": "0x23708ce",
          "transactionHash": "0x53458d613067cb61c0da589e7a8e108ffd54dc387192d254de8ee9bb6c353b07",
          "transactionIndex": "0x12",
          "logIndex": "0x2f",
          "removed": false
        }
      ],
      "logsBloom": "0x00000000000000000000000000000000000000000000000804800000000000000000000000000000000000000000000000000000000000000000000000000000000000000000000000000000000000000001000000000000000000000400000000000000000000000000000000000000000000000000000000000000000000400002000000000000000000000000000000000000000000000000050000000000000000000000000000000000000000000000000000000000000000000000000000000000000000000000000000010000000000000000000000000000000080000000000000000000000000000000000000000000004000000000000000000000",
      "type": "0x2",
      "transactionHash": "0x53458d613067cb61c0da589e7a8e108ffd54dc387192d254de8ee9bb6c353b07",
      "transactionIndex": "0x12",
      "blockHash": "0x411cf7e5f4647494d3e9ef92d91c4ac87635c54f18c07f168108c471b16f1b05",
      "blockNumber": "0x23708ce",
      "gasUsed": "0x83a4",
      "effectiveGasPrice": "0x4a817c84",
      "from": "0xb05a948b5c1b057b88d381bde3a375efea87ebad",
      "to": "0xd7b72fcb6a4e2857685175f609d1498ff5392e46",
      "contractAddress": null
    },
    {
      "status": "0x1",
      "cumulativeGasUsed": "0x2f5d23",
      "logs": [
        {
          "address": "0x08df82f74d1f56f650e98da2dd4240f1a31711bc",
          "topics": [
            "0x8be0079c531659141344cd1fd0a4f28419497f9722a3daafe3b4186f6b6457e0",
            "0x000000000000000000000000b39dfa15f96055664179e8ecaa890f3fa26c21e9",
            "0x00000000000000000000000091ab7a20cc3aee799df908fa1b2571fe8e07394a"
          ],
          "data": "0x",
          "blockHash": "0x411cf7e5f4647494d3e9ef92d91c4ac87635c54f18c07f168108c471b16f1b05",
          "blockNumber": "0x23708ce",
          "transactionHash": "0x7c3409fe564a0c99f5baaa13c2910cd9d0edc45be68546f43066e7618c2c83d4",
          "transactionIndex": "0x13",
          "logIndex": "0x30",
          "removed": false
        }
      ],
      "logsBloom": "0x00000000000000000000000000000000000001000000000800800000000000000000000000000000000000000000000020000000000000000000002000000000000000000000000000000000000000000001000000000000000000000400000000000000000000000000000000000000000000000000000000000000000000400000000000200000000000000000000000000000000000000000010100000000000000000000000000000000400000000000000000000000000000000000000000000000000000000000000000000000000000000000000000000000000000000000000000000000000000000000000000000000000000000000000000000000",
      "type": "0x2",
      "transactionHash": "0x7c3409fe564a0c99f5baaa13c2910cd9d0edc45be68546f43066e7618c2c83d4",
      "transactionIndex": "0x13",
      "blockHash": "0x411cf7e5f4647494d3e9ef92d91c4ac87635c54f18c07f168108c471b16f1b05",
      "blockNumber": "0x23708ce",
      "gasUsed": "0xac36",
      "effectiveGasPrice": "0x4a817c84",
      "from": "0xb05a948b5c1b057b88d381bde3a375efea87ebad",
      "to": "0x08df82f74d1f56f650e98da2dd4240f1a31711bc",
      "contractAddress": null
    },
    {
      "status": "0x1",
      "cumulativeGasUsed": "0x2fe578",
      "logs": [
        {
          "address": "0x2038f3b00ce19261fa558b2bd06404c912da3e85",
          "topics": [
            "0x8be0079c531659141344cd1fd0a4f28419497f9722a3daafe3b4186f6b6457e0",
            "0x000000000000000000000000b05a948b5c1b057b88d381bde3a375efea87ebad",
            "0x00000000000000000000000091ab7a20cc3aee799df908fa1b2571fe8e07394a"
          ],
          "data": "0x",
          "blockHash": "0x411cf7e5f4647494d3e9ef92d91c4ac87635c54f18c07f168108c471b16f1b05",
          "blockNumber": "0x23708ce",
          "transactionHash": "0x3b342db326359fdea31300ad13b2687b7808551520866cbb448856d24c31467c",
          "transactionIndex": "0x14",
          "logIndex": "0x31",
          "removed": false
        }
      ],
      "logsBloom": "0x00000000000000000000000000000000000000000000000800800000000000000000000000000000000000000000000000000000000000000000000000000000000000000000000000000000000000000001000000000000000000000400000000000000000000000000000000000000000000000000000000000000000000400002000002000000000000000000000000000000000000000000050000000000400000000000000000000000000000000000000000000000000000000000000000000000000000000000000000000000000000000000000000000020000080000000000000000000000000000000000000000000000000000000000000000000",
      "type": "0x2",
      "transactionHash": "0x3b342db326359fdea31300ad13b2687b7808551520866cbb448856d24c31467c",
      "transactionIndex": "0x14",
      "blockHash": "0x411cf7e5f4647494d3e9ef92d91c4ac87635c54f18c07f168108c471b16f1b05",
      "blockNumber": "0x23708ce",
      "gasUsed": "0x8855",
      "effectiveGasPrice": "0x4a817c84",
      "from": "0xb05a948b5c1b057b88d381bde3a375efea87ebad",
      "to": "0x2038f3b00ce19261fa558b2bd06404c912da3e85",
      "contractAddress": null
    },
    {
      "status": "0x1",
      "cumulativeGasUsed": "0x306dcd",
      "logs": [
        {
          "address": "0x6221d5e286cce0d22fc6e0b2597d5d3ca98dacb1",
          "topics": [
            "0x8be0079c531659141344cd1fd0a4f28419497f9722a3daafe3b4186f6b6457e0",
            "0x000000000000000000000000b05a948b5c1b057b88d381bde3a375efea87ebad",
            "0x00000000000000000000000091ab7a20cc3aee799df908fa1b2571fe8e07394a"
          ],
          "data": "0x",
          "blockHash": "0x411cf7e5f4647494d3e9ef92d91c4ac87635c54f18c07f168108c471b16f1b05",
          "blockNumber": "0x23708ce",
          "transactionHash": "0x84287b787e26386d20b0dc1b2467c32f8cfd77aca9fa8e006913c5f23ed000fc",
          "transactionIndex": "0x15",
          "logIndex": "0x32",
          "removed": false
        }
      ],
      "logsBloom": "0x00000000000000000040000000000000000000000000000800800000000000000000000000000000000000000000000000000000000000000000000000000000000000000000000000000000000000000001000000000000000000000400000000000000000000000000000000000000000000000000000000000000000000400002000000000000000000000000000000000000000000000000050000000000000000000000000000000000000000000000000000000000000000000000040000000000000000000000000000000000000000000000000000000000000080000000000000000000000000000008000000000000000000000000000000000000",
      "type": "0x2",
      "transactionHash": "0x84287b787e26386d20b0dc1b2467c32f8cfd77aca9fa8e006913c5f23ed000fc",
      "transactionIndex": "0x15",
      "blockHash": "0x411cf7e5f4647494d3e9ef92d91c4ac87635c54f18c07f168108c471b16f1b05",
      "blockNumber": "0x23708ce",
      "gasUsed": "0x8855",
      "effectiveGasPrice": "0x4a817c84",
      "from": "0xb05a948b5c1b057b88d381bde3a375efea87ebad",
      "to": "0x6221d5e286cce0d22fc6e0b2597d5d3ca98dacb1",
      "contractAddress": null
    },
    {
      "status": "0x1",
      "cumulativeGasUsed": "0x30f622",
      "logs": [
        {
          "address": "0x8f3112bcee3fb967a06dcb245f78f25e638ad56a",
          "topics": [
            "0x8be0079c531659141344cd1fd0a4f28419497f9722a3daafe3b4186f6b6457e0",
            "0x000000000000000000000000b05a948b5c1b057b88d381bde3a375efea87ebad",
            "0x00000000000000000000000091ab7a20cc3aee799df908fa1b2571fe8e07394a"
          ],
          "data": "0x",
          "blockHash": "0x411cf7e5f4647494d3e9ef92d91c4ac87635c54f18c07f168108c471b16f1b05",
          "blockNumber": "0x23708ce",
          "transactionHash": "0x31bc7233726dd0bbfad44d5e88b1dfdffdfd118ea9777a36d324f1fbc9a9ecc8",
          "transactionIndex": "0x16",
          "logIndex": "0x33",
          "removed": false
        }
      ],
      "logsBloom": "0x00000000000000000000000000000000000000000000000800800000000000000000000000000000000000000000000000000000000000000000000000040000000000000000000000000000000000000001000000000000000000010400000000000000000000000000000000000000000000000000000000000000000000400002000000000000000000000000000000000000000000000000050000000000000000000000000000000000000000000000000000000000000000000000000002000000000000000000000000000000000000000000000000000000000080000000000000000000000000000000000000000000000000000000000000000000",
      "type": "0x2",
      "transactionHash": "0x31bc7233726dd0bbfad44d5e88b1dfdffdfd118ea9777a36d324f1fbc9a9ecc8",
      "transactionIndex": "0x16",
      "blockHash": "0x411cf7e5f4647494d3e9ef92d91c4ac87635c54f18c07f168108c471b16f1b05",
      "blockNumber": "0x23708ce",
      "gasUsed": "0x8855",
      "effectiveGasPrice": "0x4a817c84",
      "from": "0xb05a948b5c1b057b88d381bde3a375efea87ebad",
      "to": "0x8f3112bcee3fb967a06dcb245f78f25e638ad56a",
      "contractAddress": null
    },
    {
      "status": "0x1",
      "cumulativeGasUsed": "0x317e77",
      "logs": [
        {
          "address": "0x99a454785c9859e5b61647d77a05be1fa53f4d04",
          "topics": [
            "0x8be0079c531659141344cd1fd0a4f28419497f9722a3daafe3b4186f6b6457e0",
            "0x000000000000000000000000b05a948b5c1b057b88d381bde3a375efea87ebad",
            "0x00000000000000000000000091ab7a20cc3aee799df908fa1b2571fe8e07394a"
          ],
          "data": "0x",
          "blockHash": "0x411cf7e5f4647494d3e9ef92d91c4ac87635c54f18c07f168108c471b16f1b05",
          "blockNumber": "0x23708ce",
          "transactionHash": "0xb537d55effbbf2be197b4c315fb1820a68b640f1d9d6d3bfe92f6d8963d6d9d2",
          "transactionIndex": "0x17",
          "logIndex": "0x34",
          "removed": false
        }
      ],
      "logsBloom": "0x00000000000000000000000000000000000000000000000800800000000000000000000000000000000000000000000000000000000000000000000000000000000000000000000000000000000000000001000000000000000000000400000000000000000000000000000000000000000000000000000000000001000000400002000000000000000000000000000000000000000000000000050000000000000000000000000000000000000000000000000000400000000000000000000000000100000000000000000000000000000000000000000000000000000080000000000000000000000000000000000000000000000000000000000000000000",
      "type": "0x2",
      "transactionHash": "0xb537d55effbbf2be197b4c315fb1820a68b640f1d9d6d3bfe92f6d8963d6d9d2",
      "transactionIndex": "0x17",
      "blockHash": "0x411cf7e5f4647494d3e9ef92d91c4ac87635c54f18c07f168108c471b16f1b05",
      "blockNumber": "0x23708ce",
      "gasUsed": "0x8855",
      "effectiveGasPrice": "0x4a817c84",
      "from": "0xb05a948b5c1b057b88d381bde3a375efea87ebad",
      "to": "0x99a454785c9859e5b61647d77a05be1fa53f4d04",
      "contractAddress": null
    },
    {
      "status": "0x1",
      "cumulativeGasUsed": "0x3206cc",
      "logs": [
        {
          "address": "0xa8935addabca48a9fc63a009f9313fc59417b20c",
          "topics": [
            "0x8be0079c531659141344cd1fd0a4f28419497f9722a3daafe3b4186f6b6457e0",
            "0x000000000000000000000000b05a948b5c1b057b88d381bde3a375efea87ebad",
            "0x00000000000000000000000091ab7a20cc3aee799df908fa1b2571fe8e07394a"
          ],
          "data": "0x",
          "blockHash": "0x411cf7e5f4647494d3e9ef92d91c4ac87635c54f18c07f168108c471b16f1b05",
          "blockNumber": "0x23708ce",
          "transactionHash": "0x70fe502aa4a38847772b017d18ff7bac5d6adfe608df3a250a9b4be8579b1040",
          "transactionIndex": "0x18",
          "logIndex": "0x35",
          "removed": false
        }
      ],
      "logsBloom": "0x00000000000000000000000000000000000000000000000800800000000000000000000000000000000000000000000000000000000000000000000000000000000000000000000000000000000000000001000000000000200000000400000000000002000000000000000000000000000000000000000000000000000000440002000000000000000000000000000000000000000000000000050000000000000000000000000000000000000000000000000000000000000000000000000000000000000000000000000000000000000000000000000000000000000080000000000000000000000000000000000000000000000000000000000000000000",
      "type": "0x2",
      "transactionHash": "0x70fe502aa4a38847772b017d18ff7bac5d6adfe608df3a250a9b4be8579b1040",
      "transactionIndex": "0x18",
      "blockHash": "0x411cf7e5f4647494d3e9ef92d91c4ac87635c54f18c07f168108c471b16f1b05",
      "blockNumber": "0x23708ce",
      "gasUsed": "0x8855",
      "effectiveGasPrice": "0x4a817c84",
      "from": "0xb05a948b5c1b057b88d381bde3a375efea87ebad",
      "to": "0xa8935addabca48a9fc63a009f9313fc59417b20c",
      "contractAddress": null
    },
    {
      "status": "0x1",
      "cumulativeGasUsed": "0x328f21",
      "logs": [
        {
          "address": "0xb8ad4b6ba0fde413fdee6f84fc989858c2894092",
          "topics": [
            "0x8be0079c531659141344cd1fd0a4f28419497f9722a3daafe3b4186f6b6457e0",
            "0x000000000000000000000000b05a948b5c1b057b88d381bde3a375efea87ebad",
            "0x00000000000000000000000091ab7a20cc3aee799df908fa1b2571fe8e07394a"
          ],
          "data": "0x",
          "blockHash": "0x411cf7e5f4647494d3e9ef92d91c4ac87635c54f18c07f168108c471b16f1b05",
          "blockNumber": "0x23708ce",
          "transactionHash": "0xd677ddb9a651a1e4a167f36acc0b8d35ddd6e562ae67bcfd2b2d006a69a14bc0",
          "transactionIndex": "0x19",
          "logIndex": "0x36",
          "removed": false
        }
      ],
      "logsBloom": "0x00000008000000000000000000000000000000000000000800800000000000000000000000000000000000000000000000000000000000000000000000000000000000000000000000000000000000000001000000000000000000000400000000000000000000000000000000000000000000000000000000000000000000400002010000000000000000000000000000000000000000000000050000008000000000000000000000000000000000000000000000000000000000000000000000000000000000000000000000000000000000000000000000000000000080000000000000000000000000000000000000000000000000000000000000000000",
      "type": "0x2",
      "transactionHash": "0xd677ddb9a651a1e4a167f36acc0b8d35ddd6e562ae67bcfd2b2d006a69a14bc0",
      "transactionIndex": "0x19",
      "blockHash": "0x411cf7e5f4647494d3e9ef92d91c4ac87635c54f18c07f168108c471b16f1b05",
      "blockNumber": "0x23708ce",
      "gasUsed": "0x8855",
      "effectiveGasPrice": "0x4a817c84",
      "from": "0xb05a948b5c1b057b88d381bde3a375efea87ebad",
      "to": "0xb8ad4b6ba0fde413fdee6f84fc989858c2894092",
      "contractAddress": null
    },
    {
      "status": "0x1",
      "cumulativeGasUsed": "0x331776",
      "logs": [
        {
          "address": "0xda9bcf61d7cb66475c34784c328232d2e7e2f6cf",
          "topics": [
            "0x8be0079c531659141344cd1fd0a4f28419497f9722a3daafe3b4186f6b6457e0",
            "0x000000000000000000000000b05a948b5c1b057b88d381bde3a375efea87ebad",
            "0x00000000000000000000000091ab7a20cc3aee799df908fa1b2571fe8e07394a"
          ],
          "data": "0x",
          "blockHash": "0x411cf7e5f4647494d3e9ef92d91c4ac87635c54f18c07f168108c471b16f1b05",
          "blockNumber": "0x23708ce",
          "transactionHash": "0x5524eeb884e63208bb806d32078d183c2a990faae6439422d6bb129f966e6509",
          "transactionIndex": "0x1a",
          "logIndex": "0x37",
          "removed": false
        }
      ],
      "logsBloom": "0x00000000000000000000000000000000000000000000000800800000000000000000000000000000000000000000000000000000000000000000000000000000000000000000000000000000000000000001000000000000000000000400000000000000000000000000000000000000000000000000000000000000000000400002000000000000000000000000000000000000000000000000050000000000000000000000000000000000000000000000000000000000020000000000000000000000000000000000000000000000000000000000000000000000000080000000000000000000000000000000000004000000000000000000000000000004",
      "type": "0x2",
      "transactionHash": "0x5524eeb884e63208bb806d32078d183c2a990faae6439422d6bb129f966e6509",
      "transactionIndex": "0x1a",
      "blockHash": "0x411cf7e5f4647494d3e9ef92d91c4ac87635c54f18c07f168108c471b16f1b05",
      "blockNumber": "0x23708ce",
      "gasUsed": "0x8855",
      "effectiveGasPrice": "0x4a817c84",
      "from": "0xb05a948b5c1b057b88d381bde3a375efea87ebad",
      "to": "0xda9bcf61d7cb66475c34784c328232d2e7e2f6cf",
      "contractAddress": null
    },
    {
      "status": "0x1",
      "cumulativeGasUsed": "0x339fcb",
      "logs": [
        {
          "address": "0xe2396fe2169ca026962971d3b2e373ba925b6257",
          "topics": [
            "0x8be0079c531659141344cd1fd0a4f28419497f9722a3daafe3b4186f6b6457e0",
            "0x000000000000000000000000b05a948b5c1b057b88d381bde3a375efea87ebad",
            "0x00000000000000000000000091ab7a20cc3aee799df908fa1b2571fe8e07394a"
          ],
          "data": "0x",
          "blockHash": "0x411cf7e5f4647494d3e9ef92d91c4ac87635c54f18c07f168108c471b16f1b05",
          "blockNumber": "0x23708ce",
          "transactionHash": "0xf61a50fbec3a233b851e9cb550dd57395366cd8a210505f775a8f73298be1a6c",
          "transactionIndex": "0x1b",
          "logIndex": "0x38",
          "removed": false
        }
      ],
      "logsBloom": "0x00000000000000000000000000000000400000000000000800800000000000000000000020000000000000000000000000000000000000000000000000002000000000000000000000000000000000000001000000000000000000000400000000000000000000000000000000000000000000000000000000000000000000400002000000000000000000000000000000000000000000000000050000000000000000000000000000000000000000000000000000000000000000000000000000000000000000000000000000000000000000000000000000000000000080000000000000000000000000000000000000000000000000000000000000000000",
      "type": "0x2",
      "transactionHash": "0xf61a50fbec3a233b851e9cb550dd57395366cd8a210505f775a8f73298be1a6c",
      "transactionIndex": "0x1b",
      "blockHash": "0x411cf7e5f4647494d3e9ef92d91c4ac87635c54f18c07f168108c471b16f1b05",
      "blockNumber": "0x23708ce",
      "gasUsed": "0x8855",
      "effectiveGasPrice": "0x4a817c84",
      "from": "0xb05a948b5c1b057b88d381bde3a375efea87ebad",
      "to": "0xe2396fe2169ca026962971d3b2e373ba925b6257",
      "contractAddress": null
    },
    {
      "status": "0x1",
      "cumulativeGasUsed": "0x3428e5",
      "logs": [
        {
          "address": "0x1f6fd908db173f591aa6ea4a037d157ea4e31f68",
          "topics": [
            "0x8be0079c531659141344cd1fd0a4f28419497f9722a3daafe3b4186f6b6457e0",
            "0x000000000000000000000000b05a948b5c1b057b88d381bde3a375efea87ebad",
            "0x00000000000000000000000091ab7a20cc3aee799df908fa1b2571fe8e07394a"
          ],
          "data": "0x",
          "blockHash": "0x411cf7e5f4647494d3e9ef92d91c4ac87635c54f18c07f168108c471b16f1b05",
          "blockNumber": "0x23708ce",
          "transactionHash": "0xf2dc8006b8820f3970a085bf38fa7de8d9dcc05b038cdee4d00cfd8ce7dc1d32",
          "transactionIndex": "0x1c",
          "logIndex": "0x39",
          "removed": false
        }
      ],
      "logsBloom": "0x00000000000000000000000000000000000000000000000800800000000000000000000000000000000000000000000000000000000000000000000000000000000000000000000000000000000000000201000000000000000000000400000000000000000000000000000000000000000000000000000000000000000000400002000000000000000000002000000000000000000000000000050000000000000000000000000001000000000000000000000000000000000000000000000000000000000000000000000000000000000000000000000000000000000080000000000000000000000000000000000000000000000000000000000000000000",
      "type": "0x2",
      "transactionHash": "0xf2dc8006b8820f3970a085bf38fa7de8d9dcc05b038cdee4d00cfd8ce7dc1d32",
      "transactionIndex": "0x1c",
      "blockHash": "0x411cf7e5f4647494d3e9ef92d91c4ac87635c54f18c07f168108c471b16f1b05",
      "blockNumber": "0x23708ce",
      "gasUsed": "0x891a",
      "effectiveGasPrice": "0x4a817c84",
      "from": "0xb05a948b5c1b057b88d381bde3a375efea87ebad",
      "to": "0x1f6fd908db173f591aa6ea4a037d157ea4e31f68",
      "contractAddress": null
    },
    {
      "status": "0x1",
      "cumulativeGasUsed": "0x34b1ff",
      "logs": [
        {
          "address": "0xaa0195986ffe8f3371444fa77ee3ed04ac787eea",
          "topics": [
            "0x8be0079c531659141344cd1fd0a4f28419497f9722a3daafe3b4186f6b6457e0",
            "0x000000000000000000000000b05a948b5c1b057b88d381bde3a375efea87ebad",
            "0x00000000000000000000000091ab7a20cc3aee799df908fa1b2571fe8e07394a"
          ],
          "data": "0x",
          "blockHash": "0x411cf7e5f4647494d3e9ef92d91c4ac87635c54f18c07f168108c471b16f1b05",
          "blockNumber": "0x23708ce",
          "transactionHash": "0x44e6b2bdace0d3969934809fda5b62a247d96567735a902377b776d716c91b80",
          "transactionIndex": "0x1d",
          "logIndex": "0x3a",
          "removed": false
        }
      ],
      "logsBloom": "0x00000000000000000000000000000000000000000000000800800000000000000000000000000000000000000000000000000000000000000000000000000000000000000000000000000000000000100001000000000000000000000400000000008000000001000000000000000000000000000000000000000000000000400002000000000000000000000000000000000000000000000000050000000000000000000000000000000000000000000000000000000000000000000000000000000000000000000000000000000000000000000000000000000000000080000000000000000000000000000000000000000000000000000000000000000000",
      "type": "0x2",
      "transactionHash": "0x44e6b2bdace0d3969934809fda5b62a247d96567735a902377b776d716c91b80",
      "transactionIndex": "0x1d",
      "blockHash": "0x411cf7e5f4647494d3e9ef92d91c4ac87635c54f18c07f168108c471b16f1b05",
      "blockNumber": "0x23708ce",
      "gasUsed": "0x891a",
      "effectiveGasPrice": "0x4a817c84",
      "from": "0xb05a948b5c1b057b88d381bde3a375efea87ebad",
      "to": "0xaa0195986ffe8f3371444fa77ee3ed04ac787eea",
      "contractAddress": null
    },
    {
      "status": "0x1",
      "cumulativeGasUsed": "0x353b19",
      "logs": [
        {
          "address": "0xac948bca716b080df41afc70f37b7a9f6f3d9c9a",
          "topics": [
            "0x8be0079c531659141344cd1fd0a4f28419497f9722a3daafe3b4186f6b6457e0",
            "0x000000000000000000000000b05a948b5c1b057b88d381bde3a375efea87ebad",
            "0x00000000000000000000000091ab7a20cc3aee799df908fa1b2571fe8e07394a"
          ],
          "data": "0x",
          "blockHash": "0x411cf7e5f4647494d3e9ef92d91c4ac87635c54f18c07f168108c471b16f1b05",
          "blockNumber": "0x23708ce",
          "transactionHash": "0x7ac2b8b4dc16498f4402198706c166e170c9896687ab3e26c7e1d80d6668825d",
          "transactionIndex": "0x1e",
          "logIndex": "0x3b",
          "removed": false
        }
      ],
      "logsBloom": "0x00000000000000000000000000000000000000000000000800800000000000000000000000000000000000000000000000000000000000000000000000000000000000000000000000000000000000000001000000000000000000800400000000000000000000000000000000000000000000000000000040000000000000400002000000000000000000000000000000000000000000000000050000000000000000000000000000000000000000000000000000000000000000000000000000000000000000000000000000000000000000000000000000000000000080000000000000000000000000000000000002000000000000000000000000000000",
      "type": "0x2",
      "transactionHash": "0x7ac2b8b4dc16498f4402198706c166e170c9896687ab3e26c7e1d80d6668825d",
      "transactionIndex": "0x1e",
      "blockHash": "0x411cf7e5f4647494d3e9ef92d91c4ac87635c54f18c07f168108c471b16f1b05",
      "blockNumber": "0x23708ce",
      "gasUsed": "0x891a",
      "effectiveGasPrice": "0x4a817c84",
      "from": "0xb05a948b5c1b057b88d381bde3a375efea87ebad",
      "to": "0xac948bca716b080df41afc70f37b7a9f6f3d9c9a",
      "contractAddress": null
    },
    {
      "status": "0x1",
      "cumulativeGasUsed": "0x35c433",
      "logs": [
        {
          "address": "0xb1a275419c817273f470ee1a102cad7507a25b6f",
          "topics": [
            "0x8be0079c531659141344cd1fd0a4f28419497f9722a3daafe3b4186f6b6457e0",
            "0x000000000000000000000000b05a948b5c1b057b88d381bde3a375efea87ebad",
            "0x00000000000000000000000091ab7a20cc3aee799df908fa1b2571fe8e07394a"
          ],
          "data": "0x",
          "blockHash": "0x411cf7e5f4647494d3e9ef92d91c4ac87635c54f18c07f168108c471b16f1b05",
          "blockNumber": "0x23708ce",
          "transactionHash": "0x210ede672fe056c37504e6c079c2d16be9a4a5d276c2dfd781115f16498f2f26",
          "transactionIndex": "0x1f",
          "logIndex": "0x3c",
          "removed": false
        }
      ],
      "logsBloom": "0x00000000000000000000000000000000000000000000000800800000000000000000000000000000000000000000000000000000000000000000000000000000000000000000000000000000000000000001000000000000010000000400000000000000000000000000000000000000000000000000000000000000000000400002000000000000000000000400000000000000000000000000050000000000040000000000000000000000000000000000000000000000000000000000000000000000000000000000000000000000000000000000000000000000000080000000000000000000000000000000000000000000000000000000000000000000",
      "type": "0x2",
      "transactionHash": "0x210ede672fe056c37504e6c079c2d16be9a4a5d276c2dfd781115f16498f2f26",
      "transactionIndex": "0x1f",
      "blockHash": "0x411cf7e5f4647494d3e9ef92d91c4ac87635c54f18c07f168108c471b16f1b05",
      "blockNumber": "0x23708ce",
      "gasUsed": "0x891a",
      "effectiveGasPrice": "0x4a817c84",
      "from": "0xb05a948b5c1b057b88d381bde3a375efea87ebad",
      "to": "0xb1a275419c817273f470ee1a102cad7507a25b6f",
      "contractAddress": null
    },
    {
      "status": "0x1",
      "cumulativeGasUsed": "0x364d4d",
      "logs": [
        {
          "address": "0xbf1d2e31fa3d927673d2e95bfb2d940f5cc8890e",
          "topics": [
            "0x8be0079c531659141344cd1fd0a4f28419497f9722a3daafe3b4186f6b6457e0",
            "0x000000000000000000000000b05a948b5c1b057b88d381bde3a375efea87ebad",
            "0x00000000000000000000000091ab7a20cc3aee799df908fa1b2571fe8e07394a"
          ],
          "data": "0x",
          "blockHash": "0x411cf7e5f4647494d3e9ef92d91c4ac87635c54f18c07f168108c471b16f1b05",
          "blockNumber": "0x23708ce",
          "transactionHash": "0x3043a0ab84d0256ea8ed85b8d5dc3db7a0e0519347f9e5c2f5f2da2d4929fa02",
          "transactionIndex": "0x20",
          "logIndex": "0x3d",
          "removed": false
        }
      ],
      "logsBloom": "0x00000000000000000000000000000000000000000000000800800000000000000000000000000000000000000000000000000000000000000000000000000000000000000000000000000000000000000001000000000000000000000400000000000000000000000000000000000000000000000000080000000000000000600002000000000000000000000000000000000000000000000000050000000000000000000000000000000000000000000000000000000000000000000000000000000000000000000000000000000000000000000000000000000000000080000000000000000000000000000000000004000000000000000000000000000000",
      "type": "0x2",
      "transactionHash": "0x3043a0ab84d0256ea8ed85b8d5dc3db7a0e0519347f9e5c2f5f2da2d4929fa02",
      "transactionIndex": "0x20",
      "blockHash": "0x411cf7e5f4647494d3e9ef92d91c4ac87635c54f18c07f168108c471b16f1b05",
      "blockNumber": "0x23708ce",
      "gasUsed": "0x891a",
      "effectiveGasPrice": "0x4a817c84",
      "from": "0xb05a948b5c1b057b88d381bde3a375efea87ebad",
      "to": "0xbf1d2e31fa3d927673d2e95bfb2d940f5cc8890e",
      "contractAddress": null
    },
    {
      "status": "0x1",
      "cumulativeGasUsed": "0x36d667",
      "logs": [
        {
          "address": "0xd12f4faab3a770175f5d7e19bd32b1a7aadc0a31",
          "topics": [
            "0x8be0079c531659141344cd1fd0a4f28419497f9722a3daafe3b4186f6b6457e0",
            "0x000000000000000000000000b05a948b5c1b057b88d381bde3a375efea87ebad",
            "0x00000000000000000000000091ab7a20cc3aee799df908fa1b2571fe8e07394a"
          ],
          "data": "0x",
          "blockHash": "0x411cf7e5f4647494d3e9ef92d91c4ac87635c54f18c07f168108c471b16f1b05",
          "blockNumber": "0x23708ce",
          "transactionHash": "0x29b67401cb69428fe461adca274cc9cee6e191ec9e87fadea6b56e42276c0201",
          "transactionIndex": "0x21",
          "logIndex": "0x3e",
          "removed": false
        }
      ],
      "logsBloom": "0x00000000000000000000000000000020000000000000000800820000000000000000000000000000000000000000000000000000000000000000000000000000000000000000000000000000000000000001000000000000000000000400000000000000000000000000000000000000000000000000000000000000000000400002000000000000000000000000000000000000000000000000050000000000000000000000000000000000000000000000000000000000000000000000000000000000000000000000000000000000000002000000000000000000000080000000000000000000000000000000000000000000000000000000000000000000",
      "type": "0x2",
      "transactionHash": "0x29b67401cb69428fe461adca274cc9cee6e191ec9e87fadea6b56e42276c0201",
      "transactionIndex": "0x21",
      "blockHash": "0x411cf7e5f4647494d3e9ef92d91c4ac87635c54f18c07f168108c471b16f1b05",
      "blockNumber": "0x23708ce",
      "gasUsed": "0x891a",
      "effectiveGasPrice": "0x4a817c84",
      "from": "0xb05a948b5c1b057b88d381bde3a375efea87ebad",
      "to": "0xd12f4faab3a770175f5d7e19bd32b1a7aadc0a31",
      "contractAddress": null
    },
    {
      "status": "0x1",
      "cumulativeGasUsed": "0x375f81",
      "logs": [
        {
          "address": "0xe652081deb52afa56fb2958994427c662356007b",
          "topics": [
            "0x8be0079c531659141344cd1fd0a4f28419497f9722a3daafe3b4186f6b6457e0",
            "0x000000000000000000000000b05a948b5c1b057b88d381bde3a375efea87ebad",
            "0x00000000000000000000000091ab7a20cc3aee799df908fa1b2571fe8e07394a"
          ],
          "data": "0x",
          "blockHash": "0x411cf7e5f4647494d3e9ef92d91c4ac87635c54f18c07f168108c471b16f1b05",
          "blockNumber": "0x23708ce",
          "transactionHash": "0xe4231936f9782d7a069bb2277afcff7ae9c3facb1e1d79887eedd9e5935f58c9",
          "transactionIndex": "0x22",
          "logIndex": "0x3f",
          "removed": false
        }
      ],
      "logsBloom": "0x00000000000000000000000000000000000000000000000800800000000000000000000000000000000000000000000000000000000000000000000000000000100000000000000000000000000000000001000000000000000000000400000000000000000000000000000000000000000000000000000000000000000000400002000000000000000000000000000000000000000000000000050000000000000000000000000000200000000000000000000000000000000000000000000010000000000000000000000000000000000000000000000000000000000080000000000000000000000000000000000000000000000000000000000000000000",
      "type": "0x2",
      "transactionHash": "0xe4231936f9782d7a069bb2277afcff7ae9c3facb1e1d79887eedd9e5935f58c9",
      "transactionIndex": "0x22",
      "blockHash": "0x411cf7e5f4647494d3e9ef92d91c4ac87635c54f18c07f168108c471b16f1b05",
      "blockNumber": "0x23708ce",
      "gasUsed": "0x891a",
      "effectiveGasPrice": "0x4a817c84",
      "from": "0xb05a948b5c1b057b88d381bde3a375efea87ebad",
      "to": "0xe652081deb52afa56fb2958994427c662356007b",
      "contractAddress": null
    }
  ],
  "libraries": [],
  "pending": [],
  "returns": {},
  "timestamp": 1732323027,
  "chain": 100,
  "commit": "cfec7a91"
}