{
  "transactions": [
    {
      "hash": "0xdf6bf3bb60830dc4dc4bff8009df4a0fd751f048387f847140a2967a5274c6a0",
      "transactionType": "CREATE",
      "contractName": "CollateralVault",
      "contractAddress": "0xf1e498107e6d47c9f136f8ce6d8983574d0502a0",
      "function": null,
      "arguments": null,
      "transaction": {
        "from": "0xb05a948b5c1b057b88d381bde3a375efea87ebad",
        "gas": "0x290f15",
        "value": "0x0",
        "input": "0x6080806040523461001b57600160005561053c90816100218239f35b600080fdfe60806040908082526004918236101561001757600080fd5b600091823560e01c908163481fef8a1461031f575080638129fc1c146102db5780638630da1d146102955780638969ab53146101a25780638da5cb5b1461017a576399ea56b01461006757600080fd5b346101765760603660031901126101765782356100826103d4565b6002546001600160a01b03939192916044359185163303610167577fc512525fc7952c6edf42100f0853e94fb1c1f6daf93780cac22b690a36e03724949596506100ca6103ef565b8682948482526001602052828220978116978883526020528282205480839511610158575b508180808089610130958a61014e9a99985260016020528d88842090845260205287832061011e838254610445565b90555af161012a610468565b506104c8565b51938493849081526020810191909152901515604082015260600190565b0390a26001815580f35b955060019350889150816100ef565b5163ea8e4eb560e01b81528690fd5b5080fd5b503461017657816003193601126101765760025490516001600160a01b039091168152602090f35b5034610176576080366003190112610176578235926101bf6103d4565b604435946001600160a01b0380871694929390928588036102915760643591846002541633036102835750867f86b742620d95ff25811b118a7f2dbca2f5f4c869adf0b0d94660965f51c8d769959697986102186103ef565b839585835260016020528383209816978883526020528282205480839511610274575b508180808089610130958a61026a9a99985260016020528d88842090845260205287832061011e838254610445565b0390a36001815580f35b9550600193508991508161023b565b905163ea8e4eb560e01b8152fd5b8680fd5b5082346102d757816003193601126102d75760209282916102b46103d4565b90358252600185528282206001600160a01b039091168252845220549051908152f35b8280fd5b5082346102d757826003193601126102d757600254916001600160a01b0383166103135750506001600160a01b031916331760025580f35b5162dc149f60e41b8152fd5b918091506003193601126102d75783356103376103d4565b60025490936001600160a01b0391821633036103c657506103566103ef565b81855260016020528285209316928385526020528184208054903482018092116103b3577feec2f3feb835e2f2fd44281034b04700a1ddda63dd402949d470a25a7c40b36c94959650558151908152346020820152a26001815580f35b634e487b7160e01b865260118752602486fd5b63ea8e4eb560e01b81528690fd5b602435906001600160a01b03821682036103ea57565b600080fd5b600260005414610400576002600055565b60405162461bcd60e51b815260206004820152601f60248201527f5265656e7472616e637947756172643a207265656e7472616e742063616c6c006044820152606490fd5b9190820391821161045257565b634e487b7160e01b600052601160045260246000fd5b3d156104c3576001600160401b03903d8281116104ad5760405192601f8201601f19908116603f01168401908111848210176104ad5760405282523d6000602084013e565b634e487b7160e01b600052604160045260246000fd5b606090565b156104cf57565b60405162461bcd60e51b815260206004820152600f60248201526e151c985b9cd9995c8819985a5b1959608a1b6044820152606490fdfea2646970667358221220e1fd22beafc52b9f32fec6358911e88b54c9d8372f89236bd2ac8fa3fd7fadbd64736f6c63430008130033",
        "nonce": "0x57",
        "chainId": "0xa4b1"
      },
      "additionalContracts": [],
      "isFixedGasLimit": false
    },
    {
      "hash": "0x310c5ec0ba85ed80562c2c9c8859a8cd7e6e000c186071b619d538b37d52c45c",
      "transactionType": "CALL",
      "contractName": null,
      "contractAddress": "0xc1c2e092b7dbc8413e1ac02e92c161b0bda783f6",
      "function": "setCollateralVaultTemplate(address)",
      "arguments": [
        "0xf1E498107e6D47C9f136f8ce6D8983574D0502A0"
      ],
      "transaction": {
        "from": "0xb05a948b5c1b057b88d381bde3a375efea87ebad",
        "to": "0xc1c2e092b7dbc8413e1ac02e92c161b0bda783f6",
        "gas": "0x5de36",
        "value": "0x0",
        "input": "0xb0d3713a000000000000000000000000f1e498107e6d47c9f136f8ce6d8983574d0502a0",
        "nonce": "0x58",
        "chainId": "0xa4b1"
      },
      "additionalContracts": [],
      "isFixedGasLimit": false
    },
    {
      "hash": "0x7484d477110a2fc3853926d111608f1dd0377877927d81f0b0017d0372fbcffb",
      "transactionType": "CALL",
      "contractName": null,
      "contractAddress": "0x8281fd9c5f709a681813c49843a253a05d9b837c",
      "function": "setCollateralVaultTemplate(address)",
      "arguments": [
        "0xf1E498107e6D47C9f136f8ce6D8983574D0502A0"
      ],
      "transaction": {
        "from": "0xb05a948b5c1b057b88d381bde3a375efea87ebad",
        "to": "0x8281fd9c5f709a681813c49843a253a05d9b837c",
        "gas": "0x5ae2c",
        "value": "0x0",
        "input": "0xb0d3713a000000000000000000000000f1e498107e6d47c9f136f8ce6d8983574d0502a0",
        "nonce": "0x59",
        "chainId": "0xa4b1"
      },
      "additionalContracts": [],
      "isFixedGasLimit": false
    },
    {
      "hash": "0x356cafa9b46fd4aa41d0df0b9f523f3d8c19f0acb33efc930510850a5f3b76a8",
      "transactionType": "CALL",
      "contractName": null,
      "contractAddress": "0xf62a2e4ecf3bf73313b3bbbfb1563cb4433c8933",
      "function": "setCollateralVaultTemplate(address)",
      "arguments": [
        "0xf1E498107e6D47C9f136f8ce6D8983574D0502A0"
      ],
      "transaction": {
        "from": "0xb05a948b5c1b057b88d381bde3a375efea87ebad",
        "to": "0xf62a2e4ecf3bf73313b3bbbfb1563cb4433c8933",
        "gas": "0x5ae2c",
        "value": "0x0",
        "input": "0xb0d3713a000000000000000000000000f1e498107e6d47c9f136f8ce6d8983574d0502a0",
        "nonce": "0x5a",
        "chainId": "0xa4b1"
      },
      "additionalContracts": [],
      "isFixedGasLimit": false
    }
  ],
  "receipts": [
    {
      "status": "0x1",
      "cumulativeGasUsed": "0x2f85df",
      "logs": [],
      "logsBloom": "0x00000000000000000000000000000000000000000000000000000000000000000000000000000000000000000000000000000000000000000000000000000000000000000000000000000000000000000000000000000000000000000000000000000000000000000000000000000000000000000000000000000000000000000000000000000000000000000000000000000000000000000000000000000000000000000000000000000000000000000000000000000000000000000000000000000000000000000000000000000000000000000000000000000000000000000000000000000000000000000000000000000000000000000000000000000000",
      "type": "0x0",
      "transactionHash": "0xdf6bf3bb60830dc4dc4bff8009df4a0fd751f048387f847140a2967a5274c6a0",
      "transactionIndex": "0x2",
      "blockHash": "0x7c3188a11374f27aa828364b4f3cc108125f10f4d6b51c2798b8d3dc8cc4914e",
      "blockNumber": "0xf5ad7f0",
      "gasUsed": "0x1c8438",
      "effectiveGasPrice": "0x989680",
      "from": "0xb05a948b5c1b057b88d381bde3a375efea87ebad",
      "to": null,
      "contractAddress": "0xf1e498107e6d47c9f136f8ce6d8983574d0502a0",
      "gasUsedForL1": "0x16f1c3",
      "l1BlockNumber": "0x13def3b"
    },
    {
      "status": "0x1",
      "cumulativeGasUsed": "0x22f633",
      "logs": [],
      "logsBloom": "0x00000000000000000000000000000000000000000000000000000000000000000000000000000000000000000000000000000000000000000000000000000000000000000000000000000000000000000000000000000000000000000000000000000000000000000000000000000000000000000000000000000000000000000000000000000000000000000000000000000000000000000000000000000000000000000000000000000000000000000000000000000000000000000000000000000000000000000000000000000000000000000000000000000000000000000000000000000000000000000000000000000000000000000000000000000000",
      "type": "0x0",
      "transactionHash": "0x310c5ec0ba85ed80562c2c9c8859a8cd7e6e000c186071b619d538b37d52c45c",
      "transactionIndex": "0x6",
      "blockHash": "0x1b9df9d0d4f65fde89a9c679abf58244c1f6773331beb7dd28cb383d23bd070b",
      "blockNumber": "0xf5ad7fc",
      "gasUsed": "0x36ebc",
      "effectiveGasPrice": "0x989680",
      "from": "0xb05a948b5c1b057b88d381bde3a375efea87ebad",
      "to": "0xc1c2e092b7dbc8413e1ac02e92c161b0bda783f6",
      "contractAddress": null,
      "gasUsedForL1": "0x2c170",
      "l1BlockNumber": "0x13def3b"
    },
    {
      "status": "0x1",
      "cumulativeGasUsed": "0x83165",
      "logs": [],
      "logsBloom": "0x00000000000000000000000000000000000000000000000000000000000000000000000000000000000000000000000000000000000000000000000000000000000000000000000000000000000000000000000000000000000000000000000000000000000000000000000000000000000000000000000000000000000000000000000000000000000000000000000000000000000000000000000000000000000000000000000000000000000000000000000000000000000000000000000000000000000000000000000000000000000000000000000000000000000000000000000000000000000000000000000000000000000000000000000000000000",
      "type": "0x0",
      "transactionHash": "0x7484d477110a2fc3853926d111608f1dd0377877927d81f0b0017d0372fbcffb",
      "transactionIndex": "0x2",
      "blockHash": "0x624654241ae530cb3c3c4ba32b8d9fbe31b0dfdf4042b43f53aa487217b19336",
      "blockNumber": "0xf5ad80d",
      "gasUsed": "0x34a12",
      "effectiveGasPrice": "0x989680",
      "from": "0xb05a948b5c1b057b88d381bde3a375efea87ebad",
      "to": "0x8281fd9c5f709a681813c49843a253a05d9b837c",
      "contractAddress": null,
      "gasUsedForL1": "0x2c170",
      "l1BlockNumber": "0x13def3b"
    },
    {
      "status": "0x1",
      "cumulativeGasUsed": "0x34a12",
      "logs": [],
      "logsBloom": "0x00000000000000000000000000000000000000000000000000000000000000000000000000000000000000000000000000000000000000000000000000000000000000000000000000000000000000000000000000000000000000000000000000000000000000000000000000000000000000000000000000000000000000000000000000000000000000000000000000000000000000000000000000000000000000000000000000000000000000000000000000000000000000000000000000000000000000000000000000000000000000000000000000000000000000000000000000000000000000000000000000000000000000000000000000000000",
      "type": "0x0",
      "transactionHash": "0x356cafa9b46fd4aa41d0df0b9f523f3d8c19f0acb33efc930510850a5f3b76a8",
      "transactionIndex": "0x1",
      "blockHash": "0x84e7a5d3fe0832d7f3cab5871471e7a9772e890f37bbbf97f83e53e27431d819",
      "blockNumber": "0xf5ad81c",
      "gasUsed": "0x34a12",
      "effectiveGasPrice": "0x989680",
      "from": "0xb05a948b5c1b057b88d381bde3a375efea87ebad",
      "to": "0xf62a2e4ecf3bf73313b3bbbfb1563cb4433c8933",
      "contractAddress": null,
      "gasUsedForL1": "0x2c170",
      "l1BlockNumber": "0x13def3b"
    }
  ],
  "libraries": [],
  "pending": [],
  "returns": {},
  "timestamp": 1727370307,
  "chain": 42161,
  "commit": "072b1a30"
}