{
  "transactions": [
    {
      "hash": "0xf2e872fb20eba2e160bd3c24b2f28a307261d2ff7fc71bf5741ca3fb47e7c20e",
      "transactionType": "CALL",
      "contractName": null,
      "contractAddress": "0xa16b7532cce9fee3eff390682055b48c7a485af7",
      "function": "diamondCut((address,uint8,bytes4[])[],address,bytes)",
      "arguments": [
        "[(0x94491f1108c84a38cf6f060e90b01B5D0ea30e89, 3, [0x7d7c2a1c, 0x53a3d62e, 0x736dcb8b, 0xe0ab98b5, 0x7d40af98])]",
        "0xD6E4b0e094C5aE63cDd3f6e622ed22030A3a908B",
        "0xe1c7392a"
      ],
      "transaction": {
        "from": "0x04e1ec75c9fada2ff30e309e11cb5d2437dc3d4a",
        "to": "0xa16b7532cce9fee3eff390682055b48c7a485af7",
        "gas": "0x22a8e",
        "value": "0x0",
        "input": "0x1f931c1c0000000000000000000000000000000000000000000000000000000000000060000000000000000000000000d6e4b0e094c5ae63cdd3f6e622ed22030a3a908b00000000000000000000000000000000000000000000000000000000000001c00000000000000000000000000000000000000000000000000000000000000001000000000000000000000000000000000000000000000000000000000000002000000000000000000000000094491f1108c84a38cf6f060e90b01b5d0ea30e890000000000000000000000000000000000000000000000000000000000000003000000000000000000000000000000000000000000000000000000000000006000000000000000000000000000000000000000000000000000000000000000057d7c2a1c0000000000000000000000000000000000000000000000000000000053a3d62e00000000000000000000000000000000000000000000000000000000736dcb8b00000000000000000000000000000000000000000000000000000000e0ab98b5000000000000000000000000000000000000000000000000000000007d40af98000000000000000000000000000000000000000000000000000000000000000000000000000000000000000000000000000000000000000000000004e1c7392a00000000000000000000000000000000000000000000000000000000",
        "nonce": "0x34",
        "chainId": "0xa4ec"
      },
      "additionalContracts": [],
      "isFixedGasLimit": false
    },
    {
      "hash": "0xac360044aaba647b9a503fdc544cda76370b111f33b5d69518877d4da7440530",
      "transactionType": "CALL",
      "contractName": "ERC1967Proxy",
      "contractAddress": "0xa25c5756ee48211185bcffa9e12d219be151d29d",
      "function": null,
      "arguments": null,
      "transaction": {
        "from": "0x04e1ec75c9fada2ff30e309e11cb5d2437dc3d4a",
        "to": "0xa25c5756ee48211185bcffa9e12d219be151d29d",
        "gas": "0x24b57",
        "value": "0x0",
        "input": "0x1f931c1c0000000000000000000000000000000000000000000000000000000000000060000000000000000000000000d6e4b0e094c5ae63cdd3f6e622ed22030a3a908b00000000000000000000000000000000000000000000000000000000000001c00000000000000000000000000000000000000000000000000000000000000001000000000000000000000000000000000000000000000000000000000000002000000000000000000000000094491f1108c84a38cf6f060e90b01b5d0ea30e890000000000000000000000000000000000000000000000000000000000000003000000000000000000000000000000000000000000000000000000000000006000000000000000000000000000000000000000000000000000000000000000057d7c2a1c0000000000000000000000000000000000000000000000000000000053a3d62e00000000000000000000000000000000000000000000000000000000736dcb8b00000000000000000000000000000000000000000000000000000000e0ab98b5000000000000000000000000000000000000000000000000000000007d40af98000000000000000000000000000000000000000000000000000000000000000000000000000000000000000000000000000000000000000000000004e1c7392a00000000000000000000000000000000000000000000000000000000",
        "nonce": "0x35",
        "chainId": "0xa4ec"
      },
      "additionalContracts": [],
      "isFixedGasLimit": false
    },
    {
      "hash": "0x704debc7ba36583b978d763d690eeedf947b1ac9c37874092bb2596a37df01bd",
      "transactionType": "CALL",
      "contractName": "ERC1967Proxy",
      "contractAddress": "0xa3162a0ec1dd06f7f7c1b54748836757ca64ea7b",
      "function": null,
      "arguments": null,
      "transaction": {
        "from": "0x04e1ec75c9fada2ff30e309e11cb5d2437dc3d4a",
        "to": "0xa3162a0ec1dd06f7f7c1b54748836757ca64ea7b",
        "gas": "0x24b57",
        "value": "0x0",
        "input": "0x1f931c1c0000000000000000000000000000000000000000000000000000000000000060000000000000000000000000d6e4b0e094c5ae63cdd3f6e622ed22030a3a908b00000000000000000000000000000000000000000000000000000000000001c00000000000000000000000000000000000000000000000000000000000000001000000000000000000000000000000000000000000000000000000000000002000000000000000000000000094491f1108c84a38cf6f060e90b01b5d0ea30e890000000000000000000000000000000000000000000000000000000000000003000000000000000000000000000000000000000000000000000000000000006000000000000000000000000000000000000000000000000000000000000000057d7c2a1c0000000000000000000000000000000000000000000000000000000053a3d62e00000000000000000000000000000000000000000000000000000000736dcb8b00000000000000000000000000000000000000000000000000000000e0ab98b5000000000000000000000000000000000000000000000000000000007d40af98000000000000000000000000000000000000000000000000000000000000000000000000000000000000000000000000000000000000000000000004e1c7392a00000000000000000000000000000000000000000000000000000000",
        "nonce": "0x36",
        "chainId": "0xa4ec"
      },
      "additionalContracts": [],
      "isFixedGasLimit": false
    },
    {
      "hash": "0x6b0890b42b01930eb734298c8c5ac3cf6cc2093115ccf81f700ff3359dab2d84",
      "transactionType": "CALL",
      "contractName": "ERC1967Proxy",
      "contractAddress": "0xa6a408914dc6e1ac9a8db8ce472923374b1b6beb",
      "function": null,
      "arguments": null,
      "transaction": {
        "from": "0x04e1ec75c9fada2ff30e309e11cb5d2437dc3d4a",
        "to": "0xa6a408914dc6e1ac9a8db8ce472923374b1b6beb",
        "gas": "0x22a8e",
        "value": "0x0",
        "input": "0x1f931c1c0000000000000000000000000000000000000000000000000000000000000060000000000000000000000000d6e4b0e094c5ae63cdd3f6e622ed22030a3a908b00000000000000000000000000000000000000000000000000000000000001c00000000000000000000000000000000000000000000000000000000000000001000000000000000000000000000000000000000000000000000000000000002000000000000000000000000094491f1108c84a38cf6f060e90b01b5d0ea30e890000000000000000000000000000000000000000000000000000000000000003000000000000000000000000000000000000000000000000000000000000006000000000000000000000000000000000000000000000000000000000000000057d7c2a1c0000000000000000000000000000000000000000000000000000000053a3d62e00000000000000000000000000000000000000000000000000000000736dcb8b00000000000000000000000000000000000000000000000000000000e0ab98b5000000000000000000000000000000000000000000000000000000007d40af98000000000000000000000000000000000000000000000000000000000000000000000000000000000000000000000000000000000000000000000004e1c7392a00000000000000000000000000000000000000000000000000000000",
        "nonce": "0x37",
        "chainId": "0xa4ec"
      },
      "additionalContracts": [],
      "isFixedGasLimit": false
    },
    {
      "hash": "0xafb3736ff762bd500f860d1abd13505c0964a151eb422f0c1367f8e4721b205d",
      "transactionType": "CALL",
      "contractName": null,
      "contractAddress": "0xa8558a901d12a72492d8716b6e02c7c6ef324f5e",
      "function": "diamondCut((address,uint8,bytes4[])[],address,bytes)",
      "arguments": [
        "[(0x94491f1108c84a38cf6f060e90b01B5D0ea30e89, 3, [0x7d7c2a1c, 0x53a3d62e, 0x736dcb8b, 0xe0ab98b5, 0x7d40af98])]",
        "0xD6E4b0e094C5aE63cDd3f6e622ed22030A3a908B",
        "0xe1c7392a"
      ],
      "transaction": {
        "from": "0x04e1ec75c9fada2ff30e309e11cb5d2437dc3d4a",
        "to": "0xa8558a901d12a72492d8716b6e02c7c6ef324f5e",
        "gas": "0x22a8e",
        "value": "0x0",
        "input": "0x1f931c1c0000000000000000000000000000000000000000000000000000000000000060000000000000000000000000d6e4b0e094c5ae63cdd3f6e622ed22030a3a908b00000000000000000000000000000000000000000000000000000000000001c00000000000000000000000000000000000000000000000000000000000000001000000000000000000000000000000000000000000000000000000000000002000000000000000000000000094491f1108c84a38cf6f060e90b01b5d0ea30e890000000000000000000000000000000000000000000000000000000000000003000000000000000000000000000000000000000000000000000000000000006000000000000000000000000000000000000000000000000000000000000000057d7c2a1c0000000000000000000000000000000000000000000000000000000053a3d62e00000000000000000000000000000000000000000000000000000000736dcb8b00000000000000000000000000000000000000000000000000000000e0ab98b5000000000000000000000000000000000000000000000000000000007d40af98000000000000000000000000000000000000000000000000000000000000000000000000000000000000000000000000000000000000000000000004e1c7392a00000000000000000000000000000000000000000000000000000000",
        "nonce": "0x38",
        "chainId": "0xa4ec"
      },
      "additionalContracts": [],
      "isFixedGasLimit": false
    },
    {
      "hash": "0x4b899f32dc3c27568aefc10fce4ec3a5cc99758c310a4943c332f585d01c2c1b",
      "transactionType": "CALL",
      "contractName": "ERC1967Proxy",
      "contractAddress": "0xab40bcfcfe2d742a7e4eeb9c6d0a66bf322177de",
      "function": null,
      "arguments": null,
      "transaction": {
        "from": "0x04e1ec75c9fada2ff30e309e11cb5d2437dc3d4a",
        "to": "0xab40bcfcfe2d742a7e4eeb9c6d0a66bf322177de",
        "gas": "0x22a8e",
        "value": "0x0",
        "input": "0x1f931c1c0000000000000000000000000000000000000000000000000000000000000060000000000000000000000000d6e4b0e094c5ae63cdd3f6e622ed22030a3a908b00000000000000000000000000000000000000000000000000000000000001c00000000000000000000000000000000000000000000000000000000000000001000000000000000000000000000000000000000000000000000000000000002000000000000000000000000094491f1108c84a38cf6f060e90b01b5d0ea30e890000000000000000000000000000000000000000000000000000000000000003000000000000000000000000000000000000000000000000000000000000006000000000000000000000000000000000000000000000000000000000000000057d7c2a1c0000000000000000000000000000000000000000000000000000000053a3d62e00000000000000000000000000000000000000000000000000000000736dcb8b00000000000000000000000000000000000000000000000000000000e0ab98b5000000000000000000000000000000000000000000000000000000007d40af98000000000000000000000000000000000000000000000000000000000000000000000000000000000000000000000000000000000000000000000004e1c7392a00000000000000000000000000000000000000000000000000000000",
        "nonce": "0x39",
        "chainId": "0xa4ec"
      },
      "additionalContracts": [],
      "isFixedGasLimit": false
    },
    {
      "hash": "0x13fdbd2423cd834fca978b1036f2a1ce20973c2ebdd26db8d2221554c7aa2dda",
      "transactionType": "CALL",
      "contractName": null,
      "contractAddress": "0xabbdc98302a55dfad457843b2c0f2e9306854267",
      "function": "diamondCut((address,uint8,bytes4[])[],address,bytes)",
      "arguments": [
        "[(0x94491f1108c84a38cf6f060e90b01B5D0ea30e89, 3, [0x7d7c2a1c, 0x53a3d62e, 0x736dcb8b, 0xe0ab98b5, 0x7d40af98])]",
        "0xD6E4b0e094C5aE63cDd3f6e622ed22030A3a908B",
        "0xe1c7392a"
      ],
      "transaction": {
        "from": "0x04e1ec75c9fada2ff30e309e11cb5d2437dc3d4a",
        "to": "0xabbdc98302a55dfad457843b2c0f2e9306854267",
        "gas": "0x22a8e",
        "value": "0x0",
        "input": "0x1f931c1c0000000000000000000000000000000000000000000000000000000000000060000000000000000000000000d6e4b0e094c5ae63cdd3f6e622ed22030a3a908b00000000000000000000000000000000000000000000000000000000000001c00000000000000000000000000000000000000000000000000000000000000001000000000000000000000000000000000000000000000000000000000000002000000000000000000000000094491f1108c84a38cf6f060e90b01b5d0ea30e890000000000000000000000000000000000000000000000000000000000000003000000000000000000000000000000000000000000000000000000000000006000000000000000000000000000000000000000000000000000000000000000057d7c2a1c0000000000000000000000000000000000000000000000000000000053a3d62e00000000000000000000000000000000000000000000000000000000736dcb8b00000000000000000000000000000000000000000000000000000000e0ab98b5000000000000000000000000000000000000000000000000000000007d40af98000000000000000000000000000000000000000000000000000000000000000000000000000000000000000000000000000000000000000000000004e1c7392a00000000000000000000000000000000000000000000000000000000",
        "nonce": "0x3a",
        "chainId": "0xa4ec"
      },
      "additionalContracts": [],
      "isFixedGasLimit": false
    },
    {
      "hash": "0xfcb3583ec223246f9dac3a0195bfd760f7cedfd650260420ccf1a530a91ae066",
      "transactionType": "CALL",
      "contractName": "ERC1967Proxy",
      "contractAddress": "0xb90cabb1863ed341babe31a2d0126a5985e4c770",
      "function": null,
      "arguments": null,
      "transaction": {
        "from": "0x04e1ec75c9fada2ff30e309e11cb5d2437dc3d4a",
        "to": "0xb90cabb1863ed341babe31a2d0126a5985e4c770",
        "gas": "0x22a8e",
        "value": "0x0",
        "input": "0x1f931c1c0000000000000000000000000000000000000000000000000000000000000060000000000000000000000000d6e4b0e094c5ae63cdd3f6e622ed22030a3a908b00000000000000000000000000000000000000000000000000000000000001c00000000000000000000000000000000000000000000000000000000000000001000000000000000000000000000000000000000000000000000000000000002000000000000000000000000094491f1108c84a38cf6f060e90b01b5d0ea30e890000000000000000000000000000000000000000000000000000000000000003000000000000000000000000000000000000000000000000000000000000006000000000000000000000000000000000000000000000000000000000000000057d7c2a1c0000000000000000000000000000000000000000000000000000000053a3d62e00000000000000000000000000000000000000000000000000000000736dcb8b00000000000000000000000000000000000000000000000000000000e0ab98b5000000000000000000000000000000000000000000000000000000007d40af98000000000000000000000000000000000000000000000000000000000000000000000000000000000000000000000000000000000000000000000004e1c7392a00000000000000000000000000000000000000000000000000000000",
        "nonce": "0x3b",
        "chainId": "0xa4ec"
      },
      "additionalContracts": [],
      "isFixedGasLimit": false
    },
    {
      "hash": "0x5b9fb0d31cf43e49f2d2d500e4a25b1dbfb79b6f7fec8fbdcbd3bd1661e582bd",
      "transactionType": "CALL",
      "contractName": null,
      "contractAddress": "0xbbe2a2a0e48bace7271325f5501c01fdda7f3d54",
      "function": "diamondCut((address,uint8,bytes4[])[],address,bytes)",
      "arguments": [
        "[(0x94491f1108c84a38cf6f060e90b01B5D0ea30e89, 3, [0x7d7c2a1c, 0x53a3d62e, 0x736dcb8b, 0xe0ab98b5, 0x7d40af98])]",
        "0xD6E4b0e094C5aE63cDd3f6e622ed22030A3a908B",
        "0xe1c7392a"
      ],
      "transaction": {
        "from": "0x04e1ec75c9fada2ff30e309e11cb5d2437dc3d4a",
        "to": "0xbbe2a2a0e48bace7271325f5501c01fdda7f3d54",
        "gas": "0x22a8e",
        "value": "0x0",
        "input": "0x1f931c1c0000000000000000000000000000000000000000000000000000000000000060000000000000000000000000d6e4b0e094c5ae63cdd3f6e622ed22030a3a908b00000000000000000000000000000000000000000000000000000000000001c00000000000000000000000000000000000000000000000000000000000000001000000000000000000000000000000000000000000000000000000000000002000000000000000000000000094491f1108c84a38cf6f060e90b01b5d0ea30e890000000000000000000000000000000000000000000000000000000000000003000000000000000000000000000000000000000000000000000000000000006000000000000000000000000000000000000000000000000000000000000000057d7c2a1c0000000000000000000000000000000000000000000000000000000053a3d62e00000000000000000000000000000000000000000000000000000000736dcb8b00000000000000000000000000000000000000000000000000000000e0ab98b5000000000000000000000000000000000000000000000000000000007d40af98000000000000000000000000000000000000000000000000000000000000000000000000000000000000000000000000000000000000000000000004e1c7392a00000000000000000000000000000000000000000000000000000000",
        "nonce": "0x3c",
        "chainId": "0xa4ec"
      },
      "additionalContracts": [],
      "isFixedGasLimit": false
    },
    {
      "hash": "0x16453683e4cbde345fd3e4a9f4811c97dbb5b1aa0d6320f80e73fe60bc652067",
      "transactionType": "CALL",
      "contractName": "ERC1967Proxy",
      "contractAddress": "0xbcea5d6c19303e4f3eba367ca87aa4d0df063544",
      "function": null,
      "arguments": null,
      "transaction": {
        "from": "0x04e1ec75c9fada2ff30e309e11cb5d2437dc3d4a",
        "to": "0xbcea5d6c19303e4f3eba367ca87aa4d0df063544",
        "gas": "0x22a8e",
        "value": "0x0",
        "input": "0x1f931c1c0000000000000000000000000000000000000000000000000000000000000060000000000000000000000000d6e4b0e094c5ae63cdd3f6e622ed22030a3a908b00000000000000000000000000000000000000000000000000000000000001c00000000000000000000000000000000000000000000000000000000000000001000000000000000000000000000000000000000000000000000000000000002000000000000000000000000094491f1108c84a38cf6f060e90b01b5d0ea30e890000000000000000000000000000000000000000000000000000000000000003000000000000000000000000000000000000000000000000000000000000006000000000000000000000000000000000000000000000000000000000000000057d7c2a1c0000000000000000000000000000000000000000000000000000000053a3d62e00000000000000000000000000000000000000000000000000000000736dcb8b00000000000000000000000000000000000000000000000000000000e0ab98b5000000000000000000000000000000000000000000000000000000007d40af98000000000000000000000000000000000000000000000000000000000000000000000000000000000000000000000000000000000000000000000004e1c7392a00000000000000000000000000000000000000000000000000000000",
        "nonce": "0x3d",
        "chainId": "0xa4ec"
      },
      "additionalContracts": [],
      "isFixedGasLimit": false
    }
  ],
  "receipts": [
    {
      "status": "0x1",
      "cumulativeGasUsed": "0x14a28a",
      "logs": [
        {
          "address": "0xa16b7532cce9fee3eff390682055b48c7a485af7",
          "topics": [
            "0x8faa70878671ccd212d20771b795c50af8fd3ff6cf27f4bde57e5d4de0aeb673"
          ],
          "data": "0x0000000000000000000000000000000000000000000000000000000000000060000000000000000000000000d6e4b0e094c5ae63cdd3f6e622ed22030a3a908b00000000000000000000000000000000000000000000000000000000000001c00000000000000000000000000000000000000000000000000000000000000001000000000000000000000000000000000000000000000000000000000000002000000000000000000000000094491f1108c84a38cf6f060e90b01b5d0ea30e890000000000000000000000000000000000000000000000000000000000000003000000000000000000000000000000000000000000000000000000000000006000000000000000000000000000000000000000000000000000000000000000057d7c2a1c0000000000000000000000000000000000000000000000000000000053a3d62e00000000000000000000000000000000000000000000000000000000736dcb8b00000000000000000000000000000000000000000000000000000000e0ab98b5000000000000000000000000000000000000000000000000000000007d40af98000000000000000000000000000000000000000000000000000000000000000000000000000000000000000000000000000000000000000000000004e1c7392a00000000000000000000000000000000000000000000000000000000",
          "blockHash": "0x72974b3dfee97d945cbcda308b5b11f43f3542f893ef17d3dc3a37e3b7d5dae7",
          "blockNumber": "0x3c04ac3",
          "blockTimestamp": "0x69c9d319",
          "transactionHash": "0xafb3736ff762bd500f860d1abd13505c0964a151eb422f0c1367f8e4721b205d",
          "transactionIndex": "0xd",
          "logIndex": "0x27",
          "removed": false
        }
      ],
      "logsBloom": "0x00000000000000000000000000000000000000000000000000000000000000000000000000000000000000000000000000000000000000000000000000000000000000000000000000000000000000000000000001000000000800000000000000000000000000000000000000000000000000000000000000000000000000000020000000000000000000000000000000000000000000000000000000000000000000000040000000000000000000000000400000000000000000000000000000000000000000000000000000000000000000000000000000000000000000000000000000000000000000000000000000000000000000000000010000000000",
      "type": "0x0",
      "transactionHash": "0xafb3736ff762bd500f860d1abd13505c0964a151eb422f0c1367f8e4721b205d",
      "transactionIndex": "0xd",
      "blockHash": "0x72974b3dfee97d945cbcda308b5b11f43f3542f893ef17d3dc3a37e3b7d5dae7",
      "blockNumber": "0x3c04ac3",
      "gasUsed": "0x1917e",
      "effectiveGasPrice": "0x5d22cfc40",
      "from": "0x04e1ec75c9fada2ff30e309e11cb5d2437dc3d4a",
      "to": "0xa16b7532cce9fee3eff390682055b48c7a485af7",
      "contractAddress": null,
      "l1BaseFeeScalar": "0x0",
      "l1BlobBaseFee": "0x1da87e1d74d7d0",
      "l1BlobBaseFeeScalar": "0x0",
      "l1Fee": "0x0",
      "l1GasPrice": "0x7187236",
      "l1GasUsed": "0xba9"
    },
    {
      "status": "0x1",
      "cumulativeGasUsed": "0xcef9e",
      "logs": [
        {
          "address": "0xa25c5756ee48211185bcffa9e12d219be151d29d",
          "topics": [
            "0x8faa70878671ccd212d20771b795c50af8fd3ff6cf27f4bde57e5d4de0aeb673"
          ],
          "data": "0x0000000000000000000000000000000000000000000000000000000000000060000000000000000000000000d6e4b0e094c5ae63cdd3f6e622ed22030a3a908b00000000000000000000000000000000000000000000000000000000000001c00000000000000000000000000000000000000000000000000000000000000001000000000000000000000000000000000000000000000000000000000000002000000000000000000000000094491f1108c84a38cf6f060e90b01b5d0ea30e890000000000000000000000000000000000000000000000000000000000000003000000000000000000000000000000000000000000000000000000000000006000000000000000000000000000000000000000000000000000000000000000057d7c2a1c0000000000000000000000000000000000000000000000000000000053a3d62e00000000000000000000000000000000000000000000000000000000736dcb8b00000000000000000000000000000000000000000000000000000000e0ab98b5000000000000000000000000000000000000000000000000000000007d40af98000000000000000000000000000000000000000000000000000000000000000000000000000000000000000000000000000000000000000000000004e1c7392a00000000000000000000000000000000000000000000000000000000",
          "blockHash": "0xd16ae7233cc171fa6420ec3702bf101d7ff8cc848bd7ca714661709bc69cddf9",
          "blockNumber": "0x3c04ac4",
          "blockTimestamp": "0x69c9d31a",
          "transactionHash": "0xfcb3583ec223246f9dac3a0195bfd760f7cedfd650260420ccf1a530a91ae066",
          "transactionIndex": "0x9",
          "logIndex": "0x12",
          "removed": false
        }
      ],
      "logsBloom": "0x00000000000000000000004000000000000000000000000000000000000000000000000000000000000000000000000000000000000000000000000000000000000000000000000000000000000000000000000001000000000800080000000000000000000000000000000000000000000000000000000000000000000000000020000000400000000000000000000000000000000000000000000000000000000000000000000000000000000000000000000000000000000000000000000000000000000000000000000000000000000000000000000000000000000000000000000000000000000000000000000000000000000000000000000000000000",
      "type": "0x0",
      "transactionHash": "0xfcb3583ec223246f9dac3a0195bfd760f7cedfd650260420ccf1a530a91ae066",
      "transactionIndex": "0x9",
      "blockHash": "0xd16ae7233cc171fa6420ec3702bf101d7ff8cc848bd7ca714661709bc69cddf9",
      "blockNumber": "0x3c04ac4",
      "gasUsed": "0x1919a",
      "effectiveGasPrice": "0x5d22cfc40",
      "from": "0x04e1ec75c9fada2ff30e309e11cb5d2437dc3d4a",
      "to": "0xa25c5756ee48211185bcffa9e12d219be151d29d",
      "contractAddress": null,
      "l1BaseFeeScalar": "0x0",
      "l1BlobBaseFee": "0x1da87e1d74d7d0",
      "l1BlobBaseFeeScalar": "0x0",
      "l1Fee": "0x0",
      "l1GasPrice": "0x7187236",
      "l1GasUsed": "0xba9"
    },
    {
      "status": "0x1",
      "cumulativeGasUsed": "0xe8138",
      "logs": [
        {
          "address": "0xa3162a0ec1dd06f7f7c1b54748836757ca64ea7b",
          "topics": [
            "0x8faa70878671ccd212d20771b795c50af8fd3ff6cf27f4bde57e5d4de0aeb673"
          ],
          "data": "0x0000000000000000000000000000000000000000000000000000000000000060000000000000000000000000d6e4b0e094c5ae63cdd3f6e622ed22030a3a908b00000000000000000000000000000000000000000000000000000000000001c00000000000000000000000000000000000000000000000000000000000000001000000000000000000000000000000000000000000000000000000000000002000000000000000000000000094491f1108c84a38cf6f060e90b01b5d0ea30e890000000000000000000000000000000000000000000000000000000000000003000000000000000000000000000000000000000000000000000000000000006000000000000000000000000000000000000000000000000000000000000000057d7c2a1c0000000000000000000000000000000000000000000000000000000053a3d62e00000000000000000000000000000000000000000000000000000000736dcb8b00000000000000000000000000000000000000000000000000000000e0ab98b5000000000000000000000000000000000000000000000000000000007d40af98000000000000000000000000000000000000000000000000000000000000000000000000000000000000000000000000000000000000000000000004e1c7392a00000000000000000000000000000000000000000000000000000000",
          "blockHash": "0xd16ae7233cc171fa6420ec3702bf101d7ff8cc848bd7ca714661709bc69cddf9",
          "blockNumber": "0x3c04ac4",
          "blockTimestamp": "0x69c9d31a",
          "transactionHash": "0x704debc7ba36583b978d763d690eeedf947b1ac9c37874092bb2596a37df01bd",
          "transactionIndex": "0xa",
          "logIndex": "0x13",
          "removed": false
        }
      ],
      "logsBloom": "0x00000000000000000000000000000000000000000000000000000000000000000000000000000000000000000000000000000000000000000000000000000000000000000000000000000000000000000000000001000000000800000000040000000000000000000000000000000000000000000000000000000000000000000020000000000000000000000000000000000000000001000000000000000000000000000000000000000000000000000000000000000000000000000000000000000000000000000000000000000000000000000000000000000000000000000000000000000000000000000000000000000000000000004000000000000000",
      "type": "0x0",
      "transactionHash": "0x704debc7ba36583b978d763d690eeedf947b1ac9c37874092bb2596a37df01bd",
      "transactionIndex": "0xa",
      "blockHash": "0xd16ae7233cc171fa6420ec3702bf101d7ff8cc848bd7ca714661709bc69cddf9",
      "blockNumber": "0x3c04ac4",
      "gasUsed": "0x1919a",
      "effectiveGasPrice": "0x5d22cfc40",
      "from": "0x04e1ec75c9fada2ff30e309e11cb5d2437dc3d4a",
      "to": "0xa3162a0ec1dd06f7f7c1b54748836757ca64ea7b",
      "contractAddress": null,
      "l1BaseFeeScalar": "0x0",
      "l1BlobBaseFee": "0x1da87e1d74d7d0",
      "l1BlobBaseFeeScalar": "0x0",
      "l1Fee": "0x0",
      "l1GasPrice": "0x7187236",
      "l1GasUsed": "0xba9"
    },
    {
      "status": "0x1",
      "cumulativeGasUsed": "0x114968",
      "logs": [
        {
          "address": "0xa6a408914dc6e1ac9a8db8ce472923374b1b6beb",
          "topics": [
            "0x8faa70878671ccd212d20771b795c50af8fd3ff6cf27f4bde57e5d4de0aeb673"
          ],
          "data": "0x0000000000000000000000000000000000000000000000000000000000000060000000000000000000000000d6e4b0e094c5ae63cdd3f6e622ed22030a3a908b00000000000000000000000000000000000000000000000000000000000001c00000000000000000000000000000000000000000000000000000000000000001000000000000000000000000000000000000000000000000000000000000002000000000000000000000000094491f1108c84a38cf6f060e90b01b5d0ea30e890000000000000000000000000000000000000000000000000000000000000003000000000000000000000000000000000000000000000000000000000000006000000000000000000000000000000000000000000000000000000000000000057d7c2a1c0000000000000000000000000000000000000000000000000000000053a3d62e00000000000000000000000000000000000000000000000000000000736dcb8b00000000000000000000000000000000000000000000000000000000e0ab98b5000000000000000000000000000000000000000000000000000000007d40af98000000000000000000000000000000000000000000000000000000000000000000000000000000000000000000000000000000000000000000000004e1c7392a00000000000000000000000000000000000000000000000000000000",
          "blockHash": "0xd16ae7233cc171fa6420ec3702bf101d7ff8cc848bd7ca714661709bc69cddf9",
          "blockNumber": "0x3c04ac4",
          "blockTimestamp": "0x69c9d31a",
          "transactionHash": "0x6b0890b42b01930eb734298c8c5ac3cf6cc2093115ccf81f700ff3359dab2d84",
          "transactionIndex": "0xd",
          "logIndex": "0x16",
          "removed": false
        }
      ],
      "logsBloom": "0x00000000000000000000000000000000000000000000000000000000000000000000000000000000000000000000000000000000000000000000000000000000000000000000000000000000000000000000000001000000000800000000000000000000000008000000000000000000000000000008000000000000000000000020001000000000000000000000000000000000000000000000000000000000000000000000000000000000000000000000000000000000000000000000000000000000000000000000000000000000000000000000000000000000000000000000000000000000000000000000000000000000000000000000000000000000",
      "type": "0x0",
      "transactionHash": "0x6b0890b42b01930eb734298c8c5ac3cf6cc2093115ccf81f700ff3359dab2d84",
      "transactionIndex": "0xd",
      "blockHash": "0xd16ae7233cc171fa6420ec3702bf101d7ff8cc848bd7ca714661709bc69cddf9",
      "blockNumber": "0x3c04ac4",
      "gasUsed": "0x1917e",
      "effectiveGasPrice": "0x5d22cfc40",
      "from": "0x04e1ec75c9fada2ff30e309e11cb5d2437dc3d4a",
      "to": "0xa6a408914dc6e1ac9a8db8ce472923374b1b6beb",
      "contractAddress": null,
      "l1BaseFeeScalar": "0x0",
      "l1BlobBaseFee": "0x1da87e1d74d7d0",
      "l1BlobBaseFeeScalar": "0x0",
      "l1Fee": "0x0",
      "l1GasPrice": "0x7187236",
      "l1GasUsed": "0xba9"
    },
    {
      "status": "0x1",
      "cumulativeGasUsed": "0xf0690",
      "logs": [
        {
          "address": "0xa8558a901d12a72492d8716b6e02c7c6ef324f5e",
          "topics": [
            "0x8faa70878671ccd212d20771b795c50af8fd3ff6cf27f4bde57e5d4de0aeb673"
          ],
          "data": "0x0000000000000000000000000000000000000000000000000000000000000060000000000000000000000000d6e4b0e094c5ae63cdd3f6e622ed22030a3a908b00000000000000000000000000000000000000000000000000000000000001c00000000000000000000000000000000000000000000000000000000000000001000000000000000000000000000000000000000000000000000000000000002000000000000000000000000094491f1108c84a38cf6f060e90b01b5d0ea30e890000000000000000000000000000000000000000000000000000000000000003000000000000000000000000000000000000000000000000000000000000006000000000000000000000000000000000000000000000000000000000000000057d7c2a1c0000000000000000000000000000000000000000000000000000000053a3d62e00000000000000000000000000000000000000000000000000000000736dcb8b00000000000000000000000000000000000000000000000000000000e0ab98b5000000000000000000000000000000000000000000000000000000007d40af98000000000000000000000000000000000000000000000000000000000000000000000000000000000000000000000000000000000000000000000004e1c7392a00000000000000000000000000000000000000000000000000000000",
          "blockHash": "0xcf41fbc5e291260828d76fecdf4493ac4b0a6ea25cddf3cd90e978d79b691350",
          "blockNumber": "0x3c04ac5",
          "blockTimestamp": "0x69c9d31b",
          "transactionHash": "0xac360044aaba647b9a503fdc544cda76370b111f33b5d69518877d4da7440530",
          "transactionIndex": "0x9",
          "logIndex": "0x1e",
          "removed": false
        }
      ],
      "logsBloom": "0x00000000000000000000000000000000000800000000000000000000000000000000000000000000000000000000000000000000000000000000000000000000000000000000000000000000000000000000000001000000000800010000000000000000000000000000000000000000000000000000000000000000000000000020000000000000000000000000000000000000000000000000000000000800000000000000000000000000000000000000000000000000000000000000000000000000000000000000000000000000000000000000000000000000000000000000000000000000000000000000000000000000000000000000000000000000",
      "type": "0x0",
      "transactionHash": "0xac360044aaba647b9a503fdc544cda76370b111f33b5d69518877d4da7440530",
      "transactionIndex": "0x9",
      "blockHash": "0xcf41fbc5e291260828d76fecdf4493ac4b0a6ea25cddf3cd90e978d79b691350",
      "blockNumber": "0x3c04ac5",
      "gasUsed": "0x1917e",
      "effectiveGasPrice": "0x5d22cfc40",
      "from": "0x04e1ec75c9fada2ff30e309e11cb5d2437dc3d4a",
      "to": "0xa8558a901d12a72492d8716b6e02c7c6ef324f5e",
      "contractAddress": null,
      "l1BaseFeeScalar": "0x0",
      "l1BlobBaseFee": "0x1da87e1d74d7d0",
      "l1BlobBaseFeeScalar": "0x0",
      "l1Fee": "0x0",
      "l1GasPrice": "0x7187236",
      "l1GasUsed": "0xba9"
    },
    {
      "status": "0x1",
      "cumulativeGasUsed": "0x10980e",
      "logs": [
        {
          "address": "0xab40bcfcfe2d742a7e4eeb9c6d0a66bf322177de",
          "topics": [
            "0x8faa70878671ccd212d20771b795c50af8fd3ff6cf27f4bde57e5d4de0aeb673"
          ],
          "data": "0x0000000000000000000000000000000000000000000000000000000000000060000000000000000000000000d6e4b0e094c5ae63cdd3f6e622ed22030a3a908b00000000000000000000000000000000000000000000000000000000000001c00000000000000000000000000000000000000000000000000000000000000001000000000000000000000000000000000000000000000000000000000000002000000000000000000000000094491f1108c84a38cf6f060e90b01b5d0ea30e890000000000000000000000000000000000000000000000000000000000000003000000000000000000000000000000000000000000000000000000000000006000000000000000000000000000000000000000000000000000000000000000057d7c2a1c0000000000000000000000000000000000000000000000000000000053a3d62e00000000000000000000000000000000000000000000000000000000736dcb8b00000000000000000000000000000000000000000000000000000000e0ab98b5000000000000000000000000000000000000000000000000000000007d40af98000000000000000000000000000000000000000000000000000000000000000000000000000000000000000000000000000000000000000000000004e1c7392a00000000000000000000000000000000000000000000000000000000",
          "blockHash": "0xcf41fbc5e291260828d76fecdf4493ac4b0a6ea25cddf3cd90e978d79b691350",
          "blockNumber": "0x3c04ac5",
          "blockTimestamp": "0x69c9d31b",
          "transactionHash": "0x4b899f32dc3c27568aefc10fce4ec3a5cc99758c310a4943c332f585d01c2c1b",
          "transactionIndex": "0xa",
          "logIndex": "0x1f",
          "removed": false
        }
      ],
      "logsBloom": "0x00000000000000000000000000000000000000000000000000000000000000008000000000000000100000000000000000000000000000000000000000000000000000000000000000000000000000000000000001000000000800000000000000000000000000000000000000000000000000000000000000000000000010000020000000000000000000000000000000000000000000000000000000000000000000000000000000000000000000000000000000000000000000000000000000000000000000000000000000000000000000000000000000000000000000000000000000000000000000000000000000000000000000000000000000000000",
      "type": "0x0",
      "transactionHash": "0x4b899f32dc3c27568aefc10fce4ec3a5cc99758c310a4943c332f585d01c2c1b",
      "transactionIndex": "0xa",
      "blockHash": "0xcf41fbc5e291260828d76fecdf4493ac4b0a6ea25cddf3cd90e978d79b691350",
      "blockNumber": "0x3c04ac5",
      "gasUsed": "0x1917e",
      "effectiveGasPrice": "0x5d22cfc40",
      "from": "0x04e1ec75c9fada2ff30e309e11cb5d2437dc3d4a",
      "to": "0xab40bcfcfe2d742a7e4eeb9c6d0a66bf322177de",
      "contractAddress": null,
      "l1BaseFeeScalar": "0x0",
      "l1BlobBaseFee": "0x1da87e1d74d7d0",
      "l1BlobBaseFeeScalar": "0x0",
      "l1Fee": "0x0",
      "l1GasPrice": "0x7187236",
      "l1GasUsed": "0xba9"
    },
    {
      "status": "0x1",
      "cumulativeGasUsed": "0x12298c",
      "logs": [
        {
          "address": "0xabbdc98302a55dfad457843b2c0f2e9306854267",
          "topics": [
            "0x8faa70878671ccd212d20771b795c50af8fd3ff6cf27f4bde57e5d4de0aeb673"
          ],
          "data": "0x0000000000000000000000000000000000000000000000000000000000000060000000000000000000000000d6e4b0e094c5ae63cdd3f6e622ed22030a3a908b00000000000000000000000000000000000000000000000000000000000001c00000000000000000000000000000000000000000000000000000000000000001000000000000000000000000000000000000000000000000000000000000002000000000000000000000000094491f1108c84a38cf6f060e90b01b5d0ea30e890000000000000000000000000000000000000000000000000000000000000003000000000000000000000000000000000000000000000000000000000000006000000000000000000000000000000000000000000000000000000000000000057d7c2a1c0000000000000000000000000000000000000000000000000000000053a3d62e00000000000000000000000000000000000000000000000000000000736dcb8b00000000000000000000000000000000000000000000000000000000e0ab98b5000000000000000000000000000000000000000000000000000000007d40af98000000000000000000000000000000000000000000000000000000000000000000000000000000000000000000000000000000000000000000000004e1c7392a00000000000000000000000000000000000000000000000000000000",
          "blockHash": "0xcf41fbc5e291260828d76fecdf4493ac4b0a6ea25cddf3cd90e978d79b691350",
          "blockNumber": "0x3c04ac5",
          "blockTimestamp": "0x69c9d31b",
          "transactionHash": "0x13fdbd2423cd834fca978b1036f2a1ce20973c2ebdd26db8d2221554c7aa2dda",
          "transactionIndex": "0xb",
          "logIndex": "0x20",
          "removed": false
        }
      ],
      "logsBloom": "0x00000000000000000000000000000000000000000000000000000000000000000000000000000000000000000008000000000000000000000000000000000000000000000000000000000000000000000000000001000000000800000000000800000000000000000000000000000000000000000000000000000000000000000020000000000000000000000000000000000000000000000000000000000000002000000000000000000000000000000000000000000000000000000000000000000000000000000000000000000000000000000000000000000000000000000000000000000000000000000000000000000000000000000000000000000000",
      "type": "0x0",
      "transactionHash": "0x13fdbd2423cd834fca978b1036f2a1ce20973c2ebdd26db8d2221554c7aa2dda",
      "transactionIndex": "0xb",
      "blockHash": "0xcf41fbc5e291260828d76fecdf4493ac4b0a6ea25cddf3cd90e978d79b691350",
      "blockNumber": "0x3c04ac5",
      "gasUsed": "0x1917e",
      "effectiveGasPrice": "0x5d22cfc40",
      "from": "0x04e1ec75c9fada2ff30e309e11cb5d2437dc3d4a",
      "to": "0xabbdc98302a55dfad457843b2c0f2e9306854267",
      "contractAddress": null,
      "l1BaseFeeScalar": "0x0",
      "l1BlobBaseFee": "0x1da87e1d74d7d0",
      "l1BlobBaseFeeScalar": "0x0",
      "l1Fee": "0x0",
      "l1GasPrice": "0x7187236",
      "l1GasUsed": "0xba9"
    },
    {
      "status": "0x1",
      "cumulativeGasUsed": "0x13bb0a",
      "logs": [
        {
          "address": "0xb90cabb1863ed341babe31a2d0126a5985e4c770",
          "topics": [
            "0x8faa70878671ccd212d20771b795c50af8fd3ff6cf27f4bde57e5d4de0aeb673"
          ],
          "data": "0x0000000000000000000000000000000000000000000000000000000000000060000000000000000000000000d6e4b0e094c5ae63cdd3f6e622ed22030a3a908b00000000000000000000000000000000000000000000000000000000000001c00000000000000000000000000000000000000000000000000000000000000001000000000000000000000000000000000000000000000000000000000000002000000000000000000000000094491f1108c84a38cf6f060e90b01b5d0ea30e890000000000000000000000000000000000000000000000000000000000000003000000000000000000000000000000000000000000000000000000000000006000000000000000000000000000000000000000000000000000000000000000057d7c2a1c0000000000000000000000000000000000000000000000000000000053a3d62e00000000000000000000000000000000000000000000000000000000736dcb8b00000000000000000000000000000000000000000000000000000000e0ab98b5000000000000000000000000000000000000000000000000000000007d40af98000000000000000000000000000000000000000000000000000000000000000000000000000000000000000000000000000000000000000000000004e1c7392a00000000000000000000000000000000000000000000000000000000",
          "blockHash": "0xcf41fbc5e291260828d76fecdf4493ac4b0a6ea25cddf3cd90e978d79b691350",
          "blockNumber": "0x3c04ac5",
          "blockTimestamp": "0x69c9d31b",
          "transactionHash": "0xf2e872fb20eba2e160bd3c24b2f28a307261d2ff7fc71bf5741ca3fb47e7c20e",
          "transactionIndex": "0xc",
          "logIndex": "0x21",
          "removed": false
        }
      ],
      "logsBloom": "0x00000000000000000000000000000000000000000000000000000000000000000000000000000000000000080000000000000000000000000000000000000000000000000000000000000000000000000000000001000000000800000000000000000000000000000000000000000000000000000000000000000000000000000020000000000000000000000000000000000000000000000000000000000000000000000000000000000000000000000000000000000000000000000000000000000000000000000000000000000000008000000000000000000000000000000000000000000000000000000000800000000000000000000000000000000000",
      "type": "0x0",
      "transactionHash": "0xf2e872fb20eba2e160bd3c24b2f28a307261d2ff7fc71bf5741ca3fb47e7c20e",
      "transactionIndex": "0xc",
      "blockHash": "0xcf41fbc5e291260828d76fecdf4493ac4b0a6ea25cddf3cd90e978d79b691350",
      "blockNumber": "0x3c04ac5",
      "gasUsed": "0x1917e",
      "effectiveGasPrice": "0x5d22cfc40",
      "from": "0x04e1ec75c9fada2ff30e309e11cb5d2437dc3d4a",
      "to": "0xb90cabb1863ed341babe31a2d0126a5985e4c770",
      "contractAddress": null,
      "l1BaseFeeScalar": "0x0",
      "l1BlobBaseFee": "0x1da87e1d74d7d0",
      "l1BlobBaseFeeScalar": "0x0",
      "l1Fee": "0x0",
      "l1GasPrice": "0x7187236",
      "l1GasUsed": "0xba9"
    },
    {
      "status": "0x1",
      "cumulativeGasUsed": "0x168346",
      "logs": [
        {
          "address": "0xbbe2a2a0e48bace7271325f5501c01fdda7f3d54",
          "topics": [
            "0x8faa70878671ccd212d20771b795c50af8fd3ff6cf27f4bde57e5d4de0aeb673"
          ],
          "data": "0x0000000000000000000000000000000000000000000000000000000000000060000000000000000000000000d6e4b0e094c5ae63cdd3f6e622ed22030a3a908b00000000000000000000000000000000000000000000000000000000000001c00000000000000000000000000000000000000000000000000000000000000001000000000000000000000000000000000000000000000000000000000000002000000000000000000000000094491f1108c84a38cf6f060e90b01b5d0ea30e890000000000000000000000000000000000000000000000000000000000000003000000000000000000000000000000000000000000000000000000000000006000000000000000000000000000000000000000000000000000000000000000057d7c2a1c0000000000000000000000000000000000000000000000000000000053a3d62e00000000000000000000000000000000000000000000000000000000736dcb8b00000000000000000000000000000000000000000000000000000000e0ab98b5000000000000000000000000000000000000000000000000000000007d40af98000000000000000000000000000000000000000000000000000000000000000000000000000000000000000000000000000000000000000000000004e1c7392a00000000000000000000000000000000000000000000000000000000",
          "blockHash": "0xcf41fbc5e291260828d76fecdf4493ac4b0a6ea25cddf3cd90e978d79b691350",
          "blockNumber": "0x3c04ac5",
          "blockTimestamp": "0x69c9d31b",
          "transactionHash": "0x16453683e4cbde345fd3e4a9f4811c97dbb5b1aa0d6320f80e73fe60bc652067",
          "transactionIndex": "0xf",
          "logIndex": "0x24",
          "removed": false
        }
      ],
      "logsBloom": "0x00000000000000000000000000000000000000000000000000000000000000000000000000000000000000000000000000000000000000000000000000000000000000000000000000000000000000000000000001000000000800000000000000000000000000000000000000000000000000000000000000000000000000200020000000000000000000000000000000000000000000000000000000000000000000000000000000000000000000000000000000000000000000000000000010000000000000000000010000000000000000000000000000000000000000000000000000000000000000000000000000000000000000000000000000000000",
      "type": "0x0",
      "transactionHash": "0x16453683e4cbde345fd3e4a9f4811c97dbb5b1aa0d6320f80e73fe60bc652067",
      "transactionIndex": "0xf",
      "blockHash": "0xcf41fbc5e291260828d76fecdf4493ac4b0a6ea25cddf3cd90e978d79b691350",
      "blockNumber": "0x3c04ac5",
      "gasUsed": "0x1917e",
      "effectiveGasPrice": "0x5d22cfc40",
      "from": "0x04e1ec75c9fada2ff30e309e11cb5d2437dc3d4a",
      "to": "0xbbe2a2a0e48bace7271325f5501c01fdda7f3d54",
      "contractAddress": null,
      "l1BaseFeeScalar": "0x0",
      "l1BlobBaseFee": "0x1da87e1d74d7d0",
      "l1BlobBaseFeeScalar": "0x0",
      "l1Fee": "0x0",
      "l1GasPrice": "0x7187236",
      "l1GasUsed": "0xba9"
    },
    {
      "status": "0x1",
      "cumulativeGasUsed": "0x1814c4",
      "logs": [
        {
          "address": "0xbcea5d6c19303e4f3eba367ca87aa4d0df063544",
          "topics": [
            "0x8faa70878671ccd212d20771b795c50af8fd3ff6cf27f4bde57e5d4de0aeb673"
          ],
          "data": "0x0000000000000000000000000000000000000000000000000000000000000060000000000000000000000000d6e4b0e094c5ae63cdd3f6e622ed22030a3a908b00000000000000000000000000000000000000000000000000000000000001c00000000000000000000000000000000000000000000000000000000000000001000000000000000000000000000000000000000000000000000000000000002000000000000000000000000094491f1108c84a38cf6f060e90b01b5d0ea30e890000000000000000000000000000000000000000000000000000000000000003000000000000000000000000000000000000000000000000000000000000006000000000000000000000000000000000000000000000000000000000000000057d7c2a1c0000000000000000000000000000000000000000000000000000000053a3d62e00000000000000000000000000000000000000000000000000000000736dcb8b00000000000000000000000000000000000000000000000000000000e0ab98b5000000000000000000000000000000000000000000000000000000007d40af98000000000000000000000000000000000000000000000000000000000000000000000000000000000000000000000000000000000000000000000004e1c7392a00000000000000000000000000000000000000000000000000000000",
          "blockHash": "0xcf41fbc5e291260828d76fecdf4493ac4b0a6ea25cddf3cd90e978d79b691350",
          "blockNumber": "0x3c04ac5",
          "blockTimestamp": "0x69c9d31b",
          "transactionHash": "0x5b9fb0d31cf43e49f2d2d500e4a25b1dbfb79b6f7fec8fbdcbd3bd1661e582bd",
          "transactionIndex": "0x10",
          "logIndex": "0x25",
          "removed": false
        }
      ],
      "logsBloom": "0x00000000000000000000000000000000000000040000000000000000000000000000000000000000000000000000000000000000000000000000000000000000000000000000000000000000000000000000000001000000000800000000000000000000000000000000000000000000000000000000000000000000000200000020000000000000000000000000000000000000000000000000000000000000000000000000000000000000000000000000000000000000000000000000000000000000000000000000000000000000000000000000000000000000000000000000000000000000002000000000000000000000000000000000000000000000",
      "type": "0x0",
      "transactionHash": "0x5b9fb0d31cf43e49f2d2d500e4a25b1dbfb79b6f7fec8fbdcbd3bd1661e582bd",
      "transactionIndex": "0x10",
      "blockHash": "0xcf41fbc5e291260828d76fecdf4493ac4b0a6ea25cddf3cd90e978d79b691350",
      "blockNumber": "0x3c04ac5",
      "gasUsed": "0x1917e",
      "effectiveGasPrice": "0x5d22cfc40",
      "from": "0x04e1ec75c9fada2ff30e309e11cb5d2437dc3d4a",
      "to": "0xbcea5d6c19303e4f3eba367ca87aa4d0df063544",
      "contractAddress": null,
      "l1BaseFeeScalar": "0x0",
      "l1BlobBaseFee": "0x1da87e1d74d7d0",
      "l1BlobBaseFeeScalar": "0x0",
      "l1Fee": "0x0",
      "l1GasPrice": "0x7187236",
      "l1GasUsed": "0xba9"
    }
  ],
  "libraries": [
    "pkg/contracts/src/CVStrategy/ConvictionsUtils.sol:ConvictionsUtils:0x70b24063ea84765B324387e21159B41aF48A9440",
    "pkg/contracts/src/CVStrategy/PowerManagementUtils.sol:PowerManagementUtils:0xB07d76F6001Cc62739d39cb0C5E9c58E08230486"
  ],
  "pending": [],
  "returns": {},
  "timestamp": 1774834460135,
  "chain": 42220,
  "commit": "8e5fd5852"
}