{
  "transactions": [
    {
      "hash": "0x414f1c31da93221cd9eeb6816c3bf381ef281438831f484e488003412afc8e0a",
      "transactionType": "CALL",
      "contractName": "ERC1967Proxy",
      "contractAddress": "0x0f52002482c3188575f2e751dc948ab2fdd39d10",
      "function": null,
      "arguments": null,
      "transaction": {
        "from": "0x04e1ec75c9fada2ff30e309e11cb5d2437dc3d4a",
        "to": "0x0f52002482c3188575f2e751dc948ab2fdd39d10",
        "gas": "0x22a8e",
        "value": "0x0",
        "input": "0x1f931c1c0000000000000000000000000000000000000000000000000000000000000060000000000000000000000000d6e4b0e094c5ae63cdd3f6e622ed22030a3a908b00000000000000000000000000000000000000000000000000000000000001c00000000000000000000000000000000000000000000000000000000000000001000000000000000000000000000000000000000000000000000000000000002000000000000000000000000094491f1108c84a38cf6f060e90b01b5d0ea30e890000000000000000000000000000000000000000000000000000000000000003000000000000000000000000000000000000000000000000000000000000006000000000000000000000000000000000000000000000000000000000000000057d7c2a1c0000000000000000000000000000000000000000000000000000000053a3d62e00000000000000000000000000000000000000000000000000000000736dcb8b00000000000000000000000000000000000000000000000000000000e0ab98b5000000000000000000000000000000000000000000000000000000007d40af98000000000000000000000000000000000000000000000000000000000000000000000000000000000000000000000000000000000000000000000004e1c7392a00000000000000000000000000000000000000000000000000000000",
        "nonce": "0xc",
        "chainId": "0xa4ec"
      },
      "additionalContracts": [],
      "isFixedGasLimit": false
    },
    {
      "hash": "0xf0a01d5309aca2308f49ab9a32c2d6dd753cc18d1990b325b99d0f21a79b0a09",
      "transactionType": "CALL",
      "contractName": null,
      "contractAddress": "0x0fd1b99da7a2802934b16373d1a3cb2f9db50b08",
      "function": "diamondCut((address,uint8,bytes4[])[],address,bytes)",
      "arguments": [
        "[(0x94491f1108c84a38cf6f060e90b01B5D0ea30e89, 3, [0x7d7c2a1c, 0x53a3d62e, 0x736dcb8b, 0xe0ab98b5, 0x7d40af98])]",
        "0xD6E4b0e094C5aE63cDd3f6e622ed22030A3a908B",
        "0xe1c7392a"
      ],
      "transaction": {
        "from": "0x04e1ec75c9fada2ff30e309e11cb5d2437dc3d4a",
        "to": "0x0fd1b99da7a2802934b16373d1a3cb2f9db50b08",
        "gas": "0x22a8e",
        "value": "0x0",
        "input": "0x1f931c1c0000000000000000000000000000000000000000000000000000000000000060000000000000000000000000d6e4b0e094c5ae63cdd3f6e622ed22030a3a908b00000000000000000000000000000000000000000000000000000000000001c00000000000000000000000000000000000000000000000000000000000000001000000000000000000000000000000000000000000000000000000000000002000000000000000000000000094491f1108c84a38cf6f060e90b01b5d0ea30e890000000000000000000000000000000000000000000000000000000000000003000000000000000000000000000000000000000000000000000000000000006000000000000000000000000000000000000000000000000000000000000000057d7c2a1c0000000000000000000000000000000000000000000000000000000053a3d62e00000000000000000000000000000000000000000000000000000000736dcb8b00000000000000000000000000000000000000000000000000000000e0ab98b5000000000000000000000000000000000000000000000000000000007d40af98000000000000000000000000000000000000000000000000000000000000000000000000000000000000000000000000000000000000000000000004e1c7392a00000000000000000000000000000000000000000000000000000000",
        "nonce": "0xd",
        "chainId": "0xa4ec"
      },
      "additionalContracts": [],
      "isFixedGasLimit": false
    },
    {
      "hash": "0xd2411962beabaa45fac8b496b6f8f2f9ab8ecb309b7722322dd00f7a4e7ccfdd",
      "transactionType": "CALL",
      "contractName": "ERC1967Proxy",
      "contractAddress": "0x186660411ef4b1975834f29b5912b64de91252a2",
      "function": null,
      "arguments": null,
      "transaction": {
        "from": "0x04e1ec75c9fada2ff30e309e11cb5d2437dc3d4a",
        "to": "0x186660411ef4b1975834f29b5912b64de91252a2",
        "gas": "0x22a8e",
        "value": "0x0",
        "input": "0x1f931c1c0000000000000000000000000000000000000000000000000000000000000060000000000000000000000000d6e4b0e094c5ae63cdd3f6e622ed22030a3a908b00000000000000000000000000000000000000000000000000000000000001c00000000000000000000000000000000000000000000000000000000000000001000000000000000000000000000000000000000000000000000000000000002000000000000000000000000094491f1108c84a38cf6f060e90b01b5d0ea30e890000000000000000000000000000000000000000000000000000000000000003000000000000000000000000000000000000000000000000000000000000006000000000000000000000000000000000000000000000000000000000000000057d7c2a1c0000000000000000000000000000000000000000000000000000000053a3d62e00000000000000000000000000000000000000000000000000000000736dcb8b00000000000000000000000000000000000000000000000000000000e0ab98b5000000000000000000000000000000000000000000000000000000007d40af98000000000000000000000000000000000000000000000000000000000000000000000000000000000000000000000000000000000000000000000004e1c7392a00000000000000000000000000000000000000000000000000000000",
        "nonce": "0xe",
        "chainId": "0xa4ec"
      },
      "additionalContracts": [],
      "isFixedGasLimit": false
    },
    {
      "hash": "0x1b057b81da45ead1fb0213ed56efc4e42e93ee7025c9496ffafa8e97de01f557",
      "transactionType": "CALL",
      "contractName": "ERC1967Proxy",
      "contractAddress": "0x1ef2c3a529af71b575c788bfe5300161c1861b79",
      "function": null,
      "arguments": null,
      "transaction": {
        "from": "0x04e1ec75c9fada2ff30e309e11cb5d2437dc3d4a",
        "to": "0x1ef2c3a529af71b575c788bfe5300161c1861b79",
        "gas": "0x22a8e",
        "value": "0x0",
        "input": "0x1f931c1c0000000000000000000000000000000000000000000000000000000000000060000000000000000000000000d6e4b0e094c5ae63cdd3f6e622ed22030a3a908b00000000000000000000000000000000000000000000000000000000000001c00000000000000000000000000000000000000000000000000000000000000001000000000000000000000000000000000000000000000000000000000000002000000000000000000000000094491f1108c84a38cf6f060e90b01b5d0ea30e890000000000000000000000000000000000000000000000000000000000000003000000000000000000000000000000000000000000000000000000000000006000000000000000000000000000000000000000000000000000000000000000057d7c2a1c0000000000000000000000000000000000000000000000000000000053a3d62e00000000000000000000000000000000000000000000000000000000736dcb8b00000000000000000000000000000000000000000000000000000000e0ab98b5000000000000000000000000000000000000000000000000000000007d40af98000000000000000000000000000000000000000000000000000000000000000000000000000000000000000000000000000000000000000000000004e1c7392a00000000000000000000000000000000000000000000000000000000",
        "nonce": "0xf",
        "chainId": "0xa4ec"
      },
      "additionalContracts": [],
      "isFixedGasLimit": false
    },
    {
      "hash": "0x523866dfd531d8482bc91289df1792f17d917bf14cc409420059f91963e1be48",
      "transactionType": "CALL",
      "contractName": "ERC1967Proxy",
      "contractAddress": "0x20454a1d4613529c8e1947217241910848664413",
      "function": null,
      "arguments": null,
      "transaction": {
        "from": "0x04e1ec75c9fada2ff30e309e11cb5d2437dc3d4a",
        "to": "0x20454a1d4613529c8e1947217241910848664413",
        "gas": "0x24b57",
        "value": "0x0",
        "input": "0x1f931c1c0000000000000000000000000000000000000000000000000000000000000060000000000000000000000000d6e4b0e094c5ae63cdd3f6e622ed22030a3a908b00000000000000000000000000000000000000000000000000000000000001c00000000000000000000000000000000000000000000000000000000000000001000000000000000000000000000000000000000000000000000000000000002000000000000000000000000094491f1108c84a38cf6f060e90b01b5d0ea30e890000000000000000000000000000000000000000000000000000000000000003000000000000000000000000000000000000000000000000000000000000006000000000000000000000000000000000000000000000000000000000000000057d7c2a1c0000000000000000000000000000000000000000000000000000000053a3d62e00000000000000000000000000000000000000000000000000000000736dcb8b00000000000000000000000000000000000000000000000000000000e0ab98b5000000000000000000000000000000000000000000000000000000007d40af98000000000000000000000000000000000000000000000000000000000000000000000000000000000000000000000000000000000000000000000004e1c7392a00000000000000000000000000000000000000000000000000000000",
        "nonce": "0x10",
        "chainId": "0xa4ec"
      },
      "additionalContracts": [],
      "isFixedGasLimit": false
    },
    {
      "hash": "0x74915d7354a7d873eb4178c424d321474706e0fb254cdae7d8b56c73bd183d75",
      "transactionType": "CALL",
      "contractName": null,
      "contractAddress": "0x2085aa46b04ba20f93f24cc51e26e4fc3f0b631d",
      "function": "diamondCut((address,uint8,bytes4[])[],address,bytes)",
      "arguments": [
        "[(0x94491f1108c84a38cf6f060e90b01B5D0ea30e89, 3, [0x7d7c2a1c, 0x53a3d62e, 0x736dcb8b, 0xe0ab98b5, 0x7d40af98])]",
        "0xD6E4b0e094C5aE63cDd3f6e622ed22030A3a908B",
        "0xe1c7392a"
      ],
      "transaction": {
        "from": "0x04e1ec75c9fada2ff30e309e11cb5d2437dc3d4a",
        "to": "0x2085aa46b04ba20f93f24cc51e26e4fc3f0b631d",
        "gas": "0x22a8e",
        "value": "0x0",
        "input": "0x1f931c1c0000000000000000000000000000000000000000000000000000000000000060000000000000000000000000d6e4b0e094c5ae63cdd3f6e622ed22030a3a908b00000000000000000000000000000000000000000000000000000000000001c00000000000000000000000000000000000000000000000000000000000000001000000000000000000000000000000000000000000000000000000000000002000000000000000000000000094491f1108c84a38cf6f060e90b01b5d0ea30e890000000000000000000000000000000000000000000000000000000000000003000000000000000000000000000000000000000000000000000000000000006000000000000000000000000000000000000000000000000000000000000000057d7c2a1c0000000000000000000000000000000000000000000000000000000053a3d62e00000000000000000000000000000000000000000000000000000000736dcb8b00000000000000000000000000000000000000000000000000000000e0ab98b5000000000000000000000000000000000000000000000000000000007d40af98000000000000000000000000000000000000000000000000000000000000000000000000000000000000000000000000000000000000000000000004e1c7392a00000000000000000000000000000000000000000000000000000000",
        "nonce": "0x11",
        "chainId": "0xa4ec"
      },
      "additionalContracts": [],
      "isFixedGasLimit": false
    },
    {
      "hash": "0x5825c9fc862910b1d45cd69714436bd463bd25d3f39a771ec9a205a34e20c584",
      "transactionType": "CALL",
      "contractName": "ERC1967Proxy",
      "contractAddress": "0x24b703c965d5ea0347ecefee0f60785655ed45cf",
      "function": null,
      "arguments": null,
      "transaction": {
        "from": "0x04e1ec75c9fada2ff30e309e11cb5d2437dc3d4a",
        "to": "0x24b703c965d5ea0347ecefee0f60785655ed45cf",
        "gas": "0x22aad",
        "value": "0x0",
        "input": "0x1f931c1c0000000000000000000000000000000000000000000000000000000000000060000000000000000000000000d6e4b0e094c5ae63cdd3f6e622ed22030a3a908b00000000000000000000000000000000000000000000000000000000000001c00000000000000000000000000000000000000000000000000000000000000001000000000000000000000000000000000000000000000000000000000000002000000000000000000000000094491f1108c84a38cf6f060e90b01b5d0ea30e890000000000000000000000000000000000000000000000000000000000000003000000000000000000000000000000000000000000000000000000000000006000000000000000000000000000000000000000000000000000000000000000057d7c2a1c0000000000000000000000000000000000000000000000000000000053a3d62e00000000000000000000000000000000000000000000000000000000736dcb8b00000000000000000000000000000000000000000000000000000000e0ab98b5000000000000000000000000000000000000000000000000000000007d40af98000000000000000000000000000000000000000000000000000000000000000000000000000000000000000000000000000000000000000000000004e1c7392a00000000000000000000000000000000000000000000000000000000",
        "nonce": "0x12",
        "chainId": "0xa4ec"
      },
      "additionalContracts": [],
      "isFixedGasLimit": false
    },
    {
      "hash": "0xb5c6d01c694216f50db33163c1ee467b13a5793edae842bfaed456adf0b0cdd7",
      "transactionType": "CALL",
      "contractName": "ERC1967Proxy",
      "contractAddress": "0x255ced14c5380a4995338491c85ce7de8558f1a0",
      "function": null,
      "arguments": null,
      "transaction": {
        "from": "0x04e1ec75c9fada2ff30e309e11cb5d2437dc3d4a",
        "to": "0x255ced14c5380a4995338491c85ce7de8558f1a0",
        "gas": "0x22a8e",
        "value": "0x0",
        "input": "0x1f931c1c0000000000000000000000000000000000000000000000000000000000000060000000000000000000000000d6e4b0e094c5ae63cdd3f6e622ed22030a3a908b00000000000000000000000000000000000000000000000000000000000001c00000000000000000000000000000000000000000000000000000000000000001000000000000000000000000000000000000000000000000000000000000002000000000000000000000000094491f1108c84a38cf6f060e90b01b5d0ea30e890000000000000000000000000000000000000000000000000000000000000003000000000000000000000000000000000000000000000000000000000000006000000000000000000000000000000000000000000000000000000000000000057d7c2a1c0000000000000000000000000000000000000000000000000000000053a3d62e00000000000000000000000000000000000000000000000000000000736dcb8b00000000000000000000000000000000000000000000000000000000e0ab98b5000000000000000000000000000000000000000000000000000000007d40af98000000000000000000000000000000000000000000000000000000000000000000000000000000000000000000000000000000000000000000000004e1c7392a00000000000000000000000000000000000000000000000000000000",
        "nonce": "0x13",
        "chainId": "0xa4ec"
      },
      "additionalContracts": [],
      "isFixedGasLimit": false
    },
    {
      "hash": "0x21729dcea028df2868d7389f2423e78fe0be7705a4801c06cf7a1063d26fe1f9",
      "transactionType": "CALL",
      "contractName": "ERC1967Proxy",
      "contractAddress": "0x33080d27f98747f092021bdee4a006eda42ff2f7",
      "function": null,
      "arguments": null,
      "transaction": {
        "from": "0x04e1ec75c9fada2ff30e309e11cb5d2437dc3d4a",
        "to": "0x33080d27f98747f092021bdee4a006eda42ff2f7",
        "gas": "0x22a8e",
        "value": "0x0",
        "input": "0x1f931c1c0000000000000000000000000000000000000000000000000000000000000060000000000000000000000000d6e4b0e094c5ae63cdd3f6e622ed22030a3a908b00000000000000000000000000000000000000000000000000000000000001c00000000000000000000000000000000000000000000000000000000000000001000000000000000000000000000000000000000000000000000000000000002000000000000000000000000094491f1108c84a38cf6f060e90b01b5d0ea30e890000000000000000000000000000000000000000000000000000000000000003000000000000000000000000000000000000000000000000000000000000006000000000000000000000000000000000000000000000000000000000000000057d7c2a1c0000000000000000000000000000000000000000000000000000000053a3d62e00000000000000000000000000000000000000000000000000000000736dcb8b00000000000000000000000000000000000000000000000000000000e0ab98b5000000000000000000000000000000000000000000000000000000007d40af98000000000000000000000000000000000000000000000000000000000000000000000000000000000000000000000000000000000000000000000004e1c7392a00000000000000000000000000000000000000000000000000000000",
        "nonce": "0x14",
        "chainId": "0xa4ec"
      },
      "additionalContracts": [],
      "isFixedGasLimit": false
    },
    {
      "hash": "0x2809113435f9cbfe0da9fdb7cd22bb1248d185b3590416614a437a9bb5c81e56",
      "transactionType": "CALL",
      "contractName": "ERC1967Proxy",
      "contractAddress": "0x335af2c52fd700639f7ceb2cbb86544fb0739ee5",
      "function": null,
      "arguments": null,
      "transaction": {
        "from": "0x04e1ec75c9fada2ff30e309e11cb5d2437dc3d4a",
        "to": "0x335af2c52fd700639f7ceb2cbb86544fb0739ee5",
        "gas": "0x22aad",
        "value": "0x0",
        "input": "0x1f931c1c0000000000000000000000000000000000000000000000000000000000000060000000000000000000000000d6e4b0e094c5ae63cdd3f6e622ed22030a3a908b00000000000000000000000000000000000000000000000000000000000001c00000000000000000000000000000000000000000000000000000000000000001000000000000000000000000000000000000000000000000000000000000002000000000000000000000000094491f1108c84a38cf6f060e90b01b5d0ea30e890000000000000000000000000000000000000000000000000000000000000003000000000000000000000000000000000000000000000000000000000000006000000000000000000000000000000000000000000000000000000000000000057d7c2a1c0000000000000000000000000000000000000000000000000000000053a3d62e00000000000000000000000000000000000000000000000000000000736dcb8b00000000000000000000000000000000000000000000000000000000e0ab98b5000000000000000000000000000000000000000000000000000000007d40af98000000000000000000000000000000000000000000000000000000000000000000000000000000000000000000000000000000000000000000000004e1c7392a00000000000000000000000000000000000000000000000000000000",
        "nonce": "0x15",
        "chainId": "0xa4ec"
      },
      "additionalContracts": [],
      "isFixedGasLimit": false
    }
  ],
  "receipts": [
    {
      "status": "0x1",
      "cumulativeGasUsed": "0x1b1c55",
      "logs": [
        {
          "address": "0x0f52002482c3188575f2e751dc948ab2fdd39d10",
          "topics": [
            "0x8faa70878671ccd212d20771b795c50af8fd3ff6cf27f4bde57e5d4de0aeb673"
          ],
          "data": "0x0000000000000000000000000000000000000000000000000000000000000060000000000000000000000000d6e4b0e094c5ae63cdd3f6e622ed22030a3a908b00000000000000000000000000000000000000000000000000000000000001c00000000000000000000000000000000000000000000000000000000000000001000000000000000000000000000000000000000000000000000000000000002000000000000000000000000094491f1108c84a38cf6f060e90b01b5d0ea30e890000000000000000000000000000000000000000000000000000000000000003000000000000000000000000000000000000000000000000000000000000006000000000000000000000000000000000000000000000000000000000000000057d7c2a1c0000000000000000000000000000000000000000000000000000000053a3d62e00000000000000000000000000000000000000000000000000000000736dcb8b00000000000000000000000000000000000000000000000000000000e0ab98b5000000000000000000000000000000000000000000000000000000007d40af98000000000000000000000000000000000000000000000000000000000000000000000000000000000000000000000000000000000000000000000004e1c7392a00000000000000000000000000000000000000000000000000000000",
          "blockHash": "0x7d6345e898cc1855d4b7b2e1c389c8a11a2b599514432fe3836d9f8d4e9f673f",
          "blockNumber": "0x3c0471f",
          "blockTimestamp": "0x69c9cf75",
          "transactionHash": "0x21729dcea028df2868d7389f2423e78fe0be7705a4801c06cf7a1063d26fe1f9",
          "transactionIndex": "0xe",
          "logIndex": "0x2f",
          "removed": false
        }
      ],
      "logsBloom": "0x00000000000000000000000000000000000000000000000000000000000000000000000000000000000000000000000000000000000000000000000000000000000000000000000000000000000000000000000001000000000800000000000000000000000000000000000000000000000000000000000000000000000000000020000000000000000000000000000000000000000000000000000000000000000000000000400000000000010000000000000000000000000000000000000000000000000000000000000000000000000000000000080000000000000000000000000000000000000000000000000000000000000000000000000000000000",
      "type": "0x0",
      "transactionHash": "0x21729dcea028df2868d7389f2423e78fe0be7705a4801c06cf7a1063d26fe1f9",
      "transactionIndex": "0xe",
      "blockHash": "0x7d6345e898cc1855d4b7b2e1c389c8a11a2b599514432fe3836d9f8d4e9f673f",
      "blockNumber": "0x3c0471f",
      "gasUsed": "0x1917e",
      "effectiveGasPrice": "0x5d22cfc40",
      "from": "0x04e1ec75c9fada2ff30e309e11cb5d2437dc3d4a",
      "to": "0x0f52002482c3188575f2e751dc948ab2fdd39d10",
      "contractAddress": null,
      "l1BaseFeeScalar": "0x0",
      "l1BlobBaseFee": "0x243fb9805d00d7",
      "l1BlobBaseFeeScalar": "0x0",
      "l1Fee": "0x0",
      "l1GasPrice": "0x77998f2",
      "l1GasUsed": "0xba9"
    },
    {
      "status": "0x1",
      "cumulativeGasUsed": "0x1cadd3",
      "logs": [
        {
          "address": "0x0fd1b99da7a2802934b16373d1a3cb2f9db50b08",
          "topics": [
            "0x8faa70878671ccd212d20771b795c50af8fd3ff6cf27f4bde57e5d4de0aeb673"
          ],
          "data": "0x0000000000000000000000000000000000000000000000000000000000000060000000000000000000000000d6e4b0e094c5ae63cdd3f6e622ed22030a3a908b00000000000000000000000000000000000000000000000000000000000001c00000000000000000000000000000000000000000000000000000000000000001000000000000000000000000000000000000000000000000000000000000002000000000000000000000000094491f1108c84a38cf6f060e90b01b5d0ea30e890000000000000000000000000000000000000000000000000000000000000003000000000000000000000000000000000000000000000000000000000000006000000000000000000000000000000000000000000000000000000000000000057d7c2a1c0000000000000000000000000000000000000000000000000000000053a3d62e00000000000000000000000000000000000000000000000000000000736dcb8b00000000000000000000000000000000000000000000000000000000e0ab98b5000000000000000000000000000000000000000000000000000000007d40af98000000000000000000000000000000000000000000000000000000000000000000000000000000000000000000000000000000000000000000000004e1c7392a00000000000000000000000000000000000000000000000000000000",
          "blockHash": "0x7d6345e898cc1855d4b7b2e1c389c8a11a2b599514432fe3836d9f8d4e9f673f",
          "blockNumber": "0x3c0471f",
          "blockTimestamp": "0x69c9cf75",
          "transactionHash": "0x1b057b81da45ead1fb0213ed56efc4e42e93ee7025c9496ffafa8e97de01f557",
          "transactionIndex": "0xf",
          "logIndex": "0x30",
          "removed": false
        }
      ],
      "logsBloom": "0x00000000000000000000000000000000000000000000000000000000000000000000000000000000000000000000000000000000000000000000000000000000000000000000000000000000000000000000000401000000000800000000000000000020000000000000000000000000000000000000000000000000000000000020000000000000000000000000000000000000000000000000000000000000000000000000000000000000000000000080000000000000000000000000000000000000000000000000000000000000000000000000000000000000000000000000000000000000000000000000000000000000000000000000000000000000",
      "type": "0x0",
      "transactionHash": "0x1b057b81da45ead1fb0213ed56efc4e42e93ee7025c9496ffafa8e97de01f557",
      "transactionIndex": "0xf",
      "blockHash": "0x7d6345e898cc1855d4b7b2e1c389c8a11a2b599514432fe3836d9f8d4e9f673f",
      "blockNumber": "0x3c0471f",
      "gasUsed": "0x1917e",
      "effectiveGasPrice": "0x5d22cfc40",
      "from": "0x04e1ec75c9fada2ff30e309e11cb5d2437dc3d4a",
      "to": "0x0fd1b99da7a2802934b16373d1a3cb2f9db50b08",
      "contractAddress": null,
      "l1BaseFeeScalar": "0x0",
      "l1BlobBaseFee": "0x243fb9805d00d7",
      "l1BlobBaseFeeScalar": "0x0",
      "l1Fee": "0x0",
      "l1GasPrice": "0x77998f2",
      "l1GasUsed": "0xba9"
    },
    {
      "status": "0x1",
      "cumulativeGasUsed": "0x1e3f51",
      "logs": [
        {
          "address": "0x186660411ef4b1975834f29b5912b64de91252a2",
          "topics": [
            "0x8faa70878671ccd212d20771b795c50af8fd3ff6cf27f4bde57e5d4de0aeb673"
          ],
          "data": "0x0000000000000000000000000000000000000000000000000000000000000060000000000000000000000000d6e4b0e094c5ae63cdd3f6e622ed22030a3a908b00000000000000000000000000000000000000000000000000000000000001c00000000000000000000000000000000000000000000000000000000000000001000000000000000000000000000000000000000000000000000000000000002000000000000000000000000094491f1108c84a38cf6f060e90b01b5d0ea30e890000000000000000000000000000000000000000000000000000000000000003000000000000000000000000000000000000000000000000000000000000006000000000000000000000000000000000000000000000000000000000000000057d7c2a1c0000000000000000000000000000000000000000000000000000000053a3d62e00000000000000000000000000000000000000000000000000000000736dcb8b00000000000000000000000000000000000000000000000000000000e0ab98b5000000000000000000000000000000000000000000000000000000007d40af98000000000000000000000000000000000000000000000000000000000000000000000000000000000000000000000000000000000000000000000004e1c7392a00000000000000000000000000000000000000000000000000000000",
          "blockHash": "0x7d6345e898cc1855d4b7b2e1c389c8a11a2b599514432fe3836d9f8d4e9f673f",
          "blockNumber": "0x3c0471f",
          "blockTimestamp": "0x69c9cf75",
          "transactionHash": "0x523866dfd531d8482bc91289df1792f17d917bf14cc409420059f91963e1be48",
          "transactionIndex": "0x10",
          "logIndex": "0x31",
          "removed": false
        }
      ],
      "logsBloom": "0x00000000000000000000000000000000000000000000000000000000000000000000000000000000000000000000000000000000000000000000000000000000000000000000000000000000000000000000000001000000000800000000000000010000000000000000000000000000000000000000000000000000000000000020000000000000000000000000000000000000000000000000000000000000000000000000000000000000000000000000000000000000000000000000000000000000000000000000000000000000000000000000000000000000000000000200000000000000000000000000000000000000000000000010000000000000",
      "type": "0x0",
      "transactionHash": "0x523866dfd531d8482bc91289df1792f17d917bf14cc409420059f91963e1be48",
      "transactionIndex": "0x10",
      "blockHash": "0x7d6345e898cc1855d4b7b2e1c389c8a11a2b599514432fe3836d9f8d4e9f673f",
      "blockNumber": "0x3c0471f",
      "gasUsed": "0x1917e",
      "effectiveGasPrice": "0x5d22cfc40",
      "from": "0x04e1ec75c9fada2ff30e309e11cb5d2437dc3d4a",
      "to": "0x186660411ef4b1975834f29b5912b64de91252a2",
      "contractAddress": null,
      "l1BaseFeeScalar": "0x0",
      "l1BlobBaseFee": "0x243fb9805d00d7",
      "l1BlobBaseFeeScalar": "0x0",
      "l1Fee": "0x0",
      "l1GasPrice": "0x77998f2",
      "l1GasUsed": "0xba9"
    },
    {
      "status": "0x1",
      "cumulativeGasUsed": "0x1fd0cf",
      "logs": [
        {
          "address": "0x1ef2c3a529af71b575c788bfe5300161c1861b79",
          "topics": [
            "0x8faa70878671ccd212d20771b795c50af8fd3ff6cf27f4bde57e5d4de0aeb673"
          ],
          "data": "0x0000000000000000000000000000000000000000000000000000000000000060000000000000000000000000d6e4b0e094c5ae63cdd3f6e622ed22030a3a908b00000000000000000000000000000000000000000000000000000000000001c00000000000000000000000000000000000000000000000000000000000000001000000000000000000000000000000000000000000000000000000000000002000000000000000000000000094491f1108c84a38cf6f060e90b01b5d0ea30e890000000000000000000000000000000000000000000000000000000000000003000000000000000000000000000000000000000000000000000000000000006000000000000000000000000000000000000000000000000000000000000000057d7c2a1c0000000000000000000000000000000000000000000000000000000053a3d62e00000000000000000000000000000000000000000000000000000000736dcb8b00000000000000000000000000000000000000000000000000000000e0ab98b5000000000000000000000000000000000000000000000000000000007d40af98000000000000000000000000000000000000000000000000000000000000000000000000000000000000000000000000000000000000000000000004e1c7392a00000000000000000000000000000000000000000000000000000000",
          "blockHash": "0x7d6345e898cc1855d4b7b2e1c389c8a11a2b599514432fe3836d9f8d4e9f673f",
          "blockNumber": "0x3c0471f",
          "blockTimestamp": "0x69c9cf75",
          "transactionHash": "0x414f1c31da93221cd9eeb6816c3bf381ef281438831f484e488003412afc8e0a",
          "transactionIndex": "0x11",
          "logIndex": "0x32",
          "removed": false
        }
      ],
      "logsBloom": "0x00000000000000000000000000000000000000000000000000000000000000000000000000000000000000000000000000000000000000000000000000000000000000000000000000000000000000000000000001000000000800000000000000000000000020000000000000000000000000000000000000000000000000000020000000000000000000000000000000000000000000000000000000000000000002000000000000000000000000040000000000000000000000000000000000000000000000000000000000000000000000000000000000000000000000000000000000000000000000000000000000000000000000000000000000000000",
      "type": "0x0",
      "transactionHash": "0x414f1c31da93221cd9eeb6816c3bf381ef281438831f484e488003412afc8e0a",
      "transactionIndex": "0x11",
      "blockHash": "0x7d6345e898cc1855d4b7b2e1c389c8a11a2b599514432fe3836d9f8d4e9f673f",
      "blockNumber": "0x3c0471f",
      "gasUsed": "0x1917e",
      "effectiveGasPrice": "0x5d22cfc40",
      "from": "0x04e1ec75c9fada2ff30e309e11cb5d2437dc3d4a",
      "to": "0x1ef2c3a529af71b575c788bfe5300161c1861b79",
      "contractAddress": null,
      "l1BaseFeeScalar": "0x0",
      "l1BlobBaseFee": "0x243fb9805d00d7",
      "l1BlobBaseFeeScalar": "0x0",
      "l1Fee": "0x0",
      "l1GasPrice": "0x77998f2",
      "l1GasUsed": "0xba9"
    },
    {
      "status": "0x1",
      "cumulativeGasUsed": "0x26a97d",
      "logs": [
        {
          "address": "0x20454a1d4613529c8e1947217241910848664413",
          "topics": [
            "0x8faa70878671ccd212d20771b795c50af8fd3ff6cf27f4bde57e5d4de0aeb673"
          ],
          "data": "0x0000000000000000000000000000000000000000000000000000000000000060000000000000000000000000d6e4b0e094c5ae63cdd3f6e622ed22030a3a908b00000000000000000000000000000000000000000000000000000000000001c00000000000000000000000000000000000000000000000000000000000000001000000000000000000000000000000000000000000000000000000000000002000000000000000000000000094491f1108c84a38cf6f060e90b01b5d0ea30e890000000000000000000000000000000000000000000000000000000000000003000000000000000000000000000000000000000000000000000000000000006000000000000000000000000000000000000000000000000000000000000000057d7c2a1c0000000000000000000000000000000000000000000000000000000053a3d62e00000000000000000000000000000000000000000000000000000000736dcb8b00000000000000000000000000000000000000000000000000000000e0ab98b5000000000000000000000000000000000000000000000000000000007d40af98000000000000000000000000000000000000000000000000000000000000000000000000000000000000000000000000000000000000000000000004e1c7392a00000000000000000000000000000000000000000000000000000000",
          "blockHash": "0x4166acdfc2e2bfdbae253bd65837917d132a4c0677e62fee7c9508b3c367dc71",
          "blockNumber": "0x3c04720",
          "blockTimestamp": "0x69c9cf76",
          "transactionHash": "0xf0a01d5309aca2308f49ab9a32c2d6dd753cc18d1990b325b99d0f21a79b0a09",
          "transactionIndex": "0x17",
          "logIndex": "0x2c",
          "removed": false
        }
      ],
      "logsBloom": "0x00000000000000000000000000000000000000000000000000000000000000000000000000000000000000000000000000000000000000000000000000000000000000000000000000000000000000000000000001000000000800000000000000000000000000000000000000000000000000000000000000000000000004000020000000000000000000000000000000000000000000000000000000000000000000000000000000000200000000000000000000000000004000000000000000000000000000000000000000000000000000000000000000000000000000000000000000000000000000000000000000000000000000000000000000000000",
      "type": "0x0",
      "transactionHash": "0xf0a01d5309aca2308f49ab9a32c2d6dd753cc18d1990b325b99d0f21a79b0a09",
      "transactionIndex": "0x17",
      "blockHash": "0x4166acdfc2e2bfdbae253bd65837917d132a4c0677e62fee7c9508b3c367dc71",
      "blockNumber": "0x3c04720",
      "gasUsed": "0x1919a",
      "effectiveGasPrice": "0x5d22cfc40",
      "from": "0x04e1ec75c9fada2ff30e309e11cb5d2437dc3d4a",
      "to": "0x20454a1d4613529c8e1947217241910848664413",
      "contractAddress": null,
      "l1BaseFeeScalar": "0x0",
      "l1BlobBaseFee": "0x243fb9805d00d7",
      "l1BlobBaseFeeScalar": "0x0",
      "l1Fee": "0x0",
      "l1GasPrice": "0x77998f2",
      "l1GasUsed": "0xba9"
    },
    {
      "status": "0x1",
      "cumulativeGasUsed": "0x283afb",
      "logs": [
        {
          "address": "0x2085aa46b04ba20f93f24cc51e26e4fc3f0b631d",
          "topics": [
            "0x8faa70878671ccd212d20771b795c50af8fd3ff6cf27f4bde57e5d4de0aeb673"
          ],
          "data": "0x0000000000000000000000000000000000000000000000000000000000000060000000000000000000000000d6e4b0e094c5ae63cdd3f6e622ed22030a3a908b00000000000000000000000000000000000000000000000000000000000001c00000000000000000000000000000000000000000000000000000000000000001000000000000000000000000000000000000000000000000000000000000002000000000000000000000000094491f1108c84a38cf6f060e90b01b5d0ea30e890000000000000000000000000000000000000000000000000000000000000003000000000000000000000000000000000000000000000000000000000000006000000000000000000000000000000000000000000000000000000000000000057d7c2a1c0000000000000000000000000000000000000000000000000000000053a3d62e00000000000000000000000000000000000000000000000000000000736dcb8b00000000000000000000000000000000000000000000000000000000e0ab98b5000000000000000000000000000000000000000000000000000000007d40af98000000000000000000000000000000000000000000000000000000000000000000000000000000000000000000000000000000000000000000000004e1c7392a00000000000000000000000000000000000000000000000000000000",
          "blockHash": "0x4166acdfc2e2bfdbae253bd65837917d132a4c0677e62fee7c9508b3c367dc71",
          "blockNumber": "0x3c04720",
          "blockTimestamp": "0x69c9cf76",
          "transactionHash": "0xb5c6d01c694216f50db33163c1ee467b13a5793edae842bfaed456adf0b0cdd7",
          "transactionIndex": "0x18",
          "logIndex": "0x2d",
          "removed": false
        }
      ],
      "logsBloom": "0x00000000000000000000000000000000000000000000000000000000000000000000000000000000000000000000000000000000000000000000000000000000000000000000000000000000000000000000000001000000000800000000000000000000000000000000000000000000000000000000000000000000000000000020000000000000000000000000000000000000000000000000000000000000000000100000000000000000000000000000000000000000000000000000000000000000000000000000000000000004000000000000000000000000000000010000000000000000000000000000000000000000000000000000000000000000",
      "type": "0x0",
      "transactionHash": "0xb5c6d01c694216f50db33163c1ee467b13a5793edae842bfaed456adf0b0cdd7",
      "transactionIndex": "0x18",
      "blockHash": "0x4166acdfc2e2bfdbae253bd65837917d132a4c0677e62fee7c9508b3c367dc71",
      "blockNumber": "0x3c04720",
      "gasUsed": "0x1917e",
      "effectiveGasPrice": "0x5d22cfc40",
      "from": "0x04e1ec75c9fada2ff30e309e11cb5d2437dc3d4a",
      "to": "0x2085aa46b04ba20f93f24cc51e26e4fc3f0b631d",
      "contractAddress": null,
      "l1BaseFeeScalar": "0x0",
      "l1BlobBaseFee": "0x243fb9805d00d7",
      "l1BlobBaseFeeScalar": "0x0",
      "l1Fee": "0x0",
      "l1GasPrice": "0x77998f2",
      "l1GasUsed": "0xba9"
    },
    {
      "status": "0x1",
      "cumulativeGasUsed": "0x2b9ea0",
      "logs": [
        {
          "address": "0x24b703c965d5ea0347ecefee0f60785655ed45cf",
          "topics": [
            "0x8faa70878671ccd212d20771b795c50af8fd3ff6cf27f4bde57e5d4de0aeb673"
          ],
          "data": "0x0000000000000000000000000000000000000000000000000000000000000060000000000000000000000000d6e4b0e094c5ae63cdd3f6e622ed22030a3a908b00000000000000000000000000000000000000000000000000000000000001c00000000000000000000000000000000000000000000000000000000000000001000000000000000000000000000000000000000000000000000000000000002000000000000000000000000094491f1108c84a38cf6f060e90b01b5d0ea30e890000000000000000000000000000000000000000000000000000000000000003000000000000000000000000000000000000000000000000000000000000006000000000000000000000000000000000000000000000000000000000000000057d7c2a1c0000000000000000000000000000000000000000000000000000000053a3d62e00000000000000000000000000000000000000000000000000000000736dcb8b00000000000000000000000000000000000000000000000000000000e0ab98b5000000000000000000000000000000000000000000000000000000007d40af98000000000000000000000000000000000000000000000000000000000000000000000000000000000000000000000000000000000000000000000004e1c7392a00000000000000000000000000000000000000000000000000000000",
          "blockHash": "0x4166acdfc2e2bfdbae253bd65837917d132a4c0677e62fee7c9508b3c367dc71",
          "blockNumber": "0x3c04720",
          "blockTimestamp": "0x69c9cf76",
          "transactionHash": "0xd2411962beabaa45fac8b496b6f8f2f9ab8ecb309b7722322dd00f7a4e7ccfdd",
          "transactionIndex": "0x1c",
          "logIndex": "0x31",
          "removed": false
        }
      ],
      "logsBloom": "0x00000000000000000000000000000000000000000000000000000000000008000000000000000000000000000000000000000000000000000000000000000000000000000000000000000000000000000000000001000000000800000000000000000000000000000000000000000000000000000000000000000000000000000020000000000000000000000000000000000000000000000000000000000000000000000000000000000000000000000000000040000000000000000000000020000000000000000000000000000000000000000000000000000000000000000000000000000000000000000000000000000000000000000000000000000000",
      "type": "0x0",
      "transactionHash": "0xd2411962beabaa45fac8b496b6f8f2f9ab8ecb309b7722322dd00f7a4e7ccfdd",
      "transactionIndex": "0x1c",
      "blockHash": "0x4166acdfc2e2bfdbae253bd65837917d132a4c0677e62fee7c9508b3c367dc71",
      "blockNumber": "0x3c04720",
      "gasUsed": "0x19194",
      "effectiveGasPrice": "0x5d22cfc40",
      "from": "0x04e1ec75c9fada2ff30e309e11cb5d2437dc3d4a",
      "to": "0x24b703c965d5ea0347ecefee0f60785655ed45cf",
      "contractAddress": null,
      "l1BaseFeeScalar": "0x0",
      "l1BlobBaseFee": "0x243fb9805d00d7",
      "l1BlobBaseFeeScalar": "0x0",
      "l1Fee": "0x0",
      "l1GasPrice": "0x77998f2",
      "l1GasUsed": "0xba9"
    },
    {
      "status": "0x1",
      "cumulativeGasUsed": "0x2d301e",
      "logs": [
        {
          "address": "0x255ced14c5380a4995338491c85ce7de8558f1a0",
          "topics": [
            "0x8faa70878671ccd212d20771b795c50af8fd3ff6cf27f4bde57e5d4de0aeb673"
          ],
          "data": "0x0000000000000000000000000000000000000000000000000000000000000060000000000000000000000000d6e4b0e094c5ae63cdd3f6e622ed22030a3a908b00000000000000000000000000000000000000000000000000000000000001c00000000000000000000000000000000000000000000000000000000000000001000000000000000000000000000000000000000000000000000000000000002000000000000000000000000094491f1108c84a38cf6f060e90b01b5d0ea30e890000000000000000000000000000000000000000000000000000000000000003000000000000000000000000000000000000000000000000000000000000006000000000000000000000000000000000000000000000000000000000000000057d7c2a1c0000000000000000000000000000000000000000000000000000000053a3d62e00000000000000000000000000000000000000000000000000000000736dcb8b00000000000000000000000000000000000000000000000000000000e0ab98b5000000000000000000000000000000000000000000000000000000007d40af98000000000000000000000000000000000000000000000000000000000000000000000000000000000000000000000000000000000000000000000004e1c7392a00000000000000000000000000000000000000000000000000000000",
          "blockHash": "0x4166acdfc2e2bfdbae253bd65837917d132a4c0677e62fee7c9508b3c367dc71",
          "blockNumber": "0x3c04720",
          "blockTimestamp": "0x69c9cf76",
          "transactionHash": "0x2809113435f9cbfe0da9fdb7cd22bb1248d185b3590416614a437a9bb5c81e56",
          "transactionIndex": "0x1d",
          "logIndex": "0x32",
          "removed": false
        }
      ],
      "logsBloom": "0x00000000000010000000000000000800000000000000000000000000000000000000000000000000000000000000000000000000000000000000000000000000000000000000000000000000000000000000000001000000000800000000000000000000000000000000000000000000000000000000000000000000000000000020000000000000000000000000000000000000000000000000000000000000000000000000080000000000000000000000000000000000000000000000000000000000000000000000000000000000000000000000000000000000000000000000000000000000000000000000000000000000000000000000000000000000",
      "type": "0x0",
      "transactionHash": "0x2809113435f9cbfe0da9fdb7cd22bb1248d185b3590416614a437a9bb5c81e56",
      "transactionIndex": "0x1d",
      "blockHash": "0x4166acdfc2e2bfdbae253bd65837917d132a4c0677e62fee7c9508b3c367dc71",
      "blockNumber": "0x3c04720",
      "gasUsed": "0x1917e",
      "effectiveGasPrice": "0x5d22cfc40",
      "from": "0x04e1ec75c9fada2ff30e309e11cb5d2437dc3d4a",
      "to": "0x255ced14c5380a4995338491c85ce7de8558f1a0",
      "contractAddress": null,
      "l1BaseFeeScalar": "0x0",
      "l1BlobBaseFee": "0x243fb9805d00d7",
      "l1BlobBaseFeeScalar": "0x0",
      "l1Fee": "0x0",
      "l1GasPrice": "0x77998f2",
      "l1GasUsed": "0xba9"
    },
    {
      "status": "0x1",
      "cumulativeGasUsed": "0x25af02",
      "logs": [
        {
          "address": "0x33080d27f98747f092021bdee4a006eda42ff2f7",
          "topics": [
            "0x8faa70878671ccd212d20771b795c50af8fd3ff6cf27f4bde57e5d4de0aeb673"
          ],
          "data": "0x0000000000000000000000000000000000000000000000000000000000000060000000000000000000000000d6e4b0e094c5ae63cdd3f6e622ed22030a3a908b00000000000000000000000000000000000000000000000000000000000001c00000000000000000000000000000000000000000000000000000000000000001000000000000000000000000000000000000000000000000000000000000002000000000000000000000000094491f1108c84a38cf6f060e90b01b5d0ea30e890000000000000000000000000000000000000000000000000000000000000003000000000000000000000000000000000000000000000000000000000000006000000000000000000000000000000000000000000000000000000000000000057d7c2a1c0000000000000000000000000000000000000000000000000000000053a3d62e00000000000000000000000000000000000000000000000000000000736dcb8b00000000000000000000000000000000000000000000000000000000e0ab98b5000000000000000000000000000000000000000000000000000000007d40af98000000000000000000000000000000000000000000000000000000000000000000000000000000000000000000000000000000000000000000000004e1c7392a00000000000000000000000000000000000000000000000000000000",
          "blockHash": "0x9e2026fcb57cfa91660d8e1deb74f604cc29b640d4da9a8df59d74a6ca5bbf45",
          "blockNumber": "0x3c04721",
          "blockTimestamp": "0x69c9cf77",
          "transactionHash": "0x74915d7354a7d873eb4178c424d321474706e0fb254cdae7d8b56c73bd183d75",
          "transactionIndex": "0x11",
          "logIndex": "0x64",
          "removed": false
        }
      ],
      "logsBloom": "0x00000000000000000000001000000000000000000000000000000000000000000000000000000040000000000000000000000000000000000000000000000000000000000000000000000000000000000000000001000000000800000000000000000000000000000010000000000000000000000000000000000000000000000020000000000000000000000000000000000000000000000000000000000000000000000000000000000000000000000000000000000000000000000000000000000000000000000000000000000000000000000000000000000000000000000000000000000000000000000000000000000000000000000000000000000000",
      "type": "0x0",
      "transactionHash": "0x74915d7354a7d873eb4178c424d321474706e0fb254cdae7d8b56c73bd183d75",
      "transactionIndex": "0x11",
      "blockHash": "0x9e2026fcb57cfa91660d8e1deb74f604cc29b640d4da9a8df59d74a6ca5bbf45",
      "blockNumber": "0x3c04721",
      "gasUsed": "0x1917e",
      "effectiveGasPrice": "0x5d22cfc40",
      "from": "0x04e1ec75c9fada2ff30e309e11cb5d2437dc3d4a",
      "to": "0x33080d27f98747f092021bdee4a006eda42ff2f7",
      "contractAddress": null,
      "l1BaseFeeScalar": "0x0",
      "l1BlobBaseFee": "0x243fb9805d00d7",
      "l1BlobBaseFeeScalar": "0x0",
      "l1Fee": "0x0",
      "l1GasPrice": "0x77998f2",
      "l1GasUsed": "0xba9"
    },
    {
      "status": "0x1",
      "cumulativeGasUsed": "0x289e86",
      "logs": [
        {
          "address": "0x335af2c52fd700639f7ceb2cbb86544fb0739ee5",
          "topics": [
            "0x8faa70878671ccd212d20771b795c50af8fd3ff6cf27f4bde57e5d4de0aeb673"
          ],
          "data": "0x0000000000000000000000000000000000000000000000000000000000000060000000000000000000000000d6e4b0e094c5ae63cdd3f6e622ed22030a3a908b00000000000000000000000000000000000000000000000000000000000001c00000000000000000000000000000000000000000000000000000000000000001000000000000000000000000000000000000000000000000000000000000002000000000000000000000000094491f1108c84a38cf6f060e90b01b5d0ea30e890000000000000000000000000000000000000000000000000000000000000003000000000000000000000000000000000000000000000000000000000000006000000000000000000000000000000000000000000000000000000000000000057d7c2a1c0000000000000000000000000000000000000000000000000000000053a3d62e00000000000000000000000000000000000000000000000000000000736dcb8b00000000000000000000000000000000000000000000000000000000e0ab98b5000000000000000000000000000000000000000000000000000000007d40af98000000000000000000000000000000000000000000000000000000000000000000000000000000000000000000000000000000000000000000000004e1c7392a00000000000000000000000000000000000000000000000000000000",
          "blockHash": "0x9e2026fcb57cfa91660d8e1deb74f604cc29b640d4da9a8df59d74a6ca5bbf45",
          "blockNumber": "0x3c04721",
          "blockTimestamp": "0x69c9cf77",
          "transactionHash": "0x5825c9fc862910b1d45cd69714436bd463bd25d3f39a771ec9a205a34e20c584",
          "transactionIndex": "0x14",
          "logIndex": "0x67",
          "removed": false
        }
      ],
      "logsBloom": "0x00000000000000000000000000000000000000000000000000000000000000000000000010000000000000000000000000000000000000000000004000000000000000000000000000000000000000000000000001000000000800000000000000000000000000000000000000000000000000000000000000000000000000000020000000000000000000000000000000000000000000000000000000000000000000000000000000000000000000000000000000000000000000000000000000000000000000000000000000000010000000000000000000000000000000000000000000000000000000000000000000000000000000000000000000000000",
      "type": "0x0",
      "transactionHash": "0x5825c9fc862910b1d45cd69714436bd463bd25d3f39a771ec9a205a34e20c584",
      "transactionIndex": "0x14",
      "blockHash": "0x9e2026fcb57cfa91660d8e1deb74f604cc29b640d4da9a8df59d74a6ca5bbf45",
      "blockNumber": "0x3c04721",
      "gasUsed": "0x19194",
      "effectiveGasPrice": "0x5d22cfc40",
      "from": "0x04e1ec75c9fada2ff30e309e11cb5d2437dc3d4a",
      "to": "0x335af2c52fd700639f7ceb2cbb86544fb0739ee5",
      "contractAddress": null,
      "l1BaseFeeScalar": "0x0",
      "l1BlobBaseFee": "0x243fb9805d00d7",
      "l1BlobBaseFeeScalar": "0x0",
      "l1Fee": "0x0",
      "l1GasPrice": "0x77998f2",
      "l1GasUsed": "0xba9"
    }
  ],
  "libraries": [
    "pkg/contracts/src/CVStrategy/ConvictionsUtils.sol:ConvictionsUtils:0x70b24063ea84765B324387e21159B41aF48A9440",
    "pkg/contracts/src/CVStrategy/PowerManagementUtils.sol:PowerManagementUtils:0xB07d76F6001Cc62739d39cb0C5E9c58E08230486"
  ],
  "pending": [],
  "returns": {},
  "timestamp": 1774833527443,
  "chain": 42220,
  "commit": "8e5fd5852"
}