{
  "transactions": [
    {
      "hash": "0xa167814fb003cfef064d432d6336b953ca49f2a0722b6b5eba3e62a02c9ca1cf",
      "transactionType": "CALL",
      "contractName": "ERC1967Proxy",
      "contractAddress": "0x3764607a0a721981780b798a02c2b1691d6baa39",
      "function": null,
      "arguments": null,
      "transaction": {
        "from": "0x04e1ec75c9fada2ff30e309e11cb5d2437dc3d4a",
        "to": "0x3764607a0a721981780b798a02c2b1691d6baa39",
        "gas": "0x22a8e",
        "value": "0x0",
        "input": "0x1f931c1c0000000000000000000000000000000000000000000000000000000000000060000000000000000000000000d6e4b0e094c5ae63cdd3f6e622ed22030a3a908b00000000000000000000000000000000000000000000000000000000000001c00000000000000000000000000000000000000000000000000000000000000001000000000000000000000000000000000000000000000000000000000000002000000000000000000000000094491f1108c84a38cf6f060e90b01b5d0ea30e890000000000000000000000000000000000000000000000000000000000000003000000000000000000000000000000000000000000000000000000000000006000000000000000000000000000000000000000000000000000000000000000057d7c2a1c0000000000000000000000000000000000000000000000000000000053a3d62e00000000000000000000000000000000000000000000000000000000736dcb8b00000000000000000000000000000000000000000000000000000000e0ab98b5000000000000000000000000000000000000000000000000000000007d40af98000000000000000000000000000000000000000000000000000000000000000000000000000000000000000000000000000000000000000000000004e1c7392a00000000000000000000000000000000000000000000000000000000",
        "nonce": "0x16",
        "chainId": "0xa4ec"
      },
      "additionalContracts": [],
      "isFixedGasLimit": false
    },
    {
      "hash": "0x0e29ccd98af7b2089c5a84f1f1f14e0b97faee5f76b454c87edcf6fbd6c1bab0",
      "transactionType": "CALL",
      "contractName": "ERC1967Proxy",
      "contractAddress": "0x38258ae8832bf6f1de12586df0b1ea96cd839134",
      "function": null,
      "arguments": null,
      "transaction": {
        "from": "0x04e1ec75c9fada2ff30e309e11cb5d2437dc3d4a",
        "to": "0x38258ae8832bf6f1de12586df0b1ea96cd839134",
        "gas": "0x22aad",
        "value": "0x0",
        "input": "0x1f931c1c0000000000000000000000000000000000000000000000000000000000000060000000000000000000000000d6e4b0e094c5ae63cdd3f6e622ed22030a3a908b00000000000000000000000000000000000000000000000000000000000001c00000000000000000000000000000000000000000000000000000000000000001000000000000000000000000000000000000000000000000000000000000002000000000000000000000000094491f1108c84a38cf6f060e90b01b5d0ea30e890000000000000000000000000000000000000000000000000000000000000003000000000000000000000000000000000000000000000000000000000000006000000000000000000000000000000000000000000000000000000000000000057d7c2a1c0000000000000000000000000000000000000000000000000000000053a3d62e00000000000000000000000000000000000000000000000000000000736dcb8b00000000000000000000000000000000000000000000000000000000e0ab98b5000000000000000000000000000000000000000000000000000000007d40af98000000000000000000000000000000000000000000000000000000000000000000000000000000000000000000000000000000000000000000000004e1c7392a00000000000000000000000000000000000000000000000000000000",
        "nonce": "0x17",
        "chainId": "0xa4ec"
      },
      "additionalContracts": [],
      "isFixedGasLimit": false
    },
    {
      "hash": "0xc34935af18ff611dc73930cef1367d773ca733761a3aa5de255b91e93c4f6247",
      "transactionType": "CALL",
      "contractName": "ERC1967Proxy",
      "contractAddress": "0x3911cf457544cdbf949a58e592b0e4964e4a0c53",
      "function": null,
      "arguments": null,
      "transaction": {
        "from": "0x04e1ec75c9fada2ff30e309e11cb5d2437dc3d4a",
        "to": "0x3911cf457544cdbf949a58e592b0e4964e4a0c53",
        "gas": "0x22a8e",
        "value": "0x0",
        "input": "0x1f931c1c0000000000000000000000000000000000000000000000000000000000000060000000000000000000000000d6e4b0e094c5ae63cdd3f6e622ed22030a3a908b00000000000000000000000000000000000000000000000000000000000001c00000000000000000000000000000000000000000000000000000000000000001000000000000000000000000000000000000000000000000000000000000002000000000000000000000000094491f1108c84a38cf6f060e90b01b5d0ea30e890000000000000000000000000000000000000000000000000000000000000003000000000000000000000000000000000000000000000000000000000000006000000000000000000000000000000000000000000000000000000000000000057d7c2a1c0000000000000000000000000000000000000000000000000000000053a3d62e00000000000000000000000000000000000000000000000000000000736dcb8b00000000000000000000000000000000000000000000000000000000e0ab98b5000000000000000000000000000000000000000000000000000000007d40af98000000000000000000000000000000000000000000000000000000000000000000000000000000000000000000000000000000000000000000000004e1c7392a00000000000000000000000000000000000000000000000000000000",
        "nonce": "0x18",
        "chainId": "0xa4ec"
      },
      "additionalContracts": [],
      "isFixedGasLimit": false
    },
    {
      "hash": "0xd7b528a92f1dcf590071bedccc7f40b354092852537a07c995470d8d8aac7c21",
      "transactionType": "CALL",
      "contractName": null,
      "contractAddress": "0x3f39af5c2d5356c1c0a8d0d67c2c4cf68374b59e",
      "function": "diamondCut((address,uint8,bytes4[])[],address,bytes)",
      "arguments": [
        "[(0x94491f1108c84a38cf6f060e90b01B5D0ea30e89, 3, [0x7d7c2a1c, 0x53a3d62e, 0x736dcb8b, 0xe0ab98b5, 0x7d40af98])]",
        "0xD6E4b0e094C5aE63cDd3f6e622ed22030A3a908B",
        "0xe1c7392a"
      ],
      "transaction": {
        "from": "0x04e1ec75c9fada2ff30e309e11cb5d2437dc3d4a",
        "to": "0x3f39af5c2d5356c1c0a8d0d67c2c4cf68374b59e",
        "gas": "0x22a8e",
        "value": "0x0",
        "input": "0x1f931c1c0000000000000000000000000000000000000000000000000000000000000060000000000000000000000000d6e4b0e094c5ae63cdd3f6e622ed22030a3a908b00000000000000000000000000000000000000000000000000000000000001c00000000000000000000000000000000000000000000000000000000000000001000000000000000000000000000000000000000000000000000000000000002000000000000000000000000094491f1108c84a38cf6f060e90b01b5d0ea30e890000000000000000000000000000000000000000000000000000000000000003000000000000000000000000000000000000000000000000000000000000006000000000000000000000000000000000000000000000000000000000000000057d7c2a1c0000000000000000000000000000000000000000000000000000000053a3d62e00000000000000000000000000000000000000000000000000000000736dcb8b00000000000000000000000000000000000000000000000000000000e0ab98b5000000000000000000000000000000000000000000000000000000007d40af98000000000000000000000000000000000000000000000000000000000000000000000000000000000000000000000000000000000000000000000004e1c7392a00000000000000000000000000000000000000000000000000000000",
        "nonce": "0x19",
        "chainId": "0xa4ec"
      },
      "additionalContracts": [],
      "isFixedGasLimit": false
    },
    {
      "hash": "0xb5171473dfbac7d928e2ac45de2ee3bf994fcda8587102baefd5bd44762495ae",
      "transactionType": "CALL",
      "contractName": "ERC1967Proxy",
      "contractAddress": "0x432952e34729f92b08443a573b8a9cd60557cea7",
      "function": null,
      "arguments": null,
      "transaction": {
        "from": "0x04e1ec75c9fada2ff30e309e11cb5d2437dc3d4a",
        "to": "0x432952e34729f92b08443a573b8a9cd60557cea7",
        "gas": "0x22a8e",
        "value": "0x0",
        "input": "0x1f931c1c0000000000000000000000000000000000000000000000000000000000000060000000000000000000000000d6e4b0e094c5ae63cdd3f6e622ed22030a3a908b00000000000000000000000000000000000000000000000000000000000001c00000000000000000000000000000000000000000000000000000000000000001000000000000000000000000000000000000000000000000000000000000002000000000000000000000000094491f1108c84a38cf6f060e90b01b5d0ea30e890000000000000000000000000000000000000000000000000000000000000003000000000000000000000000000000000000000000000000000000000000006000000000000000000000000000000000000000000000000000000000000000057d7c2a1c0000000000000000000000000000000000000000000000000000000053a3d62e00000000000000000000000000000000000000000000000000000000736dcb8b00000000000000000000000000000000000000000000000000000000e0ab98b5000000000000000000000000000000000000000000000000000000007d40af98000000000000000000000000000000000000000000000000000000000000000000000000000000000000000000000000000000000000000000000004e1c7392a00000000000000000000000000000000000000000000000000000000",
        "nonce": "0x1a",
        "chainId": "0xa4ec"
      },
      "additionalContracts": [],
      "isFixedGasLimit": false
    },
    {
      "hash": "0xbcb7f24f2de9560a5c3b6dce3a9da505095edb4a9612a6fcdc4bf58df651c6b0",
      "transactionType": "CALL",
      "contractName": "ERC1967Proxy",
      "contractAddress": "0x4aff6d90e295360a012d2f1f42d9c7ccab44e5f4",
      "function": null,
      "arguments": null,
      "transaction": {
        "from": "0x04e1ec75c9fada2ff30e309e11cb5d2437dc3d4a",
        "to": "0x4aff6d90e295360a012d2f1f42d9c7ccab44e5f4",
        "gas": "0x22a8e",
        "value": "0x0",
        "input": "0x1f931c1c0000000000000000000000000000000000000000000000000000000000000060000000000000000000000000d6e4b0e094c5ae63cdd3f6e622ed22030a3a908b00000000000000000000000000000000000000000000000000000000000001c00000000000000000000000000000000000000000000000000000000000000001000000000000000000000000000000000000000000000000000000000000002000000000000000000000000094491f1108c84a38cf6f060e90b01b5d0ea30e890000000000000000000000000000000000000000000000000000000000000003000000000000000000000000000000000000000000000000000000000000006000000000000000000000000000000000000000000000000000000000000000057d7c2a1c0000000000000000000000000000000000000000000000000000000053a3d62e00000000000000000000000000000000000000000000000000000000736dcb8b00000000000000000000000000000000000000000000000000000000e0ab98b5000000000000000000000000000000000000000000000000000000007d40af98000000000000000000000000000000000000000000000000000000000000000000000000000000000000000000000000000000000000000000000004e1c7392a00000000000000000000000000000000000000000000000000000000",
        "nonce": "0x1b",
        "chainId": "0xa4ec"
      },
      "additionalContracts": [],
      "isFixedGasLimit": false
    },
    {
      "hash": "0x7cd96a055ab21d88b5af3bb3f23d9b733379121612f55f716f6be6d62595a38d",
      "transactionType": "CALL",
      "contractName": "ERC1967Proxy",
      "contractAddress": "0x4c3925ea9996923025d951498c18691d785fbf21",
      "function": null,
      "arguments": null,
      "transaction": {
        "from": "0x04e1ec75c9fada2ff30e309e11cb5d2437dc3d4a",
        "to": "0x4c3925ea9996923025d951498c18691d785fbf21",
        "gas": "0x22a8e",
        "value": "0x0",
        "input": "0x1f931c1c0000000000000000000000000000000000000000000000000000000000000060000000000000000000000000d6e4b0e094c5ae63cdd3f6e622ed22030a3a908b00000000000000000000000000000000000000000000000000000000000001c00000000000000000000000000000000000000000000000000000000000000001000000000000000000000000000000000000000000000000000000000000002000000000000000000000000094491f1108c84a38cf6f060e90b01b5d0ea30e890000000000000000000000000000000000000000000000000000000000000003000000000000000000000000000000000000000000000000000000000000006000000000000000000000000000000000000000000000000000000000000000057d7c2a1c0000000000000000000000000000000000000000000000000000000053a3d62e00000000000000000000000000000000000000000000000000000000736dcb8b00000000000000000000000000000000000000000000000000000000e0ab98b5000000000000000000000000000000000000000000000000000000007d40af98000000000000000000000000000000000000000000000000000000000000000000000000000000000000000000000000000000000000000000000004e1c7392a00000000000000000000000000000000000000000000000000000000",
        "nonce": "0x1c",
        "chainId": "0xa4ec"
      },
      "additionalContracts": [],
      "isFixedGasLimit": false
    },
    {
      "hash": "0x14f64b2a87f1e4e49d60f9a12031952a209e05d5ab2177b40f644036ffa9c4ad",
      "transactionType": "CALL",
      "contractName": "ERC1967Proxy",
      "contractAddress": "0x4ce39a977961befa4d4bd546f8454ab798f1ec1d",
      "function": null,
      "arguments": null,
      "transaction": {
        "from": "0x04e1ec75c9fada2ff30e309e11cb5d2437dc3d4a",
        "to": "0x4ce39a977961befa4d4bd546f8454ab798f1ec1d",
        "gas": "0x22a8e",
        "value": "0x0",
        "input": "0x1f931c1c0000000000000000000000000000000000000000000000000000000000000060000000000000000000000000d6e4b0e094c5ae63cdd3f6e622ed22030a3a908b00000000000000000000000000000000000000000000000000000000000001c00000000000000000000000000000000000000000000000000000000000000001000000000000000000000000000000000000000000000000000000000000002000000000000000000000000094491f1108c84a38cf6f060e90b01b5d0ea30e890000000000000000000000000000000000000000000000000000000000000003000000000000000000000000000000000000000000000000000000000000006000000000000000000000000000000000000000000000000000000000000000057d7c2a1c0000000000000000000000000000000000000000000000000000000053a3d62e00000000000000000000000000000000000000000000000000000000736dcb8b00000000000000000000000000000000000000000000000000000000e0ab98b5000000000000000000000000000000000000000000000000000000007d40af98000000000000000000000000000000000000000000000000000000000000000000000000000000000000000000000000000000000000000000000004e1c7392a00000000000000000000000000000000000000000000000000000000",
        "nonce": "0x1d",
        "chainId": "0xa4ec"
      },
      "additionalContracts": [],
      "isFixedGasLimit": false
    },
    {
      "hash": "0x9467a56c60819c99bffeb32150ba84450a1cc881fd9bfd177df2f2e0ff964a3c",
      "transactionType": "CALL",
      "contractName": "ERC1967Proxy",
      "contractAddress": "0x4d28599ddcba0b041dca0cfee3337048120405cf",
      "function": null,
      "arguments": null,
      "transaction": {
        "from": "0x04e1ec75c9fada2ff30e309e11cb5d2437dc3d4a",
        "to": "0x4d28599ddcba0b041dca0cfee3337048120405cf",
        "gas": "0x22a8e",
        "value": "0x0",
        "input": "0x1f931c1c0000000000000000000000000000000000000000000000000000000000000060000000000000000000000000d6e4b0e094c5ae63cdd3f6e622ed22030a3a908b00000000000000000000000000000000000000000000000000000000000001c00000000000000000000000000000000000000000000000000000000000000001000000000000000000000000000000000000000000000000000000000000002000000000000000000000000094491f1108c84a38cf6f060e90b01b5d0ea30e890000000000000000000000000000000000000000000000000000000000000003000000000000000000000000000000000000000000000000000000000000006000000000000000000000000000000000000000000000000000000000000000057d7c2a1c0000000000000000000000000000000000000000000000000000000053a3d62e00000000000000000000000000000000000000000000000000000000736dcb8b00000000000000000000000000000000000000000000000000000000e0ab98b5000000000000000000000000000000000000000000000000000000007d40af98000000000000000000000000000000000000000000000000000000000000000000000000000000000000000000000000000000000000000000000004e1c7392a00000000000000000000000000000000000000000000000000000000",
        "nonce": "0x1e",
        "chainId": "0xa4ec"
      },
      "additionalContracts": [],
      "isFixedGasLimit": false
    },
    {
      "hash": "0xd5791da74d5ed673aa4616e0a3d39f2b3f3cbd77a9634f8e7b11b78228e747af",
      "transactionType": "CALL",
      "contractName": "ERC1967Proxy",
      "contractAddress": "0x4db6295640c3d87e3fae7bd150b4ac58e33870fa",
      "function": null,
      "arguments": null,
      "transaction": {
        "from": "0x04e1ec75c9fada2ff30e309e11cb5d2437dc3d4a",
        "to": "0x4db6295640c3d87e3fae7bd150b4ac58e33870fa",
        "gas": "0x22a8e",
        "value": "0x0",
        "input": "0x1f931c1c0000000000000000000000000000000000000000000000000000000000000060000000000000000000000000d6e4b0e094c5ae63cdd3f6e622ed22030a3a908b00000000000000000000000000000000000000000000000000000000000001c00000000000000000000000000000000000000000000000000000000000000001000000000000000000000000000000000000000000000000000000000000002000000000000000000000000094491f1108c84a38cf6f060e90b01b5d0ea30e890000000000000000000000000000000000000000000000000000000000000003000000000000000000000000000000000000000000000000000000000000006000000000000000000000000000000000000000000000000000000000000000057d7c2a1c0000000000000000000000000000000000000000000000000000000053a3d62e00000000000000000000000000000000000000000000000000000000736dcb8b00000000000000000000000000000000000000000000000000000000e0ab98b5000000000000000000000000000000000000000000000000000000007d40af98000000000000000000000000000000000000000000000000000000000000000000000000000000000000000000000000000000000000000000000004e1c7392a00000000000000000000000000000000000000000000000000000000",
        "nonce": "0x1f",
        "chainId": "0xa4ec"
      },
      "additionalContracts": [],
      "isFixedGasLimit": false
    }
  ],
  "receipts": [
    {
      "status": "0x1",
      "cumulativeGasUsed": "0x159430",
      "logs": [
        {
          "address": "0x3764607a0a721981780b798a02c2b1691d6baa39",
          "topics": [
            "0x8faa70878671ccd212d20771b795c50af8fd3ff6cf27f4bde57e5d4de0aeb673"
          ],
          "data": "0x0000000000000000000000000000000000000000000000000000000000000060000000000000000000000000d6e4b0e094c5ae63cdd3f6e622ed22030a3a908b00000000000000000000000000000000000000000000000000000000000001c00000000000000000000000000000000000000000000000000000000000000001000000000000000000000000000000000000000000000000000000000000002000000000000000000000000094491f1108c84a38cf6f060e90b01b5d0ea30e890000000000000000000000000000000000000000000000000000000000000003000000000000000000000000000000000000000000000000000000000000006000000000000000000000000000000000000000000000000000000000000000057d7c2a1c0000000000000000000000000000000000000000000000000000000053a3d62e00000000000000000000000000000000000000000000000000000000736dcb8b00000000000000000000000000000000000000000000000000000000e0ab98b5000000000000000000000000000000000000000000000000000000007d40af98000000000000000000000000000000000000000000000000000000000000000000000000000000000000000000000000000000000000000000000004e1c7392a00000000000000000000000000000000000000000000000000000000",
          "blockHash": "0xc971d791b6c69cde8d54755cecdba9314fb3a164ff923496f7e6194d8f684933",
          "blockNumber": "0x3c047fc",
          "blockTimestamp": "0x69c9d052",
          "transactionHash": "0xbcb7f24f2de9560a5c3b6dce3a9da505095edb4a9612a6fcdc4bf58df651c6b0",
          "transactionIndex": "0xd",
          "logIndex": "0x25",
          "removed": false
        }
      ],
      "logsBloom": "0x00000000000000000000000000000000000000000000000000000000000000000000000000000000000000000000000000000000000000000000000000000000000000000000000000000000000000000000000001000000000800000000000000000000000000000000000000000000000000000000000000000000000000000020000000000000000000000000000000000000000000000000000000000000000800000000000000000000000000000000000000000000000080000000010000000000000000000000000000000000000000000000000000000000000000000000000000000000000000000000000000000000000000000000000000000000",
      "type": "0x0",
      "transactionHash": "0xbcb7f24f2de9560a5c3b6dce3a9da505095edb4a9612a6fcdc4bf58df651c6b0",
      "transactionIndex": "0xd",
      "blockHash": "0xc971d791b6c69cde8d54755cecdba9314fb3a164ff923496f7e6194d8f684933",
      "blockNumber": "0x3c047fc",
      "gasUsed": "0x1917e",
      "effectiveGasPrice": "0x5d22cfc40",
      "from": "0x04e1ec75c9fada2ff30e309e11cb5d2437dc3d4a",
      "to": "0x3764607a0a721981780b798a02c2b1691d6baa39",
      "contractAddress": null,
      "l1BaseFeeScalar": "0x0",
      "l1BlobBaseFee": "0x184413e457de84",
      "l1BlobBaseFeeScalar": "0x0",
      "l1Fee": "0x0",
      "l1GasPrice": "0x694b85a",
      "l1GasUsed": "0xba9"
    },
    {
      "status": "0x1",
      "cumulativeGasUsed": "0x1725c4",
      "logs": [
        {
          "address": "0x38258ae8832bf6f1de12586df0b1ea96cd839134",
          "topics": [
            "0x8faa70878671ccd212d20771b795c50af8fd3ff6cf27f4bde57e5d4de0aeb673"
          ],
          "data": "0x0000000000000000000000000000000000000000000000000000000000000060000000000000000000000000d6e4b0e094c5ae63cdd3f6e622ed22030a3a908b00000000000000000000000000000000000000000000000000000000000001c00000000000000000000000000000000000000000000000000000000000000001000000000000000000000000000000000000000000000000000000000000002000000000000000000000000094491f1108c84a38cf6f060e90b01b5d0ea30e890000000000000000000000000000000000000000000000000000000000000003000000000000000000000000000000000000000000000000000000000000006000000000000000000000000000000000000000000000000000000000000000057d7c2a1c0000000000000000000000000000000000000000000000000000000053a3d62e00000000000000000000000000000000000000000000000000000000736dcb8b00000000000000000000000000000000000000000000000000000000e0ab98b5000000000000000000000000000000000000000000000000000000007d40af98000000000000000000000000000000000000000000000000000000000000000000000000000000000000000000000000000000000000000000000004e1c7392a00000000000000000000000000000000000000000000000000000000",
          "blockHash": "0xc971d791b6c69cde8d54755cecdba9314fb3a164ff923496f7e6194d8f684933",
          "blockNumber": "0x3c047fc",
          "blockTimestamp": "0x69c9d052",
          "transactionHash": "0xd7b528a92f1dcf590071bedccc7f40b354092852537a07c995470d8d8aac7c21",
          "transactionIndex": "0xe",
          "logIndex": "0x26",
          "removed": false
        }
      ],
      "logsBloom": "0x00000000000000000000000000000000000000000000000000000000000000000000000000000000000000000000000000000000000000000000000000000000000000000000000000000000000000000000000001000000000800000000000000000000000000000000000000000000000000000000000000000008000000000020000000000000000000000000000000000000000000000000000000000000000000000000000000000000004000000000000000000000000100000000000000000000000000000000000000000000000000000000000000000000000000000000000000000000000000000000000000000000000000000000000000000000",
      "type": "0x0",
      "transactionHash": "0xd7b528a92f1dcf590071bedccc7f40b354092852537a07c995470d8d8aac7c21",
      "transactionIndex": "0xe",
      "blockHash": "0xc971d791b6c69cde8d54755cecdba9314fb3a164ff923496f7e6194d8f684933",
      "blockNumber": "0x3c047fc",
      "gasUsed": "0x19194",
      "effectiveGasPrice": "0x5d22cfc40",
      "from": "0x04e1ec75c9fada2ff30e309e11cb5d2437dc3d4a",
      "to": "0x38258ae8832bf6f1de12586df0b1ea96cd839134",
      "contractAddress": null,
      "l1BaseFeeScalar": "0x0",
      "l1BlobBaseFee": "0x184413e457de84",
      "l1BlobBaseFeeScalar": "0x0",
      "l1Fee": "0x0",
      "l1GasPrice": "0x694b85a",
      "l1GasUsed": "0xba9"
    },
    {
      "status": "0x1",
      "cumulativeGasUsed": "0x19ee00",
      "logs": [
        {
          "address": "0x3911cf457544cdbf949a58e592b0e4964e4a0c53",
          "topics": [
            "0x8faa70878671ccd212d20771b795c50af8fd3ff6cf27f4bde57e5d4de0aeb673"
          ],
          "data": "0x0000000000000000000000000000000000000000000000000000000000000060000000000000000000000000d6e4b0e094c5ae63cdd3f6e622ed22030a3a908b00000000000000000000000000000000000000000000000000000000000001c00000000000000000000000000000000000000000000000000000000000000001000000000000000000000000000000000000000000000000000000000000002000000000000000000000000094491f1108c84a38cf6f060e90b01b5d0ea30e890000000000000000000000000000000000000000000000000000000000000003000000000000000000000000000000000000000000000000000000000000006000000000000000000000000000000000000000000000000000000000000000057d7c2a1c0000000000000000000000000000000000000000000000000000000053a3d62e00000000000000000000000000000000000000000000000000000000736dcb8b00000000000000000000000000000000000000000000000000000000e0ab98b5000000000000000000000000000000000000000000000000000000007d40af98000000000000000000000000000000000000000000000000000000000000000000000000000000000000000000000000000000000000000000000004e1c7392a00000000000000000000000000000000000000000000000000000000",
          "blockHash": "0xc971d791b6c69cde8d54755cecdba9314fb3a164ff923496f7e6194d8f684933",
          "blockNumber": "0x3c047fc",
          "blockTimestamp": "0x69c9d052",
          "transactionHash": "0xd5791da74d5ed673aa4616e0a3d39f2b3f3cbd77a9634f8e7b11b78228e747af",
          "transactionIndex": "0x11",
          "logIndex": "0x29",
          "removed": false
        }
      ],
      "logsBloom": "0x00800000000000000000000000000000000000000000000000000000000000000000000000000000000000000000000000000000000000000000000000000000000000000000000000000000000000000000000001000000000800000000000000000000001000000000000000000000000000000000000000000000000000000020000000000000000000000000000000000000000000000000000000000000000000000000000000000000000000000000000000000000000000000000000000000000000000000000000000000000000000000000000000000000000000000000000002000000000000000000000000000000000000000000000000000000",
      "type": "0x0",
      "transactionHash": "0xd5791da74d5ed673aa4616e0a3d39f2b3f3cbd77a9634f8e7b11b78228e747af",
      "transactionIndex": "0x11",
      "blockHash": "0xc971d791b6c69cde8d54755cecdba9314fb3a164ff923496f7e6194d8f684933",
      "blockNumber": "0x3c047fc",
      "gasUsed": "0x1917e",
      "effectiveGasPrice": "0x5d22cfc40",
      "from": "0x04e1ec75c9fada2ff30e309e11cb5d2437dc3d4a",
      "to": "0x3911cf457544cdbf949a58e592b0e4964e4a0c53",
      "contractAddress": null,
      "l1BaseFeeScalar": "0x0",
      "l1BlobBaseFee": "0x184413e457de84",
      "l1BlobBaseFeeScalar": "0x0",
      "l1Fee": "0x0",
      "l1GasPrice": "0x694b85a",
      "l1GasUsed": "0xba9"
    },
    {
      "status": "0x1",
      "cumulativeGasUsed": "0x1554f6",
      "logs": [
        {
          "address": "0x3f39af5c2d5356c1c0a8d0d67c2c4cf68374b59e",
          "topics": [
            "0x8faa70878671ccd212d20771b795c50af8fd3ff6cf27f4bde57e5d4de0aeb673"
          ],
          "data": "0x0000000000000000000000000000000000000000000000000000000000000060000000000000000000000000d6e4b0e094c5ae63cdd3f6e622ed22030a3a908b00000000000000000000000000000000000000000000000000000000000001c00000000000000000000000000000000000000000000000000000000000000001000000000000000000000000000000000000000000000000000000000000002000000000000000000000000094491f1108c84a38cf6f060e90b01b5d0ea30e890000000000000000000000000000000000000000000000000000000000000003000000000000000000000000000000000000000000000000000000000000006000000000000000000000000000000000000000000000000000000000000000057d7c2a1c0000000000000000000000000000000000000000000000000000000053a3d62e00000000000000000000000000000000000000000000000000000000736dcb8b00000000000000000000000000000000000000000000000000000000e0ab98b5000000000000000000000000000000000000000000000000000000007d40af98000000000000000000000000000000000000000000000000000000000000000000000000000000000000000000000000000000000000000000000004e1c7392a00000000000000000000000000000000000000000000000000000000",
          "blockHash": "0x3698845faf01dcbcb4ba144569c7eac9bb2966d6bb03154323c97a36e1b0cfbf",
          "blockNumber": "0x3c047fd",
          "blockTimestamp": "0x69c9d053",
          "transactionHash": "0xb5171473dfbac7d928e2ac45de2ee3bf994fcda8587102baefd5bd44762495ae",
          "transactionIndex": "0xa",
          "logIndex": "0x30",
          "removed": false
        }
      ],
      "logsBloom": "0x00000000000000000000000000000000000000000000000000000800000000000000020002000000000000000000000000000000000000000000000000000000000000000000000000000000000000000000000001000000000800000000000000000000000000000000000000000000000000000000000000000000000000000020000000000000000000000000000000000000000000000000000000000000000000000000000000000000000000000000000000000000000000000000000000000000000000000000000000000000000000000000000000000000000000000000000000000000000000000000000000000000000000000000000000000000",
      "type": "0x0",
      "transactionHash": "0xb5171473dfbac7d928e2ac45de2ee3bf994fcda8587102baefd5bd44762495ae",
      "transactionIndex": "0xa",
      "blockHash": "0x3698845faf01dcbcb4ba144569c7eac9bb2966d6bb03154323c97a36e1b0cfbf",
      "blockNumber": "0x3c047fd",
      "gasUsed": "0x1917e",
      "effectiveGasPrice": "0x5d22cfc40",
      "from": "0x04e1ec75c9fada2ff30e309e11cb5d2437dc3d4a",
      "to": "0x3f39af5c2d5356c1c0a8d0d67c2c4cf68374b59e",
      "contractAddress": null,
      "l1BaseFeeScalar": "0x0",
      "l1BlobBaseFee": "0x184413e457de84",
      "l1BlobBaseFeeScalar": "0x0",
      "l1Fee": "0x0",
      "l1GasPrice": "0x694b85a",
      "l1GasUsed": "0xba9"
    },
    {
      "status": "0x1",
      "cumulativeGasUsed": "0x16e674",
      "logs": [
        {
          "address": "0x432952e34729f92b08443a573b8a9cd60557cea7",
          "topics": [
            "0x8faa70878671ccd212d20771b795c50af8fd3ff6cf27f4bde57e5d4de0aeb673"
          ],
          "data": "0x0000000000000000000000000000000000000000000000000000000000000060000000000000000000000000d6e4b0e094c5ae63cdd3f6e622ed22030a3a908b00000000000000000000000000000000000000000000000000000000000001c00000000000000000000000000000000000000000000000000000000000000001000000000000000000000000000000000000000000000000000000000000002000000000000000000000000094491f1108c84a38cf6f060e90b01b5d0ea30e890000000000000000000000000000000000000000000000000000000000000003000000000000000000000000000000000000000000000000000000000000006000000000000000000000000000000000000000000000000000000000000000057d7c2a1c0000000000000000000000000000000000000000000000000000000053a3d62e00000000000000000000000000000000000000000000000000000000736dcb8b00000000000000000000000000000000000000000000000000000000e0ab98b5000000000000000000000000000000000000000000000000000000007d40af98000000000000000000000000000000000000000000000000000000000000000000000000000000000000000000000000000000000000000000000004e1c7392a00000000000000000000000000000000000000000000000000000000",
          "blockHash": "0x3698845faf01dcbcb4ba144569c7eac9bb2966d6bb03154323c97a36e1b0cfbf",
          "blockNumber": "0x3c047fd",
          "blockTimestamp": "0x69c9d053",
          "transactionHash": "0xa167814fb003cfef064d432d6336b953ca49f2a0722b6b5eba3e62a02c9ca1cf",
          "transactionIndex": "0xb",
          "logIndex": "0x31",
          "removed": false
        }
      ],
      "logsBloom": "0x00000000000000000000000000000000000000000000000000000000000000000000000000000000000000000000000000000000000000000000000000000000000000000000000000000000000000000000000001000000000800000000000000000000000000000000000000000000000000000000000000000000000000000020000000000000000000000000000000000000000000000000000000000000000000000000000000000000000200000000000000000000000000000000800000000000000000000000000000000000000000000000000000000000000000000000000000000000000000010000000000000000000000000000000000000000",
      "type": "0x0",
      "transactionHash": "0xa167814fb003cfef064d432d6336b953ca49f2a0722b6b5eba3e62a02c9ca1cf",
      "transactionIndex": "0xb",
      "blockHash": "0x3698845faf01dcbcb4ba144569c7eac9bb2966d6bb03154323c97a36e1b0cfbf",
      "blockNumber": "0x3c047fd",
      "gasUsed": "0x1917e",
      "effectiveGasPrice": "0x5d22cfc40",
      "from": "0x04e1ec75c9fada2ff30e309e11cb5d2437dc3d4a",
      "to": "0x432952e34729f92b08443a573b8a9cd60557cea7",
      "contractAddress": null,
      "l1BaseFeeScalar": "0x0",
      "l1BlobBaseFee": "0x184413e457de84",
      "l1BlobBaseFeeScalar": "0x0",
      "l1Fee": "0x0",
      "l1GasPrice": "0x694b85a",
      "l1GasUsed": "0xba9"
    },
    {
      "status": "0x1",
      "cumulativeGasUsed": "0x1877f2",
      "logs": [
        {
          "address": "0x4aff6d90e295360a012d2f1f42d9c7ccab44e5f4",
          "topics": [
            "0x8faa70878671ccd212d20771b795c50af8fd3ff6cf27f4bde57e5d4de0aeb673"
          ],
          "data": "0x0000000000000000000000000000000000000000000000000000000000000060000000000000000000000000d6e4b0e094c5ae63cdd3f6e622ed22030a3a908b00000000000000000000000000000000000000000000000000000000000001c00000000000000000000000000000000000000000000000000000000000000001000000000000000000000000000000000000000000000000000000000000002000000000000000000000000094491f1108c84a38cf6f060e90b01b5d0ea30e890000000000000000000000000000000000000000000000000000000000000003000000000000000000000000000000000000000000000000000000000000006000000000000000000000000000000000000000000000000000000000000000057d7c2a1c0000000000000000000000000000000000000000000000000000000053a3d62e00000000000000000000000000000000000000000000000000000000736dcb8b00000000000000000000000000000000000000000000000000000000e0ab98b5000000000000000000000000000000000000000000000000000000007d40af98000000000000000000000000000000000000000000000000000000000000000000000000000000000000000000000000000000000000000000000004e1c7392a00000000000000000000000000000000000000000000000000000000",
          "blockHash": "0x3698845faf01dcbcb4ba144569c7eac9bb2966d6bb03154323c97a36e1b0cfbf",
          "blockNumber": "0x3c047fd",
          "blockTimestamp": "0x69c9d053",
          "transactionHash": "0x7cd96a055ab21d88b5af3bb3f23d9b733379121612f55f716f6be6d62595a38d",
          "transactionIndex": "0xc",
          "logIndex": "0x32",
          "removed": false
        }
      ],
      "logsBloom": "0x00080000000000000000000000000000000000000000000000000000000000000000000000000000010000000000000000000000000000000000000000000000000000000000000000000000000000000000000001000000000800000000000000000000000000000000000000000000000000000000000000000000000000000020000000000000000000000000000000000000000000000000000000000000000000000000000000000000000000010000000000000000000000000000000000000000000000000000000000000000000000000000000000000000000000000000000000000000000000000000000000000000000000000000000000000000",
      "type": "0x0",
      "transactionHash": "0x7cd96a055ab21d88b5af3bb3f23d9b733379121612f55f716f6be6d62595a38d",
      "transactionIndex": "0xc",
      "blockHash": "0x3698845faf01dcbcb4ba144569c7eac9bb2966d6bb03154323c97a36e1b0cfbf",
      "blockNumber": "0x3c047fd",
      "gasUsed": "0x1917e",
      "effectiveGasPrice": "0x5d22cfc40",
      "from": "0x04e1ec75c9fada2ff30e309e11cb5d2437dc3d4a",
      "to": "0x4aff6d90e295360a012d2f1f42d9c7ccab44e5f4",
      "contractAddress": null,
      "l1BaseFeeScalar": "0x0",
      "l1BlobBaseFee": "0x184413e457de84",
      "l1BlobBaseFeeScalar": "0x0",
      "l1Fee": "0x0",
      "l1GasPrice": "0x694b85a",
      "l1GasUsed": "0xba9"
    },
    {
      "status": "0x1",
      "cumulativeGasUsed": "0x1bdb81",
      "logs": [
        {
          "address": "0x4c3925ea9996923025d951498c18691d785fbf21",
          "topics": [
            "0x8faa70878671ccd212d20771b795c50af8fd3ff6cf27f4bde57e5d4de0aeb673"
          ],
          "data": "0x0000000000000000000000000000000000000000000000000000000000000060000000000000000000000000d6e4b0e094c5ae63cdd3f6e622ed22030a3a908b00000000000000000000000000000000000000000000000000000000000001c00000000000000000000000000000000000000000000000000000000000000001000000000000000000000000000000000000000000000000000000000000002000000000000000000000000094491f1108c84a38cf6f060e90b01b5d0ea30e890000000000000000000000000000000000000000000000000000000000000003000000000000000000000000000000000000000000000000000000000000006000000000000000000000000000000000000000000000000000000000000000057d7c2a1c0000000000000000000000000000000000000000000000000000000053a3d62e00000000000000000000000000000000000000000000000000000000736dcb8b00000000000000000000000000000000000000000000000000000000e0ab98b5000000000000000000000000000000000000000000000000000000007d40af98000000000000000000000000000000000000000000000000000000000000000000000000000000000000000000000000000000000000000000000004e1c7392a00000000000000000000000000000000000000000000000000000000",
          "blockHash": "0x3698845faf01dcbcb4ba144569c7eac9bb2966d6bb03154323c97a36e1b0cfbf",
          "blockNumber": "0x3c047fd",
          "blockTimestamp": "0x69c9d053",
          "transactionHash": "0x0e29ccd98af7b2089c5a84f1f1f14e0b97faee5f76b454c87edcf6fbd6c1bab0",
          "transactionIndex": "0x10",
          "logIndex": "0x36",
          "removed": false
        }
      ],
      "logsBloom": "0x00000000000000000000000000000000000000000000000000000000000000000000000000000000000000000000000000000000000000000000000000000000000000000000000000000000000000000000000001000000000800000000000000000000000000000000000000000000000000000000000000000000000000000020000000000000000000000000040000000000000000000000000000000040000000000400000000000000000000000000000000000000000000000000000000000000000000000000000000000000000000000000000000000000000000000000000000000000000000000000000000000000000000000000000000000000",
      "type": "0x0",
      "transactionHash": "0x0e29ccd98af7b2089c5a84f1f1f14e0b97faee5f76b454c87edcf6fbd6c1bab0",
      "transactionIndex": "0x10",
      "blockHash": "0x3698845faf01dcbcb4ba144569c7eac9bb2966d6bb03154323c97a36e1b0cfbf",
      "blockNumber": "0x3c047fd",
      "gasUsed": "0x1917e",
      "effectiveGasPrice": "0x5d22cfc40",
      "from": "0x04e1ec75c9fada2ff30e309e11cb5d2437dc3d4a",
      "to": "0x4c3925ea9996923025d951498c18691d785fbf21",
      "contractAddress": null,
      "l1BaseFeeScalar": "0x0",
      "l1BlobBaseFee": "0x184413e457de84",
      "l1BlobBaseFeeScalar": "0x0",
      "l1Fee": "0x0",
      "l1GasPrice": "0x694b85a",
      "l1GasUsed": "0xba9"
    },
    {
      "status": "0x1",
      "cumulativeGasUsed": "0x1b2839",
      "logs": [
        {
          "address": "0x4ce39a977961befa4d4bd546f8454ab798f1ec1d",
          "topics": [
            "0x8faa70878671ccd212d20771b795c50af8fd3ff6cf27f4bde57e5d4de0aeb673"
          ],
          "data": "0x0000000000000000000000000000000000000000000000000000000000000060000000000000000000000000d6e4b0e094c5ae63cdd3f6e622ed22030a3a908b00000000000000000000000000000000000000000000000000000000000001c00000000000000000000000000000000000000000000000000000000000000001000000000000000000000000000000000000000000000000000000000000002000000000000000000000000094491f1108c84a38cf6f060e90b01b5d0ea30e890000000000000000000000000000000000000000000000000000000000000003000000000000000000000000000000000000000000000000000000000000006000000000000000000000000000000000000000000000000000000000000000057d7c2a1c0000000000000000000000000000000000000000000000000000000053a3d62e00000000000000000000000000000000000000000000000000000000736dcb8b00000000000000000000000000000000000000000000000000000000e0ab98b5000000000000000000000000000000000000000000000000000000007d40af98000000000000000000000000000000000000000000000000000000000000000000000000000000000000000000000000000000000000000000000004e1c7392a00000000000000000000000000000000000000000000000000000000",
          "blockHash": "0xc60c62f53edc4d54a10afa06c880a423edbaeef6d36ccafb5c935dfdb48c9049",
          "blockNumber": "0x3c047fe",
          "blockTimestamp": "0x69c9d054",
          "transactionHash": "0x14f64b2a87f1e4e49d60f9a12031952a209e05d5ab2177b40f644036ffa9c4ad",
          "transactionIndex": "0xb",
          "logIndex": "0x37",
          "removed": false
        }
      ],
      "logsBloom": "0x00000000000000000000000000000000000000000000000000000000000000000000000000000000000000000000000000000000000000000000000000000000000000000000000000000000000000000000000001010000000800000000000000000000000000000000000000000000000000000000000000000000000000000020000000000000000000000000000000000000000000000000000000000000000000000000000000000000000000000000000000000000000000000200000000000000000000000000000000100000000000000000000000000000000000000000000000000000000000000000000000000000000000000000000000000000",
      "type": "0x0",
      "transactionHash": "0x14f64b2a87f1e4e49d60f9a12031952a209e05d5ab2177b40f644036ffa9c4ad",
      "transactionIndex": "0xb",
      "blockHash": "0xc60c62f53edc4d54a10afa06c880a423edbaeef6d36ccafb5c935dfdb48c9049",
      "blockNumber": "0x3c047fe",
      "gasUsed": "0x1917e",
      "effectiveGasPrice": "0x5d22cfc40",
      "from": "0x04e1ec75c9fada2ff30e309e11cb5d2437dc3d4a",
      "to": "0x4ce39a977961befa4d4bd546f8454ab798f1ec1d",
      "contractAddress": null,
      "l1BaseFeeScalar": "0x0",
      "l1BlobBaseFee": "0x184413e457de84",
      "l1BlobBaseFeeScalar": "0x0",
      "l1Fee": "0x0",
      "l1GasPrice": "0x694b85a",
      "l1GasUsed": "0xba9"
    },
    {
      "status": "0x1",
      "cumulativeGasUsed": "0x1cb9b7",
      "logs": [
        {
          "address": "0x4d28599ddcba0b041dca0cfee3337048120405cf",
          "topics": [
            "0x8faa70878671ccd212d20771b795c50af8fd3ff6cf27f4bde57e5d4de0aeb673"
          ],
          "data": "0x0000000000000000000000000000000000000000000000000000000000000060000000000000000000000000d6e4b0e094c5ae63cdd3f6e622ed22030a3a908b00000000000000000000000000000000000000000000000000000000000001c00000000000000000000000000000000000000000000000000000000000000001000000000000000000000000000000000000000000000000000000000000002000000000000000000000000094491f1108c84a38cf6f060e90b01b5d0ea30e890000000000000000000000000000000000000000000000000000000000000003000000000000000000000000000000000000000000000000000000000000006000000000000000000000000000000000000000000000000000000000000000057d7c2a1c0000000000000000000000000000000000000000000000000000000053a3d62e00000000000000000000000000000000000000000000000000000000736dcb8b00000000000000000000000000000000000000000000000000000000e0ab98b5000000000000000000000000000000000000000000000000000000007d40af98000000000000000000000000000000000000000000000000000000000000000000000000000000000000000000000000000000000000000000000004e1c7392a00000000000000000000000000000000000000000000000000000000",
          "blockHash": "0xc60c62f53edc4d54a10afa06c880a423edbaeef6d36ccafb5c935dfdb48c9049",
          "blockNumber": "0x3c047fe",
          "blockTimestamp": "0x69c9d054",
          "transactionHash": "0xc34935af18ff611dc73930cef1367d773ca733761a3aa5de255b91e93c4f6247",
          "transactionIndex": "0xc",
          "logIndex": "0x38",
          "removed": false
        }
      ],
      "logsBloom": "0x00000000000000000000000000000000000000000000000000000000000000000000000000000000000000000000000000000000000000000000000000000000000000000000000000000000000000000000000001000000000800000000000000000000000000000000000000000000000000000000000000000000000000000020000000000000000000000000000000000000000000000000000000000000000000000000000000000000000000000000100000000000002000000000000000000000000000000000000040000000000000000000000000000000000000000000000000000000000000000000000000000000000000000000000000000000",
      "type": "0x0",
      "transactionHash": "0xc34935af18ff611dc73930cef1367d773ca733761a3aa5de255b91e93c4f6247",
      "transactionIndex": "0xc",
      "blockHash": "0xc60c62f53edc4d54a10afa06c880a423edbaeef6d36ccafb5c935dfdb48c9049",
      "blockNumber": "0x3c047fe",
      "gasUsed": "0x1917e",
      "effectiveGasPrice": "0x5d22cfc40",
      "from": "0x04e1ec75c9fada2ff30e309e11cb5d2437dc3d4a",
      "to": "0x4d28599ddcba0b041dca0cfee3337048120405cf",
      "contractAddress": null,
      "l1BaseFeeScalar": "0x0",
      "l1BlobBaseFee": "0x184413e457de84",
      "l1BlobBaseFeeScalar": "0x0",
      "l1Fee": "0x0",
      "l1GasPrice": "0x694b85a",
      "l1GasUsed": "0xba9"
    },
    {
      "status": "0x1",
      "cumulativeGasUsed": "0x1e4b35",
      "logs": [
        {
          "address": "0x4db6295640c3d87e3fae7bd150b4ac58e33870fa",
          "topics": [
            "0x8faa70878671ccd212d20771b795c50af8fd3ff6cf27f4bde57e5d4de0aeb673"
          ],
          "data": "0x0000000000000000000000000000000000000000000000000000000000000060000000000000000000000000d6e4b0e094c5ae63cdd3f6e622ed22030a3a908b00000000000000000000000000000000000000000000000000000000000001c00000000000000000000000000000000000000000000000000000000000000001000000000000000000000000000000000000000000000000000000000000002000000000000000000000000094491f1108c84a38cf6f060e90b01b5d0ea30e890000000000000000000000000000000000000000000000000000000000000003000000000000000000000000000000000000000000000000000000000000006000000000000000000000000000000000000000000000000000000000000000057d7c2a1c0000000000000000000000000000000000000000000000000000000053a3d62e00000000000000000000000000000000000000000000000000000000736dcb8b00000000000000000000000000000000000000000000000000000000e0ab98b5000000000000000000000000000000000000000000000000000000007d40af98000000000000000000000000000000000000000000000000000000000000000000000000000000000000000000000000000000000000000000000004e1c7392a00000000000000000000000000000000000000000000000000000000",
          "blockHash": "0xc60c62f53edc4d54a10afa06c880a423edbaeef6d36ccafb5c935dfdb48c9049",
          "blockNumber": "0x3c047fe",
          "blockTimestamp": "0x69c9d054",
          "transactionHash": "0x9467a56c60819c99bffeb32150ba84450a1cc881fd9bfd177df2f2e0ff964a3c",
          "transactionIndex": "0xd",
          "logIndex": "0x39",
          "removed": false
        }
      ],
      "logsBloom": "0x00000000000000000000000000000000000000000000000000000000000000000000000000000000000000000000000000000000000000001000000000000000000000000000000000000000000000000000000001000000000800000000000000000000000000000000000000000000000000000000000000000000000000000020000000000000000000000000000000000000000000000000000000000000000000000000000000400000000000000000000000000000000000000000000000000000000000000000000000000000000000000000000000000000000000000000000000000000000000000000000000000000000002000000000000000000",
      "type": "0x0",
      "transactionHash": "0x9467a56c60819c99bffeb32150ba84450a1cc881fd9bfd177df2f2e0ff964a3c",
      "transactionIndex": "0xd",
      "blockHash": "0xc60c62f53edc4d54a10afa06c880a423edbaeef6d36ccafb5c935dfdb48c9049",
      "blockNumber": "0x3c047fe",
      "gasUsed": "0x1917e",
      "effectiveGasPrice": "0x5d22cfc40",
      "from": "0x04e1ec75c9fada2ff30e309e11cb5d2437dc3d4a",
      "to": "0x4db6295640c3d87e3fae7bd150b4ac58e33870fa",
      "contractAddress": null,
      "l1BaseFeeScalar": "0x0",
      "l1BlobBaseFee": "0x184413e457de84",
      "l1BlobBaseFeeScalar": "0x0",
      "l1Fee": "0x0",
      "l1GasPrice": "0x694b85a",
      "l1GasUsed": "0xba9"
    }
  ],
  "libraries": [
    "pkg/contracts/src/CVStrategy/ConvictionsUtils.sol:ConvictionsUtils:0x70b24063ea84765B324387e21159B41aF48A9440",
    "pkg/contracts/src/CVStrategy/PowerManagementUtils.sol:PowerManagementUtils:0xB07d76F6001Cc62739d39cb0C5E9c58E08230486"
  ],
  "pending": [],
  "returns": {},
  "timestamp": 1774833748502,
  "chain": 42220,
  "commit": "8e5fd5852"
}