{
  "transactions": [
    {
      "hash": "0xca3073492f4108f019e7ad3ec8ff6d7fe020142b5ae036ea42ace87189e28619",
      "transactionType": "CALL",
      "contractName": "ERC1967Proxy",
      "contractAddress": "0x523b362913b56e10e9dde785952e5e0efdab4aad",
      "function": null,
      "arguments": null,
      "transaction": {
        "from": "0x04e1ec75c9fada2ff30e309e11cb5d2437dc3d4a",
        "to": "0x523b362913b56e10e9dde785952e5e0efdab4aad",
        "gas": "0x22a8e",
        "value": "0x0",
        "input": "0x1f931c1c0000000000000000000000000000000000000000000000000000000000000060000000000000000000000000d6e4b0e094c5ae63cdd3f6e622ed22030a3a908b00000000000000000000000000000000000000000000000000000000000001c00000000000000000000000000000000000000000000000000000000000000001000000000000000000000000000000000000000000000000000000000000002000000000000000000000000094491f1108c84a38cf6f060e90b01b5d0ea30e890000000000000000000000000000000000000000000000000000000000000003000000000000000000000000000000000000000000000000000000000000006000000000000000000000000000000000000000000000000000000000000000057d7c2a1c0000000000000000000000000000000000000000000000000000000053a3d62e00000000000000000000000000000000000000000000000000000000736dcb8b00000000000000000000000000000000000000000000000000000000e0ab98b5000000000000000000000000000000000000000000000000000000007d40af98000000000000000000000000000000000000000000000000000000000000000000000000000000000000000000000000000000000000000000000004e1c7392a00000000000000000000000000000000000000000000000000000000",
        "nonce": "0x20",
        "chainId": "0xa4ec"
      },
      "additionalContracts": [],
      "isFixedGasLimit": false
    },
    {
      "hash": "0xb8b2c2dac78c83d06e0e04a6510b50ff1e4b4dce233baa3bc9ef2b214b21688c",
      "transactionType": "CALL",
      "contractName": "ERC1967Proxy",
      "contractAddress": "0x57db3264a363379b2c66a6914c0bf1d70f4763f6",
      "function": null,
      "arguments": null,
      "transaction": {
        "from": "0x04e1ec75c9fada2ff30e309e11cb5d2437dc3d4a",
        "to": "0x57db3264a363379b2c66a6914c0bf1d70f4763f6",
        "gas": "0x22a8e",
        "value": "0x0",
        "input": "0x1f931c1c0000000000000000000000000000000000000000000000000000000000000060000000000000000000000000d6e4b0e094c5ae63cdd3f6e622ed22030a3a908b00000000000000000000000000000000000000000000000000000000000001c00000000000000000000000000000000000000000000000000000000000000001000000000000000000000000000000000000000000000000000000000000002000000000000000000000000094491f1108c84a38cf6f060e90b01b5d0ea30e890000000000000000000000000000000000000000000000000000000000000003000000000000000000000000000000000000000000000000000000000000006000000000000000000000000000000000000000000000000000000000000000057d7c2a1c0000000000000000000000000000000000000000000000000000000053a3d62e00000000000000000000000000000000000000000000000000000000736dcb8b00000000000000000000000000000000000000000000000000000000e0ab98b5000000000000000000000000000000000000000000000000000000007d40af98000000000000000000000000000000000000000000000000000000000000000000000000000000000000000000000000000000000000000000000004e1c7392a00000000000000000000000000000000000000000000000000000000",
        "nonce": "0x21",
        "chainId": "0xa4ec"
      },
      "additionalContracts": [],
      "isFixedGasLimit": false
    },
    {
      "hash": "0x30389af854a0f3a1904473bbca89b8b235d767ba8b8b3fb241335130d51b2c3e",
      "transactionType": "CALL",
      "contractName": null,
      "contractAddress": "0x6a8c3a4da74b18e01594be66d43fdc32762456fd",
      "function": "diamondCut((address,uint8,bytes4[])[],address,bytes)",
      "arguments": [
        "[(0x94491f1108c84a38cf6f060e90b01B5D0ea30e89, 3, [0x7d7c2a1c, 0x53a3d62e, 0x736dcb8b, 0xe0ab98b5, 0x7d40af98])]",
        "0xD6E4b0e094C5aE63cDd3f6e622ed22030A3a908B",
        "0xe1c7392a"
      ],
      "transaction": {
        "from": "0x04e1ec75c9fada2ff30e309e11cb5d2437dc3d4a",
        "to": "0x6a8c3a4da74b18e01594be66d43fdc32762456fd",
        "gas": "0x22a8e",
        "value": "0x0",
        "input": "0x1f931c1c0000000000000000000000000000000000000000000000000000000000000060000000000000000000000000d6e4b0e094c5ae63cdd3f6e622ed22030a3a908b00000000000000000000000000000000000000000000000000000000000001c00000000000000000000000000000000000000000000000000000000000000001000000000000000000000000000000000000000000000000000000000000002000000000000000000000000094491f1108c84a38cf6f060e90b01b5d0ea30e890000000000000000000000000000000000000000000000000000000000000003000000000000000000000000000000000000000000000000000000000000006000000000000000000000000000000000000000000000000000000000000000057d7c2a1c0000000000000000000000000000000000000000000000000000000053a3d62e00000000000000000000000000000000000000000000000000000000736dcb8b00000000000000000000000000000000000000000000000000000000e0ab98b5000000000000000000000000000000000000000000000000000000007d40af98000000000000000000000000000000000000000000000000000000000000000000000000000000000000000000000000000000000000000000000004e1c7392a00000000000000000000000000000000000000000000000000000000",
        "nonce": "0x22",
        "chainId": "0xa4ec"
      },
      "additionalContracts": [],
      "isFixedGasLimit": false
    },
    {
      "hash": "0x2adf2177e1c52f1bff5f310feae4c1508efd6f8afca75c79f24d5d331c5cc0c2",
      "transactionType": "CALL",
      "contractName": "ERC1967Proxy",
      "contractAddress": "0x6f09f999fe1af06738a0b12678ef2df2fc0635e6",
      "function": null,
      "arguments": null,
      "transaction": {
        "from": "0x04e1ec75c9fada2ff30e309e11cb5d2437dc3d4a",
        "to": "0x6f09f999fe1af06738a0b12678ef2df2fc0635e6",
        "gas": "0x24b57",
        "value": "0x0",
        "input": "0x1f931c1c0000000000000000000000000000000000000000000000000000000000000060000000000000000000000000d6e4b0e094c5ae63cdd3f6e622ed22030a3a908b00000000000000000000000000000000000000000000000000000000000001c00000000000000000000000000000000000000000000000000000000000000001000000000000000000000000000000000000000000000000000000000000002000000000000000000000000094491f1108c84a38cf6f060e90b01b5d0ea30e890000000000000000000000000000000000000000000000000000000000000003000000000000000000000000000000000000000000000000000000000000006000000000000000000000000000000000000000000000000000000000000000057d7c2a1c0000000000000000000000000000000000000000000000000000000053a3d62e00000000000000000000000000000000000000000000000000000000736dcb8b00000000000000000000000000000000000000000000000000000000e0ab98b5000000000000000000000000000000000000000000000000000000007d40af98000000000000000000000000000000000000000000000000000000000000000000000000000000000000000000000000000000000000000000000004e1c7392a00000000000000000000000000000000000000000000000000000000",
        "nonce": "0x23",
        "chainId": "0xa4ec"
      },
      "additionalContracts": [],
      "isFixedGasLimit": false
    },
    {
      "hash": "0xf1b02afae037b7e0b6ed92b4e91816c7cb6469aefb180ba3c7fb2cd7992d7523",
      "transactionType": "CALL",
      "contractName": null,
      "contractAddress": "0x6f98919fcff18a1fa82585090a61e6678ca38826",
      "function": "diamondCut((address,uint8,bytes4[])[],address,bytes)",
      "arguments": [
        "[(0x94491f1108c84a38cf6f060e90b01B5D0ea30e89, 3, [0x7d7c2a1c, 0x53a3d62e, 0x736dcb8b, 0xe0ab98b5, 0x7d40af98])]",
        "0xD6E4b0e094C5aE63cDd3f6e622ed22030A3a908B",
        "0xe1c7392a"
      ],
      "transaction": {
        "from": "0x04e1ec75c9fada2ff30e309e11cb5d2437dc3d4a",
        "to": "0x6f98919fcff18a1fa82585090a61e6678ca38826",
        "gas": "0x24b57",
        "value": "0x0",
        "input": "0x1f931c1c0000000000000000000000000000000000000000000000000000000000000060000000000000000000000000d6e4b0e094c5ae63cdd3f6e622ed22030a3a908b00000000000000000000000000000000000000000000000000000000000001c00000000000000000000000000000000000000000000000000000000000000001000000000000000000000000000000000000000000000000000000000000002000000000000000000000000094491f1108c84a38cf6f060e90b01b5d0ea30e890000000000000000000000000000000000000000000000000000000000000003000000000000000000000000000000000000000000000000000000000000006000000000000000000000000000000000000000000000000000000000000000057d7c2a1c0000000000000000000000000000000000000000000000000000000053a3d62e00000000000000000000000000000000000000000000000000000000736dcb8b00000000000000000000000000000000000000000000000000000000e0ab98b5000000000000000000000000000000000000000000000000000000007d40af98000000000000000000000000000000000000000000000000000000000000000000000000000000000000000000000000000000000000000000000004e1c7392a00000000000000000000000000000000000000000000000000000000",
        "nonce": "0x24",
        "chainId": "0xa4ec"
      },
      "additionalContracts": [],
      "isFixedGasLimit": false
    },
    {
      "hash": "0x448bccdc096b474fbbec1780a39f2ff2a1e040f59f58ab427c88e7745b71eb97",
      "transactionType": "CALL",
      "contractName": "ERC1967Proxy",
      "contractAddress": "0x76ffd1d4317d351c3834a60818a9e5784b523154",
      "function": null,
      "arguments": null,
      "transaction": {
        "from": "0x04e1ec75c9fada2ff30e309e11cb5d2437dc3d4a",
        "to": "0x76ffd1d4317d351c3834a60818a9e5784b523154",
        "gas": "0x22a8e",
        "value": "0x0",
        "input": "0x1f931c1c0000000000000000000000000000000000000000000000000000000000000060000000000000000000000000d6e4b0e094c5ae63cdd3f6e622ed22030a3a908b00000000000000000000000000000000000000000000000000000000000001c00000000000000000000000000000000000000000000000000000000000000001000000000000000000000000000000000000000000000000000000000000002000000000000000000000000094491f1108c84a38cf6f060e90b01b5d0ea30e890000000000000000000000000000000000000000000000000000000000000003000000000000000000000000000000000000000000000000000000000000006000000000000000000000000000000000000000000000000000000000000000057d7c2a1c0000000000000000000000000000000000000000000000000000000053a3d62e00000000000000000000000000000000000000000000000000000000736dcb8b00000000000000000000000000000000000000000000000000000000e0ab98b5000000000000000000000000000000000000000000000000000000007d40af98000000000000000000000000000000000000000000000000000000000000000000000000000000000000000000000000000000000000000000000004e1c7392a00000000000000000000000000000000000000000000000000000000",
        "nonce": "0x25",
        "chainId": "0xa4ec"
      },
      "additionalContracts": [],
      "isFixedGasLimit": false
    },
    {
      "hash": "0xcc2f0bf09e1721aa6a8c469d4d28636cb31ce11b1feb592fbdefd1e049a4db14",
      "transactionType": "CALL",
      "contractName": null,
      "contractAddress": "0x7789ad82b8c0e8726325fba6363600de56eb60a0",
      "function": "diamondCut((address,uint8,bytes4[])[],address,bytes)",
      "arguments": [
        "[(0x94491f1108c84a38cf6f060e90b01B5D0ea30e89, 3, [0x7d7c2a1c, 0x53a3d62e, 0x736dcb8b, 0xe0ab98b5, 0x7d40af98])]",
        "0xD6E4b0e094C5aE63cDd3f6e622ed22030A3a908B",
        "0xe1c7392a"
      ],
      "transaction": {
        "from": "0x04e1ec75c9fada2ff30e309e11cb5d2437dc3d4a",
        "to": "0x7789ad82b8c0e8726325fba6363600de56eb60a0",
        "gas": "0x22a8e",
        "value": "0x0",
        "input": "0x1f931c1c0000000000000000000000000000000000000000000000000000000000000060000000000000000000000000d6e4b0e094c5ae63cdd3f6e622ed22030a3a908b00000000000000000000000000000000000000000000000000000000000001c00000000000000000000000000000000000000000000000000000000000000001000000000000000000000000000000000000000000000000000000000000002000000000000000000000000094491f1108c84a38cf6f060e90b01b5d0ea30e890000000000000000000000000000000000000000000000000000000000000003000000000000000000000000000000000000000000000000000000000000006000000000000000000000000000000000000000000000000000000000000000057d7c2a1c0000000000000000000000000000000000000000000000000000000053a3d62e00000000000000000000000000000000000000000000000000000000736dcb8b00000000000000000000000000000000000000000000000000000000e0ab98b5000000000000000000000000000000000000000000000000000000007d40af98000000000000000000000000000000000000000000000000000000000000000000000000000000000000000000000000000000000000000000000004e1c7392a00000000000000000000000000000000000000000000000000000000",
        "nonce": "0x26",
        "chainId": "0xa4ec"
      },
      "additionalContracts": [],
      "isFixedGasLimit": false
    },
    {
      "hash": "0x55a337de2e437d6b4f8bae23731b0f3dccbc612da7bdeb1f3c8f7202701e64f7",
      "transactionType": "CALL",
      "contractName": "ERC1967Proxy",
      "contractAddress": "0x78c316103297b2ccacd01e422804ded636709826",
      "function": null,
      "arguments": null,
      "transaction": {
        "from": "0x04e1ec75c9fada2ff30e309e11cb5d2437dc3d4a",
        "to": "0x78c316103297b2ccacd01e422804ded636709826",
        "gas": "0x22a8e",
        "value": "0x0",
        "input": "0x1f931c1c0000000000000000000000000000000000000000000000000000000000000060000000000000000000000000d6e4b0e094c5ae63cdd3f6e622ed22030a3a908b00000000000000000000000000000000000000000000000000000000000001c00000000000000000000000000000000000000000000000000000000000000001000000000000000000000000000000000000000000000000000000000000002000000000000000000000000094491f1108c84a38cf6f060e90b01b5d0ea30e890000000000000000000000000000000000000000000000000000000000000003000000000000000000000000000000000000000000000000000000000000006000000000000000000000000000000000000000000000000000000000000000057d7c2a1c0000000000000000000000000000000000000000000000000000000053a3d62e00000000000000000000000000000000000000000000000000000000736dcb8b00000000000000000000000000000000000000000000000000000000e0ab98b5000000000000000000000000000000000000000000000000000000007d40af98000000000000000000000000000000000000000000000000000000000000000000000000000000000000000000000000000000000000000000000004e1c7392a00000000000000000000000000000000000000000000000000000000",
        "nonce": "0x27",
        "chainId": "0xa4ec"
      },
      "additionalContracts": [],
      "isFixedGasLimit": false
    },
    {
      "hash": "0xd73bcf8bce78b3e8f7fed34a1c13c180f495d685be665bfb399a6e3204f60a3d",
      "transactionType": "CALL",
      "contractName": null,
      "contractAddress": "0x86888c171c280676b15d63ae443a901640f182c1",
      "function": "diamondCut((address,uint8,bytes4[])[],address,bytes)",
      "arguments": [
        "[(0x94491f1108c84a38cf6f060e90b01B5D0ea30e89, 3, [0x7d7c2a1c, 0x53a3d62e, 0x736dcb8b, 0xe0ab98b5, 0x7d40af98])]",
        "0xD6E4b0e094C5aE63cDd3f6e622ed22030A3a908B",
        "0xe1c7392a"
      ],
      "transaction": {
        "from": "0x04e1ec75c9fada2ff30e309e11cb5d2437dc3d4a",
        "to": "0x86888c171c280676b15d63ae443a901640f182c1",
        "gas": "0x22a8e",
        "value": "0x0",
        "input": "0x1f931c1c0000000000000000000000000000000000000000000000000000000000000060000000000000000000000000d6e4b0e094c5ae63cdd3f6e622ed22030a3a908b00000000000000000000000000000000000000000000000000000000000001c00000000000000000000000000000000000000000000000000000000000000001000000000000000000000000000000000000000000000000000000000000002000000000000000000000000094491f1108c84a38cf6f060e90b01b5d0ea30e890000000000000000000000000000000000000000000000000000000000000003000000000000000000000000000000000000000000000000000000000000006000000000000000000000000000000000000000000000000000000000000000057d7c2a1c0000000000000000000000000000000000000000000000000000000053a3d62e00000000000000000000000000000000000000000000000000000000736dcb8b00000000000000000000000000000000000000000000000000000000e0ab98b5000000000000000000000000000000000000000000000000000000007d40af98000000000000000000000000000000000000000000000000000000000000000000000000000000000000000000000000000000000000000000000004e1c7392a00000000000000000000000000000000000000000000000000000000",
        "nonce": "0x28",
        "chainId": "0xa4ec"
      },
      "additionalContracts": [],
      "isFixedGasLimit": false
    },
    {
      "hash": "0x040bdcdfad8598a83026751c172ec8676124f0a7f24d0c35d82d1cf58ef67806",
      "transactionType": "CALL",
      "contractName": "ERC1967Proxy",
      "contractAddress": "0x8a8e6ac00d93ac766a25b7d6bbf0ca2e873f7725",
      "function": null,
      "arguments": null,
      "transaction": {
        "from": "0x04e1ec75c9fada2ff30e309e11cb5d2437dc3d4a",
        "to": "0x8a8e6ac00d93ac766a25b7d6bbf0ca2e873f7725",
        "gas": "0x22a8e",
        "value": "0x0",
        "input": "0x1f931c1c0000000000000000000000000000000000000000000000000000000000000060000000000000000000000000d6e4b0e094c5ae63cdd3f6e622ed22030a3a908b00000000000000000000000000000000000000000000000000000000000001c00000000000000000000000000000000000000000000000000000000000000001000000000000000000000000000000000000000000000000000000000000002000000000000000000000000094491f1108c84a38cf6f060e90b01b5d0ea30e890000000000000000000000000000000000000000000000000000000000000003000000000000000000000000000000000000000000000000000000000000006000000000000000000000000000000000000000000000000000000000000000057d7c2a1c0000000000000000000000000000000000000000000000000000000053a3d62e00000000000000000000000000000000000000000000000000000000736dcb8b00000000000000000000000000000000000000000000000000000000e0ab98b5000000000000000000000000000000000000000000000000000000007d40af98000000000000000000000000000000000000000000000000000000000000000000000000000000000000000000000000000000000000000000000004e1c7392a00000000000000000000000000000000000000000000000000000000",
        "nonce": "0x29",
        "chainId": "0xa4ec"
      },
      "additionalContracts": [],
      "isFixedGasLimit": false
    }
  ],
  "receipts": [
    {
      "status": "0x1",
      "cumulativeGasUsed": "0x14ce1c",
      "logs": [
        {
          "address": "0x523b362913b56e10e9dde785952e5e0efdab4aad",
          "topics": [
            "0x8faa70878671ccd212d20771b795c50af8fd3ff6cf27f4bde57e5d4de0aeb673"
          ],
          "data": "0x0000000000000000000000000000000000000000000000000000000000000060000000000000000000000000d6e4b0e094c5ae63cdd3f6e622ed22030a3a908b00000000000000000000000000000000000000000000000000000000000001c00000000000000000000000000000000000000000000000000000000000000001000000000000000000000000000000000000000000000000000000000000002000000000000000000000000094491f1108c84a38cf6f060e90b01b5d0ea30e890000000000000000000000000000000000000000000000000000000000000003000000000000000000000000000000000000000000000000000000000000006000000000000000000000000000000000000000000000000000000000000000057d7c2a1c0000000000000000000000000000000000000000000000000000000053a3d62e00000000000000000000000000000000000000000000000000000000736dcb8b00000000000000000000000000000000000000000000000000000000e0ab98b5000000000000000000000000000000000000000000000000000000007d40af98000000000000000000000000000000000000000000000000000000000000000000000000000000000000000000000000000000000000000000000004e1c7392a00000000000000000000000000000000000000000000000000000000",
          "blockHash": "0xe5fea6c969ffb95b3d65166c4dc7445892f3e67262c2e3bc3cd85633a1781deb",
          "blockNumber": "0x3c048bd",
          "blockTimestamp": "0x69c9d113",
          "transactionHash": "0x448bccdc096b474fbbec1780a39f2ff2a1e040f59f58ab427c88e7745b71eb97",
          "transactionIndex": "0xb",
          "logIndex": "0x26",
          "removed": false
        }
      ],
      "logsBloom": "0x00000000000000000000000000000000080000000000000000000000000000000000000000000000000000000000000000000000000000000000000000000000000000000000000000000000000000000000000001000000000800000000000000000000000000000000000000000000000000000000080000000000000000400020000000000000000000000000000000000000000000000000000000000000000000000000000000000000000000000000000000000000000000000000000000000000000000000000000000000000000000000000000000000000000000000000000000000000000000000000000000000000000000000000000000000000",
      "type": "0x0",
      "transactionHash": "0x448bccdc096b474fbbec1780a39f2ff2a1e040f59f58ab427c88e7745b71eb97",
      "transactionIndex": "0xb",
      "blockHash": "0xe5fea6c969ffb95b3d65166c4dc7445892f3e67262c2e3bc3cd85633a1781deb",
      "blockNumber": "0x3c048bd",
      "gasUsed": "0x1917e",
      "effectiveGasPrice": "0x5d22cfc40",
      "from": "0x04e1ec75c9fada2ff30e309e11cb5d2437dc3d4a",
      "to": "0x523b362913b56e10e9dde785952e5e0efdab4aad",
      "contractAddress": null,
      "l1BaseFeeScalar": "0x0",
      "l1BlobBaseFee": "0xc2e2b2daf5b81",
      "l1BlobBaseFeeScalar": "0x0",
      "l1Fee": "0x0",
      "l1GasPrice": "0x4e6b162",
      "l1GasUsed": "0xba9"
    },
    {
      "status": "0x1",
      "cumulativeGasUsed": "0x165f9a",
      "logs": [
        {
          "address": "0x57db3264a363379b2c66a6914c0bf1d70f4763f6",
          "topics": [
            "0x8faa70878671ccd212d20771b795c50af8fd3ff6cf27f4bde57e5d4de0aeb673"
          ],
          "data": "0x0000000000000000000000000000000000000000000000000000000000000060000000000000000000000000d6e4b0e094c5ae63cdd3f6e622ed22030a3a908b00000000000000000000000000000000000000000000000000000000000001c00000000000000000000000000000000000000000000000000000000000000001000000000000000000000000000000000000000000000000000000000000002000000000000000000000000094491f1108c84a38cf6f060e90b01b5d0ea30e890000000000000000000000000000000000000000000000000000000000000003000000000000000000000000000000000000000000000000000000000000006000000000000000000000000000000000000000000000000000000000000000057d7c2a1c0000000000000000000000000000000000000000000000000000000053a3d62e00000000000000000000000000000000000000000000000000000000736dcb8b00000000000000000000000000000000000000000000000000000000e0ab98b5000000000000000000000000000000000000000000000000000000007d40af98000000000000000000000000000000000000000000000000000000000000000000000000000000000000000000000000000000000000000000000004e1c7392a00000000000000000000000000000000000000000000000000000000",
          "blockHash": "0xe5fea6c969ffb95b3d65166c4dc7445892f3e67262c2e3bc3cd85633a1781deb",
          "blockNumber": "0x3c048bd",
          "blockTimestamp": "0x69c9d113",
          "transactionHash": "0x30389af854a0f3a1904473bbca89b8b235d767ba8b8b3fb241335130d51b2c3e",
          "transactionIndex": "0xc",
          "logIndex": "0x27",
          "removed": false
        }
      ],
      "logsBloom": "0x00000000000000008000000000000000000000000000000000000000000000000000000000000000000000000000000000000000000010000000000000000000000000000000000000000000000000000000000001000000000800000000000000000000000000000000000000000000000000000000000000000000000000000020000000000000000000000000000000000000000000000000000000000000000000000000000000000000000000000000000000000000000000000000000000000000200000000000000000000000000000000000000000000000000000000000000000000000000000000000000000000000000000000000000000000000",
      "type": "0x0",
      "transactionHash": "0x30389af854a0f3a1904473bbca89b8b235d767ba8b8b3fb241335130d51b2c3e",
      "transactionIndex": "0xc",
      "blockHash": "0xe5fea6c969ffb95b3d65166c4dc7445892f3e67262c2e3bc3cd85633a1781deb",
      "blockNumber": "0x3c048bd",
      "gasUsed": "0x1917e",
      "effectiveGasPrice": "0x5d22cfc40",
      "from": "0x04e1ec75c9fada2ff30e309e11cb5d2437dc3d4a",
      "to": "0x57db3264a363379b2c66a6914c0bf1d70f4763f6",
      "contractAddress": null,
      "l1BaseFeeScalar": "0x0",
      "l1BlobBaseFee": "0xc2e2b2daf5b81",
      "l1BlobBaseFeeScalar": "0x0",
      "l1Fee": "0x0",
      "l1GasPrice": "0x4e6b162",
      "l1GasUsed": "0xba9"
    },
    {
      "status": "0x1",
      "cumulativeGasUsed": "0x1027b2",
      "logs": [
        {
          "address": "0x6a8c3a4da74b18e01594be66d43fdc32762456fd",
          "topics": [
            "0x8faa70878671ccd212d20771b795c50af8fd3ff6cf27f4bde57e5d4de0aeb673"
          ],
          "data": "0x0000000000000000000000000000000000000000000000000000000000000060000000000000000000000000d6e4b0e094c5ae63cdd3f6e622ed22030a3a908b00000000000000000000000000000000000000000000000000000000000001c00000000000000000000000000000000000000000000000000000000000000001000000000000000000000000000000000000000000000000000000000000002000000000000000000000000094491f1108c84a38cf6f060e90b01b5d0ea30e890000000000000000000000000000000000000000000000000000000000000003000000000000000000000000000000000000000000000000000000000000006000000000000000000000000000000000000000000000000000000000000000057d7c2a1c0000000000000000000000000000000000000000000000000000000053a3d62e00000000000000000000000000000000000000000000000000000000736dcb8b00000000000000000000000000000000000000000000000000000000e0ab98b5000000000000000000000000000000000000000000000000000000007d40af98000000000000000000000000000000000000000000000000000000000000000000000000000000000000000000000000000000000000000000000004e1c7392a00000000000000000000000000000000000000000000000000000000",
          "blockHash": "0xe25e8ec8fb3687b57191f43fec0c2df00a55fdd9071716296aef07727d782786",
          "blockNumber": "0x3c048be",
          "blockTimestamp": "0x69c9d114",
          "transactionHash": "0xb8b2c2dac78c83d06e0e04a6510b50ff1e4b4dce233baa3bc9ef2b214b21688c",
          "transactionIndex": "0xa",
          "logIndex": "0x20",
          "removed": false
        }
      ],
      "logsBloom": "0x00000000000000000000000000000000000000000000000000000000000000000000000000000000000000100000000000000000000000040000000000000000004000000000000000000000000000000000000001000000000800000000000000000000000000000000000000000000000000000000000000000000000000000020000000000000000000000000000000000000000000000000000000000000000000000000000000000000000000000000000000000000000000000000000000000000000000000000000000000000000000000000000000000000000000000000000000000000000000000000000000000000000000000000000000000000",
      "type": "0x0",
      "transactionHash": "0xb8b2c2dac78c83d06e0e04a6510b50ff1e4b4dce233baa3bc9ef2b214b21688c",
      "transactionIndex": "0xa",
      "blockHash": "0xe25e8ec8fb3687b57191f43fec0c2df00a55fdd9071716296aef07727d782786",
      "blockNumber": "0x3c048be",
      "gasUsed": "0x1917e",
      "effectiveGasPrice": "0x5d22cfc40",
      "from": "0x04e1ec75c9fada2ff30e309e11cb5d2437dc3d4a",
      "to": "0x6a8c3a4da74b18e01594be66d43fdc32762456fd",
      "contractAddress": null,
      "l1BaseFeeScalar": "0x0",
      "l1BlobBaseFee": "0xcd5bf1c822464",
      "l1BlobBaseFeeScalar": "0x0",
      "l1Fee": "0x0",
      "l1GasPrice": "0x57deac6",
      "l1GasUsed": "0xba9"
    },
    {
      "status": "0x1",
      "cumulativeGasUsed": "0x11b94c",
      "logs": [
        {
          "address": "0x6f09f999fe1af06738a0b12678ef2df2fc0635e6",
          "topics": [
            "0x8faa70878671ccd212d20771b795c50af8fd3ff6cf27f4bde57e5d4de0aeb673"
          ],
          "data": "0x0000000000000000000000000000000000000000000000000000000000000060000000000000000000000000d6e4b0e094c5ae63cdd3f6e622ed22030a3a908b00000000000000000000000000000000000000000000000000000000000001c00000000000000000000000000000000000000000000000000000000000000001000000000000000000000000000000000000000000000000000000000000002000000000000000000000000094491f1108c84a38cf6f060e90b01b5d0ea30e890000000000000000000000000000000000000000000000000000000000000003000000000000000000000000000000000000000000000000000000000000006000000000000000000000000000000000000000000000000000000000000000057d7c2a1c0000000000000000000000000000000000000000000000000000000053a3d62e00000000000000000000000000000000000000000000000000000000736dcb8b00000000000000000000000000000000000000000000000000000000e0ab98b5000000000000000000000000000000000000000000000000000000007d40af98000000000000000000000000000000000000000000000000000000000000000000000000000000000000000000000000000000000000000000000004e1c7392a00000000000000000000000000000000000000000000000000000000",
          "blockHash": "0xe25e8ec8fb3687b57191f43fec0c2df00a55fdd9071716296aef07727d782786",
          "blockNumber": "0x3c048be",
          "blockTimestamp": "0x69c9d114",
          "transactionHash": "0xca3073492f4108f019e7ad3ec8ff6d7fe020142b5ae036ea42ace87189e28619",
          "transactionIndex": "0xb",
          "logIndex": "0x21",
          "removed": false
        }
      ],
      "logsBloom": "0x00000000000000000000000000000000000000000000000000000000000000000000000000000000000000000000000000000000000000000000000000000000000000000000000000000000000004000000001011000000000800000000000000000000000000000000000000000000000000000000000000000000000000000020000000000000000000000000000000000000000000000000000000000000000000000000000000000000000000000000000000000000000000000000000000000000000000000000000000000000000000000000000000000000000000000000000000000000000000000000000000000000000000000000000000000000",
      "type": "0x0",
      "transactionHash": "0xca3073492f4108f019e7ad3ec8ff6d7fe020142b5ae036ea42ace87189e28619",
      "transactionIndex": "0xb",
      "blockHash": "0xe25e8ec8fb3687b57191f43fec0c2df00a55fdd9071716296aef07727d782786",
      "blockNumber": "0x3c048be",
      "gasUsed": "0x1919a",
      "effectiveGasPrice": "0x5d22cfc40",
      "from": "0x04e1ec75c9fada2ff30e309e11cb5d2437dc3d4a",
      "to": "0x6f09f999fe1af06738a0b12678ef2df2fc0635e6",
      "contractAddress": null,
      "l1BaseFeeScalar": "0x0",
      "l1BlobBaseFee": "0xcd5bf1c822464",
      "l1BlobBaseFeeScalar": "0x0",
      "l1Fee": "0x0",
      "l1GasPrice": "0x57deac6",
      "l1GasUsed": "0xba9"
    },
    {
      "status": "0x1",
      "cumulativeGasUsed": "0x134ae6",
      "logs": [
        {
          "address": "0x6f98919fcff18a1fa82585090a61e6678ca38826",
          "topics": [
            "0x8faa70878671ccd212d20771b795c50af8fd3ff6cf27f4bde57e5d4de0aeb673"
          ],
          "data": "0x0000000000000000000000000000000000000000000000000000000000000060000000000000000000000000d6e4b0e094c5ae63cdd3f6e622ed22030a3a908b00000000000000000000000000000000000000000000000000000000000001c00000000000000000000000000000000000000000000000000000000000000001000000000000000000000000000000000000000000000000000000000000002000000000000000000000000094491f1108c84a38cf6f060e90b01b5d0ea30e890000000000000000000000000000000000000000000000000000000000000003000000000000000000000000000000000000000000000000000000000000006000000000000000000000000000000000000000000000000000000000000000057d7c2a1c0000000000000000000000000000000000000000000000000000000053a3d62e00000000000000000000000000000000000000000000000000000000736dcb8b00000000000000000000000000000000000000000000000000000000e0ab98b5000000000000000000000000000000000000000000000000000000007d40af98000000000000000000000000000000000000000000000000000000000000000000000000000000000000000000000000000000000000000000000004e1c7392a00000000000000000000000000000000000000000000000000000000",
          "blockHash": "0xe25e8ec8fb3687b57191f43fec0c2df00a55fdd9071716296aef07727d782786",
          "blockNumber": "0x3c048be",
          "blockTimestamp": "0x69c9d114",
          "transactionHash": "0xd73bcf8bce78b3e8f7fed34a1c13c180f495d685be665bfb399a6e3204f60a3d",
          "transactionIndex": "0xc",
          "logIndex": "0x22",
          "removed": false
        }
      ],
      "logsBloom": "0x00000000000000000000000000000000000000000000000000000000000000000000000000000000000000000000000000000000000000000000000000000000000000000000000000000000000000000000000001000000000800000000000000000000000000000000000000000000000000000000000000000000001000000020000000000000000000000000000000000000000000080000000000000000000000000000000000000000000000040000000000000000000000000000000000000000000000000000000000000000000000000000000000000000000000000000000000000000000000000000000000000000000000000000000000000000",
      "type": "0x0",
      "transactionHash": "0xd73bcf8bce78b3e8f7fed34a1c13c180f495d685be665bfb399a6e3204f60a3d",
      "transactionIndex": "0xc",
      "blockHash": "0xe25e8ec8fb3687b57191f43fec0c2df00a55fdd9071716296aef07727d782786",
      "blockNumber": "0x3c048be",
      "gasUsed": "0x1919a",
      "effectiveGasPrice": "0x5d22cfc40",
      "from": "0x04e1ec75c9fada2ff30e309e11cb5d2437dc3d4a",
      "to": "0x6f98919fcff18a1fa82585090a61e6678ca38826",
      "contractAddress": null,
      "l1BaseFeeScalar": "0x0",
      "l1BlobBaseFee": "0xcd5bf1c822464",
      "l1BlobBaseFeeScalar": "0x0",
      "l1Fee": "0x0",
      "l1GasPrice": "0x57deac6",
      "l1GasUsed": "0xba9"
    },
    {
      "status": "0x1",
      "cumulativeGasUsed": "0x14dc64",
      "logs": [
        {
          "address": "0x76ffd1d4317d351c3834a60818a9e5784b523154",
          "topics": [
            "0x8faa70878671ccd212d20771b795c50af8fd3ff6cf27f4bde57e5d4de0aeb673"
          ],
          "data": "0x0000000000000000000000000000000000000000000000000000000000000060000000000000000000000000d6e4b0e094c5ae63cdd3f6e622ed22030a3a908b00000000000000000000000000000000000000000000000000000000000001c00000000000000000000000000000000000000000000000000000000000000001000000000000000000000000000000000000000000000000000000000000002000000000000000000000000094491f1108c84a38cf6f060e90b01b5d0ea30e890000000000000000000000000000000000000000000000000000000000000003000000000000000000000000000000000000000000000000000000000000006000000000000000000000000000000000000000000000000000000000000000057d7c2a1c0000000000000000000000000000000000000000000000000000000053a3d62e00000000000000000000000000000000000000000000000000000000736dcb8b00000000000000000000000000000000000000000000000000000000e0ab98b5000000000000000000000000000000000000000000000000000000007d40af98000000000000000000000000000000000000000000000000000000000000000000000000000000000000000000000000000000000000000000000004e1c7392a00000000000000000000000000000000000000000000000000000000",
          "blockHash": "0xe25e8ec8fb3687b57191f43fec0c2df00a55fdd9071716296aef07727d782786",
          "blockNumber": "0x3c048be",
          "blockTimestamp": "0x69c9d114",
          "transactionHash": "0x55a337de2e437d6b4f8bae23731b0f3dccbc612da7bdeb1f3c8f7202701e64f7",
          "transactionIndex": "0xd",
          "logIndex": "0x23",
          "removed": false
        }
      ],
      "logsBloom": "0x00000000000000000000000000000000000008000000000000000000000000000000000000000000000000000000000000000000000000000000000000000000000000000000000000000000000000000000000001000000000800000000000040000000000000000000000000000000000000000000000000000000000000000020000000000000000000000000800000000000000000000000000000000000000000000000000000000000000000000000000000000000000000000000000000000000000000000000000000000000000000000000000000000000000000000000000000000000000000000000000000000000000000000000000000000000",
      "type": "0x0",
      "transactionHash": "0x55a337de2e437d6b4f8bae23731b0f3dccbc612da7bdeb1f3c8f7202701e64f7",
      "transactionIndex": "0xd",
      "blockHash": "0xe25e8ec8fb3687b57191f43fec0c2df00a55fdd9071716296aef07727d782786",
      "blockNumber": "0x3c048be",
      "gasUsed": "0x1917e",
      "effectiveGasPrice": "0x5d22cfc40",
      "from": "0x04e1ec75c9fada2ff30e309e11cb5d2437dc3d4a",
      "to": "0x76ffd1d4317d351c3834a60818a9e5784b523154",
      "contractAddress": null,
      "l1BaseFeeScalar": "0x0",
      "l1BlobBaseFee": "0xcd5bf1c822464",
      "l1BlobBaseFeeScalar": "0x0",
      "l1Fee": "0x0",
      "l1GasPrice": "0x57deac6",
      "l1GasUsed": "0xba9"
    },
    {
      "status": "0x1",
      "cumulativeGasUsed": "0x166de2",
      "logs": [
        {
          "address": "0x7789ad82b8c0e8726325fba6363600de56eb60a0",
          "topics": [
            "0x8faa70878671ccd212d20771b795c50af8fd3ff6cf27f4bde57e5d4de0aeb673"
          ],
          "data": "0x0000000000000000000000000000000000000000000000000000000000000060000000000000000000000000d6e4b0e094c5ae63cdd3f6e622ed22030a3a908b00000000000000000000000000000000000000000000000000000000000001c00000000000000000000000000000000000000000000000000000000000000001000000000000000000000000000000000000000000000000000000000000002000000000000000000000000094491f1108c84a38cf6f060e90b01b5d0ea30e890000000000000000000000000000000000000000000000000000000000000003000000000000000000000000000000000000000000000000000000000000006000000000000000000000000000000000000000000000000000000000000000057d7c2a1c0000000000000000000000000000000000000000000000000000000053a3d62e00000000000000000000000000000000000000000000000000000000736dcb8b00000000000000000000000000000000000000000000000000000000e0ab98b5000000000000000000000000000000000000000000000000000000007d40af98000000000000000000000000000000000000000000000000000000000000000000000000000000000000000000000000000000000000000000000004e1c7392a00000000000000000000000000000000000000000000000000000000",
          "blockHash": "0xe25e8ec8fb3687b57191f43fec0c2df00a55fdd9071716296aef07727d782786",
          "blockNumber": "0x3c048be",
          "blockTimestamp": "0x69c9d114",
          "transactionHash": "0x2adf2177e1c52f1bff5f310feae4c1508efd6f8afca75c79f24d5d331c5cc0c2",
          "transactionIndex": "0xe",
          "logIndex": "0x24",
          "removed": false
        }
      ],
      "logsBloom": "0x00000000000000000000000001000000000000000000000000000000000000000000000000000000000000000000000000000000000000000000000000000000000000000000000000000000000000000000000001000000000800000000000000000000000000000000000000000000000000000000000000000000000000000020000000000200100000000000000000000000000000000000000000000000000000000000000000000000000000000000000000000000000000000000000000000000000000000000000000000000000000000000000000000000000000000000000000000000000000000000000000000000000000000000000000000000",
      "type": "0x0",
      "transactionHash": "0x2adf2177e1c52f1bff5f310feae4c1508efd6f8afca75c79f24d5d331c5cc0c2",
      "transactionIndex": "0xe",
      "blockHash": "0xe25e8ec8fb3687b57191f43fec0c2df00a55fdd9071716296aef07727d782786",
      "blockNumber": "0x3c048be",
      "gasUsed": "0x1917e",
      "effectiveGasPrice": "0x5d22cfc40",
      "from": "0x04e1ec75c9fada2ff30e309e11cb5d2437dc3d4a",
      "to": "0x7789ad82b8c0e8726325fba6363600de56eb60a0",
      "contractAddress": null,
      "l1BaseFeeScalar": "0x0",
      "l1BlobBaseFee": "0xcd5bf1c822464",
      "l1BlobBaseFeeScalar": "0x0",
      "l1Fee": "0x0",
      "l1GasPrice": "0x57deac6",
      "l1GasUsed": "0xba9"
    },
    {
      "status": "0x1",
      "cumulativeGasUsed": "0x1a6cd0",
      "logs": [
        {
          "address": "0x78c316103297b2ccacd01e422804ded636709826",
          "topics": [
            "0x8faa70878671ccd212d20771b795c50af8fd3ff6cf27f4bde57e5d4de0aeb673"
          ],
          "data": "0x0000000000000000000000000000000000000000000000000000000000000060000000000000000000000000d6e4b0e094c5ae63cdd3f6e622ed22030a3a908b00000000000000000000000000000000000000000000000000000000000001c00000000000000000000000000000000000000000000000000000000000000001000000000000000000000000000000000000000000000000000000000000002000000000000000000000000094491f1108c84a38cf6f060e90b01b5d0ea30e890000000000000000000000000000000000000000000000000000000000000003000000000000000000000000000000000000000000000000000000000000006000000000000000000000000000000000000000000000000000000000000000057d7c2a1c0000000000000000000000000000000000000000000000000000000053a3d62e00000000000000000000000000000000000000000000000000000000736dcb8b00000000000000000000000000000000000000000000000000000000e0ab98b5000000000000000000000000000000000000000000000000000000007d40af98000000000000000000000000000000000000000000000000000000000000000000000000000000000000000000000000000000000000000000000004e1c7392a00000000000000000000000000000000000000000000000000000000",
          "blockHash": "0xe25e8ec8fb3687b57191f43fec0c2df00a55fdd9071716296aef07727d782786",
          "blockNumber": "0x3c048be",
          "blockTimestamp": "0x69c9d114",
          "transactionHash": "0x040bdcdfad8598a83026751c172ec8676124f0a7f24d0c35d82d1cf58ef67806",
          "transactionIndex": "0x13",
          "logIndex": "0x29",
          "removed": false
        }
      ],
      "logsBloom": "0x00000000000000000000000000000000000000000000000000000000000000000000000000000000000000000000000000000000000000000000000020000000000000000000000000000000000000000000000001000000000800000000000000000000000000000000000000000000000000000000000000000000000000000020000000000000000000000000000000000000000000000000000000000000200000000000000000000000000000000000000000000000000000000000000000000000000000000000000000000000000000000000000000000000000000000000000000000000000000000000001000000000000000000000000000000000",
      "type": "0x0",
      "transactionHash": "0x040bdcdfad8598a83026751c172ec8676124f0a7f24d0c35d82d1cf58ef67806",
      "transactionIndex": "0x13",
      "blockHash": "0xe25e8ec8fb3687b57191f43fec0c2df00a55fdd9071716296aef07727d782786",
      "blockNumber": "0x3c048be",
      "gasUsed": "0x1917e",
      "effectiveGasPrice": "0x5d22cfc40",
      "from": "0x04e1ec75c9fada2ff30e309e11cb5d2437dc3d4a",
      "to": "0x78c316103297b2ccacd01e422804ded636709826",
      "contractAddress": null,
      "l1BaseFeeScalar": "0x0",
      "l1BlobBaseFee": "0xcd5bf1c822464",
      "l1BlobBaseFeeScalar": "0x0",
      "l1Fee": "0x0",
      "l1GasPrice": "0x57deac6",
      "l1GasUsed": "0xba9"
    },
    {
      "status": "0x1",
      "cumulativeGasUsed": "0x1bfe4e",
      "logs": [
        {
          "address": "0x86888c171c280676b15d63ae443a901640f182c1",
          "topics": [
            "0x8faa70878671ccd212d20771b795c50af8fd3ff6cf27f4bde57e5d4de0aeb673"
          ],
          "data": "0x0000000000000000000000000000000000000000000000000000000000000060000000000000000000000000d6e4b0e094c5ae63cdd3f6e622ed22030a3a908b00000000000000000000000000000000000000000000000000000000000001c00000000000000000000000000000000000000000000000000000000000000001000000000000000000000000000000000000000000000000000000000000002000000000000000000000000094491f1108c84a38cf6f060e90b01b5d0ea30e890000000000000000000000000000000000000000000000000000000000000003000000000000000000000000000000000000000000000000000000000000006000000000000000000000000000000000000000000000000000000000000000057d7c2a1c0000000000000000000000000000000000000000000000000000000053a3d62e00000000000000000000000000000000000000000000000000000000736dcb8b00000000000000000000000000000000000000000000000000000000e0ab98b5000000000000000000000000000000000000000000000000000000007d40af98000000000000000000000000000000000000000000000000000000000000000000000000000000000000000000000000000000000000000000000004e1c7392a00000000000000000000000000000000000000000000000000000000",
          "blockHash": "0xe25e8ec8fb3687b57191f43fec0c2df00a55fdd9071716296aef07727d782786",
          "blockNumber": "0x3c048be",
          "blockTimestamp": "0x69c9d114",
          "transactionHash": "0xf1b02afae037b7e0b6ed92b4e91816c7cb6469aefb180ba3c7fb2cd7992d7523",
          "transactionIndex": "0x14",
          "logIndex": "0x2a",
          "removed": false
        }
      ],
      "logsBloom": "0x00000000000000000000000000000000000000000000000000000000000000000000000000000000000000000000000000000000000000000000000000000000000000000000000000000000000000000000000001000400000800000000000000000000000000000000000000000000000000000000000000000000000000000020000000000000000000000000000000000000000000000000000000000000000000000000000000000000000000000000000000000000000000000000000000000000000000000000000000000000000000000000000000000000000000000000000000000900000000000000000000000000000000000000000000000000",
      "type": "0x0",
      "transactionHash": "0xf1b02afae037b7e0b6ed92b4e91816c7cb6469aefb180ba3c7fb2cd7992d7523",
      "transactionIndex": "0x14",
      "blockHash": "0xe25e8ec8fb3687b57191f43fec0c2df00a55fdd9071716296aef07727d782786",
      "blockNumber": "0x3c048be",
      "gasUsed": "0x1917e",
      "effectiveGasPrice": "0x5d22cfc40",
      "from": "0x04e1ec75c9fada2ff30e309e11cb5d2437dc3d4a",
      "to": "0x86888c171c280676b15d63ae443a901640f182c1",
      "contractAddress": null,
      "l1BaseFeeScalar": "0x0",
      "l1BlobBaseFee": "0xcd5bf1c822464",
      "l1BlobBaseFeeScalar": "0x0",
      "l1Fee": "0x0",
      "l1GasPrice": "0x57deac6",
      "l1GasUsed": "0xba9"
    },
    {
      "status": "0x1",
      "cumulativeGasUsed": "0x1d8fcc",
      "logs": [
        {
          "address": "0x8a8e6ac00d93ac766a25b7d6bbf0ca2e873f7725",
          "topics": [
            "0x8faa70878671ccd212d20771b795c50af8fd3ff6cf27f4bde57e5d4de0aeb673"
          ],
          "data": "0x0000000000000000000000000000000000000000000000000000000000000060000000000000000000000000d6e4b0e094c5ae63cdd3f6e622ed22030a3a908b00000000000000000000000000000000000000000000000000000000000001c00000000000000000000000000000000000000000000000000000000000000001000000000000000000000000000000000000000000000000000000000000002000000000000000000000000094491f1108c84a38cf6f060e90b01b5d0ea30e890000000000000000000000000000000000000000000000000000000000000003000000000000000000000000000000000000000000000000000000000000006000000000000000000000000000000000000000000000000000000000000000057d7c2a1c0000000000000000000000000000000000000000000000000000000053a3d62e00000000000000000000000000000000000000000000000000000000736dcb8b00000000000000000000000000000000000000000000000000000000e0ab98b5000000000000000000000000000000000000000000000000000000007d40af98000000000000000000000000000000000000000000000000000000000000000000000000000000000000000000000000000000000000000000000004e1c7392a00000000000000000000000000000000000000000000000000000000",
          "blockHash": "0xe25e8ec8fb3687b57191f43fec0c2df00a55fdd9071716296aef07727d782786",
          "blockNumber": "0x3c048be",
          "blockTimestamp": "0x69c9d114",
          "transactionHash": "0xcc2f0bf09e1721aa6a8c469d4d28636cb31ce11b1feb592fbdefd1e049a4db14",
          "transactionIndex": "0x15",
          "logIndex": "0x2b",
          "removed": false
        }
      ],
      "logsBloom": "0x00000040000000000000000000000000000000000000000000000000000000000000000000000000000000000000000000000000000000008000000000000000000000000000000000000000000000000000000001000000000800000000000000000000000000000000000000000800000000000000000000000000000000000020000000000000000000000000000000000000000000000000000000000000000000000000000000000000000000000000000000000000000000000000000000000000000000000000000000000000000000000000000000000000000000000000000000000000000000000000000000000000000000000000000000000000",
      "type": "0x0",
      "transactionHash": "0xcc2f0bf09e1721aa6a8c469d4d28636cb31ce11b1feb592fbdefd1e049a4db14",
      "transactionIndex": "0x15",
      "blockHash": "0xe25e8ec8fb3687b57191f43fec0c2df00a55fdd9071716296aef07727d782786",
      "blockNumber": "0x3c048be",
      "gasUsed": "0x1917e",
      "effectiveGasPrice": "0x5d22cfc40",
      "from": "0x04e1ec75c9fada2ff30e309e11cb5d2437dc3d4a",
      "to": "0x8a8e6ac00d93ac766a25b7d6bbf0ca2e873f7725",
      "contractAddress": null,
      "l1BaseFeeScalar": "0x0",
      "l1BlobBaseFee": "0xcd5bf1c822464",
      "l1BlobBaseFeeScalar": "0x0",
      "l1Fee": "0x0",
      "l1GasPrice": "0x57deac6",
      "l1GasUsed": "0xba9"
    }
  ],
  "libraries": [
    "pkg/contracts/src/CVStrategy/ConvictionsUtils.sol:ConvictionsUtils:0x70b24063ea84765B324387e21159B41aF48A9440",
    "pkg/contracts/src/CVStrategy/PowerManagementUtils.sol:PowerManagementUtils:0xB07d76F6001Cc62739d39cb0C5E9c58E08230486"
  ],
  "pending": [],
  "returns": {},
  "timestamp": 1774833941638,
  "chain": 42220,
  "commit": "8e5fd5852"
}