{
  "transactions": [
    {
      "hash": "0xb2c97565c2a73841a06ee38a41a16cc135fb936de6c29f05b81e33763690af90",
      "transactionType": "CALL",
      "contractName": null,
      "contractAddress": "0xc07652ad0f4c8ec5a613ff54afbbb3bcae59e46a",
      "function": "diamondCut((address,uint8,bytes4[])[],address,bytes)",
      "arguments": [
        "[(0x94491f1108c84a38cf6f060e90b01B5D0ea30e89, 3, [0x7d7c2a1c, 0x53a3d62e, 0x736dcb8b, 0xe0ab98b5, 0x7d40af98])]",
        "0xD6E4b0e094C5aE63cDd3f6e622ed22030A3a908B",
        "0xe1c7392a"
      ],
      "transaction": {
        "from": "0x04e1ec75c9fada2ff30e309e11cb5d2437dc3d4a",
        "to": "0xc07652ad0f4c8ec5a613ff54afbbb3bcae59e46a",
        "gas": "0x22a8e",
        "value": "0x0",
        "input": "0x1f931c1c0000000000000000000000000000000000000000000000000000000000000060000000000000000000000000d6e4b0e094c5ae63cdd3f6e622ed22030a3a908b00000000000000000000000000000000000000000000000000000000000001c00000000000000000000000000000000000000000000000000000000000000001000000000000000000000000000000000000000000000000000000000000002000000000000000000000000094491f1108c84a38cf6f060e90b01b5d0ea30e890000000000000000000000000000000000000000000000000000000000000003000000000000000000000000000000000000000000000000000000000000006000000000000000000000000000000000000000000000000000000000000000057d7c2a1c0000000000000000000000000000000000000000000000000000000053a3d62e00000000000000000000000000000000000000000000000000000000736dcb8b00000000000000000000000000000000000000000000000000000000e0ab98b5000000000000000000000000000000000000000000000000000000007d40af98000000000000000000000000000000000000000000000000000000000000000000000000000000000000000000000000000000000000000000000004e1c7392a00000000000000000000000000000000000000000000000000000000",
        "nonce": "0x3e",
        "chainId": "0xa4ec"
      },
      "additionalContracts": [],
      "isFixedGasLimit": false
    },
    {
      "hash": "0xd25bdfe27070d86af0e86baf26a2e391e745e0ea695213c59f7a7327c7051121",
      "transactionType": "CALL",
      "contractName": "ERC1967Proxy",
      "contractAddress": "0xc3ec9d39fb870d077b58f567f92dc2f5de7520af",
      "function": null,
      "arguments": null,
      "transaction": {
        "from": "0x04e1ec75c9fada2ff30e309e11cb5d2437dc3d4a",
        "to": "0xc3ec9d39fb870d077b58f567f92dc2f5de7520af",
        "gas": "0x22a8e",
        "value": "0x0",
        "input": "0x1f931c1c0000000000000000000000000000000000000000000000000000000000000060000000000000000000000000d6e4b0e094c5ae63cdd3f6e622ed22030a3a908b00000000000000000000000000000000000000000000000000000000000001c00000000000000000000000000000000000000000000000000000000000000001000000000000000000000000000000000000000000000000000000000000002000000000000000000000000094491f1108c84a38cf6f060e90b01b5d0ea30e890000000000000000000000000000000000000000000000000000000000000003000000000000000000000000000000000000000000000000000000000000006000000000000000000000000000000000000000000000000000000000000000057d7c2a1c0000000000000000000000000000000000000000000000000000000053a3d62e00000000000000000000000000000000000000000000000000000000736dcb8b00000000000000000000000000000000000000000000000000000000e0ab98b5000000000000000000000000000000000000000000000000000000007d40af98000000000000000000000000000000000000000000000000000000000000000000000000000000000000000000000000000000000000000000000004e1c7392a00000000000000000000000000000000000000000000000000000000",
        "nonce": "0x3f",
        "chainId": "0xa4ec"
      },
      "additionalContracts": [],
      "isFixedGasLimit": false
    },
    {
      "hash": "0x99a8ca66c1cfc0c83c01d0e81e53805d754e1001f969ff3c02099efbc93b7c78",
      "transactionType": "CALL",
      "contractName": "ERC1967Proxy",
      "contractAddress": "0xc4b8e51858df30123b3c4f74f6e4a1daee946c99",
      "function": null,
      "arguments": null,
      "transaction": {
        "from": "0x04e1ec75c9fada2ff30e309e11cb5d2437dc3d4a",
        "to": "0xc4b8e51858df30123b3c4f74f6e4a1daee946c99",
        "gas": "0x22a8e",
        "value": "0x0",
        "input": "0x1f931c1c0000000000000000000000000000000000000000000000000000000000000060000000000000000000000000d6e4b0e094c5ae63cdd3f6e622ed22030a3a908b00000000000000000000000000000000000000000000000000000000000001c00000000000000000000000000000000000000000000000000000000000000001000000000000000000000000000000000000000000000000000000000000002000000000000000000000000094491f1108c84a38cf6f060e90b01b5d0ea30e890000000000000000000000000000000000000000000000000000000000000003000000000000000000000000000000000000000000000000000000000000006000000000000000000000000000000000000000000000000000000000000000057d7c2a1c0000000000000000000000000000000000000000000000000000000053a3d62e00000000000000000000000000000000000000000000000000000000736dcb8b00000000000000000000000000000000000000000000000000000000e0ab98b5000000000000000000000000000000000000000000000000000000007d40af98000000000000000000000000000000000000000000000000000000000000000000000000000000000000000000000000000000000000000000000004e1c7392a00000000000000000000000000000000000000000000000000000000",
        "nonce": "0x40",
        "chainId": "0xa4ec"
      },
      "additionalContracts": [],
      "isFixedGasLimit": false
    },
    {
      "hash": "0x9b2b9afc8cc31b1a0fde2cb7efca4e15bfb5cca39f440574bb110abbc19733b3",
      "transactionType": "CALL",
      "contractName": "ERC1967Proxy",
      "contractAddress": "0xc7cf1a0496c358a3b51ac1822bf878ff7a93b76f",
      "function": null,
      "arguments": null,
      "transaction": {
        "from": "0x04e1ec75c9fada2ff30e309e11cb5d2437dc3d4a",
        "to": "0xc7cf1a0496c358a3b51ac1822bf878ff7a93b76f",
        "gas": "0x22a8e",
        "value": "0x0",
        "input": "0x1f931c1c0000000000000000000000000000000000000000000000000000000000000060000000000000000000000000d6e4b0e094c5ae63cdd3f6e622ed22030a3a908b00000000000000000000000000000000000000000000000000000000000001c00000000000000000000000000000000000000000000000000000000000000001000000000000000000000000000000000000000000000000000000000000002000000000000000000000000094491f1108c84a38cf6f060e90b01b5d0ea30e890000000000000000000000000000000000000000000000000000000000000003000000000000000000000000000000000000000000000000000000000000006000000000000000000000000000000000000000000000000000000000000000057d7c2a1c0000000000000000000000000000000000000000000000000000000053a3d62e00000000000000000000000000000000000000000000000000000000736dcb8b00000000000000000000000000000000000000000000000000000000e0ab98b5000000000000000000000000000000000000000000000000000000007d40af98000000000000000000000000000000000000000000000000000000000000000000000000000000000000000000000000000000000000000000000004e1c7392a00000000000000000000000000000000000000000000000000000000",
        "nonce": "0x41",
        "chainId": "0xa4ec"
      },
      "additionalContracts": [],
      "isFixedGasLimit": false
    },
    {
      "hash": "0x32c66a9244e0b3e0ca2bc5c34b4b2c57b4c7012241cebfe83dad81de110f21c6",
      "transactionType": "CALL",
      "contractName": null,
      "contractAddress": "0xcb857f1f2e36e0ee393125efa39802ece6363f80",
      "function": "diamondCut((address,uint8,bytes4[])[],address,bytes)",
      "arguments": [
        "[(0x94491f1108c84a38cf6f060e90b01B5D0ea30e89, 3, [0x7d7c2a1c, 0x53a3d62e, 0x736dcb8b, 0xe0ab98b5, 0x7d40af98])]",
        "0xD6E4b0e094C5aE63cDd3f6e622ed22030A3a908B",
        "0xe1c7392a"
      ],
      "transaction": {
        "from": "0x04e1ec75c9fada2ff30e309e11cb5d2437dc3d4a",
        "to": "0xcb857f1f2e36e0ee393125efa39802ece6363f80",
        "gas": "0x22a8e",
        "value": "0x0",
        "input": "0x1f931c1c0000000000000000000000000000000000000000000000000000000000000060000000000000000000000000d6e4b0e094c5ae63cdd3f6e622ed22030a3a908b00000000000000000000000000000000000000000000000000000000000001c00000000000000000000000000000000000000000000000000000000000000001000000000000000000000000000000000000000000000000000000000000002000000000000000000000000094491f1108c84a38cf6f060e90b01b5d0ea30e890000000000000000000000000000000000000000000000000000000000000003000000000000000000000000000000000000000000000000000000000000006000000000000000000000000000000000000000000000000000000000000000057d7c2a1c0000000000000000000000000000000000000000000000000000000053a3d62e00000000000000000000000000000000000000000000000000000000736dcb8b00000000000000000000000000000000000000000000000000000000e0ab98b5000000000000000000000000000000000000000000000000000000007d40af98000000000000000000000000000000000000000000000000000000000000000000000000000000000000000000000000000000000000000000000004e1c7392a00000000000000000000000000000000000000000000000000000000",
        "nonce": "0x42",
        "chainId": "0xa4ec"
      },
      "additionalContracts": [],
      "isFixedGasLimit": false
    },
    {
      "hash": "0xc39fc22f5c3e4209ee7af2b43fba084aa4c5904000cd47d2dd31a31743618cc0",
      "transactionType": "CALL",
      "contractName": "ERC1967Proxy",
      "contractAddress": "0xd20a0c8f6ec1026a1960c6f0f4a6df1a381d9938",
      "function": null,
      "arguments": null,
      "transaction": {
        "from": "0x04e1ec75c9fada2ff30e309e11cb5d2437dc3d4a",
        "to": "0xd20a0c8f6ec1026a1960c6f0f4a6df1a381d9938",
        "gas": "0x22a8e",
        "value": "0x0",
        "input": "0x1f931c1c0000000000000000000000000000000000000000000000000000000000000060000000000000000000000000d6e4b0e094c5ae63cdd3f6e622ed22030a3a908b00000000000000000000000000000000000000000000000000000000000001c00000000000000000000000000000000000000000000000000000000000000001000000000000000000000000000000000000000000000000000000000000002000000000000000000000000094491f1108c84a38cf6f060e90b01b5d0ea30e890000000000000000000000000000000000000000000000000000000000000003000000000000000000000000000000000000000000000000000000000000006000000000000000000000000000000000000000000000000000000000000000057d7c2a1c0000000000000000000000000000000000000000000000000000000053a3d62e00000000000000000000000000000000000000000000000000000000736dcb8b00000000000000000000000000000000000000000000000000000000e0ab98b5000000000000000000000000000000000000000000000000000000007d40af98000000000000000000000000000000000000000000000000000000000000000000000000000000000000000000000000000000000000000000000004e1c7392a00000000000000000000000000000000000000000000000000000000",
        "nonce": "0x43",
        "chainId": "0xa4ec"
      },
      "additionalContracts": [],
      "isFixedGasLimit": false
    },
    {
      "hash": "0x8a7df89042ba1670901d1efea934ee4f2f95c108eca77c70cb65176444abe837",
      "transactionType": "CALL",
      "contractName": null,
      "contractAddress": "0xd251c52c091c54a14e00ad1a31a4cffb9e6c8197",
      "function": "diamondCut((address,uint8,bytes4[])[],address,bytes)",
      "arguments": [
        "[(0x94491f1108c84a38cf6f060e90b01B5D0ea30e89, 3, [0x7d7c2a1c, 0x53a3d62e, 0x736dcb8b, 0xe0ab98b5, 0x7d40af98])]",
        "0xD6E4b0e094C5aE63cDd3f6e622ed22030A3a908B",
        "0xe1c7392a"
      ],
      "transaction": {
        "from": "0x04e1ec75c9fada2ff30e309e11cb5d2437dc3d4a",
        "to": "0xd251c52c091c54a14e00ad1a31a4cffb9e6c8197",
        "gas": "0x22a8e",
        "value": "0x0",
        "input": "0x1f931c1c0000000000000000000000000000000000000000000000000000000000000060000000000000000000000000d6e4b0e094c5ae63cdd3f6e622ed22030a3a908b00000000000000000000000000000000000000000000000000000000000001c00000000000000000000000000000000000000000000000000000000000000001000000000000000000000000000000000000000000000000000000000000002000000000000000000000000094491f1108c84a38cf6f060e90b01b5d0ea30e890000000000000000000000000000000000000000000000000000000000000003000000000000000000000000000000000000000000000000000000000000006000000000000000000000000000000000000000000000000000000000000000057d7c2a1c0000000000000000000000000000000000000000000000000000000053a3d62e00000000000000000000000000000000000000000000000000000000736dcb8b00000000000000000000000000000000000000000000000000000000e0ab98b5000000000000000000000000000000000000000000000000000000007d40af98000000000000000000000000000000000000000000000000000000000000000000000000000000000000000000000000000000000000000000000004e1c7392a00000000000000000000000000000000000000000000000000000000",
        "nonce": "0x44",
        "chainId": "0xa4ec"
      },
      "additionalContracts": [],
      "isFixedGasLimit": false
    },
    {
      "hash": "0x1355009ccc21ed7f0d54900ffe73c99426fd566ccf87d24c6c2019e7c9421bca",
      "transactionType": "CALL",
      "contractName": "ERC1967Proxy",
      "contractAddress": "0xd339c8f96e25743733a2019ece30b1c15c00ce55",
      "function": null,
      "arguments": null,
      "transaction": {
        "from": "0x04e1ec75c9fada2ff30e309e11cb5d2437dc3d4a",
        "to": "0xd339c8f96e25743733a2019ece30b1c15c00ce55",
        "gas": "0x24b57",
        "value": "0x0",
        "input": "0x1f931c1c0000000000000000000000000000000000000000000000000000000000000060000000000000000000000000d6e4b0e094c5ae63cdd3f6e622ed22030a3a908b00000000000000000000000000000000000000000000000000000000000001c00000000000000000000000000000000000000000000000000000000000000001000000000000000000000000000000000000000000000000000000000000002000000000000000000000000094491f1108c84a38cf6f060e90b01b5d0ea30e890000000000000000000000000000000000000000000000000000000000000003000000000000000000000000000000000000000000000000000000000000006000000000000000000000000000000000000000000000000000000000000000057d7c2a1c0000000000000000000000000000000000000000000000000000000053a3d62e00000000000000000000000000000000000000000000000000000000736dcb8b00000000000000000000000000000000000000000000000000000000e0ab98b5000000000000000000000000000000000000000000000000000000007d40af98000000000000000000000000000000000000000000000000000000000000000000000000000000000000000000000000000000000000000000000004e1c7392a00000000000000000000000000000000000000000000000000000000",
        "nonce": "0x45",
        "chainId": "0xa4ec"
      },
      "additionalContracts": [],
      "isFixedGasLimit": false
    },
    {
      "hash": "0x7074bc7d0bc28604cf3ac1f2873182148bb52b5870715bc37ebcff65ea4dceb4",
      "transactionType": "CALL",
      "contractName": null,
      "contractAddress": "0xd9720538780f5f8043667e57fb17cbd714b2aae7",
      "function": "diamondCut((address,uint8,bytes4[])[],address,bytes)",
      "arguments": [
        "[(0x94491f1108c84a38cf6f060e90b01B5D0ea30e89, 3, [0x7d7c2a1c, 0x53a3d62e, 0x736dcb8b, 0xe0ab98b5, 0x7d40af98])]",
        "0xD6E4b0e094C5aE63cDd3f6e622ed22030A3a908B",
        "0xe1c7392a"
      ],
      "transaction": {
        "from": "0x04e1ec75c9fada2ff30e309e11cb5d2437dc3d4a",
        "to": "0xd9720538780f5f8043667e57fb17cbd714b2aae7",
        "gas": "0x22a8e",
        "value": "0x0",
        "input": "0x1f931c1c0000000000000000000000000000000000000000000000000000000000000060000000000000000000000000d6e4b0e094c5ae63cdd3f6e622ed22030a3a908b00000000000000000000000000000000000000000000000000000000000001c00000000000000000000000000000000000000000000000000000000000000001000000000000000000000000000000000000000000000000000000000000002000000000000000000000000094491f1108c84a38cf6f060e90b01b5d0ea30e890000000000000000000000000000000000000000000000000000000000000003000000000000000000000000000000000000000000000000000000000000006000000000000000000000000000000000000000000000000000000000000000057d7c2a1c0000000000000000000000000000000000000000000000000000000053a3d62e00000000000000000000000000000000000000000000000000000000736dcb8b00000000000000000000000000000000000000000000000000000000e0ab98b5000000000000000000000000000000000000000000000000000000007d40af98000000000000000000000000000000000000000000000000000000000000000000000000000000000000000000000000000000000000000000000004e1c7392a00000000000000000000000000000000000000000000000000000000",
        "nonce": "0x46",
        "chainId": "0xa4ec"
      },
      "additionalContracts": [],
      "isFixedGasLimit": false
    },
    {
      "hash": "0xde03e7ba17adf225eb745126efc3bada3a5cde4f5b5f97987ee17e5ac7831ea1",
      "transactionType": "CALL",
      "contractName": "ERC1967Proxy",
      "contractAddress": "0xdaeeed0e9f48e5efd023d774ab19415de8aedd8f",
      "function": null,
      "arguments": null,
      "transaction": {
        "from": "0x04e1ec75c9fada2ff30e309e11cb5d2437dc3d4a",
        "to": "0xdaeeed0e9f48e5efd023d774ab19415de8aedd8f",
        "gas": "0x24b57",
        "value": "0x0",
        "input": "0x1f931c1c0000000000000000000000000000000000000000000000000000000000000060000000000000000000000000d6e4b0e094c5ae63cdd3f6e622ed22030a3a908b00000000000000000000000000000000000000000000000000000000000001c00000000000000000000000000000000000000000000000000000000000000001000000000000000000000000000000000000000000000000000000000000002000000000000000000000000094491f1108c84a38cf6f060e90b01b5d0ea30e890000000000000000000000000000000000000000000000000000000000000003000000000000000000000000000000000000000000000000000000000000006000000000000000000000000000000000000000000000000000000000000000057d7c2a1c0000000000000000000000000000000000000000000000000000000053a3d62e00000000000000000000000000000000000000000000000000000000736dcb8b00000000000000000000000000000000000000000000000000000000e0ab98b5000000000000000000000000000000000000000000000000000000007d40af98000000000000000000000000000000000000000000000000000000000000000000000000000000000000000000000000000000000000000000000004e1c7392a00000000000000000000000000000000000000000000000000000000",
        "nonce": "0x47",
        "chainId": "0xa4ec"
      },
      "additionalContracts": [],
      "isFixedGasLimit": false
    }
  ],
  "receipts": [
    {
      "status": "0x1",
      "cumulativeGasUsed": "0xec756",
      "logs": [
        {
          "address": "0xc07652ad0f4c8ec5a613ff54afbbb3bcae59e46a",
          "topics": [
            "0x8faa70878671ccd212d20771b795c50af8fd3ff6cf27f4bde57e5d4de0aeb673"
          ],
          "data": "0x0000000000000000000000000000000000000000000000000000000000000060000000000000000000000000d6e4b0e094c5ae63cdd3f6e622ed22030a3a908b00000000000000000000000000000000000000000000000000000000000001c00000000000000000000000000000000000000000000000000000000000000001000000000000000000000000000000000000000000000000000000000000002000000000000000000000000094491f1108c84a38cf6f060e90b01b5d0ea30e890000000000000000000000000000000000000000000000000000000000000003000000000000000000000000000000000000000000000000000000000000006000000000000000000000000000000000000000000000000000000000000000057d7c2a1c0000000000000000000000000000000000000000000000000000000053a3d62e00000000000000000000000000000000000000000000000000000000736dcb8b00000000000000000000000000000000000000000000000000000000e0ab98b5000000000000000000000000000000000000000000000000000000007d40af98000000000000000000000000000000000000000000000000000000000000000000000000000000000000000000000000000000000000000000000004e1c7392a00000000000000000000000000000000000000000000000000000000",
          "blockHash": "0xbd125aefcc6348e334a7c0d5a4d1929d2070e70ed9a0b328079f50fec322be0f",
          "blockNumber": "0x3c04b84",
          "blockTimestamp": "0x69c9d3da",
          "transactionHash": "0x99a8ca66c1cfc0c83c01d0e81e53805d754e1001f969ff3c02099efbc93b7c78",
          "transactionIndex": "0x9",
          "logIndex": "0x1a",
          "removed": false
        }
      ],
      "logsBloom": "0x00000000000000000008000000000000000000000000000000000000000000000000000000000000000000000000000000000000000000000000000000000000000000000000000000000000000000000000000001000000000800000000000000000000000000000000000000000000000000000000000000000000000000000020000000000000000000001000000000000000000000000000000000000000000000000000000000000000000000000000000000000000000000100000000000000000000000000000000000000000000000000000000000000000000000000000000000000000000000000000000000000000000000000000000000000000",
      "type": "0x0",
      "transactionHash": "0x99a8ca66c1cfc0c83c01d0e81e53805d754e1001f969ff3c02099efbc93b7c78",
      "transactionIndex": "0x9",
      "blockHash": "0xbd125aefcc6348e334a7c0d5a4d1929d2070e70ed9a0b328079f50fec322be0f",
      "blockNumber": "0x3c04b84",
      "gasUsed": "0x1917e",
      "effectiveGasPrice": "0x5d22cfc40",
      "from": "0x04e1ec75c9fada2ff30e309e11cb5d2437dc3d4a",
      "to": "0xc07652ad0f4c8ec5a613ff54afbbb3bcae59e46a",
      "contractAddress": null,
      "l1BaseFeeScalar": "0x0",
      "l1BlobBaseFee": "0x1da87e1d74d7d0",
      "l1BlobBaseFeeScalar": "0x0",
      "l1Fee": "0x0",
      "l1GasPrice": "0x7187236",
      "l1GasUsed": "0xba9"
    },
    {
      "status": "0x1",
      "cumulativeGasUsed": "0x122ae5",
      "logs": [
        {
          "address": "0xc3ec9d39fb870d077b58f567f92dc2f5de7520af",
          "topics": [
            "0x8faa70878671ccd212d20771b795c50af8fd3ff6cf27f4bde57e5d4de0aeb673"
          ],
          "data": "0x0000000000000000000000000000000000000000000000000000000000000060000000000000000000000000d6e4b0e094c5ae63cdd3f6e622ed22030a3a908b00000000000000000000000000000000000000000000000000000000000001c00000000000000000000000000000000000000000000000000000000000000001000000000000000000000000000000000000000000000000000000000000002000000000000000000000000094491f1108c84a38cf6f060e90b01b5d0ea30e890000000000000000000000000000000000000000000000000000000000000003000000000000000000000000000000000000000000000000000000000000006000000000000000000000000000000000000000000000000000000000000000057d7c2a1c0000000000000000000000000000000000000000000000000000000053a3d62e00000000000000000000000000000000000000000000000000000000736dcb8b00000000000000000000000000000000000000000000000000000000e0ab98b5000000000000000000000000000000000000000000000000000000007d40af98000000000000000000000000000000000000000000000000000000000000000000000000000000000000000000000000000000000000000000000004e1c7392a00000000000000000000000000000000000000000000000000000000",
          "blockHash": "0xbd125aefcc6348e334a7c0d5a4d1929d2070e70ed9a0b328079f50fec322be0f",
          "blockNumber": "0x3c04b84",
          "blockTimestamp": "0x69c9d3da",
          "transactionHash": "0x7074bc7d0bc28604cf3ac1f2873182148bb52b5870715bc37ebcff65ea4dceb4",
          "transactionIndex": "0xd",
          "logIndex": "0x1e",
          "removed": false
        }
      ],
      "logsBloom": "0x00000000000000000000000000000000100000000000000000000000000000000000000000000000000000000000000000000000000000000000000000000000000000000000000000000000000000000000000001000004000800000000000000000000000040000000000000000000000000000000000000000000000000000020000000000000000000000000000000000000000000000000000000000000000000000000000000000000000000000000000000000000000000000000000000000000000000000000000000000000000000000000000000000000000000000000000000000000000000000000000000000000000000000000000000000000",
      "type": "0x0",
      "transactionHash": "0x7074bc7d0bc28604cf3ac1f2873182148bb52b5870715bc37ebcff65ea4dceb4",
      "transactionIndex": "0xd",
      "blockHash": "0xbd125aefcc6348e334a7c0d5a4d1929d2070e70ed9a0b328079f50fec322be0f",
      "blockNumber": "0x3c04b84",
      "gasUsed": "0x1917e",
      "effectiveGasPrice": "0x5d22cfc40",
      "from": "0x04e1ec75c9fada2ff30e309e11cb5d2437dc3d4a",
      "to": "0xc3ec9d39fb870d077b58f567f92dc2f5de7520af",
      "contractAddress": null,
      "l1BaseFeeScalar": "0x0",
      "l1BlobBaseFee": "0x1da87e1d74d7d0",
      "l1BlobBaseFeeScalar": "0x0",
      "l1Fee": "0x0",
      "l1GasPrice": "0x7187236",
      "l1GasUsed": "0xba9"
    },
    {
      "status": "0x1",
      "cumulativeGasUsed": "0x1457c2",
      "logs": [
        {
          "address": "0xc4b8e51858df30123b3c4f74f6e4a1daee946c99",
          "topics": [
            "0x8faa70878671ccd212d20771b795c50af8fd3ff6cf27f4bde57e5d4de0aeb673"
          ],
          "data": "0x0000000000000000000000000000000000000000000000000000000000000060000000000000000000000000d6e4b0e094c5ae63cdd3f6e622ed22030a3a908b00000000000000000000000000000000000000000000000000000000000001c00000000000000000000000000000000000000000000000000000000000000001000000000000000000000000000000000000000000000000000000000000002000000000000000000000000094491f1108c84a38cf6f060e90b01b5d0ea30e890000000000000000000000000000000000000000000000000000000000000003000000000000000000000000000000000000000000000000000000000000006000000000000000000000000000000000000000000000000000000000000000057d7c2a1c0000000000000000000000000000000000000000000000000000000053a3d62e00000000000000000000000000000000000000000000000000000000736dcb8b00000000000000000000000000000000000000000000000000000000e0ab98b5000000000000000000000000000000000000000000000000000000007d40af98000000000000000000000000000000000000000000000000000000000000000000000000000000000000000000000000000000000000000000000004e1c7392a00000000000000000000000000000000000000000000000000000000",
          "blockHash": "0xbd125aefcc6348e334a7c0d5a4d1929d2070e70ed9a0b328079f50fec322be0f",
          "blockNumber": "0x3c04b84",
          "blockTimestamp": "0x69c9d3da",
          "transactionHash": "0x1355009ccc21ed7f0d54900ffe73c99426fd566ccf87d24c6c2019e7c9421bca",
          "transactionIndex": "0xf",
          "logIndex": "0x20",
          "removed": false
        }
      ],
      "logsBloom": "0x00000000000000000000000000000000000000000000000000000000000000000000000000000000000000000000000000000000000000000000000000000000000000000000000000000000000000000000000001000000000800000000000000000800000000000000000000000000000000000000000000000000000000000020000000000000000000000000000000000000000000000000000000000000000000000000000000000000000000000000000001000000000000000000000000000000000000000000000000000000000000000000000000000000000000000000000000000000000000000000000000001000000000000000000000000000",
      "type": "0x0",
      "transactionHash": "0x1355009ccc21ed7f0d54900ffe73c99426fd566ccf87d24c6c2019e7c9421bca",
      "transactionIndex": "0xf",
      "blockHash": "0xbd125aefcc6348e334a7c0d5a4d1929d2070e70ed9a0b328079f50fec322be0f",
      "blockNumber": "0x3c04b84",
      "gasUsed": "0x1917e",
      "effectiveGasPrice": "0x5d22cfc40",
      "from": "0x04e1ec75c9fada2ff30e309e11cb5d2437dc3d4a",
      "to": "0xc4b8e51858df30123b3c4f74f6e4a1daee946c99",
      "contractAddress": null,
      "l1BaseFeeScalar": "0x0",
      "l1BlobBaseFee": "0x1da87e1d74d7d0",
      "l1BlobBaseFeeScalar": "0x0",
      "l1Fee": "0x0",
      "l1GasPrice": "0x7187236",
      "l1GasUsed": "0xba9"
    },
    {
      "status": "0x1",
      "cumulativeGasUsed": "0x15e940",
      "logs": [
        {
          "address": "0xc7cf1a0496c358a3b51ac1822bf878ff7a93b76f",
          "topics": [
            "0x8faa70878671ccd212d20771b795c50af8fd3ff6cf27f4bde57e5d4de0aeb673"
          ],
          "data": "0x0000000000000000000000000000000000000000000000000000000000000060000000000000000000000000d6e4b0e094c5ae63cdd3f6e622ed22030a3a908b00000000000000000000000000000000000000000000000000000000000001c00000000000000000000000000000000000000000000000000000000000000001000000000000000000000000000000000000000000000000000000000000002000000000000000000000000094491f1108c84a38cf6f060e90b01b5d0ea30e890000000000000000000000000000000000000000000000000000000000000003000000000000000000000000000000000000000000000000000000000000006000000000000000000000000000000000000000000000000000000000000000057d7c2a1c0000000000000000000000000000000000000000000000000000000053a3d62e00000000000000000000000000000000000000000000000000000000736dcb8b00000000000000000000000000000000000000000000000000000000e0ab98b5000000000000000000000000000000000000000000000000000000007d40af98000000000000000000000000000000000000000000000000000000000000000000000000000000000000000000000000000000000000000000000004e1c7392a00000000000000000000000000000000000000000000000000000000",
          "blockHash": "0xbd125aefcc6348e334a7c0d5a4d1929d2070e70ed9a0b328079f50fec322be0f",
          "blockNumber": "0x3c04b84",
          "blockTimestamp": "0x69c9d3da",
          "transactionHash": "0xde03e7ba17adf225eb745126efc3bada3a5cde4f5b5f97987ee17e5ac7831ea1",
          "transactionIndex": "0x10",
          "logIndex": "0x21",
          "removed": false
        }
      ],
      "logsBloom": "0x00400000000000000000000000000000000000000000000000000000000000000000000000000000000000000000000000000000000000000000000000000000000000004000000000000000000000000000000001000000000800000000000000000000000000000000000000000000000000000000000000000000000000000020000000000000000000000000000000000000000000000000000000000000000000000000000000000000000000000000000000000000000000000000000000000000000000000000000000000000000000000000000000000800000000000000000000000000000000000000000000000000000000000000000000000000",
      "type": "0x0",
      "transactionHash": "0xde03e7ba17adf225eb745126efc3bada3a5cde4f5b5f97987ee17e5ac7831ea1",
      "transactionIndex": "0x10",
      "blockHash": "0xbd125aefcc6348e334a7c0d5a4d1929d2070e70ed9a0b328079f50fec322be0f",
      "blockNumber": "0x3c04b84",
      "gasUsed": "0x1917e",
      "effectiveGasPrice": "0x5d22cfc40",
      "from": "0x04e1ec75c9fada2ff30e309e11cb5d2437dc3d4a",
      "to": "0xc7cf1a0496c358a3b51ac1822bf878ff7a93b76f",
      "contractAddress": null,
      "l1BaseFeeScalar": "0x0",
      "l1BlobBaseFee": "0x1da87e1d74d7d0",
      "l1BlobBaseFeeScalar": "0x0",
      "l1Fee": "0x0",
      "l1GasPrice": "0x7187236",
      "l1GasUsed": "0xba9"
    },
    {
      "status": "0x1",
      "cumulativeGasUsed": "0x177abe",
      "logs": [
        {
          "address": "0xcb857f1f2e36e0ee393125efa39802ece6363f80",
          "topics": [
            "0x8faa70878671ccd212d20771b795c50af8fd3ff6cf27f4bde57e5d4de0aeb673"
          ],
          "data": "0x0000000000000000000000000000000000000000000000000000000000000060000000000000000000000000d6e4b0e094c5ae63cdd3f6e622ed22030a3a908b00000000000000000000000000000000000000000000000000000000000001c00000000000000000000000000000000000000000000000000000000000000001000000000000000000000000000000000000000000000000000000000000002000000000000000000000000094491f1108c84a38cf6f060e90b01b5d0ea30e890000000000000000000000000000000000000000000000000000000000000003000000000000000000000000000000000000000000000000000000000000006000000000000000000000000000000000000000000000000000000000000000057d7c2a1c0000000000000000000000000000000000000000000000000000000053a3d62e00000000000000000000000000000000000000000000000000000000736dcb8b00000000000000000000000000000000000000000000000000000000e0ab98b5000000000000000000000000000000000000000000000000000000007d40af98000000000000000000000000000000000000000000000000000000000000000000000000000000000000000000000000000000000000000000000004e1c7392a00000000000000000000000000000000000000000000000000000000",
          "blockHash": "0xbd125aefcc6348e334a7c0d5a4d1929d2070e70ed9a0b328079f50fec322be0f",
          "blockNumber": "0x3c04b84",
          "blockTimestamp": "0x69c9d3da",
          "transactionHash": "0xb2c97565c2a73841a06ee38a41a16cc135fb936de6c29f05b81e33763690af90",
          "transactionIndex": "0x11",
          "logIndex": "0x22",
          "removed": false
        }
      ],
      "logsBloom": "0x00000000000000000000000000000000000000000000000000000000000000000000000000000000000000000000000000000000000000000000000000000000000000000000000000000000000000000000000001000000000800000000000000000000000000000000000000800000000000000000000000000000000000800020000000000000000000000000000000000000000000000000000010000000000000000000000000000000000000000000000000000000000000000000000000000000000000000000000000000000000000000000000000000000000000000000000000000000000000000000000000000000000000000000000000000000",
      "type": "0x0",
      "transactionHash": "0xb2c97565c2a73841a06ee38a41a16cc135fb936de6c29f05b81e33763690af90",
      "transactionIndex": "0x11",
      "blockHash": "0xbd125aefcc6348e334a7c0d5a4d1929d2070e70ed9a0b328079f50fec322be0f",
      "blockNumber": "0x3c04b84",
      "gasUsed": "0x1917e",
      "effectiveGasPrice": "0x5d22cfc40",
      "from": "0x04e1ec75c9fada2ff30e309e11cb5d2437dc3d4a",
      "to": "0xcb857f1f2e36e0ee393125efa39802ece6363f80",
      "contractAddress": null,
      "l1BaseFeeScalar": "0x0",
      "l1BlobBaseFee": "0x1da87e1d74d7d0",
      "l1BlobBaseFeeScalar": "0x0",
      "l1Fee": "0x0",
      "l1GasPrice": "0x7187236",
      "l1GasUsed": "0xba9"
    },
    {
      "status": "0x1",
      "cumulativeGasUsed": "0x190c3c",
      "logs": [
        {
          "address": "0xd20a0c8f6ec1026a1960c6f0f4a6df1a381d9938",
          "topics": [
            "0x8faa70878671ccd212d20771b795c50af8fd3ff6cf27f4bde57e5d4de0aeb673"
          ],
          "data": "0x0000000000000000000000000000000000000000000000000000000000000060000000000000000000000000d6e4b0e094c5ae63cdd3f6e622ed22030a3a908b00000000000000000000000000000000000000000000000000000000000001c00000000000000000000000000000000000000000000000000000000000000001000000000000000000000000000000000000000000000000000000000000002000000000000000000000000094491f1108c84a38cf6f060e90b01b5d0ea30e890000000000000000000000000000000000000000000000000000000000000003000000000000000000000000000000000000000000000000000000000000006000000000000000000000000000000000000000000000000000000000000000057d7c2a1c0000000000000000000000000000000000000000000000000000000053a3d62e00000000000000000000000000000000000000000000000000000000736dcb8b00000000000000000000000000000000000000000000000000000000e0ab98b5000000000000000000000000000000000000000000000000000000007d40af98000000000000000000000000000000000000000000000000000000000000000000000000000000000000000000000000000000000000000000000004e1c7392a00000000000000000000000000000000000000000000000000000000",
          "blockHash": "0xbd125aefcc6348e334a7c0d5a4d1929d2070e70ed9a0b328079f50fec322be0f",
          "blockNumber": "0x3c04b84",
          "blockTimestamp": "0x69c9d3da",
          "transactionHash": "0xd25bdfe27070d86af0e86baf26a2e391e745e0ea695213c59f7a7327c7051121",
          "transactionIndex": "0x12",
          "logIndex": "0x23",
          "removed": false
        }
      ],
      "logsBloom": "0x00000000000000000000000000000000000000000000000000000000020000000000200000000000000000000000000000000000000000000000000000000000000000000000000000000000000000000000000001000000000800000000000000000000000000000000000000000000000000000000000000000000000000000020000000000000000000000000000000000000000000000000000000000000000000000000000000000000000000000000000000080000000000000000000000000000000000000000000000000000000000000000000000000000000000000000000000000000000000000000000000000000000000000000000000000000",
      "type": "0x0",
      "transactionHash": "0xd25bdfe27070d86af0e86baf26a2e391e745e0ea695213c59f7a7327c7051121",
      "transactionIndex": "0x12",
      "blockHash": "0xbd125aefcc6348e334a7c0d5a4d1929d2070e70ed9a0b328079f50fec322be0f",
      "blockNumber": "0x3c04b84",
      "gasUsed": "0x1917e",
      "effectiveGasPrice": "0x5d22cfc40",
      "from": "0x04e1ec75c9fada2ff30e309e11cb5d2437dc3d4a",
      "to": "0xd20a0c8f6ec1026a1960c6f0f4a6df1a381d9938",
      "contractAddress": null,
      "l1BaseFeeScalar": "0x0",
      "l1BlobBaseFee": "0x1da87e1d74d7d0",
      "l1BlobBaseFeeScalar": "0x0",
      "l1Fee": "0x0",
      "l1GasPrice": "0x7187236",
      "l1GasUsed": "0xba9"
    },
    {
      "status": "0x1",
      "cumulativeGasUsed": "0x1a9dba",
      "logs": [
        {
          "address": "0xd251c52c091c54a14e00ad1a31a4cffb9e6c8197",
          "topics": [
            "0x8faa70878671ccd212d20771b795c50af8fd3ff6cf27f4bde57e5d4de0aeb673"
          ],
          "data": "0x0000000000000000000000000000000000000000000000000000000000000060000000000000000000000000d6e4b0e094c5ae63cdd3f6e622ed22030a3a908b00000000000000000000000000000000000000000000000000000000000001c00000000000000000000000000000000000000000000000000000000000000001000000000000000000000000000000000000000000000000000000000000002000000000000000000000000094491f1108c84a38cf6f060e90b01b5d0ea30e890000000000000000000000000000000000000000000000000000000000000003000000000000000000000000000000000000000000000000000000000000006000000000000000000000000000000000000000000000000000000000000000057d7c2a1c0000000000000000000000000000000000000000000000000000000053a3d62e00000000000000000000000000000000000000000000000000000000736dcb8b00000000000000000000000000000000000000000000000000000000e0ab98b5000000000000000000000000000000000000000000000000000000007d40af98000000000000000000000000000000000000000000000000000000000000000000000000000000000000000000000000000000000000000000000004e1c7392a00000000000000000000000000000000000000000000000000000000",
          "blockHash": "0xbd125aefcc6348e334a7c0d5a4d1929d2070e70ed9a0b328079f50fec322be0f",
          "blockNumber": "0x3c04b84",
          "blockTimestamp": "0x69c9d3da",
          "transactionHash": "0x9b2b9afc8cc31b1a0fde2cb7efca4e15bfb5cca39f440574bb110abbc19733b3",
          "transactionIndex": "0x13",
          "logIndex": "0x24",
          "removed": false
        }
      ],
      "logsBloom": "0x00000000000000000000000000000000000000000000000000000000000000000000000000000000000000000000010000000000000000000000000000000000000000000000000000000000000000000000000001000000000800000000000000000000000000000000000000000000000000000000000000000000000000000020000000000000000000000000000000000000000000000000000000000000000000000000000000000000080000000000000000000000000002000000000000000000000000000000000000000000000000000000000000000000000000000000000000000000000000000000000000000000000000000000000000000000",
      "type": "0x0",
      "transactionHash": "0x9b2b9afc8cc31b1a0fde2cb7efca4e15bfb5cca39f440574bb110abbc19733b3",
      "transactionIndex": "0x13",
      "blockHash": "0xbd125aefcc6348e334a7c0d5a4d1929d2070e70ed9a0b328079f50fec322be0f",
      "blockNumber": "0x3c04b84",
      "gasUsed": "0x1917e",
      "effectiveGasPrice": "0x5d22cfc40",
      "from": "0x04e1ec75c9fada2ff30e309e11cb5d2437dc3d4a",
      "to": "0xd251c52c091c54a14e00ad1a31a4cffb9e6c8197",
      "contractAddress": null,
      "l1BaseFeeScalar": "0x0",
      "l1BlobBaseFee": "0x1da87e1d74d7d0",
      "l1BlobBaseFeeScalar": "0x0",
      "l1Fee": "0x0",
      "l1GasPrice": "0x7187236",
      "l1GasUsed": "0xba9"
    },
    {
      "status": "0x1",
      "cumulativeGasUsed": "0xc82f8",
      "logs": [
        {
          "address": "0xd339c8f96e25743733a2019ece30b1c15c00ce55",
          "topics": [
            "0x8faa70878671ccd212d20771b795c50af8fd3ff6cf27f4bde57e5d4de0aeb673"
          ],
          "data": "0x0000000000000000000000000000000000000000000000000000000000000060000000000000000000000000d6e4b0e094c5ae63cdd3f6e622ed22030a3a908b00000000000000000000000000000000000000000000000000000000000001c00000000000000000000000000000000000000000000000000000000000000001000000000000000000000000000000000000000000000000000000000000002000000000000000000000000094491f1108c84a38cf6f060e90b01b5d0ea30e890000000000000000000000000000000000000000000000000000000000000003000000000000000000000000000000000000000000000000000000000000006000000000000000000000000000000000000000000000000000000000000000057d7c2a1c0000000000000000000000000000000000000000000000000000000053a3d62e00000000000000000000000000000000000000000000000000000000736dcb8b00000000000000000000000000000000000000000000000000000000e0ab98b5000000000000000000000000000000000000000000000000000000007d40af98000000000000000000000000000000000000000000000000000000000000000000000000000000000000000000000000000000000000000000000004e1c7392a00000000000000000000000000000000000000000000000000000000",
          "blockHash": "0x6757d0828827504ecf3fd11771a60b6870ef08147a435f6fa542b595b610e6df",
          "blockNumber": "0x3c04b85",
          "blockTimestamp": "0x69c9d3db",
          "transactionHash": "0xc39fc22f5c3e4209ee7af2b43fba084aa4c5904000cd47d2dd31a31743618cc0",
          "transactionIndex": "0x5",
          "logIndex": "0x1a",
          "removed": false
        }
      ],
      "logsBloom": "0x00000000000000000000000000000000000000000000000000000000000000000000000000000000000000000000000000000000000000000000000000000000000000000000000000000000010000100000000001000000000800000000000000000000000000000000000000000000000000000000000000000000000000000020000000000000000000000000000000000000000000000000000000000000000000000000000000000000000000000000000000000000000000001000000000000000000000000000000000000000000000000000000000000000000000000000000000000000000000000000000000000000000000000000000000000000",
      "type": "0x0",
      "transactionHash": "0xc39fc22f5c3e4209ee7af2b43fba084aa4c5904000cd47d2dd31a31743618cc0",
      "transactionIndex": "0x5",
      "blockHash": "0x6757d0828827504ecf3fd11771a60b6870ef08147a435f6fa542b595b610e6df",
      "blockNumber": "0x3c04b85",
      "gasUsed": "0x1919a",
      "effectiveGasPrice": "0x5d22cfc40",
      "from": "0x04e1ec75c9fada2ff30e309e11cb5d2437dc3d4a",
      "to": "0xd339c8f96e25743733a2019ece30b1c15c00ce55",
      "contractAddress": null,
      "l1BaseFeeScalar": "0x0",
      "l1BlobBaseFee": "0x1da87e1d74d7d0",
      "l1BlobBaseFeeScalar": "0x0",
      "l1Fee": "0x0",
      "l1GasPrice": "0x7187236",
      "l1GasUsed": "0xba9"
    },
    {
      "status": "0x1",
      "cumulativeGasUsed": "0xe1476",
      "logs": [
        {
          "address": "0xd9720538780f5f8043667e57fb17cbd714b2aae7",
          "topics": [
            "0x8faa70878671ccd212d20771b795c50af8fd3ff6cf27f4bde57e5d4de0aeb673"
          ],
          "data": "0x0000000000000000000000000000000000000000000000000000000000000060000000000000000000000000d6e4b0e094c5ae63cdd3f6e622ed22030a3a908b00000000000000000000000000000000000000000000000000000000000001c00000000000000000000000000000000000000000000000000000000000000001000000000000000000000000000000000000000000000000000000000000002000000000000000000000000094491f1108c84a38cf6f060e90b01b5d0ea30e890000000000000000000000000000000000000000000000000000000000000003000000000000000000000000000000000000000000000000000000000000006000000000000000000000000000000000000000000000000000000000000000057d7c2a1c0000000000000000000000000000000000000000000000000000000053a3d62e00000000000000000000000000000000000000000000000000000000736dcb8b00000000000000000000000000000000000000000000000000000000e0ab98b5000000000000000000000000000000000000000000000000000000007d40af98000000000000000000000000000000000000000000000000000000000000000000000000000000000000000000000000000000000000000000000004e1c7392a00000000000000000000000000000000000000000000000000000000",
          "blockHash": "0x6757d0828827504ecf3fd11771a60b6870ef08147a435f6fa542b595b610e6df",
          "blockNumber": "0x3c04b85",
          "blockTimestamp": "0x69c9d3db",
          "transactionHash": "0x8a7df89042ba1670901d1efea934ee4f2f95c108eca77c70cb65176444abe837",
          "transactionIndex": "0x6",
          "logIndex": "0x1b",
          "removed": false
        }
      ],
      "logsBloom": "0x00000000000000000000000000000000000000000000000001000000000000000000000000000000000000000000000000000000000000000000000000000000000000000000000000000000000000000000000001000000000800000000000000000000000000000000000000000000000000000000000000000000000000000020000000000000000000000000000000000000000000000000000000000000000000000000000000000000000000000000000000000000000000000000000000000000000000000000040000000000000000000000000000000000000000000000000000000000001000000000000000000000000000000000000000000000",
      "type": "0x0",
      "transactionHash": "0x8a7df89042ba1670901d1efea934ee4f2f95c108eca77c70cb65176444abe837",
      "transactionIndex": "0x6",
      "blockHash": "0x6757d0828827504ecf3fd11771a60b6870ef08147a435f6fa542b595b610e6df",
      "blockNumber": "0x3c04b85",
      "gasUsed": "0x1917e",
      "effectiveGasPrice": "0x5d22cfc40",
      "from": "0x04e1ec75c9fada2ff30e309e11cb5d2437dc3d4a",
      "to": "0xd9720538780f5f8043667e57fb17cbd714b2aae7",
      "contractAddress": null,
      "l1BaseFeeScalar": "0x0",
      "l1BlobBaseFee": "0x1da87e1d74d7d0",
      "l1BlobBaseFeeScalar": "0x0",
      "l1Fee": "0x0",
      "l1GasPrice": "0x7187236",
      "l1GasUsed": "0xba9"
    },
    {
      "status": "0x1",
      "cumulativeGasUsed": "0x121380",
      "logs": [
        {
          "address": "0xdaeeed0e9f48e5efd023d774ab19415de8aedd8f",
          "topics": [
            "0x8faa70878671ccd212d20771b795c50af8fd3ff6cf27f4bde57e5d4de0aeb673"
          ],
          "data": "0x0000000000000000000000000000000000000000000000000000000000000060000000000000000000000000d6e4b0e094c5ae63cdd3f6e622ed22030a3a908b00000000000000000000000000000000000000000000000000000000000001c00000000000000000000000000000000000000000000000000000000000000001000000000000000000000000000000000000000000000000000000000000002000000000000000000000000094491f1108c84a38cf6f060e90b01b5d0ea30e890000000000000000000000000000000000000000000000000000000000000003000000000000000000000000000000000000000000000000000000000000006000000000000000000000000000000000000000000000000000000000000000057d7c2a1c0000000000000000000000000000000000000000000000000000000053a3d62e00000000000000000000000000000000000000000000000000000000736dcb8b00000000000000000000000000000000000000000000000000000000e0ab98b5000000000000000000000000000000000000000000000000000000007d40af98000000000000000000000000000000000000000000000000000000000000000000000000000000000000000000000000000000000000000000000004e1c7392a00000000000000000000000000000000000000000000000000000000",
          "blockHash": "0x6757d0828827504ecf3fd11771a60b6870ef08147a435f6fa542b595b610e6df",
          "blockNumber": "0x3c04b85",
          "blockTimestamp": "0x69c9d3db",
          "transactionHash": "0x32c66a9244e0b3e0ca2bc5c34b4b2c57b4c7012241cebfe83dad81de110f21c6",
          "transactionIndex": "0xb",
          "logIndex": "0x20",
          "removed": false
        }
      ],
      "logsBloom": "0x00000000000000000000000000000000000000000000000000000000000000000000000000000000000000000000000000000000000000000000000080000000000000000000002000000000000000000000000001000000000800004000000000000000000000000000000000000000000000000000000000000000000000000020000000000000000000000000000000000000000000000000000000000000000000000000000000000000000000000000000000000000000000000000000000000000000000000000000000000000000000000000000000000000000000000000000000000000000000000000000000000000000000000000000000000000",
      "type": "0x0",
      "transactionHash": "0x32c66a9244e0b3e0ca2bc5c34b4b2c57b4c7012241cebfe83dad81de110f21c6",
      "transactionIndex": "0xb",
      "blockHash": "0x6757d0828827504ecf3fd11771a60b6870ef08147a435f6fa542b595b610e6df",
      "blockNumber": "0x3c04b85",
      "gasUsed": "0x1919a",
      "effectiveGasPrice": "0x5d22cfc40",
      "from": "0x04e1ec75c9fada2ff30e309e11cb5d2437dc3d4a",
      "to": "0xdaeeed0e9f48e5efd023d774ab19415de8aedd8f",
      "contractAddress": null,
      "l1BaseFeeScalar": "0x0",
      "l1BlobBaseFee": "0x1da87e1d74d7d0",
      "l1BlobBaseFeeScalar": "0x0",
      "l1Fee": "0x0",
      "l1GasPrice": "0x7187236",
      "l1GasUsed": "0xba9"
    }
  ],
  "libraries": [
    "pkg/contracts/src/CVStrategy/ConvictionsUtils.sol:ConvictionsUtils:0x70b24063ea84765B324387e21159B41aF48A9440",
    "pkg/contracts/src/CVStrategy/PowerManagementUtils.sol:PowerManagementUtils:0xB07d76F6001Cc62739d39cb0C5E9c58E08230486"
  ],
  "pending": [],
  "returns": {},
  "timestamp": 1774834652412,
  "chain": 42220,
  "commit": "8e5fd5852"
}