{
  "transactions": [
    {
      "hash": null,
      "transactionType": "CREATE",
      "contractName": "CollateralVault",
      "contractAddress": "0x089361c176c0644ff8e3e32b2239968a3dfa5477",
      "function": null,
      "arguments": null,
      "transaction": {
        "from": "0xb05a948b5c1b057b88d381bde3a375efea87ebad",
        "gas": "0x88ee0",
        "value": "0x0",
        "input": "0x6080806040523461001b57600160005561053c90816100218239f35b600080fdfe60806040908082526004918236101561001757600080fd5b600091823560e01c908163481fef8a1461031f575080638129fc1c146102db5780638630da1d146102955780638969ab53146101a25780638da5cb5b1461017a576399ea56b01461006757600080fd5b346101765760603660031901126101765782356100826103d4565b6002546001600160a01b03939192916044359185163303610167577fc512525fc7952c6edf42100f0853e94fb1c1f6daf93780cac22b690a36e03724949596506100ca6103ef565b8682948482526001602052828220978116978883526020528282205480839511610158575b508180808089610130958a61014e9a99985260016020528d88842090845260205287832061011e838254610445565b90555af161012a610468565b506104c8565b51938493849081526020810191909152901515604082015260600190565b0390a26001815580f35b955060019350889150816100ef565b5163ea8e4eb560e01b81528690fd5b5080fd5b503461017657816003193601126101765760025490516001600160a01b039091168152602090f35b5034610176576080366003190112610176578235926101bf6103d4565b604435946001600160a01b0380871694929390928588036102915760643591846002541633036102835750867f86b742620d95ff25811b118a7f2dbca2f5f4c869adf0b0d94660965f51c8d769959697986102186103ef565b839585835260016020528383209816978883526020528282205480839511610274575b508180808089610130958a61026a9a99985260016020528d88842090845260205287832061011e838254610445565b0390a36001815580f35b9550600193508991508161023b565b905163ea8e4eb560e01b8152fd5b8680fd5b5082346102d757816003193601126102d75760209282916102b46103d4565b90358252600185528282206001600160a01b039091168252845220549051908152f35b8280fd5b5082346102d757826003193601126102d757600254916001600160a01b0383166103135750506001600160a01b031916331760025580f35b5162dc149f60e41b8152fd5b918091506003193601126102d75783356103376103d4565b60025490936001600160a01b0391821633036103c657506103566103ef565b81855260016020528285209316928385526020528184208054903482018092116103b3577feec2f3feb835e2f2fd44281034b04700a1ddda63dd402949d470a25a7c40b36c94959650558151908152346020820152a26001815580f35b634e487b7160e01b865260118752602486fd5b63ea8e4eb560e01b81528690fd5b602435906001600160a01b03821682036103ea57565b600080fd5b600260005414610400576002600055565b60405162461bcd60e51b815260206004820152601f60248201527f5265656e7472616e637947756172643a207265656e7472616e742063616c6c006044820152606490fd5b9190820391821161045257565b634e487b7160e01b600052601160045260246000fd5b3d156104c3576001600160401b03903d8281116104ad5760405192601f8201601f19908116603f01168401908111848210176104ad5760405282523d6000602084013e565b634e487b7160e01b600052604160045260246000fd5b606090565b156104cf57565b60405162461bcd60e51b815260206004820152600f60248201526e151c985b9cd9995c8819985a5b1959608a1b6044820152606490fdfea2646970667358221220e1fd22beafc52b9f32fec6358911e88b54c9d8372f89236bd2ac8fa3fd7fadbd64736f6c63430008130033",
        "nonce": "0x317",
        "chainId": "0x66eee"
      },
      "additionalContracts": [],
      "isFixedGasLimit": false
    },
    {
      "hash": null,
      "transactionType": "CALL",
      "contractName": null,
      "contractAddress": "0x7a603877488db46c0f6b40c2c770becfd7a65593",
      "function": "setCollateralVaultTemplate(address)",
      "arguments": [
        "0x089361C176c0644fF8E3e32b2239968a3DfA5477"
      ],
      "transaction": {
        "from": "0xb05a948b5c1b057b88d381bde3a375efea87ebad",
        "to": "0x7a603877488db46c0f6b40c2c770becfd7a65593",
        "gas": "0x1135f",
        "value": "0x0",
        "input": "0xb0d3713a000000000000000000000000089361c176c0644ff8e3e32b2239968a3dfa5477",
        "nonce": "0x318",
        "chainId": "0x66eee"
      },
      "additionalContracts": [],
      "isFixedGasLimit": false
    },
    {
      "hash": null,
      "transactionType": "CALL",
      "contractName": null,
      "contractAddress": "0xf17e005599813f626ff6b4ff8189105b1306af94",
      "function": "setCollateralVaultTemplate(address)",
      "arguments": [
        "0x089361C176c0644fF8E3e32b2239968a3DfA5477"
      ],
      "transaction": {
        "from": "0xb05a948b5c1b057b88d381bde3a375efea87ebad",
        "to": "0xf17e005599813f626ff6b4ff8189105b1306af94",
        "gas": "0xe197",
        "value": "0x0",
        "input": "0xb0d3713a000000000000000000000000089361c176c0644ff8e3e32b2239968a3dfa5477",
        "nonce": "0x319",
        "chainId": "0x66eee"
      },
      "additionalContracts": [],
      "isFixedGasLimit": false
    },
    {
      "hash": null,
      "transactionType": "CALL",
      "contractName": "ERC1967Proxy",
      "contractAddress": "0xffa2e39cce305c82ffa70f7da0333e5f172be5f6",
      "function": null,
      "arguments": null,
      "transaction": {
        "from": "0xb05a948b5c1b057b88d381bde3a375efea87ebad",
        "to": "0xffa2e39cce305c82ffa70f7da0333e5f172be5f6",
        "gas": "0xe197",
        "value": "0x0",
        "input": "0xb0d3713a000000000000000000000000089361c176c0644ff8e3e32b2239968a3dfa5477",
        "nonce": "0x31a",
        "chainId": "0x66eee"
      },
      "additionalContracts": [],
      "isFixedGasLimit": false
    },
    {
      "hash": null,
      "transactionType": "CALL",
      "contractName": null,
      "contractAddress": "0x17769fb86708abf03d7083ea7dc6b01976a91c47",
      "function": "setCollateralVaultTemplate(address)",
      "arguments": [
        "0x089361C176c0644fF8E3e32b2239968a3DfA5477"
      ],
      "transaction": {
        "from": "0xb05a948b5c1b057b88d381bde3a375efea87ebad",
        "to": "0x17769fb86708abf03d7083ea7dc6b01976a91c47",
        "gas": "0xe20c",
        "value": "0x0",
        "input": "0xb0d3713a000000000000000000000000089361c176c0644ff8e3e32b2239968a3dfa5477",
        "nonce": "0x31b",
        "chainId": "0x66eee"
      },
      "additionalContracts": [],
      "isFixedGasLimit": false
    },
    {
      "hash": null,
      "transactionType": "CALL",
      "contractName": null,
      "contractAddress": "0x271c5834f61901623c00ca274dc0911131e3865d",
      "function": "setCollateralVaultTemplate(address)",
      "arguments": [
        "0x089361C176c0644fF8E3e32b2239968a3DfA5477"
      ],
      "transaction": {
        "from": "0xb05a948b5c1b057b88d381bde3a375efea87ebad",
        "to": "0x271c5834f61901623c00ca274dc0911131e3865d",
        "gas": "0xe20c",
        "value": "0x0",
        "input": "0xb0d3713a000000000000000000000000089361c176c0644ff8e3e32b2239968a3dfa5477",
        "nonce": "0x31c",
        "chainId": "0x66eee"
      },
      "additionalContracts": [],
      "isFixedGasLimit": false
    },
    {
      "hash": null,
      "transactionType": "CALL",
      "contractName": "ERC1967Proxy",
      "contractAddress": "0x2b7e64cf97cb0ad9f074e941f29e99899cad6f00",
      "function": null,
      "arguments": null,
      "transaction": {
        "from": "0xb05a948b5c1b057b88d381bde3a375efea87ebad",
        "to": "0x2b7e64cf97cb0ad9f074e941f29e99899cad6f00",
        "gas": "0xe20c",
        "value": "0x0",
        "input": "0xb0d3713a000000000000000000000000089361c176c0644ff8e3e32b2239968a3dfa5477",
        "nonce": "0x31d",
        "chainId": "0x66eee"
      },
      "additionalContracts": [],
      "isFixedGasLimit": false
    },
    {
      "hash": null,
      "transactionType": "CALL",
      "contractName": null,
      "contractAddress": "0x39db23696c0ad7a4afc5db891154a426193d3046",
      "function": "setCollateralVaultTemplate(address)",
      "arguments": [
        "0x089361C176c0644fF8E3e32b2239968a3DfA5477"
      ],
      "transaction": {
        "from": "0xb05a948b5c1b057b88d381bde3a375efea87ebad",
        "to": "0x39db23696c0ad7a4afc5db891154a426193d3046",
        "gas": "0xe20c",
        "value": "0x0",
        "input": "0xb0d3713a000000000000000000000000089361c176c0644ff8e3e32b2239968a3dfa5477",
        "nonce": "0x31e",
        "chainId": "0x66eee"
      },
      "additionalContracts": [],
      "isFixedGasLimit": false
    },
    {
      "hash": null,
      "transactionType": "CALL",
      "contractName": null,
      "contractAddress": "0x45cbefe5f9f0df5f76c8bdd07003724ec100497f",
      "function": "setCollateralVaultTemplate(address)",
      "arguments": [
        "0x089361C176c0644fF8E3e32b2239968a3DfA5477"
      ],
      "transaction": {
        "from": "0xb05a948b5c1b057b88d381bde3a375efea87ebad",
        "to": "0x45cbefe5f9f0df5f76c8bdd07003724ec100497f",
        "gas": "0xe20c",
        "value": "0x0",
        "input": "0xb0d3713a000000000000000000000000089361c176c0644ff8e3e32b2239968a3dfa5477",
        "nonce": "0x31f",
        "chainId": "0x66eee"
      },
      "additionalContracts": [],
      "isFixedGasLimit": false
    },
    {
      "hash": null,
      "transactionType": "CALL",
      "contractName": null,
      "contractAddress": "0x5d63ec43e1ac82d0bb4434f2d2202eec7bb05d69",
      "function": "setCollateralVaultTemplate(address)",
      "arguments": [
        "0x089361C176c0644fF8E3e32b2239968a3DfA5477"
      ],
      "transaction": {
        "from": "0xb05a948b5c1b057b88d381bde3a375efea87ebad",
        "to": "0x5d63ec43e1ac82d0bb4434f2d2202eec7bb05d69",
        "gas": "0xe20c",
        "value": "0x0",
        "input": "0xb0d3713a000000000000000000000000089361c176c0644ff8e3e32b2239968a3dfa5477",
        "nonce": "0x320",
        "chainId": "0x66eee"
      },
      "additionalContracts": [],
      "isFixedGasLimit": false
    },
    {
      "hash": null,
      "transactionType": "CALL",
      "contractName": null,
      "contractAddress": "0x768a7ce48322a6360db94a4c3eae3e50babb032c",
      "function": "setCollateralVaultTemplate(address)",
      "arguments": [
        "0x089361C176c0644fF8E3e32b2239968a3DfA5477"
      ],
      "transaction": {
        "from": "0xb05a948b5c1b057b88d381bde3a375efea87ebad",
        "to": "0x768a7ce48322a6360db94a4c3eae3e50babb032c",
        "gas": "0xe20c",
        "value": "0x0",
        "input": "0xb0d3713a000000000000000000000000089361c176c0644ff8e3e32b2239968a3dfa5477",
        "nonce": "0x321",
        "chainId": "0x66eee"
      },
      "additionalContracts": [],
      "isFixedGasLimit": false
    },
    {
      "hash": null,
      "transactionType": "CALL",
      "contractName": null,
      "contractAddress": "0x769e1039322c9516581849485f9780390c2fac9c",
      "function": "setCollateralVaultTemplate(address)",
      "arguments": [
        "0x089361C176c0644fF8E3e32b2239968a3DfA5477"
      ],
      "transaction": {
        "from": "0xb05a948b5c1b057b88d381bde3a375efea87ebad",
        "to": "0x769e1039322c9516581849485f9780390c2fac9c",
        "gas": "0xe2cb",
        "value": "0x0",
        "input": "0xb0d3713a000000000000000000000000089361c176c0644ff8e3e32b2239968a3dfa5477",
        "nonce": "0x322",
        "chainId": "0x66eee"
      },
      "additionalContracts": [],
      "isFixedGasLimit": false
    },
    {
      "hash": null,
      "transactionType": "CALL",
      "contractName": "ERC1967Proxy",
      "contractAddress": "0x7932c33f0a0dd335aecbe83a3d88b2435543a0fb",
      "function": null,
      "arguments": null,
      "transaction": {
        "from": "0xb05a948b5c1b057b88d381bde3a375efea87ebad",
        "to": "0x7932c33f0a0dd335aecbe83a3d88b2435543a0fb",
        "gas": "0xe2cb",
        "value": "0x0",
        "input": "0xb0d3713a000000000000000000000000089361c176c0644ff8e3e32b2239968a3dfa5477",
        "nonce": "0x323",
        "chainId": "0x66eee"
      },
      "additionalContracts": [],
      "isFixedGasLimit": false
    },
    {
      "hash": null,
      "transactionType": "CALL",
      "contractName": "ERC1967Proxy",
      "contractAddress": "0x84b9c9d4f40e3c05278b6f688c5c78c89c7c95a8",
      "function": null,
      "arguments": null,
      "transaction": {
        "from": "0xb05a948b5c1b057b88d381bde3a375efea87ebad",
        "to": "0x84b9c9d4f40e3c05278b6f688c5c78c89c7c95a8",
        "gas": "0xe2cb",
        "value": "0x0",
        "input": "0xb0d3713a000000000000000000000000089361c176c0644ff8e3e32b2239968a3dfa5477",
        "nonce": "0x324",
        "chainId": "0x66eee"
      },
      "additionalContracts": [],
      "isFixedGasLimit": false
    },
    {
      "hash": null,
      "transactionType": "CALL",
      "contractName": "ERC1967Proxy",
      "contractAddress": "0xbd7474ca99a439d2926526a0168e3e948d2987c6",
      "function": null,
      "arguments": null,
      "transaction": {
        "from": "0xb05a948b5c1b057b88d381bde3a375efea87ebad",
        "to": "0xbd7474ca99a439d2926526a0168e3e948d2987c6",
        "gas": "0xe2cb",
        "value": "0x0",
        "input": "0xb0d3713a000000000000000000000000089361c176c0644ff8e3e32b2239968a3dfa5477",
        "nonce": "0x325",
        "chainId": "0x66eee"
      },
      "additionalContracts": [],
      "isFixedGasLimit": false
    },
    {
      "hash": null,
      "transactionType": "CALL",
      "contractName": "ERC1967Proxy",
      "contractAddress": "0xbf647db7c6bbacaab6a1e956f97c1c4df5ca0d3e",
      "function": null,
      "arguments": null,
      "transaction": {
        "from": "0xb05a948b5c1b057b88d381bde3a375efea87ebad",
        "to": "0xbf647db7c6bbacaab6a1e956f97c1c4df5ca0d3e",
        "gas": "0xe2cb",
        "value": "0x0",
        "input": "0xb0d3713a000000000000000000000000089361c176c0644ff8e3e32b2239968a3dfa5477",
        "nonce": "0x326",
        "chainId": "0x66eee"
      },
      "additionalContracts": [],
      "isFixedGasLimit": false
    },
    {
      "hash": null,
      "transactionType": "CALL",
      "contractName": "ERC1967Proxy",
      "contractAddress": "0xc5ae99a250617a875abc9bbb485dfde746cf3ba9",
      "function": null,
      "arguments": null,
      "transaction": {
        "from": "0xb05a948b5c1b057b88d381bde3a375efea87ebad",
        "to": "0xc5ae99a250617a875abc9bbb485dfde746cf3ba9",
        "gas": "0xe2cb",
        "value": "0x0",
        "input": "0xb0d3713a000000000000000000000000089361c176c0644ff8e3e32b2239968a3dfa5477",
        "nonce": "0x327",
        "chainId": "0x66eee"
      },
      "additionalContracts": [],
      "isFixedGasLimit": false
    },
    {
      "hash": null,
      "transactionType": "CALL",
      "contractName": "ERC1967Proxy",
      "contractAddress": "0xd76cd68881ad9c95000ad0a8d2f332374e91d23b",
      "function": null,
      "arguments": null,
      "transaction": {
        "from": "0xb05a948b5c1b057b88d381bde3a375efea87ebad",
        "to": "0xd76cd68881ad9c95000ad0a8d2f332374e91d23b",
        "gas": "0xe2cb",
        "value": "0x0",
        "input": "0xb0d3713a000000000000000000000000089361c176c0644ff8e3e32b2239968a3dfa5477",
        "nonce": "0x328",
        "chainId": "0x66eee"
      },
      "additionalContracts": [],
      "isFixedGasLimit": false
    },
    {
      "hash": null,
      "transactionType": "CALL",
      "contractName": "ERC1967Proxy",
      "contractAddress": "0xdc3a597e60297bf51627918019ba7252b844970c",
      "function": null,
      "arguments": null,
      "transaction": {
        "from": "0xb05a948b5c1b057b88d381bde3a375efea87ebad",
        "to": "0xdc3a597e60297bf51627918019ba7252b844970c",
        "gas": "0xe2cb",
        "value": "0x0",
        "input": "0xb0d3713a000000000000000000000000089361c176c0644ff8e3e32b2239968a3dfa5477",
        "nonce": "0x329",
        "chainId": "0x66eee"
      },
      "additionalContracts": [],
      "isFixedGasLimit": false
    },
    {
      "hash": null,
      "transactionType": "CALL",
      "contractName": "ERC1967Proxy",
      "contractAddress": "0xe0eb96a8c31d95ccca8f7fa52ee38d0d42b4167b",
      "function": null,
      "arguments": null,
      "transaction": {
        "from": "0xb05a948b5c1b057b88d381bde3a375efea87ebad",
        "to": "0xe0eb96a8c31d95ccca8f7fa52ee38d0d42b4167b",
        "gas": "0xe31e",
        "value": "0x0",
        "input": "0xb0d3713a000000000000000000000000089361c176c0644ff8e3e32b2239968a3dfa5477",
        "nonce": "0x32a",
        "chainId": "0x66eee"
      },
      "additionalContracts": [],
      "isFixedGasLimit": false
    },
    {
      "hash": null,
      "transactionType": "CALL",
      "contractName": "ERC1967Proxy",
      "contractAddress": "0xe57e7f0707bdb9c826a7c6da352dfb2be1275c21",
      "function": null,
      "arguments": null,
      "transaction": {
        "from": "0xb05a948b5c1b057b88d381bde3a375efea87ebad",
        "to": "0xe57e7f0707bdb9c826a7c6da352dfb2be1275c21",
        "gas": "0xe31e",
        "value": "0x0",
        "input": "0xb0d3713a000000000000000000000000089361c176c0644ff8e3e32b2239968a3dfa5477",
        "nonce": "0x32b",
        "chainId": "0x66eee"
      },
      "additionalContracts": [],
      "isFixedGasLimit": false
    }
  ],
  "receipts": [],
  "libraries": [],
  "pending": [],
  "returns": {},
  "timestamp": 1727368184,
  "chain": 421614,
  "commit": "1d8baacc"
}