{
  "transactions": [
    {
      "hash": "0x9fcd29a17eaec8236df5c08ff9047fad360d8bf63407d93aa20b49435b3673dd",
      "transactionType": "CREATE",
      "contractName": "CVStrategy",
      "contractAddress": "0x069e096f9ea0d170600edfc6b53eec20b015d75d",
      "function": null,
      "arguments": [
        "0x1133eA7Af70876e64665ecD07C0A0476d09465a1"
      ],
      "transaction": {
        "from": "0x2f9e113434aebdd70bb99cb6505e1f726c578d6d",
        "gas": "0x50d125",
        "value": "0x0",
        "input": "0x60c0604052600060065560006009553480156200001b57600080fd5b5060405162004a3238038062004a328339810160408190526200003e91620000a6565b604080518082018252600a8152694356537472617465677960b01b6020808301919091526001600160a01b038416608052915183926200008191839101620000d8565b60408051601f19818403018152919052805160209091012060a0525062000128915050565b600060208284031215620000b957600080fd5b81516001600160a01b0381168114620000d157600080fd5b9392505050565b600060208083528351808285015260005b818110156200010757858101830151858201604001528201620000e9565b506000604082860101526040601f19601f8301168501019250505092915050565b60805160a0516148cf6200016360003960006105de0152600081816104720152818161188f015281816119220152611bab01526148cf6000f3fe60806040526004361061033f5760003560e01c806376365af7116101ae578063b5f620ce116100eb578063e0dd2c381161008f578063edd146cc1161006c578063edd146cc14610a09578063ef2920fc14610a29578063f5b0dfb714610a3c578063fc1711f214610a5c57005b8063e0dd2c381461099c578063e33add93146109bc578063eb11af93146109dc57005b8063c7f758a8116100c8578063c7f758a814610909578063d1e362321461093f578063dc96ff2d14610954578063df868ed31461098457005b8063b5f620ce14610896578063bcc5b93b146108b6578063c3292171146108ec57005b8063950559d711610152578063a47ff7e51161012f578063a47ff7e51461080f578063a574cea414610826578063aba9ffee14610853578063b2b878d01461086957005b8063950559d7146107b1578063a0cf0aea146107d1578063a1aab33f146107f957005b8063814516ad1161018b578063814516ad14610746578063817b1cd21461075b578063824ea8ed14610771578063868c57b81461079157005b806376365af7146106fa578063782aadff146107105780637c6570ba1461073057005b80632ed04b2b1161027c5780634d31d087116102205780635db64b99116101fd5780635db64b991461066d5780636003e4141461069a5780636453d9c4146106ba57806369fa25c4146106da57005b80634d31d0871461061757806354fac9191461063757806359a5db8b1461064d57005b806338fff2d01161025957806338fff2d0146105a5578063406244d8146105ba57806342fda9c7146105cf5780634ab4ba421461060257005b80632ed04b2b1461053e578063346db8cb1461055e578063351d9f961461057e57005b806311f22ae3116102e35780631ddf1e23116102c05780631ddf1e23146104ca5780632bbe0cae146104df5780632cefadbb146104f25780632dbd6fdd1461051257005b806311f22ae31461044357806315cc481e146104635780631aa91a9e146104aa57005b80630a6f0ee91161031c5780630a6f0ee9146103d75780630ba95909146103f75780630c0512e9146104165780630f529ba21461042c57005b8063013cf08b1461034857806301ffc9a714610387578063058aca44146103b757005b3661034657005b005b34801561035457600080fd5b506103686103633660046138e1565b610a7c565b60405161037e9a9998979695949392919061399b565b60405180910390f35b34801561039357600080fd5b506103a76103a2366004613a0e565b610b8a565b604051901515815260200161037e565b3480156103c357600080fd5b506103466103d2366004613a65565b610c23565b3480156103e357600080fd5b506103466103f2366004613c49565b610c90565b34801561040357600080fd5b50600c545b60405190815260200161037e565b34801561042257600080fd5b5061040860065481565b34801561043857600080fd5b506104086298968081565b34801561044f57600080fd5b5061034661045e3660046138e1565b610cb0565b34801561046f57600080fd5b507f00000000000000000000000000000000000000000000000000000000000000005b6040516001600160a01b03909116815260200161037e565b3480156104b657600080fd5b506104086104c53660046138e1565b610cef565b3480156104d657600080fd5b50610346610d7a565b6104926104ed366004613cc1565b610d85565b3480156104fe57600080fd5b5061034661050d3660046138e1565b610da8565b34801561051e57600080fd5b50600b5461053190610100900460ff1681565b60405161037e9190613d23565b34801561054a57600080fd5b50610408610559366004613d31565b610df4565b34801561056a57600080fd5b50610408610579366004613d5d565b610ec6565b34801561058a57600080fd5b50600b546105989060ff1681565b60405161037e9190613d99565b3480156105b157600080fd5b50600154610408565b3480156105c657600080fd5b50610408600a81565b3480156105db57600080fd5b507f0000000000000000000000000000000000000000000000000000000000000000610408565b34801561060e57600080fd5b50600254610408565b34801561062357600080fd5b506103a7610632366004613a65565b610f6b565b34801561064357600080fd5b5061040860035481565b34801561065957600080fd5b506104086106683660046138e1565b610f76565b34801561067957600080fd5b50610408610688366004613a65565b600f6020526000908152604090205481565b3480156106a657600080fd5b50600d54610492906001600160a01b031681565b3480156106c657600080fd5b506103466106d5366004613a65565b6110b3565b3480156106e657600080fd5b506103466106f53660046138e1565b6110c7565b34801561070657600080fd5b5061040860045481565b34801561071c57600080fd5b5061040861072b366004613d31565b611106565b34801561073c57600080fd5b5061040860095481565b34801561075257600080fd5b50610346611282565b34801561076757600080fd5b5061040860075481565b34801561077d57600080fd5b506103a761078c3660046138e1565b61138c565b34801561079d57600080fd5b506104086107ac366004613d31565b6113e9565b3480156107bd57600080fd5b506104086107cc3660046138e1565b61141a565b3480156107dd57600080fd5b5061049273eeeeeeeeeeeeeeeeeeeeeeeeeeeeeeeeeeeeeeee81565b34801561080557600080fd5b5061040860055481565b34801561081b57600080fd5b50600c546104089081565b34801561083257600080fd5b506108466108413660046138e1565b611444565b60405161037e9190613da7565b34801561085f57600080fd5b5061040860085481565b34801561087557600080fd5b50610889610884366004613dba565b611523565b60405161037e9190613e8f565b3480156108a257600080fd5b506103466108b1366004613ef5565b61153e565b3480156108c257600080fd5b506104086108d1366004613a65565b6001600160a01b03166000908152600f602052604090205490565b3480156108f857600080fd5b50600b54610100900460ff16610531565b34801561091557600080fd5b506109296109243660046138e1565b611547565b60405161037e9a99989796959493929190613f12565b34801561094b57600080fd5b50600854610408565b34801561096057600080fd5b5061040861096f3660046138e1565b6000908152600e602052604090206002015490565b34801561099057600080fd5b5060005460ff166103a7565b3480156109a857600080fd5b506104086109b7366004613f77565b611649565b3480156109c857600080fd5b506103466109d7366004613f9c565b611674565b3480156109e857600080fd5b506109fc6109f7366004613a65565b61168d565b60405161037e9190614047565b348015610a1557600080fd5b50610346610a24366004614061565b611698565b610346610a37366004613cc1565b6117c6565b348015610a4857600080fd5b50610346610a573660046138e1565b6117e4565b348015610a6857600080fd5b50610346610a773660046138e1565b61180d565b600e602090815260009182526040918290208054600182015460028301546003840154600485015460058601546006870154600788015460088901548b51808d01909c52600a8a0180548d52600b8b0180549a9d999c989b979a6001600160a01b039788169a968816999790951697939660ff9093169593949192840191610b03906140a8565b80601f0160208091040260200160405190810160405280929190818152602001828054610b2f906140a8565b8015610b7c5780601f10610b5157610100808354040283529160200191610b7c565b820191906000526020600020905b815481529060010190602001808311610b5f57829003601f168201915b50505050508152505090508a565b60007fffffffff0000000000000000000000000000000000000000000000000000000082167ff1801e61000000000000000000000000000000000000000000000000000000001480610c1d57507f01ffc9a7000000000000000000000000000000000000000000000000000000007fffffffff000000000000000000000000000000000000000000000000000000008316145b92915050565b33610c2d8161184c565b600d805473ffffffffffffffffffffffffffffffffffffffff19166001600160a01b0384169081179091556040519081527fd6ceddf6d2a22f21c7c81675c518004eff43bc5c8a6fc32a0b748e69d58671cd906020015b60405180910390a15050565b610c98611917565b610ca0611960565b610cab83838361199c565b505050565b33610cba8161184c565b60048290556040518281527f08e39b387d1f739ce0d2553bb31822392e3f67c62c6c0a215120ab4a6841a8ab90602001610c84565b6000818152600e6020526040812080548314610d265760405163c1d17bef60e01b8152600481018490526024015b60405180910390fd5b6001600882015460ff166004811115610d4157610d416138fa565b14610d62576040516344980d8f60e01b815260048101849052602401610d1d565b610d70818260020154611cd3565b6003015492915050565b610d8333611d0e565b565b6000610d8f611917565b610d97611960565b610da18383611e5f565b9392505050565b33610db28161184c565b60095460408051918252602082018490527f056aedca4e334b6c4bea48715fb0de644811b740894de57a0380d3eb90f2805b910160405180910390a150600955565b6000610dfe612197565b60006002600b54610100900460ff166003811115610e1e57610e1e6138fa565b1480610e4557506001600b54610100900460ff166003811115610e4357610e436138fa565b145b15610e51575081610e5e565b610e5b84846121db565b90505b8060086000828254610e7091906140f2565b9091555050604080516001600160a01b0386168152602081018590529081018290527f70b752f3fadb6ac131c0ece847fcbb6994ec56ed6411595710fd9b29c6ac6cc19060600160405180910390a19392505050565b6000808490506000610eec629896806080600354901b610ee6919061411b565b8361249f565b905060806f8000000000000000000000000000000060035462989680610f1291906140f2565b610f2084600160801b6140f2565b610f2d629896808961413d565b610f37919061413d565b610f41919061411b565b610f4b888561413d565b610f559190614154565b610f5f9190614154565b901c9695505050505050565b6000610c1d82612548565b60008060025411610fb3576040517fed4421ad00000000000000000000000000000000000000000000000000000000815260040160405180910390fd5b610fbc82612568565b15610fda57604051630efd728560e21b815260040160405180910390fd5b600254600090610ff3846801000000000000000061413d565b610ffd919061411b565b6298968060045468010000000000000000611018919061413d565b611022919061411b565b61102c91906140f2565b9050604061103960085490565b60035461104990629896806140f2565b629896806040611059868061413d565b901c629896806080600554901b611070919061411b565b61107a919061411b565b611084919061413d565b61108e919061411b565b611098919061413d565b901c915060095482116110ad57600954610da1565b50919050565b6110bb612197565b6110c481611d0e565b50565b336110d18161184c565b60038290556040518281527f592dcd55d60d892e7fcb3ba105013312e99691cd59f91e15f83cb67cb5a505f290602001610c84565b6000611110612197565b60006002600b54610100900460ff166003811115611130576111306138fa565b0361113e57825b905061119b565b6001600b54610100900460ff16600381111561115c5761115c6138fa565b0361116b57611137848461258f565b6003600b54610100900460ff166003811115611189576111896138fa565b0361119b5761119884846126f5565b90505b600d5460405163011de97360e61b81526001600160a01b038681166004830152306024830152600092169063477a5cc090604401602060405180830381865afa1580156111ec573d6000803e3d6000fd5b505050506040513d601f19601f820116820180604052508101906112109190614167565b9050801561123057816008600082825461122a9190614154565b90915550505b604080516001600160a01b0387168152602081018690529081018390527f0b9150e1e54346ed3fa36b977cd5d65dca5a649c737c3174a26bddaadd47667a9060600160405180910390a1509392505050565b600d546040517f0d4a8b490000000000000000000000000000000000000000000000000000000081523360048201819052306024830152916001600160a01b031690630d4a8b4990604401600060405180830381600087803b1580156112e757600080fd5b505af11580156112fb573d6000803e3d6000fd5b5050600d54604051637817ee4f60e01b81526001600160a01b0385811660048301523060248301529091169250637817ee4f9150604401602060405180830381865afa15801561134f573d6000803e3d6000fd5b505050506040513d601f19601f820116820180604052508101906113739190614184565b600860008282546113849190614154565b909155505050565b6000818152600e602052604081206002810154829081906113ae90849061293c565b915091508160001480156113c0575080155b156113cd57826003015491505b60006113dc8460010154610f76565b9092101595945050505050565b6010602052816000526040600020818154811061140557600080fd5b90600052602060002001600091509150505481565b60006003546298968061142d91906140f2565b61143a629896808461413d565b610c1d919061411b565b6040805180820190915260008152606060208201526000600e6000848152602001908152602001600020905080600a0160405180604001604052908160008201548152602001600182018054611499906140a8565b80601f01602080910402602001604051908101604052809291908181526020018280546114c5906140a8565b80156115125780601f106114e757610100808354040283529160200191611512565b820191906000526020600020905b8154815290600101906020018083116114f557829003601f168201915b505050505081525050915050919050565b606060405163d623472560e01b815260040160405180910390fd5b6110c481612994565b6000806000806000806000806000806000600e60008d81526020019081526020016000209050806001015460001461158b576115868160010154610f76565b61158e565b60005b92508060050160009054906101000a90046001600160a01b03168160040160009054906101000a90046001600160a01b03168260060160009054906101000a90046001600160a01b0316836001015484600201548560080160009054906101000a900460ff16866007015487600301548a896009016000336001600160a01b03166001600160a01b03168152602001908152602001600020549a509a509a509a509a509a509a509a509a509a50509193959799509193959799565b6000828152600e602090815260408083206001600160a01b0385168452600901909152812054610da1565b60405163d623472560e01b815260040160405180910390fd5b6000610c1d826129d5565b6116a1826129f5565b6000818060200190518101906116b79190614202565b80519091506001600160a01b03166116e257604051635df4b1ef60e01b815260040160405180910390fd5b8051600d805473ffffffffffffffffffffffffffffffffffffffff19166001600160a01b0390921691909117905560208101516003556040810151600455606081015160055560a0810151600b805460ff19166001836002811115611749576117496138fa565b021790555060c0810151600b805461ff001916610100836003811115611771576117716138fa565b021790555060e081015151600c5560808101516009556040517f11335eebb216b93f04c63826742eacbf3548a7df48a922f8bbd9e205f57807c3906117b990859084906142b1565b60405180910390a1505050565b6117ce611917565b6117d6611960565b6117e08282612a76565b5050565b6117ec611917565b80600260008282546117fe9190614154565b909155506110c4905081612b5f565b336118178161184c565b60058290556040518281527f30ee8206062f283e56a0af2b02138016bf7442ded26ad68a92a18a9dd246fb4990602001610c84565b6001546040517f29e40d4b00000000000000000000000000000000000000000000000000000000815260048101919091526001600160a01b0382811660248301527f000000000000000000000000000000000000000000000000000000000000000016906329e40d4b90604401602060405180830381865afa1580156118d6573d6000803e3d6000fd5b505050506040513d601f19601f820116820180604052508101906118fa9190614167565b6110c45760405163075fd2b160e01b815260040160405180910390fd5b336001600160a01b037f00000000000000000000000000000000000000000000000000000000000000001614610d835760405163075fd2b160e01b815260040160405180910390fd5b600154600003610d83576040517f3da3f98c00000000000000000000000000000000000000000000000000000000815260040160405180910390fd5b60008251116119d7576040517fc5f7c4c000000000000000000000000000000000000000000000000000000000815260040160405180910390fd5b6000828060200190518101906119ed9190614184565b905080600003611a29576040517ff881a10d00000000000000000000000000000000000000000000000000000000815260040160405180910390fd5b6000818152600e602052604090206001600b5460ff166002811115611a5057611a506138fa565b03611ccc5780548214611a795760405163c1d17bef60e01b815260048101839052602401610d1d565b60025481600101541115611ad15760018101546002546040517f5863b0b60000000000000000000000000000000000000000000000000000000081526004810185905260248101929092526044820152606401610d1d565b6001600882015460ff166004811115611aec57611aec6138fa565b14611b0d576040516344980d8f60e01b815260048101839052602401610d1d565b6000611b1883610cef565b90506000611b298360010154610f76565b90508082108015611b3e575060008360010154115b15611b75576040517fcce7930800000000000000000000000000000000000000000000000000000000815260040160405180910390fd5b6001546040517f068bcd8d0000000000000000000000000000000000000000000000000000000081526000916001600160a01b037f0000000000000000000000000000000000000000000000000000000000000000169163068bcd8d91611be29160040190815260200190565b600060405180830381865afa158015611bff573d6000803e3d6000fd5b505050506040513d6000823e601f3d908101601f19168201604052611c2791908101906143bb565b9050836001015460026000828254611c3f91906140f2565b9091555050604081015160048501546001860154611c6792916001600160a01b031690612b8f565b60088401805460ff191660049081179091558401546001850154604080518881526001600160a01b0390931660208401528201527fa7932e9c92f31e1ed56b29d00bbe669a97484dc24de28dd9c8c0429df7f358479060600160405180910390a15050505b5050505050565b600080611ce0848461293c565b91509150816000148015611cf2575080155b15611cfd5750505050565b600784015560039092019190915550565b600d54604051637817ee4f60e01b81526001600160a01b03838116600483015230602483015290911690637817ee4f90604401602060405180830381865afa158015611d5e573d6000803e3d6000fd5b505050506040513d601f19601f82011682018060405250810190611d829190614184565b60086000828254611d9391906140f2565b9091555050600d546040517f22bcf9990000000000000000000000000000000000000000000000000000000081526001600160a01b038381166004830152306024830152909116906322bcf99990604401600060405180830381600087803b158015611dfe57600080fd5b505af1158015611e12573d6000803e3d6000fd5b50505050611e1f81612bd4565b6040516001600160a01b03821681527f1468da654b37bb3631011c1917d02e0db437d519918858d40b38b5e980ca033b906020015b60405180910390a150565b60008083806020019051810190611e76919061446f565b8051909150600003611eb4576040517f4e79178600000000000000000000000000000000000000000000000000000000815260040160405180910390fd5b6001600b5460ff166002811115611ecd57611ecd6138fa565b0361207d57611edf8160200151612cff565b60608101516001600160a01b0316611f23576040517f596a094c00000000000000000000000000000000000000000000000000000000815260040160405180910390fd5b6000306001600160a01b03166315cc481e6040518163ffffffff1660e01b8152600401602060405180830381865afa158015611f63573d6000803e3d6000fd5b505050506040513d601f19601f82011682018060405250810190611f879190614516565b6001600160a01b031663068bcd8d6001546040518263ffffffff1660e01b8152600401611fb691815260200190565b600060405180830381865afa158015611fd3573d6000803e3d6000fd5b505050506040513d6000823e601f3d908101601f19168201604052611ffb91908101906143bb565b604001519050806001600160a01b031682606001516001600160a01b031614612050576040517fa29c498600000000000000000000000000000000000000000000000000000000815260040160405180910390fd5b61205d8260400151612568565b1561207b57604051630efd728560e21b815260040160405180910390fd5b505b600060066000815461208e90614533565b91829055506000818152600e602090815260408083208481556005810180546001600160a01b038b811673ffffffffffffffffffffffffffffffffffffffff19928316179092558885015160048401805491841691831691909117905560608901516006840180549190931691161790559086015160018083019190915560088201805460ff19169091179055436007820155600381019290925560808501518051600a8401908155918101519394509192600b84019061214f908261459a565b505060015460408051918252602082018590527ffcf3b1aa65a464cef2889608f99e8b8c0f680a4be6c2acb9d961c536a5a9294b92500160405180910390a150949350505050565b600d546001600160a01b03163314610d83576040517faf0916a200000000000000000000000000000000000000000000000000000000815260040160405180910390fd5b600d54604080516336d8759760e21b815290516000926012926001600160a01b039091169163db61d65c916004808201926020929091908290030181865afa15801561222b573d6000803e3d6000fd5b505050506040513d601f19601f8201168201806040525081019061224f9190614516565b6001600160a01b031663313ce5676040518163ffffffff1660e01b8152600401602060405180830381865afa9250505080156122a8575060408051601f3d908101601f191682019092526122a59181019061465a565b60015b6122ef576122ea6040518060400160405280601581526020017f4572726f722067657474696e6720646563696d616c0000000000000000000000815250612d3f565b6122f5565b60ff1690505b6123346040518060400160405280601081526020017f5f616d6f756e74546f556e7374616b650000000000000000000000000000000081525084612db0565b600d546040516316308e2560e11b81526001600160a01b0386811660048301526000928692911690632c611c4a90602401602060405180830381865afa158015612382573d6000803e3d6000fd5b505050506040513d601f19601f820116820180604052508101906123a69190614184565b6123b091906140f2565b90506123f16040518060400160405280600d81526020017f6e6577546f74616c5374616b650000000000000000000000000000000000000081525082612db0565b600061241061240184600a614761565b61240b908461413d565b612e23565b600d54604051637817ee4f60e01b81526001600160a01b03898116600483015230602483015292935060009284921690637817ee4f90604401602060405180830381865afa158015612466573d6000803e3d6000fd5b505050506040513d601f19601f8201168201806040525081019061248a9190614184565b61249491906140f2565b979650505050505050565b6000600160801b83106124f45760405162461bcd60e51b815260206004820152601c60248201527f5f612073686f756c64206265206c657373207468616e20325e313238000000006044820152606401610d1d565b50600160801b82825b80156125405780600116600003612522576125188283612f0b565b915060011c6124fd565b61252c8383612f0b565b92506125396001826140f2565b90506124fd565b505092915050565b60006001600160a01b03821615612560576001610c1d565b600092915050565b6000612577629896808361413d565b600254600454612587919061413d565b111592915050565b6000808290506125d46040518060400160405280601281526020017f504f494e545320544f20494e435245415345000000000000000000000000000081525082612db0565b600d54604051637817ee4f60e01b81526001600160a01b0386811660048301523060248301526000921690637817ee4f90604401602060405180830381865afa158015612625573d6000803e3d6000fd5b505050506040513d601f19601f820116820180604052508101906126499190614184565b905061268a6040518060400160405280600b81526020017f4d454d424552504f57455200000000000000000000000000000000000000000081525082612db0565b600c546126978383614154565b11156126ae57600c546126ab9082906140f2565b91505b6126ed6040518060400160405280601681526020017f504f494e545320544f20494e43524541534520454e440000000000000000000081525083612db0565b509392505050565b600d546040516316308e2560e11b81526001600160a01b0384811660048301526000928392859290911690632c611c4a90602401602060405180830381865afa158015612746573d6000803e3d6000fd5b505050506040513d601f19601f8201168201806040525081019061276a9190614184565b6127749190614154565b600d54604080516336d8759760e21b815290519293506012926001600160a01b039092169163db61d65c916004808201926020929091908290030181865afa1580156127c4573d6000803e3d6000fd5b505050506040513d601f19601f820116820180604052508101906127e89190614516565b6001600160a01b031663313ce5676040518163ffffffff1660e01b8152600401602060405180830381865afa925050508015612841575060408051601f3d908101601f1916820190925261283e9181019061465a565b60015b612888576128836040518060400160405280601581526020017f4572726f722067657474696e6720646563696d616c0000000000000000000000815250612d3f565b61288e565b60ff1690505b60006128a861289e83600a614761565b61240b908561413d565b600d54604051637817ee4f60e01b81526001600160a01b03898116600483015230602483015292935060009290911690637817ee4f90604401602060405180830381865afa1580156128fe573d6000803e3d6000fd5b505050506040513d601f19601f820116820180604052508101906129229190614184565b9050600061293082846140f2565b98975050505050505050565b60008043905080846007015411156129565761295661476d565b8084600701540361296c5750600090508061298d565b61298a84600701548261297f91906140f2565b856003015485610ec6565b91505b9250929050565b6000805460ff19168215159081179091556040519081527fd94c9bc4d43c51d8dc345a016d8e3d994432fac68e72832e4cf3a616bd8efae090602001611e54565b60006001600160a01b038216156129ed576002610c1d565b600392915050565b6129fd611917565b60015415612a37576040517f439a74c900000000000000000000000000000000000000000000000000000000815260040160405180910390fd5b80600003612a71576040517f7fcce2a900000000000000000000000000000000000000000000000000000000815260040160405180910390fd5b600155565b612a7f8161300a565b600d5460405163011de97360e61b81526001600160a01b038381166004830152306024830152600092169063477a5cc090604401602060405180830381865afa158015612ad0573d6000803e3d6000fd5b505050506040513d601f19601f82011682018060405250810190612af49190614167565b905080612b2d576040517f5fccb67f00000000000000000000000000000000000000000000000000000000815260040160405180910390fd5b600083806020019051810190612b439190614783565b9050612b4f8382613130565b612b5983826132f3565b50505050565b6040518181527f46aeb5d8770fc4474bc2dfa118fd2595f7fb33ce2cbce6f4e5a3dabfe0f7633990602001611e54565b7fffffffffffffffffffffffff11111111111111111111111111111111111111126001600160a01b03841601612bc957610cab8282613717565b610cab838383613733565b6001600160a01b038116600090815260106020908152604080832080548251818502810185019093528083529192909190830182828015612c3457602002820191906000526020600020905b815481526020019060010190808311612c20575b5050505050905060005b8151811015610cab576000828281518110612c5b57612c5b61482e565b602002602001015190506000600e60008381526020019081526020016000209050612c8582613782565b15612cea576001600160a01b0385166000908152600982016020526040812080549082905560028301805491928392612cbf9084906140f2565b925050819055508060076000828254612cd891906140f2565b90915550612ce890508282611cd3565b505b50508080612cf790614533565b915050612c3e565b6001600160a01b0381166110c4576040517fe622e04000000000000000000000000000000000000000000000000000000000815260040160405180910390fd5b6110c481604051602401612d539190614844565b60408051601f198184030181529190526020810180517bffffffffffffffffffffffffffffffffffffffffffffffffffffffff167f41304fac000000000000000000000000000000000000000000000000000000001790526137bb565b6117e08282604051602401612dc6929190614857565b60408051601f198184030181529190526020810180517bffffffffffffffffffffffffffffffffffffffffffffffffffffffff167f9710a9d0000000000000000000000000000000000000000000000000000000001790526137bb565b600081600003612e3557506000919050565b60006001612e42846137dc565b901c6001901b90506001818481612e5b57612e5b614105565b048201901c90506001818481612e7357612e73614105565b048201901c90506001818481612e8b57612e8b614105565b048201901c90506001818481612ea357612ea3614105565b048201901c90506001818481612ebb57612ebb614105565b048201901c90506001818481612ed357612ed3614105565b048201901c90506001818481612eeb57612eeb614105565b048201901c9050610da181828581612f0557612f05614105565b04613870565b6000600160801b831115612f875760405162461bcd60e51b815260206004820152602860248201527f5f612073686f756c64206265206c657373207468616e206f7220657175616c2060448201527f746f20325e3132380000000000000000000000000000000000000000000000006064820152608401610d1d565b600160801b8210612fda5760405162461bcd60e51b815260206004820152601c60248201527f5f622073686f756c64206265206c657373207468616e20325e313238000000006044820152606401610d1d565b60806f80000000000000000000000000000000612ff7848661413d565b6130019190614154565b901c9392505050565b6001600160a01b03811661304a576040517fd1f2828800000000000000000000000000000000000000000000000000000000815260040160405180910390fd5b600d546001600160a01b031661307357604051635df4b1ef60e01b815260040160405180910390fd5b600d546040517fa230c5240000000000000000000000000000000000000000000000000000000081526001600160a01b0383811660048301529091169063a230c52490602401602060405180830381865afa1580156130d6573d6000803e3d6000fd5b505050506040513d601f19601f820116820180604052508101906130fa9190614167565b6110c4576040517f6a5cfb6d00000000000000000000000000000000000000000000000000000000815260040160405180910390fd5b6000805b82518110156131ed5782818151811061314f5761314f61482e565b602002602001015160000151600003156131db5760008382815181106131775761317761482e565b602002602001015160000151905061318e81613782565b6131ae5760405163c1d17bef60e01b815260048101829052602401610d1d565b8382815181106131c0576131c061482e565b602002602001015160200151836131d79190614879565b9250505b806131e581614533565b915050613134565b506001600160a01b0383166000908152600f60205260408120546132119083613886565b600d54604051637817ee4f60e01b81526001600160a01b03878116600483015230602483015292935060009290911690637817ee4f90604401602060405180830381865afa158015613267573d6000803e3d6000fd5b505050506040513d601f19601f8201168201806040525081019061328b9190614184565b9050808211156132d1576040517fd64182fe0000000000000000000000000000000000000000000000000000000081526004810183905260248101829052604401610d1d565b506001600160a01b039093166000908152600f60205260409020929092555050565b606060005b8251811015612b595760008382815181106133155761331561482e565b6020026020010151600001519050825160000361337157604080516001808252818301909252906020808301908036833701905050925080836000815181106133605761336061482e565b6020026020010181815250506134c4565b6000805b84518110156133f057828582815181106133915761339161482e565b6020026020010151036133de576040517fadebb154000000000000000000000000000000000000000000000000000000008152600481018490526024810182905260019250604401610d1d565b806133e881614533565b915050613375565b50806134c2576000845160016134069190614154565b67ffffffffffffffff81111561341e5761341e613a82565b604051908082528060200260200182016040528015613447578160200160208202803683370190505b50905060005b855181101561349f578581815181106134685761346861482e565b60200260200101518282815181106134825761348261482e565b60209081029190910101528061349781614533565b91505061344d565b5082818651815181106134b4576134b461482e565b602090810291909101015293505b505b60008483815181106134d8576134d861482e565b6020908102919091018101518101516000848152600e835260408082206001600160a01b038b168352600981019094528120549193506135188285613886565b6001600160a01b038a1660009081526009850160205260408120829055909150805b6001600160a01b038b166000908152601060205260409020548110156135b15784546001600160a01b038c1660009081526010602052604090208054839081106135865761358661482e565b90600052602060002001540361359f57600191506135b1565b806135a981614533565b91505061353a565b50806135e7576001600160a01b038a16600090815260106020908152604082208654815460018101835591845291909220909101555b818311613637576135f883836140f2565b600760008282546136099190614154565b90915550613619905083836140f2565b84600201600082825461362c9190614154565b9091555061367b9050565b61364182846140f2565b6007600082825461365291906140f2565b90915550613662905082846140f2565b84600201600082825461367591906140f2565b90915550505b8360070154600003613692574360078501556136fe565b61369c8484611cd3565b60028401546003850154604080516001600160a01b038e168152602081018a9052908101859052606081019290925260808201527f0227f642ddcf2042ceaeafadb9d540f432072c00cd4862881667168dcc14710f9060a00160405180910390a15b505050505050808061370f90614533565b9150506132f8565b60008060008084865af16117e05763b12d13eb6000526004601cfd5b81601452806034526fa9059cbb00000000000000000000000060005260206000604460106000875af13d156001600051141716613778576390b8ec186000526004601cfd5b6000603452505050565b6000818152600e602052604081205415801590610c1d5750506000908152600e60205260409020600501546001600160a01b0316151590565b80516a636f6e736f6c652e6c6f67602083016000808483855afa5050505050565b600080608083901c156137f157608092831c92015b604083901c1561380357604092831c92015b602083901c1561381557602092831c92015b601083901c1561382757601092831c92015b600883901c1561383957600892831c92015b600483901c1561384b57600492831c92015b600283901c1561385d57600292831c92015b600183901c15610c1d5760010192915050565b600081831061387f5781610da1565b5090919050565b6000806138938385614879565b90506000811215610da1576040517f3bbc7142000000000000000000000000000000000000000000000000000000008152600481018590526024810184905260448101829052606401610d1d565b6000602082840312156138f357600080fd5b5035919050565b634e487b7160e01b600052602160045260246000fd5b60058110613920576139206138fa565b9052565b60005b8381101561393f578181015183820152602001613927565b50506000910152565b60008151808452613960816020860160208601613924565b601f01601f19169290920160200192915050565b8051825260006020820151604060208501526139936040850182613948565b949350505050565b60006101408c83528b60208401528a60408401528960608401526001600160a01b03808a16608085015280891660a085015280881660c0850152508560e08401526139ea610100840186613910565b806101208401526139fd81840185613974565b9d9c50505050505050505050505050565b600060208284031215613a2057600080fd5b81357fffffffff0000000000000000000000000000000000000000000000000000000081168114610da157600080fd5b6001600160a01b03811681146110c457600080fd5b600060208284031215613a7757600080fd5b8135610da181613a50565b634e487b7160e01b600052604160045260246000fd5b6040805190810167ffffffffffffffff81118282101715613abb57613abb613a82565b60405290565b60405160c0810167ffffffffffffffff81118282101715613abb57613abb613a82565b60405160a0810167ffffffffffffffff81118282101715613abb57613abb613a82565b604051601f8201601f1916810167ffffffffffffffff81118282101715613b3057613b30613a82565b604052919050565b600067ffffffffffffffff821115613b5257613b52613a82565b5060051b60200190565b600082601f830112613b6d57600080fd5b81356020613b82613b7d83613b38565b613b07565b82815260059290921b84018101918181019086841115613ba157600080fd5b8286015b84811015613bc5578035613bb881613a50565b8352918301918301613ba5565b509695505050505050565b600067ffffffffffffffff821115613bea57613bea613a82565b50601f01601f191660200190565b600082601f830112613c0957600080fd5b8135613c17613b7d82613bd0565b818152846020838601011115613c2c57600080fd5b816020850160208301376000918101602001919091529392505050565b600080600060608486031215613c5e57600080fd5b833567ffffffffffffffff80821115613c7657600080fd5b613c8287838801613b5c565b94506020860135915080821115613c9857600080fd5b50613ca586828701613bf8565b9250506040840135613cb681613a50565b809150509250925092565b60008060408385031215613cd457600080fd5b823567ffffffffffffffff811115613ceb57600080fd5b613cf785828601613bf8565b9250506020830135613d0881613a50565b809150509250929050565b60048110613920576139206138fa565b60208101610c1d8284613d13565b60008060408385031215613d4457600080fd5b8235613d4f81613a50565b946020939093013593505050565b600080600060608486031215613d7257600080fd5b505081359360208301359350604090920135919050565b60038110613920576139206138fa565b60208101610c1d8284613d89565b602081526000610da16020830184613974565b60008060408385031215613dcd57600080fd5b823567ffffffffffffffff80821115613de557600080fd5b613df186838701613b5c565b9350602091508185013581811115613e0857600080fd5b8501601f81018713613e1957600080fd5b8035613e27613b7d82613b38565b81815260059190911b82018401908481019089831115613e4657600080fd5b8584015b83811015613e7e57803586811115613e625760008081fd5b613e708c8983890101613bf8565b845250918601918601613e4a565b508096505050505050509250929050565b602080825282518282018190526000919060409081850190868401855b82811015613eda57815180516001600160a01b03168552860151868501529284019290850190600101613eac565b5091979650505050505050565b80151581146110c457600080fd5b600060208284031215613f0757600080fd5b8135610da181613ee7565b6001600160a01b038b811682528a811660208301528916604082015260608101889052608081018790526101408101613f4e60a0830188613910565b8560c08301528460e083015283610100830152826101208301529b9a5050505050505050505050565b60008060408385031215613f8a57600080fd5b823591506020830135613d0881613a50565b60006020808385031215613faf57600080fd5b823567ffffffffffffffff811115613fc657600080fd5b8301601f81018513613fd757600080fd5b8035613fe5613b7d82613b38565b81815260069190911b8201830190838101908783111561400457600080fd5b928401925b8284101561249457604084890312156140225760008081fd5b61402a613a98565b843581528585013586820152825260409093019290840190614009565b602081016007831061405b5761405b6138fa565b91905290565b6000806040838503121561407457600080fd5b82359150602083013567ffffffffffffffff81111561409257600080fd5b61409e85828601613bf8565b9150509250929050565b600181811c908216806140bc57607f821691505b6020821081036110ad57634e487b7160e01b600052602260045260246000fd5b634e487b7160e01b600052601160045260246000fd5b81810381811115610c1d57610c1d6140dc565b634e487b7160e01b600052601260045260246000fd5b60008261413857634e487b7160e01b600052601260045260246000fd5b500490565b8082028115828204841417610c1d57610c1d6140dc565b80820180821115610c1d57610c1d6140dc565b60006020828403121561417957600080fd5b8151610da181613ee7565b60006020828403121561419657600080fd5b5051919050565b8051600381106141ac57600080fd5b919050565b8051600481106141ac57600080fd5b6000602082840312156141d257600080fd5b6040516020810181811067ffffffffffffffff821117156141f5576141f5613a82565b6040529151825250919050565b600061010080838503121561421657600080fd5b6040519081019067ffffffffffffffff8211818310171561423957614239613a82565b816040528351915061424a82613a50565b8181526020840151602082015260408401516040820152606084015160608201526080840151608082015261428160a0850161419d565b60a082015261429260c085016141b1565b60c08201526142a48560e086016141c0565b60e0820152949350505050565b6000610120820190508382526001600160a01b038351166020830152602083015160408301526040830151606083015260608301516080830152608083015160a083015260a083015161430760c0840182613d89565b5060c083015161431a60e0840182613d13565b5060e0830151516101008301529392505050565b60006040828403121561434057600080fd5b614348613a98565b905081518152602082015167ffffffffffffffff81111561436857600080fd5b8201601f8101841361437957600080fd5b8051614387613b7d82613bd0565b81815285602083850101111561439c57600080fd5b6143ad826020830160208601613924565b602084015250909392505050565b6000602082840312156143cd57600080fd5b815167ffffffffffffffff808211156143e557600080fd5b9083019060c082860312156143f957600080fd5b614401613ac1565b82518152602083015161441381613a50565b6020820152604083015161442681613a50565b604082015260608301518281111561443d57600080fd5b6144498782860161432e565b6060830152506080830151608082015260a083015160a082015280935050505092915050565b60006020828403121561448157600080fd5b815167ffffffffffffffff8082111561449957600080fd5b9083019060a082860312156144ad57600080fd5b6144b5613ae4565b8251815260208301516144c781613a50565b60208201526040838101519082015260608301516144e481613a50565b60608201526080830151828111156144fb57600080fd5b6145078782860161432e565b60808301525095945050505050565b60006020828403121561452857600080fd5b8151610da181613a50565b600060018201614545576145456140dc565b5060010190565b601f821115610cab57600081815260208120601f850160051c810160208610156145735750805b601f850160051c820191505b818110156145925782815560010161457f565b505050505050565b815167ffffffffffffffff8111156145b4576145b4613a82565b6145c8816145c284546140a8565b8461454c565b602080601f8311600181146145fd57600084156145e55750858301515b600019600386901b1c1916600185901b178555614592565b600085815260208120601f198616915b8281101561462c5788860151825594840194600190910190840161460d565b508582101561464a5787850151600019600388901b60f8161c191681555b5050505050600190811b01905550565b60006020828403121561466c57600080fd5b815160ff81168114610da157600080fd5b600181815b808511156146b857816000190482111561469e5761469e6140dc565b808516156146ab57918102915b93841c9390800290614682565b509250929050565b6000826146cf57506001610c1d565b816146dc57506000610c1d565b81600181146146f257600281146146fc57614718565b6001915050610c1d565b60ff84111561470d5761470d6140dc565b50506001821b610c1d565b5060208310610133831016604e8410600b841016171561473b575081810a610c1d565b614745838361467d565b8060001904821115614759576147596140dc565b029392505050565b6000610da183836146c0565b634e487b7160e01b600052600160045260246000fd5b6000602080838503121561479657600080fd5b825167ffffffffffffffff8111156147ad57600080fd5b8301601f810185136147be57600080fd5b80516147cc613b7d82613b38565b81815260069190911b820183019083810190878311156147eb57600080fd5b928401925b8284101561249457604084890312156148095760008081fd5b614811613a98565b8451815285850151868201528252604090930192908401906147f0565b634e487b7160e01b600052603260045260246000fd5b602081526000610da16020830184613948565b60408152600061486a6040830185613948565b90508260208301529392505050565b8082018281126000831280158216821582161715612540576125406140dc56fea2646970667358221220de516b67a2278d0c4959259aa9af6dfee331e1a4f0ac31bb1b3a75daa278c11164736f6c634300081300330000000000000000000000001133ea7af70876e64665ecd07c0a0476d09465a1",
        "nonce": "0x147",
        "chainId": "0xaa36a7"
      },
      "additionalContracts": [],
      "isFixedGasLimit": false
    },
    {
      "hash": "0x6618b7c097d1067d629623d5220d937dc9ea4437db7a7b04943977770f6d4cd7",
      "transactionType": "CALL",
      "contractName": null,
      "contractAddress": "0xc98c004a1d6c62e0c42ecee1a924dc216aac2094",
      "function": "createRegistry((address,address,uint256,uint256,uint256,address,address,(uint256,string),address,string,bool,string,address))",
      "arguments": [
        "(0x1133eA7Af70876e64665ecD07C0A0476d09465a1, 0xa8ea1B06621CE640762ccb12E9bcAb03723B76c7, 1000000000000000000, 0, 0, 0x0000000000000000000000000000000000000000, 0x0000000000000000000000000000000000000000, (1, \"QmX5jPva6koRnn88s7ZcPnNXKg1UzmYaZu9h15d8kzH1CN\"), 0xc6Eaf449f79B081300F5317122B2Dff3f039ad0b, \"Alpha Seedling\", false, \"\", 0x069E096F9EA0d170600EDFC6B53Eec20B015D75d)"
      ],
      "transaction": {
        "from": "0x2f9e113434aebdd70bb99cb6505e1f726c578d6d",
        "to": "0xc98c004a1d6c62e0c42ecee1a924dc216aac2094",
        "gas": "0x66e48c",
        "value": "0x0",
        "input": "0x8a16135f00000000000000000000000000000000000000000000000000000000000000200000000000000000000000001133ea7af70876e64665ecd07c0a0476d09465a1000000000000000000000000a8ea1b06621ce640762ccb12e9bcab03723b76c70000000000000000000000000000000000000000000000000de0b6b3a7640000000000000000000000000000000000000000000000000000000000000000000000000000000000000000000000000000000000000000000000000000000000000000000000000000000000000000000000000000000000000000000000000000000000000000000000000000000000000000000000000000000000000000000000000000000000000000000000000000000000000000000000000000000001a0000000000000000000000000c6eaf449f79b081300f5317122b2dff3f039ad0b000000000000000000000000000000000000000000000000000000000000024000000000000000000000000000000000000000000000000000000000000000000000000000000000000000000000000000000000000000000000000000000280000000000000000000000000069e096f9ea0d170600edfc6b53eec20b015d75d00000000000000000000000000000000000000000000000000000000000000010000000000000000000000000000000000000000000000000000000000000040000000000000000000000000000000000000000000000000000000000000002e516d58356a507661366b6f526e6e383873375a63506e4e584b6731557a6d59615a753968313564386b7a4831434e000000000000000000000000000000000000000000000000000000000000000000000000000000000000000000000000000e416c70686120536565646c696e670000000000000000000000000000000000000000000000000000000000000000000000000000000000000000000000000000",
        "nonce": "0x148",
        "chainId": "0xaa36a7"
      },
      "additionalContracts": [
        {
          "transactionType": "CREATE",
          "address": "0xa65b4dfd31378b451e75107854fe2315993ed905",
          "initCode": "0x60806040523480156200001157600080fd5b506001600090815562000046907fbc6bbe35ebc64943402c04d2ae016d7bd2bba28e1a11cf66be743c9bd74c720b906200004c565b62000099565b6000828152600160208190526040808320909101805490849055905190918391839186917fbd79b86ffe0ab8e8776151514217cd7cacd52c909f66475c3af44e129f0b00ff9190a4505050565b61460a80620000a96000396000f3fe608060405234801561001057600080fd5b506004361061036d5760003560e01c806368decabb116101d3578063b3f0067411610104578063d547741f116100a2578063db1e0f3d1161007c578063db1e0f3d1461086c578063db61d65c1461087f578063ebd7dc5214610892578063f86c5f89146108a557600080fd5b8063d547741f1461083d578063d6d8428d14610850578063d7050f071461086357600080fd5b8063b99b4370116100de578063b99b4370146107f5578063bc063e1a146107fd578063c6d572ae14610805578063cac532141461080d57600080fd5b8063b3f00674146107c5578063b5058c50146107d8578063b64e39af146107e057600080fd5b80638961be6b11610171578063a0b21cdf1161014b578063a0b21cdf14610724578063a0cf0aea1461074b578063a217fddf14610766578063a230c5241461076e57600080fd5b80638961be6b146106cf57806391d14854146106d857806396f0adec1461071157600080fd5b806378a0b8a9116101ad57806378a0b8a91461063d5780637b1039991461064657806382d6a1e71461065957806388cfe6841461066c57600080fd5b806368decabb146105de5780636c53db9a146105f15780637817ee4f1461060457600080fd5b80632f2ff15d116102ad5780633c0923301161024b5780635c94e4d2116102255780635c94e4d21461057a5780635ecf71c51461058d57806365e3864c146105a05780636871eb4d146105cb57600080fd5b80633c09233014610526578063477a5cc014610539578063559de05d1461056757600080fd5b80633517aa7d116102875780633517aa7d146104d557806336568abe146104dd578063397e2543146104f05780633a871fe11461050357600080fd5b80632f2ff15d146104a657806331f61bca146104b957806333960459146104cc57600080fd5b80631f787d281161031a578063248a9ca3116102f4578063248a9ca31461042357806328c309e9146104475780632b38c69c1461044f5780632c611c4a1461047a57600080fd5b80631f787d28146103f0578063223e5479146103fd57806322bcf9991461041057600080fd5b80630d12bbdb1161034b5780630d12bbdb146103b55780630d4a8b49146103ca578063175188e8146103dd57600080fd5b806301ffc9a7146103725780630331383c1461039a57806308386eba146103ac575b600080fd5b610385610380366004613752565b6108b8565b60405190151581526020015b60405180910390f35b6003545b604051908152602001610391565b61039e60055481565b6103c86103c336600461377c565b610908565b005b6103c86103d83660046137ba565b610992565b6103c86103eb3660046137f3565b610cf9565b6002546103859060ff1681565b6103c861040b3660046137f3565b610d0d565b6103c861041e3660046137ba565b610d1e565b61039e61043136600461377c565b6000908152600160208190526040909120015490565b61039e610e2d565b61046261045d366004613810565b610f17565b6040516001600160a01b039091168152602001610391565b61039e6104883660046137f3565b6001600160a01b031660009081526013602052604090206001015490565b6103c86104b436600461383c565b610f4f565b6103c86104c736600461377c565b610f7a565b61039e60095481565b6103c8610fb7565b6103c86104eb36600461383c565b6113bc565b6103c86104fe3660046137f3565b61144d565b6103856105113660046137f3565b60116020526000908152604090205460ff1681565b6103c86105343660046137f3565b6114ba565b6103856105473660046137ba565b601560209081526000928352604080842090915290825290205460ff1681565b6103c861057536600461377c565b611508565b600854610462906001600160a01b031681565b6103c861059b36600461377c565b6117e2565b61039e6105ae3660046137ba565b601260209081526000928352604080842090915290825290205481565b6103c86105d93660046137ba565b611b9c565b600a54610462906001600160a01b031681565b600d54610462906001600160a01b031681565b61039e6106123660046137ba565b6001600160a01b03918216600090815260126020908152604080832093909416825291909152205490565b61039e60035481565b600b54610462906001600160a01b031681565b6103c861066736600461377c565b611da7565b6106a861067a3660046137f3565b6013602052600090815260409020805460018201546002909201546001600160a01b03909116919060ff1683565b604080516001600160a01b0390941684526020840192909252151590820152606001610391565b61039e60045481565b6103856106e636600461383c565b60009182526001602090815260408084206001600160a01b0393909316845291905290205460ff1690565b6103c861071f366004613a01565b611e71565b61039e7fbc6bbe35ebc64943402c04d2ae016d7bd2bba28e1a11cf66be743c9bd74c720b81565b61046273eeeeeeeeeeeeeeeeeeeeeeeeeeeeeeeeeeeeeeee81565b61039e600081565b61038561077c3660046137f3565b6001600160a01b039081166000908152601360209081526040918290208251606081018452815490941684526001810154918401919091526002015460ff161515910181905290565b600654610462906001600160a01b031681565b6103c861235d565b6107e86123a9565b6040516103919190613ba7565b6103c8612437565b61039e61259a565b6107e86125aa565b61082061081b366004613cd5565b6125b7565b604080519283526001600160a01b03909116602083015201610391565b6103c861084b36600461383c565b612601565b600e54610462906001600160a01b031681565b61039e61271081565b61082061087a366004613d38565b612627565b600c54610462906001600160a01b031681565b6103856108a03660046137f3565b6127a6565b600754610462906001600160a01b031681565b60006001600160e01b031982167f7965db0b00000000000000000000000000000000000000000000000000000000148061090257506301ffc9a760e01b6001600160e01b03198316145b92915050565b6109106127e6565b61091d612710600a613dc4565b811115610956576040517ffe925f7d00000000000000000000000000000000000000000000000000000000815260040160405180910390fd5b60048190556040518181527f611668bfcf654a99c33cdb66c29ec37a5aae5c1287d2d9715a24e18cb4d806d6906020015b60405180910390a150565b61099b8261284e565b6109a4816128b1565b6109ad81612903565b6001600160a01b0380831660009081526015602090815260408083209385168352929052205460ff1615610a0d576040517fd5b9bc9600000000000000000000000000000000000000000000000000000000815260040160405180910390fd5b6001600160a01b0380831660009081526013602090815260409182902082516060810184528154909416845260018101549184018290526002015460ff161515918301919091526003805490846001600160a01b031663c32921716040518163ffffffff1660e01b81526004016020604051808303816000875af1158015610a99573d6000803e3d6000fd5b505050506040513d601f19601f82011682018060405250810190610abd9190613df1565b6003811115610ace57610ace613ddb565b03610b4d5760405163782aadff60e01b81526001600160a01b0386811660048301526000602483015285169063782aadff906044016020604051808303816000875af1158015610b22573d6000803e3d6000fd5b505050506040513d601f19601f82011682018060405250810190610b469190613e0e565b9050610c3f565b6000846001600160a01b031663c32921716040518163ffffffff1660e01b81526004016020604051808303816000875af1158015610b8f573d6000803e3d6000fd5b505050506040513d601f19601f82011682018060405250810190610bb39190613df1565b6003811115610bc457610bc4613ddb565b14610c3f5760405163782aadff60e01b81526001600160a01b0386811660048301526024820184905285169063782aadff906044016020604051808303816000875af1158015610c18573d6000803e3d6000fd5b505050506040513d601f19601f82011682018060405250810190610c3c9190613e0e565b90505b6001600160a01b038581166000818152601260209081526040808320948916808452948252808320869055838352601582528083208584528252808320805460ff19166001908117909155848452601483528184208054918201815584529282902090920180546001600160a01b0319168517905581519283528201929092529081018290527ff56fa57e85e169a12200d12d9921ec069b52e688f6d309d9dab7bceff54614ec9060600160405180910390a15050505050565b610d016127e6565b610d0a81612943565b50565b610d156127e6565b610d0a8161299d565b610d278261284e565b610d3081612903565b610d3a3382612a44565b6001600160a01b0380831660009081526015602090815260408083209385168352929052205460ff16610d99576040517fc12369dc00000000000000000000000000000000000000000000000000000000815260040160405180910390fd5b6001600160a01b038083166000818152601560209081526040808320948616808452948252808320805460ff191690559282526012815282822093825292909252812055610de78282612a8f565b604080516001600160a01b038085168252831660208201527ede109bef4619f7e2cf00c8e5a50ca55f8deb44f87087eed414a91dbf8d1d1b910160405180910390a15050565b6007546000906001600160a01b031681610e4a6127106064613dc4565b600454600354610e5a9190613dc4565b610e649190613e27565b90506000610e756127106064613dc4565b6040516302a64b8360e21b81523060048201526001600160a01b03851690630a992e0c90602401602060405180830381865afa158015610eb9573d6000803e3d6000fd5b505050506040513d601f19601f82011682018060405250810190610edd9190613e0e565b600354610eea9190613dc4565b610ef49190613e27565b90508082600354610f059190613e49565b610f0f9190613e49565b935050505090565b60146020528160005260406000208181548110610f3357600080fd5b6000918252602090912001546001600160a01b03169150829050565b60008281526001602081905260409091200154610f6b81612bb1565b610f758383612bbb565b505050565b610f826127e6565b60038190556040518181527f5bcc2c453001fb0e2ba6266d56ecb411e7c6e15c8f9c3d301f93dd36ad25726f90602001610987565b610fbf612c42565b33600081815260136020526040812060075490916001600160a01b0390911690610fec6127106064613dc4565b600454600354610ffc9190613dc4565b6110069190613e27565b905060006110176127106064613dc4565b6040516302a64b8360e21b81523060048201526001600160a01b03851690630a992e0c90602401602060405180830381865afa15801561105b573d6000803e3d6000fd5b505050506040513d601f19601f8201168201806040525081019061107f9190613e0e565b60035461108c9190613dc4565b6110969190613e27565b6001600160a01b038087166000908152601360209081526040918290208251606081018452815490941684526001810154918401919091526002015460ff16151591018190529091506113ab5760028401805460ff191660019081179091556003549085015560408051808201909152600b81527f67617264656e546f6b656e0000000000000000000000000000000000000000006020820152600c5461114691906001600160a01b0316612c9b565b6111788530838560035461115a9190613e49565b6111649190613e49565b600c546001600160a01b0316929190612cf9565b6111b76040518060400160405280601281526020017f636f6d6d756e697479466565416d6f756e74000000000000000000000000000081525083612d7d565b81156112245760408051808201909152600b81527f6665655265636569766572000000000000000000000000000000000000000000602082015260065461120791906001600160a01b0316612c9b565b600654600c54611224916001600160a01b03918216911684612ddb565b6112636040518060400160405280601081526020017f67617264656e73466565416d6f756e740000000000000000000000000000000081525082612d7d565b8015611364576112ec6040518060600160405280602681526020016145af60269139846001600160a01b031663987435be6040518163ffffffff1660e01b8152600401602060405180830381865afa1580156112c3573d6000803e3d6000fd5b505050506040513d601f19601f820116820180604052508101906112e79190613e5c565b612c9b565b611364836001600160a01b031663987435be6040518163ffffffff1660e01b8152600401602060405180830381865afa15801561132d573d6000803e3d6000fd5b505050506040513d601f19601f820116820180604052508101906113519190613e5c565b600c546001600160a01b03169083612ddb565b600354604080516001600160a01b038816815260208101929092527f67e0244e28040fec15240cd4b6c04c776a2a0278caef23b59e8ada1df31f7689910160405180910390a15b50505050506113ba6001600055565b565b6001600160a01b038116331461143f5760405162461bcd60e51b815260206004820152602f60248201527f416363657373436f6e74726f6c3a2063616e206f6e6c792072656e6f756e636560448201527f20726f6c657320666f722073656c66000000000000000000000000000000000060648201526084015b60405180910390fd5b6114498282612e0b565b5050565b6114556127e6565b61145e81612903565b600a80546001600160a01b0319166001600160a01b03838116918217909255600d546040805191909316815260208101919091527f83eac9fdaff0ac1017624b7eddeb9782e3d707cd894073cb7e8301a41c6e5cf89101610987565b600e80546001600160a01b0319166001600160a01b0383169081179091556040519081527faaded18d4d508696508b945d03ff3d168110dbb73e17aeda699745655fa958d290602001610987565b611510612c42565b611518612e8e565b3360008181526014602090815260408083208054825181850281018501909352808352919290919083018282801561157957602002820191906000526020600020905b81546001600160a01b0316815260019091019060200180831161155b575b50505050509050600080600090505b8251811015611749578281815181106115a3576115a3613e79565b602090810291909101015160405163782aadff60e01b81526001600160a01b038681166004830152602482018890529091169063782aadff906044016020604051808303816000875af11580156115fe573d6000803e3d6000fd5b505050506040513d601f19601f820116820180604052508101906116229190613e0e565b91508115611737576001600160a01b0384166000908152601260205260408120845184929086908590811061165957611659613e79565b60200260200101516001600160a01b03166001600160a01b0316815260200190815260200160002060008282546116909190613e49565b925050819055506117376040518060400160405280600e81526020017f537472617465677920706f77657200000000000000000000000000000000000081525060126000876001600160a01b03166001600160a01b03168152602001908152602001600020600086858151811061170957611709613e79565b60200260200101516001600160a01b03166001600160a01b0316815260200190815260200160002054612d7d565b8061174181613e8f565b915050611588565b50600c54611762906001600160a01b0316843087612cf9565b6001600160a01b0383166000908152601360205260408120600101805486929061178d908490613e49565b9091555050604080516001600160a01b0385168152602081018690527f576605f9bfe8911e7508bed3763c7c5c8eb3b86e8b360b90a4bc6abe1104cb7f91015b60405180910390a1505050610d0a6001600055565b6117ea612c42565b6117f2612e8e565b33600081815260146020908152604080832060035460139093529083206001015490929190611822908690613ea8565b101561185a576040517f9c47d02e00000000000000000000000000000000000000000000000000000000815260040160405180910390fd5b600c54611871906001600160a01b03168486612ddb565b60005b8254811015611b2c57600083828154811061189157611891613e79565b6000918252602090912001546001600160a01b031690506118b98163f1801e6160e01b612eed565b15611a60576040517f2ed04b2b0000000000000000000000000000000000000000000000000000000081526001600160a01b03868116600483015260248201889052821690632ed04b2b906044016020604051808303816000875af1158015611926573d6000803e3d6000fd5b505050506040513d601f19601f8201168201806040525081019061194a9190613e0e565b9250600060126000876001600160a01b03166001600160a01b03168152602001908152602001600020600086858154811061198757611987613e79565b60009182526020808320909101546001600160a01b031683528201929092526040019020549050808411156119f2576040517f8a11f3180000000000000000000000000000000000000000000000000000000081526004810185905260248101829052604401611436565b6001600160a01b03861660009081526012602052604081208654869290889087908110611a2157611a21613e79565b60009182526020808320909101546001600160a01b0316835282019290925260400181208054909190611a55908490613ea8565b909155505050611b19565b83548490611a7090600190613ea8565b81548110611a8057611a80613e79565b9060005260206000200160009054906101000a90046001600160a01b0316848381548110611ab057611ab0613e79565b9060005260206000200160006101000a8154816001600160a01b0302191690836001600160a01b0316021790555083805480611aee57611aee613ebb565b600082815260209020810160001990810180546001600160a01b0319169055019055611b1981612943565b5080611b2481613e8f565b915050611874565b506001600160a01b03831660009081526013602052604081206001018054869290611b58908490613ea8565b9091555050604080516001600160a01b0385168152602081018690527f6ee2c70b2d6b89ae808a2313aab43e925c06624271419cd665d85cfa1ae04ff891016117cd565b611ba4612c42565b611bac6127e6565b60025460ff16611be8576040517fcb63dc7200000000000000000000000000000000000000000000000000000000815260040160405180910390fd5b6001600160a01b038083166000908152601360209081526040918290208251606081018452815490941684526001810154918401919091526002015460ff1615159101819052611c4b57604051636a5cfb6d60e01b815260040160405180910390fd5b6001600160a01b038083166000908152601360209081526040918290208251606081018452815490941684526001810154918401919091526002015460ff16151590820152611c9983612f10565b6001600160a01b03838116600090815260136020908152604080832080546001600160a01b031916815560018101939093556002909201805460ff19169055600c5490840151915163a9059cbb60e01b8152858416600482015260248101929092529091169063a9059cbb906044016020604051808303816000875af1158015611d27573d6000803e3d6000fd5b505050506040513d601f19601f82011682018060405250810190611d4b9190613ed1565b50602080820151604080516001600160a01b0380881682528616938101939093528201527fb5946f249f8744efe9d14d49a483b54a589b1362944ff6694de93456cceb96a39060600160405180910390a1506114496001600055565b611daf6127e6565b600e546040517f068bcd8d000000000000000000000000000000000000000000000000000000008152600481018390526000916001600160a01b03169063068bcd8d90602401600060405180830381865afa158015611e12573d6000803e3d6000fd5b505050506040513d6000823e601f3d908101601f19168201604052611e3a9190810190613eee565b602001519050611e4981612903565b611e636001600160a01b03821663f1801e6160e01b612eed565b15611449576114498161299d565b611e7e8160200151612903565b611e8c816101000151612903565b8051611e9790612903565b611ea48160a00151612903565b611eb2816101800151612903565b606081015115611ec957611ec98160c00151612903565b8051600e80546001600160a01b039283166001600160a01b0319918216179091556020830151600c80549190931691161790556040810151600003611f3a576040517fc70d18aa00000000000000000000000000000000000000000000000000000000815260040160405180910390fd5b604081015160035560608101516004556101408101516002805460ff1916911515919091179055610120810151600f90611f749082614098565b50610160810151601090611f889082614098565b5060a0810151600780546001600160a01b03199081166001600160a01b039384161790915560c0830151600680548316918416919091179055610100830151600d80548316828516179055610180840151600880549093169316929092179055612013907fbc6bbe35ebc64943402c04d2ae016d7bd2bba28e1a11cf66be743c9bd74c720b90612bbb565b600e60009054906101000a90046001600160a01b03166001600160a01b0316635ab1bd536040518163ffffffff1660e01b8152600401602060405180830381865afa158015612066573d6000803e3d6000fd5b505050506040513d601f19601f8201168201806040525081019061208a9190613e5c565b600b80546001600160a01b0319166001600160a01b03928316179055600d54604080517fa0e67e2b0000000000000000000000000000000000000000000000000000000081529051600093929092169163a0e67e2b9160048082019286929091908290030181865afa158015612104573d6000803e3d6000fd5b505050506040513d6000823e601f3d908101601f1916820160405261212c9190810190614158565b905060008151600261213e9190613e49565b67ffffffffffffffff81111561215657612156613861565b60405190808252806020026020018201604052801561217f578160200160208202803683370190505b50905060005b82518110156121e4578281815181106121a0576121a0613e79565b60200260200101518282815181106121ba576121ba613e79565b6001600160a01b0390921660209283029190910190910152806121dc81613e8f565b915050612185565b50600d5481516001600160a01b0390911690829061220490600190613ea8565b8151811061221457612214613e79565b60200260200101906001600160a01b031690816001600160a01b0316815250503081600283516122449190613ea8565b8151811061225457612254613e79565b6001600160a01b039283166020918202929092010152600b54608085015160e08601516040517f3a92f65f0000000000000000000000000000000000000000000000000000000081529290931692633a92f65f926122bc9291600f91309088906004016142ea565b6020604051808303816000875af11580156122db573d6000803e3d6000fd5b505050506040513d601f19601f820116820180604052508101906122ff9190613e0e565b60055580516123159060169060208401906136be565b507f2f2ffcb06f8a1d35e2716f6b43ef2c19bfa76467d8f66964ae12c2583ed03205600554600f8560e0015160405161235093929190614338565b60405180910390a1505050565b600a546001600160a01b031633146123a1576040517febcd0d6e00000000000000000000000000000000000000000000000000000000815260040160405180910390fd5b6113ba613032565b601080546123b690614010565b80601f01602080910402602001604051908101604052809291908181526020018280546123e290614010565b801561242f5780601f106124045761010080835404028352916020019161242f565b820191906000526020600020905b81548152906001019060200180831161241257829003601f168201915b505050505081565b61243f612c42565b336124498161284e565b61245281612f10565b6001600160a01b0380821660008181526013602090815260408083208151606081018352815496871681526001820180548286015260028301805460ff81161515848701529787526001600160a01b03199098169092559084905560ff199094169094556014905291822090916124c99190613723565b600c54602082015160405163a9059cbb60e01b81526001600160a01b038581166004830152602482019290925291169063a9059cbb906044016020604051808303816000875af1158015612521573d6000803e3d6000fd5b505050506040513d601f19601f820116820180604052508101906125459190613ed1565b50602080820151604080516001600160a01b0386168152928301919091527fa13f4668aacb68c4e9eed8e3f6e1cbec3eca776896ec46b5eabcc3983fc8f5f4910160405180910390a150506113ba6001600055565b6125a7612710600a613dc4565b81565b600f80546123b690614010565b60085460098054600092839283926125e6926001600160a01b031691846125dd83613e8f565b9190505561308d565b90506125f481878787612627565b9250925050935093915050565b6000828152600160208190526040909120015461261d81612bb1565b610f758383612e0b565b60008073eeeeeeeeeeeeeeeeeeeeeeeeeeeeeeeeeeeeeeee6001600160a01b038616156126515750845b869150600060168054806020026020016040519081016040528092919081815260200182805480156126ac57602002820191906000526020600020905b81546001600160a01b0316815260019091019060200180831161268e575b5050600e546005546040519596506001600160a01b039091169463e1007d4a94509092508791506126e1908b90602001614381565b6040516020818303038152906040528660008b886040518863ffffffff1660e01b81526004016127179796959493929190614407565b6020604051808303816000875af1158015612736573d6000803e3d6000fd5b505050506040513d601f19601f8201168201806040525081019061275a9190613e0e565b93507f778cac0ae0b66477341553a4a89398c61ccf448313d3354ad0ca85a5a825d2838484308a89604051612793959493929190614473565b60405180910390a1505094509492505050565b6001600160a01b03811660009081527fb5ecf5ecfeba8b6e20c37ad4ed6024e3afbcd2e706bee2e266a62cb37e60342c602052604081205460ff16610902565b3360009081527fb5ecf5ecfeba8b6e20c37ad4ed6024e3afbcd2e706bee2e266a62cb37e60342c602052604090205460ff166113ba576040517ff62651fa00000000000000000000000000000000000000000000000000000000815260040160405180910390fd5b6001600160a01b038082166000908152601360209081526040918290208251606081018452815490941684526001810154918401919091526002015460ff1615159101819052610d0a57604051636a5cfb6d60e01b815260040160405180910390fd5b6001600160a01b03811660009081526011602052604090205460ff16610d0a576040517f46c26e4b00000000000000000000000000000000000000000000000000000000815260040160405180910390fd5b6001600160a01b038116610d0a576040517fe622e04000000000000000000000000000000000000000000000000000000000815260040160405180910390fd5b61294c81612903565b6001600160a01b038116600081815260116020908152604091829020805460ff1916905590519182527f09a1db4b80c32706328728508c941a6b954f31eb5affd32f236c1fd405f8fea49101610987565b6001600160a01b03811660009081526011602052604090205460ff16156129f0576040517f968a4d2c00000000000000000000000000000000000000000000000000000000815260040160405180910390fd5b6001600160a01b038116600081815260116020908152604091829020805460ff1916600117905590519182527f3f008fd510eae7a9e7bee13513d7b83bef8003d488b5a3d0b0da4de71d6846f19101610987565b806001600160a01b0316826001600160a01b031614611449576040517fbbe7961100000000000000000000000000000000000000000000000000000000815260040160405180910390fd5b6001600160a01b0382166000908152601460205260408120905b8154811015612bab57826001600160a01b0316828281548110612ace57612ace613e79565b6000918252602090912001546001600160a01b031603612b995781548290612af890600190613ea8565b81548110612b0857612b08613e79565b9060005260206000200160009054906101000a90046001600160a01b0316828281548110612b3857612b38613e79565b9060005260206000200160006101000a8154816001600160a01b0302191690836001600160a01b0316021790555081805480612b7657612b76613ebb565b600082815260209020810160001990810180546001600160a01b03191690550190555b80612ba381613e8f565b915050612aa9565b50505050565b610d0a81336130e1565b60008281526001602090815260408083206001600160a01b038516845290915290205460ff166114495760008281526001602081815260408084206001600160a01b0386168086529252808420805460ff19169093179092559051339285917f2f8788117e7eff1d82e926ec794901d17c78024a50270940304540a733656f0d9190a45050565b600260005403612c945760405162461bcd60e51b815260206004820152601f60248201527f5265656e7472616e637947756172643a207265656e7472616e742063616c6c006044820152606401611436565b6002600055565b6114498282604051602401612cb19291906144ad565b60408051601f198184030181529190526020810180516001600160e01b03167f319af33300000000000000000000000000000000000000000000000000000000179052613156565b6040516001600160a01b0380851660248301528316604482015260648101829052612bab9085907f23b872dd00000000000000000000000000000000000000000000000000000000906084015b60408051601f198184030181529190526020810180516001600160e01b03166001600160e01b031990931692909217909152613177565b6114498282604051602401612d939291906144d8565b60408051601f198184030181529190526020810180516001600160e01b03167f9710a9d000000000000000000000000000000000000000000000000000000000179052613156565b6040516001600160a01b038316602482015260448101829052610f7590849063a9059cbb60e01b90606401612d46565b60008281526001602090815260408083206001600160a01b038516845290915290205460ff16156114495760008281526001602090815260408083206001600160a01b0385168085529252808320805460ff1916905551339285917ff6391f5c32d9c69d2a47ea670b442974b53935d1edc7fd64eb21e047a839171b9190a45050565b33600090815260136020908152604091829020825160608101845281546001600160a01b031681526001820154928101929092526002015460ff16151591018190526113ba57604051636a5cfb6d60e01b815260040160405180910390fd5b6000612ef88361325f565b8015612f095750612f098383613292565b9392505050565b6001600160a01b038116600090815260146020908152604080832080548251818502810185019093528083529192909190830182828015612f7a57602002820191906000526020600020905b81546001600160a01b03168152600190910190602001808311612f5c575b5050505050905060005b8151811015610f7557818181518110612f9f57612f9f613e79565b60209081029190910101516040517f6453d9c40000000000000000000000000000000000000000000000000000000081526001600160a01b03858116600483015290911690636453d9c490602401600060405180830381600087803b15801561300757600080fd5b505af115801561301b573d6000803e3d6000fd5b50505050808061302a90613e8f565b915050612f84565b600a8054600d80546001600160a01b0383166001600160a01b031991821617909155169055604051600081527fad0399dc40331b9a4977aa89da7a164a3fd482c65e6da73b25a94ea74fb688729060200160405180910390a1565b6040516bffffffffffffffffffffffff193360601b1660208201526034810182905260009081906054016040516020818303038152906040528051906020012090506130d9848261331b565b949350505050565b60008281526001602090815260408083206001600160a01b038516845290915290205460ff1661144957613114816133b8565b61311f8360206133ca565b6040516020016131309291906144fa565b60408051601f198184030181529082905262461bcd60e51b825261143691600401613ba7565b80516a636f6e736f6c652e6c6f67602083016000808483855afa5050505050565b60006131cc826040518060400160405280602081526020017f5361666545524332303a206c6f772d6c6576656c2063616c6c206661696c6564815250856001600160a01b03166135ab9092919063ffffffff16565b90508051600014806131ed5750808060200190518101906131ed9190613ed1565b610f755760405162461bcd60e51b815260206004820152602a60248201527f5361666545524332303a204552433230206f7065726174696f6e20646964206e60448201527f6f742073756363656564000000000000000000000000000000000000000000006064820152608401611436565b6000613272826301ffc9a760e01b613292565b8015610902575061328b826001600160e01b0319613292565b1592915050565b604080516001600160e01b03198316602480830191909152825180830390910181526044909101909152602080820180516001600160e01b03166301ffc9a760e01b178152825160009392849283928392918391908a617530fa92503d91506000519050828015613304575060208210155b80156133105750600081115b979650505050505050565b6000763d602d80600a3d3981f3363d3d373d3d3d363d730000008360601b60e81c176000526e5af43d82803e903d91602b57fd5bf38360781b1760205281603760096000f590506001600160a01b0381166109025760405162461bcd60e51b815260206004820152601760248201527f455243313136373a2063726561746532206661696c65640000000000000000006044820152606401611436565b60606109026001600160a01b03831660145b606060006133d9836002613dc4565b6133e4906002613e49565b67ffffffffffffffff8111156133fc576133fc613861565b6040519080825280601f01601f191660200182016040528015613426576020820181803683370190505b5090507f30000000000000000000000000000000000000000000000000000000000000008160008151811061345d5761345d613e79565b60200101906001600160f81b031916908160001a9053507f7800000000000000000000000000000000000000000000000000000000000000816001815181106134a8576134a8613e79565b60200101906001600160f81b031916908160001a90535060006134cc846002613dc4565b6134d7906001613e49565b90505b600181111561355c577f303132333435363738396162636465660000000000000000000000000000000085600f166010811061351857613518613e79565b1a60f81b82828151811061352e5761352e613e79565b60200101906001600160f81b031916908160001a90535060049490941c936135558161457b565b90506134da565b508315612f095760405162461bcd60e51b815260206004820181905260248201527f537472696e67733a20686578206c656e67746820696e73756666696369656e746044820152606401611436565b60606130d9848460008585600080866001600160a01b031685876040516135d29190614592565b60006040518083038185875af1925050503d806000811461360f576040519150601f19603f3d011682016040523d82523d6000602084013e613614565b606091505b5091509150613310878383876060831561368f578251600003613688576001600160a01b0385163b6136885760405162461bcd60e51b815260206004820152601d60248201527f416464726573733a2063616c6c20746f206e6f6e2d636f6e74726163740000006044820152606401611436565b50816130d9565b6130d983838151156136a45781518083602001fd5b8060405162461bcd60e51b81526004016114369190613ba7565b828054828255906000526020600020908101928215613713579160200282015b8281111561371357825182546001600160a01b0319166001600160a01b039091161782556020909201916001909101906136de565b5061371f92915061373d565b5090565b5080546000825590600052602060002090810190610d0a91905b5b8082111561371f576000815560010161373e565b60006020828403121561376457600080fd5b81356001600160e01b031981168114612f0957600080fd5b60006020828403121561378e57600080fd5b5035919050565b6001600160a01b0381168114610d0a57600080fd5b80356137b581613795565b919050565b600080604083850312156137cd57600080fd5b82356137d881613795565b915060208301356137e881613795565b809150509250929050565b60006020828403121561380557600080fd5b8135612f0981613795565b6000806040838503121561382357600080fd5b823561382e81613795565b946020939093013593505050565b6000806040838503121561384f57600080fd5b8235915060208301356137e881613795565b634e487b7160e01b600052604160045260246000fd5b6040805190810167ffffffffffffffff8111828210171561389a5761389a613861565b60405290565b6040516101a0810167ffffffffffffffff8111828210171561389a5761389a613861565b60405160c0810167ffffffffffffffff8111828210171561389a5761389a613861565b604051601f8201601f1916810167ffffffffffffffff8111828210171561391057613910613861565b604052919050565b600067ffffffffffffffff82111561393257613932613861565b50601f01601f191660200190565b600082601f83011261395157600080fd5b813561396461395f82613918565b6138e7565b81815284602083860101111561397957600080fd5b816020850160208301376000918101602001919091529392505050565b6000604082840312156139a857600080fd5b6139b0613877565b905081358152602082013567ffffffffffffffff8111156139d057600080fd5b6139dc84828501613940565b60208301525092915050565b8015158114610d0a57600080fd5b80356137b5816139e8565b600060208284031215613a1357600080fd5b813567ffffffffffffffff80821115613a2b57600080fd5b908301906101a08286031215613a4057600080fd5b613a486138a0565b613a51836137aa565b8152613a5f602084016137aa565b6020820152604083013560408201526060830135606082015260808301356080820152613a8e60a084016137aa565b60a0820152613a9f60c084016137aa565b60c082015260e083013582811115613ab657600080fd5b613ac287828601613996565b60e083015250610100613ad68185016137aa565b908201526101208381013583811115613aee57600080fd5b613afa88828701613940565b828401525050610140613b0e8185016139f6565b908201526101608381013583811115613b2657600080fd5b613b3288828701613940565b8284015250506101809150613b488284016137aa565b91810191909152949350505050565b60005b83811015613b72578181015183820152602001613b5a565b50506000910152565b60008151808452613b93816020860160208601613b57565b601f01601f19169290920160200192915050565b602081526000612f096020830184613b7b565b8035600381106137b557600080fd5b60048110610d0a57600080fd5b80356137b581613bc9565b600060208284031215613bf357600080fd5b6040516020810181811067ffffffffffffffff82111715613c1657613c16613861565b6040529135825250919050565b6000610100808385031215613c3757600080fd5b6040519081019067ffffffffffffffff82118183101715613c5a57613c5a613861565b8160405280925083359150613c6e82613795565b81815260208401356020820152604084013560408201526060840135606082015260808401356080820152613ca560a08501613bba565b60a0820152613cb660c08501613bd6565b60c0820152613cc88560e08601613be1565b60e0820152505092915050565b60008060006101408486031215613ceb57600080fd5b8335613cf681613795565b9250613d058560208601613c23565b915061012084013567ffffffffffffffff811115613d2257600080fd5b613d2e86828701613996565b9150509250925092565b6000806000806101608587031215613d4f57600080fd5b8435613d5a81613795565b93506020850135613d6a81613795565b9250613d798660408701613c23565b915061014085013567ffffffffffffffff811115613d9657600080fd5b613da287828801613996565b91505092959194509250565b634e487b7160e01b600052601160045260246000fd5b808202811582820484141761090257610902613dae565b634e487b7160e01b600052602160045260246000fd5b600060208284031215613e0357600080fd5b8151612f0981613bc9565b600060208284031215613e2057600080fd5b5051919050565b600082613e4457634e487b7160e01b600052601260045260246000fd5b500490565b8082018082111561090257610902613dae565b600060208284031215613e6e57600080fd5b8151612f0981613795565b634e487b7160e01b600052603260045260246000fd5b600060018201613ea157613ea1613dae565b5060010190565b8181038181111561090257610902613dae565b634e487b7160e01b600052603160045260246000fd5b600060208284031215613ee357600080fd5b8151612f09816139e8565b60006020808385031215613f0157600080fd5b825167ffffffffffffffff80821115613f1957600080fd5b9084019060c08287031215613f2d57600080fd5b613f356138c4565b8251815283830151613f4681613795565b818501526040830151613f5881613795565b6040820152606083015182811115613f6f57600080fd5b830160408189031215613f8157600080fd5b613f89613877565b815181528582015184811115613f9e57600080fd5b82019350601f84018913613fb157600080fd5b83519150613fc161395f83613918565b8281528987848701011115613fd557600080fd5b613fe483888301898801613b57565b95810195909552506060810193909352506080818101519083015260a090810151908201529392505050565b600181811c9082168061402457607f821691505b60208210810361404457634e487b7160e01b600052602260045260246000fd5b50919050565b601f821115610f7557600081815260208120601f850160051c810160208610156140715750805b601f850160051c820191505b818110156140905782815560010161407d565b505050505050565b815167ffffffffffffffff8111156140b2576140b2613861565b6140c6816140c08454614010565b8461404a565b602080601f8311600181146140fb57600084156140e35750858301515b600019600386901b1c1916600185901b178555614090565b600085815260208120601f198616915b8281101561412a5788860151825594840194600190910190840161410b565b50858210156141485787850151600019600388901b60f8161c191681555b5050505050600190811b01905550565b6000602080838503121561416b57600080fd5b825167ffffffffffffffff8082111561418357600080fd5b818501915085601f83011261419757600080fd5b8151818111156141a9576141a9613861565b8060051b91506141ba8483016138e7565b81815291830184019184810190888411156141d457600080fd5b938501935b838510156141fe57845192506141ee83613795565b82825293850193908501906141d9565b98975050505050505050565b6000815461421781614010565b808552602060018381168015614234576001811461424e5761427c565b60ff1985168884015283151560051b88018301955061427c565b866000528260002060005b858110156142745781548a8201860152908301908401614259565b890184019650505b505050505092915050565b8051825260006020820151604060208501526130d96040850182613b7b565b600081518084526020808501945080840160005b838110156142df5781516001600160a01b0316875295820195908201906001016142ba565b509495945050505050565b85815260a06020820152600061430360a083018761420a565b82810360408401526143158187614287565b90506001600160a01b038516606084015282810360808401526141fe81856142a6565b838152606060208201526000614351606083018561420a565b82810360408401526143638185614287565b9695505050505050565b6004811061437d5761437d613ddb565b9052565b6000610100820190506001600160a01b0383511682526020830151602083015260408301516040830152606083015160608301526080830151608083015260a0830151600381106143d4576143d4613ddb565b8060a08401525060c08301516143ed60c084018261436d565b5060e083015161440060e0840182519052565b5092915050565b87815260006001600160a01b03808916602084015260e0604084015261443060e0840189613b7b565b818816606085015286608085015283810360a08501526144508187614287565b91505082810360c084015261446581856142a6565b9a9950505050505050505050565b85815260006001600160a01b038087166020840152808616604084015280851660608401525060a0608083015261331060a0830184614287565b6040815260006144c06040830185613b7b565b90506001600160a01b03831660208301529392505050565b6040815260006144eb6040830185613b7b565b90508260208301529392505050565b7f416363657373436f6e74726f6c3a206163636f756e7420000000000000000000815260008351614532816017850160208801613b57565b7f206973206d697373696e6720726f6c6520000000000000000000000000000000601791840191820152835161456f816028840160208801613b57565b01602801949350505050565b60008161458a5761458a613dae565b506000190190565b600082516145a4818460208701613b57565b919091019291505056fe67617264656e73466163746f72792e67657447617264656e7346656552656365697665722829a264697066735822122001ef0ce485a617bdd63b0e4ebc6b00d0aea0f611aaab7e75c3bda9dae70e58d264736f6c63430008130033"
        },
        {
          "transactionType": "CREATE2",
          "address": "0x75d86d15d41c1b1cb5c00cc671914394c9294f9c",
          "initCode": "0x60c060405234801561001057600080fd5b5060405161089138038061089183398101604081905261002f91610043565b6001600160a01b031660805260a052610080565b6000806040838503121561005657600080fd5b825160208401519092506001600160a01b038116811461007557600080fd5b809150509250929050565b60805160a0516107df6100b26000396000818160c7015261025201526000818161014d015261028101526107df6000f3fe6080604052600436106100745760003560e01c80637b1039991161004e5780637b1039991461013b578063b61d27f614610187578063bc197c81146101b4578063f23a6e61146101e057600080fd5b806301ffc9a71461008057806308386eba146100b5578063150b7a02146100f757600080fd5b3661007b57005b600080fd5b34801561008c57600080fd5b506100a061009b3660046103c2565b61020c565b60405190151581526020015b60405180910390f35b3480156100c157600080fd5b506100e97f000000000000000000000000000000000000000000000000000000000000000081565b6040519081526020016100ac565b34801561010357600080fd5b506101226101123660046104c6565b630a85bd0160e11b949350505050565b6040516001600160e01b031990911681526020016100ac565b34801561014757600080fd5b5061016f7f000000000000000000000000000000000000000000000000000000000000000081565b6040516001600160a01b0390911681526020016100ac565b34801561019357600080fd5b506101a76101a236600461052e565b610243565b6040516100ac91906105a9565b3480156101c057600080fd5b506101226101cf36600461065c565b63bc197c8160e01b95945050505050565b3480156101ec57600080fd5b506101226101fb366004610706565b63f23a6e6160e01b95945050505050565b60006001600160e01b03198216630271189760e51b148061023d57506301ffc9a760e01b6001600160e01b03198316145b92915050565b604051630e6e1ae360e21b81527f000000000000000000000000000000000000000000000000000000000000000060048201523360248201526060907f00000000000000000000000000000000000000000000000000000000000000006001600160a01b0316906339b86b8c90604401602060405180830381865afa1580156102d0573d6000803e3d6000fd5b505050506040513d601f19601f820116820180604052508101906102f4919061076b565b6103115760405163075fd2b160e01b815260040160405180910390fd5b6001600160a01b038416610338576040516384aed38d60e01b815260040160405180910390fd5b600080856001600160a01b03168585604051610354919061078d565b60006040518083038185875af1925050503d8060008114610391576040519150601f19603f3d011682016040523d82523d6000602084013e610396565b606091505b5091509150816103b9576040516384aed38d60e01b815260040160405180910390fd5b95945050505050565b6000602082840312156103d457600080fd5b81356001600160e01b0319811681146103ec57600080fd5b9392505050565b80356001600160a01b038116811461040a57600080fd5b919050565b634e487b7160e01b600052604160045260246000fd5b604051601f8201601f1916810167ffffffffffffffff8111828210171561044e5761044e61040f565b604052919050565b600082601f83011261046757600080fd5b813567ffffffffffffffff8111156104815761048161040f565b610494601f8201601f1916602001610425565b8181528460208386010111156104a957600080fd5b816020850160208301376000918101602001919091529392505050565b600080600080608085870312156104dc57600080fd5b6104e5856103f3565b93506104f3602086016103f3565b925060408501359150606085013567ffffffffffffffff81111561051657600080fd5b61052287828801610456565b91505092959194509250565b60008060006060848603121561054357600080fd5b61054c846103f3565b925060208401359150604084013567ffffffffffffffff81111561056f57600080fd5b61057b86828701610456565b9150509250925092565b60005b838110156105a0578181015183820152602001610588565b50506000910152565b60208152600082518060208401526105c8816040850160208701610585565b601f01601f19169190910160400192915050565b600082601f8301126105ed57600080fd5b8135602067ffffffffffffffff8211156106095761060961040f565b8160051b610618828201610425565b928352848101820192828101908785111561063257600080fd5b83870192505b8483101561065157823582529183019190830190610638565b979650505050505050565b600080600080600060a0868803121561067457600080fd5b61067d866103f3565b945061068b602087016103f3565b9350604086013567ffffffffffffffff808211156106a857600080fd5b6106b489838a016105dc565b945060608801359150808211156106ca57600080fd5b6106d689838a016105dc565b935060808801359150808211156106ec57600080fd5b506106f988828901610456565b9150509295509295909350565b600080600080600060a0868803121561071e57600080fd5b610727866103f3565b9450610735602087016103f3565b93506040860135925060608601359150608086013567ffffffffffffffff81111561075f57600080fd5b6106f988828901610456565b60006020828403121561077d57600080fd5b815180151581146103ec57600080fd5b6000825161079f818460208701610585565b919091019291505056fea26469706673582212208790efe3c33e05ee799ec2945fb98b96a35c1e0c4f0d3d4528b27453ac3a2d1464736f6c63430008130033463a14624340b095b18a7162cd4dee36304815b6a0353db68298e82bd02248e70000000000000000000000004aacca72145e1df2aec137e1f3c5e3d75db8b5f3"
        }
      ],
      "isFixedGasLimit": false
    },
    {
      "hash": "0x46ced5039a1537532a5ab07f5f3e365e0f7b76bcbcb42771d09d8f1cda948a5d",
      "transactionType": "CALL",
      "contractName": "RegistryCommunity",
      "contractAddress": "0xa65b4dfd31378b451e75107854fe2315993ed905",
      "function": "createPool(address,(address,uint256,uint256,uint256,uint256,uint8,uint8,(uint256)),(uint256,string))",
      "arguments": [
        "0xa8ea1B06621CE640762ccb12E9bcAb03723B76c7",
        "(0xa65b4DfD31378B451e75107854Fe2315993ed905, 9965402, 2000000, 10000, 0, 1, 0, (2000000000000000000))",
        "(1, \"QmX5jPva6koRnn88s7ZcPnNXKg1UzmYaZu9h15d8kzH1CN\")"
      ],
      "transaction": {
        "from": "0x2f9e113434aebdd70bb99cb6505e1f726c578d6d",
        "to": "0xa65b4dfd31378b451e75107854fe2315993ed905",
        "gas": "0xefc31",
        "value": "0x0",
        "input": "0xcac53214000000000000000000000000a8ea1b06621ce640762ccb12e9bcab03723b76c7000000000000000000000000a65b4dfd31378b451e75107854fe2315993ed9050000000000000000000000000000000000000000000000000000000000980f5a00000000000000000000000000000000000000000000000000000000001e848000000000000000000000000000000000000000000000000000000000000027100000000000000000000000000000000000000000000000000000000000000000000000000000000000000000000000000000000000000000000000000000000100000000000000000000000000000000000000000000000000000000000000000000000000000000000000000000000000000000000000001bc16d674ec80000000000000000000000000000000000000000000000000000000000000000014000000000000000000000000000000000000000000000000000000000000000010000000000000000000000000000000000000000000000000000000000000040000000000000000000000000000000000000000000000000000000000000002e516d58356a507661366b6f526e6e383873375a63506e4e584b6731557a6d59615a753968313564386b7a4831434e000000000000000000000000000000000000",
        "nonce": "0x149",
        "chainId": "0xaa36a7"
      },
      "additionalContracts": [
        {
          "transactionType": "CREATE2",
          "address": "0xe666e787277a308b26d9971d04e4ccdaf8c8f6cd",
          "initCode": "0x3d602d80600a3d3981f3363d3d373d3d3d363d73069e096f9ea0d170600edfc6b53eec20b015d75d5af43d82803e903d91602b57fd5bf3"
        }
      ],
      "isFixedGasLimit": false
    },
    {
      "hash": "0x8ad53bb8073dda2c1624fb8fc1d6b73757eaec2eef6ede6cdd426d4b61f00969",
      "transactionType": "CALL",
      "contractName": null,
      "contractAddress": "0xe666e787277a308b26d9971d04e4ccdaf8c8f6cd",
      "function": "setDecay(uint256)",
      "arguments": [
        "9965402"
      ],
      "transaction": {
        "from": "0x2f9e113434aebdd70bb99cb6505e1f726c578d6d",
        "to": "0xe666e787277a308b26d9971d04e4ccdaf8c8f6cd",
        "gas": "0xf1ac",
        "value": "0x0",
        "input": "0x69fa25c40000000000000000000000000000000000000000000000000000000000980f5a",
        "nonce": "0x14a",
        "chainId": "0xaa36a7"
      },
      "additionalContracts": [],
      "isFixedGasLimit": false
    },
    {
      "hash": "0xa90a5cac3c013e750e6c8b48d2e1cb92dca919be5b3455477b0960090e7a48c7",
      "transactionType": "CALL",
      "contractName": null,
      "contractAddress": "0xe666e787277a308b26d9971d04e4ccdaf8c8f6cd",
      "function": "setMaxRatio(uint256)",
      "arguments": [
        "1000000"
      ],
      "transaction": {
        "from": "0x2f9e113434aebdd70bb99cb6505e1f726c578d6d",
        "to": "0xe666e787277a308b26d9971d04e4ccdaf8c8f6cd",
        "gas": "0x1006f",
        "value": "0x0",
        "input": "0x11f22ae300000000000000000000000000000000000000000000000000000000000f4240",
        "nonce": "0x14b",
        "chainId": "0xaa36a7"
      },
      "additionalContracts": [],
      "isFixedGasLimit": false
    },
    {
      "hash": "0x5f50a84f8a9d942b88e28987fdb08f0abcf49e0764c5bc90a4db6689b0c3585f",
      "transactionType": "CALL",
      "contractName": null,
      "contractAddress": "0xe666e787277a308b26d9971d04e4ccdaf8c8f6cd",
      "function": "setWeight(uint256)",
      "arguments": [
        "5000"
      ],
      "transaction": {
        "from": "0x2f9e113434aebdd70bb99cb6505e1f726c578d6d",
        "to": "0xe666e787277a308b26d9971d04e4ccdaf8c8f6cd",
        "gas": "0x10fcf",
        "value": "0x0",
        "input": "0xfc1711f20000000000000000000000000000000000000000000000000000000000001388",
        "nonce": "0x14c",
        "chainId": "0xaa36a7"
      },
      "additionalContracts": [],
      "isFixedGasLimit": false
    },
    {
      "hash": "0xc4f3e7bad41d8bbf4211f97244682406e9d77e8c16c9c4b38f784ca557f127ea",
      "transactionType": "CALL",
      "contractName": "RegistryCommunity",
      "contractAddress": "0xa65b4dfd31378b451e75107854fe2315993ed905",
      "function": "createPool(address,(address,uint256,uint256,uint256,uint256,uint8,uint8,(uint256)),(uint256,string))",
      "arguments": [
        "0x0000000000000000000000000000000000000000",
        "(0xa65b4DfD31378B451e75107854Fe2315993ed905, 9965402, 2000000, 10000, 0, 0, 2, (2000000000000000000))",
        "(1, \"QmX5jPva6koRnn88s7ZcPnNXKg1UzmYaZu9h15d8kzH1CN\")"
      ],
      "transaction": {
        "from": "0x2f9e113434aebdd70bb99cb6505e1f726c578d6d",
        "to": "0xa65b4dfd31378b451e75107854fe2315993ed905",
        "gas": "0xe991a",
        "value": "0x0",
        "input": "0xcac532140000000000000000000000000000000000000000000000000000000000000000000000000000000000000000a65b4dfd31378b451e75107854fe2315993ed9050000000000000000000000000000000000000000000000000000000000980f5a00000000000000000000000000000000000000000000000000000000001e848000000000000000000000000000000000000000000000000000000000000027100000000000000000000000000000000000000000000000000000000000000000000000000000000000000000000000000000000000000000000000000000000000000000000000000000000000000000000000000000000000000000000000020000000000000000000000000000000000000000000000001bc16d674ec80000000000000000000000000000000000000000000000000000000000000000014000000000000000000000000000000000000000000000000000000000000000010000000000000000000000000000000000000000000000000000000000000040000000000000000000000000000000000000000000000000000000000000002e516d58356a507661366b6f526e6e383873375a63506e4e584b6731557a6d59615a753968313564386b7a4831434e000000000000000000000000000000000000",
        "nonce": "0x14d",
        "chainId": "0xaa36a7"
      },
      "additionalContracts": [
        {
          "transactionType": "CREATE2",
          "address": "0xe26a90d9fad6e67f3a1ba8497d9724b2bf8f5e59",
          "initCode": "0x3d602d80600a3d3981f3363d3d373d3d3d363d73069e096f9ea0d170600edfc6b53eec20b015d75d5af43d82803e903d91602b57fd5bf3"
        }
      ],
      "isFixedGasLimit": false
    },
    {
      "hash": "0x4a516c3445d1076a1e4880d5ddb71a2e860de45a656c87977e84b9748c8e5083",
      "transactionType": "CALL",
      "contractName": null,
      "contractAddress": "0xe26a90d9fad6e67f3a1ba8497d9724b2bf8f5e59",
      "function": "setDecay(uint256)",
      "arguments": [
        "9965402"
      ],
      "transaction": {
        "from": "0x2f9e113434aebdd70bb99cb6505e1f726c578d6d",
        "to": "0xe26a90d9fad6e67f3a1ba8497d9724b2bf8f5e59",
        "gas": "0xf1ac",
        "value": "0x0",
        "input": "0x69fa25c40000000000000000000000000000000000000000000000000000000000980f5a",
        "nonce": "0x14e",
        "chainId": "0xaa36a7"
      },
      "additionalContracts": [],
      "isFixedGasLimit": false
    },
    {
      "hash": "0xc95198e76f8e69795a0aa3805106ab1ef9f1c356a4e50f744506b6d35abfff77",
      "transactionType": "CALL",
      "contractName": null,
      "contractAddress": "0xe26a90d9fad6e67f3a1ba8497d9724b2bf8f5e59",
      "function": "setMaxRatio(uint256)",
      "arguments": [
        "1000000"
      ],
      "transaction": {
        "from": "0x2f9e113434aebdd70bb99cb6505e1f726c578d6d",
        "to": "0xe26a90d9fad6e67f3a1ba8497d9724b2bf8f5e59",
        "gas": "0x1006f",
        "value": "0x0",
        "input": "0x11f22ae300000000000000000000000000000000000000000000000000000000000f4240",
        "nonce": "0x14f",
        "chainId": "0xaa36a7"
      },
      "additionalContracts": [],
      "isFixedGasLimit": false
    },
    {
      "hash": "0x0a8f9c9c628e4914655f5351643e1eeed2fc067da358dee8f566a23b9ede707d",
      "transactionType": "CALL",
      "contractName": null,
      "contractAddress": "0xe26a90d9fad6e67f3a1ba8497d9724b2bf8f5e59",
      "function": "setWeight(uint256)",
      "arguments": [
        "5000"
      ],
      "transaction": {
        "from": "0x2f9e113434aebdd70bb99cb6505e1f726c578d6d",
        "to": "0xe26a90d9fad6e67f3a1ba8497d9724b2bf8f5e59",
        "gas": "0x10fcf",
        "value": "0x0",
        "input": "0xfc1711f20000000000000000000000000000000000000000000000000000000000001388",
        "nonce": "0x150",
        "chainId": "0xaa36a7"
      },
      "additionalContracts": [],
      "isFixedGasLimit": false
    },
    {
      "hash": "0x251ef4b5ce43bb42bbc800a0b51b85318efd9ae5108c5025848135d8b10ab99d",
      "transactionType": "CALL",
      "contractName": null,
      "contractAddress": "0xc6eaf449f79b081300f5317122b2dff3f039ad0b",
      "function": "execTransaction(address,uint256,bytes,uint8,uint256,uint256,uint256,address,address,bytes)",
      "arguments": [
        "0xa65b4DfD31378B451e75107854Fe2315993ed905",
        "0",
        "0x223e5479000000000000000000000000e666e787277a308b26d9971d04e4ccdaf8c8f6cd",
        "0",
        "0",
        "0",
        "0",
        "0x0000000000000000000000000000000000000000",
        "0x0000000000000000000000000000000000000000",
        "0xf736da1e9a7c50cc33cb7a8c9e07e89f5278e83603397d87a95b21e42a3926db709b43e4af1d89b090909098d609ac4f792adfd0bfca485083f61974697b1a211b"
      ],
      "transaction": {
        "from": "0x2f9e113434aebdd70bb99cb6505e1f726c578d6d",
        "to": "0xc6eaf449f79b081300f5317122b2dff3f039ad0b",
        "gas": "0x1d3d7",
        "value": "0x0",
        "input": "0x6a761202000000000000000000000000a65b4dfd31378b451e75107854fe2315993ed9050000000000000000000000000000000000000000000000000000000000000000000000000000000000000000000000000000000000000000000000000000014000000000000000000000000000000000000000000000000000000000000000000000000000000000000000000000000000000000000000000000000000000000000000000000000000000000000000000000000000000000000000000000000000000000000000000000000000000000000000000000000000000000000000000000000000000000000000000000000000000000000000000000000000000000000000000000000000000000000000000000000000000000000000000000000000000000000000000000000000000000000000000000000000000000000001a00000000000000000000000000000000000000000000000000000000000000024223e5479000000000000000000000000e666e787277a308b26d9971d04e4ccdaf8c8f6cd000000000000000000000000000000000000000000000000000000000000000000000000000000000000000000000000000000000000000000000041f736da1e9a7c50cc33cb7a8c9e07e89f5278e83603397d87a95b21e42a3926db709b43e4af1d89b090909098d609ac4f792adfd0bfca485083f61974697b1a211b00000000000000000000000000000000000000000000000000000000000000",
        "nonce": "0x151",
        "chainId": "0xaa36a7"
      },
      "additionalContracts": [],
      "isFixedGasLimit": false
    },
    {
      "hash": "0x28e352ab3993d251d4d50fda556c45e31cd7f23bf2b846b45a9865f262843a24",
      "transactionType": "CALL",
      "contractName": null,
      "contractAddress": "0xc6eaf449f79b081300f5317122b2dff3f039ad0b",
      "function": "execTransaction(address,uint256,bytes,uint8,uint256,uint256,uint256,address,address,bytes)",
      "arguments": [
        "0xa65b4DfD31378B451e75107854Fe2315993ed905",
        "0",
        "0x223e5479000000000000000000000000e26a90d9fad6e67f3a1ba8497d9724b2bf8f5e59",
        "0",
        "0",
        "0",
        "0",
        "0x0000000000000000000000000000000000000000",
        "0x0000000000000000000000000000000000000000",
        "0x757f37f43b2af707d5beef946b4eb9df09d7cb8821a53d5b720fb518d5d8429d1a54ece84e25f40fc097b71075aec5efd5f1b53a9ddc3f89d416564eeecf52c31b"
      ],
      "transaction": {
        "from": "0x2f9e113434aebdd70bb99cb6505e1f726c578d6d",
        "to": "0xc6eaf449f79b081300f5317122b2dff3f039ad0b",
        "gas": "0x1d3d7",
        "value": "0x0",
        "input": "0x6a761202000000000000000000000000a65b4dfd31378b451e75107854fe2315993ed9050000000000000000000000000000000000000000000000000000000000000000000000000000000000000000000000000000000000000000000000000000014000000000000000000000000000000000000000000000000000000000000000000000000000000000000000000000000000000000000000000000000000000000000000000000000000000000000000000000000000000000000000000000000000000000000000000000000000000000000000000000000000000000000000000000000000000000000000000000000000000000000000000000000000000000000000000000000000000000000000000000000000000000000000000000000000000000000000000000000000000000000000000000000000000000000001a00000000000000000000000000000000000000000000000000000000000000024223e5479000000000000000000000000e26a90d9fad6e67f3a1ba8497d9724b2bf8f5e59000000000000000000000000000000000000000000000000000000000000000000000000000000000000000000000000000000000000000000000041757f37f43b2af707d5beef946b4eb9df09d7cb8821a53d5b720fb518d5d8429d1a54ece84e25f40fc097b71075aec5efd5f1b53a9ddc3f89d416564eeecf52c31b00000000000000000000000000000000000000000000000000000000000000",
        "nonce": "0x152",
        "chainId": "0xaa36a7"
      },
      "additionalContracts": [],
      "isFixedGasLimit": false
    },
    {
      "hash": "0xe211fb49231f5a0b21fbeb2859d714c69719c3a98792c6c5e2b7344bba9c559f",
      "transactionType": "CALL",
      "contractName": "GV2ERC20",
      "contractAddress": "0xa8ea1b06621ce640762ccb12e9bcab03723b76c7",
      "function": "mint(address,uint256)",
      "arguments": [
        "0x2F9e113434aeBDd70bB99cB6505e1F726C578D6d",
        "10000000000000000000000"
      ],
      "transaction": {
        "from": "0x2f9e113434aebdd70bb99cb6505e1f726c578d6d",
        "to": "0xa8ea1b06621ce640762ccb12e9bcab03723b76c7",
        "gas": "0xb7a5",
        "value": "0x0",
        "input": "0x40c10f190000000000000000000000002f9e113434aebdd70bb99cb6505e1f726c578d6d00000000000000000000000000000000000000000000021e19e0c9bab2400000",
        "nonce": "0x153",
        "chainId": "0xaa36a7"
      },
      "additionalContracts": [],
      "isFixedGasLimit": false
    },
    {
      "hash": "0x2de17451abb2a51ca83a0654278302c2ad691a219361a4d045ba0f101fcf2784",
      "transactionType": "CALL",
      "contractName": "GV2ERC20",
      "contractAddress": "0xa8ea1b06621ce640762ccb12e9bcab03723b76c7",
      "function": "approve(address,uint256)",
      "arguments": [
        "0xa65b4DfD31378B451e75107854Fe2315993ed905",
        "115792089237316195423570985008687907853269984665640564039457584007913129639935"
      ],
      "transaction": {
        "from": "0x2f9e113434aebdd70bb99cb6505e1f726c578d6d",
        "to": "0xa8ea1b06621ce640762ccb12e9bcab03723b76c7",
        "gas": "0x108c6",
        "value": "0x0",
        "input": "0x095ea7b3000000000000000000000000a65b4dfd31378b451e75107854fe2315993ed905ffffffffffffffffffffffffffffffffffffffffffffffffffffffffffffffff",
        "nonce": "0x154",
        "chainId": "0xaa36a7"
      },
      "additionalContracts": [],
      "isFixedGasLimit": false
    },
    {
      "hash": "0xad5cf435de59c4e06ddbf47d87d1ec5288d11735207463a9ba0e0eeb41598651",
      "transactionType": "CALL",
      "contractName": "RegistryCommunity",
      "contractAddress": "0xa65b4dfd31378b451e75107854fe2315993ed905",
      "function": "stakeAndRegisterMember()",
      "arguments": [],
      "transaction": {
        "from": "0x2f9e113434aebdd70bb99cb6505e1f726c578d6d",
        "to": "0xa65b4dfd31378b451e75107854fe2315993ed905",
        "gas": "0x2bc3f",
        "value": "0x0",
        "input": "0x3517aa7d",
        "nonce": "0x155",
        "chainId": "0xaa36a7"
      },
      "additionalContracts": [],
      "isFixedGasLimit": false
    },
    {
      "hash": "0xfe787fc5837a30f34c7ef068d5af5360ba7a0f2c42239793612d3fc90c1d2691",
      "transactionType": "CALL",
      "contractName": null,
      "contractAddress": "0xe666e787277a308b26d9971d04e4ccdaf8c8f6cd",
      "function": "activatePoints()",
      "arguments": [],
      "transaction": {
        "from": "0x2f9e113434aebdd70bb99cb6505e1f726c578d6d",
        "to": "0xe666e787277a308b26d9971d04e4ccdaf8c8f6cd",
        "gas": "0x35c84",
        "value": "0x0",
        "input": "0x814516ad",
        "nonce": "0x156",
        "chainId": "0xaa36a7"
      },
      "additionalContracts": [],
      "isFixedGasLimit": false
    },
    {
      "hash": "0x0bd09ec1f05b9d872560dfc37c7e0066e9960108126345fdaa51d9b68e11932e",
      "transactionType": "CALL",
      "contractName": null,
      "contractAddress": "0xe26a90d9fad6e67f3a1ba8497d9724b2bf8f5e59",
      "function": "activatePoints()",
      "arguments": [],
      "transaction": {
        "from": "0x2f9e113434aebdd70bb99cb6505e1f726c578d6d",
        "to": "0xe26a90d9fad6e67f3a1ba8497d9724b2bf8f5e59",
        "gas": "0x317eb",
        "value": "0x0",
        "input": "0x814516ad",
        "nonce": "0x157",
        "chainId": "0xaa36a7"
      },
      "additionalContracts": [],
      "isFixedGasLimit": false
    },
    {
      "hash": "0x59b25599a5c19d36c1d385d7e1577528c92527728513a54c1569c021379fad02",
      "transactionType": "CALL",
      "contractName": "GV2ERC20",
      "contractAddress": "0xa8ea1b06621ce640762ccb12e9bcab03723b76c7",
      "function": "approve(address,uint256)",
      "arguments": [
        "0x1133eA7Af70876e64665ecD07C0A0476d09465a1",
        "115792089237316195423570985008687907853269984665640564039457584007913129639935"
      ],
      "transaction": {
        "from": "0x2f9e113434aebdd70bb99cb6505e1f726c578d6d",
        "to": "0xa8ea1b06621ce640762ccb12e9bcab03723b76c7",
        "gas": "0x8eb0",
        "value": "0x0",
        "input": "0x095ea7b30000000000000000000000001133ea7af70876e64665ecd07c0a0476d09465a1ffffffffffffffffffffffffffffffffffffffffffffffffffffffffffffffff",
        "nonce": "0x158",
        "chainId": "0xaa36a7"
      },
      "additionalContracts": [],
      "isFixedGasLimit": false
    },
    {
      "hash": "0x250a080600f8f73dfb583319c7e861dfa87a0ef0ae21a48177ccfc86b9d2c503",
      "transactionType": "CALL",
      "contractName": null,
      "contractAddress": "0x1133ea7af70876e64665ecd07c0a0476d09465a1",
      "function": "fundPool(uint256,uint256)",
      "arguments": [
        "200",
        "1000000000000000000000"
      ],
      "transaction": {
        "from": "0x2f9e113434aebdd70bb99cb6505e1f726c578d6d",
        "to": "0x1133ea7af70876e64665ecd07c0a0476d09465a1",
        "gas": "0x2b6a8",
        "value": "0x0",
        "input": "0x5acd6fac00000000000000000000000000000000000000000000000000000000000000c800000000000000000000000000000000000000000000003635c9adc5dea00000",
        "nonce": "0x159",
        "chainId": "0xaa36a7"
      },
      "additionalContracts": [],
      "isFixedGasLimit": false
    },
    {
      "hash": "0xb81b49983a49313fbda18998d2cdd490fc52f2e556618a37189829ac96307f9b",
      "transactionType": "CALL",
      "contractName": null,
      "contractAddress": "0x1133ea7af70876e64665ecd07c0a0476d09465a1",
      "function": "registerRecipient(uint256,bytes)",
      "arguments": [
        "200",
        "0x000000000000000000000000000000000000000000000000000000000000002000000000000000000000000000000000000000000000000000000000000000c80000000000000000000000002f9e113434aebdd70bb99cb6505e1f726c578d6d000000000000000000000000000000000000000000000002b5e3af16b1880000000000000000000000000000a8ea1b06621ce640762ccb12e9bcab03723b76c700000000000000000000000000000000000000000000000000000000000000a000000000000000000000000000000000000000000000000000000000000000010000000000000000000000000000000000000000000000000000000000000040000000000000000000000000000000000000000000000000000000000000002e516d58356a507661366b6f526e6e383873375a63506e4e584b6731557a6d59615a753968313564386b7a4831434e000000000000000000000000000000000000"
      ],
      "transaction": {
        "from": "0x2f9e113434aebdd70bb99cb6505e1f726c578d6d",
        "to": "0x1133ea7af70876e64665ecd07c0a0476d09465a1",
        "gas": "0x752e7",
        "value": "0x0",
        "input": "0x075c0e9c00000000000000000000000000000000000000000000000000000000000000c800000000000000000000000000000000000000000000000000000000000000400000000000000000000000000000000000000000000000000000000000000160000000000000000000000000000000000000000000000000000000000000002000000000000000000000000000000000000000000000000000000000000000c80000000000000000000000002f9e113434aebdd70bb99cb6505e1f726c578d6d000000000000000000000000000000000000000000000002b5e3af16b1880000000000000000000000000000a8ea1b06621ce640762ccb12e9bcab03723b76c700000000000000000000000000000000000000000000000000000000000000a000000000000000000000000000000000000000000000000000000000000000010000000000000000000000000000000000000000000000000000000000000040000000000000000000000000000000000000000000000000000000000000002e516d58356a507661366b6f526e6e383873375a63506e4e584b6731557a6d59615a753968313564386b7a4831434e000000000000000000000000000000000000",
        "nonce": "0x15a",
        "chainId": "0xaa36a7"
      },
      "additionalContracts": [],
      "isFixedGasLimit": false
    },
    {
      "hash": "0x107eb7f6e4ff982031e2fc3684388c37b8783f989c0b28ec25444f6b4f9ec7c9",
      "transactionType": "CALL",
      "contractName": null,
      "contractAddress": "0x1133ea7af70876e64665ecd07c0a0476d09465a1",
      "function": "registerRecipient(uint256,bytes)",
      "arguments": [
        "200",
        "0x000000000000000000000000000000000000000000000000000000000000002000000000000000000000000000000000000000000000000000000000000000c80000000000000000000000002f9e113434aebdd70bb99cb6505e1f726c578d6d0000000000000000000000000000000000000000000000015af1d78b58c40000000000000000000000000000a8ea1b06621ce640762ccb12e9bcab03723b76c700000000000000000000000000000000000000000000000000000000000000a000000000000000000000000000000000000000000000000000000000000000010000000000000000000000000000000000000000000000000000000000000040000000000000000000000000000000000000000000000000000000000000002e516d58356a507661366b6f526e6e383873375a63506e4e584b6731557a6d59615a753968313564386b7a4831434e000000000000000000000000000000000000"
      ],
      "transaction": {
        "from": "0x2f9e113434aebdd70bb99cb6505e1f726c578d6d",
        "to": "0x1133ea7af70876e64665ecd07c0a0476d09465a1",
        "gas": "0x75f80",
        "value": "0x0",
        "input": "0x075c0e9c00000000000000000000000000000000000000000000000000000000000000c800000000000000000000000000000000000000000000000000000000000000400000000000000000000000000000000000000000000000000000000000000160000000000000000000000000000000000000000000000000000000000000002000000000000000000000000000000000000000000000000000000000000000c80000000000000000000000002f9e113434aebdd70bb99cb6505e1f726c578d6d0000000000000000000000000000000000000000000000015af1d78b58c40000000000000000000000000000a8ea1b06621ce640762ccb12e9bcab03723b76c700000000000000000000000000000000000000000000000000000000000000a000000000000000000000000000000000000000000000000000000000000000010000000000000000000000000000000000000000000000000000000000000040000000000000000000000000000000000000000000000000000000000000002e516d58356a507661366b6f526e6e383873375a63506e4e584b6731557a6d59615a753968313564386b7a4831434e000000000000000000000000000000000000",
        "nonce": "0x15b",
        "chainId": "0xaa36a7"
      },
      "additionalContracts": [],
      "isFixedGasLimit": false
    },
    {
      "hash": "0x2c3c430e1423572710aa53911f0846da1ebe95eaa5c76dd7cb03497442ea7dbe",
      "transactionType": "CALL",
      "contractName": null,
      "contractAddress": "0x1133ea7af70876e64665ecd07c0a0476d09465a1",
      "function": "registerRecipient(uint256,bytes)",
      "arguments": [
        "200",
        "0x000000000000000000000000000000000000000000000000000000000000002000000000000000000000000000000000000000000000000000000000000000c80000000000000000000000002f9e113434aebdd70bb99cb6505e1f726c578d6d0000000000000000000000000000000000000000000000008ac7230489e80000000000000000000000000000a8ea1b06621ce640762ccb12e9bcab03723b76c700000000000000000000000000000000000000000000000000000000000000a000000000000000000000000000000000000000000000000000000000000000010000000000000000000000000000000000000000000000000000000000000040000000000000000000000000000000000000000000000000000000000000002e516d58356a507661366b6f526e6e383873375a63506e4e584b6731557a6d59615a753968313564386b7a4831434e000000000000000000000000000000000000"
      ],
      "transaction": {
        "from": "0x2f9e113434aebdd70bb99cb6505e1f726c578d6d",
        "to": "0x1133ea7af70876e64665ecd07c0a0476d09465a1",
        "gas": "0x6f693",
        "value": "0x0",
        "input": "0x075c0e9c00000000000000000000000000000000000000000000000000000000000000c800000000000000000000000000000000000000000000000000000000000000400000000000000000000000000000000000000000000000000000000000000160000000000000000000000000000000000000000000000000000000000000002000000000000000000000000000000000000000000000000000000000000000c80000000000000000000000002f9e113434aebdd70bb99cb6505e1f726c578d6d0000000000000000000000000000000000000000000000008ac7230489e80000000000000000000000000000a8ea1b06621ce640762ccb12e9bcab03723b76c700000000000000000000000000000000000000000000000000000000000000a000000000000000000000000000000000000000000000000000000000000000010000000000000000000000000000000000000000000000000000000000000040000000000000000000000000000000000000000000000000000000000000002e516d58356a507661366b6f526e6e383873375a63506e4e584b6731557a6d59615a753968313564386b7a4831434e000000000000000000000000000000000000",
        "nonce": "0x15c",
        "chainId": "0xaa36a7"
      },
      "additionalContracts": [],
      "isFixedGasLimit": false
    },
    {
      "hash": "0x2df842901569cbb9b0947ccb815ff873cf3a8c696887c8c5fbf1f27ed393ee01",
      "transactionType": "CALL",
      "contractName": null,
      "contractAddress": "0x1133ea7af70876e64665ecd07c0a0476d09465a1",
      "function": "registerRecipient(uint256,bytes)",
      "arguments": [
        "201",
        "0x000000000000000000000000000000000000000000000000000000000000002000000000000000000000000000000000000000000000000000000000000000c90000000000000000000000002f9e113434aebdd70bb99cb6505e1f726c578d6d0000000000000000000000000000000000000000000000000000000000000000000000000000000000000000000000000000000000000000000000000000000000000000000000000000000000000000000000000000000000000000000000a000000000000000000000000000000000000000000000000000000000000000010000000000000000000000000000000000000000000000000000000000000040000000000000000000000000000000000000000000000000000000000000002e516d58356a507661366b6f526e6e383873375a63506e4e584b6731557a6d59615a753968313564386b7a4831434e000000000000000000000000000000000000"
      ],
      "transaction": {
        "from": "0x2f9e113434aebdd70bb99cb6505e1f726c578d6d",
        "to": "0x1133ea7af70876e64665ecd07c0a0476d09465a1",
        "gas": "0x63ffa",
        "value": "0x0",
        "input": "0x075c0e9c00000000000000000000000000000000000000000000000000000000000000c900000000000000000000000000000000000000000000000000000000000000400000000000000000000000000000000000000000000000000000000000000160000000000000000000000000000000000000000000000000000000000000002000000000000000000000000000000000000000000000000000000000000000c90000000000000000000000002f9e113434aebdd70bb99cb6505e1f726c578d6d0000000000000000000000000000000000000000000000000000000000000000000000000000000000000000000000000000000000000000000000000000000000000000000000000000000000000000000000000000000000000000000000a000000000000000000000000000000000000000000000000000000000000000010000000000000000000000000000000000000000000000000000000000000040000000000000000000000000000000000000000000000000000000000000002e516d58356a507661366b6f526e6e383873375a63506e4e584b6731557a6d59615a753968313564386b7a4831434e000000000000000000000000000000000000",
        "nonce": "0x15d",
        "chainId": "0xaa36a7"
      },
      "additionalContracts": [],
      "isFixedGasLimit": false
    }
  ],
  "receipts": [
    {
      "status": "0x1",
      "cumulativeGasUsed": "0x4b5726",
      "logs": [],
      "logsBloom": "0x00000000000000000000000000000000000000000000000000000000000000000000000000000000000000000000000000000000000000000000000000000000000000000000000000000000000000000000000000000000000000000000000000000000000000000000000000000000000000000000000000000000000000000000000000000000000000000000000000000000000000000000000000000000000000000000000000000000000000000000000000000000000000000000000000000000000000000000000000000000000000000000000000000000000000000000000000000000000000000000000000000000000000000000000000000000",
      "type": "0x0",
      "transactionHash": "0x9fcd29a17eaec8236df5c08ff9047fad360d8bf63407d93aa20b49435b3673dd",
      "transactionIndex": "0xb",
      "blockHash": "0x29d86f0725d44d25a4f199eb11969627d2a98e4f05bf81b6ee0f58cf0e3f41dd",
      "blockNumber": "0x5b708b",
      "gasUsed": "0x3e2f60",
      "effectiveGasPrice": "0x1337969ccb",
      "from": "0x2f9e113434aebdd70bb99cb6505e1f726c578d6d",
      "to": null,
      "contractAddress": "0x069e096f9ea0d170600edfc6b53eec20b015d75d"
    },
    {
      "status": "0x1",
      "cumulativeGasUsed": "0x95da35",
      "logs": [
        {
          "address": "0xa65b4dfd31378b451e75107854fe2315993ed905",
          "topics": [
            "0xbd79b86ffe0ab8e8776151514217cd7cacd52c909f66475c3af44e129f0b00ff",
            "0xbc6bbe35ebc64943402c04d2ae016d7bd2bba28e1a11cf66be743c9bd74c720b",
            "0x0000000000000000000000000000000000000000000000000000000000000000",
            "0x0000000000000000000000000000000000000000000000000000000000000000"
          ],
          "data": "0x",
          "blockHash": "0x29d86f0725d44d25a4f199eb11969627d2a98e4f05bf81b6ee0f58cf0e3f41dd",
          "blockNumber": "0x5b708b",
          "transactionHash": "0x6618b7c097d1067d629623d5220d937dc9ea4437db7a7b04943977770f6d4cd7",
          "transactionIndex": "0xc",
          "logIndex": "0x15",
          "removed": false
        },
        {
          "address": "0xa65b4dfd31378b451e75107854fe2315993ed905",
          "topics": [
            "0x2f8788117e7eff1d82e926ec794901d17c78024a50270940304540a733656f0d",
            "0xbc6bbe35ebc64943402c04d2ae016d7bd2bba28e1a11cf66be743c9bd74c720b",
            "0x000000000000000000000000c6eaf449f79b081300f5317122b2dff3f039ad0b",
            "0x000000000000000000000000c98c004a1d6c62e0c42ecee1a924dc216aac2094"
          ],
          "data": "0x",
          "blockHash": "0x29d86f0725d44d25a4f199eb11969627d2a98e4f05bf81b6ee0f58cf0e3f41dd",
          "blockNumber": "0x5b708b",
          "transactionHash": "0x6618b7c097d1067d629623d5220d937dc9ea4437db7a7b04943977770f6d4cd7",
          "transactionIndex": "0xc",
          "logIndex": "0x16",
          "removed": false
        },
        {
          "address": "0x4aacca72145e1df2aec137e1f3c5e3d75db8b5f3",
          "topics": [
            "0x2f8788117e7eff1d82e926ec794901d17c78024a50270940304540a733656f0d",
            "0x463a14624340b095b18a7162cd4dee36304815b6a0353db68298e82bd02248e7",
            "0x000000000000000000000000c583789751910e39fd2ddb988ad05567bcd81334",
            "0x000000000000000000000000a65b4dfd31378b451e75107854fe2315993ed905"
          ],
          "data": "0x",
          "blockHash": "0x29d86f0725d44d25a4f199eb11969627d2a98e4f05bf81b6ee0f58cf0e3f41dd",
          "blockNumber": "0x5b708b",
          "transactionHash": "0x6618b7c097d1067d629623d5220d937dc9ea4437db7a7b04943977770f6d4cd7",
          "transactionIndex": "0xc",
          "logIndex": "0x17",
          "removed": false
        },
        {
          "address": "0x4aacca72145e1df2aec137e1f3c5e3d75db8b5f3",
          "topics": [
            "0x2f8788117e7eff1d82e926ec794901d17c78024a50270940304540a733656f0d",
            "0x463a14624340b095b18a7162cd4dee36304815b6a0353db68298e82bd02248e7",
            "0x0000000000000000000000002f9e113434aebdd70bb99cb6505e1f726c578d6d",
            "0x000000000000000000000000a65b4dfd31378b451e75107854fe2315993ed905"
          ],
          "data": "0x",
          "blockHash": "0x29d86f0725d44d25a4f199eb11969627d2a98e4f05bf81b6ee0f58cf0e3f41dd",
          "blockNumber": "0x5b708b",
          "transactionHash": "0x6618b7c097d1067d629623d5220d937dc9ea4437db7a7b04943977770f6d4cd7",
          "transactionIndex": "0xc",
          "logIndex": "0x18",
          "removed": false
        },
        {
          "address": "0x4aacca72145e1df2aec137e1f3c5e3d75db8b5f3",
          "topics": [
            "0x2f8788117e7eff1d82e926ec794901d17c78024a50270940304540a733656f0d",
            "0x463a14624340b095b18a7162cd4dee36304815b6a0353db68298e82bd02248e7",
            "0x000000000000000000000000a65b4dfd31378b451e75107854fe2315993ed905",
            "0x000000000000000000000000a65b4dfd31378b451e75107854fe2315993ed905"
          ],
          "data": "0x",
          "blockHash": "0x29d86f0725d44d25a4f199eb11969627d2a98e4f05bf81b6ee0f58cf0e3f41dd",
          "blockNumber": "0x5b708b",
          "transactionHash": "0x6618b7c097d1067d629623d5220d937dc9ea4437db7a7b04943977770f6d4cd7",
          "transactionIndex": "0xc",
          "logIndex": "0x19",
          "removed": false
        },
        {
          "address": "0x4aacca72145e1df2aec137e1f3c5e3d75db8b5f3",
          "topics": [
            "0x2f8788117e7eff1d82e926ec794901d17c78024a50270940304540a733656f0d",
            "0x463a14624340b095b18a7162cd4dee36304815b6a0353db68298e82bd02248e7",
            "0x000000000000000000000000c6eaf449f79b081300f5317122b2dff3f039ad0b",
            "0x000000000000000000000000a65b4dfd31378b451e75107854fe2315993ed905"
          ],
          "data": "0x",
          "blockHash": "0x29d86f0725d44d25a4f199eb11969627d2a98e4f05bf81b6ee0f58cf0e3f41dd",
          "blockNumber": "0x5b708b",
          "transactionHash": "0x6618b7c097d1067d629623d5220d937dc9ea4437db7a7b04943977770f6d4cd7",
          "transactionIndex": "0xc",
          "logIndex": "0x1a",
          "removed": false
        },
        {
          "address": "0x4aacca72145e1df2aec137e1f3c5e3d75db8b5f3",
          "topics": [
            "0x1e28352ff00d67474b59b87e6817d6ba65daa0130446266db8640214d8b80609",
            "0x463a14624340b095b18a7162cd4dee36304815b6a0353db68298e82bd02248e7"
          ],
          "data": "0x000000000000000000000000000000000000000000000000000000000000000200000000000000000000000000000000000000000000000000000000000000a000000000000000000000000000000000000000000000000000000000000000e0000000000000000000000000a65b4dfd31378b451e75107854fe2315993ed90500000000000000000000000075d86d15d41c1b1cb5c00cc671914394c9294f9c000000000000000000000000000000000000000000000000000000000000000e416c70686120536565646c696e6700000000000000000000000000000000000000000000000000000000000000000000000000000000000000000000000000010000000000000000000000000000000000000000000000000000000000000040000000000000000000000000000000000000000000000000000000000000002e516d58356a507661366b6f526e6e383873375a63506e4e584b6731557a6d59615a753968313564386b7a4831434e000000000000000000000000000000000000",
          "blockHash": "0x29d86f0725d44d25a4f199eb11969627d2a98e4f05bf81b6ee0f58cf0e3f41dd",
          "blockNumber": "0x5b708b",
          "transactionHash": "0x6618b7c097d1067d629623d5220d937dc9ea4437db7a7b04943977770f6d4cd7",
          "transactionIndex": "0xc",
          "logIndex": "0x1b",
          "removed": false
        },
        {
          "address": "0xa65b4dfd31378b451e75107854fe2315993ed905",
          "topics": [
            "0x2f2ffcb06f8a1d35e2716f6b43ef2c19bfa76467d8f66964ae12c2583ed03205"
          ],
          "data": "0x463a14624340b095b18a7162cd4dee36304815b6a0353db68298e82bd02248e7000000000000000000000000000000000000000000000000000000000000006000000000000000000000000000000000000000000000000000000000000000a0000000000000000000000000000000000000000000000000000000000000000e416c70686120536565646c696e6700000000000000000000000000000000000000000000000000000000000000000000000000000000000000000000000000010000000000000000000000000000000000000000000000000000000000000040000000000000000000000000000000000000000000000000000000000000002e516d58356a507661366b6f526e6e383873375a63506e4e584b6731557a6d59615a753968313564386b7a4831434e000000000000000000000000000000000000",
          "blockHash": "0x29d86f0725d44d25a4f199eb11969627d2a98e4f05bf81b6ee0f58cf0e3f41dd",
          "blockNumber": "0x5b708b",
          "transactionHash": "0x6618b7c097d1067d629623d5220d937dc9ea4437db7a7b04943977770f6d4cd7",
          "transactionIndex": "0xc",
          "logIndex": "0x1c",
          "removed": false
        },
        {
          "address": "0xc98c004a1d6c62e0c42ecee1a924dc216aac2094",
          "topics": [
            "0xb4108a188495a1a681cdc0750af164011025a1773b41e93ff3e628adc037dc29"
          ],
          "data": "0x000000000000000000000000a65b4dfd31378b451e75107854fe2315993ed905",
          "blockHash": "0x29d86f0725d44d25a4f199eb11969627d2a98e4f05bf81b6ee0f58cf0e3f41dd",
          "blockNumber": "0x5b708b",
          "transactionHash": "0x6618b7c097d1067d629623d5220d937dc9ea4437db7a7b04943977770f6d4cd7",
          "transactionIndex": "0xc",
          "logIndex": "0x1d",
          "removed": false
        }
      ],
      "logsBloom": "0x00000004800000001848000000000000080000000000000000400000400000000000000000000000000000001000000000400000000000000000000000000000000001000000040000000000000008000000800000000000000000000080000000000000020000400004010000800a00000000000000000000000000000040000020000000000002000000000800800000000000000002000000000000080200800010000000004000000000000000000000000000000200021200000100000000000000000000000000000000000000000000000000000500000000000020000020010000000200000000000000004000000000000000000020000000000000",
      "type": "0x0",
      "transactionHash": "0x6618b7c097d1067d629623d5220d937dc9ea4437db7a7b04943977770f6d4cd7",
      "transactionIndex": "0xc",
      "blockHash": "0x29d86f0725d44d25a4f199eb11969627d2a98e4f05bf81b6ee0f58cf0e3f41dd",
      "blockNumber": "0x5b708b",
      "gasUsed": "0x4a830f",
      "effectiveGasPrice": "0x1337969ccb",
      "from": "0x2f9e113434aebdd70bb99cb6505e1f726c578d6d",
      "to": "0xc98c004a1d6c62e0c42ecee1a924dc216aac2094",
      "contractAddress": null
    },
    {
      "status": "0x1",
      "cumulativeGasUsed": "0xa01943",
      "logs": [
        {
          "address": "0x1133ea7af70876e64665ecd07c0a0476d09465a1",
          "topics": [
            "0x2f8788117e7eff1d82e926ec794901d17c78024a50270940304540a733656f0d",
            "0x7726fdbcaca4236eec2582fc2fd0d9bb4f4638fdcc29c776e18ac4a3b0aa1298",
            "0x000000000000000000000000a65b4dfd31378b451e75107854fe2315993ed905",
            "0x000000000000000000000000a65b4dfd31378b451e75107854fe2315993ed905"
          ],
          "data": "0x",
          "blockHash": "0x29d86f0725d44d25a4f199eb11969627d2a98e4f05bf81b6ee0f58cf0e3f41dd",
          "blockNumber": "0x5b708b",
          "transactionHash": "0x46ced5039a1537532a5ab07f5f3e365e0f7b76bcbcb42771d09d8f1cda948a5d",
          "transactionIndex": "0xd",
          "logIndex": "0x1e",
          "removed": false
        },
        {
          "address": "0x1133ea7af70876e64665ecd07c0a0476d09465a1",
          "topics": [
            "0xbd79b86ffe0ab8e8776151514217cd7cacd52c909f66475c3af44e129f0b00ff",
            "0x00000000000000000000000000000000000000000000000000000000000000c8",
            "0x0000000000000000000000000000000000000000000000000000000000000000",
            "0x7726fdbcaca4236eec2582fc2fd0d9bb4f4638fdcc29c776e18ac4a3b0aa1298"
          ],
          "data": "0x",
          "blockHash": "0x29d86f0725d44d25a4f199eb11969627d2a98e4f05bf81b6ee0f58cf0e3f41dd",
          "blockNumber": "0x5b708b",
          "transactionHash": "0x46ced5039a1537532a5ab07f5f3e365e0f7b76bcbcb42771d09d8f1cda948a5d",
          "transactionIndex": "0xd",
          "logIndex": "0x1f",
          "removed": false
        },
        {
          "address": "0xe666e787277a308b26d9971d04e4ccdaf8c8f6cd",
          "topics": [
            "0x11335eebb216b93f04c63826742eacbf3548a7df48a922f8bbd9e205f57807c3"
          ],
          "data": "0x00000000000000000000000000000000000000000000000000000000000000c8000000000000000000000000a65b4dfd31378b451e75107854fe2315993ed9050000000000000000000000000000000000000000000000000000000000980f5a00000000000000000000000000000000000000000000000000000000001e848000000000000000000000000000000000000000000000000000000000000027100000000000000000000000000000000000000000000000000000000000000000000000000000000000000000000000000000000000000000000000000000000100000000000000000000000000000000000000000000000000000000000000000000000000000000000000000000000000000000000000001bc16d674ec80000",
          "blockHash": "0x29d86f0725d44d25a4f199eb11969627d2a98e4f05bf81b6ee0f58cf0e3f41dd",
          "blockNumber": "0x5b708b",
          "transactionHash": "0x46ced5039a1537532a5ab07f5f3e365e0f7b76bcbcb42771d09d8f1cda948a5d",
          "transactionIndex": "0xd",
          "logIndex": "0x20",
          "removed": false
        },
        {
          "address": "0x1133ea7af70876e64665ecd07c0a0476d09465a1",
          "topics": [
            "0x2f8788117e7eff1d82e926ec794901d17c78024a50270940304540a733656f0d",
            "0x00000000000000000000000000000000000000000000000000000000000000c8",
            "0x000000000000000000000000c583789751910e39fd2ddb988ad05567bcd81334",
            "0x000000000000000000000000a65b4dfd31378b451e75107854fe2315993ed905"
          ],
          "data": "0x",
          "blockHash": "0x29d86f0725d44d25a4f199eb11969627d2a98e4f05bf81b6ee0f58cf0e3f41dd",
          "blockNumber": "0x5b708b",
          "transactionHash": "0x46ced5039a1537532a5ab07f5f3e365e0f7b76bcbcb42771d09d8f1cda948a5d",
          "transactionIndex": "0xd",
          "logIndex": "0x21",
          "removed": false
        },
        {
          "address": "0x1133ea7af70876e64665ecd07c0a0476d09465a1",
          "topics": [
            "0x2f8788117e7eff1d82e926ec794901d17c78024a50270940304540a733656f0d",
            "0x00000000000000000000000000000000000000000000000000000000000000c8",
            "0x0000000000000000000000002f9e113434aebdd70bb99cb6505e1f726c578d6d",
            "0x000000000000000000000000a65b4dfd31378b451e75107854fe2315993ed905"
          ],
          "data": "0x",
          "blockHash": "0x29d86f0725d44d25a4f199eb11969627d2a98e4f05bf81b6ee0f58cf0e3f41dd",
          "blockNumber": "0x5b708b",
          "transactionHash": "0x46ced5039a1537532a5ab07f5f3e365e0f7b76bcbcb42771d09d8f1cda948a5d",
          "transactionIndex": "0xd",
          "logIndex": "0x22",
          "removed": false
        },
        {
          "address": "0x1133ea7af70876e64665ecd07c0a0476d09465a1",
          "topics": [
            "0x2f8788117e7eff1d82e926ec794901d17c78024a50270940304540a733656f0d",
            "0x00000000000000000000000000000000000000000000000000000000000000c8",
            "0x000000000000000000000000a65b4dfd31378b451e75107854fe2315993ed905",
            "0x000000000000000000000000a65b4dfd31378b451e75107854fe2315993ed905"
          ],
          "data": "0x",
          "blockHash": "0x29d86f0725d44d25a4f199eb11969627d2a98e4f05bf81b6ee0f58cf0e3f41dd",
          "blockNumber": "0x5b708b",
          "transactionHash": "0x46ced5039a1537532a5ab07f5f3e365e0f7b76bcbcb42771d09d8f1cda948a5d",
          "transactionIndex": "0xd",
          "logIndex": "0x23",
          "removed": false
        },
        {
          "address": "0x1133ea7af70876e64665ecd07c0a0476d09465a1",
          "topics": [
            "0x2f8788117e7eff1d82e926ec794901d17c78024a50270940304540a733656f0d",
            "0x00000000000000000000000000000000000000000000000000000000000000c8",
            "0x000000000000000000000000c6eaf449f79b081300f5317122b2dff3f039ad0b",
            "0x000000000000000000000000a65b4dfd31378b451e75107854fe2315993ed905"
          ],
          "data": "0x",
          "blockHash": "0x29d86f0725d44d25a4f199eb11969627d2a98e4f05bf81b6ee0f58cf0e3f41dd",
          "blockNumber": "0x5b708b",
          "transactionHash": "0x46ced5039a1537532a5ab07f5f3e365e0f7b76bcbcb42771d09d8f1cda948a5d",
          "transactionIndex": "0xd",
          "logIndex": "0x24",
          "removed": false
        },
        {
          "address": "0x1133ea7af70876e64665ecd07c0a0476d09465a1",
          "topics": [
            "0x69bcb5a6cf6a3c95185cbb451e77787240c866dd2e8332597e3013ff18a1aba1",
            "0x00000000000000000000000000000000000000000000000000000000000000c8",
            "0x463a14624340b095b18a7162cd4dee36304815b6a0353db68298e82bd02248e7"
          ],
          "data": "0x000000000000000000000000e666e787277a308b26d9971d04e4ccdaf8c8f6cd000000000000000000000000a8ea1b06621ce640762ccb12e9bcab03723b76c70000000000000000000000000000000000000000000000000000000000000000000000000000000000000000000000000000000000000000000000000000008000000000000000000000000000000000000000000000000000000000000000010000000000000000000000000000000000000000000000000000000000000040000000000000000000000000000000000000000000000000000000000000002e516d58356a507661366b6f526e6e383873375a63506e4e584b6731557a6d59615a753968313564386b7a4831434e000000000000000000000000000000000000",
          "blockHash": "0x29d86f0725d44d25a4f199eb11969627d2a98e4f05bf81b6ee0f58cf0e3f41dd",
          "blockNumber": "0x5b708b",
          "transactionHash": "0x46ced5039a1537532a5ab07f5f3e365e0f7b76bcbcb42771d09d8f1cda948a5d",
          "transactionIndex": "0xd",
          "logIndex": "0x25",
          "removed": false
        },
        {
          "address": "0xa65b4dfd31378b451e75107854fe2315993ed905",
          "topics": [
            "0x778cac0ae0b66477341553a4a89398c61ccf448313d3354ad0ca85a5a825d283"
          ],
          "data": "0x00000000000000000000000000000000000000000000000000000000000000c8000000000000000000000000e666e787277a308b26d9971d04e4ccdaf8c8f6cd000000000000000000000000a65b4dfd31378b451e75107854fe2315993ed905000000000000000000000000a8ea1b06621ce640762ccb12e9bcab03723b76c700000000000000000000000000000000000000000000000000000000000000a000000000000000000000000000000000000000000000000000000000000000010000000000000000000000000000000000000000000000000000000000000040000000000000000000000000000000000000000000000000000000000000002e516d58356a507661366b6f526e6e383873375a63506e4e584b6731557a6d59615a753968313564386b7a4831434e000000000000000000000000000000000000",
          "blockHash": "0x29d86f0725d44d25a4f199eb11969627d2a98e4f05bf81b6ee0f58cf0e3f41dd",
          "blockNumber": "0x5b708b",
          "transactionHash": "0x46ced5039a1537532a5ab07f5f3e365e0f7b76bcbcb42771d09d8f1cda948a5d",
          "transactionIndex": "0xd",
          "logIndex": "0x26",
          "removed": false
        }
      ],
      "logsBloom": "0x00000004000000001800000000000020080000000000000000001000c00000000000000000000000000000001000000000400000000000000000000000000000000000001000000000000000000008000000000000000000000000000000000000000000020000400004000004800800000080000000000020000000000040000820000000040002000000000002800000000000000000000000000200000000800010100000000000002000000000000000200020000200001200000000000000000000000200000000000400000000000000000000000100000000000020002000010000000200000000000000000000100800000000000020200000000000",
      "type": "0x0",
      "transactionHash": "0x46ced5039a1537532a5ab07f5f3e365e0f7b76bcbcb42771d09d8f1cda948a5d",
      "transactionIndex": "0xd",
      "blockHash": "0x29d86f0725d44d25a4f199eb11969627d2a98e4f05bf81b6ee0f58cf0e3f41dd",
      "blockNumber": "0x5b708b",
      "gasUsed": "0xa3f0e",
      "effectiveGasPrice": "0x1337969ccb",
      "from": "0x2f9e113434aebdd70bb99cb6505e1f726c578d6d",
      "to": "0xa65b4dfd31378b451e75107854fe2315993ed905",
      "contractAddress": null
    },
    {
      "status": "0x1",
      "cumulativeGasUsed": "0xa0c83b",
      "logs": [
        {
          "address": "0xe666e787277a308b26d9971d04e4ccdaf8c8f6cd",
          "topics": [
            "0x592dcd55d60d892e7fcb3ba105013312e99691cd59f91e15f83cb67cb5a505f2"
          ],
          "data": "0x0000000000000000000000000000000000000000000000000000000000980f5a",
          "blockHash": "0x29d86f0725d44d25a4f199eb11969627d2a98e4f05bf81b6ee0f58cf0e3f41dd",
          "blockNumber": "0x5b708b",
          "transactionHash": "0x8ad53bb8073dda2c1624fb8fc1d6b73757eaec2eef6ede6cdd426d4b61f00969",
          "transactionIndex": "0xe",
          "logIndex": "0x27",
          "removed": false
        }
      ],
      "logsBloom": "0x00000000000000000000000000000000000000000000000000000000000000000000000000000000000000000000000000000000000000000000000000000000000000000000000000000000000000000000000000000000000000000000000000000000000000000000000200000000000000000000000000000000000000000000000000040000000000000000000000000000000000000000000000000000000000000000000000000000002000000000000020000000000000000000000000000000000000000000000400000000000000000000000000000000000000000000000000000000000000000000000000000080000000000000000000000000",
      "type": "0x0",
      "transactionHash": "0x8ad53bb8073dda2c1624fb8fc1d6b73757eaec2eef6ede6cdd426d4b61f00969",
      "transactionIndex": "0xe",
      "blockHash": "0x29d86f0725d44d25a4f199eb11969627d2a98e4f05bf81b6ee0f58cf0e3f41dd",
      "blockNumber": "0x5b708b",
      "gasUsed": "0xaef8",
      "effectiveGasPrice": "0x1337969ccb",
      "from": "0x2f9e113434aebdd70bb99cb6505e1f726c578d6d",
      "to": "0xe666e787277a308b26d9971d04e4ccdaf8c8f6cd",
      "contractAddress": null
    },
    {
      "status": "0x1",
      "cumulativeGasUsed": "0xa181e3",
      "logs": [
        {
          "address": "0xe666e787277a308b26d9971d04e4ccdaf8c8f6cd",
          "topics": [
            "0x08e39b387d1f739ce0d2553bb31822392e3f67c62c6c0a215120ab4a6841a8ab"
          ],
          "data": "0x00000000000000000000000000000000000000000000000000000000000f4240",
          "blockHash": "0x29d86f0725d44d25a4f199eb11969627d2a98e4f05bf81b6ee0f58cf0e3f41dd",
          "blockNumber": "0x5b708b",
          "transactionHash": "0xa90a5cac3c013e750e6c8b48d2e1cb92dca919be5b3455477b0960090e7a48c7",
          "transactionIndex": "0xf",
          "logIndex": "0x28",
          "removed": false
        }
      ],
      "logsBloom": "0x00000000000000000000000000000000000000000000000000000000000000000000000000000000000000000080000000000000000000000000000000000000000000000000000000000000000100000000000000000000000000000000000000000000000000000000000000000000000000000000000000000000000000000000000000040000000000000000000000000000000000000000000000000000000000000000000000000000000000000000000020000000000000000000000000000000000000000000000400000000000000000000000400000000000000000000000000000000000000000000000000000000000000000000000000000000",
      "type": "0x0",
      "transactionHash": "0xa90a5cac3c013e750e6c8b48d2e1cb92dca919be5b3455477b0960090e7a48c7",
      "transactionIndex": "0xf",
      "blockHash": "0x29d86f0725d44d25a4f199eb11969627d2a98e4f05bf81b6ee0f58cf0e3f41dd",
      "blockNumber": "0x5b708b",
      "gasUsed": "0xb9a8",
      "effectiveGasPrice": "0x1337969ccb",
      "from": "0x2f9e113434aebdd70bb99cb6505e1f726c578d6d",
      "to": "0xe666e787277a308b26d9971d04e4ccdaf8c8f6cd",
      "contractAddress": null
    },
    {
      "status": "0x1",
      "cumulativeGasUsed": "0xa23bbe",
      "logs": [
        {
          "address": "0xe666e787277a308b26d9971d04e4ccdaf8c8f6cd",
          "topics": [
            "0x30ee8206062f283e56a0af2b02138016bf7442ded26ad68a92a18a9dd246fb49"
          ],
          "data": "0x0000000000000000000000000000000000000000000000000000000000001388",
          "blockHash": "0x29d86f0725d44d25a4f199eb11969627d2a98e4f05bf81b6ee0f58cf0e3f41dd",
          "blockNumber": "0x5b708b",
          "transactionHash": "0x5f50a84f8a9d942b88e28987fdb08f0abcf49e0764c5bc90a4db6689b0c3585f",
          "transactionIndex": "0x10",
          "logIndex": "0x29",
          "removed": false
        }
      ],
      "logsBloom": "0x00000000000000000000000000000000000000000000000000000000000000000000000000000000000000000000000000000000000000000000000000000000000000000000000000000000000000040000000000000000000000000000000000000000000000000000000000000000000000000100000000000000000000000000000000040000000000000000000000000000000000000000000000000000000000000000000000000000000000000000000020000000000000000000000000000000000000000000000400000000000000000000000000000000000000000000000000000000000000000000000000000000000000000080000000000000",
      "type": "0x0",
      "transactionHash": "0x5f50a84f8a9d942b88e28987fdb08f0abcf49e0764c5bc90a4db6689b0c3585f",
      "transactionIndex": "0x10",
      "blockHash": "0x29d86f0725d44d25a4f199eb11969627d2a98e4f05bf81b6ee0f58cf0e3f41dd",
      "blockNumber": "0x5b708b",
      "gasUsed": "0xb9db",
      "effectiveGasPrice": "0x1337969ccb",
      "from": "0x2f9e113434aebdd70bb99cb6505e1f726c578d6d",
      "to": "0xe666e787277a308b26d9971d04e4ccdaf8c8f6cd",
      "contractAddress": null
    },
    {
      "status": "0x1",
      "cumulativeGasUsed": "0xac370b",
      "logs": [
        {
          "address": "0x1133ea7af70876e64665ecd07c0a0476d09465a1",
          "topics": [
            "0x2f8788117e7eff1d82e926ec794901d17c78024a50270940304540a733656f0d",
            "0x17f886ab2460f633178ad88e45c3df1f528b7ee92a6fae871153629051f776d4",
            "0x000000000000000000000000a65b4dfd31378b451e75107854fe2315993ed905",
            "0x000000000000000000000000a65b4dfd31378b451e75107854fe2315993ed905"
          ],
          "data": "0x",
          "blockHash": "0x29d86f0725d44d25a4f199eb11969627d2a98e4f05bf81b6ee0f58cf0e3f41dd",
          "blockNumber": "0x5b708b",
          "transactionHash": "0xc4f3e7bad41d8bbf4211f97244682406e9d77e8c16c9c4b38f784ca557f127ea",
          "transactionIndex": "0x11",
          "logIndex": "0x2a",
          "removed": false
        },
        {
          "address": "0x1133ea7af70876e64665ecd07c0a0476d09465a1",
          "topics": [
            "0xbd79b86ffe0ab8e8776151514217cd7cacd52c909f66475c3af44e129f0b00ff",
            "0x00000000000000000000000000000000000000000000000000000000000000c9",
            "0x0000000000000000000000000000000000000000000000000000000000000000",
            "0x17f886ab2460f633178ad88e45c3df1f528b7ee92a6fae871153629051f776d4"
          ],
          "data": "0x",
          "blockHash": "0x29d86f0725d44d25a4f199eb11969627d2a98e4f05bf81b6ee0f58cf0e3f41dd",
          "blockNumber": "0x5b708b",
          "transactionHash": "0xc4f3e7bad41d8bbf4211f97244682406e9d77e8c16c9c4b38f784ca557f127ea",
          "transactionIndex": "0x11",
          "logIndex": "0x2b",
          "removed": false
        },
        {
          "address": "0xe26a90d9fad6e67f3a1ba8497d9724b2bf8f5e59",
          "topics": [
            "0x11335eebb216b93f04c63826742eacbf3548a7df48a922f8bbd9e205f57807c3"
          ],
          "data": "0x00000000000000000000000000000000000000000000000000000000000000c9000000000000000000000000a65b4dfd31378b451e75107854fe2315993ed9050000000000000000000000000000000000000000000000000000000000980f5a00000000000000000000000000000000000000000000000000000000001e848000000000000000000000000000000000000000000000000000000000000027100000000000000000000000000000000000000000000000000000000000000000000000000000000000000000000000000000000000000000000000000000000000000000000000000000000000000000000000000000000000000000000000020000000000000000000000000000000000000000000000001bc16d674ec80000",
          "blockHash": "0x29d86f0725d44d25a4f199eb11969627d2a98e4f05bf81b6ee0f58cf0e3f41dd",
          "blockNumber": "0x5b708b",
          "transactionHash": "0xc4f3e7bad41d8bbf4211f97244682406e9d77e8c16c9c4b38f784ca557f127ea",
          "transactionIndex": "0x11",
          "logIndex": "0x2c",
          "removed": false
        },
        {
          "address": "0x1133ea7af70876e64665ecd07c0a0476d09465a1",
          "topics": [
            "0x2f8788117e7eff1d82e926ec794901d17c78024a50270940304540a733656f0d",
            "0x00000000000000000000000000000000000000000000000000000000000000c9",
            "0x000000000000000000000000c583789751910e39fd2ddb988ad05567bcd81334",
            "0x000000000000000000000000a65b4dfd31378b451e75107854fe2315993ed905"
          ],
          "data": "0x",
          "blockHash": "0x29d86f0725d44d25a4f199eb11969627d2a98e4f05bf81b6ee0f58cf0e3f41dd",
          "blockNumber": "0x5b708b",
          "transactionHash": "0xc4f3e7bad41d8bbf4211f97244682406e9d77e8c16c9c4b38f784ca557f127ea",
          "transactionIndex": "0x11",
          "logIndex": "0x2d",
          "removed": false
        },
        {
          "address": "0x1133ea7af70876e64665ecd07c0a0476d09465a1",
          "topics": [
            "0x2f8788117e7eff1d82e926ec794901d17c78024a50270940304540a733656f0d",
            "0x00000000000000000000000000000000000000000000000000000000000000c9",
            "0x0000000000000000000000002f9e113434aebdd70bb99cb6505e1f726c578d6d",
            "0x000000000000000000000000a65b4dfd31378b451e75107854fe2315993ed905"
          ],
          "data": "0x",
          "blockHash": "0x29d86f0725d44d25a4f199eb11969627d2a98e4f05bf81b6ee0f58cf0e3f41dd",
          "blockNumber": "0x5b708b",
          "transactionHash": "0xc4f3e7bad41d8bbf4211f97244682406e9d77e8c16c9c4b38f784ca557f127ea",
          "transactionIndex": "0x11",
          "logIndex": "0x2e",
          "removed": false
        },
        {
          "address": "0x1133ea7af70876e64665ecd07c0a0476d09465a1",
          "topics": [
            "0x2f8788117e7eff1d82e926ec794901d17c78024a50270940304540a733656f0d",
            "0x00000000000000000000000000000000000000000000000000000000000000c9",
            "0x000000000000000000000000a65b4dfd31378b451e75107854fe2315993ed905",
            "0x000000000000000000000000a65b4dfd31378b451e75107854fe2315993ed905"
          ],
          "data": "0x",
          "blockHash": "0x29d86f0725d44d25a4f199eb11969627d2a98e4f05bf81b6ee0f58cf0e3f41dd",
          "blockNumber": "0x5b708b",
          "transactionHash": "0xc4f3e7bad41d8bbf4211f97244682406e9d77e8c16c9c4b38f784ca557f127ea",
          "transactionIndex": "0x11",
          "logIndex": "0x2f",
          "removed": false
        },
        {
          "address": "0x1133ea7af70876e64665ecd07c0a0476d09465a1",
          "topics": [
            "0x2f8788117e7eff1d82e926ec794901d17c78024a50270940304540a733656f0d",
            "0x00000000000000000000000000000000000000000000000000000000000000c9",
            "0x000000000000000000000000c6eaf449f79b081300f5317122b2dff3f039ad0b",
            "0x000000000000000000000000a65b4dfd31378b451e75107854fe2315993ed905"
          ],
          "data": "0x",
          "blockHash": "0x29d86f0725d44d25a4f199eb11969627d2a98e4f05bf81b6ee0f58cf0e3f41dd",
          "blockNumber": "0x5b708b",
          "transactionHash": "0xc4f3e7bad41d8bbf4211f97244682406e9d77e8c16c9c4b38f784ca557f127ea",
          "transactionIndex": "0x11",
          "logIndex": "0x30",
          "removed": false
        },
        {
          "address": "0x1133ea7af70876e64665ecd07c0a0476d09465a1",
          "topics": [
            "0x69bcb5a6cf6a3c95185cbb451e77787240c866dd2e8332597e3013ff18a1aba1",
            "0x00000000000000000000000000000000000000000000000000000000000000c9",
            "0x463a14624340b095b18a7162cd4dee36304815b6a0353db68298e82bd02248e7"
          ],
          "data": "0x000000000000000000000000e26a90d9fad6e67f3a1ba8497d9724b2bf8f5e59000000000000000000000000eeeeeeeeeeeeeeeeeeeeeeeeeeeeeeeeeeeeeeee0000000000000000000000000000000000000000000000000000000000000000000000000000000000000000000000000000000000000000000000000000008000000000000000000000000000000000000000000000000000000000000000010000000000000000000000000000000000000000000000000000000000000040000000000000000000000000000000000000000000000000000000000000002e516d58356a507661366b6f526e6e383873375a63506e4e584b6731557a6d59615a753968313564386b7a4831434e000000000000000000000000000000000000",
          "blockHash": "0x29d86f0725d44d25a4f199eb11969627d2a98e4f05bf81b6ee0f58cf0e3f41dd",
          "blockNumber": "0x5b708b",
          "transactionHash": "0xc4f3e7bad41d8bbf4211f97244682406e9d77e8c16c9c4b38f784ca557f127ea",
          "transactionIndex": "0x11",
          "logIndex": "0x31",
          "removed": false
        },
        {
          "address": "0xa65b4dfd31378b451e75107854fe2315993ed905",
          "topics": [
            "0x778cac0ae0b66477341553a4a89398c61ccf448313d3354ad0ca85a5a825d283"
          ],
          "data": "0x00000000000000000000000000000000000000000000000000000000000000c9000000000000000000000000e26a90d9fad6e67f3a1ba8497d9724b2bf8f5e59000000000000000000000000a65b4dfd31378b451e75107854fe2315993ed905000000000000000000000000000000000000000000000000000000000000000000000000000000000000000000000000000000000000000000000000000000a000000000000000000000000000000000000000000000000000000000000000010000000000000000000000000000000000000000000000000000000000000040000000000000000000000000000000000000000000000000000000000000002e516d58356a507661366b6f526e6e383873375a63506e4e584b6731557a6d59615a753968313564386b7a4831434e000000000000000000000000000000000000",
          "blockHash": "0x29d86f0725d44d25a4f199eb11969627d2a98e4f05bf81b6ee0f58cf0e3f41dd",
          "blockNumber": "0x5b708b",
          "transactionHash": "0xc4f3e7bad41d8bbf4211f97244682406e9d77e8c16c9c4b38f784ca557f127ea",
          "transactionIndex": "0x11",
          "logIndex": "0x32",
          "removed": false
        }
      ],
      "logsBloom": "0x00000004000000001800000000000000080000000000000000001000402000000000000000040000400000001000000000400000000000000000000000000000000000001000000000000000000008000000000000000000000000000000000000000000020000400004000004800880000000004000000000000000000040000820000000000002000000000002800000000000000000000000000200000000800010000000000000002000000000000000200000000200001200000000000000000000020200000000000000000000000000004000000100000000000020000001010000000200800000000000000000100800000000000020200000000000",
      "type": "0x0",
      "transactionHash": "0xc4f3e7bad41d8bbf4211f97244682406e9d77e8c16c9c4b38f784ca557f127ea",
      "transactionIndex": "0x11",
      "blockHash": "0x29d86f0725d44d25a4f199eb11969627d2a98e4f05bf81b6ee0f58cf0e3f41dd",
      "blockNumber": "0x5b708b",
      "gasUsed": "0x9fb4d",
      "effectiveGasPrice": "0x1337969ccb",
      "from": "0x2f9e113434aebdd70bb99cb6505e1f726c578d6d",
      "to": "0xa65b4dfd31378b451e75107854fe2315993ed905",
      "contractAddress": null
    },
    {
      "status": "0x1",
      "cumulativeGasUsed": "0xace603",
      "logs": [
        {
          "address": "0xe26a90d9fad6e67f3a1ba8497d9724b2bf8f5e59",
          "topics": [
            "0x592dcd55d60d892e7fcb3ba105013312e99691cd59f91e15f83cb67cb5a505f2"
          ],
          "data": "0x0000000000000000000000000000000000000000000000000000000000980f5a",
          "blockHash": "0x29d86f0725d44d25a4f199eb11969627d2a98e4f05bf81b6ee0f58cf0e3f41dd",
          "blockNumber": "0x5b708b",
          "transactionHash": "0x4a516c3445d1076a1e4880d5ddb71a2e860de45a656c87977e84b9748c8e5083",
          "transactionIndex": "0x12",
          "logIndex": "0x33",
          "removed": false
        }
      ],
      "logsBloom": "0x00000000000000000000000000000000000000000000000000000000000000000000000000040000000000000000000000000000000000000000000000000000000000000000000000000000000000000000000000000000000000000000000000000000000000000000000200000000000000000000000000000000000000000000000000000000000000000000000000000000000000000000000000000000000000000000000000000000002000000000000000000000000000000000000000000000020000000000000000000000000000000000000000000000000000000000000000000000800000000000000000000080000000000000000000000000",
      "type": "0x0",
      "transactionHash": "0x4a516c3445d1076a1e4880d5ddb71a2e860de45a656c87977e84b9748c8e5083",
      "transactionIndex": "0x12",
      "blockHash": "0x29d86f0725d44d25a4f199eb11969627d2a98e4f05bf81b6ee0f58cf0e3f41dd",
      "blockNumber": "0x5b708b",
      "gasUsed": "0xaef8",
      "effectiveGasPrice": "0x1337969ccb",
      "from": "0x2f9e113434aebdd70bb99cb6505e1f726c578d6d",
      "to": "0xe26a90d9fad6e67f3a1ba8497d9724b2bf8f5e59",
      "contractAddress": null
    },
    {
      "status": "0x1",
      "cumulativeGasUsed": "0xad9fab",
      "logs": [
        {
          "address": "0xe26a90d9fad6e67f3a1ba8497d9724b2bf8f5e59",
          "topics": [
            "0x08e39b387d1f739ce0d2553bb31822392e3f67c62c6c0a215120ab4a6841a8ab"
          ],
          "data": "0x00000000000000000000000000000000000000000000000000000000000f4240",
          "blockHash": "0x29d86f0725d44d25a4f199eb11969627d2a98e4f05bf81b6ee0f58cf0e3f41dd",
          "blockNumber": "0x5b708b",
          "transactionHash": "0xc95198e76f8e69795a0aa3805106ab1ef9f1c356a4e50f744506b6d35abfff77",
          "transactionIndex": "0x13",
          "logIndex": "0x34",
          "removed": false
        }
      ],
      "logsBloom": "0x00000000000000000000000000000000000000000000000000000000000000000000000000040000000000000080000000000000000000000000000000000000000000000000000000000000000100000000000000000000000000000000000000000000000000000000000000000000000000000000000000000000000000000000000000000000000000000000000000000000000000000000000000000000000000000000000000000000000000000000000000000000000000000000000000000000020000000000000000000000000000000000000400000000000000000000000000000000800000000000000000000000000000000000000000000000",
      "type": "0x0",
      "transactionHash": "0xc95198e76f8e69795a0aa3805106ab1ef9f1c356a4e50f744506b6d35abfff77",
      "transactionIndex": "0x13",
      "blockHash": "0x29d86f0725d44d25a4f199eb11969627d2a98e4f05bf81b6ee0f58cf0e3f41dd",
      "blockNumber": "0x5b708b",
      "gasUsed": "0xb9a8",
      "effectiveGasPrice": "0x1337969ccb",
      "from": "0x2f9e113434aebdd70bb99cb6505e1f726c578d6d",
      "to": "0xe26a90d9fad6e67f3a1ba8497d9724b2bf8f5e59",
      "contractAddress": null
    },
    {
      "status": "0x1",
      "cumulativeGasUsed": "0xae5986",
      "logs": [
        {
          "address": "0xe26a90d9fad6e67f3a1ba8497d9724b2bf8f5e59",
          "topics": [
            "0x30ee8206062f283e56a0af2b02138016bf7442ded26ad68a92a18a9dd246fb49"
          ],
          "data": "0x0000000000000000000000000000000000000000000000000000000000001388",
          "blockHash": "0x29d86f0725d44d25a4f199eb11969627d2a98e4f05bf81b6ee0f58cf0e3f41dd",
          "blockNumber": "0x5b708b",
          "transactionHash": "0x0a8f9c9c628e4914655f5351643e1eeed2fc067da358dee8f566a23b9ede707d",
          "transactionIndex": "0x14",
          "logIndex": "0x35",
          "removed": false
        }
      ],
      "logsBloom": "0x00000000000000000000000000000000000000000000000000000000000000000000000000040000000000000000000000000000000000000000000000000000000000000000000000000000000000040000000000000000000000000000000000000000000000000000000000000000000000000100000000000000000000000000000000000000000000000000000000000000000000000000000000000000000000000000000000000000000000000000000000000000000000000000000000000000020000000000000000000000000000000000000000000000000000000000000000000000800000000000000000000000000000000080000000000000",
      "type": "0x0",
      "transactionHash": "0x0a8f9c9c628e4914655f5351643e1eeed2fc067da358dee8f566a23b9ede707d",
      "transactionIndex": "0x14",
      "blockHash": "0x29d86f0725d44d25a4f199eb11969627d2a98e4f05bf81b6ee0f58cf0e3f41dd",
      "blockNumber": "0x5b708b",
      "gasUsed": "0xb9db",
      "effectiveGasPrice": "0x1337969ccb",
      "from": "0x2f9e113434aebdd70bb99cb6505e1f726c578d6d",
      "to": "0xe26a90d9fad6e67f3a1ba8497d9724b2bf8f5e59",
      "contractAddress": null
    },
    {
      "status": "0x1",
      "cumulativeGasUsed": "0xafac3c",
      "logs": [
        {
          "address": "0xc6eaf449f79b081300f5317122b2dff3f039ad0b",
          "topics": [
            "0x66753cd2356569ee081232e3be8909b950e0a76c1f8460c3a5e3c2be32b11bed"
          ],
          "data": "0x000000000000000000000000a65b4dfd31378b451e75107854fe2315993ed9050000000000000000000000000000000000000000000000000000000000000000000000000000000000000000000000000000000000000000000000000000016000000000000000000000000000000000000000000000000000000000000000000000000000000000000000000000000000000000000000000000000000000000000000000000000000000000000000000000000000000000000000000000000000000000000000000000000000000000000000000000000000000000000000000000000000000000000000000000000000000000000000000000000000000000000000000000000000000000000000000000000000000000000000000000000000000000000000000000000000000000000000000000000000000000000001c000000000000000000000000000000000000000000000000000000000000002400000000000000000000000000000000000000000000000000000000000000024223e5479000000000000000000000000e666e787277a308b26d9971d04e4ccdaf8c8f6cd000000000000000000000000000000000000000000000000000000000000000000000000000000000000000000000000000000000000000000000041f736da1e9a7c50cc33cb7a8c9e07e89f5278e83603397d87a95b21e42a3926db709b43e4af1d89b090909098d609ac4f792adfd0bfca485083f61974697b1a211b00000000000000000000000000000000000000000000000000000000000000000000000000000000000000000000000000000000000000000000000000006000000000000000000000000000000000000000000000000000000000000000210000000000000000000000002f9e113434aebdd70bb99cb6505e1f726c578d6d0000000000000000000000000000000000000000000000000000000000000001",
          "blockHash": "0x29d86f0725d44d25a4f199eb11969627d2a98e4f05bf81b6ee0f58cf0e3f41dd",
          "blockNumber": "0x5b708b",
          "transactionHash": "0x251ef4b5ce43bb42bbc800a0b51b85318efd9ae5108c5025848135d8b10ab99d",
          "transactionIndex": "0x15",
          "logIndex": "0x36",
          "removed": false
        },
        {
          "address": "0xa65b4dfd31378b451e75107854fe2315993ed905",
          "topics": [
            "0x3f008fd510eae7a9e7bee13513d7b83bef8003d488b5a3d0b0da4de71d6846f1"
          ],
          "data": "0x000000000000000000000000e666e787277a308b26d9971d04e4ccdaf8c8f6cd",
          "blockHash": "0x29d86f0725d44d25a4f199eb11969627d2a98e4f05bf81b6ee0f58cf0e3f41dd",
          "blockNumber": "0x5b708b",
          "transactionHash": "0x251ef4b5ce43bb42bbc800a0b51b85318efd9ae5108c5025848135d8b10ab99d",
          "transactionIndex": "0x15",
          "logIndex": "0x37",
          "removed": false
        },
        {
          "address": "0xc6eaf449f79b081300f5317122b2dff3f039ad0b",
          "topics": [
            "0x442e715f626346e8c54381002da614f62bee8d27386535b2521ec8540898556e"
          ],
          "data": "0xe80277e6231f6e41dea331a6789172d64795e4d84161abc770c70ed89f1a4f540000000000000000000000000000000000000000000000000000000000000000",
          "blockHash": "0x29d86f0725d44d25a4f199eb11969627d2a98e4f05bf81b6ee0f58cf0e3f41dd",
          "blockNumber": "0x5b708b",
          "transactionHash": "0x251ef4b5ce43bb42bbc800a0b51b85318efd9ae5108c5025848135d8b10ab99d",
          "transactionIndex": "0x15",
          "logIndex": "0x38",
          "removed": false
        }
      ],
      "logsBloom": "0x00000000400000000000000000000000000000000000000000000000040000000000000000000000000000001000000000000000000000000000000000000000000000000000000000000000000000000000040000000000000000000000000000000000000020000000000000000000000000000000000000000000000040000000004000000000000002000000000000000010000000000000000000000000000000000400000010000000000004000000000000000000000200000000000000000000000000000000000000020000000000000000000000000010000000000000000000000000000000000000000000000000000000000000000000000000",
      "type": "0x0",
      "transactionHash": "0x251ef4b5ce43bb42bbc800a0b51b85318efd9ae5108c5025848135d8b10ab99d",
      "transactionIndex": "0x15",
      "blockHash": "0x29d86f0725d44d25a4f199eb11969627d2a98e4f05bf81b6ee0f58cf0e3f41dd",
      "blockNumber": "0x5b708b",
      "gasUsed": "0x152b6",
      "effectiveGasPrice": "0x1337969ccb",
      "from": "0x2f9e113434aebdd70bb99cb6505e1f726c578d6d",
      "to": "0xc6eaf449f79b081300f5317122b2dff3f039ad0b",
      "contractAddress": null
    },
    {
      "status": "0x1",
      "cumulativeGasUsed": "0xb0fef2",
      "logs": [
        {
          "address": "0xc6eaf449f79b081300f5317122b2dff3f039ad0b",
          "topics": [
            "0x66753cd2356569ee081232e3be8909b950e0a76c1f8460c3a5e3c2be32b11bed"
          ],
          "data": "0x000000000000000000000000a65b4dfd31378b451e75107854fe2315993ed9050000000000000000000000000000000000000000000000000000000000000000000000000000000000000000000000000000000000000000000000000000016000000000000000000000000000000000000000000000000000000000000000000000000000000000000000000000000000000000000000000000000000000000000000000000000000000000000000000000000000000000000000000000000000000000000000000000000000000000000000000000000000000000000000000000000000000000000000000000000000000000000000000000000000000000000000000000000000000000000000000000000000000000000000000000000000000000000000000000000000000000000000000000000000000000000001c000000000000000000000000000000000000000000000000000000000000002400000000000000000000000000000000000000000000000000000000000000024223e5479000000000000000000000000e26a90d9fad6e67f3a1ba8497d9724b2bf8f5e59000000000000000000000000000000000000000000000000000000000000000000000000000000000000000000000000000000000000000000000041757f37f43b2af707d5beef946b4eb9df09d7cb8821a53d5b720fb518d5d8429d1a54ece84e25f40fc097b71075aec5efd5f1b53a9ddc3f89d416564eeecf52c31b00000000000000000000000000000000000000000000000000000000000000000000000000000000000000000000000000000000000000000000000000006000000000000000000000000000000000000000000000000000000000000000220000000000000000000000002f9e113434aebdd70bb99cb6505e1f726c578d6d0000000000000000000000000000000000000000000000000000000000000001",
          "blockHash": "0x29d86f0725d44d25a4f199eb11969627d2a98e4f05bf81b6ee0f58cf0e3f41dd",
          "blockNumber": "0x5b708b",
          "transactionHash": "0x28e352ab3993d251d4d50fda556c45e31cd7f23bf2b846b45a9865f262843a24",
          "transactionIndex": "0x16",
          "logIndex": "0x39",
          "removed": false
        },
        {
          "address": "0xa65b4dfd31378b451e75107854fe2315993ed905",
          "topics": [
            "0x3f008fd510eae7a9e7bee13513d7b83bef8003d488b5a3d0b0da4de71d6846f1"
          ],
          "data": "0x000000000000000000000000e26a90d9fad6e67f3a1ba8497d9724b2bf8f5e59",
          "blockHash": "0x29d86f0725d44d25a4f199eb11969627d2a98e4f05bf81b6ee0f58cf0e3f41dd",
          "blockNumber": "0x5b708b",
          "transactionHash": "0x28e352ab3993d251d4d50fda556c45e31cd7f23bf2b846b45a9865f262843a24",
          "transactionIndex": "0x16",
          "logIndex": "0x3a",
          "removed": false
        },
        {
          "address": "0xc6eaf449f79b081300f5317122b2dff3f039ad0b",
          "topics": [
            "0x442e715f626346e8c54381002da614f62bee8d27386535b2521ec8540898556e"
          ],
          "data": "0xaa9a6800a7e86bcb67b6c05efb184027f847e66bd06770b55eb634828c858e750000000000000000000000000000000000000000000000000000000000000000",
          "blockHash": "0x29d86f0725d44d25a4f199eb11969627d2a98e4f05bf81b6ee0f58cf0e3f41dd",
          "blockNumber": "0x5b708b",
          "transactionHash": "0x28e352ab3993d251d4d50fda556c45e31cd7f23bf2b846b45a9865f262843a24",
          "transactionIndex": "0x16",
          "logIndex": "0x3b",
          "removed": false
        }
      ],
      "logsBloom": "0x00000000400000000000000000000000000000000000000000000000040000000000000000000000000000001000000000000000000000000000000000000000000000000000000000000000000000000000040000000000000000000000000000000000000020000000000000000000000000000000000000000000000040000000004000000000000002000000000000000010000000000000000000000000000000000400000010000000000004000000000000000000000200000000000000000000000000000000000000020000000000000000000000000010000000000000000000000000000000000000000000000000000000000000000000000000",
      "type": "0x0",
      "transactionHash": "0x28e352ab3993d251d4d50fda556c45e31cd7f23bf2b846b45a9865f262843a24",
      "transactionIndex": "0x16",
      "blockHash": "0x29d86f0725d44d25a4f199eb11969627d2a98e4f05bf81b6ee0f58cf0e3f41dd",
      "blockNumber": "0x5b708b",
      "gasUsed": "0x152b6",
      "effectiveGasPrice": "0x1337969ccb",
      "from": "0x2f9e113434aebdd70bb99cb6505e1f726c578d6d",
      "to": "0xc6eaf449f79b081300f5317122b2dff3f039ad0b",
      "contractAddress": null
    },
    {
      "status": "0x1",
      "cumulativeGasUsed": "0xb183e7",
      "logs": [
        {
          "address": "0xa8ea1b06621ce640762ccb12e9bcab03723b76c7",
          "topics": [
            "0xddf252ad1be2c89b69c2b068fc378daa952ba7f163c4a11628f55a4df523b3ef",
            "0x0000000000000000000000000000000000000000000000000000000000000000",
            "0x0000000000000000000000002f9e113434aebdd70bb99cb6505e1f726c578d6d"
          ],
          "data": "0x00000000000000000000000000000000000000000000021e19e0c9bab2400000",
          "blockHash": "0x29d86f0725d44d25a4f199eb11969627d2a98e4f05bf81b6ee0f58cf0e3f41dd",
          "blockNumber": "0x5b708b",
          "transactionHash": "0xe211fb49231f5a0b21fbeb2859d714c69719c3a98792c6c5e2b7344bba9c559f",
          "transactionIndex": "0x17",
          "logIndex": "0x3c",
          "removed": false
        }
      ],
      "logsBloom": "0x00000000000000000000000000000000000000000000000000000000000000000000000000000000000000000000000000000000000000000000200000000000000000000000000000000008000000000000000000000000400000000000000000000000020000000000000000000800000000000000000000000010000000000000000000000000000000000000800000000000000000000000000000000000000000000000000000000000000000000000000000000200000000000000000000000002000000000000000000000000000000000000000000000000000020000000000000000200000000000000000000000000000008000000000000000000",
      "type": "0x0",
      "transactionHash": "0xe211fb49231f5a0b21fbeb2859d714c69719c3a98792c6c5e2b7344bba9c559f",
      "transactionIndex": "0x17",
      "blockHash": "0x29d86f0725d44d25a4f199eb11969627d2a98e4f05bf81b6ee0f58cf0e3f41dd",
      "blockNumber": "0x5b708b",
      "gasUsed": "0x84f5",
      "effectiveGasPrice": "0x1337969ccb",
      "from": "0x2f9e113434aebdd70bb99cb6505e1f726c578d6d",
      "to": "0xa8ea1b06621ce640762ccb12e9bcab03723b76c7",
      "contractAddress": null
    },
    {
      "status": "0x1",
      "cumulativeGasUsed": "0xb238f2",
      "logs": [
        {
          "address": "0xa8ea1b06621ce640762ccb12e9bcab03723b76c7",
          "topics": [
            "0x8c5be1e5ebec7d5bd14f71427d1e84f3dd0314c0f7b2291e5b200ac8c7c3b925",
            "0x0000000000000000000000002f9e113434aebdd70bb99cb6505e1f726c578d6d",
            "0x000000000000000000000000a65b4dfd31378b451e75107854fe2315993ed905"
          ],
          "data": "0xffffffffffffffffffffffffffffffffffffffffffffffffffffffffffffffff",
          "blockHash": "0x29d86f0725d44d25a4f199eb11969627d2a98e4f05bf81b6ee0f58cf0e3f41dd",
          "blockNumber": "0x5b708b",
          "transactionHash": "0x2de17451abb2a51ca83a0654278302c2ad691a219361a4d045ba0f101fcf2784",
          "transactionIndex": "0x18",
          "logIndex": "0x3d",
          "removed": false
        }
      ],
      "logsBloom": "0x00000000000000000000000000000000000000000000000000000000000000000000000000000000000000000000000000000000000000000000200000200000000000000000000000000000000000000000000000000000400000000000000000000000000000000000000000000000000000000000000000000000000000000000000000000002000000000000800000000000000000000000000000000000020000000000000000000000000000000000000000000200000000000000000000000000000000000000000000000000000000000000000000000000000000000010010000000200000000000000000000000000000008000020000000000000",
      "type": "0x0",
      "transactionHash": "0x2de17451abb2a51ca83a0654278302c2ad691a219361a4d045ba0f101fcf2784",
      "transactionIndex": "0x18",
      "blockHash": "0x29d86f0725d44d25a4f199eb11969627d2a98e4f05bf81b6ee0f58cf0e3f41dd",
      "blockNumber": "0x5b708b",
      "gasUsed": "0xb50b",
      "effectiveGasPrice": "0x1337969ccb",
      "from": "0x2f9e113434aebdd70bb99cb6505e1f726c578d6d",
      "to": "0xa8ea1b06621ce640762ccb12e9bcab03723b76c7",
      "contractAddress": null
    },
    {
      "status": "0x1",
      "cumulativeGasUsed": "0xb433ea",
      "logs": [
        {
          "address": "0xa8ea1b06621ce640762ccb12e9bcab03723b76c7",
          "topics": [
            "0xddf252ad1be2c89b69c2b068fc378daa952ba7f163c4a11628f55a4df523b3ef",
            "0x0000000000000000000000002f9e113434aebdd70bb99cb6505e1f726c578d6d",
            "0x000000000000000000000000a65b4dfd31378b451e75107854fe2315993ed905"
          ],
          "data": "0x0000000000000000000000000000000000000000000000000de0b6b3a7640000",
          "blockHash": "0x29d86f0725d44d25a4f199eb11969627d2a98e4f05bf81b6ee0f58cf0e3f41dd",
          "blockNumber": "0x5b708b",
          "transactionHash": "0xad5cf435de59c4e06ddbf47d87d1ec5288d11735207463a9ba0e0eeb41598651",
          "transactionIndex": "0x19",
          "logIndex": "0x3e",
          "removed": false
        },
        {
          "address": "0xa65b4dfd31378b451e75107854fe2315993ed905",
          "topics": [
            "0x67e0244e28040fec15240cd4b6c04c776a2a0278caef23b59e8ada1df31f7689"
          ],
          "data": "0x0000000000000000000000002f9e113434aebdd70bb99cb6505e1f726c578d6d0000000000000000000000000000000000000000000000000de0b6b3a7640000",
          "blockHash": "0x29d86f0725d44d25a4f199eb11969627d2a98e4f05bf81b6ee0f58cf0e3f41dd",
          "blockNumber": "0x5b708b",
          "transactionHash": "0xad5cf435de59c4e06ddbf47d87d1ec5288d11735207463a9ba0e0eeb41598651",
          "transactionIndex": "0x19",
          "logIndex": "0x3f",
          "removed": false
        }
      ],
      "logsBloom": "0x00000000000000000000000000000000000000000000000000000000000000000000000000000000000004001000000000000000000000000000200000000000000000000000000000000008000000000000000000000000400000000000000000000000000000000000000000000000000000000000000000000010000040000000000000000002000000000000800000000200000000000000000000000000000000000000000000000000000000000000000000000200001200000000000000000002000000000000000000000000000000000000000000000000000000000000010000000200000000000000000000000000000008000020000000000000",
      "type": "0x0",
      "transactionHash": "0xad5cf435de59c4e06ddbf47d87d1ec5288d11735207463a9ba0e0eeb41598651",
      "transactionIndex": "0x19",
      "blockHash": "0x29d86f0725d44d25a4f199eb11969627d2a98e4f05bf81b6ee0f58cf0e3f41dd",
      "blockNumber": "0x5b708b",
      "gasUsed": "0x1faf8",
      "effectiveGasPrice": "0x1337969ccb",
      "from": "0x2f9e113434aebdd70bb99cb6505e1f726c578d6d",
      "to": "0xa65b4dfd31378b451e75107854fe2315993ed905",
      "contractAddress": null
    },
    {
      "status": "0x1",
      "cumulativeGasUsed": "0xb6a2ea",
      "logs": [
        {
          "address": "0xa65b4dfd31378b451e75107854fe2315993ed905",
          "topics": [
            "0xf56fa57e85e169a12200d12d9921ec069b52e688f6d309d9dab7bceff54614ec"
          ],
          "data": "0x0000000000000000000000002f9e113434aebdd70bb99cb6505e1f726c578d6d000000000000000000000000e666e787277a308b26d9971d04e4ccdaf8c8f6cd0000000000000000000000000000000000000000000000000de0b6b3a7640000",
          "blockHash": "0x29d86f0725d44d25a4f199eb11969627d2a98e4f05bf81b6ee0f58cf0e3f41dd",
          "blockNumber": "0x5b708b",
          "transactionHash": "0xfe787fc5837a30f34c7ef068d5af5360ba7a0f2c42239793612d3fc90c1d2691",
          "transactionIndex": "0x1a",
          "logIndex": "0x40",
          "removed": false
        }
      ],
      "logsBloom": "0x00000000000000000000000000000000000000000000000000000000000000000000000000000000000000001000000000000000000000000000000000000000000000000000000000000000000000000000000000000000000000000000000000000000000000000000000000000000000000000000000000000000000040000000000000000000000000002000000000000000000000000000000000000000000000000000000000000000000000000000000000000000000200000000000000000000000000000000000000000000000000000000000000000004000000000000000000000000000000000000000000000000000000000000000000100000",
      "type": "0x0",
      "transactionHash": "0xfe787fc5837a30f34c7ef068d5af5360ba7a0f2c42239793612d3fc90c1d2691",
      "transactionIndex": "0x1a",
      "blockHash": "0x29d86f0725d44d25a4f199eb11969627d2a98e4f05bf81b6ee0f58cf0e3f41dd",
      "blockNumber": "0x5b708b",
      "gasUsed": "0x26f00",
      "effectiveGasPrice": "0x1337969ccb",
      "from": "0x2f9e113434aebdd70bb99cb6505e1f726c578d6d",
      "to": "0xe666e787277a308b26d9971d04e4ccdaf8c8f6cd",
      "contractAddress": null
    },
    {
      "status": "0x1",
      "cumulativeGasUsed": "0xb8e040",
      "logs": [
        {
          "address": "0xe26a90d9fad6e67f3a1ba8497d9724b2bf8f5e59",
          "topics": [
            "0x0b9150e1e54346ed3fa36b977cd5d65dca5a649c737c3174a26bddaadd47667a"
          ],
          "data": "0x0000000000000000000000002f9e113434aebdd70bb99cb6505e1f726c578d6d0000000000000000000000000000000000000000000000000de0b6b3a76400000000000000000000000000000000000000000000000000000de0b6b3a7640000",
          "blockHash": "0x29d86f0725d44d25a4f199eb11969627d2a98e4f05bf81b6ee0f58cf0e3f41dd",
          "blockNumber": "0x5b708b",
          "transactionHash": "0x0bd09ec1f05b9d872560dfc37c7e0066e9960108126345fdaa51d9b68e11932e",
          "transactionIndex": "0x1b",
          "logIndex": "0x41",
          "removed": false
        },
        {
          "address": "0xa65b4dfd31378b451e75107854fe2315993ed905",
          "topics": [
            "0xf56fa57e85e169a12200d12d9921ec069b52e688f6d309d9dab7bceff54614ec"
          ],
          "data": "0x0000000000000000000000002f9e113434aebdd70bb99cb6505e1f726c578d6d000000000000000000000000e26a90d9fad6e67f3a1ba8497d9724b2bf8f5e590000000000000000000000000000000000000000000000000de0b6b3a7640000",
          "blockHash": "0x29d86f0725d44d25a4f199eb11969627d2a98e4f05bf81b6ee0f58cf0e3f41dd",
          "blockNumber": "0x5b708b",
          "transactionHash": "0x0bd09ec1f05b9d872560dfc37c7e0066e9960108126345fdaa51d9b68e11932e",
          "transactionIndex": "0x1b",
          "logIndex": "0x42",
          "removed": false
        }
      ],
      "logsBloom": "0x00000000000000000000000000000000000000000000000000000000000000000000000000040000000000001000000000000000000000000000000000000000000000000000000000000000000000000000000000000000200000000000000000000000000000000000000000000000000000000000000000000000000040000000000000000000000000002000000000000000000000000000000000000000000000000000000000000000000000000000000000000000000200000001000000000000020000000000000000000000000000000000000000000004000000000000000000000000800000000000000000000000000000000004000000100000",
      "type": "0x0",
      "transactionHash": "0x0bd09ec1f05b9d872560dfc37c7e0066e9960108126345fdaa51d9b68e11932e",
      "transactionIndex": "0x1b",
      "blockHash": "0x29d86f0725d44d25a4f199eb11969627d2a98e4f05bf81b6ee0f58cf0e3f41dd",
      "blockNumber": "0x5b708b",
      "gasUsed": "0x23d56",
      "effectiveGasPrice": "0x1337969ccb",
      "from": "0x2f9e113434aebdd70bb99cb6505e1f726c578d6d",
      "to": "0xe26a90d9fad6e67f3a1ba8497d9724b2bf8f5e59",
      "contractAddress": null
    },
    {
      "status": "0x1",
      "cumulativeGasUsed": "0xb9478f",
      "logs": [
        {
          "address": "0xa8ea1b06621ce640762ccb12e9bcab03723b76c7",
          "topics": [
            "0x8c5be1e5ebec7d5bd14f71427d1e84f3dd0314c0f7b2291e5b200ac8c7c3b925",
            "0x0000000000000000000000002f9e113434aebdd70bb99cb6505e1f726c578d6d",
            "0x0000000000000000000000001133ea7af70876e64665ecd07c0a0476d09465a1"
          ],
          "data": "0xffffffffffffffffffffffffffffffffffffffffffffffffffffffffffffffff",
          "blockHash": "0x29d86f0725d44d25a4f199eb11969627d2a98e4f05bf81b6ee0f58cf0e3f41dd",
          "blockNumber": "0x5b708b",
          "transactionHash": "0x59b25599a5c19d36c1d385d7e1577528c92527728513a54c1569c021379fad02",
          "transactionIndex": "0x1c",
          "logIndex": "0x43",
          "removed": false
        }
      ],
      "logsBloom": "0x00000000000000000000000000000000000000000000000000000000000000000000000000000000000000000000000000000000000000000000200000200000000000000000000000000000000000000000000000000000400000000000000000000000000001000000000000000000000000000000000000000000000000000000000000000000000000000000800000000000004000000000000000000000020000000000000000000000000000000000000000000200000000000000000000000000000000000000000000000000000000000000010000000000000000000010000000000200000000000000000000000000000008000000000000000000",
      "type": "0x0",
      "transactionHash": "0x59b25599a5c19d36c1d385d7e1577528c92527728513a54c1569c021379fad02",
      "transactionIndex": "0x1c",
      "blockHash": "0x29d86f0725d44d25a4f199eb11969627d2a98e4f05bf81b6ee0f58cf0e3f41dd",
      "blockNumber": "0x5b708b",
      "gasUsed": "0x674f",
      "effectiveGasPrice": "0x1337969ccb",
      "from": "0x2f9e113434aebdd70bb99cb6505e1f726c578d6d",
      "to": "0xa8ea1b06621ce640762ccb12e9bcab03723b76c7",
      "contractAddress": null
    },
    {
      "status": "0x1",
      "cumulativeGasUsed": "0xbb228a",
      "logs": [
        {
          "address": "0xa8ea1b06621ce640762ccb12e9bcab03723b76c7",
          "topics": [
            "0xddf252ad1be2c89b69c2b068fc378daa952ba7f163c4a11628f55a4df523b3ef",
            "0x0000000000000000000000002f9e113434aebdd70bb99cb6505e1f726c578d6d",
            "0x000000000000000000000000e666e787277a308b26d9971d04e4ccdaf8c8f6cd"
          ],
          "data": "0x00000000000000000000000000000000000000000000003635c9adc5dea00000",
          "blockHash": "0x29d86f0725d44d25a4f199eb11969627d2a98e4f05bf81b6ee0f58cf0e3f41dd",
          "blockNumber": "0x5b708b",
          "transactionHash": "0x250a080600f8f73dfb583319c7e861dfa87a0ef0ae21a48177ccfc86b9d2c503",
          "transactionIndex": "0x1d",
          "logIndex": "0x44",
          "removed": false
        },
        {
          "address": "0xe666e787277a308b26d9971d04e4ccdaf8c8f6cd",
          "topics": [
            "0x46aeb5d8770fc4474bc2dfa118fd2595f7fb33ce2cbce6f4e5a3dabfe0f76339"
          ],
          "data": "0x00000000000000000000000000000000000000000000003635c9adc5dea00000",
          "blockHash": "0x29d86f0725d44d25a4f199eb11969627d2a98e4f05bf81b6ee0f58cf0e3f41dd",
          "blockNumber": "0x5b708b",
          "transactionHash": "0x250a080600f8f73dfb583319c7e861dfa87a0ef0ae21a48177ccfc86b9d2c503",
          "transactionIndex": "0x1d",
          "logIndex": "0x45",
          "removed": false
        },
        {
          "address": "0x1133ea7af70876e64665ecd07c0a0476d09465a1",
          "topics": [
            "0xbf59838198f4ea92f663f5c1fc697f151a1b746b7dff86d564f250a55cbb4851",
            "0x00000000000000000000000000000000000000000000000000000000000000c8"
          ],
          "data": "0x00000000000000000000000000000000000000000000003635c9adc5dea000000000000000000000000000000000000000000000000000000000000000000000",
          "blockHash": "0x29d86f0725d44d25a4f199eb11969627d2a98e4f05bf81b6ee0f58cf0e3f41dd",
          "blockNumber": "0x5b708b",
          "transactionHash": "0x250a080600f8f73dfb583319c7e861dfa87a0ef0ae21a48177ccfc86b9d2c503",
          "transactionIndex": "0x1d",
          "logIndex": "0x46",
          "removed": false
        }
      ],
      "logsBloom": "0x20000000000000000000000000000020000000000000000000000000800000004000000000000000000000010000800000020000000000000000200000000000000000000000000000000008000000000000000000000000400000000000000000000000000000000000000000000000000080000000000000000010000000000000000000040000000000000000800000000000000000002000000000000000000000000000000000000000000000000000200020000200000000000000000000000202000200000010000400000000000000000000000000000000000000000000000000000200000000000000000000000000000008100000200000000000",
      "type": "0x0",
      "transactionHash": "0x250a080600f8f73dfb583319c7e861dfa87a0ef0ae21a48177ccfc86b9d2c503",
      "transactionIndex": "0x1d",
      "blockHash": "0x29d86f0725d44d25a4f199eb11969627d2a98e4f05bf81b6ee0f58cf0e3f41dd",
      "blockNumber": "0x5b708b",
      "gasUsed": "0x1dafb",
      "effectiveGasPrice": "0x1337969ccb",
      "from": "0x2f9e113434aebdd70bb99cb6505e1f726c578d6d",
      "to": "0x1133ea7af70876e64665ecd07c0a0476d09465a1",
      "contractAddress": null
    },
    {
      "status": "0x1",
      "cumulativeGasUsed": "0xc06ff0",
      "logs": [
        {
          "address": "0xe666e787277a308b26d9971d04e4ccdaf8c8f6cd",
          "topics": [
            "0xfcf3b1aa65a464cef2889608f99e8b8c0f680a4be6c2acb9d961c536a5a9294b"
          ],
          "data": "0x00000000000000000000000000000000000000000000000000000000000000c80000000000000000000000000000000000000000000000000000000000000001",
          "blockHash": "0x29d86f0725d44d25a4f199eb11969627d2a98e4f05bf81b6ee0f58cf0e3f41dd",
          "blockNumber": "0x5b708b",
          "transactionHash": "0xb81b49983a49313fbda18998d2cdd490fc52f2e556618a37189829ac96307f9b",
          "transactionIndex": "0x1e",
          "logIndex": "0x47",
          "removed": false
        }
      ],
      "logsBloom": "0x00000000000000000000000000000000000000000000000000000080000000000000000000000000000000000000008000000000000800000000000000000000000000000000000000000000000000000000000000000000000000000000000000000000000000000000000000000000000000000000000000000000000000000000000000040000000000000000000000000000000000000000000000000000000000000000000000000000000000000000000020000000000000000000000000000000000000000000000400000000000000000000000000000000000000000000000000000000000000000000000000000000000000000000000000000000",
      "type": "0x0",
      "transactionHash": "0xb81b49983a49313fbda18998d2cdd490fc52f2e556618a37189829ac96307f9b",
      "transactionIndex": "0x1e",
      "blockHash": "0x29d86f0725d44d25a4f199eb11969627d2a98e4f05bf81b6ee0f58cf0e3f41dd",
      "blockNumber": "0x5b708b",
      "gasUsed": "0x54d66",
      "effectiveGasPrice": "0x1337969ccb",
      "from": "0x2f9e113434aebdd70bb99cb6505e1f726c578d6d",
      "to": "0x1133ea7af70876e64665ecd07c0a0476d09465a1",
      "contractAddress": null
    },
    {
      "status": "0x1",
      "cumulativeGasUsed": "0xc57a8a",
      "logs": [
        {
          "address": "0xe666e787277a308b26d9971d04e4ccdaf8c8f6cd",
          "topics": [
            "0xfcf3b1aa65a464cef2889608f99e8b8c0f680a4be6c2acb9d961c536a5a9294b"
          ],
          "data": "0x00000000000000000000000000000000000000000000000000000000000000c80000000000000000000000000000000000000000000000000000000000000002",
          "blockHash": "0x29d86f0725d44d25a4f199eb11969627d2a98e4f05bf81b6ee0f58cf0e3f41dd",
          "blockNumber": "0x5b708b",
          "transactionHash": "0x107eb7f6e4ff982031e2fc3684388c37b8783f989c0b28ec25444f6b4f9ec7c9",
          "transactionIndex": "0x1f",
          "logIndex": "0x48",
          "removed": false
        }
      ],
      "logsBloom": "0x00000000000000000000000000000000000000000000000000000080000000000000000000000000000000000000008000000000000800000000000000000000000000000000000000000000000000000000000000000000000000000000000000000000000000000000000000000000000000000000000000000000000000000000000000040000000000000000000000000000000000000000000000000000000000000000000000000000000000000000000020000000000000000000000000000000000000000000000400000000000000000000000000000000000000000000000000000000000000000000000000000000000000000000000000000000",
      "type": "0x0",
      "transactionHash": "0x107eb7f6e4ff982031e2fc3684388c37b8783f989c0b28ec25444f6b4f9ec7c9",
      "transactionIndex": "0x1f",
      "blockHash": "0x29d86f0725d44d25a4f199eb11969627d2a98e4f05bf81b6ee0f58cf0e3f41dd",
      "blockNumber": "0x5b708b",
      "gasUsed": "0x50a9a",
      "effectiveGasPrice": "0x1337969ccb",
      "from": "0x2f9e113434aebdd70bb99cb6505e1f726c578d6d",
      "to": "0x1133ea7af70876e64665ecd07c0a0476d09465a1",
      "contractAddress": null
    },
    {
      "status": "0x1",
      "cumulativeGasUsed": "0xca8518",
      "logs": [
        {
          "address": "0xe666e787277a308b26d9971d04e4ccdaf8c8f6cd",
          "topics": [
            "0xfcf3b1aa65a464cef2889608f99e8b8c0f680a4be6c2acb9d961c536a5a9294b"
          ],
          "data": "0x00000000000000000000000000000000000000000000000000000000000000c80000000000000000000000000000000000000000000000000000000000000003",
          "blockHash": "0x29d86f0725d44d25a4f199eb11969627d2a98e4f05bf81b6ee0f58cf0e3f41dd",
          "blockNumber": "0x5b708b",
          "transactionHash": "0x2c3c430e1423572710aa53911f0846da1ebe95eaa5c76dd7cb03497442ea7dbe",
          "transactionIndex": "0x20",
          "logIndex": "0x49",
          "removed": false
        }
      ],
      "logsBloom": "0x00000000000000000000000000000000000000000000000000000080000000000000000000000000000000000000008000000000000800000000000000000000000000000000000000000000000000000000000000000000000000000000000000000000000000000000000000000000000000000000000000000000000000000000000000040000000000000000000000000000000000000000000000000000000000000000000000000000000000000000000020000000000000000000000000000000000000000000000400000000000000000000000000000000000000000000000000000000000000000000000000000000000000000000000000000000",
      "type": "0x0",
      "transactionHash": "0x2c3c430e1423572710aa53911f0846da1ebe95eaa5c76dd7cb03497442ea7dbe",
      "transactionIndex": "0x20",
      "blockHash": "0x29d86f0725d44d25a4f199eb11969627d2a98e4f05bf81b6ee0f58cf0e3f41dd",
      "blockNumber": "0x5b708b",
      "gasUsed": "0x50a8e",
      "effectiveGasPrice": "0x1337969ccb",
      "from": "0x2f9e113434aebdd70bb99cb6505e1f726c578d6d",
      "to": "0x1133ea7af70876e64665ecd07c0a0476d09465a1",
      "contractAddress": null
    },
    {
      "status": "0x1",
      "cumulativeGasUsed": "0xcc48d1",
      "logs": [
        {
          "address": "0xe26a90d9fad6e67f3a1ba8497d9724b2bf8f5e59",
          "topics": [
            "0xfcf3b1aa65a464cef2889608f99e8b8c0f680a4be6c2acb9d961c536a5a9294b"
          ],
          "data": "0x00000000000000000000000000000000000000000000000000000000000000c90000000000000000000000000000000000000000000000000000000000000001",
          "blockHash": "0x28fe02cdb979e9672900180ee21d19d70c6d01cb054748abc731392cb03d8664",
          "blockNumber": "0x5b708d",
          "transactionHash": "0x2df842901569cbb9b0947ccb815ff873cf3a8c696887c8c5fbf1f27ed393ee01",
          "transactionIndex": "0x5d",
          "logIndex": "0xa4",
          "removed": false
        }
      ],
      "logsBloom": "0x00000000000000000000000000000000000000000000000000000080000000000000000000040000000000000000008000000000000800000000000000000000000000000000000000000000000000000000000000000000000000000000000000000000000000000000000000000000000000000000000000000000000000000000000000000000000000000000000000000000000000000000000000000000000000000000000000000000000000000000000000000000000000000000000000000000020000000000000000000000000000000000000000000000000000000000000000000000800000000000000000000000000000000000000000000000",
      "type": "0x0",
      "transactionHash": "0x2df842901569cbb9b0947ccb815ff873cf3a8c696887c8c5fbf1f27ed393ee01",
      "transactionIndex": "0x5d",
      "blockHash": "0x28fe02cdb979e9672900180ee21d19d70c6d01cb054748abc731392cb03d8664",
      "blockNumber": "0x5b708d",
      "gasUsed": "0x44601",
      "effectiveGasPrice": "0x1337969ccb",
      "from": "0x2f9e113434aebdd70bb99cb6505e1f726c578d6d",
      "to": "0x1133ea7af70876e64665ecd07c0a0476d09465a1",
      "contractAddress": null
    }
  ],
  "libraries": [],
  "pending": [],
  "returns": {},
  "timestamp": 1716877705,
  "chain": 11155111,
  "commit": "9453100"
}