{
  "transactions": [
    {
      "hash": "0xe69837e154fa8650bb85f988f9c2e5e5ce5a9a10ad57076971149c948b880d53",
      "transactionType": "CREATE",
      "contractName": "ProxyOwner",
      "contractAddress": "0x4915ffe14afd47962cf8ed9cd3d4c77ead604eeb",
      "function": null,
      "arguments": null,
      "transaction": {
        "from": "0xb05a948b5c1b057b88d381bde3a375efea87ebad",
        "gas": "0xf798f",
        "value": "0x0",
        "input": "0x60a080604052346100315730608052610c75908161003782396080518181816103270152818161044801526106c00152f35b600080fdfe60406080815260048036101561001457600080fd5b600091823560e01c9182633659cfe6146106995782634f1ef286146103cf57826352d1902d14610313578263715018a6146102be57826379ba5097146102745782638da5cb5b1461024b578263c4d66de81461012357508163e30c3978146100f6575063f2fde38b1461008657600080fd5b346100f35760203660031901126100f35761009f610859565b6100a76108e3565b606580546001600160a01b0319166001600160a01b039283169081179091556033549091167f38d16b8cac22d99fc7c124b9cd0de2d3fa1faef420bfe791d8c362d765e227008380a380f35b80fd5b90503461011f578160031936011261011f5760655490516001600160a01b039091168152602090f35b5080fd5b909150346102475760203660031901126102475761013f610859565b835460ff8160081c16159283809461023a575b8015610223575b156101c9575060ff198116600117855561017a9190836101b8575b50610b3d565b610182575080f35b60207f7f26b83ff96e1f2b6a682f133852f6798a09c465da95921460cefb38474024989161ff001984541684555160018152a180f35b61ffff191661010117855538610174565b608490602086519162461bcd60e51b8352820152602e60248201527f496e697469616c697a61626c653a20636f6e747261637420697320616c72656160448201526d191e481a5b9a5d1a585b1a5e995960921b6064820152fd5b50303b1580156101595750600160ff831614610159565b50600160ff831610610152565b8280fd5b83823461011f578160031936011261011f5760335490516001600160a01b039091168152602090f35b915034610247578260031936011261024757606554336001600160a01b03909116036102a757826102a433610b3d565b80f35b60249250519063118cdaa760e01b82523390820152fd5b83346100f357806003193601126100f3576102d76108e3565b606580546001600160a01b031990811690915560338054918216905581906001600160a01b0316600080516020610be08339815191528280a380f35b83346100f357806003193601126100f357507f00000000000000000000000000000000000000000000000000000000000000006001600160a01b0316300361036c5760208251600080516020610bc08339815191528152f35b6020608492519162461bcd60e51b8352820152603860248201527f555550535570677261646561626c653a206d757374206e6f742062652063616c6044820152771b1959081d1a1c9bdd59da0819195b1959d85d1958d85b1b60421b6064820152fd5b915080600319360112610247576103e4610859565b90602435906001600160401b0382116106955736602383011215610695578184013561040f816108c8565b61041b835191826108a5565b81815286602094858301933660248284010111610247578060248893018637830101526001600160a01b037f00000000000000000000000000000000000000000000000000000000000000008116906104763083141561093b565b610493600080516020610bc083398151915292828454161461098a565b61049b6108e3565b600080516020610b808339815191525460ff16156104c3575050505050506102a491506109d9565b869293949596169085516352d1902d60e01b815287818a81865afa8a9181610662575b5061053357865162461bcd60e51b8152808a01899052602e6024820152600080516020610c2083398151915260448201526d6f6e206973206e6f74205555505360901b6064820152608490fd5b97919293969594970361060d575061054a826109d9565b600080516020610c008339815191528780a285845115801590610605575b610576575b50505050505080f35b806105ef9684519661058788610874565b602788527f416464726573733a206c6f772d6c6576656c2064656c65676174652063616c6c87890152660819985a5b195960ca1b868901525190845af4913d156105fb573d6105e16105d8826108c8565b925192836108a5565b81528681943d92013e610a69565b5038808080808561056d565b5060609250610a69565b506001610568565b835162461bcd60e51b8152908101859052602960248201527f45524331393637557067726164653a20756e737570706f727465642070726f786044820152681a58589b195555525160ba1b6064820152608490fd5b9091508881813d831161068e575b61067a81836108a5565b8101031261068a575190386104e6565b8a80fd5b503d610670565b8480fd5b91503461024757602080600319360112610855576106b5610859565b916001600160a01b037f000000000000000000000000000000000000000000000000000000000000000081166106ed3082141561093b565b61070a600080516020610bc083398151915291838354161461098a565b6107126108e3565b8251848101929091906001600160401b0384118385101761084257838552888352600080516020610b808339815191525460ff161561075b575050505050506102a491506109d9565b869293949596169085516352d1902d60e01b815287818a81865afa8a9181610813575b506107cb57865162461bcd60e51b8152808a01899052602e6024820152600080516020610c2083398151915260448201526d6f6e206973206e6f74205555505360901b6064820152608490fd5b97919293969594970361060d57506107e2826109d9565b600080516020610c008339815191528780a28584511580159061080c576105765750505050505080f35b5080610568565b9091508881813d831161083b575b61082b81836108a5565b8101031261068a5751903861077e565b503d610821565b634e487b7160e01b895260418852602489fd5b8380fd5b600435906001600160a01b038216820361086f57565b600080fd5b606081019081106001600160401b0382111761088f57604052565b634e487b7160e01b600052604160045260246000fd5b601f909101601f19168101906001600160401b0382119082101761088f57604052565b6001600160401b03811161088f57601f01601f191660200190565b6033546001600160a01b031633036108f757565b606460405162461bcd60e51b815260206004820152602060248201527f4f776e61626c653a2063616c6c6572206973206e6f7420746865206f776e65726044820152fd5b1561094257565b60405162461bcd60e51b815260206004820152602c6024820152600080516020610ba083398151915260448201526b19195b1959d85d1958d85b1b60a21b6064820152608490fd5b1561099157565b60405162461bcd60e51b815260206004820152602c6024820152600080516020610ba083398151915260448201526b6163746976652070726f787960a01b6064820152608490fd5b803b15610a0e57600080516020610bc083398151915280546001600160a01b0319166001600160a01b03909216919091179055565b60405162461bcd60e51b815260206004820152602d60248201527f455243313936373a206e657720696d706c656d656e746174696f6e206973206e60448201526c1bdd08184818dbdb9d1c9858dd609a1b6064820152608490fd5b91929015610acb5750815115610a7d575090565b3b15610a865790565b60405162461bcd60e51b815260206004820152601d60248201527f416464726573733a2063616c6c20746f206e6f6e2d636f6e74726163740000006044820152606490fd5b825190915015610ade5750805190602001fd5b6040519062461bcd60e51b82528160208060048301528251908160248401526000935b828510610b24575050604492506000838284010152601f80199101168101030190fd5b8481018201518686016044015293810193859350610b01565b606580546001600160a01b0319908116909155603380549182166001600160a01b039384169081179091559116600080516020610be0833981519152600080a356fe4910fdfa16fed3260ed0e7147f7cc6da11a60208b5b9406d12a635614ffd914346756e6374696f6e206d7573742062652063616c6c6564207468726f75676820360894a13ba1a3210667c828492db98dca3e2076cc3735a920a3ca505d382bbc8be0079c531659141344cd1fd0a4f28419497f9722a3daafe3b4186f6b6457e0bc7cd75a20ee27fd9adebab32041f755214dbc6bffa90cc0225b39da2e5c2d3b45524331393637557067726164653a206e657720696d706c656d656e74617469a264697066735822122095dd4d2a5c194bfb1dbff104f39ee7131051171aea85fa95e6fba516911de91b64736f6c63430008130033",
        "nonce": "0xc9c",
        "chainId": "0x66eee"
      },
      "additionalContracts": [],
      "isFixedGasLimit": false
    },
    {
      "hash": "0x79f47921d11b6b077ca0252f65feda2d4a8df893733565e7858c4f86fd7043f5",
      "transactionType": "CALL",
      "contractName": null,
      "contractAddress": "0x333837ec0d4f3d9b3df0216996a148b46ce3541b",
      "function": "upgradeTo(address)",
      "arguments": [
        "0x4915FFE14aFD47962CF8ed9Cd3d4C77eAD604EeB"
      ],
      "transaction": {
        "from": "0xb05a948b5c1b057b88d381bde3a375efea87ebad",
        "to": "0x333837ec0d4f3d9b3df0216996a148b46ce3541b",
        "gas": "0xd202",
        "value": "0x0",
        "input": "0x3659cfe60000000000000000000000004915ffe14afd47962cf8ed9cd3d4c77ead604eeb",
        "nonce": "0xc9d",
        "chainId": "0x66eee"
      },
      "additionalContracts": [],
      "isFixedGasLimit": false
    },
    {
      "hash": "0x9430fa185943ef91882299296a182a8e18d7d1d9268636cfa989f471252ba3d8",
      "transactionType": "CALL",
      "contractName": "ERC1967Proxy",
      "contractAddress": "0x5534fecacd5f84e22c0aba9ea9813ff594d37262",
      "function": null,
      "arguments": null,
      "transaction": {
        "from": "0xb05a948b5c1b057b88d381bde3a375efea87ebad",
        "to": "0x5534fecacd5f84e22c0aba9ea9813ff594d37262",
        "gas": "0xe3bf",
        "value": "0x0",
        "input": "0xf2fde38b000000000000000000000000333837ec0d4f3d9b3df0216996a148b46ce3541b",
        "nonce": "0xc9e",
        "chainId": "0x66eee"
      },
      "additionalContracts": [],
      "isFixedGasLimit": false
    },
    {
      "hash": "0xc32a46172354cd650310054c0ba24f46f85463f65576c02dd91ad7edc1d5a603",
      "transactionType": "CALL",
      "contractName": "ERC1967Proxy",
      "contractAddress": "0x32fe66622a4d4607241ac723e23fef487acdabb5",
      "function": null,
      "arguments": null,
      "transaction": {
        "from": "0xb05a948b5c1b057b88d381bde3a375efea87ebad",
        "to": "0x32fe66622a4d4607241ac723e23fef487acdabb5",
        "gas": "0xe3eb",
        "value": "0x0",
        "input": "0xf2fde38b000000000000000000000000333837ec0d4f3d9b3df0216996a148b46ce3541b",
        "nonce": "0xc9f",
        "chainId": "0x66eee"
      },
      "additionalContracts": [],
      "isFixedGasLimit": false
    },
    {
      "hash": "0x2a0fac01cdf1701eedc788610297e369846819e9ce7e3fbf3d822644cdbed6a9",
      "transactionType": "CALL",
      "contractName": "ERC1967Proxy",
      "contractAddress": "0x2689b1e4afcbfb393d9727fba2ab52930035ee85",
      "function": null,
      "arguments": null,
      "transaction": {
        "from": "0xb05a948b5c1b057b88d381bde3a375efea87ebad",
        "to": "0x2689b1e4afcbfb393d9727fba2ab52930035ee85",
        "gas": "0xe45e",
        "value": "0x0",
        "input": "0xf2fde38b000000000000000000000000333837ec0d4f3d9b3df0216996a148b46ce3541b",
        "nonce": "0xca0",
        "chainId": "0x66eee"
      },
      "additionalContracts": [],
      "isFixedGasLimit": false
    },
    {
      "hash": "0x81b426964bf4f4ec157d318e30d20981d84b59fff0f750a6e351a18fe5c6f76e",
      "transactionType": "CALL",
      "contractName": "ERC1967Proxy",
      "contractAddress": "0x56eebe0562742156fce122221fa0eeda316e1be4",
      "function": null,
      "arguments": null,
      "transaction": {
        "from": "0xb05a948b5c1b057b88d381bde3a375efea87ebad",
        "to": "0x56eebe0562742156fce122221fa0eeda316e1be4",
        "gas": "0xe988",
        "value": "0x0",
        "input": "0xf2fde38b000000000000000000000000333837ec0d4f3d9b3df0216996a148b46ce3541b",
        "nonce": "0xca1",
        "chainId": "0x66eee"
      },
      "additionalContracts": [],
      "isFixedGasLimit": false
    },
    {
      "hash": "0xac9281926bf0928df84e2649e1bb2ea2aa2dd24ce428db7e6aa5761b01e5e918",
      "transactionType": "CALL",
      "contractName": "ERC1967Proxy",
      "contractAddress": "0x8ba06d3e65b57a1846fbf11dff9280eaec59812e",
      "function": null,
      "arguments": null,
      "transaction": {
        "from": "0xb05a948b5c1b057b88d381bde3a375efea87ebad",
        "to": "0x8ba06d3e65b57a1846fbf11dff9280eaec59812e",
        "gas": "0xe988",
        "value": "0x0",
        "input": "0xf2fde38b000000000000000000000000333837ec0d4f3d9b3df0216996a148b46ce3541b",
        "nonce": "0xca2",
        "chainId": "0x66eee"
      },
      "additionalContracts": [],
      "isFixedGasLimit": false
    },
    {
      "hash": "0xa47aaac1b2ac21769c554076367caf7bbb38ca7bffecdc2c629e37532be6cdf1",
      "transactionType": "CALL",
      "contractName": "ERC1967Proxy",
      "contractAddress": "0x59bd760d23ebe8f40906952052de48569ad6faac",
      "function": null,
      "arguments": null,
      "transaction": {
        "from": "0xb05a948b5c1b057b88d381bde3a375efea87ebad",
        "to": "0x59bd760d23ebe8f40906952052de48569ad6faac",
        "gas": "0xea84",
        "value": "0x0",
        "input": "0xf2fde38b000000000000000000000000333837ec0d4f3d9b3df0216996a148b46ce3541b",
        "nonce": "0xca3",
        "chainId": "0x66eee"
      },
      "additionalContracts": [],
      "isFixedGasLimit": false
    },
    {
      "hash": "0x606cf62ad518a1e1a150a4ddd3a5f64892e220e33abc3cce00e503973a8b5061",
      "transactionType": "CALL",
      "contractName": "ERC1967Proxy",
      "contractAddress": "0x5dc78c00a5d39060a81ade81de5c3592899be1dd",
      "function": null,
      "arguments": null,
      "transaction": {
        "from": "0xb05a948b5c1b057b88d381bde3a375efea87ebad",
        "to": "0x5dc78c00a5d39060a81ade81de5c3592899be1dd",
        "gas": "0xea84",
        "value": "0x0",
        "input": "0xf2fde38b000000000000000000000000333837ec0d4f3d9b3df0216996a148b46ce3541b",
        "nonce": "0xca4",
        "chainId": "0x66eee"
      },
      "additionalContracts": [],
      "isFixedGasLimit": false
    },
    {
      "hash": "0x3bbeafa45b57a1080efd7d1b1a442a926fcb5215a8c2abeb3ea7c98acc8a322b",
      "transactionType": "CALL",
      "contractName": "ERC1967Proxy",
      "contractAddress": "0x6a7608ed70439c42e0802b4c81ef7eb5ba3b0d0b",
      "function": null,
      "arguments": null,
      "transaction": {
        "from": "0xb05a948b5c1b057b88d381bde3a375efea87ebad",
        "to": "0x6a7608ed70439c42e0802b4c81ef7eb5ba3b0d0b",
        "gas": "0xea84",
        "value": "0x0",
        "input": "0xf2fde38b000000000000000000000000333837ec0d4f3d9b3df0216996a148b46ce3541b",
        "nonce": "0xca5",
        "chainId": "0x66eee"
      },
      "additionalContracts": [],
      "isFixedGasLimit": false
    },
    {
      "hash": "0x5e7b7d8a517b4994b90f5289192187ad5aeb670b91e3a7882a2cae9083141163",
      "transactionType": "CALL",
      "contractName": "ERC1967Proxy",
      "contractAddress": "0x89c99895efb30a86c38b511d093f786a5a64d037",
      "function": null,
      "arguments": null,
      "transaction": {
        "from": "0xb05a948b5c1b057b88d381bde3a375efea87ebad",
        "to": "0x89c99895efb30a86c38b511d093f786a5a64d037",
        "gas": "0xea84",
        "value": "0x0",
        "input": "0xf2fde38b000000000000000000000000333837ec0d4f3d9b3df0216996a148b46ce3541b",
        "nonce": "0xca6",
        "chainId": "0x66eee"
      },
      "additionalContracts": [],
      "isFixedGasLimit": false
    },
    {
      "hash": "0xc50467e943b34818e19420215093fa9176fff043e2350e368558098acf94286d",
      "transactionType": "CALL",
      "contractName": "ERC1967Proxy",
      "contractAddress": "0xb1d70992f85449807e23573cc27ea8c240d8a688",
      "function": null,
      "arguments": null,
      "transaction": {
        "from": "0xb05a948b5c1b057b88d381bde3a375efea87ebad",
        "to": "0xb1d70992f85449807e23573cc27ea8c240d8a688",
        "gas": "0xea84",
        "value": "0x0",
        "input": "0xf2fde38b000000000000000000000000333837ec0d4f3d9b3df0216996a148b46ce3541b",
        "nonce": "0xca7",
        "chainId": "0x66eee"
      },
      "additionalContracts": [],
      "isFixedGasLimit": false
    },
    {
      "hash": "0xdbd8643e35b8179b519fac579835be7cbf7cfe16ceeffb598796d93986b8915d",
      "transactionType": "CALL",
      "contractName": "ERC1967Proxy",
      "contractAddress": "0xc1af6e7a17f1114a4ba13ba86271492aab0291ed",
      "function": null,
      "arguments": null,
      "transaction": {
        "from": "0xb05a948b5c1b057b88d381bde3a375efea87ebad",
        "to": "0xc1af6e7a17f1114a4ba13ba86271492aab0291ed",
        "gas": "0xea84",
        "value": "0x0",
        "input": "0xf2fde38b000000000000000000000000333837ec0d4f3d9b3df0216996a148b46ce3541b",
        "nonce": "0xca8",
        "chainId": "0x66eee"
      },
      "additionalContracts": [],
      "isFixedGasLimit": false
    },
    {
      "hash": "0x84af44bbe4f971f4c587516d14019bf0cae3c336d3cbcece8ed007927da7b5d4",
      "transactionType": "CALL",
      "contractName": "ERC1967Proxy",
      "contractAddress": "0xe1fe0c77166350852cddbcf12ec4cb99e22694ed",
      "function": null,
      "arguments": null,
      "transaction": {
        "from": "0xb05a948b5c1b057b88d381bde3a375efea87ebad",
        "to": "0xe1fe0c77166350852cddbcf12ec4cb99e22694ed",
        "gas": "0xea84",
        "value": "0x0",
        "input": "0xf2fde38b000000000000000000000000333837ec0d4f3d9b3df0216996a148b46ce3541b",
        "nonce": "0xca9",
        "chainId": "0x66eee"
      },
      "additionalContracts": [],
      "isFixedGasLimit": false
    },
    {
      "hash": "0xc38e1e78f29346327bd0fafe42098c08b5a000ac2001eb2a0e7c3a06021fc88a",
      "transactionType": "CALL",
      "contractName": "ERC1967Proxy",
      "contractAddress": "0xe28de81057a4f5efae0a85eced25126de79990e0",
      "function": null,
      "arguments": null,
      "transaction": {
        "from": "0xb05a948b5c1b057b88d381bde3a375efea87ebad",
        "to": "0xe28de81057a4f5efae0a85eced25126de79990e0",
        "gas": "0xea84",
        "value": "0x0",
        "input": "0xf2fde38b000000000000000000000000333837ec0d4f3d9b3df0216996a148b46ce3541b",
        "nonce": "0xcaa",
        "chainId": "0x66eee"
      },
      "additionalContracts": [],
      "isFixedGasLimit": false
    },
    {
      "hash": "0x6518490213d6d9b6a2d17cda1ae5c18e6359d41bc9dc93308867c152bb296e7b",
      "transactionType": "CALL",
      "contractName": "ERC1967Proxy",
      "contractAddress": "0xf606cf11c1acd0685c4bef5dce92f4620ca49ef5",
      "function": null,
      "arguments": null,
      "transaction": {
        "from": "0xb05a948b5c1b057b88d381bde3a375efea87ebad",
        "to": "0xf606cf11c1acd0685c4bef5dce92f4620ca49ef5",
        "gas": "0xea84",
        "value": "0x0",
        "input": "0xf2fde38b000000000000000000000000333837ec0d4f3d9b3df0216996a148b46ce3541b",
        "nonce": "0xcab",
        "chainId": "0x66eee"
      },
      "additionalContracts": [],
      "isFixedGasLimit": false
    }
  ],
  "receipts": [
    {
      "status": "0x1",
      "cumulativeGasUsed": "0xd3fbc",
      "logs": [],
      "logsBloom": "0x00000000000000000000000000000000000000000000000000000000000000000000000000000000000000000000000000000000000000000000000000000000000000000000000000000000000000000000000000000000000000000000000000000000000000000000000000000000000000000000000000000000000000000000000000000000000000000000000000000000000000000000000000000000000000000000000000000000000000000000000000000000000000000000000000000000000000000000000000000000000000000000000000000000000000000000000000000000000000000000000000000000000000000000000000000000",
      "type": "0x2",
      "transactionHash": "0xe69837e154fa8650bb85f988f9c2e5e5ce5a9a10ad57076971149c948b880d53",
      "transactionIndex": "0x2",
      "blockHash": "0x5f5c5623fefafdc36ffc19010ff5897316cb0591716e18c4d592a997c98a7c6f",
      "blockNumber": "0x5e77b0e",
      "gasUsed": "0xbbd97",
      "effectiveGasPrice": "0x5f5e100",
      "from": "0xb05a948b5c1b057b88d381bde3a375efea87ebad",
      "to": null,
      "contractAddress": "0x4915ffe14afd47962cf8ed9cd3d4c77ead604eeb",
      "gasUsedForL1": "0x6b62",
      "l1BlockNumber": "0x6c9cc8"
    },
    {
      "status": "0x1",
      "cumulativeGasUsed": "0x9f3a",
      "logs": [
        {
          "address": "0x333837ec0d4f3d9b3df0216996a148b46ce3541b",
          "topics": [
            "0xbc7cd75a20ee27fd9adebab32041f755214dbc6bffa90cc0225b39da2e5c2d3b",
            "0x0000000000000000000000004915ffe14afd47962cf8ed9cd3d4c77ead604eeb"
          ],
          "data": "0x",
          "blockHash": "0x17b4fbff9b782120b52faa85fdfd6f16cc2c1d132751749fa797b5df6fb03f15",
          "blockNumber": "0x5e77b11",
          "transactionHash": "0x79f47921d11b6b077ca0252f65feda2d4a8df893733565e7858c4f86fd7043f5",
          "transactionIndex": "0x1",
          "logIndex": "0x0",
          "removed": false
        }
      ],
      "logsBloom": "0x00000000000000000000000000000080400000000000000000000000000000000000000000000000000000000000000000000000000000000000000000000000000000000000000000000000000002000000000000000000000000000000000000000000000000000000000000000000000000000000002000000000000000000000000000000000000000000000000000000000000080000000000000000000020000000000000000000000000000000000000200000000000000000080000000000020000000000000000000000000000000000000000000000000000000000000000000000000000000000000000000000000000000000000000000000000",
      "type": "0x2",
      "transactionHash": "0x79f47921d11b6b077ca0252f65feda2d4a8df893733565e7858c4f86fd7043f5",
      "transactionIndex": "0x1",
      "blockHash": "0x17b4fbff9b782120b52faa85fdfd6f16cc2c1d132751749fa797b5df6fb03f15",
      "blockNumber": "0x5e77b11",
      "gasUsed": "0x9f3a",
      "effectiveGasPrice": "0x5f5e100",
      "from": "0xb05a948b5c1b057b88d381bde3a375efea87ebad",
      "to": "0x333837ec0d4f3d9b3df0216996a148b46ce3541b",
      "contractAddress": null,
      "gasUsedForL1": "0x72e",
      "l1BlockNumber": "0x6c9cc8"
    },
    {
      "status": "0x1",
      "cumulativeGasUsed": "0xa879",
      "logs": [
        {
          "address": "0x5534fecacd5f84e22c0aba9ea9813ff594d37262",
          "topics": [
            "0x8be0079c531659141344cd1fd0a4f28419497f9722a3daafe3b4186f6b6457e0",
            "0x000000000000000000000000333837ec0d4f3d9b3df0216996a148b46ce3541b",
            "0x000000000000000000000000333837ec0d4f3d9b3df0216996a148b46ce3541b"
          ],
          "data": "0x",
          "blockHash": "0xd59a7ea4250bc0690f2a09f60dda8b9b30964e14ca8711fbe81ca19f2a990641",
          "blockNumber": "0x5e77b13",
          "transactionHash": "0x9430fa185943ef91882299296a182a8e18d7d1d9268636cfa989f471252ba3d8",
          "transactionIndex": "0x1",
          "logIndex": "0x0",
          "removed": false
        }
      ],
      "logsBloom": "0x00000000000000000000000000000000000000000000000000800000000000000000000000000000000000000000000000000000000000000000000000000000000000000000000000000000000000000001800000000000000000000000000000000000000000000000000000000000000000000000000000040000000000400000000000000000000000000000000000000000000000000100000000000000000000000000000000000000000000002000000000000000000000000000000000000000000000000000000000000000000000008000000000000000000000000000000000001000000000000000000000000000000000000000000000000000",
      "type": "0x2",
      "transactionHash": "0x9430fa185943ef91882299296a182a8e18d7d1d9268636cfa989f471252ba3d8",
      "transactionIndex": "0x1",
      "blockHash": "0xd59a7ea4250bc0690f2a09f60dda8b9b30964e14ca8711fbe81ca19f2a990641",
      "blockNumber": "0x5e77b13",
      "gasUsed": "0xa879",
      "effectiveGasPrice": "0x5f5e100",
      "from": "0xb05a948b5c1b057b88d381bde3a375efea87ebad",
      "to": "0x5534fecacd5f84e22c0aba9ea9813ff594d37262",
      "contractAddress": null,
      "gasUsedForL1": "0x72e",
      "l1BlockNumber": "0x6c9cc8"
    },
    {
      "status": "0x1",
      "cumulativeGasUsed": "0x20e25",
      "logs": [
        {
          "address": "0x32fe66622a4d4607241ac723e23fef487acdabb5",
          "topics": [
            "0x8be0079c531659141344cd1fd0a4f28419497f9722a3daafe3b4186f6b6457e0",
            "0x000000000000000000000000333837ec0d4f3d9b3df0216996a148b46ce3541b",
            "0x000000000000000000000000333837ec0d4f3d9b3df0216996a148b46ce3541b"
          ],
          "data": "0x",
          "blockHash": "0x5c5d4aaffb785d0a293310c94f5da60cf3f10c0d252d8e66967faff0fe197755",
          "blockNumber": "0x5e77b19",
          "transactionHash": "0xc32a46172354cd650310054c0ba24f46f85463f65576c02dd91ad7edc1d5a603",
          "transactionIndex": "0x2",
          "logIndex": "0x2",
          "removed": false
        }
      ],
      "logsBloom": "0x00000000000000000000000000000000000000000000000000800000000000000000000000004000000000000000000000000000000000000000000000000000000000000000000000000000000000000001800000000000000000000000000000000000000000000000000000000000000000000000000000000000000000400000000000000000000000000000000000000000000000000100000000000000000000000000000000000000000000000000000000000000000000000000000000000000000000000000000000000000000000009000000000000000000000000000000000000000000000000000000000020000000000000000000000000000",
      "type": "0x2",
      "transactionHash": "0xc32a46172354cd650310054c0ba24f46f85463f65576c02dd91ad7edc1d5a603",
      "transactionIndex": "0x2",
      "blockHash": "0x5c5d4aaffb785d0a293310c94f5da60cf3f10c0d252d8e66967faff0fe197755",
      "blockNumber": "0x5e77b19",
      "gasUsed": "0xa89b",
      "effectiveGasPrice": "0x5f5e100",
      "from": "0xb05a948b5c1b057b88d381bde3a375efea87ebad",
      "to": "0x32fe66622a4d4607241ac723e23fef487acdabb5",
      "contractAddress": null,
      "gasUsedForL1": "0x72e",
      "l1BlockNumber": "0x6c9cc8"
    },
    {
      "status": "0x1",
      "cumulativeGasUsed": "0xa8f2",
      "logs": [
        {
          "address": "0x2689b1e4afcbfb393d9727fba2ab52930035ee85",
          "topics": [
            "0x8be0079c531659141344cd1fd0a4f28419497f9722a3daafe3b4186f6b6457e0",
            "0x000000000000000000000000333837ec0d4f3d9b3df0216996a148b46ce3541b",
            "0x000000000000000000000000333837ec0d4f3d9b3df0216996a148b46ce3541b"
          ],
          "data": "0x",
          "blockHash": "0x262ba1035a3777431f3458198212af303844ef0df6801afdcca5b9cb5e6cf8a3",
          "blockNumber": "0x5e77b1b",
          "transactionHash": "0x2a0fac01cdf1701eedc788610297e369846819e9ce7e3fbf3d822644cdbed6a9",
          "transactionIndex": "0x1",
          "logIndex": "0x0",
          "removed": false
        }
      ],
      "logsBloom": "0x00000000000000000000000000000000000000000000000000800000400000000000000000000000000100000000000000000000000000000000000000000000000000000000000000000000000000000001800000000000000000000000000000000000000000000000000000000000000000000000000000000000000000400000000000000000000000000000000000000000000000000100800000000000000000000000000000000000000000000000000000000000000000000000000000000000000000000000000000000000000000008000000000000000000000000000000000000000000000000000000000000000000000000000000000000000",
      "type": "0x2",
      "transactionHash": "0x2a0fac01cdf1701eedc788610297e369846819e9ce7e3fbf3d822644cdbed6a9",
      "transactionIndex": "0x1",
      "blockHash": "0x262ba1035a3777431f3458198212af303844ef0df6801afdcca5b9cb5e6cf8a3",
      "blockNumber": "0x5e77b1b",
      "gasUsed": "0xa8f2",
      "effectiveGasPrice": "0x5f5e100",
      "from": "0xb05a948b5c1b057b88d381bde3a375efea87ebad",
      "to": "0x2689b1e4afcbfb393d9727fba2ab52930035ee85",
      "contractAddress": null,
      "gasUsedForL1": "0x72e",
      "l1BlockNumber": "0x6c9cc8"
    },
    {
      "status": "0x1",
      "cumulativeGasUsed": "0x44e8f",
      "logs": [
        {
          "address": "0x56eebe0562742156fce122221fa0eeda316e1be4",
          "topics": [
            "0x8be0079c531659141344cd1fd0a4f28419497f9722a3daafe3b4186f6b6457e0",
            "0x000000000000000000000000333837ec0d4f3d9b3df0216996a148b46ce3541b",
            "0x000000000000000000000000333837ec0d4f3d9b3df0216996a148b46ce3541b"
          ],
          "data": "0x",
          "blockHash": "0x9c64163696c2d946de9f3bd80d4fb0892ecf25d5d966dbc2089bbb2371c5ba79",
          "blockNumber": "0x5e77b1d",
          "transactionHash": "0x81b426964bf4f4ec157d318e30d20981d84b59fff0f750a6e351a18fe5c6f76e",
          "transactionIndex": "0x3",
          "logIndex": "0x6",
          "removed": false
        }
      ],
      "logsBloom": "0x00000000000000000000000000000000000000000000000000800000000000000000000000000000000000000000000000000000000000000000000000000000000000000000000000000000000000000001801000000000000000000000000000000000000000000000000000000000000000000000000000000000000000400000000000000000000000000000000000000000000000000100000000000000000000000000000000000000000000000000000000000000000000000000000001000000000000000000000000000000000000208000000000000000000000000000000000000000000000000000000000000000000000000000000000000000",
      "type": "0x2",
      "transactionHash": "0x81b426964bf4f4ec157d318e30d20981d84b59fff0f750a6e351a18fe5c6f76e",
      "transactionIndex": "0x3",
      "blockHash": "0x9c64163696c2d946de9f3bd80d4fb0892ecf25d5d966dbc2089bbb2371c5ba79",
      "blockNumber": "0x5e77b1d",
      "gasUsed": "0xace5",
      "effectiveGasPrice": "0x5f5e100",
      "from": "0xb05a948b5c1b057b88d381bde3a375efea87ebad",
      "to": "0x56eebe0562742156fce122221fa0eeda316e1be4",
      "contractAddress": null,
      "gasUsedForL1": "0x72e",
      "l1BlockNumber": "0x6c9cc8"
    },
    {
      "status": "0x1",
      "cumulativeGasUsed": "0xace5",
      "logs": [
        {
          "address": "0x8ba06d3e65b57a1846fbf11dff9280eaec59812e",
          "topics": [
            "0x8be0079c531659141344cd1fd0a4f28419497f9722a3daafe3b4186f6b6457e0",
            "0x000000000000000000000000333837ec0d4f3d9b3df0216996a148b46ce3541b",
            "0x000000000000000000000000333837ec0d4f3d9b3df0216996a148b46ce3541b"
          ],
          "data": "0x",
          "blockHash": "0xea90c01d26a85878b401e62ee74145a5a60c8908ed861f20b71d4b06881c07ad",
          "blockNumber": "0x5e77b20",
          "transactionHash": "0xac9281926bf0928df84e2649e1bb2ea2aa2dd24ce428db7e6aa5761b01e5e918",
          "transactionIndex": "0x1",
          "logIndex": "0x0",
          "removed": false
        }
      ],
      "logsBloom": "0x00000000000000000000000000000000000000000000000000800000000000000000000000000000000000000000000000000000000000000000000000000000000000000000000000000000000000000001800000000000000000000000020000000000000000000000000000000000000000000000000000000000000004400000000000000000000000000000000000000000000000000100000000000000000000000000000000000000000000000000000000000000000000000000000000000000000000000000000000000000000000008000000000000000000000000000000000000000000000000000000000000000000000002000000000000000",
      "type": "0x2",
      "transactionHash": "0xac9281926bf0928df84e2649e1bb2ea2aa2dd24ce428db7e6aa5761b01e5e918",
      "transactionIndex": "0x1",
      "blockHash": "0xea90c01d26a85878b401e62ee74145a5a60c8908ed861f20b71d4b06881c07ad",
      "blockNumber": "0x5e77b20",
      "gasUsed": "0xace5",
      "effectiveGasPrice": "0x5f5e100",
      "from": "0xb05a948b5c1b057b88d381bde3a375efea87ebad",
      "to": "0x8ba06d3e65b57a1846fbf11dff9280eaec59812e",
      "contractAddress": null,
      "gasUsedForL1": "0x72e",
      "l1BlockNumber": "0x6c9cc8"
    },
    {
      "status": "0x1",
      "cumulativeGasUsed": "0xada6",
      "logs": [
        {
          "address": "0x59bd760d23ebe8f40906952052de48569ad6faac",
          "topics": [
            "0x8be0079c531659141344cd1fd0a4f28419497f9722a3daafe3b4186f6b6457e0",
            "0x000000000000000000000000333837ec0d4f3d9b3df0216996a148b46ce3541b",
            "0x000000000000000000000000333837ec0d4f3d9b3df0216996a148b46ce3541b"
          ],
          "data": "0x",
          "blockHash": "0x8cdb05a4352269ad45eba979d2c1ecef15675701599f31858a23ff51c67ef934",
          "blockNumber": "0x5e77b22",
          "transactionHash": "0xa47aaac1b2ac21769c554076367caf7bbb38ca7bffecdc2c629e37532be6cdf1",
          "transactionIndex": "0x1",
          "logIndex": "0x0",
          "removed": false
        }
      ],
      "logsBloom": "0x00000000000000000000000000000000000000000000000000800000000000008000000000000000000000000000000000000000000000000000000000000000000000000000000000000000000000000001800000000000000000100000000000000000000000000000000000000000000000000000000000000000000000400000000000000000000000000000000000000000000000000100000000000000000000000000000000020000000000000000000000000000000000000000000000000000000000000000000000000000000000008000000000000000000000000000000000000000000000000000000000000000000000000000000000000000",
      "type": "0x2",
      "transactionHash": "0xa47aaac1b2ac21769c554076367caf7bbb38ca7bffecdc2c629e37532be6cdf1",
      "transactionIndex": "0x1",
      "blockHash": "0x8cdb05a4352269ad45eba979d2c1ecef15675701599f31858a23ff51c67ef934",
      "blockNumber": "0x5e77b22",
      "gasUsed": "0xada6",
      "effectiveGasPrice": "0x5f5e100",
      "from": "0xb05a948b5c1b057b88d381bde3a375efea87ebad",
      "to": "0x59bd760d23ebe8f40906952052de48569ad6faac",
      "contractAddress": null,
      "gasUsedForL1": "0x72e",
      "l1BlockNumber": "0x6c9cc8"
    },
    {
      "status": "0x1",
      "cumulativeGasUsed": "0xada6",
      "logs": [
        {
          "address": "0x5dc78c00a5d39060a81ade81de5c3592899be1dd",
          "topics": [
            "0x8be0079c531659141344cd1fd0a4f28419497f9722a3daafe3b4186f6b6457e0",
            "0x000000000000000000000000333837ec0d4f3d9b3df0216996a148b46ce3541b",
            "0x000000000000000000000000333837ec0d4f3d9b3df0216996a148b46ce3541b"
          ],
          "data": "0x",
          "blockHash": "0xaf4c821a19a3fdd512df6791001541ae1edd39b2bea15a7ae9a1c5dd2f15b08a",
          "blockNumber": "0x5e77b24",
          "transactionHash": "0x606cf62ad518a1e1a150a4ddd3a5f64892e220e33abc3cce00e503973a8b5061",
          "transactionIndex": "0x1",
          "logIndex": "0x0",
          "removed": false
        }
      ],
      "logsBloom": "0x01000000000000000000000000000000000000000000000000800000000000000000000000000000000000000000000000000000000000000000000000000000000000000000000000000000000000000001800000000000000000000000000000000000000000000000000000000000000000000000000000000000000000400000000000000000000000000000000000000000000000000100000000000000000000000000000000000000000000000000000000000000000020000000000000000000000000000000000000000000000000008000000000000000000000000000000000000000000000000000000000000000000000000001000000000000",
      "type": "0x2",
      "transactionHash": "0x606cf62ad518a1e1a150a4ddd3a5f64892e220e33abc3cce00e503973a8b5061",
      "transactionIndex": "0x1",
      "blockHash": "0xaf4c821a19a3fdd512df6791001541ae1edd39b2bea15a7ae9a1c5dd2f15b08a",
      "blockNumber": "0x5e77b24",
      "gasUsed": "0xada6",
      "effectiveGasPrice": "0x5f5e100",
      "from": "0xb05a948b5c1b057b88d381bde3a375efea87ebad",
      "to": "0x5dc78c00a5d39060a81ade81de5c3592899be1dd",
      "contractAddress": null,
      "gasUsedForL1": "0x72e",
      "l1BlockNumber": "0x6c9cc8"
    },
    {
      "status": "0x1",
      "cumulativeGasUsed": "0xada6",
      "logs": [
        {
          "address": "0x6a7608ed70439c42e0802b4c81ef7eb5ba3b0d0b",
          "topics": [
            "0x8be0079c531659141344cd1fd0a4f28419497f9722a3daafe3b4186f6b6457e0",
            "0x000000000000000000000000333837ec0d4f3d9b3df0216996a148b46ce3541b",
            "0x000000000000000000000000333837ec0d4f3d9b3df0216996a148b46ce3541b"
          ],
          "data": "0x",
          "blockHash": "0x71ee0edca701ae1b6e4ed5985aec5e668e741baf2013eb196a712912ee99bd26",
          "blockNumber": "0x5e77b27",
          "transactionHash": "0x3bbeafa45b57a1080efd7d1b1a442a926fcb5215a8c2abeb3ea7c98acc8a322b",
          "transactionIndex": "0x1",
          "logIndex": "0x0",
          "removed": false
        }
      ],
      "logsBloom": "0x00000000000000000000020000000000000000000000000000a00000000000000000000000000000000000000400000000000000000000000000000000000000000000000000000000000000000000000001800000000000000000000000000000000000000000000000000000000000000000000000000000000000000000400000000000000000000000000000000000000000000000000100000000000000000000000000000000000000000000000000000000000000000000000000000000000000000000000000000000000000000000008000000000000000000000000000000000000000000000000000000000000000000000000000000000000000",
      "type": "0x2",
      "transactionHash": "0x3bbeafa45b57a1080efd7d1b1a442a926fcb5215a8c2abeb3ea7c98acc8a322b",
      "transactionIndex": "0x1",
      "blockHash": "0x71ee0edca701ae1b6e4ed5985aec5e668e741baf2013eb196a712912ee99bd26",
      "blockNumber": "0x5e77b27",
      "gasUsed": "0xada6",
      "effectiveGasPrice": "0x5f5e100",
      "from": "0xb05a948b5c1b057b88d381bde3a375efea87ebad",
      "to": "0x6a7608ed70439c42e0802b4c81ef7eb5ba3b0d0b",
      "contractAddress": null,
      "gasUsedForL1": "0x72e",
      "l1BlockNumber": "0x6c9cc8"
    },
    {
      "status": "0x1",
      "cumulativeGasUsed": "0xada6",
      "logs": [
        {
          "address": "0x89c99895efb30a86c38b511d093f786a5a64d037",
          "topics": [
            "0x8be0079c531659141344cd1fd0a4f28419497f9722a3daafe3b4186f6b6457e0",
            "0x000000000000000000000000333837ec0d4f3d9b3df0216996a148b46ce3541b",
            "0x000000000000000000000000333837ec0d4f3d9b3df0216996a148b46ce3541b"
          ],
          "data": "0x",
          "blockHash": "0x4aac079432c28066a00d9c336163d06052006b086ec41a67431e7705770acab9",
          "blockNumber": "0x5e77b29",
          "transactionHash": "0x5e7b7d8a517b4994b90f5289192187ad5aeb670b91e3a7882a2cae9083141163",
          "transactionIndex": "0x1",
          "logIndex": "0x0",
          "removed": false
        }
      ],
      "logsBloom": "0x00000000000000000000000000000000000000000000000000800000000000000000000000000000000000000000000000000000000000000000000000000000000000000000000000000000000000000001800000000000020000000000000000000000000000000000000000000000000000020000000000000000000000400000000000000000000000000000000000000000000000000100000000000000000000000000000000000000000000000000000000000000000000000000000000000000000000010000000000000000000000008000000000000000000000000000000000000000000000000000000000000000000000000000000000000000",
      "type": "0x2",
      "transactionHash": "0x5e7b7d8a517b4994b90f5289192187ad5aeb670b91e3a7882a2cae9083141163",
      "transactionIndex": "0x1",
      "blockHash": "0x4aac079432c28066a00d9c336163d06052006b086ec41a67431e7705770acab9",
      "blockNumber": "0x5e77b29",
      "gasUsed": "0xada6",
      "effectiveGasPrice": "0x5f5e100",
      "from": "0xb05a948b5c1b057b88d381bde3a375efea87ebad",
      "to": "0x89c99895efb30a86c38b511d093f786a5a64d037",
      "contractAddress": null,
      "gasUsedForL1": "0x72e",
      "l1BlockNumber": "0x6c9cc8"
    },
    {
      "status": "0x1",
      "cumulativeGasUsed": "0xada6",
      "logs": [
        {
          "address": "0xb1d70992f85449807e23573cc27ea8c240d8a688",
          "topics": [
            "0x8be0079c531659141344cd1fd0a4f28419497f9722a3daafe3b4186f6b6457e0",
            "0x000000000000000000000000333837ec0d4f3d9b3df0216996a148b46ce3541b",
            "0x000000000000000000000000333837ec0d4f3d9b3df0216996a148b46ce3541b"
          ],
          "data": "0x",
          "blockHash": "0xf595de6ca3c4bdcd7d9931040dab96086d4e6f5363ea20ab32ec514f59712447",
          "blockNumber": "0x5e77b2b",
          "transactionHash": "0xc50467e943b34818e19420215093fa9176fff043e2350e368558098acf94286d",
          "transactionIndex": "0x1",
          "logIndex": "0x0",
          "removed": false
        }
      ],
      "logsBloom": "0x00000000000000080000000000000000000000000000000000800000000000000000000000000000000000000000000000000000000000000000000000000000000000000000000000000000000000000001800000000000000000000000000000000000000000000000040000000000000000000000000000000000000000400000000000000000000000000000000000000000000000000100000000000000000000000000000000000000000000000000000000000000000000000000000000000000000000000000000000000000000000008000000000000000000000000000000000000200000000000000000000000000000000000000000000000000",
      "type": "0x2",
      "transactionHash": "0xc50467e943b34818e19420215093fa9176fff043e2350e368558098acf94286d",
      "transactionIndex": "0x1",
      "blockHash": "0xf595de6ca3c4bdcd7d9931040dab96086d4e6f5363ea20ab32ec514f59712447",
      "blockNumber": "0x5e77b2b",
      "gasUsed": "0xada6",
      "effectiveGasPrice": "0x5f5e100",
      "from": "0xb05a948b5c1b057b88d381bde3a375efea87ebad",
      "to": "0xb1d70992f85449807e23573cc27ea8c240d8a688",
      "contractAddress": null,
      "gasUsedForL1": "0x72e",
      "l1BlockNumber": "0x6c9cc8"
    },
    {
      "status": "0x1",
      "cumulativeGasUsed": "0xada6",
      "logs": [
        {
          "address": "0xc1af6e7a17f1114a4ba13ba86271492aab0291ed",
          "topics": [
            "0x8be0079c531659141344cd1fd0a4f28419497f9722a3daafe3b4186f6b6457e0",
            "0x000000000000000000000000333837ec0d4f3d9b3df0216996a148b46ce3541b",
            "0x000000000000000000000000333837ec0d4f3d9b3df0216996a148b46ce3541b"
          ],
          "data": "0x",
          "blockHash": "0xeb0b6147a5bc88a53040a5d22132456f00173a7c8eec162d47622b0c6fad31e6",
          "blockNumber": "0x5e77b2e",
          "transactionHash": "0xdbd8643e35b8179b519fac579835be7cbf7cfe16ceeffb598796d93986b8915d",
          "transactionIndex": "0x1",
          "logIndex": "0x0",
          "removed": false
        }
      ],
      "logsBloom": "0x00000000000000000000000000000000000000000000000000800080000000000000000000000000000000000000000000000000000000000000000000000000000000000000000000000000000000000001800000000000020000000000000000000000000000000000000000000000000000020000000000000000000000400000000000000000000000000000000000000000000000000100000000000000000000000000000000000000000000000000000000000000000000000000000000000000000000000000000000000000000000008000000000000000000000000000000000000000000000000000000000000000000000000000000000000000",
      "type": "0x2",
      "transactionHash": "0xdbd8643e35b8179b519fac579835be7cbf7cfe16ceeffb598796d93986b8915d",
      "transactionIndex": "0x1",
      "blockHash": "0xeb0b6147a5bc88a53040a5d22132456f00173a7c8eec162d47622b0c6fad31e6",
      "blockNumber": "0x5e77b2e",
      "gasUsed": "0xada6",
      "effectiveGasPrice": "0x5f5e100",
      "from": "0xb05a948b5c1b057b88d381bde3a375efea87ebad",
      "to": "0xc1af6e7a17f1114a4ba13ba86271492aab0291ed",
      "contractAddress": null,
      "gasUsedForL1": "0x72e",
      "l1BlockNumber": "0x6c9cc8"
    },
    {
      "status": "0x1",
      "cumulativeGasUsed": "0xada6",
      "logs": [
        {
          "address": "0xe1fe0c77166350852cddbcf12ec4cb99e22694ed",
          "topics": [
            "0x8be0079c531659141344cd1fd0a4f28419497f9722a3daafe3b4186f6b6457e0",
            "0x000000000000000000000000333837ec0d4f3d9b3df0216996a148b46ce3541b",
            "0x000000000000000000000000333837ec0d4f3d9b3df0216996a148b46ce3541b"
          ],
          "data": "0x",
          "blockHash": "0x6da1b2e961bb1b6c4e73015fab11ab91b0985e1b85d1a4558ac1cacd86949784",
          "blockNumber": "0x5e77b30",
          "transactionHash": "0x84af44bbe4f971f4c587516d14019bf0cae3c336d3cbcece8ed007927da7b5d4",
          "transactionIndex": "0x1",
          "logIndex": "0x0",
          "removed": false
        }
      ],
      "logsBloom": "0x00000000000000000000000000000000000000000000000000800000000000000000000000000000000000000000000000000000000000000000000000000000000000000000000000000000000000000001800000000000000000001000200000000000000000000000000000000000000000000000000000000000000000400000000000000000000000000000000000000000000000000100000000000000000000000000000000000000000000000000000000000000000000000000000020000000000000000000000000000000000000008000000000000000000000000000000000000000000000000000000000000000000000000000000000000000",
      "type": "0x2",
      "transactionHash": "0x84af44bbe4f971f4c587516d14019bf0cae3c336d3cbcece8ed007927da7b5d4",
      "transactionIndex": "0x1",
      "blockHash": "0x6da1b2e961bb1b6c4e73015fab11ab91b0985e1b85d1a4558ac1cacd86949784",
      "blockNumber": "0x5e77b30",
      "gasUsed": "0xada6",
      "effectiveGasPrice": "0x5f5e100",
      "from": "0xb05a948b5c1b057b88d381bde3a375efea87ebad",
      "to": "0xe1fe0c77166350852cddbcf12ec4cb99e22694ed",
      "contractAddress": null,
      "gasUsedForL1": "0x72e",
      "l1BlockNumber": "0x6c9cc8"
    },
    {
      "status": "0x1",
      "cumulativeGasUsed": "0x21379",
      "logs": [
        {
          "address": "0xe28de81057a4f5efae0a85eced25126de79990e0",
          "topics": [
            "0x8be0079c531659141344cd1fd0a4f28419497f9722a3daafe3b4186f6b6457e0",
            "0x000000000000000000000000333837ec0d4f3d9b3df0216996a148b46ce3541b",
            "0x000000000000000000000000333837ec0d4f3d9b3df0216996a148b46ce3541b"
          ],
          "data": "0x",
          "blockHash": "0xab18192e3b4adbb89a10ab17723792ebd3fa8e1d4e13382cd1ccb55b90f95ca2",
          "blockNumber": "0x5e77b36",
          "transactionHash": "0xc38e1e78f29346327bd0fafe42098c08b5a000ac2001eb2a0e7c3a06021fc88a",
          "transactionIndex": "0x2",
          "logIndex": "0x2",
          "removed": false
        }
      ],
      "logsBloom": "0x00000000000000000000000000000000000000000000000000800000000000000000000000000000000000000000000000000000000000000000000000000000000000000000000000000000000000000001800000000000000000000000000000000000000000000000020000000000000000000000000000000000000000400000000000000000000000000000000000000000000000000100000000000000000000000000010000000000000000000000000000000000000000000000000000400000000000000000000000000000000000008000000000000000000000000000000000000000000000000000000000000000000000000000000000000000",
      "type": "0x2",
      "transactionHash": "0xc38e1e78f29346327bd0fafe42098c08b5a000ac2001eb2a0e7c3a06021fc88a",
      "transactionIndex": "0x2",
      "blockHash": "0xab18192e3b4adbb89a10ab17723792ebd3fa8e1d4e13382cd1ccb55b90f95ca2",
      "blockNumber": "0x5e77b36",
      "gasUsed": "0xada6",
      "effectiveGasPrice": "0x5f5e100",
      "from": "0xb05a948b5c1b057b88d381bde3a375efea87ebad",
      "to": "0xe28de81057a4f5efae0a85eced25126de79990e0",
      "contractAddress": null,
      "gasUsedForL1": "0x72e",
      "l1BlockNumber": "0x6c9cc8"
    },
    {
      "status": "0x1",
      "cumulativeGasUsed": "0xada6",
      "logs": [
        {
          "address": "0xf606cf11c1acd0685c4bef5dce92f4620ca49ef5",
          "topics": [
            "0x8be0079c531659141344cd1fd0a4f28419497f9722a3daafe3b4186f6b6457e0",
            "0x000000000000000000000000333837ec0d4f3d9b3df0216996a148b46ce3541b",
            "0x000000000000000000000000333837ec0d4f3d9b3df0216996a148b46ce3541b"
          ],
          "data": "0x",
          "blockHash": "0x25ace6f76f30df6912678c0b4d787e94910753d25c7e9102c93ee698feb220fe",
          "blockNumber": "0x5e77b38",
          "transactionHash": "0x6518490213d6d9b6a2d17cda1ae5c18e6359d41bc9dc93308867c152bb296e7b",
          "transactionIndex": "0x1",
          "logIndex": "0x0",
          "removed": false
        }
      ],
      "logsBloom": "0x00000000000000000000000000000000000000000000000000800000000000000000000000000000000000000000000000000000000000000000000000000000000000000000000000000000000020000001800000000000000000000000000000000000000000000000000000000000000000000000000000000000000000400000000000000000000000000000000000000000000000000100000000000000000000000000000080000000000000000000000000000000000000000000000000000000000000000000000000000000000000008000020000000000000000000000000000000000000000000000000000000000000000000000000000000000",
      "type": "0x2",
      "transactionHash": "0x6518490213d6d9b6a2d17cda1ae5c18e6359d41bc9dc93308867c152bb296e7b",
      "transactionIndex": "0x1",
      "blockHash": "0x25ace6f76f30df6912678c0b4d787e94910753d25c7e9102c93ee698feb220fe",
      "blockNumber": "0x5e77b38",
      "gasUsed": "0xada6",
      "effectiveGasPrice": "0x5f5e100",
      "from": "0xb05a948b5c1b057b88d381bde3a375efea87ebad",
      "to": "0xf606cf11c1acd0685c4bef5dce92f4620ca49ef5",
      "contractAddress": null,
      "gasUsedForL1": "0x72e",
      "l1BlockNumber": "0x6c9cc8"
    }
  ],
  "libraries": [],
  "pending": [],
  "returns": {},
  "timestamp": 1732134645,
  "chain": 421614,
  "commit": "3f1d7091"
}