{
  "transactions": [
    {
      "hash": "0x31d9ea072db61f6f33e9bed365f4068e50271469086b77efb736f15177c77089",
      "transactionType": "CALL",
      "contractName": null,
      "contractAddress": "0xe32566076534973ff78b512ec6a321a58c2b735c",
      "function": "transferOwnership(address)",
      "arguments": [
        "0xD28473FbD87183864CAc0482DBEe1C54EE3d8Cd1"
      ],
      "transaction": {
        "from": "0xb05a948b5c1b057b88d381bde3a375efea87ebad",
        "to": "0xe32566076534973ff78b512ec6a321a58c2b735c",
        "gas": "0xb2c1",
        "value": "0x0",
        "input": "0xf2fde38b000000000000000000000000d28473fbd87183864cac0482dbee1c54ee3d8cd1",
        "nonce": "0xa75",
        "chainId": "0x66eee"
      },
      "additionalContracts": [],
      "isFixedGasLimit": false
    },
    {
      "hash": "0xe4b7fa48f00b2e63fc936381210a76cabf54bcb4913529ceed3e0e8fb6e69a6c",
      "transactionType": "CALL",
      "contractName": "ERC1967Proxy",
      "contractAddress": "0xff53a163e43eccc00d8fde7aca24aa9fa4da7356",
      "function": null,
      "arguments": null,
      "transaction": {
        "from": "0xb05a948b5c1b057b88d381bde3a375efea87ebad",
        "to": "0xff53a163e43eccc00d8fde7aca24aa9fa4da7356",
        "gas": "0xb318",
        "value": "0x0",
        "input": "0xf2fde38b000000000000000000000000d28473fbd87183864cac0482dbee1c54ee3d8cd1",
        "nonce": "0xa76",
        "chainId": "0x66eee"
      },
      "additionalContracts": [],
      "isFixedGasLimit": false
    },
    {
      "hash": "0x1576dea5e1b9ac9da40912a3cada8b1ed79e304606126b02781ec0889f08e32e",
      "transactionType": "CALL",
      "contractName": null,
      "contractAddress": "0x7a603877488db46c0f6b40c2c770becfd7a65593",
      "function": "transferOwnership(address)",
      "arguments": [
        "0xD28473FbD87183864CAc0482DBEe1C54EE3d8Cd1"
      ],
      "transaction": {
        "from": "0xb05a948b5c1b057b88d381bde3a375efea87ebad",
        "to": "0x7a603877488db46c0f6b40c2c770becfd7a65593",
        "gas": "0xe80e",
        "value": "0x0",
        "input": "0xf2fde38b000000000000000000000000d28473fbd87183864cac0482dbee1c54ee3d8cd1",
        "nonce": "0xa77",
        "chainId": "0x66eee"
      },
      "additionalContracts": [],
      "isFixedGasLimit": false
    },
    {
      "hash": "0xd4de7768d00bd9bb0372523677c2d80e62e07ac1ea9197e5fe74ba723c201ae1",
      "transactionType": "CALL",
      "contractName": null,
      "contractAddress": "0x17a3d80b587202999243aca5e7938537d090d420",
      "function": "transferOwnership(address)",
      "arguments": [
        "0xD28473FbD87183864CAc0482DBEe1C54EE3d8Cd1"
      ],
      "transaction": {
        "from": "0xb05a948b5c1b057b88d381bde3a375efea87ebad",
        "to": "0x17a3d80b587202999243aca5e7938537d090d420",
        "gas": "0xb98a",
        "value": "0x0",
        "input": "0xf2fde38b000000000000000000000000d28473fbd87183864cac0482dbee1c54ee3d8cd1",
        "nonce": "0xa78",
        "chainId": "0x66eee"
      },
      "additionalContracts": [],
      "isFixedGasLimit": false
    },
    {
      "hash": "0xf3797c48455f99b13612ac5980f047548e1eda4bb0103c9a552054ec3af398cc",
      "transactionType": "CALL",
      "contractName": "ERC1967Proxy",
      "contractAddress": "0x20731544b8c29c17c42a1cb1278371af5c08142f",
      "function": null,
      "arguments": null,
      "transaction": {
        "from": "0xb05a948b5c1b057b88d381bde3a375efea87ebad",
        "to": "0x20731544b8c29c17c42a1cb1278371af5c08142f",
        "gas": "0xb98a",
        "value": "0x0",
        "input": "0xf2fde38b000000000000000000000000d28473fbd87183864cac0482dbee1c54ee3d8cd1",
        "nonce": "0xa79",
        "chainId": "0x66eee"
      },
      "additionalContracts": [],
      "isFixedGasLimit": false
    },
    {
      "hash": "0x2fbd609a17857fbaefe14775baccab27bfa44d05d99d782adef67031845c8f11",
      "transactionType": "CALL",
      "contractName": null,
      "contractAddress": "0x4d434729b80c95b0454a77fc152464b2f196abf0",
      "function": "transferOwnership(address)",
      "arguments": [
        "0xD28473FbD87183864CAc0482DBEe1C54EE3d8Cd1"
      ],
      "transaction": {
        "from": "0xb05a948b5c1b057b88d381bde3a375efea87ebad",
        "to": "0x4d434729b80c95b0454a77fc152464b2f196abf0",
        "gas": "0xb98a",
        "value": "0x0",
        "input": "0xf2fde38b000000000000000000000000d28473fbd87183864cac0482dbee1c54ee3d8cd1",
        "nonce": "0xa7a",
        "chainId": "0x66eee"
      },
      "additionalContracts": [],
      "isFixedGasLimit": false
    },
    {
      "hash": "0x86fc4cd7ab00b6d9b71cd603143160fb575e52ae9cfa9c0f57a654aefc421621",
      "transactionType": "CALL",
      "contractName": "ERC1967Proxy",
      "contractAddress": "0x5a044599606c86e14e085f4bada529242d28e5e8",
      "function": null,
      "arguments": null,
      "transaction": {
        "from": "0xb05a948b5c1b057b88d381bde3a375efea87ebad",
        "to": "0x5a044599606c86e14e085f4bada529242d28e5e8",
        "gas": "0xb98a",
        "value": "0x0",
        "input": "0xf2fde38b000000000000000000000000d28473fbd87183864cac0482dbee1c54ee3d8cd1",
        "nonce": "0xa7b",
        "chainId": "0x66eee"
      },
      "additionalContracts": [],
      "isFixedGasLimit": false
    },
    {
      "hash": "0xe4ee823e720de7824d7d08ea12a750356ad1c9ce8b6dc50d9a658eb4e1680761",
      "transactionType": "CALL",
      "contractName": "ERC1967Proxy",
      "contractAddress": "0x622255fc131da4294cabfb7f08cc3add78fd728f",
      "function": null,
      "arguments": null,
      "transaction": {
        "from": "0xb05a948b5c1b057b88d381bde3a375efea87ebad",
        "to": "0x622255fc131da4294cabfb7f08cc3add78fd728f",
        "gas": "0xb98a",
        "value": "0x0",
        "input": "0xf2fde38b000000000000000000000000d28473fbd87183864cac0482dbee1c54ee3d8cd1",
        "nonce": "0xa7c",
        "chainId": "0x66eee"
      },
      "additionalContracts": [],
      "isFixedGasLimit": false
    },
    {
      "hash": "0x681ab66284cab78688aff78b75c6ad6e8d9ad0d638c22a33ddda47ef3b2bdf5f",
      "transactionType": "CALL",
      "contractName": "ERC1967Proxy",
      "contractAddress": "0x724d0c3294bcea03a4e54db48d5c721112ff8171",
      "function": null,
      "arguments": null,
      "transaction": {
        "from": "0xb05a948b5c1b057b88d381bde3a375efea87ebad",
        "to": "0x724d0c3294bcea03a4e54db48d5c721112ff8171",
        "gas": "0xb98a",
        "value": "0x0",
        "input": "0xf2fde38b000000000000000000000000d28473fbd87183864cac0482dbee1c54ee3d8cd1",
        "nonce": "0xa7d",
        "chainId": "0x66eee"
      },
      "additionalContracts": [],
      "isFixedGasLimit": false
    },
    {
      "hash": "0xd3cb9ed071de069eb275f68317a31be86ddcb10f27460c29e8d1a80c69dedd9f",
      "transactionType": "CALL",
      "contractName": "ERC1967Proxy",
      "contractAddress": "0xc2b5443ccb8aa0b8f2b93b560beaee1b5bb964e5",
      "function": null,
      "arguments": null,
      "transaction": {
        "from": "0xb05a948b5c1b057b88d381bde3a375efea87ebad",
        "to": "0xc2b5443ccb8aa0b8f2b93b560beaee1b5bb964e5",
        "gas": "0xb98a",
        "value": "0x0",
        "input": "0xf2fde38b000000000000000000000000d28473fbd87183864cac0482dbee1c54ee3d8cd1",
        "nonce": "0xa7e",
        "chainId": "0x66eee"
      },
      "additionalContracts": [],
      "isFixedGasLimit": false
    },
    {
      "hash": "0xf3e2b4c056ff567cd0e15864f9ccb54c2cb19571427b2e64ca5ba78c8a2884ff",
      "transactionType": "CALL",
      "contractName": "ERC1967Proxy",
      "contractAddress": "0xf17e005599813f626ff6b4ff8189105b1306af94",
      "function": null,
      "arguments": null,
      "transaction": {
        "from": "0xb05a948b5c1b057b88d381bde3a375efea87ebad",
        "to": "0xf17e005599813f626ff6b4ff8189105b1306af94",
        "gas": "0xb98a",
        "value": "0x0",
        "input": "0xf2fde38b000000000000000000000000d28473fbd87183864cac0482dbee1c54ee3d8cd1",
        "nonce": "0xa7f",
        "chainId": "0x66eee"
      },
      "additionalContracts": [],
      "isFixedGasLimit": false
    },
    {
      "hash": "0x77e51b0da80bd26cf5f7523ee0c323d079dc821f43765718e025263f472d8bb8",
      "transactionType": "CALL",
      "contractName": null,
      "contractAddress": "0xf6d60f30eed6e3ec588242cff30d9c8f596370cb",
      "function": "transferOwnership(address)",
      "arguments": [
        "0xD28473FbD87183864CAc0482DBEe1C54EE3d8Cd1"
      ],
      "transaction": {
        "from": "0xb05a948b5c1b057b88d381bde3a375efea87ebad",
        "to": "0xf6d60f30eed6e3ec588242cff30d9c8f596370cb",
        "gas": "0xb98a",
        "value": "0x0",
        "input": "0xf2fde38b000000000000000000000000d28473fbd87183864cac0482dbee1c54ee3d8cd1",
        "nonce": "0xa80",
        "chainId": "0x66eee"
      },
      "additionalContracts": [],
      "isFixedGasLimit": false
    },
    {
      "hash": "0x738eacc20f0f3c90837655ea26009e545fdad8402af63d5770d27f8e1cf3e1cc",
      "transactionType": "CALL",
      "contractName": "ERC1967Proxy",
      "contractAddress": "0xffa2e39cce305c82ffa70f7da0333e5f172be5f6",
      "function": null,
      "arguments": null,
      "transaction": {
        "from": "0xb05a948b5c1b057b88d381bde3a375efea87ebad",
        "to": "0xffa2e39cce305c82ffa70f7da0333e5f172be5f6",
        "gas": "0xb98a",
        "value": "0x0",
        "input": "0xf2fde38b000000000000000000000000d28473fbd87183864cac0482dbee1c54ee3d8cd1",
        "nonce": "0xa81",
        "chainId": "0x66eee"
      },
      "additionalContracts": [],
      "isFixedGasLimit": false
    },
    {
      "hash": "0x734f807b042b84916bbb9b006a90cf0319db22a5a922ce9131f6d02b0ebe05a9",
      "transactionType": "CALL",
      "contractName": null,
      "contractAddress": "0x12ea1fd84474ffd79e420eb498e1c163b6d2bf8e",
      "function": "transferOwnership(address)",
      "arguments": [
        "0xD28473FbD87183864CAc0482DBEe1C54EE3d8Cd1"
      ],
      "transaction": {
        "from": "0xb05a948b5c1b057b88d381bde3a375efea87ebad",
        "to": "0x12ea1fd84474ffd79e420eb498e1c163b6d2bf8e",
        "gas": "0xba52",
        "value": "0x0",
        "input": "0xf2fde38b000000000000000000000000d28473fbd87183864cac0482dbee1c54ee3d8cd1",
        "nonce": "0xa82",
        "chainId": "0x66eee"
      },
      "additionalContracts": [],
      "isFixedGasLimit": false
    },
    {
      "hash": "0x6aff47c940bd73aea9385b6526f8bcc22ec29a0ddd9da449aaa381a8c3ec5a6b",
      "transactionType": "CALL",
      "contractName": null,
      "contractAddress": "0x15cfd3934e20e48b6ead4a04ceee082746d276b3",
      "function": "transferOwnership(address)",
      "arguments": [
        "0xD28473FbD87183864CAc0482DBEe1C54EE3d8Cd1"
      ],
      "transaction": {
        "from": "0xb05a948b5c1b057b88d381bde3a375efea87ebad",
        "to": "0x15cfd3934e20e48b6ead4a04ceee082746d276b3",
        "gas": "0xba52",
        "value": "0x0",
        "input": "0xf2fde38b000000000000000000000000d28473fbd87183864cac0482dbee1c54ee3d8cd1",
        "nonce": "0xa83",
        "chainId": "0x66eee"
      },
      "additionalContracts": [],
      "isFixedGasLimit": false
    },
    {
      "hash": "0x6bd4d83cf6ec38e1b75701544393cff1f4b2c92f0499984ba773287bcb544ebe",
      "transactionType": "CALL",
      "contractName": "ERC1967Proxy",
      "contractAddress": "0x17769fb86708abf03d7083ea7dc6b01976a91c47",
      "function": null,
      "arguments": null,
      "transaction": {
        "from": "0xb05a948b5c1b057b88d381bde3a375efea87ebad",
        "to": "0x17769fb86708abf03d7083ea7dc6b01976a91c47",
        "gas": "0xba52",
        "value": "0x0",
        "input": "0xf2fde38b000000000000000000000000d28473fbd87183864cac0482dbee1c54ee3d8cd1",
        "nonce": "0xa84",
        "chainId": "0x66eee"
      },
      "additionalContracts": [],
      "isFixedGasLimit": false
    },
    {
      "hash": "0x0b699e0a4f1868e03668b05e61d35ccd2c52e28804f10cae648bfbdee065810f",
      "transactionType": "CALL",
      "contractName": "ERC1967Proxy",
      "contractAddress": "0x233105f07593424866adeaa27a4045dcb6301844",
      "function": null,
      "arguments": null,
      "transaction": {
        "from": "0xb05a948b5c1b057b88d381bde3a375efea87ebad",
        "to": "0x233105f07593424866adeaa27a4045dcb6301844",
        "gas": "0xba52",
        "value": "0x0",
        "input": "0xf2fde38b000000000000000000000000d28473fbd87183864cac0482dbee1c54ee3d8cd1",
        "nonce": "0xa85",
        "chainId": "0x66eee"
      },
      "additionalContracts": [],
      "isFixedGasLimit": false
    },
    {
      "hash": "0x955ab245d227bab5cfe44982d874579c62237d83d5913cbb0202acc8ad4fad3b",
      "transactionType": "CALL",
      "contractName": null,
      "contractAddress": "0x271c5834f61901623c00ca274dc0911131e3865d",
      "function": "transferOwnership(address)",
      "arguments": [
        "0xD28473FbD87183864CAc0482DBEe1C54EE3d8Cd1"
      ],
      "transaction": {
        "from": "0xb05a948b5c1b057b88d381bde3a375efea87ebad",
        "to": "0x271c5834f61901623c00ca274dc0911131e3865d",
        "gas": "0xba52",
        "value": "0x0",
        "input": "0xf2fde38b000000000000000000000000d28473fbd87183864cac0482dbee1c54ee3d8cd1",
        "nonce": "0xa86",
        "chainId": "0x66eee"
      },
      "additionalContracts": [],
      "isFixedGasLimit": false
    },
    {
      "hash": "0x51f4439f170db69673e5f4be33ed7bc51322d0e741f594cfddeae21839f053b8",
      "transactionType": "CALL",
      "contractName": "ERC1967Proxy",
      "contractAddress": "0x2a309fc9b3d3031826fae08254c3eb3fb3e136a9",
      "function": null,
      "arguments": null,
      "transaction": {
        "from": "0xb05a948b5c1b057b88d381bde3a375efea87ebad",
        "to": "0x2a309fc9b3d3031826fae08254c3eb3fb3e136a9",
        "gas": "0xba52",
        "value": "0x0",
        "input": "0xf2fde38b000000000000000000000000d28473fbd87183864cac0482dbee1c54ee3d8cd1",
        "nonce": "0xa87",
        "chainId": "0x66eee"
      },
      "additionalContracts": [],
      "isFixedGasLimit": false
    },
    {
      "hash": "0xb3c9ae325068e988ae7ae197318f928a6faddfb1e23b234e5f28ce09990a1f5b",
      "transactionType": "CALL",
      "contractName": "ERC1967Proxy",
      "contractAddress": "0x2b7e64cf97cb0ad9f074e941f29e99899cad6f00",
      "function": null,
      "arguments": null,
      "transaction": {
        "from": "0xb05a948b5c1b057b88d381bde3a375efea87ebad",
        "to": "0x2b7e64cf97cb0ad9f074e941f29e99899cad6f00",
        "gas": "0xba52",
        "value": "0x0",
        "input": "0xf2fde38b000000000000000000000000d28473fbd87183864cac0482dbee1c54ee3d8cd1",
        "nonce": "0xa88",
        "chainId": "0x66eee"
      },
      "additionalContracts": [],
      "isFixedGasLimit": false
    },
    {
      "hash": "0x956eaabd314caf8a2f93eefdd8285abb04ed7322f33be80eeda73919d0f90ceb",
      "transactionType": "CALL",
      "contractName": "ERC1967Proxy",
      "contractAddress": "0x2c3adb40206952738927b6648c14de835d3a87d9",
      "function": null,
      "arguments": null,
      "transaction": {
        "from": "0xb05a948b5c1b057b88d381bde3a375efea87ebad",
        "to": "0x2c3adb40206952738927b6648c14de835d3a87d9",
        "gas": "0xba52",
        "value": "0x0",
        "input": "0xf2fde38b000000000000000000000000d28473fbd87183864cac0482dbee1c54ee3d8cd1",
        "nonce": "0xa89",
        "chainId": "0x66eee"
      },
      "additionalContracts": [],
      "isFixedGasLimit": false
    },
    {
      "hash": "0x6da295a649418508e9662921797e3e4f83a8e6fd1a11a96b682a6109e1235682",
      "transactionType": "CALL",
      "contractName": null,
      "contractAddress": "0x3398dd388d1ca8f7151f852262dfaf7629f35bf3",
      "function": "transferOwnership(address)",
      "arguments": [
        "0xD28473FbD87183864CAc0482DBEe1C54EE3d8Cd1"
      ],
      "transaction": {
        "from": "0xb05a948b5c1b057b88d381bde3a375efea87ebad",
        "to": "0x3398dd388d1ca8f7151f852262dfaf7629f35bf3",
        "gas": "0xba52",
        "value": "0x0",
        "input": "0xf2fde38b000000000000000000000000d28473fbd87183864cac0482dbee1c54ee3d8cd1",
        "nonce": "0xa8a",
        "chainId": "0x66eee"
      },
      "additionalContracts": [],
      "isFixedGasLimit": false
    },
    {
      "hash": "0x60dd14604bf812ed8e8470f43d965ddf3937735b3fa3f5ec11667c04c4801253",
      "transactionType": "CALL",
      "contractName": null,
      "contractAddress": "0x39db23696c0ad7a4afc5db891154a426193d3046",
      "function": "transferOwnership(address)",
      "arguments": [
        "0xD28473FbD87183864CAc0482DBEe1C54EE3d8Cd1"
      ],
      "transaction": {
        "from": "0xb05a948b5c1b057b88d381bde3a375efea87ebad",
        "to": "0x39db23696c0ad7a4afc5db891154a426193d3046",
        "gas": "0xba52",
        "value": "0x0",
        "input": "0xf2fde38b000000000000000000000000d28473fbd87183864cac0482dbee1c54ee3d8cd1",
        "nonce": "0xa8b",
        "chainId": "0x66eee"
      },
      "additionalContracts": [],
      "isFixedGasLimit": false
    },
    {
      "hash": "0xadbae07a633729c73a90b72c9a0b943313e7420613b1d04f0ec97ad4a317a0ec",
      "transactionType": "CALL",
      "contractName": null,
      "contractAddress": "0x3f8c4c058b80f7d7f6cac9f7cccda45519ad0ecc",
      "function": "transferOwnership(address)",
      "arguments": [
        "0xD28473FbD87183864CAc0482DBEe1C54EE3d8Cd1"
      ],
      "transaction": {
        "from": "0xb05a948b5c1b057b88d381bde3a375efea87ebad",
        "to": "0x3f8c4c058b80f7d7f6cac9f7cccda45519ad0ecc",
        "gas": "0xba52",
        "value": "0x0",
        "input": "0xf2fde38b000000000000000000000000d28473fbd87183864cac0482dbee1c54ee3d8cd1",
        "nonce": "0xa8c",
        "chainId": "0x66eee"
      },
      "additionalContracts": [],
      "isFixedGasLimit": false
    },
    {
      "hash": "0x361c130b0f454c1df74b358e3727a43b685ab6b8cc42607984627d2106ce5276",
      "transactionType": "CALL",
      "contractName": null,
      "contractAddress": "0x45cbefe5f9f0df5f76c8bdd07003724ec100497f",
      "function": "transferOwnership(address)",
      "arguments": [
        "0xD28473FbD87183864CAc0482DBEe1C54EE3d8Cd1"
      ],
      "transaction": {
        "from": "0xb05a948b5c1b057b88d381bde3a375efea87ebad",
        "to": "0x45cbefe5f9f0df5f76c8bdd07003724ec100497f",
        "gas": "0xba52",
        "value": "0x0",
        "input": "0xf2fde38b000000000000000000000000d28473fbd87183864cac0482dbee1c54ee3d8cd1",
        "nonce": "0xa8d",
        "chainId": "0x66eee"
      },
      "additionalContracts": [],
      "isFixedGasLimit": false
    },
    {
      "hash": "0xbd0aaa306344140e16b7eb1aba17ec01c6d34a18b21310675311ef8d71451c7f",
      "transactionType": "CALL",
      "contractName": null,
      "contractAddress": "0x50022842dee9d02ef42f7378e1c0d81a7ee2778b",
      "function": "transferOwnership(address)",
      "arguments": [
        "0xD28473FbD87183864CAc0482DBEe1C54EE3d8Cd1"
      ],
      "transaction": {
        "from": "0xb05a948b5c1b057b88d381bde3a375efea87ebad",
        "to": "0x50022842dee9d02ef42f7378e1c0d81a7ee2778b",
        "gas": "0xba52",
        "value": "0x0",
        "input": "0xf2fde38b000000000000000000000000d28473fbd87183864cac0482dbee1c54ee3d8cd1",
        "nonce": "0xa8e",
        "chainId": "0x66eee"
      },
      "additionalContracts": [],
      "isFixedGasLimit": false
    },
    {
      "hash": "0x43e935b4f715f261e072ecf0a6b7eacd4b6c412be8c35addf3e03fecfc42f820",
      "transactionType": "CALL",
      "contractName": null,
      "contractAddress": "0x5ba5c0d3908c12773adf3a8c2aa504339b537011",
      "function": "transferOwnership(address)",
      "arguments": [
        "0xD28473FbD87183864CAc0482DBEe1C54EE3d8Cd1"
      ],
      "transaction": {
        "from": "0xb05a948b5c1b057b88d381bde3a375efea87ebad",
        "to": "0x5ba5c0d3908c12773adf3a8c2aa504339b537011",
        "gas": "0xba52",
        "value": "0x0",
        "input": "0xf2fde38b000000000000000000000000d28473fbd87183864cac0482dbee1c54ee3d8cd1",
        "nonce": "0xa8f",
        "chainId": "0x66eee"
      },
      "additionalContracts": [],
      "isFixedGasLimit": false
    },
    {
      "hash": "0x2930b51284a716f7e617a1709b65ed0bd83346d2c3b20e13aafd01dd84fe5c59",
      "transactionType": "CALL",
      "contractName": "ERC1967Proxy",
      "contractAddress": "0x5d63ec43e1ac82d0bb4434f2d2202eec7bb05d69",
      "function": null,
      "arguments": null,
      "transaction": {
        "from": "0xb05a948b5c1b057b88d381bde3a375efea87ebad",
        "to": "0x5d63ec43e1ac82d0bb4434f2d2202eec7bb05d69",
        "gas": "0xba52",
        "value": "0x0",
        "input": "0xf2fde38b000000000000000000000000d28473fbd87183864cac0482dbee1c54ee3d8cd1",
        "nonce": "0xa90",
        "chainId": "0x66eee"
      },
      "additionalContracts": [],
      "isFixedGasLimit": false
    },
    {
      "hash": "0x3c6ebebab906d441a3b1f3b8ba66d2296ab781f7feb73969adb400a2c934dc71",
      "transactionType": "CALL",
      "contractName": "ERC1967Proxy",
      "contractAddress": "0x6500599270e13fbed12c1de58904e0358937a66c",
      "function": null,
      "arguments": null,
      "transaction": {
        "from": "0xb05a948b5c1b057b88d381bde3a375efea87ebad",
        "to": "0x6500599270e13fbed12c1de58904e0358937a66c",
        "gas": "0xba52",
        "value": "0x0",
        "input": "0xf2fde38b000000000000000000000000d28473fbd87183864cac0482dbee1c54ee3d8cd1",
        "nonce": "0xa91",
        "chainId": "0x66eee"
      },
      "additionalContracts": [],
      "isFixedGasLimit": false
    },
    {
      "hash": "0x09d31f23d10d9729c1965ff0988a19dc1413fd718b12f7630cd114650602ba22",
      "transactionType": "CALL",
      "contractName": "ERC1967Proxy",
      "contractAddress": "0x768a7ce48322a6360db94a4c3eae3e50babb032c",
      "function": null,
      "arguments": null,
      "transaction": {
        "from": "0xb05a948b5c1b057b88d381bde3a375efea87ebad",
        "to": "0x768a7ce48322a6360db94a4c3eae3e50babb032c",
        "gas": "0xba52",
        "value": "0x0",
        "input": "0xf2fde38b000000000000000000000000d28473fbd87183864cac0482dbee1c54ee3d8cd1",
        "nonce": "0xa92",
        "chainId": "0x66eee"
      },
      "additionalContracts": [],
      "isFixedGasLimit": false
    },
    {
      "hash": "0x04eeac7cd59f2e11382c88796a87356e877fa695a2a46e6b4d010260beb3aeae",
      "transactionType": "CALL",
      "contractName": "ERC1967Proxy",
      "contractAddress": "0x769e1039322c9516581849485f9780390c2fac9c",
      "function": null,
      "arguments": null,
      "transaction": {
        "from": "0xb05a948b5c1b057b88d381bde3a375efea87ebad",
        "to": "0x769e1039322c9516581849485f9780390c2fac9c",
        "gas": "0xba52",
        "value": "0x0",
        "input": "0xf2fde38b000000000000000000000000d28473fbd87183864cac0482dbee1c54ee3d8cd1",
        "nonce": "0xa93",
        "chainId": "0x66eee"
      },
      "additionalContracts": [],
      "isFixedGasLimit": false
    },
    {
      "hash": "0x5b2c8340cd282dadcfbc899d099c3ab9bdf754495902ad89e2641b099778890c",
      "transactionType": "CALL",
      "contractName": "ERC1967Proxy",
      "contractAddress": "0x7932c33f0a0dd335aecbe83a3d88b2435543a0fb",
      "function": null,
      "arguments": null,
      "transaction": {
        "from": "0xb05a948b5c1b057b88d381bde3a375efea87ebad",
        "to": "0x7932c33f0a0dd335aecbe83a3d88b2435543a0fb",
        "gas": "0xba52",
        "value": "0x0",
        "input": "0xf2fde38b000000000000000000000000d28473fbd87183864cac0482dbee1c54ee3d8cd1",
        "nonce": "0xa94",
        "chainId": "0x66eee"
      },
      "additionalContracts": [],
      "isFixedGasLimit": false
    },
    {
      "hash": "0x8366f1f730e42d04254510b7881e9e24ba6888a48fcf8edb62c0407dff593eaf",
      "transactionType": "CALL",
      "contractName": "ERC1967Proxy",
      "contractAddress": "0x7cebd57140c10e81fb283fb3dee28f98a6a1f3e7",
      "function": null,
      "arguments": null,
      "transaction": {
        "from": "0xb05a948b5c1b057b88d381bde3a375efea87ebad",
        "to": "0x7cebd57140c10e81fb283fb3dee28f98a6a1f3e7",
        "gas": "0xba52",
        "value": "0x0",
        "input": "0xf2fde38b000000000000000000000000d28473fbd87183864cac0482dbee1c54ee3d8cd1",
        "nonce": "0xa95",
        "chainId": "0x66eee"
      },
      "additionalContracts": [],
      "isFixedGasLimit": false
    },
    {
      "hash": "0x83b65ed1f720e151fb9f41e5461d1b77b2604edb847b78dc136bb9062634ef0e",
      "transactionType": "CALL",
      "contractName": "ERC1967Proxy",
      "contractAddress": "0x84b9c9d4f40e3c05278b6f688c5c78c89c7c95a8",
      "function": null,
      "arguments": null,
      "transaction": {
        "from": "0xb05a948b5c1b057b88d381bde3a375efea87ebad",
        "to": "0x84b9c9d4f40e3c05278b6f688c5c78c89c7c95a8",
        "gas": "0xba52",
        "value": "0x0",
        "input": "0xf2fde38b000000000000000000000000d28473fbd87183864cac0482dbee1c54ee3d8cd1",
        "nonce": "0xa96",
        "chainId": "0x66eee"
      },
      "additionalContracts": [],
      "isFixedGasLimit": false
    },
    {
      "hash": "0x3058a8fdc1402efb4314d30a7c09865121d0d16f23ddb08d2a2d7c930d02161b",
      "transactionType": "CALL",
      "contractName": null,
      "contractAddress": "0x876e104878b6dfdda13d717b5c9aec91439bc45b",
      "function": "transferOwnership(address)",
      "arguments": [
        "0xD28473FbD87183864CAc0482DBEe1C54EE3d8Cd1"
      ],
      "transaction": {
        "from": "0xb05a948b5c1b057b88d381bde3a375efea87ebad",
        "to": "0x876e104878b6dfdda13d717b5c9aec91439bc45b",
        "gas": "0xba52",
        "value": "0x0",
        "input": "0xf2fde38b000000000000000000000000d28473fbd87183864cac0482dbee1c54ee3d8cd1",
        "nonce": "0xa97",
        "chainId": "0x66eee"
      },
      "additionalContracts": [],
      "isFixedGasLimit": false
    },
    {
      "hash": "0xc2d10813cbae332e285616a5d5835922443cce838330cca765aeb66da958cb30",
      "transactionType": "CALL",
      "contractName": "ERC1967Proxy",
      "contractAddress": "0xa999227ef53b685cd0a91ca2301e550e6373d03c",
      "function": null,
      "arguments": null,
      "transaction": {
        "from": "0xb05a948b5c1b057b88d381bde3a375efea87ebad",
        "to": "0xa999227ef53b685cd0a91ca2301e550e6373d03c",
        "gas": "0xba52",
        "value": "0x0",
        "input": "0xf2fde38b000000000000000000000000d28473fbd87183864cac0482dbee1c54ee3d8cd1",
        "nonce": "0xa98",
        "chainId": "0x66eee"
      },
      "additionalContracts": [],
      "isFixedGasLimit": false
    },
    {
      "hash": "0xd5866a80fa1f3e1f521a709ba5982bd47a0a8dfa5eb1353aba2c3ccf9c7dc51b",
      "transactionType": "CALL",
      "contractName": "ERC1967Proxy",
      "contractAddress": "0xaf83df434a976e7e4620e44b474c40f6fa7dbe18",
      "function": null,
      "arguments": null,
      "transaction": {
        "from": "0xb05a948b5c1b057b88d381bde3a375efea87ebad",
        "to": "0xaf83df434a976e7e4620e44b474c40f6fa7dbe18",
        "gas": "0xba52",
        "value": "0x0",
        "input": "0xf2fde38b000000000000000000000000d28473fbd87183864cac0482dbee1c54ee3d8cd1",
        "nonce": "0xa99",
        "chainId": "0x66eee"
      },
      "additionalContracts": [],
      "isFixedGasLimit": false
    },
    {
      "hash": "0xf59b566ed728a5a20b039dd1694194fd5d98d64ac4ff1fe42bbb18061c1674b9",
      "transactionType": "CALL",
      "contractName": null,
      "contractAddress": "0xb4a340406311a6baf6d0ca84059ca69bb3b02a07",
      "function": "transferOwnership(address)",
      "arguments": [
        "0xD28473FbD87183864CAc0482DBEe1C54EE3d8Cd1"
      ],
      "transaction": {
        "from": "0xb05a948b5c1b057b88d381bde3a375efea87ebad",
        "to": "0xb4a340406311a6baf6d0ca84059ca69bb3b02a07",
        "gas": "0xba52",
        "value": "0x0",
        "input": "0xf2fde38b000000000000000000000000d28473fbd87183864cac0482dbee1c54ee3d8cd1",
        "nonce": "0xa9a",
        "chainId": "0x66eee"
      },
      "additionalContracts": [],
      "isFixedGasLimit": false
    },
    {
      "hash": "0xa0bd6ec435e498e1a42f65cbc58c11871b97c2d90447c3b9c009bb0834f0a921",
      "transactionType": "CALL",
      "contractName": null,
      "contractAddress": "0xb9540d3e9dff4de30ae19a96c604d261d3919a21",
      "function": "transferOwnership(address)",
      "arguments": [
        "0xD28473FbD87183864CAc0482DBEe1C54EE3d8Cd1"
      ],
      "transaction": {
        "from": "0xb05a948b5c1b057b88d381bde3a375efea87ebad",
        "to": "0xb9540d3e9dff4de30ae19a96c604d261d3919a21",
        "gas": "0xba52",
        "value": "0x0",
        "input": "0xf2fde38b000000000000000000000000d28473fbd87183864cac0482dbee1c54ee3d8cd1",
        "nonce": "0xa9b",
        "chainId": "0x66eee"
      },
      "additionalContracts": [],
      "isFixedGasLimit": false
    },
    {
      "hash": "0x7706701bf9b5684786b62f6dc0f35db5671a64eff6754fd1cb9ff9b6c379aaa1",
      "transactionType": "CALL",
      "contractName": "ERC1967Proxy",
      "contractAddress": "0xbd7474ca99a439d2926526a0168e3e948d2987c6",
      "function": null,
      "arguments": null,
      "transaction": {
        "from": "0xb05a948b5c1b057b88d381bde3a375efea87ebad",
        "to": "0xbd7474ca99a439d2926526a0168e3e948d2987c6",
        "gas": "0xba52",
        "value": "0x0",
        "input": "0xf2fde38b000000000000000000000000d28473fbd87183864cac0482dbee1c54ee3d8cd1",
        "nonce": "0xa9c",
        "chainId": "0x66eee"
      },
      "additionalContracts": [],
      "isFixedGasLimit": false
    },
    {
      "hash": "0x1ffef241c413c5c84c20ab2ebe31e7f81133cbfa9586d711840a8a841546d4e0",
      "transactionType": "CALL",
      "contractName": "ERC1967Proxy",
      "contractAddress": "0xbf647db7c6bbacaab6a1e956f97c1c4df5ca0d3e",
      "function": null,
      "arguments": null,
      "transaction": {
        "from": "0xb05a948b5c1b057b88d381bde3a375efea87ebad",
        "to": "0xbf647db7c6bbacaab6a1e956f97c1c4df5ca0d3e",
        "gas": "0xba52",
        "value": "0x0",
        "input": "0xf2fde38b000000000000000000000000d28473fbd87183864cac0482dbee1c54ee3d8cd1",
        "nonce": "0xa9d",
        "chainId": "0x66eee"
      },
      "additionalContracts": [],
      "isFixedGasLimit": false
    },
    {
      "hash": "0x3b42ea7c02b09d30334e347161607007273da7d6c299bef24b87fcba70ae5ae0",
      "transactionType": "CALL",
      "contractName": null,
      "contractAddress": "0xc0410861dbae69dbe94ab2db56ef988625dcd322",
      "function": "transferOwnership(address)",
      "arguments": [
        "0xD28473FbD87183864CAc0482DBEe1C54EE3d8Cd1"
      ],
      "transaction": {
        "from": "0xb05a948b5c1b057b88d381bde3a375efea87ebad",
        "to": "0xc0410861dbae69dbe94ab2db56ef988625dcd322",
        "gas": "0xba52",
        "value": "0x0",
        "input": "0xf2fde38b000000000000000000000000d28473fbd87183864cac0482dbee1c54ee3d8cd1",
        "nonce": "0xa9e",
        "chainId": "0x66eee"
      },
      "additionalContracts": [],
      "isFixedGasLimit": false
    },
    {
      "hash": "0xabb42c071d018bdf8cee82498ecb141965e83de4672cba151197630dd69313cd",
      "transactionType": "CALL",
      "contractName": "ERC1967Proxy",
      "contractAddress": "0xc5ae99a250617a875abc9bbb485dfde746cf3ba9",
      "function": null,
      "arguments": null,
      "transaction": {
        "from": "0xb05a948b5c1b057b88d381bde3a375efea87ebad",
        "to": "0xc5ae99a250617a875abc9bbb485dfde746cf3ba9",
        "gas": "0xba52",
        "value": "0x0",
        "input": "0xf2fde38b000000000000000000000000d28473fbd87183864cac0482dbee1c54ee3d8cd1",
        "nonce": "0xa9f",
        "chainId": "0x66eee"
      },
      "additionalContracts": [],
      "isFixedGasLimit": false
    },
    {
      "hash": "0x19bc6cb632bd965d9bc585cac7c2aad6aa3b28eb46b8876e91feb8b476f9cfdf",
      "transactionType": "CALL",
      "contractName": "ERC1967Proxy",
      "contractAddress": "0xcb9a68e1707b028a7236c08c6c67eb760bb4977d",
      "function": null,
      "arguments": null,
      "transaction": {
        "from": "0xb05a948b5c1b057b88d381bde3a375efea87ebad",
        "to": "0xcb9a68e1707b028a7236c08c6c67eb760bb4977d",
        "gas": "0xba52",
        "value": "0x0",
        "input": "0xf2fde38b000000000000000000000000d28473fbd87183864cac0482dbee1c54ee3d8cd1",
        "nonce": "0xaa0",
        "chainId": "0x66eee"
      },
      "additionalContracts": [],
      "isFixedGasLimit": false
    },
    {
      "hash": "0x1b6dda77185eb586b8ca27d0b603e92e46f3e518e659eba471e0b91850b9f1b2",
      "transactionType": "CALL",
      "contractName": "ERC1967Proxy",
      "contractAddress": "0xd76cd68881ad9c95000ad0a8d2f332374e91d23b",
      "function": null,
      "arguments": null,
      "transaction": {
        "from": "0xb05a948b5c1b057b88d381bde3a375efea87ebad",
        "to": "0xd76cd68881ad9c95000ad0a8d2f332374e91d23b",
        "gas": "0xba52",
        "value": "0x0",
        "input": "0xf2fde38b000000000000000000000000d28473fbd87183864cac0482dbee1c54ee3d8cd1",
        "nonce": "0xaa1",
        "chainId": "0x66eee"
      },
      "additionalContracts": [],
      "isFixedGasLimit": false
    },
    {
      "hash": "0x90086bf8f610da4c942aaca1d4b9a06db589a47a4a641ac430f8baac3514ba65",
      "transactionType": "CALL",
      "contractName": "ERC1967Proxy",
      "contractAddress": "0xd8e2fc7ddc06e67b039cfaf2e1255de55e0789a0",
      "function": null,
      "arguments": null,
      "transaction": {
        "from": "0xb05a948b5c1b057b88d381bde3a375efea87ebad",
        "to": "0xd8e2fc7ddc06e67b039cfaf2e1255de55e0789a0",
        "gas": "0xba52",
        "value": "0x0",
        "input": "0xf2fde38b000000000000000000000000d28473fbd87183864cac0482dbee1c54ee3d8cd1",
        "nonce": "0xaa2",
        "chainId": "0x66eee"
      },
      "additionalContracts": [],
      "isFixedGasLimit": false
    },
    {
      "hash": "0x3df0989e84ad733e6370e9d0d930ec5992f0db0a149288de0664044ec089d5ff",
      "transactionType": "CALL",
      "contractName": "ERC1967Proxy",
      "contractAddress": "0xdc3a597e60297bf51627918019ba7252b844970c",
      "function": null,
      "arguments": null,
      "transaction": {
        "from": "0xb05a948b5c1b057b88d381bde3a375efea87ebad",
        "to": "0xdc3a597e60297bf51627918019ba7252b844970c",
        "gas": "0xba52",
        "value": "0x0",
        "input": "0xf2fde38b000000000000000000000000d28473fbd87183864cac0482dbee1c54ee3d8cd1",
        "nonce": "0xaa3",
        "chainId": "0x66eee"
      },
      "additionalContracts": [],
      "isFixedGasLimit": false
    },
    {
      "hash": "0xc619af47d46c624f4dd606c7bf7a36da432167035a9331cfd610f30f4f16186c",
      "transactionType": "CALL",
      "contractName": null,
      "contractAddress": "0xdd02fe21984aef0d8d3fa46d545b2dece39749b4",
      "function": "transferOwnership(address)",
      "arguments": [
        "0xD28473FbD87183864CAc0482DBEe1C54EE3d8Cd1"
      ],
      "transaction": {
        "from": "0xb05a948b5c1b057b88d381bde3a375efea87ebad",
        "to": "0xdd02fe21984aef0d8d3fa46d545b2dece39749b4",
        "gas": "0xba52",
        "value": "0x0",
        "input": "0xf2fde38b000000000000000000000000d28473fbd87183864cac0482dbee1c54ee3d8cd1",
        "nonce": "0xaa4",
        "chainId": "0x66eee"
      },
      "additionalContracts": [],
      "isFixedGasLimit": false
    },
    {
      "hash": "0x8f2eb537d14d6629a73d1ab4a64bf22f61b0198fa53a1dbfcfb9fd315f53cd2e",
      "transactionType": "CALL",
      "contractName": null,
      "contractAddress": "0xe0eb96a8c31d95ccca8f7fa52ee38d0d42b4167b",
      "function": "transferOwnership(address)",
      "arguments": [
        "0xD28473FbD87183864CAc0482DBEe1C54EE3d8Cd1"
      ],
      "transaction": {
        "from": "0xb05a948b5c1b057b88d381bde3a375efea87ebad",
        "to": "0xe0eb96a8c31d95ccca8f7fa52ee38d0d42b4167b",
        "gas": "0xba52",
        "value": "0x0",
        "input": "0xf2fde38b000000000000000000000000d28473fbd87183864cac0482dbee1c54ee3d8cd1",
        "nonce": "0xaa5",
        "chainId": "0x66eee"
      },
      "additionalContracts": [],
      "isFixedGasLimit": false
    },
    {
      "hash": "0x446c8efaeea982c204070618a02586a60e3d7e3e4a6d5166e4fbd89633fc1f69",
      "transactionType": "CALL",
      "contractName": "ERC1967Proxy",
      "contractAddress": "0xe57e7f0707bdb9c826a7c6da352dfb2be1275c21",
      "function": null,
      "arguments": null,
      "transaction": {
        "from": "0xb05a948b5c1b057b88d381bde3a375efea87ebad",
        "to": "0xe57e7f0707bdb9c826a7c6da352dfb2be1275c21",
        "gas": "0xba52",
        "value": "0x0",
        "input": "0xf2fde38b000000000000000000000000d28473fbd87183864cac0482dbee1c54ee3d8cd1",
        "nonce": "0xaa6",
        "chainId": "0x66eee"
      },
      "additionalContracts": [],
      "isFixedGasLimit": false
    },
    {
      "hash": "0x9437ee115f506a6d76247f0ee4f4eb587a01e443afeaf3f6a4b9e5ab2fa5a3e4",
      "transactionType": "CALL",
      "contractName": null,
      "contractAddress": "0xee81fb9c0a60dfc69a7922bc3472418dd46f7dd3",
      "function": "transferOwnership(address)",
      "arguments": [
        "0xD28473FbD87183864CAc0482DBEe1C54EE3d8Cd1"
      ],
      "transaction": {
        "from": "0xb05a948b5c1b057b88d381bde3a375efea87ebad",
        "to": "0xee81fb9c0a60dfc69a7922bc3472418dd46f7dd3",
        "gas": "0xba52",
        "value": "0x0",
        "input": "0xf2fde38b000000000000000000000000d28473fbd87183864cac0482dbee1c54ee3d8cd1",
        "nonce": "0xaa7",
        "chainId": "0x66eee"
      },
      "additionalContracts": [],
      "isFixedGasLimit": false
    },
    {
      "hash": "0x5caf439b6f9f7ae01460afce78e5b304c2f263e1f10a167ecc3c3e4389404291",
      "transactionType": "CALL",
      "contractName": "ERC1967Proxy",
      "contractAddress": "0xfbaecc060d6a9051eb13c824b9eaff825976d44f",
      "function": null,
      "arguments": null,
      "transaction": {
        "from": "0xb05a948b5c1b057b88d381bde3a375efea87ebad",
        "to": "0xfbaecc060d6a9051eb13c824b9eaff825976d44f",
        "gas": "0xba52",
        "value": "0x0",
        "input": "0xf2fde38b000000000000000000000000d28473fbd87183864cac0482dbee1c54ee3d8cd1",
        "nonce": "0xaa8",
        "chainId": "0x66eee"
      },
      "additionalContracts": [],
      "isFixedGasLimit": false
    },
    {
      "hash": "0x6d9c0caea30da14bbc86416e3204b2e2b505f6e4371a078db9429089665dfe36",
      "transactionType": "CALL",
      "contractName": "ERC1967Proxy",
      "contractAddress": "0xfd71d94f892670d3085cfaf1d93d0e4eb0b8963b",
      "function": null,
      "arguments": null,
      "transaction": {
        "from": "0xb05a948b5c1b057b88d381bde3a375efea87ebad",
        "to": "0xfd71d94f892670d3085cfaf1d93d0e4eb0b8963b",
        "gas": "0xba52",
        "value": "0x0",
        "input": "0xf2fde38b000000000000000000000000d28473fbd87183864cac0482dbee1c54ee3d8cd1",
        "nonce": "0xaa9",
        "chainId": "0x66eee"
      },
      "additionalContracts": [],
      "isFixedGasLimit": false
    }
  ],
  "receipts": [
    {
      "status": "0x1",
      "cumulativeGasUsed": "0x86f5",
      "logs": [
        {
          "address": "0xe32566076534973ff78b512ec6a321a58c2b735c",
          "topics": [
            "0x8be0079c531659141344cd1fd0a4f28419497f9722a3daafe3b4186f6b6457e0",
            "0x000000000000000000000000b05a948b5c1b057b88d381bde3a375efea87ebad",
            "0x000000000000000000000000d28473fbd87183864cac0482dbee1c54ee3d8cd1"
          ],
          "data": "0x",
          "blockHash": "0x4276e3e015090c3e5a48742cc8417c32d5ab16c7eb3b63423dd44003b35c5e62",
          "blockNumber": "0x5b45168",
          "transactionHash": "0x31d9ea072db61f6f33e9bed365f4068e50271469086b77efb736f15177c77089",
          "transactionIndex": "0x1",
          "logIndex": "0x0",
          "removed": false
        }
      ],
      "logsBloom": "0x00000000000000000000000000000000000000000000000000800000000000000000000000000000000000000000000000000000000000000000000000000000000000000000000000008000000000000001000000000000000000000000000000000000000000000000000000000000000000000000000000000000000000400002000000000000000000000000000000000000000000000000040000000000000001000000000000000000000000000000000000000000000000000000000000000000000000000000000000010000000000000000000000000000000080000000000000000000001000400000000000000000000000020000000000000000",
      "type": "0x2",
      "transactionHash": "0x31d9ea072db61f6f33e9bed365f4068e50271469086b77efb736f15177c77089",
      "transactionIndex": "0x1",
      "blockHash": "0x4276e3e015090c3e5a48742cc8417c32d5ab16c7eb3b63423dd44003b35c5e62",
      "blockNumber": "0x5b45168",
      "gasUsed": "0x86f5",
      "effectiveGasPrice": "0x5f5e100",
      "from": "0xb05a948b5c1b057b88d381bde3a375efea87ebad",
      "to": "0xe32566076534973ff78b512ec6a321a58c2b735c",
      "contractAddress": null,
      "gasUsedForL1": "0x394",
      "l1BlockNumber": "0x6b6c93"
    },
    {
      "status": "0x1",
      "cumulativeGasUsed": "0x8738",
      "logs": [
        {
          "address": "0xff53a163e43eccc00d8fde7aca24aa9fa4da7356",
          "topics": [
            "0x8be0079c531659141344cd1fd0a4f28419497f9722a3daafe3b4186f6b6457e0",
            "0x000000000000000000000000b05a948b5c1b057b88d381bde3a375efea87ebad",
            "0x000000000000000000000000d28473fbd87183864cac0482dbee1c54ee3d8cd1"
          ],
          "data": "0x",
          "blockHash": "0x5d8d6147d36934adb027660de01f7b0532a802dae70f6a637da1361b7064f8a7",
          "blockNumber": "0x5b45169",
          "transactionHash": "0xe4b7fa48f00b2e63fc936381210a76cabf54bcb4913529ceed3e0e8fb6e69a6c",
          "transactionIndex": "0x1",
          "logIndex": "0x0",
          "removed": false
        }
      ],
      "logsBloom": "0x00000000000000000000000000000000000000000000000000800000000000000000000000000000000000000000000000400000000000000000000000000000000000000000000000000000000000000001000000000000000000000002000000000000000000000000000000000000000000000000000000000000000000400002000000000000000000000000000000000000000000000000040000000000000001000000000000000000000000000000000000000000000000000000000000000000000000000000000000010000000000000000000000000000000080000000000000000000000000000000000000000000000000020000000000800000",
      "type": "0x2",
      "transactionHash": "0xe4b7fa48f00b2e63fc936381210a76cabf54bcb4913529ceed3e0e8fb6e69a6c",
      "transactionIndex": "0x1",
      "blockHash": "0x5d8d6147d36934adb027660de01f7b0532a802dae70f6a637da1361b7064f8a7",
      "blockNumber": "0x5b45169",
      "gasUsed": "0x8738",
      "effectiveGasPrice": "0x5f5e100",
      "from": "0xb05a948b5c1b057b88d381bde3a375efea87ebad",
      "to": "0xff53a163e43eccc00d8fde7aca24aa9fa4da7356",
      "contractAddress": null,
      "gasUsedForL1": "0x394",
      "l1BlockNumber": "0x6b6c93"
    },
    {
      "status": "0x1",
      "cumulativeGasUsed": "0xafe0",
      "logs": [
        {
          "address": "0x7a603877488db46c0f6b40c2c770becfd7a65593",
          "topics": [
            "0x8be0079c531659141344cd1fd0a4f28419497f9722a3daafe3b4186f6b6457e0",
            "0x000000000000000000000000ec218e667900a164ca5526237e3cf97584b9b0e1",
            "0x000000000000000000000000d28473fbd87183864cac0482dbee1c54ee3d8cd1"
          ],
          "data": "0x",
          "blockHash": "0xd25710702e9830ed77ea0c953dcdd01dd60f343324931db8130c5dbd6aad2302",
          "blockNumber": "0x5b4516d",
          "transactionHash": "0x1576dea5e1b9ac9da40912a3cada8b1ed79e304606126b02781ec0889f08e32e",
          "transactionIndex": "0x1",
          "logIndex": "0x0",
          "removed": false
        }
      ],
      "logsBloom": "0x00000000000000000000000000001000000000000000000000800000000000000000000000000000000000000000000000000000000000000000000000000000000000000000000080000000000000000001000000000000000000000000000000000000000000000000000200000000000000000000000000000000000000400000000000002000000000000000000000100000000000000000000000000000000003000000000000000000000000000000000000000000000000000000000000000000000000000000000000010000000000000000000000000000000000000000000000000000000000000000000000000000000000020000000000000000",
      "type": "0x2",
      "transactionHash": "0x1576dea5e1b9ac9da40912a3cada8b1ed79e304606126b02781ec0889f08e32e",
      "transactionIndex": "0x1",
      "blockHash": "0xd25710702e9830ed77ea0c953dcdd01dd60f343324931db8130c5dbd6aad2302",
      "blockNumber": "0x5b4516d",
      "gasUsed": "0xafe0",
      "effectiveGasPrice": "0x5f5e100",
      "from": "0xb05a948b5c1b057b88d381bde3a375efea87ebad",
      "to": "0x7a603877488db46c0f6b40c2c770becfd7a65593",
      "contractAddress": null,
      "gasUsedForL1": "0x394",
      "l1BlockNumber": "0x6b6c93"
    },
    {
      "status": "0x1",
      "cumulativeGasUsed": "0xe122",
      "logs": [
        {
          "address": "0x17a3d80b587202999243aca5e7938537d090d420",
          "topics": [
            "0x8be0079c531659141344cd1fd0a4f28419497f9722a3daafe3b4186f6b6457e0",
            "0x000000000000000000000000b05a948b5c1b057b88d381bde3a375efea87ebad",
            "0x000000000000000000000000d28473fbd87183864cac0482dbee1c54ee3d8cd1"
          ],
          "data": "0x",
          "blockHash": "0x52d7178bef3cfc6466fc28a780cacd20720f20738795b7a05722e9ec18891a75",
          "blockNumber": "0x5b4516f",
          "transactionHash": "0xd4de7768d00bd9bb0372523677c2d80e62e07ac1ea9197e5fe74ba723c201ae1",
          "transactionIndex": "0x2",
          "logIndex": "0x0",
          "removed": false
        }
      ],
      "logsBloom": "0x00000000000000000000000000004000000000000000000000800000000000000000000000000000000000000000000000000000000000000000000000000000000000000000000000008000000000000001004000000000000000000000000000000000000000000000000000000000000000000000000000000000000000400002000000000000000000000000000000000000000000000000040000000000000001000000000000000000000000000000000000000000000000000000000000000000000000000000000000010000000000000000000000000000000080000000000000000000000000000000000000000000000000020000000000000000",
      "type": "0x2",
      "transactionHash": "0xd4de7768d00bd9bb0372523677c2d80e62e07ac1ea9197e5fe74ba723c201ae1",
      "transactionIndex": "0x2",
      "blockHash": "0x52d7178bef3cfc6466fc28a780cacd20720f20738795b7a05722e9ec18891a75",
      "blockNumber": "0x5b4516f",
      "gasUsed": "0x8c2b",
      "effectiveGasPrice": "0x5f5e100",
      "from": "0xb05a948b5c1b057b88d381bde3a375efea87ebad",
      "to": "0x17a3d80b587202999243aca5e7938537d090d420",
      "contractAddress": null,
      "gasUsedForL1": "0x394",
      "l1BlockNumber": "0x6b6c93"
    },
    {
      "status": "0x1",
      "cumulativeGasUsed": "0x8c2b",
      "logs": [
        {
          "address": "0x20731544b8c29c17c42a1cb1278371af5c08142f",
          "topics": [
            "0x8be0079c531659141344cd1fd0a4f28419497f9722a3daafe3b4186f6b6457e0",
            "0x000000000000000000000000b05a948b5c1b057b88d381bde3a375efea87ebad",
            "0x000000000000000000000000d28473fbd87183864cac0482dbee1c54ee3d8cd1"
          ],
          "data": "0x",
          "blockHash": "0x01d5344df02804a2970820c9d2a779f59d37ca515523c78284e6bfa13eb34261",
          "blockNumber": "0x5b45172",
          "transactionHash": "0xf3797c48455f99b13612ac5980f047548e1eda4bb0103c9a552054ec3af398cc",
          "transactionIndex": "0x1",
          "logIndex": "0x0",
          "removed": false
        }
      ],
      "logsBloom": "0x00000000000000000000000000000000000000000000000000800000000000000000000000000000000000000000000000000000000000000000000000000000000000000000000000000000000000000001000000000000000000000000000000000000000000000000000000000000000000000000008000000000000000404002000000000000000000000000000000000000000000000000040000000000000001000000000000000000000000000000000000000000000000000000000000200000000000000000000000010000000000000000000000000000000080000000000000000000000000000000000000000000000000020000000000000000",
      "type": "0x2",
      "transactionHash": "0xf3797c48455f99b13612ac5980f047548e1eda4bb0103c9a552054ec3af398cc",
      "transactionIndex": "0x1",
      "blockHash": "0x01d5344df02804a2970820c9d2a779f59d37ca515523c78284e6bfa13eb34261",
      "blockNumber": "0x5b45172",
      "gasUsed": "0x8c2b",
      "effectiveGasPrice": "0x5f5e100",
      "from": "0xb05a948b5c1b057b88d381bde3a375efea87ebad",
      "to": "0x20731544b8c29c17c42a1cb1278371af5c08142f",
      "contractAddress": null,
      "gasUsedForL1": "0x394",
      "l1BlockNumber": "0x6b6c93"
    },
    {
      "status": "0x1",
      "cumulativeGasUsed": "0x2349a",
      "logs": [
        {
          "address": "0x4d434729b80c95b0454a77fc152464b2f196abf0",
          "topics": [
            "0x8be0079c531659141344cd1fd0a4f28419497f9722a3daafe3b4186f6b6457e0",
            "0x000000000000000000000000b05a948b5c1b057b88d381bde3a375efea87ebad",
            "0x000000000000000000000000d28473fbd87183864cac0482dbee1c54ee3d8cd1"
          ],
          "data": "0x",
          "blockHash": "0x836a9808718f1a43444cb821bc6717afaf1b2d9ffc08b02405c6dd48e6b70d16",
          "blockNumber": "0x5b45174",
          "transactionHash": "0x2fbd609a17857fbaefe14775baccab27bfa44d05d99d782adef67031845c8f11",
          "transactionIndex": "0x2",
          "logIndex": "0x1",
          "removed": false
        }
      ],
      "logsBloom": "0x00000000000000000000000000000000000000000000000000800000000000000000000008000000000000000000000000000000000000000000000000000000000000000000000000000000000000000001000000000000000000000000000000000000000000000000000000000000000000000000000000000000000000400002000000800000000000000000000000000000000000000000040000000000000001000000000000000000000000000000000000000000000000000000000000000000000000080000000000010000000000000000000000000000000080000000000000000000000000000000000000000000000000020000000000000000",
      "type": "0x2",
      "transactionHash": "0x2fbd609a17857fbaefe14775baccab27bfa44d05d99d782adef67031845c8f11",
      "transactionIndex": "0x2",
      "blockHash": "0x836a9808718f1a43444cb821bc6717afaf1b2d9ffc08b02405c6dd48e6b70d16",
      "blockNumber": "0x5b45174",
      "gasUsed": "0x8c2b",
      "effectiveGasPrice": "0x5f5e100",
      "from": "0xb05a948b5c1b057b88d381bde3a375efea87ebad",
      "to": "0x4d434729b80c95b0454a77fc152464b2f196abf0",
      "contractAddress": null,
      "gasUsedForL1": "0x394",
      "l1BlockNumber": "0x6b6c93"
    },
    {
      "status": "0x1",
      "cumulativeGasUsed": "0x8c2b",
      "logs": [
        {
          "address": "0x5a044599606c86e14e085f4bada529242d28e5e8",
          "topics": [
            "0x8be0079c531659141344cd1fd0a4f28419497f9722a3daafe3b4186f6b6457e0",
            "0x000000000000000000000000b05a948b5c1b057b88d381bde3a375efea87ebad",
            "0x000000000000000000000000d28473fbd87183864cac0482dbee1c54ee3d8cd1"
          ],
          "data": "0x",
          "blockHash": "0xfea456b08a043e7abdca1e8d27737a41351b39c524438023a8e1d9deb36aba1b",
          "blockNumber": "0x5b45175",
          "transactionHash": "0x86fc4cd7ab00b6d9b71cd603143160fb575e52ae9cfa9c0f57a654aefc421621",
          "transactionIndex": "0x1",
          "logIndex": "0x0",
          "removed": false
        }
      ],
      "logsBloom": "0x000000000000000000000000000000000000000000000000008000000000000000000000000000000000000000000000000000000000000000000000000000000000000000000000000000000000000000010000000000000000000000000000000000000000000000000000000000000000000000000000000000000000004000020000000000000000000000000000000000000000000000000400000000000000010000000000000000000000000000000000000000000000000000000000000000000800000000000000000100000000000000000000000000000000c0000000000000000000000010000000000000000000000000020000000000000000",
      "type": "0x2",
      "transactionHash": "0x86fc4cd7ab00b6d9b71cd603143160fb575e52ae9cfa9c0f57a654aefc421621",
      "transactionIndex": "0x1",
      "blockHash": "0xfea456b08a043e7abdca1e8d27737a41351b39c524438023a8e1d9deb36aba1b",
      "blockNumber": "0x5b45175",
      "gasUsed": "0x8c2b",
      "effectiveGasPrice": "0x5f5e100",
      "from": "0xb05a948b5c1b057b88d381bde3a375efea87ebad",
      "to": "0x5a044599606c86e14e085f4bada529242d28e5e8",
      "contractAddress": null,
      "gasUsedForL1": "0x394",
      "l1BlockNumber": "0x6b6c93"
    },
    {
      "status": "0x1",
      "cumulativeGasUsed": "0x8c2b",
      "logs": [
        {
          "address": "0x622255fc131da4294cabfb7f08cc3add78fd728f",
          "topics": [
            "0x8be0079c531659141344cd1fd0a4f28419497f9722a3daafe3b4186f6b6457e0",
            "0x000000000000000000000000b05a948b5c1b057b88d381bde3a375efea87ebad",
            "0x000000000000000000000000d28473fbd87183864cac0482dbee1c54ee3d8cd1"
          ],
          "data": "0x",
          "blockHash": "0x9eed07eee7fa9e93d8215045e834c16adfbbcdcd586c84f27bffd222f574b572",
          "blockNumber": "0x5b4517a",
          "transactionHash": "0xe4ee823e720de7824d7d08ea12a750356ad1c9ce8b6dc50d9a658eb4e1680761",
          "transactionIndex": "0x1",
          "logIndex": "0x0",
          "removed": false
        }
      ],
      "logsBloom": "0x00000000000000000000000000000000000000000000000000800000000000000000200000000000000000000000000000000000000000000000000000008000000000000000000000000000000000000001000000000000000000000000000010000000000000000000000000000000000000000000000000000000000000400002000000000000000000000000000000000000000000000000040000000000000001000000000000000000000000000000000000000000000000000000000000000000000000000000000000010000000000000000000000000000000080000000000000000000000000000000000000000000000000020000000000000000",
      "type": "0x2",
      "transactionHash": "0xe4ee823e720de7824d7d08ea12a750356ad1c9ce8b6dc50d9a658eb4e1680761",
      "transactionIndex": "0x1",
      "blockHash": "0x9eed07eee7fa9e93d8215045e834c16adfbbcdcd586c84f27bffd222f574b572",
      "blockNumber": "0x5b4517a",
      "gasUsed": "0x8c2b",
      "effectiveGasPrice": "0x5f5e100",
      "from": "0xb05a948b5c1b057b88d381bde3a375efea87ebad",
      "to": "0x622255fc131da4294cabfb7f08cc3add78fd728f",
      "contractAddress": null,
      "gasUsedForL1": "0x394",
      "l1BlockNumber": "0x6b6c93"
    },
    {
      "status": "0x1",
      "cumulativeGasUsed": "0x8c2b",
      "logs": [
        {
          "address": "0x724d0c3294bcea03a4e54db48d5c721112ff8171",
          "topics": [
            "0x8be0079c531659141344cd1fd0a4f28419497f9722a3daafe3b4186f6b6457e0",
            "0x000000000000000000000000b05a948b5c1b057b88d381bde3a375efea87ebad",
            "0x000000000000000000000000d28473fbd87183864cac0482dbee1c54ee3d8cd1"
          ],
          "data": "0x",
          "blockHash": "0x8db764b982be787beb2fe90c156d28e0a593817dec03fb6c8814ccd173abbefa",
          "blockNumber": "0x5b4517c",
          "transactionHash": "0x681ab66284cab78688aff78b75c6ad6e8d9ad0d638c22a33ddda47ef3b2bdf5f",
          "transactionIndex": "0x1",
          "logIndex": "0x0",
          "removed": false
        }
      ],
      "logsBloom": "0x00000000080000000000000000000000000000000000000000800000000000000000000000000000000000000000000000000000000000000000000000000000000000000000000000000000000000000001000000000000000000000000000000000000000000000000000000000000000000000000000000000000000000402002000000000000000000000000000000000000000000000000040000000000000001000000040000000000000000000000000000000000000000000000000000000000000000000000000000010000000000000000000000000000000080000000000000000000000000000000000000000000000000020000000000000000",
      "type": "0x2",
      "transactionHash": "0x681ab66284cab78688aff78b75c6ad6e8d9ad0d638c22a33ddda47ef3b2bdf5f",
      "transactionIndex": "0x1",
      "blockHash": "0x8db764b982be787beb2fe90c156d28e0a593817dec03fb6c8814ccd173abbefa",
      "blockNumber": "0x5b4517c",
      "gasUsed": "0x8c2b",
      "effectiveGasPrice": "0x5f5e100",
      "from": "0xb05a948b5c1b057b88d381bde3a375efea87ebad",
      "to": "0x724d0c3294bcea03a4e54db48d5c721112ff8171",
      "contractAddress": null,
      "gasUsedForL1": "0x394",
      "l1BlockNumber": "0x6b6c93"
    },
    {
      "status": "0x1",
      "cumulativeGasUsed": "0x8c2b",
      "logs": [
        {
          "address": "0xc2b5443ccb8aa0b8f2b93b560beaee1b5bb964e5",
          "topics": [
            "0x8be0079c531659141344cd1fd0a4f28419497f9722a3daafe3b4186f6b6457e0",
            "0x000000000000000000000000b05a948b5c1b057b88d381bde3a375efea87ebad",
            "0x000000000000000000000000d28473fbd87183864cac0482dbee1c54ee3d8cd1"
          ],
          "data": "0x",
          "blockHash": "0x105cb9f24e964f8328ed28a8b67900d6d9e091128966c81185097c42a8d54720",
          "blockNumber": "0x5b4517d",
          "transactionHash": "0xd3cb9ed071de069eb275f68317a31be86ddcb10f27460c29e8d1a80c69dedd9f",
          "transactionIndex": "0x1",
          "logIndex": "0x0",
          "removed": false
        }
      ],
      "logsBloom": "0x00000000000000000000000000000000000000000000000000800000000000000000000000000000020000000000000000000000000000000000000000000000000000000000000000000000000000000001000000000000000000000000000000000000000000000000000000800000000000000000000000000000000000400002000000000000000000000000000000000000000000000000040000000000000001000000000000000000000000000000000000000000000000000000000000000000000000000000000000010000000000000000000000000000000080000000000000000000000000000000000000080000000000020000000000000000",
      "type": "0x2",
      "transactionHash": "0xd3cb9ed071de069eb275f68317a31be86ddcb10f27460c29e8d1a80c69dedd9f",
      "transactionIndex": "0x1",
      "blockHash": "0x105cb9f24e964f8328ed28a8b67900d6d9e091128966c81185097c42a8d54720",
      "blockNumber": "0x5b4517d",
      "gasUsed": "0x8c2b",
      "effectiveGasPrice": "0x5f5e100",
      "from": "0xb05a948b5c1b057b88d381bde3a375efea87ebad",
      "to": "0xc2b5443ccb8aa0b8f2b93b560beaee1b5bb964e5",
      "contractAddress": null,
      "gasUsedForL1": "0x394",
      "l1BlockNumber": "0x6b6c93"
    },
    {
      "status": "0x1",
      "cumulativeGasUsed": "0x8c2b",
      "logs": [
        {
          "address": "0xf17e005599813f626ff6b4ff8189105b1306af94",
          "topics": [
            "0x8be0079c531659141344cd1fd0a4f28419497f9722a3daafe3b4186f6b6457e0",
            "0x000000000000000000000000b05a948b5c1b057b88d381bde3a375efea87ebad",
            "0x000000000000000000000000d28473fbd87183864cac0482dbee1c54ee3d8cd1"
          ],
          "data": "0x",
          "blockHash": "0x3ac6365751b49700e6149068aded254a5603ce5a76504ae92ca4110125ad5d1f",
          "blockNumber": "0x5b45180",
          "transactionHash": "0xf3e2b4c056ff567cd0e15864f9ccb54c2cb19571427b2e64ca5ba78c8a2884ff",
          "transactionIndex": "0x1",
          "logIndex": "0x0",
          "removed": false
        }
      ],
      "logsBloom": "0x00000000000000000000000000000000000000000000000000800000000000000000000000000000000000000000000000000000000000000000000000000000000000000000000000000000000000000001000000000000000000000000000000000000000000000000000000000000000000000000000000000000000000400002000000000000000000000000000000000000000000000000040000000000000001000000000000000004000000000000000000000000000000000000000000000000000000000000000000010000000000000000000000000000000080020000000000000000000000000000000400000000000000020000000000000000",
      "type": "0x2",
      "transactionHash": "0xf3e2b4c056ff567cd0e15864f9ccb54c2cb19571427b2e64ca5ba78c8a2884ff",
      "transactionIndex": "0x1",
      "blockHash": "0x3ac6365751b49700e6149068aded254a5603ce5a76504ae92ca4110125ad5d1f",
      "blockNumber": "0x5b45180",
      "gasUsed": "0x8c2b",
      "effectiveGasPrice": "0x5f5e100",
      "from": "0xb05a948b5c1b057b88d381bde3a375efea87ebad",
      "to": "0xf17e005599813f626ff6b4ff8189105b1306af94",
      "contractAddress": null,
      "gasUsedForL1": "0x394",
      "l1BlockNumber": "0x6b6c93"
    },
    {
      "status": "0x1",
      "cumulativeGasUsed": "0x8c2b",
      "logs": [
        {
          "address": "0xf6d60f30eed6e3ec588242cff30d9c8f596370cb",
          "topics": [
            "0x8be0079c531659141344cd1fd0a4f28419497f9722a3daafe3b4186f6b6457e0",
            "0x000000000000000000000000b05a948b5c1b057b88d381bde3a375efea87ebad",
            "0x000000000000000000000000d28473fbd87183864cac0482dbee1c54ee3d8cd1"
          ],
          "data": "0x",
          "blockHash": "0x6a9995b86b837ef6d0aff2906fa7c62f8147aaef685c2f39e07a03a0d001377e",
          "blockNumber": "0x5b45183",
          "transactionHash": "0x77e51b0da80bd26cf5f7523ee0c323d079dc821f43765718e025263f472d8bb8",
          "transactionIndex": "0x1",
          "logIndex": "0x0",
          "removed": false
        }
      ],
      "logsBloom": "0x00000000000000000000000000000000000000000000000000800000000000000000000000000000000000000000000000000000000000000080000000000000000000000000000000000000000000000001000000000000000000000000000000000000000000000000000000000000000000000000000000000000000000400002000000000000000000000000000000000000000000000000040000000000000001000040000000000000000000000000000000000000000000000000000001000000000000000000000000010000000000000000000000000000000080000000000000000000000000000000000000000000000000020000000000000000",
      "type": "0x2",
      "transactionHash": "0x77e51b0da80bd26cf5f7523ee0c323d079dc821f43765718e025263f472d8bb8",
      "transactionIndex": "0x1",
      "blockHash": "0x6a9995b86b837ef6d0aff2906fa7c62f8147aaef685c2f39e07a03a0d001377e",
      "blockNumber": "0x5b45183",
      "gasUsed": "0x8c2b",
      "effectiveGasPrice": "0x5f5e100",
      "from": "0xb05a948b5c1b057b88d381bde3a375efea87ebad",
      "to": "0xf6d60f30eed6e3ec588242cff30d9c8f596370cb",
      "contractAddress": null,
      "gasUsedForL1": "0x394",
      "l1BlockNumber": "0x6b6c93"
    },
    {
      "status": "0x1",
      "cumulativeGasUsed": "0x8c2b",
      "logs": [
        {
          "address": "0xffa2e39cce305c82ffa70f7da0333e5f172be5f6",
          "topics": [
            "0x8be0079c531659141344cd1fd0a4f28419497f9722a3daafe3b4186f6b6457e0",
            "0x000000000000000000000000b05a948b5c1b057b88d381bde3a375efea87ebad",
            "0x000000000000000000000000d28473fbd87183864cac0482dbee1c54ee3d8cd1"
          ],
          "data": "0x",
          "blockHash": "0x714d710653c86fc7db78447efb209fdca927768bff50f398d374cec335ab929a",
          "blockNumber": "0x5b45184",
          "transactionHash": "0x738eacc20f0f3c90837655ea26009e545fdad8402af63d5770d27f8e1cf3e1cc",
          "transactionIndex": "0x1",
          "logIndex": "0x0",
          "removed": false
        }
      ],
      "logsBloom": "0x00000000000000000000000000000000000000000000000000800000000000000000000000000000000000000000000000000000000000000000000000000000000000000000000000000000000000000001000000000000000000000000000000000000000000000000000000000000000000000000000000000000000000400002000000000000000000000000000000100000000000000000040000000000000001000000000000000000000000000000000000000002000000000000000000000000000000000000000000010000000000000000000000000000000080000000000000000000000000000008000000000000000000020000000000000000",
      "type": "0x2",
      "transactionHash": "0x738eacc20f0f3c90837655ea26009e545fdad8402af63d5770d27f8e1cf3e1cc",
      "transactionIndex": "0x1",
      "blockHash": "0x714d710653c86fc7db78447efb209fdca927768bff50f398d374cec335ab929a",
      "blockNumber": "0x5b45184",
      "gasUsed": "0x8c2b",
      "effectiveGasPrice": "0x5f5e100",
      "from": "0xb05a948b5c1b057b88d381bde3a375efea87ebad",
      "to": "0xffa2e39cce305c82ffa70f7da0333e5f172be5f6",
      "contractAddress": null,
      "gasUsedForL1": "0x394",
      "l1BlockNumber": "0x6b6c93"
    },
    {
      "status": "0x1",
      "cumulativeGasUsed": "0x8cc4",
      "logs": [
        {
          "address": "0x12ea1fd84474ffd79e420eb498e1c163b6d2bf8e",
          "topics": [
            "0x8be0079c531659141344cd1fd0a4f28419497f9722a3daafe3b4186f6b6457e0",
            "0x000000000000000000000000b05a948b5c1b057b88d381bde3a375efea87ebad",
            "0x000000000000000000000000d28473fbd87183864cac0482dbee1c54ee3d8cd1"
          ],
          "data": "0x",
          "blockHash": "0xed90e607a33ff015c425c0379b1ae2e04a10c7cce0664cc204e8c6684026c101",
          "blockNumber": "0x5b45189",
          "transactionHash": "0x734f807b042b84916bbb9b006a90cf0319db22a5a922ce9131f6d02b0ebe05a9",
          "transactionIndex": "0x1",
          "logIndex": "0x0",
          "removed": false
        }
      ],
      "logsBloom": "0x00000000000000000000000000000000000000000000000000800000000000000000000000000000000000000000000000000000000000020000000000000000000000000000000000000000000000000001000000000000000000000000000000000000000000000000000000000000000000000000000000000000000000400002000000000000000000000000000000000000000000000000040000000000020001000000000000000000000000000000000000000000000000004000000000000000000000000000000000010000000000000000000000000000000080000000000000000000000000000000000000000000000000020000000000000000",
      "type": "0x2",
      "transactionHash": "0x734f807b042b84916bbb9b006a90cf0319db22a5a922ce9131f6d02b0ebe05a9",
      "transactionIndex": "0x1",
      "blockHash": "0xed90e607a33ff015c425c0379b1ae2e04a10c7cce0664cc204e8c6684026c101",
      "blockNumber": "0x5b45189",
      "gasUsed": "0x8cc4",
      "effectiveGasPrice": "0x5f5e100",
      "from": "0xb05a948b5c1b057b88d381bde3a375efea87ebad",
      "to": "0x12ea1fd84474ffd79e420eb498e1c163b6d2bf8e",
      "contractAddress": null,
      "gasUsedForL1": "0x394",
      "l1BlockNumber": "0x6b6c93"
    },
    {
      "status": "0x1",
      "cumulativeGasUsed": "0x8cc4",
      "logs": [
        {
          "address": "0x15cfd3934e20e48b6ead4a04ceee082746d276b3",
          "topics": [
            "0x8be0079c531659141344cd1fd0a4f28419497f9722a3daafe3b4186f6b6457e0",
            "0x000000000000000000000000b05a948b5c1b057b88d381bde3a375efea87ebad",
            "0x000000000000000000000000d28473fbd87183864cac0482dbee1c54ee3d8cd1"
          ],
          "data": "0x",
          "blockHash": "0x60ef3b80970363907f0b90afa7b255595f53e9478439d84aa466925f8da8506d",
          "blockNumber": "0x5b4518b",
          "transactionHash": "0x6aff47c940bd73aea9385b6526f8bcc22ec29a0ddd9da449aaa381a8c3ec5a6b",
          "transactionIndex": "0x1",
          "logIndex": "0x0",
          "removed": false
        }
      ],
      "logsBloom": "0x00000000000000000000000000000000000000000000000000800000000000000000000000000000000000000000000000000000000000000000000000000000000000000000000000000000000000000001000000040000000000000000000000000000000000000000008000000000000000000000000000000000000000400002000000000000000000000000000000200000000000000000040000000000000001000000000000000000000000000000000000000000000000000000000000000000000000000000000000010000000000000000000000000000000080000000000000000000000000000000000000000000000000020000000000000000",
      "type": "0x2",
      "transactionHash": "0x6aff47c940bd73aea9385b6526f8bcc22ec29a0ddd9da449aaa381a8c3ec5a6b",
      "transactionIndex": "0x1",
      "blockHash": "0x60ef3b80970363907f0b90afa7b255595f53e9478439d84aa466925f8da8506d",
      "blockNumber": "0x5b4518b",
      "gasUsed": "0x8cc4",
      "effectiveGasPrice": "0x5f5e100",
      "from": "0xb05a948b5c1b057b88d381bde3a375efea87ebad",
      "to": "0x15cfd3934e20e48b6ead4a04ceee082746d276b3",
      "contractAddress": null,
      "gasUsedForL1": "0x394",
      "l1BlockNumber": "0x6b6c93"
    },
    {
      "status": "0x1",
      "cumulativeGasUsed": "0x8cc4",
      "logs": [
        {
          "address": "0x17769fb86708abf03d7083ea7dc6b01976a91c47",
          "topics": [
            "0x8be0079c531659141344cd1fd0a4f28419497f9722a3daafe3b4186f6b6457e0",
            "0x000000000000000000000000b05a948b5c1b057b88d381bde3a375efea87ebad",
            "0x000000000000000000000000d28473fbd87183864cac0482dbee1c54ee3d8cd1"
          ],
          "data": "0x",
          "blockHash": "0xcea73a32146e8faec2e64fb0b1178a740adfee9faf810a282d36092a284af155",
          "blockNumber": "0x5b4518e",
          "transactionHash": "0x6bd4d83cf6ec38e1b75701544393cff1f4b2c92f0499984ba773287bcb544ebe",
          "transactionIndex": "0x1",
          "logIndex": "0x0",
          "removed": false
        }
      ],
      "logsBloom": "0x00000000000000000000000000000000000000000000000000800000000000000000000000000000000000000000000000000000000000000000000000000000000000000000000000000000000000000001000200000000000000000000000000000000000000000000000000000000000000000000000000000000000000400002000000000000400000000000000000000000000000000000040000000000000001000000000000000000000000000000000000000000000000000000000000000001000000000000000000010000000000000000000000000000000080000000000000000000000000000000000000000000000000020000000000000000",
      "type": "0x2",
      "transactionHash": "0x6bd4d83cf6ec38e1b75701544393cff1f4b2c92f0499984ba773287bcb544ebe",
      "transactionIndex": "0x1",
      "blockHash": "0xcea73a32146e8faec2e64fb0b1178a740adfee9faf810a282d36092a284af155",
      "blockNumber": "0x5b4518e",
      "gasUsed": "0x8cc4",
      "effectiveGasPrice": "0x5f5e100",
      "from": "0xb05a948b5c1b057b88d381bde3a375efea87ebad",
      "to": "0x17769fb86708abf03d7083ea7dc6b01976a91c47",
      "contractAddress": null,
      "gasUsedForL1": "0x394",
      "l1BlockNumber": "0x6b6c93"
    },
    {
      "status": "0x1",
      "cumulativeGasUsed": "0xf959",
      "logs": [
        {
          "address": "0x233105f07593424866adeaa27a4045dcb6301844",
          "topics": [
            "0x8be0079c531659141344cd1fd0a4f28419497f9722a3daafe3b4186f6b6457e0",
            "0x000000000000000000000000b05a948b5c1b057b88d381bde3a375efea87ebad",
            "0x000000000000000000000000d28473fbd87183864cac0482dbee1c54ee3d8cd1"
          ],
          "data": "0x",
          "blockHash": "0x5d3a50062f106294997b39022a31e9750b4e16e7fe6048215ec1192928426fb9",
          "blockNumber": "0x5b45190",
          "transactionHash": "0x0b699e0a4f1868e03668b05e61d35ccd2c52e28804f10cae648bfbdee065810f",
          "transactionIndex": "0x2",
          "logIndex": "0x1",
          "removed": false
        }
      ],
      "logsBloom": "0x00000000000000000000000000000000000000000000000000800000000000000000000000000000000000000000000000000000000800000000000000000000000000000000000000100000000000000001000000000000000000000000000000000000000000000000000000000000000000000000000000000000000000400002000000000000000000000000000000000000000000000040040000000000000001000000000000000000000000000000000000000000000000000000000000000000000000000000000000010000000000000000000000000000000080000000000000000000000000000000000000000000000000020000000000000000",
      "type": "0x2",
      "transactionHash": "0x0b699e0a4f1868e03668b05e61d35ccd2c52e28804f10cae648bfbdee065810f",
      "transactionIndex": "0x2",
      "blockHash": "0x5d3a50062f106294997b39022a31e9750b4e16e7fe6048215ec1192928426fb9",
      "blockNumber": "0x5b45190",
      "gasUsed": "0x8cc4",
      "effectiveGasPrice": "0x5f5e100",
      "from": "0xb05a948b5c1b057b88d381bde3a375efea87ebad",
      "to": "0x233105f07593424866adeaa27a4045dcb6301844",
      "contractAddress": null,
      "gasUsedForL1": "0x394",
      "l1BlockNumber": "0x6b6c93"
    },
    {
      "status": "0x1",
      "cumulativeGasUsed": "0x8cc4",
      "logs": [
        {
          "address": "0x271c5834f61901623c00ca274dc0911131e3865d",
          "topics": [
            "0x8be0079c531659141344cd1fd0a4f28419497f9722a3daafe3b4186f6b6457e0",
            "0x000000000000000000000000b05a948b5c1b057b88d381bde3a375efea87ebad",
            "0x000000000000000000000000d28473fbd87183864cac0482dbee1c54ee3d8cd1"
          ],
          "data": "0x",
          "blockHash": "0x42e595c54b252ceb9674e13485a256e59caaf93d8af4b3874b10de8095e1426e",
          "blockNumber": "0x5b45191",
          "transactionHash": "0x955ab245d227bab5cfe44982d874579c62237d83d5913cbb0202acc8ad4fad3b",
          "transactionIndex": "0x1",
          "logIndex": "0x0",
          "removed": false
        }
      ],
      "logsBloom": "0x00000000000000000000000000000000000000000000000000800000000000000000000000000000000000000000000000000000000000000000000000000000000000000000000000000000000000000001000000000000000000000000000000000000000000000000000000000000000000000000000000000000000000400002000000000000000000000000000000000000000000000000040000000000000001000000000000000000200000000000000000000000000000000000000000000000000400000000000000010000000000080000000000000000000080000000000000000000000000000000000000000000000000020000000000000000",
      "type": "0x2",
      "transactionHash": "0x955ab245d227bab5cfe44982d874579c62237d83d5913cbb0202acc8ad4fad3b",
      "transactionIndex": "0x1",
      "blockHash": "0x42e595c54b252ceb9674e13485a256e59caaf93d8af4b3874b10de8095e1426e",
      "blockNumber": "0x5b45191",
      "gasUsed": "0x8cc4",
      "effectiveGasPrice": "0x5f5e100",
      "from": "0xb05a948b5c1b057b88d381bde3a375efea87ebad",
      "to": "0x271c5834f61901623c00ca274dc0911131e3865d",
      "contractAddress": null,
      "gasUsedForL1": "0x394",
      "l1BlockNumber": "0x6b6c93"
    },
    {
      "status": "0x1",
      "cumulativeGasUsed": "0x8cc4",
      "logs": [
        {
          "address": "0x2a309fc9b3d3031826fae08254c3eb3fb3e136a9",
          "topics": [
            "0x8be0079c531659141344cd1fd0a4f28419497f9722a3daafe3b4186f6b6457e0",
            "0x000000000000000000000000b05a948b5c1b057b88d381bde3a375efea87ebad",
            "0x000000000000000000000000d28473fbd87183864cac0482dbee1c54ee3d8cd1"
          ],
          "data": "0x",
          "blockHash": "0x68d5114d98732b967d2cbd6cc679e473b46a7740bec48566fd9208bb5df63cea",
          "blockNumber": "0x5b45195",
          "transactionHash": "0x51f4439f170db69673e5f4be33ed7bc51322d0e741f594cfddeae21839f053b8",
          "transactionIndex": "0x1",
          "logIndex": "0x0",
          "removed": false
        }
      ],
      "logsBloom": "0x00000000000000000000000000000000000000000000000000800000000000000000000000000000000000004000000000000000000000000000000000000000000000000000000000000000000000000001010000000000000000000000000000000000000000000000000000000000000000000000000000000000000000400002000000000000000000000000000000000000000000000000040000000000000001000000000000000000000000000000000000000000000000000000000000000000000000000000000000010000000000000000000000000000000080000000000000000000002000000000000000000000000000020000000000000000",
      "type": "0x2",
      "transactionHash": "0x51f4439f170db69673e5f4be33ed7bc51322d0e741f594cfddeae21839f053b8",
      "transactionIndex": "0x1",
      "blockHash": "0x68d5114d98732b967d2cbd6cc679e473b46a7740bec48566fd9208bb5df63cea",
      "blockNumber": "0x5b45195",
      "gasUsed": "0x8cc4",
      "effectiveGasPrice": "0x5f5e100",
      "from": "0xb05a948b5c1b057b88d381bde3a375efea87ebad",
      "to": "0x2a309fc9b3d3031826fae08254c3eb3fb3e136a9",
      "contractAddress": null,
      "gasUsedForL1": "0x394",
      "l1BlockNumber": "0x6b6c94"
    },
    {
      "status": "0x1",
      "cumulativeGasUsed": "0x8cc4",
      "logs": [
        {
          "address": "0x2b7e64cf97cb0ad9f074e941f29e99899cad6f00",
          "topics": [
            "0x8be0079c531659141344cd1fd0a4f28419497f9722a3daafe3b4186f6b6457e0",
            "0x000000000000000000000000b05a948b5c1b057b88d381bde3a375efea87ebad",
            "0x000000000000000000000000d28473fbd87183864cac0482dbee1c54ee3d8cd1"
          ],
          "data": "0x",
          "blockHash": "0xc6727da2ab54b510693122761ab04b6517dfb5099da6406827b5b6c63e8c15ae",
          "blockNumber": "0x5b45196",
          "transactionHash": "0xb3c9ae325068e988ae7ae197318f928a6faddfb1e23b234e5f28ce09990a1f5b",
          "transactionIndex": "0x1",
          "logIndex": "0x0",
          "removed": false
        }
      ],
      "logsBloom": "0x00000000000000000000000000000000000000000000000000800000000000000000000000000000000000000000000000000000000000000000000000000000000000000000000040000000000000000001000000000000000000000000000000000000000000000000000000000000000000000000000000000000000000400002000000000000000000000000000000000000000000000000140000000000080001000000000000000000000000000000000000000000000000000000000000000000000000000000000000010000000000000000000000000000000080000000000000000000000000000000000000000000000000020000000000000000",
      "type": "0x2",
      "transactionHash": "0xb3c9ae325068e988ae7ae197318f928a6faddfb1e23b234e5f28ce09990a1f5b",
      "transactionIndex": "0x1",
      "blockHash": "0xc6727da2ab54b510693122761ab04b6517dfb5099da6406827b5b6c63e8c15ae",
      "blockNumber": "0x5b45196",
      "gasUsed": "0x8cc4",
      "effectiveGasPrice": "0x5f5e100",
      "from": "0xb05a948b5c1b057b88d381bde3a375efea87ebad",
      "to": "0x2b7e64cf97cb0ad9f074e941f29e99899cad6f00",
      "contractAddress": null,
      "gasUsedForL1": "0x394",
      "l1BlockNumber": "0x6b6c94"
    },
    {
      "status": "0x1",
      "cumulativeGasUsed": "0x8cc4",
      "logs": [
        {
          "address": "0x2c3adb40206952738927b6648c14de835d3a87d9",
          "topics": [
            "0x8be0079c531659141344cd1fd0a4f28419497f9722a3daafe3b4186f6b6457e0",
            "0x000000000000000000000000b05a948b5c1b057b88d381bde3a375efea87ebad",
            "0x000000000000000000000000d28473fbd87183864cac0482dbee1c54ee3d8cd1"
          ],
          "data": "0x",
          "blockHash": "0xa652c57a2299ba44fc4a06af9f719cb91aa178cb26a2591e44cd0efd39677f97",
          "blockNumber": "0x5b4519b",
          "transactionHash": "0x956eaabd314caf8a2f93eefdd8285abb04ed7322f33be80eeda73919d0f90ceb",
          "transactionIndex": "0x1",
          "logIndex": "0x0",
          "removed": false
        }
      ],
      "logsBloom": "0x00000000000000000000000000000000000000000000000000c00000000000000000000000000000000000000000000000000000000000000000000000000000000000000000000000000000000000000001000000000000000000000000000000000000000000000000000000000400000000000000000000000000000000400002000000000000000000000000000000000000000000000000040000000000000001000000000000000000000000000000000000000000000000000000000000000000000000000000000000010000000000000000000000000000000080000000000000000000000000000000000000000008000000020000000000000000",
      "type": "0x2",
      "transactionHash": "0x956eaabd314caf8a2f93eefdd8285abb04ed7322f33be80eeda73919d0f90ceb",
      "transactionIndex": "0x1",
      "blockHash": "0xa652c57a2299ba44fc4a06af9f719cb91aa178cb26a2591e44cd0efd39677f97",
      "blockNumber": "0x5b4519b",
      "gasUsed": "0x8cc4",
      "effectiveGasPrice": "0x5f5e100",
      "from": "0xb05a948b5c1b057b88d381bde3a375efea87ebad",
      "to": "0x2c3adb40206952738927b6648c14de835d3a87d9",
      "contractAddress": null,
      "gasUsedForL1": "0x394",
      "l1BlockNumber": "0x6b6c94"
    },
    {
      "status": "0x1",
      "cumulativeGasUsed": "0x8cc4",
      "logs": [
        {
          "address": "0x3398dd388d1ca8f7151f852262dfaf7629f35bf3",
          "topics": [
            "0x8be0079c531659141344cd1fd0a4f28419497f9722a3daafe3b4186f6b6457e0",
            "0x000000000000000000000000b05a948b5c1b057b88d381bde3a375efea87ebad",
            "0x000000000000000000000000d28473fbd87183864cac0482dbee1c54ee3d8cd1"
          ],
          "data": "0x",
          "blockHash": "0x5fafa46204f6408b7defa6c53fdf74145f3dba3e2ad963599f65435cfbf2ed39",
          "blockNumber": "0x5b4519c",
          "transactionHash": "0x6da295a649418508e9662921797e3e4f83a8e6fd1a11a96b682a6109e1235682",
          "transactionIndex": "0x1",
          "logIndex": "0x0",
          "removed": false
        }
      ],
      "logsBloom": "0x00000000000000000000000000000000000000000000000000800000000000000000000000000000000000000000000000000000000000000000000000000000000000000000000000000000000000000001000000000000000000000000000000000000000000000000000000000000000000000000000000020000000000400002000000000000000000000000000000000000000000000000040000000000000001000000000000000000000000000000000000000000000000000004000000000000000000000000000000010000000000000000000000000000000080000000000000002000000000000000000000000000000000020000000000000000",
      "type": "0x2",
      "transactionHash": "0x6da295a649418508e9662921797e3e4f83a8e6fd1a11a96b682a6109e1235682",
      "transactionIndex": "0x1",
      "blockHash": "0x5fafa46204f6408b7defa6c53fdf74145f3dba3e2ad963599f65435cfbf2ed39",
      "blockNumber": "0x5b4519c",
      "gasUsed": "0x8cc4",
      "effectiveGasPrice": "0x5f5e100",
      "from": "0xb05a948b5c1b057b88d381bde3a375efea87ebad",
      "to": "0x3398dd388d1ca8f7151f852262dfaf7629f35bf3",
      "contractAddress": null,
      "gasUsedForL1": "0x394",
      "l1BlockNumber": "0x6b6c94"
    },
    {
      "status": "0x1",
      "cumulativeGasUsed": "0x8cc4",
      "logs": [
        {
          "address": "0x39db23696c0ad7a4afc5db891154a426193d3046",
          "topics": [
            "0x8be0079c531659141344cd1fd0a4f28419497f9722a3daafe3b4186f6b6457e0",
            "0x000000000000000000000000b05a948b5c1b057b88d381bde3a375efea87ebad",
            "0x000000000000000000000000d28473fbd87183864cac0482dbee1c54ee3d8cd1"
          ],
          "data": "0x",
          "blockHash": "0x5dca4b3607626397f1b6badd9baeceec64c23ea96ba67b3503258b9f795c57cf",
          "blockNumber": "0x5b451a0",
          "transactionHash": "0x60dd14604bf812ed8e8470f43d965ddf3937735b3fa3f5ec11667c04c4801253",
          "transactionIndex": "0x1",
          "logIndex": "0x0",
          "removed": false
        }
      ],
      "logsBloom": "0x00000000000000000000000000000000000000000000000000800000000000000000000000000000000000000000000000000000000000000000000000000000000000000000000000000000000000000001000000000000000000000000000000000000000000000000000000000000000000000000000000000000200000400002000000000000000000000000000000000000000000000000040000000000000001000000000000000000000000000000000000000000000000000000000000000000080000000000000000010000000000000000000000000000000080000000000000000000000000000000000010000000000000020000000000000000",
      "type": "0x2",
      "transactionHash": "0x60dd14604bf812ed8e8470f43d965ddf3937735b3fa3f5ec11667c04c4801253",
      "transactionIndex": "0x1",
      "blockHash": "0x5dca4b3607626397f1b6badd9baeceec64c23ea96ba67b3503258b9f795c57cf",
      "blockNumber": "0x5b451a0",
      "gasUsed": "0x8cc4",
      "effectiveGasPrice": "0x5f5e100",
      "from": "0xb05a948b5c1b057b88d381bde3a375efea87ebad",
      "to": "0x39db23696c0ad7a4afc5db891154a426193d3046",
      "contractAddress": null,
      "gasUsedForL1": "0x394",
      "l1BlockNumber": "0x6b6c94"
    },
    {
      "status": "0x1",
      "cumulativeGasUsed": "0x8cc4",
      "logs": [
        {
          "address": "0x3f8c4c058b80f7d7f6cac9f7cccda45519ad0ecc",
          "topics": [
            "0x8be0079c531659141344cd1fd0a4f28419497f9722a3daafe3b4186f6b6457e0",
            "0x000000000000000000000000b05a948b5c1b057b88d381bde3a375efea87ebad",
            "0x000000000000000000000000d28473fbd87183864cac0482dbee1c54ee3d8cd1"
          ],
          "data": "0x",
          "blockHash": "0xd90acb4c7f5e3e2010d1ce1f83a56f9f3bb2d8eb0b37f6b76e521f4e677e146d",
          "blockNumber": "0x5b451a2",
          "transactionHash": "0xadbae07a633729c73a90b72c9a0b943313e7420613b1d04f0ec97ad4a317a0ec",
          "transactionIndex": "0x1",
          "logIndex": "0x0",
          "removed": false
        }
      ],
      "logsBloom": "0x00000000000000000000000000000000000000000000000000800000000000000000000000000000000000000000000000000000000000000000000000000000000000000000000000000000000000000001000000000000400000000000000000000000000000000000000000000000000040000000000000000000000000400002000000000000000000000000000000000000000000000000040000000000000001000000000000000000000000000000000000000000000000000000000000000000000000000000000000010000000000000000000000000000000080000000000000000000000000000000000000000000000000220000000000000000",
      "type": "0x2",
      "transactionHash": "0xadbae07a633729c73a90b72c9a0b943313e7420613b1d04f0ec97ad4a317a0ec",
      "transactionIndex": "0x1",
      "blockHash": "0xd90acb4c7f5e3e2010d1ce1f83a56f9f3bb2d8eb0b37f6b76e521f4e677e146d",
      "blockNumber": "0x5b451a2",
      "gasUsed": "0x8cc4",
      "effectiveGasPrice": "0x5f5e100",
      "from": "0xb05a948b5c1b057b88d381bde3a375efea87ebad",
      "to": "0x3f8c4c058b80f7d7f6cac9f7cccda45519ad0ecc",
      "contractAddress": null,
      "gasUsedForL1": "0x394",
      "l1BlockNumber": "0x6b6c94"
    },
    {
      "status": "0x1",
      "cumulativeGasUsed": "0x8cc4",
      "logs": [
        {
          "address": "0x45cbefe5f9f0df5f76c8bdd07003724ec100497f",
          "topics": [
            "0x8be0079c531659141344cd1fd0a4f28419497f9722a3daafe3b4186f6b6457e0",
            "0x000000000000000000000000b05a948b5c1b057b88d381bde3a375efea87ebad",
            "0x000000000000000000000000d28473fbd87183864cac0482dbee1c54ee3d8cd1"
          ],
          "data": "0x",
          "blockHash": "0x391367b72e9720afd3fee30d77f8f976c782bf6bf7e87dfbd2e9179c8a402f50",
          "blockNumber": "0x5b451a4",
          "transactionHash": "0x361c130b0f454c1df74b358e3727a43b685ab6b8cc42607984627d2106ce5276",
          "transactionIndex": "0x1",
          "logIndex": "0x0",
          "removed": false
        }
      ],
      "logsBloom": "0x00000000000000000000000000000000000000000000000000800000000000000000000000000000000000000000000000000000000000000000000000000000000000000000000000000000000000000001000000000000000000000000000000000000000200000000000000000000000000000400000000000000000000400002000000000000000000100000000000000000000000000000040000000000000001000000000000000000000000000000000000000000000000000000000000000000000000000000000000010000000000000000000000000000000080000000000000000000000000000000000000000000000000020000000000000000",
      "type": "0x2",
      "transactionHash": "0x361c130b0f454c1df74b358e3727a43b685ab6b8cc42607984627d2106ce5276",
      "transactionIndex": "0x1",
      "blockHash": "0x391367b72e9720afd3fee30d77f8f976c782bf6bf7e87dfbd2e9179c8a402f50",
      "blockNumber": "0x5b451a4",
      "gasUsed": "0x8cc4",
      "effectiveGasPrice": "0x5f5e100",
      "from": "0xb05a948b5c1b057b88d381bde3a375efea87ebad",
      "to": "0x45cbefe5f9f0df5f76c8bdd07003724ec100497f",
      "contractAddress": null,
      "gasUsedForL1": "0x394",
      "l1BlockNumber": "0x6b6c94"
    },
    {
      "status": "0x1",
      "cumulativeGasUsed": "0x8cc4",
      "logs": [
        {
          "address": "0x50022842dee9d02ef42f7378e1c0d81a7ee2778b",
          "topics": [
            "0x8be0079c531659141344cd1fd0a4f28419497f9722a3daafe3b4186f6b6457e0",
            "0x000000000000000000000000b05a948b5c1b057b88d381bde3a375efea87ebad",
            "0x000000000000000000000000d28473fbd87183864cac0482dbee1c54ee3d8cd1"
          ],
          "data": "0x",
          "blockHash": "0x92644d7b1e1764f8fe08a49834744da3d194791963fe2ab66f23d053a502f439",
          "blockNumber": "0x5b451a6",
          "transactionHash": "0xbd0aaa306344140e16b7eb1aba17ec01c6d34a18b21310675311ef8d71451c7f",
          "transactionIndex": "0x1",
          "logIndex": "0x0",
          "removed": false
        }
      ],
      "logsBloom": "0x00000000000000000000000000000000000000000000000000800000000000000000000000000000000000000000000000000000000000000000000000000000000000000000000000000000000000000001000080000000000000000000000000000000000000000000000000000000000000000000000000000000000000400002000000000001000000000000000000000000000000000000040000000000000001000000000000000000000000000000000000000000000000000000000000000000000000000000000000010000000000000400000000000000000080000000000000000000000000000000000000000000000000020000000000000000",
      "type": "0x2",
      "transactionHash": "0xbd0aaa306344140e16b7eb1aba17ec01c6d34a18b21310675311ef8d71451c7f",
      "transactionIndex": "0x1",
      "blockHash": "0x92644d7b1e1764f8fe08a49834744da3d194791963fe2ab66f23d053a502f439",
      "blockNumber": "0x5b451a6",
      "gasUsed": "0x8cc4",
      "effectiveGasPrice": "0x5f5e100",
      "from": "0xb05a948b5c1b057b88d381bde3a375efea87ebad",
      "to": "0x50022842dee9d02ef42f7378e1c0d81a7ee2778b",
      "contractAddress": null,
      "gasUsedForL1": "0x394",
      "l1BlockNumber": "0x6b6c94"
    },
    {
      "status": "0x1",
      "cumulativeGasUsed": "0x8cc4",
      "logs": [
        {
          "address": "0x5ba5c0d3908c12773adf3a8c2aa504339b537011",
          "topics": [
            "0x8be0079c531659141344cd1fd0a4f28419497f9722a3daafe3b4186f6b6457e0",
            "0x000000000000000000000000b05a948b5c1b057b88d381bde3a375efea87ebad",
            "0x000000000000000000000000d28473fbd87183864cac0482dbee1c54ee3d8cd1"
          ],
          "data": "0x",
          "blockHash": "0xc6e653ece8f4c09953611693dbae6ef195356fa6b1817a7ff65c53c728e82823",
          "blockNumber": "0x5b451a7",
          "transactionHash": "0x43e935b4f715f261e072ecf0a6b7eacd4b6c412be8c35addf3e03fecfc42f820",
          "transactionIndex": "0x1",
          "logIndex": "0x0",
          "removed": false
        }
      ],
      "logsBloom": "0x00000000000000000000000000000000000000000000000000800000000000000000000000000000000000000000000000000000000000000000000000000000000000000000000000000000000000000001000000000000000000000000000000000000000000000000000000000000000000000000000000000000000000400002000000000000000000000000000000000000000000000000040000000000000001000000000000000000000000000000000000000000000400000000000000000000000000000000000000010000000000000000000000000000000080000000000000000000000000000000000000000000000000020000004000000400",
      "type": "0x2",
      "transactionHash": "0x43e935b4f715f261e072ecf0a6b7eacd4b6c412be8c35addf3e03fecfc42f820",
      "transactionIndex": "0x1",
      "blockHash": "0xc6e653ece8f4c09953611693dbae6ef195356fa6b1817a7ff65c53c728e82823",
      "blockNumber": "0x5b451a7",
      "gasUsed": "0x8cc4",
      "effectiveGasPrice": "0x5f5e100",
      "from": "0xb05a948b5c1b057b88d381bde3a375efea87ebad",
      "to": "0x5ba5c0d3908c12773adf3a8c2aa504339b537011",
      "contractAddress": null,
      "gasUsedForL1": "0x394",
      "l1BlockNumber": "0x6b6c94"
    },
    {
      "status": "0x1",
      "cumulativeGasUsed": "0x8cc4",
      "logs": [
        {
          "address": "0x5d63ec43e1ac82d0bb4434f2d2202eec7bb05d69",
          "topics": [
            "0x8be0079c531659141344cd1fd0a4f28419497f9722a3daafe3b4186f6b6457e0",
            "0x000000000000000000000000b05a948b5c1b057b88d381bde3a375efea87ebad",
            "0x000000000000000000000000d28473fbd87183864cac0482dbee1c54ee3d8cd1"
          ],
          "data": "0x",
          "blockHash": "0x93f6eea7a032d7ddd9c14721d9c81c4350af006d0b82f359ba64987d92d336fd",
          "blockNumber": "0x5b451ae",
          "transactionHash": "0x2930b51284a716f7e617a1709b65ed0bd83346d2c3b20e13aafd01dd84fe5c59",
          "transactionIndex": "0x1",
          "logIndex": "0x0",
          "removed": false
        }
      ],
      "logsBloom": "0x00000000000000000000000000000000000000000000000000800000000000000000000000000000000000080000000000000000000000000000000000000000000000000000000000000000000000000001000000000000000000000000000000000000000000000000000000000000000000000000000000000000000000400002000000000000000000000000000000000000000000000000040000000000000001000000000000000000000000000000000000000000000000000000000000000000000000000000000000010000000000000000000000000000000080000000000000000000000000000000000000000002000000060000000000000000",
      "type": "0x2",
      "transactionHash": "0x2930b51284a716f7e617a1709b65ed0bd83346d2c3b20e13aafd01dd84fe5c59",
      "transactionIndex": "0x1",
      "blockHash": "0x93f6eea7a032d7ddd9c14721d9c81c4350af006d0b82f359ba64987d92d336fd",
      "blockNumber": "0x5b451ae",
      "gasUsed": "0x8cc4",
      "effectiveGasPrice": "0x5f5e100",
      "from": "0xb05a948b5c1b057b88d381bde3a375efea87ebad",
      "to": "0x5d63ec43e1ac82d0bb4434f2d2202eec7bb05d69",
      "contractAddress": null,
      "gasUsedForL1": "0x394",
      "l1BlockNumber": "0x6b6c94"
    },
    {
      "status": "0x1",
      "cumulativeGasUsed": "0x8cc4",
      "logs": [
        {
          "address": "0x6500599270e13fbed12c1de58904e0358937a66c",
          "topics": [
            "0x8be0079c531659141344cd1fd0a4f28419497f9722a3daafe3b4186f6b6457e0",
            "0x000000000000000000000000b05a948b5c1b057b88d381bde3a375efea87ebad",
            "0x000000000000000000000000d28473fbd87183864cac0482dbee1c54ee3d8cd1"
          ],
          "data": "0x",
          "blockHash": "0x63e736bfb6658d24719fc04b6de0d3e2b3cad14e324d78027447898694d98836",
          "blockNumber": "0x5b451b0",
          "transactionHash": "0x3c6ebebab906d441a3b1f3b8ba66d2296ab781f7feb73969adb400a2c934dc71",
          "transactionIndex": "0x1",
          "logIndex": "0x0",
          "removed": false
        }
      ],
      "logsBloom": "0x00000000000000000000000000000000000000000000000000800000000000000000000000000000000000000000000000000000000000000000000000000000000000000000000000000000000000000001000000000000000000000000000000000000000000000000000000000000000000000000000000000000000000400002000000010000000000000000000000000000000000000000040000000000000001000000000000000000000000000000000000000000000000000000000000000000000000000000000000110000000000000000000000080000000080000000000000000000000000000000000000000000000000020000000000000000",
      "type": "0x2",
      "transactionHash": "0x3c6ebebab906d441a3b1f3b8ba66d2296ab781f7feb73969adb400a2c934dc71",
      "transactionIndex": "0x1",
      "blockHash": "0x63e736bfb6658d24719fc04b6de0d3e2b3cad14e324d78027447898694d98836",
      "blockNumber": "0x5b451b0",
      "gasUsed": "0x8cc4",
      "effectiveGasPrice": "0x5f5e100",
      "from": "0xb05a948b5c1b057b88d381bde3a375efea87ebad",
      "to": "0x6500599270e13fbed12c1de58904e0358937a66c",
      "contractAddress": null,
      "gasUsedForL1": "0x394",
      "l1BlockNumber": "0x6b6c94"
    },
    {
      "status": "0x1",
      "cumulativeGasUsed": "0x8cc4",
      "logs": [
        {
          "address": "0x768a7ce48322a6360db94a4c3eae3e50babb032c",
          "topics": [
            "0x8be0079c531659141344cd1fd0a4f28419497f9722a3daafe3b4186f6b6457e0",
            "0x000000000000000000000000b05a948b5c1b057b88d381bde3a375efea87ebad",
            "0x000000000000000000000000d28473fbd87183864cac0482dbee1c54ee3d8cd1"
          ],
          "data": "0x",
          "blockHash": "0xe3f6f92d58358700492f798bb5f940f2c4493c74960d18dc2abd5ec804eaa5ea",
          "blockNumber": "0x5b451b3",
          "transactionHash": "0x09d31f23d10d9729c1965ff0988a19dc1413fd718b12f7630cd114650602ba22",
          "transactionIndex": "0x1",
          "logIndex": "0x0",
          "removed": false
        }
      ],
      "logsBloom": "0x00000000000000000000000000000000000000000000000000800000000000000000000000000000000000000000000000000000000000000000000000000400000000000000000000000000000000000001000000000000000000000000000000000000000000000000000000000000000000000000000000000000000000400002000010000000000000000000000000000000000000000000040000000000000001000000000000000000000000000000000000000000000000000000000000000000000000000000000000010000000000000000000000000100000080000000000000000000000000000000000000000000000000020000000000000000",
      "type": "0x2",
      "transactionHash": "0x09d31f23d10d9729c1965ff0988a19dc1413fd718b12f7630cd114650602ba22",
      "transactionIndex": "0x1",
      "blockHash": "0xe3f6f92d58358700492f798bb5f940f2c4493c74960d18dc2abd5ec804eaa5ea",
      "blockNumber": "0x5b451b3",
      "gasUsed": "0x8cc4",
      "effectiveGasPrice": "0x5f5e100",
      "from": "0xb05a948b5c1b057b88d381bde3a375efea87ebad",
      "to": "0x768a7ce48322a6360db94a4c3eae3e50babb032c",
      "contractAddress": null,
      "gasUsedForL1": "0x394",
      "l1BlockNumber": "0x6b6c94"
    },
    {
      "status": "0x1",
      "cumulativeGasUsed": "0x8cc4",
      "logs": [
        {
          "address": "0x769e1039322c9516581849485f9780390c2fac9c",
          "topics": [
            "0x8be0079c531659141344cd1fd0a4f28419497f9722a3daafe3b4186f6b6457e0",
            "0x000000000000000000000000b05a948b5c1b057b88d381bde3a375efea87ebad",
            "0x000000000000000000000000d28473fbd87183864cac0482dbee1c54ee3d8cd1"
          ],
          "data": "0x",
          "blockHash": "0x1935b81b0da89676d6a0feb6c84872760a19cbe4a75101e63c1cdd5095f65bb1",
          "blockNumber": "0x5b451b6",
          "transactionHash": "0x04eeac7cd59f2e11382c88796a87356e877fa695a2a46e6b4d010260beb3aeae",
          "transactionIndex": "0x1",
          "logIndex": "0x0",
          "removed": false
        }
      ],
      "logsBloom": "0x00000000000000000000000000000000000000000000000000800000000000000000000000000000000000000000000000000000000040000000000000000000000000000000000000000000000000000001000000000000000000000000000000000000000000000000000000000000000000000000000000000000000000400002000000000000000000000000000000000000000000000000040000000000400001000000000000000000000000000000000000000000000000000000000000000000000000000000000000010000000000000000000000000000000080080000000000000000000000000000000000000000000000020000000000000000",
      "type": "0x2",
      "transactionHash": "0x04eeac7cd59f2e11382c88796a87356e877fa695a2a46e6b4d010260beb3aeae",
      "transactionIndex": "0x1",
      "blockHash": "0x1935b81b0da89676d6a0feb6c84872760a19cbe4a75101e63c1cdd5095f65bb1",
      "blockNumber": "0x5b451b6",
      "gasUsed": "0x8cc4",
      "effectiveGasPrice": "0x5f5e100",
      "from": "0xb05a948b5c1b057b88d381bde3a375efea87ebad",
      "to": "0x769e1039322c9516581849485f9780390c2fac9c",
      "contractAddress": null,
      "gasUsedForL1": "0x394",
      "l1BlockNumber": "0x6b6c94"
    },
    {
      "status": "0x1",
      "cumulativeGasUsed": "0x258ca",
      "logs": [
        {
          "address": "0x7932c33f0a0dd335aecbe83a3d88b2435543a0fb",
          "topics": [
            "0x8be0079c531659141344cd1fd0a4f28419497f9722a3daafe3b4186f6b6457e0",
            "0x000000000000000000000000b05a948b5c1b057b88d381bde3a375efea87ebad",
            "0x000000000000000000000000d28473fbd87183864cac0482dbee1c54ee3d8cd1"
          ],
          "data": "0x",
          "blockHash": "0xdb2a46df8496bdab6cc2614ccf961f674703f6d6dd9c54feec766da185f3d566",
          "blockNumber": "0x5b451b8",
          "transactionHash": "0x5b2c8340cd282dadcfbc899d099c3ab9bdf754495902ad89e2641b099778890c",
          "transactionIndex": "0x3",
          "logIndex": "0x3",
          "removed": false
        }
      ],
      "logsBloom": "0x00000000000000000000000000000000000000000000000000800000000000000000000000000000000000000000000000000000000000000000000000000000000000000000000000000000000000000001000000000000000000000000000000000000000000000000000000000000000000000000000000000000000000400002000000000000000000000000000000000000000000000000040000000000000001000000100000000000000000000100000000000002000000000000000000000000000000000000000000010000000000000000000000000000000080000000000000000000000000000000000000000000000000020000000000000000",
      "type": "0x2",
      "transactionHash": "0x5b2c8340cd282dadcfbc899d099c3ab9bdf754495902ad89e2641b099778890c",
      "transactionIndex": "0x3",
      "blockHash": "0xdb2a46df8496bdab6cc2614ccf961f674703f6d6dd9c54feec766da185f3d566",
      "blockNumber": "0x5b451b8",
      "gasUsed": "0x8cc4",
      "effectiveGasPrice": "0x5f5e100",
      "from": "0xb05a948b5c1b057b88d381bde3a375efea87ebad",
      "to": "0x7932c33f0a0dd335aecbe83a3d88b2435543a0fb",
      "contractAddress": null,
      "gasUsedForL1": "0x394",
      "l1BlockNumber": "0x6b6c94"
    },
    {
      "status": "0x1",
      "cumulativeGasUsed": "0x8cc4",
      "logs": [
        {
          "address": "0x7cebd57140c10e81fb283fb3dee28f98a6a1f3e7",
          "topics": [
            "0x8be0079c531659141344cd1fd0a4f28419497f9722a3daafe3b4186f6b6457e0",
            "0x000000000000000000000000b05a948b5c1b057b88d381bde3a375efea87ebad",
            "0x000000000000000000000000d28473fbd87183864cac0482dbee1c54ee3d8cd1"
          ],
          "data": "0x",
          "blockHash": "0x7624b53742493e1650f2036d8948f84bd0e61412c347e23dee21a2993dd081e0",
          "blockNumber": "0x5b451ba",
          "transactionHash": "0x8366f1f730e42d04254510b7881e9e24ba6888a48fcf8edb62c0407dff593eaf",
          "transactionIndex": "0x1",
          "logIndex": "0x0",
          "removed": false
        }
      ],
      "logsBloom": "0x00000000000000000000000000000000000000000000000000800000000000000000000000000000000000000000000000000000000000000000000000000000000000000000000000000000010000000001000000000000000000000000000000000000000000000000000000000000000000000000000000000000000000400002000000000000000000000000000000000000000000000000040000000000000001000000000000000000000000000000000020000000000000000000000000000000000200000000000000010000000000000000000000000000000080000000000000000000000000000000000000000000000000020000000000000000",
      "type": "0x2",
      "transactionHash": "0x8366f1f730e42d04254510b7881e9e24ba6888a48fcf8edb62c0407dff593eaf",
      "transactionIndex": "0x1",
      "blockHash": "0x7624b53742493e1650f2036d8948f84bd0e61412c347e23dee21a2993dd081e0",
      "blockNumber": "0x5b451ba",
      "gasUsed": "0x8cc4",
      "effectiveGasPrice": "0x5f5e100",
      "from": "0xb05a948b5c1b057b88d381bde3a375efea87ebad",
      "to": "0x7cebd57140c10e81fb283fb3dee28f98a6a1f3e7",
      "contractAddress": null,
      "gasUsedForL1": "0x394",
      "l1BlockNumber": "0x6b6c94"
    },
    {
      "status": "0x1",
      "cumulativeGasUsed": "0x8cc4",
      "logs": [
        {
          "address": "0x84b9c9d4f40e3c05278b6f688c5c78c89c7c95a8",
          "topics": [
            "0x8be0079c531659141344cd1fd0a4f28419497f9722a3daafe3b4186f6b6457e0",
            "0x000000000000000000000000b05a948b5c1b057b88d381bde3a375efea87ebad",
            "0x000000000000000000000000d28473fbd87183864cac0482dbee1c54ee3d8cd1"
          ],
          "data": "0x",
          "blockHash": "0x6e1d79de9f208b22966f6b1f8e2d791da34e73aafe7a91f6aa5d6507aca2d268",
          "blockNumber": "0x5b451bd",
          "transactionHash": "0x83b65ed1f720e151fb9f41e5461d1b77b2604edb847b78dc136bb9062634ef0e",
          "transactionIndex": "0x1",
          "logIndex": "0x0",
          "removed": false
        }
      ],
      "logsBloom": "0x00000000000000000000000000000000000000000000000000800000000000000000000000000000000000000000000000000000000000000000000000000000000000000000000000000000000000000001000000000000008000000000000000000000000000000000000000000000000000000000000000000000000000400002000000000000000000000000000000000000000000000000040000000000000001000000000000000000000000000400000000000000000000000000000000000000000000000000000000010000000000000000000000000000000080000000000000000000000000000000080000000000000000020000000000000000",
      "type": "0x2",
      "transactionHash": "0x83b65ed1f720e151fb9f41e5461d1b77b2604edb847b78dc136bb9062634ef0e",
      "transactionIndex": "0x1",
      "blockHash": "0x6e1d79de9f208b22966f6b1f8e2d791da34e73aafe7a91f6aa5d6507aca2d268",
      "blockNumber": "0x5b451bd",
      "gasUsed": "0x8cc4",
      "effectiveGasPrice": "0x5f5e100",
      "from": "0xb05a948b5c1b057b88d381bde3a375efea87ebad",
      "to": "0x84b9c9d4f40e3c05278b6f688c5c78c89c7c95a8",
      "contractAddress": null,
      "gasUsedForL1": "0x394",
      "l1BlockNumber": "0x6b6c94"
    },
    {
      "status": "0x1",
      "cumulativeGasUsed": "0x8cc4",
      "logs": [
        {
          "address": "0x876e104878b6dfdda13d717b5c9aec91439bc45b",
          "topics": [
            "0x8be0079c531659141344cd1fd0a4f28419497f9722a3daafe3b4186f6b6457e0",
            "0x000000000000000000000000b05a948b5c1b057b88d381bde3a375efea87ebad",
            "0x000000000000000000000000d28473fbd87183864cac0482dbee1c54ee3d8cd1"
          ],
          "data": "0x",
          "blockHash": "0xf26500c10d23094580f88bbe496dc4fb6c032aea302a638668d9db6f0d00007a",
          "blockNumber": "0x5b451bf",
          "transactionHash": "0x3058a8fdc1402efb4314d30a7c09865121d0d16f23ddb08d2a2d7c930d02161b",
          "transactionIndex": "0x1",
          "logIndex": "0x0",
          "removed": false
        }
      ],
      "logsBloom": "0x00000000000000000000000000000000000000000000000000800000000000000000000000000000000000000000000000000000000000000000000000000000000000000000000000000000000000000001000000000000000000000000000000000000000000000000000000000000000000000000000000000000000000400002000000000000000000000000000000008000000000000000040000000000000001000000000000000000000000000000000000000000000000000000000000000000000000000000000000010008000000000000000000000000000080000000000000000000000000000000000000008000000000020000000000000000",
      "type": "0x2",
      "transactionHash": "0x3058a8fdc1402efb4314d30a7c09865121d0d16f23ddb08d2a2d7c930d02161b",
      "transactionIndex": "0x1",
      "blockHash": "0xf26500c10d23094580f88bbe496dc4fb6c032aea302a638668d9db6f0d00007a",
      "blockNumber": "0x5b451bf",
      "gasUsed": "0x8cc4",
      "effectiveGasPrice": "0x5f5e100",
      "from": "0xb05a948b5c1b057b88d381bde3a375efea87ebad",
      "to": "0x876e104878b6dfdda13d717b5c9aec91439bc45b",
      "contractAddress": null,
      "gasUsedForL1": "0x394",
      "l1BlockNumber": "0x6b6c94"
    },
    {
      "status": "0x1",
      "cumulativeGasUsed": "0x8cc4",
      "logs": [
        {
          "address": "0xa999227ef53b685cd0a91ca2301e550e6373d03c",
          "topics": [
            "0x8be0079c531659141344cd1fd0a4f28419497f9722a3daafe3b4186f6b6457e0",
            "0x000000000000000000000000b05a948b5c1b057b88d381bde3a375efea87ebad",
            "0x000000000000000000000000d28473fbd87183864cac0482dbee1c54ee3d8cd1"
          ],
          "data": "0x",
          "blockHash": "0x18e08952acaf946652cf011644b3807f30822d0ce00d5759ba7ae13314df63e4",
          "blockNumber": "0x5b451c1",
          "transactionHash": "0xc2d10813cbae332e285616a5d5835922443cce838330cca765aeb66da958cb30",
          "transactionIndex": "0x1",
          "logIndex": "0x0",
          "removed": false
        }
      ],
      "logsBloom": "0x00000000000000000000000000000000000000000000000000800000000000000000000000000000000000000000000000000000000000000000000000000000000000040000000000000000000000080001000000000000000000000000000000000000000000000000000000000000000000000000000000000000000000400002000000000000000000000000000000000000000000000000040000000000000001000000000000004000000000000000000000000000000000000000000000000000000000000000000000010000000000000000000000000000000080000000000000000000000000000000000000000000000000020000000000000000",
      "type": "0x2",
      "transactionHash": "0xc2d10813cbae332e285616a5d5835922443cce838330cca765aeb66da958cb30",
      "transactionIndex": "0x1",
      "blockHash": "0x18e08952acaf946652cf011644b3807f30822d0ce00d5759ba7ae13314df63e4",
      "blockNumber": "0x5b451c1",
      "gasUsed": "0x8cc4",
      "effectiveGasPrice": "0x5f5e100",
      "from": "0xb05a948b5c1b057b88d381bde3a375efea87ebad",
      "to": "0xa999227ef53b685cd0a91ca2301e550e6373d03c",
      "contractAddress": null,
      "gasUsedForL1": "0x394",
      "l1BlockNumber": "0x6b6c94"
    },
    {
      "status": "0x1",
      "cumulativeGasUsed": "0x8cc4",
      "logs": [
        {
          "address": "0xaf83df434a976e7e4620e44b474c40f6fa7dbe18",
          "topics": [
            "0x8be0079c531659141344cd1fd0a4f28419497f9722a3daafe3b4186f6b6457e0",
            "0x000000000000000000000000b05a948b5c1b057b88d381bde3a375efea87ebad",
            "0x000000000000000000000000d28473fbd87183864cac0482dbee1c54ee3d8cd1"
          ],
          "data": "0x",
          "blockHash": "0x23c9920009fb36ea9ccba6cdddc1bd6efa540e5eb8782abb3cac33319a475169",
          "blockNumber": "0x5b451c3",
          "transactionHash": "0xd5866a80fa1f3e1f521a709ba5982bd47a0a8dfa5eb1353aba2c3ccf9c7dc51b",
          "transactionIndex": "0x1",
          "logIndex": "0x0",
          "removed": false
        }
      ],
      "logsBloom": "0x00000000000000000000000000000000000000000000000000800000000000000000000000000000000000000000000000000000000000000000000000000000000000000000000000000000000000000001000000000000000000000000000000000000000000000000002000000000000000000000000000000000000000400002000000000000000000000000000000000000000000000000040000000000000001000000000000000000000000000000000001000000000000000000000000000000000000000000000000010000000000000000000000000000000080000040000000000000000000000000000000000000000000020000000000000000",
      "type": "0x2",
      "transactionHash": "0xd5866a80fa1f3e1f521a709ba5982bd47a0a8dfa5eb1353aba2c3ccf9c7dc51b",
      "transactionIndex": "0x1",
      "blockHash": "0x23c9920009fb36ea9ccba6cdddc1bd6efa540e5eb8782abb3cac33319a475169",
      "blockNumber": "0x5b451c3",
      "gasUsed": "0x8cc4",
      "effectiveGasPrice": "0x5f5e100",
      "from": "0xb05a948b5c1b057b88d381bde3a375efea87ebad",
      "to": "0xaf83df434a976e7e4620e44b474c40f6fa7dbe18",
      "contractAddress": null,
      "gasUsedForL1": "0x394",
      "l1BlockNumber": "0x6b6c94"
    },
    {
      "status": "0x1",
      "cumulativeGasUsed": "0x8cc4",
      "logs": [
        {
          "address": "0xb4a340406311a6baf6d0ca84059ca69bb3b02a07",
          "topics": [
            "0x8be0079c531659141344cd1fd0a4f28419497f9722a3daafe3b4186f6b6457e0",
            "0x000000000000000000000000b05a948b5c1b057b88d381bde3a375efea87ebad",
            "0x000000000000000000000000d28473fbd87183864cac0482dbee1c54ee3d8cd1"
          ],
          "data": "0x",
          "blockHash": "0x1a7deb3ebc89555b2cd708a6010c436bc079d6ac8103a13f586d1cebaa0d6a9d",
          "blockNumber": "0x5b451c6",
          "transactionHash": "0xf59b566ed728a5a20b039dd1694194fd5d98d64ac4ff1fe42bbb18061c1674b9",
          "transactionIndex": "0x1",
          "logIndex": "0x0",
          "removed": false
        }
      ],
      "logsBloom": "0x00000000000000000000000000000000000000000000000000800000000000000000000000000000000000000000000000000000000000000000000000000000000000000000000000000000000000000001000000000000000000000000000000000000000000000000000000000000000000000000000000000000000000400002000000000000000000000000000000000000000000000000040000000000000001000000000000000000000000000000000000000000000080000000000000000000000000000000000000010000000000000008000020000000000080000000000000000000000000000000000000000000000000020000000000000000",
      "type": "0x2",
      "transactionHash": "0xf59b566ed728a5a20b039dd1694194fd5d98d64ac4ff1fe42bbb18061c1674b9",
      "transactionIndex": "0x1",
      "blockHash": "0x1a7deb3ebc89555b2cd708a6010c436bc079d6ac8103a13f586d1cebaa0d6a9d",
      "blockNumber": "0x5b451c6",
      "gasUsed": "0x8cc4",
      "effectiveGasPrice": "0x5f5e100",
      "from": "0xb05a948b5c1b057b88d381bde3a375efea87ebad",
      "to": "0xb4a340406311a6baf6d0ca84059ca69bb3b02a07",
      "contractAddress": null,
      "gasUsedForL1": "0x394",
      "l1BlockNumber": "0x6b6c94"
    },
    {
      "status": "0x1",
      "cumulativeGasUsed": "0x8cc4",
      "logs": [
        {
          "address": "0xb9540d3e9dff4de30ae19a96c604d261d3919a21",
          "topics": [
            "0x8be0079c531659141344cd1fd0a4f28419497f9722a3daafe3b4186f6b6457e0",
            "0x000000000000000000000000b05a948b5c1b057b88d381bde3a375efea87ebad",
            "0x000000000000000000000000d28473fbd87183864cac0482dbee1c54ee3d8cd1"
          ],
          "data": "0x",
          "blockHash": "0xd678911c0e153a391418dd3fb693081b00a16e4072980bd69b4c7a4497b08069",
          "blockNumber": "0x5b451c8",
          "transactionHash": "0xa0bd6ec435e498e1a42f65cbc58c11871b97c2d90447c3b9c009bb0834f0a921",
          "transactionIndex": "0x1",
          "logIndex": "0x0",
          "removed": false
        }
      ],
      "logsBloom": "0x00000000000000000000000000000000000000000000000000800000000000000000000000000000000000000000000000000000000000000000000000000000000000000000000000000000000000000001000000000000000002000000000000000000000000000000000000000000000000000000000000000000000000400002000000400000000000000000000000000000000000000000040000000000000001000000000000000000000000000000000000000000000000000000000000000000000000000000000000010000000000000000000000000000000080000000000000000000000000000000000000000000000000020000000000000000",
      "type": "0x2",
      "transactionHash": "0xa0bd6ec435e498e1a42f65cbc58c11871b97c2d90447c3b9c009bb0834f0a921",
      "transactionIndex": "0x1",
      "blockHash": "0xd678911c0e153a391418dd3fb693081b00a16e4072980bd69b4c7a4497b08069",
      "blockNumber": "0x5b451c8",
      "gasUsed": "0x8cc4",
      "effectiveGasPrice": "0x5f5e100",
      "from": "0xb05a948b5c1b057b88d381bde3a375efea87ebad",
      "to": "0xb9540d3e9dff4de30ae19a96c604d261d3919a21",
      "contractAddress": null,
      "gasUsedForL1": "0x394",
      "l1BlockNumber": "0x6b6c94"
    },
    {
      "status": "0x1",
      "cumulativeGasUsed": "0x8cc4",
      "logs": [
        {
          "address": "0xbd7474ca99a439d2926526a0168e3e948d2987c6",
          "topics": [
            "0x8be0079c531659141344cd1fd0a4f28419497f9722a3daafe3b4186f6b6457e0",
            "0x000000000000000000000000b05a948b5c1b057b88d381bde3a375efea87ebad",
            "0x000000000000000000000000d28473fbd87183864cac0482dbee1c54ee3d8cd1"
          ],
          "data": "0x",
          "blockHash": "0xe51d7a9416e0fb49ad58d13ab5288578dfcd1c37a26ea7bf870ab7b62e653acc",
          "blockNumber": "0x5b451cc",
          "transactionHash": "0x7706701bf9b5684786b62f6dc0f35db5671a64eff6754fd1cb9ff9b6c379aaa1",
          "transactionIndex": "0x1",
          "logIndex": "0x0",
          "removed": false
        }
      ],
      "logsBloom": "0x00000000000000000000000000000000000000000000000000800000000000000000000000800000000000000000000000000000000000000000000000000000000100000000000000000000000000000001000000000000000000000000000000000000000000000000000000000000000000000000000000000000000000400802000000000000000000000000000000000000000000000000040000000000000001000000000000000000000000000000000000000000000000000000000000000000000000000000000000010000000000000000000000000000000080000000000000000000000000000000000000000000000000020000000000000000",
      "type": "0x2",
      "transactionHash": "0x7706701bf9b5684786b62f6dc0f35db5671a64eff6754fd1cb9ff9b6c379aaa1",
      "transactionIndex": "0x1",
      "blockHash": "0xe51d7a9416e0fb49ad58d13ab5288578dfcd1c37a26ea7bf870ab7b62e653acc",
      "blockNumber": "0x5b451cc",
      "gasUsed": "0x8cc4",
      "effectiveGasPrice": "0x5f5e100",
      "from": "0xb05a948b5c1b057b88d381bde3a375efea87ebad",
      "to": "0xbd7474ca99a439d2926526a0168e3e948d2987c6",
      "contractAddress": null,
      "gasUsedForL1": "0x394",
      "l1BlockNumber": "0x6b6c95"
    },
    {
      "status": "0x1",
      "cumulativeGasUsed": "0x8cc4",
      "logs": [
        {
          "address": "0xbf647db7c6bbacaab6a1e956f97c1c4df5ca0d3e",
          "topics": [
            "0x8be0079c531659141344cd1fd0a4f28419497f9722a3daafe3b4186f6b6457e0",
            "0x000000000000000000000000b05a948b5c1b057b88d381bde3a375efea87ebad",
            "0x000000000000000000000000d28473fbd87183864cac0482dbee1c54ee3d8cd1"
          ],
          "data": "0x",
          "blockHash": "0x225e38d3ad0adf1d98ba4002a5fb9eac330bcf795dbdac976299c1de6a8e79c6",
          "blockNumber": "0x5b451d0",
          "transactionHash": "0x1ffef241c413c5c84c20ab2ebe31e7f81133cbfa9586d711840a8a841546d4e0",
          "transactionIndex": "0x1",
          "logIndex": "0x0",
          "removed": false
        }
      ],
      "logsBloom": "0x00000000000000000000000000000000000000000000000000800000000000000000000000000000000000000000000000000000000000000000000000000000000000000000000000000000000000000001000000000000000000000000000000000000000000000000000000000000000000000000000000000000000000400002000000000000000000000000000000000000000000000000040000000000000041000000000000000000000000000000000000000000000000010000000000000000000000000000000000010000000000000000000000000000000080000000000000000000000000004000000000000000000000020000000000000000",
      "type": "0x2",
      "transactionHash": "0x1ffef241c413c5c84c20ab2ebe31e7f81133cbfa9586d711840a8a841546d4e0",
      "transactionIndex": "0x1",
      "blockHash": "0x225e38d3ad0adf1d98ba4002a5fb9eac330bcf795dbdac976299c1de6a8e79c6",
      "blockNumber": "0x5b451d0",
      "gasUsed": "0x8cc4",
      "effectiveGasPrice": "0x5f5e100",
      "from": "0xb05a948b5c1b057b88d381bde3a375efea87ebad",
      "to": "0xbf647db7c6bbacaab6a1e956f97c1c4df5ca0d3e",
      "contractAddress": null,
      "gasUsedForL1": "0x394",
      "l1BlockNumber": "0x6b6c95"
    },
    {
      "status": "0x1",
      "cumulativeGasUsed": "0x8cc4",
      "logs": [
        {
          "address": "0xc0410861dbae69dbe94ab2db56ef988625dcd322",
          "topics": [
            "0x8be0079c531659141344cd1fd0a4f28419497f9722a3daafe3b4186f6b6457e0",
            "0x000000000000000000000000b05a948b5c1b057b88d381bde3a375efea87ebad",
            "0x000000000000000000000000d28473fbd87183864cac0482dbee1c54ee3d8cd1"
          ],
          "data": "0x",
          "blockHash": "0xc40f8aa8727607a6b0514cf8f5603ed6f7d90e45e8e9a3ba5e475448b153fab2",
          "blockNumber": "0x5b451d1",
          "transactionHash": "0x3b42ea7c02b09d30334e347161607007273da7d6c299bef24b87fcba70ae5ae0",
          "transactionIndex": "0x1",
          "logIndex": "0x0",
          "removed": false
        }
      ],
      "logsBloom": "0x00000000000000000000000000000000040000000000000000800000000000000000000000000000000000000000000000000000000000000000000000000000000000000000400000000000000000000001000000000000000000000000000000000000000000000000000000000000000000000000000000000200000000400002000000000000000000000000000000000000000000000000040000000000000001000000000000000000000000000000000000000000000000000000000000000000000000000000000000010000000000000000000000000000000080000000000000000000000000000000000000000000000000020000000000000000",
      "type": "0x2",
      "transactionHash": "0x3b42ea7c02b09d30334e347161607007273da7d6c299bef24b87fcba70ae5ae0",
      "transactionIndex": "0x1",
      "blockHash": "0xc40f8aa8727607a6b0514cf8f5603ed6f7d90e45e8e9a3ba5e475448b153fab2",
      "blockNumber": "0x5b451d1",
      "gasUsed": "0x8cc4",
      "effectiveGasPrice": "0x5f5e100",
      "from": "0xb05a948b5c1b057b88d381bde3a375efea87ebad",
      "to": "0xc0410861dbae69dbe94ab2db56ef988625dcd322",
      "contractAddress": null,
      "gasUsedForL1": "0x394",
      "l1BlockNumber": "0x6b6c95"
    },
    {
      "status": "0x1",
      "cumulativeGasUsed": "0x8cc4",
      "logs": [
        {
          "address": "0xc5ae99a250617a875abc9bbb485dfde746cf3ba9",
          "topics": [
            "0x8be0079c531659141344cd1fd0a4f28419497f9722a3daafe3b4186f6b6457e0",
            "0x000000000000000000000000b05a948b5c1b057b88d381bde3a375efea87ebad",
            "0x000000000000000000000000d28473fbd87183864cac0482dbee1c54ee3d8cd1"
          ],
          "data": "0x",
          "blockHash": "0x02e69c0fc6eaef8a338486643318a2ee34807c64595b747e2c5c451159c3e017",
          "blockNumber": "0x5b451d7",
          "transactionHash": "0xabb42c071d018bdf8cee82498ecb141965e83de4672cba151197630dd69313cd",
          "transactionIndex": "0x1",
          "logIndex": "0x0",
          "removed": false
        }
      ],
      "logsBloom": "0x00000000000000000000000000000000000000000000000000800000000000000000000000000000000100000000000000000000000000000000200000000000000000000000000000000000000000000001000000000000000000000000000000000000000000000000000000000000000000000000000000000000000000400002000000000000000000000000000000000000000000000000040000000000000001000000000000000000000000000000000000000000000000000000000000000000000000000000000000010000000000000000000000000000000080000000000000000000000000000000000000000000000020020000000000000000",
      "type": "0x2",
      "transactionHash": "0xabb42c071d018bdf8cee82498ecb141965e83de4672cba151197630dd69313cd",
      "transactionIndex": "0x1",
      "blockHash": "0x02e69c0fc6eaef8a338486643318a2ee34807c64595b747e2c5c451159c3e017",
      "blockNumber": "0x5b451d7",
      "gasUsed": "0x8cc4",
      "effectiveGasPrice": "0x5f5e100",
      "from": "0xb05a948b5c1b057b88d381bde3a375efea87ebad",
      "to": "0xc5ae99a250617a875abc9bbb485dfde746cf3ba9",
      "contractAddress": null,
      "gasUsedForL1": "0x394",
      "l1BlockNumber": "0x6b6c95"
    },
    {
      "status": "0x1",
      "cumulativeGasUsed": "0x8cc4",
      "logs": [
        {
          "address": "0xcb9a68e1707b028a7236c08c6c67eb760bb4977d",
          "topics": [
            "0x8be0079c531659141344cd1fd0a4f28419497f9722a3daafe3b4186f6b6457e0",
            "0x000000000000000000000000b05a948b5c1b057b88d381bde3a375efea87ebad",
            "0x000000000000000000000000d28473fbd87183864cac0482dbee1c54ee3d8cd1"
          ],
          "data": "0x",
          "blockHash": "0x1a9de861bbcf39a45b98e1694a9d2c82977829e0ee68840c5e4e1663e7680519",
          "blockNumber": "0x5b451d8",
          "transactionHash": "0x19bc6cb632bd965d9bc585cac7c2aad6aa3b28eb46b8876e91feb8b476f9cfdf",
          "transactionIndex": "0x1",
          "logIndex": "0x0",
          "removed": false
        }
      ],
      "logsBloom": "0x00000000000000000000000000000000000000000000000000800000000000000000000000000000000000000000000000000000000000000000000000000000800000000000000000000000000000000001000000000000000000000000000000000000000000000000000000000000000000000000000000000000000000400002000000000000000000000000000000000000000000000000840000080000000001000000000000000000000000000000000000000000000000000000000000000000000000000000000000010000000000000000000000000000000080000000000000000000000000000000000000000000000000020000000000000000",
      "type": "0x2",
      "transactionHash": "0x19bc6cb632bd965d9bc585cac7c2aad6aa3b28eb46b8876e91feb8b476f9cfdf",
      "transactionIndex": "0x1",
      "blockHash": "0x1a9de861bbcf39a45b98e1694a9d2c82977829e0ee68840c5e4e1663e7680519",
      "blockNumber": "0x5b451d8",
      "gasUsed": "0x8cc4",
      "effectiveGasPrice": "0x5f5e100",
      "from": "0xb05a948b5c1b057b88d381bde3a375efea87ebad",
      "to": "0xcb9a68e1707b028a7236c08c6c67eb760bb4977d",
      "contractAddress": null,
      "gasUsedForL1": "0x394",
      "l1BlockNumber": "0x6b6c95"
    },
    {
      "status": "0x1",
      "cumulativeGasUsed": "0x8cc4",
      "logs": [
        {
          "address": "0xd76cd68881ad9c95000ad0a8d2f332374e91d23b",
          "topics": [
            "0x8be0079c531659141344cd1fd0a4f28419497f9722a3daafe3b4186f6b6457e0",
            "0x000000000000000000000000b05a948b5c1b057b88d381bde3a375efea87ebad",
            "0x000000000000000000000000d28473fbd87183864cac0482dbee1c54ee3d8cd1"
          ],
          "data": "0x",
          "blockHash": "0x4e2a2c007b2968a61cc8cab4febfb90533eb2fbe38560e0ad8617a4077c907e5",
          "blockNumber": "0x5b451da",
          "transactionHash": "0x1b6dda77185eb586b8ca27d0b603e92e46f3e518e659eba471e0b91850b9f1b2",
          "transactionIndex": "0x1",
          "logIndex": "0x0",
          "removed": false
        }
      ],
      "logsBloom": "0x00000000000000000000000000000000000000000000000000800000000000000000000000000000000000000000000000000000000000000000000000000000000000000000000000000000000000000001000000000000000000000000000000000000200000000000000000000000000000000000000000000000000000400002000000100000000000000000000000000000000000000000040000000000000001000000000000000000000000000000000000000000000000000000000000000000000000000000000000010000000000000000000100000000000080000000000000000000000000000000000000000000000000020000000000000000",
      "type": "0x2",
      "transactionHash": "0x1b6dda77185eb586b8ca27d0b603e92e46f3e518e659eba471e0b91850b9f1b2",
      "transactionIndex": "0x1",
      "blockHash": "0x4e2a2c007b2968a61cc8cab4febfb90533eb2fbe38560e0ad8617a4077c907e5",
      "blockNumber": "0x5b451da",
      "gasUsed": "0x8cc4",
      "effectiveGasPrice": "0x5f5e100",
      "from": "0xb05a948b5c1b057b88d381bde3a375efea87ebad",
      "to": "0xd76cd68881ad9c95000ad0a8d2f332374e91d23b",
      "contractAddress": null,
      "gasUsedForL1": "0x394",
      "l1BlockNumber": "0x6b6c95"
    },
    {
      "status": "0x1",
      "cumulativeGasUsed": "0x8cc4",
      "logs": [
        {
          "address": "0xd8e2fc7ddc06e67b039cfaf2e1255de55e0789a0",
          "topics": [
            "0x8be0079c531659141344cd1fd0a4f28419497f9722a3daafe3b4186f6b6457e0",
            "0x000000000000000000000000b05a948b5c1b057b88d381bde3a375efea87ebad",
            "0x000000000000000000000000d28473fbd87183864cac0482dbee1c54ee3d8cd1"
          ],
          "data": "0x",
          "blockHash": "0x9cb65751281a97aa8e7203fc632c7314acbd46377e50418e980bd366cd4dff19",
          "blockNumber": "0x5b451dd",
          "transactionHash": "0x90086bf8f610da4c942aaca1d4b9a06db589a47a4a641ac430f8baac3514ba65",
          "transactionIndex": "0x1",
          "logIndex": "0x0",
          "removed": false
        }
      ],
      "logsBloom": "0x00000000000000000000000000000000000000000000000000800000000000000000000000000000000000000000000000000000000000000000000000000080000000000000000000000000000000008001000000000000000000000000000000000000000000000000000000000000000000000000000000000000000000400002000000000000000000000000000000000000000000000000040000000000000001000000000000000000000000000000000000000000000000000000000000000000000000000000000000010000000000000000000000020000000080000000000000000000000000000000000000000000000000020000000000000000",
      "type": "0x2",
      "transactionHash": "0x90086bf8f610da4c942aaca1d4b9a06db589a47a4a641ac430f8baac3514ba65",
      "transactionIndex": "0x1",
      "blockHash": "0x9cb65751281a97aa8e7203fc632c7314acbd46377e50418e980bd366cd4dff19",
      "blockNumber": "0x5b451dd",
      "gasUsed": "0x8cc4",
      "effectiveGasPrice": "0x5f5e100",
      "from": "0xb05a948b5c1b057b88d381bde3a375efea87ebad",
      "to": "0xd8e2fc7ddc06e67b039cfaf2e1255de55e0789a0",
      "contractAddress": null,
      "gasUsedForL1": "0x394",
      "l1BlockNumber": "0x6b6c95"
    },
    {
      "status": "0x1",
      "cumulativeGasUsed": "0x8cc4",
      "logs": [
        {
          "address": "0xdc3a597e60297bf51627918019ba7252b844970c",
          "topics": [
            "0x8be0079c531659141344cd1fd0a4f28419497f9722a3daafe3b4186f6b6457e0",
            "0x000000000000000000000000b05a948b5c1b057b88d381bde3a375efea87ebad",
            "0x000000000000000000000000d28473fbd87183864cac0482dbee1c54ee3d8cd1"
          ],
          "data": "0x",
          "blockHash": "0xc43a4722228d0fc07826666f8ba4acee94d86fff7cabfc918c37221a430b11a3",
          "blockNumber": "0x5b451e0",
          "transactionHash": "0x3df0989e84ad733e6370e9d0d930ec5992f0db0a149288de0664044ec089d5ff",
          "transactionIndex": "0x1",
          "logIndex": "0x0",
          "removed": false
        }
      ],
      "logsBloom": "0x00000000000000000000000000000000000000000000000000800000000000000000000200000000000000000000000000000000000000000000000000000000000000000000000000000000000000000001000000000000000000000000000000000000000000000000000000000000000000000000000000000000000000400002000000000000000080000000000000000000000000000000040000000000000001000000000000000000000000000000000000000000000000000000000000000000000000000000000000010000000000000000000000000000002080000000000000000000000000000000000000000000000000020000000000000000",
      "type": "0x2",
      "transactionHash": "0x3df0989e84ad733e6370e9d0d930ec5992f0db0a149288de0664044ec089d5ff",
      "transactionIndex": "0x1",
      "blockHash": "0xc43a4722228d0fc07826666f8ba4acee94d86fff7cabfc918c37221a430b11a3",
      "blockNumber": "0x5b451e0",
      "gasUsed": "0x8cc4",
      "effectiveGasPrice": "0x5f5e100",
      "from": "0xb05a948b5c1b057b88d381bde3a375efea87ebad",
      "to": "0xdc3a597e60297bf51627918019ba7252b844970c",
      "contractAddress": null,
      "gasUsedForL1": "0x394",
      "l1BlockNumber": "0x6b6c95"
    },
    {
      "status": "0x1",
      "cumulativeGasUsed": "0x8cc4",
      "logs": [
        {
          "address": "0xdd02fe21984aef0d8d3fa46d545b2dece39749b4",
          "topics": [
            "0x8be0079c531659141344cd1fd0a4f28419497f9722a3daafe3b4186f6b6457e0",
            "0x000000000000000000000000b05a948b5c1b057b88d381bde3a375efea87ebad",
            "0x000000000000000000000000d28473fbd87183864cac0482dbee1c54ee3d8cd1"
          ],
          "data": "0x",
          "blockHash": "0x4ea8148b05217c4f1780f7d8e7a8315a96b3ac7ad1f8af797bfc2e5d2848fcca",
          "blockNumber": "0x5b451e3",
          "transactionHash": "0xc619af47d46c624f4dd606c7bf7a36da432167035a9331cfd610f30f4f16186c",
          "transactionIndex": "0x1",
          "logIndex": "0x0",
          "removed": false
        }
      ],
      "logsBloom": "0x00000000000000000400000000000000000000000000000000800000000000000000000000000000000000000000000000000000000000000000000000000000000000000000000000000000000000000001000000000000000080000000000000000000000000000000000000000000000000000000000000000000000000400002000000000000000000000000000000000000000000000000040000000000000001000000000000000000000000000000000000000000000000000000000000000000000000000000000000010000000000000000000000000000000080000000000000000000000000000000000000004000000000020000000000000000",
      "type": "0x2",
      "transactionHash": "0xc619af47d46c624f4dd606c7bf7a36da432167035a9331cfd610f30f4f16186c",
      "transactionIndex": "0x1",
      "blockHash": "0x4ea8148b05217c4f1780f7d8e7a8315a96b3ac7ad1f8af797bfc2e5d2848fcca",
      "blockNumber": "0x5b451e3",
      "gasUsed": "0x8cc4",
      "effectiveGasPrice": "0x5f5e100",
      "from": "0xb05a948b5c1b057b88d381bde3a375efea87ebad",
      "to": "0xdd02fe21984aef0d8d3fa46d545b2dece39749b4",
      "contractAddress": null,
      "gasUsedForL1": "0x394",
      "l1BlockNumber": "0x6b6c95"
    },
    {
      "status": "0x1",
      "cumulativeGasUsed": "0x8cc4",
      "logs": [
        {
          "address": "0xe0eb96a8c31d95ccca8f7fa52ee38d0d42b4167b",
          "topics": [
            "0x8be0079c531659141344cd1fd0a4f28419497f9722a3daafe3b4186f6b6457e0",
            "0x000000000000000000000000b05a948b5c1b057b88d381bde3a375efea87ebad",
            "0x000000000000000000000000d28473fbd87183864cac0482dbee1c54ee3d8cd1"
          ],
          "data": "0x",
          "blockHash": "0xd976d07d0b49fdca5dd9be67ed42ce19a9067628b980bc06dc54c1f8d9acd2e3",
          "blockNumber": "0x5b451e5",
          "transactionHash": "0x8f2eb537d14d6629a73d1ab4a64bf22f61b0198fa53a1dbfcfb9fd315f53cd2e",
          "transactionIndex": "0x1",
          "logIndex": "0x0",
          "removed": false
        }
      ],
      "logsBloom": "0x00000000000000000000000000000000000000000000000000800000000000000000000000000000000000000000000000000000000000000000000000000000010000000000000000000000000000000001000000000000000000000000000000000000000000000000000000000000100000000000000000000000000000400002000000000000000000000000000000000000000000000000040000000000000001000000000000000000000000200000000000000000000000000000000000000000000000000000000000010000000000000000000000000000000080000000000000000000000000000000000000000000000000020000000000000000",
      "type": "0x2",
      "transactionHash": "0x8f2eb537d14d6629a73d1ab4a64bf22f61b0198fa53a1dbfcfb9fd315f53cd2e",
      "transactionIndex": "0x1",
      "blockHash": "0xd976d07d0b49fdca5dd9be67ed42ce19a9067628b980bc06dc54c1f8d9acd2e3",
      "blockNumber": "0x5b451e5",
      "gasUsed": "0x8cc4",
      "effectiveGasPrice": "0x5f5e100",
      "from": "0xb05a948b5c1b057b88d381bde3a375efea87ebad",
      "to": "0xe0eb96a8c31d95ccca8f7fa52ee38d0d42b4167b",
      "contractAddress": null,
      "gasUsedForL1": "0x394",
      "l1BlockNumber": "0x6b6c95"
    },
    {
      "status": "0x1",
      "cumulativeGasUsed": "0x8cc4",
      "logs": [
        {
          "address": "0xe57e7f0707bdb9c826a7c6da352dfb2be1275c21",
          "topics": [
            "0x8be0079c531659141344cd1fd0a4f28419497f9722a3daafe3b4186f6b6457e0",
            "0x000000000000000000000000b05a948b5c1b057b88d381bde3a375efea87ebad",
            "0x000000000000000000000000d28473fbd87183864cac0482dbee1c54ee3d8cd1"
          ],
          "data": "0x",
          "blockHash": "0x3b50be3879bb6d62a65baa3ef6c7a8fbe2b8f9fc6481d12b6dab15ea8f85d5dd",
          "blockNumber": "0x5b451e8",
          "transactionHash": "0x446c8efaeea982c204070618a02586a60e3d7e3e4a6d5166e4fbd89633fc1f69",
          "transactionIndex": "0x1",
          "logIndex": "0x0",
          "removed": false
        }
      ],
      "logsBloom": "0x00000000000000000000000000000000000000000000000000800200000000000000000000000000000000000000000000000000000000000000000000000000000000000000000000000000000000000001001000000000000000000000000000000000000000000000000000000000000000000000000000000000000000400002000000000000000000000000000000000000000000000000040000000000000001000000000000000000000000000000000000000000000000000000000000000000000000000000000000010400000000000000000000000000000080000000000000000000000000000000000000000000000000020000000000000000",
      "type": "0x2",
      "transactionHash": "0x446c8efaeea982c204070618a02586a60e3d7e3e4a6d5166e4fbd89633fc1f69",
      "transactionIndex": "0x1",
      "blockHash": "0x3b50be3879bb6d62a65baa3ef6c7a8fbe2b8f9fc6481d12b6dab15ea8f85d5dd",
      "blockNumber": "0x5b451e8",
      "gasUsed": "0x8cc4",
      "effectiveGasPrice": "0x5f5e100",
      "from": "0xb05a948b5c1b057b88d381bde3a375efea87ebad",
      "to": "0xe57e7f0707bdb9c826a7c6da352dfb2be1275c21",
      "contractAddress": null,
      "gasUsedForL1": "0x394",
      "l1BlockNumber": "0x6b6c95"
    },
    {
      "status": "0x1",
      "cumulativeGasUsed": "0x8cc4",
      "logs": [
        {
          "address": "0xee81fb9c0a60dfc69a7922bc3472418dd46f7dd3",
          "topics": [
            "0x8be0079c531659141344cd1fd0a4f28419497f9722a3daafe3b4186f6b6457e0",
            "0x000000000000000000000000b05a948b5c1b057b88d381bde3a375efea87ebad",
            "0x000000000000000000000000d28473fbd87183864cac0482dbee1c54ee3d8cd1"
          ],
          "data": "0x",
          "blockHash": "0x6eb3b5cc5119f59ff3caf6da7cf59589b38394cdc2c6c31a7241c1b65e33ab96",
          "blockNumber": "0x5b451eb",
          "transactionHash": "0x9437ee115f506a6d76247f0ee4f4eb587a01e443afeaf3f6a4b9e5ab2fa5a3e4",
          "transactionIndex": "0x1",
          "logIndex": "0x0",
          "removed": false
        }
      ],
      "logsBloom": "0x00080000000000000000000000000000000000000000000000800000000000000000000000000000000000000000000000000000000000000000000000000000000000000000000000000000000000000001000000000000000000000000000000000000000000000000000000000000000000000000000000000000000000400002000000000000000000000000000000000000000000000000040000000000000401000000000000000000000000000000000000000000000000000000000000000000000400000000000000010000000000000000000000000000000080000000000000000000000000000000000000000000000000020000000000000000",
      "type": "0x2",
      "transactionHash": "0x9437ee115f506a6d76247f0ee4f4eb587a01e443afeaf3f6a4b9e5ab2fa5a3e4",
      "transactionIndex": "0x1",
      "blockHash": "0x6eb3b5cc5119f59ff3caf6da7cf59589b38394cdc2c6c31a7241c1b65e33ab96",
      "blockNumber": "0x5b451eb",
      "gasUsed": "0x8cc4",
      "effectiveGasPrice": "0x5f5e100",
      "from": "0xb05a948b5c1b057b88d381bde3a375efea87ebad",
      "to": "0xee81fb9c0a60dfc69a7922bc3472418dd46f7dd3",
      "contractAddress": null,
      "gasUsedForL1": "0x394",
      "l1BlockNumber": "0x6b6c95"
    },
    {
      "status": "0x1",
      "cumulativeGasUsed": "0xe1bb",
      "logs": [
        {
          "address": "0xfbaecc060d6a9051eb13c824b9eaff825976d44f",
          "topics": [
            "0x8be0079c531659141344cd1fd0a4f28419497f9722a3daafe3b4186f6b6457e0",
            "0x000000000000000000000000b05a948b5c1b057b88d381bde3a375efea87ebad",
            "0x000000000000000000000000d28473fbd87183864cac0482dbee1c54ee3d8cd1"
          ],
          "data": "0x",
          "blockHash": "0x42edaae5acfb805997f7d9e8a8a0360f845abfbfcdfc78afc858a9f4b50e8aef",
          "blockNumber": "0x5b451ed",
          "transactionHash": "0x5caf439b6f9f7ae01460afce78e5b304c2f263e1f10a167ecc3c3e4389404291",
          "transactionIndex": "0x2",
          "logIndex": "0x0",
          "removed": false
        }
      ],
      "logsBloom": "0x00000000000000000000000000000000000000000000800000800000000000000000000000000000000000000000000000000000000000000000000000000000000000000000000000000000000000000001000000000000000000000000000000000000000000000000000000000000000000000000000000000000000000400002000000000000000000000000000000000000000000000000040000000000000001000000000000000000000000000000000000000000000000000000000000000000000000000000000000010000000008000000000000000000000080000000000000000000000000000000000000000000000000020100000000000000",
      "type": "0x2",
      "transactionHash": "0x5caf439b6f9f7ae01460afce78e5b304c2f263e1f10a167ecc3c3e4389404291",
      "transactionIndex": "0x2",
      "blockHash": "0x42edaae5acfb805997f7d9e8a8a0360f845abfbfcdfc78afc858a9f4b50e8aef",
      "blockNumber": "0x5b451ed",
      "gasUsed": "0x8cc4",
      "effectiveGasPrice": "0x5f5e100",
      "from": "0xb05a948b5c1b057b88d381bde3a375efea87ebad",
      "to": "0xfbaecc060d6a9051eb13c824b9eaff825976d44f",
      "contractAddress": null,
      "gasUsedForL1": "0x394",
      "l1BlockNumber": "0x6b6c95"
    },
    {
      "status": "0x1",
      "cumulativeGasUsed": "0x8cc4",
      "logs": [
        {
          "address": "0xfd71d94f892670d3085cfaf1d93d0e4eb0b8963b",
          "topics": [
            "0x8be0079c531659141344cd1fd0a4f28419497f9722a3daafe3b4186f6b6457e0",
            "0x000000000000000000000000b05a948b5c1b057b88d381bde3a375efea87ebad",
            "0x000000000000000000000000d28473fbd87183864cac0482dbee1c54ee3d8cd1"
          ],
          "data": "0x",
          "blockHash": "0x68500f6f5c71df83d8bc5bab1385ea11c0dc2f9c3da76c5d119cdc5e515f58b3",
          "blockNumber": "0x5b451f0",
          "transactionHash": "0x6d9c0caea30da14bbc86416e3204b2e2b505f6e4371a078db9429089665dfe36",
          "transactionIndex": "0x1",
          "logIndex": "0x0",
          "removed": false
        }
      ],
      "logsBloom": "0x00000000000000000000000000000000040000000000000000800000000000000000000000000000000000000200000000000000000000000000000000000000000000000000000000000000000000000001000000000000000000000000000000000000000000000000000000000002000000000000000000000000000000400002000000000000000000000000000000000000000000000000040000000000000001000000000000000000000000000000000000000000000000000000000000000000000000000000000000010000000000000000000000000000000080000000000000000000000000000000000000000000000000020000000000000000",
      "type": "0x2",
      "transactionHash": "0x6d9c0caea30da14bbc86416e3204b2e2b505f6e4371a078db9429089665dfe36",
      "transactionIndex": "0x1",
      "blockHash": "0x68500f6f5c71df83d8bc5bab1385ea11c0dc2f9c3da76c5d119cdc5e515f58b3",
      "blockNumber": "0x5b451f0",
      "gasUsed": "0x8cc4",
      "effectiveGasPrice": "0x5f5e100",
      "from": "0xb05a948b5c1b057b88d381bde3a375efea87ebad",
      "to": "0xfd71d94f892670d3085cfaf1d93d0e4eb0b8963b",
      "contractAddress": null,
      "gasUsedForL1": "0x394",
      "l1BlockNumber": "0x6b6c95"
    }
  ],
  "libraries": [],
  "pending": [],
  "returns": {},
  "timestamp": 1731122794,
  "chain": 421614,
  "commit": "d591413e"
}