{
  "transactions": [
    {
      "hash": null,
      "transactionType": "CREATE",
      "contractName": "ProxyOwner",
      "contractAddress": "0xb3658344ea0b53e2674b35c3a7773eef6e0dd9f4",
      "function": null,
      "arguments": null,
      "transaction": {
        "from": "0xb05a948b5c1b057b88d381bde3a375efea87ebad",
        "gas": "0x10b5eb",
        "value": "0x0",
        "input": "0x60a06040523060805234801561001457600080fd5b50608051610d1461004c6000396000818161018e015281816101d70152818161025f0152818161029f015261031b0152610d146000f3fe6080604052600436106100765760003560e01c80633659cfe61461007b5780634f1ef2861461009d57806352d1902d146100b0578063715018a6146100d857806379ba5097146100ed5780638da5cb5b14610102578063c4d66de814610124578063e30c397814610144578063f2fde38b14610164575b600080fd5b34801561008757600080fd5b5061009b610096366004610a71565b610184565b005b61009b6100ab366004610aa2565b610255565b3480156100bc57600080fd5b506100c561030e565b6040519081526020015b60405180910390f35b3480156100e457600080fd5b5061009b6103bc565b3480156100f957600080fd5b5061009b6103d0565b34801561010e57600080fd5b50610117610408565b6040516100cf9190610b63565b34801561013057600080fd5b5061009b61013f366004610a71565b610417565b34801561015057600080fd5b50606554610117906001600160a01b031681565b34801561017057600080fd5b5061009b61017f366004610a71565b610530565b6001600160a01b037f00000000000000000000000000000000000000000000000000000000000000001630036101d55760405162461bcd60e51b81526004016101cc90610b77565b60405180910390fd5b7f00000000000000000000000000000000000000000000000000000000000000006001600160a01b0316610207610596565b6001600160a01b03161461022d5760405162461bcd60e51b81526004016101cc90610bb1565b610236816105b2565b60408051600080825260208201909252610252918391906105ba565b50565b6001600160a01b037f000000000000000000000000000000000000000000000000000000000000000016300361029d5760405162461bcd60e51b81526004016101cc90610b77565b7f00000000000000000000000000000000000000000000000000000000000000006001600160a01b03166102cf610596565b6001600160a01b0316146102f55760405162461bcd60e51b81526004016101cc90610bb1565b6102fe826105b2565b61030a828260016105ba565b5050565b6000306001600160a01b037f000000000000000000000000000000000000000000000000000000000000000016146103a95760405162461bcd60e51b815260206004820152603860248201527f555550535570677261646561626c653a206d757374206e6f742062652063616c6044820152771b1959081d1a1c9bdd59da0819195b1959d85d1958d85b1b60421b60648201526084016101cc565b50600080516020610c9883398151915290565b6103c461072a565b6103ce6000610789565b565b60655433906001600160a01b031681146103ff578060405163118cdaa760e01b81526004016101cc9190610b63565b61025281610789565b6033546001600160a01b031690565b600054610100900460ff16158080156104375750600054600160ff909116105b806104585750610446306107a2565b158015610458575060005460ff166001145b6104bb5760405162461bcd60e51b815260206004820152602e60248201527f496e697469616c697a61626c653a20636f6e747261637420697320616c72656160448201526d191e481a5b9a5d1a585b1a5e995960921b60648201526084016101cc565b6000805460ff1916600117905580156104de576000805461ff0019166101001790555b6104e782610789565b801561030a576000805461ff0019169055604051600181527f7f26b83ff96e1f2b6a682f133852f6798a09c465da95921460cefb38474024989060200160405180910390a15050565b61053861072a565b606580546001600160a01b0319166001600160a01b03831690811790915561055e610408565b6001600160a01b03167f38d16b8cac22d99fc7c124b9cd0de2d3fa1faef420bfe791d8c362d765e2270060405160405180910390a350565b600080516020610c98833981519152546001600160a01b031690565b61025261072a565b7f4910fdfa16fed3260ed0e7147f7cc6da11a60208b5b9406d12a635614ffd91435460ff16156105f2576105ed836107b1565b505050565b826001600160a01b03166352d1902d6040518163ffffffff1660e01b8152600401602060405180830381865afa92505050801561064c575060408051601f3d908101601f1916820190925261064991810190610beb565b60015b6106af5760405162461bcd60e51b815260206004820152602e60248201527f45524331393637557067726164653a206e657720696d706c656d656e7461746960448201526d6f6e206973206e6f74205555505360901b60648201526084016101cc565b600080516020610c98833981519152811461071e5760405162461bcd60e51b815260206004820152602960248201527f45524331393637557067726164653a20756e737570706f727465642070726f786044820152681a58589b195555525160ba1b60648201526084016101cc565b506105ed83838361084b565b33610733610408565b6001600160a01b0316146103ce5760405162461bcd60e51b815260206004820181905260248201527f4f776e61626c653a2063616c6c6572206973206e6f7420746865206f776e657260448201526064016101cc565b606580546001600160a01b031916905561025281610876565b6001600160a01b03163b151590565b6107ba816107a2565b61081c5760405162461bcd60e51b815260206004820152602d60248201527f455243313936373a206e657720696d706c656d656e746174696f6e206973206e60448201526c1bdd08184818dbdb9d1c9858dd609a1b60648201526084016101cc565b600080516020610c9883398151915280546001600160a01b0319166001600160a01b0392909216919091179055565b610854836108c8565b6000825111806108615750805b156105ed576108708383610908565b50505050565b603380546001600160a01b038381166001600160a01b0319831681179093556040519116919082907f8be0079c531659141344cd1fd0a4f28419497f9722a3daafe3b4186f6b6457e090600090a35050565b6108d1816107b1565b6040516001600160a01b038216907fbc7cd75a20ee27fd9adebab32041f755214dbc6bffa90cc0225b39da2e5c2d3b90600090a250565b606061092d8383604051806060016040528060278152602001610cb860279139610934565b9392505050565b6060600080856001600160a01b0316856040516109519190610c28565b600060405180830381855af49150503d806000811461098c576040519150601f19603f3d011682016040523d82523d6000602084013e610991565b606091505b50915091506109a2868383876109ac565b9695505050505050565b60608315610a19578251600003610a12576109c6856107a2565b610a125760405162461bcd60e51b815260206004820152601d60248201527f416464726573733a2063616c6c20746f206e6f6e2d636f6e747261637400000060448201526064016101cc565b5081610a23565b610a238383610a2b565b949350505050565b815115610a3b5781518083602001fd5b8060405162461bcd60e51b81526004016101cc9190610c44565b80356001600160a01b0381168114610a6c57600080fd5b919050565b600060208284031215610a8357600080fd5b61092d82610a55565b634e487b7160e01b600052604160045260246000fd5b60008060408385031215610ab557600080fd5b610abe83610a55565b915060208301356001600160401b0380821115610ada57600080fd5b818501915085601f830112610aee57600080fd5b813581811115610b0057610b00610a8c565b604051601f8201601f19908116603f01168101908382118183101715610b2857610b28610a8c565b81604052828152886020848701011115610b4157600080fd5b8260208601602083013760006020848301015280955050505050509250929050565b6001600160a01b0391909116815260200190565b6020808252602c90820152600080516020610c7883398151915260408201526b19195b1959d85d1958d85b1b60a21b606082015260800190565b6020808252602c90820152600080516020610c7883398151915260408201526b6163746976652070726f787960a01b606082015260800190565b600060208284031215610bfd57600080fd5b5051919050565b60005b83811015610c1f578181015183820152602001610c07565b50506000910152565b60008251610c3a818460208701610c04565b9190910192915050565b6020815260008251806020840152610c63816040850160208701610c04565b601f01601f1916919091016040019291505056fe46756e6374696f6e206d7573742062652063616c6c6564207468726f75676820360894a13ba1a3210667c828492db98dca3e2076cc3735a920a3ca505d382bbc416464726573733a206c6f772d6c6576656c2064656c65676174652063616c6c206661696c6564a26469706673582212203c27a10238ea9dcd0ca927800014e70390632897533b43534b71a7b94403ac8964736f6c63430008130033",
        "nonce": "0xcd8",
        "chainId": "0x66eee"
      },
      "additionalContracts": [],
      "isFixedGasLimit": false
    },
    {
      "hash": null,
      "transactionType": "CALL",
      "contractName": "ERC1967Proxy",
      "contractAddress": "0x333837ec0d4f3d9b3df0216996a148b46ce3541b",
      "function": null,
      "arguments": null,
      "transaction": {
        "from": "0xb05a948b5c1b057b88d381bde3a375efea87ebad",
        "to": "0x333837ec0d4f3d9b3df0216996a148b46ce3541b",
        "gas": "0xd305",
        "value": "0x0",
        "input": "0x3659cfe6000000000000000000000000b3658344ea0b53e2674b35c3a7773eef6e0dd9f4",
        "nonce": "0xcd9",
        "chainId": "0x66eee"
      },
      "additionalContracts": [],
      "isFixedGasLimit": false
    },
    {
      "hash": null,
      "transactionType": "CALL",
      "contractName": null,
      "contractAddress": "0x5534fecacd5f84e22c0aba9ea9813ff594d37262",
      "function": "transferOwnership(address)",
      "arguments": [
        "0x333837ec0D4F3D9b3dF0216996a148B46ce3541b"
      ],
      "transaction": {
        "from": "0xb05a948b5c1b057b88d381bde3a375efea87ebad",
        "to": "0x5534fecacd5f84e22c0aba9ea9813ff594d37262",
        "gas": "0xef14",
        "value": "0x0",
        "input": "0xf2fde38b000000000000000000000000333837ec0d4f3d9b3df0216996a148b46ce3541b",
        "nonce": "0xcda",
        "chainId": "0x66eee"
      },
      "additionalContracts": [],
      "isFixedGasLimit": false
    },
    {
      "hash": null,
      "transactionType": "CALL",
      "contractName": null,
      "contractAddress": "0x32fe66622a4d4607241ac723e23fef487acdabb5",
      "function": "transferOwnership(address)",
      "arguments": [
        "0x333837ec0D4F3D9b3dF0216996a148B46ce3541b"
      ],
      "transaction": {
        "from": "0xb05a948b5c1b057b88d381bde3a375efea87ebad",
        "to": "0x32fe66622a4d4607241ac723e23fef487acdabb5",
        "gas": "0xef40",
        "value": "0x0",
        "input": "0xf2fde38b000000000000000000000000333837ec0d4f3d9b3df0216996a148b46ce3541b",
        "nonce": "0xcdb",
        "chainId": "0x66eee"
      },
      "additionalContracts": [],
      "isFixedGasLimit": false
    },
    {
      "hash": null,
      "transactionType": "CALL",
      "contractName": null,
      "contractAddress": "0x2689b1e4afcbfb393d9727fba2ab52930035ee85",
      "function": "transferOwnership(address)",
      "arguments": [
        "0x333837ec0D4F3D9b3dF0216996a148B46ce3541b"
      ],
      "transaction": {
        "from": "0xb05a948b5c1b057b88d381bde3a375efea87ebad",
        "to": "0x2689b1e4afcbfb393d9727fba2ab52930035ee85",
        "gas": "0xefb2",
        "value": "0x0",
        "input": "0xf2fde38b000000000000000000000000333837ec0d4f3d9b3df0216996a148b46ce3541b",
        "nonce": "0xcdc",
        "chainId": "0x66eee"
      },
      "additionalContracts": [],
      "isFixedGasLimit": false
    },
    {
      "hash": null,
      "transactionType": "CALL",
      "contractName": "ERC1967Proxy",
      "contractAddress": "0x56eebe0562742156fce122221fa0eeda316e1be4",
      "function": null,
      "arguments": null,
      "transaction": {
        "from": "0xb05a948b5c1b057b88d381bde3a375efea87ebad",
        "to": "0x56eebe0562742156fce122221fa0eeda316e1be4",
        "gas": "0xf4dc",
        "value": "0x0",
        "input": "0xf2fde38b000000000000000000000000333837ec0d4f3d9b3df0216996a148b46ce3541b",
        "nonce": "0xcdd",
        "chainId": "0x66eee"
      },
      "additionalContracts": [],
      "isFixedGasLimit": false
    },
    {
      "hash": null,
      "transactionType": "CALL",
      "contractName": "ERC1967Proxy",
      "contractAddress": "0x8ba06d3e65b57a1846fbf11dff9280eaec59812e",
      "function": null,
      "arguments": null,
      "transaction": {
        "from": "0xb05a948b5c1b057b88d381bde3a375efea87ebad",
        "to": "0x8ba06d3e65b57a1846fbf11dff9280eaec59812e",
        "gas": "0xf4dc",
        "value": "0x0",
        "input": "0xf2fde38b000000000000000000000000333837ec0d4f3d9b3df0216996a148b46ce3541b",
        "nonce": "0xcde",
        "chainId": "0x66eee"
      },
      "additionalContracts": [],
      "isFixedGasLimit": false
    },
    {
      "hash": null,
      "transactionType": "CALL",
      "contractName": null,
      "contractAddress": "0x59bd760d23ebe8f40906952052de48569ad6faac",
      "function": "transferOwnership(address)",
      "arguments": [
        "0x333837ec0D4F3D9b3dF0216996a148B46ce3541b"
      ],
      "transaction": {
        "from": "0xb05a948b5c1b057b88d381bde3a375efea87ebad",
        "to": "0x59bd760d23ebe8f40906952052de48569ad6faac",
        "gas": "0xf5d8",
        "value": "0x0",
        "input": "0xf2fde38b000000000000000000000000333837ec0d4f3d9b3df0216996a148b46ce3541b",
        "nonce": "0xcdf",
        "chainId": "0x66eee"
      },
      "additionalContracts": [],
      "isFixedGasLimit": false
    },
    {
      "hash": null,
      "transactionType": "CALL",
      "contractName": null,
      "contractAddress": "0x5dc78c00a5d39060a81ade81de5c3592899be1dd",
      "function": "transferOwnership(address)",
      "arguments": [
        "0x333837ec0D4F3D9b3dF0216996a148B46ce3541b"
      ],
      "transaction": {
        "from": "0xb05a948b5c1b057b88d381bde3a375efea87ebad",
        "to": "0x5dc78c00a5d39060a81ade81de5c3592899be1dd",
        "gas": "0xf5d8",
        "value": "0x0",
        "input": "0xf2fde38b000000000000000000000000333837ec0d4f3d9b3df0216996a148b46ce3541b",
        "nonce": "0xce0",
        "chainId": "0x66eee"
      },
      "additionalContracts": [],
      "isFixedGasLimit": false
    },
    {
      "hash": null,
      "transactionType": "CALL",
      "contractName": "ERC1967Proxy",
      "contractAddress": "0x6a7608ed70439c42e0802b4c81ef7eb5ba3b0d0b",
      "function": null,
      "arguments": null,
      "transaction": {
        "from": "0xb05a948b5c1b057b88d381bde3a375efea87ebad",
        "to": "0x6a7608ed70439c42e0802b4c81ef7eb5ba3b0d0b",
        "gas": "0xf5d8",
        "value": "0x0",
        "input": "0xf2fde38b000000000000000000000000333837ec0d4f3d9b3df0216996a148b46ce3541b",
        "nonce": "0xce1",
        "chainId": "0x66eee"
      },
      "additionalContracts": [],
      "isFixedGasLimit": false
    },
    {
      "hash": null,
      "transactionType": "CALL",
      "contractName": null,
      "contractAddress": "0x89c99895efb30a86c38b511d093f786a5a64d037",
      "function": "transferOwnership(address)",
      "arguments": [
        "0x333837ec0D4F3D9b3dF0216996a148B46ce3541b"
      ],
      "transaction": {
        "from": "0xb05a948b5c1b057b88d381bde3a375efea87ebad",
        "to": "0x89c99895efb30a86c38b511d093f786a5a64d037",
        "gas": "0xf5d8",
        "value": "0x0",
        "input": "0xf2fde38b000000000000000000000000333837ec0d4f3d9b3df0216996a148b46ce3541b",
        "nonce": "0xce2",
        "chainId": "0x66eee"
      },
      "additionalContracts": [],
      "isFixedGasLimit": false
    },
    {
      "hash": null,
      "transactionType": "CALL",
      "contractName": "ERC1967Proxy",
      "contractAddress": "0xb1d70992f85449807e23573cc27ea8c240d8a688",
      "function": null,
      "arguments": null,
      "transaction": {
        "from": "0xb05a948b5c1b057b88d381bde3a375efea87ebad",
        "to": "0xb1d70992f85449807e23573cc27ea8c240d8a688",
        "gas": "0xf5d8",
        "value": "0x0",
        "input": "0xf2fde38b000000000000000000000000333837ec0d4f3d9b3df0216996a148b46ce3541b",
        "nonce": "0xce3",
        "chainId": "0x66eee"
      },
      "additionalContracts": [],
      "isFixedGasLimit": false
    },
    {
      "hash": null,
      "transactionType": "CALL",
      "contractName": null,
      "contractAddress": "0xc1af6e7a17f1114a4ba13ba86271492aab0291ed",
      "function": "transferOwnership(address)",
      "arguments": [
        "0x333837ec0D4F3D9b3dF0216996a148B46ce3541b"
      ],
      "transaction": {
        "from": "0xb05a948b5c1b057b88d381bde3a375efea87ebad",
        "to": "0xc1af6e7a17f1114a4ba13ba86271492aab0291ed",
        "gas": "0xf5d8",
        "value": "0x0",
        "input": "0xf2fde38b000000000000000000000000333837ec0d4f3d9b3df0216996a148b46ce3541b",
        "nonce": "0xce4",
        "chainId": "0x66eee"
      },
      "additionalContracts": [],
      "isFixedGasLimit": false
    },
    {
      "hash": null,
      "transactionType": "CALL",
      "contractName": "ERC1967Proxy",
      "contractAddress": "0xe1fe0c77166350852cddbcf12ec4cb99e22694ed",
      "function": null,
      "arguments": null,
      "transaction": {
        "from": "0xb05a948b5c1b057b88d381bde3a375efea87ebad",
        "to": "0xe1fe0c77166350852cddbcf12ec4cb99e22694ed",
        "gas": "0xf5d8",
        "value": "0x0",
        "input": "0xf2fde38b000000000000000000000000333837ec0d4f3d9b3df0216996a148b46ce3541b",
        "nonce": "0xce5",
        "chainId": "0x66eee"
      },
      "additionalContracts": [],
      "isFixedGasLimit": false
    },
    {
      "hash": null,
      "transactionType": "CALL",
      "contractName": "ERC1967Proxy",
      "contractAddress": "0xe28de81057a4f5efae0a85eced25126de79990e0",
      "function": null,
      "arguments": null,
      "transaction": {
        "from": "0xb05a948b5c1b057b88d381bde3a375efea87ebad",
        "to": "0xe28de81057a4f5efae0a85eced25126de79990e0",
        "gas": "0xf5d8",
        "value": "0x0",
        "input": "0xf2fde38b000000000000000000000000333837ec0d4f3d9b3df0216996a148b46ce3541b",
        "nonce": "0xce6",
        "chainId": "0x66eee"
      },
      "additionalContracts": [],
      "isFixedGasLimit": false
    },
    {
      "hash": null,
      "transactionType": "CALL",
      "contractName": "ERC1967Proxy",
      "contractAddress": "0xf606cf11c1acd0685c4bef5dce92f4620ca49ef5",
      "function": null,
      "arguments": null,
      "transaction": {
        "from": "0xb05a948b5c1b057b88d381bde3a375efea87ebad",
        "to": "0xf606cf11c1acd0685c4bef5dce92f4620ca49ef5",
        "gas": "0xf5d8",
        "value": "0x0",
        "input": "0xf2fde38b000000000000000000000000333837ec0d4f3d9b3df0216996a148b46ce3541b",
        "nonce": "0xce7",
        "chainId": "0x66eee"
      },
      "additionalContracts": [],
      "isFixedGasLimit": false
    }
  ],
  "receipts": [],
  "libraries": [],
  "pending": [],
  "returns": {},
  "timestamp": 1732302101,
  "chain": 421614,
  "commit": "3f1d7091"
}