{
  "transactions": [
    {
      "hash": "0x2048d5be58f3e4f3fcfa25b044026e685b94ff9dc7cc043dd15a4548595bab49",
      "transactionType": "CREATE",
      "contractName": "ProxyOwner",
      "contractAddress": "0xdb3cf33d98ac2d11474e623d5ef4cc6a2b1f4603",
      "function": null,
      "arguments": null,
      "transaction": {
        "from": "0xb05a948b5c1b057b88d381bde3a375efea87ebad",
        "gas": "0x100eba",
        "value": "0x0",
        "input": "0x60a06040523060805234801561001457600080fd5b50608051610d1461004c6000396000818161018e015281816101d70152818161025f0152818161029f015261031b0152610d146000f3fe6080604052600436106100765760003560e01c80633659cfe61461007b5780634f1ef2861461009d57806352d1902d146100b0578063715018a6146100d857806379ba5097146100ed5780638da5cb5b14610102578063c4d66de814610124578063e30c397814610144578063f2fde38b14610164575b600080fd5b34801561008757600080fd5b5061009b610096366004610a71565b610184565b005b61009b6100ab366004610aa2565b610255565b3480156100bc57600080fd5b506100c561030e565b6040519081526020015b60405180910390f35b3480156100e457600080fd5b5061009b6103bc565b3480156100f957600080fd5b5061009b6103d0565b34801561010e57600080fd5b50610117610408565b6040516100cf9190610b63565b34801561013057600080fd5b5061009b61013f366004610a71565b610417565b34801561015057600080fd5b50606554610117906001600160a01b031681565b34801561017057600080fd5b5061009b61017f366004610a71565b610530565b6001600160a01b037f00000000000000000000000000000000000000000000000000000000000000001630036101d55760405162461bcd60e51b81526004016101cc90610b77565b60405180910390fd5b7f00000000000000000000000000000000000000000000000000000000000000006001600160a01b0316610207610596565b6001600160a01b03161461022d5760405162461bcd60e51b81526004016101cc90610bb1565b610236816105b2565b60408051600080825260208201909252610252918391906105ba565b50565b6001600160a01b037f000000000000000000000000000000000000000000000000000000000000000016300361029d5760405162461bcd60e51b81526004016101cc90610b77565b7f00000000000000000000000000000000000000000000000000000000000000006001600160a01b03166102cf610596565b6001600160a01b0316146102f55760405162461bcd60e51b81526004016101cc90610bb1565b6102fe826105b2565b61030a828260016105ba565b5050565b6000306001600160a01b037f000000000000000000000000000000000000000000000000000000000000000016146103a95760405162461bcd60e51b815260206004820152603860248201527f555550535570677261646561626c653a206d757374206e6f742062652063616c6044820152771b1959081d1a1c9bdd59da0819195b1959d85d1958d85b1b60421b60648201526084016101cc565b50600080516020610c9883398151915290565b6103c461072a565b6103ce6000610789565b565b60655433906001600160a01b031681146103ff578060405163118cdaa760e01b81526004016101cc9190610b63565b61025281610789565b6033546001600160a01b031690565b600054610100900460ff16158080156104375750600054600160ff909116105b806104585750610446306107a2565b158015610458575060005460ff166001145b6104bb5760405162461bcd60e51b815260206004820152602e60248201527f496e697469616c697a61626c653a20636f6e747261637420697320616c72656160448201526d191e481a5b9a5d1a585b1a5e995960921b60648201526084016101cc565b6000805460ff1916600117905580156104de576000805461ff0019166101001790555b6104e782610789565b801561030a576000805461ff0019169055604051600181527f7f26b83ff96e1f2b6a682f133852f6798a09c465da95921460cefb38474024989060200160405180910390a15050565b61053861072a565b606580546001600160a01b0319166001600160a01b03831690811790915561055e610408565b6001600160a01b03167f38d16b8cac22d99fc7c124b9cd0de2d3fa1faef420bfe791d8c362d765e2270060405160405180910390a350565b600080516020610c98833981519152546001600160a01b031690565b61025261072a565b7f4910fdfa16fed3260ed0e7147f7cc6da11a60208b5b9406d12a635614ffd91435460ff16156105f2576105ed836107b1565b505050565b826001600160a01b03166352d1902d6040518163ffffffff1660e01b8152600401602060405180830381865afa92505050801561064c575060408051601f3d908101601f1916820190925261064991810190610beb565b60015b6106af5760405162461bcd60e51b815260206004820152602e60248201527f45524331393637557067726164653a206e657720696d706c656d656e7461746960448201526d6f6e206973206e6f74205555505360901b60648201526084016101cc565b600080516020610c98833981519152811461071e5760405162461bcd60e51b815260206004820152602960248201527f45524331393637557067726164653a20756e737570706f727465642070726f786044820152681a58589b195555525160ba1b60648201526084016101cc565b506105ed83838361084b565b33610733610408565b6001600160a01b0316146103ce5760405162461bcd60e51b815260206004820181905260248201527f4f776e61626c653a2063616c6c6572206973206e6f7420746865206f776e657260448201526064016101cc565b606580546001600160a01b031916905561025281610876565b6001600160a01b03163b151590565b6107ba816107a2565b61081c5760405162461bcd60e51b815260206004820152602d60248201527f455243313936373a206e657720696d706c656d656e746174696f6e206973206e60448201526c1bdd08184818dbdb9d1c9858dd609a1b60648201526084016101cc565b600080516020610c9883398151915280546001600160a01b0319166001600160a01b0392909216919091179055565b610854836108c8565b6000825111806108615750805b156105ed576108708383610908565b50505050565b603380546001600160a01b038381166001600160a01b0319831681179093556040519116919082907f8be0079c531659141344cd1fd0a4f28419497f9722a3daafe3b4186f6b6457e090600090a35050565b6108d1816107b1565b6040516001600160a01b038216907fbc7cd75a20ee27fd9adebab32041f755214dbc6bffa90cc0225b39da2e5c2d3b90600090a250565b606061092d8383604051806060016040528060278152602001610cb860279139610934565b9392505050565b6060600080856001600160a01b0316856040516109519190610c28565b600060405180830381855af49150503d806000811461098c576040519150601f19603f3d011682016040523d82523d6000602084013e610991565b606091505b50915091506109a2868383876109ac565b9695505050505050565b60608315610a19578251600003610a12576109c6856107a2565b610a125760405162461bcd60e51b815260206004820152601d60248201527f416464726573733a2063616c6c20746f206e6f6e2d636f6e747261637400000060448201526064016101cc565b5081610a23565b610a238383610a2b565b949350505050565b815115610a3b5781518083602001fd5b8060405162461bcd60e51b81526004016101cc9190610c44565b80356001600160a01b0381168114610a6c57600080fd5b919050565b600060208284031215610a8357600080fd5b61092d82610a55565b634e487b7160e01b600052604160045260246000fd5b60008060408385031215610ab557600080fd5b610abe83610a55565b915060208301356001600160401b0380821115610ada57600080fd5b818501915085601f830112610aee57600080fd5b813581811115610b0057610b00610a8c565b604051601f8201601f19908116603f01168101908382118183101715610b2857610b28610a8c565b81604052828152886020848701011115610b4157600080fd5b8260208601602083013760006020848301015280955050505050509250929050565b6001600160a01b0391909116815260200190565b6020808252602c90820152600080516020610c7883398151915260408201526b19195b1959d85d1958d85b1b60a21b606082015260800190565b6020808252602c90820152600080516020610c7883398151915260408201526b6163746976652070726f787960a01b606082015260800190565b600060208284031215610bfd57600080fd5b5051919050565b60005b83811015610c1f578181015183820152602001610c07565b50506000910152565b60008251610c3a818460208701610c04565b9190910192915050565b6020815260008251806020840152610c63816040850160208701610c04565b601f01601f1916919091016040019291505056fe46756e6374696f6e206d7573742062652063616c6c6564207468726f75676820360894a13ba1a3210667c828492db98dca3e2076cc3735a920a3ca505d382bbc416464726573733a206c6f772d6c6576656c2064656c65676174652063616c6c206661696c6564a26469706673582212203c27a10238ea9dcd0ca927800014e70390632897533b43534b71a7b94403ac8964736f6c63430008130033",
        "nonce": "0xcb0",
        "chainId": "0x66eee"
      },
      "additionalContracts": [],
      "isFixedGasLimit": false
    },
    {
      "hash": "0xed760818a4358a0f440ddcab4a7a6a8ef792cd0c4caa2f13db448c81903fd2d1",
      "transactionType": "CALL",
      "contractName": null,
      "contractAddress": "0x333837ec0d4f3d9b3df0216996a148b46ce3541b",
      "function": "upgradeTo(address)",
      "arguments": [
        "0xDB3cF33d98ac2d11474e623d5Ef4cc6A2b1F4603"
      ],
      "transaction": {
        "from": "0xb05a948b5c1b057b88d381bde3a375efea87ebad",
        "to": "0x333837ec0d4f3d9b3df0216996a148b46ce3541b",
        "gas": "0xde71",
        "value": "0x0",
        "input": "0x3659cfe6000000000000000000000000db3cf33d98ac2d11474e623d5ef4cc6a2b1f4603",
        "nonce": "0xcb1",
        "chainId": "0x66eee"
      },
      "additionalContracts": [],
      "isFixedGasLimit": false
    },
    {
      "hash": "0x0d2427846761df41de9f108b97bfba8e780301cce1d838fbe07bb349a2cddf92",
      "transactionType": "CALL",
      "contractName": "ERC1967Proxy",
      "contractAddress": "0x5534fecacd5f84e22c0aba9ea9813ff594d37262",
      "function": null,
      "arguments": null,
      "transaction": {
        "from": "0xb05a948b5c1b057b88d381bde3a375efea87ebad",
        "to": "0x5534fecacd5f84e22c0aba9ea9813ff594d37262",
        "gas": "0xe1e2",
        "value": "0x0",
        "input": "0xf2fde38b000000000000000000000000333837ec0d4f3d9b3df0216996a148b46ce3541b",
        "nonce": "0xcb2",
        "chainId": "0x66eee"
      },
      "additionalContracts": [],
      "isFixedGasLimit": false
    },
    {
      "hash": "0x8f756eb5d094d7f5e096646ca600eceabe305673d6db30498ce07b1510266267",
      "transactionType": "CALL",
      "contractName": "ERC1967Proxy",
      "contractAddress": "0x32fe66622a4d4607241ac723e23fef487acdabb5",
      "function": null,
      "arguments": null,
      "transaction": {
        "from": "0xb05a948b5c1b057b88d381bde3a375efea87ebad",
        "to": "0x32fe66622a4d4607241ac723e23fef487acdabb5",
        "gas": "0xe20e",
        "value": "0x0",
        "input": "0xf2fde38b000000000000000000000000333837ec0d4f3d9b3df0216996a148b46ce3541b",
        "nonce": "0xcb3",
        "chainId": "0x66eee"
      },
      "additionalContracts": [],
      "isFixedGasLimit": false
    },
    {
      "hash": "0x4b013140af6b9ceb233a2f4a2f583105b6a1a1e6d4c23855c7353b25c432ac46",
      "transactionType": "CALL",
      "contractName": "ERC1967Proxy",
      "contractAddress": "0x2689b1e4afcbfb393d9727fba2ab52930035ee85",
      "function": null,
      "arguments": null,
      "transaction": {
        "from": "0xb05a948b5c1b057b88d381bde3a375efea87ebad",
        "to": "0x2689b1e4afcbfb393d9727fba2ab52930035ee85",
        "gas": "0xe27f",
        "value": "0x0",
        "input": "0xf2fde38b000000000000000000000000333837ec0d4f3d9b3df0216996a148b46ce3541b",
        "nonce": "0xcb4",
        "chainId": "0x66eee"
      },
      "additionalContracts": [],
      "isFixedGasLimit": false
    },
    {
      "hash": "0x8d134fbaab0c87cf3c3eb8c5888e5b613f8556bbb541fb2eb1852a2ca7213f94",
      "transactionType": "CALL",
      "contractName": "ERC1967Proxy",
      "contractAddress": "0x56eebe0562742156fce122221fa0eeda316e1be4",
      "function": null,
      "arguments": null,
      "transaction": {
        "from": "0xb05a948b5c1b057b88d381bde3a375efea87ebad",
        "to": "0x56eebe0562742156fce122221fa0eeda316e1be4",
        "gas": "0xe7aa",
        "value": "0x0",
        "input": "0xf2fde38b000000000000000000000000333837ec0d4f3d9b3df0216996a148b46ce3541b",
        "nonce": "0xcb5",
        "chainId": "0x66eee"
      },
      "additionalContracts": [],
      "isFixedGasLimit": false
    },
    {
      "hash": "0xcb1bfaacf0ffbb73c40378f279b1b472bdb4b673ee42d65863038cfbd5a60836",
      "transactionType": "CALL",
      "contractName": "ERC1967Proxy",
      "contractAddress": "0x8ba06d3e65b57a1846fbf11dff9280eaec59812e",
      "function": null,
      "arguments": null,
      "transaction": {
        "from": "0xb05a948b5c1b057b88d381bde3a375efea87ebad",
        "to": "0x8ba06d3e65b57a1846fbf11dff9280eaec59812e",
        "gas": "0xe7aa",
        "value": "0x0",
        "input": "0xf2fde38b000000000000000000000000333837ec0d4f3d9b3df0216996a148b46ce3541b",
        "nonce": "0xcb6",
        "chainId": "0x66eee"
      },
      "additionalContracts": [],
      "isFixedGasLimit": false
    },
    {
      "hash": "0xe7e46dfdf185df302ba7c68264ece89417b4a7fd65f5c251100c7c8280be2911",
      "transactionType": "CALL",
      "contractName": "ERC1967Proxy",
      "contractAddress": "0x59bd760d23ebe8f40906952052de48569ad6faac",
      "function": null,
      "arguments": null,
      "transaction": {
        "from": "0xb05a948b5c1b057b88d381bde3a375efea87ebad",
        "to": "0x59bd760d23ebe8f40906952052de48569ad6faac",
        "gas": "0xe8a7",
        "value": "0x0",
        "input": "0xf2fde38b000000000000000000000000333837ec0d4f3d9b3df0216996a148b46ce3541b",
        "nonce": "0xcb7",
        "chainId": "0x66eee"
      },
      "additionalContracts": [],
      "isFixedGasLimit": false
    },
    {
      "hash": "0x932f01e8f7c86648508bb08cf16cefd1ec3d79a7ec54a4c206ed0af3ad366d7c",
      "transactionType": "CALL",
      "contractName": "ERC1967Proxy",
      "contractAddress": "0x5dc78c00a5d39060a81ade81de5c3592899be1dd",
      "function": null,
      "arguments": null,
      "transaction": {
        "from": "0xb05a948b5c1b057b88d381bde3a375efea87ebad",
        "to": "0x5dc78c00a5d39060a81ade81de5c3592899be1dd",
        "gas": "0xe8a7",
        "value": "0x0",
        "input": "0xf2fde38b000000000000000000000000333837ec0d4f3d9b3df0216996a148b46ce3541b",
        "nonce": "0xcb8",
        "chainId": "0x66eee"
      },
      "additionalContracts": [],
      "isFixedGasLimit": false
    },
    {
      "hash": "0x93cb5627b043f6f3fa7cb610d0d9d68d44190b6c3b918608f07fb76174f2e04e",
      "transactionType": "CALL",
      "contractName": "ERC1967Proxy",
      "contractAddress": "0x6a7608ed70439c42e0802b4c81ef7eb5ba3b0d0b",
      "function": null,
      "arguments": null,
      "transaction": {
        "from": "0xb05a948b5c1b057b88d381bde3a375efea87ebad",
        "to": "0x6a7608ed70439c42e0802b4c81ef7eb5ba3b0d0b",
        "gas": "0xe8a7",
        "value": "0x0",
        "input": "0xf2fde38b000000000000000000000000333837ec0d4f3d9b3df0216996a148b46ce3541b",
        "nonce": "0xcb9",
        "chainId": "0x66eee"
      },
      "additionalContracts": [],
      "isFixedGasLimit": false
    },
    {
      "hash": "0xa90ee0fb5224abc11d491581b4700c248ea3fbbb837429c3a0552797d14d93f9",
      "transactionType": "CALL",
      "contractName": "ERC1967Proxy",
      "contractAddress": "0x89c99895efb30a86c38b511d093f786a5a64d037",
      "function": null,
      "arguments": null,
      "transaction": {
        "from": "0xb05a948b5c1b057b88d381bde3a375efea87ebad",
        "to": "0x89c99895efb30a86c38b511d093f786a5a64d037",
        "gas": "0xe8a7",
        "value": "0x0",
        "input": "0xf2fde38b000000000000000000000000333837ec0d4f3d9b3df0216996a148b46ce3541b",
        "nonce": "0xcba",
        "chainId": "0x66eee"
      },
      "additionalContracts": [],
      "isFixedGasLimit": false
    },
    {
      "hash": "0xe395b9570b50a4f27139854ca96f5826f2231397005393eb4fb5d95e851ac10c",
      "transactionType": "CALL",
      "contractName": "ERC1967Proxy",
      "contractAddress": "0xb1d70992f85449807e23573cc27ea8c240d8a688",
      "function": null,
      "arguments": null,
      "transaction": {
        "from": "0xb05a948b5c1b057b88d381bde3a375efea87ebad",
        "to": "0xb1d70992f85449807e23573cc27ea8c240d8a688",
        "gas": "0xe8a7",
        "value": "0x0",
        "input": "0xf2fde38b000000000000000000000000333837ec0d4f3d9b3df0216996a148b46ce3541b",
        "nonce": "0xcbb",
        "chainId": "0x66eee"
      },
      "additionalContracts": [],
      "isFixedGasLimit": false
    },
    {
      "hash": "0xe493b4ce8f8254f1882ba845b33527575f6ecf22853274c6336b2d592894d8bd",
      "transactionType": "CALL",
      "contractName": "ERC1967Proxy",
      "contractAddress": "0xc1af6e7a17f1114a4ba13ba86271492aab0291ed",
      "function": null,
      "arguments": null,
      "transaction": {
        "from": "0xb05a948b5c1b057b88d381bde3a375efea87ebad",
        "to": "0xc1af6e7a17f1114a4ba13ba86271492aab0291ed",
        "gas": "0xe8a7",
        "value": "0x0",
        "input": "0xf2fde38b000000000000000000000000333837ec0d4f3d9b3df0216996a148b46ce3541b",
        "nonce": "0xcbc",
        "chainId": "0x66eee"
      },
      "additionalContracts": [],
      "isFixedGasLimit": false
    },
    {
      "hash": "0x03001767d64ba3e0ee63b440c4a09f53068aeb5a6bc9a8e1c17c8e2d2027a928",
      "transactionType": "CALL",
      "contractName": "ERC1967Proxy",
      "contractAddress": "0xe1fe0c77166350852cddbcf12ec4cb99e22694ed",
      "function": null,
      "arguments": null,
      "transaction": {
        "from": "0xb05a948b5c1b057b88d381bde3a375efea87ebad",
        "to": "0xe1fe0c77166350852cddbcf12ec4cb99e22694ed",
        "gas": "0xe8a7",
        "value": "0x0",
        "input": "0xf2fde38b000000000000000000000000333837ec0d4f3d9b3df0216996a148b46ce3541b",
        "nonce": "0xcbd",
        "chainId": "0x66eee"
      },
      "additionalContracts": [],
      "isFixedGasLimit": false
    },
    {
      "hash": "0x37ac2f27044eca20c025eef3ab71db1fd2e644b15f9377e0a8737cd86e614f4b",
      "transactionType": "CALL",
      "contractName": "ERC1967Proxy",
      "contractAddress": "0xe28de81057a4f5efae0a85eced25126de79990e0",
      "function": null,
      "arguments": null,
      "transaction": {
        "from": "0xb05a948b5c1b057b88d381bde3a375efea87ebad",
        "to": "0xe28de81057a4f5efae0a85eced25126de79990e0",
        "gas": "0xe8a7",
        "value": "0x0",
        "input": "0xf2fde38b000000000000000000000000333837ec0d4f3d9b3df0216996a148b46ce3541b",
        "nonce": "0xcbe",
        "chainId": "0x66eee"
      },
      "additionalContracts": [],
      "isFixedGasLimit": false
    },
    {
      "hash": "0xc786d3d1e9a2be2e6177e493c3da2c6ade596dfe19bcc2f2b7eb0d0da85b6142",
      "transactionType": "CALL",
      "contractName": "ERC1967Proxy",
      "contractAddress": "0xf606cf11c1acd0685c4bef5dce92f4620ca49ef5",
      "function": null,
      "arguments": null,
      "transaction": {
        "from": "0xb05a948b5c1b057b88d381bde3a375efea87ebad",
        "to": "0xf606cf11c1acd0685c4bef5dce92f4620ca49ef5",
        "gas": "0xe8a7",
        "value": "0x0",
        "input": "0xf2fde38b000000000000000000000000333837ec0d4f3d9b3df0216996a148b46ce3541b",
        "nonce": "0xcbf",
        "chainId": "0x66eee"
      },
      "additionalContracts": [],
      "isFixedGasLimit": false
    }
  ],
  "receipts": [
    {
      "status": "0x1",
      "cumulativeGasUsed": "0xc3173",
      "logs": [],
      "logsBloom": "0x00000000000000000000000000000000000000000000000000000000000000000000000000000000000000000000000000000000000000000000000000000000000000000000000000000000000000000000000000000000000000000000000000000000000000000000000000000000000000000000000000000000000000000000000000000000000000000000000000000000000000000000000000000000000000000000000000000000000000000000000000000000000000000000000000000000000000000000000000000000000000000000000000000000000000000000000000000000000000000000000000000000000000000000000000000000",
      "type": "0x2",
      "transactionHash": "0x2048d5be58f3e4f3fcfa25b044026e685b94ff9dc7cc043dd15a4548595bab49",
      "transactionIndex": "0x1",
      "blockHash": "0x6d0fe7d2b5c5fc21fcd018c7d5857f5678731b883db7494cf94e4b734d9ca723",
      "blockNumber": "0x5e78b25",
      "gasUsed": "0xc3173",
      "effectiveGasPrice": "0x5f5e100",
      "from": "0xb05a948b5c1b057b88d381bde3a375efea87ebad",
      "to": null,
      "contractAddress": "0xdb3cf33d98ac2d11474e623d5ef4cc6a2b1f4603",
      "gasUsedForL1": "0x5c99",
      "l1BlockNumber": "0x6c9d1d"
    },
    {
      "status": "0x1",
      "cumulativeGasUsed": "0x28779",
      "logs": [
        {
          "address": "0x333837ec0d4f3d9b3df0216996a148b46ce3541b",
          "topics": [
            "0xbc7cd75a20ee27fd9adebab32041f755214dbc6bffa90cc0225b39da2e5c2d3b",
            "0x000000000000000000000000db3cf33d98ac2d11474e623d5ef4cc6a2b1f4603"
          ],
          "data": "0x",
          "blockHash": "0x0fd2bb28c205f3d431cc615bac0af4b125b76195ac1a02af1071fcadc2447520",
          "blockNumber": "0x5e78b27",
          "transactionHash": "0xed760818a4358a0f440ddcab4a7a6a8ef792cd0c4caa2f13db448c81903fd2d1",
          "transactionIndex": "0x3",
          "logIndex": "0x2",
          "removed": false
        }
      ],
      "logsBloom": "0x00000000000000000000000000000000400000000000000000000000000000000080000000000000000000000000000000000000000000000000000000000000000000000000000000000000000002000000000000000000000000000000000000000000000000000000000000000000000000000000002000000000000000000000000000000000000000000000000000000000000080000000000000000000020000000000000000000000000000000000000000000000000000000000000200000020000000000000000000000000200000000000000000000000000000000000000000000000000000000000000000000000000000000000000000000000",
      "type": "0x2",
      "transactionHash": "0xed760818a4358a0f440ddcab4a7a6a8ef792cd0c4caa2f13db448c81903fd2d1",
      "transactionIndex": "0x3",
      "blockHash": "0x0fd2bb28c205f3d431cc615bac0af4b125b76195ac1a02af1071fcadc2447520",
      "blockNumber": "0x5e78b27",
      "gasUsed": "0x9e32",
      "effectiveGasPrice": "0x5f5e100",
      "from": "0xb05a948b5c1b057b88d381bde3a375efea87ebad",
      "to": "0x333837ec0d4f3d9b3df0216996a148b46ce3541b",
      "contractAddress": null,
      "gasUsedForL1": "0x619",
      "l1BlockNumber": "0x6c9d1d"
    },
    {
      "status": "0x1",
      "cumulativeGasUsed": "0x1c767",
      "logs": [
        {
          "address": "0x5534fecacd5f84e22c0aba9ea9813ff594d37262",
          "topics": [
            "0x8be0079c531659141344cd1fd0a4f28419497f9722a3daafe3b4186f6b6457e0",
            "0x000000000000000000000000333837ec0d4f3d9b3df0216996a148b46ce3541b",
            "0x000000000000000000000000333837ec0d4f3d9b3df0216996a148b46ce3541b"
          ],
          "data": "0x",
          "blockHash": "0xb389962fa55e8fde55648dbe423aa24d55ae3fd6e9825f6e68a704c55cd913c1",
          "blockNumber": "0x5e78b2a",
          "transactionHash": "0x0d2427846761df41de9f108b97bfba8e780301cce1d838fbe07bb349a2cddf92",
          "transactionIndex": "0x2",
          "logIndex": "0x1",
          "removed": false
        }
      ],
      "logsBloom": "0x00000000000000000000000000000000000000000000000000800000000000000000000000000000000000000000000000000000000000000000000000000000000000000000000000000000000000000001800000000000000000000000000000000000000000000000000000000000000000000000000000040000000000400000000000000000000000000000000000000000000000000100000000000000000000000000000000000000000000002000000000000000000000000000000000000000000000000000000000000000000000008000000000000000000000000000000000001000000000000000000000000000000000000000000000000000",
      "type": "0x2",
      "transactionHash": "0x0d2427846761df41de9f108b97bfba8e780301cce1d838fbe07bb349a2cddf92",
      "transactionIndex": "0x2",
      "blockHash": "0xb389962fa55e8fde55648dbe423aa24d55ae3fd6e9825f6e68a704c55cd913c1",
      "blockNumber": "0x5e78b2a",
      "gasUsed": "0xa799",
      "effectiveGasPrice": "0x5f5e100",
      "from": "0xb05a948b5c1b057b88d381bde3a375efea87ebad",
      "to": "0x5534fecacd5f84e22c0aba9ea9813ff594d37262",
      "contractAddress": null,
      "gasUsedForL1": "0x619",
      "l1BlockNumber": "0x6c9d1d"
    },
    {
      "status": "0x1",
      "cumulativeGasUsed": "0x18b4a",
      "logs": [
        {
          "address": "0x32fe66622a4d4607241ac723e23fef487acdabb5",
          "topics": [
            "0x8be0079c531659141344cd1fd0a4f28419497f9722a3daafe3b4186f6b6457e0",
            "0x000000000000000000000000333837ec0d4f3d9b3df0216996a148b46ce3541b",
            "0x000000000000000000000000333837ec0d4f3d9b3df0216996a148b46ce3541b"
          ],
          "data": "0x",
          "blockHash": "0x1a5c05a001e57f272cc26afd285bd9a66eb1f8bf503c820c9e2578e45d5f23ef",
          "blockNumber": "0x5e78b2c",
          "transactionHash": "0x8f756eb5d094d7f5e096646ca600eceabe305673d6db30498ce07b1510266267",
          "transactionIndex": "0x2",
          "logIndex": "0x1",
          "removed": false
        }
      ],
      "logsBloom": "0x00000000000000000000000000000000000000000000000000800000000000000000000000004000000000000000000000000000000000000000000000000000000000000000000000000000000000000001800000000000000000000000000000000000000000000000000000000000000000000000000000000000000000400000000000000000000000000000000000000000000000000100000000000000000000000000000000000000000000000000000000000000000000000000000000000000000000000000000000000000000000009000000000000000000000000000000000000000000000000000000000020000000000000000000000000000",
      "type": "0x2",
      "transactionHash": "0x8f756eb5d094d7f5e096646ca600eceabe305673d6db30498ce07b1510266267",
      "transactionIndex": "0x2",
      "blockHash": "0x1a5c05a001e57f272cc26afd285bd9a66eb1f8bf503c820c9e2578e45d5f23ef",
      "blockNumber": "0x5e78b2c",
      "gasUsed": "0xa7bb",
      "effectiveGasPrice": "0x5f5e100",
      "from": "0xb05a948b5c1b057b88d381bde3a375efea87ebad",
      "to": "0x32fe66622a4d4607241ac723e23fef487acdabb5",
      "contractAddress": null,
      "gasUsedForL1": "0x619",
      "l1BlockNumber": "0x6c9d1d"
    },
    {
      "status": "0x1",
      "cumulativeGasUsed": "0xa812",
      "logs": [
        {
          "address": "0x2689b1e4afcbfb393d9727fba2ab52930035ee85",
          "topics": [
            "0x8be0079c531659141344cd1fd0a4f28419497f9722a3daafe3b4186f6b6457e0",
            "0x000000000000000000000000333837ec0d4f3d9b3df0216996a148b46ce3541b",
            "0x000000000000000000000000333837ec0d4f3d9b3df0216996a148b46ce3541b"
          ],
          "data": "0x",
          "blockHash": "0xb50d1b129b94ebd51d1f191c917266c21f1b955150214abd1513dad612c81cfb",
          "blockNumber": "0x5e78b2e",
          "transactionHash": "0x4b013140af6b9ceb233a2f4a2f583105b6a1a1e6d4c23855c7353b25c432ac46",
          "transactionIndex": "0x1",
          "logIndex": "0x0",
          "removed": false
        }
      ],
      "logsBloom": "0x00000000000000000000000000000000000000000000000000800000400000000000000000000000000100000000000000000000000000000000000000000000000000000000000000000000000000000001800000000000000000000000000000000000000000000000000000000000000000000000000000000000000000400000000000000000000000000000000000000000000000000100800000000000000000000000000000000000000000000000000000000000000000000000000000000000000000000000000000000000000000008000000000000000000000000000000000000000000000000000000000000000000000000000000000000000",
      "type": "0x2",
      "transactionHash": "0x4b013140af6b9ceb233a2f4a2f583105b6a1a1e6d4c23855c7353b25c432ac46",
      "transactionIndex": "0x1",
      "blockHash": "0xb50d1b129b94ebd51d1f191c917266c21f1b955150214abd1513dad612c81cfb",
      "blockNumber": "0x5e78b2e",
      "gasUsed": "0xa812",
      "effectiveGasPrice": "0x5f5e100",
      "from": "0xb05a948b5c1b057b88d381bde3a375efea87ebad",
      "to": "0x2689b1e4afcbfb393d9727fba2ab52930035ee85",
      "contractAddress": null,
      "gasUsedForL1": "0x619",
      "l1BlockNumber": "0x6c9d1d"
    },
    {
      "status": "0x1",
      "cumulativeGasUsed": "0x2f1c6",
      "logs": [
        {
          "address": "0x56eebe0562742156fce122221fa0eeda316e1be4",
          "topics": [
            "0x8be0079c531659141344cd1fd0a4f28419497f9722a3daafe3b4186f6b6457e0",
            "0x000000000000000000000000333837ec0d4f3d9b3df0216996a148b46ce3541b",
            "0x000000000000000000000000333837ec0d4f3d9b3df0216996a148b46ce3541b"
          ],
          "data": "0x",
          "blockHash": "0xd0fd29ebafdbc454d370cef66bf6f8861a066a3dec4a2fc80a2bdd819850c870",
          "blockNumber": "0x5e78b31",
          "transactionHash": "0x8d134fbaab0c87cf3c3eb8c5888e5b613f8556bbb541fb2eb1852a2ca7213f94",
          "transactionIndex": "0x2",
          "logIndex": "0x1",
          "removed": false
        }
      ],
      "logsBloom": "0x00000000000000000000000000000000000000000000000000800000000000000000000000000000000000000000000000000000000000000000000000000000000000000000000000000000000000000001801000000000000000000000000000000000000000000000000000000000000000000000000000000000000000400000000000000000000000000000000000000000000000000100000000000000000000000000000000000000000000000000000000000000000000000000000001000000000000000000000000000000000000208000000000000000000000000000000000000000000000000000000000000000000000000000000000000000",
      "type": "0x2",
      "transactionHash": "0x8d134fbaab0c87cf3c3eb8c5888e5b613f8556bbb541fb2eb1852a2ca7213f94",
      "transactionIndex": "0x2",
      "blockHash": "0xd0fd29ebafdbc454d370cef66bf6f8861a066a3dec4a2fc80a2bdd819850c870",
      "blockNumber": "0x5e78b31",
      "gasUsed": "0xac05",
      "effectiveGasPrice": "0x5f5e100",
      "from": "0xb05a948b5c1b057b88d381bde3a375efea87ebad",
      "to": "0x56eebe0562742156fce122221fa0eeda316e1be4",
      "contractAddress": null,
      "gasUsedForL1": "0x619",
      "l1BlockNumber": "0x6c9d1f"
    },
    {
      "status": "0x1",
      "cumulativeGasUsed": "0x23933",
      "logs": [
        {
          "address": "0x8ba06d3e65b57a1846fbf11dff9280eaec59812e",
          "topics": [
            "0x8be0079c531659141344cd1fd0a4f28419497f9722a3daafe3b4186f6b6457e0",
            "0x000000000000000000000000333837ec0d4f3d9b3df0216996a148b46ce3541b",
            "0x000000000000000000000000333837ec0d4f3d9b3df0216996a148b46ce3541b"
          ],
          "data": "0x",
          "blockHash": "0x7f03af3c60e0c8d61ca799b0ca72a0daf9da235c3f5191f748f1f8e0e47b466d",
          "blockNumber": "0x5e78b33",
          "transactionHash": "0xcb1bfaacf0ffbb73c40378f279b1b472bdb4b673ee42d65863038cfbd5a60836",
          "transactionIndex": "0x4",
          "logIndex": "0x1",
          "removed": false
        }
      ],
      "logsBloom": "0x00000000000000000000000000000000000000000000000000800000000000000000000000000000000000000000000000000000000000000000000000000000000000000000000000000000000000000001800000000000000000000000020000000000000000000000000000000000000000000000000000000000000004400000000000000000000000000000000000000000000000000100000000000000000000000000000000000000000000000000000000000000000000000000000000000000000000000000000000000000000000008000000000000000000000000000000000000000000000000000000000000000000000002000000000000000",
      "type": "0x2",
      "transactionHash": "0xcb1bfaacf0ffbb73c40378f279b1b472bdb4b673ee42d65863038cfbd5a60836",
      "transactionIndex": "0x4",
      "blockHash": "0x7f03af3c60e0c8d61ca799b0ca72a0daf9da235c3f5191f748f1f8e0e47b466d",
      "blockNumber": "0x5e78b33",
      "gasUsed": "0xac05",
      "effectiveGasPrice": "0x5f5e100",
      "from": "0xb05a948b5c1b057b88d381bde3a375efea87ebad",
      "to": "0x8ba06d3e65b57a1846fbf11dff9280eaec59812e",
      "contractAddress": null,
      "gasUsedForL1": "0x619",
      "l1BlockNumber": "0x6c9d1f"
    },
    {
      "status": "0x1",
      "cumulativeGasUsed": "0xacc6",
      "logs": [
        {
          "address": "0x59bd760d23ebe8f40906952052de48569ad6faac",
          "topics": [
            "0x8be0079c531659141344cd1fd0a4f28419497f9722a3daafe3b4186f6b6457e0",
            "0x000000000000000000000000333837ec0d4f3d9b3df0216996a148b46ce3541b",
            "0x000000000000000000000000333837ec0d4f3d9b3df0216996a148b46ce3541b"
          ],
          "data": "0x",
          "blockHash": "0x8928c39e7ec1a5ac6d991909778a19b9a7d8986dd11000f8ecc71602c17a7584",
          "blockNumber": "0x5e78b36",
          "transactionHash": "0xe7e46dfdf185df302ba7c68264ece89417b4a7fd65f5c251100c7c8280be2911",
          "transactionIndex": "0x1",
          "logIndex": "0x0",
          "removed": false
        }
      ],
      "logsBloom": "0x00000000000000000000000000000000000000000000000000800000000000008000000000000000000000000000000000000000000000000000000000000000000000000000000000000000000000000001800000000000000000100000000000000000000000000000000000000000000000000000000000000000000000400000000000000000000000000000000000000000000000000100000000000000000000000000000000020000000000000000000000000000000000000000000000000000000000000000000000000000000000008000000000000000000000000000000000000000000000000000000000000000000000000000000000000000",
      "type": "0x2",
      "transactionHash": "0xe7e46dfdf185df302ba7c68264ece89417b4a7fd65f5c251100c7c8280be2911",
      "transactionIndex": "0x1",
      "blockHash": "0x8928c39e7ec1a5ac6d991909778a19b9a7d8986dd11000f8ecc71602c17a7584",
      "blockNumber": "0x5e78b36",
      "gasUsed": "0xacc6",
      "effectiveGasPrice": "0x5f5e100",
      "from": "0xb05a948b5c1b057b88d381bde3a375efea87ebad",
      "to": "0x59bd760d23ebe8f40906952052de48569ad6faac",
      "contractAddress": null,
      "gasUsedForL1": "0x619",
      "l1BlockNumber": "0x6c9d1f"
    },
    {
      "status": "0x1",
      "cumulativeGasUsed": "0x5f822",
      "logs": [
        {
          "address": "0x5dc78c00a5d39060a81ade81de5c3592899be1dd",
          "topics": [
            "0x8be0079c531659141344cd1fd0a4f28419497f9722a3daafe3b4186f6b6457e0",
            "0x000000000000000000000000333837ec0d4f3d9b3df0216996a148b46ce3541b",
            "0x000000000000000000000000333837ec0d4f3d9b3df0216996a148b46ce3541b"
          ],
          "data": "0x",
          "blockHash": "0xa1d7ccfbe6dfc2f615de52364631f193956051176a4c2d678d942765fd7e6ee5",
          "blockNumber": "0x5e78b38",
          "transactionHash": "0x932f01e8f7c86648508bb08cf16cefd1ec3d79a7ec54a4c206ed0af3ad366d7c",
          "transactionIndex": "0x2",
          "logIndex": "0x8",
          "removed": false
        }
      ],
      "logsBloom": "0x01000000000000000000000000000000000000000000000000800000000000000000000000000000000000000000000000000000000000000000000000000000000000000000000000000000000000000001800000000000000000000000000000000000000000000000000000000000000000000000000000000000000000400000000000000000000000000000000000000000000000000100000000000000000000000000000000000000000000000000000000000000000020000000000000000000000000000000000000000000000000008000000000000000000000000000000000000000000000000000000000000000000000000001000000000000",
      "type": "0x2",
      "transactionHash": "0x932f01e8f7c86648508bb08cf16cefd1ec3d79a7ec54a4c206ed0af3ad366d7c",
      "transactionIndex": "0x2",
      "blockHash": "0xa1d7ccfbe6dfc2f615de52364631f193956051176a4c2d678d942765fd7e6ee5",
      "blockNumber": "0x5e78b38",
      "gasUsed": "0xacc6",
      "effectiveGasPrice": "0x5f5e100",
      "from": "0xb05a948b5c1b057b88d381bde3a375efea87ebad",
      "to": "0x5dc78c00a5d39060a81ade81de5c3592899be1dd",
      "contractAddress": null,
      "gasUsedForL1": "0x619",
      "l1BlockNumber": "0x6c9d1f"
    },
    {
      "status": "0x1",
      "cumulativeGasUsed": "0x18c60",
      "logs": [
        {
          "address": "0x6a7608ed70439c42e0802b4c81ef7eb5ba3b0d0b",
          "topics": [
            "0x8be0079c531659141344cd1fd0a4f28419497f9722a3daafe3b4186f6b6457e0",
            "0x000000000000000000000000333837ec0d4f3d9b3df0216996a148b46ce3541b",
            "0x000000000000000000000000333837ec0d4f3d9b3df0216996a148b46ce3541b"
          ],
          "data": "0x",
          "blockHash": "0xd46f3be960cc2db767c42b1131683a5bc75b0ed796d7384e0b11cb8a4ebc75d0",
          "blockNumber": "0x5e78b3b",
          "transactionHash": "0x93cb5627b043f6f3fa7cb610d0d9d68d44190b6c3b918608f07fb76174f2e04e",
          "transactionIndex": "0x2",
          "logIndex": "0x1",
          "removed": false
        }
      ],
      "logsBloom": "0x00000000000000000000020000000000000000000000000000a00000000000000000000000000000000000000400000000000000000000000000000000000000000000000000000000000000000000000001800000000000000000000000000000000000000000000000000000000000000000000000000000000000000000400000000000000000000000000000000000000000000000000100000000000000000000000000000000000000000000000000000000000000000000000000000000000000000000000000000000000000000000008000000000000000000000000000000000000000000000000000000000000000000000000000000000000000",
      "type": "0x2",
      "transactionHash": "0x93cb5627b043f6f3fa7cb610d0d9d68d44190b6c3b918608f07fb76174f2e04e",
      "transactionIndex": "0x2",
      "blockHash": "0xd46f3be960cc2db767c42b1131683a5bc75b0ed796d7384e0b11cb8a4ebc75d0",
      "blockNumber": "0x5e78b3b",
      "gasUsed": "0xacc6",
      "effectiveGasPrice": "0x5f5e100",
      "from": "0xb05a948b5c1b057b88d381bde3a375efea87ebad",
      "to": "0x6a7608ed70439c42e0802b4c81ef7eb5ba3b0d0b",
      "contractAddress": null,
      "gasUsedForL1": "0x619",
      "l1BlockNumber": "0x6c9d1f"
    },
    {
      "status": "0x1",
      "cumulativeGasUsed": "0xacc6",
      "logs": [
        {
          "address": "0x89c99895efb30a86c38b511d093f786a5a64d037",
          "topics": [
            "0x8be0079c531659141344cd1fd0a4f28419497f9722a3daafe3b4186f6b6457e0",
            "0x000000000000000000000000333837ec0d4f3d9b3df0216996a148b46ce3541b",
            "0x000000000000000000000000333837ec0d4f3d9b3df0216996a148b46ce3541b"
          ],
          "data": "0x",
          "blockHash": "0xde8b8498575d0cf72879ab95e41680060ee94cf194e3790a2b033581bbb25f42",
          "blockNumber": "0x5e78b3d",
          "transactionHash": "0xa90ee0fb5224abc11d491581b4700c248ea3fbbb837429c3a0552797d14d93f9",
          "transactionIndex": "0x1",
          "logIndex": "0x0",
          "removed": false
        }
      ],
      "logsBloom": "0x00000000000000000000000000000000000000000000000000800000000000000000000000000000000000000000000000000000000000000000000000000000000000000000000000000000000000000001800000000000020000000000000000000000000000000000000000000000000000020000000000000000000000400000000000000000000000000000000000000000000000000100000000000000000000000000000000000000000000000000000000000000000000000000000000000000000000010000000000000000000000008000000000000000000000000000000000000000000000000000000000000000000000000000000000000000",
      "type": "0x2",
      "transactionHash": "0xa90ee0fb5224abc11d491581b4700c248ea3fbbb837429c3a0552797d14d93f9",
      "transactionIndex": "0x1",
      "blockHash": "0xde8b8498575d0cf72879ab95e41680060ee94cf194e3790a2b033581bbb25f42",
      "blockNumber": "0x5e78b3d",
      "gasUsed": "0xacc6",
      "effectiveGasPrice": "0x5f5e100",
      "from": "0xb05a948b5c1b057b88d381bde3a375efea87ebad",
      "to": "0x89c99895efb30a86c38b511d093f786a5a64d037",
      "contractAddress": null,
      "gasUsedForL1": "0x619",
      "l1BlockNumber": "0x6c9d1f"
    },
    {
      "status": "0x1",
      "cumulativeGasUsed": "0xacc6",
      "logs": [
        {
          "address": "0xb1d70992f85449807e23573cc27ea8c240d8a688",
          "topics": [
            "0x8be0079c531659141344cd1fd0a4f28419497f9722a3daafe3b4186f6b6457e0",
            "0x000000000000000000000000333837ec0d4f3d9b3df0216996a148b46ce3541b",
            "0x000000000000000000000000333837ec0d4f3d9b3df0216996a148b46ce3541b"
          ],
          "data": "0x",
          "blockHash": "0x3a8b8e8aa80e39515da0ab517e914286f260cf0c7eb398b8a657572cc3299710",
          "blockNumber": "0x5e78b3e",
          "transactionHash": "0xe395b9570b50a4f27139854ca96f5826f2231397005393eb4fb5d95e851ac10c",
          "transactionIndex": "0x1",
          "logIndex": "0x0",
          "removed": false
        }
      ],
      "logsBloom": "0x00000000000000080000000000000000000000000000000000800000000000000000000000000000000000000000000000000000000000000000000000000000000000000000000000000000000000000001800000000000000000000000000000000000000000000000040000000000000000000000000000000000000000400000000000000000000000000000000000000000000000000100000000000000000000000000000000000000000000000000000000000000000000000000000000000000000000000000000000000000000000008000000000000000000000000000000000000200000000000000000000000000000000000000000000000000",
      "type": "0x2",
      "transactionHash": "0xe395b9570b50a4f27139854ca96f5826f2231397005393eb4fb5d95e851ac10c",
      "transactionIndex": "0x1",
      "blockHash": "0x3a8b8e8aa80e39515da0ab517e914286f260cf0c7eb398b8a657572cc3299710",
      "blockNumber": "0x5e78b3e",
      "gasUsed": "0xacc6",
      "effectiveGasPrice": "0x5f5e100",
      "from": "0xb05a948b5c1b057b88d381bde3a375efea87ebad",
      "to": "0xb1d70992f85449807e23573cc27ea8c240d8a688",
      "contractAddress": null,
      "gasUsedForL1": "0x619",
      "l1BlockNumber": "0x6c9d1f"
    },
    {
      "status": "0x1",
      "cumulativeGasUsed": "0x10390",
      "logs": [
        {
          "address": "0xc1af6e7a17f1114a4ba13ba86271492aab0291ed",
          "topics": [
            "0x8be0079c531659141344cd1fd0a4f28419497f9722a3daafe3b4186f6b6457e0",
            "0x000000000000000000000000333837ec0d4f3d9b3df0216996a148b46ce3541b",
            "0x000000000000000000000000333837ec0d4f3d9b3df0216996a148b46ce3541b"
          ],
          "data": "0x",
          "blockHash": "0xff90ccb5e9aef61d9571ad01f7800905f895620d0cd5df4a0fbb15b95aa5e670",
          "blockNumber": "0x5e78b45",
          "transactionHash": "0xe493b4ce8f8254f1882ba845b33527575f6ecf22853274c6336b2d592894d8bd",
          "transactionIndex": "0x2",
          "logIndex": "0x0",
          "removed": false
        }
      ],
      "logsBloom": "0x00000000000000000000000000000000000000000000000000800080000000000000000000000000000000000000000000000000000000000000000000000000000000000000000000000000000000000001800000000000020000000000000000000000000000000000000000000000000000020000000000000000000000400000000000000000000000000000000000000000000000000100000000000000000000000000000000000000000000000000000000000000000000000000000000000000000000000000000000000000000000008000000000000000000000000000000000000000000000000000000000000000000000000000000000000000",
      "type": "0x2",
      "transactionHash": "0xe493b4ce8f8254f1882ba845b33527575f6ecf22853274c6336b2d592894d8bd",
      "transactionIndex": "0x2",
      "blockHash": "0xff90ccb5e9aef61d9571ad01f7800905f895620d0cd5df4a0fbb15b95aa5e670",
      "blockNumber": "0x5e78b45",
      "gasUsed": "0xacc6",
      "effectiveGasPrice": "0x5f5e100",
      "from": "0xb05a948b5c1b057b88d381bde3a375efea87ebad",
      "to": "0xc1af6e7a17f1114a4ba13ba86271492aab0291ed",
      "contractAddress": null,
      "gasUsedForL1": "0x619",
      "l1BlockNumber": "0x6c9d1f"
    },
    {
      "status": "0x1",
      "cumulativeGasUsed": "0xacc6",
      "logs": [
        {
          "address": "0xe1fe0c77166350852cddbcf12ec4cb99e22694ed",
          "topics": [
            "0x8be0079c531659141344cd1fd0a4f28419497f9722a3daafe3b4186f6b6457e0",
            "0x000000000000000000000000333837ec0d4f3d9b3df0216996a148b46ce3541b",
            "0x000000000000000000000000333837ec0d4f3d9b3df0216996a148b46ce3541b"
          ],
          "data": "0x",
          "blockHash": "0xc0b99bf280b73a9afd6b037c413739d42c4ae25a715f656deeeecce0f3a2ef00",
          "blockNumber": "0x5e78b47",
          "transactionHash": "0x03001767d64ba3e0ee63b440c4a09f53068aeb5a6bc9a8e1c17c8e2d2027a928",
          "transactionIndex": "0x1",
          "logIndex": "0x0",
          "removed": false
        }
      ],
      "logsBloom": "0x00000000000000000000000000000000000000000000000000800000000000000000000000000000000000000000000000000000000000000000000000000000000000000000000000000000000000000001800000000000000000001000200000000000000000000000000000000000000000000000000000000000000000400000000000000000000000000000000000000000000000000100000000000000000000000000000000000000000000000000000000000000000000000000000020000000000000000000000000000000000000008000000000000000000000000000000000000000000000000000000000000000000000000000000000000000",
      "type": "0x2",
      "transactionHash": "0x03001767d64ba3e0ee63b440c4a09f53068aeb5a6bc9a8e1c17c8e2d2027a928",
      "transactionIndex": "0x1",
      "blockHash": "0xc0b99bf280b73a9afd6b037c413739d42c4ae25a715f656deeeecce0f3a2ef00",
      "blockNumber": "0x5e78b47",
      "gasUsed": "0xacc6",
      "effectiveGasPrice": "0x5f5e100",
      "from": "0xb05a948b5c1b057b88d381bde3a375efea87ebad",
      "to": "0xe1fe0c77166350852cddbcf12ec4cb99e22694ed",
      "contractAddress": null,
      "gasUsedForL1": "0x619",
      "l1BlockNumber": "0x6c9d1f"
    },
    {
      "status": "0x1",
      "cumulativeGasUsed": "0xacc6",
      "logs": [
        {
          "address": "0xe28de81057a4f5efae0a85eced25126de79990e0",
          "topics": [
            "0x8be0079c531659141344cd1fd0a4f28419497f9722a3daafe3b4186f6b6457e0",
            "0x000000000000000000000000333837ec0d4f3d9b3df0216996a148b46ce3541b",
            "0x000000000000000000000000333837ec0d4f3d9b3df0216996a148b46ce3541b"
          ],
          "data": "0x",
          "blockHash": "0xe04c11c7ecfbbabf10c18a4087eb83a9527c483685ceebbf986b07bdf57b8b6b",
          "blockNumber": "0x5e78b4a",
          "transactionHash": "0x37ac2f27044eca20c025eef3ab71db1fd2e644b15f9377e0a8737cd86e614f4b",
          "transactionIndex": "0x1",
          "logIndex": "0x0",
          "removed": false
        }
      ],
      "logsBloom": "0x00000000000000000000000000000000000000000000000000800000000000000000000000000000000000000000000000000000000000000000000000000000000000000000000000000000000000000001800000000000000000000000000000000000000000000000020000000000000000000000000000000000000000400000000000000000000000000000000000000000000000000100000000000000000000000000010000000000000000000000000000000000000000000000000000400000000000000000000000000000000000008000000000000000000000000000000000000000000000000000000000000000000000000000000000000000",
      "type": "0x2",
      "transactionHash": "0x37ac2f27044eca20c025eef3ab71db1fd2e644b15f9377e0a8737cd86e614f4b",
      "transactionIndex": "0x1",
      "blockHash": "0xe04c11c7ecfbbabf10c18a4087eb83a9527c483685ceebbf986b07bdf57b8b6b",
      "blockNumber": "0x5e78b4a",
      "gasUsed": "0xacc6",
      "effectiveGasPrice": "0x5f5e100",
      "from": "0xb05a948b5c1b057b88d381bde3a375efea87ebad",
      "to": "0xe28de81057a4f5efae0a85eced25126de79990e0",
      "contractAddress": null,
      "gasUsedForL1": "0x619",
      "l1BlockNumber": "0x6c9d1f"
    },
    {
      "status": "0x1",
      "cumulativeGasUsed": "0x10390",
      "logs": [
        {
          "address": "0xf606cf11c1acd0685c4bef5dce92f4620ca49ef5",
          "topics": [
            "0x8be0079c531659141344cd1fd0a4f28419497f9722a3daafe3b4186f6b6457e0",
            "0x000000000000000000000000333837ec0d4f3d9b3df0216996a148b46ce3541b",
            "0x000000000000000000000000333837ec0d4f3d9b3df0216996a148b46ce3541b"
          ],
          "data": "0x",
          "blockHash": "0xf713982adb6eb6110620c76146fe2e518aa519efcb2a2569227fc56f201cb7c3",
          "blockNumber": "0x5e78b4d",
          "transactionHash": "0xc786d3d1e9a2be2e6177e493c3da2c6ade596dfe19bcc2f2b7eb0d0da85b6142",
          "transactionIndex": "0x2",
          "logIndex": "0x0",
          "removed": false
        }
      ],
      "logsBloom": "0x00000000000000000000000000000000000000000000000000800000000000000000000000000000000000000000000000000000000000000000000000000000000000000000000000000000000020000001800000000000000000000000000000000000000000000000000000000000000000000000000000000000000000400000000000000000000000000000000000000000000000000100000000000000000000000000000080000000000000000000000000000000000000000000000000000000000000000000000000000000000000008000020000000000000000000000000000000000000000000000000000000000000000000000000000000000",
      "type": "0x2",
      "transactionHash": "0xc786d3d1e9a2be2e6177e493c3da2c6ade596dfe19bcc2f2b7eb0d0da85b6142",
      "transactionIndex": "0x2",
      "blockHash": "0xf713982adb6eb6110620c76146fe2e518aa519efcb2a2569227fc56f201cb7c3",
      "blockNumber": "0x5e78b4d",
      "gasUsed": "0xacc6",
      "effectiveGasPrice": "0x5f5e100",
      "from": "0xb05a948b5c1b057b88d381bde3a375efea87ebad",
      "to": "0xf606cf11c1acd0685c4bef5dce92f4620ca49ef5",
      "contractAddress": null,
      "gasUsedForL1": "0x619",
      "l1BlockNumber": "0x6c9d1f"
    }
  ],
  "libraries": [],
  "pending": [],
  "returns": {},
  "timestamp": 1732135777,
  "chain": 421614,
  "commit": "3f1d7091"
}