{
  "transactions": [
    {
      "hash": "0xcd38804e9cfaa1d3ea0ce4f40126fa7614e272670aadbfbd3fd947658dcc503a",
      "transactionType": "CALL",
      "contractName": null,
      "contractAddress": "0x1133ea7af70876e64665ecd07c0a0476d09465a1",
      "function": "registerRecipient(uint256,bytes)",
      "arguments": [
        "306",
        "0x000000000000000000000000000000000000000000000000000000000000002000000000000000000000000000000000000000000000000000000000000001320000000000000000000000002f9e113434aebdd70bb99cb6505e1f726c578d6d0000000000000000000000000000000000000000000000000000000000000032000000000000000000000000cc6c8b9f745db2277f7aac1bc026d5c2ea7bd88d00000000000000000000000000000000000000000000000000000000000000a000000000000000000000000000000000000000000000000000000000000000010000000000000000000000000000000000000000000000000000000000000040000000000000000000000000000000000000000000000000000000000000002e516d57347a464c464a524e374a3637457a4e6d64433272324d397532694a44686132666a3547656536684a7a5359000000000000000000000000000000000000"
      ],
      "transaction": {
        "from": "0x2f9e113434aebdd70bb99cb6505e1f726c578d6d",
        "to": "0x1133ea7af70876e64665ecd07c0a0476d09465a1",
        "gas": "0x12e3a6",
        "value": "0x0",
        "input": "0x075c0e9c000000000000000000000000000000000000000000000000000000000000013200000000000000000000000000000000000000000000000000000000000000400000000000000000000000000000000000000000000000000000000000000160000000000000000000000000000000000000000000000000000000000000002000000000000000000000000000000000000000000000000000000000000001320000000000000000000000002f9e113434aebdd70bb99cb6505e1f726c578d6d0000000000000000000000000000000000000000000000000000000000000032000000000000000000000000cc6c8b9f745db2277f7aac1bc026d5c2ea7bd88d00000000000000000000000000000000000000000000000000000000000000a000000000000000000000000000000000000000000000000000000000000000010000000000000000000000000000000000000000000000000000000000000040000000000000000000000000000000000000000000000000000000000000002e516d57347a464c464a524e374a3637457a4e6d64433272324d397532694a44686132666a3547656536684a7a5359000000000000000000000000000000000000",
        "nonce": "0x1e2",
        "chainId": "0x66eee",
        "accessList": null,
        "type": null
      },
      "additionalContracts": [],
      "isFixedGasLimit": false
    },
    {
      "hash": "0xa97307d4d0eb668dd63e2a8b8f174e964043c5259b40176d275cec7e3514629a",
      "transactionType": "CALL",
      "contractName": null,
      "contractAddress": "0x1133ea7af70876e64665ecd07c0a0476d09465a1",
      "function": "registerRecipient(uint256,bytes)",
      "arguments": [
        "307",
        "0x000000000000000000000000000000000000000000000000000000000000002000000000000000000000000000000000000000000000000000000000000001320000000000000000000000002f9e113434aebdd70bb99cb6505e1f726c578d6d000000000000000000000000000000000000000000000000000000000000000a000000000000000000000000cc6c8b9f745db2277f7aac1bc026d5c2ea7bd88d00000000000000000000000000000000000000000000000000000000000000a000000000000000000000000000000000000000000000000000000000000000010000000000000000000000000000000000000000000000000000000000000040000000000000000000000000000000000000000000000000000000000000002e516d57347a464c464a524e374a3637457a4e6d64433272324d397532694a44686132666a3547656536684a7a5359000000000000000000000000000000000000"
      ],
      "transaction": {
        "from": "0x2f9e113434aebdd70bb99cb6505e1f726c578d6d",
        "to": "0x1133ea7af70876e64665ecd07c0a0476d09465a1",
        "gas": "0x12fb19",
        "value": "0x0",
        "input": "0x075c0e9c000000000000000000000000000000000000000000000000000000000000013300000000000000000000000000000000000000000000000000000000000000400000000000000000000000000000000000000000000000000000000000000160000000000000000000000000000000000000000000000000000000000000002000000000000000000000000000000000000000000000000000000000000001320000000000000000000000002f9e113434aebdd70bb99cb6505e1f726c578d6d000000000000000000000000000000000000000000000000000000000000000a000000000000000000000000cc6c8b9f745db2277f7aac1bc026d5c2ea7bd88d00000000000000000000000000000000000000000000000000000000000000a000000000000000000000000000000000000000000000000000000000000000010000000000000000000000000000000000000000000000000000000000000040000000000000000000000000000000000000000000000000000000000000002e516d57347a464c464a524e374a3637457a4e6d64433272324d397532694a44686132666a3547656536684a7a5359000000000000000000000000000000000000",
        "nonce": "0x1e3",
        "chainId": "0x66eee",
        "accessList": null,
        "type": null
      },
      "additionalContracts": [],
      "isFixedGasLimit": false
    }
  ],
  "receipts": [
    {
      "status": "0x1",
      "cumulativeGasUsed": "0x871fc",
      "logs": [
        {
          "address": "0x25af7a4bf9611803a7d675ba85f1ab4ddd5e89cc",
          "topics": [
            "0xfcf3b1aa65a464cef2889608f99e8b8c0f680a4be6c2acb9d961c536a5a9294b"
          ],
          "data": "0x00000000000000000000000000000000000000000000000000000000000001320000000000000000000000000000000000000000000000000000000000000001",
          "blockHash": "0x0222f640da874ec02fd7a44e4ed868f38ea564af6e4807ea8b16dd118061487a",
          "blockNumber": "0x1efdc83",
          "transactionHash": "0xcd38804e9cfaa1d3ea0ce4f40126fa7614e272670aadbfbd3fd947658dcc503a",
          "transactionIndex": "0x1",
          "logIndex": "0x0",
          "removed": false
        }
      ],
      "logsBloom": "0x00200000000000000000000000000000000000000000000000000080000000000000000000000000000000000000008000000000000800000000000000000000000000000000000000000000000000000000000000000000000000000000000000000000000000000000000000000000000000000000000000000000000000000000000000000000000002000000000000000000000000000000000000000000000000000000000000000000000000000000000000000000000000000000000000000000000000000000000000000000000000000000000000000000000000000000000001000000000000000000000000000000000000000000000000000000",
      "type": "0x2",
      "transactionHash": "0xcd38804e9cfaa1d3ea0ce4f40126fa7614e272670aadbfbd3fd947658dcc503a",
      "transactionIndex": "0x1",
      "blockHash": "0x0222f640da874ec02fd7a44e4ed868f38ea564af6e4807ea8b16dd118061487a",
      "blockNumber": "0x1efdc83",
      "gasUsed": "0x871fc",
      "effectiveGasPrice": "0x33398e50",
      "from": "0x2f9e113434aebdd70bb99cb6505e1f726c578d6d",
      "to": "0x1133ea7af70876e64665ecd07c0a0476d09465a1",
      "contractAddress": null,
      "gasUsedForL1": "0x3300e",
      "l1BlockNumber": "0x56902f"
    },
    {
      "status": "0x1",
      "cumulativeGasUsed": "0x2750f2",
      "logs": [
        {
          "address": "0x37db488790dd2e33f94deb32684f1189c101daa6",
          "topics": [
            "0xfcf3b1aa65a464cef2889608f99e8b8c0f680a4be6c2acb9d961c536a5a9294b"
          ],
          "data": "0x00000000000000000000000000000000000000000000000000000000000001330000000000000000000000000000000000000000000000000000000000000001",
          "blockHash": "0x752922f3d05a22f29872b73672d194a11cca91589bc52ec595e737e77b09319a",
          "blockNumber": "0x1efdc87",
          "transactionHash": "0xa97307d4d0eb668dd63e2a8b8f174e964043c5259b40176d275cec7e3514629a",
          "transactionIndex": "0x3",
          "logIndex": "0x9",
          "removed": false
        }
      ],
      "logsBloom": "0x00000000000000000000000000000000000000000000000000000080000000000000000000000000000000000000008000000000000800000000000000000000000000000000000000000000000000000000000000000000000000000000000000000000000000000000000000000000000000000000000000000000000000000000000000000000000000000000000000000000000000000000000000000000000000000000000000000000000000000000000000008000000000000000000000000000000000000000000000000000000000000040200000000000000000000000000000000000000000000000000000000000000000000000000000000000",
      "type": "0x2",
      "transactionHash": "0xa97307d4d0eb668dd63e2a8b8f174e964043c5259b40176d275cec7e3514629a",
      "transactionIndex": "0x3",
      "blockHash": "0x752922f3d05a22f29872b73672d194a11cca91589bc52ec595e737e77b09319a",
      "blockNumber": "0x1efdc87",
      "gasUsed": "0x88eaf",
      "effectiveGasPrice": "0x3305ad10",
      "from": "0x2f9e113434aebdd70bb99cb6505e1f726c578d6d",
      "to": "0x1133ea7af70876e64665ecd07c0a0476d09465a1",
      "contractAddress": null,
      "gasUsedForL1": "0x34cc1",
      "l1BlockNumber": "0x56902f"
    }
  ],
  "libraries": [],
  "pending": [],
  "returns": {},
  "timestamp": 1712814042,
  "chain": 421614,
  "commit": "1484b46"
}