{
  "transactions": [
    {
      "hash": "0x4ebb37fabe230a733329d197d6688fac1150e22952c180fb286b752ae7a39c6f",
      "transactionType": "CALL",
      "contractName": null,
      "contractAddress": "0x1133ea7af70876e64665ecd07c0a0476d09465a1",
      "function": "registerRecipient(uint256,bytes)",
      "arguments": [
        "306",
        "0x000000000000000000000000000000000000000000000000000000000000002000000000000000000000000000000000000000000000000000000000000001320000000000000000000000002f9e113434aebdd70bb99cb6505e1f726c578d6d0000000000000000000000000000000000000000000000000000000000000032000000000000000000000000cc6c8b9f745db2277f7aac1bc026d5c2ea7bd88d00000000000000000000000000000000000000000000000000000000000000a000000000000000000000000000000000000000000000000000000000000000010000000000000000000000000000000000000000000000000000000000000040000000000000000000000000000000000000000000000000000000000000002e516d57347a464c464a524e374a3637457a4e6d64433272324d397532694a44686132666a3547656536684a7a5359000000000000000000000000000000000000"
      ],
      "transaction": {
        "from": "0x2f9e113434aebdd70bb99cb6505e1f726c578d6d",
        "to": "0x1133ea7af70876e64665ecd07c0a0476d09465a1",
        "gas": "0x6bbf2",
        "value": "0x0",
        "input": "0x075c0e9c000000000000000000000000000000000000000000000000000000000000013200000000000000000000000000000000000000000000000000000000000000400000000000000000000000000000000000000000000000000000000000000160000000000000000000000000000000000000000000000000000000000000002000000000000000000000000000000000000000000000000000000000000001320000000000000000000000002f9e113434aebdd70bb99cb6505e1f726c578d6d0000000000000000000000000000000000000000000000000000000000000032000000000000000000000000cc6c8b9f745db2277f7aac1bc026d5c2ea7bd88d00000000000000000000000000000000000000000000000000000000000000a000000000000000000000000000000000000000000000000000000000000000010000000000000000000000000000000000000000000000000000000000000040000000000000000000000000000000000000000000000000000000000000002e516d57347a464c464a524e374a3637457a4e6d64433272324d397532694a44686132666a3547656536684a7a5359000000000000000000000000000000000000",
        "nonce": "0x28b",
        "chainId": "0x66eee"
      },
      "additionalContracts": [],
      "isFixedGasLimit": false
    },
    {
      "hash": "0x37c789d2b5682c36c0a604d6f60ae704a23d0669594f8147fb1ba09471b52d47",
      "transactionType": "CALL",
      "contractName": null,
      "contractAddress": "0x1133ea7af70876e64665ecd07c0a0476d09465a1",
      "function": "registerRecipient(uint256,bytes)",
      "arguments": [
        "307",
        "0x000000000000000000000000000000000000000000000000000000000000002000000000000000000000000000000000000000000000000000000000000001320000000000000000000000002f9e113434aebdd70bb99cb6505e1f726c578d6d000000000000000000000000000000000000000000000000000000000000000a000000000000000000000000cc6c8b9f745db2277f7aac1bc026d5c2ea7bd88d00000000000000000000000000000000000000000000000000000000000000a000000000000000000000000000000000000000000000000000000000000000010000000000000000000000000000000000000000000000000000000000000040000000000000000000000000000000000000000000000000000000000000002e516d57347a464c464a524e374a3637457a4e6d64433272324d397532694a44686132666a3547656536684a7a5359000000000000000000000000000000000000"
      ],
      "transaction": {
        "from": "0x2f9e113434aebdd70bb99cb6505e1f726c578d6d",
        "to": "0x1133ea7af70876e64665ecd07c0a0476d09465a1",
        "gas": "0x6bbf6",
        "value": "0x0",
        "input": "0x075c0e9c000000000000000000000000000000000000000000000000000000000000013300000000000000000000000000000000000000000000000000000000000000400000000000000000000000000000000000000000000000000000000000000160000000000000000000000000000000000000000000000000000000000000002000000000000000000000000000000000000000000000000000000000000001320000000000000000000000002f9e113434aebdd70bb99cb6505e1f726c578d6d000000000000000000000000000000000000000000000000000000000000000a000000000000000000000000cc6c8b9f745db2277f7aac1bc026d5c2ea7bd88d00000000000000000000000000000000000000000000000000000000000000a000000000000000000000000000000000000000000000000000000000000000010000000000000000000000000000000000000000000000000000000000000040000000000000000000000000000000000000000000000000000000000000002e516d57347a464c464a524e374a3637457a4e6d64433272324d397532694a44686132666a3547656536684a7a5359000000000000000000000000000000000000",
        "nonce": "0x28c",
        "chainId": "0x66eee"
      },
      "additionalContracts": [],
      "isFixedGasLimit": false
    }
  ],
  "receipts": [
    {
      "status": "0x1",
      "cumulativeGasUsed": "0xb32a2",
      "logs": [
        {
          "address": "0x25af7a4bf9611803a7d675ba85f1ab4ddd5e89cc",
          "topics": [
            "0xfcf3b1aa65a464cef2889608f99e8b8c0f680a4be6c2acb9d961c536a5a9294b"
          ],
          "data": "0x00000000000000000000000000000000000000000000000000000000000001320000000000000000000000000000000000000000000000000000000000000002",
          "blockHash": "0xec0f0b7a7131cae81153f2f96b25f2ecc3cd461ac334a5f029e9504bc6043907",
          "blockNumber": "0x2c05a96",
          "transactionHash": "0x4ebb37fabe230a733329d197d6688fac1150e22952c180fb286b752ae7a39c6f",
          "transactionIndex": "0x2",
          "logIndex": "0x6",
          "removed": false
        }
      ],
      "logsBloom": "0x00200000000000000000000000000000000000000000000000000080000000000000000000000000000000000000008000000000000800000000000000000000000000000000000000000000000000000000000000000000000000000000000000000000000000000000000000000000000000000000000000000000000000000000000000000000000002000000000000000000000000000000000000000000000000000000000000000000000000000000000000000000000000000000000000000000000000000000000000000000000000000000000000000000000000000000000001000000000000000000000000000000000000000000000000000000",
      "type": "0x2",
      "transactionHash": "0x4ebb37fabe230a733329d197d6688fac1150e22952c180fb286b752ae7a39c6f",
      "transactionIndex": "0x2",
      "blockHash": "0xec0f0b7a7131cae81153f2f96b25f2ecc3cd461ac334a5f029e9504bc6043907",
      "blockNumber": "0x2c05a96",
      "gasUsed": "0x50025",
      "effectiveGasPrice": "0x9e4b1240",
      "from": "0x2f9e113434aebdd70bb99cb6505e1f726c578d6d",
      "to": "0x1133ea7af70876e64665ecd07c0a0476d09465a1",
      "contractAddress": null,
      "gasUsedForL1": "0x103",
      "l1BlockNumber": "0x5ab26b"
    },
    {
      "status": "0x1",
      "cumulativeGasUsed": "0x50027",
      "logs": [
        {
          "address": "0x37db488790dd2e33f94deb32684f1189c101daa6",
          "topics": [
            "0xfcf3b1aa65a464cef2889608f99e8b8c0f680a4be6c2acb9d961c536a5a9294b"
          ],
          "data": "0x00000000000000000000000000000000000000000000000000000000000001330000000000000000000000000000000000000000000000000000000000000003",
          "blockHash": "0x7c588a09a25a423a072ac9bb8ffc6a54944df957e6c592ecf44c28117ef222a8",
          "blockNumber": "0x2c05a9a",
          "transactionHash": "0x37c789d2b5682c36c0a604d6f60ae704a23d0669594f8147fb1ba09471b52d47",
          "transactionIndex": "0x1",
          "logIndex": "0x0",
          "removed": false
        }
      ],
      "logsBloom": "0x00000000000000000000000000000000000000000000000000000080000000000000000000000000000000000000008000000000000800000000000000000000000000000000000000000000000000000000000000000000000000000000000000000000000000000000000000000000000000000000000000000000000000000000000000000000000000000000000000000000000000000000000000000000000000000000000000000000000000000000000000008000000000000000000000000000000000000000000000000000000000000040200000000000000000000000000000000000000000000000000000000000000000000000000000000000",
      "type": "0x2",
      "transactionHash": "0x37c789d2b5682c36c0a604d6f60ae704a23d0669594f8147fb1ba09471b52d47",
      "transactionIndex": "0x1",
      "blockHash": "0x7c588a09a25a423a072ac9bb8ffc6a54944df957e6c592ecf44c28117ef222a8",
      "blockNumber": "0x2c05a9a",
      "gasUsed": "0x50027",
      "effectiveGasPrice": "0x9eef8fa0",
      "from": "0x2f9e113434aebdd70bb99cb6505e1f726c578d6d",
      "to": "0x1133ea7af70876e64665ecd07c0a0476d09465a1",
      "contractAddress": null,
      "gasUsedForL1": "0x105",
      "l1BlockNumber": "0x5ab26c"
    }
  ],
  "libraries": [],
  "pending": [],
  "returns": {},
  "timestamp": 1716241607,
  "chain": 421614,
  "commit": "e1405b7"
}